:1000A60053656C65637420447269766572005365A6
:1000B6006C65637420547261636B0053656C656391
:1000C600742056656869636C650053657373696F60
:1000D6006E730056696577204C61707300457261D6
:1000E600736520446174610053657373696F6E2094
:1000F60044657461696C00313020487A00323020E2
:10010600487A00343020487A0053656C6563742061
:1001160052617465005553205374616E6461726454
:10012600004D65747269630053656C656374205590
:100136006E697473004C617074696D6520486F6CEC
:1001460064004772617068205363616C6500547285
:1001560061636B204C656E677468004C6170205358
:10016600657474696E6773002D302E3520746F20A8
:10017600302E3573002D3120746F202B3173002DF6
:100186003220746F202B3273002D3520746F202B94
:100196003573002D313020746F202B3130730053AE
:1001A600686F7274203C31206D692C312E366B6D70
:1001B600004D656420312D356D692C312E362D3874
:1001C6006B6D004C6F6E6720352B206D692C382BBC
:1001D600206B6D00447269766572005665686963C6
:1001E6006C6500547261636B0053616D706C696E6F
:1001F60067205261746500457261736520536573AB
:1002060073696F6E7300474D54204F66667365744D
:1002160000436F6E747261737400556E6974730077
:100226004C61702F5175616C2053657474696E67EB
:100236007300466163746F72792044656661756CFC
:1002460074730053657474696E6773004C617073E0
:10025600005175616C696679696E67004175746FE6
:1002660063726F7373202F2052616C6C7900447235
:10027600697665005461636820262053706565645D
:100286006F0047617567657300472D466F7263653A
:10029600730047732026204C6F636174696F6E008C
:1002A600496E707574730044617461204D6F6465A6
:1002B6000047505320436F6D70617373004750536E
:1002C600204C6F636174696F6E00436865636B20D1
:1002D600496E70757473004F74686572204D6F6453
:1002E6006573005265636F726420446174610056E1
:1002F6006965772053657373696F6E730043686130
:100306006E67652053657474696E67730043757212
:1003160072656E7420537461747573004F746865EA
:1003260072204665617475726573004D61696E2051
:100336004D656E7500594553004E4F00204172655C
:1003460020596F7520537572653F0020436C7220EB
:1003560053746172742F46696E3F005357204D499E
:10036600534D41544348002052656C6F61642053DD
:100376005700445249564520534146454C590020A2
:100386002044552073772025642E2530326420645E
:100396006174612025640020205355207377202541
:1003A600642E253032642064617461202564002A3D
:1003B600205355204E4F5420434F4E4E45435445EF
:1003C60044202A005468697320756E69742062653A
:1003D6006C6F6E677320746F004C6F6164696E6733
:1003E6000053746F72696E670043616E63656C6972
:1003F6006E6700436F7079726967687420284329B5
:1004060020323030352D3720547261636B2053799A
:100416007374656D7320546563686E6F6C6F67697E
:1004260065732C204C4C4300030100FF4375727228
:10043600656E74205374617475730007FF00D9FFED
:10044600C3E004FF00E3FFE77906FF00EEFF753621
:100456000000000000000002FF00FDFFEE9E02FF0C
:100466000103FFEE9E02FF0109FFEE9E0000000061
:1004760000000002FF011BFFEED102FF0127FFEE85
:10048600D10000000000000007FF013BFFE88206E4
:10049600FF0148FFEB5806FF0154FFF01B00000068
:1004A6000000000002FF016EFFEF6502FF017BFF07
:1004B600EF6502FF0185FFEF6502FF018FFFEF6524
:1004C60002FF0199FFEF650000000000000002FF37
:1004D60001A5FFEFC302FF01B7FFEFC302FF01C98A
:1004E600FFEFC30000000000000006FF01DAFFBDB9
:1004F6007106FF01E1FFBBB606FF01E9FFB8290659
:10050600FF01EFFFE38504FF01FDFFEE3207FF0267
:100516000CFFE7D207FF0217FFE6C506FF0220FF22
:10052600F09701FF02260103B704FF0238FFEF35FB
:100536000000000000000007FF0252FF542107FFE1
:100546000257FF542107FF0262FF542107FF02747E
:10055600FF542107FF027AFF542107FF0288FF5448
:100566002107FF028FFF542107FF0298FF5421073E
:10057600FF02A6FF54210000000000000007FF0252
:10058600B7FF542107FF02C3FF542107FF02D0FF24
:100596005421000000000000000F0F0F0FFFFFFFA7
:1005A600FF0F0F0F0FFFFFFFFFCFCFCFCFCFFFFF05
:1005B600FEFC008FCFCFCFCFCFCFCFCFFFFEFEFC3D
:1005C600FCFEFFFF0F0F0F0F0F0F0FFFFFFEF800D0
:1005D600FFFFFFFF0F0F0FFFFFFFFF0F0F0FFFFFC5
:1005E600FEFC008FCFCFCFCFCFCFCFCFFFFEFEFC0D
:1005F6000F0F0F0FFFFFFFFF0F0F0F0FFCFEFFFF89
:10060600CFCFCFCFCFCFFFFFFEFC000000007F7F14
:100616007FFF000000007F7F7F7F03070F1F3F7F64
:100626007B73613F7F7F7B7B7B7B7B7B7B7F7F7F5E
:100636007F1F3F7F7F78787B7F7F7E7C3F7F7F7FBA
:10064600607F7F7F7F0000007F7F7F7F0000007FCD
:100656007F7F7F3F7F7F7B7B7B7B7B7B7B7F7F7F00
:100666007F000000007F7F7F7F000000001F3F3F6C
:100676007F7B7B7B7B7B7B7B7B7978FFFFFFFFFF31
:10068600FFFFFFFFFFFFFFFFFFFFFFFFFFFFFFFF74
:10069600FFFFFFFFFFFFFFFFFFFFFFFFFFFFFFFF64
:1006A600FFFFFFFFFFFFFFFFFFFFFFFFFFFFFFFF54
:1006B600FFFFFFFFFFFFFFFFFFFFFFFFFFFFFFFF44
:1006C600FFFFFFFFFFFFFFFFFFFFFFFFFFFFFFFF34
:1006D600FFFFFFFFFFFFFFFFFFFFFFFFFFFFFFFF24
:1006E600FFFFFFFFFFFFFFFFFFFFFFFFFFFFFFFF14
:1006F600FFFFFFFFFF0000000000000000000000F9
:1007060000000000000000000000000000000000E3
:1007160000000000000000000000000000000000D3
:1007260000000000000000000000000000000000C3
:1007360000000000000000000000000000000000B3
:1007460000000000000000000000000000000000A3
:100756000000000000000000000000000000000093
:10076600000000000000000000000000000000FF84
:100776000000000000000000000000000000C300B0
:1007860000000000000000000000000000E700007C
:10079600000000000000000000000000C300000090
:1007A600000000000000000000000055AA00000044
:1007B6000000000000000000000000C30000000070
:1007C60000000000000000000000E700000000003C
:1007D600000000000000000000C300000000000050
:1007E6000000000000000000FF00406070787C7E82
:1007F6007C787060400000000000000000000000EF
:1008060000000000000000000000000000000000E2
:1008160000000000000000000000000000000000D2
:1008260000000000000000000000000000000000C2
:1008360000000000000000000000000000000000B2
:1008460000000000000000000000000000000000A2
:100856000000000000000000000000000000000092
:100866000000000002060E1E3E7E3E1E0E06020020
:100876000000000000000000000000000000000072
:100886000000000000000000000000000000000062
:100896000000000000000000000000000000000052
:1008A6000000000000000000000000000000000042
:1008B6000000000000000000000000000000000032
:1008C6000000000000000000000000000000000022
:1008D6000000000000000000000000000000060606
:1008E60006060606060606060600000000000000CC
:1008F60000000000000000000000000000000000F2
:1009060000000000000000000000000000000000E1
:1009160000000000000000000000000000000000D1
:1009260000000000000000000000000000000000C1
:1009360000000000000000000000000000000000B1
:1009460000000000000000000000000000000000A1
:100956000000000000000000606060606060606091
:100966006060600000000000000000000000000061
:100976000000000000000000000000000000000071
:100986000000000000000000000000000000000061
:100996000000000000000000000000000000000051
:1009A6000000000000000000000000000000000041
:1009B6000000000000000000000000000000000031
:1009C6000000000000000000000000000000000021
:1009D60000006666666666666666666666000000AF
:1009E6000000000000000000000000000000000001
:1009F60000000000000000000000000000000000F1
:100A060000000000000000000000000000000000E0
:100A160000000000000000000000000000000000D0
:100A260000000000000000000000000000000000C0
:100A360000000000000000000000000000000000B0
:100A46000000000000000000000000FFFF00008121
:100A5600C3E7FF000081C3E7FFFFFFFFFFFFFFFFC4
:100A6600FFFFFFFFFFFFFFFFFFFFFFFFFFFFFFFF90
:100A7600FFFFFFFFFFFFFFFFFFFFFFFFFFFFFFFF80
:100A8600FFFFFFFFFFFFFFFFFFFFFFFFFFFFFFFF70
:100A9600FFFFFFFFFFFFFFFFFFFFFFFFFFFFFFFF60
:100AA600FFFFFFFFFFFFFFFFFFFFFFFFFFFFFFFF50
:100AB600FFFFFFFFFFFFFFFFFFFFFFFFFFFFFFFF40
:100AC600FFFFFFFFFF2814281428142814281428D1
:100AD6001428142814281428000000000000000020
:100AE6000000000000000000000000000000000000
:100AF60000000000000000000000000000000000F0
:100B060000000000000000000000000000000000DF
:100B160000000000000000000000000000000000CF
:100B26000000000000000000000000002814281447
:100B360028142814281428142814281428142800E3
:100B4600000000000000000000000000808080809F
:100B560080C06030180C18B0E040000000000000B3
:100B6600000000000000000000000000000000007F
:100B7600000080C0C080000080C0C0C0C08000806F
:100B8600C0C0C0C08000C0C00000C0C000C0C0C09F
:100B9600C000C0C0C0C0C08000C0C0C0C000C0C0CF
:100BA6008000C0C00080C0C0C0C0C00000000000FF
:100BB600000000000000000000000000000000002F
:100BC600000080FCFE57AB55AB55AB55ABFEFC06A3
:100BD60003414040808080808000000000000000CB
:100BE6000000000000000000000000FFFF1919FFD0
:100BF600FF007FFFC0C0E161007FFFC0F0FFFF0084
:100C06007FFFC0C0FF7F00C0FFFFC000FFFF3C7C2E
:100C1600EFC700C0FFFFC000FFFF0F7CFFFF007F94
:100C2600FFC0CCFC7C0000000000000000000000BB
:100C36000000000000000000081C3663C160311B84
:100C46000E070607060723212040404444448888AF
:100C56008888081111111121222242444400000003
:100C6600000000F0F81898B8B000F8F89898F8F076
:100C760000F0F89898B8300000000000F0F8989856
:100C8600B8300018F8F81800F0F81898B8B000F85E
:100C9600F8F080F8F800E0F03838F0E000F8F800F6
:100CA600000000000000000000000000000000003E
:100CB600000000000000000000000000000000002E
:100CC600000000000000000000000000010101011A
:100CD600010202020404040000000000000F1F18B5
:100CE600191F0F001F1F01010100000C1D19191FFC
:100CF6000F00000000000C1D19191F0F00181F1F00
:100D060018000F1F18191F0F001F1F010F1F1F00AC
:100D16001F1F03031F1F001F1F18181818000000AD
:100D26000000000000000000FCFC0000000000F8CD
:100D3600FC0C0CFCF800F8FC0C0CFCF800FCFCF0BD
:100D4600B81C0C000CFCFC0C00FCFC78E0FCFC0065
:100D5600F8FC0CCCDCD8000000000000000000000D
:100D66000000000000E0F090D8C8ACA49692CA4AF1
:100D76007E3E30909050482828242424242424247D
:100D860044A4140C04048850202020202020202075
:100D9600202040C04080000000000000008040206D
:100DA6001000E7E76666666600C3E76666E7C300A7
:100DB600E3E76666E7C300070701C3E76660E6C7C1
:100DC600076660E7E760630787C0E3E7C68607E371
:100DD600E06060E0C0006060E0E06060000000008D
:100DE600E0BE0203C3E171303476E6C5355494940F
:100DF600949494949494949494941414010202C137
:100E0600E474343474E4C808182890783C1E0D86BF
:100E160040203078FCFEFFFFFE7C38003F3F060690
:100E26000600001F3F30303F1F003F3F061E3B318C
:100E360000000000193B33363E1C0000003F3F0017
:100E460000003F3F0C0C3F3F003F3F061E3B31007A
:100E560000003F3F00000000000000010101030701
:100E66000E0C0C0E0703020202020202020202022A
:100E760002020202020202020201070E0C0C0E0717
:100E8600038242E1F0F8FCFEF9F0E04060F0F8FD84
:100E9600FFFDF8F060000000000000000000000008
:100EA600000000000000000000000000000000003C
:100EB600000000000000000000000000000000002C
:100EC600000000000000000000000000000000001C
:100ED600000000000000000000000000000000000C
:100EE60000000000000000000000000000000000FC
:100EF60000000080C0E0F0F8F4E2C18080C0E1F3B9
:100F0600FFFFF3E1C0804020110B07030100000042
:100F1600000000F0F03030F0E000F0F03030F0E0AB
:100F260000F0F03030303000E0F03030706000E03B
:100F3600F03030706000000000F80404E4F434344B
:100F4600746404F4F434343404F4F404040404F44B
:100F5600F434343404E4F434347464043434F4F48B
:100F660034340404F800000000C0E07070E0C000F3
:100F76003030F0F0303000000000000000000000CB
:100F8600000000000080402010000000003F3F03EA
:100F9600030301003F3F0F1F3B31003F3F33333315
:100FA6003000193B33333F1E00193B33333F1E00DD
:100FB6000000007F808099BBB3B3BF9E80BFBFB3E4
:100FC600B3B080BFBFB0B0B080BFBFB3B3B0809F77
:100FD600BFB0B0B898808080BFBF808080807F001F
:100FE6000000003F3F06063F3F0000003F3F000075
:100FF600000000000000008040203078FCFEFFFF6B
:10100600FE7C3800000000F0F89898B830001818F8
:10101600F8F8181800E0F03838F0E000F8F898987A
:10102600F8F0001818F8F818180000000080E078AA
:10103600180000F8F8989898180018F8F81800F8AA
:10104600F8F080F8F80018F8F81800F0F89898B852
:101056003000F8F88080F8F800000000000000007A
:101066000000000000000000008040E0F0F8FCFEF8
:10107600F9F0E04060F0F8FDFFFDF8F060000000D8
:10108600000C1D19191F0F0000001F1F0000001F74
:101096001F03031F1F001F1F070F1D180000001F3F
:1010A6001F00000000181E0701000000001F1F019E
:1010B60001010000181F1F18001F1F010F1F1F002E
:1010C600181F1F18000C1D19191F0F001F1F0101E3
:1010D6001F1F00000000000000000080C0E0F0F8C4
:1010E600F4E2C18080C0E1F3FFFFF3E1C08040205D
:1010F600110B0703010000000000000000806010D3
:101106001010101010101010101010F00000000039
:10111600000000F070C000000000000000000000A9
:1011260000000000000080C0C0E0E0F0F0787878B1
:101136007C7CFCFCFC7C7CFCFC7C7CFCFC7C7C7C69
:101146007878F0F0E0E0C0C0800000000000000009
:10115600F01010105050101010101010101010F049
:1011660000000000000000E020A06040603808F8A1
:10117600000080C060384F0100020300000000003C
:101186000000000018438478C08000C0601F00FF84
:1011960000000000000000000080E0F8FCFEFFFFF9
:1011A600FFFFFFFFFFFFFFC0C0DBDBC0E4FFFFFC6C
:1011B600F8C3C3F8FCFFFFC0C0DBDBDFFFFFFFFFA8
:1011C600FFFFFFFFFEFCF8F0E0807F0087C0000015
:1011D60000000000000000010CF386FC0000000087
:1011E60000FFF700000000003E01FF11141213106B
:1011F6001010101010101010101090909010101069
:10120600101312151110101010131214141C1810AC
:1012160010101E1F1F9FDFFF7F3F1F1F1F1F1F1F57
:101226001FDF23B9A535B5A539212121212139A5EE
:10123600B535A5B923DF1F1F1F1F1F1F1F3F7FFFC8
:10124600DF9F17111814171010109090901010109F
:101256001010101015131F1E10101C131010101054
:10126600101010101F000030400040000000000069
:101276000000070501030203000000000000000053
:101286000000000000000080C0E070381C0E07035C
:10129600010000000000000000007F7870717130CE
:1012A60011111036363636361011113071717078CC
:1012B6007F0000000000000000000103070E1C383C
:1012C60070E0C181000001000020103828083000BD
:1012D600000000000000000000000000000000FF09
:1012E600FFFFFFFFFFFFFF0000001C1C1C000000AB
:1012F600FFFFFFFFFFFFFFFF000000FFFFFFFFFFF5
:10130600FFFFFF0000001C1C1C000000FFFFFFFF8A
:10131600FFFFFFFF000000FFFFFFFFFFFFFFFF00D3
:101326000000000000000000FFFFFFFFFFFFFFFFBF
:101336003F3F3F3F3F3F3FFF0000001C1C1C00009B
:10134600003F3F3F3F3F3F3F3F0000003F3F3F3FA3
:101356003F3F3F3F0000001C1C1C0000003F3F3F7A
:101366003F3F3F3F3F0000003F3F3F3F3F3F3F3F44
:101376000000001C1C1C0000003F3F3F3F3F3F3F5A
:101386003F00000000000000000000000000000018
:10139600000000000000F0F0F0F0F0F0F0F00000C7
:1013A60000C0C0C0000000F0F0F0F0F0F0F0F00077
:1013B6000000F0F0F0F0F0F0F0F0000000C0C0C067
:1013C600000000F0F0F0F0F0F0F0F0000000F0F0B7
:1013D600F0F0F0F0F0F0000000000000000000F077
:1013E600F0F0F0F0F0F0F000000000000000000067
:1013F60000000000000000000000000000000000E7
:1014060000000000000000000000000000000000D6
:10141600FFFFFFFFFFFFFFFF000000C1C1C100008B
:1014260000FFFFFFFFFFFFFFFF000000FFFFFFFFC2
:10143600FFFFFFFF000000C1C1C1000000FFFFFF6A
:10144600FFFFFFFFFF000000FFFFFFFFFFFFFFFFA3
:10145600000000C0C0C0000000FFFFFFFFFFFFFF4D
:10146600FF00000000000000000000000000000077
:101476000000000000C04040404040404040404026
:1014860040404040C04040404040434343434343C4
:10149600434340C0404141414040404343434343AE
:1014A6004343C34040404343434343434343404095
:1014B60040C141414040404343434343434343408B
:1014C60040C043434343434343434040404141417B
:1014D600C04040434343434343434340404040C0EE
:1014E6004040404040404040404040404040C0FFB7
:1014F6008080808080808080808080808080E18085
:1015060080808080808080808080808080F3808062
:10151600808080808080808080808080E180808064
:101526008080808080808080808080AAD580808036
:101536008080808080808080808080E18080808044
:1015460080808080808080808080F3808080808022
:10155600808080808080808080E180808080808024
:101566008080808080808080FF000000F0F0303036
:10157600F0E000F0F030303000C0E07070E0C00005
:10158600F0F03030F0E000F0F00000F0F000000085
:10159600003030F0F0303000E0F03030F0E00000A5
:1015A6000000000080808080000000000000000035
:1015B60000C0201008060100000000000000000026
:1015C6009F00000000000000000106081020C00077
:1015D6000000000000000000808080800000000005
:1015E6000000000000003F3F071F3B31003F3F3334
:1015F6003330003F3F06063F3F003F3F30303F1F3E
:101606000001033F3F03010000000000003F3F00D0
:1016160000001F3F30303F1F00000080F0FE0F012A
:10162600010FFEF0800020100C0201000000C02017
:1016360010D0D01020C0000000003F000000C020E5
:1016460010D0D01020C000000001020C1020008035
:10165600F0FE0F01010FFEF0800000000000000008
:101666000000F8F80000000000E0F03838F0E00074
:10167600F8F80000F8F800F8F8F080F8F800F0F84C
:101686001818383000F8F88080F8F80000000000DC
:10169600003078F8FCFFE7C0C0C0C0C0C0E7FFFC60
:1016A600F878300000F80E03037B7B7B037B7B7BA3
:1016B60003838383838383037B7B7B037B7B7B0324
:1016C600030EF800003078F8FCFFE7C0C0C0C0C0C9
:1016D600C0E7FFFCF8783000000000001F1F181854
:1016E6001818001F1F03031F1F000F1F18181F0FB6
:1016F600001F1F010F1F1F000F1F18181C0C001FB3
:101706001F01011F1F000000000000000000010370
:101716000307070707070703030100000000003F50
:101726003E3C3C3C3C3C1C0404040C0D0D0D0D0DD4
:101736000D0C0404041C3C3C3C3C3C3E3F000000B9
:10174600000001030307070707070703030100005B
:101756000000000000F00808C8E86868E8C808E863
:10176600E868686808E8E808080808E8E868686853
:1017760008C8E86868E8C8086868E8E868680808A3
:10178600F000000000000000000080F03C06063C6F
:10179600F0800000000000000000000000000000D3
:1017A6000000000000000000000000000000000033
:1017B600000000000000000000000000000080F0B3
:1017C6003C06063CF080000000000000000000FF20
:1017D6000000337766667E3C007F7F666660007F2A
:1017E6007F606060007F7F666660003F7F6060703C
:1017F600300000007F7F00000000FF0000000002B4
:10180600020002070F0E1C1C1C1C0E0F0702000014
:1018160002020202020202804020A2A222428202A8
:1018260002000000020202824222A2A0204082029E
:1018360002020202000002070F0E1C1C1C1C0E0FE7
:101846000702000202000000003031F1F1313101DF
:10185600E1F13131F1E10101010101E1F1313171D2
:1018660061013131F1F1313101E1F13131F1E10162
:10187600E1F13131706000F0F030303000000000EE
:101886000000000000000000000000000000F01C46
:101896000607F6F6F707F6F6F7060606060606063E
:1018A60006F7F6F607F7F6F607061CF00000000046
:1018B6000000000000000000000000000000000022
:1018C60000000000003F3F0000001F3F30303F1F78
:1018D6000000000000193B33333F1E0000003F3F6D
:1018E6000000003F3F06063F3F001F3F30363E1ECA
:1018F600003F3F33333000000000000000000000CE
:1019060000000000000000007F7C78787878783846
:10191600080808181B1B1B1B1B1B1808080838780F
:10192600787878787C7F00000000000000000000D6
:10193600000000000000000000F8FC1E0F07030373
:101946000303030303030303030303030303030361
:101956000303030303030303030303030303030351
:101966000303030303030303030303030303030341
:101976000303030303030303030303030303030331
:101986000303030303030303030303030303030321
:101996000303030303030303030303030303030311
:1019A6000303030303030303030303030303070FF1
:1019B6001EFCF8FFFF000000000000000000000011
:1019C6000000000000000000000000000000000011
:1019D6000000000000000000000000000000000001
:1019E60000000000000000000000000000000000F1
:1019F60000000000000000000000000000000000E1
:101A060000000000000000000000000000000000D0
:101A160000000000000000000000000000000000C0
:101A26000000000000000000000000FFFFFFFF00B4
:101A360000000000000000000000000000000000A0
:101A46000000000000000000000000000000000090
:101A56000000000000000000000000000000000080
:101A66000000000000000000000000000000000070
:101A76000000000000000000000000000000000060
:101A860000000000000000008000008000C0404010
:101A9600408000008040800000804040408000C0C0
:101AA6000000804000FFFF1F3F78F0E0C0C0C0C0CC
:101AB600C0C0C0C0C0C0C0C0C0C0C0C0C0C0C0C020
:101AC600C0C0C0C0C0C0C0C0C0C0C0C0C0C0C0C010
:101AD600C0C0C0C0C0C0C0C0C0C0C0C0C0C0C0C000
:101AE600C0C0C0C0C0C0C0C0C0C0C0C0C0C0C0C0F0
:101AF600C0C0C0C0C0C0C0C0C0C0C0C0C0C0C0C0E0
:101B0600C2C5C8C2C5C8C0DFD2D2D2CDC0DFC4C428
:101B1600C4DFC0CFD0D0D0C8C0DFC2C5C8D0C0FFD8
:101B2600FF000000000000005F0000000E000E0035
:101B3600247E247E24242A7F2A122616083432364E
:101B4600495926500000000E003E414100000000A9
:101B560041413E2A1C3E1C2A08083E080800000097
:101B6600403008080808080000004000201008045B
:101B7600023E4549513E00427F400072494949466E
:101B860022494949361814127F102F494949313ED6
:101B960049494932017109050336494949362649F9
:101BA60049493E000036360000002636000018245B
:101BB60042000014141400004224180002015109C6
:101BC600063E415D553E7C1211127C7F49494936DD
:101BD6003E414141227F4141413E7F494949417F42
:101BE600090909013E4149493A7F0808087F004131
:101BF6007F41002040413F017F081422417F404041
:101C060040407F027C027F7F020C307F3E41414193
:101C16003E7F090909063E4151617E7F0919294621
:101C2600264949493201017F01013F4040403F1F9B
:101C36002040201F3F403E403F41221C22410106DA
:101C460078060161514945437F414100000204087D
:101C56001020000041417F301C071C3040404040AE
:101C660040010204000034545454787F44444438FC
:101C76003844444448384444447F385454545808FB
:101C86007E090902185454543C7F08080870000461
:101C96007D40002040443D007F10384400007F40D6
:101CA60000007C047C04787C0404047838444444B2
:101CB600387E1212120C18242464587C040404087A
:101CC6004854545424043F4444243C4040403C0C73
:101CD6003040300C3C4038403C4428102844004CEE
:101CE60050503C645454544C083E41410000007F1F
:101CF60000000041413E0804020204020000000008
:101D0600000000000000000000000000000000FFCE
:101D1600FF000000000000333300000000001E1E1C
:101D2600001E1E00000000000000000030FEFE3015
:101D360030FEFE30031F1F03031F1F0378FCCCFF7A
:101D4600FFCCCC8C0C0C0C3F3F0C0F070E1F1BDF7F
:101D5600FE7C1F07303C0F1F3F363E1C1CBEF7E3C0
:101D6600F73E9C800F1F39391F0F3F3B000006C608
:101D7600FE7C000000000000000000000000FCFEE9
:101D86000703000000000F1F3830000000000307A3
:101D9600FEFC0000000030381F0F0000CEDEF0FE13
:101DA600FEF0DECE1C1E031F1F031E1CC0C0C0FC9F
:101DB600FCC0C0C00000000F0F00000000000000C3
:101DC60000000000000000002C1C000000C0C0C085
:101DD600C0C0C000000000000000000000000000BD
:101DE600000000000000303000000000000000C0CD
:101DF600F03C0F03303C0F0300000000F8FE070321
:101E06000307FEF8071F383030381F0700181C0E6E
:101E1600FFFF0000000030303F3F30300C0E0783DC
:101E2600C3E77E3C3C3E3733313030300C0EC7C3FF
:101E3600C3E7FE3C0C1C383030391F0F00C0F03CA5
:101E46000FFFFF0007070606063F3F06FFFF636317
:101E560063E3C3801838303030381F0FFCFEC76389
:101E660063E7C6800F1F383030381F0F030303C3E4
:101E7600F37F1F07303C1F07010000003CFEE7C34D
:101E8600C3E7FE3C0F1F393030391F0F7CFEC78376
:101E960083C7FEFC1838313131381F0F000000307F
:101EA60030000000000000030300000000008E8EDA
:101EB6008E0000000000110F0700000080C0E070D7
:101EC600381C0C00000103070E1C1800303030309F
:101ED600303030300303030303030303000C1C38C4
:101EE60070E0C08000181C0E070301001C1E068649
:101EF600C6FE7C000000373701000000FEFF03F33A
:101F0600FB1BFFFE1F3F303337363733F8FC0E0717
:101F1600070EFCF83F3F030303033F3FFFFFC3C326
:101F2600C3E7FE9C3F3F303030381F0FFCFE0703EF
:101F360003070E0C0F1F383030381C0CFFFF03034D
:101F46000307FEFC3F3F303030381F0FFFFFC3C38F
:101F5600C3C3C3033F3F303030303030FFFF6363CD
:101F6600636303033F3F000000000000FCFE07031D
:101F760083878E8C0F1F383031313F1FFFFFC0C063
:101F8600C0C0FFFF3F3F000000003F3F000303FFCC
:101F9600FF0303000030303F3F30300000000303F2
:101FA600FFFF03031C3C30303F1F0000FFFFF038EB
:101FB6001C0E07033F3F03070E1C3830FFFF0000CF
:101FC600000000003F3F303030303030FEFF3EF83A
:101FD600F83EFFFE3F3F003F3F003F3FFFFF3CF024
:101FE600C000FFFF3F3F0000030F3F3FFCFE07031B
:101FF6000307FEFC0F1F383030381F0FFFFF8383A7
:1020060083C7FE7C3F3F010101010000FCFE070380
:102016000307FEFC0F1F38363E1C3F37FFFF838346
:1020260083C7FE7C3F3F03070F1D38303C7EE7C366
:10203600C3C78E0C0C1C383030391F0F030303FF47
:10204600FF0303030000003F3F000000FFFF000006
:102056000000FFFF0F1F383030381F0FFFFF8000D2
:102066000080FFFF00030F3C3C0F0300FFFF00FF53
:10207600FF00FFFF0F3F3F07073F3F0F071F3CF0E3
:10208600F03C1F07383E0F03030F3E380F7FF8C0A2
:10209600C0F87F0F0000013F3F010000030383E308
:1020A600FB3F0F07383E3F33303030300000FFFF34
:1020B6000303000000003F3F30300000030F3CF0F8
:1020C600C000000000000000030F3C3000000303C6
:1020D600FFFF0000000030303F3F000080C0E0708E
:1020E60070E0C08003010000000001030000000052
:1020F6000000000030303030303030300000030750
:102106000E1C180000000000000000006070303057
:102116003030F0E01E3F333333333F3FFFFF703044
:102126003070E0C03F1F383030381F0FC0E07030CD
:102136003070E0C00F1F383030381C0CC0E07030F3
:102146003070FFFF0F1F383030183F3FC0E070304F
:102156003070E0C00F1F3B3333333B1B0060FEFF84
:102166006363030000003F3F00000000E0F03030F2
:102176003030F0E0193B3333333B1F0FFFFF703035
:102186003070E0C03F3F000000003F3F000060ECC1
:10219600EC0000000000003F3F000000000000606F
:1021A600ECEC0000183830303F1F0000FFFFC0E0A5
:1021B600703818003F3F03070E1C3830000000FF40
:1021C600FF0000000000001F3F300000F0E070F04C
:1021D600E070F0E03F3F003F3F003F3FF0E07030EF
:1021E6003070E0C03F3F000000003F3FC0E070306D
:1021F6003070E0C00F1F383030381F0FF0F030302D
:102206003030F0E03F3F030303030301E0F03030DA
:102216003030F0F00103030303033F3FF0F0E070BA
:102226003070E0C03F3F000000000000E0F03030BA
:1022360030307060193B333333333F1E6060FEFE2F
:102246006060600000001F3F30303000F0F000009A
:102256000000F0F00F1F383030183F3F70F0C0001C
:1022660000C0F07000030F3C3C0F0300F0F000C00C
:10227600C000F0F00F3F381F1F383F0F60E0C080EE
:1022860080C0E06030381D0F0F1D3830F0F0800040
:102296000080F0F01839333333391F0F30303030C7
:1022A600B0F0F070383C3E373331303000C0FE3F7E
:1022B6000303000000001F3F30300000000000FE56
:1022C600FE0000000000001F1F00000000000303C6
:1022D6003FFEC000000030303F1F000080C060603D
:1022E600C0C0602000000000000000007EFFC3C3E5
:1022F600FF7E00C6FFFFC000E6F3FBDBDFCE66E72E
:10230600C3DBFF763C3E33FFFF30DFDFDBDBFB73F7
:102316007EFFDBDBFB700003E3FB3F0F66FFDBDBCF
:10232600FF66CEDFDBDBFF7EC0C00000FEFF0303DF
:10233600FFFE0103030303010006FFFF0000000385
:102346000303030086C7E3733F1E0303030303036C
:1023560086873333FFCE010303030301F0FCCFFF6F
:10236600FFC0000000030300BFBF3333F3E30103E4
:1023760003030301FEFF3333F7E6010303030301FF
:102386000383E3FB3F0F000303000000CEFF33335C
:10239600FFCE0103030303019EBF3333FFFE010398
:1023A60003030301FFFF000000000303030303030D
:1023B60000000000000000000000000001071F7F71
:1023C600FFFFFF7F1F07010000000001030100005F
:1023D60000000080E0F8FEFFFEF8E0800002030344
:1023E6000303030303030302181818181818181810
:1023F600181818FFFF181818FF1F1F1F1FE1E1E12B
:10240600E1FF0302020202030303030300000000CC
:1024160000000000000000000000000000000000B6
:10242600C3474EFC3870FFC181FF0302020302025C
:1024360002030303C04040F80808FF0101FF03023E
:102446000203020203020203C0C0C0F80808FF012B
:1024560001FF03030303020203020203C0C0C0F824
:10246600F8F8FF0101FF030303030303030202035A
:10247600C0C0C0F8F8F8FFFFFFFF03030303030320
:10248600030303033078FCCE00FFFF63E3F7BE1CB3
:102496000000000100030300000103030000C0C1A7
:1024A600C1810140C30103C00280C241C60106C00A
:1024B6000780C7410500C5C1C4810440CC010CC0DA
:1024C6000D80CD410F00CFC1CE810E400A00CAC19A
:1024D600CB810B40C90109C00880C841D80118C08A
:1024E6001980D9411B00DBC1DA811A401E00DEC10A
:1024F600DF811F40DD011DC01C80DC411400D4C1FA
:10250600D5811540D70117C01680D641D20112C019
:102516001380D3411100D1C1D0811040F00130C0E9
:102526003180F1413300F3C1F28132403600F6C109
:10253600F7813740F50135C03480F4413C00FCC1D9
:10254600FD813D40FF013FC03E80FE41FA013AC099
:102556003B80FB413900F9C1F88138402800E8C1C9
:10256600E9812940EB012BC02A80EA41EE012EC009
:102576002F80EF412D00EDC1EC812C40E40124C0F9
:102586002580E5412700E7C1E68126402200E2C119
:10259600E3812340E10121C02080E041A00160C029
:1025A6006180A1416300A3C1A28162406600A6C109
:1025B600A7816740A50165C06480A4416C00ACC1D9
:1025C600AD816D40AF016FC06E80AE41AA016AC099
:1025D6006B80AB416900A9C1A88168407800B8C189
:1025E600B9817940BB017BC07A80BA41BE017EC009
:1025F6007F80BF417D00BDC1BC817C40B40174C0F9
:102606007580B5417700B7C1B68176407200B2C118
:10261600B3817340B10171C07080B041500090C168
:1026260091815140930153C052809241960156C008
:1026360057809741550095C1948154409C015CC0D8
:102646005D809D415F009FC19E815E405A009AC198
:102656009B815B40990159C058809841880148C0C8
:10266600498089414B008BC18A814A404E008EC108
:102676008F814F408D014DC04C808C41440084C1F8
:1026860085814540870147C046808641820142C018
:0C26960043808341410081C180814040AD
:10AA19004315020000004E050D0000000000000073
:10AA290000000000000000420414000042159500D7
:10AA39000041142D005514390000000000000000E9
:10AA4900000000000000000000000000004204C3F4
:10AA59000000420191000042142B000042048D00C5
:10AA69000041000E004115A4004204C10000471432
:10AA79001400000000000000431411000000410010
:10AA890000034106950041069600411587144104CB
:10AA9900C0004106B30141048C0044016FFFFFFF70
:10AAA900FF44018DFFFFFFFF420134FFFF420136E2
:10AAB900FFFF4D0001FF00A60103AA0000000001ED
:10AAC90014684D000FFF00B40103AA000000000143
:10AAD90014684D06A6FF00C10103AA000000000189
:10AAE90014684D15A5FF00D00114040000000001F1
:10AAF90014684B142E53657373696F6E20232300FA
:10AB09004D145B01142E0104B3000000000103C4BD
:10AB19004D04B301142E0115A500000000FF0441E6
:10AB29004D0697FF010F0103AA00000000FF045D15
:10AB39004D0173FF012E0103AA00000000FF0479F3
:10AB49004D03B7FF01610103AA00000000FF048E55
:10AB59004D1588FF01480103B700000000FF04AA52
:10AB69004D0407FF01540103B700000000FF04D49E
:10AB79004D03AAFF024901140400000000FF04F07C
:10AB89004D144EFF02AD01140400000000FF053D05
:10AB99004D0162FF02DD01140400000000FF05837E
:10ABA900602A013801FF02E901144E06FF02F5FF90
:10ABB900F0DF01FF03030103AA06FF0313FF7E9BD6
:10ABC90001FF0322010162000000000000004D1492
:10ABD90004FF03310114040000000001013855008D
:10ABE9001E06FF033B00000001FF033F00000000B9
:10ABF9000000000000005515B207FF033BFFB9F73D
:10AC090007FF033FFFE8D8000000000000004D15D2
:10AC190097FF03420000000000000001001E4D14D0
:10AC29001BFF0351000000000000000115B247019D
:10AC3900930100000001141B4D0180000000000079
:08AC490000000000FF0101936F
:105E1000E49017F0F090180E04F075840F75FFDE13
:105E200075FFAD12E82B12DF36E49004A2F0900467
:105E300090F090048FF09004A104F0E49004A3F09B
:105E4000A3F0900491F0A3F09004ACF090049AF0C9
:105E50009004AB744EF0900499F07B007A007900C6
:105E60009004A812480C9004A512480C90049612B5
:105E7000480C90049312480C0B7A0679B490049E57
:105E800012480C7A0A79EE9004B012480C7A0F7915
:105E9000C890049B12480C7A1179E59004AD124821
:105EA0000C7A04798F7F007E847D037C0012AE869D
:105EB0007B017A0479A17F007E847D037C0012AE91
:105EC000867F007E9612F04612F15C7528017529D6
:105ED00014752A027B017A14792812D0B212C5589F
:105EE000126E7AD2AF12D4E243F840E4FF12E042DD
:105EF000E5D820E003025F769017F1E4F0A3747810
:105F0000F09017F1E0FEA3E0FFC39404EE648094E8
:105F1000804063EF24FFFFEE34FFFE75620075637F
:105F20000F7564FF75650575669F75672D7B717AC2
:085F3000007D097C00129B4C6E
:105F38009017D71247A400000546E4FFFEFDFC9029
:105F480017D712477CD31246E940179017D7124744
:105F58006074FFFBFAF9F81245A39017D712479817
:025F680080D8DF
:105F6A009017F174FFF5F0124490808BE4FF12E071
:105F7A004275620075630F7564FF75650575669FE6
:105F8A0075672D7B717A007D097C007F037E001284
:075F9A009B4CE5D830E0321A
:105FA1009017DB1247A40005265CE4FFFEFDFC9080
:105FB10017DB12477CD31246E940179017DB1247D3
:105FC1006074FFFBFAF9F81245A39017DB124798AA
:025FD10080D876
:105FD300E49017F1F0A3F0900430E493FF3395E0DD
:105FE300FE90049B75F012EF1247D5EE75F012A4E4
:105FF3002583F583124803900007E41243D1755BB0
:1060030000755C017B917D027F0312B0AA9015039A
:0E601300E070FA900493124803E94A4B6031A2
:106021009004931248038B228A2389249006957445
:1060310001F07B007A00790090049312480CAB22A6
:10604100AA23A924E4FF1226A29017F3EEF0A3EFEE
:01605100F05E
:10605200900695E0701E9017F1E475F001124490DD
:10606200C39017F2E094039017F1E064809480509B
:1060720003025FDA900695E0604B755B00755C0188
:106082007B707D027F0312B0AA901503E070FA9034
:0A6092000493124803E94A4B602B07
:10609C009004931248038B228A2389247B007A0074
:1060AC00790090049312480CAB22AA23A924E4FF94
:0B60BC001226A29017F3EEF0A3EFF005
:1060C70090156EE0FFA3E09017F5CFF0A3EFF090E7
:1060D7001570E0FFA3E09017F7CFF0A3EFF0E5D836
:0360E70030E03274
:1060EA009017DF1247A4000A4CB8E4FFFEFDFC90AB
:1060FA0017DF12477CD31246E940179017DF124781
:10610A006074FFFBFAF9F81245A39017DF1247985B
:02611A0080D82B
:10611C00E4FF12E042900695E0FF12A553EF705297
:10612C007BFF7A037961F55675572DFF12D1987B59
:10613C00FF7A03796DE4F55675572D7F0212D198CD
:10614C009017E31247A400225510E4FFFEFDFC90CB
:10615C0017E312477CD31246E940179017E3124716
:10616C006074FFFBFAF9F81245A39017E3124798F5
:02617C0080D8C9
:10617E00E4FF12E0427BFF7A037978E4F556755717
:10618E002DFF12D1987564FF756503756685756769
:10619E0000756802E4F569F56AF56B756C077B01AD
:1061AE007A1779F9127A887B017A1779F9E4F54032
:1061BE0075412D7F0212CFCC900695E06047756435
:1061CE00FF75650375669D9017F5E0FAA3E0FB7CFD
:1061DE00007D64FFAE021244058E678F687C007DE1
:1061EE0064AF03AE021244058C698D6AA3E0F56BB1
:1061FE00A3E0F56C7B017A1779F9127A887B017A24
:10620E001779F980067BFF7A0379B5E4F54075417D
:0B621E002D7F0312CFCCE5D830E0321A
:106229009017E71247A400112A88E4FFFEFDFC90AD
:1062390017E712477CD31246E940179017E7124730
:106249006074FFFBFAF9F81245A39017E712479813
:0262590080D8EB
:10625B00E4FF12E0427BFF7A0379CAE4F540754113
:10626B002DFF12CFCC7B017A157905E4F5407541F2
:10627B002D7F0212CFCC7B017A157919E4F540758D
:10628B00412D7F0312CFCC7B017A01799A75620085
:10629B007563037F107E0212DBC6900695E07003D8
:1062AB000263A4900430E493FF3395E0FE90049BCB
:1062BB0075F012EF1247D5EE75F012A42583F58316
:1062CB00124803900007E41243D190049B75F0121F
:1062DB00EF1247D5EE75F012A42583F58312480310
:1062EB0090000874031243D1E49017F1F0A3F090DF
:1062FB0017F1E0FEA3E0FFC39410EE64809482508C
:10630B004D749A2FF58274013EF583E0FF900430B3
:10631B00E493FD3395E0FC90049B75F012ED12476E
:10632B00D5EC75F012A42583F5831248039017F270
:10633B00E02409FD9017F1E034008D82F583EF1214
:10634B0043D19017F1E475F00112449080A1755B75
:10635B0002755C127B987D027F0312B0AA90150325
:0E636B00E070FA900493124803E94A4B602B4D
:106379009004931248038B228A2389247B007A0094
:10638900790090049312480CAB22AA23A924E4FFB4
:0B6399001226A29017F3EEF0A3EFF025
:1063A400E49017F1F0A3F09017F1E0FEA3E0FFC32F
:1063B4009404EE6480948050347C007D281243F36E
:1063C400749A2FF974013EFA7B01C00174282FF9E5
:1063D400740F3EA801FC7D01D0017E007F2812438A
:1063E400209017F1E475F00112449080BAE49017FC
:1063F400F1F0A3F09017F1E0FEA3E0FFC39402EEE6
:106404006480948050347C007D241243F374CA2F3A
:10641400F974023EFA7B01C00174C52FF974043E7D
:10642400A801FC7D01D0017E007F24124320901737
:0F643400F1E475F00112449080BAE5D830E032FF
:106443009017EB1247A4000BAC48E4FFFEFDFC9051
:1064530017EB12477CD31246E940179017EB12470C
:106463006074FFFBFAF9F81245A39017EB124798F3
:0264730080D8CF
:10647500E4FF12E04253F8BF7B017A01799A756215
:10648500007563017F107E0212DBC690019DE0540A
:106495000F24FC600C240270109015877414F08092
:1064A5000E9015877428F08006901587740AF09071
:1064B500019EE09004C0F0901402E0FCA3E0FD7F93
:1064C500017E0012E4D19004C0E030E7034403F0FC
:1064D500E49017F1F0A3F09017F1E0FEA3E0FFC3FD
:1064E5009410EE648094825017749A2FF58274018B
:1064F5003EF583E4F09017F175F00112449080D7D2
:076505007D037F0012668692
:10650C00C390051AE094F0900519E0940040077DC3
:10651C00067F01126686E5D830E607E4900519F08F
:10652C00A3F0E49017EFF09017EFE0FFC394065040
:10653C005374017E00A807088005C333CE33CED830
:10654C00F9FFADD8EF5D60349017EFE0FD25E02446
:10655C000DF582E43405F583E0FEA3E0C39409EE67
:10656C00940040057F011266869017EFE025E02429
:10657C000DF582E43405F583E4F0A3F09017EFE019
:0F658C0004F080A3900493124803E94A4B602B5C
:10659B009004931248038B228A2389247B007A0070
:1065AB00790090049312480CAB22AA23A924E4FF90
:0B65BB001226A29017F3EEF0A3EFF001
:0B65C6009004A5124803E94A4B602B2B
:1065D1009004A51248038B228A2389247B007A0028
:1065E10079009004A512480CAB22AA23A9247F01AB
:0B65F1001226A29017F3EEF0A3EFF0CB
:1065FC00901595E07002A3E0700302650CE4901511
:10660C0095F0A3F0900696E0FFB4F01890142DF0DE
:10661C00E490142BF0A3F090000E74FFF0FB7A03BF
:10662C0079DF8012900696E0FFB4F11590142DF0EE
:10663C007BFF7A0379E712F101E4900696F002658C
:10664C000C900696E0FF64F2600302650C90142D2A
:10665C00EFF07BFF7A0379EF12F101901429E0241B
:10666C00FFFD901428E034FFFC7B01E4FFFE12DDFB
:07667C008DE4F58443EF01FA
:0366830002650CA1
:0300000002DE1EFF
:0CDE1E00787FE4F6D8FD75818102DE6596
:10CBEC002530326420004C49535420454D50545943
:10CBFC00002A004E6F205355004E6F20496E707501
:10CC0C00747300472D466F7263657300496E7075BF
:10CC1C007473004D656D2046756C6C002530326464
:10CC2C00004D454D2025644B2F25644B2C2025644D
:10CC3C002525004C4150532025642C20524154454D
:10CC4C00203130487A004C4150532025642C20521E
:10CC5C00415445203230487A004C415053202564D1
:10CC6C002C2052415445203430487A0054656D7064
:10CC7C002025332E32662046005265632054696DA0
:10CC8C00653A2025322E3166204872730053657345
:10CC9C007320417661696C3A20256400492F4F3A24
:10CCAC0020412D2D2D2D20442D2D20462D2D005095
:10CCBC006F7765723A2025752525004E6F204C61E3
:10CCCC00707300436F6E7420256400474D5420250B
:10CCDC002B303264004C6170486F6C6420253364D7
:01CCEC000047
:03AC5100011C01E2
:10C0CF007B017A187967E4F562F5637F107E0212BF
:10C0DF00DBC6E4901A78F0901A77F0901A77E0FFA9
:10C0EF00C39415400302C1FB75F019EF9018671246
:10C0FF0047D5E0FEA3E0F47002EEF4700302C1F244
:10C10F00901A77E075F0199018691247D5E0FEA3E1
:10C11F00E0F47002EEF4700302C1F2901A78E07549
:10C12F00F012A4241BF9740535F0FA7B017564FF36
:10C13F007565CB7566EC901A77E02401FFE433F553
:10C14F00678F68127A88901A77E075F01990186BDC
:10C15F001247D5124760C006C007901A77E075F0F6
:10C16F001990186F1247D5E0F557A3E0F558E4F58D
:10C17F0059901A78E075F012A4241EF9740535F061
:10C18F00755A01F55B895CD007D00612A2E9901AA7
:10C19F0078E0FF75F007A42468F582E43414F58382
:10C1AF007406F07BFF7ACC79EDEF75F007A4246C61
:10C1BF00F582E43414F58312480CEF75F012A424C1
:10C1CF001BF9740535F0FA7B01901A78E075F007CA
:10C1DF00A42469F582E43414F58312480C901A787C
:10C1EF00E004F0901A77E004F002C0EA901A78E0C9
:10C1FF00FD9015ABF0D394035003E480069015AB7C
:10C20F00E024FD9015AEF09015ABE070028002EDCA
:10C21F00149015ADF09015ACF0901A78E0FF75F012
:10C22F0007A42468F582E43414F583E4F0FBFAF9EB
:10C23F00EF75F007A4246CF582E43414F5831248EB
:10C24F000CEF75F007A42469F582E43414F583022A
:02C25F00480C89
:10668600151EA81EA605151EA81EA607E51E24F99A
:02669600F51EEF
:10669800E51C60337B017A147904901C8A12480C3B
:1066A8001B7A007900901C8D12480C901C9012489F
:1066B8000CE4901C95F0901C94F0901C93F0901CA6
:1066C8009712480CE4F51CE51E2407F8E61470033D
:1066D80002685C046003026E73901C8A124803907F
:1066E800000612435F70489000061243D1901C8A3E
:1066F80012480390000A124835C003C002C0019036
:106708001C8A12480390000612435F75F007A4F52F
:106718008285F083D001D002D00312435F601090CD
:106728001C8A124803900006740112438C80BE1222
:10673800F14A901C8A12480390000912435FB4FF83
:1067480003026969E4FF12E0427562007563087527
:1067580064FF75650A7566CB75672D7B7A7A00E4E8
:10676800FDFCFFFE129B4C901C8A12480312481530
:1067780012F122C374149FFFE49EFE7C007D061272
:1067880043F37D0212445AA81EEFF6FD901C8A12AC
:10679800480312481575532DE4FF12D354901C8AF0
:1067A80012480390000A124835124346FFB40319F1
:1067B800901C8A124803900009E41243D190000803
:1067C800E41243D19000078069EF64026003026A13
:1067D80036901C8A12480390000912435FFF90000C
:1067E8000712435FFEC39F4013EF2402FDE433FC0E
:1067F800EED39DEC6480F87480984055901C8A1202
:10680800480390000712435F9000081243D190009C
:106818000612435FFFD39403400F901C8A1248036B
:1068280090000812435FFE700C901C8A1248039077
:106838000009E48019EF24FDFFEE14FEC39F500405
:10684800AF068000901C8A124803900009EF12439B
:10685800D1026A36E51E2408F8E67003026E701449
:106868007003026AA724FE7003026A3C14700302D4
:10687800691724FE7003026DE224046003026E733C
:1068880090143F124803E94A4B6012901C8A124840
:1068980003C003C002C00190143F026931901C8AF2
:1068A80012480390000912435FF47019900008120F
:1068B800435FD394005003026E7390000874FF1274
:1068C800438C026969901C8A12480390000612439F
:1068D8005F7003026E7390000812435FFF90000917
:1068E80012435FFEC39F5008901C8A12480380140D
:1068F800EED394004016901C8A1248039000097445
:10690800FF12438C90000874FF12438C026A369081
:106918001445124803E94A4B6015901C8A12480333
:10692800C003C002C001901445124803026C719064
:106938001C8A12480390000912435FF4704A9000C1
:106948000612435F14FF90000812435FD39F400371
:10695800026E73901C8A1248039000087401124357
:106968008C90000812435F75F007A4FFAEF090000A
:106978000A124835E92FF9EA3EFA90000112483523
:106988007D2D12D71A026E73901C8A12480390004C
:106998000612435FFF7003026E7390000912435F93
:1069A800FE90000812435FFDC39EC394025046EF59
:1069B80024FFFFE434FFFEED2401FDE433FCC3EDC6
:1069C8009FEE6480F8EC648098901C8A500D124801
:1069D8000390000812435F04FF800B1248039000E5
:1069E8000612435F14FF901C8A124803900008EFB8
:1069F8001243D18039901C8A12480390000912432F
:106A08005F2403FFE433FE90000612435FFDC3EFEB
:106A18009D7480F86E985016901C8A124803900056
:106A280009740112438C900008740112438C12A05F
:106A38007E026E73901442124803E94A4B604490F8
:106A48001C8A124803C003C002C0019014421248B5
:106A58000389828A83D001D002D0031248E8A81E95
:106A6800081247FAA81E081247E1E94A4B700302C8
:106A78006E73A81E081247E1901C8A12480C7D0309
:106A8800026D6D901C8A12480390000312483590DD
:106A98001C8A12480CE490142DF07D03026CEF90D0
:106AA800143C124803E94A4B6044901C8A1248037C
:106AB800C003C002C00190143C12480389828A8333
:106AC800D001D002D0031248E8A81E081247FAA83D
:106AD8001E081247E1E94A4B7003026E73A81E08AC
:106AE8001247E1901C8A12480C7D01026D6D901CC2
:106AF8008A12480390000A124835E94A4B7003028B
:106B08006E73901C8A12480390000A124835C0031D
:106B1800C002C001901C8A12480390000812435F0B
:106B2800FF75F007A4F58285F083D001D002D00369
:106B380012435F24FE604C24FE7003026D7124FE34
:106B48007003026CF3147003026C02147003026C7D
:106B58008124076003026E73901C8A124803EF7544
:106B6800F007A4FFAEF090000A124835E92FF9EAC1
:106B78003EFA900004124835901C8A12480C7D0198
:106B8800026D6D901C8A12480390000812435F90B2
:106B980000071243D1E490142DF090000812435FCF
:106BA80075F007A4FFAEF090000A124835E92FF9F6
:106BB800EA3EFA900004124835E94A4B6037901CC7
:106BC8008A124803C003C002C001901C8A124803FD
:106BD80090000A124835E92FF9EA3EFA90000412AB
:106BE800483589828A83D001D002D0031248E8A8A8
:106BF8001E081247FA7D01026D6D901C8A12480327
:106C0800A81E081247FA901C9012480C7B017A1CA7
:106C1800798D901C8A12480CA81E081247E1900032
:106C28000812435F75F007A4FFAEF090000A1248FF
:106C380035E92FF9EA3EFA900004124835E94A4B43
:106C48007003026E73A81E081247E1C003C002C099
:106C580001A81E081247E190000A124835E92FF9E9
:106C6800EA3EFA90000412483589828A83D001D01E
:106C780002D0031248E8026E73901C8A12480390EF
:106C88000003124835901C8A12480C9000081243E1
:106C98005F75F007A4FFAEF090000A124835E92F9F
:106CA800F9EA3EFA900004124835E94A4B60317B14
:106CB800007A007900C003C002C001901C8A124803
:106CC8000390000A124835E92FF9EA3EFA900004C9
:106CD80012483589828A83D001D002D0031248E84D
:106CE800E490142DF07D01FF026DDC901C8A12489F
:106CF8000390000812435F75F007A4FFAEF0900000
:106D08000A124835E92FF9EA3EFA9000041248358C
:106D1800E94A4B6037901C8A124803C003C002C07E
:106D280001901C8A12480390000A124835E92FF98D
:106D3800EA3EFA90000412483589828A83D001D04D
:106D480002D0031248E8A81E081247FAA81E081223
:106D580047E1E94A4B600CA81E081247E1901C8ADB
:106D680012480C7D017F00806B901C8A12480390AA
:106D7800159A12480C901C8A124803900008124376
:106D88005F75F007A4FFAEF090000A124835E92FAE
:106D9800F9EA3EFA900004124835C003C002C00167
:106DA8009015A1124803900004124865901C8A129D
:106DB8004803C003C002C0019015A1124803900007
:106DC8000B1248657B017A157997901C8A12480C3A
:0A6DD8007D017F00126686026E73D3
:106DE20053F8DF53F8BF7BFF7A1079FD7D2D12D760
:106DF2001A90142DE0FFC39404401EEFD39419504F
:106E02001890000EE0FF90142BE0FCA3E0FD90042C
:106E12008DE0FAA3E0FB12C83890142DE0B404030D
:106E220012EFEF12F0BBE51E2404F8EFF630E7F3A1
:106E3200E4F55BF55C7B937D027F0312B0AAE51E4D
:106E42002405F8E4F608F6E51E2405F8E6FE08E651
:106E5200FFE4FCFD7B407A9CF9F8D31246E940D06E
:0E6E6200E51E2405F80806E61870DC0680D947
:036E700063F84084
:076E7300E51E2409F51E22B3
:10A07E00901C8A12480390000612435F703EF562F0
:10A08E007563087564FF75650675668175672D7B4A
:10A09E007AFA7D10FCFFFE129B4C7BFF7ACB79F295
:10A0AE0012F122EF75F006A4FFC3747A9FFD7BFFB9
:0CA0BE007ACB79F275535E7F0202D35416
:10A0CA009018497401F0901C8A12480390000612F5
:10A0DA00435FFF7403C39F50047F038000901849B5
:10A0EA00E0FED39F400302A2E890000912435FFDFD
:10A0FA00EE2DFFE433FE7C007D071243F390000A45
:10A10A00124835E92FF9EA3EFA90FFF912435F64E3
:10A11A00036025901C8A12480390000912435FFFCE
:10A12A00901849E02F14FF90000812435FB5070802
:10A13A0090184A747EF0800690184A742DF07BFFBE
:10A14A007A0679FB90184B12480C901C8A12480325
:10A15A0090000612435FFFB401087BFF7A0979D7A2
:10A16A008061901849E0FE24FE60231460252402D1
:10A17A007057901C8A12480390000912435F7BFFB4
:10A18A0070067A0879E380047A0779EF8035EF64FC
:10A19A00027036901C8A12480390000912435FFD30
:10A1AA00EE2DFFE433FE90000612435F7C00B507F4
:10A1BA000CECB506087BFF7A09795D80067BFF7A8D
:10A1CA0008796990184B12480C901849E075F00804
:10A1DA00A4FDACF075620075630890184B12480331
:10A1EA008B648A65896690184AE0F5677B7A7A00FB
:10A1FA00E4FFFE129B4C901C8A124803900009123D
:10A20A00435FFF901849E02FFFE433FE7C007D078F
:10A21A001243F390000A124835E92FF9EA3EFA9000
:10A22A00FFFA12483512F122EF75F006A4FFC37443
:10A23A007A9F90184EF0901C8A12480390000912D7
:10A24A00435FFF901849E0FE2F14FD900007124368
:10A25A005F6D7042901C8A124803EFFDEE2DFFE4F9
:10A26A0033FE7C007D071243F390000A124835E959
:10A27A002FF9EA3EFA90FFF912435FB402189018D8
:10A28A0049E0FF90184EE024F4FD7BFF7ACB79FD7C
:10A29A0075535E12D354901C8A1248039000091217
:10A2AA00435FFF901849E02FFFE433FE7C007D07EF
:10A2BA001243F390000A124835E92FF9EA3EFA9060
:10A2CA00FFFA124835901849E0FF90184EE0FD75E4
:0EA2DA00535E12D354901849E004F002A0D055
:01A2E8002253
:065421008B478A4889490F
:10542700E490186AF0900695E0700C7BFF7ACB79D0
:07543700FF12F101025C15F8
:10543E00AB47AA48A94990000812435FF54A7B0181
:10544E007A01799A7562007563037F107E0212DB12
:10545E00C6E490186BF090186BE0FFC394045030C4
:10546E00EF75F028A4FFAEF0249AF974013EFA7B92
:10547E0001C00174282FF9740F3EA801FC7D01D0E4
:10548E00017E007F2812432090186BE004F080C646
:10549E00E490186BF090186BE0FFC394025030EF5D
:1054AE0075F024A4FFAEF024CAF974023EFA7B0113
:1054BE00C00174C52FF974043EA801FC7D01D00112
:1054CE007E007F2412432090186BE004F080C6907B
:1054DE000430E493FF3395E0FE90049B75F012EFD9
:1054EE001247D5EE75F012A42583F583124803906A
:1054FE000007E41243D190049B75F012EF1247D5CA
:10550E00EE75F012A42583F58312480390000874FB
:10551E00031243D1E4901868F0A3F0901868E0FEEF
:10552E00A3E0FFC39410EE9402504D749A2FF582AF
:10553E0074013EF583E0FF900430E493FD3395E073
:10554E00FC90049B75F012ED1247D5EC75F012A489
:10555E002583F583124803901869E02409FD9018FD
:10556E0068E034008D82F583EF1243D1901868E421
:10557E0075F00112449080A3755B02755C127B98E6
:10558E007D027F0312B0AA901503E070FA7B017AB8
:10559E0001799A7562007563017F107E0212DBC677
:1055AE0090019BE0900416F090019DE0540F90182E
:1055BE006BF090019CE075F01690026F1247D5E0EB
:1055CE00FFA3E0900486CFF0A3EFF090019CE0756E
:1055DE00F0169002711247D5E0FFA3E0900488CF39
:1055EE00F0A3EFF090019CE075F016900273124755
:1055FE00D5E0FFA3E090048ACFF0A3EFF090019ED8
:10560E00E09004C0F09006B37401F0FB7A01796269
:10561E00E5478548838549826401700A7462658214
:10562E007004740165837006740A254AF54AE54ACA
:10563E001248BE566900566901592C025A6E035A19
:10564E007A045A82055B07065B5F075B6C085BADED
:10565E000A5BBF0B5BD10C00005C15E54AB401047C
:10566E007F0180027F0090048CEFF07BFF7A0B7934
:10567E00457D2D12D71AE4900478F0A3F0A3F0A381
:10568E00F090045F1247A40000000090044A1247F5
:10569E00A4000000009004651247A40000000090D2
:1056AE0004501247A4000000009004691247A400A1
:1056BE000000009004541247A400000000E490047F
:1056CE006DF0A3F0900458F0A3F090047CF0A3F0DA
:1056DE0090045A1247A40000000090046F1247A4D1
:1056EE0000000000E4900473F090045EF090047EDD
:1056FE001247A4000000009004821247A40000008C
:10570E0000901575E054E0FFC413540724FC601696
:10571E0014601F146028240470309004031247A4F0
:10572E003F000000802E9004031247A440000000AA
:10573E0080229004031247A440A00000801690041B
:10574E00031247A441200000800A9004031247A4CC
:10575E003F800000901575E0540EC31324FE600FB9
:10576E00240270179006A4E4F0A37432F080159012
:10577E0006A47403F0A37420F080099006A4E4F04C
:10578E00A374FAF0E4901868F0A3F0901868E0FEA5
:10579E00A3E0FFC39484EE94005026EF7802C33347
:1057AE00CE33CED8F924C7F58274153EF583124751
:1057BE00A4FFFFFFFF901868E475F001124490807B
:1057CE00CAE4901868F0A3F0901868E0FEA3E0FF1A
:1057DE00C39420EE9400503AEF7803C333CE33CE09
:1057EE00D8F9FBAA062438F58274003AF5831247DD
:1057FE00A40000000074342BF58274003AF5831275
:10580E0047A400000000901868E475F0011244905F
:10581E0080B67B017A01799A7562007563027F10FA
:10582E007E0212DBC6900416E075F01C9001AA12DF
:10583E0047D5124760900426124798900416E075DB
:10584E00F01C9001AE1247D512476090042A124701
:10585E0098900416E075F01C9001B21247D5E0FF47
:10586E00A3E090042ECFF0A3EFF0900416E075F0B5
:10587E001C9001B41247D5E0FFA3E0900474CFF062
:10588E00A3EFF0900416E075F010A4241BF9740534
:10589E0035F0FA7B01C003C001E075F01CA4249A18
:1058AE00F9740135F08B4EF54F89507551007552D4
:1058BE0010D001D00312E981900416E075F010901B
:1058CE00052A1247D5E4F0900416E075F010900505
:1058DE002A1247D5E4F074FFFFFEFDFC9004261259
:1058EE00477CC31246E9600C900426124760EC4DCB
:1058FE004E4F70157BFF7AD9793590143C12480CB7
:10590E0090142D7408F0025BA57BFF7AED79C4909C
:10591E00143C12480C90142D7419F0025BA57BFFF9
:10592E007A0B79457D2D12D71A90048C7401F0E410
:10593E00900478F0A3F0A3F0A3F090045F1247A4B4
:10594E000000000090044A1247A4000000009004DA
:10595E00651247A4000000009004501247A40000F6
:10596E0000009004691247A4000000009004541235
:10597E0047A400000000E490046DF0A3F0900458DA
:10598E00F0A3F0A31247A40000000090046F12478A
:10599E00A400000000E4900473F090045EF09018F0
:1059AE0068F0A3F0901868E0FEA3E0FFC39484EEC5
:1059BE0094005026EF7802C333CE33CED8F924C7E5
:1059CE00F58274153EF5831247A4FFFFFFFF901872
:1059DE0068E475F00112449080CA7B017A01799ACD
:1059EE007562007563047F107E0212DBC69004168A
:1059FE00E075F00C90019A1247D512476090043B67
:105A0E00124798900416E075F00C90019E1247D53F
:105A1E0012476090043F124798900416E075F00C00
:105A2E009001A21247D5E0FFA3E0900443CFF0A36C
:105A3E00EFF0900416E075F00C9001A41247D5E03B
:105A4E00FFA3E0900476CFF0A3EFF07BFF7AC2794C
:105A5E006190143C12480C90142D741AF0025BA540
:105A6E00E4FF12E04290142D7405800590142D74FD
:045A7E000CF0805553
:105A82009018677402F0901867E0FFC39407501EE5
:105A92009004C0E0FEA807088002C313D8FC54019A
:105AA200901866F07008901867E004F080D890189B
:105AB20066E06040A3E0FFB4060890142D740CF079
:105AC2008013EFB4050890142D7412F08007EF24B0
:105AD2000C90142DF090186A7401F07BFF7A007913
:105AE2001B90143F12480C7AD2797C9014451248CC
:105AF2000C025C157BFF7ACC790512F10190142D12
:055B020074E4025C0FD9
:105B070090142D7414F090186A7401F07BFF7A00DA
:105B1700791B90143F12480C7AD2797C9014451265
:105B2700480CE4FF12E0427562007563087564FF74
:105B370075650A7566CB75672D7B7A7A00E4FDFC7F
:105B4700FFFE129B4C7BFF7ACC790F75532D7D247A
:105B5700E4FF12D354025C15E4FF12E04290142DC7
:105B6700740BF08039E4FF12E04275620075630838
:105B77007564FF75650A7566CB75672D7B7A7A0044
:105B8700E4FDFCFFFE129B4C7BFF7ACC7918755322
:105B97002D7D2AE4FF12D35490142D740DF0901824
:105BA7006A7401F08068E4FF12E04290142D741CBF
:105BB700F090186B74028050E4FF12E04290142DAD
:105BC700741BF090186B7402803EE4FF12E042757C
:105BD70062007563087564FF75650A7566CB75673E
:105BE7002D7B7A7A00E4FDFCFFFE129B4C7BFF7A4B
:105BF700CC791875532D7D2AE4FF12D35490142DB8
:0E5C0700741DF090186B7402F0E490186AF0AF
:105C150090186AE06042E49004C3F0A3F09001910B
:105C2500F0A3F09006B304F090001C04F0A3740FE9
:105C3500F0754E01754F0475508D7B017A14792BE3
:105C450012951790000EEFF0700E7BFF7ACC791F3E
:105C550012F101E490142DF090142DE0FF70030271
:025C65005DFDE3
:105C6700900430E493FD3395E0FC90049B75F012AB
:105C7700ED1247D5EC75F012A42583F5831248037E
:105C8700900007EF1243D190186BE0FF90049B75CB
:105C9700F012ED1247D5EC75F012A42583F58312A7
:105CA7004803900008EF1243D19004C0E0FF90042E
:105CB7009B75F012ED1247D5EC75F012A42583F50C
:105CC70083124803900009EF1243D1E4F54AE54AED
:105CD70075F028A42440F582E4340FF583E024FB13
:105CE700603224FB705C900430E493FF3395E0FE50
:105CF70090049B75F012EF1247D5EE75F012A425AC
:105D070083F583124803740A254AF582E433F58341
:105D17007403805A900430E493FF3395E0FE9004B7
:105D27009B75F012EF1247D5EE75F012A42583F597
:105D370083124803740A254AF582E433F583740213
:105D4700802C900430E493FF3395E0FE90049B751C
:105D5700F012EF1247D5EE75F012A42583F58312E2
:105D67004803740A254AF582E433F5837404124321
:105D7700D1054AE54A64046003025CD590019CE0C2
:105D870075F01690026F1247D5E0A3E0540FFF900D
:105D97000430E493FD3395E0FC90049B75F012ED1D
:105DA7001247D5EC75F012A42583F58312480390AA
:105DB700000EEF1243D190019CE075F0169002712E
:105DC7001247D5E0FEA3E0FF90049B75F012ED1299
:105DD70047D5EC75F012A42583F58312480390008C
:105DE7000FEE8FF0124576755B00755C0A7B917D2F
:065DF700027F0312B0AAB6
:105DFD007BFF7AB6795290144212480C7B007A00E0
:025E0D0079001A
:015E0F002270
:10EE32008B478A488949E490142DF0FFFE12EB0DAE
:10EE4200901429E024FFFD901428E034FFFC7B019C
:10EE52007F057E0012DD8D126E7AE4FF12E0427BA6
:06EE6200017A0379AA22E7
:10EF35008B478A488949E490142DF0901429E024E0
:10EF4500FFFD901428E034FFFC7B01E4FFFE12DD99
:10EF55008D126E7AE4FF12E0427B017A0379AA22D0
:06E315008B4A8A4B894C83
:10E31B007B017A1A797A7562007563017F107E0230
:10E32B0012DBC6900008E0901A7AF0900016E0908D
:10E33B001A7BF09006ADE0901A7CF0A3E054F0F05D
:10E34B00901587E024D8600D24147010901A7DE08E
:10E35B002402F08007901A7DE02404F07B017A1AE6
:10E36B00797A7564007565017D107C027F027E00F1
:09E37B0012DEAAAB4AAA4BA94C20
:01E384002276
:10EE9E008B478A48894990000812435F24FE600B15
:10EEAE000470109015877414F0800E9015877428D6
:10EEBE00F08006901587740AF012E315AB47AA4846
:03EECE00A949222D
:06BD71008B478A48894956
:10BD7700E490142DF07B017A187966F562756301FA
:10BD87007F107E0212DBC6901866E0900008F090E4
:10BD97001868E09006ADF0901867E0900016F0E4A0
:10BDA700901A78F0A3F0901A76F0A3F0901A76E044
:10BDB700FEA3E0FFC3940CEE64809480400302BEB0
:10BDC700D8EFC4F8540FC868FFEEC454F048FE74A7
:10BDD7006B2FF58274183EF583E0F4700302BECB37
:10BDE700746B2FF58274183EF583E0700302BECBA7
:10BDF700901A79E0C4F8540FC868FF901A78E0C425
:10BE070054F048FE741B2FF974053EFA7B01C003FA
:10BE1700C001901A77E0C4F8540FC868FF901A76EB
:10BE2700E0C454F048FE746B2FF974183E8B4EF53E
:10BE37004F8950755100755210D001D00312E98116
:10BE4700901A78E0FCA3E0FDC4F8540FC868FFEC33
:10BE5700C454F048FE742A2FF58274053EF583E436
:10BE6700F090146875F007ED1247D5EC75F007A44C
:10BE77002583F5837402F07BFF7AE37915901A78AE
:10BE8700E0FCA3E0FD90146C75F0071247D5EC7544
:10BE9700F007A42583F58312480C741B2FF974054A
:10BEA7003EFA7B0190146975F007ED1247D5EC75E2
:10BEB700F007A42583F58312480C901A78E475F0EF
:10BEC70001124490901A76E475F00112449002BD75
:10BED700B3901A78E0FEA3E0FF90146875F007129C
:10BEE70047D5EE75F007A42583F583E4F0FBFAF94F
:10BEF70090146C75F007EF1247D5EE75F007A4257F
:10BF070083F58312480C90146975F007EF1247D533
:10BF1700EE75F007A42583F58312480C0B7A007998
:01BF27000118
:01BF280022F6
:06BBB6008B478A48894913
:10BBBC00E490142DF07B017A187966F562756301B7
:10BBCC007F107E0212DBC6901866E0900008F090A1
:10BBDC001868E09006ADF0901867E0900016F0E45D
:10BBEC00901A78F0A3F0901A76F0A3F0901A76E001
:10BBFC00FEA3E0FFC3940CEE64809480400302BD6E
:10BC0C002090192B75F016EF1247D5EE75F016A48F
:10BC1C002583F583E0F4700302BD13901A76A3E03C
:10BC2C0090192B75F0161247D5EE75F016A42583D6
:10BC3C00F583E0700302BD13901A79E0C4F8540F39
:10BC4C00C868FF901A78E0C454F048FE741B2FF9B2
:10BC5C0074053EFA7B01C003C001901A76E0FEA386
:10BC6C00E0FF7C007D161243F3742B2FF974193E00
:10BC7C008B4EF54F8950755100755210D001D00381
:10BC8C0012E981901A78E0FCA3E0FDC4F8540FC8C7
:10BC9C0068FFECC454F048FE742A2FF58274053EFC
:10BCAC00F583E4F090146875F007ED1247D5EC7548
:10BCBC00F007A42583F5837402F07BFF7AE37915F2
:10BCCC00901A78E0FCA3E0FD90146C75F007124715
:10BCDC00D5EC75F007A42583F58312480C741B2F43
:10BCEC00F974053EFA7B0190146975F007ED124763
:10BCFC00D5EC75F007A42583F58312480C901A78BF
:10BD0C00E475F001124490901A76E475F001124437
:10BD1C009002BBF8901A78E0FEA3E0FF90146875CF
:10BD2C00F0071247D5EE75F007A42583F583E4F0F0
:10BD3C00FBFAF990146C75F007EF1247D5EE75F01D
:10BD4C0007A42583F58312480C90146975F007EF4E
:10BD5C001247D5EE75F007A42583F58312480C0B1A
:04BD6C007A0679A634
:01BD700022B0
:06B829008B478A488949A3
:10B82F00E490142DF07B017A187966F56275630147
:10B83F007F107E0212DBC6901866E0900008F09031
:10B84F001868E09006ADF0901867E0900016F07B56
:10B85F00017A1879667562007563027F107E021295
:10B86F00DBC6E4901A78F0A3F0901A76F0A3F0906C
:10B87F001A76E0FEA3E0FFC39410EE64809480403C
:10B88F000302B9A690186675F01CEF1247D5EE7536
:10B89F00F01CA42583F583E0F4700302B999901A84
:10B8AF0076A3E090186675F01C1247D5EE75F01C64
:10B8BF00A42583F583E0700302B999901A79E0C447
:10B8CF00F8540FC868FF901A78E0C454F048FE741B
:10B8DF001B2FF974053EFA7B01C003C001901A7645
:10B8EF00E0FEA3E0FF7C007D1C1243F374662FF98A
:10B8FF0074183E8B4EF54F8950755100755210D00C
:10B90F0001D00312E981901A78E0FCA3E0FDC4F89E
:10B91F00540FC868FFECC454F048FE742A2FF58208
:10B92F0074053EF583E4F090146875F007ED124747
:10B93F00D5EC75F007A42583F5837402F07BFF7AAD
:10B94F00E37915901A78E0FCA3E0FD90146C75F084
:10B95F00071247D5EC75F007A42583F58312480C21
:10B96F00741B2FF974053EFA7B0190146975F0076B
:10B97F00ED1247D5EC75F007A42583F58312480C1B
:10B98F00901A78E475F001124490901A76E475F0ED
:10B99F000112449002B87E901A78E0FEA3E0FF9067
:10B9AF00146875F0071247D5EE75F007A42583F5D7
:10B9BF0083E4F0FBFAF990146C75F007EF1247D59A
:10B9CF00EE75F007A42583F58312480C9014697562
:10B9DF00F007EF1247D5EE75F007A42583F5831214
:07B9EF00480C0B7A00790FF0
:01B9F600222E
:06E385008B478A4889491C
:10E38B007B017A1879667562007563017F107E02D6
:10E39B0012DBC6901866E0900008F0901868E090C9
:10E3AB0006ADF0901867E0900016F0901869E054F5
:10E3BB000F24FC60112402701A9015877414F090CE
:10E3CB00069F740180179015877428F090069F7430
:10E3DB0002800A901587740AF0E490069FF090066D
:08E3EB009EF07B017A06799790
:01E3F3002207
:10EED1008B478A48894990000812435F90157570E5
:10EEE10006E04401F08004E054FEF012EF957B014E
:10EEF1007A1579057D807C0012E3F4AB47AA48A915
:02EF01004922A3
:10F097008B478A488949901575E030E006E490016E
:10F0A7007B800590017B7401F090017AF07B017AF7
:04F0B7000179732246
:10EFC3008B478A48894990040EE025E0FF90157528
:10EFD300E054F14FF012EF957B017A1579057D80AE
:0CEFE3007C0012E3F4AB47AA48A94922C5
:10F01B008B478A488949901575E0540EC3139004A9
:10F02B000FF090040EF0E0D394024008A37401F0AB
:0BF03B0090040EF07B017A047907229C
:10EF65008B478A48894990158FE02402C43354E0C1
:10EF7500FF901575E0541F4FF012EF957B017A1540
:10EF850079057D807C0012E3F4AB47AA48A94922A4
:10EB58008B478A488949901575E054E0C4135407D7
:10EB680024FC60101460141460182404701BE490D2
:10EB78001590801A90159074028013901590740364
:10EB8800800C901590740480059015907401F09095
:0AEB9800158FF07B017A15798822B1
:10F0DF008B4D8A4E894F90142D741EF07B007A0051
:10F0EF00790090144212480C12C0CF7B017A157927
:02F0FF00A52248
:06CCED008B4A8A4B894CC2
:10CCF300E490142DF07B017A01799AF562F5637F54
:10CD0300107E0212DBC6E4901A7BF0A3F0901A792E
:10CD1300F0A3F0901A79E0FEA3E0FFC39415EE644C
:10CD2300809480506E90019A75F019EF1247D5EEFA
:10CD330075F019A42583F583E0FEA3E0F47002EEF9
:10CD4300F46044901A79E0FEA3E090019C75F01919
:10CD53001247D5EE75F019A42583F583E0FEA3E011
:10CD6300F47002EEF46020AB4AAA4BA94C90000881
:10CD730012435FFF901A7BE475F0011244A6FCE5B1
:10CD8300F06F7001EC600C901A79E475F0011244B5
:10CD93009080809004B312480312F122901A7BEE24
:10CDA300F0A3EFF09004B3124803EF24FEFFEE3438
:10CDB300FFFEE92FF9EA3EFA7564FF7565CC7566E7
:10CDC30028901A7AE02401F568901A79E03400F586
:10CDD30067127A887BFF7AF079DF90144212480C4D
:06CDE3007B017A0479B324
:01CDE9002227
:067536008B478A488949D9
:10753C00E490142DF07B017A14792E90145B124890
:10754C000C7A0479B390145E12480C7A0379C490C7
:10755C00146512480CE4901464F0901463F09014C9
:10756C0062F0901461F0901866F0A3F0901866E049
:10757C00FEA3E0FF9003C475F0071247D5EE75F03B
:10758C0007A42583F5837403F07C007D151243F367
:10759C00741B2FF974053EFA7B01901866E0FEA36C
:1075AC00E0FF9003C575F0071247D5EE75F007A400
:1075BC002583F58312480C1B7A0079009003C8755B
:1075CC00F007EF1247D5EE75F007A42583F583126B
:1075DC00480C901866E475F001124490901866E01F
:1075EC007004A3E064087084E49003FCF0FBFAF9E7
:1075FC00A312480C90040012480C9004B3124803D8
:10760C0012F122901866EEF0A3EFF09004B312483A
:10761C0003EF24FEFFEE34FFFEE92FF9EA3EFA12E7
:10762C00D887EF24FFFFEE34FF901866F0A3EFF03D
:10763C007B017A1579C7901866E0FEA3E0FF9014E1
:10764C0029E02FFF901428E03ECF24EBF563EF34B4
:10765C00FFF5627F107E0212DBC6E4901871F0A376
:10766C00F0901871E0FEA3E0FFC39484EE940050F8
:10767C002EEF7802C333CE33CED8F924C7F58274FB
:10768C00153EF58312476074FFFBFAF9F8C31246F6
:10769C00FF600C901871E475F00112449080C27B6D
:1076AC00017A01799AE4F562F5637F107E0212DBB0
:1076BC00C6901866E0FEA3E0FF9001B075F01912B9
:1076CC0047D5EE75F019A42583F583E0901868F082
:1076DC00E0D3940C4002E4F09001B275F019EF1273
:1076EC0047D5EE75F019A42583F583E0901869F061
:1076FC00E0D394104002E4F0901866E0FEA3E09012
:10770C0001B175F0191247D5EE75F019A42583F562
:10771C0083E090186AF0E0D3940C4002E4F09018E7
:10772C0066E0FEA3E0FF90019A75F0191247D5EEC2
:10773C0075F019A42583F583E0FDA3E090186BCDBB
:10774C00F0A3EDF090019E75F019EF1247D5EE7590
:10775C00F019A42583F583124760901866E0FAA30C
:10776C00E09001A275F0191247D5EA75F019A4251D
:10777C0083F583E0F557A3E0F5587559017A05793F
:10778C006F755A01755B05755C6F12A2E9901866EE
:10779C00E0FAA3E0FB9001A475F0191247D5EA7545
:1077AC00F019A42583F5831247609001A875F01990
:1077BC00EB1247D5EA75F019A42583F583E0F5574C
:1077CC00A3E0F5587559017A057984755A01755BF2
:1077DC0005755C8412A2E9901866E0FEA3E0FF90A8
:1077EC0001AE75F0191247D5EE75F019A42583F585
:1077FC0083E0FCA3E0FD9001AC75F019EF1247D5C6
:10780C00EE75F019A42583F583E0FEA3E0C39DFF7C
:10781C00EE9CCF2401CF3400FE901866E0FCA3E070
:10782C00FD90019A75F0191247D5EC75F019A42545
:10783C0083F583E0FAA3E0FB90019C75F019ED123F
:10784C0047D5EC75F019A42583F583E0FCA3E0C3C0
:10785C009BFDEC9ACD2401CD3400CD2FFFED3EFEE7
:10786C00E4FCFD90186D1247987564FF7565CC7536
:10787C00662DE47B02FAF9F890186D1247601246F7
:10788C00498E678F68901428E0C313F569A3E01341
:10789C00F56AE47F64FEFDFC90186D12477C12457E
:1078AC00BEC006C007901428E0FEA3E0FBAA06E4C5
:1078BC00F9F8D007D0061246498E6B8F6C7B017A93
:1078CC0005795A127A88901866E0FEA3E09001AA16
:1078DC0075F0191247D5EE75F019A42583F583E0E0
:1078EC00540F24FE6013146010146018800075642B
:1078FC00FF7565CC75663F80147564FF7565CC7536
:10790C00665280097564FF7565CC75666590187153
:10791C00E0F567A3E0F5687B017A057999127A881E
:10792C007B017A01799A7562007563017F107E0282
:10793C0012DBC6901868E075F010A4249FF974014E
:10794C0035F0754E01F54F89507551007552107B0D
:10795C00017A05791B12E981E490052AF090186AE6
:10796C00E075F016A4245FF9740235F0754E01F53C
:10797C004F89507551007552107B017A0579301280
:10798C00E981E490053FF07B017A01799AF5627503
:10799C0063027F107E0212DBC6901869E075F01C42
:1079AC00A4249AF9740135F0754E01F54F89507580
:1079BC0051007552107B017A05794512E981E490EA
:1079CC000554F07B017A01799A90186BE0F562A36B
:1079DC00E0F5637F107E0212DBC69001E1E0FE331E
:1079EC0095E0901866F0A3CEF09001E1E0FF7D46A3
:1079FC0012E5AC9018731247987564FF7565CC75D9
:107A0C0066789018731247608F6A8E698D688C67E0
:0F7A1C007B017A0579AE127A887B017A14795B47
:017A2B002238
:067E9B008B228A238924DA
:107EA100858425E49017D9F0A3F0A3F0A3F0F5267B
:107EB10090142DF0F584C2EDD2EC7BFF7A04793277
:107EC10090145B12480C7B017A14790490145E12B1
:107ED100480C7A0379C490146512480CE490146438
:107EE100F0901463F0901462F0901461F09017D741
:107EF100F0A3F09017D7E0FEA3E0FF9003C475F064
:107F0100071247D5EE75F007A42583F5837403F0B6
:107F11007C007D151243F3741B2FF974053EFA7B27
:107F2100019017D7E0FEA3E0FF9003C575F007129B
:107F310047D5EE75F007A42583F58312480C1B7A0B
:107F41000079009003C875F007EF1247D5EE75F080
:107F510007A42583F58312480C9017D7E475F00127
:107F61001244909017D7E07004A3E064047084E495
:107F71009003E0F0FBFAF9A312480C9003E41248D5
:107F81000C8525840B7A01799A7562007563017FEE
:107F9100107E0212DBC690019EE09004C0F07B01CE
:107FA1007A01799AE4F562F5637F107E0212DBC6ED
:107FB100E49017D7F0A3F09017D7E0FEA3E0FFC33A
:107FC1009415EE9400400302809390019A75F01984
:107FD100EF1247D5EE75F019A42583F583E0FEA3D2
:107FE100E0F47002EEF470030280869017DBE47512
:107FF100F0011244909017D7E0FEA3E0FF9001AE8C
:1080010075F0191247D5EE75F019A42583F583E0B3
:10801100FCA3E0FD9001AC75F019EF1247D5EE75A8
:10802100F019A42583F583E0FEA3E0C39DFFEE9C38
:10803100CF2401CF3400FE9017D7E0FCA3E0FD90E0
:10804100019A75F0191247D5EC75F019A42583F53D
:1080510083E0FAA3E0FB90019C75F019ED1247D57E
:10806100EC75F019A42583F583E0FCA3E0C39BFD27
:10807100EC9ACD2401CD3400CD2FFFED3E9017D9E0
:108081008FF01244909017D7E475F00112449002DA
:108091007FB8E49017D7F0A3F09017D7E0FEA3E0E4
:1080A100FFC39407EE9400502874017E00A80708CE
:1080B1008005C333CE33CED8F9FF9004C0E0FDEF85
:1080C1005D600205269017D7E475F0011244908097
:1080D100C8E526FD7C00901587E0FF7E001243F382
:1080E100AC06AD07E4123FA7C004C005C006C00737
:1080F100901402E0FCA3E0FDE4123FA7A804A90547
:10810100AA06AB07D007D006D005D004123E87904F
:1081110017DD1247989017DD12477CC000C001C0DF
:1081210002C003901587E0FCE4123FACE4FBFA794E
:10813100207841123E87E4FBFA79207841123E878C
:10814100D003D002D001D000123C8D9017DD124730
:10815100989017DD124760E4FBFA79617845123D8A
:108161007E9017DD124798901429E024E5FF9014C2
:1081710028E034FFFE9017D9E0FAA3E0FBC39FEAA1
:108181009E400C9017DD1247A4000000008027904C
:108191001429E024EAFF901428E034FFCFC39BFDAB
:1081A100EF9AFCE4123FA79017DD12477C123E873D
:1081B1009017DD1247987564FF7565CC75668590DB
:1081C10017DD1247608F6A8E698D688C677B017A33
:1081D10005791B127A887564FF7565CC756699906F
:1081E10017DBE0FEA3E0FFC374159FF568E49EF57D
:1081F100677B017A057930127A887564FF7565CCE1
:108201007566A89017DBE0F567A3E0F56875691559
:108211007B017A05795A127A88E49017D7F0A3F096
:108221009017D7E0FEA3E0FFC39404EE9400503F03
:10823100EF2402FF74017E00A807088005C333CE36
:1082410033CED8F9FF9004C0E0FDEF5D60159017C3
:10825100D7A3E0FF2430FE74602FF582E43405F5E6
:1082610083EEF09017D7E475F00112449080B1903D
:1082710004C0E0FF30E6099005667434F0A304F011
:10828100EF30E70E9005697452F0A37450F0A374B7
:108291004DF0E4F5849017D7F0A3F020ED15901779
:1082A100D7E475F001124490FED3E5F09410EE94FA
:1082B1002740E89017E1E5BFF0A3E5BEF0852584EE
:1082C100E02412FF9017E1E034FDFE7C007D641292
:1082D10043F37DFA1244059017D7EEF0A3EFF07542
:1082E10064FF7565CC7566BB8E67F5687B017A05A1
:0B82F1007945127A887B017A14795BD2
:0182FC00225F
:06E779008B478A48894924
:10E77F00E490142DF07B017A01799AF562F5637FAD
:10E78F00107E0212DBC69004B312480312F12290DE
:10E79F001866EFF024FEFFE434FFFE9004B3124836
:10E7AF0003E92FF9EA3EFA12D887901866EFF0D3F3
:10E7BF0094155005E0FF12BF2912C0CF7B017A15C7
:02E7CF0079A52A
:01E7D1002225
:06B652008B538A54895558
:10B6580090142DE0FFC394044033EFD39419502D78
:10B668009004C0E0600F90048DE0FCA3E0FD7F0132
:10B678007E0012E0C490000EE0FF90142BE0FCA3C3
:10B68800E0FD90048DE0FAA3E0FB12C83890142D79
:10B69800E0FF64046004EFB4180312EFEFE49014C1
:10B6A8002DF090043093FF3395E0FE90049B75F0E5
:10B6B80012EF1247D5EE75F012A42583F5831248D0
:10B6C80003900007E41243D1901587E0FF24F66049
:10B6D8001124E260042414700CEF75F00A84F55606
:10B6E8008003E4F556900430E493FF3395E0FE9030
:10B6F800049B75F012EF1247D5EE75F012A425835E
:10B70800F583124803900008E5561243D19004C00F
:10B71800E0FD90049B75F012EF1247D5EE75F0121C
:10B72800A42583F583124803900009ED1243D1E460
:10B73800F557E55775F028A42440F582E4340FF551
:10B7480083E024FB606724FB603524F6600302B7BE
:10B75800E4900430E493FF3395E0FE90049B75F089
:10B7680012EF1247D5EE75F012A42583F58312481F
:10B7780003740A2557F582E433F5837404805A90DC
:10B788000430E493FF3395E0FE90049B75F012EFCC
:10B798001247D5EE75F012A42583F5831248037479
:10B7A8000A2557F582E433F5837403802C9004301E
:10B7B800E493FF3395E0FE90049B75F012EF124777
:10B7C800D5EE75F012A42583F583124803740A2573
:10B7D80057F582E433F58374021243D10557E557D0
:10B7E8006404600302B73A755B00755C077B917D62
:10B7F800027F0312B0AA7B007A00790090144512E8
:10B80800480C90143F12480C90144212480C9014A3
:10B818003C12480CAB53AA54A95590000312483562
:01B8280022FD
:10D935008B4B8A4C894D9015A4E0C3940350030288
:10D94500D9DA90142D7404F07B007A0079007F01F8
:10D95500124A0990048CE0604A7BFF7A1379877D2F
:10D965002D12D71A7562007563087564FF756523F6
:10D975007566F675672D7B087A007D177C007F6FCD
:10D985007E00129B4C7562007563087564FF7565B2
:10D99500237566EE75672D7B087A007D177C007F01
:10D9A500038021E4FF12E04275620075630E756421
:10D9B500FF7565127566E575672D7B517A007D09E2
:10D9C5007C007F157E00129B4C7B007A00790090CD
:0CD9D500143C12480C7B007A0079002200
:10B9F7008B228A238924901402E0FCA3E0FD7B01BB
:10BA07007A01799A90142BE0F564A3E0F5657F023B
:10BA17007E0012DEAA90043F1247A40000000090A7
:10BA2700042A1247A40000000090043B1247A40018
:10BA37000000009004261247A400000000E49004D0
:10BA470076F0A3F0900474F0A3F090047E1247A45C
:10BA570000000000E490047CF0A3F07B017A0179F8
:10BA67009AF5627563027F107E0212DBC690041698
:10BA7700E0FB75F01C9001AE1247D51247A40000F9
:10BA8700000075F01CEB9001AA1247D51247A400DD
:10BA9700000000900416E0FF75F01C9001B21247F9
:10BAA700D5E4F0A3F075F01CEF9001B41247D5E48C
:10BAB700F0A3F07B017A01799AF5647565027D1030
:10BAC7007C027F02FE12DEAA7B017A01799A7562F7
:10BAD700007563047F107E0212DBC6900416E0FB3C
:10BAE70075F00C90019E1247D51247A40000000084
:10BAF70075F00CEB90019A1247D51247A40000008D
:10BB070000900416E0FF75F00C9001A21247D5E4EF
:10BB1700F0A3F075F00CEF9001A41247D5E4F0A361
:10BB2700F07B017A01799AF5647565047D107C02D2
:10BB37007F02FE12DEAA901402E0FEA3E0FF7B0163
:10BB47007A01799A90142BE0F562A3E0F56312DB92
:10BB5700C67BFF7AB6795290144212480C90142D86
:10BB6700E0B402127AD9793590143C12480C90143B
:10BB77002D7408F0801D7B007A00790090143C1228
:10BB8700480C7BFF7A15796F7D2D12D71A90142DEB
:10BB97007416F07B017A14794E901C9012480C7A37
:0FBBA7001C798D901C8A12480C1B7A00790022A1
:10E8D8008B508A5189527BFF7AB679529014421232
:10E8E800480C7AED79C490143C12480C90142DE031
:10E8F800B402057419F080117BFF7A15796F7D2DAC
:10E9080012D71A90142D7416F07B017A14794E9050
:10E918001C9012480C7A1C798D901C8A12480C1B8A
:05E928007A00790022D5
:10EDC40090141E12480C7B007A00790090143C12B7
:10EDD400480C7BFF7AE879D890144212480C9014BE
:10EDE4002DE0B419057402F0800690142D7401F01E
:07EDF4007B017A14791B2258
:06C3E0008B478A488949E1
:10C3E600E490142DF090047CF0A304F090041B124A
:10C3F60047A4FFFFFFFFE490041FF09004B3124828
:10C406000312F122901866EFF024FEFFE434FFFEDB
:10C416009004B3124803E92FF9EA3EFA12D887903E
:10C426001866EFF0D3941550287B017A1579C790DA
:10C436001429E024EAFF901428E034FFFE901866E1
:10C44600E07C002FF563EC3EF5627F107E0212DB86
:10C45600C6E4901866F0901866E0FFC394845053C3
:10C4660075F004EF9015C71247D512476074FFFBAD
:10C47600FAF9F8C31246FF603A90041B124760901F
:10C486001866E075F0049015C71247D512477CC3AD
:10C496001246FF5016901866E075F0049015C71204
:10C4A60047D512476090041B124798901866E0041F
:10C4B600F080A3901866E090041FF070177BFF7A57
:10C4C600CC79C712F1017BFF7A007976901442127B
:10C4D600480C80777BFF7AE179B890143F12480CBC
:10C4E6007AE2792D90144512480C7A0079769014E8
:10C4F6004212480C9015C7124760900417124798CD
:10C50600E490048CF0FF12E04275620075630E75CC
:10C5160064FF7565127566E575672D7B517A007D3A
:10C52600097C007F157E00129B4C12985B12E60F69
:10C5360090041B12476090041712477CC31246E909
:10C5460070047F0180027F0012E4637B007A007929
:01C5560000E4
:01C5570022C1
:10E1B8008B4A8A4B894C90041FE0FF90047CE0B4A2
:10E1C800000FA3E0B5070A90047CE4F0A304F080F4
:10E1D8000A90047CE475F00112449090047CE0FEFF
:10E1E800A3E07802C333CE33CED8F924C3F58274C2
:10E1F800153EF58312476090041712479812985BF2
:10E2080012E60F90041B12476090041712477CC354
:10E218001246E970047F0180027F0012E4637B00EC
:05E228007A00790022DC
:10E22D008B4A8A4B894C90047CE07004A3E0640116
:10E23D00700F90041FE0FF90047CE4F0A3EFF080DA
:10E24D000A90047C74FFF5F012449090047CE0FE7B
:10E25D00A3E07802C333CE33CED8F924C3F582744C
:10E26D00153EF58312476090041712479812985B7C
:10E27D0012E60F90041B12476090041712477CC3DF
:10E28D001246E970047F0180027F0012E4637B0077
:05E29D007A0079002267
:100076008B4A8A4B894CE490142DF0FBFAF99014C4
:100086004512480C90143F12480C90144212480C2A
:0D009600AB4AAA4BA94C900003124835223A
:04001B0012D27C225F
:10D27C008B4B8A4C894D90142DE01248BED2A805D8
:10D28C00D30C0CD2B80ED2C80FD2D710D2E611D212
:10D29C00F512D30413D347140000D34D9004C0E00F
:10D2AC0030E20990142D740EF002D34D9004C0E0BE
:10D2BC0030E30990142D740FF002D34D9004C0E0AC
:10D2CC0030E40890142D7410F080769004C0E03097
:10D2DC00E50890142D7411F080679004C0E030E6DE
:10D2EC000890142D7412F080589004C0E030E608B9
:10D2FC0090142D7413F0804990142D740CF080410F
:10D30C0090142D7414F0E4FF12E042756200756302
:10D31C00087564FF75650A7566CB75672D7B7A7A1F
:10D32C0000E4FDFCFFFE129B4C7BFF7ACC790F7561
:10D33C00532D7D24E4FF12D354800690142D7405D4
:08D34C00F07B007A0079002259
:06E9D3008B4A8A4B894CBF
:10E9D900AF84E4F584901572E004F0D39474400395
:10E9E9007474F0901572E0F5FBE0F5FC8F847564A2
:10E9F900FF7565CC7566CFE024A0F568E434FFF5B2
:10EA0900677B017A187973127A887B017A1879738E
:09EA190012F1017B007A00790082
:01EA220022D1
:06EA23008B4A8A4B894C6E
:10EA2900AF84E4F584901572E014F0C3944C50035C
:10EA3900744CF0901572E0F5FBE0F5FC8F84756479
:10EA4900FF7565CC7566CFE024A0F568E434FFF561
:10EA5900677B017A187973127A887B017A1879733E
:09EA690012F1017B007A00790032
:01EA72002281
:10ED44008B4A8A4B894CE490142DF012EF957B0189
:10ED54007A1579057D807C0012E3F47B007A0079D2
:10ED64000090144512480C90143F12480C90144221
:10ED740012480CAB4AAA4BA94C9000031248352206
:06E6C5008B478A488949D9
:10E6CB00E490142DF07564FF7565CC7566CF9015CD
:10E6DB0072E024A0F568E434FFF5677B017A1879C2
:10E6EB0066127A887B017A18796612F1017BFF7AC0
:10E6FB00E979D390143F12480C7AEA7923901445A8
:10E70B0012480C7AED794490144212480C7B007A33
:03E71B0000790082
:01E71E0022D8
:06EC78008B4A8A4B894C17
:10EC7E00901555E004F0D36480948C4003740CF02E
:10EC8E007564FF7565CC7566D7901555E0FF3395A5
:10EC9E00E0F5678F687B017A187973127A887B01A9
:0DECAE007A18797312F1017B007A00790069
:01ECBB002236
:06ECBC008B4A8A4B894CD3
:10ECC200901555E014F0C364809474500374F4F00A
:10ECD2007564FF7565CC7566D7901555E0FF339561
:10ECE200E0F5678F687B017A187973127A887B0165
:0DECF2007A18797312F1017B007A00790025
:01ECFF0022F2
:06E7D2008B478A488949CB
:10E7D800E490142DF07564FF7565CC7566D79015B7
:10E7E80055E0FF3395E0F5678F687B017A18796605
:10E7F800127A887B017A18796612F1017BFF7AEC2C
:10E80800797890143F12480C7AEC79BC9014451230
:10E81800480C7AED794490144212480C7B007A0037
:02E82800790075
:01E82A0022CB
:06ED84008B4A8A4B894C0A
:10ED8A00901574E0240AF0D394F0400374F0F075FF
:10ED9A0064FF7565CC7566E1901574E0756700F5DA
:10EDAA00687B017A187973127A887B017A187973E9
:09EDBA0012F1017B007A007900DE
:01EDC300222D
:06EC33008B4A8A4B894C5C
:10EC3900901574E0D3940A5004E4F0800790157499
:10EC4900E024F6F07564FF7565CC7566E19015747E
:10EC5900E0756700F5687B017A187973127A887B09
:0EEC6900017A18797312F1017B007A007900AC
:01EC7700227A
:06E882008B478A4889491A
:10E88800E490142DF07564FF7565CC7566E19015FC
:10E8980074E0756700F5687B017A187966127A88E2
:10E8A8007B017A18796612F1017BFF7AED79849001
:10E8B800143F12480C7AEC793390144512480C7ABC
:0FE8C800ED794490144212480C7B007A007900DD
:01E8D700221E
:06C261008B4B8A4C894D55
:10C2670090142D7416F0900430E493FF3395E0FE9C
:10C2770090049B75F012EF1247D5EE75F012A425C6
:10C2870083F58312480390000774161243D1900474
:10C297009B75F012EF1247D5EE75F012A42583F5C2
:10C2A70083124803900008E54E1243D19004C0E082
:10C2B700FD90049B75F012EF1247D5EE75F012A4AE
:10C2C7002583F583124803900009ED1243D1E4F565
:10C2D7004FE54F75F028A42440F582E4340FF58329
:10C2E700E024FB606724FB603524F6600302C38209
:10C2F700900430E493FF3395E0FE90049B75F012B1
:10C30700EF1247D5EE75F012A42583F58312480383
:10C31700740A254FF582E433F5837404805A900438
:10C3270030E493FF3395E0FE90049B75F012EF1213
:10C3370047D5EE75F012A42583F583124803740AD6
:10C34700254FF582E433F5837403802C900430E4A1
:10C3570093FF3395E0FE90049B75F012EF1247D5DB
:10C36700EE75F012A42583F583124803740A254F4E
:10C37700F582E433F58374021243D1054FE54F6428
:10C3870004600302C2D8755B00755C077B917D0270
:10C397007F0312B0AA7BFF7A15796F7D2D12D71A0A
:10C3A70074FFFFFEFDFC90043B12477CC31246E975
:10C3B700600C90043B124760EC4D4E4F70087B00B9
:10C3C7007A00790080067BFF7AED79C490143C12DD
:08C3D700480C7B007A0079009C
:01C3DF00223B
:06C996008B3C8A3D893E46
:10C99C0090142D7418F07B007A00790090143C12DE
:10C9AC00480C9004171247609015C71247980B7AE1
:10C9BC001879497562007563027F107E0212DBC61E
:10C9CC00900426124760900416E0FB75F01C90183A
:10C9DC00591247D512479890042A12476075F01CDB
:10C9EC00EB90185D1247D512479890042EE0FEA3E9
:10C9FC00E0FF75F01CEB9018611247D5EEF0A3EF39
:10CA0C00F0900474E0FEA3E0FF75F01CEB9018634B
:10CA1C001247D5EEF0A3EFF07B017A1879497564D3
:10CA2C00007565027D107C027F027E0012DEAA7BFF
:10CA3C00017A1879497562007563047F107E0212C1
:10CA4C00DBC6900465124760900416E0FB75F00C91
:10CA5C009018491247D5124798900469124760758F
:10CA6C00F00CEB90184D1247D512479890046DE0DE
:10CA7C00FEA3E0FF75F00CEB9018511247D5EEF0C9
:10CA8C00A3EFF090047AE0FEA3E0FF75F00CEB90BE
:10CA9C0018531247D5EEF0A3EFF07B017A187949C1
:10CAAC007564007565047D107C027F027E0012DEC9
:07CABC00AA7B007A0079005B
:01CAC3002250
:10000300FF7F3F1F0F07030100FEFCF8F0E0C080F5
:08001300FFFEFCF8F0E0C080E4
:10DF360085842575840F75E16FE4F5E275E3C47594
:10DF4600A4157580EA75ADFF75A50D759002F5A649
:10DF560075A0FFF5A775B0FF759FFF75F88EF59E46
:10DF660075E8FFF59D75D8FF759CE075C8F9F584D1
:10DF760075D98075D84075DA4275DB427B017A1512
:10DF8600790512E92D901572E0D394745006E0C31A
:10DF9600944C50069015727460F0901572E0F5FB83
:10DFA600E0F5FCE4F58475E8C075D107F5BAF5BB74
:06DFB60075BC7085258496
:01DFBC002242
:09D4E20085842575840F53C8EF01
:10D4EB0090180F1247A4000001C2E4FFFEFDFC9050
:10D4FB00180F12477CD31246E9401790180F1247AA
:10D50B006074FFFBFAF9F81245A390180F124798B5
:02D51B0080D8B6
:03D51D0043C810F0
:10D520009018131247A4000001C2E4FFFEFDFC9016
:10D53000181312477CD31246E9401790181312476C
:10D540006074FFFBFAF9F81245A39018131247987C
:02D5500080D881
:10D552007DE212DA8D7B017DE27F0112DA91E4FB3A
:10D562007DA97F0112DA917B017DA97F0112DA91F7
:10D57200E4FB7DA07F0112DA917B017DA07F011285
:10D58200DA91E4FB7DC07F0112DA917B017DC07FDD
:10D592000112DA9112DA8B7B017DAF7F0112DA91EF
:03D5A20085258458
:01D5A5002263
:06DA8B007DAFE4FB7F010A
:06DA91008F788D798B7A7D
:10DA9700E4F57BF57C85847D75840FAD7A7F011273
:10DAA700EBEC057CE57C7002057BEF30E70DC3E509
:10DAB7007C9432E57B6480948040E053C8F7E57836
:10DAC700B4010553C8FE800343C801E57A600543E6
:10DAD700C804800343C8028579E8E57A6005439C5A
:10DAE700048003439C02E57A6005539CFB80035343
:10DAF7009CFD7F01057CE57C7002057BDFF6E57AFE
:10DB0700600553C8FB800353C8FD43C80143C808D9
:10DB1700439C01439C08539CFE539CF775E8FF8583
:02DB27007D84FB
:01DB290022D9
:10EBEC00AE8475840FBF010553C8FE800343C80172
:10EBFC00ED600B43C804439C04539CFB800943C841
:10EC0C0002439C02539CFD7C030FDCFDACE8ED60E1
:10EC1C000553C8FB800353C8FD43C801439C0153F3
:06EC2C009CFE8E84AF0483
:01EC320022BF
:08D71A008B548A5589568D5786
:10D72200E4F558E4F559F55AF55BE55824B8FD12CD
:10D73200DA8DE4FBFD7F0112DA91E55824B8FD7B16
:10D74200017F0112DA917B01E4FD7F0112DA91E49B
:10D75200F559F55AE55A643D45597003755B01E583
:10D7620057B47E1FE55875F07AA4AB542556F9E5F7
:10D772005535F0FAE9255AF9EA3559FA124346F4D1
:10D78200FD801CE55875F07AA4AB542556F9E55591
:10D7920035F0FAE9255AF9EA3559FA124346FDAB52
:10D7A2005B7FFF12DA91055AE55A70020559C3945C
:10D7B2007AE5599400409D0558E558C394045003F6
:0FD7C20002D72512DA8B7B017DAF7F0102DA914E
:0C9B4C008E5C8F5D8C5E8D5F8A608B618B
:109B5800AE5EAF5F7C007D0812445A8F70E55F25CA
:109B680063CFE55E3562CF24FFCF34FFFE7C007DF6
:109B78000812445AC3EF9403EE6480948050028024
:109B8800027F038F71AE5EAF5F7C007D0812445A7E
:109B9800901AA7EDF0855C6C855D6DC3E56D943D0D
:109BA800E56C6480948050047F0080027F018F728E
:109BB800E55D2561CFE55C3560CF24FFCF34FFFE3E
:109BC800C3EF9479EE64809480500280047E007F15
:109BD800798E6E8F6FE572B4011874C3256DF56DBB
:109BE80074FF356CF56C74C3256FF56F74FF356EB3
:109BF800F56E857068E568D395714003029E04850B
:109C0800726BC3E5709568FF901AA7E02F131313C2
:109C1800541FF573E572701FE56824B8FD12DA8DDC
:109C2800AD6D12DA8DE56824B8FD7B017F0112DA8B
:109C3800917B01E4FD8010E56824B8FD7B017F017C
:109C480012DA91AD6D7B017F0112DA91856C69851D
:109C58006D6AD3E56A956FE569956E4003029DFFCD
:109C6800E56A643D45697003756B01E568B5700583
:109C7800E4F5758055C3E5689570FFE49400CF243A
:109C8800FFCF34FFFEAC60AD611243F3AB64E56611
:109C98002FF9E5653EFAC3E56A956DFFE569956CB0
:109CA800FEE92FF9EA3EFA124346F574901AA7E046
:109CB800FF90000393F45574FEC374089FFFEEA849
:109CC80007088002C313D8FCF575E568B57129AE9D
:109CD80062AF637C007D0812445AC374089DFFE498
:109CE8009CFE901AA7E05407D39FEE6480F8748016
:109CF800984005E4F5768048C3E5689570FFE494DC
:109D080000FEAC60AD611243F3AB64E5662FF9E584
:109D1800653EFAC3E56A956DFFE569956CFEE92F26
:109D2800F9EA3EFA124346F574901AA7E0FF90004C
:109D380003935574FEA807088002C333D8FCF57650
:109D4800E5754576F574AB6B7DE07F0112DA91AD70
:109D58006B7FFF12EBEC8F77AD6B7FFF12EBEC8F15
:109D680077E56724A2601824E2600E24FE601624BA
:109D7800587015E5775274800FE57742748009E5CD
:109D880077627480036374FFE4901AA6F0E570B5F7
:109D9800680BA3E090001393F4901AA6F0E571B550
:109DA8006829901AA6E0FBE55F2563FFE55E35624A
:109DB800FE7C007D0812445A740B2DF58274003C19
:109DC800F583E493FFEB4F901AA6F0901AA6E0FFF4
:109DD800F45574FEE5775F4EF574AB6B7DEE7F014D
:0C9DE80012DA91AB6BAD747FFF12DA91C0
:109DF400056AE56A70020569029C5A0568029BFDC2
:019E0400223B
:02E042008F54F9
:10E04400E4FB7DAE7F0112DA917B017DAE7F01128C
:10E05400DA91E4F555E4F556F557F558E55524B845
:10E06400FD12DA8DE4FBFD7F0112DA91E55524B847
:10E07400FD7B017F0112DA917B01E4FD7F0112DA5D
:10E0840091E4F556F557E557643D455670037558C8
:10E0940001AB58AD547FFF12DA910557E557700272
:10E0A4000556C3947AE556940040DB0555E555C3FF
:10E0B400940440A112DA8B7B017DAF7F0102DA91D7
:08CFCC008F3C8B3D8A3E893F3A
:10CFD400E5406028900000E0F53C04F05403F0E0E4
:10CFE40075F008A424C0FD12DA8D900000E075F0FD
:10CFF40008A424C0FD7B017F0112DA91E4F542F517
:10D0040043C3E5439475E54264809480400302D0B1
:10D01400B1AB3DAA3EA93F124346FFC3648094A02E
:10D024004041D3EF648094FE5039E53C75F008A488
:10D03400FDACF0C004C005124346FF3395E0FE7C0E
:10D04400007D051243F374872FF9741A3E7564FF4B
:10D05400F5658966756200756308854167D005D0FA
:10D0640004801BE53C75F008A4FDACF07562007506
:10D0740063087564FF75651B7566278541677B05C5
:10D084007A00AF43AE42129B4CAB3DAA3EA93F127D
:10D094004346600B7401253FF53FE4353EF53E748D
:0DD0A400062543F543E43542F54202D00570
:01D0B100225C
:08D354008F4E8B508A51895263
:10D35C00AF0590186CE4F0A3EFF0C390186DE09457
:10D36C007590186CE064809480400302D41CAB5020
:10D37C00AA51A952124346FF700302D41CC3EF6496
:10D38C008094A04049D3EF648094FE5041E54E75E3
:10D39C00F008A4FDACF0C004C005124346FF339561
:10D3AC00E0FE7C007D051243F374872FF9741A3E5E
:10D3BC007564FFF565896690186CE0FEA3E0FF7557
:10D3CC006200756308855367D005D0048023E54E51
:10D3DC0075F008A4FDACF090186CE0FEA3E0FF75AE
:10D3EC0062007563087564FF75651B756627855348
:10D3FC00677B057A00129B4C74012552F552E4357B
:10D40C0051F55190186CE475F00612449002D366F5
:01D41C0022ED
:08D198008F528B538A54895514
:10D1A000E556602A900000E05402F0F55224025443
:10D1B00003F075F008A424C0FD12DA8D900000E0A1
:10D1C00075F008A424C0FD7B017F0112DA91E4F51B
:10D1D00058F559C3E5599471E5586480948040032B
:10D1E00002D27BAB53AA54A955124346FFC36480B5
:10D1F00094A0403DD3EF648094FE5035E55275F025
:10D2000008A4FDACF0756200756310124346FF334D
:10D2100095E0FEEFC4F8540FC868FFEEC454F04820
:10D22000FE74022FF9741B3E7564FFF565896680F4
:10D2300018E55275F008A4FDACF075620075631036
:10D240007564FF75651D7566028557677B087A00F2
:10D25000AF59AE58129B4CAB53AA54A95512434632
:10D26000600B74012555F555E43554F554740A25C1
:0BD2700059F559E43558F55802D1D3A8
:01D27B002290
:08D661008F508B528A5389544B
:10D66900AF057556008F57C3E5579471E556648029
:10D679009480400302D719AB52AA53A954124346C6
:10D68900FF700302D719C3EF648094A04043D3EF1E
:10D69900648094FE503BE55075F008A4FDACF0752C
:10D6A9006200756310AB52AA53A954124346FF3363
:10D6B90095E0FEEFC4F8540FC868FFEEC454F04873
:10D6C900FE74022FF9741B3E7564FFF56589668047
:10D6D90018E55075F008A4FDACF07562007563108B
:10D6E9007564FF75651D7566028555677B087A0047
:10D6F900AF57AE56129B4C74012554F554E435537B
:10D70900F553740A2557F557E43556F55602D67080
:01D7190022ED
:08DC61008F548B568A57895835
:10DC6900AF05755A008F5BC3E55B9474E55A648010
:10DC79009480507CAB56AA57A958124346FF60704E
:10DC8900C3EF648094B0402DD3EF648094B95025DC
:10DC9900EF3395E0FE7C007D0C1243F374F22FF90B
:10DCA90074203E7564FFF5658966E554FD7562006B
:10DCB90075630A8014E554FD7C0075620075630A7A
:10DCC9007564FF7565237566B68559677B067A00A5
:10DCD900AF5BAE5A129B4C74012558F558E4355781
:10DCE900F5577407255BF55BE4355AF55A02DC7084
:01DCF9002208
:10F14A00E4FB7DC07F0112DA917B017DC07F010261
:02F15A00DA9148
:10F101008B4D8A4E894F7BFF7A19793F7D2D12D71E
:10F111001AAB4DAA4EA94F75552D7D077F0102D619
:01F12100618C
:10CEDB0025332E33662C25332E3366002C25640028
:10CEEB004820253033642C200048202D2D2D2C205C
:10CEFB00005620253032642C2000542025322E3051
:10CF0B006625630025326420005461636820262067
:10CF1B0053706565646F0052504D004D5048004B87
:10CF2B00504800204E2F43002535750025336400F3
:10CF3B004E6F475053004125642025342E326656E0
:10CF4B00200044343A2025642044353A20256400DF
:10CF5B00523A2535750025342E3166202573200075
:10CF6B0025342E326620257320004E20004E4500BE
:10CF7B004E57004520005720005345005357005390
:10CF8B002000253032642F253032640020253032CA
:10CF9B00643A253032643A253032640025303464EB
:10CFAB002D253032642D2530326400253032643A21
:10CFBB0025303264001F1C1F1E1F1E1F1F1E1F1E2D
:01CFCB001F46
:0A8E34008C3F8D408B3C8A3D893E47
:108E3E00900006124730EC123FA2E4FBFA79B478A8
:108E4E0033123D7E90184A124798AB3CAA3DA93E7C
:108E5E0090000A124730EC123FA2E4FBFA79B47884
:108E6E0033123D7E90184E124798E544C39402503B
:108E7E0023AB3CAA3DA93E1247109000041244E7D2
:108E8E00F55885F05775590185415A85425B8543E2
:108E9E005C12A2E9E5447013AB41AA42A94312F158
:108EAE0022EF2543F543EE3542F542E54460076473
:108EBE00026003028F427564FF7565CE7566DB90A6
:108ECE00184A1247608F6A8E698D688C6790184EAB
:108EDE001247608F6E8E6D8D6C8C6BAB41AA42A962
:108EEE0043127A88AB41AA42A94312F122EF2543DD
:108EFE00F543EE3542F5427564FF7565CE7566E74E
:108F0E00AB3CAA3DA93E90000E1244E7FFAEF0EE38
:108F1E003395E0FDFCE47B27FAF9F81245BEE47BBD
:108F2E000CFAF9F812ED008E678F68AB41AA42A9D0
:108F3E0043127A88E5447013AB41AA42A94312F159
:108F4E0022EF2543F543EE3542F542E544600764D2
:068F5E000360030291AB69
:108F6400AB3CAA3DA93E90001012435F54E075F05B
:108F740008A4FF90001112435FFDE5F0F549EF4DA1
:108F8400F54AE54930E20744F8F549854A4AAB3CDD
:108F9400AA3DA93E90001012435F541C75F040A4F2
:108FA400FF90001212435FFDE5F0F54BEF4DF54CD9
:108FB400E54B30E20744F8F54B854C4CAB3CAA3DFD
:108FC400A93E90001012435F5403FE900013124315
:108FD4005FFDEEF54DEDF54EE54D30E10744FCF552
:108FE4004D854E4EE54A45497006E54C454B603F7C
:108FF400AD4CAC4BAF4AAE4912E1418E518F52E5B4
:1090040052240EFFE5513401FE7C017D68124405B3
:10901400C374689DFF74019CFE7C017D6812440545
:109024008C518D527564FF7565CE7566EB8009753C
:1090340064FF7565CE7566F4855167855268AB41EA
:10904400AA42A943127A88AB41AA42A94312F12247
:10905400EF2543F543EE3542F542AC4BAD4CEC12F3
:109064003FA7C004C005C006C007AC4BAD4CEC1212
:109074003FA7D003D002D001D000123D7EC004C06F
:1090840005C006C007AC49AD4AEC123FA7C004C0F6
:1090940005C006C007AC49AD4AEC123FA7D003D0C7
:1090A40002D001D000123D7ED003D002D001D00006
:1090B400123C8D12D9E57B0A7AD77983783F123D29
:1090C4007E8F488E478D468C45901575E030E022A2
:1090D4007F747ED17D0D7C40AB48AA47A946A84544
:1090E400123D7E123FE08E4F8F509018497446F027
:1090F400801F7466FFFEFD7C40AB48AA47A946A8C2
:1091040045123D7E123FE08E4F8F509018497443B4
:10911400F07564FF7565CE7566FC854F678550688C
:10912400AB41AA42A943127A88AB41AA42A943128D
:10913400F122EF2543F543EE3542F542AB3CAA3D1F
:10914400A93E90001412435FFF901849E0FD12E518
:10915400AC8F488E478D468C457564FF7565CF7519
:1091640066058F6A8E698D688C67901849E0F56B87
:10917400AB41AA42A943127A88AB41AA42A943123D
:10918400F122EF2543F543EE3542F5427564FF7550
:1091940065CF75660F9015A4E0756700F568AB415F
:0791A400AA42A943127A88D8
:0191AB0022A1
:06A7B8008B3C8A3D893E46
:10A7BE00901419E0FEA3E0FDEDFF4E7006F543F593
:03A7CE004480695B
:10A7D100AD07AC06E4123FA7A804A905AA06AB077A
:10A7E100E4FFFE7D7A7C48123E878F428E418D4088
:10A7F1008C3F7E00900487E0540F8E45F54670072C
:10A80100FF7D707C438020E546640F45457005F56A
:10A8110045754610AC45AD467E007F78124405ACC7
:10A8210006AD07E4123FA7AB42AA41A940A83F12D7
:09A831003D7E123FE08E438F448E
:10A83A00C3900489E09544900488E0954350047FCE
:10A84A007E80027F2D901864EFF0647E6004E4FF3E
:10A85A0080027FFF12E0427562007563087564FF2B
:10A86A0075650A7566CB901864E0F5677B7A7A009D
:10A87A00E4FDFCFFFE129B4C7BFF7ACF7914901803
:10A88A0064E0F5537D16E4FF12D3547BFF7ACF7947
:10A89A0022901864E0F5537D167F0312D354901565
:10A8AA0075E07BFF30E0067ACF792680047ACF798B
:10A8BA002A901864E0F5537D5D7F0312D354900407
:10A8CA00C0E070087BFF7ACF792E801E7564FF7511
:10A8DA0065CF7566338543678544687B017A187945
:10A8EA004F127A887B017A18794F901864E0F555EF
:10A8FA007D027F0112D6619015A4E0C39403500330
:03A90A0002AA0599
:10A90D00AB3CE53E2410F9E4353DFA755701755819
:10A91D0018755949755A01755B18755C4B755D0154
:10A92D00755E18755F4D12D5A690184BE0FCA3E02F
:10A93D00FDEC123FA7C004C005C006C00790184B20
:10A94D00E0FCA3E0FDEC123FA7D003D002D001D074
:10A95D0000123D7EC004C005C006C007901849E036
:10A96D00FCA3E0FDEC123FA7C004C005C006C00764
:10A97D00901849E0FCA3E0FDEC123FA7D003D002F4
:10A98D00D001D000123D7ED003D002D001D00012F4
:10A99D003C8D12D9E57B0A7AD77983783F123D7EBB
:10A9AD008F428E418D408C3F901575E030E0087FD1
:10A9BD00747ED17D0D80057466FFFEFD7C40AB423B
:10A9CD00AA41A940A83F123D7E123FE08E458F4619
:10A9DD007564FF7565CF7566378545678546687BF8
:10A9ED00017A18794F127A887B017A18794F90186D
:06A9FD0064E0F5557D53F6
:10AA0300800E7BFF7ACF793B901864E0F5557D4645
:05AA13007F0112D66175
:01AA1800221B
:10AC6B00E4901862F0901862E0FFC3648094844013
:10AC7B000302AD36EF3395E0FEC374049FFFE49EF1
:10AC8B00FE74142FF58274143EF583E0FCE4123F3E
:10AC9B00ACC004C005C006C007901862E0FF339536
:10ACAB00E0FE900F4075F028EF1247D5EE75F028B7
:10ACBB00A42583F583E0FCE4123FACD003D002D093
:10ACCB0001D000123D7EE4FBFA79787843123E877F
:10ACDB0090185E1247987564FF7565CF7566419045
:10ACEB001862E0FF3395E0F5678F6890185E1247A6
:10ACFB00608F6C8E6B8D6A8C697B017A1879491227
:10AD0B007A88901862E0FEA2E71304FFEE30E004AD
:10AD1B007D4380027D067B017A18794975532D128C
:10AD2B00D354901862E004F002AC70901414E0203D
:10AD3B00E2639018497444F0A3743AF0A37420F0C2
:10AD4B009018627407F0901862E0FFC364809480DF
:10AD5B00403C901414E0FEA807088002C313D8FCF3
:10AD6B0030E0047F3180027F30901862E0FD339534
:10AD7B00E0FCC3740A9DFDE49CFC74492DF58274C0
:10AD8B00183CF583EFF0901862E014F080B8E49073
:10AD9B001854F080367564FF7565CF75664D901449
:10ADAB0014E0FF7C0030E4047D0180027D008C67A1
:10ADBB008D68EF7E0030E5047F0180027F008E6995
:10ADCB008F6A7B017A187949127A887B017A187914
:10ADDB004975532D7D017F0312D354901419E0FE56
:0EADEB00A3E0FDEDFF4E7006F53CF53D8065E2
:10ADF900AD07AC06E4123FA7A804A905AA06AB074C
:10AE0900E4FFFE7D7A7C48123E8790185E124798CF
:10AE19007E00900487E0540F8E3EF53F7007FF7D5A
:10AE2900707C438020E53F640F453E7005F53E7513
:10AE39003F10AC3EAD3F7E007F78124405AC06ADB5
:10AE490007E4123FA790185E12477C123D7E123F1D
:05AE5900E08E3C8F3D7E
:10AE5E007564FF7565CF75665B853C67853D687B60
:10AE6E00017A187949127A887B017A1879497553D3
:08AE7E002D7D4B7F0302D3542C
:0282FD008F3CB4
:0F82FF00E53C64126009E53C641360030283F6FA
:10830E00E53C24EEF53DE4FF12E042756200756334
:10831E00087564FF75650A7566CB75672D7B7A7A6D
:10832E0000E4FDFCFFFE129B4CE53D75F024A424F9
:10833E00D0F582E43404F583E4F0E53D75F024A431
:10834E0024C5F9740435F0FA7B0112F122C37414BA
:10835E009FFFE49EFE7C007D061243F37D021244D5
:10836E005A901865EFF0E53D75F024A424C5F97414
:10837E000435F0FA7B01E0FD75532DE4FF12D35462
:10838E00E53CB4121D901414E030E40B753E0175FB
:10839E003F047540D18026753E01753F047540DD62
:1083AE00801B901414E030E50B753E01753F04758B
:1083BE0040F58009753E01753F05754001AB3EAA3B
:1083CE003FA94012F122C3740D9FFFE49EFE7C0074
:1083DE007D091243F37D0212445AAD07AB3EAA3F0C
:0583EE00A94075552DAA
:0383F3000286BE41
:1083F600E53C24F2F53DFFC374049FFFE49400FEC0
:1084060074142FF58274143EF583E0FBE53D75F098
:1084160028A4244EF582E4340FF583E0FAEBC39AE0
:10842600500D9018611247A4000000000284C8E5B0
:108436003D75F028A4244FF582E4340FF583E0FF60
:10844600EBD39F400C9018611247A43F8000008038
:1084560071C37404953DFFE49400FE74142FF582F5
:1084660074143EF583E0FFEAFDC3EF9DFDE494003E
:10847600FCE4123FA7C004C005C006C007E53D7571
:10848600F028A4244EF582E4340FF583E0FFE53DA1
:1084960075F028A4244FF582E4340FF583E0C39FDA
:1084A600FDE49400FCE4123FA7A804A905AA06ABC4
:1084B60007D007D006D005D004123E879018611267
:1084C6004798E53D75F028A42441F582E4340FF57C
:1084D6008312477CE53D75F028A42445F582E434F3
:1084E6000FF583124760123C8990186112477C127F
:1084F6003D7EE53D75F028A42441F582E4340FF570
:108506008312477C123C8D901861124798E53D75A1
:10851600F028A4244DF582E4340FF583E06030049E
:10852600605424FE7075E53D75F028A42449F58253
:10853600E4340FF58312476090186112477C123FAE
:1085460024600640047F7E80027F2D8F3E804CE5AE
:108556003D75F028A42449F582E4340FF5831247CB
:108566006090186112477C123F2470047F7E80025F
:108576007F2D8F3E8025E53D75F028A42449F582A0
:10858600E4340FF58312476090186112477C123F5E
:108596002450047F7E80027F2D8F3EE53E647E6000
:1085A60004E4FF80027FFF12E042756200756308F3
:1085B6007564FF75650A7566CB853E677B7A7A00BA
:1085C600E4FDFCFFFE129B4CE53D75F028A4243328
:1085D600F582E4340FF583E4F0E53D75F028A42434
:1085E60028F9740F35F0FA7B0112F122C374149F37
:1085F600FFE49EFE7C007D061243F37D0212445A80
:10860600901865EFF0E53D75F028A42428F9740F5D
:1086160035F0FA7B01E0FD853E53E4FF12D354E4C6
:10862600FFFEFDFC90186112477C123F2440089023
:1086360018611247608009901861124760123F91D5
:10864600E4FBFA79207841123F24500B7564FF75DC
:1086560065CF75666180097564FF7565CF75666B54
:108666009018611247608F6A8E698D688C67E53D48
:1086760075F028A42434F9740F35F0756B01F56C88
:10868600896D7B017A187949127A88E4901855F039
:108696007B017A18794912F122C3740D9FFFE49E7B
:1086A600FE7C007D091243F37D0212445AAD077B1E
:0D86B600017A187949853E557F0212D66180
:0186C3002294
:069E05008B3C8A3D893E02
:109E0B00E92410F9E43AFA75570175581875594B4E
:109E1B00755A01755B18755C4D755D01755E18752E
:109E2B005F4F12D5A690184BE0FEA3E0FF4E700BD0
:109E3B00A3E07002A3E07003029F5E90184DE0FC5C
:109E4B00A3E0FD12E141901851EEF0A3EFF0240EC8
:109E5B00FFEE3401FE7C017D68124405C374689DDE
:109E6B00FF74019CFE7C017D68124405901851EC37
:109E7B00F0A3EDF0D39447EC9401500CC3E094178E
:109E8B00901851E09400500C7564FF7565CF7566A2
:109E9B0075029F45C3901852E09444901851E0947A
:109EAB0000500C7564FF7565CF756678029F45D3BE
:109EBB00901852E09427901851E09401400B756470
:109ECB00FF7565CF75667B8071C3901852E09471F6
:109EDB00901851E09400500B7564FF7565CF756653
:109EEB007E8057D3901852E094F7901851E094006D
:109EFB00400B7564FF7565CF756681803DC3901807
:109F0B0052E0949E901851E09400500B7564FF75CD
:109F1B0065CF7566848023D3901852E094CA90184D
:109F2B0051E09400400B7564FF7565CF75668780B3
:109F3B00097564FF7565CF75668A7B017A1879534D
:109F4B00127A887B017A18795375552D7D027F0122
:109F5B0012D661AB3CAA3DA93E12471090000412E9
:109F6B0044E7F55885F057755902755A01755B181A
:109F7B00755C5312A2E97B017A18795375552D7DC7
:109F8B00227F0112D66190184DE0FCA3E0FDEC128C
:109F9B003FA7C004C005C006C00790184DE0FCA346
:109FAB00E0FDEC123FA7D003D002D001D000123D50
:109FBB007EC004C005C006C00790184BE0FCA3E0B0
:109FCB00FDEC123FA7C004C005C006C00790184B9C
:109FDB00E0FCA3E0FDEC123FA7D003D002D001D0F0
:109FEB0000123D7ED003D002D001D000123C8D1266
:109FFB00D9E57B0A7AD77983783F123D7E8F428EE3
:10A00B00418D408C3F901575E030E01E7F787ED1FE
:10A01B007D0D7C40AB42AA41A940A83F123D7EE496
:10A02B00FBFAF9783F123C8D80127466FFFEFD7CC3
:10A03B0040AB42AA41A940A83F123D7E123FE0909F
:10A04B001849EEF0A3EFF07564FF7565CF756637B1
:10A05B00901849E0F567A3E0F5687B017A1879530E
:10A06B00127A887B017A18795375552D7D5C7F01A7
:03A07B0002D661A9
:08A2E9008F568E558D548C53E5
:10A2F100E55845577027901A87F0A3F0901A85F01A
:10A30100A3F0901A83F0A3F0901A7FF0A3F0901AB3
:10A311007BF0A3F0901A79F0A3F002A49590155563
:07A32100E0F4700302A3B396
:10A32800E0FF3395E0FEFDFC7B807AEE793678001D
:10A338001245BEAB56AA55A954A8531245A38F601F
:10A348008E5F8D5E8C5DEC33501CE558155870029D
:10A358001557E42560FFE55F3484FEE55E340CFDA7
:10A36800E55D342480317F007E847D0C7C24AB60E5
:10A37800AA5FA95EA85DD31246E940230558E558AF
:10A3880070020557E5609400FFE55F9484FEE55E82
:10A39800940CFDE55D94248F608E5F8D5EF55D8580
:0BA3A8006056855F55855E54855D534F
:10A3B300E47BE87A03F9F8AF56AE55AD54AC5312CB
:10A3C3004649901A89124798E47B3CFAF9F8901AA7
:10A3D30089124760124649E47B3CFAF9F812464970
:10A3E300E47B18FAF9F8124649901A7DEEF0A3EFD0
:10A3F300F0E47B107A0EF9F8901A8912476012463E
:10A4030049E47B18FAF9F8124649AF03901A83EA34
:10A41300F0A3EFF0E47B3CFAF9F8901A8912476055
:10A42300124649E47B3CFAF9F8124649AF03901A05
:10A4330085EAF0A3EFF0E47B3CFAF9F8901A89126D
:10A443004760124649AF03901A87EAF0A3EFF0AED4
:10A4530057AF587C007D071243F3901A7EE02FFF1D
:10A46300901A7DE03ECF24A2CF34E0FE901A81F013
:10A47300A3EFF075640175651A75667B75670175E1
:10A48300681A75697F8E6AF56B7B017A1A7979127E
:10A49300CDEAE55914602C14700302A52E24026042
:10A4A3000302A5527564FF7565CF75668D901A7B9F
:10A4B300E0F567A3E0F568901A79E0F569A3E0F5A4
:10A4C3006A80277564FF7565CF7566A7901A7FE06C
:10A4D300F567A3E0F568901A7BE0F569A3E0F56AF8
:10A4E300901A79E0F56BA3E0F56CAB5AAA5BA95C13
:10A4F300127A88AB5AAA5BA95C12F122AB5AE55CCB
:10A503002FF9E55B3EFA7564FF7565CF7566979025
:10A513001A83E0F567A3E0F568A3E0F569A3E0F526
:10A523006AA3E0F56BA3E0F56C80217564FF7565A4
:10A53300CF7566B6901A83E0F567A3E0F568A3E0EC
:0FA54300F569A3E0F56AAB5AAA5BA95C127A88A6
:01A5520022E6
:02E5AC008D538D
:10E5AE00AC07EC123FAC901877124798E5536446CF
:10E5BE006005E553B4662EE4FBFAF97840901877BF
:10E5CE00124760123E87E4FBFA79107841123D7EC5
:10E5DE00E4FBFA79A07840123E87E4FBFAF9784220
:10E5EE00123C8D800F901877124760E4FBFAF97891
:10E5FE0040123E879018771247989018771247600E
:01E60E0022E9
:06CDEA008B618A6289637F
:10CDF000788D7C1A7D017BFF7ACF79C07E007F0C15
:10CE0000124320AB67AA68A969740775F0D212456E
:10CE100057D3E56B946DE56A648094814049AB67B4
:10CE2000AA68A9691244BCFFAEF07C007D041244DC
:10CE30005AED4C700CE56B646E7004E56A64016039
:10CE400026ED4C7E0160047F6D80027F6EC3E56B32
:10CE50009FF56BE56A9EF56AAB67AA68A969E475F8
:10CE6000F00112451F80AAAB67AA68A9691244BCE9
:10CE7000FFAEF07C007D0412445AED4C7006901A0F
:10CE80008E741DF0AB64AA65A966E4F5F0124557EF
:10CE9000AB64AA65A9661244BC248DF582741A3568
:10CEA000F0F583E0FF7E00D3E56B9F7480F8656A40
:10CEB000984013E56B9FF56BE56A9EF56AE475F0A3
:10CEC0000112451F80CAE475F00112451FAB61AA2B
:0BCED00062A963E56A856BF00245571C
:0BF19D0025303275200025303375004E
:10985B00D390047DE0940190047CE094004041900F
:10986B00142DE064047039901574E0FFE4FCFDFEE8
:10987B007BE87A03F9F81245BE90041712477CC3B4
:10988B001246E9501B90047CE0FEA3E07802C33340
:10989B00CE33CED8F924BFF58274153EF583800301
:1098AB00900417124760901AA212479890048CE00C
:1098BB0060047F0580027F008F54901AA2124760CC
:1098CB00EC33500A901AA21247A4000000007B80D0
:1098DB007AEE79367800901AA212476012ED00E406
:1098EB007B18FAF9F812ED00AC00AD01AE02AF0334
:1098FB00901A9E124798C374099554FDE49400FC8A
:10990B00C004C00575620075630EE47B0AFAF9F8B2
:10991B00901A9E12476012ED00AC00AD01AE02AF83
:10992B0003E47B10FAF9F81245BE74022FF9741E8A
:10993B003E7564FFF565896675672DD005D0047B90
:10994B00087A007F157E00129B4CE47B607AEAF963
:10995B00F8901AA212476012ED00E47B3CFAF9F87A
:10996B0012ED00AC00AD01AE02AF03901A9E124790
:10997B0098C374099554FDE49400FCC004C00575AC
:10998B00620075630EE47B0AFAF9F8901A9E12478F
:10999B006012ED00E47B10FAF9F81245BE74022F49
:1099AB00F9741E3E7564FFF565896675672DD005E4
:1099BB00D0047B087A007F267E00129B4CC374096F
:1099CB009554FDE49400FCC004C0057562007563FA
:1099DB000EE47B0AFAF9F8901A9E12476012ED001A
:1099EB00AC00AD01AE02AF03E47B10FAF9F81245FF
:1099FB00BE74022FF9741E3E7564FFF5658966759A
:109A0B00672DD005D0047B087A007F317E00129B36
:109A1B004CE47BE87A03F9F8901AA212476012ED36
:109A2B0000E47B3CFAF9F812ED00AC00AD01AE029C
:109A3B00AF03901A9E124798C374099554FDE49492
:109A4B0000FCC004C00575620075630EE47B0AFA66
:109A5B00F9F8901A9E12476012ED00E47B10FAF9A8
:109A6B00F81245BE74022FF9741E3E7564FFF5653E
:109A7B00896675672DD005D0047B087A007F427EFE
:109A8B0000129B4CC374099554FDE49400FCC00474
:109A9B00C00575620075630EE47B0AFAF9F8901A3B
:109AAB009E12476012ED00AC00AD01AE02AF03E4B5
:109ABB007B10FAF9F81245BE74022FF9741E3E752D
:109ACB0064FFF565896675672DD005D0047B087A30
:109ADB00007F4D7E00129B4CE47B64FAF9F8901AE0
:109AEB00A212476012ED00901A9E124798C3740998
:109AFB009554FDE49400FCC004C0057562007563C9
:109B0B000EE47B0AFAF9F8901A9E12476012ED00E8
:109B1B00AC00AD01AE02AF03E47B10FAF9F81245CD
:109B2B00BE74022FF9741E3E7564FFF56589667568
:109B3B00672DD005D0047B087A007F5E7E00029BE8
:019B4B004CCD
:088A84008F578E568D558C545E
:108A8C007562007563087564FF75650775667575A5
:108A9C00672D7B7A7A007D177C00E4FFFE129B4CDD
:108AAC00E4FFFEFDFCAB57AA56A955A854123F246F
:108ABC0040047F0180027F00901A9EEFF0E4FFFEDD
:108ACC00FDFCAB57AA56A955A854123F24400AAF37
:108ADC0057AE56AD55AC54800BAF57AE56AD55ACEA
:108AEC0054123F917BCD7ACC794C783D123C8D8FD2
:108AFC00578E568D558C5490040312477C123E872A
:108B0C00E4FBFA79707842123D7EE4FBFAF9783F87
:108B1C00123C8D123FE0C3EF943CEE940050028067
:108B2C00047E007F3C901A9FEEF0A3EFF0E4FFFE72
:108B3C007DC67C42AB57AA56A955A854123F246057
:108B4C000D400BE4F557F5567555C6755442E4FFC8
:108B5C00FE7D207C41AB57AA56A955A854123F2440
:108B6C005003028C68AF57AE56AD55AC54123FE073
:108B7C00AB07AA067C007D0A12445A901AA1EFF0AA
:108B8C007C007D0AAF03AE0212445AA3EDF0901A9A
:108B9C009EE0604D7562007563087564FF75652312
:108BAC007566F675672D7B087A007D177C007F5FF4
:108BBC007E00129B4C901AA1E075F006A424F2F9E9
:108BCC00742235F07564FFF565896675620075630E
:108BDC000875672D7B067A007D177C007F69028DF6
:108BEC00147562007563087564FF7565237566EE10
:108BFC0075672D7B087A007D177C007F037E001241
:108C0C009B4C901AA1E075F006A424F2F97422355D
:108C1C00F07564FFF56589667562007563087567A4
:108C2C002D7B067A007D177C007F0D7E00129B4CFD
:108C3C00901AA2E075F006A424F2F9742235F075AE
:108C4C0064FFF565896675620075630875672D7B31
:108C5C00067A007D177C007F15028E05AF57AE5645
:108C6C00AD55AC54123FE07C007D0A12445A901A68
:108C7C00A1EDF0E4FFFE7D207C41AB57AA56A9552F
:108C8C00A854123D7E123FE07C007D0A12445A909B
:108C9C001AA2EDF0901A9EE07003028D6C756200C2
:108CAC007563087564FF7565237566F675672D7BAE
:108CBC00087A007D177C007F5B7E00129B4C901A1B
:108CCC00A1E075F006A424F2F9742235F07564FF66
:108CDC00F565896675620075630875672D7B067A84
:108CEC00007D177C007F657E00129B4C75620075C1
:108CFC0063087564FF75652375662E75672D7B0299
:108D0C007A007D177C007F6D7E00129B4C901AA21E
:108D1C00E075F006A424F2F9742235F07564FFF5C1
:108D2C0065896675620075630875672D7B067A0028
:108D3C007D177C007F717E00129B4C756200756301
:108D4C00087564FF75650675668175675E901A9F78
:108D5C00E0FAA3E0FB7D177C007F3E7E00028E30A4
:108D6C007562007563087564FF7565237566EE752D
:108D7C00672D7B087A007D177C007F037E00129B99
:108D8C004C901AA1E075F006A424F2F9742235F087
:108D9C007564FFF565896675620075630875672DE6
:108DAC007B067A007D177C007F0D7E00129B4C7534
:108DBC0062007563087564FF75652375662E7567AB
:108DCC002D7B027A007D177C007F157E00129B4C58
:108DDC00901AA2E075F006A424F2F9742235F0750D
:108DEC0064FFF565896675620075630875672D7B90
:108DFC00067A007D177C007F197E00129B4C901A1E
:108E0C009FE0FAA3E0FBC3743C9BFFE49AFE7562FF
:108E1C00007563087564FF75650675668175675E18
:078E2C007D177C00129B4C36
:018E3300221C
:10E60F0090047CE0FEA3E0FFD39463EE9400500FE0
:10E61F007564FF7565F175669D8E678F68801375DC
:10E62F0064FF7565F17566A390047CE0F567A3E060
:10E63F00F5687B017A1A799E127A8890048CE07BB8
:10E64F00017A1A799E600975592D7D017F01800726
:0AE65F0075592D7D017F1612DC6154
:01E66900228E
:10002600EF601675620075630A7564FF7565247561
:10003600668A75672D7B0C80279015A4E0240275CF
:10004600F0038475F014A42426F9742435F075643D
:10005600FFF565896675620075630A75672D7B0A0B
:0B0066007A00E4FDFCFFFE129B4C2220
:10E463008F5490048CE0602FE55460117562007541
:10E47300630A7564FF7565237566FE800F75620018
:10E4830075630A7564FF75652475661275672D7B60
:10E493000A7A007D01802DE5546011756200756371
:10E4A3000A7564FF7565237566FE800F75620075D6
:10E4B300630A7564FF75652475661275672D7B0A9B
:0EE4C3007A007D167C007F6F7E00129B4C223B
:10EE6800EF601175620075630A7564FF7565237537
:10EE780066D8800F75620075630A7564FF7565232F
:10EE88007566C275672D7B0B7A007D027C007F6EEC
:06EE98007E00129B4C22DB
:084A09008F4E8B4F8A5089513A
:104A1100E54E1470030252DB14603524FE602E242F
:104A210004600302541E90041712477CC0009015C5
:104A310087E0FD7C007E037FE8124405E4FCFDD0A5
:104A4100001245A390041712479802541EE4F51D65
:104A5100784A7C047D017B017A04795F7E007F15B1
:104A610012432090047AE0FFA3E0900478CFF0A3F2
:104A7100EFF0785F7C047D01AB4FAA50A9517E0015
:104A81007F15124320AB4FE5512410F9E43550FA5C
:104A9100755701755818755984755A01755B1875E4
:104AA1005C86755D01755E18755F8812D5A69018D4
:104AB10084E0FEA3E0FF4E700BA3E07002A3E07060
:104AC1000302541E901886E0FCA3E0FD12E1419020
:104AD100047AEEF0A3EFF090142DE064196008E57C
:104AE1004EB404037F0022900450124760EC123F41
:104AF100A2E4FBFA79B47833123D7E901A9A1247F8
:104B010098900465124760EC123FA2E4FBFA79B475
:104B11007833123D7E901A9A12477C123C897B8031
:104B21007A7B79DB7847123D7E90187C1247987B1F
:104B3100E17A2E79657842901A9A124760123E877F
:104B410012C7127BD67A52791A784C123D7EE4FB59
:104B5100FA79B47843123E87C004C005C006C00785
:104B6100900454124760EC123FA2E4FBFA79B47846
:104B710033123D7EC004C005C006C007900469120F
:104B81004760EC123FA2E4FBFA79B47833123D7E20
:104B9100D003D002D001D000123C89D003D002D082
:104BA10001D000123D7E90188012479890047E1229
:104BB1004760123FE0901585EEF0A3EFF090047E80
:104BC10012477CC000C001C002C003901880124788
:104BD10060A804A905AA06AB07123D7EC004C00562
:104BE100C006C00790187C124760A804A905AA0650
:104BF100AB07123D7ED003D002D001D000123C8D14
:104C010012D9E5D003D002D001D000123C8D90041E
:104C11007E124798D390047DE0940090047CE09448
:104C2100005003024DD5D3901586E0940090158570
:0A4C3100E0648094805003024DD52A
:104C3B0090047E124760123FE09006A4E0FAA3E0D6
:104C4B00FBFDAC021244058C528D53901585E0FE92
:104C5B00A3E0FFAD03AC02124405901585ECF0A365
:104C6B00EDF0C3E5539DEC6480F8E5526480984009
:044C7B0003024DD50E
:104C7F009006A5E02553FF9006A4E03552FE90154F
:104C8F0085E0FCA3E0FDC3EF9DFDEE9CFCE4123F2D
:104C9F00A7C004C005C006C007901585E0FEA3E0BD
:104CAF00FFC39006A5E09FFD9006A4E09EFCE412D2
:104CBF003FA7D003D002D001D000123E8790186CCE
:104CCF0012479890048212477C9004171247601283
:104CDF0045B0EC123FA290186C12477C123D7E90AB
:104CEF00186C12479890047CE07004A3E064017084
:104CFF002590186C124760123FE090048212477C97
:104D0F001245A390142AE075F0089000341247D58D
:104D1F00124798024DC990142AE0FF75F0089000D1
:104D2F00341247D512477CE8494A4B700CEFD394A5
:104D3F0000400690142AE014F090186C124760128D
:104D4F003FE090048212477C1245A390142AE0FBA7
:104D5F0075F0089000381247D512479875F008EB98
:104D6F009000381247D512477C90142AE075F0084E
:104D7F009000341247D51247601245B0EC123FA293
:104D8F00E4FBFA797A7844123E8790186C124798B0
:104D9F0090048CE0600B90186C124760128A84802C
:104DAF0019E4FFFEFDFC90186C12477C123F244063
:104DBF00047F0180027F0012EE6890142AE0C394F2
:064DCF001F5003E004F098
:104DD500900417124760900482124798900474E07B
:104DE500FEA3E0FF90047AE0FCA3E0FDC39FEC9EE8
:104DF500C3648094804008ED9FFFEC9EFE801C906C
:104E05000474E0FEA3E0FF90047AE0FCA3E0C39FF6
:104E1500FFEC9EFEC3E49FFFE49EFEC3EF9428EEE5
:104E250064809480404C900474E0FEA3E0FF9004FD
:104E35007AE0FCA3E0FD9FEC9EC36480948040086B
:104E4500ED9FFFEC9EFE801C900474E0FEA3E0FF46
:104E550090047AE0FCA3E0C39FFFEC9EFEC3E49FB1
:104E6500FFE49EFED3EF9440EE64809481500302EC
:104E7500541E900426124760EC123FA2E4FBFA7917
:104E8500B47833123D7E901A9A12479890046512B1
:104E95004760EC123FA2E4FBFA79B47833123D7E09
:104EA500901A9A12477C123C897B807A7B79DB7851
:104EB50047123D7E90187C1247987BE17A2E7965E2
:104EC5007842901A9A124760123E8712C7127BD613
:104ED5007A52791A784C123D7EE4FBFA79B478431C
:104EE500123E87C004C005C006C00790042A1247B9
:104EF50060EC123FA2E4FBFA79B47833123D7EC030
:104F050004C005C006C007900469124760EC123F53
:104F1500A2E4FBFA79B47833123D7ED003D002D0F7
:104F250001D000123C89D003D002D001D000123D3F
:104F35007E901880124798E4FFFEFDFC90187C12C5
:104F4500477C123F24400890187C124760800990E6
:104F5500187C124760123F91E4FBFA7934784212CB
:104F65003F24600250030252D5E4FFFEFDFC901879
:104F75008012477C123F24400890188012476080B9
:104F850009901880124760123F91E4FBFA79347852
:104F950042123F24600250030252D5E51D60030210
:024FA500541E98
:104FA700751D01901880124760A804A905AA06ABD1
:104FB70007123D7EC004C005C006C00790187C12CA
:104FC7004760A804A905AA06AB07123D7ED003D007
:104FD70002D001D000123C8D12D9E590187012470B
:104FE70098901886E0FCA3E0FDEC123FA7C004C030
:104FF70005C006C007901886E0FCA3E0FDEC123F51
:10500700A7D003D002D001D000123D7EC004C00556
:10501700C006C007901884E0FCA3E0FDEC123FA790
:10502700C004C005C006C007901884E0FCA3E0FDDB
:10503700EC123FA7D003D002D001D000123D7ED0A2
:1050470003D002D001D000123C8D12D9E59018741C
:10505700124798E4FFFE7D7A7C4490187012477CD3
:10506700123D7E90187412477C123E87E4FBFA7952
:10507700487842123C8D123FE0901878124798907A
:0A508700142DE0641960030251804B
:1050910090047CF0A304F090041B1247A4FFFFFFCF
:1050A100FFE490041FF090142D7404F090048CE040
:1050B100604F7BFF7A1379877D2D12D71A756200B5
:1050C1007563087564FF7565237566F675672D7BD5
:1050D100087A007D177C007F6F7E00129B4C756201
:1050E100007563087564FF7565237566EE75672D38
:1050F1007B087A007D177C007F037E00129B4C8029
:105101002BE4FF12E04275620075630E7564FF7552
:1051110065127566E575672D7B517A007D097C0006
:105121007F157E00129B4CE4FF12002612E60F123F
:10513100985BE4F55275F004E5529015C71247D516
:105141001247A4FFFFFFFF0552E552B484E7E4F5DF
:105151005275F008E5529000381247D51247A40065
:1051610000000075F008E5529000341247D512474F
:0F517100A4000000000552E552B420D50252738D
:1051800090041712476090187812477C1245A3903C
:10519000041712479890048CE060207562007563D4
:1051A000087564FF75650775667575672D7B7A7A76
:1051B000007D177C00E4FFFE129B4CD390047DE041
:1051C000948490047CE0940050329004171247605D
:1051D000C004C005C006C00790047CE0FEA3E078D0
:1051E00002C333CE33CED8F924C3F58274153EF50D
:1051F00083D007D006D005D00412479890041B1224
:105200004760AB07AA06A905A804900417124760D7
:10521000C31246FF404E90041712476090041B12C1
:1052200047987F0112E46390047CE07004A3E0647B
:10523000016036E490142AF090142AE0FBC3942015
:10524000502775F008EB9000381247D5124760756B
:10525000F008EB9000341247D512479890142AE0DA
:1052600004F080D4E4FF12E46390047CE475F00160
:105270001244909018781247601246DB900417127F
:105280004798901870124760123F9190047E124721
:1052900098E4901585F0A3F09004821247A40000D2
:1052A0000000E490142AF090142AE0FFC3942050E8
:1052B0001975F008EF9000381247D51247A4000086
:1052C000000090142AE004F080DDE490142AF0122B
:0552D000E60F7F012242
:0652D500E4F51D02541E69
:1052DB00751D0178207C047D017B017A04795F7E4A
:1052EB00007F1512432090047AE0FFA3E090047432
:1052FB00CFF0A3EFF090047CE4F0A304F0900482D1
:10530B001247A4000000009004171247A4000000ED
:10531B000090041B1247A4FFFFFFFFE490041FF053
:10532B0090047E1247A400000000E4901585F0A3C2
:10533B00F090142AF090142AE0FFC394845019754E
:10534B00F004EF9015C71247D51247A4FFFFFFFFDC
:10535B0090142AE004F080DDE490142AF090142AD3
:10536B00E0FB75F0089000381247D51247A40000F7
:10537B00000075F008EB9000341247D51247A400DB
:10538B0000000090142AE004F0E0B420D0E4901464
:10539B002AF07B017A18798AF5627563027F107E99
:1053AB000212DBC6900426124760900416E0FB75D0
:1053BB00F01C90189A1247D512479890042A12475E
:1053CB006075F01CEB90189E1247D512479890040D
:1053DB002EE0FEA3E0FF75F01CEB9018A21247D550
:1053EB00EEF0A3EFF0900474E0FEA3E0FF75F01C69
:1053FB00EB9018A41247D5EEF0A3EFF07B017A18CF
:10540B00798A7564007565027D107C027F027E00CF
:03541B0012DEAAF4
:02541E007F000D
:015420002269
:10EFEF007B017A1579C7901429E024EAFF90142841
:10EFFF00E034FFFE90000EE07C002FF565EC3EF54F
:0CF00F00647D107C027F027E0002DEAAFD
:10D5A6008B548A55895690000112435FFD7C001208
:10D5B600434654E075F008A42DFFEC35F0AB57AAAE
:10D5C60058A9598FF0124557AB57AA58A959124472
:10D5D600BCFFAEF0EE30E20744F88FF0124557ABD1
:10D5E60054AA55A95690000212435FFD7C001243CF
:10D5F60046541C75F040A42DFFEC35F0AB5AAA5BDF
:10D60600A95C8FF0124557AB5AAA5BA95C1244BCC1
:10D61600FFAEF0EE30E20744F88FF0124557AB54F8
:10D62600AA55A95690000312435FFD7C001243469B
:10D636005403FEE42DFFEC3EAB5DAA5EA95F8FF0BE
:10D64600124557AB5DAA5EA95F1244BCFFAEF0EE71
:0BD6560030E10744FC8FF01245572222
:04E141008E548F5514
:10E14500AE04AF05EC123FA7C004C005C006C0076A
:10E15500AC54AD55EC123FA78F5D8E5C8D5B8C5A30
:10E16500D007D006D005D00412E2A2901A9E12471D
:10E1750098901A9E1247607BE07A2E796578421254
:10E185003D7E901A9E124798901A9E124760123F44
:10E19500E0901AA2EEF0A3EFF02468FFEE3401FE42
:10E1A5007C017D6812445A901AA2ECF0A3EDF0FFB1
:02E1B500AE04B6
:01E1B7002245
:1086C4008B3C8A3D893EEF24FE6053240260030202
:1086D4008A8190041712477CC000901587E0FD7CC6
:1086E400007E037FE8124405E4FCFDD0001245A39C
:1086F400900417124798E47FE87E03FDFC9004176A
:1087040012477CC31246E96003028A8190047AE02E
:0E871400FFA3E0900474CFF0A3EFF0028A817F
:10872200784A7C047D017B017A04795F7E007F15A3
:1087320012432090047AE0FFA3E0900478CFF0A3E4
:10874200EFF0785F7C047D01AB3CAA3DA93E7E0040
:108752007F15124320AB3CE53E2410F9E4353DFA87
:1087620075570175581875595D755A01755B1875FD
:108772005C5F755D01755E18755F6112D5A6901814
:108782005DE0FEA3E0FF4E700BA3E07002A3E07079
:1087920003028A8190185FE0FCA3E0FD12E14190A0
:1087A200047AEEF0A3EFF090142DE0641760030258
:1087B2008A81900476E0FEA3E0FF90047AE0FCA3B5
:1087C200E0FDC39FFFEC9EFEC36480948040028064
:1087D20016900476E0FEA3E0FFC3ED9FFFEC9EFE41
:1087E200C3E49FFFE49EFEC3EF941EEE6480948078
:1087F2004042900476E0FEA3E0FF90047AE0FCA3FE
:10880200E0FD9FFFEC9EFEC36480948040028016D0
:10881200900476E0FEA3E0FFC3ED9FFFEC9EFEC353
:10882200E49FFFE49EFED3EF944AEE64809481506D
:1088320003028A8190043B124760EC123FA2E4FBE0
:10884200FA79B47833123D7E9018631247989004F7
:1088520065124760EC123FA2E4FBFA79B478331256
:108862003D7E90186312477C123C897B807A7B792B
:10887200DB7847123D7E123FE09018551247987BF5
:10888200E17A2E79657842901863124760123E872A
:1088920012C7127BD67A52791A784C123D7EE4FBCB
:1088A200FA79B47843123E87C004C005C006C007F7
:1088B20090043F124760EC123FA2E4FBFA79B478CD
:1088C20033123D7EC004C005C006C0079004691281
:1088D2004760EC123FA2E4FBFA79B47833123D7E92
:1088E200D003D002D001D000123C89D003D002D0F4
:1088F20001D000123D7E123FE09018591247989025
:108902001855124760EC33400890185512476080A2
:10891200099018551247601246DBE47B0AFAF9F80F
:10892200D31246E95003028A81901859124760EC2B
:10893200334008901859124760800990185912471D
:10894200601246DBE47B0AFAF9F8D31246E95003D7
:03895200028A8115
:10895500901859124760EC123FA2C004C005C0062A
:10896500C007901859124760EC123FA2D003D002FD
:10897500D001D000123D7EC004C005C006C00790DE
:108985001855124760EC123FA2C004C005C006C0CE
:1089950007901855124760EC123FA2D003D002D0C1
:1089A50001D000123D7ED003D002D001D000123C90
:1089B5008D12D9E590184912479890185FE0FCA3ED
:1089C500E0FDEC123FA7C004C005C006C007901823
:1089D5005FE0FCA3E0FDEC123FA7D003D002D0017D
:1089E500D000123D7EC004C005C006C00790185DCA
:1089F500E0FCA3E0FDEC123FA7C004C005C006C023
:108A05000790185DE0FCA3E0FDEC123FA7D003D072
:108A150002D001D000123D7ED003D002D001D0009B
:108A2500123C8D12D9E590184D124798E4FFFE7D52
:108A35007A7C4490184912477C123D7E90184D125D
:108A4500477C123E87E4FBFA79487842123C8D1246
:108A55003FE09018511247989004171247609018FC
:108A65005112477C1245A39004171247989004179A
:0C8A75001247609015C71247987F01223D
:038A81007F002251
:10EF0300564F4C5453004F4E004F464600447269CF
:10EF130076657241004361724100547261636B41D3
:10EF230000416E616C6F6778004469676974616C56
:02EF3300780064
:069517008B4B8A4C894DCC
:10951D0090018D1247A4FFFFFFFF90016F1247A42A
:10952D00FFFFFFFF74FF900136F0A3F0900134F0C0
:10953D00A3F07B017A18796C7562007563017F1059
:10954D007E0212DBC690186CE0901A7CF090186DBC
:10955D00E0901A7DF090186EE0901A7EF090186FE2
:10956D00E0540F901A7FF0E024FC600C2402701080
:10957D009015877414F0800E9015877428F080066E
:10958D00901587740AF0901870E09004C0F0900068
:10959D001C7402F0A3740FF09004C0E030E7034494
:1095AD0003F0901402E0FCA3E0FD7F017E0012E4C5
:1095BD00D17B017A18796CE4F562F5637F107E0238
:1095CD0012DBC6AB4BAA4CA94DE475F004124557FE
:1095DD00E4901A80F0901429E024EBFF901428E019
:1095ED0034FFAB4EAA4FA9508FF0124557E4901A95
:1095FD0081F0901A81E0FFC3941540030296FA752D
:10960D00F019EF90186C1247D5E0FEA3E0FFBEFFF6
:10961D0016BFFF13901A80E060030296F1A3E004D9
:10962D00901A80F00296F1901A81E0FF75F0199072
:10963D00186E1247D5E0FCA3E0F47002ECF4700351
:10964D000296F1AB4BAA4CA94D1244BCFDACF07582
:10965D00F019EF90186E1247D5E0FEA3E0D39DEE02
:10966D009C4014901A81E075F01990186E1247D530
:10967D00E0FEA3E0FF8004AE04AF05AB4BAA4CA9FE
:10968D004DEE8FF0124557901A81E0FF75F019904D
:10969D0018801247D5E0FCA3E0F47002ECF46044AE
:1096AD00AB4EAA4FA9501244BCFDACF075F019EFAA
:1096BD009018801247D5E0FEA3E0C39DEE9C501498
:1096CD00901A81E075F0199018801247D5E0FEA32D
:1096DD00E0FF8004AE04AF05AB4EAA4FA950EE8F4C
:1096ED00F0124557901A81E004F00295FF901A8010
:1096FD00E07002FF22AB4EAA4FA9501244BCFFAE40
:10970D00F0AB4BAA4CA94D1244BCC39FE5F09E4053
:10971D00037F0022E475F00112451FAB4EAA4FA93D
:10972D005074FFF5F012451FAB4BAA4CA94D1244D6
:10973D00BCFFAEF0D39405EE9400400280047E0091
:10974D007F05901A80E0FD75F0199018531247D5DA
:10975D00EEF0A3EFF09004C0E0FF600EAB4EAA4F09
:10976D00A9501244BCFBAAF080047AFF7BFF75F070
:10977D0019ED9018651247D5EAF0A3EBF075F019C5
:10978D00ED9018671247D574FFF0A3F075F019ED41
:10979D009018641247D5EFF0901A7CE0FF75F01920
:1097AD00ED9018691247D5EFF0901A7EE0FF75F035
:1097BD0019ED90186A1247D5EFF0901A7DE0FF75FC
:1097CD00F019ED90186B1247D5EFF090142DE012B3
:1097DD0048BE980404982605980E06980607980426
:1097ED0008980E0998160A98260B981E15980419B4
:1097FD0098061A000098048028901A7FE0241080A3
:10980D0024901A7FE02420801C901A7FE024308061
:10981D0014901A7FE02440800C901A7FE024508031
:10982D0004901A7FE0FFA3E075F0199018631247BA
:10983D00D5EFF07B017A18796CE4F564F5657D1050
:0D984D007C027F02FE12DEAA901A80E0FF6E
:01985A0022EB
:0AC838008F588C598D5A8A5B8B5C77
:10C8420015587B017A1A7927E4F562F5637F107E29
:10C852000212DBC674FFFFFEFDFC90016F12477CE3
:10C86200C31246FF705F75F019E558901A311247EE
:10C87200D51247A4FFFFFFFF75F019E558901A2B58
:10C882001247D51247A4FFFFFFFF75F019E5589034
:10C892001A351247D574FFF0A3F075F019E55890D8
:10C8A2001A2F1247D574FFF0A3F075F019E55890CE
:10C8B2001A291247D574FFF0A3F075F019E55890C4
:10C8C2001A2702C97990016F12476075F019E5586D
:10C8D200901A2B1247D5124798900134E0FEA3E03C
:10C8E200FF75F019E558901A2F1247D5EEF0A3EF15
:10C8F200F090018D12476075F019E558901A3112C7
:10C9020047D5124798900136E0FEA3E0FF75F01973
:10C91200E558901A351247D5EEF0A3EFF075F019ED
:10C92200E558901A291247D5E559F0A3E55AF09037
:10C9320004C0E0602A75F019E558901A391247D5FB
:10C94200E0FEA3E0F47002EEF4601475F019E5580D
:10C95200901A3B1247D5E55BF0A3E55CF0802075A9
:10C96200F019E558901A3B1247D574FFF0A3F07501
:10C97200F019E558901A391247D574FFF0A3F07BED
:10C98200017A1A7927E4F564F5657D107C027F024D
:04C99200FE02DEAA19
:10C55800E4901A25F0A3F07B017A187913F562F5B7
:10C56800637F107E0212DBC6E4901A25F0A3F090D8
:10C578001A25E0FEA3E0FFC39415EE9400400302E1
:10C58800C6C990181375F019EF1247D5EE75F01952
:10C59800A42583F583E0FEA3E0F47002EEF47003B3
:10C5A80002C6BC901A25E0FEA3E090181B75F0198E
:10C5B8001247D5EE75F019A42583F583E0FCA3E0B6
:0AC5C800F47002ECF4600302C6BC3C
:10C5D20090182575F019EF1247D5EE75F019A425BC
:10C5E20083F583E0FDA3E090180FCDF0A3EDF0906A
:10C5F200182775F019EF1247D5EE75F019A42583A7
:10C60200F583E0FFA3E0901811CFF0A3EFF0901AAA
:10C6120025A3E090181375F0191247D5EE75F0199D
:10C62200A42583F583E0FFA3E0901A23CFF0A3EFC4
:10C63200F0901429E024EAFF901428E034FFFEC3AE
:10C64200901A24E09F901A23E09E506E7B017A1884
:10C652007913E0F562A3E0F5637F107E0212DBC678
:10C6620074FFFFFEFDFC90181312477CC31246FFB5
:10C67200703B901811E0B4FF12A3E0B4FF0D9018C4
:10C682000FE0FFA3E0A3CFF0A3EFF0901A25A3E001
:10C6920004FF901A24E024FFFD901A23E034FFFCEB
:10C6A200901811E0FAA3E0FB12C838800D901A230B
:0AC6B200E475F00112449002C63353
:0DC6BC00901A25E475F00112449002C57734
:01C6C900224E
:02BF29008F4A3D
:10BF2B007B017A187967E4F562F5637F107E021264
:10BF3B00DBC675F019E54A90184E1247D5E0FEA303
:10BF4B00E0F47002EEF4603B75F019E54A9018507E
:10BF5B001247D5E0FEA3E0F47002EEF4602575F015
:10BF6B0019E54A90184E1247D5E0FEA3E0FF75F095
:10BF7B0019E54A9018501247D5E0FCA3E0FDE4FB0D
:10BF8B0012DD8D7B017A187967E4F562F5637F101A
:10BF9B007E0212DBC675F019E54A9018601247D580
:10BFAB00E0FEA3E0F47002EEF4603B75F019E54A95
:10BFBB009018621247D5E0FEA3E0F47002EEF46035
:10BFCB002575F019E54A9018621247D5E0FEA3E0FB
:10BFDB00FF75F019E54A9018601247D5E0FCA3E015
:10BFEB00FDE4FB12DD8D901429E024EAFF90142868
:10BFFB00E034FFFE7C00EF254AFFEC3EFE12EB0D1A
:10C00B007B017A187967E4F562F5637F107E021283
:10C01B00DBC675F019E54A9018621247D574FFF02C
:10C02B00A3F075F019E54A9018601247D574FFF02C
:10C03B00A3F075F019E54A9018501247D574FFF02C
:10C04B00A3F075F019E54A90184E1247D574FFF01E
:10C05B00A3F075F019E54A9018581247D51247A46A
:10C06B00FFFFFFFF75F019E54A9018521247D512E2
:10C07B0047A4FFFFFFFF75F019E54A90185C1247C4
:10C08B00D574FFF0A3F075F019E54A9018561247D6
:10C09B00D574FFF0A3F075F019E54A90185F1247BD
:10C0AB00D5E4F075F019E54A90185E1247D5E4F027
:10C0BB007B017A187967F564F5657D107C027F0248
:04C0CB00FE02DEAAE9
:106E7A00E4F54B7B017A18798BF5627563017F1013
:106E8A007E0212DBC674FFFFFEFDFC90188B1247D0
:106E9A007CC31246FF6003026F75754B0190188F11
:106EAA00F090188DF090188CF090188BF090188E46
:066EBA007402F0E4F54A49
:106EC00078667C187D017BFF7AEF79107E007F0861
:106ED000124320E54A244190186CF0E54A75F01001
:106EE000A42490F9741835F0A801FC7D017B017A87
:066EF0001879661249B694
:0A6EF600054AE54AB40CC3E4F54A6E
:106F0000786E7C187D017BFF7AEF79187E007F0513
:106F1000124320E54A2441901871F0E54A75F016B5
:106F2000A42450F9741935F0A801FC7D017B017A85
:106F300018796E1249B675F016E54A901960124735
:106F4000D5E4F0A304F075F016E54A9019641247F1
:106F5000D57417F0A37470F075F016E54A901962B5
:0A6F60001247D57417F0A37470F007
:106F6A00054AE54A640C708E02704B90188BE0D388
:106F7A00940C4005E4F0754B0190188CE0D3941002
:106F8A004005E4F0754B0190188DE0D3940C400550
:106F9A00E4F0754B01E4F54A75F010E54A90189053
:106FAA001247D5E0FF12F17F401E75F010E54A90B6
:106FBA0018901247D5E0601075F010E54A901890C5
:106FCA001247D5E4F0754B01054AE54AC3940C40D3
:106FDA00C7E4F54A75F016E54A9019501247D5E00C
:106FEA00FF12F17F405275F016E54A901950124788
:106FFA00D5E0604475F016E54A9019501247D5E479
:10700A00F075F016E54A9019601247D5E4F0A3042A
:10701A00F075F016E54A9019641247D57417F0A373
:10702A007470F075F016E54A9019621247D5741714
:10703A00F0A37470F0754B01054AE54AC3940C40FD
:10704A0093E54B60177B017A18798B756400756537
:10705A00017D107C027F027E0012DEAA7B017A1873
:10706A00798B7562007563027F107E0212DBC6E4BB
:10707A00F54B90188BE0F46003027115A3E0F460FD
:09708A0003027115754B01F54A72
:1070930078737C187D017BFF7AEF791D7E007F0773
:1070A300124320E54A2441901878F0E54A75F01C14
:1070B300A4248BF9741835F0A801FC7D017B017AB7
:1070C3001879731249B675F01CE54A90189F124758
:1070D300D51247A40000000075F01CE54A90189BE8
:1070E3001247D51247A40000000075F01CE54A9032
:1070F30018A31247D5E4F0A3F075F01CE54A9018E5
:08710300A51247D5E4F0A3F04A
:10710B00054AE54A64107080807EE4F54A75F01CF0
:10711B00E54A90188B1247D5E0FF12F17F4060755E
:10712B00F01CE54A90188B1247D5E0605275F01CA5
:10713B00E54A90188B1247D5E4F075F01CE54A90A0
:10714B00189F1247D51247A40000000075F01CE5EC
:10715B004A90189B1247D51247A40000000075F007
:10716B001CE54A9018A31247D5E4F0A3F075F01C68
:10717B00E54A9018A51247D5E4F0A3F0754B01052D
:10718B004AE54AC394104085E54B60177B017A189A
:10719B00798B7564007565027D107C027F027E0021
:1071AB0012DEAAE4F54B7B017A18798BF5627563D5
:1071BB00047F107E0212DBC690188BE0F47053A391
:1071CB00E0F4704E754B01F54A75F00CE54A9018DA
:1071DB008F1247D51247A40000000075F00CE54A4A
:1071EB0090188B1247D51247A40000000075F00CC5
:1071FB00E54A9018931247D5E4F0A3F075F00CE52F
:10720B004A9018951247D5E4F0A3F0054AE54AB425
:10721B0010B7E54B60177B017A18798B7564007595
:10722B0065047D107C027F027E0012DEAAE4F54B22
:10723B007B017A18798BF5627563037F107E0212DE
:10724B00DBC674FFFFFEFDFC90188B12477CC3124C
:0C725B0046FF60030273F6754B01F54A14
:10726700787A7C187D017BFF7AEF79247E007F088E
:10727700124320E54A2430901880F0E54A75F0283B
:10728700A4248BF9741835F0A801FC7D017B017AE1
:1072970018797A1249B6E54A75F028A42497F97443
:1072A7001835F0A801FC7D017BFF7AEF79031249BD
:1072B700B675F028E54A9018A31247D57414F075EF
:1072C700F028E54A9018A41247D51247A4000000F9
:1072D7000075F028E54A9018A81247D51247A4412F
:1072E700A0000075F028E54A9018AC1247D5124760
:1072F700A441A0000075F028E54A9018B01247D5C0
:107307007401F075F028E54A9018B11247D5E4F0FA
:0E73170075F028E54A9018B21247D574F8F0C8
:0E732500054AE54A64046003027267E4F54A13
:1073330078827C187D017BFF7AEF792C7E007F09B0
:10734300124320E54A2430901889F0E54A75F02469
:10735300A4242BF9741935F0A801FC7D017B017A73
:107363001879821249B6E54A75F024A42437F974D2
:107373001935F0A801FC7D017BFF7AEF79091249E9
:10738300B6E54A75F024A42443F9741935F0A8012D
:0C739300FC7D017BFF7AEF790C1249B6FB
:10739F00054AE54AB4078DE4F54A75F005E54A90CC
:1073AF001A291247D5E4F0A3F075F005E54A901AB3
:1073BF00271247D5E4F0A3F075F005E54A901A2B94
:1073CF001247D57401F0054AE54AB402CDE4F54AF7
:1073DF007431254AF582E4341AF583E4F0054AE561
:1073EF004AB402EC02751AE4F54A75F028E54A90A2
:1073FF00188B1247D5E0FF12F17F500302749C7572
:10740F00F028E54A90188B1247D5E0700302749C60
:10741F0075F028E54A90188B1247D5E4F075F028DF
:10742F00E54A9018A31247D57414F075F028E54A71
:10743F009018A41247D51247A40000000075F02839
:10744F00E54A9018A81247D51247A441A00000752D
:10745F00F028E54A9018AC1247D51247A441A00076
:10746F000075F028E54A9018B01247D57401F075F1
:10747F00F028E54A9018B11247D5E4F075F028E5E9
:10748F004A9018B21247D574F8F0754B01054AE5CA
:10749F004AC3940450030273F9E4F54A75F024E5E6
:1074AF004A90192B1247D5E0FF12F17F405475F027
:1074BF0024E54A90192B1247D5E0604675F024E574
:1074CF004A90192B1247D5E4F0E54A75F024A4240D
:1074DF0037F9741935F0A801FC7D017BFF7AEF793C
:1074EF00091249B6E54A75F024A42443F9741935F5
:1074FF00F0A801FC7D017BFF7AEF790C1249B6757C
:10750F004B01054AE54AC394074091E54B60177B51
:10751F00017A18798B7564007565037D107C027F85
:06752F00027E0012DEAA3C
:017535002233
:10E66A008B618A628963E92DF9EA3C8B64F56589D5
:10E67A0066E4F567F568C3856583856682E5639513
:10E68A0082E5629583502F7861E475F0011247EABA
:10E69A00124346FFE5686F25E0FFE433FE74A22FBC
:10E6AA00F58274243EF583E567FFE493F567740108
:0AE6BA00936FF56880C0AE67AF688B
:01E6C4002233
:10AC540002080001010C00020D00000212000101B3
:06AC6400160002170000BB
:06E71F008B618A62896330
:10E72500858464AB61AA62A9639000021244E7453F
:10E73500F070F0AB61AA62A96390000C124835C075
:10E7450003C002C001AB61AA62A963900007124829
:10E7550065AB61AA62A963900002EC8DF012457663
:10E765001243467006F584D2998005758401D299C5
:03E7750085648434
:01E77800227E
:10F16E00AE84E4F5848F9B30FFFDC2FFAF9B8E848F
:01F17E00226E
:10E82B00AF8475840F759601758C67E4FDFC0DBD87
:10E83B0000010CE4B505F7ECB401F3E58C30E7FB14
:10E84B00759701E4F58A758905F58475B72075848C
:10E85B000F758D01758F01758E03FCFD0DBD0001CC
:10E86B000CE4B505F7ECB401F3438902E58930E418
:06E87B00FB7597028F847B
:01E881002274
:0EAE86008B258A2689278F2B8E2A8D298C28D2
:10AE940085842C12434614606F04600302B086E478
:10AEA400F58475911590000A12435F24BB60182441
:10AEB400F6601424EA601024F76007146009242162
:10AEC400700875985080037598D0E4F58475C804AB
:10AED40075C908AB2BAA2AA929A828FFFE7D657C81
:10AEE40004124649E47B10FAF9F81246491246DB8B
:10AEF4008ECB8FCA74FFF5CDF5CCD2CAE4F584C2EB
:10AF040099C298D2AC02B086758401AB25AA26A951
:10AF14002790000A12435F24BB601824F6601424AF
:10AF2400EA601024F76007146009242170087598FA
:10AF3400108003759890E4F58453890F438920ABFE
:10AF44002BAA2AA929A828FFFE7D657C041246495C
:10AF5400E47B02FAF9F8124649E4FB7A01F9F812A3
:10AF64004649E47B01FAF9F8D31246FF4026AB2B9D
:10AF7400AA2AA929A828E4FFFE7D657C0412464973
:10AF8400E47B02FAF9F81246491246DB8F8D438EB0
:10AF94001002B077AB2BAA2AA929A828E4FFFE7DCA
:10AFA400657C04124649E47B02FAF9F8124649E446
:10AFB400FB7A01F9F8124649E47B04FAF9F8D31252
:10AFC40046FF4031AB2BAA2AA929A828E4FFFE7D1D
:10AFD400657C04124649E47B02FAF9F8124649E416
:10AFE4007B04FAF9F81246491246DB8F8D538EEC36
:10AFF400438E01807EAB2BAA2AA929A828E4FFFE50
:10B004007D657C04124649E47B02FAF9F81246494C
:10B01400E4FB7A01F9F8124649E47B0CFAF9F8D317
:10B024001246FFAB2BAA2AA929A828E4FFFE7D65B6
:10B034007C04401F124649E47B02FAF9F81246499F
:10B04400E47B0CFAF9F81246491246DB8F8D538ED5
:10B05400EC8020124649E47B02FAF9F8124649E4EE
:10B064007B30FAF9F81246491246DB8F8D538EEC89
:10B07400438E02858D8BD28E758401C299C298430A
:05B08400E740852C846B
:01B0890022A4
:10F15C00AF84E4F584759D04759A70C2FFD2F88F64
:01F16C00841E
:01F16D00227F
:10F04600AD84758401E4F5C8F5C9EF2408FFE43EF4
:10F05600FEC3E49FFFE49EF5CB8FCA74FFF5CDF5A2
:09F06600CC43E70143C8048D848A
:01F06F00227E
:0300230002B278AE
:10B27800C0E0C0F0C083C082C0D075D000C000C09C
:0DB2880001C002C003C004C005C006C0071D
:10B29500E59820E00302B40B85997E5398FEE508F6
:10B2A500600302B3DAE50924FE606314700302B398
:10B2B5004414700302B3A92403600302B3DA750DC5
:10B2C50000750E00E57E6416600302B3DA90049AF9
:10B2D500E0FF7E007C027D1D1243F390049E124820
:10B2E50003E92FF9EA3E8B0FF5108911FA050EE5F2
:10B2F5000EAE0D7002050D14F5828E83E57E1243A8
:10B30500D1E57E620C75080075090202B3DAAB0F50
:10B31500AA10A911050EE50EAE0D7002050D14F566
:10B32500828E83E57E1243D1E57E620CE50E6406CE
:10B33500450D600302B3DAF50875090302B3DAAB0C
:10B345000FAA10A911050EE50EAE0D7002050D141C
:10B35500F5828E83E57E1243D1630CFFE50C657E95
:10B365007031AB0FAA10A91190000312435F750A43
:10B3750000F50B750B00F50A90000412435F250BD1
:10B38500F50BE4350AF50A450B60447508007509A7
:10B39500048042750D00750E00750800750901756C
:10B3A5000C008031AB0FAA10A911050EE50EAE0DEC
:10B3B5007002050D14F5828E83E57E1243D1E50BEF
:10B3C5002407FFE4350AFEEFB50E0AEEB50D067546
:10B3D5000800750905E509640545087029F508752E
:10B3E5000901F50DF50EF50C900493124803E94A91
:10B3F5004B7013AB0FAA10A91190049312480C902F
:10B40500049AE06401F0E59830E13A900491E07027
:10B4150002A3E06021900496124803124346F59971
:10B42500900497E475F00112449090049174FFF52F
:10B43500F0124490800C7B007A00790090049612FB
:05B44500480C5398FDC6
:10B44A00D007D006D005D004D003D002D001D00056
:0BB45A00D0D0D082D083D0F0D0E03200
:0300A30002B4653F
:10B46500C0E0C0F0C083C082C0D075D000C000C0AD
:0DB4750001C002C003C004C005C006C0072E
:10B48200E59820E00302B5F885997F5398FEE5120E
:10B49200600302B5C7E51324FE606314700302B5AE
:10B4A2003114700302B5962403600302B5C7751701
:10B4B20000751800E57F6416600302B5C79004ACFE
:10B4C200E0FF7E007C027D1D1243F39004B012481F
:10B4D20003E92FF9EA3E8B19F51A891BFA0518E5DB
:10B4E20018AE177002051714F5828E83E57F12439A
:10B4F200D1E57F621675120075130202B5C7AB194A
:10B50200AA1AA91B0518E518AE177002051714F53B
:10B51200828E83E57F1243D1E57F6216E5186406C9
:10B522004517600302B5C7F51275130302B5C7AB21
:10B5320019AA1AA91B0518E518AE177002051714E7
:10B54200F5828E83E57F1243D16316FFE516657F90
:10B552007031AB19AA1AA91B90000312435F75142C
:10B5620000F515751500F51490000412435F2515BA
:10B57200F515E43514F5144515604475120075137C
:10B582000480427517007518007512007513017555
:10B5920016008031AB19AA1AA91B0518E518AE17B7
:10B5A2007002051714F5828E83E57F1243D1E515EB
:10B5B2002407FFE43514FEEFB5180AEEB517067539
:10B5C2001200751305E513640545127029F512750D
:10B5D2001301F517F518F5169004A5124803E94A68
:10B5E2004B7013AB19AA1AA91B9004A512480C9010
:10B5F20004ACE06401F0E59830E13A9004A3E07015
:10B6020002A3E060219004A8124803124346F59970
:10B612009004A9E475F0011244909004A374FFF51C
:10B62200F0124490800C7B007A0079009004A812FA
:05B63200480C5398FDD7
:10B63700D007D006D005D004D003D002D001D00067
:0BB64700D0D0D082D083D0F0D0E03211
:0300730002D41D97
:10D41D00C0E0C0F0C083C082C0D075D000C000C0D5
:0BD42D0002C003C004C005C006C00719
:10D4380075840153C87F900414E475F00112449078
:10D44800E4FDFC74022DF582E43415F583E0600DEB
:10D4580074022DF582E43415F583E014F00DBD0057
:10D46800010CED64034C70DB7C007D0075840FAF0C
:10D478000574017E00A807088005C333CE33CED8D3
:10D48800F9FFABD8EF5B702EED25E0FFEC33FE74AF
:10D498000D2FF58274053EF583E0FAA3E0C394FFEF
:10D4A800EA94FF5011740D2FF58274053EF583E45C
:10D4B80075F0011244900DBD00010CED64074C702D
:01D4C800ABB8
:10D4C900D007D006D005D004D003D002D000D0D0E8
:09D4D900D082D083D0F0D0E03203
:02A553008F2552
:10A55500E490188FF0E5256012901570E07004A363
:10A56500E06407600690188F7401F07B017A187912
:10A575000F12E92D90188FE060037F002290187C60
:10A58500E0B4FF097460F090188F7401F090187EA4
:10A59500E0B4FF09743CF090188F7401F090187FB7
:10A5A500E0B4FF097473F090188F7401F090180FE0
:10A5B500E0FF12F17F400D90180FE06007E4F09086
:10A5C500188F04F0901823E0FF12F17F400D9018CA
:10A5D50023E06007E4F090188F04F0901837E0FF4F
:10A5E50012F17F400D901837E06007E4F090188F66
:10A5F50004F0901878E07004A3E064C8700C90181B
:10A605007AE07004A3E064076018901878E4F0A37A
:10A6150074C8F090187AE4F0A37407F090188F745A
:10A6250001F0901861E0B46508901860E06402607C
:10A63500119018617465F09018607402F090188F8D
:10A6450014F0E525700302A79690155EE0FEA3E0E1
:10A65500FF901868E06E7003A3E06F601590155EBB
:10A66500E0FFA3E0901868CFF0A3EFF090188F7487
:10A6750001F0901560E0FEA3E0FF90186AE06E70AF
:10A6850003A3E06F6015901560E0FFA3E090186AE2
:10A69500CFF0A3EFF090188F7401F0901562E0FEF3
:10A6A500A3E0FF90186CE06E7003A3E06F60159057
:10A6B5001562E0FFA3E090186CCFF0A3EFF09018BF
:10A6C5008F7401F0901564E0FEA3E0FF90186EE032
:10A6D5006E7003A3E06F6015901564E0FFA3E09032
:10A6E500186ECFF0A3EFF090188F7401F0901566F7
:10A6F500E0FEA3E0FF901870E06E7003A3E06F60CA
:10A7050015901566E0FFA3E0901870CFF0A3EFF069
:10A7150090188F7401F0901568E0FEA3E0FF901883
:10A7250072E06E7003A3E06F6015901568E0FFA3FB
:10A73500E0901872CFF0A3EFF090188F7401F090AD
:10A74500156AE0FEA3E0FF901874E06E7003A3E0C5
:10A755006F601590156AE0FFA3E0901874CFF0A321
:10A76500EFF090188F7401F090156CE0FEA3E0FFF8
:10A77500901876E06E7003A3E06F601590156CE09D
:10A78500FFA3E0901876CFF0A3EFF090188F740137
:10A79500F090188FE0601012EF957B017A18790F11
:10A7A5007D807C0012E3F47B017A15790512E92D91
:02A7B5007F0122
:01A7B700227F
:10EF9500AF84E4F5847880F608F6A2AF33FEC2AFFD
:10EFA50043B701758F0718E6FC08E6F5828C83E404
:0DEFB500F0F58F53B7FEEE24FF92AF8F846E
:01EFC200222C
:0AE3F4008B4D8A4E894F8C508D51DD
:10E3FE00858452E4F5847880F608F6A2AF33FFC226
:10E40E00AF43B701758F05E4F553F554C3E5549545
:10E41E0051E5506480F8E5536480985029784DE4B6
:10E42E0075F0011247EA124346FE78800806E61898
:10E43E00860470010614F5828C83EEF00554E554C3
:10E44E0070CA055380C6E4F58F53B7FEEF24FF92D2
:04E45E00AF855284B0
:01E462002297
:06E92D008B3C8A3D893E8F
:10E9330085843FE4F540F541F584A2AF33F542C247
:10E94300AF758F04E4FFFE0541E541AC407002055D
:10E953004014F5828C83E493FD783CE475F0011256
:10E9630047EAED1243BF0FBF00010EEF64804E7004
:0DE97300D6E4F58FE54224FF92AF853F8486
:01E980002274
:0BF1A80045726173696E6725356400D5
:0EDEAA008E5D8F5E8C5F8D608B618A628963F6
:0ADEB80012F0BBEF30E7F953F8FD5C
:10DEC200E4F568F5690569E569700205686440452D
:03DED2006870F283
:10DED500E55E6401455D70047F8480027F8712F1F1
:10DEE5006EE4FF12F16EE4FF12F16EE4FF12F16EC3
:10DEF500E4F566F567C3E5679560E55F6480F8E579
:10DF050066648098501DAB61AA62A96385678285A6
:10DF1500668312435FFF12F16E0567E56770D605EC
:10DF25006680D243F802AD65AC64AF5EAE5D02E0DB
:01DF3500C427
:08E0C4008E6A8F6B8C6C8D6D70
:10E0CC00901402E0FEA3E0FF12DB2A8F6E12F0BB6D
:07E0DC00EF30E7F953F8FDF6
:10E0E300E4F56FF5700570E5707002056F644045E7
:03E0F3006F70F259
:10E0F600E56E6010E56B6401456A70047F838012EB
:10E106007F86800EE56B6401456A70047F8280021B
:10E116007F8512F16EE56DAE6C7806CEA2E713CE62
:10E1260013D8F8FF12F16EAF6DEF25E025E0FF1270
:0AE13600F16EE4FF12F16E43F802EF
:01E1400022BC
:0CDFBD008E3C8F3D8C3E8D3F8A408B4196
:0ADFC90012F0BBEF30E7F953F8FD4A
:10DFD300E4F547F5480548E54870020547644045C0
:03DFE3004770F292
:10DFE600E53D6401453C70047F8480027F8712F121
:10DFF6006EE4FF12F16EE5405403FF12F16EAF417D
:10E00600E54112F16EE4F545F546C3E546953FE573
:10E016003E6480F8E545648098501DAB42AA43A94A
:10E026004485468285458312435FFF12F16E05469D
:0BE03600E54670D6054580D243F80295
:01E0410022BC
:08E4D1008E518F528C538D54C3
:0AE4D90012F0BBEF30E7F953F8FD35
:10E4E300E4F557F5580558E558700205576440455B
:03E4F3005770F26D
:10E4F600E5526401455170047F8480027F8712F1E2
:10E506006EE4FF12F16EE4FF12F16EE4FF12F16E9B
:10E51600E4F555F556C3E5569554E5536480F8E59C
:10E5260055648098500F7FFF12F16E0556E55670C0
:08E53600E4055580E043F80202
:01E53E0022BA
:03F0BB0053F8FD0A
:10F0BE00E4F57AF57B057BE57B7002057A644045C5
:03F0CE007A70F263
:0DF0D1007FD712F16EE4FF12F16E43F802DA
:01F0DE00220F
:0ADBC6008E5D8F5E8B5F8A608961BF
:0ADBD00012F0BBEF30E7F953F8FD47
:10DBDA00E4F566F5670567E5677002056664404522
:03DBEA006670F270
:10DBED007FD212F16EE563AE627806CEA2E713CE58
:10DBFD0013D8F8FF12F16EAF63EF25E025E0FF12A9
:10DC0D00F16EE4FF12F16EE4FF12F16EE4FF12F11A
:10DC1D006EE4FF12F16EE4FF12F16EE4F564F5654A
:10DC2D00C3E565955EE55D6480F8E56464809850B4
:10DC3D001FE4FF12F16EAB5FAA60A9618565828555
:10DC4D006483EF1243D10565E56570D4056480D01A
:03DC5D0043F80287
:01DC600022A1
:08DB2A008E718F728C738D74F3
:0DDB320075750112F0BBEF30E7F953F8FDF7
:10DB3F00E4F578F5790579E5797002057864404563
:03DB4F007870F2F9
:10DB52007FD212F16EE574AE737806CEA2E713CED1
:10DB620013D8F8FF12F16EAF74EF25E025E0FF1233
:10DB7200F16EE4FF12F16EE4FF12F16EE4FF12F1B6
:10DB82006EE4FF12F16EE4FF12F16EE4F576F577C2
:10DB9200C3E5779572E5716480F8E5766480985004
:10DBA2001DE4FF12F16EBFFF047F0180027F008F30
:10DBB20075EF600A0577E57770D6057680D243F86F
:03DBC20002AF753A
:01DBC500223D
:04EAC2008E528F538E
:0AEAC60012F0BBEF30E7F953F8FD42
:10EAD000E4F554F5550555E5557002055464404577
:03EAE0005470F27D
:10EAE3007F5012F16EE553AE527806CEC313CE13A8
:10EAF300D8F9FF12F16EAF53EF25E025E0FF12F1D5
:09EB03006EE4FF12F16E43F8020A
:01EB0C0022E6
:04EB0D008E528F5342
:0AEB110012F0BBEF30E7F953F8FDF6
:10EB1B00E4F554F5550555E555700205546440452B
:03EB2B005470F231
:10EB2E007F8112F16EE553AE527806CEC313CE132B
:10EB3E00D8F9FF12F16EAF53EF25E025E0FF12F189
:09EB4E006EE4FF12F16E43F802BF
:01EB5700229B
:0ADD8D008E4B8F4C8C4D8D4E8B4F4A
:10DD9700E54F6005E4FF12E042854B50854C51D3B7
:10DDA700E551954EE550954D506CE551540770552A
:10DDB700C3E54E9551FFE54D9550FEC3EF9408EE30
:08DDC70094004041E54F602982
:10DDCF007564FF7565F17566A88550678551687B29
:10DDDF00017A1A7977127A887B017A1A7977E4F5C2
:09DDEF005675572D7F0112D198E1
:10DDF800AF51AE5012EAC274072551F551E43550BF
:10DE0800F5508007AF51AE5012EB0D0551E551703A
:05DE18008D055080891A
:01DE1D0022E2
:06D0B2008B258A26892768
:09D0B80043F80143F80253F8FBB0
:10D0C100E4F52BF52C052CE52C7002052B6440456D
:03D0D1002B70F2CF
:03D0D40043F8041A
:10D0D700E4F52BF52C052CE52C7002052B64404557
:03D0E7002B70F2B9
:10D0EA0012F0BBEF543C1248BED10C0CD11614D12D
:10D0FA00201CD12A24D1452CD16034D17B3C00009C
:10D10A00D197AB25AA26A9277402801CAB25AA268B
:10D11A00A92774048012AB25AA26A92774088008B7
:10D12A00AB25AA26A927741075F000124557AB281B
:10D13A00AA29A92A740175F008804FAB25AA26A945
:10D14A0027741075F000124557AB28AA29A92A742A
:10D15A000275F0108034AB25AA26A927742075F031
:10D16A0000124557AB28AA29A92A740275F0108023
:10D17A0019AB25AA26A927742075F000124557ABCA
:0DD18A0028AA29A92A740475F0201245571F
:01D197002275
:10FE00008E3E8F3F8E3E8F3FE4F540F541A2AF33EB
:10FE1000F542C2AFE4F58443B701758F03C3E540F3
:10FE200094FC50168541828540837488F0E4254116
:10FE3000F54174043540F54080E3E4F58FF540F575
:10FE400041F545F54675840F12FFA98F47E5473008
:10FE5000E7F653F8FDE4F548F5490549E549700230
:10FE600005486440454870F27FD212FF98E546AEDF
:10FE7000457806CEC313CE13D8F9FF12FF9812FFB0
:10FE800090E4FF12FF98E4FF12FF98E4FF12FF983E
:10FE9000E4FF12FF98E4FF12FF98E4F543F544E411
:10FEA000FF12FF98749A2544F58274013543F58357
:10FEB000EFF00544E54470020543C3E54394024076
:10FEC000DE43F802E4F584758F01F543F544749A36
:10FED0002544F58274013543F583E0FF0541E54192
:10FEE000AC407002054014F5828C83EFF00544E5C8
:10FEF0004470020543B400D6E543B402D1E4F58F63
:10FF00000546E54670020545C3947FE545940050DB
:0AFF10000302FE45E4F58F53B7FE2F
:10FF1A00E54224FF92AFE4F5D075840FF545F54626
:10FF2A00C3E5459420504E12FFA98F47E54730E7B5
:10FF3A00F653F8FDE4F548F5490549E54970020527
:10FF4A00486440454870F27F5012FF98E546AE4536
:10FF5A007806CEC313CE13D8F9FF12FF9812FF907A
:10FF6A00E4FF12FF9843F80274082546F546E43583
:10FF7A0045F54580AB12FFA98F47E54730E7F6E420
:06FF8A00F58443EF0122A3
:10FF9000AF46EF25E025E0FFAE84E4F5848F9B308B
:09FFA000FFFDC2FFAF9B8E84221D
:10FFA90053F8FDE4F54AF54B054BE54B7002054A5C
:10FFB9006440454A70F27FD712FF98E4FF12FF9818
:04FFC90043F80222D5
:10DCFA00505752204C4F535400447269766500487D
:10DD0A004447202020202054494D4520202020200F
:10DD1A004D504800484447202020202054494D4572
:10DD2A0020202020204B5048004869742053454C3D
:10DD3A004543542061742046696E697368002A203D
:10DD4A0046696E697368204C696E65205365742054
:10DD5A002A005820252B322E3266205920252B32B4
:10DD6A002E3266002535642000202D2D2D2D200011
:10DD7A0025633A25312E3166200025633A25312E56
:03DD8A00316600FF
:10B08A0090142D74E3F090042EE493FFAB26AA27C4
:10B09A00A92890000112435FFDE4F55BF55C7B068D
:04B0AA008F588B5AD6
:10B0AE00755DFFE4F55EF55FED90042E93F560742B
:10B0BE00012DF582E43415F5837464F090042EE4CA
:10B0CE0093B55819E55A64066013E55A6415600D78
:10B0DE0074102DF582E43414F583E55AF0E56075AD
:10B0EE00F012A4249BF582E43404F5831248037411
:10B0FE00161243BFE56075F012A4249BF582E4346A
:10B10E0004F583124803900001E5581243D1E5601F
:10B11E0075F012A4249BF582E43404F583124803DF
:10B12E00900002ED1243D17402255CF55CE4355BB0
:10B13E00F55BFFE56075F012A4249BF582E4340400
:10B14E00F583124803900003EF1243D1E56075F0CA
:10B15E0012A4249BF582E43404F583124803900074
:10B16E0004E55C1243D1E56075F012A4249BF582D0
:10B17E00E43404F583124803900005E55A1243D1D6
:10B18E00E4FEFFE56075F012A4249BF582E434041E
:10B19E00F5831248038F828E8312435F625D0FBF69
:10B1AE0000010EEF64064E70DAE56075F012A4240D
:10B1BE009BF582E43404F583124803900006E55DA6
:10B1CE001243D174FE255CF55C74FF355BF55BE5CF
:10B1DE006075F012A4249BF582E43404F5831248C2
:10B1EE0003E92407F9E43AFAAD5CAC5B12E66A8E29
:10B1FE005E8F5FEEFFE56075F012A4249BF582E48E
:10B20E003404F583124803055CE55C7002055B248B
:10B21E0006F582E4355BF583EF1243D1E56075F0F8
:10B22E0012A4249BF582E43404F583124803055CD2
:10B23E00E55C7002055B2406F582E4355BF583E57B
:10B24E005F1243D1E56075F012A4248FF9740435B2
:10B25E00F0FA7B01E55C2407FDE4355BFC12E71F89
:09B26E00E55C2407FFE4355BFEFA
:01B2770022B4
:0826A2008F258B268A27892869
:1026AA00E4901845F0A3F090000312435FFE9000F7
:1026BA000412435F7C002400FFEC3ECF24FECF349B
:1026CA00FFFE901847F0FCA3EFF0FDE92407F9E4B8
:1026DA003AFA12EBA2901845EEF0A3EFF04E603AE8
:1026EA00AB26AA27A92890000512435FFF6415703C
:1026FA0003023C7DEF64067003023C7D90000112E8
:10270A00435F2401F582E43415F5837464F0900084
:0A271A000112435FFF7D04022B262D
:10272400AB26AA27A92890000212435FFF90042E2B
:10273400E4936F70030227DEEFF470030227DEEFE9
:1027440093FF3395E0FE90049B75F012EF1247D58A
:10275400EE75F012A42583F583124803E92407F9E2
:10276400E43A8B2EF52F8930E5282407F9E4352740
:1027740085262BF52C892DE4F529F52AD3901848C4
:10278400E0952A901847E095294024782BE475F0C9
:10279400011247EA124346FF782EE475F00112470E
:1027A400EAEF1243BF052AE52A70D1052980CDAB93
:1027B40026AA27A92890000112435FFF9000021265
:1027C400435FFD90000512435FFB901847E0F55B03
:1027D400A3E0F55C12B0AA023C7DAB26AA27A92887
:1027E40090000512435F1248BE282D062889102840
:1027F40072152DBD2231DF272B65302B8F342A70C3
:10280400402ACE412ACE422C10502C645129AB7060
:102814002A0F712D827228B6902D53913531922B47
:10282400959329459800003C4990000112435F2488
:1028340010F582E43414F583E02490701CE9240735
:10284400F9E43AFAC002C00178057C157D01D00193
:10285400D0027E007F80124320AB26AA27A92890AD
:10286400000112435F2410F582E434148010AB2677
:10287400AA27A9281243462411F582E43414F583C7
:10288400E4F0022DA990142DE0FFC394044006EF58
:10289400D3941D4004EFB4E30512EA73800312B02D
:1028A40090901845EEF0A3EFF0AB26AA27A92802D2
:0228B4002DA94C
:1028B60090142DE0FFC394044006EFD3941D40040A
:1028C600EFB4E30512EA738065AB26AA27A9289020
:1028D600000712435FFE90000812435F7C0024004D
:1028E600F532EC3EF531E52575F012A4249BF58210
:1028F600E43404F583124803E92407F9E43AFA902C
:102906001402E0FEA3E0FF85316285326312DBC666
:1029160090042EE493FFAB26AA27A9289000011263
:10292600435FFD901402E0F55BA3E012B0A6901899
:0F29360045EEF0A3EFF0AB26AA27A928022DA9A2
:1029450090142DE0FFC394044006EFD3941D40047A
:10295500EFB4E30512EA73803CAB26AA27A92890B9
:10296500000712435FFE90000812435F7C002400BD
:10297500F532EC3EF531901402E0FCA3E0FDE924CC
:1029850009F9E43AFA8531648532657F027E0012E1
:10299500DEAA12B090901845EEF0A3EFF0AB26AA90
:0629A50027A928022DA95C
:1029AB0090142DE0FFC394044006EFD3941D400414
:1029BB00EFB4E30512EA73803AE52575F012A4240F
:1029CB009BF582E43404F583124803E92407F9E408
:1029DB003AFA12E92D90042EE493FFAB26AA27A90D
:1029EB002890000112435FFD755B00755C807B06D0
:1029FB0012B0AA901845EEF0A3EFF0AB26AA27A9C8
:102A0B0028022DA990142DE0FFC394044006EFD3A8
:102A1B00941D4004EFB4E30512EA73803712EF956F
:102A2B00AB26E5282407F9E43527FA901847E0FE92
:102A3B00A3E0FFC39480EE94005006AC06AD078074
:102A4B00047C007D8012E3F47B017A15790512E991
:102A5B002D12B090901845EEF0A3EFF0AB26AA27FD
:052A6B00A928022DA9BD
:102A700090142DE0FFF531AB26AA27A9289000017C
:102A800012435F2401F582E43415F583E4F0EFC3CB
:102A90009404400990142DE0D3941D400790142D08
:102AA000E0B4E30C90000112435FFF7D20022B266F
:102AB00012B08A901845EEF0A3EFF0AB26AA27A932
:0E2AC0002890000712435FFF12BF29022B5C13
:102ACE0090142DE0FFF531AB26AA27A9289000051A
:102ADE0012435F7C00B441047D0080027D058C3280
:102AEE008D3390000112435F2401F582E43415F515
:102AFE0083E4F0EFC39404400990142DE0D3941DA9
:102B0E00400790142DE0B4E31DAB26AA27A9289008
:102B1E00000112435FFF7D2012EA82901845EEF00D
:102B2E00A3EFF0023C7D12B08A901845EEF0A3EFB1
:102B3E00F0E4FFFE12EB0D901429E024FFFD90143B
:102B4E0028E034FFFCE4FBAF33AE3212DD8D90147F
:072B5E002DE531F0023C7D82
:102B6500AB26AA27A92890000112435F2401F5820C
:102B7500E43415F583E4F012F0BB8F31E53130E72D
:0A2B8500F6E4F58443EF01023C7D05
:062B8F001291AC023C7D36
:102B950053F8DF53F8BF7BFF7ADC79FA12F1019025
:102BA500142DE0FFC39404401EEFD39419501890E0
:102BB500000EE0FF90142BE0FCA3E0FD90048DE0F7
:102BC500FAA3E0FB12C83890142DE0B4040312EF09
:0B2BD500EF12F0BB8F31E53130E7F666
:102BE000E4F55BF55C7B937D027F0312B0AAE4F50C
:102BF00032F533AE32AF33E4FCFD7B407A9CF9F81A
:102C0000D31246E940DA0533E53370E7053280E355
:102C100090142DE064F07029753F017540007541F6
:102C20000EAB26AA27A92812D7D112B0909018452A
:102C3000EEF0A3EFF090142BE475F00112449080B5
:102C40001AAB26AA27A92890000112435FFF7D082E
:102C500012EA82901845EEF0A3EFF0AB26AA27A95E
:102C600028022DA990142DE0B4F114AB26AA27A9AF
:102C70002890000712435FFF90000EE06F6072AB78
:102C800026AA27A92890000112435FFF7D0812EAB7
:102C900082901845EEF0A3EFF0AB26AA27A9289062
:102CA000000112435F2401F582E43415F583E4F05A
:102CB00090180F1247A40000AFC8E4FFFEFDFC907F
:102CC000180F12477CD31246E9401790180F12478D
:102CD0006074FFFBFAF9F81245A390180F12479899
:022CE00080D89A
:102CE20090069674F2F09015957401F0023C7D12F4
:102CF200B090901845EEF0A3EFF0AB26AA27A928D2
:102D020090000112435F2401F582E43415F583E457
:012D1200F0D0
:102D13009018131247A40000AFC8E4FFFEFDFC9017
:102D2300181312477CD31246E94017901813124721
:102D33006074FFFBFAF9F81245A390181312479831
:022D430080D836
:102D450090142BE0FEA3E0FF12EDFB023C7D9015F5
:102D5500957401F0AB26AA27A92890000712435FB6
:102D6500900696F090042EE493FF12B09C901845BF
:102D7500EEF0A3EFF0AB26AA27A9288027AB26E51E
:102D8500282407F9E43527FA75400175412D7F039D
:102D950012CFCC12B090901845EEF0A3EFF0AB2611
:102DA500AA27A92890000112435F2401F582E43483
:082DB50015F583E4F0023C7DFA
:102DBD0012B090901845EEF0A3EFF0AB26AA27A91C
:102DCD002890000112435F2401F582E43415F58348
:102DDD00E4F090000712435F9015A4F0E92408F980
:102DED00E43AFAC0019004C3E0FEA3E0FF7C007D4D
:102DFD00331243F3749A2FF974013EA801FC7D013F
:102E0D00D0017E007F151243209015A4E0FF7003C2
:102E1D00022FFD7003022EA874FFFFFEFDFC900132
:102E2D006F12477CC31246FF70719004C3E0FEA37E
:102E3D00E090019A75F0331247D5EE75F033A42565
:102E4D0083F583124760E4FBFAF9F8C31246FF607D
:102E5D004A9004C3E0FEA3E090019A75F033124747
:102E6D00D5EE75F033A42583F58312476074FFFB0F
:102E7D00FAF9F8C31246FF60229004C3E0FEA3E006
:102E8D0090019A75F0331247D5EE75F033A4258372
:102E9D00F58312476090016F1247989015A4E0607A
:102EAD00719004C3E0FEA3E090019A75F0331247D0
:102EBD00D5EE75F033A42583F583124760E4FBFA54
:102ECD00F9F8C31246FF604A9004C3E0FEA3E090F8
:102EDD00019A75F0331247D5EE75F033A42583F5BD
:102EED008312476074FFFBFAF9F8C31246FF6022A4
:102EFD009004C3E0FEA3E090019A75F0331247D51C
:102F0D00EE75F033A42583F58312476090018D1281
:102F1D0047989015A4E0FF6070900134E0F47003C1
:102F2D00A3E0F470649004C3E0FCA3E0FD90019E67
:102F3D0075F0331247D5EC75F033A42583F583E096
:102F4D00FAA3E04A604390019E75F033ED1247D528
:102F5D00EC75F033A42583F583E0FCA3E0F4700257
:102F6D00ECF460259004C3E0FCA3E090019E75F0A5
:102F7D00331247D5EC75F033A42583F583E0FDA31B
:102F8D00E0900134CDF0A3EDF0EF60649004C3E068
:102F9D00FEA3E0FF90019E75F0331247D5EE75F05C
:102FAD0033A42583F583E0FCA3E04C604390019EA0
:102FBD0075F033EF1247D5EE75F033A42583F58305
:102FCD00E0FEA3E0F47002EEF460259004C3E0FE91
:102FDD00A3E090019E75F0331247D5EE75F033A442
:102FED002583F583E0FFA3E0900136CFF0A3EFF04A
:102FFD0090142DE01248BE30440430B205317307F1
:10300D0031440830640B312D0C313E0D31220E311F
:10301D00220F31221031221131221231221331733C
:10302D0016317317318E19315C1A30641B30B21C96
:10303D00313E1D000031D9AB26E5282408F9E435D1
:10304D0027FA7F02124A0990048CE060030231D9FD
:10305D00FF1200260231D99015A4E0C3940350034A
:03306D000231D954
:10307000753101AB26E5282408F9E43527FA9001DB
:1030800091E0FCA3E0FD7541017542187543178579
:103090003144128E347B017A187917E4F54075417A
:1030A0002DAF3112CFCC0531E531D3940340C402AA
:0230B00031D914
:1030B2009015A4E0C394034062E4FF12E0427562FB
:1030C200007563077564FF75650A7566CB75672DB4
:1030D2007B7A7A00E4FDFCFFFE129B4C7BFF7ADDDB
:1030E200790375532D7D2DE4FF12D354901575E0AD
:1030F2007BFF30E0067ADD790980047ADD791EE40F
:10310200F54075412D7F0312CFCCAB26E52824086C
:10311200F9E43527FA129E050231D97BFF0231D03C
:1031220090142DE0FF1282FD0231D9AB26E528244E
:1031320008F9E43527FA12A7B80231D912AC6B02AA
:1031420031D99015A4E0C394037BFF400B7A0F7929
:10315200157D2D12D71A806480749015A4E0C39453
:10316200037BFF40067A17795780677A0B7945808F
:1031720061AB26E5282408F9E43527FA7F02128696
:10318200C4EF605390142D7418F0804B9015A4E096
:10319200C394037BFF40377A0D792D7D2D12D71A08
:1031A200900416E075F010A4241BF9740535F0FAAA
:1031B2007B0175532D7D017F0312D354AB26E52885
:1031C2002408F9E43527FA7F04124A0980097A0BA8
:0D31D20079457D2D12D71A12F14A023C7D7D
:1031DF0012B090901845EEF0A3EFF0AB26AA27A9F6
:1031EF002890000112435F2401F582E43415F58322
:1031FF00E4F090000812435FFE90000912435F7CD9
:10320F00002400FFEC3E9004C1F0A3EFF09006B352
:10321F00E06011E4F0900191F0A3F09004C3F0A3EB
:10322F00F002352A90142DE0FFC3940450030235A9
:10323F002AEFD39419400302352A900191E0FEA39F
:10324F00E0FFC3940AEE64809480400302348EEF53
:10325F004E600302333A901560E0540FFD90155EF7
:10326F00E0540FC4F854F0C8E4C4540F482DFF9035
:10327F0004C3E0FCA3E09001AF75F0331247D5EC27
:10328F0075F033A42583F583C083C082900191E04C
:10329F00FCA3E0D082D08375F0031247D5EC75F014
:1032AF0003A42583F583EFF090155EE0A3E0FF9074
:1032BF0004C3E0FCA3E09001B075F0331247D5ECE6
:1032CF0075F033A42583F583C083C082900191E00C
:1032DF00FCA3E0D082D08375F0031247D5EC75F0D4
:1032EF0003A42583F583EFF0901560E0A3E0FF9032
:1032FF0004C3E0FCA3E09001B175F0331247D5ECA5
:10330F0075F033A42583F583C083C082900191E0CB
:10331F00FCA3E0D082D08375F0031247D5EC75F093
:10332F0003A42583F583EFF00234819004C3E0FEFC
:10333F00A3E0FF9001AC75F0331247D5EE75F03373
:10334F00A42583F583C083C082900191E0FCA3E0A4
:10335F00D082D08375F0031247D5EC75F003A42506
:10336F0083F583E0FD9001AF75F033EF1247D5EE93
:10337F0075F033A42583F583C083C082900191E05B
:10338F00FEA3E0D082D08375F0031247D5EE75F01F
:10339F0003A42583F583EDF09004C3E0FEA3E0FFC3
:1033AF009001AD75F0331247D5EE75F033A4258338
:1033BF00F583C083C082900191E0FCA3E0D082D05E
:1033CF008375F0031247D5EC75F003A42583F583BD
:1033DF00E0FD9001B075F033EF1247D5EE75F03385
:1033EF00A42583F583C083C082900191E0FEA3E002
:1033FF00D082D08375F0031247D5EE75F003A42564
:10340F0083F583EDF09004C3E0FEA3E0FF9001AEDF
:10341F0075F0331247D5EE75F033A42583F583C0CD
:10342F0083C082900191E0FCA3E0D082D08375F03D
:10343F00031247D5EC75F003A42583F583E0FD90C7
:10344F0001B175F033EF1247D5EE75F033A4258334
:10345F00F583C083C082900191E0FEA3E0D082D0BB
:10346F008375F0031247D5EE75F003A42583F5831A
:10347F00EDF0900191E475F001124490023249C3CE
:10348F009004C4E094099004C3E0648094805003D6
:10349F00023520901402E0FCA3E0FD7B017A017954
:1034AF009A90142BE0F564A3E0F5657F027E00127D
:1034BF00DEAA90142BE475F001124490E4F531F577
:1034CF0032749A2532F58274013531F583E4F005B3
:1034DF0032E53270020531B410E7E531B402E2E4AF
:1034EF009004C3F0A3F090048EE024FFFF90048DAE
:1034FF00E034FFFEC390142CE09F90142BE09E400D
:10350F001A74FFF5F01244907D037F0112668680D6
:10351F000A9004C3E475F001124490E49001910203
:02352F003C7AE4
:1035310012B090901845EEF0A3EFF0AB26AA27A9A0
:103541002890000112435F2401F582E43415F583CC
:10355100E4F0C3900192E0940A900191E0648094B8
:10356100804006E4F0A37409F090000712435FFF66
:103571009004C3E0FCA3E09001AF75F0331247D58E
:10358100EC75F033A42583F583C083C0829001914B
:10359100E0FCA3E0D082D08375F0031247D5EC752F
:1035A100F003A42583F583EFF0AB26AA27A9289081
:1035B100000812435FFF9004C3E0FCA3E09001B058
:1035C10075F0331247D5EC75F033A42583F583C02C
:1035D10083C082900191E0FCA3E0D082D08375F09A
:1035E100031247D5EC75F003A42583F583EFF09022
:1035F100000912435FFF9004C3E0FCA3E09001B116
:1036010075F0331247D5EC75F033A42583F583C0EB
:1036110083C082900191E0FCA3E0D082D08375F059
:10362100031247D5EC75F003A42583F583EFF090E1
:10363100142DE024F9601524F060112413701B7B14
:10364100007A007900E4FF124A09800B7B007A00BE
:103651007900E4FF1286C412985BE4F531AF31EFD3
:103661003395E0FE740A2FF582E43EF583AB26AA7A
:1036710027A92812435FFFE531FD3395E0FC74145F
:103681002DF58274143CF583EFF00531E531B40773
:10369100CCAB26AA27A92890000A12435FF4540153
:1036A100900033F0700302378C90142DE0FFC39427
:1036B10004500302378CEFD39419400302378C90E6
:1036C10006B3E0600302378C753106AF319004C058
:1036D100E0FEA807088002C313D8FC20E0030237EC
:1036E1007EAF31EF3395E0FEE5282410F9E435276C
:1036F100FAC3E99FF9EA9E852642F5438944900081
:103701001CE0FAA3E0FB7D017C007F017E0012DF5B
:10371100BD90001CE07002A3E0600C90001C74FFDF
:10372100F5F0124490805690048EE024FFFF90043F
:103731008DE034FFFEC390142CE09F90142BE09E8B
:1037410040097D037F01126686803290048DE0FC82
:10375100A3E0FD7F017E0012E0C490048D74FFF5AB
:10376100F012449090001C7402F0A3740FF09014B6
:1037710002E0FCA3E0FD7F017E0012E4D11531C31C
:10378100E5316480948040030236CC90142DE0240E
:10379100EC601224FE70030238E824FB6007241059
:0537A1006003023C3D45
:1037A6009004C3E0FCA3E0FD9001AF75F03312472F
:1037B600D5EC75F033A42583F583C083C0829001D0
:1037C60091E0FEA3E0D082D08375F0031247D5EED8
:1037D60075F003A42583F583E0540F753300F532A5
:1037E6009001B175F033ED1247D5EC75F033A42591
:1037F60083F583C083C082900191A3E0D082D083F9
:1038060075F0031247D5EE75F003A42583F583E022
:103816002533F533E43532F532901560E0FCA3E04C
:10382600FDE4123FA7C004C005C006C007AC32AD18
:1038360033E4123FA7D003D002D001D000123C8956
:103846008F3B8E3A8D398C38E4FFFEFDFCAB3BAAEC
:103856003AA939A838123F24901844502C744CF0D9
:10386600AF3BAE3AAD39AC38C004C005C006C007A0
:10387600901566E0FCA3E0FDE4123FA7C004C00576
:10388600C006C007901560802A7452F0AF3BAE3A6E
:10389600AD39AC38C004C005C006C007901560E05D
:1038A600FCA3E0FDE4123FA7C004C005C006C007A4
:1038B600901568E0FCA3E0FDE4123FA7D003D00218
:1038C600D001D000123C89A804A905AA06AB07D0EE
:1038D60007D006D005D004123E878F3B8E3A8D392D
:1038E6008C389004C3E0FCA3E0FD9001AF75F03383
:1038F6001247D5EC75F033A42583F583C083C082C7
:10390600900191E0FEA3E0D082D08375F0031247C8
:10391600D5EE75F003A42583F583E054F075F01019
:10392600A4F53385F0329001B075F033ED1247D52A
:10393600EC75F033A42583F583C083C08290019192
:10394600A3E0D082D08375F0031247D5EE75F0035D
:10395600A42583F583E02533F533E43532F532903B
:10396600155EE0FCA3E0FDE4123FA7C004C005C05D
:1039760006C007AC32AD33E4123FA7D003D002D065
:1039860001D000123C898F378E368D358C34E4FF9A
:10399600FEFDFCAB37AA36A935A834123F24901891
:1039A60043502C7441F0AF37AE36AD35AC34C0045D
:1039B600C005C006C007901562E0FCA3E0FDE41256
:1039C6003FA7C004C005C006C00790155E802A74D4
:1039D60042F0AF37AE36AD35AC34C004C005C006D4
:1039E600C00790155EE0FCA3E0FDE4123FA7C0040B
:1039F600C005C006C007901564E0FCA3E0FDE41214
:103A06003FA7D003D002D001D000123C89A804A958
:103A160005AA06AB07D007D006D005D004123E870C
:103A26008F378E368D358C3490142DE024F5700347
:103A3600023B0724F77003023B8B24F97003023B19
:103A46000724056003023C3D7F337E337DB37CBE95
:103A5600AB37AA36A935A834123F244003023C3DB1
:103A660078207C047D017B017A04795F7E007F15D6
:103A76001243209004171247A400000000E4FF122E
:103A8600E04275620075630E7564FF7565127566B2
:103A9600E575672D7B517A007D047C007F157E00DD
:103AA600129B4C90043B124760EC4D4E4F702A908F
:103AB600043F124760EC4D4E4F701E90142D740754
:103AC600F07BFF7ADD793375532D7D017F0312D3A9
:103AD600547BFF7AC97996801C90142D7417F07B5D
:103AE600FF7ADD794875532D7D047F0312D3547B0D
:103AF600007A00790090143C12480C12985B023C44
:103B06003D7564FF7565DD75665C85376A85366962
:103B1600853568853467853B6E853A6D85396C8554
:103B2600386B7B017A18792D127A889015A4E07B80
:103B3600017A18792D601812F122742D2FF9741854
:103B46003EFA7B017564FF7565DD75666E8016123B
:103B5600F122742D2FF974183EFA7B017564FF75F6
:103B660065DD7566739004C1E0F567A3E0F568123C
:103B76007A887B017A18792DE4F54075412DFF127C
:103B8600CFCC023C3DE4FFFEFDFCAB37AA36A9359F
:103B9600A834123F245013AF37AE36AD35AC3412CD
:103BA6003F918F378E368D358C34E4FFFEFDFCABAE
:103BB6003BAA3AA939A838123F245013AF3BAE3A74
:103BC600AD39AC38123F918F3B8E3A8D398C3875B2
:103BD60064FF7565DD75667A901843E0F56785378D
:103BE6006B85366A8535698534687B017A18792D47
:103BF600127A887B017A18792D75552D7D037F02FF
:103C060012D6617564FF7565DD756684901844E0AB
:103C1600F567853B6B853A6A8539698538687B0126
:103C26007A18792D127A887B017A18792D75552D97
:073C36007D457F0212D661FB
:0C3C3D00900191E475F001124490803475
:103C4900AB26AA27A92890000112435F2401F58217
:103C5900E43415F5837464F090000112435FFF7D2D
:103C69000212EA82901845EEF0A3EFF074FF901863
:043C790045F0A3F07F
:083C7D00901845E0FEA3E0FFF2
:013C8500221C
:0AEBA2008B3C8A3D893E8C3F8D407C
:10EBAC0012E66A8E418F42AB3CAA3DA93E8540825B
:10EBBC00853F8312435F7F00FEE5402401FDE43571
:10EBCC003F8D82F58312435F2FFFE43EFEE542B595
:0FEBDC000709E541B50604E4FEFF227EFF7FFF37
:01EBEB002207
:0FEA7300AB26AA27A92890000112435FFF7D2040
:10EA8200AE07EE90042E93FB3395E0FA90049B754B
:10EA9200F012EB1247D5EA75F012A42583F5831222
:10EAA2004803900007ED1243D190042EE493FFAD8A
:10EAB20006755B00755C017B1512B0AAE4FEFF22AD
:06D7D1008B3C8A3D893EFD
:10D7D700E4F542F54390000312435FFE9000041204
:10D7E700435FFDEEF544EDF545E4F542F543E545C8
:10D7F70024FEFFE54434FFFEC36480948250028018
:10D80700047E027F00C3E5439FEE6480F8E542642F
:10D8170080985048AB3FAA40A941C003C002C0014D
:10D82700124346FFAB3CAA3DA93EE5432407FDE46E
:10D8370035428D82F58312435FFE749A2543F58244
:10D8470074013542F583EEF06FD001D002D0031298
:10D8570043BF0543E5437096054280927E009014CE
:10D867002CE05401FF901402E0FCA3E0FD7B017A59
:10D8770001799A90142BE0F564A3E0F56502DEAA1E
:04EDFB008E3C8F3D7E
:10EDFF0090FE00E493FE740193FF90184CEEF0A385
:10EE0F00EFF0BE8012BFFE0F7B007AFE79029018E2
:10EE1F004912480C0248E490142BE0FEA3E0FF12C5
:02EE2F00FE00E3
:01EE310022BE
:10E53F0025730044617461666C6173682054657360
:10E54F0074002A2A2A2A2A2A20466C6173682057C7
:10E55F0072697465204641494C4544202A2A2A2A6B
:10E56F002A2A2C20706167652025642C206279741B
:10E57F0065256400466C617368206F6B207061675E
:10E58F00652025640044617461666C61736854652D
:0DE59F00737420436F6D706C6574652E0001
:1091AC0085843CE4F53DF53EF54190042F93FF3367
:1091BC0095E0FE90049B75F012EF1247D5EE75F01A
:1091CC0012A42583F583124803E92407F9E43AFA3B
:1091DC007564FF7565E575663F7567FF7568E575C0
:1091EC006942127A8890042FE493FF3395E0FE9045
:1091FC00049B75F012EF1247D5EE75F012A425837F
:10920C00F583124803E92407F9E43AFA12F122EF44
:10921C002401F55CE43EF55B90042EE493FF7B7334
:10922C007D0112B0AAE490050FF0A3F0F53FF540D4
:10923C00D3901403E09540901402E0953F4023AE88
:10924C003FAF407C017D0012445A749A2540F58250
:10925C007401353FF583EDF00540E5407002053FA4
:10926C0080CE75840FE5D830E119C3900510E094D9
:10927C000990050FE09400400302945EE490050F02
:10928C00F0A3F0901402E0FCA3E0FD7B017A0179DD
:10929C009A853D64853E65E4FFFE12DEAA901402B9
:1092AC00E0FEA3E0FF7B017A01799A853D62853E61
:1092BC006312DBC6E4F53FF540D3901403E0954010
:1092CC00901402E0953F402DAE3FAF407C017D00F5
:1092DC0012445A749A2540F5827401353FF583E0A7
:1092EC006D7001EC6005754101800A0540E5407028
:1092FC0002053F80C4E541700302938A90042FE479
:10930C0093FF3395E0FE90049B75F012EF1247D556
:10931C00EE75F012A42583F583124803E92407F9AE
:10932C00E43AFA7564FF7565E5756651853D6785A8
:10933C003E68853F6985406A127A8890042FE493D1
:10934C00FF3395E0FE90049B75F012EF1247D5EEBB
:10935C0075F012A42583F583124803E92407F9E478
:10936C003AFA12F122EF2401F55CE43EF55B90042D
:0E937C002EE493FF7B737D0112B0AA02945E73
:10938A009018491247A4000107ACE4FFFEFDFC90C7
:10939A00184912477CD31246E940179018491247D8
:1093AA006074FFFBFAF9F81245A39018491247981E
:0293BA0080D859
:1093BC0090042FE493FF3395E0FE90049B75F0121C
:1093CC00EF1247D5EE75F012A42583F583124803EE
:1093DC00E92407F9E43AFA7564FF7565E575668367
:1093EC00853D67853E68127A8890042FE493FF339D
:1093FC0095E0FE90049B75F012EF1247D5EE75F0D8
:10940C0012A42583F583124803E92407F9E43AFAF8
:10941C0012F122EF2401F55CE43EF55B90042EE49E
:10942C0093FF7B737D0112B0AAAF3EAE3D12EB0DE4
:10943C00D3901429E0953E901428E0953D5008E413
:10944C00F53DF53E02926E053EE53E7002053D028D
:09945C00926EE490050FF0A3F0FC
:1094650090184D1247A4000107ACE4FFFEFDFC90E7
:10947500184D12477CD31246E9401790184D1247F4
:109485006074FFFBFAF9F81245A390184D1247983E
:0294950080D87D
:1094970090042FE493FF3395E0FE90049B75F01240
:1094A700EF1247D5EE75F012A42583F58312480312
:1094B700E92407F9E43AFA7564FF7565E575663FCF
:1094C7007567FF7568E5756994127A8890042FE4CB
:1094D70093FF3395E0FE90049B75F012EF1247D58A
:1094E700EE75F012A42583F583124803E92407F9E2
:1094F700E43AFA12F122EF2401F55CE43EF55B90C1
:0F950700042EE493FF7B737D0112B0AA853C8490
:019516002232
:02FDFE0080FE85
:103C860002404CE86480F8E933E83360110460F0E0
:103C9600ED33EC337009E8FCE9FDEAFEEBFF2204A4
:103CA60060DED3EB9FEA9EE99DE8C2E78CF0C2F79F
:103CB60095F0400CE8CCF8E9CDF9EACEFAEBCFFB6B
:103CC60012401785D0F05804700320D5B3E804706D
:103CD600075002B2D502405692D5EC0460F7E4CC08
:103CE600C0E0C398F8603B94186008400DD0E0FB34
:103CF60002402EE4FBFAC9FC8028E830E406E4C959
:103D0600FBE4CAFCE830E305E4C9CACBFCE8540787
:103D16006010F8C3E913F9EA13FAEB13FBEC13FC92
:103D2600D8F130F52FC3E49CFCEF9BFFEE9AFEED35
:103D360099FDD0E0FBEF4E4D4C701222DB030240A2
:103D460053EC2CFCEF33FFEE33FEED33FDED30E7A5
:103D5600EB02402EEF2BFFEE3AFEED39FDD0E0FBF5
:103D660050130BBB0003024056ED13FDEE13FEEF9E
:083D760013FFEC13FC02402EC8
:103D7E00EC4D6011E8497017ED33EC3304600DE43F
:103D8E00FCFFFEFD22E933E8330470F802404C12CA
:103D9E00401758046009E4CC2481500628500902CB
:103DAE004056284003024053C0E0EB4A7044B980AD
:103DBE0006D0E0FB024042EF4E701CBD8008EBFFC8
:103DCE00EAFEE9FD80EBE98DF0A4FEE5F0023E6728
:103DDE00E9CDF9EAFEEBFFEF89F0A4FCE5F0CE8920
:103DEE00F0A42EFFE435F0CD89F0A42DFEE435F0DD
:103DFE008067EF4E7005BD80D780C3EF8BF0A4AC0B
:103E0E00F0EE8BF0A42CFCE435F0F8EF8AF0A42C45
:103E1E00E5F038FCE433CB8DF0A42CFCE5F03BF858
:103E2E00EE8AF0A42CFCE5F038F8E433CF89F0A448
:103E3E002CFCE5F038CF3400CE89F0A42FFFE5F04E
:103E4E003EFEE433C98DF0A42EFEE5F039CD8AF0A6
:103E5E00A42FFFE5F03EFEE43DFD33D0E0FB50071E
:103E6E000BBB000F024056EC2CFCEF33FFEE33FE83
:063E7E00ED33FD02402EB1
:103E8400024056EC5D046005E85904700302404C9E
:103E9400124017580460F6EC4860F2EC7004FDFE22
:103EA400FF22C860DB2481C85009C3986002500611
:103EB4000240539850CAF582E9294B4A7005AB82F7
:103EC40002404275F0007C1A7880C3EF9BEE9AEDB5
:103ED40099400DC3EF9BFFEE9AFEED99FDE842F089
:103EE400DC23ACF0D0E0FFD0E0FED0E0FDAB8220DC
:103EF400E7101BEB60BAEC2CFCEF33FFEE33FEED66
:103F040033FD02402EE803F830E705C0F075F000F9
:103F1400EF2FFFEE33FEED33FD40B830E7C280AA49
:103F240074F8CC6480CCC86480C8F582046043C350
:103F3400EB9FF5F0EA9E42F0E99D42F0E89C45F0E3
:103F440060305018E5825FFFE582F42B5582FB5008
:103F5400210ABA001D09B90019088016E5825BFB25
:103F6400E582F42F5582FF50090EBE00050DBD00F9
:103F7400010CC3EB9FF5F0EA9E42F0E99D42F0E8A4
:0D3F84009C45F06007CC4820E701B3EC221B
:103F9100ED33EC33600A047003BD8004ECB2E7FC3E
:013FA10022FD
:103FA20075F020800E75F010800575F0087D007E9A
:103FB200007F003392D530D5031246DBEC3340103C
:103FC200EF33FFEE33FEED33FDEC33FCD5F0ED22A3
:0E3FD200E5F0247EA2D513CC92E7CDCEFF22DF
:103FE000EDD2E7CD33EC3392D524814006E4FFFED9
:103FF000FDFC22FCE4CFCECDCC24E0501174FF8038
:10400000EDC3CC13CCCD13CDCE13CECF13CF0470D4
:07401000F030D5DE0246DBB3
:107A2C00E5782464F8E605782278613007027864FA
:107A3C00E475F0011247EA0243462000EB7F2ED298
:107A4C00008018EF540F2490D43440D4FF30040B32
:107A5C00EF24BFB41A0050032461FFE579600215CE
:107A6C0079057CE57C7002057B30070D7861E47547
:107A7C00F0011247EAEF0243BF02F0707403D20721
:107A8C008003E4C207F5788B618A628963E4F57937
:107A9C00F57BF57CE57960077F20127A6780F575B8
:107AAC007AFFC201C200C202C203C205C206C208EA
:107ABC00127A35FF700D3007057F00127A78AF7C93
:107ACC00AE7B22B4255FC2D5C204127A35FF24D016
:107ADC00B40A00501A75F00A787930D50508B6FF4B
:107AEC000106C6A426F620D5047002D20380D92440
:107AFC00CFB41A00EF5004C2E5D204027D65D20166
:107B0C0080C6D20080C0D20280BCD2D580BAD20549
:107B1C0080B47F20127A672002077401B579004087
:107B2C00F1127A2CFF127A67027AA0D208D2068060
:107B3C0095127A2CFB127A2CFA127A2CF94A4B7089
:107B4C0006795C7A7E7BFF20022EE579602A7E0026
:107B5C008E8275830012435F60060EEE657A70F0BC
:107B6C00C2D5EBC0E0EAC0E0E9C0E0EE127DC5D0C2
:107B7C00E0F9D0E0FAD0E0FB124346FF60AAEBC07C
:107B8C00E0EAC0E0E9C0E0127A67D0E02401F9D065
:107B9C00E03400FAD0E0FBE57A0460DCD57AD980D9
:107BAC0087D20280A2127DA860F7E57A70010412D8
:107BBC004061A97A600DE57A600914F57A127E4F5E
:107BCC00EF60F3EA30E702F404C3995077EAF42546
:107BDC007A0430E701E404F57A800D127DA860C1C7
:107BEC00EA057A257A124061EA7877F630E701E403
:107BFC00257A04D57A0420050114127DC5E4C0E071
:107C0C00127E4F7877E6601320E70714F6127A4F4E
:107C1C00802204F6D0E014C0E07F00127A4FE57A9F
:107C2C006007127A46157A800B300503127A46D01B
:107C3C00E0027AA0D0E00480C5127DA860A0E57AAD
:107C4C00041240617877EAF6E57A200502600104B7
:057C5C002404127DC5A7
:107C610074FF04C0E0127E4F127A4FE57A200502BC
:107C71006003127A46D0E0B57AE87F45127A5978E6
:107C810077E67F2B30E7047F2DF404C0E0127A679A
:107C9100D0E075F00A84C0F0127A50D0E0127A5028
:107CA100027AA0791080027908C206C2088008D23F
:107CB100D5790A8004790AC2D5E57A047002F57A89
:107CC100E4FAFDFEFF127A2CFC7B08200113127AE4
:107CD1002CFD7B1030000A127A2CFE127A2CFF7BCD
:107CE10020EC3382D592D55013C3E43000069FFFB8
:107CF100E49EFEE42001039DFDE49CFCE4CBF8C27C
:107D010001EC700CCFCECDCCE824F8F870F38017DD
:107D1100C3EF33FFEE33FEED33FDEC33FCEB33FB0E
:107D2100994002FB0FD8E9EB300105F8D0E0C448D7
:107D3100B201C0E00AEC4D4E4F78207B0070C2EAE0
:107D4100B57A0040BCC0E0127DC7D0F0D0E0200180
:107D510004C4C0E0C4B201C0F0127A50D0F0D5F032
:107D6100EB027AA01248BE7B3D537CA4587B0E4C9B
:107D71007B0A427CA84F7CB0447CB0497B23437C86
:107D8100B6557BE7467C45457BB1477E7C507B12EF
:107D91002D7B162E7B392B7B1A237B37207E652A80
:107DA1007AD24800007B31E57AB4FF03757A061276
:107DB1007A2CFC127A2CFD127A2CFE127A2CFF7886
:107DC10070024090790AA2D5200314300509B91038
:107DD100020404B9080104A2D520060250010420BE
:107DE10002689202B579005034C0E07F2030031957
:107DF1007F30A20272067205500F127E1EC202C2AD
:107E010006C205C2087F30800F300503E9C0E012C9
:107E11007A67300503D0E0F9D0E0B579CC300517A9
:107E21007F30B9100C127A677F583004077F788051
:107E310003B90803127A673002057F2D027A677F42
:107E4100202008F87F2B2006F322920280CF7F00AA
:107E5100B4070050052470F8E6FF22286E756C6C9B
:107E61002900D201127A2C3001F8C201787930D57B
:107E71000108F6027AD22D50434958127A2C240374
:107E8100B405004001E4907E7793127A58743A1257
:0A7E91007A58D203757904027CA42C
:10D9E10002404C22EDA2E7D2E7F9EC3340F260F3BA
:10D9F100B4FF08ED547F70E8024056F82481C2E07C
:10DA0100C0E0F40428FAC313FCED92E7FD8C548DB9
:10DA1100558E568F57EEA2E7E9BA7F02C313340041
:10DA21009400FA75F091A4E5F013F494FE8AF0A441
:10DA310033E5F033248CD313FDE492E7FE7F007CC1
:10DA41003F758302ECC0E0F8EDC0E0F9EEC0E0FA0A
:10DA5100EFC0E0FBAC54AD55AE56AF57123E87D088
:10DA6100E0FBD0E0FAD0E0F9D0E0F8123C8DED64B3
:10DA710080FD30E7011CD583CBED33CC33F8D0E00A
:0ADA8100A2E71328C313CC13FD2203
:10E2A2008F598E588D578C56AB5DAA5CA95BA85AC4
:10E2B200123E8712CAE48F598E588D578C56E55AF2
:10E2C20030E747ECC0E0EDC0E0EEC0E0EFC0E0E4D4
:10E2D200FFFEFDFCAB59AA58A957A856123F247B52
:10E2E200DB600250087A0F7949784080067A0F790C
:10E2F2004978C0D0E0FFD0E0FED0E0FDD0E0FC12D3
:10E302003C8D8F598E588D578C56AF59AE58AD579C
:03E31200AC5622E4
:10C6CA003A70FA83BCAAE9E43E81E0F8BF9DE9E644
:10C6DA003F80000039283C1ABB9969663DA335E3BF
:10C6EA00BF255DE73FC90FDB418DDBCCC44936EE80
:10C6FA0045C9913FC5B0F83D3F800000C317F534E6
:10C70A00452FFA73C60AFDDD12C7B904A2E19200E9
:10C71A001420E01590C6CA7404124193802612C7E9
:10C72A00B930E102B20020E0EB8C548D558E568F61
:10C73A005790C6DE7404124193A854A955AA56AB61
:10C74A0057123D7EED4C6007300004EC6480FC22F9
:10C75A0012C7B9C0E08C548D558E568F5790C702B8
:10C76A007403124193A854A955AA56AB57123D7E99
:10C77A00ECC554FCEDC555FDEEC556FEEFC557FF99
:10C78A0090C6F27403124193D082A854A955AA56AE
:10C79A00AB57E58230E007123E87B20080A6EFCBA6
:10C7AA00FFEECAFEEDC9FDECC8FC123E878095ED8E
:10C7BA0033EC547FCC33920024605007D0E0D0E0B1
:10C7CA0002404C7B837AF97922783E123D7EEDF95C
:10C7DA0033ECF83324815011EFFBEEFA123FE012EA
:10C7EA003FA2ECB2E7FC123C8DED33EC33602F2410
:10C7FA0003F8C313FCED92E7FDE82481E4501FEC33
:10C80A00F8EDF9EEFAEFFB123FE0EF04C2E0FCF5B7
:10C81A0082123FACECB2E7FC123C8DE58203FAEDE2
:0EC82A0033EC3360071413FCED92E7FDEA22B5
:10401700E9D2E7C933E833F892D5EDD2E7CD33ECEF
:0740270033FC5002B2D52268
:10402E00EC30E7100FBF000C0EBE00080DBD0004F3
:10403E000BEB6014A2D5EB13FCED92E7FD2274FF9F
:10404E00FCFDFEFF22E480F8A2D574FF13FC7D80F8
:03405E00E480EF0C
:10406100F920E72824F950037907E4F42402FB1826
:10407100DBFDE624FB5014E9600DE4F618E604F6D6
:0F408100B40A08E4F6D9F57401F60A22C2D52272
:10409000ED33EC3392D5FA602AB4FF33EDC2E77BFF
:1040A000FF60067A4079B5E4227A4079BE20D504D3
:1040B0007A4079B9224E614E002B494E46002D4977
:1040C0004E4600E47A08F608DAFC7B00740722E822
:1040D000C0E0ECC0E0EDC0E0EEC0E0EFC0E0EA75AB
:1040E000F010A4CAABF075F04DA42BFBE435F0FC46
:1040F000EA2410FAEB34C5FBEC34D9FCEDC2E7FF3F
:1041000075F056A4F42411C5F0F434C58FF0A42A38
:10411000E5F03BE43CF620E714124210D0E0FFD07B
:10412000E0FED0E0FDD0E0FC123E878014F40412E3
:104130004210D0E0FFD0E0FED0E0FDD0E0FC123D28
:104140007ED0E0F8E6FAEDD2E7CD33EC332482FB03
:10415000E4C3CF33CFCE33CECD33CD33DBF37B07C8
:1041600075F00A846004F6081B0AE5F0F6088FF083
:10417000740AA4FFACF08EF0740AA42CFEACF050CC
:10418000010C8DF0740AA42CFDE435F0F608DBDE9A
:034190007407228F
:10419300C0E0EFFBEEFAEDF9ECF8123D7ED0E0F56E
:1041A300F0EFFBEEFAEDF9ECF812476CA3A3A3A32F
:1041B300E8C0E0E9C0E0EAC0E0EBC0E0C0F0123DD7
:1041C3007E124788A3A3A3A3123C8DD0F0D0E0FBBB
:0D41D300D0E0FAD0E0F9D0E0F8D5F0D42229
:10CAC400BE1249253E4CCCCDBEAAAAAB3F80000085
:10CAD4003E7ADBB03EED63383F24BC7D3F490FDB3B
:10CAE400ED33ECC2E7CC339200B4FF13ED547F6016
:10CAF4000302404C7FDB7E0F7DC97C3F02CBDFC24B
:10CB040001C3947F401E7007EDD2E794904015EF67
:10CB1400FBEEFAEDF9ECF87F007E007D807C3F129D
:10CB24003E87D201ED33EC33248430E705E4C0E0E2
:10CB3400806D04FAEDD2E754F0C333DAFD540734C0
:10CB4400002323C0E0CCC0E0F8EDC0E0F9EEC0E083
:10CB5400FAEFC0E0FBE4123FACEC24FEFC8C5E8DEB
:10CB64005F8E608F61123D7E7B007A007980783F12
:10CB7400123C8DECC55EB2E7FCEDC55FFDEEC56011
:10CB8400FEEFC561FFD0E0FBD0E0FAD0E0F9D0E0E1
:10CB9400F8123C8DA85EA95FAA60AB61123E878C37
:10CBA4005E8D5F8E608F6190CAC47403124193A836
:10CBB4005EA95FAA60AB61123D7ED0E0600F24D015
:10CBC400F582E434CAF583124788123C8D30010B98
:10CBD4007BDB7A0F79C978BF123C8DED33EC33607F
:08CBE40006ECA20092E7FC221E
:1041E0003F8000004120000042C80000447A0000E7
:1041F000461C400047C35000497424004B18968069
:104200004CBEBC205A0E1BCA6753C21C749DC5AE5F
:10421000FB60065407601C232312423EEB543860B7
:104220000912422A124239123D7EECF8EDF9EEFAFB
:10423000EFCB22EB12423980F1543803241C904119
:10424000E0FE93FC0EEE93FD0EEE930ECE93FF2256
:10DE2A00025E10E493A3F8E493A34003F68001F2A0
:10DE3A0008DFF48029E493A3F85407240CC8C333F9
:10DE4A00C4540F4420C8834004F456800146F6DFC8
:10DE5A00E4800B010204081020408090AA19E47E95
:10DE6A00019360BCA3FF543F30E509541FFEE493BD
:10DE7A00A360010ECF54C025E060A840B8E493A384
:10DE8A00FAE493A3F8E493A3C8C582C8CAC583CAAF
:10DE9A00F0A3C8C582C8CAC583CADFE9DEE780BE67
:01AC6A0000E9
:10425000E709F608DFFA8046E709F208DFFA803E50
:1042600088828C83E709F0A3DFFA8032E309F6083D
:10427000DFFA8078E309F208DFFA807088828C83A5
:10428000E309F0A3DFFA806489828A83E0A3F60859
:10429000DFFA805889828A83E0A3F208DFFA804C33
:1042A00080D280FA80C680D4806980F2803380100A
:1042B00080A680EA809A80A880DA80E280CA803373
:1042C00089828A83ECFAE493A3C8C582C8CCC583EB
:1042D000CCF0A3C8C582C8CCC583CCDFE9DEE780BB
:1042E0000D89828A83E493A3F608DFF9ECFAA9F03A
:1042F000EDFB2289828A83ECFAE0A3C8C582C8CC90
:10430000C583CCF0A3C8C582C8CCC583CCDFEADEA8
:10431000E880DB89828A83E493A3F208DFF980CC0A
:1043200088F0EF60010E4E60C388F0ED2402B40403
:104330000050B9F582EB2402B4040050AF232345AA
:0643400082239042A073ED
:10434600BB010689828A83E0225002E722BBFE0275
:09435600E32289828A83E49322A8
:10435F00BB010CE58229F582E5833AF583E0225013
:10436F0006E92582F8E622BBFE06E92582F8E2225D
:0D437F00E58229F582E5833AF583E4932277
:10438C00BB010FF8E58229F582E5833AF583E02835
:10439C00F0225009C58229F8E58226F622BBFE09D7
:1043AC00C58229F8E22582F222F8EA2583F583E911
:0343BC0093282221
:1043BF00BB010689828A83F0225002F722BBFE01DD
:0243CF00F322D7
:1043D100F8BB010DE58229F582E5833AF583E8F022
:1043E100225006E92582C8F622BBFE05E92582C8CE
:0243F100F222B6
:1043F300EF8DF0A4A8F0CF8CF0A428CE8DF0A42EDE
:02440300FE2297
:10440500BC000BBE0029EF8DF084FFADF022E4CC9B
:10441500F875F008EF2FFFEE33FEEC33FCEE9DEC64
:10442500984005FCEE9DFE0FD5F0E9E4CEFD22EDAA
:10443500F8F5F0EE8420D21CFEADF075F008EF2FF4
:10444500FFED33FD4007985006D5F0F222C398FDE5
:054455000FD5F0EA2282
:10445A00C2D5EC30E709B2D5E4C39DFDE49CFCEE7D
:10446A0030E715B2D5E4C39FFFE49EFE124405C3AC
:10447A00E49DFDE49CFC800312440530D507C3E4A7
:06448A009FFFE49EFE22EC
:10449000C5F0F8A3E028F0C5F0F8E58215827002B7
:0644A0001583E038F02254
:1044A600A3F8E0C5F025F0F0E582158270021583C9
:0644B600E0C838F0E82226
:1044BC00BB010A89828A83E0F5F0A3E022500687CB
:1044CC00F009E71922BBFE07E3F5F009E31922898D
:0B44DC00828A83E493F5F074019322C0
:1044E700BB0110E58229F582E5833AF583E0F5F013
:1044F700A3E0225009E92582F886F008E622BBFEF0
:104507000AE92582F8E2F5F008E222E5832AF58335
:08451700E993F5F0A3E99322FA
:10451F00BB010789828A83024490500B09C5F0279B
:10452F00F7C5F01937F722BBFE0D09F8E325F0F3B5
:10453F00C5F019E338F322F889828A837401932531
:08454F00F0C5F0F8E4933822F6
:10455700BB010A89828A83F0E5F0A3F0225006F7AF
:0F45670009A7F01922BBFE06F3E5F009F31922AC
:10457600F8BB0111E58229F582E5833AF583E8F077
:10458600E5F0A3F0225009E92582C8F608A6F02234
:0D459600BBFE09E92582C8F2E5F008F2221B
:0D45A300EF2BFFEE3AFEED39FDEC38FC2267
:0E45B000C3EF9BFFEE9AFEED99FDEC98FC2206
:1045BE00E88FF0A4CC8BF0A42CFCE98EF0A42CFC9C
:1045CE008AF0EDA42CFCEA8EF0A4CDA8F08BF0A41A
:1045DE002DCC3825F0FDE98FF0A42CCD35F0FCEB79
:1045EE008EF0A4FEA9F0EB8FF0A4CFC5F02ECD393E
:0F45FE00FEE43CFCEAA42DCE35F0FDE43CFC22AB
:10460D0075F008758200EF2FFFEE33FECD33CDCC64
:10461D0033CCC58233C5829BED9AEC99E5829840E7
:10462D000CF582EE9BFEED9AFDEC99FC0FD5F0D6C4
:10463D00E4CEFBE4CDFAE4CCF9A88222B800C1B9EE
:10464D000059BA002DEC8BF084CFCECDFCE5F0CB2C
:10465D00F97818EF2FFFEE33FEED33FDEC33FCEB65
:10466D0033FB10D703994004EB99FB0FD8E5E4F920
:10467D00FA227818EF2FFFEE33FEED33FDEC33FC0D
:10468D00C933C910D7059BE99A4007EC9BFCE99A01
:10469D00F90FD8E0E4C9FAE4CCFB2275F010EF2F46
:1046AD00FFEE33FEED33FDCC33CCC833C810D70746
:1046BD009BEC9AE899400AED9BFDEC9AFCE899F881
:0E46CD000FD5F0DAE4CDFBE4CCFAE4C8F92214
:10ED0000C2D5E830E70FB2D5E4C39BFBE49AFAE43E
:10ED100099F9E498F8EC30E717B2D512ED361246BF
:10ED200049E4C39BFBE49AFAE499F9E498F8800378
:10ED300012464930D50DE4C39FFFE49EFEE49DFDDD
:04ED4000E49CFC2231
:0E46DB00C3E49FFFE49EFEE49DFDE49CFC22F0
:1046E900EB9FF5F0EA9E42F0E99D42F0EC6480C848
:0646F90064809845F022E8
:1046FF00EB9FF5F0EA9E42F0E99D42F0E89C45F011
:01470F002287
:10471000BB010789828A830247605005E9F8024994
:10472000D3BBFE05E9F80249DF89828A8302476C20
:10473000BB010DE58229F582E5833AF583024760E6
:104740005007E92582F80249D3BBFE07E92582F824
:104750000249DFE58229F582E5833AF58302476C59
:0C476000E0FCA3E0FDA3E0FEA3E0FF22CC
:10476C00E493FC740193FD740293FE740393FF2293
:0C477C00E0F8A3E0F9A3E0FAA3E0FB22C0
:10478800E493F8740193F9740293FA740393FB2287
:0C479800ECF0A3EDF0A3EEF0A3EFF02294
:1047A400A8828583F0D083D0821247BB1247BB1204
:1047B40047BB1247BBE473E493A3C583C5F0C58329
:1047C400C8C582C8F0A3C583C5F0C583C8C582C85F
:0147D40022C2
:0C47D500A42582F582E5F03583F58322EF
:0947E100E6FB08E6FA08E6F922FD
:1047EA00FAE6FB0808E6F925F0F618E6CA3AF622D0
:0947FA00EBF608EAF608E9F622E4
:09480300E0FBA3E0FAA3E0F922B6
:09480C00EBF0A3EAF0A3E9F022AD
:10481500BB010789828A830248035005E9F80247EC
:10482500E1BBFE05E9F80249EB89828A830249FD6D
:10483500BB010DE58229F582E5833AF5830248033C
:104845005007E92582F80247E1BBFE07E92582F812
:104855000249EBE58229F582E5833AF5830249FDB4
:10486500BB0120E58229F582E5833AF583D0F0D0B6
:10487500E0F8D0E0F9D0E0FAD0E0FBE8C0E0C0F025
:1048850002480C5018E92582F8D083D082D0E0F98F
:10489500D0E0FAD0E0FBC082C0830247FABBFE1825
:1048A500E92582F8D083D082D0E0F9D0E0FAD0E0D3
:0948B500FBC082C0830249F42219
:1048BE00D083D082F8E4937012740193700DA3A389
:1048CE0093F8740193F5828883E47374029368609D
:0648DE00EFA3A3A380DF9D
:0648E4008A838982E4735F
:10F07000EFB40A07740D12F07B740A309811A89946
:10F08000B8130CC2983098FDA899C298B811F63000
:07F0900099FDC299F59922D8
:0FF17F00EFC394204007EF947F50028001C3221A
:1048EA00E709F60870FA8046E709F20870FA803E8E
:1048FA0088828C83E709F0A370FA807EE309F608C0
:10490A0070FA8076E309F20870FA806E88828C83E6
:10491A00E309F0A370FA806289828A83E0A3F60829
:10492A0070FA805689828A83E0A3F20870FA804A74
:10493A0080D280FA80C680D4806580F2803180106F
:10494A0080A680EA809A80A880DA80E280CA8031D4
:10495A0089828A83ECFAE493A3C8C582C8CCC5834A
:10496A00CCF0A3C8C582C8CCC583CC70E9800D89B8
:10497A00828A83E493A3F60870F9ECFAA9F0EDFBB6
:10498A002289828A83ECFAE0A3C8C582C8CCC5838F
:10499A00CCF0A3C8C582C8CCC583CC70EA80DD89B7
:1049AA00828A83E493A3F20870F980CE88F0ED241A
:1049BA0002B4040050C4F582EB2402B4040050BAD5
:0949CA00232345822390493A732E
:10E981008B4B8A4C894DE4F553F554E5521552AE43
:10E9910051700215514E6033AB4EAA4FA95012432C
:10E9A10046FFAB4BAA4CA94D0554E554AC5370023C
:10E9B100055314F5828C83EF1243D1EF60CD7401BE
:10E9C1002550F550E4354FF54F80C0AB4BAA4CA90B
:02E9D1004D22D5
:10F12200E4FFFE124346600C0FEF70010E09E97016
:05F13200F20A80EF224B
:10D887008B4A8A4B894CAB4AAA4BA94C124346FF99
:10D8970012F137500D7401254CF54CE4354BF54B1F
:10D8A70080E4D200AB4AAA4BA94C124346FF642B33
:10D8B7006004EFB42D1BAB4A054CE54CAA4B700234
:10D8C700054B14F9124346642D6003D38001C392BC
:10D8D70000E4F54DF54EAB4AAA4BA94C124346FF5F
:10D8E70012F18E5036AB4AAA4BA94C124346FF336E
:10D8F70095E0FEEF24D0FBEE34FFFAAE4DAF4E7C41
:10D90700007D0A1243F3EF2BF54EEE3AF54D740105
:10D91700254CF54CE4354BF54B80BB300006AE4D3E
:0ED92700AF4E8009C3E4954EFFE4954DFE22FD
:0C49D300E6FC08E6FD08E6FE08E6FF2210
:0C49DF00E2FC08E2FD08E2FE08E2FF2214
:0949EB00E2FB08E2FA08E2F922FD
:0949F400EBF208EAF208E9F222F4
:0C49FD00E493FB740193FA740293F92216
:0FF18E00EFC394304007EF943A50028001C32240
:10F13700EFC394094005EF940E4003BF2003D3802B
:03F1470001C322DF
:00000001FF
