:10897000436F707972696768742028432920323008
:10898000313020547261636B2053797374656D7359
:1089900020546563686E6F6C6F676965732C204C3B
:1089A0004C43000200FF000000C0C1C1810140C370
:1089B0000103C00280C241C60106C00780C741054D
:1089C00000C5C1C4810440CC010CC00D80CD410F55
:1089D00000CFC1CE810E400A00CAC1CB810B40C975
:1089E0000109C00880C841D80118C01980D9411BAD
:1089F00000DBC1DA811A401E00DEC1DF811F40DDCD
:108A0000011DC01C80DC411400D4C1D5811540D7A4
:108A10000117C01680D641D20112C01380D3411174
:108A200000D1C1D0811040F00130C03180F141331C
:108A300000F3C1F28132403600F6C1F7813740F5CC
:108A40000135C03480F4413C00FCC1FD813D40FF54
:108A5000013FC03E80FE41FA013AC03B80FB4139F4
:108A600000F9C1F88138402800E8C1E9812940EBCC
:108A7000012BC02A80EA41EE012EC02F80EF412D4C
:108A800000EDC1EC812C40E40124C02580E54127A4
:108A900000E7C1E68126402200E2C1E3812340E1F4
:108AA0000121C02080E041A00160C06180A141633C
:108AB00000A3C1A28162406600A6C1A7816740A54C
:108AC0000165C06480A4416C00ACC1AD816D40AF54
:108AD000016FC06E80AE41AA016AC06B80AB416974
:108AE00000A9C1A88168407800B8C1B9817940BBAC
:108AF000017BC07A80BA41BE017EC07F80BF417DCC
:108B000000BDC1BC817C40B40174C07580B54177A3
:108B100000B7C1B68176407200B2C1B3817340B173
:108B20000171C07080B041500090C191815140935B
:108B30000153C052809241960156C05780974155CB
:108B40000095C1948154409C015CC05D809D415F53
:108B5000009FC19E815E405A009AC19B815B4099F3
:108B60000159C058809841880148C0498089414BCB
:108B7000008BC18A814A404E008EC18F814F408D4B
:108B8000014DC04C808C41440084C18581454087A3
:108B90000147C046808641820142C04380834141F3
:078BA0000081C1808140400B
:10A1420050001500000000000000000000000000A8
:10A15200000000430C24000000410C1600410CA733
:10A162000A41000500026F0000026B00005000254A
:10A1720000000000000000000000000000000000DD
:10A1820001730041029A00410CAE0042000200003D
:10A19200410CAA0042025D00004200490000420256
:10A1A200AD00A0410CA900410CAD004202B000007C
:10A1B20041000100410004004102E000410BD000D7
:10A1C200410CA80002740000026D00004202B300BC
:10A1D200004102AF004102E10041000000410CAF2A
:0DA1E20000410014004102DF004102E204D0
:1024C300E4F52DF52CF52BF52A900CC9F075840F46
:1024D30075FFDE75FFAD12A9DE12A76BC2B4C2B5DC
:1024E300C2B612002675340175350975363A7B017B
:1024F3007A0C791412A060129F3A900CA77414F00E
:10250300E49002AFF0900CC5F0A3F0900CC5E0FA94
:10251300A3E0FB9002BF75F015123E53EA75F01568
:10252300A42583F583123DE4000000009002BB75EF
:10253300F015EB123E53EA75F015A42583F58312CB
:102543003DE400000000900CC5E0FAA3E0FB90021C
:10255300B575F015123E53EA75F015A42583F5837E
:10256300123DE4000000009002C375F015EB123E2B
:1025730053EA75F015A42583F583E4F0A3F0900CDA
:10258300C5E0FEA3E0FF9002B975F015123E53EECD
:1025930075F015A42583F583E4F0A3F09002C875C4
:1025A300F015EF123E53EE75F015A42583F583E481
:1025B300F09002C775F015EF123E53EE75F015A4B7
:1025C3002583F583E4F09002C675F015EF123E53B0
:1025D300EE75F015A42583F583E4F09002C575F03C
:1025E30015EF123E53EE75F015A42583F583E4F041
:1025F3009002C975F015EF123E53EE75F015A42540
:1026030083F583E4F0900CC575F001123A87900CC2
:10261300C5E07004A3E06402600302250EE49000A9
:1026230000F012A8C07F007E9612AD4C12AE1012BD
:10263300ABB4E4900274F09002877402F0900290BD
:10264300744EF07B017A0279E3900283123E787A2A
:1026530009793C900296123E787A07791D900280A0
:10266300123E787A0B79D1900293123E78E490026D
:1026730073F090028604F090027D744EF0E49002B1
:1026830088F0A3F0900275F0A3F0900292F090020C
:102693007FF0900291F090027EF01BFAF990028D88
:1026A300123E7890028A123E7890027A123E789017
:1026B3000277123E780B7A0279737F007E847D0362
:1026C3007C0012900C900014E07B017A0279866002
:1026D300067F807E2580047F007EE17D007C0012E2
:1026E300900C900014E060247B017A0279639000DF
:1026F30045123E787A02799B900042123E78E4902C
:10270300003EF0A3F0900048F012ADFA129CD3D231
:07271300AF900014E06035F7
:10271A00900CB2123DE400006978E4FFFEFDFC90E3
:10272A000CB2123D9CD3123CB54017900CB2123D2C
:10273A009074FFFBFAF9F8123B62900CB2123DD882
:02274A0080D835
:10274C001281551200A6900CAF7401F0E4900C1895
:10275C00F0900C23F0900C1DF0A3F0900C1BF0A348
:10276C00F0A2DA33900C1AF090025EE02458FE903E
:10277C00025DE03400900C21F0A3CEF0900049E013
:10278C00FCA3E0FD2406FEE43C900C1FF0A3CEF06D
:10279C00ED2409FEE43C900CC7F0A3CEF07B017A4B
:1027AC0000794B754E00754F037F107E0212A4C347
:1027BC009001F1E0540F900006F09001F1E054F01C
:1027CC00C4540F900007F0E5D85403700C900C170C
:1027DC00E064036004E4F0802B900006E0B4031F77
:1027EC00900C17E06403601CE5D85403FFBF02058E
:1027FC007402F0800F900C177401F0A3F08005E4C4
:10280C00900C17F0E4900CC5F0A3F090093AE0FEA0
:10281C00A3E0FF900CC5E0FCA3E0FDC39FEC9E5031
:10282C0017744B2DF58274003CF583E4F0900CC5C5
:10283C0075F001123A8780D390029AE06028C39019
:10284C00001AE094B8900019E0940B5019C2B3C26E
:10285C00B6C2B5C2B4E4F54CF54D7B937D037F0253
:10286C0012941F129E0C900C17E0FF640370629080
:10287C000049E0FCA3E0FD900CC7E0B50413A3E015
:10288C00B5050EA37401F0900CC7E475F001123A73
:10289C008730DC08900C197403F0800E900C193002
:1028AC00DB057404F080037402F0900C1DE0FCA3B3
:1028BC00E0FD90025DE06C7003A3E06D6003022A02
:1028CC00E0900C18E064086003022AE0D2CA022AE5
:0928DC00E0EF64026003022AE04F
:1028E500F52E900049E0FAA3E0FB900CC7E0B50295
:1028F50013A3E0B5030EA37401F0900CC7E475F0C3
:1029050001123A8730DB17900C19E064047003025A
:1029150029DF7404F0900CC97401F00229DF900CD2
:1029250019E0B404297402F090025EE02403FE90DD
:10293500025DE03400900C21F0A3CEF0A2DAE4337E
:10294500900C1AF0E4900C23F0900CC904F0900C54
:1029550021E0FEA3E0FF90025DE0FCA3E0FD6F70C7
:1029650002EC6E7075A2DA33FF900C1AE0FE6F7000
:1029750034900C23E0C394025005E004F0804EEE41
:102985006012900C19E0640260437402F0900CC967
:1029950014F08039900C19E0640160317401F090F5
:1029A5000CC9F08028900C19E0640360097403F0E9
:1029B500900CC97401F0900C1AE070047F0180023C
:1029C5007F00900C1AEFF0900C237401F0ED245861
:1029D500FEE43C900C21F0A3CEF0900C18E06004CE
:1029E500A3E07017900C197401F0900C18F0EB240B
:1029F50005FEE43A900C1FF0A3CEF0900C1FE0FE0C
:102A0500A3E0FF900049E0B50619A3E0B5071490CF
:102A15000C1FE475F00A123A87900C19E0B4010313
:102A2500752E01900C16E0FFC394054009EFD39471
:102A35001F5003E4F52EE52E601A900C187405F06E
:102A450090025EE02403FE90025DE03400900C1DD0
:102A5500F0A3CEF0900C1DE0FEA3E0FF90025DE038
:102A6500FCA3E0FD6F7002EC6E7070900C18E02412
:102A7500FD604B24FE601A14604A2404705D900CBE
:102A8500187403F0ED2428FEE43C900C1DF0A3CE51
:102A9500F0900C18E0B405177406F090025EE0247F
:102AA50028FE90025DE03400900C1DF0A3CEF0905E
:102AB5000C17E024FE6003047021D2CC801D900C1D
:102AC500187404F0900C18E0B406037401F0900C2F
:0B2AD50017E024FE6003047002C2CC76
:102AE000900C16E0FFC394054006EFD3941F4043BB
:102AF000900CC9E0603DE4F0900C19E0FF9089A6CD
:102B0000E493FD3395E0FC90028075F013ED123EE6
:102B100053EC75F013A42583F583123E6F900007E4
:102B2000EF1239C8754C00754D017B297D037F027A
:0E2B300012941F900277123E6FE94A4B602B01
:102B3E00900277123E6F8B2E8A2F89307B007A009F
:102B4E007900900277123E78AB2EAA2FA930E4FFBF
:0B2B5E00124005900CC3EEF0A3EFF056
:102B6900900CA9E07003022D60E4F09002E0E0F41B
:102B79006003022C4A900C17E0FFB40305C2CA0295
:102B89002C3EEF64026003022C3E900C19E0B40461
:032B990036D2CC65
:102B9C00900CB6123DE40001B774E4FFFEFDFC900E
:102BAC000CB6123D9CD3123CB54017900CB6123D9E
:102BBC009074FFFBFAF9F8123B62900CB6123DD8F8
:022BCC0080D8AF
:0A2BCE00C2CC900C19E064016066AF
:102BD800900CBA123DE4000DBBA0E4FFFEFDFC9092
:102BE8000CBA123D9CD3123CB54017900CBA123D5A
:102BF8009074FFFBFAF9F8123B62900CBA123DD8B8
:022C080080D872
:022C0A00D2CC2A
:102C0C00900CBE123DE400112A88E4FFFEFDFC90FE
:102C1C000CBE123D9CD3123CB54017900CBE123D1D
:102C2C009074FFFBFAF9F8123B62900CBE123DD87F
:022C3C0080D83E
:102C3E00C2B3C2B6C2B5C2B4C2FF80FE9002E0E01B
:102C4E00FF64F07023900C16EFF0E4F574F57590B8
:102C5E00000574FFF0D2B3D2B6D2B5D2B4C2A85327
:102C6E00E7FD53E7BF022D5BEFB4F10F900C16F0AA
:102C7E00C2B3C2B6C2B5C2B4022D5BEF64F2702B02
:102C8E00900C16EFF0D2B3D2B6D2B5D2B4900C15DA
:102C9E00E024FFFD900C14E034FFFCE4FBFFFE1279
:102CAE00A853E4F58443EF01022D609002E0E0FFAB
:102CBE00C394054008EFD3941F5002D2B69002E0A1
:102CCE00E0FFC39405400CEFD3942350067E007FA3
:102CDE000180047E007F00900C16E0FDC394054039
:102CEE000CEDD3942350067C007D0180047C007D86
:102CFE0000ED6F7002EC6E604C9002E0E0FFC3944A
:102D0E0005403FEFD3942350391268AC12A8C0127D
:102D1E0000A6E4900CAEF0900CA7E0FF74A08FF02C
:102D2E008475F00AA4FF90025EE02401FD90025D1E
:102D3E00E03400CD2FFEED35F0900002F0A3CEF082
:102D4E008003129E0C9002E0E0900C16F0E49002CC
:102D5E00E0F0900C16E0FFC394055003022844EFF8
:102D6E00D394234003022844900277123E6FE94A1F
:102D7E004B6003022844900C26E060030228449026
:102D8E00027A123E6FE94A4B600302284490029A7F
:102D9E00E0700302308090001AE094B8900019E0C1
:102DAE00940B4007E490029AF0800690029A740108
:102DBE00F0C3E570940AE56F648094804006756FE9
:102DCE0000757009900014E06007E4900299F0809D
:102DDE003590001BE0FEA3E0FFEF24FBFFEE34EB8B
:102DEE00FEE434FFFDE434FFFCE47BE87A03F9F8FB
:102DFE00123B7DE47BE57A24F9F812AC43900299FC
:102E0E00EFF0E024CEF0900017E0540FFD90001587
:102E1E00E0540FC4F854F0C8E4C4540F482DFF908A
:102E2E0089A6E493FD3395E0FC90028075F013EDD6
:102E3E00123E53EC75F013A42583F583123E6F906A
:102E4E000007EF1239C890006175F033E570123E3D
:102E5E0053E56F75F033A42583F58375F003E56CA8
:102E6E00123E53E56B75F003A42583F583E0FF90C6
:102E7E000015A3E0FEEF2EFF9089A6E4933395E0B4
:102E8E00FC90028075F013ED123E53EC75F013A416
:102E9E002583F583123E6F900008EF1239C890001B
:102EAE006275F033E570123E53E56F75F033A4256D
:102EBE0083F58375F003E56C123E53E56B75F003F5
:102ECE00A42583F583E0FF900017A3E0FEEF2EFF0D
:102EDE009089A6E4933395E0FC90028075F013ED93
:102EEE00123E53EC75F013A42583F583123E6F90BA
:102EFE000009EF1239C8E5D8F4FF90028075F0137F
:102F0E00ED123E53EC75F013A42583F583123E6F3C
:102F1E0090000AEF1239C8900262E0FF900023E0A1
:102F2E00FEA3E0A807088005CEC313CE13D8F9FF81
:102F3E009089A6E493FD3395E0FC90028075F01322
:102F4E00ED123E53EC75F013A42583F583123E6FFC
:102F5E0090000BEF1239C8900261E0FF900021E063
:102F6E00FEA3E0A807088005CEC313CE13D8F9FF41
:102F7E009089A6E493FD3395E0FC90028075F013E2
:102F8E00ED123E53EC75F013A42583F583123E6FBC
:102F9E0090000CEF1239C8900260E0FF90001FE025
:102FAE00FEA3E0A807088005CEC313CE13D8F9FF01
:102FBE009089A6E493FD3395E0FC90028075F013A2
:102FCE00ED123E53EC75F013A42583F583123E6F7C
:102FDE0090000DEF1239C890025FE0FF90001DE0E7
:102FEE00FEA3E0A807088005CEC313CE13D8F9FFC1
:102FFE009089A6E493FD3395E0FC90028075F01362
:10300E00ED123E53EC75F013A42583F583123E6F3B
:10301E0090000EEF1239C890025BE0A3FF90028081
:10302E0075F013ED123E53EC75F013A42583F58362
:10303E00123E6F90000FEF1239C890025BA3E0FFB3
:10304E0090028075F013ED123E53EC75F013A4252B
:10305E0083F583123E6F900010EF1239C8754C0045
:10306E00754D0A7B927D037F0212941F12873202E6
:0E307E002844900292E0FF900291E06F606D96
:10308C00EF75F0DCA4FF900296123E6FE92FF9EA7F
:10309C0035F08B2EF52F8930900292E0FFB40204AC
:1030AC007F008003EF04FF900292EFF0900299E012
:1030BC00FF90005F75F033E570123E53E56F75F0CD
:1030CC0033A42583F583EFF0AE6FAF707C007D33B6
:1030DC001239EA744B2FF974003E753401F53589B9
:0A30EC0036AB2EAA2FA93012492C92
:1030F600022844900CAEE0FD7017900002E0FEA39B
:10310600E0FF90025DE06E7003A3E06F60030228AB
:1031160044900CA7E0FF74A08FF08475F00AA4FF1A
:1031260090025EE02401FB90025DE03400CB2FFEAE
:10313600EB35F0900002F0A3CEF0ED700E900CADE2
:10314600F090000274FFF5F0123A879002E2E0FA7E
:103156007003023202900C16E0FFC394055003027E
:103166003202EFD3941F4003023202900CAEE0709D
:10317600030232AF900C17E0FBB4030AA3E0640825
:10318600606474088045EB605D900C16E0FFC394A4
:09319600054053EFD3941F504D86
:10319F00A3E0B40207900C19E0B40408900C17E0F8
:1031AF0064026039900CA7E0900CC2B42805740635
:1031BF00F080037404F0900CC2E0B50220900C185C
:1031CF007402F0900C1BE0FEA3E0FF90025EE02F74
:0D31DF00FF90025DE03E900C1DF0A3EFF0AC
:1031EC009002E2E014F060030232AFF56BF56CF57F
:0631FC006FF5700232AF16
:10320200900CADE0FF9089A6E493FD3395E0FC902D
:10321200028075F013ED123E53EC75F013A4258372
:10322200F583123E6F900007EF1239C89002B0E0AA
:10323200A3FF90028075F013ED123E53EC75F0136C
:10324200A42583F583123E6F900008EF1239C890CF
:1032520002B0A3E0FF90028075F013ED123E53EC32
:1032620075F013A42583F583123E6F900009EF12C7
:1032720039C8754C00754D037B277D037F0212947C
:103282001FE4F52EF52FD390093BE0952F90093AD4
:10329200E0952E4018744B252FF5827400352EF5DB
:0D32A20083E4F0052FE52F70DD052E80D9A7
:1032AF00E4900CAEF09002E1F0900CADE06007B24C
:0B32BF00B5E4F0022844C2B502284428
:109E0C00C2B6C2B5900C17E0B40309C2CAA374075A
:0C9E1C00F0029F2E900C18E064037070A0
:109E2800900CCA123DE400015F90E4FFFEFDFC9037
:109E38000CCA123D9CD3123CB54017900CCA123D77
:109E48009074FFFBFAF9F8123B62900CCA123DD8E5
:029E580080D8B0
:039E5A00E4F5C864
:109E5D00900CCE123DE400020F58E4FFFEFDFC9085
:109E6D000CCE123D9CD3123CB54017900CCE123D3A
:109E7D009074FFFBFAF9F8123B62900CCE123DD8AC
:029E8D0080D87B
:109E8F00900C187401F0A304F0900C17E0FFB402CB
:109E9F0008900C19E06404600DEF6402607B900C75
:069EAF0018E0640470736A
:109EB500900CD2123DE400015F90E4FFFEFDFC90A2
:109EC5000CD2123D9CD3123CB54017900CD2123DDA
:109ED5009074FFFBFAF9F8123B62900CD2123DD850
:029EE50080D823
:0D9EE700900C17E024FE6003047036D2CC0E
:109EF400900CD6123DE40001B774E4FFFEFDFC9023
:109F04000CD6123D9CD3123CB54017900CD6123D92
:109F14009074FFFBFAF9F8123B62900CD6123DD80C
:029F240080D8E3
:109F2600C2CC900C187401F0900C17E06403600327
:049F3600E4F5C82264
:1068AC0090025DE0F533A3E0F534E4F56FF570F597
:1068BC006BF56C900CADF0A3F090093AE0FEA3E000
:1068CC00FF7B017A00794B754E00754F0112A4C302
:1068DC00900BD0E024FC602324027044900CA7742D
:1068EC0014F0900C17E0900C1BB403087401F0A387
:1068FC0074208050E4F0A374F08049900CA77428A5
:10690C00F0900C17E0900C1BB40307E4F0A3749008
:10691C008032E4F0A374A4F09002E27406F0802BB1
:10692C00900CA7740AF0900C17E0900C1BB4030E9B
:10693C00E4F0A374A0F09002E27401F0800D7402F4
:10694C00F0A37434F09002E27404F0900CA8E09080
:10695C0002AFF09002ABE0FCA3E0FD4C700890009D
:10696C000AF0A3F080679002B2E0701E1235EBA81B
:10697C0004A905AA06AB07E4FFFE7D7A7C48123415
:10698C00CB1236247C007DF080389002B2E0B40F3C
:10699C00037410F09002ABE0FCA3E0FDE41235EBC5
:1069AC00A804A905AA06AB07E4FFFE7D7A7C481271
:1069BC0034CB1236249002B2E0FD74788DF084FD55
:1069CC007C001239EA90000AEEF0A3EFF0E5D854FF
:1069DC000370079002AFF0026CD17B017A00794B07
:1069EC00754E00754F037F107E0212A4C39001F107
:1069FC00E0540F900006F09001F1E054F0C4540FF5
:106A0C00900007F0E4F531F53290006375F028E55D
:106A1C0032123E53E53175F028A42583F583E0242A
:106A2C00FB601524FB7022745F2532F582740235ED
:106A3C0031F5837403F08020745F2532F582740283
:106A4C003531F5837402F0800F745F2532F5827452
:106A5C00023531F5837404F00532E53270020531EC
:106A6C006404453170A3E4F531F53290007075F093
:106A7C0028E532123E53E53175F028A42583F583C1
:106A8C00E0FDE53225E0FFE53133FE740D2FF58294
:106A9C0074003EF583EDF090006475F028E5321239
:106AAC003E53E53175F028A42583F583123D9C9067
:106ABC00006875F028E532123E53E53175F028A4D4
:106ACC002583F583123D901232CDC004C005C0065B
:106ADC00C00790006475F028E532123E53E531751D
:106AEC00F028A42583F583123D9C90006C75F0284A
:106AFC00E532123E53E53175F028A42583F5831257
:106B0C003D901232CDD003D002D001D0001234CB44
:106B1C00E4FBFAF9F812356890006475F02860050A
:106B2C004003026BAFE532123E53E53175F028A4F9
:106B3C002583F583123D9C90006875F028E5321290
:106B4C003E53E53175F028A42583F583123D901250
:106B5C0032CDC004C005C006C00790006475F02893
:106B6C00E532123E53E53175F028A42583F58312E6
:106B7C003D9C90006C75F028E532123E53E5317562
:106B8C00F028A42583F583123D901232CDD003D08A
:106B9C0002D001D0001234CBC004C005C006C0071F
:106BAC00026C35E532123E53E53175F028A425838D
:106BBC00F583123D9C90006875F028E532123E5327
:106BCC00E53175F028A42583F583123D901232CD62
:106BDC00C004C005C006C00790006475F028E532FB
:106BEC00123E53E53175F028A42583F583123D9CA4
:106BFC0090006C75F028E532123E53E53175F028A3
:106C0C00A42583F583123D901232CDD003D002D04F
:106C1C0001D0001234CB1235D5AB07AA06A905A8B2
:106C2C0004C000C001C002C00390007175F028E5DB
:106C3C0032123E53E53175F028A42583F583E0FF2D
:106C4C0090007275F028E532123E53E53175F0284C
:106C5C00A42583F583E0C39FFDE49400FCE4123586
:106C6C00EBD003D002D001D0001233C2C004C00557
:106C7C00C006C00790007175F028E532123E53E54E
:106C8C003175F028A42583F583E0FCE41235F0D0AF
:106C9C0003D002D001D0001232D1123624AD07E558
:106CAC003225E0FFE53133FE740C2FF58274003E83
:106CBC00F583EDF00532E53270020531640445319F
:106CCC006003026A779002AFE030E7034403F0E41C
:106CDC00F531F532D390093BE0953290093AE095C5
:106CEC00314018744B2532F58274003531F583E44C
:0B6CFC00F00532E53270DD053180D973
:016D07002269
:098732009002AFE0700302896FB0
:03873B007531068F
:10873E00AF319002AFE0FEA807088002C313D8FC49
:10874E0020E003028961E531123F0A88D40088CB0C
:10875E000187BC0287BC03877A04877A0587720675
:10876E0000008961E5D8F4F532028961AF31EF334B
:10877E0095E0FEEF25E0FFEE33FE74192FF58274BF
:10878E00003EF583E0FEA3E0FFAD31ED3395E0FC56
:10879E00745D2DF58274023CF583E0FDEFA80508AB
:0E87AE008005CEC313CE13D8F9F532028961CF
:1087BC00E4F533AF31EF3395E0FEEF25E0FFEE3318
:1087CC00FE74192FF58274003EF583E0FEA3E0FFE2
:1087DC00AD31ED3395E0FC745D2DF58274023CF502
:1087EC0083E0FBEFA803088005CEC313CE13D8F9A2
:1087FC00F53274042DF58274003CF583E06402605C
:10880C0003028961AF31EF3395E0FEEF25E0FFEE17
:10881C0033FE74092FF58274003EF583E060230467
:10882C00604624FE706A74082FF58274003EF5834E
:10883C00E0FFE532D39F40047F0180027F008F333D
:10884C00804EAF31EF3395E0FEEF25E0FFEE33FEC7
:10885C0074082FF58274003EF583E0B532047F0175
:10886C0080027F008F338028AF31EF3395E0FEEF2D
:10887C0025E0FFEE33FE74082FF58274003EF5837D
:10888C00E0FFE532C39F50047F0180027F008F33ED
:10889C00E5336015E5312402FF7401A80708800256
:1088AC00C333D8FC42C8028961E5312402FF74014C
:0F88BC00A807088002C333D8FCF452C8028961B0
:0988CB0090025BE0F532028961C4
:1088D40090025BE0FEA3E0FFF53290000AE0FCA307
:1088E400E0FD4C6078EF4E6074D3ED9FEC9E503801
:1088F400E4F533F53474062534F58274003533F524
:1089040083E0B40113E5342404FF7401A80708804C
:1089140002C333D8FCF452C80534E534700205337D
:108924006402453370CF8035E4F533F5347406259D
:1089340034F58274003533F583E0B40112E5342450
:1089440004FF7401A807088002C333D8FC42C80599
:0D89540034E534700205336402453370D001
:0E8961001531C3E53164809480400302873EE7
:01896F0022E5
:10A929008B528A538954E92DF9EA3C8B55F556899E
:10A9390057E4F558F559C3855683855782E55495EB
:10A9490082E5539583502F7852E475F001123E5FEA
:10A9590012393DFFE5596F25E0FFE433FE74A72F57
:10A96900F58274893EF583E558FFE493F55874013F
:0AA97900936FF55980C0AE58AF5936
:01A9830022B1
:109F3A00E4900D6AF07B017A0C792712AA35900C0D
:109F4A0090E07004A3E064E1700C900C92E070045D
:109F5A00A3E064086018900C90E4F0A374E1F09018
:109F6A000C92E4F0A37408F0900D6A7401F0900C5E
:109F7A0079E0B4FF17900014E0900C79600574C87A
:109F8A00F080037464F0900D6A7401F0900C78E02C
:109F9A00640160077401F0900D6AF0900C14E0FC03
:109FAA00A3E0FDB40015ECB41011900C95E030E478
:109FBA000AE054EFF0900D6A7401F0E4B50515EC6F
:109FCA00B42011900C95E020E40AE04410F0900DC2
:109FDA006A7401F0900C27E0FF12005E400D900CAD
:109FEA0027E06007E4F0900D6A04F0900C3BE0FF74
:109FFA0012005E400D900C3BE06007E4F0900D6AA1
:10A00A0004F0900C4FE0FF12005E400D900C4FE000
:10A01A006007E4F0900D6A04F0900C98E0B4FF0732
:10A02A00E4F0900D6A04F0900C99E0B4FF11A3E0FB
:10A03A00B4FF0CE4900C99F0A3F0900D6A04F09030
:10A04A000D6AE0601012AD1E7B017A0C79277D80C3
:05A05A007C0012A7E4E8
:01A05F0022DE
:10AD1E00AF84E4F584781EF608F6A2AF33FEC2AF18
:10AD2E0043B701758F0718E6FC08E6F5828C83E4BD
:0DAD3E00F0F58F53B7FEEE24FF92AF8F8427
:01AD4B0022E5
:0AA7E4008B458A4689478C488D4951
:10A7EE0085844AE4F584781EF608F6A2AF33FFC2DC
:10A7FE00AF43B701758F05E4F54BF54CC3E54C95AA
:10A80E0049E5486480F8E54B64809850297845E422
:10A81E0075F001123E5F12393DFE781E0806E618ED
:10A82E00860470010614F5828C83EEF0054CE54C1F
:10A83E0070CA054B80C6E4F58F53B7FEEF24FF9226
:04A84E00AF854A8404
:01A8520022E3
:06AA35008B458A468947AB
:10AA3B00858448E4F549F54AF584A2AF33F54BC25A
:10AA4B00AF758F04E4FFFE054AE54AAC4970020579
:10AA5B004914F5828C83E493FD7845E475F001127B
:10AA6B003E5FED1239B60FBF00010EEF64804E70E2
:0DAA7B00D6E4F58FE54B24FF92AF854884AB
:01AA880022AB
:0EA5E8008E4C8F4D8C4E8D4F8B508A51895268
:09A5F60012007EEF30E7F9C2F912
:10A5FF00E4F557F5580558E558700205576440457E
:03A60F005770F28F
:10A61200E54D6401454C70047F8480027F871200FF
:10A622003EE4FF12003EE4FF12003EE4FF12003E51
:10A63200E4F555F556C3E556954FE54E6480F8E5C9
:10A6420055648098501DAB50AA51A95285568285F7
:10A652005583123956FF12003E0556E55670D6054F
:10A662005580D2D2F9AD54AC53AF4DAE4C02A6F0E8
:08A6F0008E598F5A8C5B8D5CC2
:10A6F80090093AE0FEA3E0FF12A4298F5D12007EC4
:06A70800EF30E7F9C2F991
:10A70E00E4F55EF55F055FE55F7002055E6440454A
:03A71E005E70F278
:10A72100E55D6010E55A6401455970047F8380122C
:10A731007F86800EE55A6401455970047F8280024C
:10A741007F8512003EE55CAE5B7806CEA2E713CEB4
:10A7510013D8F8FF12003EAF5CEF25E025E0FF12B1
:09A76100003EE4FF12003ED2F9B3
:01A76A0022CC
:02007E00C2F9C5
:10008000E4F569F56A056AE56A7002056964404548
:030090006970F2A2
:0C0093007FD712003EE4FF12003ED2F9BD
:01009F00223E
:0AA4C3008E498F4A8B4B8A4C894D5D
:09A4CD0012007EEF30E7F9C2F93C
:10A4D600E4F552F5530553E55370020552644045C1
:03A4E6005270F2BF
:10A4E9007FD212003EE54FAE4E7806CEA2E713CEDC
:10A4F90013D8F8FF12003EAF4FEF25E025E0FF1219
:10A50900003EE4FF12003EE4FF12003EE4FF1200A9
:10A519003EE4FF12003EE4FF12003EE4F550F5511F
:10A52900C3E551954AE5496480F8E550648098503F
:10A539001FE4FF12003EAB4BAA4CA94D8551828501
:10A549005083EF1239C80551E55170D4055080D0B8
:02A55900D2F935
:01A55B0022DD
:08A429008E608F618C628D636F
:0CA4310075640112007EEF30E7F9C2F9FB
:10A43D00E4F567F5680568E56870020567644045F1
:03A44D006770F243
:10A450007FD212003EE563AE627806CEA2E713CE4D
:10A4600013D8F8FF12003EAF63EF25E025E0FF129E
:10A47000003EE4FF12003EE4FF12003EE4FF120043
:10A480003EE4FF12003EE4FF12003EE4F565F5668F
:10A49000C3E5669561E5606480F8E5656480985081
:10A4A0001DE4FF12003EBFFF047F0180027F008F8A
:10A4B00064EF600A0566E56670D6056580D2D2F95C
:02A4C000AF6487
:01A4C2002277
:04AB22008E478F4883
:09AB260012007EEF30E7F9C2F9DC
:10AB2F00E4F549F54A054AE54A700205496440458E
:03AB3F004970F268
:10AB42007F5012003EE548AE477806CEC313CE13BF
:10AB5200D8F9FF12003EAF48EF25E025E0FF1200D2
:08AB62003EE4FF12003ED2F9AF
:01AB6A0022C8
:04AB6B008E498F4A36
:09AB6F0012007EEF30E7F9C2F993
:10AB7800E4F54BF54C054CE54C7002054B6440453B
:03AB88004B70F21D
:10AB8B007F8112003EE54AAE497806CEC313CE1341
:10AB9B00D8F9FF12003EAF4AEF25E025E0FF120087
:08ABAB003EE4FF12003ED2F966
:01ABB300227F
:06A853008C428D438B4492
:10A85900E5446002C2B68E458F46D3E5469543E589
:10A86900459542504BE54654077034C3E543954638
:10A87900FFE5429545FEC3EF9408EE94004020E5BC
:10A88900446008E546543F7002B2B6AF46AE451281
:10A89900AB2274072546F546E43545F5458007AFF3
:10A8A90046AE4512AB6B0546E54670AE054580AA36
:06A8B900E5446002C2B696
:01A8BF002276
:06A060008B318A328933C6
:06A06600D2F8D2F9C2FAA3
:10A06C00E4F537F5380538E53870020537644045B6
:03A07C003770F248
:02A07F00D2FA13
:10A08100E4F537F5380538E53870020537644045A1
:03A091003770F233
:10A0940012007EEF543C123F0AA0B60CA0C014A0DC
:10A0A400CA1CA0D424A0EF2CA10A34A1253C000092
:10A0B400A141AB31AA32A9337402801CAB31AA325C
:10A0C400A93374048012AB31AA32A933740880080E
:10A0D400AB31AA32A933741075F000123B16AB34BD
:10A0E400AA35A936740175F008804FAB31AA32A99C
:10A0F40033741075F000123B16AB34AA35A93674CC
:10A104000275F0108034AB31AA32A933742075F093
:10A1140000123B16AB34AA35A936740275F01080D0
:10A1240019AB31AA32A933742075F000123B16AB77
:0DA1340034AA35A936740475F020123B16CC
:01A1410022FB
:10FE00008E448F458E448F45E4F546F547A2AF33C7
:10FE1000F548C2AFE4F58443B701758F03C3E546E7
:10FE200094FC50168547828546837488F0E4254704
:10FE3000F54774043546F54680E3E4F58FF546F55D
:10FE400047F54BF54C75840FE54C54037002B2B680
:10FE500012FFB58F4DE54D30E7F6C2F9E4F54EF5EA
:10FE60004F054FE54F7002054E6440454E70F27FDE
:10FE7000D212FFA4E54CAE4B7806CEC313CE13D8F6
:10FE8000F9FF12FFA412FF9CE4FF12FFA4E4FF128B
:10FE9000FFA4E4FF12FFA4E4FF12FFA4E4FF12FF9B
:10FEA000A4E4F549F54AE4FF12FFA4744B254AF592
:10FEB0008274003549F583EFF0054AE54A70020582
:10FEC00049C3E549940240DED2F9E4F584758F0117
:10FED000F549F54A744B254AF58274003549F58396
:10FEE000E0FF0547E547AC467002054614F5828CF5
:10FEF00083EFF0054AE54A70020549B400D6E549AA
:10FF0000B402D1E4F58F054CE54C7002054BC39467
:07FF10007FE54B9400500354
:10FF170002FE45E4F58F53B7FEE54824FF92AFE4B0
:10FF2700F5D075840FF54BF54CC3E54B9420505431
:10FF3700E54C543F7002B2B512FFB58F4DE54D3019
:10FF4700E7F6C2F9E4F54EF54F054FE54F700205A8
:10FF57004E6440454E70F27F5012FFA4E54CAE4B05
:10FF67007806CEC313CE13D8F9FF12FFA412FF9C55
:10FF7700E4FF12FFA4D2F97408254CF54CE4354B85
:10FF8700F54B80A512FFB58F4DE54D30E7F6E4F54B
:05FF97008443EF01228C
:10FF9C00AF4CEF25E025E0FFAE84E4F5848F9B3079
:09FFAC00FFFDC2FFAF9B8E842211
:10FFB500C2F9E4F550F5510551E55170020550645B
:10FFC50040455070F27FD712FFA4E4FF12FFA4D280
:02FFD500F9220F
:109405009089A3E493FFAB32AA33A93490000112EB
:0A9415003956FDE4F54CF54D7B06D9
:04941F008F498B4B9B
:10942300754EFFE4F54FF550ED9089A393F5517414
:10943300232DF582E4340CF5837464F09089A3E45E
:1094430093B54919E54B64066013E54B6415600D4C
:1094530074102DF582E4340CF583E54BF0E551757A
:10946300F013A42480F582E43402F583123E6F7472
:10947300161239B6E55175F013A42480F582E4344D
:1094830002F583123E6F900001E5491239C8E55198
:1094930075F013A42480F582E43402F583123E6F41
:1094A300900002ED1239C87402254DF54DE4354C98
:1094B300F54CFFE55175F013A42480F582E43402E2
:1094C300F583123E6F900003EF1239C8E55175F032
:1094D30013A42480F582E43402F583123E6F9000D6
:1094E30004E54D1239C8E55175F013A42480F582C3
:1094F300E43402F583123E6F900005E54B1239C840
:10950300E4FEFFE55175F013A42480F582E43402F0
:10951300F583123E6F8F828E83123956624E0FBFD0
:1095230000010EEF64064E70DAE55175F013A424C2
:1095330080F582E43402F583123E6F900006E54E17
:109543001239C874FE254DF54D74FF354CF54CE5C5
:109553005175F013A42480F582E43402F583123E9E
:109563006FE92407F9E43AFAAD4DAC4C12A9298E00
:109573004F8F50EEFFE55175F013A42480F582E47C
:109583003402F583123E6F054DE54D7002054C2400
:1095930006F582E4354CF583EF1239C8E55175F0D1
:1095A30013A42480F582E43402F583123E6F054D43
:1095B300E54D7002054C2406F582E4354CF583E550
:1095C300501239C8E55175F013A42473F9740235A8
:1095D300F0FA7B01E54D2407FDE4354CFC12A98428
:0995E300E54D2407FFE4354CFEC0
:0195EC00225C
:084005008F318B328A338934BC
:10400D00E4900CD6F0A3F0900003123956FE900008
:10401D00041239567C002400FFEC3ECF24FECF3431
:10402D00FFFE900CD8F0FCA3EFF0FDE92407F9E4B6
:10403D003AFA12AAD8900CD6EEF0A3EFF04E603AF1
:10404D00AB32AA33A934900005123956FF641570AE
:10405D0003024923EF640670030249239000011205
:10406D0039562423F582E4340CF5837464F0900002
:0A407D0001123956FF7D04024430A1
:10408700AB32AA33A934900002123956FF9089A3A4
:10409700E4936F7003024141EFF47003024141EF73
:1040A70093FF3395E0FE90028075F013EF123E53B5
:1040B700EE75F013A42583F583123E6FE92407F903
:1040C700E43A8B3AF53B893CE5342407F9E4353388
:1040D700853237F5388939E4F535F536D3900CD97B
:1040E700E09536900CD8E0953540247837E475F0A4
:1040F70001123E5F12393DFF783AE475F001123E36
:104107005FEF1239B60536E53670D1053580CDAB90
:1041170032AA33A934900001123956FF90000212D7
:104127003956FD900005123956FB900CD8E0F54C36
:10413700A3E0F54D12941F024923AB32AA33A934E9
:10414700900005123956123F0A41A20641DD10417F
:10415700C615446B3045903145B83245E03346D0FB
:104167003446083546303646583746D038468039C3
:1041770046A83A43C44143C44246FC50474E5144C3
:10418700A05542FF70436371420A9048399146F443
:1041970093455894429998000048EF9000011239CE
:1041A700562410F582E4340CF583AB32AA33A934D4
:1041B7009000011239562410F582E4340C8010ABBC
:1041C70032AA33A93412393D2411F582E4340CF5AF
:1041D70083E4F00248DC900C16E0FFC39405400628
:1041E700EFD3941F4004EFB4E20512AA89800312AB
:1041F7009405900CD6EEF0A3EFF0AB32AA33A934B6
:034207000248DC8E
:10420A00900C16E0FFC394054006EFD3941F4004B8
:10421A00EFB4E20512AA898065AB32AA33A93490B9
:10422A000007123956FE9000081239567C00240005
:10423A00F53EEC3EF53DE53175F013A42480F58298
:10424A00E43402F583123E6FE92407F9E43AFA905E
:10425A00093AE0FEA3E0FF853D4E853E4F12A4C316
:10426A009089A3E493FFAB32AA33A93490000112D8
:10427A003956FD90093AE0F54CA3E012941B900CD4
:0F428A00D6EEF0A3EFF0AB32AA33A9340248DC32
:10429900900C16E0FFC394054006EFD3941F400429
:1042A900EFB4E20512AA89803CAB32AA33A9349053
:1042B9000007123956FE9000081239567C00240076
:1042C900F53EEC3EF53D90093AE0FCA3E0FDE9241A
:1042D90009F9E43AFA853D53853E547F027E00127E
:1042E900A5E8129405900CD6EEF0A3EFF0AB32AA34
:0642F90033A9340248DC89
:1042FF00900C16E0FFC394054006EFD3941F4004C3
:10430F00EFB4E20512AA89803AE53175F013A424BF
:10431F0080F582E43402F583123E6FE92407F9E455
:10432F003AFA12AA359089A3E493FFAB32AA33A9C4
:10433F0034900001123956FD754C00754D807B0687
:10434F0012941F900CD6EEF0A3EFF0AB32AA33A964
:10435F00340248DC900C16E0FFC394054006EFD3FF
:10436F00941F4004EFB4E20512AA89803712AD1EE4
:10437F00AB32E5342407F9E43533FA900CD8E0FE7C
:10438F00A3E0FFC39480EE94005006AC06AD078007
:10439F00047C007D8012A7E47B017A0C792712AA96
:1043AF0035129405900CD6EEF0A3EFF0AB32AA3392
:0543BF00A9340248DCF6
:1043C400900C16E0FFF53DAB32AA33A934900005FA
:1043D400123956FE7C00B441047D0080027D058CB8
:1043E4003E8D3FEE900C15E024FFFD900C14E0345C
:1043F400FFFC8C408D41AB32AA33A93490000112EA
:1044040039562423F582E4340CF583E4F0EFC394A5
:10441400054009900C16E0D3941F4007900C16E059
:10442400B4E217900001123956FF7D2012AA989029
:104434000CD6EEF0A3EFF0024923900C1674E2F0D0
:10444400129405900CD6EEF0A3EFF0E4FFFE12AB4D
:104454006B7B01AD41AC40AF3FAE3E12A853900C14
:0744640016E53DF0024923BB
:10446B00129405900CD6EEF0A3EFF0AB32AA33A961
:10447B00349000011239562423F582E4340CF58371
:10448B00E4F012007E8F3DE53D30E7F6E4F5844322
:05449B00EF01024923BE
:1044A000129405900CD6EEF0A3EFF07B017A02791E
:0C44B000737F007EE17D007C0012900C08
:1044BC00900CCA123DE400004650E4FFFEFDFC9057
:1044CC000CCA123D9CD3123CB54017900CCA123D3D
:1044DC009074FFFBFAF9F8123B62900CCA123DD8AB
:0244EC0080D876
:1044EE00E4F584C2ACC298D29975840153E7BFC279
:0344FE0098D299B8
:1045010075840F30E815C39002B4E094099002B3AA
:10451100E094004006E4F58443EF01E4F58430982B
:1045210017758401309911C299F58485993DC29816
:10453100B2B4758401853D997584013098C2E4F562
:10454100843099BCC29975840185993DC298B2B5F0
:05455100F584853D9991
:1045560080A9129405900CD6EEF0A3EFF0AB32AA28
:1045660033A9349000011239562423F582E4340C21
:10457600F583E4F0900014E07003024923900007ED
:10458600123956FF12AD76024923129405900CD6C5
:10459600EEF0A3EFF0AB32AA33A934900001123942
:1045A600562423F582E4340CF583E4F012169102C6
:1045B6004923129405900CD6EEF0A3EFF0AB32AA85
:1045C60033A9349000011239562423F582E4340CC1
:1045D600F583E4F0125163024923129405900CD638
:1045E600EEF0A3EFF0AB32AA33A9349000011239F2
:1045F600562423F582E4340CF583E4F01284880211
:104606004923129405900CD6EEF0A3EFF0AB32AA34
:1046160033A9349000011239562423F582E4340C70
:10462600F583E4F0125EB8024923129405900CD685
:10463600EEF0A3EFF0AB32AA33A9349000011239A1
:10464600562423F582E4340CF583E4F0125857021D
:104656004923129405900CD6EEF0A3EFF0AB32AAE4
:1046660033A9349000011239562423F582E4340C20
:10467600F583E4F0127164024923129405900CD676
:10468600EEF0A3EFF0AB32AA33A934900001123951
:10469600562423F582E4340CF583E4F0126D080207
:1046A6004923129405900CD6EEF0A3EFF0AB32AA94
:1046B60033A9349000011239562423F582E4340CD0
:1046C600F583E4F0128DDE024923AB32AA33A93416
:1046D6009000011239562423F582E4340CF583E464
:1046E600F0900005123956FF127DD502492390023B
:1046F600E074FF0247D1900C16E064F07027754510
:1047060001754600754705AB32AA33A93412A2CF0C
:10471600129405900CD6EEF0A3EFF00575E57570D2
:104726001E0574801AAB32AA33A9349000011239DF
:1047360056FF7D0812AA98900CD6EEF0A3EFF0ABC8
:1047460032AA33A9340248DC900C16E0B4F114AB5B
:1047560032AA33A934900007123956FF900005E0BB
:104766006F6072AB32AA33A934900001123956FF3A
:104776007D0812AA98900CD6EEF0A3EFF0AB32AA01
:1047860033A9349000011239562423F582E4340CFF
:04479600F583E4F0D3
:10479A00900CCE123DE40000AFC8E4FFFEFDFC9091
:1047AA000CCE123D9CD3123CB54017900CCE123D54
:1047BA009074FFFBFAF9F8123B62900CCE123DD8C6
:0247CA0080D895
:1047CC009002E074F2F0900CA97401F002492312EB
:1047DC009405900CD6EEF0A3EFF0AB32AA33A934CB
:1047EC009000011239562423F582E4340CF583E44D
:0147FC00F0CC
:1047FD00900CD2123DE40000AFC8E4FFFEFDFC902A
:10480D000CD2123D9CD3123CB54017900CD2123DE8
:10481D009074FFFBFAF9F8123B62900CD2123DD85E
:02482D0080D831
:10482F00AF75AE7412AC87024923900CA97401F0D6
:10483F00AB32AA33A9349000071239569002E0F038
:10484F00D3900CD9E09401900CD8E09400406D9077
:10485F000008123956540F900BD0F09000091239FE
:10486F0056900CA8F0E4F535F536AB32AA33A934DF
:10487F00E536240AFFE435358F82F583123956FF6A
:10488F00745F2536F58274023535F583EFF0053602
:10489F00E536700205356404453570CEAB32AA3368
:1048AF00A93490000E1239569002B2F090000F12F8
:1048BF003ADEFF9002ABE5F0F0A3EFF01294059013
:1048CF000CD6EEF0A3EFF0AB32AA33A9349000016F
:1048DF001239562423F582E4340CF583E4F0803446
:1048EF00AB32AA33A9349000011239562423F58232
:1048FF00E4340CF5837464F0900001123956FF7D97
:10490F000212AA98900CD6EEF0A3EFF074FF900C61
:04491F00D6F0A3F03B
:08492300900CD6E0FEA3E0FFBA
:01492B002269
:0AAAD8008B428A4389448C458D4669
:10AAE20012A9298E478F48AB42AA43A944854682C0
:10AAF2008545831239567F00FEE5462401FDE43583
:10AB0200458D82F5831239562FFFE43EFEE548B5A6
:0FAB12000709E547B50604E4FEFF227EFF7FFF3B
:01AB21002211
:0FAA8900AB32AA33A934900001123956FF7D2059
:10AA9800AE07EE9089A393FB3395E0FA9002807598
:10AAA800F013EB123E53EA75F013A42583F58312D5
:10AAB8003E6F900007ED1239C89089A3E493FFAD6B
:10AAC80006754C00754D017B1512941FE4FEFF229C
:06A2CF008B428A43894422
:10A2D500E4F548F549900003123956FE9000041242
:10A2E5003956FDEEF54AEDF54BE4F548F549E54BF4
:10A2F50024FEFFE54A34FFFEC36480948250028049
:10A30500047E027F00C3E5499FEE6480F8E548645A
:10A3150080985048AB45AA46A947C003C002C00172
:10A3250012393DFFAB42AA43A944E5492407FDE4A0
:10A3350035488D82F583123956FE744B2549F582D1
:10A3450074003548F583EEF06FD001D002D00312CA
:10A3550039B60549E5497096054880927E00E57550
:10A365005401FF90093AE0FCA3E0FD7B017A0079F6
:0AA375004B85745385755402A5E86A
:04AC87008E428F4327
:10AC8B0090FE00E493FE740193FF900CDDEEF0A3B5
:10AC9B00EFF0BE8012BFFE0F7B007AFE7902900CA4
:0EACAB00DA123E78023F5DAF75AE7412FE0005
:01ACB9002278
:10A8C0008584317B017A0C792712AA35900014E037
:10A8D000702EF58475D98075D84075DA4275DB42E3
:10A8E000900C8CE0A3E0F5FB900C8CE0A3E0F5FC71
:10A8F000900C8EE0A3E0F5FD900C8EE0A3E0F5FE59
:10A90000900CA7E0FD7C007E057F001239FC8E7163
:10A910008F72E4F58475E8C075D107F5BAF5BB759B
:08A92000BC7043E7028531849D
:01A92800220C
:03007B0002999F48
:10999F00C0E0C0F0C083C082C0D075D000C000C08E
:0B99AF0002C003C004C005C006C007D2
:1099BA00758400C2EDE57325E02425F582E43400C0
:1099CA00F583E5BF85BEF0123A87E573123F0A991F
:1099DA00F50099FD019A05029A18039A20049A281B
:1099EA00059A30069A380700009A3E75BB017573CE
:1099FA0001804175BB027573028039900014E060E2
:109A0A000575BB07800375BB08757303802675BB94
:109A1A0003757304801E75BB04757305801675BBC8
:109A2A0005757306800E75BB06757307800675BBD0
:109A3A0000757300E5721572700215711445716034
:049A4A0003029B3147
:109A4E00900CA7E0FF74A08FF0841313543F75227F
:109A5E0000F523E4FBFAEB64034A7026900014E051
:109A6E007020900CA7E075F00A84FF7E0090002B0A
:109A7E00E0FCA3E0FD1239EA90001BEEF0A3EFF03C
:109A8E008037EB25E0FFEA33FE74252FF582740054
:109A9E003EF583E0FEA3E0FFAC22AD231239FCAC11
:109AAE0006AD07EB25E0FFEA33FE74152FF5827441
:109ABE00003EF583ECF0A3EDF0EB25E0FFEA33FE7C
:109ACE0074252FF58274003EF583E4F0A3F00BBBF2
:109ADE0000010AEB64084A6003029A64900004E0F5
:109AEE007029900C86E0FEA3E0FF900C85E02FFF1E
:109AFE00900C84E03EFE900015E0FCA3E0FDC3EF69
:109B0E009DFFEE9C900015F0A3EFF0900CA7E0FDEA
:109B1E007C007E057F001239FC8E718F7290029A46
:039B2E007401F0CF
:0C9B3100E5737003D38001C34002D2EC46
:109B3D00D007D006D005D004D003D002D000D0D0AD
:099B4D00D082D083D0F0D0E032C8
:03A1EF000119FF54
:10A76B00AF8475840F75E1EF75E20775E34475A44B
:10A77B00157580EA75ADFF75A53D759001E4F5A6DD
:10A78B0075A0FFF59E75E8FFE5E854E0FEBEC0043A
:10A79B007E0180027E00900014EEF0600875B079A7
:10A7AB0075A7FE800675B07E75A7F8E4F5C8759C95
:10A7BB00FFF59D75D8FF900014E0FE600875F897C3
:10A7CB00759FF78006759FFF75F8F7EE6006C2FC64
:08A7DB00D2FB8002D2FC8F8446
:01A7E3002253
:10ABB400AF84E4F584F5D875D980F5F9F5FAF5E9AB
:10ABC40075EA0C75DC4675D840900CABF0A3F09098
:10ABD400025BF0A3F0F584C28C758905438E08F5F9
:10ABE4008AF58CC28DD28C75840175888075893004
:07ABF400D2A943E6308F8473
:01ABFB002237
:0DAE1000AF84E4F584C289D288D2A88F8473
:01AE1D002212
:03005B00029B56AF
:109B5600C0E0C0F0C083C082C0D075D000C000C0D5
:0D9B660001C002C003C004C005C006C00756
:109B730053E6CF758400AF8CEFFEAD8A7C00E42DF5
:109B8300F525EC3EF524900CABE0FEA3E0FFC3E526
:109B9300259FFFE5249EFED3EF9464EE94005003CB
:109BA300029CAFC28C758A00758C00C28DD28CE585
:049BB30019F47041F0
:109BB700F519F526AE24AF25E52625E02435F582EF
:109BC700E43400F583EEF0A3EFF0E4FCFDE51D2F90
:109BD700FFE51C3EFEED351BFDEC351A8F1D8E1C77
:0E9BE7008D1BF51A0526E526B404C990025B15
:109BF500029CA10519E519C394044003751900E5F4
:109C05001925E02435F582E43400F583E0FEA3E070
:109C1500FBC3E51D9BFFE51C9EFEE51B9400FDE5D2
:109C25001A94008F1D8E1C8D1BF51AAE24AF25E5E9
:109C35001925E02435F582E43400F583EEF0A3EF31
:109C4500F0E4FCFDE51D2FFFE51C3EFEED351BFD9B
:109C5500EC351A8F1D8E1C8D1BF51AE47B04FAF961
:109C6500F8AC1A123C088E248F25C390025CE0954F
:109C750025FF90025BE09524FEC394004006AC06E8
:109C8500AD078009C3E49FFFE49EFCAD0790025B2E
:109C9500E0C313FFC3ED9FEC94004007E524F0A358
:109CA500E525F0900CABE4F0A3F07584015388CF63
:039CB50043E63053
:109CB800D007D006D005D004D003D002D001D00000
:0B9CC800D0D0D082D083D0F0D0E032AA
:0300530002ABFC01
:10ABFC00C0E0C083C082C0D075D000C004C005C006
:10AC0C0006C00753E6CF758400AF8CEFFEAD8A7C8F
:10AC1C0000E42DFFEC3E900CABF0A3EFF07584013B
:10AC2C005388CF43E630D007D006D005D004D0D01F
:07AC3C00D082D083D0E0328A
:03000B0002ACBA8A
:10ACBA00C0E0C083C08253E6CF758400C28C758A17
:10ACCA0000758C00D28C900CABE4F0A3F090025B80
:10ACDA00F0A3F07584015388CF43E630D082D08345
:03ACEA00D0E03285
:0300030002A672E0
:10A67200C0E0C0F0C083C082C0D075D000C000C0AE
:09A6820003C004C005C006C007B6
:10A68B00A2AFE433FB900CAE7401F0900CA7E0FD8D
:10A69B007C007E057F001239FC8E718F7275730002
:10A6AB007F10900025E4F0A3DFFCC2AF53E7FE75EB
:10A6BB008400C2ECC2ED75BB0075840175C80074D3
:0EA6CB00FFF5CDF5CC43E70143C8042B92AF59
:10A6D900D007D006D005D004D003D000D0D0D08286
:07A6E900D083D0F0D0E03275
:02FDFE0080FE85
:1075A100257300506C61636520756E697420666C8B
:1075B1006174206F6E206C6576656C2073757266E0
:1075C1006163652E00466C6970206F7665722E20AE
:1075D1004661636520646F776E2E00486F6C64208E
:1075E100766572746963616C2C2047505320616E1B
:1075F10074656E6E61206A61636B2075702E004840
:107601006F6C6420766572746963616C2C204750DD
:107611005320616E74656E6E61206A61636B2064D4
:107621006F776E2E005374616E64206F6E207269E5
:1076310067687420736964652E005374616E6420F9
:107641006F6E206C65667420736964652E00496EE7
:1076510076657274696E6720582056616C75657322
:1076610000496E76657274696E6720592056616CA7
:1076710075657300496E76657274696E67205A206C
:1076810056616C7565730020005A65726F20506FEA
:10769100696E74733A20582025752C205920257560
:1076A1002C205A20257500582052616E67653A20BA
:1076B10025752C20257500592052616E67653A2089
:1076C10025752C202575005A2052616E67653A2078
:1076D10025752C2025750053746F72696E672043E0
:1076E100616C6962726174696F6E204461746120BA
:1076F100696E20466C6173682E0043616C69627229
:107701006174696F6E20436F6D706C6574652E00D6
:107711005A65726F696E6720582C20592050574D59
:107721000046696E616C2043616C3A2025752C25F9
:10773100750046696E616C2056616C3A2025752C86
:1077410025750044617461666C61736820546573CA
:1077510074002A2A20466C617368204641494C45D1
:1077610044202A2A2C20706167652025642C206220
:1077710079746525640050616765202564206F6B0D
:107781000054657374205061737365642E00496EF3
:10779100707574205465737400444947494E3A200A
:1077A1000031003000583A2025752C20593A202507
:1077B10075005A3A2025752C2035563A202575003A
:1077C10035563A2025752C20543A20257500413034
:1077D1003A2025752C2041313A2025750041323A55
:1077E1002025752C2041333A20257500496E70758E
:1077F100745465737420436F6D706C6574652E00ED
:107801004F757470757420546573740062697420C7
:107811002564004F75747075745465737420436FDB
:107821006D706C6574652E00412F4420546573742E
:1078310000426F61726420666C61742E205465731E
:107841007420666978747572652061747461636807
:1078510065642E005820205920203556205A2020BA
:10786100413020413120413220413300312020205C
:10787100003020202000414454657374205041534E
:10788100532E002A2A2041445465737420464149ED
:107891004C202A2A004469676974616C20494F2091
:1078A10054657374004F6E6C792056616C69642065
:1078B100666F7220535532202D2045786974696EA8
:1078C100672E00446967494F5465737420506F698E
:1078D1006E74202564002A2A20204641494C202A22
:1078E1002A00446967494F546573742050415353CA
:1078F1002E002A2A20446967494F54657374204633
:1079010041494C202A2A004175746F4F6E205465FD
:10791100737400456E61626C696E67204175746FA6
:107921004F6E2E2E2E0044726F7070696E67203577
:107931005620456E61626C650044697361626C69D1
:107941006E67204175746F4F6E2E2E2E0041757437
:107951006F4F6E5465737420504153532E00534D35
:107961004275732054657374202D204D61737465C5
:10797100720025752042797465732C20257520438A
:1079810079636C6573002A2A20534D427573205424
:10799100657374204641494C202A2A00534D427593
:1079A10073205465737420506173732E00534D42DC
:1079B10075732054657374202D20536C61766500B6
:1079C10001020408102040800102040810204080B8
:101691008584429000047401F075840FFB7A0C7903
:1016A1002712AA35E4900C77F09089A393900C78D7
:1016B100F0900014E0900C79600574C8F080037418
:1016C10064F0900C90E4F0A374E1F0900C92E4F0DB
:1016D100A37408F074FFFFFEFDFC900C7A123D9C90
:1016E100C3123CCB700A900C7A123DE4000000005A
:1016F100900C7EE0B4FF037401F0900C7FE0B4FF26
:1017010003740AF0900C9474FFF0A3F0900C8074B1
:1017110008F0A3E4F0900C827408F0A3E4F0900CBC
:1017210027F0900C3BF0900C4FF0900C8EF0A374CE
:10173100A0F0900C8CE4F0A374A0F0E49002B3F05C
:0A174100A3F0D2B3D2B6D2B5D2B4F1
:10174B00900CDA123DE400015F90E4FFFEFDFC908B
:10175B000CDA123D9CD3123CB54017900CDA123DBB
:10176B009074FFFBFAF9F8123B62900CDA123DD839
:02177B0080D814
:10177D009089A4E493FF3395E0FE90028075F013F9
:10178D00EF123E53EE75F013A42583F583123E6FD1
:10179D00E92407F9E43AFA754CFF754D75754EA1BC
:1017AD00754FFF7550757551A41264999089A4E415
:1017BD0093FF3395E0FE90028075F013EF123E53C8
:1017CD00EE75F013A42583F583123E6FE92407F916
:1017DD00E43AFA12000EEF2401F54DE43EF54C907B
:0C17ED0089A3E493FF7B737D0112941F1D
:1017F900900CDE123DE400015F90E4FFFEFDFC90D9
:101809000CDE123D9CD3123CB54017900CDE123D04
:101819009074FFFBFAF9F8123B62900CDE123DD886
:0218290080D865
:10182B001297CC900014E06065900DD0E0FEA3E021
:10183B00FF900DCBE02FFF900DCAE03EC313FEEFE0
:10184B0013FF900C80EEF0A3EFF0900DD2E0FEA30F
:10185B00E0FF900DCDE02FFF900DCCE03EC313FECB
:10186B00EF13FF900C82EEF0A3EFF0900DD4E0FE9F
:10187B00A3E0FF900DCFE02FFF900DCEE03EC31302
:10188B00FEEF13FF900C9FEEF0A3EFF080031279A5
:10189B00D1900014E0700302197BC2B3C2B59089DA
:1018AB00A4E493FF3395E0FE90028075F013EF12E2
:1018BB003E53EE75F013A42583F583123E6FE92496
:1018CB0007F9E43AFA754CFF754D75754EA1754FD6
:1018DB00FF7550757551C61264999089A4E493FFF6
:1018EB003395E0FE90028075F013EF123E53EE75C8
:1018FB00F013A42583F583123E6FE92407F9E43A2C
:10190B00FA12000EEF2401F54DE43EF54C9089A33D
:0A191B00E493FF7B737D0112941F1B
:10192500900CE2123DE400015F90E4FFFEFDFC90A7
:101935000CE2123D9CD3123CB54017900CE2123DCF
:101945009074FFFBFAF9F8123B62900CE2123DD855
:0219550080D838
:101957001297CC900DD4E0FEA3E0FF900DCFE02FBF
:10196700FF900DCEE03EC313FEEF13FF900C9DEEEC
:10197700F0A3EFF0C2B3C2B6C2B5C2B49089A4E473
:1019870093FF3395E0FE90028075F013EF123E53FC
:10199700EE75F013A42583F583123E6FE92407F94A
:1019A700E43AFA754CFF754D75754EA1754FFF7585
:1019B70050757551DC1264999089A4E493FF3395AF
:1019C700E0FE90028075F013EF123E53EE75F013B0
:1019D700A42583F583123E6FE92407F9E43AFA1246
:1019E700000EEF2401F54DE43EF54C9089A3E493F6
:0819F700FF7B737D0112941FB8
:1019FF00900CE6123DE400015F90E4FFFEFDFC90C9
:101A0F000CE6123D9CD3123CB54017900CE6123DEC
:101A1F009074FFFBFAF9F8123B62900CE6123DD876
:021A2F0080D85D
:101A31001297CC900DD0E0FEA3E0FF900DCBE02FEC
:101A4100FF900DCAE03EC313FEEF13FF900C86EE2C
:101A5100F0A3EFF0900014E06021900DD4E0FEA31C
:101A6100E0FF900DCFE02FFF900DCEE03EC313FEBF
:101A7100EF13FF900C9BEEF0A3EFF0D2B39089A48B
:101A8100E493FF3395E0FE90028075F013EF123E70
:101A910053EE75F013A42583F583123E6FE92407F5
:101AA100F9E43AFA754CFF754D75754EA1754FFF06
:101AB1007550767551001264999089A4E493FF33AF
:101AC10095E0FE90028075F013EF123E53EE75F033
:101AD10013A42583F583123E6FE92407F9E43AFA4A
:101AE10012000EEF2401F54DE43EF54C9089A3E47C
:091AF10093FF7B737D0112941F29
:101AFA00900CEA123DE400015F90E4FFFEFDFC90C9
:101B0A000CEA123D9CD3123CB54017900CEA123DE8
:101B1A009074FFFBFAF9F8123B62900CEA123DD876
:021B2A0080D861
:101B2C001297CC900DD0E0FEA3E0FF900DCBE02FF0
:101B3C00FF900DCAE03EC313FEEF13FF900C84EE32
:101B4C00F0A3EFF0D2B69089A4E493FF3395E0FEB6
:101B5C0090028075F013EF123E53EE75F013A4252E
:101B6C0083F583123E6FE92407F9E43AFA754CFFCA
:101B7C00754D75754EA1754FFF75507675512612C2
:101B8C0064999089A4E493FF3395E0FE90028075EC
:101B9C00F013EF123E53EE75F013A42583F5831268
:101BAC003E6FE92407F9E43AFA12000EEF2401F52E
:101BBC004DE43EF54C9089A3E493FF7B737D0112B9
:021BCC00941F64
:101BCE00900CEE123DE400015F90E4FFFEFDFC90F0
:101BDE000CEE123D9CD3123CB54017900CEE123D0C
:101BEE009074FFFBFAF9F8123B62900CEE123DD89E
:021BFE0080D88D
:101C00001297CC900DD2E0FEA3E0FF900DCDE02F17
:101C1000FF900DCCE03EC313FEEF13FF900C88EE57
:101C2000F0A3EFF0D2B59089A4E493FF3395E0FEE2
:101C300090028075F013EF123E53EE75F013A42559
:101C400083F583123E6FE92407F9E43AFA754CFFF5
:101C5000754D75754EA1754FFF75507675513B12D8
:101C600064999089A4E493FF3395E0FE9002807517
:101C7000F013EF123E53EE75F013A42583F5831293
:101C80003E6FE92407F9E43AFA12000EEF2401F559
:101C90004DE43EF54C9089A3E493FF7B737D0112E4
:021CA000941F8F
:101CA200900CF2123DE400015F90E4FFFEFDFC9017
:101CB2000CF2123D9CD3123CB54017900CF2123D2F
:101CC2009074FFFBFAF9F8123B62900CF2123DD8C5
:021CD20080D8B8
:101CD4001297CC900DD2E0FEA3E0FF900DCDE02F43
:101CE400FF900DCCE03EC313FEEF13FF900C8AEE81
:101CF400F0A3EFF0D2B4900C84E0FEA3E0FFC39015
:101D04000C87E09F900C86E09E4003021DE39089BF
:101D1400A4E493FF3395E0FE90028075F013EF1274
:101D24003E53EE75F013A42583F583123E6FE92428
:101D340007F9E43AFA754CFF754D75754EA1754F68
:101D4400FF75507675514F1264999089A4E493FFFE
:101D54003395E0FE90028075F013EF123E53EE755A
:101D6400F013A42583F583123E6FE92407F9E43ABE
:101D7400FA12000EEF2401F54DE43EF54C9089A3D0
:0A1D8400E493FF7B737D0112941FAE
:101D8E00900CF6123DE400015F90E4FFFEFDFC9026
:101D9E000CF6123D9CD3123CB54017900CF6123D3A
:101DAE009074FFFBFAF9F8123B62900CF6123DD8D4
:021DBE0080D8CB
:101DC000900C86E0F543A3E0F544900C84E0FFA37B
:101DD000E0900C86CFF0A3EFF0900C84E543F0A3E5
:101DE000E544F0900C88E0FEA3E0FFC3900C8BE08C
:101DF0009F900C8AE09E4003021ECC9089A4E4933D
:101E0000FF3395E0FE90028075F013EF123E53EE23
:101E100075F013A42583F583123E6FE92407F9E4D6
:101E20003AFA754CFF754D75754EA1754FFF75509B
:101E3000767551621264999089A4E493FF3395E01A
:101E4000FE90028075F013EF123E53EE75F013A46E
:101E50002583F583123E6FE92407F9E43AFA12006C
:101E60000EEF2401F54DE43EF54C9089A3E493FF79
:071E70007B737D0112941F3A
:101E7700900CFA123DE400015F90E4FFFEFDFC9038
:101E87000CFA123D9CD3123CB54017900CFA123D48
:101E97009074FFFBFAF9F8123B62900CFA123DD8E6
:021EA70080D8E1
:101EA900900C8AE0F543A3E0F544900C88E0FFA389
:101EB900E0900C8ACFF0A3EFF0900C88E543F0A3F3
:101EC900E544F0900014E07003021FBE900C9DE001
:101ED900FEA3E0FFC3900CA0E09F900C9FE09E4002
:101EE90003021FBE9089A4E493FF3395E0FE90029C
:101EF9008075F013EF123E53EE75F013A42583F5A8
:101F090083123E6FE92407F9E43AFA754CFF754DDF
:101F190075754EA1754FFF75507675517512649997
:101F29009089A4E493FF3395E0FE90028075F01345
:101F3900EF123E53EE75F013A42583F583123E6F1D
:101F4900E92407F9E43AFA12000EEF2401F54DE409
:101F59003EF54C9089A3E493FF7B737D0112941F96
:101F6900900CFE123DE400015F90E4FFFEFDFC9041
:101F79000CFE123D9CD3123CB54017900CFE123D4D
:101F89009074FFFBFAF9F8123B62900CFE123DD8EF
:021F990080D8EE
:101F9B00900C9FE0F543A3E0F544900C9DE0FFA36C
:101FAB00E0900C9FCFF0A3EFF0900C9DE543F0A3D6
:101FBB00E544F09089A4E493FF3395E0FE90028012
:101FCB0075F013EF123E53EE75F013A42583F583D2
:101FDB00123E6FE92407F9E43AFA754CFF754D751B
:101FEB00754EA1754FFF7550767551881264999097
:101FFB0089A4E493FF3395E0FE90028075F013EF14
:10200B00123E53EE75F013A42583F583123E6FE950
:10201B002407F9E43AFA12000EEF2401F54DE43EE1
:0F202B00F54C9089A3E493FF7B737D0112941F02
:10203A00900D02123DE400015F90E4FFFEFDFC906A
:10204A000D02123D9CD3123CB54017900D02123D71
:10205A009074FFFBFAF9F8123B62900D02123DD818
:02206A0080D81C
:10206C00754CFF754D76754E8A900C80E0F54FA33C
:10207C00E0F550900C82E0F551A3E0F552900C9BEA
:10208C00E0F553A3E0F5547B017A0D791A126499AB
:10209C009089A4E493FF3395E0FE90028075F013D1
:1020AC00EF123E53EE75F013A42583F583123E6FA9
:1020BC00E92407F9E43AFA754CFF754D75754EA194
:1020CC00754F0175500D75511A1264999089A4E4DD
:1020DC0093FF3395E0FE90028075F013EF123E53A0
:1020EC00EE75F013A42583F583123E6FE92407F9EE
:1020FC00E43AFA12000EEF2401F54DE43EF54C9053
:0C210C0089A3E493FF7B737D0112941FF4
:10211800900D06123DE400015F90E4FFFEFDFC9087
:102128000D06123D9CD3123CB54017900D06123D8A
:102138009074FFFBFAF9F8123B62900D06123DD835
:0221480080D83D
:10214A009089A4E493FF3395E0FE90028075F01322
:10215A00EF123E53EE75F013A42583F583123E6FFA
:10216A00E92407F9E43AFA754CFF754D76754EA8DD
:10217A00900C84E0F54FA3E0F550900C86E0F55101
:10218A00A3E0F5521264999089A4E493FF3395E091
:10219A00FE90028075F013EF123E53EE75F013A411
:1021AA002583F583123E6FE92407F9E43AFA12000F
:1021BA000EEF2401F54DE43EF54C9089A3E493FF1C
:0721CA007B737D0112941FDD
:1021D100900D0A123DE400015F90E4FFFEFDFC90CA
:1021E1000D0A123D9CD3123CB54017900D0A123DC9
:1021F1009074FFFBFAF9F8123B62900D0A123DD878
:0222010080D883
:102203009089A4E493FF3395E0FE90028075F01368
:10221300EF123E53EE75F013A42583F583123E6F40
:10222300E92407F9E43AFA754CFF754D76754EB813
:10223300900C88E0F54FA3E0F550900C8AE0F5513F
:10224300A3E0F5521264999089A4E493FF3395E0D7
:10225300FE90028075F013EF123E53EE75F013A457
:102263002583F583123E6FE92407F9E43AFA120055
:102273000EEF2401F54DE43EF54C9089A3E493FF62
:072283007B737D0112941F23
:10228A00900D0E123DE400015F90E4FFFEFDFC900C
:10229A000D0E123D9CD3123CB54017900D0E123D07
:1022AA009074FFFBFAF9F8123B62900D0E123DD8BA
:0222BA0080D8CA
:1022BC009089A4E493FF3395E0FE90028075F013AF
:1022CC00EF123E53EE75F013A42583F583123E6F87
:1022DC00E92407F9E43AFA754CFF754D76754EC84A
:1022EC00900C9DE0F54FA3E0F550900C9FE0F5515C
:1022FC00A3E0F5521264999089A4E493FF3395E01E
:10230C00FE90028075F013EF123E53EE75F013A49D
:10231C002583F583123E6FE92407F9E43AFA12009B
:10232C000EEF2401F54DE43EF54C9089A3E493FFA8
:07233C007B737D0112941F69
:10234300900D12123DE400015F90E4FFFEFDFC904E
:102353000D12123D9CD3123CB54017900D12123D45
:102363009074FFFBFAF9F8123B62900D12123DD8FC
:0223730080D810
:102375009089A4E493FF3395E0FE90028075F013F5
:10238500EF123E53EE75F013A42583F583123E6FCD
:10239500E92407F9E43AFA754CFF754D75754EA1B8
:1023A500754FFF7550767551D81264999089A4E4DC
:1023B50093FF3395E0FE90028075F013EF123E53C4
:1023C500EE75F013A42583F583123E6FE92407F912
:1023D500E43AFA12000EEF2401F54DE43EF54C9077
:1023E50089A3E493FF7B737D0112941F12AD1E7BBD
:0C23F500017A0C79277D7A7C0012A7E4A5
:10240100900D16123DE400015F90E4FFFEFDFC908B
:102411000D16123D9CD3123CB54017900D16123D7E
:102421009074FFFBFAF9F8123B62900D16123DD839
:0224310080D851
:102433009089A4E493FF3395E0FE90028075F01336
:10244300EF123E53EE75F013A42583F583123E6F0E
:10245300E92407F9E43AFA754CFF754D75754EA1F9
:10246300754FFF7550767551FB1264999089A4E4FA
:1024730093FF3395E0FE90028075F013EF123E5305
:10248300EE75F013A42583F583123E6FE92407F953
:10249300E43AFA12000EEF2401F54DE43EF54C90B8
:1024A30089A3E493FF7B737D0112941FD2B3C2B659
:0F24B300C2B5C2B4E4900004F0129F3A8542848F
:0124C20022F7
:1097CC00900DCE740FF0A374FFF0900DCC740FF0CD
:1097DC00A374FFF0900DCA740FF0A374FFF0E49023
:1097EC000DD4F0A3F0900DD2F0A3F0900DD0F0A317
:1097FC00F0FFFE90029AE060FA900015E0FCA3E006
:10980C00FD900DCAE0FAA3E0FBC39DEA9C5006ACA8
:10981C0002AD038008900015E0FCA3E0FD900DCA9A
:10982C00ECF0A3EDF0900017E0FCA3E0FD900DCC64
:10983C00E0FAA3E0FBC39DEA9C5006AC02AD0380AA
:10984C0008900017E0FCA3E0FD900DCCECF0A3ED2C
:10985C00F090001BE0FCA3E0FD900DCEE0FAA3E03D
:10986C00FBC39DEA9C5006AC02AD03800890001B24
:10987C00E0FCA3E0FD900DCEECF0A3EDF090001514
:10988C00E0FCA3E0FD900DD0E0FAA3E0FBD39DEA51
:10989C009C4006AC02AD038008900015E0FCA3E0F0
:1098AC00FD900DD0ECF0A3EDF0900017E0FCA3E0E0
:1098BC00FD900DD2E0FAA3E0FBD39DEA9C4006ACF0
:1098CC0002AD038008900017E0FCA3E0FD900DD2E0
:1098DC00ECF0A3EDF090001BE0FCA3E0FD900DD4A8
:1098EC00E0FAA3E0FBD39DEA9C4006AC02AD0380FA
:1098FC000890001BE0FCA3E0FD900DD4ECF0A3ED70
:10990C00F0E490029AF00FBF00010EEF64284E6055
:10991C00030297FF900DCCE0FEA3E0FF900DD2E088
:10992C00FCA3E0FDC39FFFEC9EFEC39400400280AD
:10993C0016900DCCE0FEA3E0FFC3ED9FFFEC9EFE66
:10994C00C3E49FFFE49EFED3EF9404EE9400400327
:10995C000297CC900DCAE0FEA3E0FF900DD0E0FC86
:10996C00A3E0FDC39FFFEC9EFEC394004002801653
:10997C00900DCAE0FEA3E0FFC3ED9FFFEC9EFEC37B
:10998C00E49FFFE49EFED3EF9404EE9400400302A8
:02999C0097CC66
:01999E0022A6
:1079D100E4F545F546F584900C8EE0A3E0F5FD90C5
:1079E1000C8EE0A3E0F5FE900C8CE0A3E0F5FB909B
:1079F1000C8CE0A3E0F5FC9089A4E493FF3395E0BF
:107A0100FE90028075F013EF123E53EE75F013A451
:107A11002583F583123E6FE92407F9E43AFA754CA0
:107A2100FF754D75754EA1754FFF755077755111E5
:107A31001264999089A4E493FF3395E0FE9002804B
:107A410075F013EF123E53EE75F013A42583F58301
:107A5100123E6FE92407F9E43AFA12000EEF24010D
:107A6100F54DE43EF54C9089A3E493FF7B737D01D2
:037A710012941F4D
:107A7400900D6A123DE400015F90E4FFFEFDFC906E
:107A84000D6A123D9CD3123CB54017900D6A123D0D
:107A94009074FFFBFAF9F8123B62900D6A123DD81C
:027AA40080D888
:107AA60090029AE060FAE490029AF090029AE060FE
:107AB600FAE545700F900015E0FFA3E0900C80CF2B
:107AC600F0A3EFF0E546700F900017E0FFA3E090FB
:107AD6000C82CFF0A3EFF0E490029AF0E545704BEC
:107AE600900C80E0FEA3E02400EE34F8C36480949A
:107AF600804010900C80E0FEA3E02400FFEE34F8F6
:107B0600FE8015900C80E0FEA3E02400FFEE34F822
:107B1600FEC3E49FFFE49EFED3EF9405EE648094DB
:107B26008050047F0180027F008F45E5457048C381
:107B3600900C80E094085015900C8CE07002A3E045
:107B460070028014900C8C74FFF5F08017900C8CEA
:107B5600E07003A3E0F47005754501800A900C8C73
:107B6600E475F001123A87900C8CE0A3E0F5FB90E7
:107B76000C8CE0A3E0F5FCE546704B900C82E0FE31
:107B8600A3E02400EE34F8C3648094804010900C87
:107B960082E0FEA3E02400FFEE34F8FE8015900C90
:107BA60082E0FEA3E02400FFEE34F8FEC3E49FFF6C
:107BB600E49EFED3EF9405EE6480948050047F012A
:107BC60080027F008F46E5467048C3900C82E094A1
:107BD600085015900C8EE07002A3E070028014909D
:107BE6000C8E74FFF5F08017900C8EE07003A3E006
:107BF600F47005754601800A900C8EE475F001124A
:107C06003A87900C8EE0A3E0F5FD900C8EE0A3E0A1
:107C1600F5FEE5457003027AA6E5467003027AA6EC
:107C26001297CC900015E0FFA3E0900C80CFF0A354
:107C3600EFF0900017E0FFA3E0900C82CFF0A3EFE7
:107C4600F09089A4E493FF3395E0FE90028075F0EE
:107C560013EF123E53EE75F013A42583F583123EFF
:107C66006FE92407F9E43AFA754CFF754D77754EBE
:107C760022900C8CE0F54FA3E0F550900C8EE0F5C9
:107C860051A3E0F5521264999089A4E493FF3395C9
:107C9600E0FE90028075F013EF123E53EE75F0137E
:107CA600A42583F583123E6FE92407F9E43AFA1214
:107CB600000EEF2401F54DE43EF54C9089A3E493C4
:087CC600FF7B737D0112941F86
:107CCE00900D6E123DE400015F90E4FFFEFDFC900E
:107CDE000D6E123D9CD3123CB54017900D6E123DA9
:107CEE009074FFFBFAF9F8123B62900D6E123DD8BC
:027CFE0080D82C
:107D0000754CFF754D77754E33900C80E0F54FA3A1
:107D1000E0F550900C82E0F551A3E0F5527B017A3A
:107D20000D79761264999089A4E493FF3395E0FE6F
:107D300090028075F013EF123E53EE75F013A425F8
:107D400083F583123E6FE92407F9E43AFA754CFF94
:107D5000754D75754EA1754F0175500D75517612A3
:107D600064999089A4E493FF3395E0FE90028075B6
:107D7000F013EF123E53EE75F013A42583F5831232
:107D80003E6FE92407F9E43AFA12000EEF2401F5F8
:107D90004DE43EF54C9089A3E493FF7B737D011283
:027DA000941F2E
:107DA200900D72123DE400015F90E4FFFEFDFC9035
:107DB2000D72123D9CD3123CB54017900D72123DCC
:107DC2009074FFFBFAF9F8123B62900D72123DD8E3
:027DD20080D857
:017DD400228C
:027DD5008F42DB
:107DD700858443E4F544F545F5489089A493FF333A
:107DE70095E0FE90028075F013EF123E53EE75F0AA
:107DF70013A42583F583123E6FE92407F9E43AFAC1
:107E0700754CFF754D75754EA1754FFF755077759C
:107E170051441264999089A4E493FF3395E0FE904E
:107E2700028075F013EF123E53EE75F013A425830D
:107E3700F583123E6FE92407F9E43AFA12000EEFD0
:107E47002401F54DE43EF54C9089A3E493FF7B7341
:107E57007D0112941FE49002B3F0A3F0F546F547B5
:107E6700D390093BE0954790093AE095464023AE09
:107E770046AF477C017D00123A51744B2547F58286
:107E870074003546F583EDF00547E5477002054672
:107E970080CE75840F30E819C39002B4E09409903E
:107EA70002B3E09400400302809CE49002B3F0A385
:107EB700F090093AE0FCA3E0FD7B017A00794B855D
:107EC7004453854554E4FFFE12A5E890093AE0FEC5
:107ED700A3E0FF7B017A00794B85444E85454F121D
:107EE700A4C3E4F546F547D390093BE095479009CD
:107EF7003AE09546402DAE46AF477C017D00123AE9
:107F070051744B2547F58274003546F583E06D7053
:107F170001EC6005754801800A0547E547700205D1
:107F27004680C4E5487003027FB39089A4E493FFB9
:107F37003395E0FE90028075F013EF123E53EE7515
:107F4700F013A42583F583123E6FE92407F9E43A79
:107F5700FA754CFF754D77754E5385444F854550DF
:107F67008546518547521264999089A4E493FF335B
:107F770095E0FE90028075F013EF123E53EE75F018
:107F870013A42583F583123E6FE92407F9E43AFA2F
:107F970012000EEF2401F54DE43EF54C9089A3E461
:0C7FA70093FF7B737D0112941F02809CED
:107FB300900CDA123DE400015F90E4FFFEFDFC90BB
:107FC3000CDA123D9CD3123CB54017900CDA123DEB
:107FD3009074FFFBFAF9F8123B62900CDA123DD869
:027FE30080D844
:107FE5009089A4E493FF3395E0FE90028075F01329
:107FF500EF123E53EE75F013A42583F583123E6F01
:10800500E92407F9E43AFA754CFF754D77754E7713
:1080150085444F8545501264999089A4E493FF33B4
:1080250095E0FE90028075F013EF123E53EE75F069
:1080350013A42583F583123E6FE92407F9E43AFA80
:1080450012000EEF2401F54DE43EF54C9089A3E4B2
:1080550093FF7B737D0112941FAF45AE4412AB6B4A
:10806500D3900C15E09545900C14E095445007E429
:10807500F544F54580080545E54570020544E542AA
:1080850064347003027E99D3E5459404E544648025
:0E80950094805003027E99E49002B3F0A3F0B1
:1080A300900CDE123DE400015F90E4FFFEFDFC90C6
:1080B3000CDE123D9CD3123CB54017900CDE123DF2
:1080C3009074FFFBFAF9F8123B62900CDE123DD874
:0280D30080D853
:1080D5009089A4E493FF3395E0FE90028075F01338
:1080E500EF123E53EE75F013A42583F583123E6F10
:1080F500E92407F9E43AFA754CFF754D75754EA1FB
:10810500754FFF7550777551821264999089A4E473
:1081150093FF3395E0FE90028075F013EF123E5306
:10812500EE75F013A42583F583123E6FE92407F954
:10813500E43AFA12000EEF2401F54DE43EF54C90B9
:0F81450089A3E493FF7B737D0112941F8543840C
:018154002208
:1051630085844278FA7C0C7D017BFF7A7979C17E54
:0C517300007F081239179000047401F04E
:10517F00900CDA123DE400015F90E4FFFEFDFC901D
:10518F000CDA123D9CD3123CB54017900CDA123D4D
:10519F009074FFFBFAF9F8123B62900CDA123DD8CB
:0251AF0080D8A6
:1051B1009089A4E493FF3395E0FE90028075F0138B
:1051C100EF123E53EE75F013A42583F583123E6F63
:1051D100E92407F9E43AFA754CFF754D75754EA14E
:1051E100754FFF75507775518F1264999089A4E4BA
:1051F10093FF3395E0FE90028075F013EF123E535A
:10520100EE75F013A42583F583123E6FE92407F9A7
:10521100E43AFA12000EEF2401F54DE43EF54C900C
:1052210089A3E493FF7B737D0112941FE49002B381
:03523100F0A3F0F7
:1052340075840F30E819C39002B4E094099002B366
:10524400E094004003025791E49002B3F0A3F0907D
:0A525400029AE060DBE4F085D84325
:10525E00900CDE123DE40006DDD0E4FFFEFDFC9076
:10526E000CDE123D9CD3123CB54017900CDE123D65
:10527E009074FFFBFAF9F8123B62900CDE123DD8E7
:02528E0080D8C6
:105290009089A4E493FF3395E0FE90028075F013AB
:1052A000EF123E53EE75F013A42583F583123E6F83
:1052B000E92407F9E43AFA754CFF754D75754EA16E
:1052C000754FFF7550767551881264999089A4E4E2
:1052D00093FF3395E0FE90028075F013EF123E537A
:1052E000EE75F013A42583F583123E6FE92407F9C8
:1052F000E43AFA12000EEF2401F54DE43EF54C902D
:0C53000089A3E493FF7B737D0112941FCE
:10530C00900CE2123DE400015F90E4FFFEFDFC9086
:10531C000CE2123D9CD3123CB54017900CE2123DAE
:10532C009074FFFBFAF9F8123B62900CE2123DD834
:02533C0080D817
:10533E00754CFF754D77754E9A7B017A0D79021279
:10534E0064997544007545067B017A0D7902120049
:10535E000E74022FF9740D3EFA7B01C003C002C019
:10536E000174FA2545F582740C3544F583E05543F6
:10537E007BFF60067A7779A280047A7779A48B4CCA
:10538E008A4D894ED001D002D003126499E545159D
:10539E004570021544C3E5446480948050AA9089F8
:1053AE00A4E493FF3395E0FE90028075F013EF12A4
:1053BE003E53EE75F013A42583F583123E6FE92458
:1053CE0007F9E43AFA754CFF754D75754EA1754F98
:1053DE000175500D7551021264999089A4E493FFE2
:1053EE003395E0FE90028075F013EF123E53EE758A
:1053FE00F013A42583F583123E6FE92407F9E43AEE
:10540E00FA12000EEF2401F54DE43EF54C9089A3FF
:0A541E00E493FF7B737D0112941FDD
:10542800900CE6123DE400015F90E4FFFEFDFC9065
:105438000CE6123D9CD3123CB54017900CE6123D89
:105448009074FFFBFAF9F8123B62900CE6123DD813
:0254580080D8FA
:10545A00754CFF754D77754EA6900015E0F54FA374
:10546A00E0F550A3E0F551A3E0F5527B017A0D79FE
:10547A00021264999089A4E493FF3395E0FE9002A6
:10548A008075F013EF123E53EE75F013A42583F5E1
:10549A0083123E6FE92407F9E43AFA754CFF754D19
:1054AA0075754EA1754F0175500D755102126499AB
:1054BA009089A4E493FF3395E0FE90028075F0137F
:1054CA00EF123E53EE75F013A42583F583123E6F57
:1054DA00E92407F9E43AFA12000EEF2401F54DE443
:1054EA003EF54C9089A3E493FF7B737D0112941FD0
:1054FA00900CEA123DE400015F90E4FFFEFDFC908F
:10550A000CEA123D9CD3123CB54017900CEA123DAE
:10551A009074FFFBFAF9F8123B62900CEA123DD83C
:02552A0080D827
:10552C00900014E06018754CFF754D77754EB39074
:10553C00001BE0F54FA3E0F5509000198014754C5A
:10554C00FF754D77754EC1900019E0F54FA3E0F54E
:10555C0050A3E0F551A3E0F5527B017A0D790212CC
:10556C0064999089A4E493FF3395E0FE90028075D2
:10557C00F013EF123E53EE75F013A42583F583124E
:10558C003E6FE92407F9E43AFA754CFF754D7575D1
:10559C004EA1754F0175500D755102126499908989
:1055AC00A4E493FF3395E0FE90028075F013EF12A4
:1055BC003E53EE75F013A42583F583123E6FE92458
:1055CC0007F9E43AFA12000EEF2401F54DE43EF52A
:0E55DC004C9089A3E493FF7B737D0112941F12
:1055EA00900CEE123DE400015F90E4FFFEFDFC909A
:1055FA000CEE123D9CD3123CB54017900CEE123DB6
:10560A009074FFFBFAF9F8123B62900CEE123DD847
:02561A0080D836
:10561C00754CFF754D77754ECF90001DE0F54FA37F
:10562C00E0F550A3E0F551A3E0F5527B017A0D793A
:10563C00021264999089A4E493FF3395E0FE9002E2
:10564C008075F013EF123E53EE75F013A42583F51D
:10565C0083123E6FE92407F9E43AFA754CFF754D55
:10566C0075754EA1754F0175500D755102126499E7
:10567C009089A4E493FF3395E0FE90028075F013BB
:10568C00EF123E53EE75F013A42583F583123E6F93
:10569C00E92407F9E43AFA12000EEF2401F54DE47F
:1056AC003EF54C9089A3E493FF7B737D0112941F0C
:1056BC00900CF2123DE400015F90E4FFFEFDFC90C3
:1056CC000CF2123D9CD3123CB54017900CF2123DDB
:1056DC009074FFFBFAF9F8123B62900CF2123DD871
:0256EC0080D864
:1056EE00754CFF754D77754EDE900021E0F54FA39A
:1056FE00E0F550A3E0F551A3E0F5527B017A0D7968
:10570E00021264999089A4E493FF3395E0FE90020F
:10571E008075F013EF123E53EE75F013A42583F54A
:10572E0083123E6FE92407F9E43AFA754CFF754D82
:10573E0075754EA1754F0175500D75510212649914
:10574E009089A4E493FF3395E0FE90028075F013E8
:10575E00EF123E53EE75F013A42583F583123E6FC0
:10576E00E92407F9E43AFA12000EEF2401F54DE4AC
:10577E003EF54C9089A3E493FF7B737D0112941F39
:0A578E00025234E49002B3F0A3F0DD
:10579800900CF6123DE400015F90E4FFFEFDFC90E2
:1057A8000CF6123D9CD3123CB54017900CF6123DF6
:1057B8009074FFFBFAF9F8123B62900CF6123DD890
:0257C80080D887
:1057CA009089A4E493FF3395E0FE90028075F0136C
:1057DA00EF123E53EE75F013A42583F583123E6F44
:1057EA00E92407F9E43AFA754CFF754D75754EA12F
:1057FA00754FFF7550777551ED1264999089A4E43D
:10580A0093FF3395E0FE90028075F013EF123E533A
:10581A00EE75F013A42583F583123E6FE92407F988
:10582A00E43AFA12000EEF2401F54DE43EF54C90ED
:10583A0089A3E493FF7B737D0112941FD2B3C2B68E
:0C584A00C2B5C2B4E4900004F0854284B2
:01585600222F
:10848800858442E4F545F54678E67C0C7D017BFF62
:0A8498007A7979C9FE7F08123917BE
:1084A200900CDA123DE400015F90E4FFFEFDFC90C7
:1084B2000CDA123D9CD3123CB54017900CDA123DF7
:1084C2009074FFFBFAF9F8123B62900CDA123DD875
:0284D20080D850
:1084D4009089A4E493FF3395E0FE90028075F01335
:1084E400EF123E53EE75F013A42583F583123E6F0D
:1084F400E92407F9E43AFA754CFF754D75754EA1F8
:10850400754FFF7550787551011264999089A4E4F0
:1085140093FF3395E0FE90028075F013EF123E5303
:10852400EE75F013A42583F583123E6FE92407F951
:10853400E43AFA12000EEF2401F54DE43EF54C90B6
:0C85440089A3E493FF7B737D0112941F58
:10855000900CDE123DE400015F90E4FFFEFDFC9014
:108560000CDE123D9CD3123CB54017900CDE123D40
:108570009074FFFBFAF9F8123B62900CDE123DD8C2
:0285800080D8A1
:10858200E49002B3F0A3F090025EE024A0F54490E0
:10859200025DE03400F54375840F30E819C39002A0
:1085A200B4E094099002B3E094004003028671E4BF
:1085B2009002B3F0A3F090025DE0FEA3E0FFB544A9
:1085C200D6EEB543D2EF24A0F544E43EF5439089BC
:1085D200A4E493FF3395E0FE90028075F013EF124E
:1085E2003E53EE75F013A42583F583123E6FE92402
:1085F20007F9E43AFA754CFF754D78754E0D8545CD
:108602004F8546501264999089A4E493FF3395E014
:10861200FE90028075F013EF123E53EE75F013A434
:108622002583F583123E6FE92407F9E43AFA120032
:108632000EEF2401F54DE43EF54C9089A3E493FF3F
:108642007B737D0112941F74E62546F582740C3506
:1086520045F583E0F5C80546E54670020545FFAEDF
:10866200457C007D07123A518C458D46028599E47E
:068672009002B3F0A3F03A
:10867800900CE2123DE400015F90E4FFFEFDFC90E7
:108688000CE2123D9CD3123CB54017900CE2123D0F
:108698009074FFFBFAF9F8123B62900CE2123DD895
:0286A80080D878
:1086AA009089A4E493FF3395E0FE90028075F0135D
:1086BA00EF123E53EE75F013A42583F583123E6F35
:1086CA00E92407F9E43AFA754CFF754D75754EA120
:1086DA00754FFF7550787551141264999089A4E406
:1086EA0093FF3395E0FE90028075F013EF123E532C
:1086FA00EE75F013A42583F583123E6FE92407F97A
:10870A00E43AFA12000EEF2401F54DE43EF54C90DE
:10871A0089A3E493FF7B737D0112941FD2B3C2B67F
:07872A00C2B5C2B485428410
:018731002225
:105EB800858442754401E4900CEEF090000404F0EF
:105EC800900CDA123DE400015F90E4FFFEFDFC90C7
:105ED8000CDA123D9CD3123CB54017900CDA123DF7
:105EE8009074FFFBFAF9F8123B62900CDA123DD875
:025EF80080D850
:105EFA009089A4E493FF3395E0FE90028075F01335
:105F0A00EF123E53EE75F013A42583F583123E6F0C
:105F1A00E92407F9E43AFA754CFF754D75754EA1F7
:105F2A00754FFF7550787551291264999089A4E4C8
:105F3A0093FF3395E0FE90028075F013EF123E5303
:105F4A00EE75F013A42583F583123E6FE92407F951
:105F5A00E43AFA12000EEF2401F54DE43EF54C90B6
:0C5F6A0089A3E493FF7B737D0112941F58
:105F7600900CDE123DE400015F90E4FFFEFDFC9014
:105F86000CDE123D9CD3123CB54017900CDE123D40
:105F96009074FFFBFAF9F8123B62900CDE123DD8C2
:025FA60080D8A1
:105FA8009089A4E493FF3395E0FE90028075F01386
:105FB800EF123E53EE75F013A42583F583123E6F5E
:105FC800E92407F9E43AFA754CFF754D75754EA149
:105FD800754FFF7550787551321264999089A4E411
:105FE80093FF3395E0FE90028075F013EF123E5355
:105FF800EE75F013A42583F583123E6FE92407F9A3
:10600800E43AFA12000EEF2401F54DE43EF54C9007
:0C60180089A3E493FF7B737D0112941FA9
:10602400900CE2123DE400015F90E4FFFEFDFC9061
:106034000CE2123D9CD3123CB54017900CE2123D89
:106044009074FFFBFAF9F8123B62900CE2123DD80F
:0260540080D8F2
:106056009089A4E493FF3395E0FE90028075F013D7
:10606600EF123E53EE75F013A42583F583123E6FAF
:10607600E92407F9E43AFA754CFF754D75754EA19A
:10608600754FFF7550787551551264999089A4E43F
:1060960093FF3395E0FE90028075F013EF123E53A6
:1060A600EE75F013A42583F583123E6FE92407F9F4
:1060B600E43AFA12000EEF2401F54DE43EF54C9059
:1060C60089A3E493FF7B737D0112941F90029AE0EB
:1060D60060FAE4F545E545123F0A60FC0060FC0104
:1060E600612A0261580361920461C00561ED06628E
:1060F6001A0700006245E54525E02415F582E434DB
:1061060000F583E0FEA3E0FFC394A4EE9406400DE1
:10611600D3EF94FCEE940850047F0180027F008F39
:1061260043026245E54525E02415F582E43400F591
:1061360083E0FEA3E0FFC39484EE940E400DD3EFFC
:10614600949CEE941050047F0180027F008F4302DE
:106156006245900014E0602EE54525E02415F582A1
:10616600E43400F583E0FEA3E0FFC394AAEE9405B1
:10617600400DD3EF946CEE940750047F0180027FAC
:10618600008F43026245754301026245E54525E0FD
:106196002415F582E43400F583E0FEA3E0FFC39402
:1061A60030EE9404400DD3EF9460EE940550047FD6
:1061B6000180027F008F43026245E54525E02415F4
:1061C600F582E43400F583E0FEA3E0FFC394CAEE53
:1061D6009402400DD3EF9496EE940350047F018011
:1061E600027F008F438058E54525E02415F582E4BB
:1061F6003400F583E0FEA3E0FFC39465EE9401400E
:106206000DD3EF94CBEE940150047F0180027F0002
:106216008F43802BE54525E02415F582E43400F50F
:1062260083E0FEA3E0FFC3943FEE9403400DD3EF5B
:10623600942BEE940450047F0180027F008F43E587
:10624600437002F5447B017A0C79EE12000E74EE6F
:106256002FF9740C3EFA7B01C003C002C001E5436E
:106266007BFF60067A78796D80047A7879728B4C38
:106276008A4D894ED001D002D0031264990545E5B6
:0E62860045C3940850030260DBE490029AF0D6
:10629400900CE6123DE400015F90E4FFFEFDFC90EB
:1062A4000CE6123D9CD3123CB54017900CE6123D0F
:1062B4009074FFFBFAF9F8123B62900CE6123DD899
:0262C40080D880
:1062C6009089A4E493FF3395E0FE90028075F01365
:1062D600EF123E53EE75F013A42583F583123E6F3D
:1062E600E92407F9E43AFA754CFF754D75754EA128
:1062F600754F0175500C7551EE1264999089A4E49E
:1063060093FF3395E0FE90028075F013EF123E5333
:10631600EE75F013A42583F583123E6FE92407F981
:10632600E43AFA12000EEF2401F54DE43EF54C90E6
:0C63360089A3E493FF7B737D0112941F88
:10634200900CEA123DE400015F90E4FFFEFDFC9038
:106352000CEA123D9CD3123CB54017900CEA123D58
:106362009074FFFBFAF9F8123B62900CEA123DD8E6
:0263720080D8D1
:10637400E5449089A46038E493FF3395E0FE9002ED
:106384008075F013EF123E53EE75F013A42583F5D8
:1063940083123E6FE92407F9E43AFA754CFF754D10
:1063A40075754EA1754FFF7550787551778036E439
:1063B40093FF3395E0FE90028075F013EF123E5385
:1063C400EE75F013A42583F583123E6FE92407F9D3
:1063D400E43AFA754CFF754D75754EA1754FFF750E
:1063E40050787551841264999089A4E493FF33958D
:1063F400E0FE90028075F013EF123E53EE75F01339
:10640400A42583F583123E6FE92407F9E43AFA12CE
:10641400000EEF2401F54DE43EF54C9089A3E4937E
:10642400FF7B737D0112941FD2B3C2B6C2B5C2B44E
:08643400E4900004F0854284AD
:01643C00223D
:10585700858442754301E4F54590000404F075849E
:075867000275888085428470
:10586E00900CDA123DE400015F90E4FFFEFDFC9027
:10587E000CDA123D9CD3123CB54017900CDA123D57
:10588E009074FFFBFAF9F8123B62900CDA123DD8D5
:02589E0080D8B0
:1058A0009089A4E493FF3395E0FE90028075F01395
:1058B000EF123E53EE75F013A42583F583123E6F6D
:1058C000E92407F9E43AFA754CFF754D75754EA158
:1058D000754FFF7550787551961264999089A4E4BC
:1058E00093FF3395E0FE90028075F013EF123E5364
:1058F000EE75F013A42583F583123E6FE92407F9B2
:10590000E43AFA12000EEF2401F54DE43EF54C9016
:1059100089A3E493FF7B737D0112941F900014E030
:02592000706EA7
:10592200900CDE123DE400015F90E4FFFEFDFC906E
:105932000CDE123D9CD3123CB54017900CDE123D9A
:105942009074FFFBFAF9F8123B62900CDE123DD81C
:0259520080D8FB
:105954009089A4E493FF3395E0FE90028075F013E0
:10596400EF123E53EE75F013A42583F583123E6FB8
:10597400E92407F9E43AFA754CFF754D75754EA1A3
:10598400754FFF7550787551A6025E5FE4F546E5E4
:1059940046B40807E4F5C8D2FB80058545C8C2FBB8
:1059A400900CE2123DE400015F90E4FFFEFDFC90E8
:1059B4000CE2123D9CD3123CB54017900CE2123D10
:1059C4009074FFFBFAF9F8123B62900CE2123DD896
:0259D40080D879
:1059D6009089A4E493FF3395E0FE90028075F0135E
:1059E600EF123E53EE75F013A42583F583123E6F36
:1059F600E92407F9E43AFA754CFF754D78754EC4FB
:105A0600754F008546501264999089A4E493FF333C
:105A160095E0FE90028075F013EF123E53EE75F09E
:105A260013A42583F583123E6FE92407F9E43AFAB5
:105A360012000EEF2401F54DE43EF54C9089A3E4E7
:105A460093FF7B737D0112941F90029AE060FAE542
:105A560046123F0A5A79005AC6015B12025B5E0380
:105A66005BAA045BF6055C42065C8D075CDD0800FC
:105A7600005CE0854284E5D8547FB54519D3900093
:105A860020E094CA90001FE09402400A3086073056
:105A960087047F0180027F008F44758401E544609E
:105AA60007208E047F0180027F008F44758402E503
:105AB600446008208E057F01025CD67F00025CD61A
:105AC600854284E5D8547FB54519C3900020E094FB
:105AD6005E90001FE09401500A2086073087047FFD
:105AE6000180027F008F44758401E5446007208EA3
:105AF600047F0180027F008F44758402E5446007BD
:105B0600208E047F0180027F00025CD6854284E5F8
:105B1600D8547FB54519C3900020E0945E90001FCD
:105B2600E09401500A3086072087047F0180027FB7
:105B3600008F44758401E5446007208E047F018050
:105B4600027F008F44758402E5446007208E047F3F
:105B56000180027F00025CD6854284E5D8547FB579
:105B66004519C3900020E0945E90001FE094015018
:105B76000A3086073087047F0180027F008F4475D4
:105B86008401E5446007208E047F0180027F008F38
:105B960044758402E5446007208E047F0180027FFD
:105BA60000025CD6854284E5D8547FB54519C3907A
:105BB6000020E0945E90001FE09401500A308607B2
:105BC6003087047F0180027F008F44758401E5449D
:105BD6006007208E047F0180027F008F4475840257
:105BE600E5446007208E047F0180027F00025CD6B8
:105BF600854284E5D8547FB54519C3900020E094CA
:105C06005E90001FE09401500A3086073087047FBB
:105C16000180027F008F44758401E5446007208E71
:105C2600047F0180027F008F44758402E54460078B
:105C3600208E047F0180027F00025CD6854284E5C7
:105C4600D8547FB54519C3900020E0945E90001F9C
:105C5600E09401500A3086073087047F0180027F76
:105C6600008F44758401E5446007208E047F01801F
:105C7600027F008F44758402E5446007308E047FFE
:105C86000180027F008049854284E5D8547FB5456E
:105C960019C3900020E0945E90001FE09401500A22
:105CA6003086073087047F0180027F008F44758429
:105CB60001E5446007308E047F0180027F008F4437
:105CC600758402E5446007208E047F0180027F0010
:105CD6008F448542848003754401E490029AF0E57E
:065CE600446003025D9D15
:105CEC00900CE6123DE400015F90E4FFFEFDFC9099
:105CFC000CE6123D9CD3123CB54017900CE6123DBD
:105D0C009074FFFBFAF9F8123B62900CE6123DD846
:025D1C0080D82D
:105D1E009089A4E493FF3395E0FE90028075F01312
:105D2E00EF123E53EE75F013A42583F583123E6FEA
:105D3E00E92407F9E43AFA754CFF754D75754EA1D5
:105D4E00754FFF7550787551D71264999089A4E4F8
:105D5E0093FF3395E0FE90028075F013EF123E53E1
:105D6E00EE75F013A42583F583123E6FE92407F92F
:105D7E00E43AFA12000EEF2401F54DE43EF54C9094
:105D8E0089A3E493FF7B737D0112941FE4F543E531
:105D9E004670057545018006E54525E0F545054645
:0A5DAE00E546D39408500302599310
:105DB800900CEA123DE400015F90E4FFFEFDFC90C8
:105DC8000CEA123D9CD3123CB54017900CEA123DE8
:105DD8009074FFFBFAF9F8123B62900CEA123DD876
:025DE80080D861
:105DEA00E5439089A46038E493FF3395E0FE90027E
:105DFA008075F013EF123E53EE75F013A42583F568
:105E0A0083123E6FE92407F9E43AFA754CFF754D9F
:105E1A0075754EA1754FFF7550787551E38036E45C
:105E2A0093FF3395E0FE90028075F013EF123E5314
:105E3A00EE75F013A42583F583123E6FE92407F962
:105E4A00E43AFA754CFF754D75754EA1754FFF759D
:105E5A0050787551F31264999089A4E493FF3395AD
:105E6A00E0FE90028075F013EF123E53EE75F013C8
:105E7A00A42583F583123E6FE92407F9E43AFA125E
:105E8A00000EEF2401F54DE43EF54C9089A3E4930E
:105E9A00FF7B737D0112941F758402E4F588D2B3E7
:0D5EAA00C2B6C2B5C2B4900004F0854284B7
:015EB70022C8
:097164008584429000047401F0DE
:10716D00900CDA123DE400015F90E4FFFEFDFC900F
:10717D000CDA123D9CD3123CB54017900CDA123D3F
:10718D009074FFFBFAF9F8123B62900CDA123DD8BD
:02719D0080D898
:10719F009089A4E493FF3395E0FE90028075F0137D
:1071AF00EF123E53EE75F013A42583F583123E6F55
:1071BF00E92407F9E43AFA754CFF754D75754EA140
:1071CF00754FFF7550797551081264999089A4E431
:1071DF0093FF3395E0FE90028075F013EF123E534C
:1071EF00EE75F013A42583F583123E6FE92407F99A
:1071FF00E43AFA12000EEF2401F54DE43EF54C90FF
:10720F0089A3E493FF7B737D0112941F900014E018
:02721F00706E8F
:10722100900CDE123DE400015F90E4FFFEFDFC9056
:107231000CDE123D9CD3123CB54017900CDE123D82
:107241009074FFFBFAF9F8123B62900CDE123DD804
:0272510080D8E3
:107253009089A4E493FF3395E0FE90028075F013C8
:10726300EF123E53EE75F013A42583F583123E6FA0
:10727300E92407F9E43AFA754CFF754D75754EA18B
:0F728300754FFF7550787551A602754D75C8206F
:10729200900CE2123DE400015F90E4FFFEFDFC90E1
:1072A2000CE2123D9CD3123CB54017900CE2123D09
:1072B2009074FFFBFAF9F8123B62900CE2123DD88F
:0272C20080D872
:1072C4009089A4E493FF3395E0FE90028075F01357
:1072D400EF123E53EE75F013A42583F583123E6F2F
:1072E400E92407F9E43AFA754CFF754D75754EA11A
:1072F400754FFF7550797551141264999089A4E4FF
:1073040093FF3395E0FE90028075F013EF123E5325
:10731400EE75F013A42583F583123E6FE92407F973
:10732400E43AFA12000EEF2401F54DE43EF54C90D8
:1073340089A3E493FF7B737D0112941F7F0112AD37
:047344007675C86032
:10734800900CE6123DE400015F90E4FFFEFDFC9026
:107358000CE6123D9CD3123CB54017900CE6123D4A
:107368009074FFFBFAF9F8123B62900CE6123DD8D4
:0273780080D8BB
:10737A009089A4E493FF3395E0FE90028075F013A0
:10738A00EF123E53EE75F013A42583F583123E6F78
:10739A00E92407F9E43AFA754CFF754D75754EA163
:1073AA00754FFF7550797551271264999089A4E435
:1073BA0093FF3395E0FE90028075F013EF123E536F
:1073CA00EE75F013A42583F583123E6FE92407F9BD
:1073DA00E43AFA12000EEF2401F54DE43EF54C9022
:0E73EA0089A3E493FF7B737D0112941FC2FF01
:1073F800900CEA123DE40006DDD0E4FFFEFDFC90AF
:107408000CEA123D9CD3123CB54017900CEA123D91
:107418009074FFFBFAF9F8123B62900CEA123DD81F
:0274280080D80A
:02742A00D2FF8F
:10742C00900CEE123DE400015F90E4FFFEFDFC9039
:10743C000CEE123D9CD3123CB54017900CEE123D55
:10744C009074FFFBFAF9F8123B62900CEE123DD8E7
:02745C0080D8D6
:10745E009089A4E493FF3395E0FE90028075F013BB
:10746E00EF123E53EE75F013A42583F583123E6F93
:10747E00E92407F9E43AFA754CFF754D75754EA17E
:10748E00754FFF75507975513A1264999089A4E43D
:10749E0093FF3395E0FE90028075F013EF123E538A
:1074AE00EE75F013A42583F583123E6FE92407F9D8
:1074BE00E43AFA12000EEF2401F54DE43EF54C903D
:1074CE0089A3E493FF7B737D0112941FE4FF12AD39
:0474DE0076E4F5C893
:1074E200900CF2123DE400015F90E4FFFEFDFC907F
:1074F2000CF2123D9CD3123CB54017900CF2123D97
:107502009074FFFBFAF9F8123B62900CF2123DD82C
:0275120080D81F
:107514009089A4E493FF3395E0FE90028075F01304
:10752400EF123E53EE75F013A42583F583123E6FDC
:10753400E92407F9E43AFA754CFF754D75754EA1C7
:10754400754FFF75507975514E1264999089A4E472
:1075540093FF3395E0FE90028075F013EF123E53D3
:10756400EE75F013A42583F583123E6FE92407F921
:10757400E43AFA12000EEF2401F54DE43EF54C9086
:1075840089A3E493FF7B737D0112941FD2B3C2B627
:0C759400C2B5C2B4E4900004F08542844B
:0175A00022C8
:0F6D0800E4F546A2FB920185844790000404F055
:106D1700900CDA123DE400015F90E4FFFEFDFC9069
:106D27000CDA123D9CD3123CB54017900CDA123D99
:106D37009074FFFBFAF9F8123B62900CDA123DD817
:026D470080D8F2
:106D49009089A4E493FF3395E0FE90028075F013D7
:106D5900EF123E53EE75F013A42583F583123E6FAF
:106D6900E92407F9E43AFA754CFF754D75754EA19A
:106D7900754FFF75507975515F1264999089A4E434
:106D890093FF3395E0FE90028075F013EF123E53A6
:106D9900EE75F013A42583F583123E6FE92407F9F4
:106DA900E43AFA12000EEF2401F54DE43EF54C9059
:106DB90089A3E493FF7B737D0112941F900014E073
:026DC900706EEA
:106DCB00900CDE123DE400015F90E4FFFEFDFC90B1
:106DDB000CDE123D9CD3123CB54017900CDE123DDD
:106DEB009074FFFBFAF9F8123B62900CDE123DD85F
:026DFB0080D83E
:106DFD009089A4E493FF3395E0FE90028075F01323
:106E0D00EF123E53EE75F013A42583F583123E6FFA
:106E1D00E92407F9E43AFA754CFF754D75754EA1E5
:106E2D00754FFF7550787551A6027113C2FBE4F5CD
:036E3D0084D2C636
:106E4000900CE2123DE400015F90E4FFFEFDFC9037
:106E50000CE2123D9CD3123CB54017900CE2123D5F
:106E60009074FFFBFAF9F8123B62900CE2123DD8E5
:026E700080D8C8
:106E72007542007543087544007545329089A4E453
:106E820093FF3395E0FE90028075F013EF123E53AC
:106E9200EE75F013A42583F583123E6FE92407F9FA
:106EA200E43AFA754CFF754D79754E7385424F85FC
:106EB20043508544518545521264999089A4E493C4
:106EC200FF3395E0FE90028075F013EF123E53EE11
:106ED20075F013A42583F583123E6FE92407F9E4C4
:106EE2003AFA12000EEF2401F54DE43EF54C90897A
:106EF200A3E493FF7B737D0112941FD2B6D2B3C277
:106F0200B4C2B5900042123E6F74081239B6E4F56D
:106F120042F543E5432440FF900042123E6FE543B1
:106F22002401FDE435428D82F583EF1239C8054311
:106F3200E543700205426408454270D790004074F0
:106F420009F0A314F090003D7404F0E4F544F54513
:106F5200E4900048F012ADE1AE44AF457C007D0AFA
:106F62001239FCED4C6002B2B530E819C39002B49C
:106F7200E094099002B3E094004003027063E4904D
:056F820002B3F0A3F0D2
:106F8700900CE6123DE400001194E4FFFEFDFC9036
:106F97000CE6123D9CD3123CB54017900CE6123D0F
:106FA7009074FFFBFAF9F8123B62900CE6123DD899
:026FB70080D880
:106FB90012ADC5E4FFFE900048E0FD700D0FEF70C3
:106FC900010EC394ECEE942C40ECED70057546016E
:106FD900803EE4F542F543900042123E6FE54324BA
:106FE90001FFE435428F82F583123956FF9000453F
:106FF900123E6F8543828542831239566F6003754D
:1070090046010543E543700205426408454270C7DD
:04701900E546704692
:10701D00900CEA123DE400001194E4FFFEFDFC909B
:10702D000CEA123D9CD3123CB54017900CEA123D70
:10703D009074FFFBFAF9F8123B62900CEA123DD8FE
:02704D0080D8E9
:10704F000545E54570020544C39432E5449400506C
:0D705F0003026F52A20192FB854784C2C656
:10706C00900CEE123DE400015F90E4FFFEFDFC90FD
:10707C000CEE123D9CD3123CB54017900CEE123D19
:10708C009074FFFBFAF9F8123B62900CEE123DD8AB
:02709C0080D89A
:10709E00E5469089A46038E493FF3395E0FE9002B4
:1070AE008075F013EF123E53EE75F013A42583F5A1
:1070BE0083123E6FE92407F9E43AFA754CFF754DD9
:1070CE0075754EA1754FFF7550797551878036E4F1
:1070DE0093FF3395E0FE90028075F013EF123E534E
:1070EE00EE75F013A42583F583123E6FE92407F99C
:1070FE00E43AFA754CFF754D75754EA1754FFF75D7
:10710E00507975519D1264999089A4E493FF33953B
:10711E00E0FE90028075F013EF123E53EE75F01301
:10712E00A42583F583123E6FE92407F9E43AFA1297
:10713E00000EEF2401F54DE43EF54C9089A3E49347
:10714E00FF7B737D0112941FD2B3C2B4C2B5C2B617
:05715E00E4900004F0C4
:017163002209
:108DDE00A2FB92018584449000047401F09000403F
:108DEE007410F0A3F0E4900048F0900014E06003DB
:038DFE00028EB230
:108E0100900CDA123DE400015F90E4FFFEFDFC905E
:108E11000CDA123D9CD3123CB54017900CDA123D8E
:108E21009074FFFBFAF9F8123B62900CDA123DD80C
:028E310080D8E7
:108E33009089A4E493FF3395E0FE90028075F013CC
:108E4300EF123E53EE75F013A42583F583123E6FA4
:108E5300E92407F9E43AFA754CFF754D75754EA18F
:108E6300754FFF7550787551A61264999089A4E4E3
:108E730093FF3395E0FE90028075F013EF123E539B
:108E8300EE75F013A42583F583123E6FE92407F9E9
:108E9300E43AFA12000EEF2401F54DE43EF54C904E
:0F8EA30089A3E493FF7B737D0112941F028FFB61
:108EB200900CDE123DE400015F90E4FFFEFDFC90A9
:108EC2000CDE123D9CD3123CB54017900CDE123DD5
:108ED2009074FFFBFAF9F8123B62900CDE123DD857
:028EE20080D836
:108EE4009089A4E493FF3395E0FE90028075F0131B
:108EF400EF123E53EE75F013A42583F583123E6FF3
:108F0400E92407F9E43AFA754CFF754D75754EA1DD
:108F1400754FFF7550797551AE1264999089A4E428
:108F240093FF3395E0FE90028075F013EF123E53E9
:108F3400EE75F013A42583F583123E6FE92407F937
:108F4400E43AFA12000EEF2401F54DE43EF54C909C
:108F540089A3E493FF7B737D0112941FC2FB7E00FF
:108F6400754200754332D2B6D2B3C2B4C2B5E4F589
:108F74008475C304C2C3FFEF24F0FD900042123E87
:108F84006F8F828E83ED1239C80FBF00010EEF641C
:108F9400084E70E3900048E060FA30E816C390028F
:108FA400B4E094099002B3E094005042E49002B318
:108FB400F0A3F0E4900048F0FEFF900041E0FDC310
:108FC400EF9DEE94005023900045123E6F8F828EE9
:108FD40083123956FD900042123E6F8F828E83EDCC
:108FE4001239C80FBF00010E80D0B2B580A6A2010D
:108FF40092FB854484C2C6D2B3C2B4C2B5C2B6E43D
:07900400900004F085448494
:01900B002242
:10ACED000112010106010102010000000100000036
:10ACFD000C00000077000004A900002E9B0001D27B
:10AD0D00090012345600B60B61071C71C7471C7140
:01AD1D00C76E
:04A1F200410DD90042
:10815500900293123E6F8B378A388939900292E0EC
:10816500900291F0E4F531F532F536F535F534F553
:1081750033AB37AA38A9390532E532AE317002057D
:1081850031142406F582E43EF58374FA1239C805E4
:1081950032E532AE3170020531142406F582E43E33
:1081A500F583E41239C80532E532AE317002053186
:1081B500142406F582E43EF58374011239C80532AC
:1081C500E532AE3170020531142406F582E43EF540
:1081D50083E41239C80532E532AE31700205311437
:1081E5002406F582E43EF58374011239C80532E5AB
:1081F50032AE3170020531142406F582E43EF58372
:10820500E41239C8AD32AC317F087E0612A2209047
:108215000288E07002A3E070F690025DE0F531A3FC
:10822500E0F532900292E0FF900291E0B5071378F5
:1082350033123DB87B407A4B794C7800D3123CCB56
:1082450050E1900292E0FF900291E06F700302818D
:1082550069E4F531F532AB37AA38A9390532E5328B
:10826500AE3170020531142406F582E43EF58374BF
:10827500011239C80532E532AE31700205311424D8
:1082850006F582E43EF583E41239C80532E532AEDF
:108295003170020531142406F582E43EF583E412BB
:1082A50039C80532E532AE3170020531142406F5C0
:1082B50082E43EF583E41239C80532E532AE317009
:1082C500020531142406F582E43EF58374C01239A3
:1082D500C80532E532AE3170020531142406F58247
:1082E500E43EF58374081239C80532E532AE3170C3
:1082F500020531142406F582E43EF583E41239C8FB
:108305000532E532AE3170020531142406F582E4FA
:108315003EF583E41239C8E92406F9E43AFAE92579
:1083250032F9EA3531FA123E1500E10000740425F0
:1083350032F532E43531F531AB37AA38A939053292
:10834500E532AE3170020531142406F582E43EF5BE
:108355008374011239C80532E532AE317002053138
:10836500142406F582E43EF583E41239C80532E5A6
:1083750032AE3170020531142406F582E43EF583F0
:1083850074011239C80532E532AE31700205311477
:108395002406F582E43EF583E41239C80532E53258
:1083A500AE3170020531142406F582E43EF583E40E
:1083B5001239C80532E532AE317002053114240692
:1083C500F582E43EF583E41239C80532E532AE3173
:1083D50070020531142406F582E43EF583E4123972
:1083E500C80532E532AE3170020531142406F58236
:1083F500E43EF583E41239C8AD32AC317F007E0628
:0D84050012A220900288E07002A3E070F641
:10841200900CCA123DE4000008CAE4FFFEFDFC9085
:108422000CCA123D9CD3123CB54017900CCA123DA7
:108432009074FFFBFAF9F8123B62900CCA123DD815
:0284420080D8E0
:108444007B017A0279867F007EE17D007C001290B8
:018454000C1B
:10845500900CCE123DE400004650E4FFFEFDFC907A
:108465000CCE123D9CD3123CB54017900CCE123D5C
:108475009074FFFBFAF9F8123B62900CCE123DD8CE
:0284850080D89D
:0184870022D2
:1000A60078EA7C0C7D017BFF7AAC79ED7E007F09D6
:1000B600123917900293123E6F8B498A4A894B90E8
:1000C6000014E0700302020A900292E0900291F09E
:1000D600E4F548E4F546F547E54875F003A424EA57
:1000E600F582E4340CF583E0FFAB49AA4AA94B0537
:1000F60047E547AC4670020546142406F582E43C03
:10010600F583EF1239C8E54875F003A424EAF582B1
:10011600E4340CF583A3E0FF0547E547AC467002DF
:100126000546142406F582E43CF583EF1239C8E54A
:100136004875F003A424ECF582E4340CF583E0FF63
:100146000547E547AC4670020546142406F582E4E9
:100156003CF583EF12A215900288E07002A3E070CE
:10016600F6900292E0FF900291E06F60F4900296A2
:10017600123E6F900292E0FF75F0DCA4F58285F0E6
:1001860083123ADEF54785F046EFB402047F00801D
:1001960006900292E004FF900292EFF0E5476401B8
:1001A6007004E5466405600C900292E0FF900291AF
:0401B600E0B507B9F0
:1001BA00900CCA123DE400001194E4FFFEFDFC908D
:1001CA000CCA123D9CD3123CB54017900CCA123D82
:1001DA009074FFFBFAF9F8123B62900CCA123DD8F0
:0201EA0080D8BB
:1001EC00E54764017004E546640560030200D90527
:1001FC0048E548C3940350030200D9020DD2E4F53C
:10020C0046F547AB49AA4AA94B0547E547AE4670A8
:10021C00020546142406F582E43EF5837401123976
:10022C00C80547E547AE4670020546142406F5821C
:10023C00E43EF58374021239C80547E547AE4670B3
:10024C00020546142406F582E43EF583E41239C80F
:10025C000547E547AE4670020546142406F582E4D0
:10026C003EF58374011239C80547E547AE46700266
:10027C000546142406F582E43EF583E41239C805DC
:10028C0047E547AE4670020546142406F582E43E67
:10029C00F583E41239C80547E547AE4670020546BA
:1002AC00142406F582E43EF58374011239C805471F
:1002BC00E547AE4670020546142406F582E43EF589
:1002CC008374011239C80547E547AE4670020546EE
:1002DC00142406F582E43EF583E41239C80547E59B
:1002EC0047AE4670020546142406F582E43EF583BB
:1002FC00E41239C80547E547AE467002054614249A
:10030C0006F582E43EF583E41239C80547E547AEAD
:10031C004670020546142406F582E43EF583E41289
:10032C0039C80547E547AE4670020546142406F564
:10033C0082E43EF58374011239C80547E547AE46A1
:10034C0070020546142406F582E43EF58374061209
:10035C0039C80547E547AE4670020546142406F534
:10036C0082E43EF583E41239C80547E547AE467092
:10037C00020546142406F582E43EF5837401123915
:10038C00C80547E547AE4670020546142406F582BB
:10039C00E43EF583E41239C80547E547AE467002E2
:1003AC000546142406F582E43EF583E41239C805AB
:1003BC0047E547AE4670020546142406F582E43E36
:1003CC00F58374011239C80547E547AE467002053E
:1003DC0046142406F582E43EF58374121239C805DE
:1003EC0047E547AE4670020546142406F582E43E06
:1003FC00F583E41239C80547E547AE467002054659
:10040C00142406F582E43EF58374011239C80547BD
:10041C00E547AE4670020546142406F582E43EF527
:10042C0083E41239C80547E547AE46700205461409
:10043C002406F582E43EF583E41239C80547E54706
:10044C00AE4670020546142406F582E43EF583742C
:10045C00011239C80547E547AE467002054614241B
:10046C0006F582E43EF58374031239C80547E54767
:10047C00AE4670020546142406F582E43EF583E48C
:10048C001239C80547E547AE4670020546142406E6
:10049C00F582E43EF583E41239C80547E547AE46DC
:1004AC0070020546142406F582E43EF583E4123905
:1004BC00C80547E547AE4670020546142406F5828A
:1004CC00E43EF583E41239C80547E547AE467002B1
:1004DC000546142406F582E43EF58374011239C8EE
:1004EC000547E547AE4670020546142406F582E43E
:1004FC003EF58374301239C80547E547AE467002A5
:10050C000546142406F582E43EF583E41239C80549
:10051C0047E547AE4670020546142406F582E43ED4
:10052C00F583E41239C80547E547AE467002054627
:10053C00142406F582E43EF583E41239C80547E538
:10054C0047AE4670020546142406F582E43EF58358
:10055C00E41239C80547E547AE4670020546142437
:10056C0006F582E43EF58374011239C80547E54768
:10057C00AE4670020546142406F582E43EF58374FB
:10058C00041239C80547E547AE46700205461424E7
:10059C0006F582E43EF583E41239C80547E547AE1B
:1005AC004670020546142406F582E43EF583E412F7
:1005BC0039C80547E547AE4670020546142406F5D2
:1005CC0082E43EF583E41239C80547E547AE467030
:1005DC00020546142406F582E43EF583E41239C87C
:1005EC000547E547AE4670020546142406F582E43D
:1005FC003EF58374011239C80547E547AE467002D3
:10060C000546142406F582E43EF58374201239C89D
:10061C000547E547AE4670020546142406F582E40C
:10062C003EF583E41239C80547E547AE467002052E
:10063C0046142406F582E43EF583E41239C80547D6
:10064C00E547AE4670020546142406F582E43EF5F5
:10065C0083E41239C80547E547AE467002054612D9
:10066C00A20B900288E07002A3E070F6900292E078
:10067C00FF900291E06F60F4900296123E6F900230
:10068C0092E0FF75F0DCA4F58285F083123ADEF57A
:10069C004785F046EFB402047F008006900292E09A
:1006AC0004FF900292EFF0E54764017004E54664A4
:0F06BC0005600C900292E0FF900291E0B507B943
:1006CB00900CCE123DE400002328E4FFFEFDFC90CD
:1006DB000CCE123D9CD3123CB54017900CCE123D64
:1006EB009074FFFBFAF9F8123B62900CCE123DD8D6
:0206FB0080D8A5
:1006FD00E54764017004E5466405600302020AE4FF
:10070D00F546F547AB49AA4AA94B0547E547AE461D
:10071D0070020546142406F582E43EF58374011239
:10072D0039C80547E547AE4670020546142406F55F
:10073D0082E43EF58374111239C80547E547AE468C
:10074D0070020546142406F582E43EF583E4123961
:10075D00C80547E547AE4670020546142406F582E6
:10076D00E43EF583E41239C80547E547AE4670020D
:10077D000546142406F582E43EF583E41239C805D6
:10078D0047E547AE4670020546142406F582E43E61
:10079D00F583E41239C80547E547AE4670020546B4
:1007AD00142406F582E43EF58374011239C8054719
:1007BD00E547AE4670020546142406F582E43EF583
:1007CD008374211239C80547E547AE4670020546C8
:1007DD00142406F582E43EF583E41239C80547E595
:1007ED0047AE4670020546142406F582E43EF583B5
:1007FD00E41239C80547E547AE4670020546142494
:10080D0006F582E43EF583E41239C80547E547AEA7
:10081D004670020546142406F582E43EF583E41283
:10082D0039C80547E547AE4670020546142406F55E
:10083D0082E43EF58374011239C80547E547AE469B
:10084D0070020546142406F582E43EF583742212E7
:10085D0039C80547E547AE4670020546142406F52E
:10086D0082E43EF583E41239C80547E547AE46708C
:10087D00020546142406F582E43EF583E41239C8D8
:10088D000547E547AE4670020546142406F582E499
:10089D003EF583E41239C80547E547AE46700205BB
:1008AD0046142406F582E43EF583E41239C8054763
:1008BD00E547AE4670020546142406F582E43EF582
:1008CD0083740A1239C80547E547AE4670020546DE
:1008DD00142406F582E43EF58374071239C80547E2
:1008ED00E547AE4670020546142406F582E43EF552
:1008FD0083E41239C80547E547AE46700205461434
:10090D002406F582E43EF583E41239C80547E54730
:10091D00AE4670020546142406F582E43EF583E4E6
:10092D001239C80547E547AE467002054614240640
:10093D00F582E43EF583E41239C80547E547AE4636
:10094D0070020546142406F582E43EF583740A12FE
:10095D0039C80547E547AE4670020546142406F52D
:10096D0082E43EF58374081239C80547E547AE4663
:10097D0070020546142406F582E43EF583E412392F
:10098D00C80547E547AE4670020546142406F582B4
:10099D00E43EF583E41239C80547E547AE467002DB
:1009AD000546142406F582E43EF583E41239C805A4
:1009BD0047E547AE4670020546142406F582E43E2F
:1009CD00F583E41239C80547E547AE467002054682
:1009DD00142406F582E43EF583740A1239C80547DE
:1009ED00E547AE4670020546142406F582E43EF551
:1009FD008374021239C80547E547AE4670020546B5
:100A0D00142406F582E43EF583E41239C80547E562
:100A1D0047AE4670020546142406F582E43EF58382
:100A2D00E41239C80547E547AE4670020546142461
:100A3D0006F582E43EF583E41239C80547E547AE75
:100A4D004670020546142406F582E43EF583E41251
:100A5D0039C80547E547AE4670020546142406F52C
:100A6D0082E43EF583740A1239C80547E547AE4660
:100A7D0070020546142406F582E43EF583740912CE
:100A8D0039C80547E547AE4670020546142406F5FC
:100A9D0082E43EF583E41239C80547E547AE46705A
:100AAD00020546142406F582E43EF583E41239C8A6
:100ABD000547E547AE4670020546142406F582E467
:100ACD003EF583E41239C80547E547AE4670020589
:100ADD0046142406F582E43EF583E41239C8054731
:100AED00E547AE4670020546142406F582E43EF550
:100AFD0083740A1239C80547E547AE4670020546AC
:100B0D00142406F582E43EF58374011239C80547B5
:100B1D00E547AE4670020546142406F582E43EF51F
:100B2D0083E41239C80547E547AE46700205461401
:100B3D002406F582E43EF583E41239C80547E547FE
:100B4D00AE4670020546142406F582E43EF583E4B4
:100B5D001239C80547E547AE46700205461424060E
:100B6D00F582E43EF583E41239C80547E547AE4604
:100B7D0070020546142406F582E43EF583740A12CC
:100B8D0039C80547E547AE4670020546142406F5FB
:100B9D0082E43EF58374031239C80547E547AE4636
:100BAD0070020546142406F582E43EF583E41239FD
:100BBD00C80547E547AE4670020546142406F58282
:100BCD00E43EF583E41239C80547E547AE467002A9
:100BDD000546142406F582E43EF583E41239C80572
:100BED0047E547AE467002054612A20B900288E01B
:100BFD007002A3E070F6900292E0FF900291E06F18
:100C0D0060F4900296123E6F900292E0FF75F0DC58
:100C1D00A4F58285F083123ADEF54785F046EFB4F0
:100C2D0002047F008006900292E004FF900292EF92
:100C3D00F0E54764017004E5466405600C9002928E
:090C4D00E0FF900291E0B507B947
:100C5600900CD2123DE400002328E4FFFEFDFC9038
:100C66000CD2123D9CD3123CB54017900CD2123DCB
:100C76009074FFFBFAF9F8123B62900CD2123DD841
:020C860080D814
:100C8800E54764017004E5466405600302070CE467
:100C9800F546F547AB49AA4AA94B0547E547AE468D
:100CA80070020546142406F582E43EF58374FA12B0
:100CB80039C80547E547AE4670020546142406F5CF
:100CC80082E43EF583E41239C80547E547AE46702D
:100CD800020546142406F582E43EF58374011239B0
:100CE800C80547E547AE4670020546142406F58256
:100CF800E43EF583E41239C80547E547AE4670027D
:100D08000546142406F582E43EF58374011239C8B9
:100D18000547E547AE4670020546142406F582E409
:100D28003EF583E41239C87F0812A21A900288E0BF
:100D38007002A3E070F6900292E0FF900291E06FDB
:100D480060F4900296123E6F900292E0FF75F0DC1C
:100D5800A4F58285F083123ADEF54785F046EFB4B4
:100D680002047F008006900292E004FF900292EF56
:100D7800F0E54764017004E5466405600C90029252
:090D8800E0FF900291E0B507B90B
:100D9100900CD6123DE400001194E4FFFEFDFC909E
:100DA1000CD6123D9CD3123CB54017900CD6123D87
:100DB1009074FFFBFAF9F8123B62900CD6123DD801
:020DC10080D8D8
:0F0DC300E54764017004E54664056003020C9780
:100DD200900CA7E0FBE4FAF9F87F807E967D98FC00
:100DE20012AC438F4F8E4E8D4D8C4C7808123CDCEA
:100DF200E4FFE4FDFCC004C005C006C007AF4FAE6F
:100E02004EAD4DAC4C7818123CDCE4FEFDFCD00338
:100E1200D002D001D000123C9AC004C005C006C066
:100E220007AF4FAE4EAD4DAC4C7808123CEFE4FF2D
:100E3200FEE4FCD003D002D001D000123C9AC004E0
:100E4200C005C006C007AF4FAE4EAD4DAC4C7818D2
:100E5200123CEFE4FFFEFDECD003D002D001D00043
:100E6200123C9AAB49AA4AA94B900006123D6CE487
:100E7200754F0AF54EF54DF54CAF4FAE4EAD4DAC3C
:100E82004C7808123CDCE4FFE4FDFCC004C005C061
:100E920006C007AF4FAE4EAD4DAC4C7818123CDCDD
:100EA200E4FEFDFCD003D002D001D000123C9AC077
:100EB20004C005C006C007AF4FAE4EAD4DAC4C7876
:100EC20008123CEFE4FFFEE4FCD003D002D001D0D4
:100ED20000123C9AC004C005C006C007AF4FAE4E18
:100EE200AD4DAC4C7818123CEFE4FFFEFDECD003A4
:100EF200D002D001D000123C9AAB49AA4AA94B9029
:100F0200000A123D6C7546007547080547E547AE75
:100F12004670020546142406F582E43EF583740108
:100F22001239C80547E547AE467002054614240645
:100F3200F582E43EF58374011239C80547E547AEF0
:100F42004670020546142406F582E43EF583E41257
:100F520039C80547E547AE4670020546142406F532
:100F620082E43EF583E41239C80547E547AE467090
:100F7200020546142406F582E43EF58374321239E2
:100F8200C80547E547AE4670020546142406F582B9
:100F9200E43EF583E41239C80547E547AE467002E0
:100FA2000546142406F582E43EF58374341239C8EA
:100FB2000547E547AE4670020546142406F582E46D
:100FC2003EF58374031239C80547E547AE46700201
:100FD2000546142406F582E43EF583E41239C80579
:100FE20047E547AE4670020546142406F582E43E04
:100FF200F583E41239C80547E547AE467002054657
:10100200142406F582E43EF583E41239C80547E567
:1010120047AE4670020546142406F582E43EF58387
:10102200E41239C8AD47AC467F077E0612A2209073
:101032000288E07002A3E070F6900292E0FF900254
:1010420091E06F60F4900296123E6F900292E0FF80
:1010520075F0DCA4F58285F083123ADEF54785F05F
:1010620046EFB402047F008006900292E004FF90F3
:101072000292EFF0E54764017004E5466405600CF6
:0C108200900292E0FF900291E0B507B9E7
:10108E00900CDA123DE400001194E4FFFEFDFC909A
:10109E000CDA123D9CD3123CB54017900CDA123D7F
:1010AE009074FFFBFAF9F8123B62900CDA123DD8FD
:0210BE0080D8D8
:1010C000E54764017004E54664056003020DD290B3
:1010D0000014E07003021690E4F546F547AB49AA08
:1010E0004AA94B0547E547AE46700205461424065B
:1010F000F582E43EF583E41239C80547E547AE467C
:1011000070020546142406F582E43EF583E41239A4
:10111000C8AD47AC467F117E0612A220900288E03F
:101120007002A3E070F6900292E0FF900291E06FEF
:1011300060F4900296123E6F900292E0FF75F0DC30
:10114000A4F58285F083123ADEF54785F046EFB4C8
:1011500002047F008006900292E004FF900292EF6A
:10116000F0E54764017004E5466405600C90029266
:09117000E0FF900291E0B507B91F
:10117900900CDE123DE400001194E4FFFEFDFC90AA
:101189000CDE123D9CD3123CB54017900CDE123D8B
:101199009074FFFBFAF9F8123B62900CDE123DD80D
:0211A90080D8EC
:1011AB00E54764017004E546640560030210D8E46A
:1011BB00F546F547AB49AA4AA94B0547E547AE4665
:1011CB0070020546142406F582E43EF583E41239D9
:1011DB00C80547E547AE4670020546142406F5825E
:1011EB00E43EF583E41239C80547E547AE46700285
:1011FB000546142406F582E43EF583E41239C8054E
:10120B0047E547AE4670020546142406F582E43ED8
:10121B00F583E41239C80547E547AE46700205462B
:10122B00142406F582E43EF583E41239C80547E53C
:10123B0047AE4670020546142406F582E43EF5835C
:10124B00E41239C80547E547AE467002054614243B
:10125B0006F582E43EF583E41239C80547E547AE4F
:10126B004670020546142406F582E43EF583E4122B
:10127B0039C8AD47AC467F167E0612A22090028875
:10128B00E07002A3E070F6900292E0FF900291E012
:10129B006F60F4900296123E6F900292E0FF75F031
:1012AB00DCA4F58285F083123ADEF54785F046EF34
:1012BB00B402047F008006900292E004FF90029239
:1012CB00EFF0E54764017004E5466405600C90029D
:0A12DB0092E0FF900291E0B507B920
:1012E500900CE2123DE400001194E4FFFEFDFC9039
:1012F5000CE2123D9CD3123CB54017900CE2123D16
:101305009074FFFBFAF9F8123B62900CE2123DD89B
:0213150080D87E
:10131700E54764017004E546640560030211BAE419
:10132700F546F547AB49AA4AA94B0547E547AE46F7
:1013370070020546142406F582E43EF5837405120F
:1013470039C80547E547AE4670020546142406F539
:1013570082E43EF583E41239C80547E547AE467097
:10136700020546142406F582E43EF5837404123917
:10137700C80547E547AE4670020546142406F582C0
:10138700E43EF58374021239C8E92406F9E43AFA0F
:10139700E92547F9EA3546FA123E1550C3000074AD
:1013A700042547F547E43546F546AB49E54B2406A2
:1013B700F9E4354AFAE92547F9EA3546FA123E15BE
:1013C7000000000074042547F547E43546F546ABB1
:1013D70049AA4AA94B0547E547AE46700205461498
:1013E7002406F582E43EF58374051239C80547E5FE
:1013F70047AE4670020546142406F582E43EF5839F
:10140700E41239C8E92406F9E43AFAE92547F9EA82
:101417003546FA74FA75F000123B1674022547F543
:1014270047E43546F546AB49E54B2406F9E4354A2A
:10143700FAE92547F9EA3546FA74FA75F000123BDE
:101447001674022547F547E43546F546AB49E54BA3
:101457002406F9E4354AFAE92547F9EA3546FA74E4
:101467006475F000123B1674022547F547E43546CC
:10147700F546AB49E54B2406F9E4354AFAE9254731
:10148700F9EA3546FA742C75F001123B16740225F9
:1014970047F547E43546F546AB49AA4AA94B054700
:1014A700E547AE4670020546142406F582E43EF58C
:1014B70083E41239C80547E547AE4670020546146E
:1014C7002406F582E43EF583E41239C80547E5476B
:1014D700AE4670020546142406F582E43EF583E421
:1014E7001239C80547E547AE46700205461424067B
:1014F700F582E43EF583E41239C80547E547AE4671
:1015070070020546142406F582E43EF583E4123999
:10151700C80547E547AE4670020546142406F5821E
:10152700E43EF583E41239C80547E547AE46700245
:101537000546142406F582E43EF583E41239C8050E
:1015470047E547AE4670020546142406F582E43E99
:10155700F583E41239C80547E547AE4670020546EC
:10156700142406F582E43EF583E41239C80547E5FD
:1015770047AE4670020546142406F582E43EF5831D
:10158700E41239C80547E547AE46700205461424FC
:1015970006F582E43EF583E41239C80547E547AE10
:1015A7004670020546142406F582E43EF583E412EC
:1015B70039C80547E547AE4670020546142406F5C7
:1015C70082E43EF583E41239C80547E547AE467025
:1015D700020546142406F582E43EF583E41239C871
:1015E700AD47AC467F247E0612A220900288E070A9
:1015F70002A3E070F6900292E0FF900291E06F6024
:10160700F4900296123E6F900292E0FF75F0DCA410
:10161700F58285F083123ADEF54785F046EFB4028E
:10162700047F008006900292E004FF900292EFF0A0
:10163700E54764017004E5466405600C900292E09A
:08164700FF900291E0B507B924
:10164F00900CE6123DE400001194E4FFFEFDFC90C7
:10165F000CE6123D9CD3123CB54017900CE6123DA0
:10166F009074FFFBFAF9F8123B62900CE6123DD82A
:02167F0080D811
:0F168100E54764017004E5466405600302132623
:011690002237
:10A20B00142406F582E43EF583E41239C87F01ADD0
:05A21B0047AC467E0681
:08A220008E508F518C528D53BA
:10A22800900293123E6F74B51239B6900293123EA3
:10A238006F90000174621239C8E55090000212391B
:10A24800C8E5519000031239C8E55390000412394B
:10A25800C8E5529000051239C8E4F555F5547F0257
:10A26800FEE5532406FDE43552FCC3EF9DEE9C50F9
:10A278001C900293123E6F8F828E8312395625549A
:10A28800F5542555F5550FBF00010E80D490029363
:10A29800123E6FE5532406FFE435528F82F583E5BD
:10A2A800541239C8E5532407FFE435528F82F583E9
:10A2B800E5551239C87B017A027986E5532408FDF1
:07A2C800E43552FC02A984F9
:06492C008B318A32893351
:10493200900DD9E0700804F01200A6024FA6AB3128
:10494200AA32A933123AB3123F30495C01024C4FEA
:0A49520001064D30011200004FA0D5
:10495C0074062533F533E43532F532753700753886
:10496C000075393FE4F53AF53B7831E475F0011206
:10497C003E5F12393DFF783774FFF5F0123E5FEF62
:10498C001239B6053BE53B7002053A6404453A70B2
:10499C00D8AC3CEC3350047F0180027F008F40AFD9
:1049AC003FAE3EAD3DAC3CEC334002800BAF3FAE76
:1049BC003EAD3DAC3C123CA78F3F8E3E8D3D8C3CBA
:1049CC00AB34AA35A93690000A123E2F0000000025
:1049DC00E4F53AF53BAB34E536240AF9E43535FA1F
:1049EC00C003C002C001123D02C004C005C006C015
:1049FC0007E47B0AFAF9F8AF3FAE3EAD3DAC3C1292
:104A0C00AC43AC00AD01AE02AF03C004C005C006A0
:104A1C00C007E53BAE3A7802C333CE33CED8F92487
:104A2C00F6F58274AC3EF583123DA8D007D006D0C3
:104A3C0005D004123B7DA804A905AA06AB07D00734
:104A4C00D006D005D004123B62D001D002D00312A4
:104A5C003D52AF3FAE3EAD3DAC3CE47B0AFAF9F8BB
:104A6C0012AC438F3F8E3E8D3D8C3C053BE53B703D
:104A7C0002053A640A453A60030249E1E5406015D3
:104A8C00AB34AA35A93690000A123D22123CA790ED
:104A9C00000A123D6C75370075380075393FE4F526
:104AAC003AF53B7831E475F001123E5F12393DFF67
:104ABC00783774FFF5F0123E5FEF1239B6053BE51F
:104ACC003B7002053A6404453A70D8AC3CEC335068
:104ADC00047F0180027F008F40AF3FAE3EAD3DAC06
:104AEC003CEC334002800BAF3FAE3EAD3DAC3C12D4
:104AFC003CA78F3F8E3E8D3D8C3CAB34AA35A936FE
:104B0C00900006123E2F00000000E4F53AF53BAB96
:104B1C0034E5362406F9E43535FAC003C002C00189
:104B2C00123D02C004C005C006C007E47B0AFAF9B6
:104B3C00F8AF3FAE3EAD3DAC3C12AC43AC00AD016A
:104B4C00AE02AF03C004C005C006C007E53BAE3AD9
:104B5C007802C333CE33CED8F924F6F58274AC3E4A
:104B6C00F583123DA8D007D006D005D004123B7DAA
:104B7C00A804A905AA06AB07D007D006D005D00417
:104B8C00123B62D001D002D003123D52AF3FAE3E79
:104B9C00AD3DAC3CE47B0AFAF9F812AC438F3F8E86
:104BAC003E8D3D8C3C053BE53B7002053A640A4565
:104BBC003A6003024B1BE5406015AB34AA35A936AD
:104BCC00900006123D22123CA7900006123D6C7418
:104BDC00042533F533E43532F5327537007538007A
:104BEC0075393FE4F53AF53B7831E475F001123E46
:104BFC005F12393DFF783774FFF5F0123E5FEF120C
:104C0C0039B6053BE53B7002053A6404453A70D869
:104C1C00AF3FAE3EAD3DAC3CE47BE87A03F9F81215
:104C2C00AC438F3F8E3E8D3D8C3CAB34AA35A936C0
:104C3C0090000EEE8FF0123B359002E1E04404F050
:104C4C00024FA6AB31AA32A93390002F123956FE6F
:104C5C0090002E1239567C002400FFEC3E9002B0DE
:104C6C00F0A3EFF0900031123956900CADF07402B5
:104C7C002533F533E43532F532FAA93390000B12B3
:104C8C003956540D640D6008E4900CADF0024D26BD
:104C9C00E5362403F9E43535853437F5388939E4BC
:104CAC00F53AF53B7831E475F001123E5F12393D6F
:104CBC00FF783774FFF5F0123E5FEF1239B6053B03
:104CCC00E53B7002053A6404453A70D87404253308
:104CDC00F533E43532F532E5362404F9E43535FAAA
:104CEC00E92401F9E43A853437F5388939E4F53AA1
:104CFC00F53B7831E475F001123E5F12393DFF78D7
:104D0C003774FFF5F0123E5FEF1239B6053BE53B09
:104D1C007002053A6402453A70D89002E1E0440210
:044D2C00F0024FA69C
:104D300074062533F533E43532F532AB31FAA93355
:104D4000123D028F3F8E3E8D3D8C3C7808123CDC3C
:104D5000E4FFE4FDFCC004C005C006C007AF3FAEE1
:104D60003EAD3DAC3C7818123CDCE4FEFDFCD003CB
:104D7000D002D001D000123C9AC004C005C006C0C9
:104D800007AF3FAE3EAD3DAC3C7808123CEFE4FFD0
:104D9000FEE4FCD003D002D001D000123C9AC00443
:104DA000C005C006C007AF3FAE3EAD3DAC3C781875
:104DB000123CEFE4FFFEFDECD003D002D001D000A6
:104DC000123C9A8F3F8E3E8D3D8C3CE47B64FAF919
:104DD000F812AC438F3F8E3E8D3D8C3C8E428F430C
:104DE00074042533F533E43532F532AB31FAA933A7
:104DF000123D028F3F8E3E8D3D8C3C7808123CDC8C
:104E0000E4FFE4FDFCC004C005C006C007AF3FAE30
:104E10003EAD3DAC3C7818123CDCE4FEFDFCD0031A
:104E2000D002D001D000123C9AC004C005C006C018
:104E300007AF3FAE3EAD3DAC3C7808123CEFE4FF1F
:104E4000FEE4FCD003D002D001D000123C9AC00492
:104E5000C005C006C007AF3FAE3EAD3DAC3C7818C4
:104E6000123CEFE4FFFEFDECD003D002D001D000F5
:104E7000123C9A8F3F8E3E8D3D8C3CE47B64FAF968
:104E8000F812AC438F3F8E3E8D3D8C3C8E408F415F
:104E900074042533F533E43532F532AB31FAA933F6
:104EA000123D028F3F8E3E8D3D8C3C7808123CDCDB
:104EB000E4FFE4FDFCC004C005C006C007AF3FAE80
:104EC0003EAD3DAC3C7818123CDCE4FEFDFCD0036A
:104ED000D002D001D000123C9AC004C005C006C068
:104EE00007AF3FAE3EAD3DAC3C7808123CEFE4FF6F
:104EF000FEE4FCD003D002D001D000123C9AC004E2
:104F0000C005C006C007AF3FAE3EAD3DAC3C781813
:104F1000123CEFE4FFFEFDECD003D002D001D00044
:104F2000123C9A8F3F8E3E8D3D8C3CE47B64FAF9B7
:104F3000F812AC438F3F8E3E8D3D8C3CC3E49FF511
:104F400045E49EF544E5405407FEE47803CEC313E0
:104F5000CE13D8F9AB34AA35A9369000101239C84F
:104F6000E5425407FEE47806CEC313CE13D8F99079
:104F70000010123983E5445403900010123983E580
:104F8000419000111239C8E5439000121239C8E56A
:0E4F9000459000131239C89002E1E04401F090
:104F9E008006753A00753B019002E1E064076003FC
:104FAE00025162F0900CADE060030250DD90000003
:104FBE00E075F015A424B5F9740235F0FA7B01A85A
:104FCE0036AC35AD347E007F15123917AB34AA35A9
:104FDE00A936123D02EF24FAFFE43EFEE43DFDE465
:104FEE003CFC123D52900000E0640175F015A424C3
:104FFE00B5F582E43402F583123D90E4FBFAF9F83C
:10500E00C3123CCB70030250DDAB34E5362406F9F7
:10501E00E43535FAC003C002C001123D02C004C01F
:10502E0005C006C007900000E0FF640175F015A4EE
:10503E0024BBF582E43402F583123D9CEF75F01526
:10504E00A424BBF582E43402F583123D90123B6F2B
:10505E00A804A905AA06AB07D007D006D005D00430
:10506E00123B62D001D002D003123D52AB34E53672
:10507E00240AF9E43535FAC003C002C001123D021C
:10508E00C004C005C006C007900000E0FF640175B3
:10509E00F015A424BFF582E43402F583123D9CEF93
:1050AE0075F015A424BFF582E43402F583123D9009
:1050BE00123B6FA804A905AA06AB07D007D006D0ED
:1050CE0005D004123B62D001D002D003123D5290A3
:1050DE000000E06401F0E075F015A424B5F9740247
:1050EE0035F0A801FC7D01AB34AA35A9367E007FD0
:1050FE00151239179089A6E493FF3395E0FE9002BE
:10510E008075F013EF123E53EE75F013A42583F560
:10511E0083123E6FE92407F9E43A8B37F538893963
:10512E00900CADE0FF7837E475F001123E5FEF12A0
:10513E0039B6A839AC38AD37AB34AA35A9367E00AE
:10514E007F15123917754C00754D167B227D037F26
:04515E000212941F86
:01516200222A
:10AD7600EF6004C2B18002D2B1E4FF0FBF1EFCD265
:10AD8600B2E4FF0FBF1EFCE4FEB2B1E4FF0FBF1E2C
:07AD9600FC0EBE85F4C2B201
:01AD9D002293
:10ADFA00AF84E4F58475C04475CFEC43C040C2C348
:05AE0A0043E6028F8405
:01AE0F002220
:03003B000295ED3E
:1095ED00C0E0C083C082C0D075D000C000C001C033
:0795FD0002C003C006C00715
:10960400C200AFC1EF123F0A9652089652109673E9
:109614001896A12096732896A13097103896A840E2
:1096240096A34896A85096E1589715609715709799
:10963400238097708897239097709897A2A0977427
:10964400A89774B89788C097A2C800009710900094
:109654003DE0F5C2900048E4F053C2FEA20C334250
:10966400C2C2C590003FE4F090003EF00297A29081
:109674000040E0FF90003EE0FEC39F50199000427E
:10968400123E6F8E82758300123956F5C290003EE9
:10969400E004F00297A2D2C4C20B0297A2D2C5D2B0
:1096A400C50297A290003FE0601624FFFFE434FF58
:1096B400FE900045123E6F8F828E83E5C21239C838
:1096C40090003FE004F0900041E0FF90003FE0C3D1
:1096D4009F5005D2C20297A2C2C20297A290003F35
:1096E400E024FFFFE434FFFE900045123E6F8F82BA
:1096F4008E83E5C21239C890003FE004F090004820
:109704007401F0D2C4C20BD2C20297A2D200029753
:10971400A2900048E4F090003EF0A3F00297A290DB
:10972400003FE0FF700D900041E5C2F0900048E476
:10973400F08017EF24FFFFE434FFFE900045123E53
:109744006F8F828E83E5C21239C890003FE004F027
:10975400900041E0FF90003FE0D39F400B90004811
:109764007401F090003FE4F0D2C28032D2C2802E65
:10977400900042123E6F90003EE0FF04F08F82752D
:109784008300801590003EE024FFFFE434FFFE9048
:109794000042123E6F8F828E83123956F5C230001A
:1097A4001053C0BF43C040C2C5C2C4C2C2C20BC270
:0397B40000C2C32D
:1097B700D007D006D003D002D001D000D0D0D082BD
:0597C700D083D0E03268
:10ADE100AF84E4F584D2C6200BFDD20BC20C9000D7
:08ADF1003DE0F5C3D2C58F84DB
:01ADF9002237
:10ADC500AF84E4F584D2C6200BFDD20BD20C9000E3
:0BADD5003DE0F5C3D2C5200BFD8F84CC
:01ADE0002250
:10A1F60002080001010C00020D0000420DD600000D
:04A20600410DD8002E
:06A984008B568A5789582A
:10A98A00858459AB56AA57A958900002123ADE4557
:10A99A00F070F0AB56AA57A95890000D123E81C02C
:10A9AA0003C002C001AB56AA57A958900007123E2D
:10A9BA00B1AB56AA57A958900002EC8DF0123B355C
:10A9CA0012393D7006F584D2998005758401D299B1
:03A9DA0085598418
:01A9DD002257
:10003E00AE84E4F5848F9B30FFFDC2FFAF9B8E84B0
:01004E00228F
:10A9DE00AF8475840F759601758C67E4FDFC0DBD13
:10A9EE0000010CE4B505F7ECB401F3E58C30E7FBA0
:10A9FE00759701E4F58A758905F58475B720758418
:10AA0E000F758D01758F01758E03FCFD0DBD000157
:10AA1E000CE4B505F7ECB401F3438902E58930E4A3
:06AA2E00FB7597028F8406
:01AA340022FF
:0E900C008B428A4389448F488E478D468C459F
:10901A0085844912393D14606F04600302920CE49E
:10902A00F58475911590000A12395624BB601824EC
:10903A00F6601424EA601024F760071460092421FA
:10904A00700875985080037598D0E4F58475C80443
:10905A0075C908AB48AA47A946A845FFFE7D657CA5
:10906A0004123C08E47B10FAF9F8123C08123CA7F7
:10907A008ECB8FCA74FFF5CDF5CCD2CAE4F584C283
:10908A0099C298D2AC02920C758401AB42AA43A948
:10909A004490000A12395624BB601824F66014243E
:1090AA00EA601024F7600714600924217008759893
:1090BA00108003759890E4F58453890F438920AB97
:1090CA0048AA47A946A845FFFE7D657C04123C08CC
:1090DA00E47B02FAF9F8123C08E4FB7A01F9F81287
:1090EA003C08E47B01FAF9F8D3123CCB4026AB48A2
:1090FA00AA47A946A845E4FFFE7D657C04123C0800
:10910A00E47B02FAF9F8123C08123CA78F8D438ED1
:10911A00100291FDAB48AA47A946A845E4FFFE7D87
:10912A00657C04123C08E47B02FAF9F8123C08E474
:10913A00FB7A01F9F8123C08E47B04FAF9F8D31235
:10914A003CCB4031AB48AA47A946A845E4FFFE7D7F
:10915A00657C04123C08E47B02FAF9F8123C08E444
:10916A007B04FAF9F8123C08123CA78F8D538EEC57
:10917A00438E01807EAB48AA47A946A845E4FFFE74
:10918A007D657C04123C08E47B02FAF9F8123C087B
:10919A00E4FB7A01F9F8123C08E47B0CFAF9F8D3FB
:1091AA00123CCBAB48AA47A946A845E4FFFE7D6519
:1091BA007C04401F123C08E47B02FAF9F8123C08CE
:1091CA00E47B0CFAF9F8123C08123CA78F8D538EF7
:1091DA00EC8020123C08E47B02FAF9F8123C08E41D
:1091EA007B30FAF9F8123C08123CA78F8D538EECAB
:1091FA00438E02858D8BD28E758401C299C29843A3
:05920A00E740854984E6
:01920F00223C
:10002600AF84E4F584759D04759A70C2FFD2F88F8B
:010036008445
:0100370022A6
:10AD4C00AD84758401E4F5C8F5C9EF2408FFE43E31
:10AD5C00FEC3E49FFFE49EF5CB8FCA74FFF5CDF5DF
:09AD6C00CC43E70143C8048D84C7
:01AD750022BB
:0300230002921036
:10921000C0E0C0F0C083C082C0D075D000C000C024
:0D92200001C002C003C004C005C006C007A5
:10922D00E59820E0030293A78599275398FEE5085A
:10923D006003029374E50924FE60631470030292C7
:10924D00DC14700302934124036003029374750DC3
:10925D0000750E00E5276416600302937490027E7C
:10926D00E0FF7E007C027D1D1239EA900283123EE2
:10927D006FE92FF9EA3E8B0FF5108911FA050EE50E
:10928D000EAE0D7002050D14F5828E83E527123991
:10929D00C8E527620C750800750902029374AB0FBF
:1092AD00AA10A911050EE50EAE0D7002050D14F5EF
:1092BD00828E83E5271239C8E527620CE50E640618
:1092CD00450D6003029374F508750903029374ABA1
:1092DD000FAA10A911050EE50EAE0D7002050D14A5
:1092ED00F5828E83E5271239C8630CFFE50C6527DF
:1092FD007031AB0FAA10A911900003123956750ADF
:10930D0000F50B750B00F50A900004123956250B6C
:10931D00F50BE4350AF50A450B604675080075092D
:10932D00048044750D00750E0075080075090175F2
:10933D000C008033D2B4AB0FAA10A911050EE50EA7
:10934D00AE0D7002050D14F5828E83E5271239C816
:10935D00E50B2407FFE4350AFEEFB50E0AEEB50D59
:10936D0006750800750905E50964054508702BC2E9
:10937D00B4F508750901F50DF50EF50C900277128F
:10938D003E6FE94A4B7013AB0FAA10A911900277EB
:10939D00123E7890027EE06401F0E59830E13E9057
:1093AD000275E07002A3E06023D2B490027A123EFF
:1093BD006F12393DF59990027BE475F001123A87F1
:1093CD0090027574FFF5F0123A87800EC2B47B00DF
:0D93DD007A00790090027A123E785398FDD4
:1093EA00D007D006D005D004D003D002D001D000D7
:0B93FA00D0D0D082D083D0F0D0E03281
:0300A300028BA726
:108BA700C0E0C0F0C083C082C0D075D000C000C094
:098BB70001C002C003C006C007A2
:108BC000E59820E003028D52859928900DD8E01297
:108BD0003F0A8BF1008C02018C15028C65038C928C
:108BE000048CAB058CD2068D13078D240800008DF4
:108BF0004FE52864B56003028D4F900DD804F00254
:108C00008D4FE528900DD8B462067402F0028D4FA6
:108C1000E4F0028D4F751800751700900DD6E4F042
:108C2000A3F0900291E075F0DCA4FF900296123E52
:108C30006FE92FF9EA35F08B12F5138914FA900DCC
:108C4000D6E475F001123A9D85F082F583E528128D
:108C500039C8E5282517F5172518F518900DD8748B
:108C600003F0028D4FAB12AA13A914900DD6E47530
:108C7000F001123A9D85F082F583E5281239C8E5A6
:108C8000282517F5172518F518900DD87404F0024B
:108C90008D4F751500852816E5282517F517251819
:108CA000F518900DD87405F0028D4FE528FEE425E7
:108CB00016F516EE3515F515E5282517F5172518BF
:108CC000F518E5164515900DD8700280417406F030
:108CD000807DAB12AA13A914900DD6E475F0011291
:108CE0003A9D85F082F583E5281239C8E5282517D5
:108CF000F5172518F518E5162402FFE43515FE9042
:108D00000DD6E06E7003A3E06F7044900DD8740729
:108D1000F0803CE517900DD8B528057408F0802F39
:048D2000E4F0802BD0
:108D2400900291E0FFB402067E007F008003EF040E
:108D3400FF8F29E518B5280E900292E06529600698
:0B8D4400900291E529F0900DD8E4F0BA
:108D4F005398FEE59830E170900288E07002A3E03E
:108D5F006057900290E024BB601A24E0601624F65E
:108D6F0060042420702290028D123E6F12393D3024
:108D7F00E00E801190028D123E6F12393D30E005EA
:108D8F0043980480035398FB90028D123E6F123963
:108D9F003DF59990028EE475F001123A87900288A2
:108DAF0074FFF5F0123A87800C7B007A00790090FF
:088DBF00028D123E785398FD6D
:108DC700D007D006D003D002D001D000D0D0D082B7
:078DD700D083D0F0D0E032A0
:0300730002A37F66
:10A37F00C0E0C0F0C083C082C0D075D000C000C0A4
:03A38F0006C007FE
:10A3920075840153C87F90025DE475F001123A871B
:10A3A2009002ADE0FEA3E0FF90025DE0B50619A3C6
:10A3B200E0B507149002ADE475F0A0123A87900060
:10A3C20049E475F001123A87E4FFFE74242FF58206
:10A3D200E4340CF583E0600D74242FF582E4340C30
:10A3E200F583E014F00FBF00010EEF64034E70DB43
:10A3F20075840F20E816C39002B4E094FF9002B374
:10A40200E094FF5007E475F001123A8775840075F5
:06A41200BB00C2EDD2EC1C
:10A41800D007D006D000D0D0D082D083D0F0D0E002
:01A428003201
:0C9CD30030D803029E0B20D903029E0B28
:109CDF00E4F531F5327B017A00794BF54E754F0380
:0B9CEF007F107E0212A4C3C2C8C2CACC
:109CFA00900CCA123DE4000001C2E4FFFEFDFC9094
:109D0A000CCA123D9CD3123CB54017900CCA123DA6
:109D1A009074FFFBFAF9F8123B62900CCA123DD814
:029D2A0080D8DF
:109D2C0020DB03029E0520DC03029E05D2CAE4F56B
:109D3C0031F53230DC100532E53270020531B4E811
:0C9D4C00F2E531B403ED30DC03029E05AB
:109D58009001F3E0C394014006E0D39406400690D6
:109D680001F37405F09001F3E0540FC454F0FFE0E0
:0F9D7800540F4FF534E4F533E5341392C8B2CAF3
:109D8700900CCE123DE4000001C2E4FFFEFDFC9002
:109D97000CCE123D9CD3123CB54017900CCE123D11
:109DA7009074FFFBFAF9F8123B62900CCE123DD883
:029DB70080D852
:109DB900E534C313F5340533E533B408BAE4F531B2
:109DC900F53220DC100532E53270020531B4E8F2D3
:109DD900E531B403ED9002DF30DC0A7402F0900C37
:109DE9001704F0800C7401F0E4900C17F0900C1932
:0B9DF900F0D2C8C2CA900C197403F02D
:079E0400229002DF7401F05F
:019E0B002234
:1032CA00023690E86480F8E933E83360110460F06C
:1032DA00ED33EC337009E8FCE9FDEAFEEBFF22046A
:1032EA0060DED3EB9FEA9EE99DE8C2E78CF0C2F765
:1032FA0095F0400CE8CCF8E9CDF9EACEFAEBCFFB31
:10330A0012365B85D0F05804700320D5B3E80470F8
:10331A00075002B2D502369A92D5EC0460F7E4CC93
:10332A00C0E0C398F8603B94186008400DD0E0FBF9
:10333A00023672E4FBFAC9FC8028E830E406E4C9E4
:10334A00FBE4CAFCE830E305E4C9CACBFCE854074D
:10335A006010F8C3E913F9EA13FAEB13FBEC13FC58
:10336A00D8F130F52FC3E49CFCEF9BFFEE9AFEEDFB
:10337A0099FDD0E0FBEF4E4D4C701222DB03023672
:10338A0097EC2CFCEF33FFEE33FEED33FDED30E727
:10339A00EB023672EF2BFFEE3AFEED39FDD0E0FB81
:1033AA0050130BBB000302369AED13FDEE13FEEF2A
:0833BA0013FFEC13FC02367254
:1033C200EC4D6011E8497017ED33EC3304600DE405
:1033D200FCFFFEFD22E933E8330470F80236901256
:1033E200365B58046009E4CC248150062850090257
:1033F200369A284003023697C0E0EB4A7044B980FF
:1034020006D0E0FB023686EF4E701CBD8008EBFF53
:10341200EAFEE9FD80EBE98DF0A4FEE5F00234ABB3
:10342200E9CDF9EAFEEBFFEF89F0A4FCE5F0CE89E5
:10343200F0A42EFFE435F0CD89F0A42DFEE435F0A2
:103442008067EF4E7005BD80D780C3EF8BF0A4ACD0
:10345200F0EE8BF0A42CFCE435F0F8EF8AF0A42C0B
:10346200E5F038FCE433CB8DF0A42CFCE5F03BF81E
:10347200EE8AF0A42CFCE5F038F8E433CF89F0A40E
:103482002CFCE5F038CF3400CE89F0A42FFFE5F014
:103492003EFEE433C98DF0A42EFEE5F039CD8AF06C
:1034A200A42FFFE5F03EFEE43DFD33D0E0FB5007E4
:1034B2000BBB000F02369AEC2CFCEF33FFEE33FE0F
:0634C200ED33FD0236723D
:1034C80002369AEC5D046005E859047003023690F0
:1034D80012365B580460F6EC4860F2EC7004FDFEAE
:1034E800FF22C860DB2481C85009C39860025006D7
:1034F8000236979850CAF582E9294B4A7005AB8283
:1035080002368675F0007C1A7880C3EF9BEE9AED40
:1035180099400DC3EF9BFFEE9AFEED99FDE842F04E
:10352800DC23ACF0D0E0FFD0E0FED0E0FDAB8220A1
:10353800E7101BEB60BAEC2CFCEF33FFEE33FEED2B
:1035480033FD023672E803F830E705C0F075F00085
:10355800EF2FFFEE33FEED33FD40B830E7C280AA0F
:1035680074F8CC6480CCC86480C8F582046043C316
:10357800EB9FF5F0EA9E42F0E99D42F0E89C45F0A9
:1035880060305018E5825FFFE582F42B5582FB50CE
:10359800210ABA001D09B90019088016E5825BFBEB
:1035A800E582F42F5582FF50090EBE00050DBD00BF
:1035B800010CC3EB9FF5F0EA9E42F0E99D42F0E86A
:0D35C8009C45F06007CC4820E701B3EC22E1
:1035D500ED33EC33600A047003BD8004ECB2E7FC04
:0135E50022C3
:1035E60075F020800E75F010800575F0087D007E60
:1035F600007F003392D530D503123CA7EC33401040
:10360600EF33FFEE33FEED33FDEC33FCD5F0ED2268
:0E361600E5F0247EA2D513CC92E7CDCEFF22A4
:10362400EDD2E7CD33EC3392D524814006E4FFFE9E
:10363400FDFC22FCE4CFCECDCC24E0501174FF80FD
:10364400EDC3CC13CCCD13CDCE13CECF13CF04709A
:07365400F030D5DE023CA7B7
:10643D00E560244CF8E60560227849300902784C75
:10644D00E475F001123E5F02393D2002EB7F2ED242
:10645D00028018EF540F2490D43440D4FF30060B33
:10646D00EF24BFB41A0050032461FFE561600215EB
:10647D00610564E5647002056330090D7849E475C2
:10648D00F001123E5FEF0239B602AD9E7403D209E0
:10649D008003E4C209F5608B498A4A894BE4F561B2
:1064AD00F563F564E56160077F2012647880F5750A
:1064BD0062FFC203C202C204C205C207C208C20AF9
:1064CD00126446FF700D3009057F00126489AF64B8
:1064DD00AE6322B4255FC2D5C206126446FF24D036
:1064ED00B40A00501A75F00A786130D50508B6FF68
:1064FD000106C6A426F620D5047002D20580D92443
:10650D00CFB41A00EF5004C2E5D206026776D2036B
:10651D0080C6D20280C0D20480BCD2D580BAD20748
:10652D0080B47F201264782004077401B5610040A7
:10653D00F112643DFF1264780264B1D20AD2088070
:10654D009512643DFB12643DFA12643DF94A4B709D
:10655D0006796D7A687BFF20042EE561602A7E0046
:10656D008E8275830012395660060EEE656270F0EC
:10657D00C2D5EBC0E0EAC0E0E9C0E0EE1267D6D0CC
:10658D00E0F9D0E0FAD0E0FB12393DFF60AAEBC094
:10659D00E0EAC0E0E9C0E0126478D0E02401F9D06F
:1065AD00E03400FAD0E0FBE5620460DCD562D9800E
:1065BD0087D20480A21267B960F7E56270010412F8
:1065CD0036A5A962600DE562600914F56212686076
:1065DD00EF60F3EA30E702F404C3995077EAF4254B
:1065ED00620430E701E404F562800D1267B960C101
:1065FD00EA056225621236A5EA785FF630E701E416
:10660D00256204D56204200701141267D6E4C0E0A8
:10661D00126860785FE6601320E70714F612646075
:10662D00802204F6D0E014C0E07F00126460E562C1
:10663D0060071264571562800B300703126457D040
:10664D00E00264B1D0E00480C51267B960A0E562D4
:10665D00041236A5785FEAF6E562200702600104B0
:05666D0024041267D6B1
:1066720074FF04C0E0126860126460E562200702E1
:106682006003126457D0E0B562E87F4512646A780D
:106692005FE67F2B30E7047F2DF404C0E0126478BC
:1066A200D0E075F00A84C0F0126461D0E012646137
:1066B2000264B1791080027908C208C20A8008D245
:1066C200D5790A8004790AC2D5E562047002F562BE
:1066D200E4FAFDFEFF12643DFC7B08200313126402
:1066E2003DFD7B1030020A12643DFE12643DFF7BC9
:1066F20020EC3382D592D55013C3E43002069FFFBB
:10670200E49EFEE42003039DFDE49CFCE4CBF8C27E
:1067120003EC700CCFCECDCCE824F8F870F38017E0
:10672200C3EF33FFEE33FEED33FDEC33FCEB33FB13
:10673200994002FB0FD8E9EB300305F8D0E0C448DA
:10674200B203C0E00AEC4D4E4F78207B0070C2EAE3
:10675200B5620040BCC0E01267D8D0F0D0E02003A0
:1067620004C4C0E0C4B203C0F0126461D0F0D5F03A
:10677200EB0264B1123F0A654E5366B558651F4C71
:10678200651B4266B94F66C14466C14965344366BA
:10679200C75565F84666564565C247688D506523FC
:1067A2002D65272E654A2B652B2365482068762A9E
:1067B20064E34800006542E562B4FF0375620612B5
:1067C200643DFC12643DFD12643DFE12643DFF789F
:1067D200580236D4790AA2D5200514300709B91017
:1067E200020404B9080104A2D520080250010420C1
:1067F20004689204B561005034C0E07F203005196E
:106802007F30A20472087207500F12682FC204C2AE
:1068120008C207C20A7F30800F300703E9C0E012C6
:106822006478300703D0E0F9D0E0B561CC300717C7
:106832007F30B9100C1264787F583006077F788059
:1068420003B908031264783004057F2D0264787F4F
:1068520020200AF87F2B2008F322920480CF7F00A9
:10686200B4070050052458F8E6FF22286E756C6CB8
:106872002900D20312643D3003F8C203786130D597
:106882000108F60264E32D5043495812643D240383
:10689200B405004001E490688893126469743A1266
:0A68A2006469D2057561040266B551
:10365B00E9D2E7C933E833F892D5EDD2E7CD33ECB5
:07366B0033FC5002B2D5222E
:10367200EC30E7100FBF000C0EBE00080DBD0004B9
:103682000BEB6014A2D5EB13FCED92E7FD2274FF65
:10369200FCFDFEFF22E480F8A2D574FF13FC7D80BE
:0336A200E480EFD2
:1036A500F920E72824F950037907E4F42402FB18EC
:1036B500DBFDE624FB5014E9600DE4F618E604F69C
:0F36C500B40A08E4F6D9F57401F60A22C2D52238
:1036D400ED33EC3392D5FA602AB4FF33EDC2E77BC5
:1036E400FF60067A3679F9E4227A37790220D50424
:1036F4007A3679FD224E614E002B494E46002D4903
:103704004E4600E47A08F608DAFC7B00740722E8E7
:10371400C0E0ECC0E0EDC0E0EEC0E0EFC0E0EA7570
:10372400F010A4CAABF075F04DA42BFBE435F0FC0B
:10373400EA2410FAEB34C5FBEC34D9FCEDC2E7FF04
:1037440075F056A4F42411C5F0F434C58FF0A42AFE
:10375400E5F03BE43CF620E714123807D0E0FFD054
:10376400E0FED0E0FDD0E0FC1234CB8014F404126F
:103774003807D0E0FFD0E0FED0E0FDD0E0FC12330B
:10378400C2D0E0F8E6FAEDD2E7CD33EC332482FB85
:10379400E4C3CF33CFCE33CECD33CD33DBF37B078E
:1037A40075F00A846004F6081B0AE5F0F6088FF049
:1037B400740AA4FFACF08EF0740AA42CFEACF05092
:1037C400010C8DF0740AA42CFDE435F0F608DBDE60
:0337D40074072255
:1037D7003F8000004120000042C80000447A0000FA
:1037E700461C400047C35000497424004B1896807C
:1037F7004CBEBC205A0E1BCA6753C21C749DC5AE73
:10380700FB60065407601C2323123835EB543860DD
:10381700091238211238301233C2ECF8EDF9EEFAFA
:10382700EFCB22EB12383080F1543803241C903749
:10383700D7FE93FC0EEE93FD0EEE930ECE93FF2272
:0300000002A55CFA
:0CA55C00787FE4F6D8FD75817502A5A398
:10384700E709F608DFFA8046E709F208DFFA803E63
:1038570088828C83E709F0A3DFFA8032E309F60850
:10386700DFFA8078E309F208DFFA807088828C83B8
:10387700E309F0A3DFFA806489828A83E0A3F6086C
:10388700DFFA805889828A83E0A3F208DFFA804C46
:1038970080D280FA80C680D4806980F2803380101D
:1038A70080A680EA809A80A880DA80E280CA803386
:1038B70089828A83ECFAE493A3C8C582C8CCC583FE
:1038C700CCF0A3C8C582C8CCC583CCDFE9DEE780CE
:1038D7000D89828A83E493A3F608DFF9ECFAA9F04D
:1038E700EDFB2289828A83ECFAE0A3C8C582C8CCA3
:1038F700C583CCF0A3C8C582C8CCC583CCDFEADEBC
:10390700E880DB89828A83E493A3F208DFF980CC1D
:1039170088F0EF60010E4E60C388F0ED2402B40416
:103927000050B9F582EB2402B4040050AF232345BD
:0639370082239038977313
:10393D00BB010689828A83E0225002E722BBFE0288
:09394D00E32289828A83E49322BB
:10395600BB010CE58229F582E5833AF583E0225026
:1039660006E92582F8E622BBFE06E92582F8E22270
:0D397600E58229F582E5833AF583E493228A
:10398300BB010FF8E58229F582E5833AF583E02848
:10399300F0225009C58229F8E58226F622BBFE09EA
:1039A300C58229F8E22582F222F8EA2583F583E924
:0339B30093282234
:1039B600BB010689828A83F0225002F722BBFE01F0
:0239C600F322EA
:1039C800F8BB010DE58229F582E5833AF583E8F035
:1039D800225006E92582C8F622BBFE05E92582C8E1
:0239E800F222C9
:1039EA00EF8DF0A4A8F0CF8CF0A428CE8DF0A42EF1
:0239FA00FE22AB
:1039FC00BC000BBE0029EF8DF084FFADF022E4CCAF
:103A0C00F875F008EF2FFFEE33FEEC33FCEE9DEC77
:103A1C00984005FCEE9DFE0FD5F0E9E4CEFD22EDBD
:103A2C00F8F5F0EE8420D21CFEADF075F008EF2F07
:103A3C00FFED33FD4007985006D5F0F222C398FDF8
:053A4C000FD5F0EA2295
:103A5100C2D5EC30E709B2D5E4C39DFDE49CFCEE90
:103A610030E715B2D5E4C39FFFE49EFE1239FCC3D3
:103A7100E49DFDE49CFC80031239FC30D507C3E4CE
:063A81009FFFE49EFE22FF
:103A8700C5F0F8A3E028F0C5F0F8E58215827002CA
:063A97001583E038F02267
:103A9D00A3F8E0C5F025F0F0E582158270021583DC
:063AAD00E0C838F0E82239
:103AB300BB010A89828A83E0F5F0A3E022500687DE
:103AC300F009E71922BBFE07E3F5F009E3192289A0
:0B3AD300828A83E493F5F074019322D3
:103ADE00BB0110E58229F582E5833AF583E0F5F026
:103AEE00A3E0225009E92582F886F008E622BBFE03
:103AFE000AE92582F8E2F5F008E222E5832AF58349
:083B0E00E993F5F0A3E993220D
:103B1600BB010A89828A83F0E5F0A3F0225006F7FA
:0F3B260009A7F01922BBFE06F3E5F009F31922F7
:103B3500F8BB0111E58229F582E5833AF583E8F0C2
:103B4500E5F0A3F0225009E92582C8F608A6F0227F
:0D3B5500BBFE09E92582C8F2E5F008F22266
:0D3B6200EF2BFFEE3AFEED39FDEC38FC22B2
:0E3B6F00C3EF9BFFEE9AFEED99FDEC98FC2251
:103B7D00E88FF0A4CC8BF0A42CFCE98EF0A42CFCE7
:103B8D008AF0EDA42CFCEA8EF0A4CDA8F08BF0A465
:103B9D002DCC3825F0FDE98FF0A42CCD35F0FCEBC4
:103BAD008EF0A4FEA9F0EB8FF0A4CFC5F02ECD3989
:0F3BBD00FEE43CFCEAA42DCE35F0FDE43CFC22F6
:103BCC0075F008758200EF2FFFEE33FECD33CDCCB0
:103BDC0033CCC58233C5829BED9AEC99E582984033
:103BEC000CF582EE9BFEED9AFDEC99FC0FD5F0D610
:103BFC00E4CEFBE4CDFAE4CCF9A88222B800C1B93A
:103C0C000059BA002DEC8BF084CFCECDFCE5F0CB77
:103C1C00F97818EF2FFFEE33FEED33FDEC33FCEBB0
:103C2C0033FB10D703994004EB99FB0FD8E5E4F96B
:103C3C00FA227818EF2FFFEE33FEED33FDEC33FC58
:103C4C00C933C910D7059BE99A4007EC9BFCE99A4C
:103C5C00F90FD8E0E4C9FAE4CCFB2275F010EF2F91
:103C6C00FFEE33FEED33FDCC33CCC833C810D70791
:103C7C009BEC9AE899400AED9BFDEC9AFCE899F8CC
:0E3C8C000FD5F0DAE4CDFBE4CCFAE4C8F9225F
:10AC4300C2D5E830E70FB2D5E4C39BFBE49AFAE43C
:10AC530099F9E498F8EC30E717B2D512AC79123CC5
:10AC630008E4C39BFBE49AFAE499F9E498F88003B7
:10AC7300123C0830D50DE4C39FFFE49EFEE49DFD26
:04AC8300E49CFC222F
:0D3C9A00EF4BFFEE4AFEED49FDEC48FC2229
:0E3CA700C3E49FFFE49EFEE49DFDE49CFC222E
:103CB500EB9FF5F0EA9E42F0E99D42F0EC6480C886
:063CC50064809845F02226
:103CCB00EB9FF5F0EA9E42F0E99D42F0E89C45F04F
:013CDB0022C6
:103CDC00E8600FECC313FCED13FDEE13FEEF13FFC6
:033CEC00D8F122EA
:103CEF00E8600FEFC333FFEE33FEED33FDEC33FC33
:033CFF00D8F122D7
:103D0200BB010789828A83023D905005E9F8023F90
:103D120063BBFE05E9F8023F6F89828A83023F7B1B
:103D2200BB010DE58229F582E5833AF583023D90D8
:103D32005007E92582F8023F63BBFE07E92582F8B6
:103D4200023F6FE58229F582E5833AF583023F7BE4
:103D5200BB010789828A83023DD85005E9F8023FF8
:0A3D62008BBBFE05E9F8023F972233
:103D6C00BB010DE58229F582E5833AF583023DD846
:103D7C005007E92582F8023F8BBBFE07E92582F844
:043D8C00023F972239
:0C3D9000E0FCA3E0FDA3E0FEA3E0FF22A6
:0C3D9C00E0F8A3E0F9A3E0FAA3E0FB22AA
:103DA800E493F8740193F9740293FA740393FB2271
:103DB8007401FF3395E0FEFDFC080808E62FFFF6C6
:103DC80018E63EFEF618E63DFDF618E63CFCF6223F
:0C3DD800ECF0A3EDF0A3EEF0A3EFF0225E
:103DE400A8828583F0D083D082123DFB123DFB1262
:103DF4003DFB123DFBE473E493A3C583C5F0C58387
:103E0400C8C582C8F0A3C583C5F0C583C8C582C828
:013E1400228B
:103E1500BB010789828A83023DE45005E9F8023F28
:0A3E2500A3BBFE05E9F8023FBC2232
:103E2F00BB010DE58229F582E5833AF583023DE476
:103E3F005007E92582F8023FA3BBFE07E92582F868
:043E4F00023FBC2250
:0C3E5300A42582F582E5F03583F583227A
:103E5F00FAE6FB0808E6F925F0F618E6CA3AF62264
:093E6F00E0FBA3E0FAA3E0F92254
:093E7800EBF0A3EAF0A3E9F0224B
:103E8100BB010DE58229F582E5833AF583023E6F98
:103E91005007E92582F8023FD5BBFE07E92582F8E4
:103EA100023FE7E58229F582E5833AF583023FF98E
:103EB100BB0120E58229F582E5833AF583D0F0D074
:103EC100E0F8D0E0F9D0E0FAD0E0FBE8C0E0C0F0E3
:103ED100023E785018E92582F8D083D082D0E0F9EB
:103EE100D0E0FAD0E0FBC082C083023FDEBBFE1807
:103EF100E92582F8D083D082D0E0F9D0E0FAD0E091
:093F0100FBC082C083023FF022E4
:103F0A00D083D082F8E4937012740193700DA3A346
:103F1A0093F8740193F5828883E47374029368605A
:063F2A00EFA3A3A380DF5A
:103F3000D083D082F8E4937012740193700DA3A320
:103F400093F8740193F5828883E473740293B5F057
:0D3F5000067403936860E9A3A3A3A380D8BF
:063F5D008A838982E473EF
:10AD9E00EFB40A07740D12ADA9740A309811A89970
:10ADAE00B8130CC2983098FDA899C298B811F63015
:07ADBE0099FDC299F59922ED
:0F005E00EFC394204007EF947F50028001C3222C
:10000E00E4FFFE12393D600C0FEF70010E09E9702E
:05001E00F20A80EF2250
:10A568000224C3E493A3F8E493A34003F68001F222
:10A5780008DFF48029E493A3F85407240CC8C333F4
:10A58800C4540F4420C8834004F456800146F6DFC3
:10A59800E4800B010204081020408090A142E47E70
:10A5A800019360BCA3FF543F30E509541FFEE493B8
:10A5B800A360010ECF54C025E060A840B8E493A37F
:10A5C800FAE493A3F8E493A3C8C582C8CAC583CAAA
:10A5D800F0A3C8C582C8CAC583CADFE9DEE780BE62
:01A20A000053
:0C3F6300E6FC08E6FD08E6FE08E6FF228A
:0C3F6F00E2FC08E2FD08E2FE08E2FF228E
:103F7B00E493FC740193FD740293FE740393FF228C
:0C3F8B00ECF608EDF608EEF608EFF62262
:0C3F9700ECF208EDF208EEF208EFF22266
:103FA300D083D082E493F608740193F608740293E5
:093FB300F608740393F67404731C
:103FBC00D083D082E493F208740193F208740293D4
:093FCC00F208740393F27404730B
:093FD500E6FB08E6FA08E6F92211
:093FDE00EBF608EAF608E9F62208
:093FE700E2FB08E2FA08E2F9220B
:093FF000EBF208EAF208E9F22202
:0C3FF900E493FB740193FA740293F92224
:00000001FF
