:10C2AB008584417B017A0C793712C42090001AE007
:10C2BB00702EF58475D98075D84075DA4275DB42DE
:10C2CB00900C9CE0A3E0F5FB900C9CE0A3E0F5FC4C
:10C2DB00900C9EE0A3E0F5FD900C9EE0A3E0F5FE34
:10C2EB00900CB7E0FD7C007E057F00122F398E7B12
:10C2FB008F7CE4F58475E8C075D107F5BAF5BB758D
:08C30B00BC7043E70285418488
:01C313002207
:03007B0002AE18BA
:10AE1800C0E0C0F0C083C082C0D075D000C000C000
:0BAE280002C003C004C005C006C00744
:10AE3300758400C2EDE57D25E02431F582E434001C
:10AE4300F583E5BF85BEF0122FC4E57D12347FAED6
:10AE53006E00AE7601AE7E02AE9103AE9904AEA152
:10AE630005AEA906AEB1070000AEB775BB01757D8F
:10AE730001804175BB02757D02803990001AE06044
:10AE83000575BB07800375BB08757D03802675BBFD
:10AE930003757D04801E75BB04757D05801675BB27
:10AEA30005757D06800E75BB06757D07800675BB2F
:10AEB30000757D00E57C157C7002157B14457B6075
:04AEC3000302AFAA2D
:10AEC700900CB7E0FF74A08FF0841313543F7522E2
:10AED70000F523E4FBFAEB64034A702690001AE0BE
:10AEE7007020900CB7E075F00A84FF7E0090003761
:10AEF700E0FCA3E0FD122F27900023EEF0A3EFF074
:10AF07008037EB25E0FFEA33FE74312FF5827400BA
:10AF17003EF583E0FEA3E0FFAC22AD23122F39AC50
:10AF270006AD07EB25E0FFEA33FE741D2FF58274AB
:10AF3700003EF583ECF0A3EDF0EB25E0FFEA33FEEE
:10AF470074312FF58274003EF583E4F0A3F00BBB58
:10AF570000010AEB64084A600302AEDD900004E0DA
:10AF67007029900C96E0FEA3E0FF900C95E02FFF70
:10AF7700900C94E03EFE90001DE0FCA3E0FDC3EFC3
:10AF87009DFFEE9C90001DF0A3EFF0900CB7E0FD45
:10AF97007C007E057F00122F398E7B8F7C9002AA62
:03AFA7007401F042
:0CAFAA00E57D7003D38001C34002D2ECAF
:10AFB600D007D006D005D004D003D002D000D0D020
:09AFC600D082D083D0F0D0E0323B
:10C79300EF6004C2B18002D2B1E4FF0FBF1EFCD22E
:10C7A300B2E4FF0FBF1EFCE4FEB2B1E4FF0FBF1EF5
:07C7B300FC0EBE85F4C2B2CA
:01C7BA00225C
:0CB6B20030D80302B7E920D90302B7E941
:10B6BE00E4F53BF53C7B017A00795BF5587559034F
:0BB6CE007F107E0212BDBFC2C8C2CABE
:10B6D900900CEC123359000001C2E4FFFEFDFC900E
:10B6E9000CEC123311D312322A4017900CEC12339E
:10B6F9000574FFFBFAF9F81230D7900CEC12334DB0
:02B7090080D8E6
:10B70B0020DB0302B7DA20DC0302B7DAD2CAE4F596
:10B71B003BF53C30DC10053CE53C7002053BB4E8E6
:10B72B00F2E53BB403ED30DC079002EF7401F0223D
:10B73B00900203E0C394014006E0D39406400690C8
:10B74B0002037405F0900203E0540FC454F0FFE0C1
:0FB75B00540F4FF53EE4F53DE53E1392C8B2CAD8
:10B76A00900CF0123359000001C2E4FFFEFDFC9078
:10B77A000CF0123311D312322A4017900CF0123304
:10B78A000574FFFBFAF9F81230D7900CF012334D1A
:02B79A0080D855
:10B79C00E53EC313F53E053DE53DB408BAE4F53B83
:10B7AC00F53C20DC10053CE53C7002053BB4E8F2AE
:10B7BC00E53BB403ED9002EF30DC167402F0900C14
:0EB7CC002704F0D2C8C2CA900C297405F022DE
:0FB7DA009002EF7401F0E4900C27F0900C29F02E
:01B7E900223D
:109A1600436F707972696768742028432920323051
:109A2600313320547261636B2053797374656D739F
:109A360020546563686E6F6C6F676965732C204C84
:109A46004C43000200FF000000C0C1C1810140C3B9
:109A56000103C00280C241C60106C00780C7410596
:109A660000C5C1C4810440CC010CC00D80CD410F9E
:109A760000CFC1CE810E400A00CAC1CB810B40C9BE
:109A86000109C00880C841D80118C01980D9411BF6
:109A960000DBC1DA811A401E00DEC1DF811F40DD16
:109AA600011DC01C80DC411400D4C1D5811540D7EE
:109AB6000117C01680D641D20112C01380D34111BE
:109AC60000D1C1D0811040F00130C03180F1413366
:109AD60000F3C1F28132403600F6C1F7813740F516
:109AE6000135C03480F4413C00FCC1FD813D40FF9E
:109AF600013FC03E80FE41FA013AC03B80FB41393E
:109B060000F9C1F88138402800E8C1E9812940EB15
:109B1600012BC02A80EA41EE012EC02F80EF412D95
:109B260000EDC1EC812C40E40124C02580E54127ED
:109B360000E7C1E68126402200E2C1E3812340E13D
:109B46000121C02080E041A00160C06180A1416385
:109B560000A3C1A28162406600A6C1A7816740A595
:109B66000165C06480A4416C00ACC1AD816D40AF9D
:109B7600016FC06E80AE41AA016AC06B80AB4169BD
:109B860000A9C1A88168407800B8C1B9817940BBF5
:109B9600017BC07A80BA41BE017EC07F80BF417D15
:109BA60000BDC1BC817C40B40174C07580B54177ED
:109BB60000B7C1B68176407200B2C1B3817340B1BD
:109BC6000171C07080B041500090C19181514093A5
:109BD6000153C052809241960156C0578097415515
:109BE6000095C1948154409C015CC05D809D415F9D
:109BF600009FC19E815E405A009AC19B815B40993D
:109C06000159C058809841880148C0498089414B14
:109C1600008BC18A814A404E008EC18F814F408D94
:109C2600014DC04C808C41440084C18581454087EC
:109C36000147C046808641820142C043808341413C
:079C46000081C18081404054
:10B7EA0050001D00000000000000000000000000E2
:10B7FA00000000430C34000000410C2600410CB745
:10B80A000A4100050002790000027500005000316B
:10B81A00000000000000000000000000000000001E
:10B82A00017D004102AA00410CBE00420002000054
:10B83A00410CBA0042026D00004200590000420267
:10B84A00BD00A0410CB900410CBD004202C000007D
:10B85A0041000100410004004102F000410BE000F8
:10B86A00410CB800027E0000027700004202C300C9
:10B87A00004102BF004102F10041000000410CBF3B
:10B88A000041001A004102EF004100160041001970
:10B89A000044002DFFFFFFFF440041FFFFFFFF426E
:0DB8AA000017FFFF42001BFFFF4102F204E8
:1016A300E4F52DF52CF52BF52A900CE9F0A3F0A326
:1016B3007406F075840F75FFDE75FFAD12C3C91292
:1016C300C0EAC2B4C2B5C2B6120026753E01753F68
:1016D3000975404A7B017A0C792412B8D312B57785
:1016E300900CB77414F0E49002BFF012A4AB12563E
:1016F30082E4900CE5F0A3F0900CE5E0FAA3E0FBA4
:101703009002CF75F0151233C8EA75F015A425833E
:10171300F583123359000000009002CB75F015EBEE
:101723001233C8EA75F015A42583F58312335900E3
:10173300000000900CE5E0FAA3E0FB9002C575F011
:10174300151233C8EA75F015A42583F583123359AE
:10175300000000009002D375F015EB1233C8EA7550
:10176300F015A42583F583E4F0A3F0900CE5E0FEE7
:10177300A3E0FF9002C975F0151233C8EE75F0159A
:10178300A42583F583E4F0A3F09002D875F015EF58
:101793001233C8EE75F015A42583F583E4F09002A7
:1017A300D775F015EF1233C8EE75F015A42583F540
:1017B30083E4F09002D675F015EF1233C8EE75F09E
:1017C30015A42583F583E4F09002D575F015EF1287
:1017D30033C8EE75F015A42583F583E4F09002D9A0
:1017E30075F015EF1233C8EE75F015A42583F58354
:1017F300E4F0900CE575F001122FC4900CE5E07055
:1018030004A3E0640260030216FBE4900000F012FC
:10181300C2AB7F007E9612C76912C82D12C59FE422
:10182300900284F09002977402F09002A0744EF03C
:101833007B017A0279F39002931233ED7A09794CA2
:101843009002A61233ED7A07792D9002901233EDB0
:101853007A0B79E19002A31233EDE4900283F090C6
:10186300029604F090028D744EF0E4900298F0A377
:10187300F0900285F0A3F09002A2F090028FF09016
:1018830002A1F090028EF01BFAF990029D1233ED43
:1018930090029A1233ED90028A1233ED900287126E
:1018A30033ED0B7A0279837F007EC27D017C0012C7
:1018B300A0B290001AE07B017A02799660067F80DD
:1018C3007E2580047F007EE17D007C0012A0B29023
:1018D300001AE060247B017A027973900055123379
:1018E300ED7A0279AB9000521233EDE490004EF0A2
:1018F300A3F0900058F012C817E4900C27F012B62A
:10190300B220E813782A12332D7B807A967998785F
:0719130000D312324050EA3C
:10191A00900CC21233590000AFC8E4FFFEFDFC90E0
:10192A000CC2123311D312322A4017900CC212334E
:10193A000574FFFBFAF9F81230D7900CC212334D36
:02194A0080D843
:10194C00E49002C3F0A3F0F53E753F00754077FBC1
:0F195C007A00797E12B436D2AF90001AE060356F
:10196B00900CC612335900006978E4FFFEFDFC9021
:10197B000CC6123311D312322A4017900CC61233F5
:10198B000574FFFBFAF9F81230D7900CC612334DE1
:02199B0080D8F2
:10199D00128E771200A6900CBF7401F0E4900C2803
:1019AD00F0900C33F0900C2DF0A3F0900C2BF0A3D5
:1019BD00F0A2DA33900C2AF090026EE024C0FE9073
:1019CD00026DE03402900C31F0A3CEF0900059E09E
:1019DD00FCA3E0FD2406FEE43C900C2FF0A3CEF01A
:1019ED00ED240AFEE43C900CE7F0A3CEF07B017AE7
:1019FD0000795B7558007559037F107E0212BDBFCB
:101A0D00900201E0540F900008F0900201E054F0B4
:101A1D00C4540F900009F0E5D85403700F900C27B3
:101A2D00E064036007E4F0900C298061900008E009
:101A3D00FF6403600AEF64076005EF6406705A9057
:101A4D000C27E064036057E5D85403FFBF03333020
:101A5D00DA307404F0900008E0640660037407F057
:101A6D00900C297404F0900CE97401F090026EE072
:101A7D002458FE90026DE03400900C31F0A3CEF0AE
:101A8D00801CE5D85403FF900C27BF02057402F0AB
:101A9D00800C7401F0A3F08005E4900C27F0E49025
:101AAD000CE5F0A3F090094AE0FEA3E0FF900CE5F1
:101ABD00E0FCA3E0FDC39FEC9E5017745B2DF582F7
:101ACD0074003CF583E4F0900CE575F001122FC421
:101ADD0080D3900CA8E0F46009E06006900C2674A9
:101AED00E0F09002AAE06066C3900022E094B89006
:071AFD000021E0940B50579B
:101B0400C2B3C2B6C2B5C2B490001AE06004D2FC3B
:041B14008002C2FC8D
:101B1800900CCA123359000A4CB8E4FFFEFDFC9041
:101B28000CCA123311D312322A4017900CCA12333E
:101B38000574FFFBFAF9F81230D7900CCA12334D2E
:021B480080D843
:101B4A0012AA6C12007E8F38E53830E7F6C2FF80A1
:011B5A00FE8C
:101B5B00900059E0FEA3E0FF900CE7E0B50613A35D
:101B6B00E0B5070EA37401F0900CE7E475F00112D9
:101B7B002FC4900C27E0FF6403704030DC08900CFE
:101B8B00297405F0800E900C2930DB057406F0806B
:101B9B00037404F0900C2DE0FCA3E0FD90026DE0CB
:101BAB006C7003A3E06D6003021E03900C28E064CD
:101BBB00086003021E03D2CA021E03EF6402600B0D
:0B1BCB00900C27E064046003021E037E
:101BD600E4F538900059E0FEA3E0FF900CE7E0B58D
:101BE6000613A3E0B5070EA37401F0900CE7E475A5
:101BF600F001122FC430DB17900C29E06406700345
:101C0600021CDE7406F0900CE97401F0021CDE90F2
:101C16000C29E0B4063D7404F090026EE02403FE45
:101C260090026DE03400900C31F0A3CEF0A2DAE41D
:101C360033900C2AF0E4900C33F0900CE904F09009
:101C4600005AE02405FE900059E03400900CE7F0BD
:101C5600A3CEF0900C31E0FEA3E0FF90026DE0FC15
:101C6600A3E0FD6F7002EC6E706EA2DA33FF900C8B
:101C76002AE0FE6F702D900C33E0C394025005E00D
:101C860004F08047EE600C900C29E06404603C741C
:101C960004800A900C29E0640360307403F0900C11
:101CA600E98025900C29E0640560097405F0900C24
:101CB600E97401F0900C2AE070047F0180027F0035
:101CC600900C2AEFF0900C337401F0ED2458FEE4EA
:101CD6003C900C31F0A3CEF0900C27E064046078C1
:101CE600A3E06004A3E07020900C297403F0900C2C
:101CF600287401F090005AE02405FE900059E03463
:101D060000900C2FF0A3CEF0900C2FE0FEA3E0FF86
:101D1600900059E0B50619A3E0B50714900C2FE41E
:101D260075F00A122FC4900C29E0B403037538012C
:101D3600900C26E0B4E103E4F538E538601A900C1F
:101D4600287405F090026EE02403FE90026DE034E4
:101D560000900C2DF0A3CEF0900C2DE0FEA3E0FF3A
:101D660090026DE0FCA3E0FD6F7002EC6E60030272
:101D76001E03900C28E024FD606124FE602614609A
:101D86006024047078900C287403F0900008E0B486
:101D96000605ED24A08003ED2450FEE43C900C2DB6
:101DA600F0A3CEF0900C28E0B4051C7406F0900069
:101DB60008E0B40605ED24788003ED2428FEE43C13
:101DC600900C2DF0A3CEF0900C27E024FE600824A2
:101DD600FE600424037026D2CC8022900C28740462
:101DE600F0900C28E0B406037401F0900C27E02470
:0D1DF600FE600824FE600424037002C2CCCD
:0B1E03009002871233E4E94A4B602B89
:101E0E009002871233E48B388A39893A7B007A0044
:101E1E0079009002871233EDAB38AA39A93AE4FF64
:0B1E2E00124496900CE3EEF0A3EFF0DE
:101E3900900CA7E020E003D38001C35003021EECFD
:101E49009002C4E094F09002C3E094005003021E93
:011E5900EC9C
:101E5A00C2B3C2B6C2B5C2B412AA6C12007E8F381F
:101E6A00E53830E7F6900C27E06402706E900C2992
:051E7A00E06403606656
:101E7F00900CCE123359000DBBA0E4FFFEFDFC9079
:101E8F000CCE123311D312322A4017900CCE1233CC
:101E9F000574FFFBFAF9F81230D7900CCE12334DC0
:021EAF0080D8D9
:021EB100D2CC91
:101EB300900CD212335900112A88E4FFFEFDFC90E6
:101EC3000CD2123311D312322A4017900CD2123390
:101ED3000574FFFBFAF9F81230D7900CD212334D88
:021EE30080D8A5
:071EE500C2FFE4F5F880FEE6
:101EEC0020E803021F99C39002C4E094099002C336
:101EFC00E094005003021F92900C26E02420600A0C
:0A1F0C0014606014606724E2707C2A
:101F1600900CA7E030E17512708A900059E0FEA39C
:101F2600E0FF900CAAE02FFF900CA9E03E900CC0B9
:101F3600F0A3EFF090026DE0F538A3E0F539753EB9
:101F460000753F007540777B007A00797E1291AA72
:101F5600900005EFF07008C2B6900C26F0802D9028
:091F66000C2674E1F0D2B68023D0
:101F6F00900CA7E030E11C12AA6C900CA8E0F46072
:101F7F000BE06008900C2674E0F08005E4900C26CE
:101F8F00F0C2B5E49002C3F0A3F0900CB9E0700377
:101F9F000220E9E4F09002F0E0F4600302207A906E
:101FAF000C27E0FFB40305C2CA02206EEF64026083
:0D1FBF000302206E900C29E0B40636D2CC4F
:101FCC00900CD61233590001B774E4FFFEFDFC905F
:101FDC000CD6123311D312322A4017900CD612336E
:101FEC000574FFFBFAF9F81230D7900CD612334D6A
:021FFC0080D88B
:0A1FFE00C2CC900C29E06403606679
:10200800900CDA123359000DBBA0E4FFFEFDFC90E2
:102018000CDA123311D312322A4017900CDA123329
:102028000574FFFBFAF9F81230D7900CDA12334D29
:0220380080D84E
:02203A00D2CC06
:10203C00900CDE12335900112A88E4FFFEFDFC904F
:10204C000CDE123311D312322A4017900CDE1233ED
:10205C000574FFFBFAF9F81230D7900CDE12334DF1
:02206C0080D81A
:10206E00C2B3C2B6C2B5C2B4C2FF806F9002F0E076
:10207E00FF64F07022900C26EFF0E4F57EF57F9071
:10208E00000574FFF0D2B3D2B6D2B5D2B4C2A85303
:10209E00E7FD53E7BF8010EFB4F113900C26F0C2AA
:1020AE00B3C2B6C2B5C2B4E49002F0F0802DEF64B4
:1020BE00F27028900C26EFF0D2B3D2B6D2B5D2B4CD
:1020CE00900C25E024FFFD900C24E034FFFCE4FB93
:1020DE00FFFE12C1D2E4F58443EF01900C26E0FF1F
:1020EE0064E06008EF64E16003021AEF9002AAE078
:1020FE007003022254D3900022E094B8900021E0A5
:10210E00940B4007E49002AAF080069002AA740194
:10211E00F0C3E57A940AE579648094804006757977
:10212E0000757A0990001AE09000236012E0C4F85E
:10213E0054F0C8A3E0C4540F489002A9F08032E0D6
:10214E00FEA3E0FFEF24FBFFEE34EBFEE434FFFDD5
:10215E00E434FFFCE47BE87A03F9F81230F2E47B16
:10216E00E57A24F9F812C62E9002A9EFF0E024CEFB
:10217E00F0900C26E064E16003021AEF9002F2E0A8
:10218E006003021AEFC3E576940AE57564809480C5
:10219E00400675750075760990001FE0540FFD908E
:1021AE00001DE0540FC4F854F0C8E4C4540F482D79
:1021BE00FF90007075F033E57A1233C8E57975F04B
:1021CE0033A42583F58375F003E5761233C8E575E0
:1021DE0075F003A42583F583EFF090001DA3E0FFB7
:1021EE0090007175F033E57A1233C8E57975F033E6
:1021FE00A42583F58375F003E5761233C8E575756E
:10220E00F003A42583F583EFF090001FA3E0FF9069
:10221E00007275F033E57A1233C8E57975F033A4A0
:10222E002583F58375F003E5761233C8E57575F0F1
:10223E0003A42583F583EFF00576E5767002057528
:10224E00129490021AEF9002A2E0FF9002A1E06FAA
:05225E0070030224F7EB
:10226300EF75F0DCA4FF9002A61233E4E92FF9EA3C
:1022730035F08B38F539893A9002A2E0FFB40204B5
:102283007F008003EF04FF9002A2EFF09002A9E029
:10229300FF90006F75F033E57A1233C8E57975F076
:1022A30033A42583F583EFF0AE79AF7A7C007D33D9
:1022B300122F27745B2FF974003E753E01F53F8999
:1022C30040AB38AA39A93A124DB390006B75F0337D
:1022D300E57A1233C8E57975F033A42583F583E0F5
:1022E30054E075F008A4FFAEF090006C75F033E590
:1022F3007A1233C8E57975F033A42583F583E0FDBD
:10230300EEF52EEF4DF52FE52E30E20744F8F52ECE
:10231300852F2F90006B75F033E57A1233C8E5797A
:1023230075F033A42583F583E0541C75F040A4FFB6
:10233300AEF090006D75F033E57A1233C8E5797528
:10234300F033A42583F583E0FDEEF530EF4DF53151
:10235300E53030E20744F8F530853131AC30AD314A
:10236300EC122B28C004C005C006C007AC30AD3149
:10237300EC122B28D003D002D001D0001228FFC0CA
:1023830004C005C006C007AC2EAD2FEC122B28C02D
:1023930004C005C006C007AC2EAD2FEC122B28D00D
:1023A30003D002D001D0001228FFD003D002D00105
:1023B300D00012280E12BBD77B5C7A8F7982783FCC
:1023C3001228FF8F378E368D358C347F747ED17D06
:1023D3000D7C40AB37AA36A935A8341228FF122B3F
:1023E300618E328F33900C26E064E17066E53345ED
:1023F30032601C900059E0FEA3E0FF900CAAE02F8E
:10240300FF900CA9E03E900CC0F0A3EFF080449045
:102413000CC0E0FEA3E0FF900059E06E7003A3E060
:102423006F7030900CA9E0F47003A3E0F460249083
:102433000CA9E07002A3E0601A12AA6C900CA8E049
:10244300F4600BE06008900C2674E0F08005E490E3
:102453000C26F0900C26E064E06003021AEF900C67
:10246300EAE07002A3E0600D900CEA74FFF5F0124D
:102473002FC4021AEF900CBDE0D394055003021A47
:10248300EF9002C1E0942C9002C0E094014003025B
:102493001AEF900CA8E0FFC3E5339FE53294005098
:1024A30003021AEF900C2674E1F012708A9000591F
:1024B300E0FEA3E0FF900CAAE02FFF900CA9E03E02
:1024C300900CC0F0A3EFF0753E00753F00754077A8
:1024D3007B007A00797E1291AA900005EFF07009D3
:1024E300C2B6900C26F0021AEF900C2674E1F0D2DB
:0124F300B632
:1024F400021AEF900CBEE0FD7017900002E0FEA3FC
:10250400E0FF90026DE06E7003A3E06F6003021AB7
:10251400EF900CB7E0FF74A08FF08475F00AA4FF6D
:1025240090026EE02401FB90026DE03400CB2FFE9C
:10253400EB35F0900002F0A3CEF0ED702C90001972
:10254400E06017900CBE7401F0900CBD7406F0901E
:1025540002C0E4F0A374C8F08005E4900CBDF090D0
:10256400000274FFF5F0122FC4900C26E0FF64E122
:1025740060030227EC9002F2E0FA7003022658EF9F
:1025840064E16003022658900CBEE070030227EC5D
:10259400900C27E0FBB4030DA3E06408700302264B
:1025A4002E7408806AEB700302262E900C26E064D9
:0325B400E170775C
:1025B700900C29E06406606F900CB7E0B428209077
:1025C7000C27E0B40414900008E0900CE2B4060570
:1025D7007423F0802B7410F08026900CE280169004
:1025E7000C27E0B40414900008E0900CE2B4060550
:1025F700740CF0800B7406F08006900CE27404F003
:10260700900CE2E0B50220900C287402F0900C2B9D
:10261700E0FEA3E0FF90026EE02FFF90026DE03E28
:07262700900C2DF0A3EFF071
:10262E009002F2E014F060030227ECF575F576F5F2
:10263E0079F57A90094BE024FFFE90094AE034FFC9
:10264E00900006F0A3CEF00227ECC3E576940AE5DF
:10265E00756480948040030227E9E5764575707AAB
:10266E00900C92E0540FFD900C90E0540FC4F8546F
:10267E00F0C8E4C4540F482DFF90007075F033E598
:10268E007A1233C8E57975F033A42583F58375F096
:10269E0003E5761233C8E57575F003A42583F5833B
:1026AE00EFF0900C90E0A3E0FF90007175F033E531
:1026BE007A1233C8E57975F033A42583F58375F066
:1026CE0003E5761233C8E57575F003A42583F5830B
:1026DE00EFF0900C92E0A30227B390006D75F033EB
:1026EE00E57A1233C8E57975F033A42583F5837541
:1026FE00F003E5761233C8E57575F003A42583F56E
:10270E0083E0FF90007075F033E57A1233C8E579F7
:10271E0075F033A42583F58375F003E5761233C87F
:10272E00E57575F003A42583F583EFF090006E75C3
:10273E00F033E57A1233C8E57975F033A42583F5C5
:10274E008375F003E5761233C8E57575F003A4259D
:10275E0083F583E0FF90007175F033E57A1233C88C
:10276E00E57975F033A42583F58375F003E57612CC
:10277E0033C8E57575F003A42583F583EFF090005B
:10278E006F75F033E57A1233C8E57975F033A42509
:10279E0083F58375F003E5761233C8E57575F0039E
:1027AE00A42583F583E0FF90007275F033E57A126D
:1027BE0033C8E57975F033A42583F58375F003E509
:1027CE00761233C8E57575F003A42583F583EFF013
:1027DE000576E5767002057502265812BC7DE490EA
:1027EE000CBEF09002F1F0900CBDE06007B2B5E4C3
:0927FE00F0021AEFC2B5021AEF55
:10BC7D00C3E57A9409E57964809480500302BD1779
:10BC8D0090094AE0FCA3E0FD7B017A00795B857E9B
:10BC9D005D857F5E7F027E0012BEE4E57824FFFFA6
:10BCAD00E57734FFFEC3E57F9FE57E9E402AAD78A4
:10BCBD00AC777F017E0012C06F900005E0FFAB787E
:10BCCD00AA77AD7FAC7E12B2D8E4900C26F0900C22
:10BCDD00BDF0C2B6C2B58008057FE57F7002057E56
:10BCED00E4FFFED390094BE09F90094AE09E40137C
:10BCFD00745B2FF58274003EF583E4F00FBF0001F5
:10BD0D000E80E0E4F579F57A8008057AE57A70021F
:07BD1D000579E4F575F576E8
:01BD240022FC
:10AA6C00C2B6C2B5900C26E064E170279002F2E009
:10AA7C0070119002BFE0600BAD78AC777F017E0067
:10AA8C0012C06F900005E0FFAB78AA77AD7FAC7E6B
:10AA9C0012B2D8900C27E0B40309C2CAA37407F011
:0BAAAC0002AC39900C28E064037071CC
:10AAB700900CEC12335900015F90E4FFFEFDFC900F
:10AAC7000CEC123311D312322A4017900CEC1233CC
:10AAD7000574FFFBFAF9F81230D7900CEC12334DDE
:02AAE70080D815
:03AAE900E4F5C8C9
:10AAEC00900CF012335900020F58E4FFFEFDFC905D
:10AAFC000CF0123311D312322A4017900CF012338F
:10AB0C000574FFFBFAF9F81230D7900CF012334DA4
:02AB1C0080D8DF
:10AB1E00900C287401F0A37404F0900C27E06404E8
:0AAB2E007073900C29E06406706B50
:10AB3800900CF412335900015F90E4FFFEFDFC9085
:10AB48000CF4123311D312322A4017900CF412333A
:10AB58000574FFFBFAF9F81230D7900CF412334D54
:02AB680080D893
:02AB6A00D2CC4B
:10AB6C00900CF8123359001339E0E4FFFEFDFC9011
:10AB7C000CF8123311D312322A4017900CF81233FE
:10AB8C000574FFFBFAF9F81230D7900CF812334D1C
:02AB9C0080D85F
:10AB9E00C2CC02AC33900C27E0B40208900C29E032
:10ABAE006406600E900C27E064026079A3E06404F2
:02ABBE007073B2
:10ABC000900CFC12335900015F90E4FFFEFDFC90F5
:10ABD0000CFC123311D312322A4017900CFC1233A2
:10ABE0000574FFFBFAF9F81230D7900CFC12334DC4
:02ABF00080D80B
:0DABF200900C27E024FE6003047036D2CCE6
:10ABFF00900D001233590001B774E4FFFEFDFC9075
:10AC0F000D00123311D312322A4017900D00123358
:10AC1F000574FFFBFAF9F81230D7900D0012334D7F
:02AC2F0080D8CB
:10AC3100C2CC900C287401F0900C27E064036003EF
:04AC4100E4F5C8224C
:10708A0090026DE0F53DA3E0F53EE4F579F57AF579
:10709A0075F576900CBDF0A3F090094AE0FEA3E0E6
:1070AA00FF7B017A00795B75580075590112BDBFE3
:1070BA0090005EE0540F900BE0F090005FE0900CBF
:1070CA00B8F090005DE075F0169001301233C8E018
:1070DA00A3E0540F9002C2F090005DE075F01690A4
:1070EA0001321233C8E0FFA3E09002BBCFF0A3EF56
:1070FA00F0900BE0E024FC6053240260030271A3C9
:10710A00900CB77414F0900C27E024FE601424FE4F
:10711A00601B0460030271F6900C2BE4F0A374D890
:10712A008054900C2BE4F0A374600271D2900C2B63
:10713A00E4F0A37408F0900008E09002F2B40606A6
:10714A007413F00271F6740AF00271F6900CB774B7
:10715A0028F0900C27E024FE601424FE601E0460D0
:10716A00030271F6900C2BE4F0A374588008900C7B
:10717A002BE4F0A37462F09002F2806D900C2BE481
:10718A00F0A37408F0900008E09002F2B4060574C7
:10719A0023F080587410F08053900CB7740AF09062
:1071AA000C27E024FE601824FE602604703E900C32
:1071BA002BE4F0A37408F09002F27401F0802D9091
:1071CA000C2B7401F0A37458F09002F27404F0804E
:1071DA001B900C2BE4F0A37408F0900008E09002D6
:1071EA00F2B40605740CF080037406F0900CB8E053
:1071FA009002BFF09002BBE0FCA3E0FD4C70089047
:10720A00000CF0A3F080679002C2E0701E122B28D7
:10721A00A804A905AA06AB07E4FFFE7D7A7C4812FA
:10722A002A08122B617C007DF080389002C2E0B4FB
:10723A000F037410F09002BBE0FCA3E0FDE4122BF4
:10724A0028A804A905AA06AB07E4FFFE7D7A7C48B4
:10725A00122A08122B619002C2E0FD74788DF08424
:10726A00FD7C00122F2790000CEEF0A3EFF0E5D87A
:10727A00540370079002BFF00275847B017A00798B
:10728A005B7558007559037F107E0212BDBF900CC2
:10729A0027E0B4040D900008E06406600F7407F05C
:1072AA00800A900201E0540F900008F0900201E079
:1072BA0054F0C4540F900009F0E4F53BF53C9000FB
:1072CA007375F028E53C1233C8E53B75F028A42510
:1072DA0083F583E024FB601524FB7022746F253C40
:1072EA00F5827402353BF5837403F08020746F25B0
:1072FA003CF5827402353BF5837402F0800F746F9B
:10730A00253CF5827402353BF5837404F0053CE5AF
:10731A003C7002053B6404453B70A3E4F53BF53C35
:10732A0090008075F028E53C1233C8E53B75F028DB
:10733A00A42583F583E0FDE53C25E0FFE53B33FE2C
:10734A00740F2FF58274003EF583EDF0900074758A
:10735A00F028E53C1233C8E53B75F028A42583F5EF
:10736A008312331190007875F028E53C1233C8E592
:10737A003B75F028A42583F58312330512280AC029
:10738A0004C005C006C00790007475F028E53C12D9
:10739A0033C8E53B75F028A42583F5831233119091
:1073AA00007C75F028E53C1233C8E53B75F028A44B
:1073BA002583F58312330512280AD003D002D0019F
:1073CA00D000122A08E4FBFAF9F8122AA5900074F0
:1073DA0075F02860054003027462E53C1233C8E583
:1073EA003B75F028A42583F5831233119000787534
:1073FA00F028E53C1233C8E53B75F028A42583F54F
:10740A008312330512280AC004C005C006C00790BB
:10741A00007475F028E53C1233C8E53B75F028A4E2
:10742A002583F58312331190007C75F028E53C1210
:10743A0033C8E53B75F028A42583F583123305127A
:10744A00280AD003D002D001D000122A08C004C0F2
:10745A0005C006C0070274E8E53C1233C8E53B756F
:10746A00F028A42583F58312331190007875F0284B
:10747A00E53C1233C8E53B75F028A42583F5831251
:10748A00330512280AC004C005C006C0079000745C
:10749A0075F028E53C1233C8E53B75F028A425832E
:1074AA00F58312331190007C75F028E53C1233C83D
:1074BA00E53B75F028A42583F58312330512280AC3
:1074CA00D003D002D001D000122A08122B12AB0727
:1074DA00AA06A905A804C000C001C002C003900002
:1074EA008175F028E53C1233C8E53B75F028A425E0
:1074FA0083F583E0FF90008275F028E53C1233C8DB
:10750A00E53B75F028A42583F583E0C39FFDE49449
:10751A0000FCE4122B28D003D002D001D00012289C
:10752A00FFC004C005C006C00790008175F028E5B9
:10753A003C1233C8E53B75F028A42583F583E0FCAB
:10754A00E4122B2DD003D002D001D00012280E1243
:10755A002B61AD07E53C25E0FFE53B33FE740E2FBA
:10756A00F58274003EF583EDF0053CE53C700205BA
:10757A003B6404453B600302732A9002BFE030E794
:10758A00034403F0E4F53BF53CD390094BE0953C0A
:10759A0090094AE0953B4018745B253CF5827400DB
:1075AA00353BF583E4F0053CE53C70DD053B80D9CD
:0175BA0022AE
:099490009002BFE0700302976B2B
:03949900753B061A
:10949C00AF3B9002BFE0FEA807088002C313D8FCC4
:1094AC0020E00302975DE53B12347F96320096294B
:1094BC0001951A02951A0394D80494D80594D006F1
:1094CC00000096BFE5D8F4F53C0296BFAF3BEF33F6
:1094DC0095E0FEEF25E0FFEE33FE74212FF582744C
:1094EC00003EF583E0FEA3E0FFAD3BED3395E0FCE1
:1094FC00746D2DF58274023CF583E0FDEFA8050830
:0E950C008005CEC313CE13D8F9F53C0296BFEE
:10951A00E4F53DAF3BEF3395E0FEEF25E0FFEE3398
:10952A00FE74212FF58274003EF583E0FEA3E0FF6E
:10953A00AD3BED3395E0FC746D2DF58274023CF57C
:10954A0083E0FBEFA803088005CEC313CE13D8F936
:10955A00F53C74062DF58274003CF583E0640260E4
:10956A00030296BFAF3BEF3395E0FEEF25E0FFEE37
:10957A0033FE740B2FF58274003EF583E0602304FA
:10958A00604624FE706A740A2FF58274003EF583E1
:10959A00E0FFE53CD39F40047F0180027F008F3DBE
:1095AA00804EAF3BEF3395E0FEEF25E0FFEE33FE52
:1095BA00740A2FF58274003EF583E0B53C047F01FE
:1095CA0080027F008F3D8028AF3BEF3395E0FEEFAE
:1095DA0025E0FFEE33FE740A2FF58274003EF58310
:1095EA00E0FFE53CC39F50047F0180027F008F3D6E
:1095FA00E53D6015E53B2402FF7401A807088002D7
:10960A00C333D8FC42C80296BFE53B2402FF74016B
:0F961A00A807088002C333D8FCF452C80296BFD9
:0996290090026BE0F53C0296BFD3
:1096320090026BE0FEA3E0FFF53C90000CE0FCA37F
:10964200E0FD4C6078EF4E6074D3ED9FEC9E503895
:10965200E4F53DF53E7408253EF5827400353DF58E
:1096620083E0B40113E53E2404FF7401A8070880D7
:1096720002C333D8FCF452C8053EE53E7002053DF4
:109682006402453D70CF8035E4F53DF53E74082512
:109692003EF5827400353DF583E0B40112E53E24C7
:1096A20004FF7401A807088002C333D8FC42C8052E
:0D96B2003EE53E7002053D6402453D70D06E
:1096BF0075450075460075473C900006E0FAA3E03B
:1096CF00FB7D017C007F017E0012BF6E900006E0E3
:1096DF007002A3E0600C90000674FFF5F0122FC427
:1096EF00806CAD78AC777F017E0012C06FE5782477
:1096FF00FFFFE57734FFFEC3E57F9FE57E9E402A9F
:10970F00900005E0FFAB78AA77AD7FAC7E12B2D8A0
:10971F00E4900C26F0900CBDF0C2B6C2B5900C27A9
:10972F00E064036029E4F5C88024E57815787002B9
:10973F00157790094AE0FCA3E0FD24FFFEEC34FF0F
:0E974F00900006F0A3CEF07F017E0012C23F14
:0E975D00153BC3E53B64809480400302949C5E
:01976B0022DB
:10C81700AF84E4F58475C04475CFEC43C040C2C310
:05C8270043E6028F84CE
:01C82C0022E9
:03003B0002A88D8B
:10A88D00C0E0C083C082C0D075D000C000C001C080
:07A89D0002C003C006C00762
:10A8A400C200AFC1EF12347FA8F208A8F210A913B6
:10A8B40018A94120A91328A94130A9B038A94840B2
:10A8C400A94348A94850A98158A9B560A9B570A958
:10A8D400C380AA1088A9C390AA1098AA42A0AA1457
:10A8E400A8AA14B8AA28C0AA42C80000A9B0900017
:10A8F4004DE0F5C2900058E4F053C2FEA20C33427E
:10A90400C2C2C590004FE4F090004EF002AA4290FB
:10A914000050E0FF90004EE0FEC39F50199000529B
:10A924001233E48E82758300122E93F5C290004E8A
:10A93400E004F002AA42D2C4C20B02AA42D2C5D297
:10A94400C502AA4290004FE0601624FFFFE434FFE2
:10A95400FE9000551233E48F828E83E5C2122F05D8
:10A9640090004FE004F0900051E0FF90004FE0C3EE
:10A974009F5005D2C202AA42C2C202AA4290004F0C
:10A98400E024FFFFE434FFFE9000551233E48F828D
:10A994008E83E5C2122F0590004FE004F09000581A
:10A9A4007401F0D2C4C20BD2C202AA42D20002AADB
:10A9B40042900058E4F090004EF0A3F002AA4290B6
:10A9C400004FE0FF700D900051E5C2F0900058E494
:10A9D400F08017EF24FFFFE434FFFE90005512339C
:10A9E400E48F828E83E5C2122F0590004FE004F0BD
:10A9F400900051E0FF90004FE0D39F400B9000582F
:10AA04007401F090004FE4F0D2C28032D2C2802EA2
:10AA14009000521233E490004EE0FF04F08F8275F0
:10AA24008300801590004EE024FFFFE434FFFE9085
:10AA340000521233E48F828E83122E93F5C23000BB
:10AA44001053C0BF43C040C2C5C2C4C2C2C20BC2BD
:03AA540000C2C37A
:10AA5700D007D006D003D002D001D000D0D0D0820A
:05AA6700D083D0E032B5
:10C7FE00AF84E4F584D2C6200BFDD20BC20C9000A0
:08C80E004DE0F5C3D2C58F8493
:01C8160022FF
:10C7E200AF84E4F584D2C6200BFDD20BD20C9000AC
:0BC7F2004DE0F5C3D2C5200BFD8F8485
:01C7FD002219
:03B8B7000119FF75
:10C0EA00AF8475840F75E1EF75E20775E34475A4B3
:10C0FA00157580EA75ADFF75A53D759001E4F5A645
:10C10A0075A0FFF59E75E8FFE5E854E0FEBEC004A1
:10C11A007E0180027E0090001AEEF0600875B07908
:10C12A0075A7FE800675B07E75A7F8E4F5C8759CFC
:10C13A00FFF59D75D8FF90001AE0FE600875F89724
:10C14A00759FF78006759FFF75F8F7EE6006C2FCCB
:08C15A00D2FB8002D2FC8F84AD
:01C1620022BA
:10C59F00AF84E4F584F5D875D980F5F9F5FAF5E9A6
:10C5AF0075EA0C75DC4675D840900CBBF0A3F09083
:10C5BF00026BF0A3F0F584C28C758905438E08F5E4
:10C5CF008AF58CC28DD28C758401758880758930FF
:07C5DF00D2A943E6308F846E
:01C5E6002232
:0DC82D00AF84E4F584C289D288D2A88F843C
:01C83A0022DB
:03005B0002B15B94
:10B15B00C0E0C0F0C083C082C0D075D000C000C0BA
:0DB16B0001C002C003C004C005C006C0073B
:10B1780053E6CF758400AF8CEFFEAD8A7C00E42DDA
:10B18800F525EC3EF524900CBBE0FEA3E0FFC3E5FB
:10B19800259FFFE5249EFED3EF9464EE94005003B0
:10B1A80002B2B4C28C758A00758C00C28DD28CE54F
:04B1B80019F47041D5
:10B1BC00F519F526AE24AF25E52625E02445F582C4
:10B1CC00E43400F583EEF0A3EFF0E4FCFDE51D2F75
:10B1DC00FFE51C3EFEED351BFDEC351A8F1D8E1C5C
:0EB1EC008D1BF51A0526E526B404C990026BEA
:10B1FA0002B2A60519E519C394044003751900E5BE
:10B20A001925E02445F582E43400F583E0FEA3E045
:10B21A00FBC3E51D9BFFE51C9EFEE51B9400FDE5B7
:10B22A001A94008F1D8E1C8D1BF51AAE24AF25E5CE
:10B23A001925E02445F582E43400F583EEF0A3EF06
:10B24A00F0E4FCFDE51D2FFFE51C3EFEED351BFD80
:10B25A00EC351A8F1D8E1C8D1BF51AE47B04FAF946
:10B26A00F8AC1A12317D8E248F25C390026CE095BA
:10B27A0025FF90026BE09524FEC394004006AC06BD
:10B28A00AD078009C3E49FFFE49EFCAD0790026B03
:10B29A00E0C313FFC3ED9FEC94004007E524F0A33D
:10B2AA00E525F0900CBBE4F0A3F07584015388CF38
:03B2BA0043E63038
:10B2BD00D007D006D005D004D003D002D001D000E5
:0BB2CD00D0D0D082D083D0F0D0E0328F
:0300530002C5E7FC
:10C5E700C0E0C083C082C0D075D000C004C005C001
:10C5F70006C00753E6CF758400AF8CEFFEAD8A7C8B
:10C6070000E42DFFEC3E900CBBF0A3EFF075840126
:10C617005388CF43E630D007D006D005D004D0D01A
:07C62700D082D083D0E03285
:03000B0002C672B8
:10C67200C0E0C083C08253E6CF758400C28C758A45
:10C6820000758C00D28C900CBBE4F0A3F090026B8E
:10C69200F0A3F07584015388CF43E630D082D08373
:03C6A200D0E032B3
:0300030002BFF148
:10BFF100C0E0C0F0C083C082C0D075D000C000C016
:09C0010003C004C005C006C0071D
:10C00A00A2AFE433FB900CBE7401F0900CB7E0FDD4
:10C01A007C007E057F00122F398E7B8F7C757D0018
:10C02A007F10900031E4F0A3DFFCC2AF53E7FE7546
:10C03A008400C2ECC2ED75BB0075840175C800743A
:0EC04A00FFF5CDF5CC43E70143C8042B92AFC0
:10C05800D007D006D005D004D003D000D0D0D082ED
:07C06800D083D0F0D0E032DC
:10C70A0001120101060101020100000001000000FE
:10C71A000C00000077000004A900002E9B0001D243
:10C72A00090012345600B60B61071C71C7471C7109
:01C73A00C737
:04B8BA004111270011
:108E77009002A31233E48B418A4289439002A2E015
:108E87009002A1F0E4F53BF53CF540F53FF53EF5E2
:108E97003DAB41AA42A943053CE53CAE3B70020508
:108EA7003B142406F582E43EF58374FA122F050578
:108EB7003CE53CAE3B7002053B142406F582E43EDC
:108EC700F583E4122F05053CE53CAE3B7002053BFC
:108ED700142406F582E43EF5837401122F05053C40
:108EE700E53CAE3B7002053B142406F582E43EF5F3
:108EF70083E4122F05053CE53CAE3B7002053B14AD
:108F07002406F582E43EF5837401122F05053CE53E
:108F17003CAE3B7002053B142406F582E43EF58324
:108F2700E4122F05AD3CAC3B7F087E0612B9CA9010
:108F37000298E07002A3E070F690026DE0F53BA3A3
:108F4700E0F53C9002A2E0FF9002A1E0B50713789C
:108F57003D12332D7B407A4B794C7800D312324047
:108F670050E19002A2E0FF9002A1E06F7003028E31
:108F77008BE4F53BF53CAB41AA42A943053CE53CF4
:108F8700AE3B7002053B142406F582E43EF583747C
:108F970001122F05053CE53CAE3B7002053B14244E
:108FA70006F582E43EF583E4122F05053CE53CAE69
:108FB7003B7002053B142406F582E43EF583E41278
:108FC7002F05053CE53CAE3B7002053B142406F536
:108FD70082E43EF583E4122F05053CE53CAE3B7089
:108FE70002053B142406F582E43EF58374C0122F74
:108FF70005053CE53CAE3B7002053B142406F582B3
:10900700E43EF5837408122F05053CE53CAE3B7042
:1090170002053B142406F582E43EF583E4122F058E
:10902700053CE53CAE3B7002053B142406F582E4A3
:109037003EF583E4122F05E92406F9E43AFAE92517
:109047003CF9EA353BFA12338A00E1000074042543
:109057003CF53CE4353BF53BAB41AA42A943053C13
:10906700E53CAE3B7002053B142406F582E43EF571
:10907700837401122F05053CE53CAE3B7002053BAE
:10908700142406F582E43EF583E4122F05053CE53A
:109097003CAE3B7002053B142406F582E43EF583A3
:1090A7007401122F05053CE53CAE3B7002053B14ED
:1090B7002406F582E43EF583E4122F05053CE53CE2
:1090C700AE3B7002053B142406F582E43EF583E4CB
:1090D700122F05053CE53CAE3B7002053B14240608
:1090E700F582E43EF583E4122F05053CE53CAE3BF3
:1090F7007002053B142406F582E43EF583E4122F43
:1091070005053CE53CAE3B7002053B142406F582A1
:10911700E43EF583E4122F05AD3CAC3B7F007E06B1
:0D91270012B9CA900298E07002A3E070F641
:10913400900CEC123359000008CAE4FFFEFDFC90C9
:109144000CEC123311D312322A4017900CEC123368
:109154000574FFFBFAF9F81230D7900CEC12334D7A
:0291640080D8B1
:109166007B017A0279967F007EE17D007C0012A069
:01917600B246
:10917700900CF012335900004650E4FFFEFDFC90BE
:109187000CF0123311D312322A4017900CF012331D
:109197000574FFFBFAF9F81230D7900CF012334D33
:0291A70080D86E
:0191A90022A3
:1000A60078227C0F7D017BFF7AC7790A7E007F0963
:1000B600122E549002A31233E48B538A548955901E
:1000C600001AE0700302021C9002A2E09002A1F066
:1000D600E4F552E4F550F551E55275F003A42422F7
:1000E600F582E4340FF583E0FFAB53AA54A9550516
:1000F60051E551AC5070020550142406F582E43CDB
:10010600F583EF122F05E55275F003A42422F5823C
:10011600E4340FF583A3E0FF0551E551AC507002BE
:100126000550142406F582E43CF583EF122F05E50D
:100136005275F003A42424F582E4340FF583E0FF1E
:100146000551E551AC5070020550142406F582E4C1
:100156003CF583EF12B9BF900298E07002A3E070FD
:10016600F69002A2E0FF9002A1E0B507120551E564
:1001760051AE507002055014FFBE27E5BF10E29045
:1001860002A61233E49002A2E0FF75F0DCA4F58229
:1001960085F08312301BF55185F050EFB402047FD1
:1001A6000080069002A2E004FF9002A2EFF0E55163
:1001B60064017004E5506405600C9002A2E0FF90B3
:0601C60002A1E0B507B93B
:1001CC00900F0212335900001194E4FFFEFDFC90D5
:1001DC000F02123311D312322A4017900F0212332E
:1001EC000574FFFBFAF9F81230D7900F0212334D59
:0201FC0080D8A9
:1001FE00E55164017004E550640560030200D90501
:10020E0052E552C3940350030200D9020DE4E4F503
:10021E0050F551AB53AA54A9550551E551AE507046
:10022E00020550142406F582E43EF5837401122F64
:10023E00050551E551AE5070020550142406F582A5
:10024E00E43EF5837402122F050551E551AE507050
:10025E00020550142406F582E43EF583E4122F05C0
:10026E000551E551AE5070020550142406F582E496
:10027E003EF5837401122F050551E551AE50700203
:10028E000550142406F582E43EF583E4122F05058D
:10029E0051E551AE5070020550142406F582E43E2D
:1002AE00F583E4122F050551E551AE50700205504D
:1002BE00142406F582E43EF5837401122F050551D0
:1002CE00E551AE5070020550142406F582E43EF559
:1002DE00837401122F050551E551AE507002055081
:1002EE00142406F582E43EF583E4122F050551E54C
:1002FE0051AE5070020550142406F582E43EF5838B
:10030E00E4122F050551E551AE507002055014242C
:10031E0006F582E43EF583E4122F050551E551AE54
:10032E005070020550142406F582E43EF583E41263
:10033E002F050551E551AE5070020550142406F5F7
:10034E0082E43EF5837401122F050551E551AE503E
:10035E0070020550142406F582E43EF583740612ED
:10036E002F050551E551AE5070020550142406F5C7
:10037E0082E43EF583E4122F050551E551AE50702F
:10038E00020550142406F582E43EF5837401122F03
:10039E00050551E551AE5070020550142406F58244
:1003AE00E43EF583E4122F050551E551AE5070027F
:1003BE000550142406F582E43EF583E4122F05055C
:1003CE0051E551AE5070020550142406F582E43EFC
:1003DE00F5837401122F050551E551AE50700205DB
:1003EE0050142406F582E43EF5837412122F05058F
:1003FE0051E551AE5070020550142406F582E43ECC
:10040E00F583E4122F050551E551AE5070020550EB
:10041E00142406F582E43EF5837401122F0505516E
:10042E00E551AE5070020550142406F582E43EF5F7
:10043E0083E4122F050551E551AE5070020550149C
:10044E002406F582E43EF583E4122F050551E551AD
:10045E00AE5070020550142406F582E43EF5837406
:10046E0001122F050551E551AE50700205501424AE
:10047E0006F582E43EF5837403122F050551E5510E
:10048E00AE5070020550142406F582E43EF583E466
:10049E00122F050551E551AE507002055014240679
:1004AE00F582E43EF583E4122F050551E551AE5079
:1004BE0070020550142406F582E43EF583E4122FF3
:1004CE00050551E551AE5070020550142406F58213
:1004DE00E43EF583E4122F050551E551AE5070024E
:1004EE000550142406F582E43EF5837401122F059F
:1004FE000551E551AE5070020550142406F582E404
:10050E003EF5837430122F050551E551AE50700241
:10051E000550142406F582E43EF583E4122F0505FA
:10052E0051E551AE5070020550142406F582E43E9A
:10053E00F583E4122F050551E551AE5070020550BA
:10054E00142406F582E43EF583E4122F050551E5E9
:10055E0051AE5070020550142406F582E43EF58328
:10056E00E4122F050551E551AE50700205501424CA
:10057E0006F582E43EF5837401122F050551E5510F
:10058E00AE5070020550142406F582E43EF58374D5
:10059E0004122F050551E551AE507002055014247A
:1005AE0006F582E43EF583E4122F050551E551AEC2
:1005BE005070020550142406F582E43EF583E412D1
:1005CE002F050551E551AE5070020550142406F565
:1005DE0082E43EF583E4122F050551E551AE5070CD
:1005EE00020550142406F582E43EF583E4122F052D
:1005FE000551E551AE5070020550142406F582E403
:10060E003EF5837401122F050551E551AE5070026F
:10061E000550142406F582E43EF5837420122F054E
:10062E000551E551AE5070020550142406F582E4D2
:10063E003EF583E4122F050551E551AE50700205CB
:10064E0050142406F582E43EF583E4122F0505517D
:10065E00E551AE5070020550142406F582E43EF5C5
:10066E0083E4122F050551E551AE5070020550126C
:10067E00B9B5900298E07002A3E070F69002A2E085
:10068E00FF9002A1E06F60F49002A61233E4900294
:10069E00A2E0FF75F0DCA4F58285F08312301BF525
:1006AE005185F050EFB402047F0080069002A2E064
:1006BE0004FF9002A2EFF0E55164017004E550646E
:0F06CE0005600C9002A2E0FF9002A1E0B507B911
:1006DD00900F0612335900002328E4FFFEFDFC9015
:1006ED000F06123311D312322A4017900F06123310
:1006FD000574FFFBFAF9F81230D7900F0612334D3F
:02070D0080D892
:10070F00E55164017004E5506405600302021CE4C6
:10071F00F550F551AB53AA54A9550551E551AE50BB
:10072F0070020550142406F582E43EF5837401121D
:10073F002F050551E551AE5070020550142406F5F2
:10074F0082E43EF5837411122F050551E551AE5029
:10075F0070020550142406F582E43EF583E4122F4F
:10076F00050551E551AE5070020550142406F5826F
:10077F00E43EF583E4122F050551E551AE507002AA
:10078F000550142406F582E43EF583E4122F050587
:10079F0051E551AE5070020550142406F582E43E27
:1007AF00F583E4122F050551E551AE507002055047
:1007BF00142406F582E43EF5837401122F050551CA
:1007CF00E551AE5070020550142406F582E43EF553
:1007DF00837421122F050551E551AE50700205505B
:1007EF00142406F582E43EF583E4122F050551E546
:1007FF0051AE5070020550142406F582E43EF58385
:10080F00E4122F050551E551AE5070020550142426
:10081F0006F582E43EF583E4122F050551E551AE4E
:10082F005070020550142406F582E43EF583E4125D
:10083F002F050551E551AE5070020550142406F5F1
:10084F0082E43EF5837401122F050551E551AE5038
:10085F0070020550142406F582E43EF583742212CB
:10086F002F050551E551AE5070020550142406F5C1
:10087F0082E43EF583E4122F050551E551AE507029
:10088F00020550142406F582E43EF583E4122F0589
:10089F000551E551AE5070020550142406F582E45F
:1008AF003EF583E4122F050551E551AE5070020558
:1008BF0050142406F582E43EF583E4122F0505510A
:1008CF00E551AE5070020550142406F582E43EF552
:1008DF0083740A122F050551E551AE507002055071
:1008EF00142406F582E43EF5837407122F05055193
:1008FF00E551AE5070020550142406F582E43EF522
:10090F0083E4122F050551E551AE507002055014C6
:10091F002406F582E43EF583E4122F050551E551D7
:10092F00AE5070020550142406F582E43EF583E4C0
:10093F00122F050551E551AE5070020550142406D3
:10094F00F582E43EF583E4122F050551E551AE50D3
:10095F0070020550142406F582E43EF583740A12E2
:10096F002F050551E551AE5070020550142406F5C0
:10097F0082E43EF5837408122F050551E551AE5000
:10098F0070020550142406F582E43EF583E4122F1D
:10099F00050551E551AE5070020550142406F5823D
:1009AF00E43EF583E4122F050551E551AE50700278
:1009BF000550142406F582E43EF583E4122F050555
:1009CF0051E551AE5070020550142406F582E43EF5
:1009DF00F583E4122F050551E551AE507002055015
:1009EF00142406F582E43EF583740A122F0505518F
:1009FF00E551AE5070020550142406F582E43EF521
:100A0F00837402122F050551E551AE507002055047
:100A1F00142406F582E43EF583E4122F050551E513
:100A2F0051AE5070020550142406F582E43EF58352
:100A3F00E4122F050551E551AE50700205501424F4
:100A4F0006F582E43EF583E4122F050551E551AE1C
:100A5F005070020550142406F582E43EF583E4122B
:100A6F002F050551E551AE5070020550142406F5BF
:100A7F0082E43EF583740A122F050551E551AE50FD
:100A8F0070020550142406F582E43EF583740912B2
:100A9F002F050551E551AE5070020550142406F58F
:100AAF0082E43EF583E4122F050551E551AE5070F7
:100ABF00020550142406F582E43EF583E4122F0557
:100ACF000551E551AE5070020550142406F582E42D
:100ADF003EF583E4122F050551E551AE5070020526
:100AEF0050142406F582E43EF583E4122F050551D8
:100AFF00E551AE5070020550142406F582E43EF520
:100B0F0083740A122F050551E551AE50700205503E
:100B1F00142406F582E43EF5837401122F05055166
:100B2F00E551AE5070020550142406F582E43EF5EF
:100B3F0083E4122F050551E551AE50700205501494
:100B4F002406F582E43EF583E4122F050551E551A5
:100B5F00AE5070020550142406F582E43EF583E48E
:100B6F00122F050551E551AE5070020550142406A1
:100B7F00F582E43EF583E4122F050551E551AE50A1
:100B8F0070020550142406F582E43EF583740A12B0
:100B9F002F050551E551AE5070020550142406F58E
:100BAF0082E43EF5837403122F050551E551AE50D3
:100BBF0070020550142406F582E43EF583E4122FEB
:100BCF00050551E551AE5070020550142406F5820B
:100BDF00E43EF583E4122F050551E551AE50700246
:100BEF000550142406F582E43EF583E4122F050523
:100BFF0051E551AE507002055012B9B5900298E010
:100C0F007002A3E070F69002A2E0FF9002A1E06FE5
:100C1F0060F49002A61233E49002A2E0FF75F0DCBC
:100C2F00A4F58285F08312301BF55185F050EFB497
:100C3F0002047F0080069002A2E004FF9002A2EF60
:100C4F00F0E55164017004E5506405600C9002A258
:090C5F00E0FF9002A1E0B507B925
:100C6800900F0A12335900002328E4FFFEFDFC9080
:100C78000F0A123311D312322A4017900F0A123377
:100C88000574FFFBFAF9F81230D7900F0A12334DAA
:020C980080D802
:100C9A00E55164017004E5506405600302071EE42F
:100CAA00F550F551AB53AA54A9550551E551AE502B
:100CBA0070020550142406F582E43EF58374FA1294
:100CCA002F050551E551AE5070020550142406F562
:100CDA0082E43EF583E4122F050551E551AE5070CA
:100CEA00020550142406F582E43EF5837401122F9E
:100CFA00050551E551AE5070020550142406F582DF
:100D0A00E43EF583E4122F050551E551AE50700219
:100D1A000550142406F582E43EF5837401122F056A
:100D2A000551E551AE5070020550142406F582E4CF
:100D3A003EF583E4122F057F0812B9C4900298E0A9
:100D4A007002A3E070F69002A2E0FF9002A1E06FA9
:100D5A0060F49002A61233E49002A2E0FF75F0DC80
:100D6A00A4F58285F08312301BF55185F050EFB45B
:100D7A0002047F0080069002A2E004FF9002A2EF24
:100D8A00F0E55164017004E5506405600C9002A21C
:090D9A00E0FF9002A1E0B507B9E9
:100DA300900F0E12335900001194E4FFFEFDFC90E6
:100DB3000F0E123311D312322A4017900F0E123333
:100DC3000574FFFBFAF9F81230D7900F0E12334D6A
:020DD30080D8C6
:0F0DD500E55164017004E55064056003020CA948
:100DE400900CB7E0FBE4FAF9F87F807E967D98FCDE
:100DF40012C62E8F598E588D578C56780812325140
:100E0400E4FFE4FDFCC004C005C006C007AF59AE52
:100E140058AD57AC567818123251E4FEFDFCD0039D
:100E2400D002D001D00012320FC004C005C006C0E9
:100E340007AF59AE58AD57AC567808123264E4FF88
:100E4400FEE4FCD003D002D001D00012320FC00463
:100E5400C005C006C007AF59AE58AD57AC56781898
:100E6400123264E4FFFEFDECD003D002D001D000C6
:100E740012320FAB53AA54A9559000061232E1E482
:100E840075590AF558F557F556AF59AE58AD57ACE4
:100E9400567808123251E4FFE4FDFCC004C005C0DA
:100EA40006C007AF59AE58AD57AC56781812325138
:100EB400E4FEFDFCD003D002D001D00012320FC0FA
:100EC40004C005C006C007AF59AE58AD57AC56783C
:100ED40008123264E4FFFEE4FCD003D002D001D057
:100EE4000012320FC004C005C006C007AF59AE5887
:100EF400AD57AC567818123264E4FFFEFDECD00313
:100F0400D002D001D00012320FAB53AA54A955908D
:100F1400000A1232E17550007551080551E551AED1
:100F24005070020550142406F582E43EF5837401E2
:100F3400122F050551E551AE5070020550142406D8
:100F4400F582E43EF5837401122F050551E551AE97
:100F54005070020550142406F582E43EF583E41231
:100F64002F050551E551AE5070020550142406F5C5
:100F740082E43EF583E4122F050551E551AE50702D
:100F8400020550142406F582E43EF5837432122FD0
:100F9400050551E551AE5070020550142406F58242
:100FA400E43EF583E4122F050551E551AE5070027D
:100FB4000550142406F582E43EF5837434122F059B
:100FC4000551E551AE5070020550142406F582E433
:100FD4003EF5837403122F050551E551AE5070029E
:100FE4000550142406F582E43EF583E4122F05052A
:100FF40051E551AE5070020550142406F582E43ECA
:10100400F583E4122F050551E551AE5070020550E9
:10101400142406F582E43EF583E4122F050551E518
:1010240051AE5070020550142406F582E43EF58357
:10103400E4122F05AD51AC507F077E0612B9CA9059
:101044000298E07002A3E070F69002A2E0FF900222
:10105400A1E06F60F49002A61233E49002A2E0FFD4
:1010640075F0DCA4F58285F08312301BF55185F010
:1010740050EFB402047F0080069002A2E004FF90C7
:1010840002A2EFF0E55164017004E5506405600CC0
:0C1094009002A2E0FF9002A1E0B507B9B5
:1010A000900F1212335900001194E4FFFEFDFC90E2
:1010B0000F12123311D312322A4017900F1212332B
:1010C0000574FFFBFAF9F81230D7900F1212334D66
:0210D00080D8C6
:1010D200E55164017004E55064056003020DE4907B
:1010E200001AE070030216A2E4F550F551AB53AAC0
:1010F20054A9550551E551AE50700205501424060D
:10110200F582E43EF583E4122F050551E551AE5018
:1011120070020550142406F582E43EF583E4122F92
:1011220005AD51AC507F117E0612B9CA900298E00B
:101132007002A3E070F69002A2E0FF9002A1E06FBD
:1011420060F49002A61233E49002A2E0FF75F0DC94
:10115200A4F58285F08312301BF55185F050EFB46F
:1011620002047F0080069002A2E004FF9002A2EF38
:10117200F0E55164017004E5506405600C9002A230
:09118200E0FF9002A1E0B507B9FD
:10118B00900F1612335900001194E4FFFEFDFC90F2
:10119B000F16123311D312322A4017900F16123337
:1011AB000574FFFBFAF9F81230D7900F1612334D76
:0211BB0080D8DA
:1011BD00E55164017004E550640560030210EAE432
:1011CD00F550F551AB53AA54A9550551E551AE5003
:1011DD0070020550142406F582E43EF583E4122FC7
:1011ED00050551E551AE5070020550142406F582E7
:1011FD00E43EF583E4122F050551E551AE50700222
:10120D000550142406F582E43EF583E4122F0505FE
:10121D0051E551AE5070020550142406F582E43E9E
:10122D00F583E4122F050551E551AE5070020550BE
:10123D00142406F582E43EF583E4122F050551E5ED
:10124D0051AE5070020550142406F582E43EF5832C
:10125D00E4122F050551E551AE50700205501424CE
:10126D0006F582E43EF583E4122F050551E551AEF6
:10127D005070020550142406F582E43EF583E41205
:10128D002F05AD51AC507F167E0612B9CA9002984B
:10129D00E07002A3E070F69002A2E0FF9002A1E0E0
:1012AD006F60F49002A61233E49002A2E0FF75F095
:1012BD00DCA4F58285F08312301BF55185F050EFDB
:1012CD00B402047F0080069002A2E004FF9002A207
:1012DD00EFF0E55164017004E5506405600C900277
:0A12ED00A2E0FF9002A1E0B507B9EE
:1012F700900F1A12335900001194E4FFFEFDFC9081
:101307000F1A123311D312322A4017900F1A1233C1
:101317000574FFFBFAF9F81230D7900F1A12334D04
:0213270080D86C
:10132900E55164017004E550640560030211CCE4E1
:10133900F550F551AB53AA54A9550551E551AE5095
:1013490070020550142406F582E43EF583740512F3
:101359002F050551E551AE5070020550142406F5CC
:1013690082E43EF583E4122F050551E551AE507034
:10137900020550142406F582E43EF5837404122F05
:10138900050551E551AE5070020550142406F58249
:10139900E43EF5837402122F05E92406F9E43AFACA
:1013A900E92551F9EA3550FA12338A50C30000741D
:1013B900042551F551E43550F550AB53E555240654
:1013C900F9E43554FAE92551F9EA3550FA12338A24
:1013D9000000000074042551F551E43550F550AB77
:1013E90053AA54A9550551E551AE50700205501440
:1013F9002406F582E43EF5837405122F050551E5AF
:1014090051AE5070020550142406F582E43EF5836E
:10141900E4122F05E92406F9E43AFAE92551F9EA33
:101429003550FA74FA75F00012308B74022551F5B3
:1014390051E43550F550AB53E5552406F9E43554DC
:10144900FAE92551F9EA3550FA74FA75F0001230C3
:101459008B74022551F551E43550F550AB53E555E0
:101469002406F9E43554FAE92551F9EA3550FA74B4
:101479006475F00012308B74022551F551E4355032
:10148900F550AB53E5552406F9E43554FAE92551ED
:10149900F9EA3550FA742C75F00112308B74022573
:1014A90051F551E43550F550AB53AA54A95505519E
:1014B900E551AE5070020550142406F582E43EF55C
:1014C90083E4122F050551E551AE50700205501401
:1014D9002406F582E43EF583E4122F050551E55112
:1014E900AE5070020550142406F582E43EF583E4FB
:1014F900122F050551E551AE50700205501424060E
:10150900F582E43EF583E4122F050551E551AE500D
:1015190070020550142406F582E43EF583E4122F87
:10152900050551E551AE5070020550142406F582A7
:10153900E43EF583E4122F050551E551AE507002E2
:101549000550142406F582E43EF583E4122F0505BF
:1015590051E551AE5070020550142406F582E43E5F
:10156900F583E4122F050551E551AE50700205507F
:10157900142406F582E43EF583E4122F050551E5AE
:1015890051AE5070020550142406F582E43EF583ED
:10159900E4122F050551E551AE507002055014248F
:1015A90006F582E43EF583E4122F050551E551AEB7
:1015B9005070020550142406F582E43EF583E412C6
:1015C9002F050551E551AE5070020550142406F55A
:1015D90082E43EF583E4122F050551E551AE5070C2
:1015E900020550142406F582E43EF583E4122F0522
:1015F900AD51AC507F247E0612B9CA900298E070B2
:1016090002A3E070F69002A2E0FF9002A1E06F60F1
:10161900F49002A61233E49002A2E0FF75F0DCA474
:10162900F58285F08312301BF55185F050EFB40235
:10163900047F0080069002A2E004FF9002A2EFF06E
:10164900E55164017004E5506405600C9002A2E064
:08165900FF9002A1E0B507B902
:10166100900F1E12335900001194E4FFFEFDFC900F
:101671000F1E123311D312322A4017900F1E12334C
:101681000574FFFBFAF9F81230D7900F1E12334D93
:0216910080D8FF
:0F169300E55164017004E55064056003021338EB
:0116A2002225
:10B9B500142406F582E43EF583E4122F057F01ADDC
:05B9C50051AC507E06AC
:08B9CA008E5A8F5B8C5C8D5DD1
:10B9D2009002A31233E474B5122EF39002A3123331
:10B9E200E49000017462122F05E55A900002122FB2
:10B9F20005E55B900003122F05E55D900004122F10
:10BA020005E55C900005122F05E4F55FF55E7F0207
:10BA1200FEE55D2406FDE4355CFCC3EF9DEE9C5023
:10BA22001C9002A31233E48F828E83122E93255E22
:10BA3200F55E255FF55F0FBF00010E80D49002A373
:10BA42001233E4E55D2406FFE4355C8F82F583E57D
:10BA52005E122F05E55D2407FFE4355C8F82F583D6
:10BA6200E55F122F057B017A027996E55D2408FDD8
:07BA7200E4355CFC02C36F28
:064DB3008B3B8A3C893DA8
:104DB900901127E0700804F01200A6025525AB3BBC
:104DC900AA3CA93D122FF01234A54DE3010250D699
:0A4DD900010652AF01120000551F41
:104DE3007406253DF53DE4353CF53C7541007542BF
:104DF30000754349E4F544F545783BE475F0011249
:104E030033D4122E7AFF784174FFF5F01233D4EFC6
:104E1300122EF30545E545700205446404454470CC
:104E2300D8AC46EC3350047F0180027F008F4AAF39
:104E330049AE48AD47AC46EC334002800BAF49AEB8
:104E430048AD47AC4612321C8F498E488D478C467D
:104E5300AB3EAA3FA94090000A1233A40000000011
:104E6300E4F544F545AB3EE540240AF9E4353FFA61
:104E7300C003C002C001123277C004C005C006C01F
:104E830007E47B0AFAF9F8AF49AE48AD47AC4612DE
:104E9300C62EAC00AD01AE02AF03C004C005C00610
:104EA300C007E545AE447802C333CE33CED8F924E8
:104EB30013F58274C73EF58312331DD007D006D095
:104EC30005D0041230F2A804A905AA06AB07D0073F
:104ED300D006D005D0041230D7D001D002D00312AF
:104EE30032C7AF49AE48AD47AC46E47B0AFAF9F89E
:104EF30012C62E8F498E488D478C460545E5457071
:104F0300020544640A45446003024E68E54A60159D
:104F1300AB3EAA3FA94090000A12329712321C906E
:104F2300000A1232E1754100754200754349E4F508
:104F330044F545783BE475F0011233D4122E7AFF21
:104F4300784174FFF5F01233D4EF122EF30545E5E3
:104F530045700205446404454470D8AC46EC3350B4
:104F6300047F0180027F008F4AAF49AE48AD47AC52
:104F730046EC334002800BAF49AE48AD47AC461216
:104F8300321C8F498E488D478C46AB3EAA3FA940C1
:104F93009000061233A400000000E4F544F545AB8D
:104FA3003EE5402406F9E4353FFAC003C002C001E0
:104FB300123277C004C005C006C007E47B0AFAF9C1
:104FC300F8AF49AE48AD47AC4612C62EAC00AD01B2
:104FD300AE02AF03C004C005C006C007E545AE443A
:104FE3007802C333CE33CED8F92413F58274C73E87
:104FF300F58312331DD007D006D005D0041230F24A
:10500300A804A905AA06AB07D007D006D005D0048B
:105013001230D7D001D002D0031232C7AF49AE4805
:10502300AD47AC46E47B0AFAF9F812C62E8F498ED7
:10503300488D478C460545E54570020544640A459D
:10504300446003024FA2E54A6015AB3EAA3FA94064
:1050530090000612329712321C9000061232E1744D
:1050630004253DF53DE4353CF53C754100754200B2
:10507300754349E4F544F545783BE475F001123393
:10508300D4122E7AFF784174FFF5F01233D4EF1265
:105093002EF30545E545700205446404454470D884
:1050A300AF49AE48AD47AC46E47BE87A03F9F81262
:1050B300C62E8F498E488D478C46AB3EAA3FA940EA
:1050C30090000EEE8FF01230AA9002F1E04404F04B
:1050D300025525AB3BAA3CA93D90002F122E93FE0F
:1050E30090002E122E937C002400FFEC3E9002C011
:1050F300F0A3EFF0900031122E93900CBDF07402E8
:10510300253DF53DE4353CF53CFAA93D90000B12F5
:105113002E93540D640D6008E4900CBDF00252A56B
:10512300E5402403F9E4353F853E41F5428943E4F4
:10513300F544F545783BE475F0011233D4122E7A29
:10514300FF784174FFF5F01233D4EF122EF30545C7
:10515300E545700205446404454470D87401254351
:10516300F543E43542F542900CBDE0604A74FFFF1D
:10517300FEFDFC90002D123311C31232407038AB88
:1051830041AA42A943123277E4FBFAF9F8C3123277
:10519300406024AB41AA42A94312327774FFFBFA61
:1051A300F9F8C3123240600FAB41AA42A94312324D
:1051B3007790002D12334D900CBDE06038AB41AABF
:1051C30042A943123277E4FBFAF9F8C31232406082
:1051D30024AB41AA42A94312327774FFFBFAF9F8D0
:1051E300C3123240600FAB41AA42A94312327790F7
:1051F300004112334D7404253DF53DE4353CF53C47
:10520300E5402404F9E4353FFAE92401F9E43A8559
:105213003E41F5428943E4F544F545783BE475F0B6
:10522300011233D4122E7AFF784174FFF5F0123352
:10523300D4EF122EF30545E545700205446402459B
:105243004470D874012543F543E43542F542900C8C
:10525300BDE0FF602B900017E0B4FF24A3E0B4FF90
:105263001FAB41AA42A943122FF0FDACF04C6010D2
:10527300EDF47002ECF46008900017ECF0A3EDF08D
:10528300EF601FAB41AA42A943122FF0FFAEF04ECD
:105293006010EFF47002EEF4600890001BEEF0A3D0
:0C52A300EFF09002F1E04402F00255250B
:1052AF007406253DF53DE4353CF53CAB3BFAA93D95
:1052BF001232778F498E488D478C467808123251BB
:1052CF00E4FFE4FDFCC004C005C006C007AF49AE53
:1052DF0048AD47AC467818123251E4FEFDFCD003BE
:1052EF00D002D001D00012320FC004C005C006C0DA
:1052FF0007AF49AE48AD47AC467808123264E4FFB9
:10530F00FEE4FCD003D002D001D00012320FC00453
:10531F00C005C006C007AF49AE48AD47AC467818C8
:10532F00123264E4FFFEFDECD003D002D001D000B6
:10533F0012320F8F498E488D478C46E47B64FAF901
:10534F00F812C62E8F498E488D478C468E4C8F4D46
:10535F007404253DF53DE4353CF53CAB3BFAA93DE6
:10536F001232778F498E488D478C4678081232510A
:10537F00E4FFE4FDFCC004C005C006C007AF49AEA2
:10538F0048AD47AC467818123251E4FEFDFCD0030D
:10539F00D002D001D00012320FC004C005C006C029
:1053AF0007AF49AE48AD47AC467808123264E4FF08
:1053BF00FEE4FCD003D002D001D00012320FC004A3
:1053CF00C005C006C007AF49AE48AD47AC46781818
:1053DF00123264E4FFFEFDECD003D002D001D00006
:1053EF0012320F8F498E488D478C46E47B64FAF951
:1053FF00F812C62E8F498E488D478C468E4A8F4B9A
:10540F007404253DF53DE4353CF53CAB3BFAA93D35
:10541F001232778F498E488D478C46780812325159
:10542F00E4FFE4FDFCC004C005C006C007AF49AEF1
:10543F0048AD47AC467818123251E4FEFDFCD0035C
:10544F00D002D001D00012320FC004C005C006C078
:10545F0007AF49AE48AD47AC467808123264E4FF57
:10546F00FEE4FCD003D002D001D00012320FC004F2
:10547F00C005C006C007AF49AE48AD47AC46781867
:10548F00123264E4FFFEFDECD003D002D001D00055
:10549F0012320F8F498E488D478C46E47B64FAF9A0
:1054AF00F812C62E8F498E488D478C46C3E49FF560
:1054BF004FE49EF54EE54A5407FEE47803CEC3133E
:1054CF00CE13D8F9AB3EAA3FA940900010122F057A
:1054DF00E54C5407FEE47806CEC313CE13D8F990EB
:1054EF000010122EC0E54E5403900010122EC0E58E
:1054FF004B900011122F05E54D900012122F05E56C
:0E550F004F900013122F059002F1E04401F0BE
:10551D0080067544007545019002F1E06407600353
:10552D00025681F0900CBDE0600302565C900000C5
:10553D00E075F015A424C5F9740235F0FA7B01A8C5
:10554D0040AC3FAD3E7E007F15122E54AB3EAA3FC0
:10555D00A940123277EF24FAFFE43EFEE43DFDE46C
:10556D003CFC1232C7900000E0640175F015A424D4
:10557D00C5F582E43402F583123305E4FBFAF9F83C
:10558D00C3123240700302565CAB3EE5402406F96F
:10559D00E4353FFAC003C002C001123277C004C027
:1055AD0005C006C007900000E0FF640175F015A46A
:1055BD0024CBF582E43402F583123311EF75F01527
:1055CD00A424CBF582E43402F5831233051230E4C2
:1055DD00A804A905AA06AB07D007D006D005D004AC
:1055ED001230D7D001D002D0031232C7AB3EE54006
:1055FD00240AF9E4353FFAC003C002C00112327724
:10560D00C004C005C006C007900000E0FF6401752E
:10561D00F015A424CFF582E43402F583123311EF93
:10562D0075F015A424CFF582E43402F58312330509
:10563D001230E4A804A905AA06AB07D007D006D0FE
:10564D0005D0041230D7D001D002D0031232C7904A
:10565D000000E06401F0E075F015A424C5F97402B2
:10566D0035F0A801FC7D01AB3EAA3FA9407E007F2D
:04567D0015122E5480
:015681002206
:10B8BE0002080001010C00020D00004211240000DC
:04B8CE0041112600FE
:06C36F008B608A61896207
:10C37500858463AB60AA61A96290000212301B45F7
:10C38500F070F0AB60AA61A96290000D1233F6C09F
:10C3950003C002C001AB60AA61A962900007123414
:10C3A50026AB60AA61A962900002EC8DF01230AA5A
:10C3B500122E7A7006F584D2998005758401D2997A
:03C3C50085638409
:01C3C8002252
:10003E00AE84E4F5848F9B30FFFDC2FFAF9B8E84B0
:01004E00228F
:10C3C900AF8475840F759601758C67E4FDFC0DBD0E
:10C3D90000010CE4B505F7ECB401F3E58C30E7FB9B
:10C3E900759701E4F58A758905F58475B720758413
:10C3F9000F758D01758F01758E03FCFD0DBD000153
:10C409000CE4B505F7ECB401F3438902E58930E49E
:06C41900FB7597028F8401
:01C41F0022FA
:0EA0B2008B4C8A4D894E8F528E518D508C4FA3
:10A0C000858453122E7A14606F04600302A2B2E4F6
:10A0D000F58475911590000A122E9324BB60182404
:10A0E000F6601424EA601024F76007146009242144
:10A0F000700875985080037598D0E4F58475C8048D
:10A1000075C908AB52AA51A950A84FFFFE7D657CC6
:10A110000412317DE47B10FAF9F812317D12321C01
:10A120008ECB8FCA74FFF5CDF5CCD2CAE4F584C2CC
:10A1300099C298D2AC02A2B2758401AB4CAA4DA9C7
:10A140004E90000A122E9324BB601824F66014244B
:10A15000EA601024F76007146009242170087598DC
:10A16000108003759890E4F58453890F438920ABE0
:10A1700052AA51A950A84FFFFE7D657C0412317D83
:10A18000E47B02FAF9F812317DE4FB7A01F9F81266
:10A19000317DE47B01FAF9F8D31232404026AB520C
:10A1A000AA51A950A84FE4FFFE7D657C0412317DC1
:10A1B000E47B02FAF9F812317D12321C8F8D438E46
:10A1C0001002A2A3AB52AA51A950A84FE4FFFE7DF2
:10A1D000657C0412317DE47B02FAF9F812317DE4EA
:10A1E000FB7A01F9F812317DE47B04FAF9F8D31215
:10A1F00032404031AB52AA51A950A84FE4FFFE7D36
:10A20000657C0412317DE47B02FAF9F812317DE4B9
:10A210007B04FAF9F812317D12321C8F8D538EECCB
:10A22000438E01807EAB52AA51A950A84FE4FFFE95
:10A230007D657C0412317DE47B02FAF9F812317DF0
:10A24000E4FB7A01F9F812317DE47B0CFAF9F8D3DA
:10A25000123240AB52AA51A950A84FE4FFFE7D65CF
:10A260007C04401F12317DE47B02FAF9F812317D43
:10A27000E47B0CFAF9F812317D12321C8F8D538E6B
:10A28000EC802012317DE47B02FAF9F812317DE492
:10A290007B30FAF9F812317D12321C8F8D538EEC1F
:10A2A000438E02858D8BD28E758401C299C29843EC
:05A2B000E74085538426
:01A2B5002286
:10002600AF84E4F584759D04759A70C2FFD2F88F8B
:010036008445
:0100370022A6
:10C76900AD84758401E4F5C8F5C9EF2408FFE43EFA
:10C77900FEC3E49FFFE49EF5CB8FCA74FFF5CDF5A8
:09C78900CC43E70143C8048D8490
:01C792002284
:0300230002A2B680
:10A2B600C0E0C0F0C083C082C0D075D000C000C06E
:0DA2C60001C002C003C004C005C006C007EF
:10A2D300E59820E00302A44D8599275398FEE508ED
:10A2E300600302A41AE50924FE606314700302A349
:10A2F3008214700302A3E72403600302A41A750DFA
:10A3030000750E00E5276416600302A41A90028EFE
:10A31300E0FF7E007C027D1D122F279002931233F3
:10A32300E4E92FF9EA3E8B0FF5108911FA050EE5E2
:10A333000EAE0D7002050D14F5828E83E527122FE4
:10A3430005E527620C75080075090202A41AAB0F14
:10A35300AA10A911050EE50EAE0D7002050D14F538
:10A36300828E83E527122F05E527620CE50E64062E
:10A37300450D600302A41AF50875090302A41AAB7C
:10A383000FAA10A911050EE50EAE0D7002050D14EE
:10A39300F5828E83E527122F05630CFFE50C6527F5
:10A3A3007031AB0FAA10A911900003122E93750AF6
:10A3B30000F50B750B00F50A900004122E93250B84
:10A3C300F50BE4350AF50A450B6046750800750977
:10A3D300048044750D00750E00750800750901753C
:10A3E3000C008033D2B4AB0FAA10A911050EE50EF1
:10A3F300AE0D7002050D14F5828E83E527122F052D
:10A40300E50B2407FFE4350AFEEFB50E0AEEB50DA2
:10A4130006750800750905E50964054508702BC232
:10A42300B4F508750901F50DF50EF50C90028712C8
:10A4330033E4E94A4B7013AB0FAA10A911900287BA
:10A443001233ED90028EE06401F0E59830E13E9026
:10A453000285E07002A3E06023D2B490028A123333
:10A46300E4122E7AF59990028BE475F001122FC451
:10A4730090028574FFF5F0122FC4800EC2B47B00E6
:0DA483007A00790090028A1233ED5398FDA3
:10A49000D007D006D005D004D003D002D001D00020
:0BA4A000D0D0D082D083D0F0D0E032CA
:0300A300029C4D6F
:109C4D00C0E0C0F0C083C082C0D075D000C000C0DD
:099C5D0001C002C003C006C007EB
:109C6600E59820E003029DF8859928901126E012D8
:109C7600347F9C97009CA8019CBB029D0B039D38DA
:109C8600049D51059D78069DB9079DCA0800009D53
:109C9600F5E52864B56003029DF590112604F002EF
:109CA6009DF5E528901126B462067402F0029DF532
:109CB600E4F0029DF5751800751700901124E4F084
:109CC600A3F09002A1E075F0DCA4FF9002A6123387
:109CD600E4E92FF9EA35F08B12F5138914FA90119D
:109CE60024E475F001122FDA85F082F583E5281257
:109CF6002F05E5282517F5172518F5189011267450
:109D060003F0029DF5AB12AA13A914901124E47571
:109D1600F001122FDA85F082F583E528122F05E58A
:109D2600282517F5172518F5189011267404F00242
:109D36009DF5751500852816E5282517F5172518AC
:109D4600F5189011267405F0029DF5E528FEE42528
:109D560016F516EE3515F515E5282517F517251808
:109D6600F518E5164515901126700280417406F027
:109D7600807DAB12AA13A914901124E475F0011288
:109D86002FDA85F082F583E528122F05E5282517B9
:109D9600F5172518F518E5162402FFE43515FE908B
:109DA6001124E06E7003A3E06F70449011267407CF
:109DB600F0803CE517901126B528057408F0802F31
:049DC600E4F0802B1A
:109DCA009002A1E0FFB402067E007F008003EF0448
:109DDA00FF8F29E518B5280E9002A2E065296006D2
:0B9DEA009002A1E529F0901126E4F0A2
:109DF5005398FEE59830E170900298E07002A3E078
:109E050060579002A0E024BB601A24E0601624F697
:109E150060042420702290029D1233E4122E7A30C1
:109E2500E00E801190029D1233E4122E7A30E00587
:109E350043980480035398FB90029D1233E4122E3D
:109E45007AF59990029EE475F001122FC49002985C
:109E550074FFF5F0122FC4800C7B007A0079009016
:089E6500029D1233ED5398FD3C
:109E6D00D007D006D003D002D001D000D0D0D08200
:079E7D00D083D0F0D0E032E9
:0300730002BB29A4
:10BB2900C0E0C0F0C083C082C0D075D000C000C0E2
:03BB390006C0073C
:10BB3C0075840153C87F90026DE475F001122FC417
:10BB4C009002BDE0FEA3E0FF90026DE0B50619A3E4
:10BB5C00E0B507149002BDE475F0A0122FC490005C
:10BB6C0059E475F001122FC4E4FFFE74342FF582F2
:10BB7C00E4340CF583E0600D74342FF582E4340C5E
:10BB8C00F583E014F00FBF00010EEF64034E70DB81
:10BB9C0075840F20E816C39002C4E094FF9002C392
:10BBAC00E094FF5007E475F001122FC47584007502
:06BBBC00BB00C2EDD2EC5B
:10BBC200D007D006D000D0D0D082D083D0F0D0E041
:01BBD2003240
:10B57700E4900D8CF07B017A0C793712C420900C83
:10B58700A0E0B4010FA3E0B4540AA3E07004A3E061
:10B5970064086019900CA07401F0A37454F0900C27
:10B5A700A2E4F0A37408F0900D8C7401F0900C895C
:10B5B700E0B4FF1790001AE0900C89600574C8F09A
:10B5C70080037464F0900D8C7401F0900C88E06433
:10B5D7000160077401F0900D8CF0900C24E0FCA33F
:10B5E700E0FDB40015ECB41011900CA5E030E40AAE
:10B5F700E054EFF0900D8C7401F0E4B50515ECB450
:10B607002011900CA5E020E40AE04410F0900D8C86
:10B617007401F0900C37E0FF12005E400D900C377C
:10B62700E06007E4F0900D8C04F0900C4BE0FF1203
:10B63700005E400D900C4BE06007E4F0900D8C0429
:10B64700F0900C5FE0FF12005E400D900C5FE06031
:10B6570007E4F0900D8C04F0900CA8E0B4FF07E429
:10B66700F0900D8C04F0900CA9E0B4FF11A3E0B4A6
:10B67700FF0CE4900CA9F0A3F0900D8C04F0900D52
:10B687008CE0601012C73B7B017A0C79377D807C98
:10B697000012C16390001AE06010900CA7E030E43C
:0AB6A700047F0080027F0112C793A8
:01B6B1002276
:10C73B00AF84E4F584781EF608F6A2AF33FEC2AFE1
:10C74B0043B701758F0718E6FC08E6F5828C83E486
:0DC75B00F0F58F53B7FEEE24FF92AF8F84F0
:01C7680022AE
:0AC163008B4F8A5089518C528D5386
:10C16D00858454E4F584781EF608F6A2AF33FFC239
:10C17D00AF43B701758F05E4F555F556C3E55695F3
:10C18D0053E5526480F8E5556480985029784FE462
:10C19D0075F0011233D4122E7AFE781E0806E618B9
:10C1AD00860470010614F5828C83EEF00556E55673
:10C1BD0070CA055580C6E4F58F53B7FEEF24FF9284
:04C1CD00AF85548462
:01C1D100224B
:06C420008B4F8A50895188
:10C42600858452E4F553F554F584A2AF33F555C22D
:10C43600AF758F04E4FFFE0554E554AC5370020556
:10C446005314F5828C83E493FD784FE475F0011262
:10C4560033D4ED122EF30FBF00010EEF64804E7041
:0DC46600D6E4F58FE55524FF92AF85528492
:01C4730022A6
:0EBEE4008E568F578C588D598B5A8A5B895C0D
:09BEF20012007EEF30E7F9C2F9FD
:10BEFB00E4F561F5620562E5627002056164404537
:03BF0B006170F270
:10BF0E00E5576401455670047F8480027F871200D6
:10BF1E003EE4FF12003EE4FF12003EE4FF12003E3C
:10BF2E00E4F55FF560C3E5609559E5586480F8E582
:10BF3E005F648098501DAB5AAA5BA95C85608285B0
:10BF4E005F83122E93FF12003E0560E56070D605EA
:10BF5E005F80D2D2F9AD5EAC5DAF57AE5602C06F08
:08C06F008E638F648C658D6601
:10C0770090094AE0FEA3E0FF12BD258F6712007EFC
:06C08700EF30E7F9C2F9F9
:10C08D00E4F568F5690569E5697002056864404580
:03C09D006870F2D6
:10C0A000E5676010E5646401456370047F83801276
:10C0B0007F86800EE5646401456370047F828002A0
:10C0C0007F8512003EE566AE657806CEA2E713CE08
:10C0D00013D8F8FF12003EAF66EF25E025E0FF120F
:09C0E000003EE4FF12003ED2F91B
:01C0E9002234
:0CBF6E008E3F8F408C418D428A438B44F3
:09BF7A0012007EEF30E7F9C2F974
:10BF8300E4F54AF54B054BE54B7002054A64404521
:03BF93004A70F2FF
:10BF9600E5406401453F70047F8480027F8712007C
:10BFA6003EE4FF12003EE5435403FF12003EAF4459
:10BFB600E54412003EE4F548F549C3E5499542E5F6
:10BFC600416480F8E548648098501DAB45AA46A9AF
:10BFD60047854982854883122E93FF12003E054904
:0ABFE600E54970D6054880D2D2F973
:01BFF000222E
:08C23F008E418F428C438D44B7
:09C2470012007EEF30E7F9C2F9A4
:10C25000E4F547F5480548E5487002054764404560
:03C260004770F232
:10C26300E5426401454170047F8480027F871200A8
:10C273003EE4FF12003EE4FF12003EE4FF12003EE4
:10C28300E4F545F546C3E5469544E5436480F8E5A2
:10C2930045648098500F7FFF12003E0546E54670C7
:07C2A300E4054580E0D2F93B
:01C2AA002271
:02007E00C2F9C5
:10008000E4F573F5740574E5747002057364404516
:030090007370F298
:0C0093007FD712003EE4FF12003ED2F9BD
:01009F00223E
:0ABDBF008E538F548B558A56895716
:09BDC90012007EEF30E7F9C2F927
:10BDD200E4F55CF55D055DE55D7002055C6440457A
:03BDE2005C70F2A0
:10BDE5007FD212003EE559AE587806CEA2E713CEB3
:10BDF50013D8F8FF12003EAF59EF25E025E0FF12FA
:10BE0500003EE4FF12003EE4FF12003EE4FF120094
:10BE15003EE4FF12003EE4FF12003EE4F55AF55BF6
:10BE2500C3E55B9554E5536480F8E55A6480985002
:10BE35001FE4FF12003EAB55AA56A957855B8285C4
:10BE45005A83EF122F05055BE55B70D4055A80D048
:02BE5500D2F920
:01BE570022C8
:08BD25008E6A8F6B8C6C8D6D32
:0CBD2D00756E0112007EEF30E7F9C2F9DC
:10BD3900E4F571F5720572E57270020571644045AA
:03BD49007170F224
:10BD4C007FD212003EE56DAE6C7806CEA2E713CE24
:10BD5C0013D8F8FF12003EAF6DEF25E025E0FF127F
:10BD6C00003EE4FF12003EE4FF12003EE4FF12002E
:10BD7C003EE4FF12003EE4FF12003EE4F56FF57066
:10BD8C00C3E570956BE56A6480F8E56F6480985044
:10BD9C001DE4FF12003EBFFF047F0180027F008F75
:10BDAC006EEF600A0570E57070D6056F80D2D2F91F
:02BDBC00AF6E68
:01BDBE002262
:04C50D008E528F5368
:09C5110012007EEF30E7F9C2F9D7
:10C51A00E4F554F5550555E5557002055464404552
:03C52A005470F258
:10C52D007F5012003EE553AE527806CEC313CE13A4
:10C53D00D8F9FF12003EAF53EF25E025E0FF1200C2
:08C54D003EE4FF12003ED2F9AA
:01C5550022C3
:04C556008E538F541D
:09C55A0012007EEF30E7F9C2F98E
:10C56300E4F555F5560556E5567002055564404504
:03C573005570F20E
:10C576007F8112003EE554AE537806CEC313CE1328
:10C58600D8F9FF12003EAF54EF25E025E0FF120078
:08C596003EE4FF12003ED2F961
:01C59E00227A
:06C1D2008C4D8D4E8B4FD9
:10C1D800E54F6002C2B68E508F51D3E551954EE5BA
:10C1E80050954D504BE55154077034C3E54E955169
:10C1F800FFE54D9550FEC3EF9408EE94004020E50E
:10C208004F6008E551543F7002B2B6AF51AE5012BC
:10C21800C50D74072551F551E43550F5508007AF29
:10C2280051AE5012C5560551E55170AE055080AA61
:06C23800E54F6002C2B6F2
:01C23E0022DD
:06B8D3008B3B8A3C893D1D
:06B8D900D2F8D2F9C2FA18
:10B8DF00E4F541F5420542E54270020541644045F9
:03B8EF004170F2B3
:02B8F200D2FA88
:10B8F400E4F541F5420542E54270020541644045E4
:03B904004170F29D
:10B9070012007EEF543C12347FB9290CB93314B9B5
:10B917003D1CB94724B9622CB97D34B9983C000065
:10B92700B9B4AB3BAA3CA93D7402801CAB3BAA3C13
:10B93700A93D74048012AB3BAA3CA93D740880085A
:10B94700AB3BAA3CA93D741075F00012308BAB3E9F
:10B95700AA3FA940740175F008804FAB3BAA3CA9E8
:10B967003D741075F00012308BAB3EAA3FA94074AE
:10B977000275F0108034AB3BAA3CA93D742075F0EA
:10B987000012308BAB3EAA3FA940740275F01080BD
:10B9970019AB3BAA3CA93D742075F00012308BAB64
:0DB9A7003EAA3FA940740475F02012308BB9
:01B9B4002270
:1082C300257300506C61636520756E697420666C5C
:1082D3006174206F6E206C6576656C2073757266B1
:1082E3006163652E00466C6970206F7665722E207F
:1082F3004661636520646F776E2E00486F6C64205F
:10830300766572746963616C2C2047505320616EEB
:1083130074656E6E61206A61636B2075702E004810
:108323006F6C6420766572746963616C2C204750AE
:108333005320616E74656E6E61206A61636B2064A5
:108343006F776E2E005374616E64206F6E207269B6
:1083530067687420736964652E005374616E6420CA
:108363006F6E206C65667420736964652E00496EB8
:1083730076657274696E6720582056616C756573F3
:1083830000496E76657274696E6720592056616C78
:1083930075657300496E76657274696E67205A203D
:1083A30056616C7565730020005A65726F20506FBB
:1083B300696E74733A20582025752C205920257531
:1083C3002C205A20257500582052616E67653A208B
:1083D30025752C20257500592052616E67653A205A
:1083E30025752C202575005A2052616E67653A2049
:1083F30025752C2025750053746F72696E672043B1
:10840300616C6962726174696F6E2044617461208A
:10841300696E20466C6173682E0043616C696272F9
:108423006174696F6E20436F6D706C6574652E00A7
:108433005A65726F696E6720582C20592050574D2A
:108443000046696E616C2043616C3A2025752C25CA
:10845300750046696E616C2056616C3A2025752C57
:1084630025750044617461666C617368205465739B
:1084730074002A2A20466C617368204641494C45A2
:1084830044202A2A2C20706167652025642C2062F1
:1084930079746525640050616765202564206F6BDE
:1084A3000054657374205061737365642E00496EC4
:1084B300707574205465737400444947494E3A20DB
:1084C3000031003000583A2025752C20593A2025D8
:1084D30075005A3A2025752C2035563A202575000B
:1084E30035563A2025752C20543A20257500413005
:1084F3003A2025752C2041313A2025750041323A26
:108503002025752C2041333A20257500496E70755E
:10851300745465737420436F6D706C6574652E00BD
:108523004F75747075742054657374006269742098
:108533002564004F75747075745465737420436FAC
:108543006D706C6574652E00412F442054657374FF
:1085530000426F61726420666C61742E20546573EF
:1085630074206669787475726520617474616368D8
:1085730065642E005820205920203556205A20208B
:10858300413020413120413220413300312020202D
:10859300003020202000414454657374205041531F
:1085A300532E002A2A2041445465737420464149BE
:1085B3004C202A2A004469676974616C20494F2062
:1085C30054657374004F6E6C792056616C69642036
:1085D300666F7220535532202D2045786974696E79
:1085E300672E00446967494F5465737420506F695F
:1085F3006E74202564002A2A20204641494C202AF3
:108603002A00446967494F5465737420504153539A
:108613002E002A2A20446967494F54657374204603
:1086230041494C202A2A004175746F4F6E205465CE
:10863300737400456E61626C696E67204175746F77
:108643004F6E2E2E2E0044726F7070696E67203548
:108653005620456E61626C650044697361626C69A2
:108663006E67204175746F4F6E2E2E2E0041757408
:108673006F4F6E5465737420504153532E00534D06
:108683004275732054657374202D204D6173746596
:10869300720025752042797465732C20257520435B
:1086A30079636C6573002A2A20534D4275732054F5
:1086B300657374204641494C202A2A00534D427564
:1086C30073205465737420506173732E00534D42AD
:1086D30075732054657374202D20536C6176650087
:1086E3000102040810204080010204081020408089
:1036630085844C9000047401F075840FFB7A0C7907
:103673003712C420E4900C87F0909A4993900C88F9
:10368300F090001AE0900C89600574C8F080037410
:1036930064F0900CA07401F0A37454F0900CA2E4B5
:1036A300F0A37408F074FFFFFEFDFC900C8A123344
:1036B30011C3123240700A900C8A12335900000071
:1036C30000900C8EE0B4FF037401F0900C8FE0B413
:1036D300FF03740DF0900CA474FFF0A3F0900C9012
:1036E3007408F0A3E4F0900C927408F0A3E4F09053
:1036F3000C37F0900C4BF0900C5FF0900C9EF0A305
:1037030074A0F0900C9CE4F0A374A0F0E49002C3C6
:0B371300F0A3F0D2B3D2B6D2B5D2B40E
:10371E00900CFC12335900015F90E4FFFEFDFC900B
:10372E000CFC123311D312322A4017900CFC1233B8
:10373E000574FFFBFAF9F81230D7900CFC12334DDA
:02374E0080D821
:10375000909A4AE493FF3395E0FE90029075F0133F
:10376000EF1233C8EE75F013A42583F5831233E40A
:10377000E92407F9E43AFA7556FF7557827558C37C
:103780007559FF755A82755BC6127617909A4AE48E
:1037900093FF3395E0FE90029075F013EF1233C85B
:1037A000EE75F013A42583F5831233E4E92407F9B9
:1037B000E43AFA12000EEF2401F557E43EF5569074
:0C37C0009A49E493FF7B737D0112A6BFC1
:1037CC00900D0012335900015F90E4FFFEFDFC9058
:1037DC000D00123311D312322A4017900D00123300
:1037EC000574FFFBFAF9F81230D7900D0012334D27
:0237FC0080D873
:1037FE0012AC4590001AE0606590111EE0FEA3E049
:10380E00FF901119E02FFF901118E03EC313FEEF49
:10381E0013FF900C90EEF0A3EFF0901120E0FEA3BA
:10382E00E0FF90111BE02FFF90111AE03EC313FE34
:10383E00EF13FF900C92EEF0A3EFF0901122E0FE4A
:10384E00A3E0FF90111DE02FFF90111CE03EC3136B
:10385E00FEEF13FF900CAFEEF0A3EFF08003128695
:10386E00F390001AE0700302394EC2B3C2B5909ABB
:10387E004AE493FF3395E0FE90029075F013EF1239
:10388E0033C8EE75F013A42583F5831233E4E924CF
:10389E0007F9E43AFA7556FF7557827558C375598C
:1038AE00FF755A82755BE8127617909A4AE493FF79
:1038BE003395E0FE90029075F013EF1233C8EE755B
:1038CE00F013A42583F5831233E4E92407F9E43ACF
:1038DE00FA12000EEF2401F557E43EF556909A4980
:0A38EE00E493FF7B737D0112A6BF77
:1038F800900D0412335900015F90E4FFFEFDFC9027
:103908000D04123311D312322A4017900D041233CA
:103918000574FFFBFAF9F81230D7900D0412334DF5
:0239280080D845
:10392A0012AC45901122E0FEA3E0FF90111DE02F9A
:10393A00FF90111CE03EC313FEEF13FF900CADEE97
:10394A00F0A3EFF0C2B3C2B6C2B5C2B4909A4AE4C9
:10395A0093FF3395E0FE90029075F013EF1233C88F
:10396A00EE75F013A42583F5831233E4E92407F9ED
:10397A00E43AFA7556FF7557827558C37559FF753B
:10398A005A82755BFE127617909A4AE493FF339532
:10399A00E0FE90029075F013EF1233C8EE75F01343
:1039AA00A42583F5831233E4E92407F9E43AFA12E9
:1039BA00000EEF2401F557E43EF556909A49E49338
:0839CA00FF7B737D0112A6BF13
:1039D200900D0812335900015F90E4FFFEFDFC9048
:1039E2000D08123311D312322A4017900D081233E8
:1039F2000574FFFBFAF9F81230D7900D0812334D17
:023A020080D86A
:103A040012AC4590111EE0FEA3E0FF901119E02FC7
:103A1400FF901118E03EC313FEEF13FF900C96EED7
:103A2400F0A3EFF090001AE06021901122E0FEA3D1
:103A3400E0FF90111DE02FFF90111CE03EC313FE28
:103A4400EF13FF900CABEEF0A3EFF0D2B3909A4AD1
:103A5400E493FF3395E0FE90029075F013EF123378
:103A6400C8EE75F013A42583F5831233E4E9240723
:103A7400F9E43AFA7556FF7557827558C37559FFBC
:103A8400755A83755B22127617909A4AE493FF3332
:103A940095E0FE90029075F013EF1233C8EE75F0C6
:103AA40013A42583F5831233E4E92407F9E43AFAED
:103AB40012000EEF2401F557E43EF556909A49E4BE
:093AC40093FF7B737D0112A6BF84
:103ACD00900D0C12335900015F90E4FFFEFDFC9048
:103ADD000D0C123311D312322A4017900D0C1233E4
:103AED000574FFFBFAF9F81230D7900D0C12334D17
:023AFD0080D86F
:103AFF0012AC4590111EE0FEA3E0FF901119E02FCC
:103B0F00FF901118E03EC313FEEF13FF900C94EEDD
:103B1F00F0A3EFF0D2B6909A4AE493FF3395E0FE0C
:103B2F0090029075F013EF1233C8EE75F013A425C1
:103B3F0083F5831233E4E92407F9E43AFA7556FF63
:103B4F007557827558C37559FF755A83755B48123F
:103B5F007617909A4AE493FF3395E0FE90029075A2
:103B6F00F013EF1233C8EE75F013A42583F583120B
:103B7F0033E4E92407F9E43AFA12000EEF2401F5D1
:103B8F0057E43EF556909A49E493FF7B737D0112FB
:023B9F00A6BFBF
:103BA100900D1012335900015F90E4FFFEFDFC906F
:103BB1000D10123311D312322A4017900D10123307
:103BC1000574FFFBFAF9F81230D7900D1012334D3E
:023BD10080D89A
:103BD30012AC45901120E0FEA3E0FF90111BE02FF3
:103BE300FF90111AE03EC313FEEF13FF900C98EE03
:103BF300F0A3EFF0D2B5909A4AE493FF3395E0FE39
:103C030090029075F013EF1233C8EE75F013A425EC
:103C130083F5831233E4E92407F9E43AFA7556FF8E
:103C23007557827558C37559FF755A83755B5D1255
:103C33007617909A4AE493FF3395E0FE90029075CD
:103C4300F013EF1233C8EE75F013A42583F5831236
:103C530033E4E92407F9E43AFA12000EEF2401F5FC
:103C630057E43EF556909A49E493FF7B737D011226
:023C7300A6BFEA
:103C7500900D1412335900015F90E4FFFEFDFC9096
:103C85000D14123311D312322A4017900D1412332A
:103C95000574FFFBFAF9F81230D7900D1412334D65
:023CA50080D8C5
:103CA70012AC45901120E0FEA3E0FF90111BE02F1E
:103CB700FF90111AE03EC313FEEF13FF900C9AEE2C
:103CC700F0A3EFF0D2B4900C94E0FEA3E0FFC39012
:103CD7000C97E09F900C96E09E4003023DB6909AA9
:103CE7004AE493FF3395E0FE90029075F013EF12CC
:103CF70033C8EE75F013A42583F5831233E4E92462
:103D070007F9E43AFA7556FF7557827558C375591E
:103D1700FF755A83755B71127617909A4AE493FF81
:103D27003395E0FE90029075F013EF1233C8EE75ED
:103D3700F013A42583F5831233E4E92407F9E43A61
:103D4700FA12000EEF2401F557E43EF556909A4912
:0A3D5700E493FF7B737D0112A6BF09
:103D6100900D1812335900015F90E4FFFEFDFC90A5
:103D71000D18123311D312322A4017900D18123335
:103D81000574FFFBFAF9F81230D7900D1812334D74
:023D910080D8D8
:103D9300900C96E0F54DA3E0F54E900C94E0FFA354
:103DA300E0900C96CFF0A3EFF0900C94E54DF0A3C8
:103DB300E54EF0900C98E0FEA3E0FFC3900C9BE06F
:103DC3009F900C9AE09E4003023E9F909A4AE49390
:103DD300FF3395E0FE90029075F013EF1233C8EEB7
:103DE30075F013A42583F5831233E4E92407F9E47A
:103DF3003AFA7556FF7557827558C37559FF755A48
:103E030083755B84127617909A4AE493FF3395E0A7
:103E1300FE90029075F013EF1233C8EE75F013A401
:103E23002583F5831233E4E92407F9E43AFA12000F
:103E33000EEF2401F557E43EF556909A49E493FFBB
:073E43007B737D0112A6BF95
:103E4A00900D1C12335900015F90E4FFFEFDFC90B7
:103E5A000D1C123311D312322A4017900D1C123343
:103E6A000574FFFBFAF9F81230D7900D1C12334D86
:023E7A0080D8EE
:103E7C00900C9AE0F54DA3E0F54E900C98E0FFA362
:103E8C00E0900C9ACFF0A3EFF0900C98E54DF0A3D6
:103E9C00E54EF090001AE07003023F91900CADE0FB
:103EAC00FEA3E0FFC3900CB0E09F900CAFE09E40EF
:103EBC0003023F91909A4AE493FF3395E0FE9002FF
:103ECC009075F013EF1233C8EE75F013A42583F53B
:103EDC00831233E4E92407F9E43AFA7556FF75576F
:103EEC00827558C37559FF755A83755B971276178F
:103EFC00909A4AE493FF3395E0FE90029075F0138C
:103F0C00EF1233C8EE75F013A42583F5831233E456
:103F1C00E92407F9E43AFA12000EEF2401F557E40C
:103F2C003EF556909A49E493FF7B737D0112A6BF30
:103F3C00900D2012335900015F90E4FFFEFDFC90C0
:103F4C000D20123311D312322A4017900D20123348
:103F5C000574FFFBFAF9F81230D7900D2012334D8F
:023F6C0080D8FB
:103F6E00900CAFE0F54DA3E0F54E900CADE0FFA345
:103F7E00E0900CAFCFF0A3EFF0900CADE54DF0A3B9
:103F8E00E54EF0909A4AE493FF3395E0FE9002904E
:103F9E0075F013EF1233C8EE75F013A42583F58375
:103FAE001233E4E92407F9E43AFA7556FF7557829D
:103FBE007558C37559FF755A83755BAA127617909B
:103FCE009A4AE493FF3395E0FE90029075F013EF5A
:103FDE001233C8EE75F013A42583F5831233E4E98A
:103FEE002407F9E43AFA12000EEF2401F557E43EE5
:0F3FFE00F556909A49E493FF7B737D0112A6BF9D
:10400D00900D2412335900015F90E4FFFEFDFC90EA
:10401D000D24123311D312322A4017900D2412336E
:10402D000574FFFBFAF9F81230D7900D2412334DB9
:02403D0080D829
:10403F007556FF7557837558AC900C90E0F559A3E2
:10404F00E0F55A900C92E0F55BA3E0F55C900CABB9
:10405F00E0F55DA3E0F55E7B017A0D793C127617F2
:10406F00909A4AE493FF3395E0FE90029075F01317
:10407F00EF1233C8EE75F013A42583F5831233E4E2
:10408F00E92407F9E43AFA7556FF7557827558C354
:10409F00755901755A0D755B3C127617909A4AE463
:1040AF0093FF3395E0FE90029075F013EF1233C833
:1040BF00EE75F013A42583F5831233E4E92407F991
:1040CF00E43AFA12000EEF2401F557E43EF556904C
:0C40DF009A49E493FF7B737D0112A6BF99
:1040EB00900D2812335900015F90E4FFFEFDFC9008
:1040FB000D28123311D312322A4017900D28123388
:10410B000574FFFBFAF9F81230D7900D2812334DD6
:02411B0080D84A
:10411D00909A4AE493FF3395E0FE90029075F01368
:10412D00EF1233C8EE75F013A42583F5831233E433
:10413D00E92407F9E43AFA7556FF7557837558CA9D
:10414D00900C94E0F559A3E0F55A900C96E0F55BD0
:10415D00A3E0F55C127617909A4AE493FF3395E04D
:10416D00FE90029075F013EF1233C8EE75F013A4A4
:10417D002583F5831233E4E92407F9E43AFA1200B2
:10418D000EEF2401F557E43EF556909A49E493FF5E
:07419D007B737D0112A6BF38
:1041A400900D2C12335900015F90E4FFFEFDFC904A
:1041B4000D2C123311D312322A4017900D2C1233C6
:1041C4000574FFFBFAF9F81230D7900D2C12334D19
:0241D40080D891
:1041D600909A4AE493FF3395E0FE90029075F013AF
:1041E600EF1233C8EE75F013A42583F5831233E47A
:1041F600E92407F9E43AFA7556FF7557837558DAD4
:10420600900C98E0F559A3E0F55A900C9AE0F55B0E
:10421600A3E0F55C127617909A4AE493FF3395E093
:10422600FE90029075F013EF1233C8EE75F013A4EA
:104236002583F5831233E4E92407F9E43AFA1200F8
:104246000EEF2401F557E43EF556909A49E493FFA4
:074256007B737D0112A6BF7E
:10425D00900D3012335900015F90E4FFFEFDFC908C
:10426D000D30123311D312322A4017900D30123304
:10427D000574FFFBFAF9F81230D7900D3012334D5B
:02428D0080D8D7
:10428F00909A4AE493FF3395E0FE90029075F013F5
:10429F00EF1233C8EE75F013A42583F5831233E4C0
:1042AF00E92407F9E43AFA7556FF7557837558EA0A
:1042BF00900CADE0F559A3E0F55A900CAFE0F55B2B
:1042CF00A3E0F55C127617909A4AE493FF3395E0DA
:1042DF00FE90029075F013EF1233C8EE75F013A431
:1042EF002583F5831233E4E92407F9E43AFA12003F
:1042FF000EEF2401F557E43EF556909A49E493FFEB
:07430F007B737D0112A6BFC4
:10431600900D3412335900015F90E4FFFEFDFC90CE
:104326000D34123311D312322A4017900D34123342
:104336000574FFFBFAF9F81230D7900D3412334D9D
:0243460080D81D
:10434800909A4AE493FF3395E0FE90029075F0133B
:10435800EF1233C8EE75F013A42583F5831233E406
:10436800E92407F9E43AFA7556FF7557827558C378
:104378007559FF755A83755BFA127617909A4AE455
:1043880093FF3395E0FE90029075F013EF1233C857
:10439800EE75F013A42583F5831233E4E92407F9B5
:1043A800E43AFA12000EEF2401F557E43EF5569070
:1043B8009A49E493FF7B737D0112A6BF12C73B7B2A
:0C43C800017A0C79377D7B7C0012C16308
:1043D400900D3812335900015F90E4FFFEFDFC900C
:1043E4000D38123311D312322A4017900D3812337C
:1043F4000574FFFBFAF9F81230D7900D3812334DDB
:0244040080D85E
:10440600909A4AE493FF3395E0FE90029075F0137C
:10441600EF1233C8EE75F013A42583F5831233E447
:10442600E92407F9E43AFA7556FF7557827558C3B9
:104436007559FF755A84755B1D127617909A4AE472
:1044460093FF3395E0FE90029075F013EF1233C898
:10445600EE75F013A42583F5831233E4E92407F9F6
:10446600E43AFA12000EEF2401F557E43EF55690B1
:104476009A49E493FF7B737D0112A6BFD2B3C2B6FD
:0F448600C2B5C2B4E4900004F012B577854C843F
:014495002204
:10AC450090111C740FF0A374FFF090111A740FF09B
:10AC5500A374FFF0901118740FF0A374FFF0E49043
:10AC65001122F0A3F0901120F0A3F090111EF0A393
:10AC7500F0FFFE9002AAE060FA90001DE0FCA3E060
:10AC8500FD901118E0FAA3E0FBC39DEA9C5006ACC9
:10AC950002AD03800890001DE0FCA3E0FD901118B3
:10ACA500ECF0A3EDF090001FE0FCA3E0FD90111A7D
:10ACB500E0FAA3E0FBC39DEA9C5006AC02AD03801D
:10ACC5000890001FE0FCA3E0FD90111AECF0A3ED45
:10ACD500F0900023E0FCA3E0FD90111CE0FAA3E056
:10ACE500FBC39DEA9C5006AC02AD0380089000238F
:10ACF500E0FCA3E0FD90111CECF0A3EDF090001D2D
:10AD0500E0FCA3E0FD90111EE0FAA3E0FBD39DEA71
:10AD15009C4006AC02AD03800890001DE0FCA3E05A
:10AD2500FD90111EECF0A3EDF090001FE0FCA3E0F8
:10AD3500FD901120E0FAA3E0FBD39DEA9C4006AC10
:10AD450002AD03800890001FE0FCA3E0FD901120F8
:10AD5500ECF0A3EDF0900023E0FCA3E0FD901122C0
:10AD6500E0FAA3E0FBD39DEA9C4006AC02AD03806C
:10AD750008900023E0FCA3E0FD901122ECF0A3ED88
:10AD8500F0E49002AAF00FBF00010EEF64284E60B8
:10AD95000302AC7890111AE0FEA3E0FF901120E0C9
:10ADA500FCA3E0FDC39FFFEC9EFEC3940040028020
:10ADB5001690111AE0FEA3E0FFC3ED9FFFEC9EFE87
:10ADC500C3E49FFFE49EFED3EF9404EE940040039A
:10ADD50002AC45901118E0FEA3E0FF90111EE0FCC7
:10ADE500A3E0FDC39FFFEC9EFEC3940040028016C6
:10ADF500901118E0FEA3E0FFC3ED9FFFEC9EFEC39C
:10AE0500E49FFFE49EFED3EF9404EE94004003021A
:02AE1500AC454A
:01AE17002218
:1086F300E4F54FF550F584900C9EE0A3E0F5FD9072
:108703000C9EE0A3E0F5FE900C9CE0A3E0F5FB904B
:108713000C9CE0A3E0F5FC909A4AE493FF3395E0C8
:10872300FE90029075F013EF1233C8EE75F013A4A8
:108733002583F5831233E4E92407F9E43AFA7556FD
:10874300FF7557827558C37559FF755A84755B3326
:10875300127617909A4AE493FF3395E0FE900290C5
:1087630075F013EF1233C8EE75F013A42583F58368
:108773001233E4E92407F9E43AFA12000EEF240174
:10878300F557E43EF556909A49E493FF7B737D01D8
:0387930012A6BF6C
:10879600900D8C12335900015F90E4FFFEFDFC90B2
:1087A6000D8C123311D312322A4017900D8C1233CE
:1087B6000574FFFBFAF9F81230D7900D8C12334D81
:0287C60080D859
:1087C8009002AAE060FAE49002AAF09002AAE0609F
:1087D800FAE54F700F90001DE0FFA3E0900C90CFDA
:1087E800F0A3EFF0E550700F90001FE0FFA3E090BA
:1087F8000C92CFF0A3EFF0E49002AAF0E54F704B93
:10880800900C90E0FEA3E02400EE34F8C36480945A
:10881800804010900C90E0FEA3E02400FFEE34F8B6
:10882800FE8015900C90E0FEA3E02400FFEE34F8E3
:10883800FEC3E49FFFE49EFED3EF9405EE648094AC
:108848008050047F0180027F008F4FE54F7048C33E
:10885800900C90E094085015900C9CE07002A3E0F6
:1088680070028014900C9C74FFF5F08017900C9C9B
:10887800E07003A3E0F47005754F01800A900C9C2A
:10888800E475F001122FC4900C9CE0A3E0F5FB9076
:108898000C9CE0A3E0F5FCE550704B900C92E0FED8
:1088A800A3E02400EE34F8C3648094804010900C58
:1088B80092E0FEA3E02400FFEE34F8FE8015900C51
:1088C80092E0FEA3E02400FFEE34F8FEC3E49FFF2D
:1088D800E49EFED3EF9405EE6480948050047F01FB
:1088E80080027F008F50E5507048C3900C92E0944E
:1088F800085015900C9EE07002A3E070028014905E
:108908000C9E74FFF5F08017900C9EE07003A3E0B6
:10891800F47005755001800A900C9EE475F0011200
:108928002FC4900C9EE0A3E0F5FD900C9EE0A3E020
:10893800F5FEE54F70030287C8E55070030287C84B
:1089480012AC4590001DE0FFA3E0900C90CFF0A37F
:10895800EFF090001FE0FFA3E0900C92CFF0A3EFA0
:10896800F0909A4AE493FF3395E0FE90029075F0F8
:1089780013EF1233C8EE75F013A42583F583123371
:10898800E4E92407F9E43AFA7556FF7557847558EF
:1089980044900C9CE0F559A3E0F55A900C9EE0F544
:1089A8005BA3E0F55C127617909A4AE493FF33953F
:1089B800E0FE90029075F013EF1233C8EE75F013D5
:1089C800A42583F5831233E4E92407F9E43AFA127B
:1089D800000EEF2401F557E43EF556909A49E493CA
:0889E800FF7B737D0112A6BFA5
:1089F000900D9012335900015F90E4FFFEFDFC9052
:108A00000D90123311D312322A4017900D90123369
:108A10000574FFFBFAF9F81230D7900D9012334D20
:028A200080D8FC
:108A22007556FF755784755855900C90E0F559A30B
:108A3200E0F55A900C92E0F55BA3E0F55C7B017ADD
:108A42000D7998127617909A4AE493FF3395E0FED7
:108A520090029075F013EF1233C8EE75F013A4254F
:108A620083F5831233E4E92407F9E43AFA7556FFF1
:108A72007557827558C3755901755A0D755B9812F1
:108A82007617909A4AE493FF3395E0FE9002907530
:108A9200F013EF1233C8EE75F013A42583F5831299
:108AA20033E4E92407F9E43AFA12000EEF2401F55F
:108AB20057E43EF556909A49E493FF7B737D011289
:028AC200A6BF4D
:108AC400900D9412335900015F90E4FFFEFDFC9079
:108AD4000D94123311D312322A4017900D9412338D
:108AE4000574FFFBFAF9F81230D7900D9412334D48
:028AF40080D828
:018AF600225D
:028AF7008F4CA2
:108AF90085844DE4F54EF54FF552909A4A93FF332C
:108B090095E0FE90029075F013EF1233C8EE75F000
:108B190013A42583F5831233E4E92407F9E43AFA27
:108B29007556FF7557827558C37559FF755A8475FF
:108B39005B66127617909A4AE493FF3395E0FE90AC
:108B4900029075F013EF1233C8EE75F013A4258364
:108B5900F5831233E4E92407F9E43AFA12000EEF37
:108B69002401F557E43EF556909A49E493FF7B7347
:108B79007D0112A6BFE49002C3F0A3F0F550F551B0
:108B8900D390094BE0955190094AE095504023AEA6
:108B990050AF517C017D00122F8E745B2551F582F7
:108BA90074003550F583EDF00551E551700205501B
:108BB90080CE75840F30E819C39002C4E0940990FF
:108BC90002C3E094004003028DBEE49002C3F0A307
:108BD900F090094AE0FCA3E0FD7B017A00795B850E
:108BE9004E5D854F5EE4FFFE12BEE490094AE0FE49
:108BF900A3E0FF7B017A00795B854E58854F5912B6
:108C0900BDBFE4F550F551D390094BE0955190095A
:108C19004AE09550402DAE50AF517C017D00122F96
:108C29008E745B2551F58274003550F583E06D70C3
:108C390001EC6005755201800A0551E55170020584
:108C49005080C4E5527003028CD5909A4AE493FF90
:108C59003395E0FE90029075F013EF1233C8EE756C
:108C6900F013A42583F5831233E4E92407F9E43AE0
:108C7900FA7556FF755784755875854E59854F5A3B
:108C890085505B85515C127617909A4AE493FF33BD
:108C990095E0FE90029075F013EF1233C8EE75F06F
:108CA90013A42583F5831233E4E92407F9E43AFA96
:108CB90012000EEF2401F557E43EF556909A49E467
:0C8CC90093FF7B737D0112A6BF028DBEDD
:108CD500900CFC12335900015F90E4FFFEFDFC90FF
:108CE5000CFC123311D312322A4017900CFC1233AC
:108CF5000574FFFBFAF9F81230D7900CFC12334DCE
:028D050080D814
:108D0700909A4AE493FF3395E0FE90029075F01332
:108D1700EF1233C8EE75F013A42583F5831233E4FD
:108D2700E92407F9E43AFA7556FF75578475589997
:108D3700854E59854F5A127617909A4AE493FF3316
:108D470095E0FE90029075F013EF1233C8EE75F0C0
:108D570013A42583F5831233E4E92407F9E43AFAE7
:108D670012000EEF2401F557E43EF556909A49E4B8
:108D770093FF7B737D0112A6BFAF4FAE4E12C55650
:108D8700D3900C25E0954F900C24E0954E5007E4C6
:108D9700F54EF54F8008054FE54F7002054EE54C3F
:108DA70064347003028BBBD3E54F9404E54E6480B3
:0E8DB70094805003028BBBE49002C3F0A3F043
:108DC500900D0012335900015F90E4FFFEFDFC9009
:108DD5000D00123311D312322A4017900D001233B1
:108DE5000574FFFBFAF9F81230D7900D0012334DD8
:028DF50080D824
:108DF700909A4AE493FF3395E0FE90029075F01342
:108E0700EF1233C8EE75F013A42583F5831233E40C
:108E1700E92407F9E43AFA7556FF7557827558C37E
:108E27007559FF755A84755BA4127617909A4AE4B0
:108E370093FF3395E0FE90029075F013EF1233C85D
:108E4700EE75F013A42583F5831233E4E92407F9BB
:108E5700E43AFA12000EEF2401F557E43EF5569076
:0F8E67009A49E493FF7B737D0112A6BF854D846A
:018E760022D9
:105DB00085844C781C7C0D7D017BFF7A8679E37E9F
:0C5DC000007F08122E549000047401F0C3
:105DCC00900CFC12335900015F90E4FFFEFDFC9037
:105DDC000CFC123311D312322A4017900CFC1233E4
:105DEC000574FFFBFAF9F81230D7900CFC12334D06
:025DFC0080D84D
:105DFE00909A4AE493FF3395E0FE90029075F0136B
:105E0E00EF1233C8EE75F013A42583F5831233E435
:105E1E00E92407F9E43AFA7556FF7557827558C3A7
:105E2E007559FF755A84755BB1127617909A4AE4CC
:105E3E0093FF3395E0FE90029075F013EF1233C886
:105E4E00EE75F013A42583F5831233E4E92407F9E4
:105E5E00E43AFA12000EEF2401F557E43EF556909F
:105E6E009A49E493FF7B737D0112A6BFE49002C3AF
:035E7E00F0A3F09E
:105E810075840F30E819C39002C4E094099002C3ED
:105E9100E0940040030263DEE49002C3F0A3F090BB
:0A5EA10002AAE060DBE4F085D84DB2
:105EAB00900D001233590006DDD0E4FFFEFDFC908F
:105EBB000D00123311D312322A4017900D001233FA
:105ECB000574FFFBFAF9F81230D7900D0012334D21
:025EDB0080D86D
:105EDD00909A4AE493FF3395E0FE90029075F0138B
:105EED00EF1233C8EE75F013A42583F5831233E456
:105EFD00E92407F9E43AFA7556FF7557827558C3C8
:105F0D007559FF755A83755BAA127617909A4AE4F4
:105F1D0093FF3395E0FE90029075F013EF1233C8A6
:105F2D00EE75F013A42583F5831233E4E92407F904
:105F3D00E43AFA12000EEF2401F557E43EF55690BF
:0C5F4D009A49E493FF7B737D0112A6BF0C
:105F5900900D0412335900015F90E4FFFEFDFC909F
:105F69000D04123311D312322A4017900D04123343
:105F79000574FFFBFAF9F81230D7900D0412334D6E
:025F890080D8BE
:105F8B007556FF7557847558BC7B017A0D792412B1
:105F9B007617754E00754F067B017A0D792412002A
:105FAB000E74242FF9740D3EFA7B01C003C002C09E
:105FBB0001741C254FF582740D354EF583E0554D5C
:105FCB007BFF60067A8479C480047A8479C68B5609
:105FDB008A578958D001D002D003127617E54F1596
:105FEB004F7002154EC3E54E6480948050AA909A70
:105FFB004AE493FF3395E0FE90029075F013EF1295
:10600B0033C8EE75F013A42583F5831233E4E9242A
:10601B0007F9E43AFA7556FF7557827558C37559E7
:10602B0001755A0D755B24127617909A4AE493FF0B
:10603B003395E0FE90029075F013EF1233C8EE75B6
:10604B00F013A42583F5831233E4E92407F9E43A2A
:10605B00FA12000EEF2401F557E43EF556909A49DB
:0A606B00E493FF7B737D0112A6BFD2
:10607500900D0812335900015F90E4FFFEFDFC907E
:106085000D08123311D312322A4017900D0812331E
:106095000574FFFBFAF9F81230D7900D0812334D4D
:0260A50080D8A1
:1060A7007556FF7557847558C890001DE0F559A3BC
:1060B700E0F55AA3E0F55BA3E0F55C7B017A0D7987
:1060C70024127617909A4AE493FF3395E0FE9002E4
:1060D7009075F013EF1233C8EE75F013A42583F50E
:1060E700831233E4E92407F9E43AFA7556FF755742
:1060F700827558C3755901755A0D755B2412761749
:10610700909A4AE493FF3395E0FE90029075F0135E
:10611700EF1233C8EE75F013A42583F5831233E429
:10612700E92407F9E43AFA12000EEF2401F557E4DF
:106137003EF556909A49E493FF7B737D0112A6BF03
:10614700900D0C12335900015F90E4FFFEFDFC90A7
:106157000D0C123311D312322A4017900D0C123343
:106167000574FFFBFAF9F81230D7900D0C12334D76
:0261770080D8CE
:1061790090001AE060187556FF7557847558D590C8
:106189000023E0F559A3E0F55A90002180147556D3
:10619900FF7557847558E3900021E0F559A3E0F5A0
:1061A9005AA3E0F55BA3E0F55C7B017A0D79241233
:1061B9007617909A4AE493FF3395E0FE9002907522
:1061C900F013EF1233C8EE75F013A42583F583128B
:1061D90033E4E92407F9E43AFA7556FF75578275ED
:1061E90058C3755901755A0D755B24127617909A23
:1061F9004AE493FF3395E0FE90029075F013EF1295
:1062090033C8EE75F013A42583F5831233E4E9242A
:1062190007F9E43AFA12000EEF2401F557E43EF5C6
:0E62290056909A49E493FF7B737D0112A6BF45
:10623700900D1012335900015F90E4FFFEFDFC90B2
:106247000D10123311D312322A4017900D1012334A
:106257000574FFFBFAF9F81230D7900D1012334D81
:0262670080D8DD
:106269007556FF7557847558F1900025E0F559A3C7
:10627900E0F55AA3E0F55BA3E0F55C7B017A0D79C3
:1062890024127617909A4AE493FF3395E0FE900220
:106299009075F013EF1233C8EE75F013A42583F54A
:1062A900831233E4E92407F9E43AFA7556FF75577E
:1062B900827558C3755901755A0D755B2412761785
:1062C900909A4AE493FF3395E0FE90029075F0139B
:1062D900EF1233C8EE75F013A42583F5831233E466
:1062E900E92407F9E43AFA12000EEF2401F557E41C
:1062F9003EF556909A49E493FF7B737D0112A6BF40
:10630900900D1412335900015F90E4FFFEFDFC90DB
:106319000D14123311D312322A4017900D1412336F
:106329000574FFFBFAF9F81230D7900D1412334DAA
:0263390080D80A
:10633B007556FF755785755800900029E0F559A3E0
:10634B00E0F55AA3E0F55BA3E0F55C7B017A0D79F0
:10635B0024127617909A4AE493FF3395E0FE90024D
:10636B009075F013EF1233C8EE75F013A42583F577
:10637B00831233E4E92407F9E43AFA7556FF7557AB
:10638B00827558C3755901755A0D755B24127617B2
:10639B00909A4AE493FF3395E0FE90029075F013C8
:1063AB00EF1233C8EE75F013A42583F5831233E493
:1063BB00E92407F9E43AFA12000EEF2401F557E449
:1063CB003EF556909A49E493FF7B737D0112A6BF6D
:0A63DB00025E81E49002C3F0A3F01B
:1063E500900D1812335900015F90E4FFFEFDFC90FB
:1063F5000D18123311D312322A4017900D1812338B
:106405000574FFFBFAF9F81230D7900D1812334DC9
:0264150080D82D
:10641700909A4AE493FF3395E0FE90029075F0134B
:10642700EF1233C8EE75F013A42583F5831233E416
:10643700E92407F9E43AFA7556FF7557827558C388
:106447007559FF755A85755B0F127617909A4AE44E
:1064570093FF3395E0FE90029075F013EF1233C867
:10646700EE75F013A42583F5831233E4E92407F9C5
:10647700E43AFA12000EEF2401F557E43EF5569080
:106487009A49E493FF7B737D0112A6BFD2B3C2B6CC
:0C649700C2B5C2B4E4900004F0854C844F
:0164A30022D6
:10976C0085844CE4F54FF55078087C0D7D017BFF2A
:0A977C007A8679EBFE7F08122E5466
:10978600900CFC12335900015F90E4FFFEFDFC9043
:109796000CFC123311D312322A4017900CFC1233F0
:1097A6000574FFFBFAF9F81230D7900CFC12334D12
:0297B60080D859
:1097B800909A4AE493FF3395E0FE90029075F01377
:1097C800EF1233C8EE75F013A42583F5831233E442
:1097D800E92407F9E43AFA7556FF7557827558C3B4
:1097E8007559FF755A85755B23127617909A4AE466
:1097F80093FF3395E0FE90029075F013EF1233C893
:10980800EE75F013A42583F5831233E4E92407F9F0
:10981800E43AFA12000EEF2401F557E43EF55690AB
:0C9828009A49E493FF7B737D0112A6BFF8
:10983400900D0012335900015F90E4FFFEFDFC908F
:109844000D00123311D312322A4017900D00123337
:109854000574FFFBFAF9F81230D7900D0012334D5E
:0298640080D8AA
:10986600E49002C3F0A3F090026EE024A0F54E90BF
:10987600026DE03400F54D75840F30E819C390028F
:10988600C4E094099002C3E094004003029955E4B1
:109896009002C3F0A3F090026DE0FEA3E0FFB54E88
:1098A600D6EEB54DD2EF24A0F54EE43EF54D909A96
:1098B6004AE493FF3395E0FE90029075F013EF12A1
:1098C60033C8EE75F013A42583F5831233E4E92437
:1098D60007F9E43AFA7556FF75578575582F854F7F
:1098E6005985505A127617909A4AE493FF3395E0B9
:1098F600FE90029075F013EF1233C8EE75F013A4C4
:109906002583F5831233E4E92407F9E43AFA1200D1
:109916000EEF2401F557E43EF556909A49E493FF7D
:109926007B737D0112A6BF74082550F582740D3530
:109936004FF583E0F5C80550E5507002054FFFAEC0
:109946004F7C007D07122F8E8C4F8D5002987DE440
:069956009002C3F0A3F033
:10995C00900D0412335900015F90E4FFFEFDFC9062
:10996C000D04123311D312322A4017900D04123306
:10997C000574FFFBFAF9F81230D7900D0412334D31
:02998C0080D881
:10998E00909A4AE493FF3395E0FE90029075F0139F
:10999E00EF1233C8EE75F013A42583F5831233E46A
:1099AE00E92407F9E43AFA7556FF7557827558C3DC
:1099BE007559FF755A85755B36127617909A4AE47B
:1099CE0093FF3395E0FE90029075F013EF1233C8BB
:1099DE00EE75F013A42583F5831233E4E92407F919
:1099EE00E43AFA12000EEF2401F557E43EF55690D4
:1099FE009A49E493FF7B737D0112A6BFD2B3C2B620
:079A0E00C2B5C2B4854C840F
:019A1500222E
:106B050085844C754E01E4900D10F090000404F05E
:106B1500900CFC12335900015F90E4FFFEFDFC90E0
:106B25000CFC123311D312322A4017900CFC12338D
:106B35000574FFFBFAF9F81230D7900CFC12334DAF
:026B450080D8F6
:106B4700909A4AE493FF3395E0FE90029075F01314
:106B5700EF1233C8EE75F013A42583F5831233E4DF
:106B6700E92407F9E43AFA7556FF7557827558C351
:106B77007559FF755A85755B4B127617909A4AE4DB
:106B870093FF3395E0FE90029075F013EF1233C830
:106B9700EE75F013A42583F5831233E4E92407F98E
:106BA700E43AFA12000EEF2401F557E43EF5569049
:0C6BB7009A49E493FF7B737D0112A6BF96
:106BC300900D0012335900015F90E4FFFEFDFC902D
:106BD3000D00123311D312322A4017900D001233D5
:106BE3000574FFFBFAF9F81230D7900D0012334DFC
:026BF30080D848
:106BF500909A4AE493FF3395E0FE90029075F01366
:106C0500EF1233C8EE75F013A42583F5831233E430
:106C1500E92407F9E43AFA7556FF7557827558C3A2
:106C25007559FF755A85755B54127617909A4AE423
:106C350093FF3395E0FE90029075F013EF1233C881
:106C4500EE75F013A42583F5831233E4E92407F9DF
:106C5500E43AFA12000EEF2401F557E43EF556909A
:0C6C65009A49E493FF7B737D0112A6BFE7
:106C7100900D0412335900015F90E4FFFEFDFC907A
:106C81000D04123311D312322A4017900D0412331E
:106C91000574FFFBFAF9F81230D7900D0412334D49
:026CA10080D899
:106CA300909A4AE493FF3395E0FE90029075F013B7
:106CB300EF1233C8EE75F013A42583F5831233E482
:106CC300E92407F9E43AFA7556FF7557827558C3F4
:106CD3007559FF755A85755B77127617909A4AE452
:106CE30093FF3395E0FE90029075F013EF1233C8D3
:106CF300EE75F013A42583F5831233E4E92407F931
:106D0300E43AFA12000EEF2401F557E43EF55690EB
:106D13009A49E493FF7B737D0112A6BF9002AAE018
:106D230060FAE4F54FE54F12347F6D49006D490178
:106D33006D77026DA5036DDF046E0D056E3A066E69
:106D4300670700006E92E54F25E0241DF582E434C9
:106D530000F583E0FEA3E0FFC394A4EE9406400D88
:106D6300D3EF94FCEE940850047F0180027F008FE0
:106D73004D026E92E54F25E0241DF582E43400F5C3
:106D830083E0FEA3E0FFC39484EE940E400DD3EFA3
:106D9300949CEE941050047F0180027F008F4D027B
:106DA3006E9290001AE0602EE54F25E0241DF582D7
:106DB300E43400F583E0FEA3E0FFC394AAEE940558
:106DC300400DD3EF946CEE940750047F0180027F53
:106DD300008F4D026E92754D01026E92E54F25E0D4
:106DE300241DF582E43400F583E0FEA3E0FFC394A1
:106DF30030EE9404400DD3EF9460EE940550047F7D
:106E03000180027F008F4D026E92E54F25E0241D25
:106E1300F582E43400F583E0FEA3E0FFC394CAEEF9
:106E23009402400DD3EF9496EE940350047F0180B7
:106E3300027F008F4D8058E54F25E0241DF582E445
:106E43003400F583E0FEA3E0FFC39465EE940140B4
:106E53000DD3EF94CBEE940150047F0180027F00A9
:106E63008F4D802BE54F25E0241DF582E43400F59A
:106E730083E0FEA3E0FFC3943FEE9403400DD3EF02
:106E8300942BEE940450047F0180027F008F4DE524
:106E93004D7002F54E7B017A0D791012000E7410BD
:106EA3002FF9740D3EFA7B01C003C002C001E54D0A
:106EB3007BFF60067A85798F80047A8579948B5677
:106EC3008A578958D001D002D003127617054FE5AF
:0E6ED3004FC394085003026D28E49002AAF009
:106EE100900D0812335900015F90E4FFFEFDFC9004
:106EF1000D08123311D312322A4017900D081233A4
:106F01000574FFFBFAF9F81230D7900D0812334DD2
:026F110080D826
:106F1300909A4AE493FF3395E0FE90029075F01344
:106F2300EF1233C8EE75F013A42583F5831233E40F
:106F3300E92407F9E43AFA7556FF7557827558C381
:106F4300755901755A0D755B10127617909A4AE4BC
:106F530093FF3395E0FE90029075F013EF1233C860
:106F6300EE75F013A42583F5831233E4E92407F9BE
:106F7300E43AFA12000EEF2401F557E43EF5569079
:0C6F83009A49E493FF7B737D0112A6BFC6
:106F8F00900D0C12335900015F90E4FFFEFDFC9051
:106F9F000D0C123311D312322A4017900D0C1233ED
:106FAF000574FFFBFAF9F81230D7900D0C12334D20
:026FBF0080D878
:106FC100E54E909A4A6038E493FF3395E0FE9002D3
:106FD1009075F013EF1233C8EE75F013A42583F505
:106FE100831233E4E92407F9E43AFA7556FF755739
:106FF100827558C37559FF755A85755B998036E45A
:1070010093FF3395E0FE90029075F013EF1233C8B1
:10701100EE75F013A42583F5831233E4E92407F90F
:10702100E43AFA7556FF7557827558C37559FF755D
:107031005A85755BA6127617909A4AE493FF3395A9
:10704100E0FE90029075F013EF1233C8EE75F01365
:10705100A42583F5831233E4E92407F9E43AFA120B
:10706100000EEF2401F557E43EF556909A49E4935A
:10707100FF7B737D0112A6BFD2B3C2B6C2B5C2B443
:08708100E4900004F0854C844A
:0170890022E4
:1064A40085844C754D01E4F54F90000404F0758427
:0764B40002758880854C840D
:1064BB00900CFC12335900015F90E4FFFEFDFC9041
:1064CB000CFC123311D312322A4017900CFC1233EE
:1064DB000574FFFBFAF9F81230D7900CFC12334D10
:0264EB0080D857
:1064ED00909A4AE493FF3395E0FE90029075F01375
:1064FD00EF1233C8EE75F013A42583F5831233E440
:10650D00E92407F9E43AFA7556FF7557827558C3B1
:10651D007559FF755A85755BB8127617909A4AE4CE
:10652D0093FF3395E0FE90029075F013EF1233C890
:10653D00EE75F013A42583F5831233E4E92407F9EE
:10654D00E43AFA12000EEF2401F557E43EF55690A9
:10655D009A49E493FF7B737D0112A6BF90001AE068
:02656D00706E4E
:10656F00900D0012335900015F90E4FFFEFDFC9087
:10657F000D00123311D312322A4017900D0012332F
:10658F000574FFFBFAF9F81230D7900D0012334D56
:02659F0080D8A2
:1065A100909A4AE493FF3395E0FE90029075F013C0
:1065B100EF1233C8EE75F013A42583F5831233E48B
:1065C100E92407F9E43AFA7556FF7557827558C3FD
:1065D1007559FF755A85755BC8026AACE4F550E5DB
:1065E10050B40807E4F5C8D2FB8005854FC8C2FB4B
:1065F100900D0412335900015F90E4FFFEFDFC9001
:106601000D04123311D312322A4017900D041233A4
:106611000574FFFBFAF9F81230D7900D0412334DCF
:0266210080D81F
:10662300909A4AE493FF3395E0FE90029075F0133D
:10663300EF1233C8EE75F013A42583F5831233E408
:10664300E92407F9E43AFA7556FF7557857558E654
:1066530075590085505A127617909A4AE493FF337E
:1066630095E0FE90029075F013EF1233C8EE75F0CB
:1066730013A42583F5831233E4E92407F9E43AFAF2
:1066830012000EEF2401F557E43EF556909A49E4C3
:1066930093FF7B737D0112A6BF9002AAE060FAE527
:1066A3005012347F66C600671301675F0267AB034E
:1066B30067F704684305688F0668DA07692A0800E4
:1066C30000692D854C84E5D8547FB54F19D39000CC
:1066D30028E094CA900027E09402400A30860730ED
:1066E30087047F0180027F008F4E758401E54E6031
:1066F30007208E047F0180027F008F4E758402E5A0
:106703004E6008208E057F010269237F0002692302
:10671300854C84E5D8547FB54F19C3900028E09485
:106723005E900027E09401500A2086073087047F9B
:106733000180027F008F4E758401E54E6007208E35
:10674300047F0180027F008F4E758402E54E60074F
:10675300208E047F0180027F00026923854C84E53B
:10676300D8547FB54F19C3900028E0945E9000275A
:10677300E09401500A3086072087047F0180027F5E
:10678300008F4E758401E54E6007208E047F0180E3
:10679300027F008F4E758402E54E6007208E047FD2
:1067A3000180027F00026923854C84E5D8547FB5BC
:1067B3004F19C3900028E0945E900027E0940150A5
:1067C3000A3086073087047F0180027F008F4E7571
:1067D3008401E54E6007208E047F0180027F008FD5
:1067E3004E758402E54E6007208E047F0180027F90
:1067F30000026923854C84E5D8547FB54F19C390B3
:106803000028E0945E900027E09401500A30860748
:106813003087047F0180027F008F4E758401E54E2F
:106823006007208E047F0180027F008F4E758402F3
:10683300E54E6007208E047F0180027F00026923FA
:10684300854C84E5D8547FB54F19C3900028E09454
:106853005E900027E09401500A3086073087047F5A
:106863000180027F008F4E758401E54E6007208E04
:10687300047F0180027F008F4E758402E54E60071E
:10688300208E047F0180027F00026923854C84E50A
:10689300D8547FB54F19C3900028E0945E90002729
:1068A300E09401500A3086073087047F0180027F1D
:1068B300008F4E758401E54E6007208E047F0180B2
:1068C300027F008F4E758402E54E6007308E047F91
:1068D3000180027F008049854C84E5D8547FB54F01
:1068E30019C3900028E0945E900027E09401500AB9
:1068F3003086073087047F0180027F008F4E7584C6
:1069030001E54E6007308E047F0180027F008F4EC9
:10691300758402E54E6007208E047F0180027F00AC
:106923008F4E854C848003754E01E49002AAF0E5F6
:066933004E60030269EA58
:10693900900D0812335900015F90E4FFFEFDFC90B1
:106949000D08123311D312322A4017900D08123351
:106959000574FFFBFAF9F81230D7900D0812334D80
:0269690080D8D4
:10696B00909A4AE493FF3395E0FE90029075F013F2
:10697B00EF1233C8EE75F013A42583F5831233E4BD
:10698B00E92407F9E43AFA7556FF7557827558C32F
:10699B007559FF755A85755BF9127617909A4AE40B
:1069AB0093FF3395E0FE90029075F013EF1233C80E
:1069BB00EE75F013A42583F5831233E4E92407F96C
:1069CB00E43AFA12000EEF2401F557E43EF5569027
:1069DB009A49E493FF7B737D0112A6BFE4F54DE565
:1069EB00507005754F018006E54F25E0F54F0550BA
:0A69FB00E550D3940850030265E054
:106A0500900D0C12335900015F90E4FFFEFDFC90E0
:106A15000D0C123311D312322A4017900D0C12337C
:106A25000574FFFBFAF9F81230D7900D0C12334DAF
:026A350080D807
:106A3700E54D909A4A6038E493FF3395E0FE900263
:106A47009075F013EF1233C8EE75F013A42583F594
:106A5700831233E4E92407F9E43AFA7556FF7557C8
:106A6700827558C37559FF755A86755B058036E47C
:106A770093FF3395E0FE90029075F013EF1233C841
:106A8700EE75F013A42583F5831233E4E92407F99F
:106A9700E43AFA7556FF7557827558C37559FF75ED
:106AA7005A86755B15127617909A4AE493FF3395C9
:106AB700E0FE90029075F013EF1233C8EE75F013F5
:106AC700A42583F5831233E4E92407F9E43AFA129B
:106AD700000EEF2401F557E43EF556909A49E493EA
:106AE700FF7B737D0112A6BF758402E4F588D2B3DC
:0D6AF700C2B6C2B5C2B4900004F0854C8454
:016B0400226E
:097E860085844C9000047401F0A5
:107E8F00900CFC12335900015F90E4FFFEFDFC9053
:107E9F000CFC123311D312322A4017900CFC123300
:107EAF000574FFFBFAF9F81230D7900CFC12334D22
:027EBF0080D869
:107EC100909A4AE493FF3395E0FE90029075F01387
:107ED100EF1233C8EE75F013A42583F5831233E452
:107EE100E92407F9E43AFA7556FF7557827558C3C4
:107EF1007559FF755A86755B2A127617909A4AE46E
:107F010093FF3395E0FE90029075F013EF1233C8A2
:107F1100EE75F013A42583F5831233E4E92407F900
:107F2100E43AFA12000EEF2401F557E43EF55690BB
:107F31009A49E493FF7B737D0112A6BF90001AE07A
:027F4100706E60
:107F4300900D0012335900015F90E4FFFEFDFC9099
:107F53000D00123311D312322A4017900D00123341
:107F63000574FFFBFAF9F81230D7900D0012334D68
:027F730080D8B4
:107F7500909A4AE493FF3395E0FE90029075F013D2
:107F8500EF1233C8EE75F013A42583F5831233E49D
:107F9500E92407F9E43AFA7556FF7557827558C30F
:0F7FA5007559FF755A85755BC802826F75C820C4
:107FB400900D0412335900015F90E4FFFEFDFC9024
:107FC4000D04123311D312322A4017900D041233C8
:107FD4000574FFFBFAF9F81230D7900D0412334DF3
:027FE40080D843
:107FE600909A4AE493FF3395E0FE90029075F01361
:107FF600EF1233C8EE75F013A42583F5831233E42C
:10800600E92407F9E43AFA7556FF7557827558C39D
:108016007559FF755A86755B36127617909A4AE43B
:1080260093FF3395E0FE90029075F013EF1233C87C
:10803600EE75F013A42583F5831233E4E92407F9DA
:10804600E43AFA12000EEF2401F557E43EF5569095
:108056009A49E493FF7B737D0112A6BF7F0112C785
:048066009375C860E6
:10806A00900D0812335900015F90E4FFFEFDFC9069
:10807A000D08123311D312322A4017900D08123309
:10808A000574FFFBFAF9F81230D7900D0812334D38
:02809A0080D88C
:10809C00909A4AE493FF3395E0FE90029075F013AA
:1080AC00EF1233C8EE75F013A42583F5831233E475
:1080BC00E92407F9E43AFA7556FF7557827558C3E7
:1080CC007559FF755A86755B49127617909A4AE472
:1080DC0093FF3395E0FE90029075F013EF1233C8C6
:1080EC00EE75F013A42583F5831233E4E92407F924
:1080FC00E43AFA12000EEF2401F557E43EF55690DF
:0E810C009A49E493FF7B737D0112A6BFC2FF68
:10811A00900D0C1233590006DDD0E4FFFEFDFC90F1
:10812A000D0C123311D312322A4017900D0C123350
:10813A000574FFFBFAF9F81230D7900D0C12334D83
:02814A0080D8DB
:02814C00D2FF60
:10814E00900D1012335900015F90E4FFFEFDFC907C
:10815E000D10123311D312322A4017900D10123314
:10816E000574FFFBFAF9F81230D7900D1012334D4B
:02817E0080D8A7
:10818000909A4AE493FF3395E0FE90029075F013C5
:10819000EF1233C8EE75F013A42583F5831233E490
:1081A000E92407F9E43AFA7556FF7557827558C302
:1081B0007559FF755A86755B5C127617909A4AE47A
:1081C00093FF3395E0FE90029075F013EF1233C8E1
:1081D000EE75F013A42583F5831233E4E92407F93F
:1081E000E43AFA12000EEF2401F557E43EF55690FA
:1081F0009A49E493FF7B737D0112A6BFE4FF12C787
:0482000093E4F5C846
:10820400900D1412335900015F90E4FFFEFDFC90C1
:108214000D14123311D312322A4017900D14123355
:108224000574FFFBFAF9F81230D7900D1412334D90
:0282340080D8F0
:10823600909A4AE493FF3395E0FE90029075F0130E
:10824600EF1233C8EE75F013A42583F5831233E4D9
:10825600E92407F9E43AFA7556FF7557827558C34B
:108266007559FF755A86755B70127617909A4AE4AF
:1082760093FF3395E0FE90029075F013EF1233C82A
:10828600EE75F013A42583F5831233E4E92407F988
:10829600E43AFA12000EEF2401F557E43EF5569043
:1082A6009A49E493FF7B737D0112A6BFD2B3C2B68F
:0C82B600C2B5C2B4E4900004F0854C8412
:0182C2002299
:0F7A2A00E4F550A2FB920185845190000404F012
:107A3900900CFC12335900015F90E4FFFEFDFC90AD
:107A49000CFC123311D312322A4017900CFC12335A
:107A59000574FFFBFAF9F81230D7900CFC12334D7C
:027A690080D8C3
:107A6B00909A4AE493FF3395E0FE90029075F013E1
:107A7B00EF1233C8EE75F013A42583F5831233E4AC
:107A8B00E92407F9E43AFA7556FF7557827558C31E
:107A9B007559FF755A86755B81127617909A4AE471
:107AAB0093FF3395E0FE90029075F013EF1233C8FD
:107ABB00EE75F013A42583F5831233E4E92407F95B
:107ACB00E43AFA12000EEF2401F557E43EF5569016
:107ADB009A49E493FF7B737D0112A6BF90001AE0D5
:027AEB00706EBB
:107AED00900D0012335900015F90E4FFFEFDFC90F4
:107AFD000D00123311D312322A4017900D0012339C
:107B0D000574FFFBFAF9F81230D7900D0012334DC2
:027B1D0080D80E
:107B1F00909A4AE493FF3395E0FE90029075F0132C
:107B2F00EF1233C8EE75F013A42583F5831233E4F7
:107B3F00E92407F9E43AFA7556FF7557827558C369
:107B4F007559FF755A85755BC8027E35C2FBE4F522
:037B5F0084D2C607
:107B6200900D0412335900015F90E4FFFEFDFC907A
:107B72000D04123311D312322A4017900D0412331E
:107B82000574FFFBFAF9F81230D7900D0412334D49
:027B920080D899
:107B9400754C00754D08754E00754F32909A4AE445
:107BA40093FF3395E0FE90029075F013EF1233C803
:107BB400EE75F013A42583F5831233E4E92407F961
:107BC400E43AFA7556FF755786755895854C59856C
:107BD4004D5A854E5B854F5C127617909A4AE49312
:107BE400FF3395E0FE90029075F013EF1233C8EE68
:107BF40075F013A42583F5831233E4E92407F9E42B
:107C04003AFA12000EEF2401F557E43EF556909A25
:107C140049E493FF7B737D0112A6BFD2B6D2B3C2EF
:107C2400B4C2B59000521233E47408122EF3E4F592
:107C34004CF54DE54D2440FF9000521233E4E54DE0
:107C44002401FDE4354C8D82F583EF122F05054D9B
:107C5400E54D7002054C6408454C70D79000507493
:107C640009F0A314F090004D7404F0E4F54EF54FC0
:107C7400E4900058F012C7FEAE4EAF4F7C007D0A70
:107C8400122F39ED4C6002B2B530E819C39002C42A
:107C9400E094099002C3E094004003027D85E490DF
:057CA40002C3F0A3F093
:107CA900900D0812335900001194E4FFFEFDFC9079
:107CB9000D08123311D312322A4017900D081233CE
:107CC9000574FFFBFAF9F81230D7900D0812334DFD
:027CD90080D851
:107CDB0012C7E2E4FFFE900058E0FD700D0FEF704D
:107CEB00010EC394ECEE942C40ECED700575500135
:107CFB00803EE4F54CF54D9000521233E4E54D24F3
:107D0B0001FFE4354C8F82F583122E93FF900055C3
:107D1B001233E4854D82854C83122E936F6003756D
:107D2B005001054DE54D7002054C6408454C70C77C
:047D3B00E550704659
:107D3F00900D0C12335900001194E4FFFEFDFC90DE
:107D4F000D0C123311D312322A4017900D0C12332F
:107D5F000574FFFBFAF9F81230D7900D0C12334D62
:027D6F0080D8BA
:107D7100054FE54F7002054EC39432E54E94005015
:0D7D810003027C74A20192FB855184C2C6EE
:107D8E00900D1012335900015F90E4FFFEFDFC9040
:107D9E000D10123311D312322A4017900D101233D8
:107DAE000574FFFBFAF9F81230D7900D1012334D0F
:027DBE0080D86B
:107DC000E550909A4A6038E493FF3395E0FE9002C4
:107DD0009075F013EF1233C8EE75F013A42583F5F8
:107DE000831233E4E92407F9E43AFA7556FF75572C
:107DF000827558C37559FF755A86755BA98036E43C
:107E000093FF3395E0FE90029075F013EF1233C8A4
:107E1000EE75F013A42583F5831233E4E92407F902
:107E2000E43AFA7556FF7557827558C37559FF7550
:107E30005A86755BBF127617909A4AE493FF339582
:107E4000E0FE90029075F013EF1233C8EE75F01358
:107E5000A42583F5831233E4E92407F9E43AFA12FE
:107E6000000EEF2401F557E43EF556909A49E4934D
:107E7000FF7B737D0112A6BFD2B3C2B4C2B5C2B636
:057E8000E4900004F095
:017E850022DA
:109E8400A2FB920185844E9000047401F09000506E
:109E94007410F0A3F0E4900058F090001AE060030E
:039EA400029F58C2
:109EA700900CFC12335900015F90E4FFFEFDFC901B
:109EB7000CFC123311D312322A4017900CFC1233C8
:109EC7000574FFFBFAF9F81230D7900CFC12334DEA
:029ED70080D831
:109ED900909A4AE493FF3395E0FE90029075F0134F
:109EE900EF1233C8EE75F013A42583F5831233E41A
:109EF900E92407F9E43AFA7556FF7557827558C38C
:109F09007559FF755A85755BC8127617909A4AE498
:109F190093FF3395E0FE90029075F013EF1233C86A
:109F2900EE75F013A42583F5831233E4E92407F9C8
:109F3900E43AFA12000EEF2401F557E43EF5569083
:0F9F49009A49E493FF7B737D0112A6BF02A0A18A
:109F5800900D0012335900015F90E4FFFEFDFC9064
:109F68000D00123311D312322A4017900D0012330C
:109F78000574FFFBFAF9F81230D7900D0012334D33
:029F880080D87F
:109F8A00909A4AE493FF3395E0FE90029075F0139D
:109F9A00EF1233C8EE75F013A42583F5831233E468
:109FAA00E92407F9E43AFA7556FF7557827558C3DA
:109FBA007559FF755A86755BD0127617909A4AE4DE
:109FCA0093FF3395E0FE90029075F013EF1233C8B9
:109FDA00EE75F013A42583F5831233E4E92407F917
:109FEA00E43AFA12000EEF2401F557E43EF55690D2
:109FFA009A49E493FF7B737D0112A6BFC2FB7E00E0
:10A00A00754C00754D32D2B6D2B3C2B4C2B5E4F5BE
:10A01A008475C304C2C3FFEF24F0FD9000521233CB
:10A02A00E48F828E83ED122F050FBF00010EEF64BD
:10A03A00084E70E3900058E060FA30E816C39002C8
:10A04A00C4E094099002C3E094005042E49002C331
:10A05A00F0A3F0E4900058F0FEFF900051E0FDC339
:10A06A00EF9DEE940050239000551233E48F828EB8
:10A07A0083122E93FD9000521233E48F828E83ED69
:10A08A00122F050FBF00010E80D0B2B580A6A20123
:10A09A0092FB854E84C2C6D2B3C2B4C2B5C2B6E47C
:07A0AA00900004F0854E84D4
:01A0B100228C
:10FE00008E4E8F4F8E4E8F4FE4F550F551A2AF338B
:10FE1000F552C2AFE4F58443B701758F03C3E550D3
:10FE200094FC50168551828550837488F0E42551E6
:10FE3000F55174043550F55080E3E4F58FF550F535
:10FE400051F555F55675840FE55654037002B2B658
:10FE500012FFB58F57E55730E7F6C2F9E4F558F5CC
:10FE6000590559E559700205586440455870F27FAC
:10FE7000D212FFA4E556AE557806CEC313CE13D8E2
:10FE8000F9FF12FFA412FF9CE4FF12FFA4E4FF128B
:10FE9000FFA4E4FF12FFA4E4FF12FFA4E4FF12FF9B
:10FEA000A4E4F553F554E4FF12FFA4745B2554F564
:10FEB0008274003553F583EFF00554E55470020564
:10FEC00053C3E553940240DED2F9E4F584758F0103
:10FED000F553F554745B2554F58274003553F5835E
:10FEE000E0FF0551E551AC507002055014F5828CCD
:10FEF00083EFF00554E55470020553B400D6E55382
:10FF0000B402D1E4F58F0556E55670020555C39449
:07FF10007FE555940050034A
:10FF170002FE45E4F58F53B7FEE55224FF92AFE4A6
:10FF2700F5D075840FF555F556C3E5559420505413
:10FF3700E556543F7002B2B512FFB58F57E55730FB
:10FF4700E7F6C2F9E4F558F5590559E55970020580
:10FF5700586440455870F27F5012FFA4E556AE55DD
:10FF67007806CEC313CE13D8F9FF12FFA412FF9C55
:10FF7700E4FF12FFA4D2F974082556F556E4355567
:10FF8700F55580A512FFB58F57E55730E7F6E4F52D
:05FF97008443EF01228C
:10FF9C00AF56EF25E025E0FFAE84E4F5848F9B306F
:09FFAC00FFFDC2FFAF9B8E842211
:10FFB500C2F9E4F55AF55B055BE55B7002055A6429
:10FFC50040455A70F27FD712FFA4E4FF12FFA4D276
:02FFD500F9220F
:10A69F00900C2674E2F0909A49E493FFAB3CAA3DEC
:10A6AF00A93E900001122E93FDE4F556F5577B0657
:04A6BF008F538B55D5
:10A6C3007558FFE4F559F55AED909A4993F55B7483
:10A6D300332DF582E4340CF5837464F0909A49E4E5
:10A6E30093B55319E55564066013E5556415600D7C
:10A6F30074202DF582E4340CF583E555F0E55B75A4
:10A70300F013A42490F582E43402F5831233E47445
:10A7130016122EF3E55B75F013A42490F582E4344E
:10A7230002F5831233E4900001E553122F05E55B34
:10A7330075F013A42490F582E43402F5831233E414
:10A74300900002ED122F0574022557F557E4355694
:10A75300F556FFE55B75F013A42490F582E434020B
:10A76300F5831233E4900003EF122F05E55B75F0D8
:10A7730013A42490F582E43402F5831233E49000A9
:10A7830004E557122F05E55B75F013A42490F582B9
:10A79300E43402F5831233E4900005E555122F05E6
:10A7A300E4FEFFE55B75F013A42490F582E4340224
:10A7B300F5831233E48F828E83122E9362580FBF78
:10A7C30000010EEF64064E70DAE55B75F013A42406
:10A7D30090F582E43402F5831233E4900006E558E1
:10A7E300122F0574FE2557F55774FF3556F556E5B8
:10A7F3005B75F013A42490F582E43402F5831233DD
:10A80300E4E92407F9E43AFAAD57AC5612C3148EBF
:10A81300598F5AEEFFE55B75F013A42490F582E49B
:10A823003402F5831233E40557E5577002055624C5
:10A8330006F582E43556F583EF122F05E55B75F0D7
:10A8430013A42490F582E43402F5831233E405570C
:10A85300E557700205562406F582E43556F583E57F
:10A863005A122F05E55B75F013A42483F97402359E
:10A87300F0FA7B01E5572407FDE43556FC12C36F5C
:09A88300E5572407FFE43556FEF9
:01A88C0022A9
:084496008F3B8B3C8A3D893EFF
:10449E00E4900CF8F0A3F0900003122E93FE90001F
:1044AE0004122E937C002400FFEC3ECF24FECF346A
:1044BE00FFFE900CFAF0FCA3EFF0FDE92407F9E4FF
:1044CE003AFA12C4C3900CF8EEF0A3EFF04E603A35
:1044DE00AB3CAA3DA93E900005122E93FF641570C9
:1044EE0003024DAAEF64067003024DAA900001125A
:1044FE002E932433F582E4340CF5837464F090002B
:0A450E0001122E93FF7D0402490400
:10451800AB3CAA3DA93E900002122E93FF909A4907
:10452800E4936F70030245D2EFF470030245D2EFB3
:1045380093FF3395E0FE90029075F013EF1233C8A5
:10454800EE75F013A42583F5831233E4E92407F903
:10455800E43A8B44F5458946E53E2407F9E4353DC0
:10456800853C41F5428943E4F53FF540D3900CFB87
:10457800E09540900CFAE0953F40247841E475F0CE
:10458800011233D4122E7AFF7844E475F001123305
:10459800D4EF122EF30540E54070D1053F80CDAB36
:1045A8003CAA3DA93E900001122E93FF90000212F2
:1045B8002E93FD900005122E93FB900CFAE0F55611
:1045C800A3E0F55712A6BF024DAAAB3CAA3DA93EEF
:1045D800900005122E9312347F4639064674104611
:1045E8005D154939304A8D314AB5324ADD334BCDF4
:1045F800344B05354B2D364B55374BCD384B7D3924
:104608004BA53A484E4048A24148A2424BF9504C6B
:104618004B51496E554A265647817047DE71469A76
:10462800904D36914BF1934A559447229800004D8E
:1046380076900001122E932420F582E4340CF58341
:10464800AB3CAA3DA93E900001122E932420F5828E
:10465800E4340C8010AB3CAA3DA93E122E7A2421EA
:10466800F582E4340CF583E4F0024D63900C26E007
:10467800FF64E16004EFB4E20512C474800312A67B
:10468800A5900CF8EEF0A3EFF0AB3CAA3DA93E02D2
:024698004D6370
:10469A00900C26E0FF64E16004EFB4E20512C474F2
:1046AA008065AB3CAA3DA93E900007122E93FE906E
:1046BA000008122E937C002400F548EC3EF547E5ED
:1046CA003B75F013A42490F582E43402F583123387
:1046DA00E4E92407F9E43AFA90094AE0FEA3E0FF84
:1046EA0085475885485912BDBF909A49E493FFAB54
:1046FA003CAA3DA93E900001122E93FD90094AE082
:10470A00F556A3E012A6BB900CF8EEF0A3EFF0ABBF
:08471A003CAA3DA93E024D63DB
:10472200900C26E0FF64E16004EFB4E20512C47469
:10473200803CAB3CAA3DA93E900007122E93FE900E
:104742000008122E937C002400F548EC3EF54790B9
:10475200094AE0FCA3E0FDE92409F9E43AFA8547B5
:104762005D85485E7F027E0012BEE412A6A5900C13
:0F477200F8EEF0A3EFF0AB3CAA3DA93E024D6379
:10478100900C26E0FF64E16004EFB4E20512C4740A
:10479100803AE53B75F013A42490F582E43402F5E8
:1047A100831233E4E92407F9E43AFA12C420909A17
:1047B10049E493FFAB3CAA3DA93E900001122E9320
:1047C100FD7556007557807B0612A6BF900CF8EE5A
:1047D100F0A3EFF0AB3CAA3DA93E024D63900C263D
:1047E100E0FF64E16004EFB4E20512C474804D128D
:1047F100C73BAB3CE53E2407F9E4353DFA900CFAA2
:10480100E0FEA3E0FFC39480EE94005006AC06AD39
:104811000780047C007D8012C1637B017A0C7937AB
:1048210012C42090001AE06010900CA7E030E4045C
:104831007F0080027F0112C79312A6A5900CF8EEAB
:0D484100F0A3EFF0AB3CAA3DA93E024D6391
:10484E00900C26E0FFF547AB3CAA3DA93E90000137
:10485E00122E932433F582E4340CF583E4F0EF64E6
:10486E00E16007900C26E0B4E20C900001122E934A
:10487E00FF7D2002490412A69F900CF8EEF0A3EFE4
:10488E00F0AB3CAA3DA93E900007122E93FF12AF4B
:04489E00CF024930CC
:1048A200900C26E0FFF547AB3CAA3DA93E900005DF
:1048B200122E93FE7C00B441047D0080027D058CA3
:1048C200488D49EE900C25E024FFFD900C24E03445
:1048D200FFFC8C4A8D4BAB3CAA3DA93E90000112D5
:1048E2002E932433F582E4340CF583E4F0EF64E193
:1048F2006007900C26E0B4E217900001122E93FF9D
:104902007D2012C483900CF8EEF0A3EFF0024DAAC2
:1049120012A69F900CF8EEF0A3EFF0E4FFFE12C592
:10492200567B01AD4BAC4AAF49AE4812C1D2900C96
:0749320026E547F0024DAA43
:1049390012A6A5900CF8EEF0A3EFF0AB3CAA3DA9A6
:104949003E900001122E932433F582E4340CF58352
:10495900E4F012007E8F47E54730E7F6E4F584433B
:05496900EF01024DAA60
:10496E0012A6A5900CF8EEF0A3EFF07B017A027977
:0C497E00837F007EE17D007C0012A0B26F
:10498A00900CEC12335900004650E4FFFEFDFC90F7
:10499A000CEC123311D312322A4017900CEC12335A
:1049AA000574FFFBFAF9F81230D7900CEC12334D6C
:0249BA0080D8A3
:1049BC00E4F584C2ACC298D29975840153E7BFC2A6
:0349CC0098D299E5
:1049CF0075840F30E815C39002C4E094099002C3B8
:1049DF00E094004006E4F58443EF01E4F584309859
:1049EF0017758401309911C299F584859947C2983A
:1049FF00B2B47584018547997584013098C2E4F586
:104A0F00843099BCC299758401859947C298B2B513
:054A1F00F584854799B4
:104A240080A912A6A5900CF8EEF0A3EFF0AB3CAA77
:104A34003DA93E900001122E932433F582E4340CF8
:104A4400F583E4F0900007122E93900019F0024DC4
:104A5400AA12A6A5900CF8EEF0A3EFF0AB3CAA3D89
:104A6400A93E900001122E932433F582E4340CF510
:104A740083E4F090001AE07003024DAA900007123C
:104A84002E93FF12C793024DAA12A6A5900CF8EE1E
:104A9400F0A3EFF0AB3CAA3DA93E900001122E9387
:104AA4002433F582E4340CF583E4F0123663024DCA
:104AB400AA12A6A5900CF8EEF0A3EFF0AB3CAA3D29
:104AC400A93E900001122E932433F582E4340CF5B0
:104AD40083E4F0125DB0024DAA12A6A5900CF8EE84
:104AE400F0A3EFF0AB3CAA3DA93E900001122E9337
:104AF4002433F582E4340CF583E4F012976C024D10
:104B0400AA12A6A5900CF8EEF0A3EFF0AB3CAA3DD8
:104B1400A93E900001122E932433F582E4340CF55F
:104B240083E4F0126B05024DAA12A6A5900CF8EED0
:104B3400F0A3EFF0AB3CAA3DA93E900001122E93E6
:104B44002433F582E4340CF583E4F01264A4024DBA
:104B5400AA12A6A5900CF8EEF0A3EFF0AB3CAA3D88
:104B6400A93E900001122E932433F582E4340CF50F
:104B740083E4F0127E86024DAA12A6A5900CF8EEEC
:104B8400F0A3EFF0AB3CAA3DA93E900001122E9396
:104B94002433F582E4340CF583E4F0127A2A024DCE
:104BA400AA12A6A5900CF8EEF0A3EFF0AB3CAA3D38
:104BB400A93E900001122E932433F582E4340CF5BF
:104BC40083E4F0129E84024DAAAB3CAA3DA93E9018
:104BD4000001122E932433F582E4340CF583E4F0BF
:104BE400900005122E93FF128AF7024DAA9002F04C
:104BF40074FF024CCE900C26E064F07027754F01D0
:104C0400755000755105AB3CAA3DA93E12BA791204
:104C1400A6A5900CF8EEF0A3EFF0057FE57F701EDB
:104C2400057E801AAB3CAA3DA93E900001122E934A
:104C3400FF7D0812C483900CF8EEF0A3EFF0AB3CB8
:104C4400AA3DA93E024D63900C26E0B4F114AB3C9E
:104C5400AA3DA93E900007122E93FF900005E06F35
:104C64006072AB3CAA3DA93E900001122E93FF7DD9
:104C74000812C483900CF8EEF0A3EFF0AB3CAA3D0D
:104C8400A93E900001122E932433F582E4340CF5EE
:034C940083E4F0C6
:104C9700900CF01233590000AFC8E4FFFEFDFC9002
:104CA7000CF0123311D312322A4017900CF0123342
:104CB7000574FFFBFAF9F81230D7900CF012334D58
:024CC70080D893
:104CC9009002F074F2F0900CB97401F0024DAA123E
:104CD900A6A5900CF8EEF0A3EFF0AB3CAA3DA93ED7
:104CE900900001122E932433F582E4340CF583E409
:014CF900F0CA
:104CFA00900CF41233590000AFC8E4FFFEFDFC909B
:104D0A000CF4123311D312322A4017900CF41233D6
:104D1A000574FFFBFAF9F81230D7900CF412334DF0
:024D2A0080D82F
:104D2C00AF7FAE7E12C6A5024DAA900CB97401F0ED
:104D3C00AB3CAA3DA93E900007122E939002F0F0D6
:104D4C00909A49E493FF12A6B1900CF8EEF0A3EF01
:104D5C00F0AB3CAA3DA93E900001122E932433F5F2
:104D6C0082E4340CF583E4F08034AB3CAA3DA93EDC
:104D7C00900001122E932433F582E4340CF58374E5
:104D8C0064F0900001122E93FF7D0212C483900CEC
:0E4D9C00F8EEF0A3EFF074FF900CF8F0A3F027
:084DAA00900CF8E0FEA3E0FF0D
:014DB20022DE
:0AC4C3008B4C8A4D894E8C4F8D5032
:10C4CD0012C3148E518F52AB4CAA4DA94E8550827A
:10C4DD00854F83122E937F00FEE5502401FDE43538
:10C4ED004F8D82F583122E932FFFE43EFEE552B55C
:0FC4FD000709E551B50604E4FEFF227EFF7FFF2D
:01C50C00220C
:0FC47400AB3CAA3DA93E900001122E93FF7D2004
:10C48300AE07EE909A4993FB3395E0FA90029075CC
:10C49300F013EB1233C8EA75F013A42583F5831266
:10C4A30033E4900007ED122F05909A49E493FFAD12
:10C4B300067556007557017B1512A6BFE4FEFF22D1
:06BA79008B4C8A4D894E42
:10BA7F00E4F552F553900003122E93FE900004123A
:10BA8F002E93FDEEF554EDF555E4F552F553E555CE
:10BA9F0024FEFFE55434FFFEC3648094825002807D
:10BAAF00047E027F00C3E5539FEE6480F8E5526485
:10BABF0080985048AB4FAA50A951C003C002C00193
:10BACF00122E7AFFAB4CAA4DA94EE5532407FDE485
:10BADF0035528D82F583122E93FE745B2553F582BA
:10BAEF0074003552F583EEF06FD001D002D00312FF
:10BAFF002EF30553E5537096055280927E00E57F35
:10BB0F005401FF90094AE0FCA3E0FD7B017A007924
:0ABB1F005B857E5D857F5E02BEE45B
:04C6A5008E4C8F4DDB
:10C6A90090FE00E493FE740193FF900CFFEEF0A35B
:10C6B900EFF0BE8012BFFE0F7B007AFE7902900C6C
:0EC6C900FC1233ED0234D2AF7FAE7E12FE00C3
:01C6D7002240
:10C6D800564F4C5453004F4E004F46460044726923
:10C6E80076657241004361724100547261636B4127
:10C6F80000416E616C6F6778004469676974616CAA
:02C708007800B7
:06B436008B3B8A3C893DBE
:10B43C007B017A00795BE4F558F5597F107E021296
:10B44C00BDBFAB3BAA3CA93DE475F00412308B9018
:10B45C000C24E0FFA3E0AB3EAA3FA940CF8FF01233
:10B46C00308BE4900CECF0900CECE0FFC3941540A6
:10B47C000302B55D75F019EF90005B1233C8E0FE66
:10B48C00A3E0F47002EEF4700302B554900CECE0FF
:10B49C0075F01990005D1233C8E0FCA3E0F4700263
:10B4AC00ECF4700302B554AB3BAA3CA93D122FF04F
:10B4BC00FDACF075F019EF90005D1233C8E0FEA3FF
:10B4CC00E0D39DEE9C4014900CECE075F0199000CC
:10B4DC005D1233C8E0FEA3E0FF8004AE04AF05AB01
:10B4EC003BAA3CA93DEE8FF012308B900CECE0FFA8
:10B4FC0075F01990006F1233C8E0FCA3E0F47002F1
:10B50C00ECF46044AB3EAA3FA940122FF0FDACF026
:10B51C0075F019EF90006F1233C8E0FEA3E0C39DE5
:10B52C00EE9C5014900CECE075F01990006F1233F7
:10B53C00C8E0FEA3E0FF8004AE04AF05AB3EAA3F1B
:10B54C00A940EE8FF012308B900CECE004F002B4BA
:10B55C0073AB3BAA3CA93DE475F001123053AB3EF2
:0BB56C00AA3FA94074FFF5F002305325
:0691AA008B3B8A3C893D6D
:1091B000900041123359FFFFFFFF90002D123359E9
:1091C000FFFFFFFF74FF90001BF0A3F0900017F06B
:1091D000A3F07B017A0C79EC7558007559017F106A
:1091E0007E0212BDBF900CECE0900EFCF0900CEDF6
:1091F000E0900EFDF0900CEEE0900EFEF0900CEF83
:10920000E0540F900EFFF0E024FC600C240270107C
:10921000900CB77414F0800E900CB77428F0800690
:10922000900CB7740AF09000067402F0A3740FF06B
:109230009002BFE030E7034403F090094AE0FCA34A
:10924000E0FD7F017E0012C23F12C2AB1200A67B7E
:10925000017A0C79ECE4F558F5597F107E0212BDC5
:10926000BFAB3BAA3CA93DE475F00412308BE490FF
:109270000F00F0900C24E0FFA3E0AB3EAA3FA94012
:10928000CF8FF012308BE4900F01F0900F01E0FFD0
:10929000C39415400302938675F019EF900CEC12FD
:1092A00033C8E0FEA3E0FFBEFF16BFFF13900F0020
:1092B000E0600302937DA3E004900F00F002937D31
:1092C000900F01E0FF75F019900CEE1233C8E0FC2E
:1092D000A3E0F47002ECF4700302937DAB3BAA3C74
:1092E000A93D122FF0FDACF075F019EF900CEE12C5
:1092F00033C8E0FEA3E0D39DEE9C4014900F01E044
:1093000075F019900CEE1233C8E0FEA3E0FF800464
:10931000AE04AF05AB3BAA3CA93DEE8FF012308BFB
:10932000900F01E0FF75F019900D001233C8E0FCBA
:10933000A3E0F47002ECF46044AB3EAA3FA94012F3
:109340002FF0FDACF075F019EF900D001233C8E06E
:10935000FEA3E0C39DEE9C5014900F01E075F01940
:10936000900D001233C8E0FEA3E0FF8004AE04AF0E
:1093700005AB3EAA3FA940EE8FF012308B900F0153
:10938000E004F002928B900F00E07002FF22AB3EEF
:10939000AA3FA940122FF0FFAEF0AB3BAA3CA93D7B
:1093A000122FF0C39FE5F09E40037F0022E475F08A
:1093B00001123053AB3EAA3FA94074FFF5F01230C2
:1093C00053AB3BAA3CA93D122FF0FFAEF0D394055E
:1093D000EE9400400280047E007F05900F00E0FDC7
:1093E00075F019900CD31233C8EEF0A3EFF0900291
:1093F000BFE0FF600EAB3EAA3FA940122FF0FBAAD0
:10940000F080047AFF7BFF75F019ED900CE51233C4
:10941000C8EAF0A3EBF075F019ED900CE71233C831
:1094200074FFF0A3F075F019ED900CE41233C8EF5F
:10943000F0900EFCE0FF75F019ED900CE91233C8C6
:10944000EFF0900EFEE0FF75F019ED900CEA12338C
:10945000C8EFF0900EFDE0FF75F019ED900CEB12E7
:1094600033C8EFF0900EFFE0FF75F019ED900CE3BC
:109470001233C8EFF07B017A0C79ECE4F55DF55E10
:0F9480007D107C027F02FE12BEE4900F00E0FF21
:01948F0022BA
:0AB2D8008F3F8C408D418A428B436A
:10B2E200153F7B017A0F7904E4F558F5597F107EFA
:10B2F2000212BDBF74FFFFFEFDFC90002D12331140
:10B30200C3123240705F75F019E53F900F0E123391
:10B31200C8123359FFFFFFFF75F019E53F900F0880
:10B322001233C8123359FFFFFFFF75F019E53F9042
:10B332000F121233C874FFF0A3F075F019E53F90B5
:10B342000F0C1233C874FFF0A3F075F019E53F90AB
:10B352000F061233C874FFF0A3F075F019E53F90A1
:10B362000F0402B41990002D12330575F019E53F50
:10B37200900F081233C812334D900017E0FEA3E07D
:10B38200FF75F019E53F900F0C1233C8EEF0A3EFF2
:10B39200F090004112330575F019E53F900F0E123F
:10B3A20033C812334D90001BE0FEA3E0FF75F01985
:10B3B200E53F900F121233C8EEF0A3EFF075F019CB
:10B3C200E53F900F061233C8E540F0A3E541F09047
:10B3D20002BFE0602A75F019E53F900F161233C8DC
:10B3E200E0FEA3E0F47002EEF4601475F019E53F9C
:10B3F200900F181233C8E542F0A3E543F0802075A0
:10B40200F019E53F900F181233C874FFF0A3F075DE
:10B41200F019E53F900F161233C874FFF0A3F07BCA
:10B42200017A0F7904E4F55DF55E7D107C027F02FE
:04B43200FE02BEE474
:10A4AB00E4900F02F0A3F07B017A0C79F0F558F5EC
:10A4BB00597F107E0212BDBFE4900F02F0A3F09003
:10A4CB000F02E0FEA3E0FFC39415EE9400400302DD
:10A4DB00A69E900CF075F019EF1233C8EE75F019BB
:10A4EB00A42583F583E0FEA3E0F47002EEF4700381
:10A4FB0002A691900F02E0FEA3E0900CF875F01904
:10A50B001233C8EE75F019A42583F583E0FCA3E0A4
:0AA51B00F47002ECF4600302A67F66
:10A52500900F02E0FCA3E0FD900CF075F0191233DA
:10A53500C8EC75F019A42583F583E0FBA3E0900F23
:10A5450000CBF0A3EBF0900D0275F019ED1233C8B6
:10A55500EC75F019A42583F583E0FDA3E0900CECE0
:10A56500CDF0A3EDF0900D0475F019EF1233C8EEA0
:10A5750075F019A42583F583E0FFA3E0900CEECFD9
:10A58500F0A3EFF07B017A0C79F0900F00E0F5581D
:10A59500A3E0F5597F107E0212BDBF900CF0123377
:10A5A5000590002D12334D900CF4E0FFA3E09000D0
:10A5B50017CFF0A3EFF0900C25E024FFFF900C24BB
:10A5C500E034FFFEC3900F01E09F900F00E09E4036
:10A5D5000302A67F7B017A0C79F0E0F558A3E0F53C
:10A5E500597F107E0212BDBF74FFFFFEFDFC900C6B
:10A5F500F0123311C312324070737B017A0C79F07B
:10A60500900F01E024FFF559900F00E034FFF55855
:10A615007F107E0212BDBF900CF0123305900041F1
:10A6250012334D900CF4E0FFA3E090001BCFF0A394
:10A63500EFF0900CEEE0B4FF12A3E0B4FF0D900C28
:10A64500ECE0FFA3E0A3CFF0A3EFF0900F02A3E0AF
:10A6550004FF900F01E024FFFD900F00E034FFFCA4
:10A66500900CEEE0FAA3E0FB12B2D8800D900F003B
:0AA67500E475F001122FC402A5BB2A
:10A67F007B017A0C79F0E4F558F5597F107E0212C0
:0FA68F00BDBF900F02E475F001122FC402A4CAE0
:01A69E002299
:02AFCF008F4CA5
:10AFD1007B017A0C79FCE4F558F5597F107E021259
:10AFE100BDBF75F019E54C900CE31233C8E0FEA328
:10AFF100E0F47002EEF4603B75F019E54C900CE55D
:10B001001233C8E0FEA3E0F47002EEF4602575F09F
:10B0110019E54C900CE31233C8E0FEA3E0FF75F094
:10B0210019E54C900CE51233C8E0FCA3E0FD7B016F
:10B0310012C1D27B017A0C79FCE4F558F5597F10E5
:10B041007E0212BDBF75F019E54C900CF51233C8A4
:10B05100E0FEA3E0F47002EEF4603B75F019E54CFC
:10B06100900CF71233C8E0FEA3E0F47002EEF46036
:10B071002575F019E54C900CF71233C8E0FEA3E0FA
:10B08100FF75F019E54C900CF51233C8E0FCA3E014
:10B09100FD7B0112C1D27B017A0C79FCE4F558F5F4
:10B0A100597F107E0212BDBF75F019E54C900CF767
:10B0B1001233C874FFF0A3F075F019E54C900CF54C
:10B0C1001233C874FFF0A3F075F019E54C900CE54C
:10B0D1001233C874FFF0A3F075F019E54C900CE33E
:10B0E1001233C874FFF0A3F075F019E54C900CED24
:10B0F1001233C8123359FFFFFFFF75F019E54C9069
:10B101000CE71233C8123359FFFFFFFF75F019E541
:10B111004C900CF11233C874FFF0A3F075F019E5EF
:10B121004C900CEB1233C874FFF0A3F075F019E5E5
:10B131004C900CF41233C8E4F075F019E54C900C06
:10B14100F31233C8E4F07B017A0C79FCF55DF55E0E
:0AB151007D107C027F02FE02BEE4C6
:10568200E4F53C7B017A0D7911F5587559017F10CB
:105692007E0212BDBF74FFFFFEFDFC900D1112339E
:1056A20011C31232406003025780753C01900D1302
:1056B200F0900D12F0900D11F0900D157480F09095
:0856C2000D147402F0E4F53B45
:1056CA0078EC7C0C7D017BFF7AC679E57E007F0849
:1056DA00122E54E53B2441900CF2F0E53B75F01094
:1056EA00A42416F9740D35F0A801FC7D017B017A1A
:0656FA000C79EC1235A44E
:0A570000053BE53BB40CC3E4F53BA8
:10570A0078F47C0C7D017BFF7AC679ED7E007F05FB
:10571A00122E54E53B2441900CF7F0E53B75F01648
:10572A00A424D6F9740D35F0A801FC7D017B017A19
:10573A000C79F41235A475F016E53B900DE6123398
:10574A00C8E4F0A37404F075F016E53B900DE81276
:10575A0033C87417F0A37470F075F016E53B900D1A
:0B576A00EA1233C8741BF0A37458F05F
:10577500053BE53B640C708D025857900D11E0D345
:10578500940C4005E4F0753C01900D12E0D39410A3
:105795004005E4F0753C01900D13E0D3940C4005F1
:1057A500E4F0753C01E4F53B75F010E53B900D1612
:1057B5001233C8E0FF12005E401E75F010E53B9005
:1057C5000D161233C8E0601075F010E53B900D160C
:1057D5001233C8E4F0753C01053BE53BC3940C402E
:1057E500C7E4F53B75F016E53B900DD61233C8E0DE
:1057F500FF12005E405375F016E53B900DD612334F
:10580500C8E0604575F016E53B900DD61233C8E447
:10581500F075F016E53B900DE61233C8E4F0A3747D
:1058250004F075F016E53B900DE81233C87417F0D7
:10583500A37470F075F016E53B900DEA1233C87449
:105845001BF0A37458F0753C01053BE53BC3940C74
:105855004092E53C60177B017A0D7911755D007505
:105865005E017D107C027F027E0012BEE47B017A20
:105875000D79117558007559027F107E0212BDBF52
:10588500E4F53C900D11E0F46003025921A3E0F426
:0A5895006003025921753C01F53B48
:10589F0078F97C0C7D017BFF7AC679F27E007F0759
:1058AF00122E54E53B2441900CFEF0E53B75F01CA5
:1058BF00A42411F9740D35F0A801FC7D017B017A48
:1058CF000C79F91235A475F01CE53B900D251233B8
:1058DF00C81233590000000075F01CE53B900D21F4
:1058EF001233C81233590000000075F01CE53B90CD
:1058FF000D291233C8E4F0A3F075F01CE53B900DB1
:08590F002B1233C8E4F0A3F0F1
:10591700053BE53B64107080807EE4F53B75F01C29
:10592700E53B900D111233C8E0FF12005E40607531
:10593700F01CE53B900D111233C8E0605275F01C66
:10594700E53B900D111233C8E4F075F01CE53B9070
:105957000D251233C81233590000000075F01CE5FD
:105967003B900D211233C81233590000000075F027
:105977001CE53B900D291233C8E4F0A3F075F01C29
:10598700E53B900D2B1233C8E4F0A3F0753C0105FD
:105997003BE53BC394104085E53C60177B017A0DDE
:1059A7007911755D00755E027D107C027F027E00B5
:1059B70012BEE4E4F53C7B017A0D7911F55875596F
:1059C700047F107E0212BDBF900D11E0F460030248
:1059D7005A8BA3E0F46003025A8B753C01F53B75C3
:1059E700F00CE53B900D151233C812335900000037
:1059F7000075F00CE53B900D111233C812335900B6
:105A070000000075F00CE53B900D191233C8E4F067
:105A1700A3F075F00CE53B900D1B1233C8E4F0A31F
:0B5A2700F0053BE53BB410B7E4F53B95
:105A320075F014E53B900DD31233C8E4F0A3F07572
:105A4200F014E53B900DD11233C8E4F0A3F0F53D1C
:105A5200F53EE53E25E0FFE53D33FE75F014E53BFE
:105A6200900DD51233C8E5822FF582E5833EF5838A
:105A7200E4F0A3F0053EE53E7002053D6408453DB5
:025A820070D0E2
:105A8400053BE53BB40CA7E53C60177B017A0D7937
:105A940011755D00755E047D107C027F027E00122C
:105AA400BEE4E4F53C7B017A0D7911F55875590390
:105AB4007F107E0212BDBF74FFFFFEFDFC900D112E
:105AC400123311C31232406003025C70753C01F55D
:015AD4003B96
:105AD50078007C0D7D017BFF7AC679F97E007F0811
:105AE500122E54E53B2430900D06F0E53B75F02869
:105AF500A42411F9740D35F0A801FC7D017B017A10
:105B05000D79001235A4E53B75F028A4241DF97420
:105B15000D35F0A801FC7D017BFF7AC679D81235D9
:105B2500A475F028E53B900D291233C87414F0755F
:105B3500F028E53B900D2A1233C8123359000000B6
:105B45000075F028E53B900D2E1233C812335941EC
:105B5500A0000075F028E53B900D321233C81233D2
:105B65005941A0000075F028E53B900D361233C869
:105B75007401F075F028E53B900D371233C8E4F059
:0E5B850075F028E53B900D381233C874F8F027
:0E5B9300053BE53B64046003025AD5E4F53B94
:105BA10078087C0D7D017BFF7AC779017E007F0932
:105BB100122E54E53B2430900D0FF0E53B75F02497
:105BC100A424B1F9740D35F0A801FC7D017B017AA3
:105BD1000D79081235A4E53B75F024A424BDF974B0
:105BE1000D35F0A801FC7D017BFF7AC679DE123507
:105BF100A4E53B75F024A424C9F9740D35F0A8017E
:0C5C0100FC7D017BFF7AC679E11235A41E
:105C0D00053BE53BB4078DE4F53B75F005E53B90B1
:105C1D000EAF1233C8E4F0A3F075F005E53B900E1E
:105C2D00AD1233C8E4F0A3F075F005E53B900EB16D
:105C3D001233C87401F0053BE53BB402CDE4F53BEE
:105C4D0074B7253BF582E4340EF583E4F0053BE5AE
:105C5D003BB402EC900EB77403F0900EB97405F0DE
:105C6D00025D94E4F53B75F028E53B900D11123380
:105C7D00C8E0FF12005E5003025D1675F028E53B8B
:105C8D00900D111233C8E07003025D1675F028E512
:105C9D003B900D111233C8E4F075F028E53B900DE3
:105CAD00291233C87414F075F028E53B900D2A12B3
:105CBD0033C81233590000000075F028E53B900DF4
:105CCD002E1233C812335941A0000075F028E53B60
:105CDD00900D321233C812335941A0000075F028CF
:105CED00E53B900D361233C87401F075F028E53B95
:105CFD00900D371233C8E4F075F028E53B900D3860
:105D0D001233C874F8F0753C01053BE53BC39404B0
:105D1D005003025C73E4F53B75F024E53B900DB147
:105D2D001233C8E0FF12005E405475F024E53B903D
:105D3D000DB11233C8E0604675F024E53B900DB10E
:105D4D001233C8E4F0E53B75F024A424BDF9740DBD
:105D5D0035F0A801FC7D017BFF7AC679DE1235A4F2
:105D6D00E53B75F024A424C9F9740D35F0A801FCA8
:105D7D007D017BFF7AC679E11235A4753C01053BA7
:105D8D00E53BC394074091E53C60177B017A0D79A3
:105D9D0011755D00755E037D107C027F027E001221
:025DAD00BEE452
:015DAF0022D1
:02FDFE0080FE85
:10C314008B5C8A5D895EE92DF9EA3C8B5FF5608967
:10C3240061E4F562F563C3856083856182E55E95AA
:10C3340082E55D9583502F785CE475F0011233D467
:10C34400122E7AFFE5636F25E0FFE433FE744D2F70
:10C35400F582749A3EF583E562FFE493F562740115
:0BC36400936FF56380C0AE62AF6322F0
:10280700022BCDE86480F8E933E83360110460F007
:10281700ED33EC337009E8FCE9FDEAFEEBFF220437
:1028270060DED3EB9FEA9EE99DE8C2E78CF0C2F732
:1028370095F0400CE8CCF8E9CDF9EACEFAEBCFFBFE
:10284700122B9885D0F05804700320D5B3E8047094
:10285700075002B2D5022BD792D5EC0460F7E4CC2F
:10286700C0E0C398F8603B94186008400DD0E0FBC7
:10287700022BAFE4FBFAC9FC8028E830E406E4C980
:10288700FBE4CAFCE830E305E4C9CACBFCE854071B
:102897006010F8C3E913F9EA13FAEB13FBEC13FC26
:1028A700D8F130F52FC3E49CFCEF9BFFEE9AFEEDC9
:1028B70099FDD0E0FBEF4E4D4C701222DB03022B4B
:1028C700D4EC2CFCEF33FFEE33FEED33FDED30E7B8
:1028D700EB022BAFEF2BFFEE3AFEED39FDD0E0FB1D
:1028E70050130BBB0003022BD7ED13FDEE13FEEFC6
:0828F70013FFEC13FC022BAFF0
:1028FF00EC4D6011E8497017ED33EC3304600DE4D3
:10290F00FCFFFEFD22E933E8330470F8022BCD12F1
:10291F002B9858046009E4CC2481500628500902F2
:10292F002BD7284003022BD4C0E0EB4A7044B98068
:10293F0006D0E0FB022BC3EF4E701CBD8008EBFFEF
:10294F00EAFEE9FD80EBE98DF0A4FEE5F00229E84F
:10295F00E9CDF9EAFEEBFFEF89F0A4FCE5F0CE89B3
:10296F00F0A42EFFE435F0CD89F0A42DFEE435F070
:10297F008067EF4E7005BD80D780C3EF8BF0A4AC9E
:10298F00F0EE8BF0A42CFCE435F0F8EF8AF0A42CD9
:10299F00E5F038FCE433CB8DF0A42CFCE5F03BF8EC
:1029AF00EE8AF0A42CFCE5F038F8E433CF89F0A4DC
:1029BF002CFCE5F038CF3400CE89F0A42FFFE5F0E2
:1029CF003EFEE433C98DF0A42EFEE5F039CD8AF03A
:1029DF00A42FFFE5F03EFEE43DFD33D0E0FB5007B2
:1029EF000BBB000F022BD7EC2CFCEF33FFEE33FEAB
:0629FF00ED33FD022BAFD9
:102A0500022BD7EC5D046005E859047003022BCD59
:102A1500122B98580460F6EC4860F2EC7004FDFE49
:102A2500FF22C860DB2481C85009C39860025006A4
:102A3500022BD49850CAF582E9294B4A7005AB821E
:102A4500022BC375F0007C1A7880C3EF9BEE9AEDDC
:102A550099400DC3EF9BFFEE9AFEED99FDE842F01C
:102A6500DC23ACF0D0E0FFD0E0FED0E0FDAB82206F
:102A7500E7101BEB60BAEC2CFCEF33FFEE33FEEDF9
:102A850033FD022BAFE803F830E705C0F075F00021
:102A9500EF2FFFEE33FEED33FD40B830E7C280AADD
:102AA50074F8CC6480CCC86480C8F582046043C3E4
:102AB500EB9FF5F0EA9E42F0E99D42F0E89C45F077
:102AC50060305018E5825FFFE582F42B5582FB509C
:102AD500210ABA001D09B90019088016E5825BFBB9
:102AE500E582F42F5582FF50090EBE00050DBD008D
:102AF500010CC3EB9FF5F0EA9E42F0E99D42F0E838
:0D2B05009C45F06007CC4820E701B3EC22AE
:102B1200ED33EC33600A047003BD8004ECB2E7FCD1
:012B22002290
:102B230075F020800E75F010800575F0087D007E2D
:102B3300007F003392D530D50312321CEC334010A2
:102B4300EF33FFEE33FEED33FDEC33FCD5F0ED2236
:0E2B5300E5F0247EA2D513CC92E7CDCEFF2272
:102B6100EDD2E7CD33EC3392D524814006E4FFFE6C
:102B7100FDFC22FCE4CFCECDCC24E0501174FF80CB
:102B8100EDC3CC13CCCD13CDCE13CECF13CF047068
:072B9100F030D5DE02321C1A
:1075BB00E56A2456F8E6056A2278533009027856B4
:1075CB00E475F0011233D4022E7A2002EB7F2ED217
:1075DB00028018EF540F2490D43440D4FF30060BA4
:1075EB00EF24BFB41A0050032461FFE56B60021552
:1075FB006B056EE56E7002056D30090D7853E47501
:10760B00F0011233D4EF022EF302C7BB7403D2097D
:10761B008003E4C209F56A8B538A548955E4F56BF0
:10762B00F56DF56EE56B60077F201275F680F575CD
:10763B006CFFC203C202C204C205C207C208C20A5F
:10764B001275C4FF700D3009057F00127607AF6EFF
:10765B00AE6D22B4255FC2D5C2061275C4FF24D00D
:10766B00B40A00501A75F00A786B30D50508B6FFCE
:10767B000106C6A426F620D5047002D20580D924B3
:10768B00CFB41A00EF5004C2E5D2060278F4D2034D
:10769B0080C6D20280C0D20480BCD2D580BAD207B9
:1076AB0080B47F201275F62004077401B56B00407F
:1076BB00F11275BBFF1275F602762FD20AD2088033
:1076CB00951275BBFB1275BBFA1275BBF94A4B7061
:1076DB000679EB7A797BFF20042EE56B602A7E001E
:1076EB008E82758300122E9360060EEE656C70F021
:1076FB00C2D5EBC0E0EAC0E0E9C0E0EE127954D0AD
:10770B00E0F9D0E0FAD0E0FB122E7AFF60AAEBC0D2
:10771B00E0EAC0E0E9C0E01275F6D0E02401F9D050
:10772B00E03400FAD0E0FBE56C0460DCD56CD9806A
:10773B0087D20480A212793760F7E56C70010412CE
:10774B002BE2A96C600DE56C600914F56C1279DE07
:10775B00EF60F3EA30E702F404C3995077EAF425BB
:10776B006C0430E701E404F56C800D12793760C1CD
:10777B00EA056C256C122BE2EA7869F630E701E436
:10778B00256C04D56C0420070114127954E4C0E075
:10779B001279DE7869E6601320E70714F61275DEBE
:1077AB00802204F6D0E014C0E07F001275DEE56C99
:1077BB0060071275D5156C800B3007031275D5D089
:1077CB00E002762FD0E00480C512793760A0E56C1B
:1077DB0004122BE27869EAF6E56C200702600104DB
:0577EB00240412795492
:1077F00074FF04C0E01279DE1275DEE56C2007022A
:1078000060031275D5D0E0B56CE87F451275E87855
:1078100069E67F2B30E7047F2DF404C0E01275F693
:10782000D0E075F00A84C0F01275DFD0E01275DF89
:1078300002762F791080027908C208C20A8008D225
:10784000D5790A8004790AC2D5E56C047002F56C1A
:10785000E4FAFDFEFF1275BBFC7B082003131275D2
:10786000BBFD7B1030020A1275BBFE1275BBFF7B9D
:1078700020EC3382D592D55013C3E43002069FFF2B
:10788000E49EFEE42003039DFDE49CFCE4CBF8C2EF
:1078900003EC700CCFCECDCCE824F8F870F3801751
:1078A000C3EF33FFEE33FEED33FDEC33FCEB33FB84
:1078B000994002FB0FD8E9EB300305F8D0E0C4484B
:1078C000B203C0E00AEC4D4E4F78207B0070C2EA54
:1078D000B56C0040BCC0E0127956D0F0D0E0200377
:1078E00004C4C0E0C4B203C0F01275DFD0F0D5F01C
:1078F000EB02762F12347F76CC53783358769D4C3A
:1079000076994278374F783F44783F4976B243784A
:10791000455577764677D4457740477A0B5076A120
:107920002D76A52E76C82B76A92376C62079F42A43
:10793000766148000076C0E56CB4FF03756C0612F2
:1079400075BBFC1275BBFD1275BBFE1275BBFF78D3
:1079500062022C11790AA2D5200514300709B9104A
:10796000020404B9080104A2D52008025001042031
:1079700004689204B56B005034C0E07F20300519D4
:107980007F30A20472087207500F1279ADC204C290
:1079900008C207C20A7F30800F300703E9C0E01237
:1079A00075F6300703D0E0F9D0E0B56BCC3007179F
:1079B0007F30B9100C1275F67F583006077F78803B
:1079C00003B908031275F63004057F2D0275F67FA2
:1079D00020200AF87F2B2008F322920480CF7F001A
:1079E000B4070050052462F8E6FF22286E756C6C1F
:1079F0002900D2031275BB3003F8C203786B30D56F
:107A00000108F60276612D504349581275BB2403D4
:107A1000B405004001E4907A06931275E7743A12B7
:0A7A200075E7D205756B0402783398
:10BBD300022BCD22EDA2E7D2E7F9EC3340F260F37A
:10BBE300B4FF08ED547F70E8022BD7F82481C2E03C
:10BBF300C0E0F40428FAC313FCED92E7FD8C3B8DFF
:10BC03003C8E3D8F3EEEA2E7E9BA7F02C3133400B8
:10BC13009400FA75F091A4E5F013F494FE8AF0A46D
:10BC230033E5F033248CD313FDE492E7FE7F007CED
:10BC33003F758302ECC0E0F8EDC0E0F9EEC0E0FA36
:10BC4300EFC0E0FBAC3BAD3CAE3DAF3E122A08D0AB
:10BC5300E0FBD0E0FAD0E0F9D0E0F812280EED6472
:10BC630080FD30E7011CD583CBED33CC33F8D0E036
:0ABC7300A2E71328C313CC13FD222F
:102B9800E9D2E7C933E833F892D5EDD2E7CD33EC83
:072BA80033FC5002B2D522FC
:102BAF00EC30E7100FBF000C0EBE00080DBD000487
:102BBF000BEB6014A2D5EB13FCED92E7FD2274FF33
:102BCF00FCFDFEFF22E480F8A2D574FF13FC7D808C
:032BDF00E480EFA0
:102BE200F920E72824F950037907E4F42402FB18BA
:102BF200DBFDE624FB5014E9600DE4F618E604F66A
:0F2C0200B40A08E4F6D9F57401F60A22C2D52205
:102C1100ED33EC3392D5FA602AB4FF33EDC2E77B92
:102C2100FF60067A2C7936E4227A2C793F20D5048C
:102C31007A2C793A224E614E002B494E46002D499D
:102C41004E4600E47A08F608DAFC7B00740722E8B5
:102C5100C0E0ECC0E0EDC0E0EEC0E0EFC0E0EA753E
:102C6100F010A4CAABF075F04DA42BFBE435F0FCD9
:102C7100EA2410FAEB34C5FBEC34D9FCEDC2E7FFD2
:102C810075F056A4F42411C5F0F434C58FF0A42ACC
:102C9100E5F03BE43CF620E714122D44D0E0FFD0F0
:102CA100E0FED0E0FDD0E0FC122A088014F404120A
:102CB1002D44D0E0FFD0E0FED0E0FDD0E0FC1228B2
:102CC100FFD0E0F8E6FAEDD2E7CD33EC332482FB16
:102CD100E4C3CF33CFCE33CECD33CD33DBF37B075C
:102CE10075F00A846004F6081B0AE5F0F6088FF017
:102CF100740AA4FFACF08EF0740AA42CFEACF05060
:102D0100010C8DF0740AA42CFDE435F0F608DBDE2D
:032D110074072222
:102D14003F8000004120000042C80000447A0000C7
:102D2400461C400047C35000497424004B18968049
:102D34004CBEBC205A0E1BCA6753C21C749DC5AE40
:102D4400FB60065407601C2323122D72EB54386079
:102D540009122D5E122D6D1228FFECF8EDF9EEFA32
:102D6400EFCB22EB122D6D80F1543803241C902DEF
:102D740014FE93FC0EEE93FD0EEE930ECE93FF2203
:0300000002BE58E5
:0CBE5800787FE4F6D8FD75817F02BE9F64
:102D8400E709F608DFFA8046E709F208DFFA803E31
:102D940088828C83E709F0A3DFFA8032E309F6081E
:102DA400DFFA8078E309F208DFFA807088828C8386
:102DB400E309F0A3DFFA806489828A83E0A3F6083A
:102DC400DFFA805889828A83E0A3F208DFFA804C14
:102DD40080D280FA80C680D4806980F280338010EB
:102DE40080A680EA809A80A880DA80E280CA803354
:102DF40089828A83ECFAE493A3C8C582C8CCC583CC
:102E0400CCF0A3C8C582C8CCC583CCDFE9DEE7809B
:102E14000D89828A83E493A3F608DFF9ECFAA9F01A
:102E2400EDFB2289828A83ECFAE0A3C8C582C8CC70
:102E3400C583CCF0A3C8C582C8CCC583CCDFEADE89
:102E4400E880DB89828A83E493A3F208DFF980CCEB
:102E540088F0EF60010E4E60C388F0ED2402B404E4
:102E64000050B9F582EB2402B4040050AF2323458B
:062E74008223902DD473AF
:102E7A00BB010689828A83E0225002E722BBFE0256
:092E8A00E32289828A83E4932289
:102E9300BB010CE58229F582E5833AF583E02250F4
:102EA30006E92582F8E622BBFE06E92582F8E2223E
:0D2EB300E58229F582E5833AF583E4932258
:102EC000BB010FF8E58229F582E5833AF583E02816
:102ED000F0225009C58229F8E58226F622BBFE09B8
:102EE000C58229F8E22582F222F8EA2583F583E9F2
:032EF00093282202
:102EF300BB010689828A83F0225002F722BBFE01BE
:022F0300F322B7
:102F0500F8BB010DE58229F582E5833AF583E8F002
:102F1500225006E92582C8F622BBFE05E92582C8AE
:022F2500F22296
:102F2700EF8DF0A4A8F0CF8CF0A428CE8DF0A42EBE
:022F3700FE2278
:102F3900BC000BBE0029EF8DF084FFADF022E4CC7C
:102F4900F875F008EF2FFFEE33FEEC33FCEE9DEC45
:102F5900984005FCEE9DFE0FD5F0E9E4CEFD22ED8B
:102F6900F8F5F0EE8420D21CFEADF075F008EF2FD5
:102F7900FFED33FD4007985006D5F0F222C398FDC6
:052F89000FD5F0EA2263
:102F8E00C2D5EC30E709B2D5E4C39DFDE49CFCEE5E
:102F9E0030E715B2D5E4C39FFFE49EFE122F39C36E
:102FAE00E49DFDE49CFC8003122F3930D507C3E469
:062FBE009FFFE49EFE22CD
:102FC400C5F0F8A3E028F0C5F0F8E5821582700298
:062FD4001583E038F02235
:102FDA00A3F8E0C5F025F0F0E582158270021583AA
:062FEA00E0C838F0E82207
:102FF000BB010A89828A83E0F5F0A3E022500687AC
:10300000F009E71922BBFE07E3F5F009E31922896D
:0B301000828A83E493F5F074019322A0
:10301B00BB0110E58229F582E5833AF583E0F5F0F3
:10302B00A3E0225009E92582F886F008E622BBFED0
:10303B000AE92582F8E2F5F008E222E5832AF58316
:08304B00E993F5F0A3E99322DB
:10305300BB010789828A83022FC4500B09C5F0275D
:10306300F7C5F01937F722BBFE0D09F8E325F0F396
:10307300C5F019E338F322F889828A837401932512
:08308300F0C5F0F8E4933822D7
:10308B00BB010A89828A83F0E5F0A3F0225006F790
:0F309B0009A7F01922BBFE06F3E5F009F319228D
:1030AA00F8BB0111E58229F582E5833AF583E8F058
:1030BA00E5F0A3F0225009E92582C8F608A6F02215
:0D30CA00BBFE09E92582C8F2E5F008F222FC
:0D30D700EF2BFFEE3AFEED39FDEC38FC2248
:0E30E400C3EF9BFFEE9AFEED99FDEC98FC22E7
:1030F200E88FF0A4CC8BF0A42CFCE98EF0A42CFC7D
:103102008AF0EDA42CFCEA8EF0A4CDA8F08BF0A4FA
:103112002DCC3825F0FDE98FF0A42CCD35F0FCEB59
:103122008EF0A4FEA9F0EB8FF0A4CFC5F02ECD391E
:0F313200FEE43CFCEAA42DCE35F0FDE43CFC228B
:1031410075F008758200EF2FFFEE33FECD33CDCC45
:1031510033CCC58233C5829BED9AEC99E5829840C8
:103161000CF582EE9BFEED9AFDEC99FC0FD5F0D6A5
:10317100E4CEFBE4CDFAE4CCF9A88222B800C1B9CF
:103181000059BA002DEC8BF084CFCECDFCE5F0CB0D
:10319100F97818EF2FFFEE33FEED33FDEC33FCEB46
:1031A10033FB10D703994004EB99FB0FD8E5E4F901
:1031B100FA227818EF2FFFEE33FEED33FDEC33FCEE
:1031C100C933C910D7059BE99A4007EC9BFCE99AE2
:1031D100F90FD8E0E4C9FAE4CCFB2275F010EF2F27
:1031E100FFEE33FEED33FDCC33CCC833C810D70727
:1031F1009BEC9AE899400AED9BFDEC9AFCE899F862
:0E3201000FD5F0DAE4CDFBE4CCFAE4C8F922F4
:10C62E00C2D5E830E70FB2D5E4C39BFBE49AFAE437
:10C63E0099F9E498F8EC30E717B2D512C6641231C6
:10C64E007DE4C39BFBE49AFAE499F9E498F880033D
:10C65E0012317D30D50DE4C39FFFE49EFEE49DFDB7
:04C66E00E49CFC222A
:0D320F00EF4BFFEE4AFEED49FDEC48FC22BE
:0E321C00C3E49FFFE49EFEE49DFDE49CFC22C3
:10322A00EB9FF5F0EA9E42F0E99D42F0EC6480C81B
:06323A0064809845F022BB
:10324000EB9FF5F0EA9E42F0E99D42F0E89C45F0E4
:01325000225B
:10325100E8600FECC313FCED13FDEE13FEEF13FF5B
:03326100D8F1227F
:10326400E8600FEFC333FFEE33FEED33FDEC33FCC8
:03327400D8F1226C
:10327700BB010789828A830233055005E9F80235C5
:10328700C1BBFE05E9F80235CD89828A830235D9AB
:10329700BB010DE58229F582E5833AF58302330503
:1032A7005007E92582F80235C1BBFE07E92582F8F8
:1032B7000235CDE58229F582E5833AF5830235D9D2
:1032C700BB010789828A8302334D5005E9F802352D
:0A32D700E9BBFE05E9F80235F52217
:1032E100BB010DE58229F582E5833AF58302334D71
:1032F1005007E92582F80235E9BBFE07E92582F886
:043301000235F5227A
:0C330500E0FCA3E0FDA3E0FEA3E0FF223B
:0C331100E0F8A3E0F9A3E0FAA3E0FB223F
:10331D00E493F8740193F9740293FA740393FB2206
:10332D007401FF3395E0FEFDFC080808E62FFFF65B
:10333D0018E63EFEF618E63DFDF618E63CFCF622D4
:0C334D00ECF0A3EDF0A3EEF0A3EFF022F3
:10335900A8828583F0D083D0821233701233701221
:103369003370123370E473E493A3C583C5F0C58346
:10337900C8C582C8F0A3C583C5F0C583C8C582C8BE
:013389002221
:10338A00BB010789828A830233595005E9F802365C
:0A339A0001BBFE05E9F802361A2215
:1033A400BB010DE58229F582E5833AF583023359A1
:1033B4005007E92582F8023601BBFE07E92582F8A9
:0433C40002361A2291
:0C33C800A42582F582E5F03583F5832210
:1033D400FAE6FB0808E6F925F0F618E6CA3AF622FA
:0933E400E0FBA3E0FAA3E0F922EA
:0933ED00EBF0A3EAF0A3E9F022E1
:1033F600BB010DE58229F582E5833AF5830233E4C4
:103406005007E92582F8023633BBFE07E92582F824
:10341600023645E58229F582E5833AF58302365779
:10342600BB0120E58229F582E5833AF583D0F0D009
:10343600E0F8D0E0F9D0E0FAD0E0FBE8C0E0C0F078
:103446000233ED5018E92582F8D083D082D0E0F916
:10345600D0E0FAD0E0FBC082C08302363CBBFE1847
:10346600E92582F8D083D082D0E0F9D0E0FAD0E026
:09347600FBC082C08302364E2225
:10347F00D083D082F8E4937012740193700DA3A3DC
:10348F0093F8740193F5828883E4737402936860F0
:06349F00EFA3A3A380DFF0
:1034A500D083D082F8E4937012740193700DA3A3B6
:1034B50093F8740193F5828883E473740293B5F0ED
:0D34C500067403936860E9A3A3A3A380D855
:0634D2008A838982E47385
:10C7BB00EFB40A07740D12C7C6740A309811A89902
:10C7CB00B8130CC2983098FDA899C298B811F630DE
:07C7DB0099FDC299F59922B6
:0F005E00EFC394204007EF947F50028001C3222C
:1034D800E709F60870FA8046E709F20870FA803EB4
:1034E80088828C83E709F0A370FA807EE309F608E6
:1034F80070FA8076E309F20870FA806E88828C830D
:10350800E309F0A370FA806289828A83E0A3F6084F
:1035180070FA805689828A83E0A3F20870FA804A9A
:1035280080D280FA80C680D4806580F28031801095
:1035380080A680EA809A80A880DA80E280CA8031FA
:1035480089828A83ECFAE493A3C8C582C8CCC58370
:10355800CCF0A3C8C582C8CCC583CC70E9800D89DE
:10356800828A83E493A3F60870F9ECFAA9F0EDFBDC
:103578002289828A83ECFAE0A3C8C582C8CCC583B5
:10358800CCF0A3C8C582C8CCC583CC70EA80DD89DD
:10359800828A83E493A3F20870F980CE88F0ED2440
:1035A80002B4040050C4F582EB2402B4040050BAFB
:0935B8002323458223903528737A
:10000E00E4FFFE122E7A600C0FEF70010E09E970FC
:05001E00F20A80EF2250
:10BE64000216A3E493A3F8E493A34003F68001F23B
:10BE740008DFF48029E493A3F85407240CC8C333DF
:10BE8400C4540F4420C8834004F456800146F6DFAE
:10BE9400E4800B010204081020408090B7EAE47E9D
:10BEA400019360BCA3FF543F30E509541FFEE493A3
:10BEB400A360010ECF54C025E060A840B8E493A36A
:10BEC400FAE493A3F8E493A3C8C582C8CAC583CA95
:10BED400F0A3C8C582C8CAC583CADFE9DEE780BE4D
:01B8D2000075
:0C35C100E6FC08E6FD08E6FE08E6FF2236
:0C35CD00E2FC08E2FD08E2FE08E2FF223A
:1035D900E493FC740193FD740293FE740393FF2238
:0C35E900ECF608EDF608EEF608EFF6220E
:0C35F500ECF208EDF208EEF208EFF22212
:10360100D083D082E493F608740193F60874029390
:09361100F608740393F6740473C7
:10361A00D083D082E493F208740193F2087402937F
:09362A00F208740393F2740473B6
:09363300E6FB08E6FA08E6F922BC
:09363C00EBF608EAF608E9F622B3
:09364500E2FB08E2FA08E2F922B6
:09364E00EBF208EAF208E9F222AD
:0C365700E493FB740193FA740293F922CF
:00000001FF
