:10AC1F008584317B017A0C792912AD94900016E06E
:10AC2F00702EF58475D98075D84075DA4275DB4280
:10AC3F00900C8EE0A3E0F5FB900C8EE0A3E0F5FC0A
:10AC4F00900C90E0A3E0F5FD900C90E0A3E0F5FEF2
:10AC5F00900CA9E0FD7C007E057F00123B978E7162
:10AC6F008F72E4F58475E8C075D107F5BAF5BB7539
:08AC7F00BC7043E7028531843B
:01AC870022AA
:03007B00029C7C68
:109C7C00C0E0C0F0C083C082C0D075D000C000C0AE
:0B9C8C0002C003C004C005C006C007F2
:109C9700758400C2EDE57325E02427F582E43400DE
:109CA700F583E5BF85BEF0123C22E5731240A59C03
:109CB700D2009CDA019CE2029CF5039CFD049D0501
:109CC700059D0D069D150700009D1B75BB0175734E
:109CD70001804175BB027573028039900016E06000
:109CE7000575BB07800375BB08757303802675BBB5
:109CF70003757304801E75BB04757305801675BBE9
:109D070005757306800E75BB06757307800675BBF0
:109D170000757300E5721572700215711445716054
:049D270003029E0E87
:109D2B00900CA9E0FF74A08FF0841313543F75229D
:109D3B0000F523E4FBFAEB64034A7026900016E06F
:109D4B007020900CA9E075F00A84FF7E0090002D26
:109D5B00E0FCA3E0FD123B8590001DEEF0A3EFF0BD
:109D6B008037EB25E0FFEA33FE74272FF582740072
:109D7B003EF583E0FEA3E0FFAC22AD23123B97AC94
:109D8B0006AD07EB25E0FFEA33FE74172FF582745F
:109D9B00003EF583ECF0A3EDF0EB25E0FFEA33FE9C
:109DAB0074272FF58274003EF583E4F0A3F00BBB10
:109DBB0000010AEB64084A6003029D41900004E035
:109DCB007029900C88E0FEA3E0FF900C87E02FFF3A
:109DDB00900C86E03EFE900017E0FCA3E0FDC3EF85
:109DEB009DFFEE9C900017F0A3EFF0900CA9E0FD07
:109DFB007C007E057F00123B978E718F7290029CC8
:039E0B007401F0EF
:0C9E0E00E5737003D38001C34002D2EC66
:109E1A00D007D006D005D004D003D002D000D0D0CD
:099E2A00D082D083D0F0D0E032E8
:10B0D500EF6004C2B18002D2B1E4FF0FBF1EFCD203
:10B0E500B2E4FF0FBF1EFCE4FEB2B1E4FF0FBF1ECA
:07B0F500FC0EBE85F4C2B29F
:01B0FC002231
:0CA15A0030D80302A29120D90302A29188
:10A16600E4F531F5327B017A00794DF54E754F03F2
:0BA176007F107E0212A822C2C8C2CADD
:10A18100900CD0123F7F000001C2E4FFFEFDFC9065
:10A191000CD0123F37D3123E504017900CD0123FD3
:10A1A1002B74FFFBFAF9F8123CFD900CD0123F73AF
:02A1B10080D854
:10A1B30020DB0302A28220DC0302A282D2CAE4F5DE
:10A1C30031F53230DC100532E53270020531B4E886
:10A1D300F2E531B403ED30DC079002E17401F022C3
:10A1E3009001F5E0C394014006E0D3940640069045
:10A1F30001F57405F09001F5E0540FC454F0FFE04D
:0FA20300540F4FF534E4F533E5341392C8B2CA63
:10A21200900CD4123F7F000001C2E4FFFEFDFC90CF
:10A222000CD4123F37D3123E504017900CD4123F39
:10A232002B74FFFBFAF9F8123CFD900CD4123F7319
:02A2420080D8C2
:10A24400E534C313F5340533E533B408BAE4F53122
:10A25400F53220DC100532E53270020531B4E8F243
:10A26400E531B403ED9002E130DC167402F0900C99
:0EA274001904F0D2C8C2CA900C1B7405F02267
:0FA282009002E17401F0E4900C19F0900C1BF0C5
:01A2910022AA
:108C4D00436F707972696768742028432920323028
:108C5D00313320547261636B2053797374656D7376
:108C6D0020546563686E6F6C6F676965732C204C5B
:108C7D004C43000200FF000000C0C1C1810140C390
:108C8D000103C00280C241C60106C00780C741056D
:108C9D0000C5C1C4810440CC010CC00D80CD410F75
:108CAD0000CFC1CE810E400A00CAC1CB810B40C995
:108CBD000109C00880C841D80118C01980D9411BCD
:108CCD0000DBC1DA811A401E00DEC1DF811F40DDED
:108CDD00011DC01C80DC411400D4C1D5811540D7C5
:108CED000117C01680D641D20112C01380D3411195
:108CFD0000D1C1D0811040F00130C03180F141333D
:108D0D0000F3C1F28132403600F6C1F7813740F5EC
:108D1D000135C03480F4413C00FCC1FD813D40FF74
:108D2D00013FC03E80FE41FA013AC03B80FB413914
:108D3D0000F9C1F88138402800E8C1E9812940EBEC
:108D4D00012BC02A80EA41EE012EC02F80EF412D6C
:108D5D0000EDC1EC812C40E40124C02580E54127C4
:108D6D0000E7C1E68126402200E2C1E3812340E114
:108D7D000121C02080E041A00160C06180A141635C
:108D8D0000A3C1A28162406600A6C1A7816740A56C
:108D9D000165C06480A4416C00ACC1AD816D40AF74
:108DAD00016FC06E80AE41AA016AC06B80AB416994
:108DBD0000A9C1A88168407800B8C1B9817940BBCC
:108DCD00017BC07A80BA41BE017EC07F80BF417DEC
:108DDD0000BDC1BC817C40B40174C07580B54177C4
:108DED0000B7C1B68176407200B2C1B3817340B194
:108DFD000171C07080B041500090C191815140937C
:108E0D000153C052809241960156C05780974155EB
:108E1D000095C1948154409C015CC05D809D415F73
:108E2D00009FC19E815E405A009AC19B815B409913
:108E3D000159C058809841880148C0498089414BEB
:108E4D00008BC18A814A404E008EC18F814F408D6B
:108E5D00014DC04C808C41440084C18581454087C3
:108E6D000147C046808641820142C0438083414113
:078E7D000081C1808140402B
:10A49900500017000000000000000000000000004C
:10A4A900000000430C26000000410C1800410CA9D3
:10A4B9000A41000500026F0000026B0000500027EE
:10A4C9000000000000000000000000000000000083
:10A4D90001730041029C00410CB0004200020000DF
:10A4E900410CAC0042025F000042004B00004202F6
:10A4F900AF00A0410CAB00410CAF004202B200001A
:10A5090041000100410004004102E200410BD20078
:10A51900410CAA0002740000026D00004202B5005D
:10A52900004102B1004102E30041000000410CB1C9
:10A5390000410016004102E10041001400410015EC
:05A54900004102E404E2
:1016A300E4F52DF52CF52BF52A900CCFF075840F6E
:1016B30075FFDE75FFAD12AD3D12AACAC2B4C2B545
:1016C300C2B612002675340175350975363C7B01A7
:1016D3007A0C791612A3B712A292900CA97414F083
:1016E300E49002B1F0900CCBF0A3F0900CCBE0FAB5
:1016F300A3E0FB9002C175F015123FEEEA75F015F9
:10170300A42583F583123F7F000000009002BD757E
:10171300F015EB123FEEEA75F015A42583F583125D
:101723003F7F00000000900CCBE0FAA3E0FB9002A7
:10173300B775F015123FEEEA75F015A42583F5830E
:10174300123F7F000000009002C575F015EB123FB9
:10175300EEEA75F015A42583F583E4F0A3F0900C6D
:10176300CBE0FEA3E0FF9002BB75F015123FEEEE57
:1017730075F015A42583F583E4F0A3F09002CA75F0
:10178300F015EF123FEEEE75F015A42583F583E413
:10179300F09002C975F015EF123FEEEE75F015A447
:1017A3002583F583E4F09002C875F015EF123FEE40
:1017B300EE75F015A42583F583E4F09002C775F068
:1017C30015EF123FEEEE75F015A42583F583E4F0D3
:1017D3009002CB75F015EF123FEEEE75F015A425D0
:1017E30083F583E4F0900CCB75F001123C22900C4E
:1017F300CBE07004A3E0640260030216EEE4900001
:1018030000F012AC1F7F007E9612B0AB12B16F12C4
:10181300AF13E4900276F09002897402F090029282
:10182300744EF07B017A0279E59002851240137AB7
:1018330009793E9002981240137A07791F90028229
:101843001240137A0B79D3900295124013E490025D
:1018530075F090028804F090027F744EF0E49002D9
:101863008AF0A3F0900277F0A3F0900294F0900234
:1018730081F0900293F0900280F01BFAF990028FAE
:1018830012401390028C12401390027C124013906A
:1018930002791240130B7A0279757F007E847D03EF
:1018A3007C001292E9900016E07B017A027988604D
:1018B300067F807E2580047F007EE17D007C001210
:1018C30092E9900016E060247B017A02796590002A
:1018D300471240137A02799D900044124013E4901A
:1018E3000040F0A3F090004AF012B159E4900C19B3
:0C18F300F012A15AD2AF900016E0603550
:1018FF00900CB4123F7F00006978E4FFFEFDFC906E
:10190F000CB4123F37D3123E504017900CB4123F15
:10191F002B74FFFBFAF9F8123CFD900CB4123F73D5
:02192F0080D85E
:101931001284321200A6900CB17401F0E4900C1ADA
:10194100F0900C25F0900C1FF0A3F0900C1DF0A36B
:10195100F0A2DA33900C1CF0900260E024C0FE90FB
:10196100025FE03402900C23F0A3CEF090004BE034
:10197100FCA3E0FD2406FEE43C900C21F0A3CEF094
:10198100ED240AFEE43C900CCDF0A3CEF07B017A6D
:1019910000794D754E00754F037F107E0212A8220B
:1019A1009001F3E0540F900006F09001F3E054F041
:1019B100C4540F900007F0E5D85403700F900C1930
:1019C100E064036007E4F0900C1B8061900006E086
:1019D100FF6403600AEF64076005EF6406705A90C4
:1019E1000C19E064036057E5D85403FFBF0333309B
:1019F100DA307404F0900006E0640660037407F0C6
:101A0100900C1B7404F0900CCF7401F0900260E014
:101A11002458FE90025FE03400900C23F0A3CEF036
:101A2100801CE5D85403FF900C19BF02057402F025
:101A3100800C7401F0A3F08005E4900C19F0E4909F
:101A41000CCBF0A3F090093CE0FEA3E0FF900CCB9F
:101A5100E0FCA3E0FDC39FEC9E5017744D2DF58271
:101A610074003CF583E4F0900CCB75F001123C223C
:101A710080D390029CE06067C390001CE094B89012
:101A8100001BE0940B5058C2B3C2B6C2B5C2B490A9
:101A91000016E06004D2FC8002C2FCE4F54CF54D76
:091AA1007B937D037F021296FC89
:101AAA00900CB8123F7F000A4CB8E4FFFEFDFC9090
:101ABA000CB8123F37D3123E504017900CB8123F61
:101ACA002B74FFFBFAF9F8123CFD900CB8123F7325
:021ADA0080D8B2
:101ADC00C2FF80FE90004BE0FEA3E0FF900CCDE037
:101AEC00B50613A3E0B5070EA37401F0900CCDE47A
:101AFC0075F001123C22900C19E0FF640370403029
:101B0C00DC08900C1B7405F0800E900C1B30DB0570
:101B1C007406F080037404F0900C1FE0FCA3E0FD4D
:101B2C0090025FE06C7003A3E06D6003021D949063
:101B3C000C1AE064086003021D94D2CA021D94EFD3
:0F1B4C006402600B900C19E064046003021D94A6
:101B5B00E4F52E90004BE0FEA3E0FF900CCDE0B53A
:101B6B000613A3E0B5070EA37401F0900CCDE4753A
:101B7B00F001123C2230DB17900C1BE06406700363
:101B8B00021C637406F0900CCF7401F0021C63907E
:101B9B000C1BE0B4063D7404F0900260E02403FEDD
:101BAB0090025FE03400900C23F0A3CEF0A2DAE4B5
:101BBB0033900C1CF0E4900C25F0900CCF04F090BB
:101BCB00004CE02405FE90004BE03400900CCDF06F
:101BDB00A3CEF0900C23E0FEA3E0FF90025FE0FCAD
:101BEB00A3E0FD6F7002EC6E706EA2DA33FF900C07
:101BFB001CE0FE6F702D900C25E0C394025005E0A5
:101C0B0004F08047EE600C900C1BE06404603C74A5
:101C1B0004800A900C1BE0640360307403F0900C9A
:101C2B00CF8025900C1BE0640560097405F0900CC7
:101C3B00CF7401F0900C1CE070047F0180027F00D8
:101C4B00900C1CEFF0900C257401F0ED2458FEE481
:101C5B003C900C23F0A3CEF0900C19E064047003BD
:101C6B00021CEFA3E06004A3E07020900C1B740334
:101C7B00F0900C1A7401F090004CE02405FE9000DB
:101C8B004BE03400900C21F0A3CEF0900C21E0FE41
:101C9B00A3E0FF90004BE0B50619A3E0B507149045
:101CAB000C21E475F00A123C22900C1BE0B40303E8
:101CBB00752E01900C18E0FFC394054009EFD394E7
:101CCB00205003E4F52EE52E601A900C1A7405F0E3
:101CDB00900260E02403FE90025FE03400900C1F42
:101CEB00F0A3CEF0900C1FE0FEA3E0FF90025FE0AC
:101CFB00FCA3E0FD6F7002EC6E6003021D94900C70
:101D0B001AE024FD606124FE6026146060240470D8
:101D1B0078900C1A7403F0900006E0B40605ED24DD
:101D2B00788003ED2428FEE43C900C1FF0A3CEF04A
:101D3B00900C1AE0B4051C7406F0900006E0B40693
:101D4B0005ED24788003ED2428FEE43C900C1FF075
:101D5B00A3CEF0900C19E024FE600824FE6004244E
:101D6B00037026D2CC8022900C1A7404F0900C1ABB
:101D7B00E0B406037401F0900C19E024FE60082413
:091D8B00FE600424037002C2CCC6
:101D9400900014E06062900C18E0FFC394054006C4
:101DA400EFD394204052EF64F0604DEF64F160484B
:101DB400EF64F26043900CCFE0603DE4F0900C1BC4
:101DC400E0FF908C83E493FD3395E0FC90028275F0
:101DD400F013ED123FEEEC75F013A42583F5831296
:101DE400400A900007EF123B63754C00754D017B70
:101DF400297D037F021296FC90027912400AE94A77
:031E04004B602B05
:101E070090027912400A8B2E8A2F89307B007A0044
:101E17007900900279124013AB2EAA2FA930E4FF64
:0B1E27001241A0900CC9EEF0A3EFF0F8
:101E3200900CABE0700302204AE4F09002E2E0F47E
:101E42006003021F14900C19E0FFB40305C2CA021A
:101E52001F07EF64026003021F07900C1BE0B40629
:031E620036D2CCA9
:101E6500900CBC123F7F0001B774E4FFFEFDFC90AF
:101E75000CBC123F37D3123E504017900CBC123F9A
:101E85002B74FFFBFAF9F8123CFD900CBC123F7362
:021E950080D8F3
:0A1E9700C2CC900C1BE064036066EF
:101EA100900CC0123F7F000DBBA0E4FFFEFDFC9033
:101EB1000CC0123F37D3123E504017900CC0123F56
:101EC1002B74FFFBFAF9F8123CFD900CC0123F7322
:021ED10080D8B7
:021ED300D2CC6F
:101ED500900CC4123F7F00112A88E4FFFEFDFC90A0
:101EE5000CC4123F37D3123E504017900CC4123F1A
:101EF5002B74FFFBFAF9F8123CFD900CC4123F73EA
:021F050080D882
:101F0700C2B3C2B6C2B5C2B4C2FF02204A9002E24F
:101F1700E0FF64F07023900C18EFF0E4F574F575AA
:101F270090000574FFF0D2B3D2B6D2B5D2B4C2A82E
:101F370053E7FD53E7BF022045EFB4F10F900C18AC
:101F4700F0C2B3C2B6C2B5C2B4022045EF64F270A4
:101F57002B900C18EFF0D2B3D2B6D2B5D2B4900C06
:101F670017E024FFFD900C16E034FFFCE4FBFFFEB6
:101F770012ABB2E4F58443EF0102204A9002E2E09B
:101F8700FFC394054008EFD394205002D2B69002C5
:101F9700E2E0FFC394054009EFD39426500312668D
:101FA700859002E2E0FFC39405400CEFD3942650DE
:101FB700067E007F0180047E007F00900C18E0FD04
:101FC700C39405400CEDD3942650067C007D018018
:101FD700047C007D00ED6F7002EC6E60599002E2A8
:101FE700E0FFC39405403CEFD39426503612AC1F54
:101FF7001200A6E4900CB0F0900CA9E0FF74A08F3B
:10200700F08475F00AA4FF900260E02401FD9002BD
:102017005FE03400CD2FFEED35F0900002F0A3CE47
:10202700F08013900C18E0FFC394054009EFD39498
:10203700205003129E339002E2E0900C18F0E490D7
:1020470002E2F0900C18E0FFC394055003021A73E4
:10205700EFD394264003021A7390027912400AE9DB
:102067004A4B6003021A73900C28E06003021A734C
:1020770090027C12400AE94A4B6003021A739002ED
:102087009CE0700302237590001CE094B890001B3D
:10209700E0940B4007E490029CF0800690029C7449
:1020A70001F0C3E570940AE56F648094804006757B
:1020B7006F00757009900016E090001D6012E0C473
:1020C700F854F0C8A3E0C4540F4890029BF0803244
:1020D700E0FEA3E0FFEF24FBFFEE34EBFEE434FF6A
:1020E700FDE434FFFCE47BE87A03F9F8123D18E4D9
:1020F7007BE57A24F9F812AFA290029BEFF0E02477
:10210700CEF0900019E0540FFD900017E0540FC473
:10211700F854F0C8E4C4540F482DFF908C83E4931F
:10212700FD3395E0FC90028275F013ED123FEEEC63
:1021370075F013A42583F58312400A900007EF1268
:102147003B6390006375F033E570123FEEE56F7502
:10215700F033A42583F58375F003E56C123FEEE5B4
:102167006B75F003A42583F583E0FF900017A3E0C8
:10217700FEEF2EFF908C83E4933395E0FC90028270
:1021870075F013ED123FEEEC75F013A42583F5837C
:1021970012400A900008EF123B6390006475F03319
:1021A700E570123FEEE56F75F033A42583F583756F
:1021B700F003E56C123FEEE56B75F003A42583F59C
:1021C70083E0FF900019A3E0FEEF2EFF908C83E4DD
:1021D700933395E0FC90028275F013ED123FEEEC1D
:1021E70075F013A42583F58312400A900009EF12B6
:1021F7003B63E5D8F4FF90028275F013ED123FEED2
:10220700EC75F013A42583F58312400A90000AEFBA
:10221700123B63900264E0FF900025E0FEA3E0A874
:1022270007088005CEC313CE13D8F9FF908C83E43B
:1022370093FD3395E0FC90028275F013ED123FEEAB
:10224700EC75F013A42583F58312400A90000BEF79
:10225700123B63900263E0FF900023E0FEA3E0A837
:1022670007088005CEC313CE13D8F9FF908C83E4FB
:1022770093FD3395E0FC90028275F013ED123FEE6B
:10228700EC75F013A42583F58312400A90000CEF38
:10229700123B63900262E0FF900021E0FEA3E0A8FA
:1022A70007088005CEC313CE13D8F9FF908C83E4BB
:1022B70093FD3395E0FC90028275F013ED123FEE2B
:1022C700EC75F013A42583F58312400A90000DEFF7
:1022D700123B63900261E0FF90001FE0FEA3E0A8BD
:1022E70007088005CEC313CE13D8F9FF908C83E47B
:1022F70093FD3395E0FC90028275F013ED123FEEEB
:10230700EC75F013A42583F58312400A90000EEFB5
:10231700123B6390025DE0A3FF90028275F013ED1C
:10232700123FEEEC75F013A42583F58312400A9053
:10233700000FEF123B6390025DA3E0FF90028275EE
:10234700F013ED123FEEEC75F013A42583F583121D
:10235700400A900010EF123B63754C00754D0A7BE5
:10236700927D037F021296FC128A0F021A73900263
:0A23770094E0FF900293E06F606DA8
:10238100EF75F0DCA4FF90029812400AE92FF9EAF8
:1023910035F08B2EF52F8930900294E0FFB40204C2
:1023A1007F008003EF04FF900294EFF090029BE026
:1023B100FF90006175F033E570123FEEE56F75F047
:1023C10033A42583F583EFF0AE6FAF707C007D33CE
:1023D100123B85744D2FF974003E753401F5358932
:0A23E10036AB2EAA2FA930124B04D0
:1023EB00021A73900CB0E0FD7017900002E0FEA390
:1023FB00E0FF90025FE06E7003A3E06F6003021AD0
:10240B0073900CA9E0FF74A08FF08475F00AA4FF01
:10241B00900260E02401FB90025FE03400CB2FFEC2
:10242B00EB35F0900002F0A3CEF0ED702C90001580
:10243B00E06017900CB07401F0900CAF7406F09044
:10244B0002B2E4F0A374C8F08005E4900CAFF090F6
:10245B00000274FFF5F0123C229002E4E0FA7003E4
:10246B00022548900C18E0FFC39405500302254841
:10247B00EFD394204003022548900CB0E070030288
:10248B002617900C19E0FBB4030DA3E0640870034E
:10249B0002253274088075EB7003022532900C18FC
:1024AB00E0FFC394055003022532EFD394205077FD
:1024BB00900C1BE06406606F900CA9E0B428209090
:1024CB000C19E0B40414900006E0900CC8B4060597
:1024DB007423F0802B7410F08026900CC88016901B
:1024EB000C19E0B40414900006E0900CC8B4060577
:1024FB00740CF0800B7406F08006900CC87404F01A
:10250B00900CC8E0B50220900C1A7402F0900C1DD0
:10251B00E0FEA3E0FF900260E02FFF90025FE03E41
:07252B00900C1FF0A3EFF07C
:102532009002E4E014F06003022617F56BF56CF5E7
:062542006FF57002261780
:10254800900CAFE0FF908C83E493FD3395E0FC9012
:10255800028275F013ED123FEEEC75F013A425839B
:10256800F58312400A900007EF123B639002B2E035
:10257800A3FF90028275F013ED123FEEEC75F01395
:10258800A42583F58312400A900008EF123B63905C
:1025980002B2A3E0FF90028275F013ED123FEEEC59
:1025A80075F013A42583F58312400A900009EF12F1
:1025B8003B63900C1BE0FF90028275F013ED123F15
:1025C800EEEC75F013A42583F58312400A90000AF7
:1025D800EF123B63754C00754D047B277D037F022A
:1025E8001296FCE4F52EF52FD390093DE0952F9037
:1025F800093CE0952E4018744D252FF5827400355E
:0F2608002EF583E4F0052FE52F70DD052E80D928
:10261700E4900CB0F09002E3F0900CAFE06007B2EA
:0B262700B5E4F0021A73C2B5021A738A
:109E3300C2B6C2B5900C19E0B40309C2CAA3740731
:0C9E4300F0029FD1900C1AE064037071D3
:109E4F00900CD0123F7F00015F90E4FFFEFDFC906D
:109E5F000CD0123F37D3123E504017900CD0123F08
:109E6F002B74FFFBFAF9F8123CFD900CD0123F73E4
:029E7F0080D889
:039E8100E4F5C83D
:109E8400900CD4123F7F00020F58E4FFFEFDFC90BB
:109E94000CD4123F37D3123E504017900CD4123FCB
:109EA4002B74FFFBFAF9F8123CFD900CD4123F73AB
:029EB40080D854
:109EB600900C1A7401F0A37404F0900C19E0640479
:0A9EC6007073900C1BE06406706BD3
:109ED000900CD8123F7F00015F90E4FFFEFDFC90E4
:109EE0000CD8123F37D3123E504017900CD8123F77
:109EF0002B74FFFBFAF9F8123CFD900CD8123F735B
:029F000080D807
:029F0200D2CCBF
:109F0400900CDC123F7F001339E0E4FFFEFDFC906F
:109F14000CDC123F37D3123E504017900CDC123F3A
:109F24002B74FFFBFAF9F8123CFD900CDC123F7322
:029F340080D8D3
:109F3600C2CC029FCB900C19E0B40208900C1BE037
:109F46006406600E900C19E064026079A3E0640474
:029F5600707326
:109F5800900CE0123F7F00015F90E4FFFEFDFC9053
:109F68000CE0123F37D3123E504017900CE0123FDE
:109F78002B74FFFBFAF9F8123CFD900CE0123F73CA
:029F880080D87F
:0D9F8A00900C19E024FE6003047036D2CC68
:109F9700900CE4123F7F0001B774E4FFFEFDFC90D4
:109FA7000CE4123F37D3123E504017900CE4123F97
:109FB7002B74FFFBFAF9F8123CFD900CE4123F7387
:029FC70080D840
:109FC900C2CC900C1A7401F0900C19E06403600380
:049FD900E4F5C822C1
:1066850090025FE0F533A3E0F534E4F56FF570F5BE
:106695006BF56C900CAFF0A3F090093CE0FEA3E025
:1066A500FF7B017A00794D754E00754F0112A822C6
:1066B500900BD2E024FC60542402600302675E90D4
:1066C5000CA97414F0900C19E024FE601524FE60EA
:1066D5001C0460030267B1900C1D7401F0A37420C3
:1066E5008054900C1DE4F0A374F002678D900C1D8E
:1066F500E4F0A37408F0900006E09002E4B4060606
:106705007413F00267B1740AF00267B1900CA974B2
:1067150028F0900C19E024FE601424FE601E04602D
:10672500030267B1900C1DE4F0A374908008900CEF
:106735001DE4F0A374A4F09002E4806D900C1DE4B8
:10674500F0A37408F0900006E09002E4B406057426
:1067550023F080587410F08053900CA9740AF090BF
:106765000C19E024FE601824FE602604703E900C8F
:106775001DE4F0A374A0F09002E47401F0802D9064
:106785000C1D7402F0A37434F09002E47404F080DC
:106795001B900C1DE4F0A37408F0900006E0900235
:1067A500E4B40605740CF080037406F0900CAAE0BE
:1067B5009002B1F09002ADE0FCA3E0FD4C700890B2
:1067C500000AF0A3F080679002B4E0701E123786CD
:1067D500A804A905AA06AB07E4FFFE7D7A7C48124A
:1067E50036661237BF7C007DF080389002B4E0B485
:1067F5000F037410F09002ADE0FCA3E0FDE4123746
:1068050086A804A905AA06AB07E4FFFE7D7A7C48A5
:106815001236661237BF9002B4E0FD74788DF084AD
:10682500FD7C00123B8590000AEEF0A3EFF0E5D861
:10683500540370079002B1F0026B3F7B017A007937
:106845004D754E00754F037F107E0212A822900CE5
:1068550019E0B4040D900006E06406600F7407F0BB
:10686500800A9001F3E0540F900006F09001F3E0E8
:1068750054F0C4540F900007F0E4F531F532900060
:106885006575F028E532123FEEE53175F028A4254F
:1068950083F583E024FB601524FB702274612532A7
:1068A500F58274023531F5837403F0802074612517
:1068B50032F58274023531F5837402F0800F74610C
:1068C5002532F58274023531F5837404F00532E51D
:1068D50032700205316404453170A3E4F531F532B7
:1068E50090007275F028E532123FEEE53175F0281B
:1068F500A42583F583E0FDE53225E0FFE53133FE90
:10690500740D2FF58274003EF583EDF090006675E9
:10691500F028E532123FEEE53175F028A42583F520
:1069250083123F3790006A75F028E532123FEEE595
:106935003175F028A42583F583123F2B123468C0E6
:1069450004C005C006C00790006675F028E5321240
:106955003FEEE53175F028A42583F583123F379086
:10696500006E75F028E532123FEEE53175F028A48A
:106975002583F583123F2B123468D003D002D00152
:10698500D000123666E4FBFAF9F812370390006678
:1069950075F02860054003026A1DE532123FEEE5F9
:1069A5003175F028A42583F583123F3790006A7569
:1069B500F028E532123FEEE53175F028A42583F580
:1069C50083123F2B123468C004C005C006C007906F
:1069D500006675F028E532123FEEE53175F028A422
:1069E5002583F583123F3790006E75F028E5321246
:1069F5003FEEE53175F028A42583F583123F2B1270
:106A05003468D003D002D001D000123666C004C06D
:106A150005C006C007026AA3E532123FEEE53175EF
:106A2500F028A42583F583123F3790006A75F02876
:106A3500E532123FEEE53175F028A42583F5831282
:106A45003F2B123468C004C005C006C0079000661D
:106A550075F028E532123FEEE53175F028A425835F
:106A6500F583123F3790006E75F028E532123FEE40
:106A7500E53175F028A42583F583123F2B12346880
:106A8500D003D002D001D000123666123770AB07A2
:106A9500AA06A905A804C000C001C002C003900051
:106AA5007375F028E532123FEEE53175F028A4251F
:106AB50083F583E0FF90007475F028E532123FEE10
:106AC500E53175F028A42583F583E0C39FFDE494A3
:106AD50000FCE4123786D003D002D001D000123575
:106AE5005DC004C005C006C00790007375F028E5B9
:106AF50032123FEEE53175F028A42583F583E0FCDD
:106B0500E412378BD003D002D001D00012346C12BE
:106B150037BFAD07E53225E0FFE53133FE740C2FB5
:106B2500F58274003EF583EDF00532E5327002051D
:106B3500316404453160030268E59002B1E030E755
:106B4500034403F0E4F531F532D390093DE0953285
:106B550090093CE095314018744D2532F58274005A
:106B65003531F583E4F00532E53270DD053180D944
:016B750022FD
:098A0F009002B1E07003028C4CEE
:038A1800753106AF
:108A1B00AF319002B1E0FEA807088002C313D8FC67
:108A2B0020E003028C3EE5311240A58BB1008BA8F0
:108A3B00018A99028A99038A57048A57058A4F0635
:108A4B0000008C3EE5D8F4F532028C3EAF31EF33AB
:108A5B0095E0FEEF25E0FFEE33FE741B2FF58274DD
:108A6B00003EF583E0FEA3E0FFAD31ED3395E0FC76
:108A7B00745F2DF58274023CF583E0FDEFA80508C9
:0E8A8B008005CEC313CE13D8F9F532028C3E0F
:108A9900E4F533AF31EF3395E0FEEF25E0FFEE3338
:108AA900FE741B2FF58274003EF583E0FEA3E0FF00
:108AB900AD31ED3395E0FC745F2DF58274023CF520
:108AC90083E0FBEFA803088005CEC313CE13D8F9C2
:108AD900F53274042DF58274003CF583E06402607C
:108AE90003028C3EAF31EF3395E0FEEF25E0FFEE58
:108AF90033FE74092FF58274003EF583E060230488
:108B0900604624FE706A74082FF58274003EF5836E
:108B1900E0FFE532D39F40047F0180027F008F335D
:108B2900804EAF31EF3395E0FEEF25E0FFEE33FEE7
:108B390074082FF58274003EF583E0B532047F0195
:108B490080027F008F338028AF31EF3395E0FEEF4D
:108B590025E0FFEE33FE74082FF58274003EF5839D
:108B6900E0FFE532C39F50047F0180027F008F330D
:108B7900E5336015E5312402FF7401A80708800276
:108B8900C333D8FC42C8028C3EE5312402FF74018C
:0F8B9900A807088002C333D8FCF452C8028C3EF0
:098BA80090025DE0F532028C3E02
:108BB10090025DE0FEA3E0FFF53290000AE0FCA325
:108BC100E0FD4C6078EF4E6074D3ED9FEC9E503821
:108BD100E4F533F53474062534F58274003533F544
:108BE10083E0B40113E5342404FF7401A80708806D
:108BF10002C333D8FCF452C80534E534700205339E
:108C01006402453370CF8035E4F533F534740625BD
:108C110034F58274003533F583E0B40112E5342470
:108C210004FF7401A807088002C333D8FC42C805B9
:0D8C310034E534700205336402453370D021
:0E8C3E001531C3E531648094804003028A1B27
:018C4C002205
:10B15900AF84E4F58475C04475CFEC43C040C2C3E5
:05B1690043E6028F84A3
:01B16E0022BE
:03003B000298CA5E
:1098CA00C0E0C083C082C0D075D000C000C001C053
:0798DA0002C003C006C00735
:1098E100C200AFC1EF1240A5992F08992F109950CE
:1098F10018997E20995028997E3099ED38998540A4
:1099010099804899855099BE5899F26099F2709A58
:1099110000809A4D889A00909A4D989A7FA09A510A
:10992100A89A51B89A65C09A7FC8000099ED900035
:109931003FE0F5C290004AE4F053C2FEA20C33426C
:10994100C2C2C5900041E4F0900040F0029A7F90BD
:109951000042E0FF900040E0FEC39F501990004498
:1099610012400A8E82758300123AF1F5C2900040CE
:10997100E004F0029A7FD2C4C20B029A7FD2C5D210
:10998100C5029A7F900041E0601624FFFFE434FF96
:10999100FE90004712400A8F828E83E5C2123B631C
:1099A100900041E004F0900043E0FF900041E0C3EB
:1099B1009F5005D2C2029A7FC2C2029A7F90004193
:1099C100E024FFFFE434FFFE90004712400A8F823B
:1099D1008E83E5C2123B63900041E004F090004A9F
:1099E1007401F0D2C4C20BD2C2029A7FD200029A91
:1099F1007F90004AE4F0900040F0A3F0029A7F903B
:109A01000041E0FF700D900043E5C2F090004AE490
:109A1100F08017EF24FFFFE434FFFE90004712406F
:109A21000A8F828E83E5C2123B63900041E004F00D
:109A3100900043E0FF900041E0D39F400B90004A2B
:109A41007401F0900041E4F0D2C28032D2C2802E83
:109A510090004412400A900040E0FF04F08F8275AC
:109A610083008015900040E024FFFFE434FFFE9066
:109A7100004412400A8F828E83123AF1F5C23000FF
:109A81001053C0BF43C040C2C5C2C4C2C2C20BC290
:039A910000C2C34D
:109A9400D007D006D003D002D001D000D0D0D082DD
:059AA400D083D0E03288
:10B14000AF84E4F584D2C6200BFDD20BC20C900074
:08B150003FE0F5C3D2C58F8476
:01B1580022D4
:10B12400AF84E4F584D2C6200BFDD20BD20C900080
:0BB134003FE0F5C3D2C5200BFD8F8467
:01B13F0022ED
:03A54E000119FFF1
:10AACA00AF8475840F75E1EF75E20775E34475A4E9
:10AADA00157580EA75ADFF75A53D759001E4F5A67B
:10AAEA0075A0FFF59E75E8FFE5E854E0FEBEC004D8
:10AAFA007E0180027E00900016EEF0600875B07943
:10AB0A0075A7FE800675B07E75A7F8E4F5C8759C32
:10AB1A00FFF59D75D8FF900016E0FE600875F8975E
:10AB2A00759FF78006759FFF75F8F7EE6006C2FC01
:08AB3A00D2FB8002D2FC8F84E3
:01AB420022F0
:10AF1300AF84E4F584F5D875D980F5F9F5FAF5E948
:10AF230075EA0C75DC4675D840900CADF0A3F09033
:10AF3300025DF0A3F0F584C28C758905438E08F594
:10AF43008AF58CC28DD28C758401758880758930A1
:07AF5300D2A943E6308F8410
:01AF5A0022D4
:0DB16F00AF84E4F584C289D288D2A88F8411
:01B17C0022B0
:03005B00029FDD24
:109FDD00C0E0C0F0C083C082C0D075D000C000C04A
:0D9FED0001C002C003C004C005C006C007CB
:109FFA0053E6CF758400AF8CEFFEAD8A7C00E42D6A
:10A00A00F525EC3EF524900CADE0FEA3E0FFC3E598
:10A01A00259FFFE5249EFED3EF9464EE940050033F
:10A02A0002A136C28C758A00758C00C28DD28CE56D
:04A03A0019F4704164
:10A03E00F519F526AE24AF25E52625E02437F58261
:10A04E00E43400F583EEF0A3EFF0E4FCFDE51D2F04
:10A05E00FFE51C3EFEED351BFDEC351A8F1D8E1CEB
:0EA06E008D1BF51A0526E526B404C990025D87
:10A07C0002A1280519E519C394044003751900E5DC
:10A08C001925E02437F582E43400F583E0FEA3E0E3
:10A09C00FBC3E51D9BFFE51C9EFEE51B9400FDE547
:10A0AC001A94008F1D8E1C8D1BF51AAE24AF25E55E
:10A0BC001925E02437F582E43400F583EEF0A3EFA4
:10A0CC00F0E4FCFDE51D2FFFE51C3EFEED351BFD10
:10A0DC00EC351A8F1D8E1C8D1BF51AE47B04FAF9D6
:10A0EC00F8AC1A123DA38E248F25C390025EE09526
:10A0FC0025FF90025DE09524FEC394004006AC065B
:10A10C00AD078009C3E49FFFE49EFCAD0790025DA0
:10A11C00E0C313FFC3ED9FEC94004007E524F0A3CC
:10A12C00E525F0900CADE4F0A3F07584015388CFD5
:03A13C0043E630C7
:10A13F00D007D006D005D004D003D002D001D00074
:0BA14F00D0D0D082D083D0F0D0E0321E
:0300530002AF5B9E
:10AF5B00C0E0C083C082C0D075D000C004C005C0A3
:10AF6B0006C00753E6CF758400AF8CEFFEAD8A7C2D
:10AF7B0000E42DFFEC3E900CADF0A3EFF0758401D7
:10AF8B005388CF43E630D007D006D005D004D0D0BD
:07AF9B00D082D083D0E03228
:03000B0002AFE65B
:10AFE600C0E0C083C08253E6CF758400C28C758AE8
:10AFF60000758C00D28C900CADE4F0A3F090025D4D
:10B00600F0A3F07584015388CF43E630D082D08315
:03B01600D0E03255
:0300030002A9D17E
:10A9D100C0E0C0F0C083C082C0D075D000C000C04C
:09A9E10003C004C005C006C00754
:10A9EA00A2AFE433FB900CB07401F0900CA9E0FD27
:10A9FA007C007E057F00123B978E718F7275730003
:10AA0A007F10900027E4F0A3DFFCC2AF53E7FE7586
:10AA1A008400C2ECC2ED75BB0075840175C8007470
:0EAA2A00FFF5CDF5CC43E70143C8042B92AFF6
:10AA3800D007D006D005D004D003D000D0D0D08223
:07AA4800D083D0F0D0E03212
:10B04C0001120101060101020100000001000000D3
:10B05C000C00000077000004A900002E9B0001D218
:10B06C00090012345600B60B61071C71C7471C71DE
:01B07C00C70C
:04A55100410DDF00D9
:1084320090029512400A8B378A388939900294E06B
:10844200900293F0E4F531F532F536F535F534F571
:1084520033AB37AA38A9390532E532AE317002059D
:1084620031142406F582E43EF58374FA123B630567
:1084720032E532AE3170020531142406F582E43E53
:10848200F583E4123B630532E532AE317002053109
:10849200142406F582E43EF5837401123B6305322F
:1084A200E532AE3170020531142406F582E43EF560
:1084B20083E4123B630532E532AE317002053114BA
:1084C2002406F582E43EF5837401123B630532E52E
:1084D20032AE3170020531142406F582E43EF58392
:1084E200E4123B63AD32AC317F087E0612A57F9069
:1084F200028AE07002A3E070F690025FE0F531A319
:10850200E0F532900294E0FF900293E0B507137811
:1085120033123F537B407A4B794C7800D3123E663C
:1085220050E1900294E0FF900293E06F70030284A6
:1085320046E4F531F532AB37AA38A9390532E532CE
:10854200AE3170020531142406F582E43EF58374DF
:1085520001123B630532E532AE317002053114245B
:1085620006F582E43EF583E4123B630532E532AE62
:108572003170020531142406F582E43EF583E412DB
:108582003B630532E532AE3170020531142406F543
:1085920082E43EF583E4123B630532E532AE31708C
:1085A200020531142406F582E43EF58374C0123BC1
:1085B200630532E532AE3170020531142406F582CC
:1085C200E43EF5837408123B630532E532AE317046
:1085D200020531142406F582E43EF583E4123B637E
:1085E2000532E532AE3170020531142406F582E41B
:1085F2003EF583E4123B63E92406F9E43AFAE925FD
:1086020032F9EA3531FA123FB000E1000074042574
:1086120032F532E43531F531AB37AA38A9390532B2
:10862200E532AE3170020531142406F582E43EF5DE
:10863200837401123B630532E532AE3170020531BB
:10864200142406F582E43EF583E4123B630532E529
:1086520032AE3170020531142406F582E43EF58310
:108662007401123B630532E532AE317002053114FA
:108672002406F582E43EF583E4123B630532E532DB
:10868200AE3170020531142406F582E43EF583E42E
:10869200123B630532E532AE317002053114240615
:1086A200F582E43EF583E4123B630532E532AE31F6
:1086B20070020531142406F582E43EF583E4123B90
:1086C200630532E532AE3170020531142406F582BB
:1086D200E43EF583E4123B63AD32AC317F007E06AB
:0D86E20012A57F90028AE07002A3E070F6FE
:1086EF00900CD0123F7F000008CAE4FFFEFDFC9003
:1086FF000CD0123F37D3123E504017900CD0123F80
:10870F002B74FFFBFAF9F8123CFD900CD0123F735B
:02871F0080D800
:108721007B017A0279887F007EE17D007C001292D4
:01873100E95E
:10873200900CD4123F7F00004650E4FFFEFDFC90F7
:108742000CD4123F37D3123E504017900CD4123F34
:108752002B74FFFBFAF9F8123CFD900CD4123F7314
:0287620080D8BD
:0187640022F2
:1000A60078F07C0C7D017BFF7AB0794C7E007F096D
:1000B600123AB290029512400A8B498A4A894B90AD
:1000C6000016E0700302021C900294E0900293F086
:1000D600E4F548E4F546F547E54875F003A424F051
:1000E600F582E4340CF583E0FFAB49AA4AA94B0537
:1000F60047E547AC4670020546142406F582E43C03
:10010600F583EF123B63E54875F003A424F0F5820E
:10011600E4340CF583A3E0FF0547E547AC467002DF
:100126000546142406F582E43CF583EF123B63E5AD
:100136004875F003A424F2F582E4340CF583E0FF5D
:100146000547E547AC4670020546142406F582E4E9
:100156003CF583EF12A57490028AE07002A3E0706A
:10016600F6900294E0FF900293E0B507120547E58A
:1001760047AE467002054614FFBE27E5BF10E29063
:10018600029812400A900294E0FF75F0DCA4F58212
:1001960085F083123C79F54785F046EFB402047F7B
:1001A600008006900294E004FF900294EFF0E54789
:1001B60064017004E5466405600C900294E0FF90CB
:0601C6000293E0B507B949
:1001CC00900CD0123F7F00001194E4FFFEFDFC90D8
:1001DC000CD0123F37D3123E504017900CD0123F28
:1001EC002B74FFFBFAF9F8123CFD900CD0123F7304
:0201FC0080D8A9
:1001FE00E54764017004E546640560030200D90515
:10020E0048E548C3940350030200D9020DE4E4F517
:10021E0046F547AB49AA4AA94B0547E547AE467096
:10022E00020546142406F582E43EF5837401123B62
:10023E00630547E547AE4670020546142406F5826F
:10024E00E43EF5837402123B630547E547AE467004
:10025E00020546142406F582E43EF583E4123B6360
:10026E000547E547AE4670020546142406F582E4BE
:10027E003EF5837401123B630547E547AE467002B7
:10028E000546142406F582E43EF583E4123B63052D
:10029E0047E547AE4670020546142406F582E43E55
:1002AE00F583E4123B630547E547AE46700205460B
:1002BE00142406F582E43EF5837401123B63054770
:1002CE00E547AE4670020546142406F582E43EF577
:1002DE00837401123B630547E547AE46700205463F
:1002EE00142406F582E43EF583E4123B630547E5EC
:1002FE0047AE4670020546142406F582E43EF583A9
:10030E00E4123B630547E547AE46700205461424EA
:10031E0006F582E43EF583E4123B630547E547AEFE
:10032E004670020546142406F582E43EF583E41277
:10033E003B630547E547AE4670020546142406F5B5
:10034E0082E43EF5837401123B630547E547AE46F2
:10035E0070020546142406F582E43EF583740612F7
:10036E003B630547E547AE4670020546142406F585
:10037E0082E43EF583E4123B630547E547AE4670E3
:10038E00020546142406F582E43EF5837401123B01
:10039E00630547E547AE4670020546142406F5820E
:1003AE00E43EF583E4123B630547E547AE46700233
:1003BE000546142406F582E43EF583E4123B6305FC
:1003CE0047E547AE4670020546142406F582E43E24
:1003DE00F5837401123B630547E547AE467002058F
:1003EE0046142406F582E43EF5837412123B63052F
:1003FE0047E547AE4670020546142406F582E43EF4
:10040E00F583E4123B630547E547AE4670020546A9
:10041E00142406F582E43EF5837401123B6305470E
:10042E00E547AE4670020546142406F582E43EF515
:10043E0083E4123B630547E547AE4670020546145A
:10044E002406F582E43EF583E4123B630547E54757
:10045E00AE4670020546142406F582E43EF583741A
:10046E0001123B630547E547AE467002054614246C
:10047E0006F582E43EF5837403123B630547E547B8
:10048E00AE4670020546142406F582E43EF583E47A
:10049E00123B630547E547AE467002054614240637
:1004AE00F582E43EF583E4123B630547E547AE462D
:1004BE0070020546142406F582E43EF583E4123BF1
:1004CE00630547E547AE4670020546142406F582DD
:1004DE00E43EF583E4123B630547E547AE46700202
:1004EE000546142406F582E43EF5837401123B633F
:1004FE000547E547AE4670020546142406F582E42C
:10050E003EF5837430123B630547E547AE467002F5
:10051E000546142406F582E43EF583E4123B63059A
:10052E0047E547AE4670020546142406F582E43EC2
:10053E00F583E4123B630547E547AE467002054678
:10054E00142406F582E43EF583E4123B630547E589
:10055E0047AE4670020546142406F582E43EF58346
:10056E00E4123B630547E547AE4670020546142488
:10057E0006F582E43EF5837401123B630547E547B9
:10058E00AE4670020546142406F582E43EF58374E9
:10059E0004123B630547E547AE4670020546142438
:1005AE0006F582E43EF583E4123B630547E547AE6C
:1005BE004670020546142406F582E43EF583E412E5
:1005CE003B630547E547AE4670020546142406F523
:1005DE0082E43EF583E4123B630547E547AE467081
:1005EE00020546142406F582E43EF583E4123B63CD
:1005FE000547E547AE4670020546142406F582E42B
:10060E003EF5837401123B630547E547AE46700223
:10061E000546142406F582E43EF5837420123B63EE
:10062E000547E547AE4670020546142406F582E4FA
:10063E003EF583E4123B630547E547AE467002057F
:10064E0046142406F582E43EF583E4123B63054727
:10065E00E547AE4670020546142406F582E43EF5E3
:10066E0083E4123B630547E547AE4670020546122A
:10067E00A56A90028AE07002A3E070F6900294E000
:10068E00FF900293E06F60F490029812400A90027D
:10069E0094E0FF75F0DCA4F58285F083123C79F5C9
:1006AE004785F046EFB402047F008006900294E086
:1006BE0004FF900294EFF0E54764017004E5466490
:0F06CE0005600C900294E0FF900293E0B507B92D
:1006DD00900CD4123F7F00002328E4FFFEFDFC9018
:1006ED000CD4123F37D3123E504017900CD4123F0A
:1006FD002B74FFFBFAF9F8123CFD900CD4123F73EA
:02070D0080D892
:10070F00E54764017004E5466405600302021CE4DA
:10071F00F546F547AB49AA4AA94B0547E547AE460B
:10072F0070020546142406F582E43EF58374011227
:10073F003B630547E547AE4670020546142406F5B0
:10074F0082E43EF5837411123B630547E547AE46DD
:10075F0070020546142406F582E43EF583E4123B4D
:10076F00630547E547AE4670020546142406F58239
:10077F00E43EF583E4123B630547E547AE4670025E
:10078F000546142406F582E43EF583E4123B630527
:10079F0047E547AE4670020546142406F582E43E4F
:1007AF00F583E4123B630547E547AE467002054605
:1007BF00142406F582E43EF5837401123B6305476A
:1007CF00E547AE4670020546142406F582E43EF571
:1007DF00837421123B630547E547AE467002054619
:1007EF00142406F582E43EF583E4123B630547E5E6
:1007FF0047AE4670020546142406F582E43EF583A3
:10080F00E4123B630547E547AE46700205461424E4
:10081F0006F582E43EF583E4123B630547E547AEF8
:10082F004670020546142406F582E43EF583E41271
:10083F003B630547E547AE4670020546142406F5AF
:10084F0082E43EF5837401123B630547E547AE46EC
:10085F0070020546142406F582E43EF583742212D5
:10086F003B630547E547AE4670020546142406F57F
:10087F0082E43EF583E4123B630547E547AE4670DD
:10088F00020546142406F582E43EF583E4123B6329
:10089F000547E547AE4670020546142406F582E487
:1008AF003EF583E4123B630547E547AE467002050C
:1008BF0046142406F582E43EF583E4123B630547B4
:1008CF00E547AE4670020546142406F582E43EF570
:1008DF0083740A123B630547E547AE46700205462F
:1008EF00142406F582E43EF5837407123B63054733
:1008FF00E547AE4670020546142406F582E43EF540
:10090F0083E4123B630547E547AE46700205461484
:10091F002406F582E43EF583E4123B630547E54781
:10092F00AE4670020546142406F582E43EF583E4D4
:10093F00123B630547E547AE467002054614240691
:10094F00F582E43EF583E4123B630547E547AE4687
:10095F0070020546142406F582E43EF583740A12EC
:10096F003B630547E547AE4670020546142406F57E
:10097F0082E43EF5837408123B630547E547AE46B4
:10098F0070020546142406F582E43EF583E4123B1B
:10099F00630547E547AE4670020546142406F58207
:1009AF00E43EF583E4123B630547E547AE4670022C
:1009BF000546142406F582E43EF583E4123B6305F5
:1009CF0047E547AE4670020546142406F582E43E1D
:1009DF00F583E4123B630547E547AE4670020546D3
:1009EF00142406F582E43EF583740A123B6305472F
:1009FF00E547AE4670020546142406F582E43EF53F
:100A0F00837402123B630547E547AE467002054605
:100A1F00142406F582E43EF583E4123B630547E5B3
:100A2F0047AE4670020546142406F582E43EF58370
:100A3F00E4123B630547E547AE46700205461424B2
:100A4F0006F582E43EF583E4123B630547E547AEC6
:100A5F004670020546142406F582E43EF583E4123F
:100A6F003B630547E547AE4670020546142406F57D
:100A7F0082E43EF583740A123B630547E547AE46B1
:100A8F0070020546142406F582E43EF583740912BC
:100A9F003B630547E547AE4670020546142406F54D
:100AAF0082E43EF583E4123B630547E547AE4670AB
:100ABF00020546142406F582E43EF583E4123B63F7
:100ACF000547E547AE4670020546142406F582E455
:100ADF003EF583E4123B630547E547AE46700205DA
:100AEF0046142406F582E43EF583E4123B63054782
:100AFF00E547AE4670020546142406F582E43EF53E
:100B0F0083740A123B630547E547AE4670020546FC
:100B1F00142406F582E43EF5837401123B63054706
:100B2F00E547AE4670020546142406F582E43EF50D
:100B3F0083E4123B630547E547AE46700205461452
:100B4F002406F582E43EF583E4123B630547E5474F
:100B5F00AE4670020546142406F582E43EF583E4A2
:100B6F00123B630547E547AE46700205461424065F
:100B7F00F582E43EF583E4123B630547E547AE4655
:100B8F0070020546142406F582E43EF583740A12BA
:100B9F003B630547E547AE4670020546142406F54C
:100BAF0082E43EF5837403123B630547E547AE4687
:100BBF0070020546142406F582E43EF583E4123BE9
:100BCF00630547E547AE4670020546142406F582D5
:100BDF00E43EF583E4123B630547E547AE467002FA
:100BEF000546142406F582E43EF583E4123B6305C3
:100BFF0047E547AE467002054612A56A90028AE0A5
:100C0F007002A3E070F6900294E0FF900293E06F01
:100C1F0060F490029812400A900294E0FF75F0DCA5
:100C2F00A4F58285F083123C79F54785F046EFB441
:100C3F0002047F008006900294E004FF900294EF7C
:100C4F00F0E54764017004E5466405600C9002947A
:090C5F00E0FF900293E0B507B933
:100C6800900CD8123F7F00002328E4FFFEFDFC9083
:100C78000CD8123F37D3123E504017900CD8123F71
:100C88002B74FFFBFAF9F8123CFD900CD8123F7355
:020C980080D802
:100C9A00E54764017004E5466405600302071EE443
:100CAA00F546F547AB49AA4AA94B0547E547AE467B
:100CBA0070020546142406F582E43EF58374FA129E
:100CCA003B630547E547AE4670020546142406F520
:100CDA0082E43EF583E4123B630547E547AE46707E
:100CEA00020546142406F582E43EF5837401123B9C
:100CFA00630547E547AE4670020546142406F582A9
:100D0A00E43EF583E4123B630547E547AE467002CD
:100D1A000546142406F582E43EF5837401123B630A
:100D2A000547E547AE4670020546142406F582E4F7
:100D3A003EF583E4123B637F0812A57990028AE0AC
:100D4A007002A3E070F6900294E0FF900293E06FC5
:100D5A0060F490029812400A900294E0FF75F0DC69
:100D6A00A4F58285F083123C79F54785F046EFB405
:100D7A0002047F008006900294E004FF900294EF40
:100D8A00F0E54764017004E5466405600C9002943E
:090D9A00E0FF900293E0B507B9F7
:100DA300900CDC123F7F00001194E4FFFEFDFC90E9
:100DB3000CDC123F37D3123E504017900CDC123F2D
:100DC3002B74FFFBFAF9F8123CFD900CDC123F7315
:020DD30080D8C6
:0F0DD500E54764017004E54664056003020CA95C
:100DE400900CA9E0FBE4FAF9F87F807E967D98FCEC
:100DF40012AFA28F4F8E4E8D4D8C4C7808123E77D9
:100E0400E4FFE4FDFCC004C005C006C007AF4FAE5C
:100E14004EAD4DAC4C7818123E77E4FEFDFCD00389
:100E2400D002D001D000123E35C004C005C006C0B7
:100E340007AF4FAE4EAD4DAC4C7808123E8AE4FF7E
:100E4400FEE4FCD003D002D001D000123E35C00431
:100E5400C005C006C007AF4FAE4EAD4DAC4C7818C0
:100E6400123E8AE4FFFEFDECD003D002D001D00094
:100E7400123E35AB49AA4AA94B900006123F07E43B
:100E8400754F0AF54EF54DF54CAF4FAE4EAD4DAC2A
:100E94004C7808123E77E4FFE4FDFCC004C005C0B2
:100EA40006C007AF4FAE4EAD4DAC4C7818123E772E
:100EB400E4FEFDFCD003D002D001D000123E35C0C8
:100EC40004C005C006C007AF4FAE4EAD4DAC4C7864
:100ED40008123E8AE4FFFEE4FCD003D002D001D025
:100EE40000123E35C004C005C006C007AF4FAE4E69
:100EF400AD4DAC4C7818123E8AE4FFFEFDECD003F5
:100F0400D002D001D000123E35AB49AA4AA94B9079
:100F1400000A123F077546007547080547E547AEC6
:100F24004670020546142406F582E43EF5837401F6
:100F3400123B630547E547AE467002054614240696
:100F4400F582E43EF5837401123B630547E547AE41
:100F54004670020546142406F582E43EF583E41245
:100F64003B630547E547AE4670020546142406F583
:100F740082E43EF583E4123B630547E547AE4670E1
:100F8400020546142406F582E43EF5837432123BCE
:100F9400630547E547AE4670020546142406F5820C
:100FA400E43EF583E4123B630547E547AE46700231
:100FB4000546142406F582E43EF5837434123B633B
:100FC4000547E547AE4670020546142406F582E45B
:100FD4003EF5837403123B630547E547AE46700252
:100FE4000546142406F582E43EF583E4123B6305CA
:100FF40047E547AE4670020546142406F582E43EF2
:10100400F583E4123B630547E547AE4670020546A7
:10101400142406F582E43EF583E4123B630547E5B8
:1010240047AE4670020546142406F582E43EF58375
:10103400E4123B63AD47AC467F077E0612A57F9062
:10104400028AE07002A3E070F6900294E0FF90023E
:1010540093E06F60F490029812400A900294E0FFCB
:1010640075F0DCA4F58285F083123C79F54785F0B0
:1010740046EFB402047F008006900294E004FF90DF
:101084000294EFF0E54764017004E5466405600CE2
:0C109400900294E0FF900293E0B507B9D1
:1010A000900CE0123F7F00001194E4FFFEFDFC90E5
:1010B0000CE0123F37D3123E504017900CE0123F25
:1010C0002B74FFFBFAF9F8123CFD900CE0123F7311
:0210D00080D8C6
:1010D200E54764017004E54664056003020DE4908F
:1010E2000016E070030216A2E4F546F547AB49AAE2
:1010F2004AA94B0547E547AE467002054614240649
:10110200F582E43EF583E4123B630547E547AE46CC
:1011120070020546142406F582E43EF583E4123B90
:1011220063AD47AC467F117E0612A57F90028AE02E
:101132007002A3E070F6900294E0FF900293E06FD9
:1011420060F490029812400A900294E0FF75F0DC7D
:10115200A4F58285F083123C79F54785F046EFB419
:1011620002047F008006900294E004FF900294EF54
:10117200F0E54764017004E5466405600C90029452
:09118200E0FF900293E0B507B90B
:10118B00900CE4123F7F00001194E4FFFEFDFC90F5
:10119B000CE4123F37D3123E504017900CE4123F31
:1011AB002B74FFFBFAF9F8123CFD900CE4123F7321
:0211BB0080D8DA
:1011BD00E54764017004E546640560030210EAE446
:1011CD00F546F547AB49AA4AA94B0547E547AE4653
:1011DD0070020546142406F582E43EF583E4123BC5
:1011ED00630547E547AE4670020546142406F582B1
:1011FD00E43EF583E4123B630547E547AE467002D6
:10120D000546142406F582E43EF583E4123B63059E
:10121D0047E547AE4670020546142406F582E43EC6
:10122D00F583E4123B630547E547AE46700205467C
:10123D00142406F582E43EF583E4123B630547E58D
:10124D0047AE4670020546142406F582E43EF5834A
:10125D00E4123B630547E547AE467002054614248C
:10126D0006F582E43EF583E4123B630547E547AEA0
:10127D004670020546142406F582E43EF583E41219
:10128D003B63AD47AC467F167E0612A57F90028A62
:10129D00E07002A3E070F6900294E0FF900293E0FC
:1012AD006F60F490029812400A900294E0FF75F07E
:1012BD00DCA4F58285F083123C79F54785F046EF85
:1012CD00B402047F008006900294E004FF90029423
:1012DD00EFF0E54764017004E5466405600C90028B
:0A12ED0094E0FF900293E0B507B90A
:1012F700900CE8123F7F00001194E4FFFEFDFC9084
:101307000CE8123F37D3123E504017900CE8123FBB
:101317002B74FFFBFAF9F8123CFD900CE8123F73AF
:0213270080D86C
:10132900E54764017004E546640560030211CCE4F5
:10133900F546F547AB49AA4AA94B0547E547AE46E5
:1013490070020546142406F582E43EF583740512FD
:101359003B630547E547AE4670020546142406F58A
:1013690082E43EF583E4123B630547E547AE4670E8
:10137900020546142406F582E43EF5837404123B03
:10138900630547E547AE4670020546142406F58213
:10139900E43EF5837402123B63E92406F9E43AFA60
:1013A900E92547F9EA3546FA123FB050C3000074FF
:1013B900042547F547E43546F546AB49E54B240690
:1013C900F9E4354AFAE92547F9EA3546FA123FB010
:1013D9000000000074042547F547E43546F546AB9F
:1013E90049AA4AA94B0547E547AE46700205461486
:1013F9002406F582E43EF5837405123B630547E54F
:1014090047AE4670020546142406F582E43EF5838C
:10141900E4123B63E92406F9E43AFAE92547F9EAD3
:101429003546FA74FA75F000123CB174022547F595
:1014390047E43546F546AB49E54B2406F9E4354A18
:10144900FAE92547F9EA3546FA74FA75F000123CCB
:10145900B174022547F547E43546F546AB49E54BF6
:101469002406F9E4354AFAE92547F9EA3546FA74D2
:101479006475F000123CB174022547F547E435461E
:10148900F546AB49E54B2406F9E4354AFAE925471F
:10149900F9EA3546FA742C75F001123CB17402254B
:1014A90047F547E43546F546AB49AA4AA94B0547EE
:1014B900E547AE4670020546142406F582E43EF57A
:1014C90083E4123B630547E547AE467002054614BF
:1014D9002406F582E43EF583E4123B630547E547BC
:1014E900AE4670020546142406F582E43EF583E40F
:1014F900123B630547E547AE4670020546142406CC
:10150900F582E43EF583E4123B630547E547AE46C1
:1015190070020546142406F582E43EF583E4123B85
:10152900630547E547AE4670020546142406F58271
:10153900E43EF583E4123B630547E547AE46700296
:101549000546142406F582E43EF583E4123B63055F
:1015590047E547AE4670020546142406F582E43E87
:10156900F583E4123B630547E547AE46700205463D
:10157900142406F582E43EF583E4123B630547E54E
:1015890047AE4670020546142406F582E43EF5830B
:10159900E4123B630547E547AE467002054614244D
:1015A90006F582E43EF583E4123B630547E547AE61
:1015B9004670020546142406F582E43EF583E412DA
:1015C9003B630547E547AE4670020546142406F518
:1015D90082E43EF583E4123B630547E547AE467076
:1015E900020546142406F582E43EF583E4123B63C2
:1015F900AD47AC467F247E0612A57F90028AE07033
:1016090002A3E070F6900294E0FF900293E06F600D
:10161900F490029812400A900294E0FF75F0DCA45D
:10162900F58285F083123C79F54785F046EFB402DF
:10163900047F008006900294E004FF900294EFF08A
:10164900E54764017004E5466405600C900294E086
:08165900FF900293E0B507B910
:10166100900CEC123F7F00001194E4FFFEFDFC9012
:101671000CEC123F37D3123E504017900CEC123F46
:101681002B74FFFBFAF9F8123CFD900CEC123F733E
:0216910080D8FF
:0F169300E54764017004E54664056003021338FF
:0116A2002225
:10A56A00142406F582E43EF583E4123B637F01ADD1
:05A57A0047AC467E061F
:08A57F008E508F518C528D5358
:10A5870090029512400A74B5123B51900295124001
:10A597000A9000017462123B63E550900002123B7F
:10A5A70063E551900003123B63E553900004123BAF
:10A5B70063E552900005123B63E4F555F5547F02BD
:10A5C700FEE5532406FDE43552FCC3EF9DEE9C5097
:10A5D7001C90029512400A8F828E83123AF12554FD
:10A5E700F5542555F5550FBF00010E80D4900295FF
:10A5F70012400AE5532406FFE435528F82F583E5BE
:10A6070054123B63E5532407FFE435528F82F583E9
:10A61700E555123B637B017A027988E5532408FDEF
:07A62700E43552FC02ACE334
:064B04008B318A32893377
:104B0A00900DDFE0700804F01200A602517EAB316E
:104B1A00AA32A933123C4E1240CB4B3401024E2723
:0A4B2A0001064F0801120000517847
:104B340074062533F533E43532F5327537007538AC
:104B44000075393FE4F53AF53B7831E475F001122C
:104B54003FFA123AD8FF783774FFF5F0123FFAEFB4
:104B6400123B51053BE53B7002053A6404453A703B
:104B7400D8AC3CEC3350047F0180027F008F40AFFF
:104B84003FAE3EAD3DAC3CEC334002800BAF3FAE9C
:104B94003EAD3DAC3C123E428F3F8E3E8D3D8C3C43
:104BA400AB34AA35A93690000A123FCA00000000AF
:104BB400E4F53AF53BAB34E536240AF9E43535FA45
:104BC400C003C002C001123E9DC004C005C006C09F
:104BD40007E47B0AFAF9F8AF3FAE3EAD3DAC3C12B8
:104BE400AFA2AC00AD01AE02AF03C004C005C00665
:104BF400C007E53BAE3A7802C333CE33CED8F924AE
:104C040055F58274B03EF583123F43D007D006D0E9
:104C140005D004123D18A804A905AA06AB07D007BD
:104C2400D006D005D004123CFDD001D002D003122E
:104C34003EEDAF3FAE3EAD3DAC3CE47B0AFAF9F845
:104C440012AFA28F3F8E3E8D3D8C3C053BE53B7001
:104C540002053A640A453A6003024BB9E54060151F
:104C6400AB34AA35A93690000A123EBD123E4290DA
:104C7400000A123F0775370075380075393FE4F5AF
:104C84003AF53B7831E475F001123FFA123AD8FF55
:104C9400783774FFF5F0123FFAEF123B51053BE50C
:104CA4003B7002053A6404453A70D8AC3CEC33508E
:104CB400047F0180027F008F40AF3FAE3EAD3DAC2C
:104CC4003CEC334002800BAF3FAE3EAD3DAC3C12FA
:104CD4003E428F3F8E3E8D3D8C3CAB34AA35A93687
:104CE400900006123FCA00000000E4F53AF53BAB21
:104CF40034E5362406F9E43535FAC003C002C001B0
:104D0400123E9DC004C005C006C007E47B0AFAF940
:104D1400F8AF3FAE3EAD3DAC3C12AFA2AC00AD012E
:104D2400AE02AF03C004C005C006C007E53BAE3AFF
:104D34007802C333CE33CED8F92455F58274B03E0D
:104D4400F583123F43D007D006D005D004123D1896
:104D5400A804A905AA06AB07D007D006D005D0043D
:104D6400123CFDD001D002D003123EEDAF3FAE3E67
:104D7400AD3DAC3CE47B0AFAF9F812AFA28F3F8E4A
:104D84003E8D3D8C3C053BE53B7002053A640A458B
:104D94003A6003024CF3E5406015AB34AA35A936FA
:104DA400900006123EBD123E42900006123F077468
:104DB400042533F533E43532F532753700753800A0
:104DC40075393FE4F53AF53B7831E475F001123F6B
:104DD400FA123AD8FF783774FFF5F0123FFAEF125F
:104DE4003B51053BE53B7002053A6404453A70D8F3
:104DF400AF3FAE3EAD3DAC3CE47BE87A03F9F8123C
:104E0400AFA28F3F8E3E8D3D8C3CAB34AA35A93684
:104E140090000EEE8FF0123CD09002E3E04404F0D8
:104E240002517EAB31AA32A93390002F123AF1FE1F
:104E340090002E123AF17C002400FFEC3E9002B266
:104E4400F0A3EFF0900031123AF1900CAFF074023D
:104E54002533F533E43532F532FAA93390000B12D9
:104E64003AF1540D640D6008E4900CAFF0024EFE6C
:104E7400E5362403F9E43535853437F5388939E4E2
:104E8400F53AF53B7831E475F001123FFA123AD85D
:104E9400FF783774FFF5F0123FFAEF123B51053BF0
:104EA400E53B7002053A6404453A70D8740425332E
:104EB400F533E43532F532E5362404F9E43535FAD0
:104EC400E92401F9E43A853437F5388939E4F53AC7
:104ED400F53B7831E475F001123FFA123AD8FF78C5
:104EE4003774FFF5F0123FFAEF123B51053BE53BF7
:104EF4007002053A6402453A70D89002E3E0440235
:044F0400F002517EE8
:104F080074062533F533E43532F532AB31FAA9337B
:104F1800123E9D8F3F8E3E8D3D8C3C7808123E7729
:104F2800E4FFE4FDFCC004C005C006C007AF3FAE07
:104F38003EAD3DAC3C7818123E77E4FEFDFCD00354
:104F4800D002D001D000123E35C004C005C006C052
:104F580007AF3FAE3EAD3DAC3C7808123E8AE4FF59
:104F6800FEE4FCD003D002D001D000123E35C004CC
:104F7800C005C006C007AF3FAE3EAD3DAC3C78189B
:104F8800123E8AE4FFFEFDECD003D002D001D0002F
:104F9800123E358F3F8E3E8D3D8C3CE47B64FAF9A2
:104FA800F812AFA28F3F8E3E8D3D8C3C8E428F43D0
:104FB80074042533F533E43532F532AB31FAA933CD
:104FC800123E9D8F3F8E3E8D3D8C3C7808123E7779
:104FD800E4FFE4FDFCC004C005C006C007AF3FAE57
:104FE8003EAD3DAC3C7818123E77E4FEFDFCD003A4
:104FF800D002D001D000123E35C004C005C006C0A2
:1050080007AF3FAE3EAD3DAC3C7808123E8AE4FFA8
:10501800FEE4FCD003D002D001D000123E35C0041B
:10502800C005C006C007AF3FAE3EAD3DAC3C7818EA
:10503800123E8AE4FFFEFDECD003D002D001D0007E
:10504800123E358F3F8E3E8D3D8C3CE47B64FAF9F1
:10505800F812AFA28F3F8E3E8D3D8C3C8E408F4123
:1050680074042533F533E43532F532AB31FAA9331C
:10507800123E9D8F3F8E3E8D3D8C3C7808123E77C8
:10508800E4FFE4FDFCC004C005C006C007AF3FAEA6
:105098003EAD3DAC3C7818123E77E4FEFDFCD003F3
:1050A800D002D001D000123E35C004C005C006C0F1
:1050B80007AF3FAE3EAD3DAC3C7808123E8AE4FFF8
:1050C800FEE4FCD003D002D001D000123E35C0046B
:1050D800C005C006C007AF3FAE3EAD3DAC3C78183A
:1050E800123E8AE4FFFEFDECD003D002D001D000CE
:1050F800123E358F3F8E3E8D3D8C3CE47B64FAF941
:10510800F812AFA28F3F8E3E8D3D8C3CC3E49FF5D5
:1051180045E49EF544E5405407FEE47803CEC31306
:10512800CE13D8F9AB34AA35A936900010123B63D8
:10513800E5425407FEE47806CEC313CE13D8F9909F
:105148000010123B1EE5445403900010123B1EE56C
:1051580041900011123B63E543900012123B63E556
:0E51680045900013123B639002E3E04401F017
:105176008006753A00753B019002E3E06407600320
:105186000253AAF0900CAFE060030252B590000003
:10519600E075F015A424B7F9740235F0FA7B01A87E
:1051A60036AC35AD347E007F15123AB2AB34AA3533
:1051B600A936123E9DEF24FAFFE43EFEE43DFDE4EF
:1051C6003CFC123EED900000E0640175F015A4244D
:1051D600B7F582E43402F583123F2BE4FBFAF9F8C3
:1051E600C3123E6670030252B5AB34E5362406F9A7
:1051F600E43535FAC003C002C001123E9DC004C0AA
:1052060005C006C007900000E0FF640175F015A414
:1052160024BDF582E43402F583123F37EF75F015AD
:10522600A424BDF582E43402F583123F2B123D0A15
:10523600A804A905AA06AB07D007D006D005D00456
:10524600123CFDD001D002D003123EEDAB34E53660
:10525600240AF9E43535FAC003C002C001123E9DA6
:10526600C004C005C006C007900000E0FF640175D9
:10527600F015A424C1F582E43402F583123F37EF1A
:1052860075F015A424C1F582E43402F583123F2B90
:10529600123D0AA804A905AA06AB07D007D006D076
:1052A60005D004123CFDD001D002D003123EED9091
:1052B6000000E06401F0E075F015A424B7F974026B
:1052C60035F0A801FC7D01AB34AA35A9367E007FF6
:1052D60015123AB2900015E0606A900CAF7406F0B1
:1052E600AB34AA35A936123FB000002710AB34AA5A
:1052F60035A936900004740675F0AE123CD09000C5
:1053060006123FCA00BC6A7790000A123FCA002AFA
:105316002BDF90000E740175F02C123CD09000101B
:10532600E4123B63900011741E123B6390001274EA
:1053360019123B639000137401123B6390001474BE
:1053460019123B63908C83E493FF3395E0FE900241
:105356008275F013EF123FEEEE75F013A42583F578
:105366008312400AE92407F9E43A8B37F53889397C
:10537600900CAFE0FF7837E475F001123FFAEF12B8
:105386003B51A839AC38AD37AB34AA35A9367E00C7
:105396007F15123AB2754C00754D167B227D037F40
:0453A600021296FC5D
:0153AA0022E0
:10A5550002080001010C00020D0000420DDC0000A4
:04A56500410DDE00C6
:06ACE3008B568A578958C8
:10ACE900858459AB56AA57A958900002123C794558
:10ACF900F070F0AB56AA57A95890000D12401CC02D
:10AD090003C002C001AB56AA57A9589000071240C8
:10AD19004CAB56AA57A958900002EC8DF0123CD0C2
:10AD2900123AD87006F584D2998005758401D299B2
:03AD3900855984B5
:01AD3C0022F4
:10003E00AE84E4F5848F9B30FFFDC2FFAF9B8E84B0
:01004E00228F
:10AD3D00AF8475840F759601758C67E4FDFC0DBDB0
:10AD4D0000010CE4B505F7ECB401F3E58C30E7FB3D
:10AD5D00759701E4F58A758905F58475B7207584B5
:10AD6D000F758D01758F01758E03FCFD0DBD0001F5
:10AD7D000CE4B505F7ECB401F3438902E58930E441
:06AD8D00FB7597028F84A4
:01AD9300229D
:0E92E9008B428A4389448F488E478D468C45C0
:1092F700858449123AD814606F0460030294E9E444
:10930700F58475911590000A123AF124BB60182470
:10931700F6601424EA601024F7600714600924211A
:10932700700875985080037598D0E4F58475C80463
:1093370075C908AB48AA47A946A845FFFE7D657CC5
:1093470004123DA3E47B10FAF9F8123DA3123E4242
:109357008ECB8FCA74FFF5CDF5CCD2CAE4F584C2A3
:1093670099C298D2AC0294E9758401AB42AA43A989
:109377004490000A123AF124BB601824F6601424C2
:10938700EA601024F76007146009242170087598B3
:10939700108003759890E4F58453890F438920ABB7
:1093A70048AA47A946A845FFFE7D657C04123DA350
:1093B700E47B02FAF9F8123DA3E4FB7A01F9F8120B
:1093C7003DA3E47B01FAF9F8D3123E664026AB4889
:1093D700AA47A946A845E4FFFE7D657C04123DA384
:1093E700E47B02FAF9F8123DA3123E428F8D438EB9
:1093F700100294DAAB48AA47A946A845E4FFFE7DC8
:10940700657C04123DA3E47B02FAF9F8123DA3E45C
:10941700FB7A01F9F8123DA3E47B04FAF9F8D312B9
:109427003E664031AB48AA47A946A845E4FFFE7D02
:10943700657C04123DA3E47B02FAF9F8123DA3E42C
:109447007B04FAF9F8123DA3123E428F8D538EEC3E
:10945700438E01807EAB48AA47A946A845E4FFFE94
:109467007D657C04123DA3E47B02FAF9F8123DA363
:10947700E4FB7A01F9F8123DA3E47B0CFAF9F8D37F
:10948700123E66AB48AA47A946A845E4FFFE7D659C
:109497007C04401F123DA3E47B02FAF9F8123DA3B6
:1094A700E47B0CFAF9F8123DA3123E428F8D538EDE
:1094B700EC8020123DA3E47B02FAF9F8123DA3E405
:1094C7007B30FAF9F8123DA3123E428F8D538EEC92
:1094D700438E02858D8BD28E758401C299C29843C3
:0594E700E74085498407
:0194EC00225D
:10002600AF84E4F584759D04759A70C2FFD2F88F8B
:010036008445
:0100370022A6
:10B0AB00AD84758401E4F5C8F5C9EF2408FFE43ECF
:10B0BB00FEC3E49FFFE49EF5CB8FCA74FFF5CDF57D
:09B0CB00CC43E70143C8048D8465
:01B0D4002259
:030023000294ED57
:1094ED00C0E0C0F0C083C082C0D075D000C000C045
:0D94FD0001C002C003C004C005C006C007C6
:10950A00E59820E0030296848599275398FEE5089A
:10951A006003029651E50924FE6063147003029504
:10952A00B914700302961E24036003029651750D46
:10953A0000750E00E52764166003029651900280BA
:10954A00E0FF7E007C027D1D123B85900285124061
:10955A000AE92FF9EA3E8B0FF5108911FA050EE593
:10956A000EAE0D7002050D14F5828E83E527123BAF
:10957A0063E527620C750800750902029651AB0F64
:10958A00AA10A911050EE50EAE0D7002050D14F50F
:10959A00828E83E527123B63E527620CE50E64069B
:1095AA00450D6003029651F508750903029651AB01
:1095BA000FAA10A911050EE50EAE0D7002050D14C5
:1095CA00F5828E83E527123B63630CFFE50C652762
:1095DA007031AB0FAA10A911900003123AF1750A63
:1095EA0000F50B750B00F50A900004123AF1250BF1
:1095FA00F50BE4350AF50A450B604675080075094E
:10960A00048044750D00750E007508007509017512
:10961A000C008033D2B4AB0FAA10A911050EE50EC7
:10962A00AE0D7002050D14F5828E83E527123B6399
:10963A00E50B2407FFE4350AFEEFB50E0AEEB50D79
:10964A0006750800750905E50964054508702BC209
:10965A00B4F508750901F50DF50EF50C90027912AD
:10966A00400AE94A4B7013AB0FAA10A9119002796C
:10967A00124013900280E06401F0E59830E13E90D8
:10968A000277E07002A3E06023D2B490027C124019
:10969A000A123AD8F59990027DE475F001123C223B
:1096AA0090027774FFF5F0123C22800EC2B47B0060
:0D96BA007A00790090027C1240135398FD55
:1096C700D007D006D005D004D003D002D001D000F7
:0B96D700D0D0D082D083D0F0D0E032A1
:0300A300028E8446
:108E8400C0E0C0F0C083C082C0D075D000C000C0B4
:098E940001C002C003C006C007C2
:108E9D00E59820E00302902F859928900DDEE012D1
:108EAD0040A58ECE008EDF018EF2028F42038F6FB2
:108EBD00048F88058FAF068FF00790010800009092
:108ECD002CE52864B5600302902C900DDE04F002B1
:108EDD00902CE528900DDEB462067402F002902C01
:108EED00E4F002902C751800751700900DDCE4F07D
:108EFD00A3F0900293E075F0DCA4FF90029812406D
:108F0D000AE92FF9EA35F08B12F5138914FA900D51
:108F1D00DCE475F001123C3885F082F583E528120A
:108F2D003B63E5282517F5172518F518900DDE7408
:108F3D0003F002902CAB12AA13A914900DDCE4756A
:108F4D00F001123C3885F082F583E528123B63E58C
:108F5D00282517F5172518F518900DDE7404F00265
:108F6D00902C751500852816E5282517F517251859
:108F7D00F518900DDE7405F002902CE528FEE42521
:108F8D0016F516EE3515F515E5282517F5172518DF
:108F9D00F518E5164515900DDE700280417406F04A
:108FAD00807DAB12AA13A914900DDCE475F00112AB
:108FBD003C3885F082F583E528123B63E5282517BB
:108FCD00F5172518F518E5162402FFE43515FE9062
:108FDD000DDCE06E7003A3E06F7044900DDE74073E
:108FED00F0803CE517900DDEB528057408F0802F54
:048FFD00E4F0802BF1
:10900100900293E0FFB402067E007F008003EF042C
:10901100FF8F29E518B5280E900294E065296006B6
:0B902100900293E529F0900DDEE4F0D2
:10902C005398FEE59830E17090028AE07002A3E05C
:10903C006057900292E024BB601A24E0601624F67C
:10904C0060042420702290028F12400A123AD83009
:10905C00E00E801190028F12400A123AD830E005CF
:10906C0043980480035398FB90028F12400A123AE3
:10907C00D8F599900290E475F001123C2290028A86
:10908C0074FFF5F0123C22800C7B007A0079009082
:08909C00028F1240135398FDEE
:1090A400D007D006D003D002D001D000D0D0D082D7
:0790B400D083D0F0D0E032C0
:0300730002A6DE04
:10A6DE00C0E0C0F0C083C082C0D075D000C000C042
:03A6EE0006C0079C
:10A6F10075840153C87F90025FE475F001123C221A
:10A701009002AFE0FEA3E0FF90025FE0B50619A35F
:10A71100E0B507149002AFE475F0A0123C2290005E
:10A721004BE475F001123C22E4FFFE74262FF58202
:10A73100E4340CF583E0600D74262FF582E4340CCB
:10A74100F583E014F00FBF00010EEF64034E70DBE0
:10A7510075840F20E816C39002B6E094FF9002B50D
:10A76100E094FF5007E475F001123C2275840075F6
:06A77100BB00C2EDD2ECBA
:10A77700D007D006D000D0D0D082D083D0F0D0E0A0
:01A78700329F
:10A29200E4900D70F07B017A0C792912AD94900C48
:10A2A20092E0B4010FA3E0B4540AA3E07004A3E067
:10A2B20064086019900C927401F0A37454F0900C2D
:10A2C20094E4F0A37408F0900D707401F0900C7B8C
:10A2D200E0B4FF17900016E0900C7B600574C8F0A4
:10A2E20080037464F0900D707401F0900C7AE06455
:10A2F2000160077401F0900D70F0900C16E0FCA361
:10A30200E0FDB40015ECB41011900C97E030E40AB3
:10A31200E054EFF0900D707401F0E4B50515ECB463
:10A322002011900C97E020E40AE04410F0900D70A8
:10A332007401F0900C29E0FF12005E400D900C2990
:10A34200E06007E4F0900D7004F0900C3DE0FF1225
:10A35200005E400D900C3DE06007E4F0900D70044B
:10A36200F0900C51E0FF12005E400D900C51E06045
:10A3720007E4F0900D7004F0900C9AE0B4FF07E44B
:10A38200F0900D7004F0900C9BE0B4FF11A3E0B4C8
:10A39200FF0CE4900C9BF0A3F0900D7004F0900D74
:10A3A20070E0601012B07D7B017A0C79297D807C8F
:04A3B2000012AB43A7
:01A3B6002284
:10B07D00AF84E4F584781EF608F6A2AF33FEC2AFB6
:10B08D0043B701758F0718E6FC08E6F5828C83E45B
:0DB09D00F0F58F53B7FEEE24FF92AF8F84C5
:01B0AA002283
:0AAB43008B458A4689478C488D49EE
:10AB4D0085844AE4F584781EF608F6A2AF33FFC279
:10AB5D00AF43B701758F05E4F54BF54CC3E54C9547
:10AB6D0049E5486480F8E54B64809850297845E4C0
:10AB7D0075F001123FFA123AD8FE781E0806E61853
:10AB8D00860470010614F5828C83EEF0054CE54CBD
:10AB9D0070CA054B80C6E4F58F53B7FEEF24FF92C4
:04ABAD00AF854A84A2
:01ABB1002281
:06AD94008B458A46894749
:10AD9A00858448E4F549F54AF584A2AF33F54BC2F8
:10ADAA00AF758F04E4FFFE054AE54AAC4970020517
:10ADBA004914F5828C83E493FD7845E475F0011219
:10ADCA003FFAED123B510FBF00010EEF64804E7047
:0DADDA00D6E4F58FE54B24FF92AF85488449
:01ADE7002249
:0EA947008E4C8F4D8C4E8D4F8B508A51895205
:09A9550012007EEF30E7F9C2F9AF
:10A95E00E4F557F5580558E558700205576440451B
:03A96E005770F22D
:10A97100E54D6401454C70047F8480027F8712009D
:10A981003EE4FF12003EE4FF12003EE4FF12003EEF
:10A99100E4F555F556C3E556954FE54E6480F8E567
:10A9A10055648098501DAB50AA51A9528556828595
:10A9B1005583123AF1FF12003E0556E55670D60551
:10A9C1005580D2D2F9AD54AC53AF4DAE4C02AA4F23
:08AA4F008E598F5A8C5B8D5C5F
:10AA570090093CE0FEA3E0FF12A7888F5D12007EFD
:06AA6700EF30E7F9C2F92F
:10AA6D00E4F55EF55F055FE55F7002055E644045E8
:03AA7D005E70F216
:10AA8000E55D6010E55A6401455970047F838012CA
:10AA90007F86800EE55A6401455970047F828002EA
:10AAA0007F8512003EE55CAE5B7806CEA2E713CE52
:10AAB00013D8F8FF12003EAF5CEF25E025E0FF124F
:09AAC000003EE4FF12003ED2F951
:01AAC900226A
:02007E00C2F9C5
:10008000E4F569F56A056AE56A7002056964404548
:030090006970F2A2
:0C0093007FD712003EE4FF12003ED2F9BD
:01009F00223E
:0AA822008E498F4A8B4B8A4C894DFA
:09A82C0012007EEF30E7F9C2F9D9
:10A83500E4F552F5530553E553700205526440455E
:03A845005270F25C
:10A848007FD212003EE54FAE4E7806CEA2E713CE79
:10A8580013D8F8FF12003EAF4FEF25E025E0FF12B6
:10A86800003EE4FF12003EE4FF12003EE4FF120047
:10A878003EE4FF12003EE4FF12003EE4F550F551BD
:10A88800C3E551954AE5496480F8E55064809850DD
:10A898001FE4FF12003EAB4BAA4CA94D855182859F
:10A8A8005083EF123B630551E55170D4055080D0B9
:02A8B800D2F9D3
:01A8BA00227B
:08A788008E608F618C628D630D
:0CA7900075640112007EEF30E7F9C2F999
:10A79C00E4F567F5680568E568700205676440458F
:03A7AC006770F2E1
:10A7AF007FD212003EE563AE627806CEA2E713CEEB
:10A7BF0013D8F8FF12003EAF63EF25E025E0FF123C
:10A7CF00003EE4FF12003EE4FF12003EE4FF1200E1
:10A7DF003EE4FF12003EE4FF12003EE4F565F5662D
:10A7EF00C3E5669561E5606480F8E565648098501F
:10A7FF001DE4FF12003EBFFF047F0180027F008F28
:10A80F0064EF600A0566E56670D6056580D2D2F9F9
:02A81F00AF6424
:01A821002214
:04AE81008E478F4821
:09AE850012007EEF30E7F9C2F97A
:10AE8E00E4F549F54A054AE54A700205496440452C
:03AE9E004970F206
:10AEA1007F5012003EE548AE477806CEC313CE135D
:10AEB100D8F9FF12003EAF48EF25E025E0FF120070
:08AEC1003EE4FF12003ED2F94D
:01AEC9002266
:04AECA008E498F4AD4
:09AECE0012007EEF30E7F9C2F931
:10AED700E4F54BF54C054CE54C7002054B644045D9
:03AEE7004B70F2BB
:10AEEA007F8112003EE54AAE497806CEC313CE13DF
:10AEFA00D8F9FF12003EAF4AEF25E025E0FF120025
:08AF0A003EE4FF12003ED2F903
:01AF1200221C
:06ABB2008C428D438B4430
:10ABB800E5446002C2B68E458F46D3E5469543E527
:10ABC800459542504BE54654077034C3E5439546D6
:10ABD800FFE5429545FEC3EF9408EE94004020E55A
:10ABE800446008E546543F7002B2B6AF46AE45121F
:10ABF800AE8174072546F546E43545F5458007AF2F
:10AC080046AE4512AECA0546E54670AE054580AA71
:06AC1800E5446002C2B633
:01AC1E002213
:06A3B7008B318A3289336C
:06A3BD00D2F8D2F9C2FA49
:10A3C300E4F537F5380538E538700205376440455C
:03A3D3003770F2EE
:02A3D600D2FAB9
:10A3D800E4F537F5380538E5387002053764404547
:03A3E8003770F2D9
:10A3EB0012007EEF543C1240A5A40D0CA41714A42C
:10A3FB00211CA42B24A4462CA46134A47C3C000077
:10A40B00A498AB31AA32A9337402801CAB31AA32A7
:10A41B00A93374048012AB31AA32A93374088008B3
:10A42B00AB31AA32A933741075F000123CB1AB34C6
:10A43B00AA35A936740175F008804FAB31AA32A941
:10A44B0033741075F000123CB1AB34AA35A93674D5
:10A45B000275F0108034AB31AA32A933742075F039
:10A46B0000123CB1AB34AA35A936740275F01080DA
:10A47B0019AB31AA32A933742075F000123CB1AB81
:0DA48B0034AA35A936740475F020123CB1D6
:01A4980022A1
:10787E00257300506C61636520756E697420666CAB
:10788E006174206F6E206C6576656C207375726600
:10789E006163652E00466C6970206F7665722E20CE
:1078AE004661636520646F776E2E00486F6C6420AE
:1078BE00766572746963616C2C2047505320616E3B
:1078CE0074656E6E61206A61636B2075702E004860
:1078DE006F6C6420766572746963616C2C204750FE
:1078EE005320616E74656E6E61206A61636B2064F5
:1078FE006F776E2E005374616E64206F6E20726906
:10790E0067687420736964652E005374616E642019
:10791E006F6E206C65667420736964652E00496E07
:10792E0076657274696E6720582056616C75657342
:10793E0000496E76657274696E6720592056616CC7
:10794E0075657300496E76657274696E67205A208C
:10795E0056616C7565730020005A65726F20506F0A
:10796E00696E74733A20582025752C205920257580
:10797E002C205A20257500582052616E67653A20DA
:10798E0025752C20257500592052616E67653A20A9
:10799E0025752C202575005A2052616E67653A2098
:1079AE0025752C2025750053746F72696E67204300
:1079BE00616C6962726174696F6E204461746120DA
:1079CE00696E20466C6173682E0043616C69627249
:1079DE006174696F6E20436F6D706C6574652E00F7
:1079EE005A65726F696E6720582C20592050574D7A
:1079FE000046696E616C2043616C3A2025752C251A
:107A0E00750046696E616C2056616C3A2025752CA6
:107A1E0025750044617461666C61736820546573EA
:107A2E0074002A2A20466C617368204641494C45F1
:107A3E0044202A2A2C20706167652025642C206240
:107A4E0079746525640050616765202564206F6B2D
:107A5E000054657374205061737365642E00496E13
:107A6E00707574205465737400444947494E3A202A
:107A7E000031003000583A2025752C20593A202527
:107A8E0075005A3A2025752C2035563A202575005A
:107A9E0035563A2025752C20543A20257500413054
:107AAE003A2025752C2041313A2025750041323A75
:107ABE002025752C2041333A20257500496E7075AE
:107ACE00745465737420436F6D706C6574652E000D
:107ADE004F757470757420546573740062697420E8
:107AEE002564004F75747075745465737420436FFC
:107AFE006D706C6574652E00412F4420546573744F
:107B0E0000426F61726420666C61742E205465733E
:107B1E007420666978747572652061747461636827
:107B2E0065642E005820205920203556205A2020DA
:107B3E00413020413120413220413300312020207C
:107B4E00003020202000414454657374205041536E
:107B5E00532E002A2A20414454657374204641490D
:107B6E004C202A2A004469676974616C20494F20B1
:107B7E0054657374004F6E6C792056616C69642085
:107B8E00666F7220535532202D2045786974696EC8
:107B9E00672E00446967494F5465737420506F69AE
:107BAE006E74202564002A2A20204641494C202A42
:107BBE002A00446967494F546573742050415353EA
:107BCE002E002A2A20446967494F54657374204653
:107BDE0041494C202A2A004175746F4F6E2054651E
:107BEE00737400456E61626C696E67204175746FC7
:107BFE004F6E2E2E2E0044726F7070696E67203598
:107C0E005620456E61626C650044697361626C69F1
:107C1E006E67204175746F4F6E2E2E2E0041757457
:107C2E006F4F6E5465737420504153532E00534D55
:107C3E004275732054657374202D204D61737465E5
:107C4E00720025752042797465732C2025752043AA
:107C5E0079636C6573002A2A20534D427573205444
:107C6E00657374204641494C202A2A00534D4275B3
:107C7E0073205465737420506173732E00534D42FC
:107C8E0075732054657374202D20536C61766500D6
:107C9E0001020408102040800102040810204080D8
:102632008584429000047401F075840FFB7A0C7952
:102642002912AD94E4900C79F0908C8093900C7ADE
:10265200F0900016E0900C7B600574C8F080037463
:1026620064F0900C927401F0A37454F0900C94E412
:10267200F0A37408F074FFFFFEFDFC900C7C123F87
:1026820037C3123E66700A900C7C123F7F00000036
:1026920000900C80E0B4FF037401F0900C81E0B470
:1026A200FF03740DF0900C9674FFF0A3F0900C826F
:1026B2007408F0A3E4F0900C847408F0A3E4F090A2
:1026C2000C29F0900C3DF0900C51F0900C90F0A37E
:1026D20074A0F0900C8EE4F0A374A0F0E49002B524
:0B26E200F0A3F0D2B3D2B6D2B5D2B450
:1026ED00900CE0123F7F00015F90E4FFFEFDFC9037
:1026FD000CE0123F37D3123E504017900CE0123FC2
:10270D002B74FFFBFAF9F8123CFD900CE0123F73AD
:02271D0080D862
:10271F00908C81E493FF3395E0FE90028275F01365
:10272F00EF123FEEEE75F013A42583F58312400AE6
:10273F00E92407F9E43AFA754CFF754D78754E7E2A
:10274F00754FFF755078755181126BD2908C81E463
:10275F0093FF3395E0FE90028275F013EF123FEE78
:10276F00EE75F013A42583F58312400AE92407F9C7
:10277F00E43AFA12000EEF2401F54DE43EF54C90C9
:0C278F008C80E493FF7B737D011296FCAC
:10279B00900CE4123F7F00015F90E4FFFEFDFC9084
:1027AB000CE4123F37D3123E504017900CE4123F0B
:1027BB002B74FFFBFAF9F8123CFD900CE4123F73FB
:0227CB0080D8B4
:1027CD00129AA9900016E06065900DD6E0FEA3E088
:1027DD00FF900DD1E02FFF900DD0E03EC313FEEF23
:1027ED0013FF900C82EEF0A3EFF0900DD8E0FEA356
:1027FD00E0FF900DD3E02FFF900DD2E03EC313FE0E
:10280D00EF13FF900C84EEF0A3EFF0900DDAE0FEE5
:10281D00A3E0FF900DD5E02FFF900DD4E03EC31344
:10282D00FEEF13FF900CA1EEF0A3EFF08003127CEE
:10283D00AE900016E0700302291DC2B3C2B5908C94
:10284D0081E493FF3395E0FE90028275F013EF1251
:10285D003FEEEE75F013A42583F58312400AE924AB
:10286D0007F9E43AFA754CFF754D78754E7E754F44
:10287D00FF7550787551A3126BD2908C81E493FF44
:10288D003395E0FE90028275F013EF123FEEEE7578
:10289D00F013A42583F58312400AE92407F9E43ADD
:1028AD00FA12000EEF2401F54DE43EF54C908C80AC
:0A28BD00E493FF7B737D011296FC8B
:1028C700900CE8123F7F00015F90E4FFFEFDFC9053
:1028D7000CE8123F37D3123E504017900CE8123FD6
:1028E7002B74FFFBFAF9F8123CFD900CE8123F73CA
:0228F70080D887
:1028F900129AA9900DDAE0FEA3E0FF900DD5E02F22
:10290900FF900DD4E03EC313FEEF13FF900C9FEE32
:10291900F0A3EFF0C2B3C2B6C2B5C2B4908C81E4E1
:1029290093FF3395E0FE90028275F013EF123FEEAC
:10293900EE75F013A42583F58312400AE92407F9FB
:10294900E43AFA754CFF754D78754E7E754FFF75F3
:1029590050787551B9126BD2908C81E493FF3395FD
:10296900E0FE90028275F013EF123FEEEE75F01360
:10297900A42583F58312400AE92407F9E43AFA12F7
:10298900000EEF2401F54DE43EF54C908C80E49364
:08299900FF7B737D011296FC27
:1029A100900CEC123F7F00015F90E4FFFEFDFC9074
:1029B1000CEC123F37D3123E504017900CEC123FF3
:1029C1002B74FFFBFAF9F8123CFD900CEC123F73EB
:0229D10080D8AC
:1029D300129AA9900DD6E0FEA3E0FF900DD1E02F4F
:1029E300FF900DD0E03EC313FEEF13FF900C88EE73
:1029F300F0A3EFF0900016E06021900DDAE0FEA363
:102A0300E0FF900DD5E02FFF900DD4E03EC313FE01
:102A1300EF13FF900C9DEEF0A3EFF0D2B3908C81F7
:102A2300E493FF3395E0FE90028275F013EF123FBB
:102A3300EEEE75F013A42583F58312400AE924070B
:102A4300F9E43AFA754CFF754D78754E7E754FFF74
:102A53007550787551DD126BD2908C81E493FF33FE
:102A630095E0FE90028275F013EF123FEEEE75F0E3
:102A730013A42583F58312400AE92407F9E43AFAFB
:102A830012000EEF2401F54DE43EF54C908C80E4EA
:092A930093FF7B737D011296FC98
:102A9C00900CF0123F7F00015F90E4FFFEFDFC9074
:102AAC000CF0123F37D3123E504017900CF0123FEF
:102ABC002B74FFFBFAF9F8123CFD900CF0123F73EB
:022ACC0080D8B0
:102ACE00129AA9900DD6E0FEA3E0FF900DD1E02F53
:102ADE00FF900DD0E03EC313FEEF13FF900C86EE79
:102AEE00F0A3EFF0D2B6908C81E493FF3395E0FE25
:102AFE0090028275F013EF123FEEEE75F013A425DF
:102B0E0083F58312400AE92407F9E43AFA754CFF7B
:102B1E00754D78754E7E754FFF7550797551031250
:102B2E006BD2908C81E493FF3395E0FE9002827518
:102B3E00F013EF123FEEEE75F013A42583F583121A
:102B4E00400AE92407F9E43AFA12000EEF2401F5DF
:102B5E004DE43EF54C908C80E493FF7B737D011227
:022B6E0096FCD3
:102B7000900CF4123F7F00015F90E4FFFEFDFC909B
:102B80000CF4123F37D3123E504017900CF4123F12
:102B90002B74FFFBFAF9F8123CFD900CF4123F7312
:022BA00080D8DB
:102BA200129AA9900DD8E0FEA3E0FF900DD3E02F7A
:102BB200FF900DD2E03EC313FEEF13FF900C8AEE9E
:102BC200F0A3EFF0D2B5908C81E493FF3395E0FE51
:102BD20090028275F013EF123FEEEE75F013A4250A
:102BE20083F58312400AE92407F9E43AFA754CFFA7
:102BF200754D78754E7E754FFF7550797551181267
:102C02006BD2908C81E493FF3395E0FE9002827543
:102C1200F013EF123FEEEE75F013A42583F5831245
:102C2200400AE92407F9E43AFA12000EEF2401F50A
:102C32004DE43EF54C908C80E493FF7B737D011252
:022C420096FCFE
:102C4400900CF8123F7F00015F90E4FFFEFDFC90C2
:102C54000CF8123F37D3123E504017900CF8123F35
:102C64002B74FFFBFAF9F8123CFD900CF8123F7339
:022C740080D806
:102C7600129AA9900DD8E0FEA3E0FF900DD3E02FA5
:102C8600FF900DD2E03EC313FEEF13FF900C8CEEC7
:102C9600F0A3EFF0D2B4900C86E0FEA3E0FFC39061
:102CA6000C89E09F900C88E09E4003022D85908C55
:102CB60081E493FF3395E0FE90028275F013EF12E4
:102CC6003FEEEE75F013A42583F58312400AE9243E
:102CD60007F9E43AFA754CFF754D78754E7E754FD7
:102CE600FF75507975512C126BD2908C81E493FF4D
:102CF6003395E0FE90028275F013EF123FEEEE750B
:102D0600F013A42583F58312400AE92407F9E43A6F
:102D1600FA12000EEF2401F54DE43EF54C908C803E
:0A2D2600E493FF7B737D011296FC1D
:102D3000900CFC123F7F00015F90E4FFFEFDFC90D1
:102D40000CFC123F37D3123E504017900CFC123F40
:102D50002B74FFFBFAF9F8123CFD900CFC123F7348
:022D600080D819
:102D6200900C88E0F543A3E0F544900C86E0FFA3C5
:102D7200E0900C88CFF0A3EFF0900C86E543F0A32F
:102D8200E544F0900C8AE0FEA3E0FFC3900C8DE0D6
:102D92009F900C8CE09E4003022E6E908C81E493F7
:102DA200FF3395E0FE90028275F013EF123FEEEED4
:102DB20075F013A42583F58312400AE92407F9E488
:102DC2003AFA754CFF754D78754E7E754FFF75500A
:102DD2007975513F126BD2908C81E493FF3395E069
:102DE200FE90028275F013EF123FEEEE75F013A41F
:102DF2002583F58312400AE92407F9E43AFA12001E
:102E02000EEF2401F54DE43EF54C908C80E493FFE7
:072E12007B737D011296FCA9
:102E1900900D00123F7F00015F90E4FFFEFDFC90E2
:102E29000D00123F37D3123E504017900D00123F4C
:102E39002B74FFFBFAF9F8123CFD900D00123F7359
:022E490080D82F
:102E4B00900C8CE0F543A3E0F544900C8AE0FFA3D3
:102E5B00E0900C8CCFF0A3EFF0900C8AE543F0A33D
:102E6B00E544F0900016E07003022F60900C9FE099
:102E7B00FEA3E0FFC3900CA2E09F900CA1E09E404C
:102E8B0003022F60908C81E493FF3395E0FE900258
:102E9B008275F013EF123FEEEE75F013A42583F558
:102EAB008312400AE92407F9E43AFA754CFF754D91
:102EBB0078754E7E754FFF755079755152126BD2E6
:102ECB00908C81E493FF3395E0FE90028275F013B2
:102EDB00EF123FEEEE75F013A42583F58312400A33
:102EEB00E92407F9E43AFA12000EEF2401F54DE458
:102EFB003EF54C908C80E493FF7B737D011296FC26
:102F0B00900D04123F7F00015F90E4FFFEFDFC90EB
:102F1B000D04123F37D3123E504017900D04123F51
:102F2B002B74FFFBFAF9F8123CFD900D04123F7362
:022F3B0080D83C
:102F3D00900CA1E0F543A3E0F544900C9FE0FFA3B6
:102F4D00E0900CA1CFF0A3EFF0900C9FE543F0A320
:102F5D00E544F0908C81E493FF3395E0FE9002827E
:102F6D0075F013EF123FEEEE75F013A42583F58384
:102F7D0012400AE92407F9E43AFA754CFF754D78C9
:102F8D00754E7E754FFF755079755165126BD290E8
:102F9D008C81E493FF3395E0FE90028275F013EF80
:102FAD00123FEEEE75F013A42583F58312400AE966
:102FBD002407F9E43AFA12000EEF2401F54DE43E30
:0F2FCD00F54C908C80E493FF7B737D011296FC92
:102FDC00900D08123F7F00015F90E4FFFEFDFC9016
:102FEC000D08123F37D3123E504017900D08123F78
:102FFC002B74FFFBFAF9F8123CFD900D08123F738D
:02300C0080D86A
:10300E00754CFF754D79754E67900C82E0F54FA3A8
:10301E00E0F550900C84E0F551A3E0F552900C9D34
:10302E00E0F553A3E0F5547B017A0D7920126BD2B3
:10303E00908C81E493FF3395E0FE90028275F0133D
:10304E00EF123FEEEE75F013A42583F58312400ABE
:10305E00E92407F9E43AFA754CFF754D78754E7E02
:10306E00754F0175500D755120126BD2908C81E405
:10307E0093FF3395E0FE90028275F013EF123FEE50
:10308E00EE75F013A42583F58312400AE92407F99F
:10309E00E43AFA12000EEF2401F54DE43EF54C90A1
:0C30AE008C80E493FF7B737D011296FC84
:1030BA00900D0C123F7F00015F90E4FFFEFDFC9033
:1030CA000D0C123F37D3123E504017900D0C123F91
:1030DA002B74FFFBFAF9F8123CFD900D0C123F73AA
:0230EA0080D88C
:1030EC00908C81E493FF3395E0FE90028275F0138F
:1030FC00EF123FEEEE75F013A42583F58312400A10
:10310C00E92407F9E43AFA754CFF754D79754E854B
:10311C00900C86E0F54FA3E0F550900C88E0F5514B
:10312C00A3E0F552126BD2908C81E493FF3395E0BF
:10313C00FE90028275F013EF123FEEEE75F013A4C1
:10314C002583F58312400AE92407F9E43AFA1200C0
:10315C000EEF2401F54DE43EF54C908C80E493FF8A
:07316C007B737D011296FC4C
:10317300900D10123F7F00015F90E4FFFEFDFC9075
:103183000D10123F37D3123E504017900D10123FCF
:103193002B74FFFBFAF9F8123CFD900D10123F73EC
:0231A30080D8D2
:1031A500908C81E493FF3395E0FE90028275F013D5
:1031B500EF123FEEEE75F013A42583F58312400A56
:1031C500E92407F9E43AFA754CFF754D79754E9582
:1031D500900C8AE0F54FA3E0F550900C8CE0F5518A
:1031E500A3E0F552126BD2908C81E493FF3395E006
:1031F500FE90028275F013EF123FEEEE75F013A408
:103205002583F58312400AE92407F9E43AFA120006
:103215000EEF2401F54DE43EF54C908C80E493FFD0
:073225007B737D011296FC92
:10322C00900D14123F7F00015F90E4FFFEFDFC90B7
:10323C000D14123F37D3123E504017900D14123F0D
:10324C002B74FFFBFAF9F8123CFD900D14123F732E
:02325C0080D818
:10325E00908C81E493FF3395E0FE90028275F0131B
:10326E00EF123FEEEE75F013A42583F58312400A9C
:10327E00E92407F9E43AFA754CFF754D79754EA5B8
:10328E00900C9FE0F54FA3E0F550900CA1E0F551A6
:10329E00A3E0F552126BD2908C81E493FF3395E04C
:1032AE00FE90028275F013EF123FEEEE75F013A44E
:1032BE002583F58312400AE92407F9E43AFA12004D
:1032CE000EEF2401F54DE43EF54C908C80E493FF17
:0732DE007B737D011296FCD9
:1032E500900D18123F7F00015F90E4FFFEFDFC90FA
:1032F5000D18123F37D3123E504017900D18123F4C
:103305002B74FFFBFAF9F8123CFD900D18123F7370
:0233150080D85E
:10331700908C81E493FF3395E0FE90028275F01361
:10332700EF123FEEEE75F013A42583F58312400AE2
:10333700E92407F9E43AFA754CFF754D78754E7E26
:10334700754FFF7550797551B5126BD2908C81E42A
:1033570093FF3395E0FE90028275F013EF123FEE74
:10336700EE75F013A42583F58312400AE92407F9C3
:10337700E43AFA12000EEF2401F54DE43EF54C90C5
:103387008C80E493FF7B737D011296FC12B07D7BEA
:0C339700017A0C79297D7B7C0012AB438D
:1033A300900D1C123F7F00015F90E4FFFEFDFC9037
:1033B3000D1C123F37D3123E504017900D1C123F85
:1033C3002B74FFFBFAF9F8123CFD900D1C123F73AE
:0233D30080D8A0
:1033D500908C81E493FF3395E0FE90028275F013A3
:1033E500EF123FEEEE75F013A42583F58312400A24
:1033F500E92407F9E43AFA754CFF754D78754E7E68
:10340500754FFF7550797551D8126BD2908C81E448
:1034150093FF3395E0FE90028275F013EF123FEEB5
:10342500EE75F013A42583F58312400AE92407F904
:10343500E43AFA12000EEF2401F54DE43EF54C9006
:103445008C80E493FF7B737D011296FCD2B3C2B6E8
:0F345500C2B5C2B4E4900004F012A29285428482
:013464002245
:109AA900900DD4740FF0A374FFF0900DD2740FF0E1
:109AB900A374FFF0900DD0740FF0A374FFF0E4903D
:109AC9000DDAF0A3F0900DD8F0A3F0900DD6F0A325
:109AD900F0FFFE90029CE060FA900017E0FCA3E022
:109AE900FD900DD0E0FAA3E0FBC39DEA9C5006ACC3
:109AF90002AD038008900017E0FCA3E0FD900DD0B3
:109B0900ECF0A3EDF0900019E0FCA3E0FD900DD27C
:109B1900E0FAA3E0FBC39DEA9C5006AC02AD0380CA
:109B290008900019E0FCA3E0FD900DD2ECF0A3ED44
:109B3900F090001DE0FCA3E0FD900DD4E0FAA3E055
:109B4900FBC39DEA9C5006AC02AD03800890001D42
:109B5900E0FCA3E0FD900DD4ECF0A3EDF09000172C
:109B6900E0FCA3E0FD900DD6E0FAA3E0FBD39DEA6B
:109B79009C4006AC02AD038008900017E0FCA3E00E
:109B8900FD900DD6ECF0A3EDF0900019E0FCA3E0F8
:109B9900FD900DD8E0FAA3E0FBD39DEA9C4006AC0A
:109BA90002AD038008900019E0FCA3E0FD900DD8F8
:109BB900ECF0A3EDF090001DE0FCA3E0FD900DDAC0
:109BC900E0FAA3E0FBD39DEA9C4006AC02AD03801A
:109BD9000890001DE0FCA3E0FD900DDAECF0A3ED88
:109BE900F0E490029CF00FBF00010EEF64284E6074
:109BF90003029ADC900DD2E0FEA3E0FF900DD8E0BD
:109C0900FCA3E0FDC39FFFEC9EFEC39400400280CD
:109C190016900DD2E0FEA3E0FFC3ED9FFFEC9EFE80
:109C2900C3E49FFFE49EFED3EF9404EE9400400347
:109C3900029AA9900DD0E0FEA3E0FF900DD6E0FCBA
:109C4900A3E0FDC39FFFEC9EFEC394004002801673
:109C5900900DD0E0FEA3E0FFC3ED9FFFEC9EFEC395
:109C6900E49FFFE49EFED3EF9404EE9400400302C8
:029C79009AA9A6
:019C7B0022C6
:107CAE00E4F545F546F584900C90E0A3E0F5FD90E3
:107CBE000C90E0A3E0F5FE900C8EE0A3E0F5FB90B7
:107CCE000C8EE0A3E0F5FC908C81E493FF3395E0FD
:107CDE00FE90028275F013EF123FEEEE75F013A4D4
:107CEE002583F58312400AE92407F9E43AFA754C24
:107CFE00FF754D78754E7E754FFF7550797551EE47
:107D0E00126BD2908C81E493FF3395E0FE90028249
:107D1E0075F013EF123FEEEE75F013A42583F58385
:107D2E0012400AE92407F9E43AFA12000EEF240190
:107D3E00F54DE43EF54C908C80E493FF7B737D0112
:037D4E001296FC8E
:107D5100900D70123F7F00015F90E4FFFEFDFC90EB
:107D61000D70123F37D3123E504017900D70123FE5
:107D71002B74FFFBFAF9F8123CFD900D70123F7362
:027D810080D8A8
:107D830090029CE060FAE490029CF090029CE06018
:107D9300FAE545700F900017E0FFA3E0900C82CF47
:107DA300F0A3EFF0E546700F900019E0FFA3E09019
:107DB3000C84CFF0A3EFF0E490029CF0E545704B08
:107DC300900C82E0FEA3E02400EE34F8C3648094B8
:107DD300804010900C82E0FEA3E02400FFEE34F814
:107DE300FE8015900C82E0FEA3E02400FFEE34F841
:107DF300FEC3E49FFFE49EFED3EF9405EE648094FC
:107E03008050047F0180027F008F45E5457048C3A1
:107E1300900C82E094085015900C8EE07002A3E061
:107E230070028014900C8E74FFF5F08017900C8E06
:107E3300E07003A3E0F47005754501800A900C8E91
:107E4300E475F001123C22900C8EE0A3E0F5FB9068
:107E53000C8EE0A3E0F5FCE546704B900C84E0FE4D
:107E6300A3E02400EE34F8C3648094804010900CA7
:107E730084E0FEA3E02400FFEE34F8FE8015900CAE
:107E830084E0FEA3E02400FFEE34F8FEC3E49FFF8A
:107E9300E49EFED3EF9405EE6480948050047F014A
:107EA30080027F008F46E5467048C3900C84E094BF
:107EB300085015900C90E07002A3E07002801490BB
:107EC3000C9074FFF5F08017900C90E07003A3E022
:107ED300F47005754601800A900C90E475F0011268
:107EE3003C22900C90E0A3E0F5FD900C90E0A3E021
:107EF300F5FEE5457003027D83E5467003027D834D
:107F0300129AA9900017E0FFA3E0900C82CFF0A390
:107F1300EFF0900019E0FFA3E0900C84CFF0A3EF03
:107F2300F0908C81E493FF3395E0FE90028275F02C
:107F330013EF123FEEEE75F013A42583F583124081
:107F43000AE92407F9E43AFA754CFF754D79754E41
:107F5300FF900C8EE0F54FA3E0F550900C90E0F508
:107F630051A3E0F552126BD2908C81E493FF3395C9
:107F7300E0FE90028275F013EF123FEEEE75F01300
:107F8300A42583F58312400AE92407F9E43AFA1297
:107F9300000EEF2401F54DE43EF54C908C80E49304
:087FA300FF7B737D011296FCC7
:107FAB00900D74123F7F00015F90E4FFFEFDFC908B
:107FBB000D74123F37D3123E504017900D74123F81
:107FCB002B74FFFBFAF9F8123CFD900D74123F7302
:027FDB0080D84C
:107FDD00754CFF754D7A754E10900C82E0F54FA3E0
:107FED00E0F550900C84E0F551A3E0F5527B017A59
:107FFD000D797C126BD2908C81E493FF3395E0FE6A
:10800D0090028275F013EF123FEEEE75F013A4257A
:10801D0083F58312400AE92407F9E43AFA754CFF17
:10802D00754D78754E7E754F0175500D75517C12DD
:10803D006BD2908C81E493FF3395E0FE90028275B4
:10804D00F013EF123FEEEE75F013A42583F58312B6
:10805D00400AE92407F9E43AFA12000EEF2401F57B
:10806D004DE43EF54C908C80E493FF7B737D0112C3
:02807D0096FC6F
:10807F00900D78123F7F00015F90E4FFFEFDFC90B2
:10808F000D78123F37D3123E504017900D78123FA4
:10809F002B74FFFBFAF9F8123CFD900D78123F7329
:0280AF0080D877
:0180B10022AC
:0280B2008F42FB
:1080B400858443E4F544F545F548908C8193FF337A
:1080C40095E0FE90028275F013EF123FEEEE75F02C
:1080D40013A42583F58312400AE92407F9E43AFA44
:1080E400754CFF754D78754E7E754FFF75507A75DA
:1080F4005121126BD2908C81E493FF3395E0FE9072
:10810400028275F013EF123FEEEE75F013A425838F
:10811400F58312400AE92407F9E43AFA12000EEF53
:108124002401F54DE43EF54C908C80E493FF7B7381
:108134007D011296FCE49002B5F0A3F0F546F547F4
:10814400D390093DE0954790093CE095464023AE25
:1081540046AF477C017D00123BEC744D2547F58208
:1081640074003546F583EDF00547E5477002054692
:1081740080CE75840F30E819C39002B6E09409905C
:1081840002B5E094004003028379E49002B5F0A3C1
:10819400F090093CE0FCA3E0FD7B017A00794D8579
:1081A4004453854554E4FFFE12A94790093CE0FE80
:1081B400A3E0FF7B017A00794D85444E85454F123B
:1081C400A822E4F546F547D390093DE09547900988
:1081D4003CE09546402DAE46AF477C017D00123B06
:1081E400EC744D2547F58274003546F583E06D70D7
:1081F40001EC6005754801800A0547E547700205F2
:108204004680C4E5487003028290908C81E493FF19
:108214003395E0FE90028275F013EF123FEEEE7597
:10822400F013A42583F58312400AE92407F9E43AFC
:10823400FA754CFF754D7A754E3085444F8545501F
:10824400854651854752126BD2908C81E493FF335B
:1082540095E0FE90028275F013EF123FEEEE75F09A
:1082640013A42583F58312400AE92407F9E43AFAB2
:1082740012000EEF2401F54DE43EF54C908C80E4A1
:0C82840093FF7B737D011296FC0283794E
:10829000900CE0123F7F00015F90E4FFFEFDFC9038
:1082A0000CE0123F37D3123E504017900CE0123FC3
:1082B0002B74FFFBFAF9F8123CFD900CE0123F73AF
:0282C00080D864
:1082C200908C81E493FF3395E0FE90028275F01367
:1082D200EF123FEEEE75F013A42583F58312400AE8
:1082E200E92407F9E43AFA754CFF754D7A754E5454
:1082F20085444F854550126BD2908C81E493FF33B5
:1083020095E0FE90028275F013EF123FEEEE75F0EB
:1083120013A42583F58312400AE92407F9E43AFA03
:1083220012000EEF2401F54DE43EF54C908C80E4F2
:1083320093FF7B737D011296FCAF45AE4412AECA29
:10834200D3900C17E09545900C16E095445007E445
:10835200F544F54580080545E54570020544E542CA
:1083620064347003028176D3E5459404E544648065
:0E83720094805003028176E49002B5F0A3F0EF
:10838000900CE4123F7F00015F90E4FFFEFDFC9043
:108390000CE4123F37D3123E504017900CE4123FCA
:1083A0002B74FFFBFAF9F8123CFD900CE4123F73BA
:0283B00080D873
:1083B200908C81E493FF3395E0FE90028275F01376
:1083C200EF123FEEEE75F013A42583F58312400AF7
:1083D200E92407F9E43AFA754CFF754D78754E7E3B
:1083E200754FFF75507A75515F126BD2908C81E494
:1083F20093FF3395E0FE90028275F013EF123FEE89
:10840200EE75F013A42583F58312400AE92407F9D7
:10841200E43AFA12000EEF2401F54DE43EF54C90D9
:0F8422008C80E493FF7B737D011296FC8543846D
:018431002228
:1053AB0085844278007C0D7D017BFF7A7C799E7E23
:0C53BB00007F08123AB29000047401F068
:1053C700900CE0123F7F00015F90E4FFFEFDFC9030
:1053D7000CE0123F37D3123E504017900CE0123FBB
:1053E7002B74FFFBFAF9F8123CFD900CE0123F73A7
:0253F70080D85C
:1053F900908C81E493FF3395E0FE90028275F0135F
:10540900EF123FEEEE75F013A42583F58312400ADF
:10541900E92407F9E43AFA754CFF754D78754E7E23
:10542900754FFF75507A75516C126BD2908C81E46F
:1054390093FF3395E0FE90028275F013EF123FEE71
:10544900EE75F013A42583F58312400AE92407F9C0
:10545900E43AFA12000EEF2401F54DE43EF54C90C2
:105469008C80E493FF7B737D011296FCE49002B576
:03547900F0A3F0AD
:10547C0075840F30E819C39002B6E094099002B518
:10548C00E0940040030259D9E49002B5F0A3F090E7
:0A549C00029CE060DBE4F085D843D9
:1054A600900CE4123F7F0006DDD0E4FFFEFDFC9089
:1054B6000CE4123F37D3123E504017900CE4123FD3
:1054C6002B74FFFBFAF9F8123CFD900CE4123F73C3
:0254D60080D87C
:1054D800908C81E493FF3395E0FE90028275F0137F
:1054E800EF123FEEEE75F013A42583F58312400A00
:1054F800E92407F9E43AFA754CFF754D78754E7E44
:10550800754FFF755079755165126BD2908C81E497
:1055180093FF3395E0FE90028275F013EF123FEE91
:10552800EE75F013A42583F58312400AE92407F9E0
:10553800E43AFA12000EEF2401F54DE43EF54C90E2
:0C5548008C80E493FF7B737D011296FCC5
:10555400900CE8123F7F00015F90E4FFFEFDFC9099
:105564000CE8123F37D3123E504017900CE8123F1C
:105574002B74FFFBFAF9F8123CFD900CE8123F7310
:0255840080D8CD
:10558600754CFF754D7A754E777B017A0D79081249
:105596006BD27544007545067B017A0D79081200B9
:1055A6000E74082FF9740D3EFA7B01C003C002C0C9
:1055B6000174002545F582740D3544F583E05543A5
:1055C6007BFF60067A7A797F80047A7A79818B4CC0
:1055D6008A4D894ED001D002D003126BD2E5451513
:1055E6004570021544C3E5446480948050AA908CAB
:1055F60081E493FF3395E0FE90028275F013EF127B
:105606003FEEEE75F013A42583F58312400AE924D4
:1056160007F9E43AFA754CFF754D78754E7E754F6D
:105626000175500D755108126BD2908C81E493FF71
:105636003395E0FE90028275F013EF123FEEEE75A1
:10564600F013A42583F58312400AE92407F9E43A06
:10565600FA12000EEF2401F54DE43EF54C908C80D5
:0A566600E493FF7B737D011296FCB4
:10567000900CEC123F7F00015F90E4FFFEFDFC9078
:105680000CEC123F37D3123E504017900CEC123FF7
:105690002B74FFFBFAF9F8123CFD900CEC123F73EF
:0256A00080D8B0
:1056A200754CFF754D7A754E83900017E0F54FA348
:1056B200E0F550A3E0F551A3E0F5527B017A0D79B4
:1056C20008126BD2908C81E493FF3395E0FE900236
:1056D2008275F013EF123FEEEE75F013A42583F5F9
:1056E2008312400AE92407F9E43AFA754CFF754D32
:1056F20078754E7E754F0175500D755108126BD23B
:10570200908C81E493FF3395E0FE90028275F01352
:10571200EF123FEEEE75F013A42583F58312400AD3
:10572200E92407F9E43AFA12000EEF2401F54DE4F8
:105732003EF54C908C80E493FF7B737D011296FCC6
:10574200900CF0123F7F00015F90E4FFFEFDFC90A1
:105752000CF0123F37D3123E504017900CF0123F1C
:105762002B74FFFBFAF9F8123CFD900CF0123F7318
:0257720080D8DD
:10577400900016E06018754CFF754D7A754E909048
:10578400001DE0F54FA3E0F55090001B8014754C0C
:10579400FF754D7A754E9E90001BE0F54FA3E0F522
:1057A40050A3E0F551A3E0F5527B017A0D7908127C
:1057B4006BD2908C81E493FF3395E0FE9002827566
:1057C400F013EF123FEEEE75F013A42583F5831268
:1057D400400AE92407F9E43AFA754CFF754D7875E7
:1057E4004E7E754F0175500D755108126BD2908C19
:1057F40081E493FF3395E0FE90028275F013EF127B
:105804003FEEEE75F013A42583F58312400AE924D4
:1058140007F9E43AFA12000EEF2401F54DE43EF5DF
:0E5824004C908C80E493FF7B737D011296FC08
:10583200900CF4123F7F00015F90E4FFFEFDFC90AC
:105842000CF4123F37D3123E504017900CF4123F23
:105852002B74FFFBFAF9F8123CFD900CF4123F7323
:0258620080D8EC
:10586400754CFF754D7A754EAC90001FE0F54FA353
:10587400E0F550A3E0F551A3E0F5527B017A0D79F0
:1058840008126BD2908C81E493FF3395E0FE900272
:105894008275F013EF123FEEEE75F013A42583F535
:1058A4008312400AE92407F9E43AFA754CFF754D6E
:1058B40078754E7E754F0175500D755108126BD277
:1058C400908C81E493FF3395E0FE90028275F0138F
:1058D400EF123FEEEE75F013A42583F58312400A10
:1058E400E92407F9E43AFA12000EEF2401F54DE435
:1058F4003EF54C908C80E493FF7B737D011296FC03
:10590400900CF8123F7F00015F90E4FFFEFDFC90D5
:105914000CF8123F37D3123E504017900CF8123F48
:105924002B74FFFBFAF9F8123CFD900CF8123F734C
:0259340080D819
:10593600754CFF754D7A754EBB900023E0F54FA36D
:10594600E0F550A3E0F551A3E0F5527B017A0D791D
:1059560008126BD2908C81E493FF3395E0FE90029F
:105966008275F013EF123FEEEE75F013A42583F562
:105976008312400AE92407F9E43AFA754CFF754D9B
:1059860078754E7E754F0175500D755108126BD2A4
:10599600908C81E493FF3395E0FE90028275F013BC
:1059A600EF123FEEEE75F013A42583F58312400A3D
:1059B600E92407F9E43AFA12000EEF2401F54DE462
:1059C6003EF54C908C80E493FF7B737D011296FC30
:0A59D60002547CE49002B5F0A3F047
:1059E000900CFC123F7F00015F90E4FFFEFDFC90F5
:1059F0000CFC123F37D3123E504017900CFC123F64
:105A00002B74FFFBFAF9F8123CFD900CFC123F736B
:025A100080D83C
:105A1200908C81E493FF3395E0FE90028275F0133F
:105A2200EF123FEEEE75F013A42583F58312400AC0
:105A3200E92407F9E43AFA754CFF754D78754E7E04
:105A4200754FFF75507A7551CA126BD2908C81E4F2
:105A520093FF3395E0FE90028275F013EF123FEE52
:105A6200EE75F013A42583F58312400AE92407F9A1
:105A7200E43AFA12000EEF2401F54DE43EF54C90A3
:105A82008C80E493FF7B737D011296FCD2B3C2B685
:0C5A9200C2B5C2B4E4900004F085428468
:015A9E0022E5
:10876500858442E4F545F54678EC7C0C7D017BFF7C
:0A8775007A7C79A6FE7F08123AB262
:10877F00900CE0123F7F00015F90E4FFFEFDFC9044
:10878F000CE0123F37D3123E504017900CE0123FCF
:10879F002B74FFFBFAF9F8123CFD900CE0123F73BB
:0287AF0080D870
:1087B100908C81E493FF3395E0FE90028275F01373
:1087C100EF123FEEEE75F013A42583F58312400AF4
:1087D100E92407F9E43AFA754CFF754D78754E7E38
:1087E100754FFF75507A7551DE126BD2908C81E412
:1087F10093FF3395E0FE90028275F013EF123FEE86
:10880100EE75F013A42583F58312400AE92407F9D4
:10881100E43AFA12000EEF2401F54DE43EF54C90D6
:0C8821008C80E493FF7B737D011296FCB9
:10882D00900CE4123F7F00015F90E4FFFEFDFC9091
:10883D000CE4123F37D3123E504017900CE4123F18
:10884D002B74FFFBFAF9F8123CFD900CE4123F7308
:02885D0080D8C1
:10885F00E49002B5F0A3F0900260E024A0F54490FC
:10886F00025FE03400F54375840F30E819C39002BE
:10887F00B6E094099002B5E09400400302894EE4FB
:10888F009002B5F0A3F090025FE0FEA3E0FFB544C5
:10889F00D6EEB543D2EF24A0F544E43EF543908CD9
:1088AF0081E493FF3395E0FE90028275F013EF128F
:1088BF003FEEEE75F013A42583F58312400AE924E9
:1088CF0007F9E43AFA754CFF754D7A754EEA85450E
:1088DF004F854650126BD2908C81E493FF3395E015
:1088EF00FE90028275F013EF123FEEEE75F013A4B7
:1088FF002583F58312400AE92407F9E43AFA1200B6
:10890F000EEF2401F54DE43EF54C908C80E493FF7F
:10891F007B737D011296FC74EC2546F582740C3541
:10892F0045F583E0F5C80546E54670020545FFAEFF
:10893F00457C007D07123BEC8C458D46028876E422
:06894F009002B5F0A3F058
:10895500900CE8123F7F00015F90E4FFFEFDFC9064
:108965000CE8123F37D3123E504017900CE8123FE7
:108975002B74FFFBFAF9F8123CFD900CE8123F73DB
:0289850080D898
:10898700908C81E493FF3395E0FE90028275F0139B
:10899700EF123FEEEE75F013A42583F58312400A1C
:1089A700E92407F9E43AFA754CFF754D78754E7E60
:1089B700754FFF75507A7551F1126BD2908C81E427
:1089C70093FF3395E0FE90028275F013EF123FEEAE
:1089D700EE75F013A42583F58312400AE92407F9FD
:1089E700E43AFA12000EEF2401F54DE43EF54C90FF
:1089F7008C80E493FF7B737D011296FCD2B3C2B6E1
:078A0700C2B5C2B485428430
:018A0E002245
:10610000858442754401E4900CF4F090000404F09E
:10611000900CE0123F7F00015F90E4FFFEFDFC90D9
:106120000CE0123F37D3123E504017900CE0123F64
:106130002B74FFFBFAF9F8123CFD900CE0123F7350
:0261400080D805
:10614200908C81E493FF3395E0FE90028275F01308
:10615200EF123FEEEE75F013A42583F58312400A89
:10616200E92407F9E43AFA754CFF754D78754E7ECD
:10617200754FFF75507B755106126BD2908C81E47E
:1061820093FF3395E0FE90028275F013EF123FEE1B
:10619200EE75F013A42583F58312400AE92407F96A
:1061A200E43AFA12000EEF2401F54DE43EF54C906C
:0C61B2008C80E493FF7B737D011296FC4F
:1061BE00900CE4123F7F00015F90E4FFFEFDFC9027
:1061CE000CE4123F37D3123E504017900CE4123FAE
:1061DE002B74FFFBFAF9F8123CFD900CE4123F739E
:0261EE0080D857
:1061F000908C81E493FF3395E0FE90028275F0135A
:10620000EF123FEEEE75F013A42583F58312400ADA
:10621000E92407F9E43AFA754CFF754D78754E7E1E
:10622000754FFF75507B75510F126BD2908C81E4C6
:1062300093FF3395E0FE90028275F013EF123FEE6C
:10624000EE75F013A42583F58312400AE92407F9BB
:10625000E43AFA12000EEF2401F54DE43EF54C90BD
:0C6260008C80E493FF7B737D011296FCA0
:10626C00900CE8123F7F00015F90E4FFFEFDFC9074
:10627C000CE8123F37D3123E504017900CE8123FF7
:10628C002B74FFFBFAF9F8123CFD900CE8123F73EB
:02629C0080D8A8
:10629E00908C81E493FF3395E0FE90028275F013AB
:1062AE00EF123FEEEE75F013A42583F58312400A2C
:1062BE00E92407F9E43AFA754CFF754D78754E7E70
:1062CE00754FFF75507B755132126BD2908C81E4F5
:1062DE0093FF3395E0FE90028275F013EF123FEEBE
:1062EE00EE75F013A42583F58312400AE92407F90D
:1062FE00E43AFA12000EEF2401F54DE43EF54C900F
:10630E008C80E493FF7B737D011296FC90029CE0DF
:10631E0060FAE4F545E5451240A563440063440187
:10632E0063720263A00363DA0464080564350664CD
:10633E0062070000648DE54525E02417F582E434FC
:10634E0000F583E0FEA3E0FFC394A4EE9406400D97
:10635E00D3EF94FCEE940850047F0180027F008FEF
:10636E004302648DE54525E02417F582E43400F5FB
:10637E0083E0FEA3E0FFC39484EE940E400DD3EFB2
:10638E00949CEE941050047F0180027F008F430294
:10639E00648D900016E0602EE54525E02417F58209
:1063AE00E43400F583E0FEA3E0FFC394AAEE940567
:1063BE00400DD3EF946CEE940750047F0180027F62
:1063CE00008F4302648D75430102648DE54525E01F
:1063DE002417F582E43400F583E0FEA3E0FFC394B6
:1063EE0030EE9404400DD3EF9460EE940550047F8C
:1063FE000180027F008F4302648DE54525E024175E
:10640E00F582E43400F583E0FEA3E0FFC394CAEE08
:10641E009402400DD3EF9496EE940350047F0180C6
:10642E00027F008F438058E54525E02417F582E46E
:10643E003400F583E0FEA3E0FFC39465EE940140C3
:10644E000DD3EF94CBEE940150047F0180027F00B8
:10645E008F43802BE54525E02417F582E43400F5C3
:10646E0083E0FEA3E0FFC3943FEE9403400DD3EF11
:10647E00942BEE940450047F0180027F008F43E53D
:10648E00437002F5447B017A0C79F412000E74F419
:10649E002FF9740C3EFA7B01C003C002C001E54324
:1064AE007BFF60067A7B794A80047A7B794F8B4C2E
:1064BE008A4D894ED001D002D003126BD20545E52C
:0E64CE0045C394085003026323E490029CF03F
:1064DC00900CEC123F7F00015F90E4FFFEFDFC90FE
:1064EC000CEC123F37D3123E504017900CEC123F7D
:1064FC002B74FFFBFAF9F8123CFD900CEC123F7375
:02650C0080D835
:10650E00908C81E493FF3395E0FE90028275F01338
:10651E00EF123FEEEE75F013A42583F58312400AB9
:10652E00E92407F9E43AFA754CFF754D78754E7EFD
:10653E00754F0175500C7551F4126BD2908C81E42D
:10654E0093FF3395E0FE90028275F013EF123FEE4B
:10655E00EE75F013A42583F58312400AE92407F99A
:10656E00E43AFA12000EEF2401F54DE43EF54C909C
:0C657E008C80E493FF7B737D011296FC7F
:10658A00900CF0123F7F00015F90E4FFFEFDFC904B
:10659A000CF0123F37D3123E504017900CF0123FC6
:1065AA002B74FFFBFAF9F8123CFD900CF0123F73C2
:0265BA0080D887
:1065BC00E544908C816038E493FF3395E0FE9002C3
:1065CC008275F013EF123FEEEE75F013A42583F5F0
:1065DC008312400AE92407F9E43AFA754CFF754D29
:1065EC0078754E7E754FFF75507B7551548036E42F
:1065FC0093FF3395E0FE90028275F013EF123FEE9D
:10660C00EE75F013A42583F58312400AE92407F9EB
:10661C00E43AFA754CFF754D78754E7E754FFF75E3
:10662C00507B755161126BD2908C81E493FF339542
:10663C00E0FE90028275F013EF123FEEEE75F01350
:10664C00A42583F58312400AE92407F9E43AFA12E7
:10665C00000EEF2401F54DE43EF54C908C80E49354
:10666C00FF7B737D011296FCD2B3C2B6C2B5C2B425
:08667C00E4900004F085428463
:0166840022F3
:105A9F00858442754301E4F54590000404F0758454
:075AAF000275888085428426
:105AB600900CE0123F7F00015F90E4FFFEFDFC903A
:105AC6000CE0123F37D3123E504017900CE0123FC5
:105AD6002B74FFFBFAF9F8123CFD900CE0123F73B1
:025AE60080D866
:105AE800908C81E493FF3395E0FE90028275F01369
:105AF800EF123FEEEE75F013A42583F58312400AEA
:105B0800E92407F9E43AFA754CFF754D78754E7E2D
:105B1800754FFF75507B755173126BD2908C81E471
:105B280093FF3395E0FE90028275F013EF123FEE7B
:105B3800EE75F013A42583F58312400AE92407F9CA
:105B4800E43AFA12000EEF2401F54DE43EF54C90CC
:105B58008C80E493FF7B737D011296FC900016E025
:025B6800706E5D
:105B6A00900CE4123F7F00015F90E4FFFEFDFC9081
:105B7A000CE4123F37D3123E504017900CE4123F08
:105B8A002B74FFFBFAF9F8123CFD900CE4123F73F8
:025B9A0080D8B1
:105B9C00908C81E493FF3395E0FE90028275F013B4
:105BAC00EF123FEEEE75F013A42583F58312400A35
:105BBC00E92407F9E43AFA754CFF754D78754E7E79
:105BCC00754FFF75507B7551830260A7E4F546E570
:105BDC0046B40807E4F5C8D2FB80058545C8C2FB6E
:105BEC00900CE8123F7F00015F90E4FFFEFDFC90FB
:105BFC000CE8123F37D3123E504017900CE8123F7E
:105C0C002B74FFFBFAF9F8123CFD900CE8123F7371
:025C1C0080D82E
:105C1E00908C81E493FF3395E0FE90028275F01331
:105C2E00EF123FEEEE75F013A42583F58312400AB2
:105C3E00E92407F9E43AFA754CFF754D7B754EA1D0
:105C4E00754F00854650126BD2908C81E493FF33D2
:105C5E0095E0FE90028275F013EF123FEEEE75F0B6
:105C6E0013A42583F58312400AE92407F9E43AFACE
:105C7E0012000EEF2401F54DE43EF54C908C80E4BD
:105C8E0093FF7B737D011296FC90029CE060FAE517
:105C9E00461240A55CC1005D0E015D5A025DA60371
:105CAE005DF2045E3E055E8A065ED5075F2508003E
:105CBE00005F28854284E5D8547FB54519D39000FE
:105CCE0022E094CA900021E09402400A3086073008
:105CDE0087047F0180027F008F44758401E5446054
:105CEE0007208E047F0180027F008F44758402E5B9
:105CFE00446008208E057F01025F1E7F00025F1E3A
:105D0E00854284E5D8547FB54519C3900022E094AE
:105D1E005E900021E09401500A2086073087047FB0
:105D2E000180027F008F44758401E5446007208E58
:105D3E00047F0180027F008F44758402E544600772
:105D4E00208E047F0180027F00025F1E854284E563
:105D5E00D8547FB54519C3900022E0945E9000217F
:105D6E00E09401500A3086072087047F0180027F6D
:105D7E00008F44758401E5446007208E047F018006
:105D8E00027F008F44758402E5446007208E047FF5
:105D9E000180027F00025F1E854284E5D8547FB5E4
:105DAE004519C3900022E0945E900021E0940150CA
:105DBE000A3086073087047F0180027F008F44758A
:105DCE008401E5446007208E047F0180027F008FEE
:105DDE0044758402E5446007208E047F0180027FB3
:105DEE0000025F1E854284E5D8547FB54519C390E5
:105DFE000022E0945E900021E09401500A30860764
:105E0E003087047F0180027F008F44758401E54452
:105E1E006007208E047F0180027F008F447584020C
:105E2E00E5446007208E047F0180027F00025F1E22
:105E3E00854284E5D8547FB54519C3900022E0947D
:105E4E005E900021E09401500A3086073087047F6F
:105E5E000180027F008F44758401E5446007208E27
:105E6E00047F0180027F008F44758402E544600741
:105E7E00208E047F0180027F00025F1E854284E532
:105E8E00D8547FB54519C3900022E0945E9000214E
:105E9E00E09401500A3086073087047F0180027F2C
:105EAE00008F44758401E5446007208E047F0180D5
:105EBE00027F008F44758402E5446007308E047FB4
:105ECE000180027F008049854284E5D8547FB54524
:105EDE0019C3900022E0945E900021E09401500AD4
:105EEE003086073087047F0180027F008F447584DF
:105EFE0001E5446007308E047F0180027F008F44ED
:105F0E00758402E5446007208E047F0180027F00C5
:105F1E008F448542848003754401E490029CF0E531
:065F2E00446003025FE580
:105F3400900CEC123F7F00015F90E4FFFEFDFC90AB
:105F44000CEC123F37D3123E504017900CEC123F2A
:105F54002B74FFFBFAF9F8123CFD900CEC123F7322
:025F640080D8E3
:105F6600908C81E493FF3395E0FE90028275F013E6
:105F7600EF123FEEEE75F013A42583F58312400A67
:105F8600E92407F9E43AFA754CFF754D78754E7EAB
:105F9600754FFF75507B7551B4126BD2908C81E4AE
:105FA60093FF3395E0FE90028275F013EF123FEEF9
:105FB600EE75F013A42583F58312400AE92407F948
:105FC600E43AFA12000EEF2401F54DE43EF54C904A
:105FD6008C80E493FF7B737D011296FCE4F543E528
:105FE6004670057545018006E54525E0F5450546FB
:0A5FF600E546D394085003025BDB7C
:10600000900CF0123F7F00015F90E4FFFEFDFC90DA
:106010000CF0123F37D3123E504017900CF0123F55
:106020002B74FFFBFAF9F8123CFD900CF0123F7351
:0260300080D816
:10603200E543908C816038E493FF3395E0FE900253
:106042008275F013EF123FEEEE75F013A42583F57F
:106052008312400AE92407F9E43AFA754CFF754DB8
:1060620078754E7E754FFF75507B7551C08036E452
:1060720093FF3395E0FE90028275F013EF123FEE2C
:10608200EE75F013A42583F58312400AE92407F97B
:10609200E43AFA754CFF754D78754E7E754FFF7573
:1060A200507B7551D0126BD2908C81E493FF339563
:1060B200E0FE90028275F013EF123FEEEE75F013E0
:1060C200A42583F58312400AE92407F9E43AFA1277
:1060D200000EEF2401F54DE43EF54C908C80E493E4
:1060E200FF7B737D011296FC758402E4F588D2B3BE
:0D60F200C2B6C2B5C2B4900004F08542846D
:0160FF00227E
:097441008584429000047401F0FE
:10744A00900CE0123F7F00015F90E4FFFEFDFC908C
:10745A000CE0123F37D3123E504017900CE0123F17
:10746A002B74FFFBFAF9F8123CFD900CE0123F7303
:02747A0080D8B8
:10747C00908C81E493FF3395E0FE90028275F013BB
:10748C00EF123FEEEE75F013A42583F58312400A3C
:10749C00E92407F9E43AFA754CFF754D78754E7E80
:1074AC00754FFF75507B7551E5126BD2908C81E452
:1074BC0093FF3395E0FE90028275F013EF123FEECE
:1074CC00EE75F013A42583F58312400AE92407F91D
:1074DC00E43AFA12000EEF2401F54DE43EF54C901F
:1074EC008C80E493FF7B737D011296FC900016E078
:0274FC00706EB0
:1074FE00900CE4123F7F00015F90E4FFFEFDFC90D4
:10750E000CE4123F37D3123E504017900CE4123F5A
:10751E002B74FFFBFAF9F8123CFD900CE4123F734A
:02752E0080D803
:10753000908C81E493FF3395E0FE90028275F01306
:10754000EF123FEEEE75F013A42583F58312400A87
:10755000E92407F9E43AFA754CFF754D78754E7ECB
:0F756000754FFF75507B75518302782A75C820CF
:10756F00900CE8123F7F00015F90E4FFFEFDFC905E
:10757F000CE8123F37D3123E504017900CE8123FE1
:10758F002B74FFFBFAF9F8123CFD900CE8123F73D5
:02759F0080D892
:1075A100908C81E493FF3395E0FE90028275F01395
:1075B100EF123FEEEE75F013A42583F58312400A16
:1075C100E92407F9E43AFA754CFF754D78754E7E5A
:1075D100754FFF75507B7551F1126BD2908C81E420
:1075E10093FF3395E0FE90028275F013EF123FEEA8
:1075F100EE75F013A42583F58312400AE92407F9F7
:10760100E43AFA12000EEF2401F54DE43EF54C90F8
:107611008C80E493FF7B737D011296FC7F0112B095
:04762100D575C860F3
:10762500900CEC123F7F00015F90E4FFFEFDFC90A3
:107635000CEC123F37D3123E504017900CEC123F22
:107645002B74FFFBFAF9F8123CFD900CEC123F731A
:0276550080D8DB
:10765700908C81E493FF3395E0FE90028275F013DE
:10766700EF123FEEEE75F013A42583F58312400A5F
:10767700E92407F9E43AFA754CFF754D78754E7EA3
:10768700754FFF75507C755104126BD2908C81E455
:1076970093FF3395E0FE90028275F013EF123FEEF1
:1076A700EE75F013A42583F58312400AE92407F940
:1076B700E43AFA12000EEF2401F54DE43EF54C9042
:0E76C7008C80E493FF7B737D011296FCC2FF62
:1076D500900CF0123F7F0006DDD0E4FFFEFDFC902C
:1076E5000CF0123F37D3123E504017900CF0123F6A
:1076F5002B74FFFBFAF9F8123CFD900CF0123F7366
:0277050080D82A
:02770700D2FFAF
:10770900900CF4123F7F00015F90E4FFFEFDFC90B6
:107719000CF4123F37D3123E504017900CF4123F2D
:107729002B74FFFBFAF9F8123CFD900CF4123F732D
:0277390080D8F6
:10773B00908C81E493FF3395E0FE90028275F013F9
:10774B00EF123FEEEE75F013A42583F58312400A7A
:10775B00E92407F9E43AFA754CFF754D78754E7EBE
:10776B00754FFF75507C755117126BD2908C81E45D
:10777B0093FF3395E0FE90028275F013EF123FEE0C
:10778B00EE75F013A42583F58312400AE92407F95B
:10779B00E43AFA12000EEF2401F54DE43EF54C905D
:1077AB008C80E493FF7B737D011296FCE4FF12B097
:0477BB00D5E4F5C854
:1077BF00900CF8123F7F00015F90E4FFFEFDFC90FC
:1077CF000CF8123F37D3123E504017900CF8123F6F
:1077DF002B74FFFBFAF9F8123CFD900CF8123F7373
:0277EF0080D840
:1077F100908C81E493FF3395E0FE90028275F01343
:10780100EF123FEEEE75F013A42583F58312400AC3
:10781100E92407F9E43AFA754CFF754D78754E7E07
:10782100754FFF75507C75512B126BD2908C81E492
:1078310093FF3395E0FE90028275F013EF123FEE55
:10784100EE75F013A42583F58312400AE92407F9A4
:10785100E43AFA12000EEF2401F54DE43EF54C90A6
:107861008C80E493FF7B737D011296FCD2B3C2B688
:0C787100C2B5C2B4E4900004F08542846B
:01787D0022E8
:0F6FE500E4F546A2FB920185844790000404F076
:106FF400900CE0123F7F00015F90E4FFFEFDFC90E7
:107004000CE0123F37D3123E504017900CE0123F71
:107014002B74FFFBFAF9F8123CFD900CE0123F735D
:0270240080D812
:10702600908C81E493FF3395E0FE90028275F01315
:10703600EF123FEEEE75F013A42583F58312400A96
:10704600E92407F9E43AFA754CFF754D78754E7EDA
:10705600754FFF75507C75513C126BD2908C81E454
:1070660093FF3395E0FE90028275F013EF123FEE28
:10707600EE75F013A42583F58312400AE92407F977
:10708600E43AFA12000EEF2401F54DE43EF54C9079
:107096008C80E493FF7B737D011296FC900016E0D2
:0270A600706E0A
:1070A800900CE4123F7F00015F90E4FFFEFDFC902E
:1070B8000CE4123F37D3123E504017900CE4123FB5
:1070C8002B74FFFBFAF9F8123CFD900CE4123F73A5
:0270D80080D85E
:1070DA00908C81E493FF3395E0FE90028275F01361
:1070EA00EF123FEEEE75F013A42583F58312400AE2
:1070FA00E92407F9E43AFA754CFF754D78754E7E26
:10710A00754FFF75507B7551830273F0C2FBE4F52E
:03711A0084D2C656
:10711D00900CE8123F7F00015F90E4FFFEFDFC90B4
:10712D000CE8123F37D3123E504017900CE8123F37
:10713D002B74FFFBFAF9F8123CFD900CE8123F732B
:02714D0080D8E8
:10714F00754200754308754400754532908C81E493
:10715F0093FF3395E0FE90028275F013EF123FEE2E
:10716F00EE75F013A42583F58312400AE92407F97D
:10717F00E43AFA754CFF754D7C754E5085424F853C
:10718F004350854451854552126BD2908C81E493C4
:10719F00FF3395E0FE90028275F013EF123FEEEE93
:1071AF0075F013A42583F58312400AE92407F9E447
:1071BF003AFA12000EEF2401F54DE43EF54C908C97
:1071CF0080E493FF7B737D011296FCD2B6D2B3C2DB
:1071DF00B4C2B590004412400A7408123B51E4F552
:1071EF0042F543E5432440FF90004412400AE54333
:1071FF002401FDE435428D82F583EF123B63054395
:10720F00E543700205426408454270D7900042740E
:10721F0009F0A314F090003F7404F0E4F544F54531
:10722F00E490004AF012B140AE44AF457C007D0AB5
:10723F00123B97ED4C6002B2B530E819C39002B61D
:10724F00E094099002B5E094004003027340E4908B
:05725F0002B5F0A3F0F0
:10726400900CEC123F7F00001194E4FFFEFDFC90B3
:107274000CEC123F37D3123E504017900CEC123FE7
:107284002B74FFFBFAF9F8123CFD900CEC123F73DF
:0272940080D8A0
:1072960012B124E4FFFE90004AE0FD700D0FEF707E
:1072A600010EC394ECEE942C40ECED70057546018E
:1072B600803EE4F542F54390004412400AE543243B
:1072C60001FFE435428F82F583123AF1FF900047C1
:1072D60012400A854382854283123AF16F60037534
:1072E60046010543E543700205426408454270C7FE
:0472F600E5467046B3
:1072FA00900CF0123F7F00001194E4FFFEFDFC9019
:10730A000CF0123F37D3123E504017900CF0123F48
:10731A002B74FFFBFAF9F8123CFD900CF0123F7344
:02732A0080D809
:10732C000545E54570020544C39432E5449400508C
:0D733C000302722FA20192FB854784C2C696
:10734900900CF4123F7F00015F90E4FFFEFDFC907A
:107359000CF4123F37D3123E504017900CF4123FF1
:107369002B74FFFBFAF9F8123CFD900CF4123F73F1
:0273790080D8BA
:10737B00E546908C816038E493FF3395E0FE9002F4
:10738B008275F013EF123FEEEE75F013A42583F523
:10739B008312400AE92407F9E43AFA754CFF754D5C
:1073AB0078754E7E754FFF75507C7551648036E451
:1073BB0093FF3395E0FE90028275F013EF123FEED0
:1073CB00EE75F013A42583F58312400AE92407F91F
:1073DB00E43AFA754CFF754D78754E7E754FFF7517
:1073EB00507C75517A126BD2908C81E493FF33955C
:1073FB00E0FE90028275F013EF123FEEEE75F01384
:10740B00A42583F58312400AE92407F9E43AFA121A
:10741B00000EEF2401F54DE43EF54C908C80E49387
:10742B00FF7B737D011296FCD2B3C2B4C2B5C2B658
:05743B00E4900004F0E4
:017440002229
:1090BB00A2FB92018584449000047401F09000425D
:1090CB007410F0A3F0E490004AF0900016E06003F7
:0390DB0002918F70
:1090DE00900CE0123F7F00015F90E4FFFEFDFC90DC
:1090EE000CE0123F37D3123E504017900CE0123F67
:1090FE002B74FFFBFAF9F8123CFD900CE0123F7353
:02910E0080D807
:10911000908C81E493FF3395E0FE90028275F0130A
:10912000EF123FEEEE75F013A42583F58312400A8B
:10913000E92407F9E43AFA754CFF754D78754E7ECF
:10914000754FFF75507B755183126BD2908C81E403
:1091500093FF3395E0FE90028275F013EF123FEE1D
:10916000EE75F013A42583F58312400AE92407F96C
:10917000E43AFA12000EEF2401F54DE43EF54C906E
:0F9180008C80E493FF7B737D011296FC0292D8E2
:10918F00900CE4123F7F00015F90E4FFFEFDFC9026
:10919F000CE4123F37D3123E504017900CE4123FAD
:1091AF002B74FFFBFAF9F8123CFD900CE4123F739D
:0291BF0080D856
:1091C100908C81E493FF3395E0FE90028275F01359
:1091D100EF123FEEEE75F013A42583F58312400ADA
:1091E100E92407F9E43AFA754CFF754D78754E7E1E
:1091F100754FFF75507C75518B126BD2908C81E449
:1092010093FF3395E0FE90028275F013EF123FEE6B
:10921100EE75F013A42583F58312400AE92407F9BA
:10922100E43AFA12000EEF2401F54DE43EF54C90BC
:109231008C80E493FF7B737D011296FCC2FB7E0060
:10924100754200754332D2B6D2B3C2B4C2B5E4F5A9
:109251008475C304C2C3FFEF24F0FD9000441240A3
:109261000A8F828E83ED123B630FBF00010EEF6404
:10927100084E70E390004AE060FA30E816C39002AD
:10928100B6E094099002B5E094005042E49002B532
:10929100F0A3F0E490004AF0FEFF900043E0FDC32C
:1092A100EF9DEE9400502390004712400A8F828E6A
:1092B10083123AF1FD90004412400A8F828E83EDB1
:1092C100123B630FBF00010E80D0B2B580A6A20190
:1092D10092FB854484C2C6D2B3C2B4C2B5C2B6E45D
:0792E100900004F0854484B5
:0192E8002263
:10FE00008E448F458E448F45E4F546F547A2AF33C7
:10FE1000F548C2AFE4F58443B701758F03C3E546E7
:10FE200094FC50168547828546837488F0E4254704
:10FE3000F54774043546F54680E3E4F58FF546F55D
:10FE400047F54BF54C75840FE54C54037002B2B680
:10FE500012FFB58F4DE54D30E7F6C2F9E4F54EF5EA
:10FE60004F054FE54F7002054E6440454E70F27FDE
:10FE7000D212FFA4E54CAE4B7806CEC313CE13D8F6
:10FE8000F9FF12FFA412FF9CE4FF12FFA4E4FF128B
:10FE9000FFA4E4FF12FFA4E4FF12FFA4E4FF12FF9B
:10FEA000A4E4F549F54AE4FF12FFA4744D254AF590
:10FEB0008274003549F583EFF0054AE54A70020582
:10FEC00049C3E549940240DED2F9E4F584758F0117
:10FED000F549F54A744D254AF58274003549F58394
:10FEE000E0FF0547E547AC467002054614F5828CF5
:10FEF00083EFF0054AE54A70020549B400D6E549AA
:10FF0000B402D1E4F58F054CE54C7002054BC39467
:07FF10007FE54B9400500354
:10FF170002FE45E4F58F53B7FEE54824FF92AFE4B0
:10FF2700F5D075840FF54BF54CC3E54B9420505431
:10FF3700E54C543F7002B2B512FFB58F4DE54D3019
:10FF4700E7F6C2F9E4F54EF54F054FE54F700205A8
:10FF57004E6440454E70F27F5012FFA4E54CAE4B05
:10FF67007806CEC313CE13D8F9FF12FFA412FF9C55
:10FF7700E4FF12FFA4D2F97408254CF54CE4354B85
:10FF8700F54B80A512FFB58F4DE54D30E7F6E4F54B
:05FF97008443EF01228C
:10FF9C00AF4CEF25E025E0FFAE84E4F5848F9B3079
:09FFAC00FFFDC2FFAF9B8E842211
:10FFB500C2F9E4F550F5510551E55170020550645B
:10FFC50040455070F27FD712FFA4E4FF12FFA4D280
:02FFD500F9220F
:1096E200908C80E493FFAB32AA33A934900001122C
:0A96F2003AF1FDE4F54CF54D7B065E
:0496FC008F498B4BBC
:10970000754EFFE4F54FF550ED908C8093F5517454
:10971000252DF582E4340CF5837464F0908C80E49C
:1097200093B54919E54B64066013E54B6415600D6C
:1097300074122DF582E4340CF583E54BF0E5517598
:10974000F013A42482F582E43402F58312400A74F3
:1097500016123B51E55175F013A42482F582E434CE
:1097600002F58312400A900001E549123B63E5517E
:1097700075F013A42482F582E43402F58312400AC2
:10978000900002ED123B637402254DF54DE4354C1B
:10979000F54CFFE55175F013A42482F582E4340200
:1097A000F58312400A900003EF123B63E55175F018
:1097B00013A42482F582E43402F58312400A900057
:1097C00004E54D123B63E55175F013A42482F58244
:1097D000E43402F58312400A900005E54B123B6326
:1097E000E4FEFFE55175F013A42482F582E434020F
:1097F000F58312400A8F828E83123AF1624E0FBFB8
:1098000000010EEF64064E70DAE55175F013A424E2
:1098100082F582E43402F58312400A900006E54E98
:10982000123B6374FE254DF54D74FF354CF54CE548
:109830005175F013A42482F582E43402F5831240BA
:109840000AE92407F9E43AFAAD4DAC4C12AC888E23
:109850004F8F50EEFFE55175F013A42482F582E49A
:109860003402F58312400A054DE54D7002054C2483
:1098700006F582E4354CF583EF123B63E55175F054
:1098800013A42482F582E43402F58312400A054DC4
:10989000E54D7002054C2406F582E4354CF583E570
:1098A00050123B63E55175F013A42475F974023529
:1098B000F0FA7B01E54D2407FDE4354CFC12ACE3E6
:0998C000E54D2407FFE4354CFEE0
:0198C900227C
:0841A0008F318B328A33893420
:1041A800E4900CDCF0A3F0900003123AF1FE9000CA
:1041B80004123AF17C002400FFEC3ECF24FECF34F9
:1041C800FFFE900CDEF0FCA3EFF0FDE92407F9E414
:1041D8003AFA12AE37900CDCEEF0A3EFF04E603AEC
:1041E800AB32AA33A934900005123AF1FF64157076
:1041F80003024AFBEF64067003024AFB90000112B7
:104208003AF12425F582E4340CF5837464F09000C7
:0A42180001123AF1FF7D040245D9BE
:10422200AB32AA33A934900002123AF1FF908C808B
:10423200E4936F70030242DCEFF470030242DCEF9E
:1042420093FF3395E0FE90028275F013EF123FEE7A
:10425200EE75F013A42583F58312400AE92407F9C9
:10426200E43A8B3AF53B893CE5342407F9E43533EB
:10427200853237F5388939E4F535F536D3900CDFD8
:10428200E09536900CDEE0953540247837E475F001
:1042920001123FFA123AD8FF783AE475F001123F60
:1042A200FAEF123B510536E53670D1053580CDABBC
:1042B20032AA33A934900001123AF1FF900002129F
:1042C2003AF1FD900005123AF1FB900CDEE0F54C5C
:1042D200A3E0F54D1296FC024AFBAB32AA33A93495
:1042E200900001123AF1FFB403069000147401F039
:1042F200900005123AF11240A5435006438610433E
:104302006F1546143047683147903247B83348A892
:104312003447E03548083648303748A838485839D5
:1043220048803A456D41456D4248D4504926514630
:10433200495547015644A870450C7143B3904A1140
:104342009148CC9347309444429800004AC7741273
:104352002FF582E4340CF583AB32AA33A9349000F2
:1043620001123AF12412F582E4340C8010AB32AA25
:1043720033A934123AD82413F582E4340CF583E4D9
:10438200F0024AB4900C18E0FFC394054006EFD344
:1043920094204004EFB4E20512ADE880031296E2E5
:1043A200900CDCEEF0A3EFF0AB32AA33A934024A50
:0143B200B456
:1043B300900C18E0FFC394054006EFD3942040040B
:1043C300EFB4E20512ADE88065AB32AA33A93490AD
:1043D3000007123AF1FE900008123AF17C00240023
:1043E300F53EEC3EF53DE53175F013A42482F582EC
:1043F300E43402F58312400AE92407F9E43AFA9017
:10440300093CE0FEA3E0FF853D4E853E4F12A82206
:10441300908C80E493FFAB32AA33A934900001124D
:104423003AF1FD90093CE0F54CA3E01296F8900CAC
:0F443300DCEEF0A3EFF0AB32AA33A934024AB4A7
:10444200900C18E0FFC394054006EFD3942040047B
:10445200EFB4E20512ADE8803CAB32AA33A9349046
:104462000007123AF1FE900008123AF17C00240093
:10447200F53EEC3EF53D90093CE0FCA3E0FDE9246D
:1044820009F9E43AFA853D53853E547F027E0012D3
:10449200A9471296E2900CDCEEF0A3EFF0AB32AA41
:0644A20033A934024AB404
:1044A800900C18E0FFC394054006EFD39420400415
:1044B800EFB4E20512ADE8803AE53175F013A424B3
:1044C80082F582E43402F58312400AE92407F9E40C
:1044D8003AFA12AD94908C80E493FFAB32AA33A9D8
:1044E80034900001123AF1FD754C00754D807B0641
:1044F8001296FC900CDCEEF0A3EFF0AB32AA33A9D5
:1045080034024AB4900C18E0FFC394054006EFD378
:1045180094204004EFB4E20512ADE8803712B07D74
:10452800AB32E5342407F9E43533FA900CDEE0FECB
:10453800A3E0FFC39480EE94005006AC06AD07805C
:10454800047C007D8012AB437B017A0C792912AD83
:10455800941296E2900CDCEEF0A3EFF0AB32AA33A3
:05456800A934024AB471
:10456D00900C18E0FFF53DAB32AA33A9349000054D
:10457D00123AF1FE7C00B441047D0080027D058C71
:10458D003E8D3FEE900C17E024FFFD900C16E034AD
:10459D00FFFC8C408D41AB32AA33A934900001123F
:1045AD003AF12425F582E4340CF583E4F0EFC3945D
:1045BD00054009900C18E0D394204007900C18E0AA
:1045CD00B4E217900001123AF1FF7D2012ADF79081
:1045DD000CDCEEF0A3EFF0024AFB900C1874E2F045
:1045ED001296E2900CDCEEF0A3EFF0E4FFFE12AEBB
:1045FD00CA7B01AD41AC40AF3FAE3E12ABB2900CA9
:07460D0018E53DF0024AFB35
:104614001296E2900CDCEEF0A3EFF0AB32AA33A9D1
:1046240034900001123AF12425F582E4340CF58328
:10463400E4F012007E8F3DE53D30E7F6E4F5844377
:05464400EF01024AFB3A
:104649001296E2900CDCEEF0A3EFF07B017A02798E
:0C465900757F007EE17D007C001292E97C
:10466500900CD0123F7F00004650E4FFFEFDFC9009
:104675000CD0123F37D3123E504017900CD0123F4A
:104685002B74FFFBFAF9F8123CFD900CD0123F7326
:0246950080D8CB
:10469700E4F584C2ACC298D29975840153E7BFC2CE
:0346A70098D2990D
:1046AA0075840F30E815C39002B6E094099002B5FC
:1046BA00E094004006E4F58443EF01E4F584309881
:1046CA0017758401309911C299F58485993DC2986C
:1046DA00B2B4758401853D997584013098C2E4F5B8
:1046EA00843099BCC29975840185993DC298B2B546
:0546FA00F584853D99E7
:1046FF0080A91296E2900CDCEEF0A3EFF0AB32AA99
:10470F0033A934900001123AF12425F582E4340CD8
:10471F00F583E4F0900007123AF1900015F0024A89
:10472F00FB1296E2900CDCEEF0A3EFF0AB32AA3363
:10473F00A934900001123AF12425F582E4340CF5E6
:10474F0083E4F0900016E07003024AFB900007121A
:10475F003AF1FF12B0D5024AFB1296E2900CDCEE52
:10476F00F0A3EFF0AB32AA33A934900001123AF163
:10477F002425F582E4340CF583E4F0122632024A44
:10478F00FB1296E2900CDCEEF0A3EFF0AB32AA3303
:10479F00A934900001123AF12425F582E4340CF586
:1047AF0083E4F01253AB024AFB1296E2900CDCEE5C
:1047BF00F0A3EFF0AB32AA33A934900001123AF113
:1047CF002425F582E4340CF583E4F0128765024A60
:1047DF00FB1296E2900CDCEEF0A3EFF0AB32AA33B3
:1047EF00A934900001123AF12425F582E4340CF536
:1047FF0083E4F0126100024AFB1296E2900CDCEEA9
:10480F00F0A3EFF0AB32AA33A934900001123AF1C2
:10481F002425F582E4340CF583E4F0125A9F024A02
:10482F00FB1296E2900CDCEEF0A3EFF0AB32AA3362
:10483F00A934900001123AF12425F582E4340CF5E5
:10484F0083E4F0127441024AFB1296E2900CDCEE04
:10485F00F0A3EFF0AB32AA33A934900001123AF172
:10486F002425F582E4340CF583E4F0126FE5024A57
:10487F00FB1296E2900CDCEEF0A3EFF0AB32AA3312
:10488F00A934900001123AF12425F582E4340CF595
:10489F0083E4F01290BB024AFBAB32AA33A93490E7
:1048AF000001123AF12425F582E4340CF583E4F08B
:1048BF00900005123AF1FF1280B2024AFB9002E219
:1048CF0074FF0249A9900C18E064F0702775450138
:1048DF00754600754705AB32AA33A93412A62E12BE
:1048EF0096E2900CDCEEF0A3EFF00575E575701E07
:1048FF000574801AAB32AA33A934900001123AF131
:10490F00FF7D0812ADF7900CDCEEF0A3EFF0AB32A9
:10491F00AA33A934024AB4900C18E0B4F114AB32A4
:10492F00AA33A934900007123AF1FF900005E06F07
:10493F006072AB32AA33A934900001123AF1FF7DB5
:10494F000812ADF7900CDCEEF0A3EFF0AB32AA3308
:10495F00A934900001123AF12425F582E4340CF5C4
:03496F0083E4F0EE
:10497200900CD4123F7F0000AFC8E4FFFEFDFC9014
:104982000CD4123F37D3123E504017900CD4123F32
:104992002B74FFFBFAF9F8123CFD900CD4123F7312
:0249A20080D8BB
:1049A4009002E274F2F0900CAB7401F0024AFB1234
:1049B40096E2900CDCEEF0A3EFF0AB32AA33A9340C
:1049C400900001123AF12425F582E4340CF583E4D5
:0149D400F0F2
:1049D500900CD8123F7F0000AFC8E4FFFEFDFC90AD
:1049E5000CD8123F37D3123E504017900CD8123FC7
:1049F5002B74FFFBFAF9F8123CFD900CD8123F73AB
:024A050080D857
:104A0700AF75AE7412B019024AFB900CAB7401F08B
:104A1700AB32AA33A934900007123AF19002E2F0C0
:104A2700D3900CDFE09401900CDEE09400406D9091
:104A37000008123AF1540F900BD2F0900009123A85
:104A4700F1900CAAF0E4F535F536AB32AA33A93468
:104A5700E536240AFFE435358F82F583123AF1FFF4
:104A670074612536F58274023535F583EFF0053626
:104A7700E536700205356404453570CEAB32AA338E
:104A8700A93490000E123AF19002B4F090000F1280
:104A97003C79FF9002ADE5F0F0A3EFF01296E290BB
:104AA7000CDCEEF0A3EFF0AB32AA33A9349000018F
:104AB700123AF12425F582E4340CF583E4F08034CE
:104AC700AB32AA33A934900001123AF12425F582BA
:104AD700E4340CF5837464F0900001123AF1FF7D21
:104AE7000212ADF7900CDCEEF0A3EFF074FF900C20
:044AF700DCF0A3F05C
:084AFB00900CDCE0FEA3E0FFDB
:014B0300228F
:0AAE37008B428A4389448C458D4606
:10AE410012AC888E478F48AB42AA43A944854682FB
:10AE5100854583123AF17F00FEE5462401FDE43584
:10AE6100458D82F583123AF12FFFE43EFEE548B5A8
:0FAE71000709E547B50604E4FEFF227EFF7FFFD9
:01AE800022AF
:0FADE800AB32AA33A934900001123AF1FF7D205B
:10ADF700AE07EE908C8093FB3395E0FA9002827554
:10AE0700F013EB123FEEEA75F013A42583F58312D6
:10AE1700400A900007ED123B63908C80E493FFADEE
:10AE270006754C00754D017B151296FCE4FEFF225A
:06A62E008B428A438944BF
:10A63400E4F548F549900003123AF1FE9000041243
:10A644003AF1FDEEF54AEDF54BE4F548F549E54BF5
:10A6540024FEFFE54A34FFFEC364809482500280E6
:10A66400047E027F00C3E5499FEE6480F8E54864F8
:10A6740080985048AB45AA46A947C003C002C00110
:10A68400123AD8FFAB42AA43A944E5492407FDE4A2
:10A6940035488D82F583123AF1FE744D2549F582D1
:10A6A40074003548F583EEF06FD001D002D0031268
:10A6B4003B510549E5497096054880927E00E57551
:10A6C4005401FF90093CE0FCA3E0FD7B017A007992
:0AA6D4004D85745385755402A947A3
:04B019008E428F4391
:10B01D0090FE00E493FE740193FF900CE3EEF0A319
:10B02D00EFF0BE8012BFFE0F7B007AFE7902900C0E
:0EB03D00E01240130240F8AF75AE7412FE0030
:01B04B0022E2
:02FDFE0080FE85
:10AC88008B528A538954E92DF9EA3C8B55F556893C
:10AC980057E4F558F559C3855683855782E5549589
:10ACA80082E5539583502F7852E475F001123FFAEC
:10ACB800123AD8FFE5596F25E0FFE433FE74842F7C
:10ACC800F582748C3EF583E558FFE493F5587401DA
:0BACD800936FF55980C0AE58AF5922B1
:1034650002382BE86480F8E933E83360110460F032
:10347500ED33EC337009E8FCE9FDEAFEEBFF2204CD
:1034850060DED3EB9FEA9EE99DE8C2E78CF0C2F7C8
:1034950095F0400CE8CCF8E9CDF9EACEFAEBCFFB94
:1034A5001237F685D0F05804700320D5B3E80470C0
:1034B500075002B2D502383592D5EC0460F7E4CC5A
:1034C500C0E0C398F8603B94186008400DD0E0FB5D
:1034D50002380DE4FBFAC9FC8028E830E406E4C9AB
:1034E500FBE4CAFCE830E305E4C9CACBFCE85407B1
:1034F5006010F8C3E913F9EA13FAEB13FBEC13FCBC
:10350500D8F130F52FC3E49CFCEF9BFFEE9AFEED5E
:1035150099FDD0E0FBEF4E4D4C701222DB030238D3
:1035250032EC2CFCEF33FFEE33FEED33FDED30E7EF
:10353500EB02380DEF2BFFEE3AFEED39FDD0E0FB47
:1035450050130BBB0003023835ED13FDEE13FEEFF0
:0835550013FFEC13FC02380D1A
:10355D00EC4D6011E8497017ED33EC3304600DE468
:10356D00FCFFFEFD22E933E8330470F802382B121C
:10357D0037F658046009E4CC24815006285009021E
:10358D003835284003023832C0E0EB4A7044B98028
:10359D0006D0E0FB023821EF4E701CBD8008EBFF1A
:1035AD00EAFEE9FD80EBE98DF0A4FEE5F00236467A
:1035BD00E9CDF9EAFEEBFFEF89F0A4FCE5F0CE8949
:1035CD00F0A42EFFE435F0CD89F0A42DFEE435F006
:1035DD008067EF4E7005BD80D780C3EF8BF0A4AC34
:1035ED00F0EE8BF0A42CFCE435F0F8EF8AF0A42C6F
:1035FD00E5F038FCE433CB8DF0A42CFCE5F03BF882
:10360D00EE8AF0A42CFCE5F038F8E433CF89F0A471
:10361D002CFCE5F038CF3400CE89F0A42FFFE5F077
:10362D003EFEE433C98DF0A42EFEE5F039CD8AF0CF
:10363D00A42FFFE5F03EFEE43DFD33D0E0FB500747
:10364D000BBB000F023835EC2CFCEF33FFEE33FED5
:06365D00ED33FD02380D03
:10366300023835EC5D046005E85904700302382B19
:103673001237F6580460F6EC4860F2EC7004FDFE75
:10368300FF22C860DB2481C85009C398600250063A
:103693000238329850CAF582E9294B4A7005AB8249
:1036A30002382175F0007C1A7880C3EF9BEE9AED07
:1036B30099400DC3EF9BFFEE9AFEED99FDE842F0B2
:1036C300DC23ACF0D0E0FFD0E0FED0E0FDAB822005
:1036D300E7101BEB60BAEC2CFCEF33FFEE33FEED8F
:1036E30033FD02380DE803F830E705C0F075F0004C
:1036F300EF2FFFEE33FEED33FD40B830E7C280AA73
:1037030074F8CC6480CCC86480C8F582046043C379
:10371300EB9FF5F0EA9E42F0E99D42F0E89C45F00C
:1037230060305018E5825FFFE582F42B5582FB5031
:10373300210ABA001D09B90019088016E5825BFB4E
:10374300E582F42F5582FF50090EBE00050DBD0022
:10375300010CC3EB9FF5F0EA9E42F0E99D42F0E8CD
:0D3763009C45F06007CC4820E701B3EC2244
:10377000ED33EC33600A047003BD8004ECB2E7FC67
:013780002226
:1037810075F020800E75F010800575F0087D007EC3
:10379100007F003392D530D503123E42EC33401006
:1037A100EF33FFEE33FEED33FDEC33FCD5F0ED22CC
:0E37B100E5F0247EA2D513CC92E7CDCEFF2208
:1037BF00EDD2E7CD33EC3392D524814006E4FFFE02
:1037CF00FDFC22FCE4CFCECDCC24E0501174FF8061
:1037DF00EDC3CC13CCCD13CDCE13CECF13CF0470FE
:0737EF00F030D5DE023E427E
:106B7600E560244CF8E60560227849300902784C35
:106B8600E475F001123FFA023AD82002EB7F2ED2CA
:106B9600028018EF540F2490D43440D4FF30060BF3
:106BA600EF24BFB41A0050032461FFE561600215AB
:106BB600610564E5647002056330090D7849E47582
:106BC600F001123FFAEF023B5102B0FD7403D20905
:106BD6008003E4C209F5608B498A4A894BE4F56172
:106BE600F563F564E56160077F20126BB180F5758A
:106BF60062FFC203C202C204C205C207C208C20AB9
:106C0600126B7FFF700D3009057F00126BC2AF64F7
:106C1600AE6322B4255FC2D5C206126B7FFF24D0B5
:106C2600B40A00501A75F00A786130D50508B6FF27
:106C36000106C6A426F620D5047002D20580D92402
:106C4600CFB41A00EF5004C2E5D206026EAFD203EB
:106C560080C6D20280C0D20480BCD2D580BAD20708
:106C660080B47F20126BB12004077401B561004027
:106C7600F1126B76FF126BB1026BEAD20AD2088070
:106C860095126B76FB126B76FA126B76F94A4B709D
:106C96000679A67A6F7BFF20042EE561602A7E00C6
:106CA6008E82758300123AF160060EEE656270F010
:106CB600C2D5EBC0E0EAC0E0E9C0E0EE126F0FD04B
:106CC600E0F9D0E0FAD0E0FB123AD8FF60AAEBC0B8
:106CD600E0EAC0E0E9C0E0126BB1D0E02401F9D0EF
:106CE600E03400FAD0E0FBE5620460DCD562D980CE
:106CF60087D20480A2126EF260F7E5627001041278
:106D06003840A962600DE562600914F562126F9958
:106D1600EF60F3EA30E702F404C3995077EAF4250A
:106D2600620430E701E404F562800D126EF260C180
:106D3600EA05622562123840EA785FF630E701E438
:106D4600256204D5620420070114126F0FE4C0E027
:106D5600126F99785FE6601320E70714F6126B99B5
:106D6600802204F6D0E014C0E07F00126B99E56241
:106D76006007126B901562800B300703126B90D080
:106D8600E0026BEAD0E00480C5126EF260A0E56214
:106D960004123840785FEAF6E562200702600104D3
:056DA6002404126F0F30
:106DAB0074FF04C0E0126F99126B99E56220070221
:106DBB006003126B90D0E0B562E87F45126BA3784D
:106DCB005FE67F2B30E7047F2DF404C0E0126BB13C
:106DDB00D0E075F00A84C0F0126B9AD0E0126B9A77
:106DEB00026BEA791080027908C208C20A8008D2C5
:106DFB00D5790A8004790AC2D5E562047002F5627E
:106E0B00E4FAFDFEFF126B76FC7B08200313126B7A
:106E1B0076FD7B1030020A126B76FE126B76FF7BCF
:106E2B0020EC3382D592D55013C3E43002069FFF7A
:106E3B00E49EFEE42003039DFDE49CFCE4CBF8C23E
:106E4B0003EC700CCFCECDCCE824F8F870F38017A0
:106E5B00C3EF33FFEE33FEED33FDEC33FCEB33FBD3
:106E6B00994002FB0FD8E9EB300305F8D0E0C4489A
:106E7B00B203C0E00AEC4D4E4F78207B0070C2EAA3
:106E8B00B5620040BCC0E0126F11D0F0D0E020031F
:106E9B0004C4C0E0C4B203C0F0126B9AD0F0D5F0BA
:106EAB00EB026BEA1240A56C87536DEE586C584C95
:106EBB006C54426DF24F6DFA446DFA496C6D436E32
:106ECB0000556D31466D8F456CFB476FC6506C5C42
:106EDB002D6C602E6C832B6C64236C81206FAF2A1E
:106EEB006C1C4800006C7BE562B4FF0375620612F4
:106EFB006B76FC126B76FD126B76FE126B76FF785F
:106F0B005802386F790AA2D5200514300709B91039
:106F1B00020404B9080104A2D52008025001042080
:106F2B0004689204B561005034C0E07F203005192D
:106F3B007F30A20472087207500F126F68C204C22E
:106F4B0008C207C20A7F30800F300703E9C0E01286
:106F5B006BB1300703D0E0F9D0E0B561CC30071747
:106F6B007F30B9100C126BB17F583006077F7880D9
:106F7B0003B90803126BB13004057F2D026BB17F8F
:106F8B0020200AF87F2B2008F322920480CF7F0069
:106F9B00B4070050052458F8E6FF22286E756C6C78
:106FAB002900D203126B763003F8C203786130D517
:106FBB000108F6026C1C2D50434958126B762403C2
:106FCB00B405004001E4906FC193126BA2743A12A6
:0A6FDB006BA2D205756104026DEE91
:1037F600E9D2E7C933E833F892D5EDD2E7CD33EC19
:0738060033FC5002B2D52291
:10380D00EC30E7100FBF000C0EBE00080DBD00041C
:10381D000BEB6014A2D5EB13FCED92E7FD2274FFC8
:10382D00FCFDFEFF22E480F8A2D574FF13FC7D8021
:03383D00E480EF35
:10384000F920E72824F950037907E4F42402FB184F
:10385000DBFDE624FB5014E9600DE4F618E604F6FF
:0F386000B40A08E4F6D9F57401F60A22C2D5229B
:10386F00ED33EC3392D5FA602AB4FF33EDC2E77B28
:10387F00FF60067A387994E4227A38799D20D5044E
:10388F007A387998224E614E002B494E46002D49C9
:10389F004E4600E47A08F608DAFC7B00740722E84B
:1038AF00C0E0ECC0E0EDC0E0EEC0E0EFC0E0EA75D4
:1038BF00F010A4CAABF075F04DA42BFBE435F0FC6F
:1038CF00EA2410FAEB34C5FBEC34D9FCEDC2E7FF68
:1038DF0075F056A4F42411C5F0F434C58FF0A42A62
:1038EF00E5F03BE43CF620E7141239A2D0E0FFD01C
:1038FF00E0FED0E0FDD0E0FC1236668014F4041236
:10390F0039A2D0E0FFD0E0FED0E0FDD0E0FC1235D0
:10391F005DD0E0F8E6FAEDD2E7CD33EC332482FB4D
:10392F00E4C3CF33CFCE33CECD33CD33DBF37B07F1
:10393F0075F00A846004F6081B0AE5F0F6088FF0AC
:10394F00740AA4FFACF08EF0740AA42CFEACF050F5
:10395F00010C8DF0740AA42CFDE435F0F608DBDEC3
:03396F00740722B8
:103972003F8000004120000042C80000447A00005D
:10398200461C400047C35000497424004B189680DF
:103992004CBEBC205A0E1BCA6753C21C749DC5AED6
:1039A200FB60065407601C23231239D0EB543860A5
:1039B200091239BC1239CB12355DECF8EDF9EEFA89
:1039C200EFCB22EB1239CB80F1543803241C90390F
:1039D20072FE93FC0EEE93FD0EEE930ECE93FF223B
:0300000002A8BB98
:0CA8BB00787FE4F6D8FD75817502A902D3
:1039E200E709F608DFFA8046E709F208DFFA803EC7
:1039F20088828C83E709F0A3DFFA8032E309F608B4
:103A0200DFFA8078E309F208DFFA807088828C831B
:103A1200E309F0A3DFFA806489828A83E0A3F608CF
:103A2200DFFA805889828A83E0A3F208DFFA804CA9
:103A320080D280FA80C680D4806980F28033801080
:103A420080A680EA809A80A880DA80E280CA8033E9
:103A520089828A83ECFAE493A3C8C582C8CCC58361
:103A6200CCF0A3C8C582C8CCC583CCDFE9DEE78031
:103A72000D89828A83E493A3F608DFF9ECFAA9F0B0
:103A8200EDFB2289828A83ECFAE0A3C8C582C8CC06
:103A9200C583CCF0A3C8C582C8CCC583CCDFEADE1F
:103AA200E880DB89828A83E493A3F208DFF980CC81
:103AB20088F0EF60010E4E60C388F0ED2402B4047A
:103AC2000050B9F582EB2402B4040050AF23234521
:063AD2008223903A3273DA
:103AD800BB010689828A83E0225002E722BBFE02EC
:093AE800E32289828A83E493221F
:103AF100BB010CE58229F582E5833AF583E022508A
:103B010006E92582F8E622BBFE06E92582F8E222D3
:0D3B1100E58229F582E5833AF583E49322ED
:103B1E00BB010FF8E58229F582E5833AF583E028AB
:103B2E00F0225009C58229F8E58226F622BBFE094D
:103B3E00C58229F8E22582F222F8EA2583F583E987
:033B4E0093282297
:103B5100BB010689828A83F0225002F722BBFE0153
:023B6100F3224D
:103B6300F8BB010DE58229F582E5833AF583E8F098
:103B7300225006E92582C8F622BBFE05E92582C844
:023B8300F2222C
:103B8500EF8DF0A4A8F0CF8CF0A428CE8DF0A42E54
:023B9500FE220E
:103B9700BC000BBE0029EF8DF084FFADF022E4CC12
:103BA700F875F008EF2FFFEE33FEEC33FCEE9DECDB
:103BB700984005FCEE9DFE0FD5F0E9E4CEFD22ED21
:103BC700F8F5F0EE8420D21CFEADF075F008EF2F6B
:103BD700FFED33FD4007985006D5F0F222C398FD5C
:053BE7000FD5F0EA22F9
:103BEC00C2D5EC30E709B2D5E4C39DFDE49CFCEEF4
:103BFC0030E715B2D5E4C39FFFE49EFE123B97C39A
:103C0C00E49DFDE49CFC8003123B9730D507C3E494
:063C1C009FFFE49EFE2262
:103C2200C5F0F8A3E028F0C5F0F8E582158270022D
:063C32001583E038F022CA
:103C3800A3F8E0C5F025F0F0E5821582700215833F
:063C4800E0C838F0E8229C
:103C4E00BB010A89828A83E0F5F0A3E02250068741
:103C5E00F009E71922BBFE07E3F5F009E319228903
:0B3C6E00828A83E493F5F07401932236
:103C7900BB0110E58229F582E5833AF583E0F5F089
:103C8900A3E0225009E92582F886F008E622BBFE66
:103C99000AE92582F8E2F5F008E222E5832AF583AC
:083CA900E993F5F0A3E9932271
:103CB100BB010A89828A83F0E5F0A3F0225006F75E
:0F3CC10009A7F01922BBFE06F3E5F009F319225B
:103CD000F8BB0111E58229F582E5833AF583E8F026
:103CE000E5F0A3F0225009E92582C8F608A6F022E3
:0D3CF000BBFE09E92582C8F2E5F008F222CA
:0D3CFD00EF2BFFEE3AFEED39FDEC38FC2216
:0E3D0A00C3EF9BFFEE9AFEED99FDEC98FC22B4
:103D1800E88FF0A4CC8BF0A42CFCE98EF0A42CFC4A
:103D28008AF0EDA42CFCEA8EF0A4CDA8F08BF0A4C8
:103D38002DCC3825F0FDE98FF0A42CCD35F0FCEB27
:103D48008EF0A4FEA9F0EB8FF0A4CFC5F02ECD39EC
:0F3D5800FEE43CFCEAA42DCE35F0FDE43CFC2259
:103D670075F008758200EF2FFFEE33FECD33CDCC13
:103D770033CCC58233C5829BED9AEC99E582984096
:103D87000CF582EE9BFEED9AFDEC99FC0FD5F0D673
:103D9700E4CEFBE4CDFAE4CCF9A88222B800C1B99D
:103DA7000059BA002DEC8BF084CFCECDFCE5F0CBDB
:103DB700F97818EF2FFFEE33FEED33FDEC33FCEB14
:103DC70033FB10D703994004EB99FB0FD8E5E4F9CF
:103DD700FA227818EF2FFFEE33FEED33FDEC33FCBC
:103DE700C933C910D7059BE99A4007EC9BFCE99AB0
:103DF700F90FD8E0E4C9FAE4CCFB2275F010EF2FF5
:103E0700FFEE33FEED33FDCC33CCC833C810D707F4
:103E17009BEC9AE899400AED9BFDEC9AFCE899F82F
:0E3E27000FD5F0DAE4CDFBE4CCFAE4C8F922C2
:10AFA200C2D5E830E70FB2D5E4C39BFBE49AFAE4DA
:10AFB20099F9E498F8EC30E717B2D512AFD8123D00
:10AFC200A3E4C39BFBE49AFAE499F9E498F88003BA
:10AFD200123DA330D50DE4C39FFFE49EFEE49DFD28
:04AFE200E49CFC22CD
:0D3E3500EF4BFFEE4AFEED49FDEC48FC228C
:0E3E4200C3E49FFFE49EFEE49DFDE49CFC2291
:103E5000EB9FF5F0EA9E42F0E99D42F0EC6480C8E9
:063E600064809845F02289
:103E6600EB9FF5F0EA9E42F0E99D42F0E89C45F0B2
:013E76002229
:103E7700E8600FECC313FCED13FDEE13FEEF13FF29
:033E8700D8F1224D
:103E8A00E8600FEFC333FFEE33FEED33FDEC33FC96
:033E9A00D8F1223A
:103E9D00BB010789828A83023F2B5005E9F8024056
:103EAD00FEBBFE05E9F802410A89828A83024116AA
:103EBD00BB010DE58229F582E5833AF583023F2B9F
:103ECD005007E92582F80240FEBBFE07E92582F87E
:103EDD0002410AE58229F582E5833AF5830241160E
:103EED00BB010789828A83023F735005E9F80241BD
:0A3EFD0026BBFE05E9F8024132225F
:103F0700BB010DE58229F582E5833AF583023F730C
:103F17005007E92582F8024126BBFE07E92582F80A
:043F270002413222FF
:0C3F2B00E0FCA3E0FDA3E0FEA3E0FF2209
:0C3F3700E0F8A3E0F9A3E0FAA3E0FB220D
:103F4300E493F8740193F9740293FA740393FB22D4
:103F53007401FF3395E0FEFDFC080808E62FFFF629
:103F630018E63EFEF618E63DFDF618E63CFCF622A2
:0C3F7300ECF0A3EDF0A3EEF0A3EFF022C1
:103F7F00A8828583F0D083D082123F96123F96128B
:103F8F003F96123F96E473E493A3C583C5F0C583B0
:103F9F00C8C582C8F0A3C583C5F0C583C8C582C88C
:013FAF0022EF
:103FB000BB010789828A83023F7F5005E9F80241ED
:0A3FC0003EBBFE05E9F8024157225E
:103FCA00BB010DE58229F582E5833AF583023F7F3D
:103FDA005007E92582F802413EBBFE07E92582F82F
:043FEA000241572217
:0C3FEE00A42582F582E5F03583F58322DE
:103FFA00FAE6FB0808E6F925F0F618E6CA3AF622C8
:09400A00E0FBA3E0FAA3E0F922B7
:09401300EBF0A3EAF0A3E9F022AE
:10401C00BB010DE58229F582E5833AF58302400A5E
:10402C005007E92582F8024170BBFE07E92582F8AA
:10403C00024182E58229F582E5833AF583024194B7
:10404C00BB0120E58229F582E5833AF583D0F0D0D7
:10405C00E0F8D0E0F9D0E0FAD0E0FBE8C0E0C0F046
:10406C000240135018E92582F8D083D082D0E0F9B1
:10407C00D0E0FAD0E0FBC082C083024179BBFE18CD
:10408C00E92582F8D083D082D0E0F9D0E0FAD0E0F4
:09409C00FBC082C08302418B22AB
:1040A500D083D082F8E4937012740193700DA3A3AA
:1040B50093F8740193F5828883E4737402936860BE
:0640C500EFA3A3A380DFBE
:1040CB00D083D082F8E4937012740193700DA3A384
:1040DB0093F8740193F5828883E473740293B5F0BB
:0D40EB00067403936860E9A3A3A3A380D823
:0640F8008A838982E47353
:10B0FD00EFB40A07740D12B108740A309811A899AB
:10B10D00B8130CC2983098FDA899C298B811F630B2
:07B11D0099FDC299F599228A
:0F005E00EFC394204007EF947F50028001C3222C
:10000E00E4FFFE123AD8600C0FEF70010E09E97092
:05001E00F20A80EF2250
:10A8C7000216A3E493A3F8E493A34003F68001F2EE
:10A8D70008DFF48029E493A3F85407240CC8C33392
:10A8E700C4540F4420C8834004F456800146F6DF61
:10A8F700E4800B010204081020408090A499E47EB4
:10A90700019360BCA3FF543F30E509541FFEE49355
:10A91700A360010ECF54C025E060A840B8E493A31C
:10A92700FAE493A3F8E493A3C8C582C8CAC583CA47
:10A93700F0A3C8C582C8CAC583CADFE9DEE780BEFF
:01A5690000F1
:0C40FE00E6FC08E6FD08E6FE08E6FF22EE
:0C410A00E2FC08E2FD08E2FE08E2FF22F1
:10411600E493FC740193FD740293FE740393FF22EF
:0C412600ECF608EDF608EEF608EFF622C5
:0C413200ECF208EDF208EEF208EFF222C9
:10413E00D083D082E493F608740193F60874029348
:09414E00F608740393F67404737F
:10415700D083D082E493F208740193F20874029337
:09416700F208740393F27404736E
:09417000E6FB08E6FA08E6F92274
:09417900EBF608EAF608E9F6226B
:09418200E2FB08E2FA08E2F9226E
:09418B00EBF208EAF208E9F22265
:0C419400E493FB740193FA740293F92287
:00000001FF
