BL51 BANKED LINKER/LOCATER V6.22                                                        01/05/2016  18:47:25  PAGE 1


BL51 BANKED LINKER/LOCATER V6.22, INVOKED BY:
C:\KEIL\C51\BIN\BL51.EXE adc.obj, digipot.obj, lancsetup.obj, sensorunit.obj, smbus.obj, suports.obj, ubx.obj, .\cygfx12
>> 0.obj, .\cygnalflash.obj, .\dataflash.obj, .\factorytest.obj, .\message.obj, .\session.obj, .\roadblock.obj, .\crc.ob
>> j, .\fdlold.obj TO SensorUnit RAMSIZE (256) CODE (ROADBLOCK (0XFDFE), ?PR?*FDL (0XFE02))


MEMORY MODEL: SMALL WITH FLOATING POINT ARITHMETIC


INPUT MODULES INCLUDED:
  adc.obj (ADC)
  digipot.obj (DIGIPOT)
  lancsetup.obj (LANCSETUP)
  sensorunit.obj (SENSORUNIT)
  smbus.obj (SMBUS)
  suports.obj (SUPORTS)
  ubx.obj (UBX)
  .\cygfx120.obj (CYGFX120)
  .\cygnalflash.obj (CYGNALFLASH)
  .\dataflash.obj (DATAFLASH)
  .\factorytest.obj (FACTORYTEST)
  .\message.obj (MESSAGE)
  .\session.obj (SESSION)
  .\roadblock.obj (ROADBLOCK)
  .\crc.obj (CRC)
  .\fdlold.obj (FDL)
  C:\KEIL\C51\LIB\C51FPS.LIB (?C?FPADD)
  C:\KEIL\C51\LIB\C51FPS.LIB (?C?FPMUL)
  C:\KEIL\C51\LIB\C51FPS.LIB (?C?FPDIV)
  C:\KEIL\C51\LIB\C51FPS.LIB (?C?FPCMP)
  C:\KEIL\C51\LIB\C51FPS.LIB (?C?FPNEG)
  C:\KEIL\C51\LIB\C51FPS.LIB (?C?FCAST)
  C:\KEIL\C51\LIB\C51FPS.LIB (?C?CASTF)
  C:\KEIL\C51\LIB\C51FPS.LIB (PRINTF)
  C:\KEIL\C51\LIB\C51FPS.LIB (?C?FPGETOPN)
  C:\KEIL\C51\LIB\C51FPS.LIB (?C?FPROUND)
  C:\KEIL\C51\LIB\C51FPS.LIB (?C?FPCONVERT)
  C:\KEIL\C51\LIB\C51FPS.LIB (?C?FTNPWR)
  C:\KEIL\C51\LIB\C51S.LIB (?C_STARTUP)
  C:\KEIL\C51\LIB\C51S.LIB (?C?COPY)
  C:\KEIL\C51\LIB\C51S.LIB (?C?SCDIV)
  C:\KEIL\C51\LIB\C51S.LIB (?C?CLDPTR)
  C:\KEIL\C51\LIB\C51S.LIB (?C?CLDOPTR)
  C:\KEIL\C51\LIB\C51S.LIB (?C?CILDOPTR)
  C:\KEIL\C51\LIB\C51S.LIB (?C?CSTPTR)
  C:\KEIL\C51\LIB\C51S.LIB (?C?CSTOPTR)
  C:\KEIL\C51\LIB\C51S.LIB (?C?UIDIV)
  C:\KEIL\C51\LIB\C51S.LIB (?C?SIDIV)
  C:\KEIL\C51\LIB\C51S.LIB (?C?IILDX)
  C:\KEIL\C51\LIB\C51S.LIB (?C?ILDIX)
  C:\KEIL\C51\LIB\C51S.LIB (?C?ILDPTR)
  C:\KEIL\C51\LIB\C51S.LIB (?C?ILDOPTR)
  C:\KEIL\C51\LIB\C51S.LIB (?C?ISTPTR)
  C:\KEIL\C51\LIB\C51S.LIB (?C?ISTOPTR)
  C:\KEIL\C51\LIB\C51S.LIB (?C?LADD)
  C:\KEIL\C51\LIB\C51S.LIB (?C?LSUB)
  C:\KEIL\C51\LIB\C51S.LIB (?C?ULDIV)
  C:\KEIL\C51\LIB\C51S.LIB (?C?SLDIV)
BL51 BANKED LINKER/LOCATER V6.22                                                      01/05/2016  18:47:25  PAGE 2


  C:\KEIL\C51\LIB\C51S.LIB (?C?LOR)
  C:\KEIL\C51\LIB\C51S.LIB (?C?LNEG)
  C:\KEIL\C51\LIB\C51S.LIB (?C?SLCMP)
  C:\KEIL\C51\LIB\C51S.LIB (?C?ULCMP)
  C:\KEIL\C51\LIB\C51S.LIB (?C?LLDPTR)
  C:\KEIL\C51\LIB\C51S.LIB (?C?LLDOPTR)
  C:\KEIL\C51\LIB\C51S.LIB (?C?LSTPTR)
  C:\KEIL\C51\LIB\C51S.LIB (?C?LSTOPTR)
  C:\KEIL\C51\LIB\C51S.LIB (?C?LLDXDATA)
  C:\KEIL\C51\LIB\C51S.LIB (?C?LLDXDATA0)
  C:\KEIL\C51\LIB\C51S.LIB (?C?LLDCODE0)
  C:\KEIL\C51\LIB\C51S.LIB (?C?LILDIDATA)
  C:\KEIL\C51\LIB\C51S.LIB (?C?LSTXDATA)
  C:\KEIL\C51\LIB\C51S.LIB (?C?LSTKXDATA)
  C:\KEIL\C51\LIB\C51S.LIB (?C?LSTKPTR)
  C:\KEIL\C51\LIB\C51S.LIB (?C?LSTKOPTR)
  C:\KEIL\C51\LIB\C51S.LIB (?C?OFFXADD)
  C:\KEIL\C51\LIB\C51S.LIB (?C?PLDIIDATA)
  C:\KEIL\C51\LIB\C51S.LIB (?C?PLDXDATA)
  C:\KEIL\C51\LIB\C51S.LIB (?C?PSTXDATA)
  C:\KEIL\C51\LIB\C51S.LIB (?C?PLDOPTR)
  C:\KEIL\C51\LIB\C51S.LIB (?C?PSTOPTR)
  C:\KEIL\C51\LIB\C51S.LIB (?C?CCASE)
  C:\KEIL\C51\LIB\C51S.LIB (?C?ICASE)
  C:\KEIL\C51\LIB\C51S.LIB (?C?ICALL)
  C:\KEIL\C51\LIB\C51S.LIB (PUTCHAR)
  C:\KEIL\C51\LIB\C51S.LIB (ISPRINT)
  C:\KEIL\C51\LIB\C51S.LIB (STRLEN)
  C:\KEIL\C51\LIB\C51S.LIB (?C?IMUL_F120)
  C:\KEIL\C51\LIB\C51S.LIB (?C?LMUL_F120)
  C:\KEIL\C51\LIB\C51S.LIB (?C?LSHL_F120)
  C:\KEIL\C51\LIB\C51S.LIB (?C?ULSHR_F120)
  C:\KEIL\C51\LIB\C51S.LIB (?C_INIT)
  C:\KEIL\C51\LIB\C51S.LIB (?C?LLDIDATA)
  C:\KEIL\C51\LIB\C51S.LIB (?C?LLDPDATA)
  C:\KEIL\C51\LIB\C51S.LIB (?C?LLDCODE)
  C:\KEIL\C51\LIB\C51S.LIB (?C?LSTIDATA)
  C:\KEIL\C51\LIB\C51S.LIB (?C?LSTPDATA)
  C:\KEIL\C51\LIB\C51S.LIB (?C?LSTKIDATA)
  C:\KEIL\C51\LIB\C51S.LIB (?C?LSTKPDATA)
  C:\KEIL\C51\LIB\C51S.LIB (?C?PLDIDATA)
  C:\KEIL\C51\LIB\C51S.LIB (?C?PSTIDATA)
  C:\KEIL\C51\LIB\C51S.LIB (?C?PLDPDATA)
  C:\KEIL\C51\LIB\C51S.LIB (?C?PSTPDATA)
  C:\KEIL\C51\LIB\C51S.LIB (?C?PLDCODE)


LINK MAP OF MODULE:  SensorUnit (ADC)


            TYPE    BASE      LENGTH    RELOCATION   SEGMENT NAME
            -----------------------------------------------------

            * * * * * * *   D A T A   M E M O R Y   * * * * * * *
            REG     0000H     0008H     ABSOLUTE     "REG BANK 0"
            DATA    0008H     0011H     UNIT         ?DT?CYGFX120
            DATA    0019H     0005H     UNIT         ?DT?SUPORTS
BL51 BANKED LINKER/LOCATER V6.22                                                      01/05/2016  18:47:25  PAGE 3


            IDATA   001EH     0002H     UNIT         _IDATA_GROUP_
            BIT     0020H.0   0001H.3   UNIT         _BIT_GROUP_
            BIT     0021H.3   0000H.2   UNIT         ?BI?SMBUS
                    0021H.5   0000H.3                *** GAP ***
            DATA    0022H     0043H     UNIT         _DATA_GROUP_
            DATA    0065H     000BH     UNIT         ?DT?SENSORUNIT
            IDATA   0070H     0001H     UNIT         ?STACK

            * * * * * * *  X D A T A   M E M O R Y  * * * * * * *
            XDATA   0000H     0F05H     UNIT         ?XD?SENSORUNIT
            XDATA   0F05H     0113H     UNIT         _XDATA_GROUP_
            XDATA   1018H     0010H     UNIT         ?XD?FACTORYTEST
            XDATA   1028H     0008H     UNIT         ?XD?UBX
            XDATA   1030H     0003H     UNIT         ?XD?CYGFX120

            * * * * * * *   C O D E   M E M O R Y   * * * * * * *
            CODE    0000H     0003H     ABSOLUTE     
            CODE    0003H     0003H     ABSOLUTE     
                    0006H     0005H                  *** GAP ***
            CODE    000BH     0003H     ABSOLUTE     
            CODE    000EH     0015H     UNIT         ?PR?_STRLEN?STRLEN
            CODE    0023H     0003H     ABSOLUTE     
            CODE    0026H     0012H     UNIT         ?PR?SPIO_INIT?CYGFX120
                    0038H     0003H                  *** GAP ***
            CODE    003BH     0003H     ABSOLUTE     
            CODE    003EH     0011H     UNIT         ?PR?_XFERSPI?CYGFX120
                    004FH     0004H                  *** GAP ***
            CODE    0053H     0003H     ABSOLUTE     
                    0056H     0005H                  *** GAP ***
            CODE    005BH     0003H     ABSOLUTE     
            CODE    005EH     000FH     UNIT         ?PR?_ISPRINT?ISPRINT
                    006DH     0006H                  *** GAP ***
            CODE    0073H     0003H     ABSOLUTE     
                    0076H     0005H                  *** GAP ***
            CODE    007BH     0003H     ABSOLUTE     
            CODE    007EH     0023H     UNIT         ?PR?C?LSHL_F120
                    00A1H     0002H                  *** GAP ***
            CODE    00A3H     0003H     ABSOLUTE     
            CODE    00A6H     15FDH     UNIT         ?PR?UBXINIT?UBX
            CODE    16A3H     0E33H     UNIT         ?PR?CALIBRATE?FACTORYTEST
            CODE    24D6H     0D21H     UNIT         ?PR?MAIN?SENSORUNIT
            CODE    31F7H     0CE2H     UNIT         ?C?LIB_CODE
            CODE    3ED9H     09A1H     UNIT         ?PR?_PARSE_UBX?UBX
            CODE    487AH     097FH     UNIT         ?PR?_PARSE_MESSAGE?MESSAGE
            CODE    51F9H     06F4H     UNIT         ?PR?INPUTTEST?FACTORYTEST
            CODE    58EDH     0661H     UNIT         ?PR?DIGIOTEST?FACTORYTEST
            CODE    5F4EH     0585H     UNIT         ?PR?ADTEST?FACTORYTEST
            CODE    64D3H     0482H     UNIT         ?PR?SETUP_RECORDING?SENSORUNIT
            CODE    6955H     046FH     UNIT         ?PR?PRINTF?PRINTF
            CODE    6DC4H     045CH     UNIT         ?PR?SMB_MASTER_TEST?FACTORYTEST
            CODE    7220H     043DH     UNIT         ?PR?AUTOONTEST?FACTORYTEST
            CODE    765DH     0432H     UNIT         ?CO?FACTORYTEST
            CODE    7A8FH     0404H     UNIT         ?PR?ZEROOUTXY?FACTORYTEST
            CODE    7E93H     0380H     UNIT         ?PR?_DATAFLASHTEST?FACTORYTEST
            CODE    8213H     0344H     UNIT         ?C_INITSEG
            CODE    8557H     0333H     UNIT         ?PR?UBXBAUDCHANGE?UBX
            CODE    888AH     02AAH     UNIT         ?PR?OUTPUTTEST?FACTORYTEST
BL51 BANKED LINKER/LOCATER V6.22                                                      01/05/2016  18:47:25  PAGE 4


            CODE    8B34H     023EH     UNIT         ?PR?PROCESS_IO?SENSORUNIT
            CODE    8D72H     0237H     UNIT         ?CO?SENSORUNIT
            CODE    8FA9H     0237H     UNIT         ?PR?UBX1_ISR?CYGFX120
            CODE    91E0H     022EH     UNIT         ?PR?SMB_SLAVE_TEST?FACTORYTEST
            CODE    940EH     0204H     UNIT         ?PR?_UART_INIT?CYGFX120
            CODE    9612H     01F8H     UNIT         ?PR?MSG0_ISR?CYGFX120
            CODE    980AH     01E8H     UNIT         ?PR?_SENDMESSAGE?MESSAGE
            CODE    99F2H     01DFH     UNIT         ?PR?SMB_ISR?SMBUS
            CODE    9BD1H     01D3H     UNIT         ?PR?STABILIZE?FACTORYTEST
            CODE    9DA4H     01B7H     UNIT         ?PR?ADC0_ISR?ADC
            CODE    9F5BH     017DH     UNIT         ?PR?FREQ0_RISING_ISR?SUPORTS
            CODE    A0D8H     013AH     UNIT         ?PR?NEW_ACCESSORY_SETUP?LANCSETUP
            CODE    A212H     0125H     UNIT         ?PR?INITSUSCRATCHPAD?CYGNALFLASH
            CODE    A337H     010BH     UNIT         ?PR?STOP_RECORDING?SENSORUNIT
            CODE    A442H     00E2H     UNIT         ?PR?_DATAFLASH_INIT?DATAFLASH
            CODE    A524H     00C4H     UNIT         ?PR?_UBXSENDPACKET?UBX
            CODE    A5E8H     00B0H     UNIT         ?PR?_SAVEDOWNLOAD?MESSAGE
            CODE    A698H     00AAH     UNIT         ?PR?T3_ISR?CYGFX120
            CODE    A742H     00A5H     UNIT         ?PR?INIT_CAMERAS?SENSORUNIT
            CODE    A7E7H     0099H     UNIT         ?PR?_DATAFLASH_PAGE_READ?DATAFLASH
            CODE    A880H     0093H     UNIT         ?PR?_DATAFLASH_PAGE_WRITE_ERASE?DATAFLASH
            CODE    A913H     008CH     UNIT         ?C_C51STARTUP
            CODE    A99FH     007EH     UNIT         ?PR?GPSPPS_ISR?SUPORTS
            CODE    AA1DH     0079H     UNIT         ?PR?PORT_INIT_SU?SUPORTS
            CODE    AA96H     006FH     UNIT         ?PR?_WRITESCRATCHPAD?CYGNALFLASH
            CODE    AB05H     006DH     UNIT         ?PR?_DATAFLASH_ERASE_RANGE?DATAFLASH
            CODE    AB72H     0069H     UNIT         ?PR?ADC0_INIT?ADC
            CODE    ABDBH     005BH     UNIT         ?PR?_CRC16?CRC
            CODE    AC36H     005AH     UNIT         ?PR?_XMITUART?CYGFX120
            CODE    AC90H     0057H     UNIT         ?PR?SYSCLK_INIT?CYGFX120
            CODE    ACE7H     0054H     UNIT         ?PR?_READSCRATCHPAD?CYGNALFLASH
            CODE    AD3BH     004FH     UNIT         ?PR?_SENDNAK?MESSAGE
            CODE    AD8AH     004DH     UNIT         ?PR?C?LMUL_F120
            CODE    ADD7H     004AH     UNIT         ?PR?_VERIFY_CRC?MESSAGE
            CODE    AE21H     0049H     UNIT         ?PR?_DATAFLASH_ERASE_BLOCK?DATAFLASH
            CODE    AE6AH     0049H     UNIT         ?PR?_DATAFLASH_ERASE_PAGE?DATAFLASH
            CODE    AEB3H     0048H     UNIT         ?PR?FREQ0_INIT?SUPORTS
            CODE    AEFBH     0047H     UNIT         ?PR?FREQ0_FALLING_ISR?SUPORTS
            CODE    AF42H     0044H     UNIT         ?C?LDIV
            CODE    AF86H     0033H     UNIT         ?PR?T0_ISR?SUPORTS
            CODE    AFB9H     0033H     UNIT         ?PR?_JUMPCOPY?MESSAGE
            CODE    AFECH     0031H     UNIT         ?CO?UBX
            CODE    B01DH     002EH     UNIT         ?PR?ERASESCRATCHPAD?CYGNALFLASH
            CODE    B04BH     002AH     UNIT         ?PR?_TIMER3_INIT?CYGFX120
            CODE    B075H     0028H     UNIT         ?PR?_DIGIPOT?DIGIPOT
            CODE    B09DH     0027H     UNIT         ?PR?PUTCHAR?PUTCHAR
            CODE    B0C4H     0023H     UNIT         ?PR?C?ULSHR_F120
            CODE    B0E7H     0022H     UNIT         ?PR?DATAFLASH_READ_STATUS?DATAFLASH
            CODE    B109H     001DH     UNIT         ?PR?C?IMUL_F120
            CODE    B126H     001CH     UNIT         ?PR?SMB_READ?SMBUS
            CODE    B142H     0019H     UNIT         ?PR?SMB_WRITE?SMBUS
            CODE    B15BH     0016H     UNIT         ?PR?SMB_INIT?SMBUS
            CODE    B171H     000EH     UNIT         ?PR?PPS_INIT?SUPORTS
                    B17FH     4C7FH                  *** GAP ***
            CODE    FDFEH     0002H     UNIT         ROADBLOCK
            CODE    FE00H     0002H     ABSOLUTE     
            CODE    FE02H     01BEH     UNIT         ?PR?_COPYTOCODESPACE?FDL
BL51 BANKED LINKER/LOCATER V6.22                                                      01/05/2016  18:47:25  PAGE 5


            CODE    FFC0H     0019H     UNIT         ?PR?_FDL_XFERSPI?FDL
            CODE    FFD9H     0024H     UNIT         ?PR?FDL_DATAFLASH_READ_STATUS?FDL



OVERLAY MAP OF MODULE:   SensorUnit (ADC)


SEGMENT                                             BIT_GROUP          DATA_GROUP          IDATA_GROUP         XDATA_GRO
>> UP
  +--> CALLED SEGMENT                            START    LENGTH     START    LENGTH     START    LENGTH     START    LE
>> NGTH
------------------------------------------------------------------------------------------------------------------------
>> ----
?PR?ADC0_ISR?ADC                                 -----    -----      0022H    0002H      -----    -----      -----    --
>> ---
  +--> ?PR?C?IMUL_F120

*** NEW ROOT ***************************************************

?PR?SMB_ISR?SMBUS                                0020H.0  0000H.1    -----    -----      -----    -----      -----    --
>> ---

*** NEW ROOT ***************************************************

?PR?FREQ0_RISING_ISR?SUPORTS                     -----    -----      0024H    0003H      -----    -----      -----    --
>> ---

*** NEW ROOT ***************************************************

?PR?MSG0_ISR?CYGFX120                            -----    -----      0027H    0001H      -----    -----      -----    --
>> ---
  +--> ?PR?C?IMUL_F120

*** NEW ROOT ***************************************************

?PR?UBX1_ISR?CYGFX120                            -----    -----      0028H    0002H      -----    -----      -----    --
>> ---

*** NEW ROOT ***************************************************

?C_C51STARTUP                                    -----    -----      -----    -----      -----    -----      -----    --
>> ---
  +--> ?PR?MAIN?SENSORUNIT
  +--> ?C_INITSEG

?PR?MAIN?SENSORUNIT                              -----    -----      002AH    0007H      -----    -----      0F05H    00
>> 17H
  +--> ?PR?SYSCLK_INIT?CYGFX120
  +--> ?PR?PORT_INIT_SU?SUPORTS
  +--> ?PR?SPIO_INIT?CYGFX120
  +--> ?PR?_DATAFLASH_INIT?DATAFLASH
  +--> ?PR?INITSUSCRATCHPAD?CYGNALFLASH
  +--> ?PR?ADC0_INIT?ADC
  +--> ?PR?_TIMER3_INIT?CYGFX120
  +--> ?PR?PPS_INIT?SUPORTS
  +--> ?PR?FREQ0_INIT?SUPORTS
BL51 BANKED LINKER/LOCATER V6.22                                                      01/05/2016  18:47:25  PAGE 6


  +--> ?PR?_UART_INIT?CYGFX120
  +--> ?PR?SMB_INIT?SMBUS
  +--> ?PR?NEW_ACCESSORY_SETUP?LANCSETUP
  +--> ?PR?UBXBAUDCHANGE?UBX
  +--> ?PR?UBXINIT?UBX
  +--> ?PR?INIT_CAMERAS?SENSORUNIT
  +--> ?PR?_SENDMESSAGE?MESSAGE
  +--> ?PR?C?LMUL_F120
  +--> ?CO?SENSORUNIT
  +--> ?PR?_PARSE_MESSAGE?MESSAGE
  +--> ?PR?_DATAFLASH_ERASE_RANGE?DATAFLASH
  +--> ?PR?SETUP_RECORDING?SENSORUNIT
  +--> ?PR?STOP_RECORDING?SENSORUNIT
  +--> ?PR?PROCESS_IO?SENSORUNIT
  +--> ?PR?C?IMUL_F120
  +--> ?PR?_PARSE_UBX?UBX

?PR?_DATAFLASH_INIT?DATAFLASH                    -----    -----      0031H    0008H      -----    -----      -----    --
>> ---
  +--> ?PR?DATAFLASH_READ_STATUS?DATAFLASH

?PR?DATAFLASH_READ_STATUS?DATAFLASH              -----    -----      0059H    0002H      -----    -----      -----    --
>> ---
  +--> ?PR?_XFERSPI?CYGFX120

?PR?INITSUSCRATCHPAD?CYGNALFLASH                 -----    -----      -----    -----      -----    -----      0FBCH    00
>> 01H
  +--> ?PR?_READSCRATCHPAD?CYGNALFLASH
  +--> ?PR?_ISPRINT?ISPRINT
  +--> ?PR?ERASESCRATCHPAD?CYGNALFLASH
  +--> ?PR?_WRITESCRATCHPAD?CYGNALFLASH

?PR?_READSCRATCHPAD?CYGNALFLASH                  -----    -----      0045H    0007H      -----    -----      -----    --
>> ---

?PR?ERASESCRATCHPAD?CYGNALFLASH                  -----    -----      -----    -----      001EH    0002H      -----    --
>> ---

?PR?_WRITESCRATCHPAD?CYGNALFLASH                 -----    -----      0045H    0008H      001EH    0002H      -----    --
>> ---

?PR?ADC0_INIT?ADC                                -----    -----      0031H    0001H      -----    -----      -----    --
>> ---
  +--> ?PR?_READSCRATCHPAD?CYGNALFLASH

?PR?_UART_INIT?CYGFX120                          -----    -----      0042H    0008H      -----    -----      -----    --
>> ---

?PR?NEW_ACCESSORY_SETUP?LANCSETUP                -----    -----      0031H    0004H      -----    -----      0F1CH    00
>> 08H
  +--> ?PR?_DATAFLASH_PAGE_READ?DATAFLASH

?PR?_DATAFLASH_PAGE_READ?DATAFLASH               -----    -----      0049H    000BH      -----    -----      -----    --
>> ---
  +--> ?PR?DATAFLASH_READ_STATUS?DATAFLASH
  +--> ?PR?_XFERSPI?CYGFX120

BL51 BANKED LINKER/LOCATER V6.22                                                      01/05/2016  18:47:25  PAGE 7


?PR?UBXBAUDCHANGE?UBX                            -----    -----      0031H    0009H      -----    -----      0F1CH    00
>> 08H
  +--> ?PR?_UBXSENDPACKET?UBX
  +--> ?PR?_UART_INIT?CYGFX120

?PR?_UBXSENDPACKET?UBX                           -----    -----      0050H    0006H      -----    -----      -----    --
>> ---
  +--> ?PR?_XMITUART?CYGFX120

?PR?_XMITUART?CYGFX120                           -----    -----      0056H    0004H      -----    -----      -----    --
>> ---

?PR?UBXINIT?UBX                                  -----    -----      0046H    000AH      -----    -----      0F1CH    00
>> 29H
  +--> ?CO?UBX
  +--> ?PR?_UBXSENDPACKET?UBX
  +--> ?PR?C?ULSHR_F120
  +--> ?PR?C?LSHL_F120

?PR?INIT_CAMERAS?SENSORUNIT                      -----    -----      -----    -----      -----    -----      -----    --
>> ---
  +--> ?PR?_DATAFLASH_PAGE_READ?DATAFLASH

?PR?_SENDMESSAGE?MESSAGE                         -----    -----      0049H    0009H      -----    -----      -----    --
>> ---
  +--> ?CO?SENSORUNIT
  +--> ?PR?_CRC16?CRC
  +--> ?PR?_XMITUART?CYGFX120

?PR?_CRC16?CRC                                   -----    -----      0052H    0008H      -----    -----      -----    --
>> ---
  +--> ?CO?SENSORUNIT

?PR?_PARSE_MESSAGE?MESSAGE                       -----    -----      0031H    0011H      -----    -----      0F1CH    00
>> 10H
  +--> ?PR?_VERIFY_CRC?MESSAGE
  +--> ?CO?SENSORUNIT
  +--> ?PR?_SENDMESSAGE?MESSAGE
  +--> ?PR?_SENDNAK?MESSAGE
  +--> ?PR?_DATAFLASH_PAGE_READ?DATAFLASH
  +--> ?PR?_DATAFLASH_PAGE_WRITE_ERASE?DATAF...
  +--> ?PR?INIT_CAMERAS?SENSORUNIT
  +--> ?PR?_READSCRATCHPAD?CYGNALFLASH
  +--> ?PR?ERASESCRATCHPAD?CYGNALFLASH
  +--> ?PR?_WRITESCRATCHPAD?CYGNALFLASH
  +--> ?PR?_DATAFLASH_ERASE_PAGE?DATAFLASH
  +--> ?PR?_DATAFLASH_ERASE_RANGE?DATAFLASH
  +--> ?PR?DATAFLASH_READ_STATUS?DATAFLASH
  +--> ?PR?_UART_INIT?CYGFX120
  +--> ?PR?_DIGIPOT?DIGIPOT
  +--> ?PR?CALIBRATE?FACTORYTEST
  +--> ?PR?INPUTTEST?FACTORYTEST
  +--> ?PR?OUTPUTTEST?FACTORYTEST
  +--> ?PR?ADTEST?FACTORYTEST
  +--> ?PR?DIGIOTEST?FACTORYTEST
  +--> ?PR?AUTOONTEST?FACTORYTEST
  +--> ?PR?SMB_MASTER_TEST?FACTORYTEST
BL51 BANKED LINKER/LOCATER V6.22                                                      01/05/2016  18:47:25  PAGE 8


  +--> ?PR?SMB_SLAVE_TEST?FACTORYTEST
  +--> ?PR?_DATAFLASHTEST?FACTORYTEST
  +--> ?PR?_SAVEDOWNLOAD?MESSAGE
  +--> ?PR?_JUMPCOPY?MESSAGE

?PR?_VERIFY_CRC?MESSAGE                          -----    -----      0042H    0007H      -----    -----      -----    --
>> ---
  +--> ?PR?_CRC16?CRC

?PR?_SENDNAK?MESSAGE                             -----    -----      -----    -----      -----    -----      -----    --
>> ---
  +--> ?CO?SENSORUNIT
  +--> ?PR?_SENDMESSAGE?MESSAGE

?PR?_DATAFLASH_PAGE_WRITE_ERASE?DATAF...         -----    -----      004CH    000DH      -----    -----      -----    --
>> ---
  +--> ?PR?DATAFLASH_READ_STATUS?DATAFLASH
  +--> ?PR?_XFERSPI?CYGFX120

?PR?_DATAFLASH_ERASE_PAGE?DATAFLASH              -----    -----      0049H    0004H      -----    -----      -----    --
>> ---
  +--> ?PR?DATAFLASH_READ_STATUS?DATAFLASH
  +--> ?PR?_XFERSPI?CYGFX120

?PR?_DATAFLASH_ERASE_RANGE?DATAFLASH             -----    -----      0042H    0005H      -----    -----      -----    --
>> ---
  +--> ?PR?_DATAFLASH_ERASE_BLOCK?DATAFLASH
  +--> ?PR?_DATAFLASH_ERASE_PAGE?DATAFLASH

?PR?_DATAFLASH_ERASE_BLOCK?DATAFLASH             -----    -----      0047H    0004H      -----    -----      -----    --
>> ---
  +--> ?PR?DATAFLASH_READ_STATUS?DATAFLASH
  +--> ?PR?_XFERSPI?CYGFX120

?PR?CALIBRATE?FACTORYTEST                        -----    -----      0042H    0003H      -----    -----      0F2CH    00
>> 90H
  +--> ?PR?_READSCRATCHPAD?CYGNALFLASH
  +--> ?CO?SENSORUNIT
  +--> ?CO?FACTORYTEST
  +--> ?PR?PRINTF?PRINTF
  +--> ?PR?_STRLEN?STRLEN
  +--> ?PR?_SENDMESSAGE?MESSAGE
  +--> ?PR?STABILIZE?FACTORYTEST
  +--> ?PR?ZEROOUTXY?FACTORYTEST
  +--> ?PR?ERASESCRATCHPAD?CYGNALFLASH
  +--> ?PR?_WRITESCRATCHPAD?CYGNALFLASH
  +--> ?PR?INITSUSCRATCHPAD?CYGNALFLASH

?PR?PRINTF?PRINTF                                0020H.2  0001H.1    0049H    001CH      -----    -----      -----    --
>> ---
  +--> ?PR?PUTCHAR?PUTCHAR

?PR?ZEROOUTXY?FACTORYTEST                        -----    -----      0045H    0002H      -----    -----      0FBCH    00
>> 5CH
  +--> ?CO?SENSORUNIT
  +--> ?CO?FACTORYTEST
  +--> ?PR?PRINTF?PRINTF
BL51 BANKED LINKER/LOCATER V6.22                                                      01/05/2016  18:47:25  PAGE 9


  +--> ?PR?_STRLEN?STRLEN
  +--> ?PR?_SENDMESSAGE?MESSAGE
  +--> ?PR?STABILIZE?FACTORYTEST

?PR?INPUTTEST?FACTORYTEST                        -----    -----      0042H    0004H      -----    -----      0F2CH    00
>> 78H
  +--> ?CO?FACTORYTEST
  +--> ?CO?SENSORUNIT
  +--> ?PR?PRINTF?PRINTF
  +--> ?PR?_STRLEN?STRLEN
  +--> ?PR?_SENDMESSAGE?MESSAGE

?PR?OUTPUTTEST?FACTORYTEST                       -----    -----      0042H    0005H      -----    -----      0F2CH    00
>> 14H
  +--> ?CO?FACTORYTEST
  +--> ?CO?SENSORUNIT
  +--> ?PR?PRINTF?PRINTF
  +--> ?PR?_STRLEN?STRLEN
  +--> ?PR?_SENDMESSAGE?MESSAGE

?PR?ADTEST?FACTORYTEST                           -----    -----      0042H    0004H      -----    -----      0F2CH    00
>> 64H
  +--> ?CO?SENSORUNIT
  +--> ?CO?FACTORYTEST
  +--> ?PR?PRINTF?PRINTF
  +--> ?PR?_STRLEN?STRLEN
  +--> ?PR?_SENDMESSAGE?MESSAGE

?PR?DIGIOTEST?FACTORYTEST                        -----    -----      0042H    0005H      -----    -----      0F2CH    00
>> 14H
  +--> ?CO?SENSORUNIT
  +--> ?CO?FACTORYTEST
  +--> ?PR?PRINTF?PRINTF
  +--> ?PR?_STRLEN?STRLEN
  +--> ?PR?_SENDMESSAGE?MESSAGE

?PR?AUTOONTEST?FACTORYTEST                       -----    -----      0042H    0001H      -----    -----      0F2CH    00
>> 1CH
  +--> ?CO?SENSORUNIT
  +--> ?CO?FACTORYTEST
  +--> ?PR?PRINTF?PRINTF
  +--> ?PR?_STRLEN?STRLEN
  +--> ?PR?_SENDMESSAGE?MESSAGE
  +--> ?PR?_DIGIPOT?DIGIPOT

?PR?SMB_MASTER_TEST?FACTORYTEST                  0020H.1  0000H.1    0042H    0006H      -----    -----      0F2CH    00
>> 18H
  +--> ?CO?SENSORUNIT
  +--> ?CO?FACTORYTEST
  +--> ?PR?PRINTF?PRINTF
  +--> ?PR?_STRLEN?STRLEN
  +--> ?PR?_SENDMESSAGE?MESSAGE
  +--> ?PR?SMB_WRITE?SMBUS
  +--> ?PR?SMB_READ?SMBUS

?PR?SMB_SLAVE_TEST?FACTORYTEST                   0020H.1  0000H.1    0042H    0003H      -----    -----      0F2CH    00
>> 08H
BL51 BANKED LINKER/LOCATER V6.22                                                      01/05/2016  18:47:25  PAGE 10


  +--> ?CO?SENSORUNIT
  +--> ?CO?FACTORYTEST
  +--> ?PR?PRINTF?PRINTF
  +--> ?PR?_STRLEN?STRLEN
  +--> ?PR?_SENDMESSAGE?MESSAGE

?PR?_DATAFLASHTEST?FACTORYTEST                   -----    -----      0042H    0007H      -----    -----      0F2CH    00
>> 08H
  +--> ?CO?SENSORUNIT
  +--> ?CO?FACTORYTEST
  +--> ?PR?PRINTF?PRINTF
  +--> ?PR?_STRLEN?STRLEN
  +--> ?PR?_SENDMESSAGE?MESSAGE
  +--> ?PR?_DATAFLASH_PAGE_WRITE_ERASE?DATAF...
  +--> ?PR?_DATAFLASH_PAGE_READ?DATAFLASH
  +--> ?PR?_DATAFLASH_ERASE_PAGE?DATAFLASH

?PR?_SAVEDOWNLOAD?MESSAGE                        -----    -----      0042H    000AH      -----    -----      -----    --
>> ---
  +--> ?PR?_DATAFLASH_PAGE_WRITE_ERASE?DATAF...

?PR?_JUMPCOPY?MESSAGE                            -----    -----      0042H    0002H      -----    -----      0F2CH    00
>> 05H
  +--> ?PR?_COPYTOCODESPACE?FDL

?PR?_COPYTOCODESPACE?FDL                         -----    -----      0044H    000CH      -----    -----      -----    --
>> ---
  +--> ?PR?FDL_DATAFLASH_READ_STATUS?FDL
  +--> ?PR?_FDL_XFERSPI?FDL

?PR?FDL_DATAFLASH_READ_STATUS?FDL                -----    -----      0050H    0002H      -----    -----      -----    --
>> ---
  +--> ?PR?_FDL_XFERSPI?FDL

?PR?SETUP_RECORDING?SENSORUNIT                   -----    -----      0031H    0004H      -----    -----      -----    --
>> ---
  +--> ?PR?_DATAFLASH_PAGE_READ?DATAFLASH
  +--> ?PR?C?LMUL_F120
  +--> ?PR?C?IMUL_F120

?PR?STOP_RECORDING?SENSORUNIT                    -----    -----      -----    -----      -----    -----      0F1CH    00
>> 08H
  +--> ?PR?C?LMUL_F120

?PR?PROCESS_IO?SENSORUNIT                        -----    -----      0031H    0004H      -----    -----      -----    --
>> ---

?PR?_PARSE_UBX?UBX                               -----    -----      0031H    0015H      -----    -----      -----    --
>> ---
  +--> ?PR?UBXINIT?UBX
  +--> ?CO?UBX
  +--> ?PR?C?LMUL_F120
  +--> ?PR?C?ULSHR_F120
  +--> ?PR?C?LSHL_F120
  +--> ?CO?SENSORUNIT
  +--> ?PR?_SENDMESSAGE?MESSAGE

BL51 BANKED LINKER/LOCATER V6.22                                                      01/05/2016  18:47:25  PAGE 11




SYMBOL TABLE OF MODULE:  SensorUnit (ADC)

  VALUE           TYPE          NAME
  ----------------------------------

  -------         MODULE        ADC
  C:0000H         SYMBOL        _ICE_DUMMY_
  D:0080H         PUBLIC        P0
  D:00BCH         PUBLIC        ADC0CF
  D:00B0H         PUBLIC        P3
  D:00C8H         PUBLIC        P4
  D:00D8H         PUBLIC        P5
  D:00E8H         PUBLIC        P6
  D:00E7H         PUBLIC        EIE2
  D:00F8H         PUBLIC        P7
  D:00E8H         PUBLIC        ADC0CN
  D:0084H         PUBLIC        SFRPAGE
  D:00FCH         PUBLIC        PCA0CPH0
  D:00FEH         PUBLIC        PCA0CPH1
  D:00FBH         PUBLIC        PCA0CPL0
  D:00FDH         PUBLIC        PCA0CPL1
  D:00DAH         PUBLIC        PCA0CPM0
  D:00D9H         PUBLIC        PCA0MD
  D:00D8H         PUBLIC        PCA0CN
  D:00DBH         PUBLIC        PCA0CPM1
  D:00D1H         PUBLIC        REF0CN
  D:00BAH         PUBLIC        AMX0CF
  B:00E8H.5       PUBLIC        AD0INT
  D:00BBH         PUBLIC        AMX0SL
  C:9DA4H         PUBLIC        ADC0_ISR
  C:AB72H         PUBLIC        ADC0_Init
  D:00BEH         PUBLIC        ADC0
  B:00E8H.4       PUBLIC        AD0BUSY
  -------         PROC          ADC0_INIT
  -------         DO            
  D:0031H         SYMBOL        SFRPAGE_SAVE
  -------         ENDDO         
  C:AB72H         LINE#         38
  C:AB72H         LINE#         39
  C:AB75H         LINE#         42
  C:AB7EH         LINE#         45
  C:AB84H         LINE#         46
  C:AB86H         LINE#         47
  C:AB89H         LINE#         48
  C:AB8CH         LINE#         49
  C:AB8FH         LINE#         50
  C:AB92H         LINE#         52
  C:AB9AH         LINE#         53
  C:ABA2H         LINE#         54
  C:ABAAH         LINE#         55
  C:ABB2H         LINE#         56
  C:ABB2H         LINE#         59
  C:ABC4H         LINE#         62
  C:ABC7H         LINE#         63
  C:ABCAH         LINE#         67
BL51 BANKED LINKER/LOCATER V6.22                                                      01/05/2016  18:47:25  PAGE 12


  C:ABCDH         LINE#         69
  C:ABCFH         LINE#         70
  C:ABD1H         LINE#         71
  C:ABD4H         LINE#         73
  C:ABD7H         LINE#         75
  C:ABDAH         LINE#         76
  -------         ENDPROC       ADC0_INIT
  -------         PROC          ADC0_ISR
  -------         DO            
  D:0002H         SYMBOL        i
  -------         DO            
  D:0022H         SYMBOL        dividefactor
  -------         ENDDO         
  -------         ENDDO         
  C:9DA4H         LINE#         91
  C:9DBFH         LINE#         98
  C:9DC2H         LINE#         100
  C:9DC4H         LINE#         102
  C:9DD9H         LINE#         105
  C:9DFAH         LINE#         106
  C:9DFAH         LINE#         107
  C:9DFDH         LINE#         108
  C:9E00H         LINE#         109
  C:9E02H         LINE#         110
  C:9E02H         LINE#         111
  C:9E05H         LINE#         112
  C:9E08H         LINE#         113
  C:9E0AH         LINE#         114
  C:9E0AH         LINE#         115
  C:9E10H         LINE#         116
  C:9E15H         LINE#         118
  C:9E18H         LINE#         119
  C:9E1BH         LINE#         121
  C:9E1DH         LINE#         122
  C:9E1DH         LINE#         123
  C:9E20H         LINE#         124
  C:9E23H         LINE#         125
  C:9E25H         LINE#         126
  C:9E25H         LINE#         127
  C:9E28H         LINE#         128
  C:9E2BH         LINE#         129
  C:9E2DH         LINE#         130
  C:9E2DH         LINE#         131
  C:9E30H         LINE#         132
  C:9E33H         LINE#         133
  C:9E35H         LINE#         134
  C:9E35H         LINE#         135
  C:9E38H         LINE#         136
  C:9E3BH         LINE#         137
  C:9E3DH         LINE#         138
  C:9E3DH         LINE#         139
  C:9E40H         LINE#         140
  C:9E43H         LINE#         141
  C:9E43H         LINE#         142
  C:9E43H         LINE#         145
  C:9E53H         LINE#         146
  C:9E66H         LINE#         149
BL51 BANKED LINKER/LOCATER V6.22                                                      01/05/2016  18:47:25  PAGE 13


  C:9E69H         LINE#         150
  C:9E75H         LINE#         152
  C:9E95H         LINE#         154
  C:9ECCH         LINE#         157
  C:9EE1H         LINE#         158
  C:9EEFH         LINE#         161
  C:9EF5H         LINE#         163
  C:9F1EH         LINE#         169
  C:9F1EH         LINE#         171
  C:9F30H         LINE#         172
  C:9F36H         LINE#         173
  C:9F36H         LINE#         174
  C:9F40H         LINE#         175
  C:9F42H         LINE#         176
  C:9F42H         LINE#         177
  -------         ENDPROC       ADC0_ISR
  -------         ENDMOD        ADC

  -------         MODULE        DIGIPOT
  C:0000H         SYMBOL        _ICE_DUMMY_
  D:0080H         PUBLIC        P0
  D:00B0H         PUBLIC        P3
  D:00C8H         PUBLIC        P4
  D:00D8H         PUBLIC        P5
  D:00E8H         PUBLIC        P6
  D:00F8H         PUBLIC        P7
  B:00B0H.2       PUBLIC        DIGIPOTCS
  C:B075H         PUBLIC        _DigiPot
  B:00B0H.1       PUBLIC        DIGPOTUD
  -------         PROC          _DIGIPOT
  D:0007H         SYMBOL        autoon
  -------         DO            
  D:0006H         SYMBOL        i
  D:0007H         SYMBOL        j
  -------         ENDDO         
  C:B075H         LINE#         23
  C:B075H         LINE#         31
  C:B078H         LINE#         32
  C:B07CH         LINE#         34
  C:B07EH         LINE#         37
  C:B084H         LINE#         39
  C:B086H         LINE#         40
  C:B08CH         LINE#         43
  C:B08EH         LINE#         44
  C:B090H         LINE#         45
  C:B096H         LINE#         46
  C:B09AH         LINE#         48
  C:B09CH         LINE#         49
  -------         ENDPROC       _DIGIPOT
  -------         ENDMOD        DIGIPOT

  -------         MODULE        LANCSETUP
  C:0000H         SYMBOL        _ICE_DUMMY_
  B:00C8H.0       PUBLIC        DIGOUT0
  D:0080H         PUBLIC        P0
  B:00C8H.2       PUBLIC        DIGOUT2
  D:00B0H         PUBLIC        P3
BL51 BANKED LINKER/LOCATER V6.22                                                      01/05/2016  18:47:25  PAGE 14


  D:00C8H         PUBLIC        P4
  D:00D8H         PUBLIC        P5
  D:00E8H         PUBLIC        P6
  D:00F8H         PUBLIC        P7
  B:00D8H.0       PUBLIC        DIGIN0
  B:00D8H.1       PUBLIC        DIGIN1
  B:00D8H.3       PUBLIC        DIGIN3
  B:00D8H.4       PUBLIC        DIGIN4
  C:A0D8H         PUBLIC        New_Accessory_Setup
  -------         PROC          NEW_ACCESSORY_SETUP
  -------         DO            
  D:0031H         SYMBOL        timeoutctr
  -------         DO            
  X:0F1CH         SYMBOL        zzz
  -------         ENDDO         
  -------         DO            
  D:0033H         SYMBOL        bitctr
  D:0034H         SYMBOL        handshakebits
  -------         DO            
  X:0F20H         SYMBOL        zzz
  -------         ENDDO         
  -------         ENDDO         
  -------         ENDDO         
  C:A0D8H         LINE#         12
  C:A0D8H         LINE#         14
  C:A0E4H         LINE#         15
  C:A0E9H         LINE#         18
  C:A0FBH         LINE#         21
  C:A0FDH         LINE#         22
  C:A0FFH         LINE#         24
  C:A131H         LINE#         25
  C:A13DH         LINE#         26
  C:A13FH         LINE#         28
  C:A144H         LINE#         29
  C:A157H         LINE#         31
  C:A15AH         LINE#         32
  C:A160H         LINE#         33
  C:A161H         LINE#         34
  C:A161H         LINE#         39
  C:A170H         LINE#         40
  C:A176H         LINE#         43
  C:A186H         LINE#         48
  C:A189H         LINE#         49
  C:A18EH         LINE#         50
  C:A190H         LINE#         51
  C:A1C2H         LINE#         52
  C:A1C8H         LINE#         53
  C:A1CFH         LINE#         55
  C:A1D4H         LINE#         56
  C:A1E7H         LINE#         58
  C:A1EDH         LINE#         59
  C:A1F0H         LINE#         60
  C:A1F5H         LINE#         63
  C:A1F7H         LINE#         64
  C:A1F9H         LINE#         65
  C:A1FFH         LINE#         66
  C:A200H         LINE#         74
BL51 BANKED LINKER/LOCATER V6.22                                                      01/05/2016  18:47:25  PAGE 15


  C:A200H         LINE#         75
  C:A206H         LINE#         76
  C:A20CH         LINE#         77
  C:A211H         LINE#         79
  C:A211H         LINE#         81
  C:A211H         LINE#         82
  C:A211H         LINE#         83
  C:A211H         LINE#         84
  -------         ENDPROC       NEW_ACCESSORY_SETUP
  -------         ENDMOD        LANCSETUP

  -------         MODULE        SENSORUNIT
  C:0000H         SYMBOL        _ICE_DUMMY_
  D:0080H         PUBLIC        P0
  B:00C8H.2       PUBLIC        DIGOUT2
  D:00FFH         PUBLIC        WDTCN
  X:0000H         PUBLIC        lastgps
  B:00C8H.4       PUBLIC        DIGOUT4
  D:00B0H         PUBLIC        P3
  D:00C8H         PUBLIC        P4
  X:0001H         PUBLIC        resend
  D:00D8H         PUBLIC        P5
  B:00B0H.3       PUBLIC        LED0
  B:00A8H.7       PUBLIC        EA
  D:00E8H         PUBLIC        P6
  D:00E7H         PUBLIC        EIE2
  X:0002H         PUBLIC        gps_past_due
  B:00B0H.6       PUBLIC        LED1
  D:00F8H         PUBLIC        P7
  X:0004H         PUBLIC        calibrating
  B:00B0H.5       PUBLIC        LED2
  X:0005H         PUBLIC        session
  B:00F8H.4       PUBLIC        EN3VGPS
  B:00B0H.4       PUBLIC        LED3
  D:0084H         PUBLIC        SFRPAGE
  C:8DA9H         PUBLIC        crc16_table
  X:0006H         PUBLIC        digout
  X:0014H         PUBLIC        duconnected
  X:0015H         PUBLIC        simgps
  C:64D3H         PUBLIC        Setup_Recording
  X:0016H         PUBLIC        su2
  B:00F8H.7       PUBLIC        EN5V
  B:00D8H.2       PUBLIC        DIGIN2
  B:00D8H.3       PUBLIC        DIGIN3
  B:00D8H.4       PUBLIC        DIGIN4
  X:0017H         PUBLIC        result
  C:24D6H         PUBLIC        main
  X:0027H         PUBLIC        accumulator
  C:A337H         PUBLIC        Stop_Recording
  X:0037H         PUBLIC        periodbuff
  X:003FH         PUBLIC        smbus
  X:004BH         PUBLIC        secondtick
  D:0065H         PUBLIC        gcnt
  X:004DH         PUBLIC        flashpage
  C:A742H         PUBLIC        Init_Cameras
  X:025DH         PUBLIC        period0
  X:025FH         PUBLIC        clocktick
BL51 BANKED LINKER/LOCATER V6.22                                                      01/05/2016  18:47:25  PAGE 16


  X:0261H         PUBLIC        ioscaling
  X:0265H         PUBLIC        smbusrxbuff
  D:0067H         PUBLIC        iopagecnt
  X:0275H         PUBLIC        com
  X:029BH         PUBLIC        currenttemp
  X:029CH         PUBLIC        adcresults
  X:029DH         PUBLIC        smbustxbuff
  X:02ADH         PUBLIC        revs
  X:02AFH         PUBLIC        nextsecond
  X:02B1H         PUBLIC        iocollect
  X:02B2H         PUBLIC        dop
  D:0069H         PUBLIC        secondcnt
  X:02B4H         PUBLIC        cyl
  X:02B5H         PUBLIC        debounce
  B:00A8H.0       PUBLIC        EX0
  X:02B7H         PUBLIC        previousgps
  X:02E1H         PUBLIC        accessory
  X:02E2H         PUBLIC        new_mode
  X:02E3H         PUBLIC        camlanc
  X:02E8H         PUBLIC        ubxfullset
  C:8DA5H         PUBLIC        msgrouting
  X:02E9H         PUBLIC        firstpulse
  D:006BH         PUBLIC        int_dec
  X:02EBH         PUBLIC        msgrxbuff
  C:8B34H         PUBLIC        Process_IO
  X:0725H         PUBLIC        msgtxbuff
  C:8D72H         PUBLIC        crnotice
  X:0942H         PUBLIC        pagesize
  D:006DH         PUBLIC        channel
  X:0944H         PUBLIC        gpsrxbuff
  X:0BD8H         PUBLIC        new_samp
  X:0BD9H         PUBLIC        gpstxbuff
  X:0C19H         PUBLIC        outstanding_msg
  D:00EFH         PUBLIC        RSTSRC
  X:0C1CH         PUBLIC        numpages
  D:006EH         PUBLIC        pagecnt
  X:0C1EH         PUBLIC        tm_state
  X:0C1FH         PUBLIC        CTS
  X:0C22H         PUBLIC        scratch
  X:0CA2H         PUBLIC        samps_per_sec
  X:0CA3H         PUBLIC        new_iocollect
  X:0CA4H         PUBLIC        mode_change
  X:0CA5H         PUBLIC        cameracontrol
  X:0EFDH         PUBLIC        txbufcnt
  X:0EFEH         PUBLIC        negperiod0
  X:0F00H         PUBLIC        gpslock
  X:0F01H         PUBLIC        gpspulse
  X:0F02H         PUBLIC        ubxdone
  X:0F03H         PUBLIC        stoprecordtick
  -------         PROC          MAIN
  -------         DO            
  X:0F15H         SYMBOL        retval
  X:0F17H         SYMBOL        i
  D:002AH         SYMBOL        onbuttonctr
  X:0F19H         SYMBOL        nextcamupdate
  X:0F1BH         SYMBOL        updatestatus
  -------         DO            
BL51 BANKED LINKER/LOCATER V6.22                                                      01/05/2016  18:47:25  PAGE 17


  X:0F05H         SYMBOL        zzz
  -------         ENDDO         
  -------         DO            
  X:0F09H         SYMBOL        zzz
  -------         ENDDO         
  -------         DO            
  D:002EH         SYMBOL        tmpptr
  -------         ENDDO         
  -------         DO            
  X:0F0DH         SYMBOL        zzz
  X:0F11H         SYMBOL        zzz
  -------         ENDDO         
  -------         DO            
  X:0F11H         SYMBOL        zzz
  -------         ENDDO         
  -------         DO            
  D:002EH         SYMBOL        tmpptr
  -------         ENDDO         
  -------         DO            
  D:002EH         SYMBOL        i
  -------         ENDDO         
  -------         ENDDO         
  C:24D6H         LINE#         80
  C:24D6H         LINE#         83
  C:24DFH         LINE#         85
  C:24E3H         LINE#         93
  C:24E6H         LINE#         96
  C:24E9H         LINE#         97
  C:24ECH         LINE#         99
  C:24EFH         LINE#         100
  C:24F2H         LINE#         109
  C:24F8H         LINE#         111
  C:24FBH         LINE#         112
  C:250DH         LINE#         115
  C:2510H         LINE#         117
  C:2516H         LINE#         118
  C:251BH         LINE#         126
  C:2521H         LINE#         127
  C:257DH         LINE#         128
  C:25B2H         LINE#         129
  C:2606H         LINE#         133
  C:261BH         LINE#         134
  C:2633H         LINE#         135
  C:2638H         LINE#         137
  C:263BH         LINE#         138
  C:2642H         LINE#         139
  C:2645H         LINE#         140
  C:2648H         LINE#         143
  C:264DH         LINE#         148
  C:2653H         LINE#         149
  C:2659H         LINE#         151
  C:2665H         LINE#         152
  C:266FH         LINE#         153
  C:2679H         LINE#         154
  C:2683H         LINE#         155
  C:2688H         LINE#         156
  C:268DH         LINE#         157
BL51 BANKED LINKER/LOCATER V6.22                                                      01/05/2016  18:47:25  PAGE 18


  C:2693H         LINE#         158
  C:26A0H         LINE#         159
  C:26A8H         LINE#         160
  C:26B0H         LINE#         162
  C:26CBH         LINE#         166
  C:26DBH         LINE#         175
  C:26E7H         LINE#         176
  C:26EDH         LINE#         178
  C:26F8H         LINE#         181
  C:26FEH         LINE#         183
  C:270AH         LINE#         184
  C:2714H         LINE#         185
  C:2719H         LINE#         186
  C:271BH         LINE#         187
  C:271FH         LINE#         188
  C:2722H         LINE#         189
  C:2722H         LINE#         191
  C:2728H         LINE#         193
  C:272BH         LINE#         211
  C:272DH         LINE#         218
  C:2733H         LINE#         219
  C:2765H         LINE#         220
  C:2768H         LINE#         221
  C:2768H         LINE#         224
  C:276BH         LINE#         225
  C:2771H         LINE#         236
  C:2776H         LINE#         238
  C:278AH         LINE#         240
  C:278DH         LINE#         243
  C:27AAH         LINE#         244
  C:27C1H         LINE#         252
  C:27C1H         LINE#         254
  C:27D6H         LINE#         259
  C:27DEH         LINE#         262
  C:27E4H         LINE#         263
  C:27E8H         LINE#         265
  C:27EAH         LINE#         269
  C:27F8H         LINE#         272
  C:282AH         LINE#         282
  C:282CH         LINE#         284
  C:282EH         LINE#         286
  C:282EH         LINE#         289
  C:2842H         LINE#         290
  C:2846H         LINE#         291
  C:2850H         LINE#         292
  C:2850H         LINE#         296
  C:2856H         LINE#         297
  C:285DH         LINE#         299
  C:2860H         LINE#         300
  C:2868H         LINE#         301
  C:2868H         LINE#         302
  C:2868H         LINE#         303
  C:286AH         LINE#         304
  C:286AH         LINE#         305
  C:2872H         LINE#         306
  C:2872H         LINE#         307
  C:2872H         LINE#         308
BL51 BANKED LINKER/LOCATER V6.22                                                      01/05/2016  18:47:25  PAGE 19


  C:2872H         LINE#         309
  C:2874H         LINE#         311
  C:2882H         LINE#         312
  C:2885H         LINE#         313
  C:288DH         LINE#         314
  C:288FH         LINE#         315
  C:288FH         LINE#         316
  C:288FH         LINE#         317
  C:2891H         LINE#         318
  C:2891H         LINE#         319
  C:2894H         LINE#         320
  C:289CH         LINE#         321
  C:289EH         LINE#         322
  C:289EH         LINE#         323
  C:289EH         LINE#         324
  C:28A0H         LINE#         325
  C:28A8H         LINE#         326
  C:28ABH         LINE#         327
  C:28B1H         LINE#         328
  C:28B1H         LINE#         329
  C:28B1H         LINE#         330
  C:28B3H         LINE#         331
  C:28B7H         LINE#         332
  C:28BAH         LINE#         333
  C:28C2H         LINE#         334
  C:28C2H         LINE#         335
  C:28C8H         LINE#         336
  C:28CDH         LINE#         338
  C:28D0H         LINE#         339
  C:28D0H         LINE#         340
  C:28D0H         LINE#         341
  C:28D0H         LINE#         344
  C:28E7H         LINE#         345
  C:28FDH         LINE#         346
  C:28FDH         LINE#         347
  C:2938H         LINE#         348
  C:2938H         LINE#         349
  C:293AH         LINE#         350
  C:2940H         LINE#         351
  C:2940H         LINE#         352
  C:2943H         LINE#         353
  C:2943H         LINE#         354
  C:2945H         LINE#         355
  C:294BH         LINE#         356
  C:2951H         LINE#         358
  C:295BH         LINE#         359
  C:295DH         LINE#         360
  C:295DH         LINE#         361
  C:295FH         LINE#         362
  C:295FH         LINE#         363
  C:2961H         LINE#         364
  C:2961H         LINE#         365
  C:2961H         LINE#         366
  C:2961H         LINE#         367
  C:2963H         LINE#         368
  C:2969H         LINE#         369
  C:296FH         LINE#         372
BL51 BANKED LINKER/LOCATER V6.22                                                      01/05/2016  18:47:25  PAGE 20


  C:29C2H         LINE#         373
  C:29C4H         LINE#         374
  C:29C4H         LINE#         375
  C:29C6H         LINE#         376
  C:29CBH         LINE#         377
  C:29CBH         LINE#         378
  C:29CBH         LINE#         379
  C:29CBH         LINE#         380
  C:29CBH         LINE#         381
  C:29CBH         LINE#         384
  C:29F6H         LINE#         385
  C:29F8H         LINE#         387
  C:2A00H         LINE#         388
  C:2A2CH         LINE#         389
  C:2A3BH         LINE#         390
  C:2A3BH         LINE#         391
  C:2A3BH         LINE#         395
  C:2A46H         LINE#         396
  C:2A52H         LINE#         399
  C:2A5EH         LINE#         401
  C:2A71H         LINE#         402
  C:2A71H         LINE#         492
  C:2A7AH         LINE#         496
  C:2A7CH         LINE#         499
  C:2A86H         LINE#         504
  C:2A8CH         LINE#         505
  C:2A91H         LINE#         506
  C:2A94H         LINE#         507
  C:2A96H         LINE#         508
  C:2A99H         LINE#         509
  C:2A99H         LINE#         511
  C:2AADH         LINE#         512
  C:2ADFH         LINE#         513
  C:2AE1H         LINE#         514
  C:2B43H         LINE#         515
  C:2B45H         LINE#         516
  C:2B45H         LINE#         517
  C:2B45H         LINE#         520
  C:2B4DH         LINE#         522
  C:2B4FH         LINE#         526
  C:2B52H         LINE#         528
  C:2B5BH         LINE#         529
  C:2B60H         LINE#         532
  C:2B65H         LINE#         534
  C:2B6BH         LINE#         537
  C:2B73H         LINE#         540
  C:2B75H         LINE#         541
  C:2B78H         LINE#         542
  C:2B7BH         LINE#         544
  C:2B7BH         LINE#         545
  C:2B7EH         LINE#         546
  C:2B82H         LINE#         547
  C:2B86H         LINE#         550
  C:2B8EH         LINE#         552
  C:2B8EH         LINE#         553
  C:2B91H         LINE#         554
  C:2B96H         LINE#         555
BL51 BANKED LINKER/LOCATER V6.22                                                      01/05/2016  18:47:25  PAGE 21


  C:2B9BH         LINE#         558
  C:2BA3H         LINE#         561
  C:2BB8H         LINE#         564
  C:2BBBH         LINE#         567
  C:2BBEH         LINE#         568
  C:2BC1H         LINE#         571
  C:2BC1H         LINE#         574
  C:2BD1H         LINE#         575
  C:2BD3H         LINE#         578
  C:2BE3H         LINE#         579
  C:2BE6H         LINE#         581
  C:2C22H         LINE#         582
  C:2C32H         LINE#         586
  C:2C35H         LINE#         587
  C:2C38H         LINE#         588
  C:2C3DH         LINE#         589
  C:2C66H         LINE#         590
  C:2C68H         LINE#         591
  C:2C68H         LINE#         593
  C:2C78H         LINE#         594
  C:2C7BH         LINE#         595
  C:2C7BH         LINE#         596
  C:2C7BH         LINE#         597
  C:2C83H         LINE#         598
  C:2C88H         LINE#         599
  C:2C88H         LINE#         601
  C:2C88H         LINE#         603
  C:2C9EH         LINE#         609
  C:2CC3H         LINE#         612
  C:2CCCH         LINE#         614
  C:2CDAH         LINE#         615
  C:2CE1H         LINE#         617
  C:2CE7H         LINE#         619
  C:2CF4H         LINE#         620
  C:2CFAH         LINE#         622
  C:2D03H         LINE#         626
  C:2D15H         LINE#         627
  C:2D15H         LINE#         630
  C:2D43H         LINE#         632
  C:2D47H         LINE#         633
  C:2D47H         LINE#         637
  C:2D87H         LINE#         639
  C:2DDFH         LINE#         642
  C:2E37H         LINE#         646
  C:2E58H         LINE#         647
  C:2E98H         LINE#         648
  C:2ED8H         LINE#         649
  C:2F18H         LINE#         650
  C:2F58H         LINE#         651
  C:2F7BH         LINE#         652
  C:2F9EH         LINE#         655
  C:2FADH         LINE#         658
  C:2FB0H         LINE#         684
  C:2FB3H         LINE#         686
  C:2FBFH         LINE#         688
  C:2FD7H         LINE#         691
  C:2FEBH         LINE#         697
BL51 BANKED LINKER/LOCATER V6.22                                                      01/05/2016  18:47:25  PAGE 22


  C:3007H         LINE#         699
  C:3029H         LINE#         767
  C:302CH         LINE#         770
  C:304AH         LINE#         772
  C:3074H         LINE#         775
  C:3077H         LINE#         776
  C:307DH         LINE#         777
  C:3083H         LINE#         778
  C:3089H         LINE#         779
  C:3092H         LINE#         780
  C:3094H         LINE#         782
  C:3099H         LINE#         784
  C:30A3H         LINE#         785
  C:30A3H         LINE#         793
  C:30BDH         LINE#         794
  C:30C6H         LINE#         795
  C:30D3H         LINE#         796
  C:30D8H         LINE#         797
  C:30DAH         LINE#         798
  C:30DAH         LINE#         799
  C:30E7H         LINE#         800
  C:30E9H         LINE#         801
  C:30F1H         LINE#         802
  C:30F1H         LINE#         817
  C:30F1H         LINE#         818
  C:3102H         LINE#         820
  C:3106H         LINE#         821
  C:310AH         LINE#         825
  C:310AH         LINE#         826
  C:310AH         LINE#         827
  C:310DH         LINE#         828
  C:310DH         LINE#         836
  C:3139H         LINE#         837
  C:315CH         LINE#         838
  C:317FH         LINE#         839
  C:31A1H         LINE#         840
  C:31B0H         LINE#         843
  C:31C4H         LINE#         844
  C:31DCH         LINE#         872
  C:31DCH         LINE#         877
  C:31E1H         LINE#         878
  C:31E5H         LINE#         881
  C:31EBH         LINE#         882
  C:31EDH         LINE#         883
  C:31EFH         LINE#         884
  C:31F2H         LINE#         885
  C:31F4H         LINE#         886
  C:31F4H         LINE#         889
  C:31F4H         LINE#         891
  C:31F4H         LINE#         892
  -------         ENDPROC       MAIN
  -------         PROC          INIT_CAMERAS
  C:A742H         LINE#         895
  C:A742H         LINE#         897
  C:A755H         LINE#         900
  C:A75FH         LINE#         901
  C:A76CH         LINE#         905
BL51 BANKED LINKER/LOCATER V6.22                                                      01/05/2016  18:47:25  PAGE 23


  C:A775H         LINE#         906
  C:A780H         LINE#         907
  C:A780H         LINE#         908
  C:A780H         LINE#         909
  C:A782H         LINE#         910
  C:A782H         LINE#         911
  C:A788H         LINE#         912
  C:A7ABH         LINE#         913
  C:A7ABH         LINE#         914
  C:A7B1H         LINE#         915
  C:A7B2H         LINE#         916
  C:A7B2H         LINE#         917
  C:A7B5H         LINE#         918
  C:A7B7H         LINE#         919
  C:A7B7H         LINE#         920
  C:A7BDH         LINE#         921
  C:A7BEH         LINE#         922
  C:A7BEH         LINE#         923
  C:A7C4H         LINE#         924
  C:A7C5H         LINE#         925
  C:A7C5H         LINE#         926
  C:A7CBH         LINE#         927
  C:A7CCH         LINE#         928
  C:A7CCH         LINE#         929
  C:A7D2H         LINE#         930
  C:A7D3H         LINE#         931
  C:A7D3H         LINE#         932
  C:A7D3H         LINE#         933
  C:A7D9H         LINE#         934
  C:A7DAH         LINE#         935
  C:A7DAH         LINE#         936
  C:A7E0H         LINE#         937
  C:A7E6H         LINE#         938
  C:A7E6H         LINE#         939
  C:A7E6H         LINE#         940
  C:A7E6H         LINE#         941
  -------         ENDPROC       INIT_CAMERAS
  -------         PROC          STOP_RECORDING
  -------         DO            
  X:0F1CH         SYMBOL        zzz
  X:0F20H         SYMBOL        zzz
  -------         ENDDO         
  -------         DO            
  X:0F20H         SYMBOL        zzz
  -------         ENDDO         
  C:A337H         LINE#         988
  C:A337H         LINE#         990
  C:A33BH         LINE#         1003
  C:A34FH         LINE#         1004
  C:A38AH         LINE#         1005
  C:A38AH         LINE#         1006
  C:A38CH         LINE#         1007
  C:A38FH         LINE#         1008
  C:A38FH         LINE#         1010
  C:A3C1H         LINE#         1011
  C:A3C3H         LINE#         1012
  C:A425H         LINE#         1013
BL51 BANKED LINKER/LOCATER V6.22                                                      01/05/2016  18:47:25  PAGE 24


  C:A427H         LINE#         1014
  C:A429H         LINE#         1015
  C:A429H         LINE#         1016
  C:A42BH         LINE#         1017
  C:A42BH         LINE#         1018
  C:A42BH         LINE#         1019
  C:A431H         LINE#         1020
  C:A436H         LINE#         1021
  C:A436H         LINE#         1024
  C:A43EH         LINE#         1025
  C:A441H         LINE#         1027
  -------         ENDPROC       STOP_RECORDING
  -------         PROC          SETUP_RECORDING
  -------         DO            
  D:0031H         SYMBOL        itmp
  D:0033H         SYMBOL        clockin
  -------         ENDDO         
  C:64D3H         LINE#         1032
  C:64D3H         LINE#         1034
  C:64DDH         LINE#         1037
  C:64E6H         LINE#         1038
  C:64EAH         LINE#         1039
  C:64ECH         LINE#         1042
  C:6503H         LINE#         1055
  C:650FH         LINE#         1056
  C:650FH         LINE#         1057
  C:6515H         LINE#         1058
  C:6517H         LINE#         1059
  C:6517H         LINE#         1060
  C:651DH         LINE#         1061
  C:651FH         LINE#         1062
  C:651FH         LINE#         1063
  C:651FH         LINE#         1064
  C:6525H         LINE#         1065
  C:6525H         LINE#         1066
  C:6525H         LINE#         1068
  C:6532H         LINE#         1069
  C:653BH         LINE#         1070
  C:653DH         LINE#         1071
  C:653DH         LINE#         1073
  C:6592H         LINE#         1074
  C:65A4H         LINE#         1075
  C:65A4H         LINE#         1078
  C:65ACH         LINE#         1080
  C:65B7H         LINE#         1081
  C:65BFH         LINE#         1082
  C:65BFH         LINE#         1083
  C:65C5H         LINE#         1084
  C:65E3H         LINE#         1085
  C:65E3H         LINE#         1086
  C:65EDH         LINE#         1087
  C:6626H         LINE#         1088
  C:6626H         LINE#         1089
  C:6626H         LINE#         1091
  C:662CH         LINE#         1092
  C:6633H         LINE#         1093
  C:6633H         LINE#         1095
BL51 BANKED LINKER/LOCATER V6.22                                                      01/05/2016  18:47:25  PAGE 25


  C:6646H         LINE#         1098
  C:6650H         LINE#         1099
  C:665DH         LINE#         1102
  C:6662H         LINE#         1103
  C:6680H         LINE#         1104
  C:668FH         LINE#         1105
  C:6691H         LINE#         1106
  C:66A0H         LINE#         1107
  C:66A2H         LINE#         1108
  C:66A2H         LINE#         1109
  C:66B1H         LINE#         1110
  C:66B1H         LINE#         1111
  C:66B1H         LINE#         1112
  C:66BFH         LINE#         1115
  C:66C4H         LINE#         1116
  C:66F0H         LINE#         1119
  C:690DH         LINE#         1122
  C:691EH         LINE#         1123
  C:691EH         LINE#         1126
  C:6925H         LINE#         1127
  C:6928H         LINE#         1130
  C:693CH         LINE#         1131
  C:6954H         LINE#         1133
  -------         ENDPROC       SETUP_RECORDING
  -------         PROC          PROCESS_IO
  -------         DO            
  D:0031H         SYMBOL        checkbits
  -------         DO            
  D:0032H         SYMBOL        tmpch
  -------         DO            
  D:0033H         SYMBOL        warning
  D:0033H         SYMBOL        outbit
  -------         ENDDO         
  -------         DO            
  D:0033H         SYMBOL        outbit
  -------         ENDDO         
  -------         ENDDO         
  -------         ENDDO         
  C:8B34H         LINE#         1138
  C:8B34H         LINE#         1140
  C:8B3DH         LINE#         1143
  C:8B40H         LINE#         1147
  C:8B56H         LINE#         1148
  C:8B74H         LINE#         1150
  C:8B74H         LINE#         1151
  C:8B79H         LINE#         1152
  C:8B7CH         LINE#         1154
  C:8B7CH         LINE#         1155
  C:8B7CH         LINE#         1156
  C:8BBBH         LINE#         1157
  C:8BBEH         LINE#         1158
  C:8BBEH         LINE#         1159
  C:8BBEH         LINE#         1160
  C:8BC1H         LINE#         1162
  C:8C00H         LINE#         1165
  C:8C12H         LINE#         1167
  C:8C34H         LINE#         1168
BL51 BANKED LINKER/LOCATER V6.22                                                      01/05/2016  18:47:25  PAGE 26


  C:8C34H         LINE#         1169
  C:8C4EH         LINE#         1170
  C:8C50H         LINE#         1171
  C:8C50H         LINE#         1172
  C:8C74H         LINE#         1173
  C:8C76H         LINE#         1174
  C:8C76H         LINE#         1175
  C:8C9EH         LINE#         1176
  C:8C9EH         LINE#         1177
  C:8C9EH         LINE#         1179
  C:8CA2H         LINE#         1180
  C:8CB7H         LINE#         1182
  C:8CCAH         LINE#         1183
  C:8CCAH         LINE#         1184
  C:8CCDH         LINE#         1185
  C:8CCDH         LINE#         1187
  C:8CCDH         LINE#         1188
  C:8CD3H         LINE#         1189
  C:8CD6H         LINE#         1190
  C:8CD6H         LINE#         1192
  C:8CE0H         LINE#         1195
  C:8CEFH         LINE#         1196
  C:8CF6H         LINE#         1197
  C:8CFBH         LINE#         1198
  C:8D0BH         LINE#         1199
  C:8D2EH         LINE#         1200
  C:8D2EH         LINE#         1201
  C:8D2EH         LINE#         1202
  C:8D33H         LINE#         1203
  C:8D43H         LINE#         1204
  C:8D63H         LINE#         1205
  C:8D63H         LINE#         1206
  C:8D63H         LINE#         1207
  C:8D63H         LINE#         1208
  C:8D63H         LINE#         1209
  C:8D63H         LINE#         1242
  C:8D63H         LINE#         1243
  C:8D71H         LINE#         1244
  C:8D71H         LINE#         1245
  -------         ENDPROC       PROCESS_IO
  -------         ENDMOD        SENSORUNIT

  -------         MODULE        SMBUS
  C:0000H         SYMBOL        _ICE_DUMMY_
  D:0080H         PUBLIC        P0
  B:00C0H.2       PUBLIC        AA
  D:00B0H         PUBLIC        P3
  D:00C8H         PUBLIC        P4
  D:00E6H         PUBLIC        EIE1
  D:00D8H         PUBLIC        P5
  D:00E8H         PUBLIC        P6
  D:00F8H         PUBLIC        P7
  B:0021H.3       PUBLIC        SMB_BUSY
  D:0084H         PUBLIC        SFRPAGE
  B:00C0H.3       PUBLIC        SI
  D:00C0H         PUBLIC        SMB0CN
  D:00CFH         PUBLIC        SMB0CR
BL51 BANKED LINKER/LOCATER V6.22                                                      01/05/2016  18:47:25  PAGE 27


  C:99F2H         PUBLIC        SMB_ISR
  C:B126H         PUBLIC        SMB_Read
  C:B142H         PUBLIC        SMB_Write
  C:B15BH         PUBLIC        SMB_Init
  B:00C0H.5       PUBLIC        STA
  D:00C3H         PUBLIC        SMB0ADR
  B:0021H.4       PUBLIC        SMB_RW
  D:00C2H         PUBLIC        SMB0DAT
  B:00C0H.4       PUBLIC        STO
  B:00C0H.6       PUBLIC        ENSMB
  D:00C1H         PUBLIC        SMB0STA
  -------         PROC          SMB_INIT
  -------         DO            
  D:0007H         SYMBOL        SFRPAGE_SAVE
  -------         ENDDO         
  C:B15BH         LINE#         134
  C:B15BH         LINE#         135
  C:B15DH         LINE#         137
  C:B160H         LINE#         141
  C:B163H         LINE#         145
  C:B166H         LINE#         152
  C:B169H         LINE#         153
  C:B16BH         LINE#         154
  C:B16EH         LINE#         156
  C:B170H         LINE#         157
  -------         ENDPROC       SMB_INIT
  -------         PROC          SMB_ISR
  -------         DO            
  B:0020H.0       SYMBOL        FAIL
  -------         ENDDO         
  C:99F2H         LINE#         172
  C:9A09H         LINE#         173
  C:9A0BH         LINE#         176
  C:9A57H         LINE#         179
  C:9A57H         LINE#         182
  C:9A57H         LINE#         183
  C:9A5DH         LINE#         184
  C:9A62H         LINE#         185
  C:9A65H         LINE#         186
  C:9A6AH         LINE#         187
  C:9A6CH         LINE#         189
  C:9A71H         LINE#         190
  C:9A75H         LINE#         191
  C:9A78H         LINE#         198
  C:9A78H         LINE#         199
  C:9A78H         LINE#         200
  C:9A86H         LINE#         202
  C:9A96H         LINE#         203
  C:9A9CH         LINE#         204
  C:9A9FH         LINE#         205
  C:9A9FH         LINE#         206
  C:9AA1H         LINE#         207
  C:9AA3H         LINE#         208
  C:9AA3H         LINE#         209
  C:9AA6H         LINE#         212
  C:9AA6H         LINE#         214
  C:9AA6H         LINE#         215
BL51 BANKED LINKER/LOCATER V6.22                                                      01/05/2016  18:47:25  PAGE 28


  C:9AA8H         LINE#         218
  C:9AA8H         LINE#         219
  C:9AAAH         LINE#         220
  C:9AADH         LINE#         225
  C:9AADH         LINE#         230
  C:9AADH         LINE#         231
  C:9AB3H         LINE#         232
  C:9AC9H         LINE#         233
  C:9AC9H         LINE#         234
  C:9ACFH         LINE#         236
  C:9ADCH         LINE#         237
  C:9AE1H         LINE#         239
  C:9AE3H         LINE#         240
  C:9AE6H         LINE#         244
  C:9AE6H         LINE#         245
  C:9B00H         LINE#         246
  C:9B06H         LINE#         247
  C:9B0CH         LINE#         248
  C:9B0EH         LINE#         249
  C:9B10H         LINE#         250
  C:9B12H         LINE#         251
  C:9B15H         LINE#         254
  C:9B15H         LINE#         255
  C:9B17H         LINE#         256
  C:9B1AH         LINE#         260
  C:9B1AH         LINE#         262
  C:9B1AH         LINE#         263
  C:9B1FH         LINE#         264
  C:9B23H         LINE#         265
  C:9B25H         LINE#         266
  C:9B28H         LINE#         271
  C:9B28H         LINE#         275
  C:9B28H         LINE#         276
  C:9B2FH         LINE#         277
  C:9B35H         LINE#         278
  C:9B3AH         LINE#         279
  C:9B3CH         LINE#         281
  C:9B53H         LINE#         282
  C:9B59H         LINE#         284
  C:9B66H         LINE#         285
  C:9B6CH         LINE#         286
  C:9B71H         LINE#         287
  C:9B71H         LINE#         288
  C:9B73H         LINE#         289
  C:9B75H         LINE#         294
  C:9B75H         LINE#         298
  C:9B75H         LINE#         299
  C:9B77H         LINE#         300
  C:9B79H         LINE#         303
  C:9B79H         LINE#         304
  C:9B79H         LINE#         308
  C:9B79H         LINE#         311
  C:9B79H         LINE#         312
  C:9B8BH         LINE#         316
  C:9B8DH         LINE#         320
  C:9B8DH         LINE#         321
  C:9BA7H         LINE#         322
BL51 BANKED LINKER/LOCATER V6.22                                                      01/05/2016  18:47:25  PAGE 29


  C:9BA7H         LINE#         326
  C:9BA7H         LINE#         327
  C:9BA7H         LINE#         330
  C:9BA7H         LINE#         335
  C:9BAAH         LINE#         336
  C:9BADH         LINE#         337
  C:9BB0H         LINE#         338
  C:9BB2H         LINE#         339
  C:9BB4H         LINE#         340
  C:9BB6H         LINE#         342
  C:9BB8H         LINE#         343
  C:9BBAH         LINE#         344
  C:9BBAH         LINE#         346
  C:9BBCH         LINE#         347
  -------         ENDPROC       SMB_ISR
  -------         PROC          SMB_WRITE
  -------         DO            
  D:0007H         SYMBOL        SFRPAGE_SAVE
  -------         ENDDO         
  C:B142H         LINE#         363
  C:B142H         LINE#         364
  C:B144H         LINE#         366
  C:B147H         LINE#         368
  C:B149H         LINE#         369
  C:B14CH         LINE#         370
  C:B14EH         LINE#         371
  C:B150H         LINE#         372
  C:B156H         LINE#         373
  C:B158H         LINE#         375
  C:B15AH         LINE#         376
  -------         ENDPROC       SMB_WRITE
  -------         PROC          SMB_READ
  -------         DO            
  D:0007H         SYMBOL        SFRPAGE_SAVE
  -------         ENDDO         
  C:B126H         LINE#         392
  C:B126H         LINE#         393
  C:B128H         LINE#         395
  C:B12BH         LINE#         397
  C:B12DH         LINE#         398
  C:B130H         LINE#         399
  C:B132H         LINE#         400
  C:B134H         LINE#         401
  C:B13AH         LINE#         402
  C:B13CH         LINE#         404
  C:B13FH         LINE#         406
  C:B141H         LINE#         407
  -------         ENDPROC       SMB_READ
  -------         ENDMOD        SMBUS

  -------         MODULE        SUPORTS
  C:0000H         SYMBOL        _ICE_DUMMY_
  D:0080H         PUBLIC        P0
  D:0090H         PUBLIC        P1
  D:00A0H         PUBLIC        P2
  D:00B0H         PUBLIC        P3
  D:00C8H         PUBLIC        P4
BL51 BANKED LINKER/LOCATER V6.22                                                      01/05/2016  18:47:25  PAGE 30


  D:00E6H         PUBLIC        EIE1
  D:00D8H         PUBLIC        P5
  B:00A8H.7       PUBLIC        EA
  D:00E8H         PUBLIC        P6
  D:00E7H         PUBLIC        EIE2
  D:00F8H         PUBLIC        P7
  B:00F8H.4       PUBLIC        EN3VGPS
  D:0084H         PUBLIC        SFRPAGE
  D:00A4H         PUBLIC        P0MDOUT
  D:00A5H         PUBLIC        P1MDOUT
  D:00A6H         PUBLIC        P2MDOUT
  D:00A7H         PUBLIC        P3MDOUT
  D:009CH         PUBLIC        P4MDOUT
  D:009DH         PUBLIC        P5MDOUT
  D:009EH         PUBLIC        P6MDOUT
  D:009FH         PUBLIC        P7MDOUT
  D:00EAH         PUBLIC        PCA0CPH2
  D:00D9H         PUBLIC        PCA0MD
  D:00D8H         PUBLIC        PCA0CN
  D:00E9H         PUBLIC        PCA0CPL2
  D:00DCH         PUBLIC        PCA0CPM2
  B:00F8H.3       PUBLIC        ENSMBPU
  D:00E1H         PUBLIC        XBR0
  D:00E2H         PUBLIC        XBR1
  D:00E3H         PUBLIC        XBR2
  B:00E8H.5       PUBLIC        AD0INT
  D:00CCH         PUBLIC        TMR3
  D:0089H         PUBLIC        CPT0MD
  D:0088H         PUBLIC        CPT0CN
  D:00ADH         PUBLIC        P1MDIN
  C:A99FH         PUBLIC        GPSPPS_ISR
  C:AEFBH         PUBLIC        Freq0_Falling_ISR
  D:0089H         PUBLIC        TMOD
  C:AEB3H         PUBLIC        Freq0_Init
  D:00BBH         PUBLIC        AMX0SL
  D:00C8H         PUBLIC        TMR3CN
  B:0088H.1       PUBLIC        IE0
  C:AA1DH         PUBLIC        PORT_Init_SU
  B:00A8H.1       PUBLIC        ET0
  B:0088H.5       PUBLIC        TF0
  D:008CH         PUBLIC        TH0
  B:00A8H.0       PUBLIC        EX0
  B:0088H.0       PUBLIC        IT0
  D:00FAH         PUBLIC        PCA0H
  D:008AH         PUBLIC        TL0
  D:00F9H         PUBLIC        PCA0L
  C:AF86H         PUBLIC        T0_ISR
  B:0088H.4       PUBLIC        TR0
  C:9F5BH         PUBLIC        Freq0_Rising_ISR
  C:B171H         PUBLIC        PPS_Init
  D:008EH         PUBLIC        CKCON
  B:00E8H.4       PUBLIC        AD0BUSY
  -------         PROC          PORT_INIT_SU
  -------         DO            
  D:0007H         SYMBOL        SFRPAGE_SAVE
  -------         ENDDO         
  C:AA1DH         LINE#         34
BL51 BANKED LINKER/LOCATER V6.22                                                      01/05/2016  18:47:25  PAGE 31


  C:AA1DH         LINE#         37
  C:AA1FH         LINE#         39
  C:AA22H         LINE#         41
  C:AA25H         LINE#         42
  C:AA28H         LINE#         43
  C:AA2BH         LINE#         45
  C:AA2EH         LINE#         46
  C:AA31H         LINE#         48
  C:AA34H         LINE#         49
  C:AA37H         LINE#         50
  C:AA3AH         LINE#         52
  C:AA3DH         LINE#         53
  C:AA40H         LINE#         55
  C:AA42H         LINE#         56
  C:AA45H         LINE#         58
  C:AA58H         LINE#         60
  C:AA5AH         LINE#         61
  C:AA5DH         LINE#         62
  C:AA60H         LINE#         63
  C:AA62H         LINE#         64
  C:AA62H         LINE#         65
  C:AA65H         LINE#         66
  C:AA68H         LINE#         67
  C:AA68H         LINE#         70
  C:AA6BH         LINE#         71
  C:AA6EH         LINE#         74
  C:AA70H         LINE#         75
  C:AA73H         LINE#         77
  C:AA7AH         LINE#         78
  C:AA7DH         LINE#         79
  C:AA80H         LINE#         80
  C:AA82H         LINE#         81
  C:AA82H         LINE#         82
  C:AA85H         LINE#         83
  C:AA88H         LINE#         84
  C:AA88H         LINE#         87
  C:AA8BH         LINE#         88
  C:AA8DH         LINE#         89
  C:AA8FH         LINE#         90
  C:AA91H         LINE#         92
  C:AA93H         LINE#         94
  C:AA95H         LINE#         95
  -------         ENDPROC       PORT_INIT_SU
  -------         PROC          FREQ0_INIT
  -------         DO            
  D:0007H         SYMBOL        SFRPAGE_SAVE
  -------         ENDDO         
  C:AEB3H         LINE#         99
  C:AEB3H         LINE#         100
  C:AEB5H         LINE#         103
  C:AEB8H         LINE#         104
  C:AEBAH         LINE#         105
  C:AEBDH         LINE#         106
  C:AEBFH         LINE#         107
  C:AEC1H         LINE#         108
  C:AEC3H         LINE#         109
  C:AEC6H         LINE#         110
BL51 BANKED LINKER/LOCATER V6.22                                                      01/05/2016  18:47:25  PAGE 32


  C:AEC9H         LINE#         111
  C:AECCH         LINE#         114
  C:AED8H         LINE#         117
  C:AEDAH         LINE#         118
  C:AEDCH         LINE#         119
  C:AEDFH         LINE#         120
  C:AEE2H         LINE#         121
  C:AEE4H         LINE#         122
  C:AEE6H         LINE#         123
  C:AEE8H         LINE#         124
  C:AEEAH         LINE#         127
  C:AEEDH         LINE#         128
  C:AEF0H         LINE#         131
  C:AEF3H         LINE#         135
  C:AEF5H         LINE#         136
  C:AEF8H         LINE#         138
  C:AEFAH         LINE#         140
  -------         ENDPROC       FREQ0_INIT
  -------         PROC          PPS_INIT
  -------         DO            
  D:0007H         SYMBOL        SFRPAGE_SAVE
  -------         ENDDO         
  C:B171H         LINE#         147
  C:B171H         LINE#         148
  C:B173H         LINE#         150
  C:B176H         LINE#         152
  C:B178H         LINE#         153
  C:B17AH         LINE#         154
  C:B17CH         LINE#         156
  C:B17EH         LINE#         157
  -------         ENDPROC       PPS_INIT
  -------         PROC          FREQ0_RISING_ISR
  -------         DO            
  D:0024H         SYMBOL        temp
  D:0019H         SYMBOL        freqbufferindex
  D:001AH         SYMBOL        freqtotal
  -------         DO            
  D:0026H         SYMBOL        i
  -------         ENDDO         
  -------         ENDDO         
  C:9F5BH         LINE#         160
  C:9F78H         LINE#         165
  C:9F7BH         LINE#         167
  C:9F7EH         LINE#         168
  C:9F8EH         LINE#         171
  C:9FABH         LINE#         173
  C:9FADH         LINE#         174
  C:9FB0H         LINE#         175
  C:9FB3H         LINE#         176
  C:9FB5H         LINE#         177
  C:9FB7H         LINE#         178
  C:9FBCH         LINE#         180
  C:9FBEH         LINE#         181
  C:9FC0H         LINE#         182
  C:9FF7H         LINE#         183
  C:9FFAH         LINE#         184
  C:9FFDH         LINE#         185
BL51 BANKED LINKER/LOCATER V6.22                                                      01/05/2016  18:47:25  PAGE 33


  C:9FFDH         LINE#         186
  C:A009H         LINE#         187
  C:A035H         LINE#         188
  C:A065H         LINE#         189
  C:A074H         LINE#         190
  C:A0A6H         LINE#         191
  C:A0ADH         LINE#         192
  C:A0ADH         LINE#         194
  C:A0B4H         LINE#         195
  C:A0B4H         LINE#         197
  C:A0B7H         LINE#         198
  C:A0BAH         LINE#         200
  C:A0BDH         LINE#         201
  -------         ENDPROC       FREQ0_RISING_ISR
  -------         PROC          FREQ0_FALLING_ISR
  C:AEFBH         LINE#         204
  C:AF0EH         LINE#         206
  C:AF11H         LINE#         208
  C:AF14H         LINE#         209
  C:AF28H         LINE#         211
  C:AF2BH         LINE#         212
  C:AF2EH         LINE#         214
  C:AF31H         LINE#         215
  -------         ENDPROC       FREQ0_FALLING_ISR
  -------         PROC          T0_ISR
  C:AF86H         LINE#         218
  C:AF8CH         LINE#         220
  C:AF8FH         LINE#         222
  C:AF92H         LINE#         223
  C:AF94H         LINE#         224
  C:AF97H         LINE#         225
  C:AF9AH         LINE#         226
  C:AF9CH         LINE#         229
  C:AFA9H         LINE#         231
  C:AFACH         LINE#         232
  C:AFAFH         LINE#         235
  C:AFB2H         LINE#         236
  -------         ENDPROC       T0_ISR
  -------         PROC          GPSPPS_ISR
  -------         DO            
  D:0007H         SYMBOL        i
  D:0003H         SYMBOL        EASAVE
  -------         ENDDO         
  C:A99FH         LINE#         239
  C:A9B8H         LINE#         244
  C:A9BDH         LINE#         246
  C:A9C3H         LINE#         247
  C:A9D5H         LINE#         249
  C:A9D8H         LINE#         250
  C:A9D8H         LINE#         251
  C:A9E2H         LINE#         253
  C:A9E4H         LINE#         254
  C:A9E7H         LINE#         256
  C:A9EAH         LINE#         257
  C:A9ECH         LINE#         258
  C:A9EEH         LINE#         259
  C:A9F1H         LINE#         261
BL51 BANKED LINKER/LOCATER V6.22                                                      01/05/2016  18:47:25  PAGE 34


  C:A9F4H         LINE#         262
  C:A9F7H         LINE#         263
  C:A9FDH         LINE#         264
  C:AA00H         LINE#         265
  C:AA03H         LINE#         267
  C:AA06H         LINE#         268
  -------         ENDPROC       GPSPPS_ISR
  -------         ENDMOD        SUPORTS

  -------         MODULE        UBX
  C:0000H         SYMBOL        _ICE_DUMMY_
  D:0080H         PUBLIC        P0
  D:00B0H         PUBLIC        P3
  D:00C8H         PUBLIC        P4
  D:00D8H         PUBLIC        P5
  D:00E8H         PUBLIC        P6
  C:00A6H         PUBLIC        UBXInit
  D:00F8H         PUBLIC        P7
  C:8557H         PUBLIC        UBXBaudChange
  C:AFECH         SYMBOL        _?ix1000
  C:3ED9H         PUBLIC        _Parse_UBX
  C:A539H         PUBLIC        _UBXSendPacket
  -------         PROC          UBXBAUDCHANGE
  -------         DO            
  D:0031H         SYMBOL        i
  D:0033H         SYMBOL        timeoutctr
  D:0037H         SYMBOL        packet
  -------         DO            
  X:0F1CH         SYMBOL        zzz
  X:0F20H         SYMBOL        zzz
  -------         ENDDO         
  -------         DO            
  X:0F20H         SYMBOL        zzz
  -------         ENDDO         
  -------         ENDDO         
  C:8557H         LINE#         19
  C:8557H         LINE#         24
  C:8563H         LINE#         27
  C:856BH         LINE#         34
  C:856BH         LINE#         35
  C:8570H         LINE#         36
  C:8578H         LINE#         38
  C:8596H         LINE#         39
  C:85ADH         LINE#         40
  C:85C5H         LINE#         41
  C:85DCH         LINE#         43
  C:85F4H         LINE#         44
  C:860BH         LINE#         47
  C:8616H         LINE#         50
  C:8620H         LINE#         52
  C:862AH         LINE#         55
  C:8649H         LINE#         57
  C:8658H         LINE#         58
  C:8658H         LINE#         66
  C:865DH         LINE#         68
  C:867BH         LINE#         69
  C:8692H         LINE#         70
BL51 BANKED LINKER/LOCATER V6.22                                                      01/05/2016  18:47:25  PAGE 35


  C:86A9H         LINE#         71
  C:86C0H         LINE#         72
  C:86D8H         LINE#         73
  C:86F0H         LINE#         74
  C:8707H         LINE#         75
  C:871EH         LINE#         76
  C:8734H         LINE#         77
  C:873FH         LINE#         78
  C:875DH         LINE#         79
  C:8774H         LINE#         80
  C:878CH         LINE#         81
  C:87A3H         LINE#         82
  C:87BAH         LINE#         83
  C:87D1H         LINE#         84
  C:87E8H         LINE#         85
  C:87FFH         LINE#         88
  C:880AH         LINE#         91
  C:8814H         LINE#         94
  C:8846H         LINE#         102
  C:8857H         LINE#         105
  C:8889H         LINE#         107
  -------         ENDPROC       UBXBAUDCHANGE
  -------         PROC          UBXINIT
  -------         DO            
  D:0046H         SYMBOL        i
  D:0048H         SYMBOL        msgcnt
  X:0F3CH         SYMBOL        messagelist
  D:0049H         SYMBOL        packet
  -------         DO            
  X:0F1CH         SYMBOL        zzz
  -------         ENDDO         
  -------         DO            
  X:0F20H         SYMBOL        zzz
  X:0F24H         SYMBOL        zzz
  X:0F28H         SYMBOL        zzz
  -------         ENDDO         
  -------         DO            
  X:0F24H         SYMBOL        zzz
  X:0F28H         SYMBOL        zzz
  -------         ENDDO         
  -------         DO            
  X:0F28H         SYMBOL        zzz
  -------         ENDDO         
  -------         DO            
  D:004CH         SYMBOL        templong
  -------         DO            
  X:0F2CH         SYMBOL        zzz
  -------         ENDDO         
  -------         ENDDO         
  -------         DO            
  X:0F30H         SYMBOL        zzz
  X:0F34H         SYMBOL        zzz
  X:0F38H         SYMBOL        zzz
  -------         ENDDO         
  -------         DO            
  X:0F34H         SYMBOL        zzz
  X:0F38H         SYMBOL        zzz
BL51 BANKED LINKER/LOCATER V6.22                                                      01/05/2016  18:47:25  PAGE 36


  -------         ENDDO         
  -------         DO            
  X:0F38H         SYMBOL        zzz
  -------         ENDDO         
  -------         ENDDO         
  C:00A6H         LINE#         109
  C:00A6H         LINE#         112
  C:00B9H         LINE#         119
  C:00C5H         LINE#         121
  C:00CEH         LINE#         123
  C:00D6H         LINE#         126
  C:00D9H         LINE#         127
  C:00D9H         LINE#         128
  C:00DEH         LINE#         130
  C:010CH         LINE#         131
  C:0135H         LINE#         132
  C:015AH         LINE#         135
  C:015DH         LINE#         138
  C:0167H         LINE#         141
  C:0173H         LINE#         142
  C:0185H         LINE#         144
  C:0185H         LINE#         146
  C:01A1H         LINE#         149
  C:01B4H         LINE#         151
  C:01C0H         LINE#         153
  C:01CCH         LINE#         155
  C:01FEH         LINE#         156
  C:020DH         LINE#         160
  C:021CH         LINE#         161
  C:021CH         LINE#         162
  C:021CH         LINE#         165
  C:021CH         LINE#         166
  C:0221H         LINE#         168
  C:023FH         LINE#         169
  C:0257H         LINE#         170
  C:026EH         LINE#         171
  C:0286H         LINE#         172
  C:029DH         LINE#         173
  C:02B4H         LINE#         174
  C:02CCH         LINE#         175
  C:02E4H         LINE#         176
  C:02FBH         LINE#         177
  C:0312H         LINE#         178
  C:0329H         LINE#         179
  C:0340H         LINE#         180
  C:0358H         LINE#         181
  C:0370H         LINE#         182
  C:0387H         LINE#         183
  C:039FH         LINE#         184
  C:03B6H         LINE#         185
  C:03CDH         LINE#         186
  C:03E5H         LINE#         187
  C:03FDH         LINE#         188
  C:0414H         LINE#         189
  C:042CH         LINE#         190
  C:0443H         LINE#         191
  C:045AH         LINE#         192
BL51 BANKED LINKER/LOCATER V6.22                                                      01/05/2016  18:47:25  PAGE 37


  C:0472H         LINE#         193
  C:048AH         LINE#         194
  C:04A1H         LINE#         195
  C:04B8H         LINE#         196
  C:04CFH         LINE#         197
  C:04E6H         LINE#         198
  C:04FEH         LINE#         199
  C:0516H         LINE#         200
  C:052DH         LINE#         201
  C:0544H         LINE#         202
  C:055BH         LINE#         203
  C:0572H         LINE#         204
  C:058AH         LINE#         205
  C:05A2H         LINE#         206
  C:05B9H         LINE#         207
  C:05D0H         LINE#         208
  C:05E7H         LINE#         209
  C:05FEH         LINE#         210
  C:0616H         LINE#         211
  C:062EH         LINE#         212
  C:0645H         LINE#         213
  C:065CH         LINE#         214
  C:0673H         LINE#         215
  C:067DH         LINE#         218
  C:0680H         LINE#         221
  C:068AH         LINE#         224
  C:0696H         LINE#         226
  C:0696H         LINE#         228
  C:06B2H         LINE#         231
  C:06C5H         LINE#         233
  C:06D1H         LINE#         235
  C:06DDH         LINE#         237
  C:070FH         LINE#         239
  C:071EH         LINE#         242
  C:071EH         LINE#         243
  C:0723H         LINE#         245
  C:0741H         LINE#         246
  C:0759H         LINE#         247
  C:0770H         LINE#         248
  C:0787H         LINE#         249
  C:079EH         LINE#         250
  C:07B5H         LINE#         251
  C:07CDH         LINE#         252
  C:07E5H         LINE#         253
  C:07FCH         LINE#         254
  C:0813H         LINE#         255
  C:082AH         LINE#         256
  C:0841H         LINE#         257
  C:0859H         LINE#         258
  C:0871H         LINE#         259
  C:0888H         LINE#         260
  C:089FH         LINE#         261
  C:08B6H         LINE#         262
  C:08CDH         LINE#         263
  C:08E5H         LINE#         264
  C:08FDH         LINE#         265
  C:0914H         LINE#         266
BL51 BANKED LINKER/LOCATER V6.22                                                      01/05/2016  18:47:25  PAGE 38


  C:092BH         LINE#         267
  C:0942H         LINE#         268
  C:0959H         LINE#         269
  C:0971H         LINE#         270
  C:0989H         LINE#         271
  C:09A0H         LINE#         272
  C:09B7H         LINE#         273
  C:09CEH         LINE#         274
  C:09E5H         LINE#         275
  C:09FDH         LINE#         276
  C:0A15H         LINE#         277
  C:0A2CH         LINE#         278
  C:0A43H         LINE#         279
  C:0A5AH         LINE#         280
  C:0A71H         LINE#         281
  C:0A89H         LINE#         282
  C:0AA1H         LINE#         283
  C:0AB8H         LINE#         284
  C:0ACFH         LINE#         285
  C:0AE6H         LINE#         286
  C:0AFDH         LINE#         287
  C:0B15H         LINE#         288
  C:0B2DH         LINE#         289
  C:0B44H         LINE#         290
  C:0B5BH         LINE#         291
  C:0B72H         LINE#         292
  C:0B89H         LINE#         293
  C:0BA1H         LINE#         294
  C:0BB9H         LINE#         295
  C:0BD0H         LINE#         296
  C:0BE7H         LINE#         297
  C:0BFEH         LINE#         298
  C:0C08H         LINE#         301
  C:0C0BH         LINE#         304
  C:0C15H         LINE#         307
  C:0C21H         LINE#         309
  C:0C21H         LINE#         311
  C:0C3DH         LINE#         314
  C:0C50H         LINE#         316
  C:0C5CH         LINE#         318
  C:0C68H         LINE#         320
  C:0C9AH         LINE#         322
  C:0CA9H         LINE#         325
  C:0CA9H         LINE#         326
  C:0CAEH         LINE#         328
  C:0CCCH         LINE#         329
  C:0CE3H         LINE#         330
  C:0CFBH         LINE#         331
  C:0D12H         LINE#         333
  C:0D2AH         LINE#         334
  C:0D41H         LINE#         337
  C:0D46H         LINE#         340
  C:0D50H         LINE#         343
  C:0D5CH         LINE#         345
  C:0D5CH         LINE#         347
  C:0D78H         LINE#         350
  C:0D8BH         LINE#         352
BL51 BANKED LINKER/LOCATER V6.22                                                      01/05/2016  18:47:25  PAGE 39


  C:0D97H         LINE#         354
  C:0DA3H         LINE#         356
  C:0DD5H         LINE#         358
  C:0DE4H         LINE#         359
  C:0DE4H         LINE#         362
  C:0DE4H         LINE#         365
  C:0DFFH         LINE#         366
  C:0E83H         LINE#         368
  C:0E8DH         LINE#         369
  C:0F19H         LINE#         371
  C:0F1FH         LINE#         372
  C:0F37H         LINE#         373
  C:0F4FH         LINE#         374
  C:0F66H         LINE#         375
  C:0F7DH         LINE#         376
  C:0F95H         LINE#         377
  C:0FACH         LINE#         378
  C:0FC4H         LINE#         379
  C:0FDCH         LINE#         380
  C:0FF3H         LINE#         381
  C:100AH         LINE#         382
  C:1021H         LINE#         383
  C:1038H         LINE#         386
  C:1043H         LINE#         389
  C:104DH         LINE#         392
  C:1059H         LINE#         394
  C:1059H         LINE#         396
  C:1075H         LINE#         399
  C:1088H         LINE#         401
  C:1094H         LINE#         403
  C:10A0H         LINE#         405
  C:10D2H         LINE#         407
  C:10E1H         LINE#         409
  C:10EAH         LINE#         460
  C:10EAH         LINE#         461
  C:10EFH         LINE#         463
  C:110CH         LINE#         464
  C:1123H         LINE#         467
  C:112EH         LINE#         470
  C:1138H         LINE#         473
  C:1144H         LINE#         475
  C:1144H         LINE#         477
  C:1160H         LINE#         480
  C:1173H         LINE#         482
  C:117FH         LINE#         484
  C:118BH         LINE#         486
  C:11BDH         LINE#         487
  C:11CCH         LINE#         490
  C:11CCH         LINE#         491
  C:11D1H         LINE#         493
  C:11EEH         LINE#         494
  C:1205H         LINE#         495
  C:121CH         LINE#         496
  C:1233H         LINE#         497
  C:124AH         LINE#         498
  C:1261H         LINE#         499
  C:1278H         LINE#         500
BL51 BANKED LINKER/LOCATER V6.22                                                      01/05/2016  18:47:25  PAGE 40


  C:128FH         LINE#         503
  C:129AH         LINE#         506
  C:12A4H         LINE#         509
  C:12B0H         LINE#         511
  C:12B0H         LINE#         513
  C:12CCH         LINE#         516
  C:12DFH         LINE#         518
  C:12EBH         LINE#         520
  C:12F7H         LINE#         522
  C:1329H         LINE#         524
  C:1338H         LINE#         527
  C:1338H         LINE#         528
  C:133DH         LINE#         530
  C:135BH         LINE#         531
  C:1372H         LINE#         532
  C:138AH         LINE#         535
  C:13A2H         LINE#         536
  C:13B8H         LINE#         537
  C:13C3H         LINE#         538
  C:13DDH         LINE#         539
  C:13E8H         LINE#         540
  C:1406H         LINE#         541
  C:141DH         LINE#         542
  C:1434H         LINE#         543
  C:143FH         LINE#         544
  C:145AH         LINE#         545
  C:1465H         LINE#         546
  C:1480H         LINE#         547
  C:148BH         LINE#         548
  C:14A6H         LINE#         549
  C:14B1H         LINE#         550
  C:14CEH         LINE#         551
  C:14E5H         LINE#         552
  C:14FCH         LINE#         553
  C:1513H         LINE#         554
  C:152AH         LINE#         555
  C:1541H         LINE#         556
  C:1558H         LINE#         557
  C:156FH         LINE#         558
  C:1586H         LINE#         559
  C:159DH         LINE#         560
  C:15B4H         LINE#         561
  C:15CBH         LINE#         562
  C:15E2H         LINE#         563
  C:15F9H         LINE#         566
  C:1604H         LINE#         569
  C:160EH         LINE#         572
  C:161AH         LINE#         574
  C:161AH         LINE#         576
  C:1636H         LINE#         579
  C:1649H         LINE#         581
  C:1655H         LINE#         583
  C:1661H         LINE#         585
  C:1693H         LINE#         587
  C:16A2H         LINE#         588
  C:16A2H         LINE#         589
  -------         ENDPROC       UBXINIT
BL51 BANKED LINKER/LOCATER V6.22                                                      01/05/2016  18:47:25  PAGE 41


  C:A52EH         SYMBOL        L?0465
  C:A533H         SYMBOL        L?0466
  -------         PROC          L?0464
  -------         ENDPROC       L?0464
  C:A52EH         SYMBOL        L?0465
  C:A533H         SYMBOL        L?0466
  -------         PROC          _UBXSENDPACKET
  D:0050H         SYMBOL        ubxcmd
  D:0052H         SYMBOL        datalen
  -------         DO            
  D:0006H         SYMBOL        i
  D:0054H         SYMBOL        cka
  D:0055H         SYMBOL        ckb
  -------         ENDDO         
  C:A539H         LINE#         591
  C:A541H         LINE#         596
  C:A54CH         LINE#         598
  C:A55AH         LINE#         600
  C:A562H         LINE#         602
  C:A56AH         LINE#         604
  C:A572H         LINE#         606
  C:A57AH         LINE#         609
  C:A57FH         LINE#         610
  C:A592H         LINE#         611
  C:A5A3H         LINE#         612
  C:A5A7H         LINE#         613
  C:A5AEH         LINE#         615
  C:A5C5H         LINE#         617
  C:A5D6H         LINE#         620
  -------         ENDPROC       _UBXSENDPACKET
  -------         PROC          _PARSE_UBX
  D:0031H         SYMBOL        ubxptr
  D:0034H         SYMBOL        gps
  -------         DO            
  X:1028H         SYMBOL        ubxdone
  X:1029H         SYMBOL        simevel
  X:102BH         SYMBOL        simnvel
  X:102DH         SYMBOL        eastinc
  X:102EH         SYMBOL        northinc
  X:102FH         SYMBOL        updaterate
  D:0037H         SYMBOL        ptr
  D:003AH         SYMBOL        i
  -------         DO            
  D:003CH         SYMBOL        templong
  D:0040H         SYMBOL        negative
  C:AFF5H         SYMBOL        degarray
  D:003CH         SYMBOL        templong
  D:0040H         SYMBOL        eastvel
  D:0042H         SYMBOL        northvel
  D:0044H         SYMBOL        vertvel
  -------         ENDDO         
  -------         DO            
  D:003CH         SYMBOL        templong
  D:0040H         SYMBOL        eastvel
  D:0042H         SYMBOL        northvel
  D:0044H         SYMBOL        vertvel
  -------         ENDDO         
BL51 BANKED LINKER/LOCATER V6.22                                                      01/05/2016  18:47:25  PAGE 42


  -------         ENDDO         
  C:3ED9H         LINE#         624
  C:3EDFH         LINE#         635
  C:3EE5H         LINE#         636
  C:3EE7H         LINE#         638
  C:3EEAH         LINE#         639
  C:3EEDH         LINE#         642
  C:3F09H         LINE#         643
  C:3F09H         LINE#         659
  C:3F14H         LINE#         662
  C:3F1DH         LINE#         663
  C:3F22H         LINE#         664
  C:3F4AH         LINE#         671
  C:3F58H         LINE#         672
  C:3F79H         LINE#         673
  C:3F89H         LINE#         676
  C:3F8EH         LINE#         677
  C:400BH         LINE#         678
  C:4024H         LINE#         679
  C:4035H         LINE#         681
  C:404EH         LINE#         684
  C:4057H         LINE#         685
  C:405CH         LINE#         686
  C:4084H         LINE#         688
  C:4092H         LINE#         689
  C:40B3H         LINE#         690
  C:40C3H         LINE#         693
  C:40C8H         LINE#         694
  C:4145H         LINE#         695
  C:415EH         LINE#         696
  C:416FH         LINE#         698
  C:4188H         LINE#         701
  C:4193H         LINE#         703
  C:419CH         LINE#         704
  C:41A1H         LINE#         705
  C:41C9H         LINE#         707
  C:41E3H         LINE#         710
  C:41F2H         LINE#         713
  C:41F9H         LINE#         715
  C:41F9H         LINE#         716
  C:41FCH         LINE#         718
  C:41FCH         LINE#         720
  C:421DH         LINE#         723
  C:4227H         LINE#         725
  C:4232H         LINE#         728
  C:4241H         LINE#         729
  C:4249H         LINE#         730
  C:4249H         LINE#         732
  C:4258H         LINE#         733
  C:425DH         LINE#         734
  C:4285H         LINE#         750
  C:4290H         LINE#         753
  C:42A6H         LINE#         754
  C:42ABH         LINE#         755
  C:42D3H         LINE#         770
  C:42D3H         LINE#         773
  C:42DAH         LINE#         774
BL51 BANKED LINKER/LOCATER V6.22                                                      01/05/2016  18:47:25  PAGE 43


  C:42DAH         LINE#         775
  C:42DDH         LINE#         777
  C:42DDH         LINE#         781
  C:42E8H         LINE#         784
  C:42F8H         LINE#         785
  C:4378H         LINE#         786
  C:4389H         LINE#         787
  C:438DH         LINE#         789
  C:4398H         LINE#         792
  C:43A8H         LINE#         793
  C:4428H         LINE#         794
  C:4439H         LINE#         795
  C:443DH         LINE#         797
  C:4448H         LINE#         800
  C:4458H         LINE#         801
  C:44D8H         LINE#         802
  C:44E9H         LINE#         803
  C:44F2H         LINE#         806
  C:450DH         LINE#         807
  C:4522H         LINE#         808
  C:452CH         LINE#         809
  C:4534H         LINE#         810
  C:453CH         LINE#         811
  C:4544H         LINE#         813
  C:454BH         LINE#         815
  C:454BH         LINE#         816
  C:454DH         LINE#         818
  C:454DH         LINE#         820
  C:4553H         LINE#         821
  C:4553H         LINE#         822
  C:4553H         LINE#         825
  C:455EH         LINE#         828
  C:455FH         LINE#         831
  C:4568H         LINE#         834
  C:4587H         LINE#         838
  C:45A0H         LINE#         841
  C:45C7H         LINE#         843
  C:4638H         LINE#         844
  C:46A9H         LINE#         845
  C:46A9H         LINE#         846
  C:46A9H         LINE#         849
  C:46B3H         LINE#         850
  C:46D1H         LINE#         854
  C:46DAH         LINE#         855
  C:46E0H         LINE#         856
  C:46EDH         LINE#         857
  C:46FEH         LINE#         858
  C:4708H         LINE#         859
  C:4712H         LINE#         860
  C:471DH         LINE#         862
  C:4723H         LINE#         864
  C:4735H         LINE#         865
  C:473AH         LINE#         866
  C:473CH         LINE#         867
  C:4747H         LINE#         868
  C:474DH         LINE#         869
  C:474DH         LINE#         870
BL51 BANKED LINKER/LOCATER V6.22                                                      01/05/2016  18:47:25  PAGE 44


  C:475DH         LINE#         871
  C:4766H         LINE#         872
  C:476CH         LINE#         874
  C:4773H         LINE#         875
  C:4773H         LINE#         877
  C:4785H         LINE#         878
  C:478AH         LINE#         879
  C:478CH         LINE#         880
  C:4797H         LINE#         881
  C:479DH         LINE#         882
  C:479DH         LINE#         883
  C:47A2H         LINE#         884
  C:47ABH         LINE#         885
  C:47B1H         LINE#         887
  C:47B8H         LINE#         888
  C:47B8H         LINE#         891
  C:47DDH         LINE#         892
  C:47F7H         LINE#         893
  C:47FEH         LINE#         894
  C:4809H         LINE#         896
  C:4811H         LINE#         897
  C:4819H         LINE#         898
  C:4819H         LINE#         901
  C:4845H         LINE#         902
  C:4857H         LINE#         903
  C:486AH         LINE#         906
  C:4879H         LINE#         908
  C:4879H         LINE#         910
  -------         ENDPROC       _PARSE_UBX
  -------         ENDMOD        UBX

  -------         MODULE        CYGFX120
  C:0000H         SYMBOL        _ICE_DUMMY_
  D:009DH         PUBLIC        SPI0CKR
  D:0080H         PUBLIC        P0
  B:00F8H.0       PUBLIC        SPIEN
  D:008FH         PUBLIC        PLL0FLT
  D:00B0H         PUBLIC        P3
  D:00C8H         PUBLIC        P4
  D:00D8H         PUBLIC        P5
  D:00E8H         PUBLIC        P6
  D:00E7H         PUBLIC        EIE2
  D:00F8H         PUBLIC        P7
  B:00B0H.4       PUBLIC        LED3
  D:008EH         PUBLIC        PLL0MUL
  D:0084H         PUBLIC        SFRPAGE
  D:0096H         PUBLIC        SFRPGCN
  B:00E8H.5       PUBLIC        AD0INT
  C:003EH         PUBLIC        _xferSPI
  D:00CCH         PUBLIC        TMR2
  D:00CCH         PUBLIC        TMR3
  D:0089H         PUBLIC        PLL0CN
  C:B04BH         PUBLIC        _Timer3_Init
  D:00C9H         PUBLIC        TMR2CF
  D:00C9H         PUBLIC        TMR3CF
  C:0026H         PUBLIC        SPIO_Init
  B:00F8H.7       PUBLIC        SPIF
BL51 BANKED LINKER/LOCATER V6.22                                                      01/05/2016  18:47:25  PAGE 45


  C:940EH         PUBLIC        _UART_Init
  D:0089H         PUBLIC        TMOD
  D:00BBH         PUBLIC        AMX0SL
  D:00C8H         PUBLIC        TMR2CN
  D:00C8H         PUBLIC        TMR3CN
  D:0097H         PUBLIC        CLKSEL
  D:008AH         PUBLIC        OSCICN
  B:00A8H.4       PUBLIC        ES0
  B:0098H.0       PUBLIC        RI0
  B:0098H.0       PUBLIC        RI1
  B:0098H.1       PUBLIC        TI0
  D:008DH         PUBLIC        TH1
  B:0098H.1       PUBLIC        TI1
  D:008CH         PUBLIC        OSCXCN
  D:008BH         PUBLIC        TL1
  C:AC90H         PUBLIC        SYSCLK_Init
  C:A698H         PUBLIC        T3_ISR
  B:0088H.6       PUBLIC        TR1
  B:00C8H.2       PUBLIC        TR2
  D:00CAH         PUBLIC        RCAP2
  D:00CAH         PUBLIC        RCAP3
  B:00E8H.0       PUBLIC        SW1
  D:0099H         PUBLIC        SBUF0
  C:AC36H         PUBLIC        _XmitUART
  D:0099H         PUBLIC        SBUF1
  D:0098H         PUBLIC        SCON0
  D:0098H         PUBLIC        SCON1
  C:9612H         PUBLIC        MSG0_ISR
  D:0091H         PUBLIC        SSTA0
  D:009AH         PUBLIC        SPI0CFG
  D:008EH         PUBLIC        CKCON
  C:8FA9H         PUBLIC        UBX1_ISR
  D:00B7H         PUBLIC        FLSCL
  D:009BH         PUBLIC        SPI0DAT
  B:00E8H.4       PUBLIC        AD0BUSY
  D:008DH         PUBLIC        PLL0DIV
  -------         PROC          _XMITUART
  D:0056H         SYMBOL        handle
  D:0004H         SYMBOL        numbytes
  -------         DO            
  D:0059H         SYMBOL        SFRPAGE_SAVE
  -------         ENDDO         
  C:AC36H         LINE#         24
  C:AC3CH         LINE#         26
  C:AC3FH         LINE#         29
  C:AC4FH         LINE#         31
  C:AC6DH         LINE#         32
  C:AC7CH         LINE#         33
  C:AC81H         LINE#         34
  C:AC83H         LINE#         35
  C:AC85H         LINE#         36
  C:AC87H         LINE#         37
  C:AC87H         LINE#         38
  C:AC8AH         LINE#         39
  C:AC8CH         LINE#         40
  C:AC8CH         LINE#         41
  C:AC8FH         LINE#         42
BL51 BANKED LINKER/LOCATER V6.22                                                      01/05/2016  18:47:25  PAGE 46


  -------         ENDPROC       _XMITUART
  -------         PROC          _XFERSPI
  D:0007H         SYMBOL        ch
  -------         DO            
  D:0006H         SYMBOL        SFRPAGE_SAVE
  -------         ENDDO         
  C:003EH         LINE#         45
  C:003EH         LINE#         47
  C:0040H         LINE#         48
  C:0043H         LINE#         50
  C:0045H         LINE#         53
  C:0048H         LINE#         55
  C:004AH         LINE#         57
  C:004CH         LINE#         59
  C:004EH         LINE#         61
  C:004EH         LINE#         62
  -------         ENDPROC       _XFERSPI
  -------         PROC          SYSCLK_INIT
  -------         DO            
  D:0004H         SYMBOL        i
  D:0007H         SYMBOL        SFRPAGE_SAVE
  -------         ENDDO         
  C:AC90H         LINE#         74
  C:AC90H         LINE#         75
  C:AC90H         LINE#         107
  C:AC92H         LINE#         109
  C:AC95H         LINE#         110
  C:AC98H         LINE#         112
  C:AC9BH         LINE#         114
  C:ACABH         LINE#         116
  C:ACB0H         LINE#         118
  C:ACB3H         LINE#         119
  C:ACB6H         LINE#         125
  C:ACB9H         LINE#         127
  C:ACBBH         LINE#         132
  C:ACBEH         LINE#         137
  C:ACC1H         LINE#         138
  C:ACC4H         LINE#         139
  C:ACC7H         LINE#         146
  C:ACCAH         LINE#         155
  C:ACD9H         LINE#         156
  C:ACDCH         LINE#         157
  C:ACE1H         LINE#         158
  C:ACE4H         LINE#         161
  C:ACE6H         LINE#         163
  -------         ENDPROC       SYSCLK_INIT
  -------         PROC          _UART_INIT
  D:0042H         SYMBOL        handle
  D:0045H         SYMBOL        baud
  -------         DO            
  D:0049H         SYMBOL        SFRPAGE_SAVE
  -------         ENDDO         
  C:940EH         LINE#         171
  C:941CH         LINE#         172
  C:941CH         LINE#         173
  C:941FH         LINE#         175
  C:942BH         LINE#         176
BL51 BANKED LINKER/LOCATER V6.22                                                      01/05/2016  18:47:25  PAGE 47


  C:942BH         LINE#         178
  C:942EH         LINE#         179
  C:9431H         LINE#         181
  C:944EH         LINE#         182
  C:944EH         LINE#         183
  C:944EH         LINE#         184
  C:9451H         LINE#         185
  C:9453H         LINE#         186
  C:9453H         LINE#         187
  C:9453H         LINE#         188
  C:9453H         LINE#         189
  C:9453H         LINE#         190
  C:9456H         LINE#         191
  C:9456H         LINE#         192
  C:9456H         LINE#         194
  C:9459H         LINE#         195
  C:945CH         LINE#         196
  C:945FH         LINE#         198
  C:9480H         LINE#         199
  C:9486H         LINE#         200
  C:9488H         LINE#         202
  C:948BH         LINE#         203
  C:948FH         LINE#         204
  C:9491H         LINE#         205
  C:9494H         LINE#         206
  C:9494H         LINE#         208
  C:9497H         LINE#         209
  C:94BAH         LINE#         210
  C:94BAH         LINE#         211
  C:94BAH         LINE#         212
  C:94BDH         LINE#         213
  C:94BFH         LINE#         214
  C:94BFH         LINE#         215
  C:94BFH         LINE#         216
  C:94BFH         LINE#         217
  C:94BFH         LINE#         218
  C:94C2H         LINE#         219
  C:94C2H         LINE#         220
  C:94C2H         LINE#         222
  C:94C5H         LINE#         223
  C:94C8H         LINE#         224
  C:94CBH         LINE#         226
  C:94FAH         LINE#         227
  C:951AH         LINE#         228
  C:951DH         LINE#         229
  C:9550H         LINE#         230
  C:9579H         LINE#         231
  C:957CH         LINE#         232
  C:957FH         LINE#         233
  C:95C0H         LINE#         234
  C:95DAH         LINE#         235
  C:95DDH         LINE#         236
  C:95DFH         LINE#         237
  C:95F9H         LINE#         238
  C:95FCH         LINE#         239
  C:95FFH         LINE#         240
  C:95FFH         LINE#         242
BL51 BANKED LINKER/LOCATER V6.22                                                      01/05/2016  18:47:25  PAGE 48


  C:9602H         LINE#         243
  C:9604H         LINE#         245
  C:9607H         LINE#         246
  C:960BH         LINE#         248
  C:960EH         LINE#         249
  C:960EH         LINE#         250
  C:960EH         LINE#         252
  C:9611H         LINE#         254
  -------         ENDPROC       _UART_INIT
  -------         PROC          SPIO_INIT
  -------         DO            
  D:0007H         SYMBOL        SFRPAGE_SAVE
  -------         ENDDO         
  C:0026H         LINE#         257
  C:0026H         LINE#         258
  C:0028H         LINE#         260
  C:002BH         LINE#         263
  C:002EH         LINE#         264
  C:0031H         LINE#         265
  C:0033H         LINE#         266
  C:0035H         LINE#         268
  C:0037H         LINE#         269
  -------         ENDPROC       SPIO_INIT
  -------         PROC          _TIMER3_INIT
  D:0006H         SYMBOL        counts
  -------         DO            
  D:0005H         SYMBOL        SFRPAGE_SAVE
  -------         ENDDO         
  C:B04BH         LINE#         278
  C:B04BH         LINE#         279
  C:B04BH         LINE#         280
  C:B04DH         LINE#         282
  C:B050H         LINE#         284
  C:B053H         LINE#         285
  C:B055H         LINE#         287
  C:B066H         LINE#         289
  C:B06CH         LINE#         290
  C:B06FH         LINE#         291
  C:B072H         LINE#         293
  C:B074H         LINE#         294
  -------         ENDPROC       _TIMER3_INIT
  -------         PROC          MSG0_ISR
  -------         DO            
  D:0027H         SYMBOL        tempch
  D:0008H         SYMBOL        msg_state
  D:000AH         SYMBOL        msg_length
  D:000CH         SYMBOL        chk
  D:000DH         SYMBOL        index
  D:000FH         SYMBOL        msgbuff
  -------         ENDDO         
  C:9612H         LINE#         301
  C:962FH         LINE#         35
  C:9637H         LINE#         36
  C:963AH         LINE#         37
  C:963DH         LINE#         39
  C:965DH         LINE#         40
  C:965DH         LINE#         41
BL51 BANKED LINKER/LOCATER V6.22                                                      01/05/2016  18:47:25  PAGE 49


  C:9663H         LINE#         42
  C:966CH         LINE#         43
  C:968BH         LINE#         44
  C:96A0H         LINE#         45
  C:96A4H         LINE#         46
  C:96AAH         LINE#         47
  C:96AAH         LINE#         48
  C:96ADH         LINE#         50
  C:96ADH         LINE#         51
  C:96C7H         LINE#         52
  C:96CBH         LINE#         53
  C:96D6H         LINE#         54
  C:96DBH         LINE#         55
  C:96DEH         LINE#         57
  C:96DEH         LINE#         58
  C:96F8H         LINE#         59
  C:96FBH         LINE#         60
  C:9701H         LINE#         62
  C:9712H         LINE#         63
  C:9717H         LINE#         64
  C:9726H         LINE#         66
  C:9732H         LINE#         69
  C:9732H         LINE#         70
  C:9738H         LINE#         71
  C:973EH         LINE#         72
  C:9741H         LINE#         73
  C:9741H         LINE#         74
  C:9743H         LINE#         76
  C:9743H         LINE#         79
  C:9745H         LINE#         81
  C:975FH         LINE#         82
  C:9770H         LINE#         83
  C:9776H         LINE#         84
  C:9776H         LINE#         86
  C:9776H         LINE#         87
  C:9776H         LINE#         88
  C:9776H         LINE#         90
  C:977EH         LINE#         93
  C:9780H         LINE#         95
  C:9785H         LINE#         96
  C:9789H         LINE#         97
  C:978BH         LINE#         98
  C:9796H         LINE#         99
  C:97A2H         LINE#         100
  C:97ACH         LINE#         101
  C:97ACH         LINE#         102
  C:97ACH         LINE#         103
  C:97ACH         LINE#         105
  C:97B1H         LINE#         106
  C:97BBH         LINE#         109
  C:97BDH         LINE#         111
  C:97C8H         LINE#         112
  C:97D2H         LINE#         113
  C:97DCH         LINE#         114
  C:97DEH         LINE#         115
  C:97DEH         LINE#         118
  C:97E0H         LINE#         120
BL51 BANKED LINKER/LOCATER V6.22                                                      01/05/2016  18:47:25  PAGE 50


  C:97ECH         LINE#         121
  C:97ECH         LINE#         122
  C:97EFH         LINE#         123
  C:97EFH         LINE#         306
  -------         ENDPROC       MSG0_ISR
  -------         PROC          UBX1_ISR
  -------         DO            
  X:1030H         SYMBOL        rxnextchar
  X:1032H         SYMBOL        state
  D:0012H         SYMBOL        ubxbuff
  D:0015H         SYMBOL        len
  D:0017H         SYMBOL        cka
  D:0018H         SYMBOL        ckb
  D:0028H         SYMBOL        tempch
  -------         DO            
  D:0029H         SYMBOL        temp
  -------         ENDDO         
  -------         ENDDO         
  C:8FA9H         LINE#         409
  C:8FC2H         LINE#         429
  C:8FCAH         LINE#         430
  C:8FCDH         LINE#         431
  C:8FF3H         LINE#         432
  C:8FF3H         LINE#         433
  C:8FFCH         LINE#         434
  C:9001H         LINE#         435
  C:9004H         LINE#         436
  C:9004H         LINE#         437
  C:900CH         LINE#         438
  C:9012H         LINE#         439
  C:9014H         LINE#         440
  C:9017H         LINE#         441
  C:9017H         LINE#         442
  C:901DH         LINE#         443
  C:9024H         LINE#         444
  C:903FH         LINE#         445
  C:9054H         LINE#         446
  C:905AH         LINE#         447
  C:905EH         LINE#         448
  C:9064H         LINE#         449
  C:9067H         LINE#         450
  C:9067H         LINE#         451
  C:9081H         LINE#         452
  C:9087H         LINE#         453
  C:908BH         LINE#         454
  C:9091H         LINE#         455
  C:9094H         LINE#         456
  C:9094H         LINE#         457
  C:909AH         LINE#         458
  C:90A0H         LINE#         459
  C:90A4H         LINE#         460
  C:90AAH         LINE#         461
  C:90ADH         LINE#         462
  C:90ADH         LINE#         463
  C:90BAH         LINE#         464
  C:90C0H         LINE#         465
  C:90C4H         LINE#         466
BL51 BANKED LINKER/LOCATER V6.22                                                      01/05/2016  18:47:25  PAGE 51


  C:90CDH         LINE#         467
  C:90CFH         LINE#         469
  C:90D2H         LINE#         470
  C:90D4H         LINE#         471
  C:90D4H         LINE#         472
  C:90EEH         LINE#         473
  C:90F4H         LINE#         474
  C:90F8H         LINE#         475
  C:910DH         LINE#         476
  C:9113H         LINE#         477
  C:9115H         LINE#         478
  C:9115H         LINE#         479
  C:911DH         LINE#         480
  C:9122H         LINE#         482
  C:9124H         LINE#         483
  C:9126H         LINE#         484
  C:9126H         LINE#         486
  C:9139H         LINE#         488
  C:9146H         LINE#         489
  C:914CH         LINE#         490
  C:9151H         LINE#         491
  C:9151H         LINE#         492
  C:9151H         LINE#         493
  C:9154H         LINE#         494
  C:9154H         LINE#         496
  C:9159H         LINE#         497
  C:9163H         LINE#         499
  C:9177H         LINE#         500
  C:9177H         LINE#         501
  C:9177H         LINE#         502
  C:9185H         LINE#         505
  C:9185H         LINE#         506
  C:9185H         LINE#         507
  C:9196H         LINE#         508
  C:9199H         LINE#         509
  C:9199H         LINE#         510
  C:9199H         LINE#         511
  C:91A4H         LINE#         512
  C:91AEH         LINE#         513
  C:91B8H         LINE#         514
  C:91BAH         LINE#         515
  C:91BAH         LINE#         516
  C:91C6H         LINE#         517
  C:91C6H         LINE#         518
  C:91C9H         LINE#         519
  C:91C9H         LINE#         520
  -------         ENDPROC       UBX1_ISR
  -------         PROC          T3_ISR
  -------         DO            
  D:0006H         SYMBOL        i
  -------         ENDDO         
  C:A698H         LINE#         527
  C:A6ABH         LINE#         530
  C:A6AEH         LINE#         533
  C:A6B1H         LINE#         536
  C:A6BBH         LINE#         539
  C:A6CFH         LINE#         540
BL51 BANKED LINKER/LOCATER V6.22                                                      01/05/2016  18:47:25  PAGE 52


  C:A6D9H         LINE#         541
  C:A6E3H         LINE#         542
  C:A6E3H         LINE#         545
  C:A6E6H         LINE#         546
  C:A70BH         LINE#         559
  C:A70EH         LINE#         560
  C:A727H         LINE#         562
  C:A72AH         LINE#         564
  C:A72DH         LINE#         567
  C:A72FH         LINE#         570
  C:A731H         LINE#         573
  -------         ENDPROC       T3_ISR
  -------         ENDMOD        CYGFX120

  -------         MODULE        CYGNALFLASH
  C:0000H         SYMBOL        _ICE_DUMMY_
  D:0080H         PUBLIC        P0
  C:ACE7H         PUBLIC        _ReadScratchpad
  D:00B0H         PUBLIC        P3
  D:00C8H         PUBLIC        P4
  D:00D8H         PUBLIC        P5
  B:00A8H.7       PUBLIC        EA
  D:00E8H         PUBLIC        P6
  D:00F8H         PUBLIC        P7
  D:008FH         PUBLIC        PSCTL
  D:0084H         PUBLIC        SFRPAGE
  C:AA96H         PUBLIC        _WriteScratchpad
  C:A212H         PUBLIC        InitSUScratchpad
  D:00B7H         PUBLIC        FLSCL
  C:B01DH         PUBLIC        EraseScratchpad
  -------         PROC          INITSUSCRATCHPAD
  -------         DO            
  X:0FBCH         SYMBOL        reprogram
  -------         ENDDO         
  C:A212H         LINE#         164
  C:A212H         LINE#         165
  C:A217H         LINE#         167
  C:A220H         LINE#         169
  C:A236H         LINE#         171
  C:A240H         LINE#         172
  C:A249H         LINE#         173
  C:A24FH         LINE#         174
  C:A24FH         LINE#         176
  C:A256H         LINE#         178
  C:A25FH         LINE#         179
  C:A264H         LINE#         181
  C:A267H         LINE#         183
  C:A26DH         LINE#         184
  C:A26DH         LINE#         186
  C:A275H         LINE#         188
  C:A278H         LINE#         189
  C:A27CH         LINE#         190
  C:A27CH         LINE#         193
  C:A292H         LINE#         194
  C:A296H         LINE#         195
  C:A29CH         LINE#         196
  C:A29CH         LINE#         197
BL51 BANKED LINKER/LOCATER V6.22                                                      01/05/2016  18:47:25  PAGE 53


  C:A2ABH         LINE#         198
  C:A2AFH         LINE#         199
  C:A2B5H         LINE#         200
  C:A2B5H         LINE#         203
  C:A2C5H         LINE#         204
  C:A2C7H         LINE#         205
  C:A2CCH         LINE#         206
  C:A2CCH         LINE#         207
  C:A2DCH         LINE#         208
  C:A2DEH         LINE#         209
  C:A2E3H         LINE#         210
  C:A2E3H         LINE#         211
  C:A2F3H         LINE#         212
  C:A2F5H         LINE#         213
  C:A2FAH         LINE#         214
  C:A2FAH         LINE#         217
  C:A301H         LINE#         218
  C:A303H         LINE#         219
  C:A308H         LINE#         220
  C:A308H         LINE#         222
  C:A314H         LINE#         223
  C:A31BH         LINE#         224
  C:A320H         LINE#         225
  C:A320H         LINE#         227
  C:A326H         LINE#         229
  C:A329H         LINE#         230
  C:A336H         LINE#         231
  C:A336H         LINE#         239
  -------         ENDPROC       INITSUSCRATCHPAD
  -------         PROC          ERASESCRATCHPAD
  -------         DO            
  D:0007H         SYMBOL        SFRPAGE_SAVE
  I:001EH         SYMBOL        pwrite
  D:0006H         SYMBOL        EA_save
  -------         ENDDO         
  C:B01DH         LINE#         243
  C:B01DH         LINE#         244
  C:B01FH         LINE#         248
  C:B022H         LINE#         251
  C:B027H         LINE#         253
  C:B02BH         LINE#         254
  C:B02DH         LINE#         256
  C:B030H         LINE#         258
  C:B033H         LINE#         262
  C:B03EH         LINE#         264
  C:B040H         LINE#         266
  C:B043H         LINE#         268
  C:B048H         LINE#         270
  C:B04AH         LINE#         271
  -------         ENDPROC       ERASESCRATCHPAD
  -------         PROC          _WRITESCRATCHPAD
  D:0045H         SYMBOL        buf
  D:0048H         SYMBOL        buflen
  -------         DO            
  D:004AH         SYMBOL        SFRPAGE_SAVE
  I:001EH         SYMBOL        pwrite
  D:0007H         SYMBOL        EA_save
BL51 BANKED LINKER/LOCATER V6.22                                                      01/05/2016  18:47:25  PAGE 54


  D:004BH         SYMBOL        i
  -------         ENDDO         
  C:AA96H         LINE#         274
  C:AAA0H         LINE#         275
  C:AAA3H         LINE#         280
  C:AAA6H         LINE#         283
  C:AAABH         LINE#         285
  C:AAAFH         LINE#         286
  C:AAB1H         LINE#         288
  C:AAB4H         LINE#         290
  C:AAB7H         LINE#         291
  C:AACDH         LINE#         292
  C:AAF6H         LINE#         294
  C:AAF9H         LINE#         296
  C:AAFCH         LINE#         298
  C:AB01H         LINE#         300
  C:AB04H         LINE#         301
  -------         ENDPROC       _WRITESCRATCHPAD
  -------         PROC          _READSCRATCHPAD
  D:0045H         SYMBOL        buf
  -------         DO            
  D:0048H         SYMBOL        SFRPAGE_SAVE
  D:0049H         SYMBOL        pread
  D:004BH         SYMBOL        EA_save
  D:0006H         SYMBOL        i
  -------         ENDDO         
  C:ACE7H         LINE#         304
  C:ACEDH         LINE#         305
  C:ACF0H         LINE#         311
  C:ACF5H         LINE#         313
  C:ACF7H         LINE#         315
  C:ACFCH         LINE#         316
  C:ACFEH         LINE#         318
  C:AD01H         LINE#         320
  C:AD04H         LINE#         321
  C:AD2EH         LINE#         323
  C:AD31H         LINE#         325
  C:AD37H         LINE#         327
  C:AD3AH         LINE#         328
  -------         ENDPROC       _READSCRATCHPAD
  -------         ENDMOD        CYGNALFLASH

  -------         MODULE        DATAFLASH
  C:0000H         SYMBOL        _ICE_DUMMY_
  D:0080H         PUBLIC        P0
  D:00B0H         PUBLIC        P3
  D:00C8H         PUBLIC        P4
  D:00D8H         PUBLIC        P5
  D:00E8H         PUBLIC        P6
  B:00B0H.6       PUBLIC        LED1
  D:00F8H         PUBLIC        P7
  C:A880H         PUBLIC        _DataFlash_Page_Write_Erase
  C:AE21H         PUBLIC        _DataFlash_Erase_Block
  C:AB05H         PUBLIC        _DataFlash_Erase_Range
  B:00F8H.0       PUBLIC        DF_WP
  C:AE6AH         PUBLIC        _DataFlash_Erase_Page
  C:A7E7H         PUBLIC        _DataFlash_Page_Read
BL51 BANKED LINKER/LOCATER V6.22                                                      01/05/2016  18:47:25  PAGE 55


  B:00F8H.1       PUBLIC        DF_CS1
  C:B0E7H         PUBLIC        DataFlash_Read_Status
  C:A442H         PUBLIC        _DataFlash_Init
  B:00F8H.2       PUBLIC        DF_RST
  -------         PROC          _DATAFLASH_PAGE_WRITE_ERASE
  D:004CH         SYMBOL        buffnum
  D:004EH         SYMBOL        bufsize
  D:0050H         SYMBOL        buffer
  D:0053H         SYMBOL        pagenum
  -------         DO            
  D:0007H         SYMBOL        status
  D:0055H         SYMBOL        i
  -------         DO            
  D:0057H         SYMBOL        q
  -------         ENDDO         
  -------         ENDDO         
  C:A880H         LINE#         20
  C:A88EH         LINE#         25
  C:A88EH         LINE#         26
  C:A891H         LINE#         27
  C:A895H         LINE#         30
  C:A897H         LINE#         34
  C:A8AAH         LINE#         36
  C:A8B2H         LINE#         37
  C:A8B6H         LINE#         39
  C:A8BBH         LINE#         42
  C:A8CDH         LINE#         45
  C:A8D8H         LINE#         48
  C:A8DDH         LINE#         51
  C:A910H         LINE#         57
  C:A912H         LINE#         58
  -------         ENDPROC       _DATAFLASH_PAGE_WRITE_ERASE
  -------         PROC          DATAFLASH_READ_STATUS
  -------         DO            
  D:0007H         SYMBOL        dat
  -------         DO            
  D:0059H         SYMBOL        q
  -------         ENDDO         
  -------         ENDDO         
  C:B0E7H         LINE#         163
  C:B0E7H         LINE#         164
  C:B0E7H         LINE#         167
  C:B0E9H         LINE#         168
  C:B0FCH         LINE#         171
  C:B101H         LINE#         173
  C:B106H         LINE#         175
  C:B108H         LINE#         177
  C:B108H         LINE#         178
  -------         ENDPROC       DATAFLASH_READ_STATUS
  -------         PROC          _DATAFLASH_PAGE_READ
  D:0049H         SYMBOL        bufsize
  D:004BH         SYMBOL        buffer
  D:004EH         SYMBOL        pagenum
  -------         DO            
  D:0007H         SYMBOL        status
  D:0050H         SYMBOL        i
  -------         DO            
BL51 BANKED LINKER/LOCATER V6.22                                                      01/05/2016  18:47:25  PAGE 56


  D:0052H         SYMBOL        q
  -------         ENDDO         
  -------         ENDDO         
  C:A7E7H         LINE#         181
  C:A7F1H         LINE#         187
  C:A7F1H         LINE#         188
  C:A7F4H         LINE#         189
  C:A7F8H         LINE#         192
  C:A7FAH         LINE#         193
  C:A80DH         LINE#         196
  C:A812H         LINE#         199
  C:A824H         LINE#         202
  C:A82FH         LINE#         205
  C:A834H         LINE#         208
  C:A848H         LINE#         211
  C:A87DH         LINE#         214
  C:A87FH         LINE#         215
  -------         ENDPROC       _DATAFLASH_PAGE_READ
  -------         PROC          _DATAFLASH_ERASE_BLOCK
  D:0047H         SYMBOL        pagenum
  -------         DO            
  D:0007H         SYMBOL        status
  -------         DO            
  D:0049H         SYMBOL        q
  -------         ENDDO         
  -------         ENDDO         
  C:AE21H         LINE#         261
  C:AE25H         LINE#         262
  C:AE25H         LINE#         266
  C:AE25H         LINE#         267
  C:AE28H         LINE#         268
  C:AE2CH         LINE#         270
  C:AE2EH         LINE#         274
  C:AE41H         LINE#         277
  C:AE46H         LINE#         280
  C:AE57H         LINE#         283
  C:AE62H         LINE#         286
  C:AE67H         LINE#         291
  C:AE69H         LINE#         292
  -------         ENDPROC       _DATAFLASH_ERASE_BLOCK
  -------         PROC          _DATAFLASH_ERASE_PAGE
  D:0049H         SYMBOL        pagenum
  -------         DO            
  D:0007H         SYMBOL        status
  -------         DO            
  D:004BH         SYMBOL        q
  -------         ENDDO         
  -------         ENDDO         
  C:AE6AH         LINE#         295
  C:AE6EH         LINE#         296
  C:AE6EH         LINE#         300
  C:AE6EH         LINE#         301
  C:AE71H         LINE#         302
  C:AE75H         LINE#         304
  C:AE77H         LINE#         308
  C:AE8AH         LINE#         311
  C:AE8FH         LINE#         314
BL51 BANKED LINKER/LOCATER V6.22                                                      01/05/2016  18:47:25  PAGE 57


  C:AEA0H         LINE#         317
  C:AEABH         LINE#         320
  C:AEB0H         LINE#         325
  C:AEB2H         LINE#         326
  -------         ENDPROC       _DATAFLASH_ERASE_PAGE
  -------         PROC          _DATAFLASH_ERASE_RANGE
  D:0006H         SYMBOL        firstpage
  D:0042H         SYMBOL        lastpage
  D:0044H         SYMBOL        showprogress
  -------         DO            
  D:0045H         SYMBOL        segment
  -------         ENDDO         
  C:AB05H         LINE#         329
  C:AB0BH         LINE#         332
  C:AB0FH         LINE#         334
  C:AB11H         LINE#         339
  C:AB11H         LINE#         341
  C:AB20H         LINE#         344
  C:AB3AH         LINE#         345
  C:AB3AH         LINE#         348
  C:AB3EH         LINE#         357
  C:AB46H         LINE#         359
  C:AB46H         LINE#         362
  C:AB4DH         LINE#         363
  C:AB58H         LINE#         364
  C:AB5AH         LINE#         366
  C:AB61H         LINE#         367
  C:AB6BH         LINE#         370
  C:AB6FH         LINE#         371
  C:AB71H         LINE#         373
  -------         ENDPROC       _DATAFLASH_ERASE_RANGE
  -------         PROC          _DATAFLASH_INIT
  D:0031H         SYMBOL        pages
  D:0034H         SYMBOL        pagebytes
  -------         DO            
  D:0007H         SYMBOL        status
  -------         DO            
  D:0037H         SYMBOL        q
  D:0037H         SYMBOL        q
  -------         ENDDO         
  -------         DO            
  D:0037H         SYMBOL        q
  -------         ENDDO         
  -------         ENDDO         
  C:A442H         LINE#         381
  C:A448H         LINE#         387
  C:A44AH         LINE#         389
  C:A44CH         LINE#         391
  C:A44EH         LINE#         392
  C:A461H         LINE#         393
  C:A463H         LINE#         394
  C:A476H         LINE#         397
  C:A479H         LINE#         399
  C:A498H         LINE#         400
  C:A498H         LINE#         401
  C:A4A0H         LINE#         402
  C:A4A0H         LINE#         403
BL51 BANKED LINKER/LOCATER V6.22                                                      01/05/2016  18:47:25  PAGE 58


  C:A4A2H         LINE#         404
  C:A4A2H         LINE#         405
  C:A4AAH         LINE#         406
  C:A4AAH         LINE#         407
  C:A4ACH         LINE#         408
  C:A4ACH         LINE#         409
  C:A4B4H         LINE#         410
  C:A4B4H         LINE#         411
  C:A4B6H         LINE#         412
  C:A4B6H         LINE#         413
  C:A4C4H         LINE#         414
  C:A4CFH         LINE#         415
  C:A4D1H         LINE#         416
  C:A4D1H         LINE#         417
  C:A4DFH         LINE#         418
  C:A4EAH         LINE#         419
  C:A4ECH         LINE#         420
  C:A4ECH         LINE#         421
  C:A4FAH         LINE#         422
  C:A505H         LINE#         423
  C:A507H         LINE#         424
  C:A507H         LINE#         425
  C:A515H         LINE#         426
  C:A523H         LINE#         427
  C:A523H         LINE#         428
  C:A523H         LINE#         429
  -------         ENDPROC       _DATAFLASH_INIT
  -------         ENDMOD        DATAFLASH

  -------         MODULE        FACTORYTEST
  C:0000H         SYMBOL        _ICE_DUMMY_
  X:1018H         PUBLIC        mintemp
  D:0080H         PUBLIC        P0
  X:101AH         PUBLIC        maxtemp
  D:00B0H         PUBLIC        P3
  D:00C8H         PUBLIC        P4
  D:00D8H         PUBLIC        P5
  B:00B0H.3       PUBLIC        LED0
  D:00E8H         PUBLIC        P6
  B:00B0H.6       PUBLIC        LED1
  D:00F8H         PUBLIC        P7
  B:00B0H.5       PUBLIC        LED2
  B:00B0H.4       PUBLIC        LED3
  D:0084H         PUBLIC        SFRPAGE
  C:16A3H         PUBLIC        Calibrate
  C:7A8FH         PUBLIC        ZeroOutXY
  D:00FCH         PUBLIC        PCA0CPH0
  D:00FEH         PUBLIC        PCA0CPH1
  D:00FBH         PUBLIC        PCA0CPL0
  D:00FDH         PUBLIC        PCA0CPL1
  B:00C0H.3       PUBLIC        SI
  B:00F8H.3       PUBLIC        ENSMBPU
  B:00F8H.7       PUBLIC        EN5V
  C:5F4EH         PUBLIC        ADTest
  D:0088H         PUBLIC        CPT1CN
  C:9BD1H         PUBLIC        Stabilize
  C:7E93H         PUBLIC        _DataflashTest
BL51 BANKED LINKER/LOCATER V6.22                                                      01/05/2016  18:47:25  PAGE 59


  C:6DC4H         PUBLIC        SMB_Master_Test
  C:51F9H         PUBLIC        InputTest
  C:888AH         PUBLIC        OutputTest
  B:0080H.6       PUBLIC        SMBSDA
  B:0088H.6       PUBLIC        CP0OUT
  X:101CH         PUBLIC        minx
  B:0088H.6       PUBLIC        CP1OUT
  X:101EH         PUBLIC        miny
  X:1020H         PUBLIC        minz
  X:1022H         PUBLIC        maxx
  X:1024H         PUBLIC        maxy
  X:1026H         PUBLIC        maxz
  C:7A7FH         SYMBOL        _?ix1000
  C:91E0H         PUBLIC        SMB_Slave_Test
  C:7A87H         SYMBOL        _?ix1001
  B:0080H.7       PUBLIC        SMBSCL
  C:58EDH         PUBLIC        DigIOTest
  B:00E8H.0       PUBLIC        SW1
  D:00C3H         PUBLIC        SMB0ADR
  B:00C0H.6       PUBLIC        ENSMB
  C:7220H         PUBLIC        AutoOnTest
  -------         PROC          CALIBRATE
  -------         DO            
  D:0042H         SYMBOL        SFRPAGE_SAVE
  D:0043H         SYMBOL        temp
  X:0F6CH         SYMBOL        textline
  -------         DO            
  X:0F2CH         SYMBOL        zzz
  X:0F30H         SYMBOL        zzz
  -------         ENDDO         
  -------         DO            
  X:0F30H         SYMBOL        zzz
  -------         ENDDO         
  -------         DO            
  X:0F34H         SYMBOL        zzz
  -------         ENDDO         
  -------         DO            
  X:0F38H         SYMBOL        zzz
  X:0F3CH         SYMBOL        zzz
  X:0F40H         SYMBOL        zzz
  X:0F44H         SYMBOL        zzz
  -------         ENDDO         
  -------         DO            
  X:0F3CH         SYMBOL        zzz
  X:0F40H         SYMBOL        zzz
  X:0F44H         SYMBOL        zzz
  -------         ENDDO         
  -------         DO            
  X:0F40H         SYMBOL        zzz
  X:0F44H         SYMBOL        zzz
  -------         ENDDO         
  -------         DO            
  X:0F44H         SYMBOL        zzz
  -------         ENDDO         
  -------         DO            
  X:0F48H         SYMBOL        zzz
  X:0F4CH         SYMBOL        zzz
BL51 BANKED LINKER/LOCATER V6.22                                                      01/05/2016  18:47:25  PAGE 60


  -------         ENDDO         
  -------         DO            
  X:0F4CH         SYMBOL        zzz
  -------         ENDDO         
  -------         DO            
  X:0F50H         SYMBOL        zzz
  -------         ENDDO         
  -------         DO            
  X:0F54H         SYMBOL        zzz
  X:0F58H         SYMBOL        zzz
  X:0F5CH         SYMBOL        zzz
  X:0F60H         SYMBOL        zzz
  X:0F64H         SYMBOL        zzz
  X:0F68H         SYMBOL        zzz
  -------         ENDDO         
  -------         DO            
  X:0F58H         SYMBOL        zzz
  X:0F5CH         SYMBOL        zzz
  X:0F60H         SYMBOL        zzz
  X:0F64H         SYMBOL        zzz
  X:0F68H         SYMBOL        zzz
  -------         ENDDO         
  -------         DO            
  X:0F5CH         SYMBOL        zzz
  X:0F60H         SYMBOL        zzz
  X:0F64H         SYMBOL        zzz
  X:0F68H         SYMBOL        zzz
  -------         ENDDO         
  -------         DO            
  X:0F60H         SYMBOL        zzz
  X:0F64H         SYMBOL        zzz
  X:0F68H         SYMBOL        zzz
  -------         ENDDO         
  -------         DO            
  X:0F64H         SYMBOL        zzz
  X:0F68H         SYMBOL        zzz
  -------         ENDDO         
  -------         DO            
  X:0F68H         SYMBOL        zzz
  -------         ENDDO         
  -------         ENDDO         
  C:16A3H         LINE#         43
  C:16A3H         LINE#         44
  C:16A6H         LINE#         48
  C:16ACH         LINE#         49
  C:16AFH         LINE#         52
  C:16B7H         LINE#         55
  C:16BCH         LINE#         56
  C:16C4H         LINE#         57
  C:16CDH         LINE#         58
  C:16D2H         LINE#         60
  C:16D5H         LINE#         61
  C:16DFH         LINE#         62
  C:16E8H         LINE#         63
  C:16FAH         LINE#         64
  C:1704H         LINE#         65
  C:170BH         LINE#         66
BL51 BANKED LINKER/LOCATER V6.22                                                      01/05/2016  18:47:25  PAGE 61


  C:170EH         LINE#         67
  C:1715H         LINE#         68
  C:1718H         LINE#         69
  C:171EH         LINE#         70
  C:1720H         LINE#         71
  C:1729H         LINE#         72
  C:1732H         LINE#         73
  C:1736H         LINE#         74
  C:173AH         LINE#         75
  C:173EH         LINE#         77
  C:174FH         LINE#         79
  C:1756H         LINE#         81
  C:175EH         LINE#         83
  C:1790H         LINE#         84
  C:180CH         LINE#         85
  C:183EH         LINE#         87
  C:1841H         LINE#         89
  C:1847H         LINE#         90
  C:1868H         LINE#         91
  C:1889H         LINE#         92
  C:18AAH         LINE#         93
  C:18ACH         LINE#         95
  C:18AFH         LINE#         97
  C:18B8H         LINE#         98
  C:18BCH         LINE#         101
  C:1938H         LINE#         102
  C:196AH         LINE#         104
  C:196DH         LINE#         105
  C:198EH         LINE#         106
  C:198EH         LINE#         108
  C:1996H         LINE#         111
  C:1A12H         LINE#         112
  C:1A44H         LINE#         114
  C:1A47H         LINE#         115
  C:1A68H         LINE#         117
  C:1A6EH         LINE#         118
  C:1A8FH         LINE#         120
  C:1A91H         LINE#         123
  C:1B0DH         LINE#         124
  C:1B3FH         LINE#         126
  C:1B42H         LINE#         127
  C:1B63H         LINE#         129
  C:1B65H         LINE#         132
  C:1BE1H         LINE#         133
  C:1C13H         LINE#         135
  C:1C16H         LINE#         136
  C:1C37H         LINE#         138
  C:1C39H         LINE#         141
  C:1CB5H         LINE#         142
  C:1CE7H         LINE#         144
  C:1CEAH         LINE#         145
  C:1D0BH         LINE#         147
  C:1D0DH         LINE#         149
  C:1D25H         LINE#         150
  C:1DA1H         LINE#         151
  C:1DD3H         LINE#         152
  C:1DDDH         LINE#         153
BL51 BANKED LINKER/LOCATER V6.22                                                      01/05/2016  18:47:25  PAGE 62


  C:1DECH         LINE#         154
  C:1DF6H         LINE#         155
  C:1DF6H         LINE#         156
  C:1E0EH         LINE#         157
  C:1E8AH         LINE#         158
  C:1EBCH         LINE#         159
  C:1EC6H         LINE#         160
  C:1ED5H         LINE#         161
  C:1EDFH         LINE#         162
  C:1EDFH         LINE#         164
  C:1EE8H         LINE#         165
  C:1F00H         LINE#         166
  C:1F7CH         LINE#         167
  C:1FAEH         LINE#         168
  C:1FB8H         LINE#         169
  C:1FC7H         LINE#         170
  C:1FD1H         LINE#         171
  C:1FD1H         LINE#         172
  C:1FD1H         LINE#         174
  C:204DH         LINE#         175
  C:207FH         LINE#         178
  C:20AFH         LINE#         179
  C:212BH         LINE#         180
  C:215DH         LINE#         181
  C:21E4H         LINE#         182
  C:2216H         LINE#         183
  C:229DH         LINE#         184
  C:22CFH         LINE#         185
  C:2356H         LINE#         186
  C:2388H         LINE#         187
  C:2404H         LINE#         189
  C:2407H         LINE#         191
  C:2414H         LINE#         193
  C:2446H         LINE#         194
  C:24C2H         LINE#         196
  C:24CAH         LINE#         198
  C:24CFH         LINE#         201
  C:24D2H         LINE#         203
  C:24D5H         LINE#         204
  -------         ENDPROC       CALIBRATE
  -------         PROC          STABILIZE
  -------         DO            
  D:0006H         SYMBOL        counter
  -------         ENDDO         
  C:9BD1H         LINE#         206
  C:9BD1H         LINE#         209
  C:9BD1H         LINE#         211
  C:9BEFH         LINE#         212
  C:9C02H         LINE#         214
  C:9C04H         LINE#         216
  C:9C0AH         LINE#         218
  C:9C36H         LINE#         219
  C:9C62H         LINE#         220
  C:9C8EH         LINE#         222
  C:9CBAH         LINE#         223
  C:9CE6H         LINE#         224
  C:9D12H         LINE#         226
BL51 BANKED LINKER/LOCATER V6.22                                                      01/05/2016  18:47:25  PAGE 63


  C:9D17H         LINE#         227
  C:9D25H         LINE#         228
  C:9DA3H         LINE#         230
  -------         ENDPROC       STABILIZE
  -------         PROC          ZEROOUTXY
  -------         DO            
  D:0045H         SYMBOL        xdone
  D:0046H         SYMBOL        ydone
  X:0FC8H         SYMBOL        textline
  -------         DO            
  X:0FBCH         SYMBOL        zzz
  X:0FC0H         SYMBOL        zzz
  X:0FC4H         SYMBOL        zzz
  -------         ENDDO         
  -------         DO            
  X:0FC0H         SYMBOL        zzz
  X:0FC4H         SYMBOL        zzz
  -------         ENDDO         
  -------         DO            
  X:0FC4H         SYMBOL        zzz
  -------         ENDDO         
  -------         ENDDO         
  C:7A8FH         LINE#         232
  C:7A8FH         LINE#         234
  C:7A92H         LINE#         235
  C:7A94H         LINE#         238
  C:7A96H         LINE#         241
  C:7A9EH         LINE#         242
  C:7AA6H         LINE#         243
  C:7AAEH         LINE#         244
  C:7AB6H         LINE#         246
  C:7B32H         LINE#         247
  C:7B64H         LINE#         249
  C:7B64H         LINE#         251
  C:7B6AH         LINE#         252
  C:7B6FH         LINE#         255
  C:7B75H         LINE#         258
  C:7B88H         LINE#         259
  C:7B9BH         LINE#         260
  C:7BA0H         LINE#         268
  C:7BEFH         LINE#         269
  C:7BF3H         LINE#         270
  C:7BFCH         LINE#         271
  C:7C06H         LINE#         273
  C:7C08H         LINE#         276
  C:7C11H         LINE#         278
  C:7C1CH         LINE#         280
  C:7C21H         LINE#         283
  C:7C2BH         LINE#         286
  C:7C33H         LINE#         287
  C:7C3BH         LINE#         288
  C:7C3BH         LINE#         290
  C:7C8AH         LINE#         291
  C:7C8EH         LINE#         292
  C:7C97H         LINE#         293
  C:7CA1H         LINE#         295
  C:7CA3H         LINE#         298
BL51 BANKED LINKER/LOCATER V6.22                                                      01/05/2016  18:47:25  PAGE 64


  C:7CACH         LINE#         300
  C:7CB7H         LINE#         302
  C:7CBCH         LINE#         305
  C:7CC6H         LINE#         308
  C:7CCEH         LINE#         309
  C:7CD6H         LINE#         310
  C:7CD6H         LINE#         311
  C:7CE4H         LINE#         316
  C:7CE7H         LINE#         318
  C:7CF6H         LINE#         319
  C:7D05H         LINE#         321
  C:7D8CH         LINE#         322
  C:7DBEH         LINE#         323
  C:7DE4H         LINE#         324
  C:7E60H         LINE#         325
  C:7E92H         LINE#         327
  -------         ENDPROC       ZEROOUTXY
  -------         PROC          _DATAFLASHTEST
  D:0042H         SYMBOL        whichtest
  -------         DO            
  D:0043H         SYMBOL        SFRPAGE_SAVE
  D:0044H         SYMBOL        pagenum
  D:0046H         SYMBOL        i
  D:0048H         SYMBOL        flashfail
  -------         DO            
  X:0F2CH         SYMBOL        zzz
  -------         ENDDO         
  -------         DO            
  X:0F30H         SYMBOL        zzz
  -------         ENDDO         
  -------         ENDDO         
  C:7E93H         LINE#         330
  C:7E95H         LINE#         331
  C:7E98H         LINE#         332
  C:7E9DH         LINE#         334
  C:7E9FH         LINE#         337
  C:7F1AH         LINE#         340
  C:7F21H         LINE#         346
  C:7F57H         LINE#         348
  C:7F57H         LINE#         349
  C:7F5AH         LINE#         351
  C:7F5DH         LINE#         353
  C:7F6FH         LINE#         355
  C:7F76H         LINE#         356
  C:7F76H         LINE#         367
  C:7F90H         LINE#         370
  C:7FA7H         LINE#         373
  C:7FBBH         LINE#         374
  C:7FD9H         LINE#         375
  C:7FDCH         LINE#         376
  C:7FDEH         LINE#         377
  C:7FDEH         LINE#         378
  C:7FE8H         LINE#         380
  C:7FEFH         LINE#         381
  C:806EH         LINE#         382
  C:8071H         LINE#         383
  C:8071H         LINE#         385
BL51 BANKED LINKER/LOCATER V6.22                                                      01/05/2016  18:47:25  PAGE 65


  C:80A3H         LINE#         386
  C:811CH         LINE#         389
  C:8123H         LINE#         392
  C:8132H         LINE#         393
  C:8139H         LINE#         396
  C:8141H         LINE#         398
  C:815AH         LINE#         401
  C:8161H         LINE#         406
  C:8193H         LINE#         407
  C:820FH         LINE#         409
  C:8212H         LINE#         410
  -------         ENDPROC       _DATAFLASHTEST
  -------         PROC          INPUTTEST
  -------         DO            
  D:0042H         SYMBOL        SFRPAGE_SAVE
  X:0F4CH         SYMBOL        mask
  X:0F54H         SYMBOL        textline
  -------         DO            
  X:0F2CH         SYMBOL        zzz
  -------         ENDDO         
  -------         DO            
  D:0043H         SYMBOL        port5
  D:0044H         SYMBOL        i
  X:0F48H         SYMBOL        zzz
  -------         DO            
  X:0F30H         SYMBOL        zzz
  X:0F34H         SYMBOL        zzz
  X:0F38H         SYMBOL        zzz
  X:0F3CH         SYMBOL        zzz
  X:0F40H         SYMBOL        zzz
  X:0F44H         SYMBOL        zzz
  -------         ENDDO         
  -------         DO            
  X:0F34H         SYMBOL        zzz
  X:0F38H         SYMBOL        zzz
  X:0F3CH         SYMBOL        zzz
  X:0F40H         SYMBOL        zzz
  X:0F44H         SYMBOL        zzz
  -------         ENDDO         
  -------         DO            
  X:0F38H         SYMBOL        zzz
  X:0F3CH         SYMBOL        zzz
  X:0F40H         SYMBOL        zzz
  X:0F44H         SYMBOL        zzz
  -------         ENDDO         
  -------         DO            
  X:0F3CH         SYMBOL        zzz
  X:0F40H         SYMBOL        zzz
  X:0F44H         SYMBOL        zzz
  -------         ENDDO         
  -------         DO            
  X:0F40H         SYMBOL        zzz
  X:0F44H         SYMBOL        zzz
  -------         ENDDO         
  -------         DO            
  X:0F44H         SYMBOL        zzz
  -------         ENDDO         
BL51 BANKED LINKER/LOCATER V6.22                                                      01/05/2016  18:47:25  PAGE 66


  -------         ENDDO         
  -------         DO            
  X:0F48H         SYMBOL        zzz
  -------         ENDDO         
  -------         ENDDO         
  C:51F9H         LINE#         413
  C:51F9H         LINE#         414
  C:51FCH         LINE#         415
  C:520FH         LINE#         418
  C:5215H         LINE#         421
  C:5247H         LINE#         422
  C:52C3H         LINE#         424
  C:52CAH         LINE#         425
  C:52CAH         LINE#         429
  C:52CDH         LINE#         430
  C:52D0H         LINE#         432
  C:52E2H         LINE#         434
  C:52E9H         LINE#         435
  C:52E9H         LINE#         437
  C:52EFH         LINE#         438
  C:52F1H         LINE#         440
  C:52F4H         LINE#         442
  C:5326H         LINE#         443
  C:53A2H         LINE#         445
  C:53D4H         LINE#         446
  C:53E6H         LINE#         447
  C:53ECH         LINE#         448
  C:5442H         LINE#         449
  C:54BEH         LINE#         451
  C:54F0H         LINE#         452
  C:5514H         LINE#         453
  C:5590H         LINE#         455
  C:55C2H         LINE#         456
  C:55C8H         LINE#         457
  C:55E0H         LINE#         459
  C:5604H         LINE#         460
  C:5680H         LINE#         462
  C:56B2H         LINE#         463
  C:56D6H         LINE#         464
  C:5752H         LINE#         466
  C:5784H         LINE#         467
  C:57A8H         LINE#         468
  C:5824H         LINE#         469
  C:5824H         LINE#         471
  C:5827H         LINE#         472
  C:582EH         LINE#         474
  C:5860H         LINE#         475
  C:58DCH         LINE#         477
  C:58E4H         LINE#         479
  C:58E9H         LINE#         481
  C:58ECH         LINE#         482
  -------         ENDPROC       INPUTTEST
  -------         PROC          OUTPUTTEST
  -------         DO            
  D:0042H         SYMBOL        SFRPAGE_SAVE
  D:0043H         SYMBOL        clocksave
  D:0045H         SYMBOL        bitnum
BL51 BANKED LINKER/LOCATER V6.22                                                      01/05/2016  18:47:25  PAGE 67


  X:0F38H         SYMBOL        mask
  -------         DO            
  X:0F2CH         SYMBOL        zzz
  X:0F30H         SYMBOL        zzz
  X:0F34H         SYMBOL        zzz
  -------         ENDDO         
  -------         DO            
  X:0F30H         SYMBOL        zzz
  X:0F34H         SYMBOL        zzz
  -------         ENDDO         
  -------         DO            
  X:0F34H         SYMBOL        zzz
  -------         ENDDO         
  -------         ENDDO         
  C:888AH         LINE#         484
  C:888AH         LINE#         485
  C:888DH         LINE#         487
  C:8892H         LINE#         488
  C:88A4H         LINE#         493
  C:88D6H         LINE#         494
  C:8952H         LINE#         495
  C:8984H         LINE#         497
  C:898BH         LINE#         498
  C:899BH         LINE#         500
  C:899BH         LINE#         502
  C:899EH         LINE#         503
  C:89A1H         LINE#         505
  C:89B3H         LINE#         507
  C:89BAH         LINE#         508
  C:89BAH         LINE#         510
  C:89C9H         LINE#         512
  C:89D2H         LINE#         514
  C:8A4BH         LINE#         516
  C:8A5AH         LINE#         517
  C:8A70H         LINE#         518
  C:8A70H         LINE#         520
  C:8A73H         LINE#         521
  C:8A7AH         LINE#         523
  C:8AACH         LINE#         524
  C:8B28H         LINE#         526
  C:8B30H         LINE#         528
  C:8B33H         LINE#         529
  -------         ENDPROC       OUTPUTTEST
  -------         PROC          ADTEST
  -------         DO            
  D:0042H         SYMBOL        SFRPAGE_SAVE
  X:0F40H         SYMBOL        textline
  D:0043H         SYMBOL        testgood
  D:0044H         SYMBOL        pass
  D:0045H         SYMBOL        i
  -------         DO            
  X:0F2CH         SYMBOL        zzz
  X:0F30H         SYMBOL        zzz
  X:0F34H         SYMBOL        zzz
  X:0F38H         SYMBOL        zzz
  X:0F3CH         SYMBOL        zzz
  -------         ENDDO         
BL51 BANKED LINKER/LOCATER V6.22                                                      01/05/2016  18:47:25  PAGE 68


  -------         DO            
  X:0F30H         SYMBOL        zzz
  X:0F34H         SYMBOL        zzz
  X:0F38H         SYMBOL        zzz
  X:0F3CH         SYMBOL        zzz
  -------         ENDDO         
  -------         DO            
  X:0F34H         SYMBOL        zzz
  X:0F38H         SYMBOL        zzz
  X:0F3CH         SYMBOL        zzz
  -------         ENDDO         
  -------         DO            
  X:0F38H         SYMBOL        zzz
  X:0F3CH         SYMBOL        zzz
  -------         ENDDO         
  -------         DO            
  X:0F3CH         SYMBOL        zzz
  -------         ENDDO         
  -------         ENDDO         
  C:5F4EH         LINE#         531
  C:5F4EH         LINE#         532
  C:5F51H         LINE#         535
  C:5F54H         LINE#         538
  C:5F59H         LINE#         539
  C:5F5EH         LINE#         542
  C:5F90H         LINE#         543
  C:600CH         LINE#         544
  C:603EH         LINE#         545
  C:60BAH         LINE#         546
  C:60ECH         LINE#         547
  C:6168H         LINE#         550
  C:616EH         LINE#         552
  C:6171H         LINE#         553
  C:6192H         LINE#         554
  C:6192H         LINE#         555
  C:6192H         LINE#         556
  C:61BDH         LINE#         557
  C:61C0H         LINE#         558
  C:61C0H         LINE#         559
  C:61EBH         LINE#         560
  C:61EEH         LINE#         561
  C:61EEH         LINE#         562
  C:61F4H         LINE#         563
  C:6222H         LINE#         565
  C:6225H         LINE#         566
  C:6228H         LINE#         567
  C:6228H         LINE#         568
  C:6253H         LINE#         569
  C:6256H         LINE#         570
  C:6256H         LINE#         571
  C:6281H         LINE#         572
  C:6283H         LINE#         573
  C:6283H         LINE#         574
  C:62AEH         LINE#         575
  C:62B0H         LINE#         576
  C:62B0H         LINE#         577
  C:62DBH         LINE#         578
BL51 BANKED LINKER/LOCATER V6.22                                                      01/05/2016  18:47:25  PAGE 69


  C:62DBH         LINE#         579
  C:62DBH         LINE#         581
  C:62DFH         LINE#         582
  C:62E1H         LINE#         583
  C:6319H         LINE#         584
  C:6325H         LINE#         585
  C:632AH         LINE#         587
  C:635CH         LINE#         588
  C:63D8H         LINE#         590
  C:640AH         LINE#         591
  C:6411H         LINE#         592
  C:6449H         LINE#         594
  C:64C2H         LINE#         596
  C:64CAH         LINE#         598
  C:64CFH         LINE#         600
  C:64D2H         LINE#         601
  -------         ENDPROC       ADTEST
  -------         PROC          DIGIOTEST
  -------         DO            
  D:0042H         SYMBOL        SFRPAGE_SAVE
  D:0043H         SYMBOL        pass
  D:0044H         SYMBOL        testgood
  D:0045H         SYMBOL        testval
  D:0046H         SYMBOL        i
  -------         DO            
  X:0F2CH         SYMBOL        zzz
  -------         ENDDO         
  -------         DO            
  X:0F30H         SYMBOL        zzz
  -------         ENDDO         
  -------         DO            
  X:0F34H         SYMBOL        zzz
  -------         ENDDO         
  -------         DO            
  X:0F38H         SYMBOL        zzz
  -------         ENDDO         
  -------         DO            
  X:0F3CH         SYMBOL        zzz
  -------         ENDDO         
  -------         ENDDO         
  C:58EDH         LINE#         603
  C:58EDH         LINE#         604
  C:58F0H         LINE#         605
  C:58F3H         LINE#         607
  C:58F6H         LINE#         610
  C:58FBH         LINE#         613
  C:58FEH         LINE#         614
  C:5901H         LINE#         615
  C:5904H         LINE#         618
  C:5936H         LINE#         619
  C:59B2H         LINE#         621
  C:59B8H         LINE#         622
  C:59EAH         LINE#         623
  C:5A23H         LINE#         624
  C:5A26H         LINE#         625
  C:5A26H         LINE#         626
  C:5A29H         LINE#         627
BL51 BANKED LINKER/LOCATER V6.22                                                      01/05/2016  18:47:25  PAGE 70


  C:5A2EH         LINE#         628
  C:5A31H         LINE#         629
  C:5A33H         LINE#         630
  C:5A35H         LINE#         631
  C:5A35H         LINE#         632
  C:5A38H         LINE#         633
  C:5A3AH         LINE#         634
  C:5A3AH         LINE#         636
  C:5A6CH         LINE#         637
  C:5AE5H         LINE#         640
  C:5AEBH         LINE#         643
  C:5B0FH         LINE#         644
  C:5B0FH         LINE#         645
  C:5B12H         LINE#         646
  C:5B36H         LINE#         647
  C:5B39H         LINE#         648
  C:5B48H         LINE#         649
  C:5B4BH         LINE#         650
  C:5B59H         LINE#         651
  C:5B59H         LINE#         652
  C:5B5CH         LINE#         653
  C:5B5CH         LINE#         654
  C:5B5FH         LINE#         655
  C:5B83H         LINE#         656
  C:5B86H         LINE#         657
  C:5B95H         LINE#         658
  C:5B98H         LINE#         659
  C:5BA5H         LINE#         660
  C:5BA5H         LINE#         661
  C:5BA8H         LINE#         662
  C:5BA8H         LINE#         663
  C:5BABH         LINE#         664
  C:5BCFH         LINE#         665
  C:5BD2H         LINE#         666
  C:5BE1H         LINE#         667
  C:5BE4H         LINE#         668
  C:5BF1H         LINE#         669
  C:5BF1H         LINE#         670
  C:5BF4H         LINE#         671
  C:5BF4H         LINE#         672
  C:5BF7H         LINE#         673
  C:5C1BH         LINE#         674
  C:5C1EH         LINE#         675
  C:5C2DH         LINE#         676
  C:5C30H         LINE#         677
  C:5C3DH         LINE#         678
  C:5C3DH         LINE#         679
  C:5C40H         LINE#         680
  C:5C40H         LINE#         681
  C:5C43H         LINE#         682
  C:5C67H         LINE#         683
  C:5C6AH         LINE#         684
  C:5C79H         LINE#         685
  C:5C7CH         LINE#         686
  C:5C89H         LINE#         687
  C:5C89H         LINE#         688
  C:5C8CH         LINE#         689
BL51 BANKED LINKER/LOCATER V6.22                                                      01/05/2016  18:47:25  PAGE 71


  C:5C8CH         LINE#         690
  C:5C8FH         LINE#         691
  C:5CB3H         LINE#         692
  C:5CB6H         LINE#         693
  C:5CC5H         LINE#         694
  C:5CC8H         LINE#         695
  C:5CD5H         LINE#         696
  C:5CD5H         LINE#         697
  C:5CD8H         LINE#         698
  C:5CD8H         LINE#         699
  C:5CDBH         LINE#         700
  C:5CFFH         LINE#         701
  C:5D02H         LINE#         702
  C:5D11H         LINE#         703
  C:5D14H         LINE#         704
  C:5D21H         LINE#         705
  C:5D21H         LINE#         706
  C:5D23H         LINE#         707
  C:5D23H         LINE#         708
  C:5D26H         LINE#         709
  C:5D4AH         LINE#         710
  C:5D4DH         LINE#         711
  C:5D5CH         LINE#         712
  C:5D5FH         LINE#         713
  C:5D6EH         LINE#         714
  C:5D71H         LINE#         715
  C:5D73H         LINE#         716
  C:5D73H         LINE#         719
  C:5D76H         LINE#         720
  C:5D76H         LINE#         721
  C:5D76H         LINE#         723
  C:5D7BH         LINE#         725
  C:5D82H         LINE#         726
  C:5DB4H         LINE#         727
  C:5E30H         LINE#         728
  C:5E33H         LINE#         729
  C:5E33H         LINE#         732
  C:5E37H         LINE#         733
  C:5E3CH         LINE#         735
  C:5E42H         LINE#         736
  C:5E4EH         LINE#         738
  C:5E80H         LINE#         739
  C:5E87H         LINE#         740
  C:5EBFH         LINE#         742
  C:5F38H         LINE#         743
  C:5F38H         LINE#         746
  C:5F3BH         LINE#         747
  C:5F3EH         LINE#         749
  C:5F46H         LINE#         751
  C:5F4AH         LINE#         753
  C:5F4DH         LINE#         754
  -------         ENDPROC       DIGIOTEST
  -------         PROC          AUTOONTEST
  -------         DO            
  D:0042H         SYMBOL        SFRPAGE_SAVE
  -------         DO            
  X:0F2CH         SYMBOL        zzz
BL51 BANKED LINKER/LOCATER V6.22                                                      01/05/2016  18:47:25  PAGE 72


  -------         ENDDO         
  -------         DO            
  X:0F30H         SYMBOL        zzz
  X:0F34H         SYMBOL        zzz
  X:0F38H         SYMBOL        zzz
  X:0F3CH         SYMBOL        zzz
  X:0F40H         SYMBOL        zzz
  X:0F44H         SYMBOL        zzz
  -------         ENDDO         
  -------         DO            
  X:0F34H         SYMBOL        zzz
  X:0F38H         SYMBOL        zzz
  X:0F3CH         SYMBOL        zzz
  X:0F40H         SYMBOL        zzz
  X:0F44H         SYMBOL        zzz
  -------         ENDDO         
  -------         DO            
  X:0F38H         SYMBOL        zzz
  X:0F3CH         SYMBOL        zzz
  X:0F40H         SYMBOL        zzz
  X:0F44H         SYMBOL        zzz
  -------         ENDDO         
  -------         DO            
  X:0F3CH         SYMBOL        zzz
  X:0F40H         SYMBOL        zzz
  X:0F44H         SYMBOL        zzz
  -------         ENDDO         
  -------         DO            
  X:0F40H         SYMBOL        zzz
  X:0F44H         SYMBOL        zzz
  -------         ENDDO         
  -------         DO            
  X:0F44H         SYMBOL        zzz
  -------         ENDDO         
  -------         ENDDO         
  C:7220H         LINE#         756
  C:7220H         LINE#         757
  C:7223H         LINE#         759
  C:7229H         LINE#         762
  C:725BH         LINE#         763
  C:72D7H         LINE#         765
  C:72DDH         LINE#         766
  C:730FH         LINE#         767
  C:7348H         LINE#         768
  C:734BH         LINE#         769
  C:734BH         LINE#         770
  C:734EH         LINE#         772
  C:7380H         LINE#         773
  C:73FCH         LINE#         774
  C:7401H         LINE#         776
  C:7404H         LINE#         778
  C:7436H         LINE#         779
  C:74B2H         LINE#         780
  C:74B4H         LINE#         781
  C:74E6H         LINE#         783
  C:74E8H         LINE#         785
  C:751AH         LINE#         786
BL51 BANKED LINKER/LOCATER V6.22                                                      01/05/2016  18:47:25  PAGE 73


  C:7596H         LINE#         787
  C:759BH         LINE#         789
  C:759EH         LINE#         791
  C:75D0H         LINE#         792
  C:764CH         LINE#         793
  C:764CH         LINE#         795
  C:7654H         LINE#         797
  C:7659H         LINE#         799
  C:765CH         LINE#         800
  -------         ENDPROC       AUTOONTEST
  -------         PROC          SMB_MASTER_TEST
  -------         DO            
  D:0042H         SYMBOL        i
  D:0044H         SYMBOL        j
  D:0006H         SYMBOL        timeoutctr
  D:0046H         SYMBOL        xmit_error
  B:0020H.1       SYMBOL        savesmbpu
  D:0047H         SYMBOL        SFRPAGE_SAVE
  -------         DO            
  X:0F2CH         SYMBOL        zzz
  -------         ENDDO         
  -------         DO            
  X:0F30H         SYMBOL        zzz
  X:0F34H         SYMBOL        zzz
  -------         ENDDO         
  -------         DO            
  X:0F34H         SYMBOL        zzz
  -------         ENDDO         
  -------         DO            
  X:0F38H         SYMBOL        zzz
  X:0F3CH         SYMBOL        zzz
  -------         ENDDO         
  -------         DO            
  X:0F3CH         SYMBOL        zzz
  -------         ENDDO         
  -------         DO            
  X:0F40H         SYMBOL        zzz
  -------         ENDDO         
  -------         ENDDO         
  C:6DC4H         LINE#         802
  C:6DC4H         LINE#         809
  C:6DC7H         LINE#         810
  C:6DCBH         LINE#         812
  C:6DCEH         LINE#         814
  C:6DD3H         LINE#         817
  C:6E05H         LINE#         818
  C:6E81H         LINE#         820
  C:6E87H         LINE#         821
  C:6EB9H         LINE#         822
  C:6EF2H         LINE#         823
  C:6EF5H         LINE#         824
  C:6EF5H         LINE#         825
  C:6EF7H         LINE#         826
  C:6EFAH         LINE#         827
  C:6EFCH         LINE#         828
  C:6F2EH         LINE#         829
  C:6F3AH         LINE#         830
BL51 BANKED LINKER/LOCATER V6.22                                                      01/05/2016  18:47:25  PAGE 74


  C:6FB9H         LINE#         847
  C:6FBDH         LINE#         848
  C:6FC1H         LINE#         850
  C:6FCCH         LINE#         851
  C:6FD1H         LINE#         852
  C:6FFAH         LINE#         853
  C:7000H         LINE#         854
  C:7003H         LINE#         855
  C:7009H         LINE#         857
  C:700EH         LINE#         859
  C:7013H         LINE#         861
  C:7016H         LINE#         864
  C:7027H         LINE#         867
  C:702AH         LINE#         869
  C:703CH         LINE#         871
  C:7043H         LINE#         872
  C:7043H         LINE#         874
  C:7075H         LINE#         876
  C:7078H         LINE#         878
  C:707BH         LINE#         880
  C:708FH         LINE#         883
  C:7092H         LINE#         884
  C:7097H         LINE#         885
  C:7097H         LINE#         887
  C:709CH         LINE#         889
  C:70C4H         LINE#         890
  C:70D5H         LINE#         891
  C:70D5H         LINE#         893
  C:70D9H         LINE#         895
  C:710BH         LINE#         896
  C:711FH         LINE#         898
  C:7123H         LINE#         899
  C:7126H         LINE#         900
  C:7128H         LINE#         902
  C:715AH         LINE#         903
  C:7161H         LINE#         904
  C:7199H         LINE#         906
  C:7212H         LINE#         907
  C:7212H         LINE#         909
  C:721AH         LINE#         910
  C:721FH         LINE#         912
  -------         ENDPROC       SMB_MASTER_TEST
  -------         PROC          SMB_SLAVE_TEST
  -------         DO            
  D:0006H         SYMBOL        i
  D:0042H         SYMBOL        j
  B:0020H.1       SYMBOL        savesmbpu
  D:0044H         SYMBOL        SFRPAGE_SAVE
  -------         DO            
  X:0F2CH         SYMBOL        zzz
  X:0F30H         SYMBOL        zzz
  -------         ENDDO         
  -------         DO            
  X:0F30H         SYMBOL        zzz
  -------         ENDDO         
  -------         ENDDO         
  C:91E0H         LINE#         914
BL51 BANKED LINKER/LOCATER V6.22                                                      01/05/2016  18:47:25  PAGE 75


  C:91E0H         LINE#         916
  C:91E4H         LINE#         918
  C:91E7H         LINE#         920
  C:91EDH         LINE#         921
  C:91F3H         LINE#         922
  C:91F5H         LINE#         923
  C:91FAH         LINE#         926
  C:9203H         LINE#         928
  C:9235H         LINE#         929
  C:92B1H         LINE#         931
  C:92B4H         LINE#         932
  C:92B4H         LINE#         934
  C:92E6H         LINE#         935
  C:9362H         LINE#         937
  C:9364H         LINE#         938
  C:936CH         LINE#         955
  C:9370H         LINE#         956
  C:9374H         LINE#         958
  C:9377H         LINE#         959
  C:937AH         LINE#         960
  C:937CH         LINE#         963
  C:937DH         LINE#         964
  C:938FH         LINE#         965
  C:939AH         LINE#         967
  C:939AH         LINE#         969
  C:93A0H         LINE#         972
  C:93A3H         LINE#         974
  C:93B2H         LINE#         976
  C:93B9H         LINE#         977
  C:93B9H         LINE#         979
  C:93BEH         LINE#         982
  C:93CDH         LINE#         983
  C:93E9H         LINE#         984
  C:93F0H         LINE#         987
  C:93F2H         LINE#         988
  C:93F4H         LINE#         990
  C:93F8H         LINE#         991
  C:93FBH         LINE#         992
  C:93FDH         LINE#         994
  C:93FDH         LINE#         996
  C:9405H         LINE#         998
  C:940AH         LINE#         1000
  C:940DH         LINE#         1001
  -------         ENDPROC       SMB_SLAVE_TEST
  -------         ENDMOD        FACTORYTEST

  -------         MODULE        MESSAGE
  C:0000H         SYMBOL        _ICE_DUMMY_
  D:0080H         PUBLIC        P0
  D:00B0H         PUBLIC        P3
  D:00C8H         PUBLIC        P4
  D:00D8H         PUBLIC        P5
  D:00E8H         PUBLIC        P6
  D:00E7H         PUBLIC        EIE2
  D:00F8H         PUBLIC        P7
  B:00B0H.5       PUBLIC        LED2
  B:00B0H.4       PUBLIC        LED3
BL51 BANKED LINKER/LOCATER V6.22                                                      01/05/2016  18:47:25  PAGE 76


  D:0084H         PUBLIC        SFRPAGE
  C:487AH         PUBLIC        _Parse_Message
  C:ADD7H         PUBLIC        _Verify_CRC
  C:AFB9H         PUBLIC        _JumpCopy
  B:00A8H.4       PUBLIC        ES0
  B:0098H.0       PUBLIC        RI0
  B:0098H.0       PUBLIC        RI1
  B:0098H.1       PUBLIC        TI0
  B:0098H.1       PUBLIC        TI1
  C:A5E8H         PUBLIC        _SaveDownload
  C:9824H         PUBLIC        _SendMessage
  B:00E8H.0       PUBLIC        SW1
  D:0099H         PUBLIC        SBUF0
  D:0099H         PUBLIC        SBUF1
  D:00EFH         PUBLIC        RSTSRC
  C:AD4AH         PUBLIC        _SendNAK
  C:980AH         SYMBOL        L?0152
  C:9820H         SYMBOL        L?0153
  -------         PROC          L?0151
  -------         ENDPROC       L?0151
  C:980AH         SYMBOL        L?0152
  C:9820H         SYMBOL        L?0153
  -------         PROC          _SENDMESSAGE
  D:0049H         SYMBOL        source
  D:0005H         SYMBOL        dest
  D:004BH         SYMBOL        opcode
  D:004CH         SYMBOL        bytes
  -------         DO            
  D:004EH         SYMBOL        chk
  D:0006H         SYMBOL        i
  D:004FH         SYMBOL        crc
  D:0051H         SYMBOL        port
  -------         ENDDO         
  C:9824H         LINE#         43
  C:9828H         LINE#         46
  C:9828H         LINE#         47
  C:982BH         LINE#         48
  C:982CH         LINE#         49
  C:9830H         LINE#         50
  C:9837H         LINE#         53
  C:9844H         LINE#         56
  C:9858H         LINE#         57
  C:9865H         LINE#         59
  C:987CH         LINE#         60
  C:9896H         LINE#         61
  C:98AFH         LINE#         63
  C:98BAH         LINE#         65
  C:98D4H         LINE#         66
  C:98EEH         LINE#         68
  C:9908H         LINE#         70
  C:990BH         LINE#         71
  C:9931H         LINE#         73
  C:994BH         LINE#         75
  C:9957H         LINE#         77
  C:997BH         LINE#         79
  C:99A4H         LINE#         80
  C:99CCH         LINE#         82
BL51 BANKED LINKER/LOCATER V6.22                                                      01/05/2016  18:47:25  PAGE 77


  C:99E8H         LINE#         83
  C:99F1H         LINE#         85
  -------         ENDPROC       _SENDMESSAGE
  -------         PROC          _PARSE_MESSAGE
  D:0031H         SYMBOL        port
  D:0032H         SYMBOL        msgptr
  -------         DO            
  X:0F28H         SYMBOL        retval
  X:0F2AH         SYMBOL        msgdatalen
  -------         DO            
  D:0035H         SYMBOL        i
  D:0037H         SYMBOL        tmpfrom
  D:003AH         SYMBOL        tmpto
  -------         DO            
  D:003DH         SYMBOL        segnum
  D:003DH         SYMBOL        segnum
  D:003DH         SYMBOL        save_state
  D:003EH         SYMBOL        starterase
  D:0040H         SYMBOL        enderase
  D:003DH         SYMBOL        status
  -------         ENDDO         
  -------         DO            
  D:003DH         SYMBOL        segnum
  D:003DH         SYMBOL        save_state
  D:003EH         SYMBOL        starterase
  D:0040H         SYMBOL        enderase
  D:003DH         SYMBOL        status
  -------         ENDDO         
  -------         DO            
  D:003DH         SYMBOL        save_state
  D:003EH         SYMBOL        starterase
  D:0040H         SYMBOL        enderase
  D:003DH         SYMBOL        status
  -------         ENDDO         
  -------         DO            
  D:003DH         SYMBOL        status
  -------         ENDDO         
  -------         DO            
  X:0F1CH         SYMBOL        zzz
  D:003DH         SYMBOL        tempch
  -------         ENDDO         
  -------         DO            
  D:003DH         SYMBOL        tempch
  -------         ENDDO         
  -------         DO            
  X:0F20H         SYMBOL        zzz
  X:0F24H         SYMBOL        zzz
  -------         ENDDO         
  -------         DO            
  X:0F24H         SYMBOL        zzz
  -------         ENDDO         
  -------         ENDDO         
  -------         ENDDO         
  C:487AH         LINE#         90
  C:4882H         LINE#         91
  C:4882H         LINE#         92
  C:4889H         LINE#         95
BL51 BANKED LINKER/LOCATER V6.22                                                      01/05/2016  18:47:25  PAGE 78


  C:48ADH         LINE#         97
  C:48BFH         LINE#         99
  C:48C2H         LINE#         101
  C:48DEH         LINE#         103
  C:48F0H         LINE#         105
  C:48F9H         LINE#         106
  C:48F9H         LINE#         110
  C:48FCH         LINE#         111
  C:48FCH         LINE#         117
  C:491BH         LINE#         121
  C:4944H         LINE#         122
  C:4953H         LINE#         123
  C:4967H         LINE#         124
  C:498BH         LINE#         126
  C:49B3H         LINE#         127
  C:49B6H         LINE#         128
  C:49B6H         LINE#         131
  C:49C6H         LINE#         133
  C:49CCH         LINE#         135
  C:4A2AH         LINE#         136
  C:4A2AH         LINE#         139
  C:4A34H         LINE#         148
  C:4A34H         LINE#         149
  C:4A34H         LINE#         150
  C:4A34H         LINE#         153
  C:4A47H         LINE#         156
  C:4A47H         LINE#         157
  C:4A49H         LINE#         159
  C:4A49H         LINE#         163
  C:4A5DH         LINE#         166
  C:4A5DH         LINE#         167
  C:4A60H         LINE#         172
  C:4A60H         LINE#         173
  C:4A74H         LINE#         174
  C:4A79H         LINE#         176
  C:4A84H         LINE#         178
  C:4A8AH         LINE#         179
  C:4A8DH         LINE#         180
  C:4A8DH         LINE#         183
  C:4AA1H         LINE#         184
  C:4AA6H         LINE#         185
  C:4AA6H         LINE#         186
  C:4AC3H         LINE#         188
  C:4AEDH         LINE#         189
  C:4B13H         LINE#         190
  C:4B13H         LINE#         192
  C:4B19H         LINE#         193
  C:4B1CH         LINE#         194
  C:4B1CH         LINE#         195
  C:4B1CH         LINE#         198
  C:4B30H         LINE#         199
  C:4B3DH         LINE#         200
  C:4B3DH         LINE#         201
  C:4B5AH         LINE#         203
  C:4B76H         LINE#         205
  C:4B81H         LINE#         208
  C:4B89H         LINE#         209
BL51 BANKED LINKER/LOCATER V6.22                                                      01/05/2016  18:47:25  PAGE 79


  C:4B8CH         LINE#         211
  C:4B8CH         LINE#         213
  C:4B92H         LINE#         214
  C:4B95H         LINE#         215
  C:4B95H         LINE#         216
  C:4B95H         LINE#         217
  C:4BA9H         LINE#         218
  C:4BAEH         LINE#         219
  C:4BAEH         LINE#         220
  C:4BCAH         LINE#         221
  C:4BF0H         LINE#         222
  C:4BF0H         LINE#         225
  C:4BF6H         LINE#         226
  C:4BF9H         LINE#         227
  C:4BF9H         LINE#         228
  C:4BF9H         LINE#         229
  C:4C0DH         LINE#         230
  C:4C1AH         LINE#         231
  C:4C1AH         LINE#         232
  C:4C25H         LINE#         233
  C:4C28H         LINE#         234
  C:4C50H         LINE#         237
  C:4C59H         LINE#         244
  C:4C59H         LINE#         247
  C:4C5FH         LINE#         248
  C:4C62H         LINE#         249
  C:4C62H         LINE#         290
  C:4C62H         LINE#         291
  C:4C62H         LINE#         292
  C:4C69H         LINE#         294
  C:4C85H         LINE#         295
  C:4C98H         LINE#         298
  C:4CAFH         LINE#         300
  C:4CC5H         LINE#         301
  C:4CDCH         LINE#         302
  C:4CDCH         LINE#         303
  C:4CE2H         LINE#         304
  C:4CEDH         LINE#         307
  C:4CF3H         LINE#         314
  C:4D00H         LINE#         316
  C:4D06H         LINE#         317
  C:4D06H         LINE#         318
  C:4D09H         LINE#         319
  C:4D09H         LINE#         321
  C:4D09H         LINE#         324
  C:4D14H         LINE#         326
  C:4D2BH         LINE#         329
  C:4D2BH         LINE#         330
  C:4D30H         LINE#         331
  C:4D35H         LINE#         333
  C:4D38H         LINE#         336
  C:4D3BH         LINE#         338
  C:4D3EH         LINE#         339
  C:4D3EH         LINE#         342
  C:4D3EH         LINE#         343
  C:4D49H         LINE#         346
  C:4D5AH         LINE#         349
BL51 BANKED LINKER/LOCATER V6.22                                                      01/05/2016  18:47:25  PAGE 80


  C:4D8CH         LINE#         352
  C:4D8FH         LINE#         353
  C:4D91H         LINE#         354
  C:4D93H         LINE#         355
  C:4D95H         LINE#         357
  C:4D98H         LINE#         358
  C:4D9BH         LINE#         359
  C:4D9DH         LINE#         360
  C:4D9FH         LINE#         363
  C:4D9FH         LINE#         366
  C:4DA2H         LINE#         367
  C:4DA5H         LINE#         369
  C:4DB4H         LINE#         371
  C:4DB7H         LINE#         373
  C:4DBAH         LINE#         374
  C:4DBAH         LINE#         375
  C:4DBAH         LINE#         377
  C:4DBDH         LINE#         378
  C:4DC0H         LINE#         379
  C:4DC3H         LINE#         380
  C:4DC6H         LINE#         381
  C:4DC8H         LINE#         382
  C:4DCAH         LINE#         383
  C:4DCDH         LINE#         384
  C:4DCFH         LINE#         385
  C:4DD1H         LINE#         386
  C:4DD4H         LINE#         387
  C:4DD7H         LINE#         388
  C:4DD7H         LINE#         389
  C:4DD7H         LINE#         391
  C:4DDAH         LINE#         392
  C:4DDDH         LINE#         393
  C:4DE0H         LINE#         394
  C:4DE3H         LINE#         395
  C:4DE5H         LINE#         396
  C:4DE8H         LINE#         397
  C:4DEBH         LINE#         398
  C:4DEDH         LINE#         399
  C:4DEFH         LINE#         400
  C:4DF1H         LINE#         401
  C:4DF4H         LINE#         402
  C:4DF4H         LINE#         403
  C:4DF4H         LINE#         404
  C:4DF6H         LINE#         405
  C:4DF6H         LINE#         406
  C:4DF6H         LINE#         407
  C:4DF6H         LINE#         408
  C:4E01H         LINE#         411
  C:4E18H         LINE#         413
  C:4E22H         LINE#         415
  C:4E25H         LINE#         416
  C:4E25H         LINE#         417
  C:4E30H         LINE#         420
  C:4E47H         LINE#         423
  C:4E50H         LINE#         424
  C:4E5AH         LINE#         437
  C:4E5AH         LINE#         439
BL51 BANKED LINKER/LOCATER V6.22                                                      01/05/2016  18:47:25  PAGE 81


  C:4E5DH         LINE#         440
  C:4E5DH         LINE#         441
  C:4E68H         LINE#         444
  C:4E7FH         LINE#         446
  C:4E82H         LINE#         447
  C:4E85H         LINE#         448
  C:4E85H         LINE#         449
  C:4E90H         LINE#         452
  C:4EA7H         LINE#         454
  C:4EAAH         LINE#         455
  C:4EADH         LINE#         456
  C:4EADH         LINE#         457
  C:4EB8H         LINE#         460
  C:4ECFH         LINE#         462
  C:4ED2H         LINE#         463
  C:4ED5H         LINE#         464
  C:4ED5H         LINE#         465
  C:4EE0H         LINE#         468
  C:4EF7H         LINE#         470
  C:4EFAH         LINE#         471
  C:4EFDH         LINE#         472
  C:4EFDH         LINE#         473
  C:4F08H         LINE#         476
  C:4F1FH         LINE#         478
  C:4F22H         LINE#         479
  C:4F25H         LINE#         480
  C:4F25H         LINE#         481
  C:4F30H         LINE#         484
  C:4F47H         LINE#         486
  C:4F4AH         LINE#         487
  C:4F4DH         LINE#         488
  C:4F4DH         LINE#         489
  C:4F58H         LINE#         492
  C:4F6FH         LINE#         494
  C:4F72H         LINE#         495
  C:4F75H         LINE#         496
  C:4F75H         LINE#         497
  C:4F80H         LINE#         500
  C:4F97H         LINE#         502
  C:4F9AH         LINE#         503
  C:4F9DH         LINE#         505
  C:4F9DH         LINE#         506
  C:4F9DH         LINE#         508
  C:4FB4H         LINE#         510
  C:4FBEH         LINE#         511
  C:4FC1H         LINE#         512
  C:4FC1H         LINE#         514
  C:4FC6H         LINE#         515
  C:4FC6H         LINE#         553
  C:4FC9H         LINE#         554
  C:4FC9H         LINE#         556
  C:4FC9H         LINE#         557
  C:4FD1H         LINE#         558
  C:4FE3H         LINE#         559
  C:4FEEH         LINE#         560
  C:4FF6H         LINE#         561
  C:4FF8H         LINE#         562
BL51 BANKED LINKER/LOCATER V6.22                                                      01/05/2016  18:47:25  PAGE 82


  C:4FF8H         LINE#         563
  C:5012H         LINE#         564
  C:5012H         LINE#         566
  C:5018H         LINE#         568
  C:501BH         LINE#         569
  C:501BH         LINE#         571
  C:501BH         LINE#         573
  C:5036H         LINE#         574
  C:5050H         LINE#         576
  C:5067H         LINE#         578
  C:5099H         LINE#         581
  C:509FH         LINE#         582
  C:50A5H         LINE#         583
  C:50A8H         LINE#         584
  C:50A8H         LINE#         585
  C:50B3H         LINE#         586
  C:50CAH         LINE#         588
  C:50FCH         LINE#         590
  C:5103H         LINE#         591
  C:5103H         LINE#         592
  C:5106H         LINE#         593
  C:5106H         LINE#         595
  C:5106H         LINE#         596
  C:510CH         LINE#         597
  C:511CH         LINE#         599
  C:512BH         LINE#         601
  C:5137H         LINE#         603
  C:5141H         LINE#         605
  C:5146H         LINE#         606
  C:5178H         LINE#         608
  C:5188H         LINE#         609
  C:5198H         LINE#         610
  C:5198H         LINE#         612
  C:51A3H         LINE#         614
  C:51BAH         LINE#         615
  C:51BCH         LINE#         616
  C:51BCH         LINE#         1058
  C:51BCH         LINE#         1060
  C:51D4H         LINE#         1063
  C:51E8H         LINE#         1064
  C:51F0H         LINE#         1068
  C:51F0H         LINE#         1069
  C:51F0H         LINE#         1070
  C:51F0H         LINE#         1071
  C:51F0H         LINE#         1073
  C:51F8H         LINE#         1075
  -------         ENDPROC       _PARSE_MESSAGE
  -------         PROC          _VERIFY_CRC
  D:0042H         SYMBOL        dat
  D:0045H         SYMBOL        bytecount
  -------         DO            
  D:0047H         SYMBOL        retval
  D:0006H         SYMBOL        data_crc
  -------         ENDDO         
  C:ADD7H         LINE#         1082
  C:ADE1H         LINE#         1085
  C:ADE8H         LINE#         1087
BL51 BANKED LINKER/LOCATER V6.22                                                      01/05/2016  18:47:25  PAGE 83


  C:ADFAH         LINE#         1088
  C:AE0EH         LINE#         1090
  C:AE18H         LINE#         1091
  C:AE1CH         LINE#         1093
  C:AE20H         LINE#         1094
  -------         ENDPROC       _VERIFY_CRC
  C:AD3BH         SYMBOL        L?0155
  -------         PROC          L?0154
  -------         ENDPROC       L?0154
  C:AD3BH         SYMBOL        L?0155
  -------         PROC          _SENDNAK
  D:0006H         SYMBOL        dest
  D:0005H         SYMBOL        reason
  C:AD4AH         LINE#         1096
  C:AD4CH         LINE#         1097
  C:AD4CH         LINE#         1098
  C:AD73H         LINE#         1099
  C:AD86H         LINE#         1101
  C:AD89H         LINE#         1103
  -------         ENDPROC       _SENDNAK
  -------         PROC          _SAVEDOWNLOAD
  D:0042H         SYMBOL        msgptr
  D:0045H         SYMBOL        cksum
  -------         DO            
  D:0048H         SYMBOL        i
  D:004AH         SYMBOL        len
  -------         ENDDO         
  C:A5E8H         LINE#         1109
  C:A5EEH         LINE#         1110
  C:A5F3H         LINE#         1113
  C:A607H         LINE#         1115
  C:A632H         LINE#         1116
  C:A670H         LINE#         1117
  C:A67AH         LINE#         1120
  -------         ENDPROC       _SAVEDOWNLOAD
  -------         PROC          _JUMPCOPY
  D:0042H         SYMBOL        lastpage
  -------         DO            
  X:0F2CH         SYMBOL        f
  X:0F2FH         SYMBOL        tmpint
  -------         ENDDO         
  C:AFB9H         LINE#         1125
  C:AFBDH         LINE#         1129
  C:AFCFH         LINE#         1132
  C:AFD5H         LINE#         1134
  C:AFE1H         LINE#         1135
  C:AFE4H         LINE#         1136
  C:AFE4H         LINE#         1138
  C:AFEBH         LINE#         1139
  -------         ENDPROC       _JUMPCOPY
  -------         ENDMOD        MESSAGE

  -------         MODULE        SESSION
  C:0000H         SYMBOL        _ICE_DUMMY_
  -------         ENDMOD        SESSION

  -------         MODULE        ROADBLOCK
BL51 BANKED LINKER/LOCATER V6.22                                                      01/05/2016  18:47:25  PAGE 84


  C:FDFEH         SEGMENT       ROADBLOCK
  C:FDFEH         LINE#         16
  -------         ENDMOD        ROADBLOCK

  -------         MODULE        CRC
  C:ABDBH         SEGMENT       ?PR?_CRC16?CRC
  D:0052H         SEGMENT       ?DT?_CRC16?CRC
  C:ABDBH         PUBLIC        _CRC16
  C:ABF1H         SYMBOL        ?C0001
  C:AC31H         SYMBOL        ?C0002
  C:AC35H         SYMBOL        ?C0003
  C:AC00H         SYMBOL        ?C0004
  D:0052H         SYMBOL        ?_CRC16?BYTE
  D:00E0H         SYMBOL        ACC
  D:00F0H         SYMBOL        B
  N:0000H         SYMBOL        CRC
  D:0058H         SYMBOL        CRC?044
  D:0083H         SYMBOL        DPH
  D:0082H         SYMBOL        DPL
  D:0055H         SYMBOL        LIM?043
  D:0052H         SYMBOL        P?042
  C:ABDBH         LINE#         53
  C:ABDDH         LINE#         54
  C:ABDFH         LINE#         55
  C:ABE1H         LINE#         58
  C:ABE2H         LINE#         59
  C:ABE3H         LINE#         60
  C:ABE4H         LINE#         61
  C:ABE5H         LINE#         62
  C:ABE6H         LINE#         63
  C:ABE8H         LINE#         64
  C:ABEAH         LINE#         65
  C:ABECH         LINE#         68
  C:ABEDH         LINE#         69
  C:ABEFH         LINE#         70
  C:ABF1H         LINE#         74
  C:ABF2H         LINE#         75
  C:ABF5H         LINE#         76
  C:ABF8H         LINE#         77
  C:ABFAH         LINE#         78
  C:ABFCH         LINE#         79
  C:ABFEH         LINE#         80
  C:AC00H         LINE#         82
  C:AC02H         LINE#         85
  C:AC04H         LINE#         86
  C:AC05H         LINE#         87
  C:AC08H         LINE#         88
  C:AC0BH         LINE#         89
  C:AC0EH         LINE#         90
  C:AC0FH         LINE#         91
  C:AC11H         LINE#         92
  C:AC12H         LINE#         93
  C:AC14H         LINE#         94
  C:AC15H         LINE#         95
  C:AC16H         LINE#         96
  C:AC17H         LINE#         97
  C:AC18H         LINE#         98
BL51 BANKED LINKER/LOCATER V6.22                                                      01/05/2016  18:47:25  PAGE 85


  C:AC1AH         LINE#         99
  C:AC1BH         LINE#         100
  C:AC1DH         LINE#         101
  C:AC1FH         LINE#         102
  C:AC20H         LINE#         103
  C:AC22H         LINE#         104
  C:AC24H         LINE#         105
  C:AC25H         LINE#         106
  C:AC26H         LINE#         107
  C:AC27H         LINE#         108
  C:AC29H         LINE#         109
  C:AC2BH         LINE#         110
  C:AC2CH         LINE#         111
  C:AC2DH         LINE#         112
  C:AC2FH         LINE#         115
  C:AC31H         LINE#         119
  C:AC33H         LINE#         120
  C:AC35H         LINE#         124
  -------         ENDMOD        CRC

  -------         MODULE        FDL
  C:FE02H         SEGMENT       ?PR?_COPYTOCODESPACE?FDL
  D:0044H         SEGMENT       ?DT?_COPYTOCODESPACE?FDL
  C:FFC0H         SEGMENT       ?PR?_FDL_XFERSPI?FDL
  C:FFD9H         SEGMENT       ?PR?FDL_DATAFLASH_READ_STATUS?FDL
  D:0050H         SEGMENT       ?DT?FDL_DATAFLASH_READ_STATUS?FDL
  C:FFD9H         PUBLIC        FDL_DATAFLASH_READ_STATUS
  C:FE02H         PUBLIC        _COPYTOCODESPACE
  C:FFC8H         PUBLIC        _FDL_XFERSPI
  C:FE1BH         SYMBOL        ?C0001
  C:FE38H         SYMBOL        ?C0002
  C:FE43H         SYMBOL        ?C0003
  C:FF33H         SYMBOL        ?C0004
  C:FE54H         SYMBOL        ?C0006
  C:FE58H         SYMBOL        ?C0007
  C:FE70H         SYMBOL        ?C0011
  C:FE90H         SYMBOL        ?C0013
  C:FE82H         SYMBOL        ?C0015
  C:FEC7H         SYMBOL        ?C0018
  C:FEE9H         SYMBOL        ?C0019
  C:FEF6H         SYMBOL        ?C0021
  C:FF25H         SYMBOL        ?C0022
  C:FF49H         SYMBOL        ?C0024
  C:FF61H         SYMBOL        ?C0030
  C:FF81H         SYMBOL        ?C0032
  C:FF73H         SYMBOL        ?C0034
  C:FFAFH         SYMBOL        ?C0039
  C:FFCFH         SYMBOL        ?C0041
  C:FFD2H         SYMBOL        ?C0042
  C:FFD8H         SYMBOL        ?C0043
  C:FFEFH         SYMBOL        ?C0045
  C:FFE1H         SYMBOL        ?C0047
  C:FFFCH         SYMBOL        ?C0050
  C:FE8AH         SYMBOL        ?C0051
  C:FE9BH         SYMBOL        ?C0052
  C:FEE2H         SYMBOL        ?C0053
  C:FF0EH         SYMBOL        ?C0054
BL51 BANKED LINKER/LOCATER V6.22                                                      01/05/2016  18:47:25  PAGE 86


  C:FF1DH         SYMBOL        ?C0055
  C:FF30H         SYMBOL        ?C0057
  C:FF7BH         SYMBOL        ?C0058
  C:FF8CH         SYMBOL        ?C0059
  C:FFE9H         SYMBOL        ?C0060
  D:0050H         SYMBOL        ?FDL_DATAFLASH_READ_STATUS?BYTE
  D:0044H         SYMBOL        ?_COPYTOCODESPACE?BYTE
  B:00C0H.2       SYMBOL        AA
  B:00D0H.6       SYMBOL        AC
  D:00E0H         SYMBOL        ACC
  B:00E8H.4       SYMBOL        AD0BUSY
  B:00E8H.2       SYMBOL        AD0CM0
  B:00E8H.3       SYMBOL        AD0CM1
  B:00E8H.7       SYMBOL        AD0EN
  B:00E8H.5       SYMBOL        AD0INT
  B:00E8H.0       SYMBOL        AD0LJST
  B:00E8H.6       SYMBOL        AD0TM
  B:00E8H.1       SYMBOL        AD0WINT
  B:00E8H.4       SYMBOL        AD2BUSY
  B:00E8H.1       SYMBOL        AD2CM0
  B:00E8H.2       SYMBOL        AD2CM1
  B:00E8H.3       SYMBOL        AD2CM2
  B:00E8H.7       SYMBOL        AD2EN
  B:00E8H.5       SYMBOL        AD2INT
  B:00E8H.6       SYMBOL        AD2TM
  B:00E8H.0       SYMBOL        AD2WINT
  D:00BEH         SYMBOL        ADC0
  D:00BCH         SYMBOL        ADC0CF
  D:00E8H         SYMBOL        ADC0CN
  D:00C4H         SYMBOL        ADC0GT
  D:00C5H         SYMBOL        ADC0GTH
  D:00C4H         SYMBOL        ADC0GTL
  D:00BFH         SYMBOL        ADC0H
  D:00BEH         SYMBOL        ADC0L
  D:00C6H         SYMBOL        ADC0LT
  D:00C7H         SYMBOL        ADC0LTH
  D:00C6H         SYMBOL        ADC0LTL
  D:00BEH         SYMBOL        ADC2
  D:00BCH         SYMBOL        ADC2CF
  D:00E8H         SYMBOL        ADC2CN
  D:00C4H         SYMBOL        ADC2GT
  D:00C6H         SYMBOL        ADC2LT
  D:00BAH         SYMBOL        AMX0CF
  D:00BBH         SYMBOL        AMX0SL
  D:00BAH         SYMBOL        AMX2CF
  D:00BBH         SYMBOL        AMX2SL
  D:00F0H         SYMBOL        B
  B:00C0H.7       SYMBOL        BUSY
  B:00D8H.0       SYMBOL        CCF0
  B:00D8H.1       SYMBOL        CCF1
  B:00D8H.2       SYMBOL        CCF2
  B:00D8H.3       SYMBOL        CCF3
  B:00D8H.4       SYMBOL        CCF4
  B:00D8H.5       SYMBOL        CCF5
  D:00A1H         SYMBOL        CCH0CN
  D:00A3H         SYMBOL        CCH0LC
  D:009AH         SYMBOL        CCH0MA
BL51 BANKED LINKER/LOCATER V6.22                                                      01/05/2016  18:47:25  PAGE 87


  D:00A2H         SYMBOL        CCH0TN
  B:00D8H.7       SYMBOL        CF
  D:008EH         SYMBOL        CKCON
  D:0097H         SYMBOL        CLKSEL
  B:0088H.7       SYMBOL        CP0EN
  B:0088H.4       SYMBOL        CP0FIF
  B:0088H.0       SYMBOL        CP0HYN0
  B:0088H.1       SYMBOL        CP0HYN1
  B:0088H.2       SYMBOL        CP0HYP0
  B:0088H.3       SYMBOL        CP0HYP1
  B:0088H.6       SYMBOL        CP0OUT
  B:0088H.5       SYMBOL        CP0RIF
  B:0088H.7       SYMBOL        CP1EN
  B:0088H.4       SYMBOL        CP1FIF
  B:0088H.0       SYMBOL        CP1HYN0
  B:0088H.1       SYMBOL        CP1HYN1
  B:0088H.2       SYMBOL        CP1HYP0
  B:0088H.3       SYMBOL        CP1HYP1
  B:0088H.6       SYMBOL        CP1OUT
  B:0088H.5       SYMBOL        CP1RIF
  B:00C8H.0       SYMBOL        CPRL2
  B:00C8H.0       SYMBOL        CPRL3
  B:00C8H.0       SYMBOL        CPRL4
  D:0088H         SYMBOL        CPT0CN
  D:0089H         SYMBOL        CPT0MD
  D:0088H         SYMBOL        CPT1CN
  D:0089H         SYMBOL        CPT1MD
  B:00D8H.6       SYMBOL        CR
  B:00C8H.1       SYMBOL        CT2
  B:00C8H.1       SYMBOL        CT3
  B:00C8H.1       SYMBOL        CT4
  B:00D0H.7       SYMBOL        CY
  D:00D2H         SYMBOL        DAC0
  D:00D4H         SYMBOL        DAC0CN
  D:00D3H         SYMBOL        DAC0H
  D:00D2H         SYMBOL        DAC0L
  D:00D2H         SYMBOL        DAC1
  D:00D4H         SYMBOL        DAC1CN
  D:00D3H         SYMBOL        DAC1H
  D:00D2H         SYMBOL        DAC1L
  D:0082H         SYMBOL        DP
  D:0083H         SYMBOL        DPH
  D:0082H         SYMBOL        DPL
  B:00A8H.7       SYMBOL        EA
  D:0048H         SYMBOL        EA_SAVE?044
  D:00E6H         SYMBOL        EIE1
  D:00E7H         SYMBOL        EIE2
  D:00F6H         SYMBOL        EIP1
  D:00F7H         SYMBOL        EIP2
  D:00A3H         SYMBOL        EMI0CF
  D:00A2H         SYMBOL        EMI0CN
  D:00A1H         SYMBOL        EMI0TC
  B:00C0H.6       SYMBOL        ENSMB
  B:00A8H.4       SYMBOL        ES0
  B:00A8H.1       SYMBOL        ET0
  B:00A8H.3       SYMBOL        ET1
  B:00A8H.5       SYMBOL        ET2
BL51 BANKED LINKER/LOCATER V6.22                                                      01/05/2016  18:47:25  PAGE 88


  B:00A8H.0       SYMBOL        EX0
  B:00A8H.2       SYMBOL        EX1
  B:00C8H.3       SYMBOL        EXEN2
  B:00C8H.3       SYMBOL        EXEN3
  B:00C8H.3       SYMBOL        EXEN4
  B:00C8H.6       SYMBOL        EXF2
  B:00C8H.6       SYMBOL        EXF3
  B:00C8H.6       SYMBOL        EXF4
  B:00D0H.5       SYMBOL        F0
  B:00D0H.1       SYMBOL        F1
  N:0000H         SYMBOL        FDL
  D:00B7H         SYMBOL        FLACL
  B:0088H.0       SYMBOL        FLHBUSY
  D:00B7H         SYMBOL        FLSCL
  D:0088H         SYMBOL        FLSTAT
  D:0049H         SYMBOL        I?045
  D:00A8H         SYMBOL        IE
  B:0088H.1       SYMBOL        IE0
  B:0088H.3       SYMBOL        IE1
  D:00B8H         SYMBOL        IP
  B:0088H.0       SYMBOL        IT0
  B:0088H.2       SYMBOL        IT1
  C:FFC0H         SYMBOL        L?0061
  D:0044H         SYMBOL        LASTPAGE?040
  D:0093H         SYMBOL        MAC0ACC0
  D:0094H         SYMBOL        MAC0ACC1
  D:0095H         SYMBOL        MAC0ACC2
  D:0096H         SYMBOL        MAC0ACC3
  D:00C2H         SYMBOL        MAC0AH
  D:00C1H         SYMBOL        MAC0AL
  D:0092H         SYMBOL        MAC0BH
  D:0091H         SYMBOL        MAC0BL
  D:00C3H         SYMBOL        MAC0CF
  B:00C0H.3       SYMBOL        MAC0HO
  B:00C0H.0       SYMBOL        MAC0N
  D:0097H         SYMBOL        MAC0OVR
  D:00CFH         SYMBOL        MAC0RNDH
  D:00CEH         SYMBOL        MAC0RNDL
  B:00C0H.1       SYMBOL        MAC0SO
  D:00C0H         SYMBOL        MAC0STA
  B:00C0H.2       SYMBOL        MAC0Z
  B:0098H.5       SYMBOL        MCE1
  B:00F8H.5       SYMBOL        MODF
  B:00F8H.2       SYMBOL        NSSMD0
  B:00F8H.3       SYMBOL        NSSMD1
  D:008BH         SYMBOL        OSCICL
  D:008AH         SYMBOL        OSCICN
  D:008CH         SYMBOL        OSCXCN
  B:00D0H.2       SYMBOL        OV
  B:00D0H.0       SYMBOL        P
  D:0080H         SYMBOL        P0
  D:00A4H         SYMBOL        P0MDOUT
  D:0090H         SYMBOL        P1
  D:00ADH         SYMBOL        P1MDIN
  D:00A5H         SYMBOL        P1MDOUT
  D:00A0H         SYMBOL        P2
  D:00A6H         SYMBOL        P2MDOUT
BL51 BANKED LINKER/LOCATER V6.22                                                      01/05/2016  18:47:25  PAGE 89


  D:00B0H         SYMBOL        P3
  D:00A7H         SYMBOL        P3MDOUT
  D:00C8H         SYMBOL        P4
  D:009CH         SYMBOL        P4MDOUT
  D:00D8H         SYMBOL        P5
  D:009DH         SYMBOL        P5MDOUT
  D:00E8H         SYMBOL        P6
  D:009EH         SYMBOL        P6MDOUT
  D:00F8H         SYMBOL        P7
  D:009FH         SYMBOL        P7MDOUT
  D:004BH         SYMBOL        PAGE?046
  D:00F9H         SYMBOL        PCA0
  D:00D8H         SYMBOL        PCA0CN
  D:00FBH         SYMBOL        PCA0CP0
  D:00FDH         SYMBOL        PCA0CP1
  D:00E9H         SYMBOL        PCA0CP2
  D:00EBH         SYMBOL        PCA0CP3
  D:00EDH         SYMBOL        PCA0CP4
  D:00E1H         SYMBOL        PCA0CP5
  D:00FCH         SYMBOL        PCA0CPH0
  D:00FEH         SYMBOL        PCA0CPH1
  D:00EAH         SYMBOL        PCA0CPH2
  D:00ECH         SYMBOL        PCA0CPH3
  D:00EEH         SYMBOL        PCA0CPH4
  D:00E2H         SYMBOL        PCA0CPH5
  D:00FBH         SYMBOL        PCA0CPL0
  D:00FDH         SYMBOL        PCA0CPL1
  D:00E9H         SYMBOL        PCA0CPL2
  D:00EBH         SYMBOL        PCA0CPL3
  D:00EDH         SYMBOL        PCA0CPL4
  D:00E1H         SYMBOL        PCA0CPL5
  D:00DAH         SYMBOL        PCA0CPM0
  D:00DBH         SYMBOL        PCA0CPM1
  D:00DCH         SYMBOL        PCA0CPM2
  D:00DDH         SYMBOL        PCA0CPM3
  D:00DEH         SYMBOL        PCA0CPM4
  D:00DFH         SYMBOL        PCA0CPM5
  D:00FAH         SYMBOL        PCA0H
  D:00F9H         SYMBOL        PCA0L
  D:00D9H         SYMBOL        PCA0MD
  D:0087H         SYMBOL        PCON
  D:0089H         SYMBOL        PLL0CN
  D:008DH         SYMBOL        PLL0DIV
  D:008FH         SYMBOL        PLL0FLT
  D:008EH         SYMBOL        PLL0MUL
  B:00B8H.4       SYMBOL        PS
  D:00B1H         SYMBOL        PSBANK
  D:008FH         SYMBOL        PSCTL
  D:00D0H         SYMBOL        PSW
  B:00B8H.1       SYMBOL        PT0
  B:00B8H.3       SYMBOL        PT1
  B:00B8H.5       SYMBOL        PT2
  D:0046H         SYMBOL        PWRITE?043
