:10975800436F707972696768742028432920323012
:1097680030342D3920547261636B205379737465DA
:109778006D7320546563686E6F6C6F676965732CD1
:10978800204C4C43000200FF000000C0C1C1810111
:1097980040C30103C00280C241C60106C00780C79A
:1097A800410500C5C1C4810440CC010CC00D80CD69
:1097B800410F00CFC1CE810E400A00CAC1CB810B38
:1097C80040C90109C00880C841D80118C01980D90A
:1097D800411B00DBC1DA811A401E00DEC1DF811F98
:1097E80040DD011DC01C80DC411400D4C1D58115A9
:1097F80040D70117C01680D641D20112C01380D3BA
:10980800411100D1C1D0811040F00130C03180F148
:10981800413300F3C1F28132403600F6C1F7813797
:1098280040F50135C03480F4413C00FCC1FD813D68
:1098380040FF013FC03E80FE41FA013AC03B80FB39
:10984800413900F9C1F88138402800E8C1E9812987
:1098580040EB012BC02A80EA41EE012EC02F80EF99
:10986800412D00EDC1EC812C40E40124C02580E5A8
:10987800412700E7C1E68126402200E2C1E38123B7
:1098880040E10121C02080E041A00160C06180A1C9
:10989800416300A3C1A28162406600A6C1A7816797
:1098A80040A50165C06480A4416C00ACC1AD816D68
:1098B80040AF016FC06E80AE41AA016AC06B80AB39
:1098C800416900A9C1A88168407800B8C1B9817907
:1098D80040BB017BC07A80BA41BE017EC07F80BF99
:1098E800417D00BDC1BC817C40B40174C07580B5A8
:1098F800417700B7C1B68176407200B2C1B38173B7
:1099080040B10171C07080B041500090C191815147
:1099180040930153C052809241960156C057809798
:1099280041550095C1948154409C015CC05D809D67
:10993800415F009FC19E815E405A009AC19B815B36
:1099480040990159C058809841880148C049808988
:10995800414B008BC18A814A404E008EC18F814F96
:10996800408D014DC04C808C41440084C1858145A7
:1099780040870147C046808641820142C0438083B8
:0999880041410081C18081404091
:10B1D10050001B0000000000000000000000000003
:10B1E100000000430C32000000410C3100410CB55D
:10B1F1000A41000500027900000275000050002F8D
:10B20100000000000000000000000000000000003D
:10B21100017D004102B500410CBC0042000200006A
:10B22100410CB8004202780000420057000042027F
:10B23100C800A0410CB700410CBB004202CB00008A
:10B2410041000100410004004102FB00410BEB0001
:10B25100410CB600027E0000027700004202CE00DF
:10B26100004102CA004102FC0041000000410CBD46
:10B2710000410018004102FA0044002BFFFFFFFFCC
:10B2810044003FFFFFFFFF420016FFFF420019FF8E
:05B29100FF4102FD0475
:1015AF00E4F52DF52CF52BF52A900CE1F0A374063C
:1015BF00F075840F75FFDE75FFAD12BCBF12B9E772
:1015CF00C2B6C2B5C2B4120026753E01753F097589
:1015DF0040557B017A0C792F12B0EF12AFC1900CEE
:1015EF00B57414F0E49002CAF012ABB01252BAE420
:1015FF00900000F0900000E0FFC3942A5018EF75A0
:10160F00F015A424D0F582E43402F583E4F09000C1
:10161F0000E004F080DEE4900000F012BBA17F0038
:10162F007E9612C05F12C12312BE95E490028FF016
:10163F009002A27402F09002AB744EF07B017A021A
:10164F0079FE90029E1230657A0979579002B11295
:10165F0030657A07793890029B1230657A0B79ECF6
:10166F009002AE123065E490028EF09002A104F069
:10167F00900298744EF0E49002A3F0A3F0900290C1
:10168F00F0A3F09002ADF090029AF09002ACF090BF
:10169F000299F01BFAF99002A81230659002A51278
:1016AF0030659002951230659002921230650B7A78
:1016BF0002798E7F007EC27D017C00129BC8900054
:1016CF0018E07B017A0279A160067F807E25800475
:1016DF007F007EE17D007C00129BC87B017A02793E
:1016EF007E9000531230657A0279B6900050123016
:1016FF0065E490004CF0A3F0900056F0900018E0D5
:10170F00600312C10D20E813782A122FA57B807A6F
:0B171F009679987800D3122EB850EA9B
:10172A00900CC0122FD10000AFC8E4FFFEFDFC9060
:10173A000CC0122F89D3122EA24017900CC0122F60
:10174A007D74FFFBFAF9F8122D4F900CC0122FC5C9
:02175A0080D835
:10175C00E49002CEF0A3F0F53E753F00754077FBA8
:0F176C007A00797E12AE80D2AF900018E060351F
:10177B00900CC4122FD100006978E4FFFEFDFC90A1
:10178B000CC4122F89D3122EA24017900CC4122F07
:10179B007D74FFFBFAF9F8122D4F900CC4122FC574
:0217AB0080D8E4
:1017AD00128BC21200A6900CBD7401F0E490026B76
:1017BD00F0A3F0A3F0900277F0900271F0A3F090F7
:1017CD00026FF0A3F0A2DA3390026EF0900279E08E
:1017DD002458FE900278E03400900275F0A3CEF00C
:1017ED00900057E0FCA3E0FD2406FEE43C9002735C
:1017FD00F0A3CEF0ED2405FEE43C900CDFF0A3CE7B
:10180D00F0E5D854037002806C7B017A007959752C
:10181D0058007559037F107E0212B6BC9001FFE08F
:10182D00540F900008F09001FFE054F0C4540F9055
:10183D000009F0900008E06403702AE5D85403FF16
:10184D00BF020890026B7404F0802E900009E090A6
:10185D00026BB403097403F0A37401F0801B7401CF
:10186D00F0A3F08014900009E0B4030890026B74AB
:10187D0002F08005E490026BF0E4FFFED390095670
:10188D00E09F900955E09E401374592FF582740026
:10189D003EF583E4F00FBF00010E80E0900CA6E052
:1018AD00F46009E06006900C3174E0F09002B5E050
:1018BD006020C3900020E094B890001FE0940B507E
:0118CD001109
:1018CE0012A71812007E8F38E53830E7F6C2FF8077
:0118DE00FE0B
:0B18DF0090026BE064046003021A4AF0
:1018EA00F538F539900057E0FAA3E0FB900CDFE0F9
:1018FA00B50212A3E0B5030D753801900CDFE4754B
:10190A00F001122C3C30DB1490026DE06404700389
:10191A000219D97404F07538010219D990026DE0E0
:10192A00B404277402F0900279E02403FE9002784E
:10193A00E03400900275F0A3CEF0A2DAE43390020C
:10194A006EF0E4900277F0753801900275E0FEA31C
:10195A00E0FF900278E0FCA3E0FD6F7002EC6E708D
:10196A006EA2DA33FF90026EE0FE6F70309002775B
:10197A00E0C394025005E004F08047EE6010900244
:10198A006DE06402603C7402F075380180349002A4
:10199A006DE06401602C7401F0F538802590026DC9
:1019AA00E0640360067403F075380190026EE0701B
:1019BA00047F0180027F0090026EEFF0900277743C
:1019CA0001F0ED2458FEE43C900275F0A3CEF090AD
:1019DA00026CE06004A3E0701790026D7401F0904D
:1019EA00026CF0EB2405FEE43A900273F0A3CEF009
:1019FA00900273E0FEA3E0FF900057E0B50619A33A
:101A0A00E0B50714900273E475F00A122C3C9002B8
:101A1A006DE0B40103753901900C31E0B4E103E4DF
:101A2A00F539E539601A90026C7405F0900279E094
:101A3A002403FE900278E03400900271F0A3CEF005
:101A4A00900271E0FEA3E0FF900278E0FCA3E0FDC3
:101A5A006F7002EC6E6003021AE490026CE024FDDF
:101A6A00605324FE601A1460522404706D90026C54
:101A7A007403F0ED2450FEE43C900271F0A3CEF022
:101A8A0090026CE0B405177406F0900279E02428FD
:101A9A00FE900278E03400900271F0A3CEF090023A
:101AAA006BE024FD600B1460042403702DD2CC80FB
:101ABA0029D2CC802590026C7404F090026CE0B4B8
:101ACA0006037401F090026BE024FD600B146004BD
:101ADA0024037006C2CC8002C2CC90029212305CFF
:051AEA00E94A4B602BEE
:101AEF0090029212305C8B388A39893A7B007A00E7
:101AFF007900900292123065AB38AA39A93AE4FF07
:0B1B0F00124100900CDDEEF0A3EFF09F
:101B1A00900CA5E020E003D38001C35003021BC54B
:101B2A009002CFE094F09002CEE094005003021BA2
:011B3A00C5E5
:101B3B0012A71812007E8F38E53830E7F690026B4B
:0D1B4B00E06404706E90026DE0640160665D
:101B5800900CC8122FD1000DBBA0E4FFFEFDFC9035
:101B68000CC8122F89D3122EA24017900CC8122F1E
:101B78007D74FFFBFAF9F8122D4F900CC8122FC58F
:021B880080D803
:021B8A00D2CCBB
:101B8C00900CCC122FD100112A88E4FFFEFDFC90A2
:101B9C000CCC122F89D3122EA24017900CCC122FE2
:101BAC007D74FFFBFAF9F8122D4F900CCC122FC557
:021BBC0080D8CF
:071BBE00C2FFE4F5F880FE10
:101BC50020E803021C72C39002CFE094099002CE74
:101BD500E094005003021C6B900C31E02420600A55
:0A1BE50014606014606724E2707C55
:101BEF00900CA5E030E175126FE9900057E0FEA36D
:101BFF00E0FF900CA8E02FFF900CA7E03E900CBEEA
:101C0F00F0A3EFF0900278E0F538A3E0F539753ED8
:101C1F0000753F007540777B007A00797E128EF554
:101C2F00900005EFF07008C2B6900C31F0802D9047
:091C3F000C3174E1F0D2B68023EF
:101C4800900CA5E030E11C12A720900CA6E0F460EF
:101C58000BE06008900C3174E0F08005E4900C31E2
:101C6800F0C2B5E49002CEF0A3F0900CB7E0700398
:101C7800021DB8E4F09002FBE0F46003021D4990F5
:101C8800026BE064046003021D3D90026DE0B40441
:031C980036D2CC75
:101C9B00900CD0122FD10001B774E4FFFEFDFC9025
:101CAB000CD0122F89D3122EA24017900CD0122FCA
:101CBB007D74FFFBFAF9F8122D4F900CD0122FC543
:021CCB0080D8BF
:0A1CCD00C2CC90026DE06401606675
:101CD700900CD4122FD1000DBBA0E4FFFEFDFC90A9
:101CE7000CD4122F89D3122EA24017900CD4122F86
:101CF7007D74FFFBFAF9F8122D4F900CD4122FC503
:021D070080D882
:021D0900D2CC3A
:101D0B00900CD8122FD100112A88E4FFFEFDFC9015
:101D1B000CD8122F89D3122EA24017900CD8122F49
:101D2B007D74FFFBFAF9F8122D4F900CD8122FC5CA
:021D3B0080D84E
:101D3D00C2B3C2B6C2B5C2B4C2FF80FE9002FBE010
:101D4D00FF64F07022900C31EFF0E4F57EF57F909A
:101D5D00000574FFF0D2B3D2B6D2B5D2B4C2A85337
:101D6D00E7FD53E7BF8010EFB4F113900C31F0C2D3
:101D7D00B3C2B6C2B5C2B4E49002FBF0802DEF64DD
:101D8D00F27028900C31EFF0D2B3D2B6D2B5D2B4F6
:101D9D00900C30E024FFFD900C2FE034FFFCE4FBB1
:101DAD00FFFE12BAC8E4F58443EF01900C31E0FF59
:101DBD0064E06008EF64E160030218B99002B5E0D9
:101DCD007003021F18D3900020E094B890001FE01C
:101DDD00940B4007E49002B5F080069002B57401B3
:101DED00F0C3E57A940AE5796480948040067579AC
:101DFD0000757A09900018E06007E49002B4F08055
:101E0D0035900021E0FEA3E0FFEF24FBFFEE34EB65
:101E1D00FEE434FFFDE434FFFCE47BE87A03F9F8DB
:101E2D00122D6AE47BE57A24F9F812BF249002B4EE
:101E3D00EFF0E024CEF0900C31E064E16003021885
:101E4D00B99002FDE060030218B9C3E576940AE586
:101E5D007564809480400675750075760990001D37
:101E6D00E0540FFD90001BE0540FC4F854F0C8E48B
:101E7D00C4540F482DFF90006E75F033E57A123083
:101E8D0040E57975F033A42583F58375F003E57688
:101E9D00123040E57575F003A42583F583EFF090BE
:101EAD00001BA3E0FF90006F75F033E57A12304010
:101EBD00E57975F033A42583F58375F003E5761286
:101ECD003040E57575F003A42583F583EFF09000A0
:101EDD001DA3E0FF90007075F033E57A123040E5F8
:101EED007975F033A42583F58375F003E57612300B
:101EFD0040E57575F003A42583F583EFF00576E5D0
:101F0D0076700205751291DB0218B99002ADE0FFF3
:0A1F1D009002ACE06F70030221BBDC
:101F2700EF75F0DCA4FF9002B112305CE92FF9EAFB
:101F370035F08B38F539893A9002ADE0FFB40204E9
:101F47007F008003EF04FF9002ADEFF09002B4E052
:101F5700FF90006D75F033E57A123040E57975F042
:101F670033A42583F583EFF0AE79AF7A7C007D3318
:101F7700122B9F74592FF974003E753E01F53F8966
:101F870040AB38AA39A93A1249EB90006975F0338A
:101F9700E57A123040E57975F033A42583F583E0BF
:101FA70054E075F008A4FFAEF090006A75F033E5D1
:101FB7007A123040E57975F033A42583F583E0FD87
:101FC700EEF52EEF4DF52FE52E30E20744F8F52E0E
:101FD700852F2F90006975F033E57A123040E57947
:101FE70075F033A42583F583E0541C75F040A4FFF6
:101FF700AEF090006B75F033E57A123040E57975F5
:10200700F033A42583F583E0FDEEF530EF4DF53190
:10201700E53030E20744F8F530853131AC30AD3189
:10202700EC1227A0C004C005C006C007AC30AD3114
:10203700EC1227A0D003D002D001D000122577C020
:1020470004C005C006C007AC2EAD2FEC1227A0C0F8
:1020570004C005C006C007AC2EAD2FEC1227A0D0D8
:1020670003D002D001D000122577D003D002D001CF
:10207700D00012248612B4D47B5C7A8F7982783FA1
:102087001225778F378E368D358C347F747ED17DD0
:102097000D7C40AB37AA36A935A83412257712270D
:1020A700D98E328F33900C31E064E17066E53345A9
:1020B70032601C900057E0FEA3E0FF900CA8E02FD1
:1020C700FF900CA7E03E900CBEF0A3EFF080449089
:1020D7000CBEE0FEA3E0FF900057E06E7003A3E0A4
:1020E7006F7030900CA7E0F47003A3E0F4602490C5
:1020F7000CA7E07002A3E0601A12A720900CA6E0DC
:10210700F4600BE06008900C3174E0F08005E49017
:102117000C31F0900C31E064E060030218B9900CC8
:10212700E1E07002A3E0600D900CE174FFF5F0129E
:102137002C3C0218B9900CBBE0D39405500302184D
:10214700B99002CCE0942C9002CBE09401400302BA
:1021570018B9900CA6E0FFC3E5339FE53294005011
:10216700030218B9900C3174E1F0126FE99000572F
:10217700E0FEA3E0FF900CA8E02FFF900CA7E03E45
:10218700900CBEF0A3EFF0753E00753F00754077E9
:102197007B007A00797E128EF5900005EFF07009CA
:1021A700C2B6900C31F00218B9900C3174E1F0D23C
:0121B700B671
:1021B8000218B9900CBCE0FD7017900002E0FEA375
:1021C800E0FF900278E06E7003A3E06F60030218EE
:1021D800B9900CB5E0FF74A08FF08475F00AA4FFE5
:1021E800900279E02401FB900278E03400CB2FFEC6
:1021F800EB35F0900002F0A3CEF0ED700E900CBB22
:10220800F090000274FFF5F0122C3C900C31E0FFC6
:1022180064E160030224649002FDE0FE7003022280
:10222800BFEF64E160030222BF900CBCE0700302C0
:10223800246490026BE0FF6054900C31E064E1701C
:012248004C49
:10224900EFB4040790026DE0B4040890026BE064F7
:10225900046039900CB5E0900CDCB428057406F0E4
:1022690080037404F0900CDCE0B5062090026C74D5
:1022790002F090026FE0FEA3E0FF900279E02FFFE9
:0C228900900278E03E900271F0A3EFF0AC
:102295009002FDE014F06003022464F575F576F50F
:1022A50079F57A900956E024FFFE900955E034FF50
:1022B500900006F0A3CEF0022464900C31E0FF6498
:1022C500E06008EF64E16003022464C3E576940AE4
:1022D500E575648094804003022461E57645757058
:1022E5007A900C90E0540FFD900C8EE0540FC4F8DA
:1022F50054F0C8E4C4540F482DFF90006E75F033B8
:10230500E57A123040E57975F033A42583F58375B8
:10231500F003E576123040E57575F003A42583F5E5
:1023250083EFF0900C8EE0A3E0FF90006F75F03323
:10233500E57A123040E57975F033A42583F5837588
:10234500F003E576123040E57575F003A42583F5B5
:1023550083EFF0900C90E0A302242B90006B75F0B6
:1023650033E57A123040E57975F033A42583F5839A
:1023750075F003E576123040E57575F003A4258305
:10238500F583E0FF90006E75F033E57A123040E595
:102395007975F033A42583F58375F003E57612305E
:1023A50040E57575F003A42583F583EFF090006C87
:1023B50075F033E57A123040E57975F033A425835D
:1023C500F58375F003E576123040E57575F003A4E5
:1023D5002583F583E0FF90006F75F033E57A1230C1
:1023E50040E57975F033A42583F58375F003E5762B
:1023F500123040E57575F003A42583F583EFF09061
:10240500006D75F033E57A123040E57975F033A447
:102415002583F58375F003E576123040E57575F093
:1024250003A42583F583E0FF90007075F033E57A0A
:10243500123040E57975F033A42583F58375F003F3
:10244500E576123040E57575F003A42583F583EF35
:10245500F00576E576700205750222D012B57AE4AC
:10246500900CBCF09002FCF0900CBBE06007B2B59C
:0A247500E4F00218B9C2B50218B96C
:10B57A00C3E57A9409E57964809480500302B6148D
:10B58A00900955E0FCA3E0FD7B017A007959857E9C
:10B59A005D857F5E7F027E0012B7E1E57824FFFFBA
:10B5AA00E57734FFFEC3E57F9FE57E9E402AAD78AE
:10B5BA00AC777F017E0012B96C900005E0FFAB7892
:10B5CA00AA77AD7FAC7E12AD22E4900C31F0900CDC
:10B5DA00BBF0C2B6C2B58008057FE57F7002057E62
:10B5EA00E4FFFED3900956E09F900955E09E401370
:10B5FA0074592FF58274003EF583E4F00FBF000101
:10B60A000E80E0E4F579F57A8008057AE57A700229
:07B61A000579E4F575F576F2
:01B621002206
:08A71800C2B3C2B6C2B5C2B45F
:10A72000C2B6C2B5900C31E064E170279002FDE042
:10A7300070119002CAE0600BAD78AC777F017E00AB
:10A7400012B96C900005E0FFAB78AA77AD7FAC7EC4
:0BA7500012AD2290026CE064037070F8
:10A75B00900CE3122FD100015F90E4FFFEFDFC9003
:10A76B000CE3122F89D3122EA24017900CE3122F59
:10A77B007D74FFFBFAF9F8122D4F900CE3122FC5E5
:02A78B0080D874
:03A78D00E4F5C828
:10A79000900CE7122FD100020F58E4FFFEFDFC9051
:10A7A0000CE7122F89D3122EA24017900CE7122F1C
:10A7B0007D74FFFBFAF9F8122D4F900CE7122FC5AC
:02A7C00080D83F
:10A7C20090026C7401F0A304F090026BE0FFB404F9
:10A7D2000890026DE064046013EF6404700302A841
:0CA7E2009D90026CE06404600302A89DDE
:10A7EE00900CEB122FD100015F90E4FFFEFDFC9068
:10A7FE000CEB122F89D3122EA24017900CEB122FB6
:10A80E007D74FFFBFAF9F8122D4F900CEB122FC549
:02A81E0080D8E0
:10A8200090026BE024FD603F1460042403706ED23C
:01A83000CC5B
:10A83100900CEF122FD10001B774E4FFFEFDFC90E4
:10A841000CEF122F89D3122EA24017900CEF122F6A
:10A851007D74FFFBFAF9F8122D4F900CEF122FC502
:02A8610080D89D
:06A86300C2CC8036D2CC0D
:10A86900900CF3122FD10001B774E4FFFEFDFC90A8
:10A879000CF3122F89D3122EA24017900CF3122F2A
:10A889007D74FFFBFAF9F8122D4F900CF3122FC5C6
:02A8990080D865
:0CA89B00C2CC90026C7401F0E4F5C822FD
:106FE900900278E0F53DA3E0F53EE4F579F57AF510
:106FF90075F576900CBBF0A3F0900955E0FEA3E07F
:10700900FF7B017A00795975580075590112B6BC90
:1070190090005CE0540F900BEBF090005DE0900C59
:10702900B6F090005BE075F01690012E123040E04A
:10703900A3E0540F9002CDF090005BE075F016903C
:107049000130123040E0FFA3E09002C6CFF0A3EF79
:10705900F0900BEBE024FC601424027027900CB52F
:107069007414F090026FE4F0A374608026900CB55C
:107079007428F090026FE4F0A37462F09002FD743A
:1070890006F08016900CB5740AF090026F7401F046
:10709900A37458F09002FD7404F0900CB6E09002CD
:1070A900CAF09002C6E0FCA3E0FD4C700890000C09
:1070B900F0A3F080679002CDE0701E1227A0A8040B
:1070C900A905AA06AB07E4FFFE7D7A7C4812268053
:1070D9001227D97C007DF080389002CDE0B40F03EF
:1070E9007410F09002C6E0FCA3E0FDE41227A0A80A
:1070F90004A905AA06AB07E4FFFE7D7A7C4812269F
:10710900801227D99002CDE0FD74788DF084FD7C42
:1071190000122B9F90000CEEF0A3EFF0E5D854037A
:1071290070079002CAF00274067B017A00795975DA
:1071390058007559037F107E0212B6BCE4F53BF581
:107149003C90007175F028E53C123040E53B75F044
:1071590028A42583F583E024FB601524FB702274A1
:107169007A253CF5827402353BF5837403F080205F
:10717900747A253CF5827402353BF5837402F080FC
:107189000F747A253CF5827402353BF5837404F05B
:10719900053CE53C7002053B6404453B70A3E4F5FE
:1071A9003BF53C90007E75F028E53C123040E53B0C
:1071B90075F028A42583F583E0FDE53C25E0FFE58E
:1071C9003B33FE740F2FF58274003EF583EDF0908A
:1071D900007275F028E53C123040E53B75F028A4B3
:1071E9002583F583122F8990007675F028E53C12E6
:1071F9003040E53B75F028A42583F583122F7D12D5
:107209002482C004C005C006C00790007275F0282A
:10721900E53C123040E53B75F028A42583F583123F
:107229002F8990007A75F028E53C123040E53B75CE
:10723900F028A42583F583122F7D122482D003D050
:1072490002D001D000122680E4FBFAF9F812271DBA
:1072590090007275F028600540030272E4E53C1263
:107269003040E53B75F028A42583F583122F8990DA
:10727900007675F028E53C123040E53B75F028A40E
:107289002583F583122F7D122482C004C005C00610
:10729900C00790007275F028E53C123040E53B7557
:1072A900F028A42583F583122F8990007A75F02898
:1072B900E53C123040E53B75F028A42583F583129F
:1072C9002F7D122482D003D002D001D00012268053
:1072D900C004C005C006C00702736AE53C1230400D
:1072E900E53B75F028A42583F583122F8990007654
:1072F90075F028E53C123040E53B75F028A425835C
:10730900F583122F7D122482C004C005C006C00770
:1073190090007275F028E53C123040E53B75F02885
:10732900A42583F583122F8990007A75F028E53C0E
:10733900123040E53B75F028A42583F583122F7D93
:10734900122482D003D002D001D000122680122745
:107359008AAB07AA06A905A804C000C001C002C0DB
:107369000390007F75F028E53C123040E53B75F04D
:1073790028A42583F583E0FF90008075F028E53C7B
:10738900123040E53B75F028A42583F583E0C39FBF
:10739900FDE49400FCE41227A0D003D002D001D070
:1073A90000122577C004C005C006C00790007F758C
:1073B900F028E53C123040E53B75F028A42583F51B
:1073C90083E0FCE41227A5D003D002D001D000123B
:1073D90024861227D9AD07E53C25E0FFE53B33FEBE
:1073E900740E2FF58274003EF583EDF0053CE53C03
:1073F9007002053B6404453B60030271AC9002CA0C
:10740900E030E7034403F0E4F53BF53CD39009563B
:10741900E0953C900955E0953B40187459253CF599
:10742900827400353BF583E4F0053CE53C70DD05ED
:037439003B80D9BC
:01743C00222D
:0991DB009002CAE070030294AD99
:0391E400753B06D2
:1091E700AF3B9002CAE0FEA807088002C313D8FC71
:1091F70020E00302949FE53B1230F7937D009374C0
:1092070001926502926503922304922305921B063D
:109217000000940AE5D8F4F53C02940AAF3BEF331B
:1092270095E0FEEF25E0FFEE33FE741F2FF5827405
:10923700003EF583E0FEA3E0FFAD3BED3395E0FC98
:1092470074782DF58274023CF583E0FDEFA80508DC
:0E9257008005CEC313CE13D8F9F53C02940A5D
:10926500E4F53DAF3BEF3395E0FEEF25E0FFEE3350
:10927500FE741F2FF58274003EF583E0FEA3E0FF28
:10928500AD3BED3395E0FC74782DF58274023CF529
:1092950083E0FBEFA803088005CEC313CE13D8F9EE
:1092A500F53C74062DF58274003CF583E06402609C
:1092B5000302940AAF3BEF3395E0FEEF25E0FFEEA6
:1092C50033FE740B2FF58274003EF583E0602304B2
:1092D500604624FE706A740A2FF58274003EF58399
:1092E500E0FFE53CD39F40047F0180027F008F3D76
:1092F500804EAF3BEF3395E0FEEF25E0FFEE33FE0A
:10930500740A2FF58274003EF583E0B53C047F01B5
:1093150080027F008F3D8028AF3BEF3395E0FEEF65
:1093250025E0FFEE33FE740A2FF58274003EF583C7
:10933500E0FFE53CC39F50047F0180027F008F3D25
:10934500E53D6015E53B2402FF7401A8070880028E
:10935500C333D8FC42C802940AE53B2402FF7401DA
:0F936500A807088002C333D8FCF452C802940A48
:09937400900269E0F53C02940A44
:10937D00900269E0FEA3E0FFF53C90000CE0FCA339
:10938D00E0FD4C6078EF4E6074D3ED9FEC9E50384D
:10939D00E4F53DF53E7408253EF5827400353DF546
:1093AD0083E0B40113E53E2404FF7401A80708808F
:1093BD0002C333D8FCF452C8053EE53E7002053DAC
:1093CD006402453D70CF8035E4F53DF53E740825CA
:1093DD003EF5827400353DF583E0B40112E53E247F
:1093ED0004FF7401A807088002C333D8FC42C805E6
:0D93FD003EE53E7002053D6402453D70D026
:10940A0075450075460075473C900006E0FAA3E0F2
:10941A00FB7D017C007F017E0012B86B900006E0A4
:10942A007002A3E0600C90000674FFF5F0122C3C69
:10943A008063AD78AC777F017E0012B96CE5782441
:10944A00FFFFE57734FFFEC3E57F9FE57E9E40215F
:10945A00900005E0FFAB78AA77AD7FAC7E12AD2213
:10946A00E4900C31F0900CBBF0C2B6C2B5F5C880DE
:10947A0024E578157870021577900955E0FCA3E089
:10948A00FD24FFFEEC34FF900006F0A3CEF07F012E
:05949A007E0012BB354D
:0E949F00153BC3E53B6480948040030291E7D7
:0194AD00229C
:10BC0A008B5C8A5D895EE92DF9EA3C8B5FF5608978
:10BC1A0061E4F562F563C3856083856182E55E95BB
:10BC2A0082E55D9583502F785CE475F00112304C03
:10BC3A00122AF2FFE5636F25E0FFE433FE74912FC9
:10BC4A00F58274973EF583E562FFE493F562740129
:0ABC5A00936FF56380C0AE62AF6324
:01BC640022BD
:10AFC100E4900D83F07B017A0C793512BD16900C5B
:10AFD1009EE07004A3E064EE700C900CA0E070049D
:10AFE100A3E064086018900C9EE4F0A374EEF09066
:10AFF1000CA0E4F0A37408F0900D837401F0900CA0
:10B0010087E0B4FF0974C8F0900D837401F0900CCF
:10B0110086E0640160077401F0900D83F0900C2FBD
:10B02100E0FCA3E0FDB40015ECB41011900CA3E01A
:10B0310030E40AE054EFF0900D837401F0E4B505BB
:10B0410015ECB42011900CA3E020E40AE04410F0C8
:10B05100900D837401F0900C35E0FF12005E400DFD
:10B06100900C35E06007E4F0900D8304F0900C49FA
:10B07100E0FF12005E400D900C49E06007E4F090A3
:10B081000D8304F0900C5DE0FF12005E400D900C0A
:10B091005DE06007E4F0900D8304F0900CA6E0B44D
:10B0A100FF07E4F0900D8304F0900CA7E0B4FF11CA
:10B0B100A3E0B4FF0CE4900CA7F0A3F0900D83047F
:10B0C100F0900D83E0601012C0317B017A0C79356C
:10B0D1007D807C0012BA59900018E06010900CA598
:0DB0E100E030E4047F0080027F0112C0898E
:01B0EE00223F
:10C03100AF84E4F584781EF608F6A2AF33FEC2AFF2
:10C0410043B701758F0718E6FC08E6F5828C83E497
:0DC05100F0F58F53B7FEEE24FF92AF8F8401
:01C05E0022BF
:0ABA59008B4F8A5089518C528D5397
:10BA6300858454E4F584781EF608F6A2AF33FFC24A
:10BA7300AF43B701758F05E4F555F556C3E5569504
:10BA830053E5526480F8E5556480985029784FE473
:10BA930075F00112304C122AF2FE781E0806E618E1
:10BAA300860470010614F5828C83EEF00556E55684
:10BAB30070CA055580C6E4F58F53B7FEEF24FF9295
:04BAC300AF85548473
:01BAC700225C
:06BD16008B4F8A50895199
:10BD1C00858452E4F553F554F584A2AF33F555C23E
:10BD2C00AF758F04E4FFFE0554E554AC5370020567
:10BD3C005314F5828C83E493FD784FE475F0011273
:10BD4C00304CED122B6B0FBF00010EEF64804E7068
:0DBD5C00D6E4F58FE55524FF92AF855284A3
:01BD690022B7
:0EB7E1008E568F578C588D598B5A8A5B895C17
:09B7EF0012007EEF30E7F9C2F907
:10B7F800E4F561F5620562E5627002056164404541
:03B808006170F27A
:10B80B00E5576401455670047F8480027F871200E0
:10B81B003EE4FF12003EE4FF12003EE4FF12003E46
:10B82B00E4F55FF560C3E5609559E5586480F8E58C
:10B83B005F648098501DAB5AAA5BA95C85608285BA
:10B84B005F83122B0BFF12003E0560E56070D6057F
:10B85B005F80D2D2F9AD5EAC5DAF57AE5602B96C1C
:08B96C008E638F648C658D660B
:10B97400900955E0FEA3E0FF12B6228F6712007E05
:06B98400EF30E7F9C2F903
:10B98A00E4F568F5690569E569700205686440458A
:03B99A006870F2E0
:10B99D00E5676010E5646401456370047F83801280
:10B9AD007F86800EE5646401456370047F828002AA
:10B9BD007F8512003EE566AE657806CEA2E713CE12
:10B9CD0013D8F8FF12003EAF66EF25E025E0FF1219
:09B9DD00003EE4FF12003ED2F925
:01B9E600223E
:0CB86B008E3F8F408C418D428A438B44FD
:09B8770012007EEF30E7F9C2F97E
:10B88000E4F54AF54B054BE54B7002054A6440452B
:03B890004A70F209
:10B89300E5406401453F70047F8480027F87120086
:10B8A3003EE4FF12003EE5435403FF12003EAF4463
:10B8B300E54412003EE4F548F549C3E5499542E500
:10B8C300416480F8E548648098501DAB45AA46A9B9
:10B8D30047854982854883122B0BFF12003E054999
:0AB8E300E54970D6054880D2D2F97D
:01B8ED002238
:08BB35008E418F428C438D44C8
:09BB3D0012007EEF30E7F9C2F9B5
:10BB4600E4F547F5480548E5487002054764404571
:03BB56004770F243
:10BB5900E5426401454170047F8480027F871200B9
:10BB69003EE4FF12003EE4FF12003EE4FF12003EF5
:10BB7900E4F545F546C3E5469544E5436480F8E5B3
:10BB890045648098500F7FFF12003E0546E54670D8
:07BB9900E4054580E0D2F94C
:01BBA0002282
:02007E00C2F9C5
:10008000E4F573F5740574E5747002057364404516
:030090007370F298
:0C0093007FD712003EE4FF12003ED2F9BD
:01009F00223E
:0AB6BC008E538F548B558A56895720
:09B6C60012007EEF30E7F9C2F931
:10B6CF00E4F55CF55D055DE55D7002055C64404584
:03B6DF005C70F2AA
:10B6E2007FD212003EE559AE587806CEA2E713CEBD
:10B6F20013D8F8FF12003EAF59EF25E025E0FF1204
:10B70200003EE4FF12003EE4FF12003EE4FF12009E
:10B712003EE4FF12003EE4FF12003EE4F55AF55B00
:10B72200C3E55B9554E5536480F8E55A648098500C
:10B732001FE4FF12003EAB55AA56A957855B8285CE
:10B742005A83EF122B7D055BE55B70D4055A80D0DE
:02B75200D2F92A
:01B7540022D2
:08B622008E6A8F6B8C6C8D6D3C
:0CB62A00756E0112007EEF30E7F9C2F9E6
:10B63600E4F571F5720572E57270020571644045B4
:03B646007170F22E
:10B649007FD212003EE56DAE6C7806CEA2E713CE2E
:10B6590013D8F8FF12003EAF6DEF25E025E0FF1289
:10B66900003EE4FF12003EE4FF12003EE4FF120038
:10B679003EE4FF12003EE4FF12003EE4F56FF57070
:10B68900C3E570956BE56A6480F8E56F648098504E
:10B699001DE4FF12003EBFFF047F0180027F008F7F
:10B6A9006EEF600A0570E57070D6056F80D2D2F929
:02B6B900AF6E72
:01B6BB00226C
:04BE03008E528F5379
:09BE070012007EEF30E7F9C2F9E8
:10BE1000E4F554F5550555E5557002055464404563
:03BE20005470F269
:10BE23007F5012003EE553AE527806CEC313CE13B5
:10BE3300D8F9FF12003EAF53EF25E025E0FF1200D3
:08BE43003EE4FF12003ED2F9BB
:01BE4B0022D4
:04BE4C008E538F542E
:09BE500012007EEF30E7F9C2F99F
:10BE5900E4F555F5560556E5567002055564404515
:03BE69005570F21F
:10BE6C007F8112003EE554AE537806CEC313CE1339
:10BE7C00D8F9FF12003EAF54EF25E025E0FF120089
:08BE8C003EE4FF12003ED2F972
:01BE9400228B
:06BAC8008C4D8D4E8B4FEA
:10BACE00E54F6002C2B68E508F51D3E551954EE5CB
:10BADE0050954D504BE55154077034C3E54E95517A
:10BAEE00FFE54D9550FEC3EF9408EE94004020E51F
:10BAFE004F6008E551543F7002B2B6AF51AE5012CE
:10BB0E00BE0374072551F551E43550F5508007AF4B
:10BB1E0051AE5012BE4C0551E55170AE055080AA83
:06BB2E00E54F6002C2B603
:01BB340022EE
:06B0EF008B3B8A3C893D09
:06B0F500D2F8D2F9C2FA04
:10B0FB00E4F541F5420542E54270020541644045E5
:03B10B004170F29E
:02B10E00D2FA73
:10B11000E4F541F5420542E54270020541644045CF
:03B120004170F289
:10B1230012007EEF543C1230F7B1450CB14F14B10D
:10B13300591CB16324B17E2CB19934B1B43C0000E5
:10B14300B1D0AB3BAA3CA93D7402801CAB3BAA3CEB
:10B15300A93D74048012AB3BAA3CA93D7408800846
:10B16300AB3BAA3CA93D741075F000122D03AB3E16
:10B17300AA3FA940740175F008804FAB3BAA3CA9D4
:10B183003D741075F000122D03AB3EAA3FA9407425
:10B193000275F0108034AB3BAA3CA93D742075F0D6
:10B1A30000122D03AB3EAA3FA940740275F0108034
:10B1B30019AB3BAA3CA93D742075F000122D03ABDB
:0DB1C3003EAA3FA940740475F020122D0330
:01B1D000225C
:10FE00008E4E8F4F8E4E8F4FE4F550F551A2AF338B
:10FE1000F552C2AFE4F58443B701758F03C3E550D3
:10FE200094FC50168551828550837488F0E42551E6
:10FE3000F55174043550F55080E3E4F58FF550F535
:10FE400051F555F55675840FE55654037002B2B658
:10FE500012FFB58F57E55730E7F6C2F9E4F558F5CC
:10FE6000590559E559700205586440455870F27FAC
:10FE7000D212FFA4E556AE557806CEC313CE13D8E2
:10FE8000F9FF12FFA412FF9CE4FF12FFA4E4FF128B
:10FE9000FFA4E4FF12FFA4E4FF12FFA4E4FF12FF9B
:10FEA000A4E4F553F554E4FF12FFA474592554F566
:10FEB0008274003553F583EFF00554E55470020564
:10FEC00053C3E553940240DED2F9E4F584758F0103
:10FED000F553F55474592554F58274003553F58360
:10FEE000E0FF0551E551AC507002055014F5828CCD
:10FEF00083EFF00554E55470020553B400D6E55382
:10FF0000B402D1E4F58F0556E55670020555C39449
:07FF10007FE555940050034A
:10FF170002FE45E4F58F53B7FEE55224FF92AFE4A6
:10FF2700F5D075840FF555F556C3E5559420505413
:10FF3700E556543F7002B2B512FFB58F57E55730FB
:10FF4700E7F6C2F9E4F558F5590559E55970020580
:10FF5700586440455870F27F5012FFA4E556AE55DD
:10FF67007806CEC313CE13D8F9FF12FFA412FF9C55
:10FF7700E4FF12FFA4D2F974082556F556E4355567
:10FF8700F55580A512FFB58F57E55730E7F6E4F52D
:05FF97008443EF01228C
:10FF9C00AF56EF25E025E0FFAE84E4F5848F9B306F
:09FFAC00FFFDC2FFAF9B8E842211
:10FFB500C2F9E4F55AF55B055BE55B7002055A6429
:10FFC50040455A70F27FD712FFA4E4FF12FFA4D276
:02FFD500F9220F
:109FC100900C3174E2F090978DE493FFAB3CAA3D85
:109FD100A93E900001122B0BFDE4F556F5577B06C7
:049FE1008F538B55BA
:109FE5007558FFE4F559F55AED90978D93F55B7427
:109FF500312DF582E4340CF5837464F090978DE48B
:10A0050093B55319E55564066013E5556415600D60
:10A01500742B2DF582E4340CF583E555F0E55B757D
:10A02500F013A4249BF582E43402F58312305C74AA
:10A0350016122B6BE55B75F013A4249BF582E434B3
:10A0450002F58312305C900001E553122B7DE55B30
:10A0550075F013A4249BF582E43402F58312305C79
:10A06500900002ED122B7D74022557F557E4355605
:10A07500F556FFE55B75F013A4249BF582E43402E5
:10A08500F58312305C900003EF122B7DE55B75F0D4
:10A0950013A4249BF582E43402F58312305C90000E
:10A0A50004E557122B7DE55B75F013A4249BF5821F
:10A0B500E43402F58312305C900005E555122B7DE2
:10A0C500E4FEFFE55B75F013A4249BF582E43402FE
:10A0D500F58312305C8F828E83122B0B62580FBF73
:10A0E50000010EEF64064E70DAE55B75F013A424EB
:10A0F5009BF582E43402F58312305C900006E55846
:10A10500122B7D74FE2557F55774FF3556F556E528
:10A115005B75F013A4249BF582E43402F5831230B9
:10A125005CE92407F9E43AFAAD57AC5612BC0A8E3D
:10A13500598F5AEEFFE55B75F013A4249BF582E475
:10A145003402F58312305C0557E557700205562435
:10A1550006F582E43556F583EF122B7DE55B75F048
:10A1650013A4249BF582E43402F58312305C055771
:10A17500E557700205562406F582E43556F583E564
:10A185005A122B7DE55B75F013A4248EF974023504
:10A19500F0FA7B01E5572407FDE43556FC12BC6552
:09A1A500E5572407FFE43556FEDE
:01A1AE00228E
:084100008F3B8B3C8A3D893E98
:10410800E4900CEFF0A3F0900003122B0BFE90004C
:1041180004122B0B7C002400FFEC3ECF24FECF348E
:10412800FFFE900CF1F0FCA3EFF0FDE92407F9E4A1
:104138003AFA12BDB9900CEFEEF0A3EFF04E603AE8
:10414800AB3CAA3DA93E900005122B0BFF641570ED
:10415800030249E2EF640670030249E2900001128B
:104168002B0B2431F582E4340CF5837464F0900051
:0A41780001122B0BFF7D0402456BC2
:10418200AB3CAA3DA93E900002122B0BFF90978DEB
:10419200E4936F700302423CEFF4700302423CEF7F
:1041A20093FF3395E0FE90029B75F013EF123040BF
:1041B200EE75F013A42583F58312305CE92407F928
:1041C200E43A8B44F5458946E53E2407F9E4353D5A
:1041D200853C41F5428943E4F53FF540D3900CF22A
:1041E200E09540900CF1E0953F40247841E475F071
:1041F2000112304C122AF2FF7844E475F0011230B9
:104202004CEF122B6B0540E54070D1053F80CDABE2
:104212003CAA3DA93E900001122B0BFF9000021216
:104222002B0BFD900005122B0BFB900CF1E0F556C9
:10423200A3E0F557129FE10249E2AB3CAA3DA93E39
:10424200900005122B0B1230F742A00642DB1042FF
:10425200C41545A03046C53146ED324715334805F1
:1042620034473D35476536478D3748053847B539B8
:1042720047DD3A44B5404509414509424831504875
:10428200835145D55543E870444571430190496EC9
:1042920091482993468D94438998000049AE900035
:1042A20001122B0B242BF582E4340CF583AB3CAAD0
:1042B2003DA93E900001122B0B242BF582E4340C15
:1042C2008010AB3CAA3DA93E122AF2242CF582E4CE
:1042D200340CF583E4F002499B900C31E0FF64E179
:1042E2006004EFB4E20512BD6A8003129FC7900C0E
:0F42F200EFEEF0A3EFF0AB3CAA3DA93E02499BD3
:10430100900C31E0FF64E16004EFB4E20512BD6A94
:104311008065AB3CAA3DA93E900007122B0BFE9095
:104321000008122B0B7C002400F548EC3EF547E514
:104331003B75F013A4249BF582E43402F58312301B
:104341005CE92407F9E43AFA900955E0FEA3E0FF9D
:1043510085475885485912B6BC90978DE493FFABB9
:104361003CAA3DA93E900001122B0BFD900955E09E
:10437100F556A3E0129FDD900CEFEEF0A3EFF0AB4A
:084381003CAA3DA93E02499B44
:10438900900C31E0FF64E16004EFB4E20512BD6A0C
:10439900803CAB3CAA3DA93E900007122B0BFE9036
:1043A9000008122B0B7C002400F548EC3EF54790E1
:1043B9000955E0FCA3E0FDE92409F9E43AFA854747
:1043C9005D85485E7F027E0012B7E1129FC7900C9F
:0F43D900EFEEF0A3EFF0AB3CAA3DA93E02499BEB
:1043E800900C31E0FF64E16004EFB4E20512BD6AAD
:1043F800803AE53B75F013A4249BF582E43402F57A
:104408008312305CE92407F9E43AFA12BD16909752
:104418008DE493FFAB3CAA3DA93E900001122B0B03
:10442800FD7556007557807B06129FE1900CEFEEE4
:10443800F0A3EFF0AB3CAA3DA93E02499B900C319A
:10444800E0FF64E16004EFB4E20512BD6A804D123A
:10445800C031AB3CE53E2407F9E4353DFA900CF158
:10446800E0FEA3E0FFC39480EE94005006AC06ADD6
:104478000780047C007D8012BA597B017A0C79355B
:1044880012BD16900018E06010900CA5E030E4040E
:104498007F0080027F0112C089129FC7900CEFEE47
:0D44A800F0A3EFF0AB3CAA3DA93E02499BFA
:1044B500900C31E0FFF547AB3CAA3DA93E900001C9
:1044C500122B0B2431F582E4340CF583E4F0EF6410
:1044D500E16007900C31E0B4E20C900001122B0B67
:1044E500FF7D2002456B129FC1900CEFEEF0A3EF0C
:1044F500F0AB3CAA3DA93E900007122B0BFF12A87A
:04450500A70245972D
:10450900900C31E0FFF547AB3CAA3DA93E90000570
:10451900122B0BFE7C00B441047D0080027D058CCA
:10452900488D49EE900C30E024FFFD900C2FE034CB
:10453900FFFC8C4A8D4BAB3CAA3DA93E9000011271
:104549002B0B2431F582E4340CF583E4F0EF64E1BC
:104559006007900C31E0B4E217900001122B0BFFB9
:104569007D2012BD79900CEFEEF0A3EFF00249E245
:10457900129FC1900CEFEEF0A3EFF0E4FFFE12BE24
:104589004C7B01AD4BAC4AAF49AE4812BAC8900C4E
:0745990031E547F00249E2A1
:1045A000129FC7900CEFEEF0A3EFF0AB3CAA3DA931
:1045B0003E900001122B0B2431F582E4340CF5837C
:1045C000E4F012007E8F47E54730E7F6E4F58443D8
:0545D000EF010249E2C9
:1045D500129FC7900CEFEEF0A3EFF07B017A027902
:0C45E5008E7F007EE17D007C00129BC8F0
:1045F100900CE3122FD100004650E4FFFEFDFC9029
:104601000CE3122F89D3122EA24017900CE3122F24
:104611007D74FFFBFAF9F8122D4F900CE3122FC5B0
:0246210080D83F
:10462300E4F584C2ACC298D29975840153E7BFC242
:0346330098D29981
:1046360075840F30E815C39002CFE094099002CE3E
:10464600E094004006E4F58443EF01E4F5843098F5
:1046560017758401309911C299F584859947C298D6
:10466600B2B47584018547997584013098C2E4F522
:10467600843099BCC299758401859947C298B2B5B0
:05468600F58485479951
:10468B0080A9129FC7900CEFEEF0A3EFF0AB3CAA02
:10469B003DA93E900001122B0B2431F582E4340C22
:1046AB00F583E4F0900018E070030249E2900007F4
:1046BB00122B0BFF12C0890249E2129FC7900CEF1D
:1046CB00EEF0A3EFF0AB3CAA3DA93E900001122BFC
:1046DB000B2431F582E4340CF583E4F01232DB0267
:1046EB0049E2129FC7900CEFEEF0A3EFF0AB3CAAA0
:1046FB003DA93E900001122B0B2431F582E4340CC2
:10470B00F583E4F01259E20249E2129FC7900CEFD5
:10471B00EEF0A3EFF0AB3CAA3DA93E900001122BAB
:10472B000B2431F582E4340CF583E4F01294AE02E1
:10473B0049E2129FC7900CEFEEF0A3EFF0AB3CAA4F
:10474B003DA93E900001122B0B2431F582E4340C71
:10475B00F583E4F01260D60249E2129FC7900CEF8A
:10476B00EEF0A3EFF0AB3CAA3DA93E900001122B5B
:10477B000B2431F582E4340CF583E4F01266570216
:10478B0049E2129FC7900CEFEEF0A3EFF0AB3CAAFF
:10479B003DA93E900001122B0B2431F582E4340C21
:1047AB00F583E4F0127CCC0249E2129FC7900CEF28
:1047BB00EEF0A3EFF0AB3CAA3DA93E900001122B0B
:1047CB000B2431F582E4340CF583E4F01278860285
:1047DB0049E2129FC7900CEFEEF0A3EFF0AB3CAAAF
:1047EB003DA93E900001122B0B2431F582E4340CD1
:1047FB00F583E4F012888A0249E2AB3CAA3DA93E5C
:10480B00900001122B0B2431F582E4340CF583E478
:10481B00F0900005122B0BFF12850A0249E2900261
:10482B00FB74FF024906900C31E064F07027754F62
:10483B0001755000755105AB3CAA3DA93E12B376EC
:10484B00129FC7900CEFEEF0A3EFF0057FE57F70A2
:10485B001E057E801AAB3CAA3DA93E900001122B8F
:10486B000BFF7D0812BD79900CEFEEF0A3EFF0ABD0
:10487B003CAA3DA93E02499B900C31E0B4F114AB2C
:10488B003CAA3DA93E900007122B0BFF900005E0C0
:10489B006F6072AB3CAA3DA93E900001122B0BFF3F
:1048AB007D0812BD79900CEFEEF0A3EFF0AB3CAAB4
:1048BB003DA93E900001122B0B2431F582E4340C00
:0448CB00F583E4F09D
:1048CF00900CE7122FD10000AFC8E4FFFEFDFC9063
:1048DF000CE7122F89D3122EA24017900CE7122F3C
:1048EF007D74FFFBFAF9F8122D4F900CE7122FC5CC
:0248FF0080D85F
:104901009002FB74F2F0900CB77401F00249E212CC
:104911009FC7900CEFEEF0A3EFF0AB3CAA3DA93E90
:10492100900001122B0B2431F582E4340CF583E461
:01493100F095
:10493200900CEB122FD10000AFC8E4FFFEFDFC90FB
:104942000CEB122F89D3122EA24017900CEB122FD0
:104952007D74FFFBFAF9F8122D4F900CEB122FC564
:0249620080D8FB
:10496400AF7FAE7E12BF680249E2900CB77401F0CB
:10497400AB3CAA3DA93E900007122B0B9002FBF022
:1049840090978DE493FF129FD3900CEFEEF0A3EF7A
:10499400F0AB3CAA3DA93E900001122B0B2431F54B
:1049A40082E4340CF583E4F08034AB3CAA3DA93EA8
:1049B400900001122B0B2431F582E4340CF583743E
:1049C40064F0900001122B0BFF7D0212BD79900C54
:0E49D400EFEEF0A3EFF074FF900CEFF0A3F005
:0849E200900CEFE0FEA3E0FFE2
:0149EA0022AA
:0ABDB9008B4C8A4D894E8C4F8D5043
:10BDC30012BC0A8E518F52AB4CAA4DA94E8550829C
:10BDD300854F83122B0B7F00FEE5502401FDE435D4
:10BDE3004F8D82F583122B0B2FFFE43EFEE552B5F8
:0FBDF3000709E551B50604E4FEFF227EFF7FFF3E
:01BE0200221D
:0FBD6A00AB3CAA3DA93E900001122B0BFF7D20A0
:10BD7900AE07EE90978D93FB3395E0FA90029B7591
:10BD8900F013EB123040EA75F013A42583F5831202
:10BD9900305C900007ED122B7D90978DE493FFADF9
:10BDA900067556007557017B15129FE1E4FEFF22C7
:06B376008B4C8A4D894E4C
:10B37C00E4F552F553900003122B0BFE90000412CF
:10B38C002B0BFDEEF554EDF555E4F552F553E55563
:10B39C0024FEFFE55434FFFEC36480948250028087
:10B3AC00047E027F00C3E5539FEE6480F8E552648F
:10B3BC0080985048AB4FAA50A951C003C002C0019D
:10B3CC00122AF2FFAB4CAA4DA94EE5532407FDE41B
:10B3DC0035528D82F583122B0BFE74592553F58251
:10B3EC0074003552F583EEF06FD001D002D0031209
:10B3FC002B6B0553E5537096055280927E00E57FCA
:10B40C005401FF900955E0FCA3E0FD7B017A007923
:0AB41C0059857E5D857F5E02B7E171
:04BF68008E4C8F4D1F
:10BF6C0090FE00E493FE740193FF900CF6EEF0A3A8
:10BF7C00EFF0BE8012BFFE0F7B007AFE7902900CB0
:0EBF8C00F312306502314AAF7FAE7E12FE0026
:01BF9A002284
:10BFCE00564F4C5453004F4E004F46460044726934
:10BFDE0076657241004361724100547261636B4138
:10BFEE0000416E616C6F6778004469676974616CBB
:02BFFE007800C9
:06AE80008B3B8A3C893D7A
:10AE86007B017A007959E4F558F5597F107E021254
:10AE9600B6BCAB3BAA3CA93DE475F004122D039069
:10AEA6000C2FE0FFA3E0AB3EAA3FA940CF8FF012E4
:10AEB6002D03E4900CE3F0900CE3E0FFC3941540FF
:10AEC6000302AFA775F019EF900059123040E0FE6B
:10AED600A3E0F47002EEF4700302AF9E900CE3E080
:10AEE60075F01990005B123040E0FCA3E0F47002AC
:10AEF600ECF4700302AF9EAB3BAA3CA93D122C6852
:10AF0600FDACF075F019EF90005B123040E0FEA347
:10AF1600E0D39DEE9C4014900CE3E075F019900090
:10AF26005B123040E0FEA3E0FF8004AE04AF05AB49
:10AF36003BAA3CA93DEE8FF0122D03900CE3E0FFF7
:10AF460075F01990006D123040E0FCA3E0F4700239
:10AF5600ECF46044AB3EAA3FA940122C68FDACF06D
:10AF660075F019EF90006D123040E0FEA3E0C39D2E
:10AF7600EE9C5014900CE3E075F01990006D1230C1
:10AF860040E0FEA3E0FF8004AE04AF05AB3EAA3F5F
:10AF9600A940EE8FF0122D03900CE3E004F002AE10
:10AFA600BDAB3BAA3CA93DE475F001122CCBAB3EF0
:0BAFB600AA3FA94074FFF5F0022CCB6D
:068EF5008B3B8A3C893D25
:108EFB0090003F122FD1FFFFFFFF90002B122FD1BD
:108F0B00FFFFFFFF74FF900019F0A3F0900016F025
:108F1B00A3F07B017A0C79E37558007559017F102A
:108F2B007E0212B6BC900CE3E0900EF3F0900CE4D2
:108F3B00E0900EF4F0900CE5E0900EF5F0900CE65E
:108F4B00E0540F900EF6F0E024FC600C240270103D
:108F5B00900CB57414F0800E900CB57428F080064C
:108F6B00900CB5740AF09000067402F0A3740FF025
:108F7B009002CAE030E7034403F0900955E0FCA3EC
:108F8B00E0FD7F017E0012BB3512BBA11200A67B58
:108F9B00017A0C79E3E4F558F5597F107E0212B68D
:108FAB00BCAB3BAA3CA93DE475F004122D03E49045
:108FBB000EF7F0900C2FE0FFA3E0AB3EAA3FA940C9
:108FCB00CF8FF0122D03E4900EF8F0900EF8E0FF27
:108FDB00C3941540030290D175F019EF900CE31276
:108FEB003040E0FEA3E0FFBEFF16BFFF13900EF76D
:108FFB00E060030290C8A3E004900EF7F00290C863
:10900B00900EF8E0FF75F019900CE5123040E0FC83
:10901B00A3E0F47002ECF470030290C8AB3BAA3CE3
:10902B00A93D122C68FDACF075F019EF900CE51210
:10903B003040E0FEA3E0D39DEE9C4014900EF8E090
:10904B0075F019900CE5123040E0FEA3E0FF8004B0
:10905B00AE04AF05AB3BAA3CA93DEE8FF0122D033E
:10906B00900EF8E0FF75F019900CF7123040E0FC11
:10907B00A3E0F47002ECF46044AB3EAA3FA94012AB
:10908B002C68FDACF075F019EF900CF7123040E046
:10909B00FEA3E0C39DEE9C5014900EF8E075F01902
:1090AB00900CF7123040E0FEA3E0FF8004AE04AF5B
:1090BB0005AB3EAA3FA940EE8FF0122D03900EF8A0
:1090CB00E004F0028FD6900EF7E07002FF22AB3E69
:1090DB00AA3FA940122C68FFAEF0AB3BAA3CA93DBE
:1090EB00122C68C39FE5F09E40037F0022E475F0CD
:1090FB0001122CCBAB3EAA3FA94074FFF5F0122C0A
:10910B00CBAB3BAA3CA93D122C68FFAEF0D3940528
:10911B00EE9400400280047E007F05900EF7E0FD88
:10912B0075F019900CCA123040EEF0A3EFF09002DC
:10913B00CAE0FF600EAB3EAA3FA940122C68FBAA07
:10914B00F080047AFF7BFF75F019ED900CDC123088
:10915B0040EAF0A3EBF075F019ED900CDE12304005
:10916B0074FFF0A3F075F019ED900CDB123040EFAB
:10917B00F0900EF3E0FF75F019ED900CE01230401B
:10918B00EFF0900EF5E0FF75F019ED900CE1123059
:10919B0040EFF0900EF4E0FF75F019ED900CE21239
:1091AB003040EFF0900EF6E0FF75F019ED900CDA11
:1091BB00123040EFF07B017A0C79E3E4F55DF55E5C
:0F91CB007D107C027F02FE12B7E1900EF7E0FFED
:0191DA002272
:0AAD22008F3F8C408D418A428B4325
:10AD2C00153F7B017A0E79FBE4F558F5597F107EBF
:10AD3C000212B6BC74FFFFFEFDFC90002B122F8993
:10AD4C00C3122EB8705F75F019E53F900F051230E5
:10AD5C0040122FD1FFFFFFFF75F019E53F900EFF5A
:10AD6C00123040122FD1FFFFFFFF75F019E53F9015
:10AD7C000F0912304074FFF0A3F075F019E53F9005
:10AD8C000F0312304074FFF0A3F075F019E53F90FB
:10AD9C000EFD12304074FFF0A3F075F019E53F90F2
:10ADAC000EFB02AE6390002B122F7D75F019E53F60
:10ADBC00900EFF123040122FC5900016E0FEA3E05B
:10ADCC00FF75F019E53F900F03123040EEF0A3EF42
:10ADDC00F090003F122F7D75F019E53F900F051292
:10ADEC003040122FC5900019E0FEA3E0FF75F0195A
:10ADFC00E53F900F09123040EEF0A3EFF075F0191B
:10AE0C00E53F900EFD123040E540F0A3E541F09097
:10AE1C0002CAE0602A75F019E53F900F0D12304020
:10AE2C00E0FEA3E0F47002EEF4601475F019E53F57
:10AE3C00900F0F123040E542F0A3E543F0802075EF
:10AE4C00F019E53F900F0F12304074FFF0A3F0752E
:10AE5C00F019E53F900F0D12304074FFF0A3F07B1A
:10AE6C00017A0E79FBE4F55DF55E7D107C027F02C4
:04AE7C00FE02B7E13A
:10ABB000E4900EF9F0A3F07B017A0C79E7F558F5F3
:10ABC000597F107E0212B6BCE4900EF9F0A3F0900B
:10ABD0000EF9E0FEA3E0FFC39415EE9400400302DB
:10ABE000AD21900CE775F019EF123040EE75F019B9
:10ABF000A42583F583E0FEA3E0F47002EEF4700375
:10AC000002AD14900EF9E0FEA3E0900CEF75F01980
:10AC1000123040EE75F019A42583F583E0FCA3E023
:0AAC2000F47002ECF4600302AD14BE
:10AC2A00900CF975F019EF123040EE75F019A42561
:10AC3A0083F583E0FDA3E0900CE3CDF0A3EDF09063
:10AC4A000CFB75F019EF123040EE75F019A425834C
:10AC5A00F583E0FFA3E0900CE5CFF0A3EFF0900EB0
:10AC6A00F9A3E0900CE775F019123040EE75F0196F
:10AC7A00A42583F583E0FFA3E0900EF7CFF0A3EFBE
:10AC8A00F0900C30E024FFFF900C2FE034FFFEC35D
:10AC9A00900EF8E09F900EF7E09E506E7B017A0CC2
:10ACAA0079E7E0F558A3E0F5597F107E0212B6BCA9
:10ACBA0074FFFFFEFDFC900CE7122F89C3122EB819
:10ACCA00703B900CE5E0B4FF12A3E0B4FF0D900CCA
:10ACDA00E3E0FFA3E0A3CFF0A3EFF0900EF9A3E027
:10ACEA0004FF900EF8E024FFFD900EF7E034FFFC1D
:10ACFA00900CE5E0FAA3E0FB12AD22800D900EF76E
:0AAD0A00E475F001122C3C02AC8B42
:0DAD1400900EF9E475F001122C3C02ABCF5B
:01AD2100220F
:02A8A7008F4CD4
:10A8A9007B017A0C79F3E4F558F5597F107E021291
:10A8B900B6BC75F019E54C900CDA123040E0FEA3F5
:10A8C900E0F47002EEF4603B75F019E54C900CDC95
:10A8D900123040E0FEA3E0F47002EEF4602575F05A
:10A8E90019E54C900CDA123040E0FEA3E0FF75F058
:10A8F90019E54C900CDC123040E0FCA3E0FD7B0133
:10A9090012BAC87B017A0C79F3E4F558F5597F102E
:10A919007E0212B6BC75F019E54C900CEC12304071
:10A92900E0FEA3E0F47002EEF4603B75F019E54C2B
:10A93900900CEE123040E0FEA3E0F47002EEF460F9
:10A949002575F019E54C900CEE123040E0FEA3E0BD
:10A95900FF75F019E54C900CEC123040E0FCA3E0D7
:10A96900FD7B0112BAC87B017A0C79F3E4F558F53D
:10A97900597F107E0212B6BC75F019E54C900CEEA9
:10A9890012304074FFF0A3F075F019E54C900CEC0F
:10A9990012304074FFF0A3F075F019E54C900CDC0F
:10A9A90012304074FFF0A3F075F019E54C900CDA01
:10A9B90012304074FFF0A3F075F019E54C900CE4E7
:10A9C900123040122FD1FFFFFFFF75F019E54C90AF
:10A9D9000CDE123040122FD1FFFFFFFF75F019E591
:10A9E9004C900CE812304074FFF0A3F075F019E5B3
:10A9F9004C900CE212304074FFF0A3F075F019E5A9
:10AA09004C900CEB123040E4F075F019E54C900CC9
:10AA1900EA123040E4F07B017A0C79F3F55DF55EDA
:0AAA29007D107C027F02FE02B7E1FF
:1052BA00E4F53C7B017A0D7908F5587559017F10A0
:1052CA007E0212B6BC74FFFFFEFDFC900D08122F81
:1052DA0089C3122EB860030253B8753C01900D0AB7
:1052EA00F0900D09F0900D08F0900D0C7480F0907C
:0852FA000D0B7402F0E4F53B1A
:1053020078E37C0C7D017BFF7ABF79DB7E007F082E
:10531200122ACCE53B2441900CE9F0E53B75F010F4
:10532200A4240DF9740D35F0A801FC7D017B017AEE
:065332000C79E312321CAD
:0A533800053BE53BB40CC3E4F53B74
:1053420078EB7C0C7D017BFF7ABF79E37E007F05E1
:10535200122ACCE53B2441900CEEF0E53B75F016A9
:10536200A424CDF9740D35F0A801FC7D017B017AEE
:105372000C79EB12321C75F016E53B900DDD123004
:1053820040E4F0A37404F075F016E53B900DDF12D3
:1053920030407417F0A37470F075F016E53B900D71
:0B53A200E1123040741BF0A37458F0BF
:1053AD00053BE53B640C708D02548F900D08E0D3E6
:1053BD00940C4005E4F0753C01900D09E0D3941078
:1053CD004005E4F0753C01900D0AE0D3940C4005C6
:1053DD00E4F0753C01E4F53B75F010E53B900D0DE7
:1053ED00123040E0FF12005E401E75F010E53B905C
:1053FD000D0D123040E0601075F010E53B900D0D75
:10540D00123040E4F0753C01053BE53BC3940C4084
:10541D00C7E4F53B75F016E53B900DCD123040E03D
:10542D00FF12005E405375F016E53B900DCD123026
:10543D0040E0604575F016E53B900DCD123040E42F
:10544D00F075F016E53B900DDD123040E4F0A374DD
:10545D0004F075F016E53B900DDF1230407417F037
:10546D00A37470F075F016E53B900DE112304074A9
:10547D001BF0A37458F0753C01053BE53BC3940C40
:10548D004092E53C60177B017A0D7908755D0075DA
:10549D005E017D107C027F027E0012B7E17B017AF6
:1054AD000D79087558007559027F107E0212B6BC31
:1054BD00E4F53C900D08E0F46003025559A3E0F4C7
:0A54CD006003025559753C01F53BE0
:1054D70078F07C0C7D017BFF7ABF79E87E007F073F
:1054E700122ACCE53B2441900CF5F0E53B75F01C06
:1054F700A42408F9740D35F0A801FC7D017B017A1D
:105507000C79F012321C75F01CE53B900D1C123023
:1055170040122FD10000000075F01CE53B900D18DC
:10552700123040122FD10000000075F01CE53B90AF
:105537000D20123040E4F0A3F075F01CE53B900D10
:0855470022123040E4F0A3F051
:10554F00053BE53B64107080807EE4F53B75F01CF5
:10555F00E53B900D08123040E0FF12005E40607591
:10556F00F01CE53B900D08123040E0605275F01CC6
:10557F00E53B900D08123040E4F075F01CE53B90D0
:10558F000D1C123040122FD10000000075F01CE5E9
:10559F003B900D18123040122FD10000000075F013
:1055AF001CE53B900D20123040E4F0A3F075F01C89
:1055BF00E53B900D22123040E4F0A3F0753C01055D
:1055CF003BE53BC394104085E53C60177B017A0DAA
:1055DF007908755D00755E027D107C027F027E008A
:1055EF0012B7E1E4F53C7B017A0D7908F55875594E
:1055FF00047F107E0212B6BC900D08E0F460030227
:10560F0056C3A3E0F460030256C3753C01F53B7526
:10561F00F00CE53B900D0C123040122FD100000022
:10562F000075F00CE53B900D08123040122FD100A1
:10563F0000000075F00CE53B900D10123040E4F0C7
:10564F00A3F075F00CE53B900D12123040E4F0A37F
:0B565F00F0053BE53BB410B7E4F53B61
:10566A0075F014E53B900DCA123040E4F0A3F075D2
:10567A00F014E53B900DC8123040E4F0A3F0F53D7C
:10568A00F53EE53E25E0FFE53D33FE75F014E53BCA
:10569A00900DCC123040E5822FF582E5833EF583EA
:1056AA00E4F0A3F0053EE53E7002053D6408453D81
:0256BA0070D0AE
:1056BC00053BE53BB40CA7E53C60177B017A0D7903
:1056CC0008755D00755E047D107C027F027E001201
:1056DC00B7E1E4F53C7B017A0D7908F5587559036F
:1056EC007F107E0212B6BC74FFFFFEFDFC900D080D
:1056FC00122F89C3122EB860030258A2753C01F513
:01570C003B61
:10570D0078F77C0C7D017BFF7ABF79EF7E007F08F7
:10571D00122ACCE53B2430900CFDF0E53B75F028CA
:10572D00A42408F9740D35F0A801FC7D017B017AE4
:10573D000C79F712321CE53B75F028A42414F9748A
:10574D000D35F0A801FC7D017BFF7ABF79CE1232B9
:10575D001C75F028E53B900D201230407414F07547
:10576D00F028E53B900D21123040122FD1000000A2
:10577D000075F028E53B900D25123040122FD141D8
:10578D00A0000075F028E53B900D29123040122F36
:10579D00D141A0000075F028E53B900D2D12304051
:1057AD007401F075F028E53B900D2E123040E4F0B9
:0E57BD0075F028E53B900D2F12304074F8F087
:0E57CB00053BE53B6404600302570DE4F53B2B
:1057D90078FF7C0C7D017BFF7ABF79F77E007F091A
:1057E900122ACCE53B2430900D06F0E53B75F024F8
:1057F900A424A8F9740D35F0A801FC7D017B017A78
:105809000C79FF12321CE53B75F024A424B4F97419
:105819000D35F0A801FC7D017BFF7ABF79D41232E6
:105829001CE53B75F024A424C0F9740D35F0A801DA
:0C583900FC7D017BFF7ABF79D712321C86
:10584500053BE53BB4078DE4F53B75F005E53B907D
:105855000EA6123040E4F0A3F075F005E53B900E7E
:10586500A4123040E4F0A3F075F005E53B900EA8D6
:105875001230407401F0053BE53BB402CDE4F53B45
:1058850074AE253BF582E4340EF583E4F0053BE583
:105895003BB402EC900EAE7403F00259C6E4F53B3E
:1058A50075F028E53B900D08123040E0FF12005ED0
:1058B500500302594875F028E53B900D0812304019
:1058C500E0700302594875F028E53B900D08123049
:1058D50040E4F075F028E53B900D2012304074143B
:1058E500F075F028E53B900D21123040122FD100C4
:1058F50000000075F028E53B900D25123040122F71
:10590500D141A0000075F028E53B900D29123040EB
:10591500122FD141A0000075F028E53B900D2D1206
:1059250030407401F075F028E53B900D2E123040A3
:10593500E4F075F028E53B900D2F12304074F8F037
:10594500753C01053BE53BC3940450030258A5E4AF
:10595500F53B75F024E53B900DA8123040E0FF12B1
:10596500005E405475F024E53B900DA8123040E0F0
:10597500604675F024E53B900DA8123040E4F0E553
:105985003B75F024A424B4F9740D35F0A801FC7D11
:10599500017BFF7ABF79D412321CE53B75F024A454
:1059A50024C0F9740D35F0A801FC7D017BFF7ABF99
:1059B50079D712321C753C01053BE53BC394074082
:1059C50091E53C60177B017A0D7908755D00755E80
:0C59D500037D107C027F027E0012B7E10F
:0159E10022A3
:10BBA1008584417B017A0C793512BD16900018E02D
:10BBB100702EF58475D98075D84075DA4275DB42EF
:10BBC100900C9AE0A3E0F5FB900C9AE0A3E0F5FC61
:10BBD100900C9CE0A3E0F5FD900C9CE0A3E0F5FE49
:10BBE100900CB5E0FD7C007E057F00122BB18E7BB1
:10BBF1008F7CE4F58475E8C075D107F5BAF5BB759E
:08BC0100BC7043E70285418499
:01BC09002218
:03007B0002A5617A
:10A56100C0E0C0F0C083C082C0D075D000C000C0C0
:0BA5710002C003C004C005C006C00704
:10A57C00758400C2EDE57D25E0242FF582E43400DE
:10A58C00F583E5BF85BEF0122C3CE57D1230F7A5B6
:10A59C00B700A5BF01A5C702A5DA03A5E204A5EA89
:10A5AC0005A5F206A5FA070000A60075BB01757D8E
:10A5BC0001804175BB02757D028039900018E06006
:10A5CC000575BB07800375BB08757D03802675BBBD
:10A5DC0003757D04801E75BB04757D05801675BBE7
:10A5EC0005757D06800E75BB06757D07800675BBEF
:10A5FC0000757D00E57C157C7002157B14457B6035
:04A60C000302A6F3AC
:10A61000900CB5E0FF74A08FF0841313543F7522A3
:10A6200000F523E4FBFAEB64034A7026900018E07F
:10A630007020900CB5E075F00A84FF7E0090003524
:10A64000E0FCA3E0FD122B9F900021EEF0A3EFF0C1
:10A650008037EB25E0FFEA33FE742F2FF58274007C
:10A660003EF583E0FEA3E0FFAC22AD23122BB1AC9C
:10A6700006AD07EB25E0FFEA33FE741B2FF582746D
:10A68000003EF583ECF0A3EDF0EB25E0FFEA33FEAE
:10A69000742F2FF58274003EF583E4F0A3F00BBB1A
:10A6A00000010AEB64084A600302A626900004E059
:10A6B0007029900C94E0FEA3E0FF900C93E02FFF34
:10A6C000900C92E03EFE90001BE0FCA3E0FDC3EF87
:10A6D0009DFFEE9C90001BF0A3EFF0900CB5E0FD09
:10A6E0007C007E057F00122BB18E7B8F7C9002B5A3
:03A6F0007401F002
:0CA6F300E57D7003D38001C34002D2EC6F
:10A6FF00D007D006D005D004D003D002D000D0D0E0
:09A70F00D082D083D0F0D0E032FA
:03B296000119FF9C
:10B9E700AF8475840F75E1EF75E20775E34475A4BD
:10B9F700157580EA75ADFF75A53D759001E4F5A64F
:10BA070075A0FF75A7F875B07F759CFFF5C8F59D04
:10BA170075D8FFF59E75E8FFE5E854E0FEBEC00463
:10BA27007E0180027E00900018EEF0600875F8979E
:10BA3700759FF78006759FFF75F8F720D80330D9F3
:10BA47000E9002FA7401F0900018E06002D2FB8FAA
:01BA5700846A
:01BA580022CB
:10BE9500AF84E4F584F5D875D980F5F9F5FAF5E9B7
:10BEA50075EA0C75DC4675D840900CB9F0A3F09096
:10BEB5000269F0A3F0F584C28C758905438E08F5F7
:10BEC5008AF58CC28DD28C75840175888075893010
:07BED500D2A943E6308F847F
:01BEDC002243
:0DC12300AF84E4F584C289D288D2A88F844D
:01C1300022EC
:03005B0002AA33C3
:10AA3300C0E0C0F0C083C082C0D075D000C000C0E9
:0DAA430001C002C003C004C005C006C0076A
:10AA500053E6CF758400AF8CEFFEAD8A7C00E42D09
:10AA6000F525EC3EF524900CB9E0FEA3E0FFC3E52C
:10AA7000259FFFE5249EFED3EF9464EE94005003DF
:10AA800002AB8CC28C758A00758C00C28DD28CE5AD
:04AA900019F4704104
:10AA9400F519F526AE24AF25E52625E02443F582F5
:10AAA400E43400F583EEF0A3EFF0E4FCFDE51D2FA4
:10AAB400FFE51C3EFEED351BFDEC351A8F1D8E1C8B
:0EAAC4008D1BF51A0526E526B404C99002691B
:10AAD20002AB7E0519E519C394044003751900E51C
:10AAE2001925E02443F582E43400F583E0FEA3E077
:10AAF200FBC3E51D9BFFE51C9EFEE51B9400FDE5E7
:10AB02001A94008F1D8E1C8D1BF51AAE24AF25E5FD
:10AB12001925E02443F582E43400F583EEF0A3EF37
:10AB2200F0E4FCFDE51D2FFFE51C3EFEED351BFDAF
:10AB3200EC351A8F1D8E1C8D1BF51AE47B04FAF975
:10AB4200F8AC1A122DF58E248F25C390026AE09577
:10AB520025FF900269E09524FEC394004006AC06EE
:10AB6200AD078009C3E49FFFE49EFCAD0790026934
:10AB7200E0C313FFC3ED9FEC94004007E524F0A36C
:10AB8200E525F0900CB9E4F0A3F07584015388CF69
:03AB920043E63067
:10AB9500D007D006D005D004D003D002D001D00014
:0BABA500D0D0D082D083D0F0D0E032BE
:0300530002BEDD0D
:10BEDD00C0E0C083C082C0D075D000C004C005C012
:10BEED0006C00753E6CF758400AF8CEFFEAD8A7C9C
:10BEFD0000E42DFFEC3E900CB9F0A3EFF07584013A
:10BF0D005388CF43E630D007D006D005D004D0D02B
:07BF1D00D082D083D0E03296
:03000B0002BF9B96
:10BF9B00C0E0C083C08253E6CF758400C28C758A23
:10BFAB0000758C00D28C900CB9E4F0A3F090026970
:10BFBB00F0A3F07584015388CF43E630D082D08351
:03BFCB00D0E03291
:0300030002B8EE52
:10B8EE00C0E0C0F0C083C082C0D075D000C000C020
:09B8FE0003C004C005C006C00728
:10B90700A2AFE433FB900CBC7401F0900CB5E0FDE2
:10B917007C007E057F00122BB18E7B8F7C757D00AE
:10B927007F1090002FE4F0A3DFFCC2AF53E7FE7552
:10B937008400C2ECC2ED75BB0075840175C8007444
:0EB94700FFF5CDF5CC43E70143C8042B92AFCA
:10B95500D007D006D005D004D003D000D0D0D082F7
:07B96500D083D0F0D0E032E6
:02FDFE0080FE85
:10743D00257300506C61636520756E697420666CF0
:10744D006174206F6E206C6576656C207375726645
:10745D006163652E00466C6970206F7665722E2013
:10746D004661636520646F776E2E00486F6C6420F3
:10747D00766572746963616C2C2047505320616E80
:10748D0074656E6E61206A61636B2075702E0048A5
:10749D006F6C6420766572746963616C2C20475043
:1074AD005320616E74656E6E61206A61636B20643A
:1074BD006F776E2E005374616E64206F6E2072694B
:1074CD0067687420736964652E005374616E64205F
:1074DD006F6E206C65667420736964652E00496E4D
:1074ED0076657274696E6720582056616C75657388
:1074FD0000496E76657274696E6720592056616C0D
:10750D0075657300496E76657274696E67205A20D1
:10751D0056616C7565730020005A65726F20506F4F
:10752D00696E74733A20582025752C2059202575C5
:10753D002C205A20257500582052616E67653A201F
:10754D0025752C20257500592052616E67653A20EE
:10755D0025752C202575005A2052616E67653A20DD
:10756D0025752C2025750053746F72696E67204345
:10757D00616C6962726174696F6E2044617461201F
:10758D00696E20466C6173682E0043616C6962728E
:10759D006174696F6E20436F6D706C6574652E003C
:1075AD005A65726F696E6720582C20592050574DBF
:1075BD000046696E616C2043616C3A2025752C255F
:1075CD00750046696E616C2056616C3A2025752CEC
:1075DD0025750044617461666C6173682054657330
:1075ED0074002A2A20466C617368204641494C4537
:1075FD0044202A2A2C20706167652025642C206286
:10760D0079746525640050616765202564206F6B72
:10761D000054657374205061737365642E00496E58
:10762D00707574205465737400444947494E3A206F
:10763D000031003000583A2025752C20593A20256C
:10764D0075005A3A2025752C2035563A202575009F
:10765D0035563A2025752C20543A20257500413099
:10766D003A2025752C2041313A2025750041323ABA
:10767D002025752C2041333A20257500496E7075F3
:10768D00745465737420436F6D706C6574652E0052
:10769D004F7574707574205465737400626974202D
:1076AD002564004F75747075745465737420436F41
:1076BD006D706C6574652E00412F44205465737494
:1076CD0000426F61726420666C61742E2054657384
:1076DD00742066697874757265206174746163686D
:1076ED0065642E005820205920203556205A202020
:1076FD0041302041312041322041330031202000E2
:10770D003020200041445465737420504153532E52
:10771D00002A2A20414454657374204641494C2067
:10772D002A2A004469676974616C20494F205465A9
:10773D007374004F6E6C792056616C696420666FAE
:10774D007220535532202D2045786974696E672E4D
:10775D0000446967494F5465737420506F696E74A6
:10776D00202564002A2A20204641494C202A2A003F
:10777D00446967494F5465737420504153532E002B
:10778D002A2A20446967494F54657374204641493C
:10779D004C202A2A004175746F4F6E205465737406
:1077AD0000456E61626C696E67204175746F4F6E36
:1077BD002E2E2E0044726F7070696E672035562024
:1077CD00456E61626C650044697361626C696E67D8
:1077DD00204175746F4F6E2E2E2E004175746F4FB4
:1077ED006E5465737420504153532E00534D4275A2
:1077FD00732054657374202D204D61737465720070
:10780D0025642042797465732C20256420437963A7
:10781D006C657300546F74616C204572726F7220C9
:10782D00436F756E742C20257500534D4275732072
:10783D005465737420506173732E00534D427573EC
:10784D002054657374202D20536C61766500534D63
:10785D0042757320536C61766520546573742043B3
:10786D006F6D706C6574652E000102040810204068
:09787D0080010204081020408083
:1032DB0085844C9000047401F075840FFB7A0C7993
:1032EB003512BD16E4900C85F090978D93900C865B
:1032FB00F0A374C8F0900C9EE4F0A374EEF0900C65
:10330B00A0E4F0A37408F074FFFFFEFDFC900C88A2
:10331B00122F89C3122EB8700A900C88122FD1006D
:10332B00000000900C8CE0B4FF037401F0900C8D46
:10333B00E0B4FF037409F0900CA274FFF0A3F090BB
:10334B000C8E7408F0A3E4F0900C907408F0A3E4D6
:10335B00F0900C35F0900C49F0900C5DF0900C9CBB
:10336B00F0A374A0F0900C9AE4F0A374A0F0E49096
:0D337B0002CEF0A3F0D2B3D2B6D2B5D2B4D8
:10338800900CF3122FD1000107ACE4FFFEFDFC9076
:103398000CF3122F89D3122EA24017900CF3122F80
:1033A8007D74FFFBFAF9F8122D4F900CF3122FC51C
:0233B80080D8BB
:1033BA0090978EE493FF3395E0FE90029B75F0138D
:1033CA00EF123040EE75F013A42583F58312305CBA
:1033DA00E92407F9E43AFA7556FF75577475583DAA
:1033EA007559FF755A74755B40126BD690978EE4C7
:1033FA0093FF3395E0FE90029B75F013EF12304075
:10340A00EE75F013A42583F58312305CE92407F9DD
:10341A00E43AFA12000EEF2401F557E43EF556900D
:0C342A00978DE493FF7B737D01129FE1FE
:10343600900CF7122FD1000107ACE4FFFEFDFC90C3
:103446000CF7122F89D3122EA24017900CF7122FC9
:103456007D74FFFBFAF9F8122D4F900CF7122FC569
:0234660080D80C
:1034680012A38E900018E06065901115E0FEA3E0AD
:10347800FF901110E02FFF90110FE03EC313FEEFF5
:1034880013FF900C8EEEF0A3EFF0901117E0FEA35F
:10349800E0FF901112E02FFF901111E03EC313FEE0
:1034A800EF13FF900C90EEF0A3EFF0901119E0FEEF
:1034B800A3E0FF901114E02FFF901113E03EC31317
:1034C800FEEF13FF900CADEEF0A3EFF08003128136
:1034D80006900018E070030235B8C2B3C2B59097E1
:1034E8008EE493FF3395E0FE90029B75F013EF1284
:1034F8003040EE75F013A42583F58312305CE9247F
:1035080007F9E43AFA7556FF75577475583D7559B9
:10351800FF755A74755B62126BD690978EE493FFB1
:103528003395E0FE90029B75F013EF123040EE7574
:10353800F013A42583F58312305CE92407F9E43AF3
:10354800FA12000EEF2401F557E43EF55690978DD8
:0A355800E493FF7B737D01129FE1F5
:10356200900CFB122FD1000107ACE4FFFEFDFC9092
:103572000CFB122F89D3122EA24017900CFB122F94
:103582007D74FFFBFAF9F8122D4F900CFB122FC538
:0235920080D8DF
:1035940012A38E901119E0FEA3E0FF901114E02F06
:1035A400FF901113E03EC313FEEF13FF900CABEE3C
:1035B400F0A3EFF0C2B3C2B6C2B5C2B490978EE422
:1035C40093FF3395E0FE90029B75F013EF123040A9
:1035D400EE75F013A42583F58312305CE92407F912
:1035E400E43AFA7556FF75577475583D7559FF7569
:1035F4005A74755B78126BD690978EE493FF33956B
:10360400E0FE90029B75F013EF123040EE75F0135C
:10361400A42583F58312305CE92407F9E43AFA120D
:10362400000EEF2401F557E43EF55690978DE49390
:08363400FF7B737D01129FE191
:10363C00900CFF122FD1000107ACE4FFFEFDFC90B3
:10364C000CFF122F89D3122EA24017900CFF122FB1
:10365C007D74FFFBFAF9F8122D4F900CFF122FC559
:02366C0080D804
:10366E0012A38E901115E0FEA3E0FF901110E02F33
:10367E00FF90110FE03EC313FEEF13FF900C94EE7C
:10368E00F0A3EFF0900018E06021901119E0FEA376
:10369E00E0FF901114E02FFF901113E03EC313FED4
:1036AE00EF13FF900CA9EEF0A3EFF0D2B390978E2C
:1036BE00E493FF3395E0FE90029B75F013EF12300A
:1036CE0040EE75F013A42583F58312305CE92407D0
:1036DE00F9E43AFA7556FF75577475583D7559FFEA
:1036EE00755A74755B9C126BD690978EE493FF336C
:1036FE0095E0FE90029B75F013EF123040EE75F0E0
:10370E0013A42583F58312305CE92407F9E43AFA11
:10371E0012000EEF2401F557E43EF55690978DE416
:09372E0093FF7B737D01129FE102
:10373700900D03122FD1000107ACE4FFFEFDFC90B2
:103747000D03122F89D3122EA24017900D03122FAB
:103757007D74FFFBFAF9F8122D4F900D03122FC558
:0237670080D808
:1037690012A38E901115E0FEA3E0FF901110E02F37
:10377900FF90110FE03EC313FEEF13FF900C92EE82
:10378900F0A3EFF0D2B690978EE493FF3395E0FE65
:1037990090029B75F013EF123040EE75F013A425DB
:1037A90083F58312305CE92407F9E43AFA7556FF88
:1037B90075577475583D7559FF755A74755BC21202
:1037C9006BD690978EE493FF3395E0FE90029B753C
:1037D900F013EF123040EE75F013A42583F5831230
:1037E900305CE92407F9E43AFA12000EEF2401F5F6
:1037F90057E43EF55690978DE493FF7B737D011254
:023809009FE13D
:10380B00900D07122FD1000107ACE4FFFEFDFC90D9
:10381B000D07122F89D3122EA24017900D07122FCE
:10382B007D74FFFBFAF9F8122D4F900D07122FC57F
:02383B0080D833
:10383D0012A38E901117E0FEA3E0FF901112E02F5E
:10384D00FF901111E03EC313FEEF13FF900C96EEA7
:10385D00F0A3EFF0D2B590978EE493FF3395E0FE91
:10386D0090029B75F013EF123040EE75F013A42506
:10387D0083F58312305CE92407F9E43AFA7556FFB3
:10388D0075577475583D7559FF755A74755BD71218
:10389D006BD690978EE493FF3395E0FE90029B7567
:1038AD00F013EF123040EE75F013A42583F583125B
:1038BD00305CE92407F9E43AFA12000EEF2401F521
:1038CD0057E43EF55690978DE493FF7B737D01127F
:0238DD009FE169
:1038DF00900D0B122FD1000107ACE4FFFEFDFC9001
:1038EF000D0B122F89D3122EA24017900D0B122FF2
:1038FF007D74FFFBFAF9F8122D4F900D0B122FC5A7
:02390F0080D85E
:1039110012A38E901117E0FEA3E0FF901112E02F89
:10392100FF901111E03EC313FEEF13FF900C98EED0
:10393100F0A3EFF0D2B4900C92E0FEA3E0FFC390AD
:103941000C95E09F900C94E09E4003023A209097E2
:103951008EE493FF3395E0FE90029B75F013EF1216
:103961003040EE75F013A42583F58312305CE92411
:1039710007F9E43AFA7556FF75577475583D75594C
:10398100FF755A74755BEB126BD690978EE493FFBB
:103991003395E0FE90029B75F013EF123040EE7507
:1039A100F013A42583F58312305CE92407F9E43A86
:1039B100FA12000EEF2401F557E43EF55690978D6B
:0A39C100E493FF7B737D01129FE188
:1039CB00900D0F122FD1000107ACE4FFFEFDFC9010
:1039DB000D0F122F89D3122EA24017900D0F122FFD
:1039EB007D74FFFBFAF9F8122D4F900D0F122FC5B6
:0239FB0080D872
:1039FD00900C94E0F54DA3E0F54E900C92E0FFA3F2
:103A0D00E0900C94CFF0A3EFF0900C92E54DF0A365
:103A1D00E54EF0900C96E0FEA3E0FFC3900C99E00C
:103A2D009F900C98E09E4003023B0990978EE49383
:103A3D00FF3395E0FE90029B75F013EF123040EED0
:103A4D0075F013A42583F58312305CE92407F9E49E
:103A5D003AFA7556FF75577475583D7559FF755A75
:103A6D0074755BFE126BD690978EE493FF3395E0E1
:103A7D00FE90029B75F013EF123040EE75F013A41B
:103A8D002583F58312305CE92407F9E43AFA120034
:103A9D000EEF2401F557E43EF55690978DE493FF14
:073AAD007B737D01129FE114
:103AB400900D13122FD1000107ACE4FFFEFDFC9022
:103AC4000D13122F89D3122EA24017900D13122F0B
:103AD4007D74FFFBFAF9F8122D4F900D13122FC5C8
:023AE40080D888
:103AE600900C98E0F54DA3E0F54E900C96E0FFA300
:103AF600E0900C98CFF0A3EFF0900C96E54DF0A374
:103B0600E54EF0900018E07003023BFB900CABE032
:103B1600FEA3E0FFC3900CAEE09F900CADE09E408C
:103B260003023BFB90978EE493FF3395E0FE9002F1
:103B36009B75F013EF123040EE75F013A42583F554
:103B46008312305CE92407F9E43AFA7556FF755793
:103B56007475583D7559FF755A75755B11126BD69C
:103B660090978EE493FF3395E0FE90029B75F013D9
:103B7600EF123040EE75F013A42583F58312305C06
:103B8600E92407F9E43AFA12000EEF2401F557E4A6
:103B96003EF55690978DE493FF7B737D01129FE16E
:103BA600900D17122FD1000107ACE4FFFEFDFC902B
:103BB6000D17122F89D3122EA24017900D17122F10
:103BC6007D74FFFBFAF9F8122D4F900D17122FC5D1
:023BD60080D895
:103BD800900CADE0F54DA3E0F54E900CABE0FFA3E3
:103BE800E0900CADCFF0A3EFF0900CABE54DF0A357
:103BF800E54EF090978EE493FF3395E0FE90029B9C
:103C080075F013EF123040EE75F013A42583F58399
:103C180012305CE92407F9E43AFA7556FF755774CF
:103C280075583D7559FF755A75755B24126BD6909A
:103C3800978EE493FF3395E0FE90029B75F013EFA7
:103C4800123040EE75F013A42583F58312305CE939
:103C58002407F9E43AFA12000EEF2401F557E43E7E
:0F3C6800F55690978DE493FF7B737D01129FE1DA
:103C7700900D1B122FD1000107ACE4FFFEFDFC9055
:103C87000D1B122F89D3122EA24017900D1B122F36
:103C97007D74FFFBFAF9F8122D4F900D1B122FC5FB
:023CA70080D8C3
:103CA9007556FF755775755826900C8EE0F559A312
:103CB900E0F55A900C90E0F55BA3E0F55C900CA957
:103CC900E0F55DA3E0F55E7B017A0D7933126BD6E1
:103CD90090978EE493FF3395E0FE90029B75F01365
:103CE900EF123040EE75F013A42583F58312305C92
:103CF900E92407F9E43AFA7556FF75577475583D82
:103D0900755901755A0D755B33126BD690978EE410
:103D190093FF3395E0FE90029B75F013EF1230404C
:103D2900EE75F013A42583F58312305CE92407F9B5
:103D3900E43AFA12000EEF2401F557E43EF55690E5
:0C3D4900978DE493FF7B737D01129FE1D6
:103D5500900D1F122FD1000107ACE4FFFEFDFC9072
:103D65000D1F122F89D3122EA24017900D1F122F4F
:103D75007D74FFFBFAF9F8122D4F900D1F122FC518
:023D850080D8E4
:103D870090978EE493FF3395E0FE90029B75F013B6
:103D9700EF123040EE75F013A42583F58312305CE3
:103DA700E92407F9E43AFA7556FF755775755844CB
:103DB700900C92E0F559A3E0F55A900C94E0F55B6E
:103DC700A3E0F55C126BD690978EE493FF3395E0F2
:103DD700FE90029B75F013EF123040EE75F013A4BE
:103DE7002583F58312305CE92407F9E43AFA1200D7
:103DF7000EEF2401F557E43EF55690978DE493FFB7
:073E07007B737D01129FE1B6
:103E0E00900D23122FD1000107ACE4FFFEFDFC90B4
:103E1E000D23122F89D3122EA24017900D23122F8D
:103E2E007D74FFFBFAF9F8122D4F900D23122FC55A
:023E3E0080D82A
:103E400090978EE493FF3395E0FE90029B75F013FC
:103E5000EF123040EE75F013A42583F58312305C29
:103E6000E92407F9E43AFA7556FF75577575585401
:103E7000900C96E0F559A3E0F55A900C98E0F55BAC
:103E8000A3E0F55C126BD690978EE493FF3395E038
:103E9000FE90029B75F013EF123040EE75F013A404
:103EA0002583F58312305CE92407F9E43AFA12001D
:103EB0000EEF2401F557E43EF55690978DE493FFFD
:073EC0007B737D01129FE1FD
:103EC700900D27122FD1000107ACE4FFFEFDFC90F7
:103ED7000D27122F89D3122EA24017900D27122FCC
:103EE7007D74FFFBFAF9F8122D4F900D27122FC59D
:023EF70080D871
:103EF90090978EE493FF3395E0FE90029B75F01343
:103F0900EF123040EE75F013A42583F58312305C6F
:103F1900E92407F9E43AFA7556FF75577575586437
:103F2900900CABE0F559A3E0F55A900CADE0F55BC8
:103F3900A3E0F55C126BD690978EE493FF3395E07E
:103F4900FE90029B75F013EF123040EE75F013A44A
:103F59002583F58312305CE92407F9E43AFA120063
:103F69000EEF2401F557E43EF55690978DE493FF43
:073F79007B737D01129FE143
:103F8000900D2B122FD1000107ACE4FFFEFDFC9039
:103F90000D2B122F89D3122EA24017900D2B122F0A
:103FA0007D74FFFBFAF9F8122D4F900D2B122FC5DF
:023FB00080D8B7
:103FB20090978EE493FF3395E0FE90029B75F01389
:103FC200EF123040EE75F013A42583F58312305CB6
:103FD200E92407F9E43AFA7556FF75577475583DA6
:103FE2007559FF755A75755B74126BD690978EE48E
:103FF20093FF3395E0FE90029B75F013EF12304071
:10400200EE75F013A42583F58312305CE92407F9D9
:10401200E43AFA12000EEF2401F557E43EF5569009
:10402200978DE493FF7B737D01129FE112C0317B78
:0C403200017A0C79357D7A7C0012BA59B5
:10403E00900D2F122FD1000107ACE4FFFEFDFC9076
:10404E000D2F122F89D3122EA24017900D2F122F43
:10405E007D74FFFBFAF9F8122D4F900D2F122FC51C
:02406E0080D8F8
:1040700090978EE493FF3395E0FE90029B75F013CA
:10408000EF123040EE75F013A42583F58312305CF7
:10409000E92407F9E43AFA7556FF75577475583DE7
:1040A0007559FF755A75755B97126BD690978EE4AC
:1040B00093FF3395E0FE90029B75F013EF123040B2
:1040C000EE75F013A42583F58312305CE92407F91B
:1040D000E43AFA12000EEF2401F557E43EF556904B
:1040E000978DE493FF7B737D01129FE1D2B3C2B63B
:0F40F000C2B5C2B4E4900004F012AFC1854C8495
:0140FF00229E
:10A38E00901113740FF0A374FFF0901111740FF06D
:10A39E00A374FFF090110F740FF0A374FFF0E4900C
:10A3AE001119F0A3F0901117F0A3F0901115F0A36E
:10A3BE00F0FFFE9002B5E060FA90001BE0FCA3E017
:10A3CE00FD90110FE0FAA3E0FBC39DEA9C5006AC92
:10A3DE0002AD03800890001BE0FCA3E0FD90110F7E
:10A3EE00ECF0A3EDF090001DE0FCA3E0FD90111148
:10A3FE00E0FAA3E0FBC39DEA9C5006AC02AD0380DD
:10A40E000890001DE0FCA3E0FD901111ECF0A3ED0F
:10A41E00F0900021E0FCA3E0FD901113E0FAA3E020
:10A42E00FBC39DEA9C5006AC02AD03800890002150
:10A43E00E0FCA3E0FD901113ECF0A3EDF090001BF7
:10A44E00E0FCA3E0FD901115E0FAA3E0FBD39DEA3A
:10A45E009C4006AC02AD03800890001BE0FCA3E01C
:10A46E00FD901115ECF0A3EDF090001DE0FCA3E0C3
:10A47E00FD901117E0FAA3E0FBD39DEA9C4006ACD9
:10A48E0002AD03800890001DE0FCA3E0FD901117C3
:10A49E00ECF0A3EDF0900021E0FCA3E0FD9011198B
:10A4AE00E0FAA3E0FBD39DEA9C4006AC02AD03802C
:10A4BE0008900021E0FCA3E0FD901119ECF0A3ED53
:10A4CE00F0E49002B5F00FBF00010EEF64284E606D
:10A4DE000302A3C1901111E0FEA3E0FF901117E05B
:10A4EE00FCA3E0FDC39FFFEC9EFEC39400400280E0
:10A4FE0016901111E0FEA3E0FFC3ED9FFFEC9EFE50
:10A50E00C3E49FFFE49EFED3EF9404EE9400400359
:10A51E0002A38E90110FE0FEA3E0FF901115E0FC58
:10A52E00A3E0FDC39FFFEC9EFEC394004002801685
:10A53E0090110FE0FEA3E0FFC3ED9FFFEC9EFEC364
:10A54E00E49FFFE49EFED3EF9404EE9400400302DA
:02A55E00A38ECA
:01A5600022D8
:10810600E4F54FF550F584900C9CE0A3E0F5FD9066
:108116000C9CE0A3E0F5FE900C9AE0A3E0F5FB9042
:108126000C9AE0A3E0F5FC90978EE493FF3395E07C
:10813600FE90029B75F013EF123040EE75F013A41B
:108146002583F58312305CE92407F9E43AFA75567B
:10815600FF75577475583D7559FF755A75755BAD42
:10816600126BD690978EE493FF3395E0FE90029BB8
:1081760075F013EF123040EE75F013A42583F583E6
:1081860012305CE92407F9E43AFA12000EEF2401F2
:10819600F557E43EF55690978DE493FF7B737D018A
:0381A600129FE144
:1081A900900D83122FD1000107ACE4FFFEFDFC9076
:1081B9000D83122F89D3122EA24017900D83122FEF
:1081C9007D74FFFBFAF9F8122D4F900D83122FC51C
:0281D90080D84C
:1081DB009002B5E060FAE49002B5F09002B5E06071
:1081EB00FAE54F700F90001BE0FFA3E0900C8ECFD1
:1081FB00F0A3EFF0E550700F90001DE0FFA3E090AF
:10820B000C90CFF0A3EFF0E49002B5F0E54F704B7C
:10821B00900C8EE0FEA3E02400EE34F8C36480944F
:10822B00804010900C8EE0FEA3E02400FFEE34F8AB
:10823B00FE8015900C8EE0FEA3E02400FFEE34F8D8
:10824B00FEC3E49FFFE49EFED3EF9405EE6480949F
:10825B008050047F0180027F008F4FE54F7048C331
:10826B00900C8EE094085015900C9AE07002A3E0ED
:10827B0070028014900C9A74FFF5F08017900C9A92
:10828B00E07003A3E0F47005754F01800A900C9A1F
:10829B00E475F001122C3C900C9AE0A3E0F5FB90F6
:1082AB000C9AE0A3E0F5FCE550704B900C90E0FECF
:1082BB00A3E02400EE34F8C3648094804010900C4B
:1082CB0090E0FEA3E02400FFEE34F8FE8015900C46
:1082DB0090E0FEA3E02400FFEE34F8FEC3E49FFF22
:1082EB00E49EFED3EF9405EE6480948050047F01EE
:1082FB0080027F008F50E5507048C3900C90E09443
:10830B00085015900C9CE07002A3E0700280149052
:10831B000C9C74FFF5F08017900C9CE07003A3E0AD
:10832B00F47005755001800A900C9CE475F00112F5
:10833B002C3C900C9CE0A3E0F5FD900C9CE0A3E0A2
:10834B00F5FEE54F70030281DBE55070030281DB24
:10835B0012A38E90001BE0FFA3E0900C8ECFF0A336
:10836B00EFF090001DE0FFA3E0900C90CFF0A3EF97
:10837B00F090978EE493FF3395E0FE90029B75F09F
:10838B0013EF123040EE75F013A42583F5831230F2
:10839B005CE92407F9E43AFA7556FF755775755879
:1083AB00BE900C9AE0F559A3E0F55A900C9CE0F5C1
:1083BB005BA3E0F55C126BD690978EE493FF33953D
:1083CB00E0FE90029B75F013EF123040EE75F01348
:1083DB00A42583F58312305CE92407F9E43AFA12F9
:1083EB00000EEF2401F557E43EF55690978DE4937C
:0883FB00FF7B737D01129FE17D
:10840300900D87122FD1000107ACE4FFFEFDFC9015
:108413000D87122F89D3122EA24017900D87122F8A
:108423007D74FFFBFAF9F8122D4F900D87122FC5BB
:0284330080D8EF
:108435007556FF7557757558CF900C8EE0F559A395
:10844500E0F55A900C90E0F55BA3E0F55C7B017AD2
:108455000D798F126BD690978EE493FF3395E0FEDE
:1084650090029B75F013EF123040EE75F013A425C2
:1084750083F58312305CE92407F9E43AFA7556FF6F
:1084850075577475583D755901755A0D755B8F1281
:108495006BD690978EE493FF3395E0FE90029B7523
:1084A500F013EF123040EE75F013A42583F5831217
:1084B500305CE92407F9E43AFA12000EEF2401F5DD
:1084C50057E43EF55690978DE493FF7B737D01123B
:0284D5009FE125
:1084D700900D8B122FD1000107ACE4FFFEFDFC903D
:1084E7000D8B122F89D3122EA24017900D8B122FAE
:1084F7007D74FFFBFAF9F8122D4F900D8B122FC5E3
:0285070080D81A
:01850900224F
:02850A008F4C94
:10850C0085844DE4F54EF54FF55290978E93FF33DD
:10851C0095E0FE90029B75F013EF123040EE75F073
:10852C0013A42583F58312305CE92407F9E43AFAA5
:10853C007556FF75577475583D7559FF755A757595
:10854C005BE0126BD690978EE493FF3395E0FE9030
:10855C00029B75F013EF123040EE75F013A42583D7
:10856C00F58312305CE92407F9E43AFA12000EEFB5
:10857C002401F557E43EF55690978DE493FF7B73F9
:10858C007D01129FE1E49002CEF0A3F0F550F5517D
:10859C00D3900956E09551900955E095504023AE83
:1085AC0050AF517C017D00122C0674592551F58277
:1085BC0074003550F583EDF00551E551700205500E
:1085CC0080CE75840F30E819C39002CFE0940990E7
:1085DC0002CEE0940040030287D1E49002CEF0A3D7
:1085EC00F0900955E0FCA3E0FD7B017A00795985F8
:1085FC004E5D854F5EE4FFFE12B7E1900955E0FE3B
:10860C00A3E0FF7B017A007959854E58854F5912AA
:10861C00B6BCE4F550F551D3900956E0955190094C
:10862C0055E09550402DAE50AF517C017D00122C81
:10863C000674592551F58274003550F583E06D7040
:10864C0001EC6005755201800A0551E55170020577
:10865C005080C4E55270030286E890978EE493FF35
:10866C003395E0FE90029B75F013EF123040EE75DF
:10867C00F013A42583F58312305CE92407F9E43A5E
:10868C00FA7556FF7557757558EF854E59854F5AC3
:10869C0085505B85515C126BD690978EE493FF33BB
:1086AC0095E0FE90029B75F013EF123040EE75F0E2
:1086BC0013A42583F58312305CE92407F9E43AFA14
:1086CC0012000EEF2401F557E43EF55690978DE419
:0C86DC0093FF7B737D01129FE10287D1A8
:1086E800900CF3122FD1000107ACE4FFFEFDFC90C3
:1086F8000CF3122F89D3122EA24017900CF3122FCD
:108708007D74FFFBFAF9F8122D4F900CF3122FC568
:0287180080D807
:10871A0090978EE493FF3395E0FE90029B75F013D9
:10872A00EF123040EE75F013A42583F58312305C06
:10873A00E92407F9E43AFA7556FF7557767558131E
:10874A00854E59854F5A126BD690978EE493FF3314
:10875A0095E0FE90029B75F013EF123040EE75F033
:10876A0013A42583F58312305CE92407F9E43AFA65
:10877A0012000EEF2401F557E43EF55690978DE46A
:10878A0093FF7B737D01129FE1AF4FAE4E12BE4C39
:10879A00D3900C30E0954F900C2FE0954E5007E4A3
:1087AA00F54EF54F8008054FE54F7002054EE54C32
:1087BA00643470030285CED3E54F9404E54E648099
:0E87CA00948050030285CEE49002CEF0A3F01E
:1087D800900CF7122FD1000107ACE4FFFEFDFC90CE
:1087E8000CF7122F89D3122EA24017900CF7122FD4
:1087F8007D74FFFBFAF9F8122D4F900CF7122FC574
:0288080080D816
:10880A0090978EE493FF3395E0FE90029B75F013E8
:10881A00EF123040EE75F013A42583F58312305C15
:10882A00E92407F9E43AFA7556FF75577475583D05
:10883A007559FF755A76755B1E126BD690978EE442
:10884A0093FF3395E0FE90029B75F013EF123040D0
:10885A00EE75F013A42583F58312305CE92407F939
:10886A00E43AFA12000EEF2401F557E43EF5569069
:0F887A00978DE493FF7B737D01129FE1854D8401
:0188890022CC
:1059E20085844C78137C0D7D017BFF7A7879767EF5
:0C59F200007F08122ACC9000047401F021
:1059FE00900CF3122FD1000107ACE4FFFEFDFC90DA
:105A0E000CF3122F89D3122EA24017900CF3122FE3
:105A1E007D74FFFBFAF9F8122D4F900CF3122FC57F
:025A2E0080D81E
:105A300090978EE493FF3395E0FE90029B75F013F0
:105A4000EF123040EE75F013A42583F58312305C1D
:105A5000E92407F9E43AFA7556FF75577475583D0D
:105A60007559FF755A76755B2B126BD690978EE43D
:105A700093FF3395E0FE90029B75F013EF123040D8
:105A8000EE75F013A42583F58312305CE92407F941
:105A9000E43AFA12000EEF2401F557E43EF5569071
:105AA000978DE493FF7B737D01129FE1E49002CE1A
:035AB000F0A3F070
:105AB30075840F30E819C39002CFE094099002CEA9
:105AC300E094004003026010E49002CEF0A3F09053
:0A5AD30002B5E060DBE4F085D84D79
:105ADD00900CF7122FD10006DDD0E4FFFEFDFC90F7
:105AED000CF7122F89D3122EA24017900CF7122FFC
:105AFD007D74FFFBFAF9F8122D4F900CF7122FC59C
:025B0D0080D83E
:105B0F0090978EE493FF3395E0FE90029B75F01310
:105B1F00EF123040EE75F013A42583F58312305C3D
:105B2F00E92407F9E43AFA7556FF75577475583D2D
:105B3F007559FF755A75755B24126BD690978EE465
:105B4F0093FF3395E0FE90029B75F013EF123040F8
:105B5F00EE75F013A42583F58312305CE92407F961
:105B6F00E43AFA12000EEF2401F557E43EF5569091
:0C5B7F00978DE493FF7B737D01129FE182
:105B8B00900CFB122FD1000107ACE4FFFEFDFC9043
:105B9B000CFB122F89D3122EA24017900CFB122F45
:105BAB007D74FFFBFAF9F8122D4F900CFB122FC5E9
:025BBB0080D890
:105BBD007556FF7557767558367B017A0D791B1220
:105BCD006BD6754E00754F067B017A0D791B120051
:105BDD000E741B2FF9740D3EFA7B01C003C002C079
:105BED00017413254FF582740D354EF583E0554D37
:105BFD007BFF60067A76793E80047A7679408B5603
:105C0D008A578958D001D002D003126BD6E54F15B3
:105C1D004F7002154EC3E54E6480948050AA909744
:105C2D008EE493FF3395E0FE90029B75F013EF1217
:105C3D003040EE75F013A42583F58312305CE92412
:105C4D0007F9E43AFA7556FF75577475583D75594D
:105C5D0001755A0D755B1B126BD690978EE493FFF1
:105C6D003395E0FE90029B75F013EF123040EE7508
:105C7D00F013A42583F58312305CE92407F9E43A87
:105C8D00FA12000EEF2401F557E43EF55690978D6C
:0A5C9D00E493FF7B737D01129FE189
:105CA700900CFF122FD1000107ACE4FFFEFDFC9022
:105CB7000CFF122F89D3122EA24017900CFF122F20
:105CC7007D74FFFBFAF9F8122D4F900CFF122FC5C8
:025CD70080D873
:105CD9007556FF75577675584290001BE0F559A324
:105CE900E0F55AA3E0F55BA3E0F55C7B017A0D7959
:105CF9001B126BD690978EE493FF3395E0FE9002CA
:105D09009B75F013EF123040EE75F013A42583F55F
:105D19008312305CE92407F9E43AFA7556FF75579E
:105D29007475583D755901755A0D755B1B126BD603
:105D390090978EE493FF3395E0FE90029B75F013E4
:105D4900EF123040EE75F013A42583F58312305C11
:105D5900E92407F9E43AFA12000EEF2401F557E4B1
:105D69003EF55690978DE493FF7B737D01129FE179
:105D7900900D03122FD1000107ACE4FFFEFDFC904A
:105D89000D03122F89D3122EA24017900D03122F43
:105D99007D74FFFBFAF9F8122D4F900D03122FC5F0
:025DA90080D8A0
:105DAB00900018E060187556FF75577675584F9030
:105DBB000021E0F559A3E0F55A90001F80147556A9
:105DCB00FF75577675585D90001FE0F559A3E0F508
:105DDB005AA3E0F55BA3E0F55C7B017A0D791B120E
:105DEB006BD690978EE493FF3395E0FE90029B75F4
:105DFB00F013EF123040EE75F013A42583F58312E8
:105E0B00305CE92407F9E43AFA7556FF7557747557
:105E1B00583D755901755A0D755B1B126BD69097D2
:105E2B008EE493FF3395E0FE90029B75F013EF1217
:105E3B003040EE75F013A42583F58312305CE92412
:105E4B0007F9E43AFA12000EEF2401F557E43EF598
:0E5E5B005690978DE493FF7B737D01129FE1BB
:105E6900900D07122FD1000107ACE4FFFEFDFC9055
:105E79000D07122F89D3122EA24017900D07122F4A
:105E89007D74FFFBFAF9F8122D4F900D07122FC5FB
:025E990080D8AF
:105E9B007556FF75577675586B900023E0F559A32F
:105EAB00E0F55AA3E0F55BA3E0F55C7B017A0D7995
:105EBB001B126BD690978EE493FF3395E0FE900206
:105ECB009B75F013EF123040EE75F013A42583F59C
:105EDB008312305CE92407F9E43AFA7556FF7557DB
:105EEB007475583D755901755A0D755B1B126BD640
:105EFB0090978EE493FF3395E0FE90029B75F01321
:105F0B00EF123040EE75F013A42583F58312305C4D
:105F1B00E92407F9E43AFA12000EEF2401F557E4ED
:105F2B003EF55690978DE493FF7B737D01129FE1B5
:105F3B00900D0B122FD1000107ACE4FFFEFDFC907E
:105F4B000D0B122F89D3122EA24017900D0B122F6F
:105F5B007D74FFFBFAF9F8122D4F900D0B122FC524
:025F6B0080D8DC
:105F6D007556FF75577675587A900027E0F559A349
:105F7D00E0F55AA3E0F55BA3E0F55C7B017A0D79C2
:105F8D001B126BD690978EE493FF3395E0FE900233
:105F9D009B75F013EF123040EE75F013A42583F5C9
:105FAD008312305CE92407F9E43AFA7556FF755708
:105FBD007475583D755901755A0D755B1B126BD66D
:105FCD0090978EE493FF3395E0FE90029B75F0134E
:105FDD00EF123040EE75F013A42583F58312305C7B
:105FED00E92407F9E43AFA12000EEF2401F557E41B
:105FFD003EF55690978DE493FF7B737D01129FE1E3
:0A600D00025AB3E49002CEF0A3F0B3
:10601700900D0F122FD1000107ACE4FFFEFDFC909D
:106027000D0F122F89D3122EA24017900D0F122F8A
:106037007D74FFFBFAF9F8122D4F900D0F122FC543
:0260470080D8FF
:1060490090978EE493FF3395E0FE90029B75F013D1
:10605900EF123040EE75F013A42583F58312305CFE
:10606900E92407F9E43AFA7556FF75577475583DEE
:106079007559FF755A76755B89126BD690978EE4C0
:1060890093FF3395E0FE90029B75F013EF123040B9
:10609900EE75F013A42583F58312305CE92407F922
:1060A900E43AFA12000EEF2401F557E43EF5569052
:1060B900978DE493FF7B737D01129FE1D2B3C2B642
:0C60C900C2B5C2B4E4900004F0854C8421
:0160D50022A8
:1094AE0085844CE4F54FF55078FF7C0C7D017BFFF5
:0A94BE007A78797EFE7F08122ACC2E
:1094C800900CF3122FD1000107ACE4FFFEFDFC90D5
:1094D8000CF3122F89D3122EA24017900CF3122FDF
:1094E8007D74FFFBFAF9F8122D4F900CF3122FC57B
:0294F80080D81A
:1094FA0090978EE493FF3395E0FE90029B75F013EC
:10950A00EF123040EE75F013A42583F58312305C18
:10951A00E92407F9E43AFA7556FF75577475583D08
:10952A007559FF755A76755B9D126BD690978EE4C6
:10953A0093FF3395E0FE90029B75F013EF123040D3
:10954A00EE75F013A42583F58312305CE92407F93C
:10955A00E43AFA12000EEF2401F557E43EF556906C
:0C956A00978DE493FF7B737D01129FE15D
:10957600900CF7122FD1000107ACE4FFFEFDFC9022
:109586000CF7122F89D3122EA24017900CF7122F28
:109596007D74FFFBFAF9F8122D4F900CF7122FC5C8
:0295A60080D86B
:1095A800E49002CEF0A3F0900279E024A0F54E906A
:1095B8000278E03400F54D75840F30E819C3900245
:1095C800CFE094099002CEE094004003029697E41D
:1095D8009002CEF0A3F0900278E0FEA3E0FFB54E33
:1095E800D6EEB54DD2EF24A0F54EE43EF54D90975A
:1095F8008EE493FF3395E0FE90029B75F013EF1213
:109608003040EE75F013A42583F58312305CE9240D
:1096180007F9E43AFA7556FF7557767558A9854FD4
:109628005985505A126BD690978EE493FF3395E084
:10963800FE90029B75F013EF123040EE75F013A404
:109648002583F58312305CE92407F9E43AFA12001D
:109658000EEF2401F557E43EF55690978DE493FFFD
:109668007B737D01129FE174FF2550F582740C35E0
:109678004FF583E0F5C80550E5507002054FFFAE81
:109688004F7C007D07122C068C4F8D500295BFE44D
:069698009002CEF0A3F0E9
:10969E00900CFB122FD1000107ACE4FFFEFDFC90F5
:1096AE000CFB122F89D3122EA24017900CFB122FF7
:1096BE007D74FFFBFAF9F8122D4F900CFB122FC59B
:0296CE0080D842
:1096D00090978EE493FF3395E0FE90029B75F01314
:1096E000EF123040EE75F013A42583F58312305C41
:1096F000E92407F9E43AFA7556FF75577475583D31
:109700007559FF755A76755BB0126BD690978EE4DB
:1097100093FF3395E0FE90029B75F013EF123040FB
:10972000EE75F013A42583F58312305CE92407F964
:10973000E43AFA12000EEF2401F557E43EF5569094
:10974000978DE493FF7B737D01129FE1D2B3C2B684
:07975000C2B5C2B4854C84D0
:0197570022EF
:0C60D60085844C754E019000047401F0AC
:1060E200900CF3122FD1000107ACE4FFFEFDFC90EF
:1060F2000CF3122F89D3122EA24017900CF3122FF9
:106102007D74FFFBFAF9F8122D4F900CF3122FC594
:0261120080D833
:1061140090978EE493FF3395E0FE90029B75F01305
:10612400EF123040EE75F013A42583F58312305C32
:10613400E92407F9E43AFA7556FF75577475583D22
:106144007559FF755A76755BC5126BD690978EE4B8
:1061540093FF3395E0FE90029B75F013EF123040ED
:10616400EE75F013A42583F58312305CE92407F956
:10617400E43AFA12000EEF2401F557E43EF5569086
:0C618400978DE493FF7B737D01129FE177
:10619000900CF7122FD1000107ACE4FFFEFDFC903C
:1061A0000CF7122F89D3122EA24017900CF7122F42
:1061B0007D74FFFBFAF9F8122D4F900CF7122FC5E2
:0261C00080D885
:1061C20090978EE493FF3395E0FE90029B75F01357
:1061D200EF123040EE75F013A42583F58312305C84
:1061E200E92407F9E43AFA7556FF75577475583D74
:1061F2007559FF755A76755BCE126BD690978EE401
:1062020093FF3395E0FE90029B75F013EF1230403E
:10621200EE75F013A42583F58312305CE92407F9A7
:10622200E43AFA12000EEF2401F557E43EF55690D7
:0C623200978DE493FF7B737D01129FE1C8
:10623E00900CFB122FD1000107ACE4FFFEFDFC9089
:10624E000CFB122F89D3122EA24017900CFB122F8B
:10625E007D74FFFBFAF9F8122D4F900CFB122FC52F
:02626E0080D8D6
:1062700090978EE493FF3395E0FE90029B75F013A8
:10628000EF123040EE75F013A42583F58312305CD5
:10629000E92407F9E43AFA7556FF75577475583DC5
:1062A0007559FF755A76755BF1126BD690978EE42F
:1062B00093FF3395E0FE90029B75F013EF12304090
:1062C000EE75F013A42583F58312305CE92407F9F9
:1062D000E43AFA12000EEF2401F557E43EF5569029
:1062E000978DE493FF7B737D01129FE19002B5E0EF
:1062F00060FAE4F54FE54F1230F7631600631601BC
:1063000063440263720363AC0463DA0564070664E2
:1063100034070000645FE54F25E0241BF582E43478
:1063200000F583E0FEA3E0FFC394A4EE9406400DC5
:10633000D3EF94FCEE940850047F0180027F008F1D
:106340004D02645FE54F25E0241BF582E43400F53F
:1063500083E0FEA3E0FFC39484EE940E400DD3EFE0
:10636000949CEE941050047F0180027F008F4D02B8
:10637000645F900018E0602EE54F25E0241BF58255
:10638000E43400F583E0FEA3E0FFC394AAEE940595
:10639000400DD3EF946CEE940750047F0180027F90
:1063A000008F4D02645F754D0102645FE54F25E08B
:1063B000241BF582E43400F583E0FEA3E0FFC394E0
:1063C00030EE9404400DD3EF9460EE940550047FBA
:1063D0000180027F008F4D02645FE54F25E0241BA2
:1063E000F582E43400F583E0FEA3E0FFC394CAEE37
:1063F0009402400DD3EF9496EE940350047F0180F5
:10640000027F008F4D8058E54F25E0241BF582E484
:106410003400F583E0FEA3E0FFC39465EE940140F1
:106420000DD3EF94CBEE940150047F0180027F00E6
:106430008F4D802BE54F25E0241BF582E43400F5D9
:1064400083E0FEA3E0FFC3943FEE9403400DD3EF3F
:10645000942BEE940450047F0180027F008F4DE561
:106460004D7002F54E7B017A0D790712000E74070C
:106470002FF9740D3EFA7B01C003C002C001E54D47
:106480007BFF60067A77790980047A77790D8B56DD
:106490008A578958D001D002D003126BD6054FE538
:0E64A0004FC3940850030262F5E49002B5F079
:1064AE00900CFF122FD1000107ACE4FFFEFDFC9013
:1064BE000CFF122F89D3122EA24017900CFF122F11
:1064CE007D74FFFBFAF9F8122D4F900CFF122FC5B9
:0264DE0080D864
:1064E00090978EE493FF3395E0FE90029B75F01336
:1064F000EF123040EE75F013A42583F58312305C63
:10650000E92407F9E43AFA7556FF75577475583D52
:10651000755901755A0D755B07126BD690978EE40D
:1065200093FF3395E0FE90029B75F013EF1230401D
:10653000EE75F013A42583F58312305CE92407F986
:10654000E43AFA12000EEF2401F557E43EF55690B6
:0C655000978DE493FF7B737D01129FE1A7
:10655C00900D03122FD1000107ACE4FFFEFDFC905F
:10656C000D03122F89D3122EA24017900D03122F58
:10657C007D74FFFBFAF9F8122D4F900D03122FC505
:02658C0080D8B5
:10658E00E54E90978E6038E493FF3395E0FE9002CF
:10659E009B75F013EF123040EE75F013A42583F5C2
:1065AE008312305CE92407F9E43AFA7556FF755701
:1065BE007475583D7559FF755A77755B118036E4C1
:1065CE0093FF3395E0FE90029B75F013EF1230406F
:1065DE00EE75F013A42583F58312305CE92407F9D8
:1065EE00E43AFA7556FF75577475583D7559FF752F
:1065FE005A77755B1E126BD690978EE493FF339588
:10660E00E0FE90029B75F013EF123040EE75F01322
:10661E00A42583F58312305CE92407F9E43AFA12D3
:10662E00000EEF2401F557E43EF55690978DE49356
:10663E00FF7B737D01129FE1D2B3C2B6C2B5C2B465
:08664E00E4900004F0854C8487
:016656002221
:0E66570085844C754D01E4F54F90000404F06D
:10666500900CF3122FD1000107ACE4FFFEFDFC9066
:106675000CF3122F89D3122EA24017900CF3122F70
:106685007D74FFFBFAF9F8122D4F900CF3122FC50C
:0266950080D8AB
:1066970090978EE493FF3395E0FE90029B75F0137D
:1066A700EF123040EE75F013A42583F58312305CAA
:1066B700E92407F9E43AFA7556FF75577475583D9A
:1066C7007559FF755A77755B30126BD690978EE4C4
:1066D70093FF3395E0FE90029B75F013EF12304065
:1066E700EE75F013A42583F58312305CE92407F9CE
:1066F700E43AFA12000EEF2401F557E43EF55690FE
:10670700978DE493FF7B737D01129FE1900018E062
:02671700706EA2
:10671900900CF7122FD1000107ACE4FFFEFDFC90AD
:106729000CF7122F89D3122EA24017900CF7122FB3
:106739007D74FFFBFAF9F8122D4F900CF7122FC553
:0267490080D8F6
:10674B0090978EE493FF3395E0FE90029B75F013C8
:10675B00EF123040EE75F013A42583F58312305CF5
:10676B00E92407F9E43AFA7556FF75577475583DE5
:10677B007559FF755A77755B40026B26E4F550E54A
:10678B0050B40707E4F5C8D2FB8005854FC8C2FBA0
:10679B00900CFB122FD1000107ACE4FFFEFDFC9027
:1067AB000CFB122F89D3122EA24017900CFB122F29
:1067BB007D74FFFBFAF9F8122D4F900CFB122FC5CD
:0267CB0080D874
:1067CD0090978EE493FF3395E0FE90029B75F01346
:1067DD00EF123040EE75F013A42583F58312305C73
:1067ED00E92407F9E43AFA7556FF75577775585E3F
:1067FD00855059126BD690978EE493FF3395E0FE3A
:10680D0090029B75F013EF123040EE75F013A42536
:10681D0083F58312305CE92407F9E43AFA12000E8D
:10682D00EF2401F557E43EF55690978DE493FF7BE9
:10683D00737D01129FE19002B5E060FAE5501230D0
:10684D00F7686A0068950168C00268EB0369160471
:10685D00694005696A06699407000069A7E5D8B51E
:10686D004F1FD390001EE094CA90001DE09402408B
:10687D001020A00D20A10A3086073087047F0180EB
:10688D00027F008F4E0269A7E5D8B54F1FC3900058
:10689D001EE0942C90001DE09401501020A00D20BE
:1068AD00A10A2086073087047F0180027F008F4E6A
:1068BD000269A7E5D8B54F1FC390001EE0942C9038
:1068CD00001DE09401501020A00D20A10A30860774
:1068DD002087047F0180027F008F4E0269A7E5D8D3
:1068ED00B54F1FC390001EE0942C90001DE0940145
:1068FD00501020A00D20A10A3086073087047F019B
:10690D0080027F008F4E0269A7E5D8B54F1FC39057
:10691D00001EE0942C90001DE09401501020A00D5D
:10692D0020A10A3086073087047F0180027F008F07
:10693D004E8067E5D8B54F1FC390001EE0942C9094
:10694D00001DE09401501020A00D30A10A308607E3
:10695D003087047F0180027F008F4E803DE5D8B5E2
:10696D004F1FC390001EE0942C90001DE094015029
:10697D001030A00D20A10A3086073087047F0180DA
:10698D00027F008F4E8013E54FB4030A2086072047
:10699D0087047F0180027F008F4EE49002B5F0E501
:0669AD004E6003026A6463
:1069B300900CFF122FD1000107ACE4FFFEFDFC9009
:1069C3000CFF122F89D3122EA24017900CFF122F07
:1069D3007D74FFFBFAF9F8122D4F900CFF122FC5AF
:0269E30080D85A
:1069E50090978EE493FF3395E0FE90029B75F0132C
:1069F500EF123040EE75F013A42583F58312305C59
:106A0500E92407F9E43AFA7556FF75577475583D48
:106A15007559FF755A77755B71126BD690978EE431
:106A250093FF3395E0FE90029B75F013EF12304013
:106A3500EE75F013A42583F58312305CE92407F97C
:106A4500E43AFA12000EEF2401F557E43EF55690AC
:106A5500978DE493FF7B737D01129FE1E4F54DE58E
:106A65004F7005754F018006E54F25E0F54F055040
:0A6A7500E550C39407500302678A3E
:106A7F00900D03122FD1000107ACE4FFFEFDFC9037
:106A8F000D03122F89D3122EA24017900D03122F30
:106A9F007D74FFFBFAF9F8122D4F900D03122FC5DD
:026AAF0080D88D
:106AB100E54D90978E6038E493FF3395E0FE9002A8
:106AC1009B75F013EF123040EE75F013A42583F59A
:106AD1008312305CE92407F9E43AFA7556FF7557D9
:106AE1007475583D7559FF755A77755B7D8036E42D
:106AF10093FF3395E0FE90029B75F013EF12304047
:106B0100EE75F013A42583F58312305CE92407F9AF
:106B1100E43AFA7556FF75577475583D7559FF7506
:106B21005A77755B8D126BD690978EE493FF3395F0
:106B3100E0FE90029B75F013EF123040EE75F013FA
:106B4100A42583F58312305CE92407F9E43AFA12AB
:106B5100000EEF2401F557E43EF55690978DE4932E
:106B6100FF7B737D01129FE1D2B3C2B6C2B5C2B43D
:086B7100E4900004F0854C845F
:016B790022F9
:097CCC0085844C9000047401F061
:107CD500900CF3122FD1000107ACE4FFFEFDFC90E0
:107CE5000CF3122F89D3122EA24017900CF3122FEA
:107CF5007D74FFFBFAF9F8122D4F900CF3122FC586
:027D050080D824
:107D070090978EE493FF3395E0FE90029B75F013F6
:107D1700EF123040EE75F013A42583F58312305C23
:107D2700E92407F9E43AFA7556FF75577475583D13
:107D37007559FF755A77755BA2126BD690978EE4CB
:107D470093FF3395E0FE90029B75F013EF123040DE
:107D5700EE75F013A42583F58312305CE92407F947
:107D6700E43AFA12000EEF2401F557E43EF5569077
:107D7700978DE493FF7B737D01129FE1900018E0DC
:027D8700706E1C
:107D8900900CF7122FD1000107ACE4FFFEFDFC9027
:107D99000CF7122F89D3122EA24017900CF7122F2D
:107DA9007D74FFFBFAF9F8122D4F900CF7122FC5CD
:027DB90080D870
:107DBB0090978EE493FF3395E0FE90029B75F01342
:107DCB00EF123040EE75F013A42583F58312305C6F
:107DDB00E92407F9E43AFA7556FF75577475583D5F
:0F7DEB007559FF755A77755B400280B275C820D5
:107DFA00900CFB122FD1000107ACE4FFFEFDFC90B2
:107E0A000CFB122F89D3122EA24017900CFB122FB3
:107E1A007D74FFFBFAF9F8122D4F900CFB122FC557
:027E2A0080D8FE
:107E2C0090978EE493FF3395E0FE90029B75F013D0
:107E3C00EF123040EE75F013A42583F58312305CFD
:107E4C00E92407F9E43AFA7556FF75577475583DED
:107E5C007559FF755A77755BAE126BD690978EE499
:107E6C0093FF3395E0FE90029B75F013EF123040B8
:107E7C00EE75F013A42583F58312305CE92407F921
:107E8C00E43AFA12000EEF2401F557E43EF5569051
:107E9C00978DE493FF7B737D01129FE17F0112C0EC
:017EAC00894C
:107EAD00900CFF122FD1000107ACE4FFFEFDFC90FA
:107EBD000CFF122F89D3122EA24017900CFF122FF8
:107ECD007D74FFFBFAF9F8122D4F900CFF122FC5A0
:027EDD0080D84B
:107EDF0090978EE493FF3395E0FE90029B75F0131D
:107EEF00EF123040EE75F013A42583F58312305C4A
:107EFF00E92407F9E43AFA7556FF75577475583D3A
:107F0F007559FF755A77755BC1126BD690978EE4D2
:107F1F0093FF3395E0FE90029B75F013EF12304004
:107F2F00EE75F013A42583F58312305CE92407F96D
:107F3F00E43AFA12000EEF2401F557E43EF556909D
:0E7F4F00978DE493FF7B737D01129FE1C2FFCB
:107F5D00900D03122FD10006DDD0E4FFFEFDFC9045
:107F6D000D03122F89D3122EA24017900D03122F3D
:107F7D007D74FFFBFAF9F8122D4F900D03122FC5EA
:027F8D0080D89A
:027F8F00D2FF1F
:107F9100900D07122FD1000107ACE4FFFEFDFC900C
:107FA1000D07122F89D3122EA24017900D07122F01
:107FB1007D74FFFBFAF9F8122D4F900D07122FC5B2
:027FC10080D866
:107FC30090978EE493FF3395E0FE90029B75F01338
:107FD300EF123040EE75F013A42583F58312305C65
:107FE300E92407F9E43AFA7556FF75577475583D55
:107FF3007559FF755A77755BD4126BD690978EE4DB
:1080030093FF3395E0FE90029B75F013EF1230401F
:10801300EE75F013A42583F58312305CE92407F988
:10802300E43AFA12000EEF2401F557E43EF55690B8
:10803300978DE493FF7B737D01129FE1E4FF12C0F0
:0480430089E4F5C80F
:10804700900D0B122FD1000107ACE4FFFEFDFC9051
:108057000D0B122F89D3122EA24017900D0B122F42
:108067007D74FFFBFAF9F8122D4F900D0B122FC5F7
:0280770080D8AF
:1080790090978EE493FF3395E0FE90029B75F01381
:10808900EF123040EE75F013A42583F58312305CAE
:10809900E92407F9E43AFA7556FF75577475583D9E
:1080A9007559FF755A77755BE8126BD690978EE410
:1080B90093FF3395E0FE90029B75F013EF12304069
:1080C900EE75F013A42583F58312305CE92407F9D2
:1080D900E43AFA12000EEF2401F557E43EF5569002
:1080E900978DE493FF7B737D01129FE1D2B3C2B6F2
:0C80F900C2B5C2B4E4900004F0854C84D1
:018105002257
:10788600E4900D0BF0A3F0A2FB92018584509000CA
:037896000404F0F7
:10789900900CF3122FD1000107ACE4FFFEFDFC9020
:1078A9000CF3122F89D3122EA24017900CF3122F2A
:1078B9007D74FFFBFAF9F8122D4F900CF3122FC5C6
:0278C90080D865
:1078CB0090978EE493FF3395E0FE90029B75F01337
:1078DB00EF123040EE75F013A42583F58312305C64
:1078EB00E92407F9E43AFA7556FF75577475583D54
:1078FB007559FF755A77755BF9126BD690978EE4B5
:10790B0093FF3395E0FE90029B75F013EF1230401E
:10791B00EE75F013A42583F58312305CE92407F987
:10792B00E43AFA12000EEF2401F557E43EF55690B7
:10793B00978DE493FF7B737D01129FE1900018E01C
:02794B00706E5C
:10794D00900CF7122FD1000107ACE4FFFEFDFC9067
:10795D000CF7122F89D3122EA24017900CF7122F6D
:10796D007D74FFFBFAF9F8122D4F900CF7122FC50D
:02797D0080D8B0
:10797F0090978EE493FF3395E0FE90029B75F01382
:10798F00EF123040EE75F013A42583F58312305CAF
:10799F00E92407F9E43AFA7556FF75577475583D9F
:1079AF007559FF755A77755B40027C78C2FBE4F519
:0379BF0084D2C6A9
:1079C200900CFB122FD1000107ACE4FFFEFDFC90EE
:1079D2000CFB122F89D3122EA24017900CFB122FF0
:1079E2007D74FFFBFAF9F8122D4F900CFB122FC594
:0279F20080D83B
:1079F40090978EE493FF3395E0FE90029B75F0130D
:107A0400EF123040EE75F013A42583F58312305C39
:107A1400E92407F9E43AFA7556FF75577875580D55
:107A2400755908755A01755BF4126BD690978EE4FC
:107A340093FF3395E0FE90029B75F013EF123040F4
:107A4400EE75F013A42583F58312305CE92407F95D
:107A5400E43AFA12000EEF2401F557E43EF556908D
:107A6400978DE493FF7B737D01129FE1D2B6D2B36D
:107A7400C2B4C2B590005012305C7408122B6BE48F
:107A8400F54CF54DE54D2440FF90005012305CE577
:107A94004D2401FDE4354C8D82F583EF122B7D05D9
:107AA4004DE54D7002054C6408454C70D790004E6E
:107AB4007409F0A314F090004B7404F0E4F54EF54F
:107AC4004F12C0F4AE4EAF4F7C007D64122BB1ED6B
:107AD4004C6002B2B530E819C39002CFE09409902B
:107AE40002CEE094004003027BCBE49002CEF0A3EC
:017AF400F0A1
:107AF500900CFF122FD100001194E4FFFEFDFC90C5
:107B05000CFF122F89D3122EA24017900CFF122FB3
:107B15007D74FFFBFAF9F8122D4F900CFF122FC55B
:027B250080D806
:107B270012C0D8900056E060FAE4900056F0F54C89
:107B3700F54D90005012305CE54D2401FFE4354CC3
:107B47008F82F583122B0BFF90005312305C854D0B
:107B570082854C83122B0B6F600A900D0BE475F036
:107B670001122C3C054DE54D7002054C6408454C4F
:0E7B770070C0900D0BE07002A3E06002C2B37C
:107B8500900D03122FD100001194E4FFFEFDFC902F
:107B95000D03122F89D3122EA24017900D03122F19
:107BA5007D74FFFBFAF9F8122D4F900D03122FC5C6
:027BB50080D876
:107BB700054FE54F7002054EC394F4E54E9401500E
:087BC70003027AC5A20192FB42
:107BCF00900D07122FD1000107ACE4FFFEFDFC90D2
:107BDF000D07122F89D3122EA24017900D07122FC7
:107BEF007D74FFFBFAF9F8122D4F900D07122FC578
:027BFF0080D82C
:107C0100900D0BE0FEA3E0FF4E90978E6033E4935E
:107C1100FD3395E0FC90029B75F013ED123040ECC2
:107C210075F013A42583F58312305CE92407F9E488
:107C31003AFA7556FF7557787558218E598F5A80C3
:107C410036E493FF3395E0FE90029B75F013EF123B
:107C51003040EE75F013A42583F58312305CE924DE
:107C610007F9E43AFA7556FF75577475583D755919
:107C7100FF755A78755B37126BD690978EE493FF38
:107C81003395E0FE90029B75F013EF123040EE75D4
:107C9100F013A42583F58312305CE92407F9E43A53
:107CA100FA12000EEF2401F557E43EF55690978D38
:107CB100E493FF7B737D01129FE1D2B3C2B4C2B5DD
:0A7CC100C2B6E4900004F085508480
:017CCB002296
:10888A00A2FB920185844C9000047401F090004E82
:0A889A007410F0A3F0E4900056F013
:1088A400900CF3122FD1000107ACE4FFFEFDFC9005
:1088B4000CF3122F89D3122EA24017900CF3122F0F
:1088C4007D74FFFBFAF9F8122D4F900CF3122FC5AB
:0288D40080D84A
:1088D60090978EE493FF3395E0FE90029B75F0131C
:1088E600EF123040EE75F013A42583F58312305C49
:1088F600E92407F9E43AFA7556FF75577475583D39
:108906007559FF755A78755B48126BD690978EE449
:1089160093FF3395E0FE90029B75F013EF12304003
:10892600EE75F013A42583F58312305CE92407F96C
:10893600E43AFA12000EEF2401F557E43EF556909C
:10894600978DE493FF7B737D01129FE1900018E001
:02895600706E41
:10895800900CF7122FD1000107ACE4FFFEFDFC904C
:108968000CF7122F89D3122EA24017900CF7122F52
:108978007D74FFFBFAF9F8122D4F900CF7122FC5F2
:0289880080D895
:10898A0090978EE493FF3395E0FE90029B75F01367
:10899A00EF123040EE75F013A42583F58312305C94
:1089AA00E92407F9E43AFA7556FF75577475583D84
:0E89BA007559FF755A77755B40028B6EC2FBD4
:1089C800900CFB122FD1000107ACE4FFFEFDFC90D8
:1089D8000CFB122F89D3122EA24017900CFB122FDA
:1089E8007D74FFFBFAF9F8122D4F900CFB122FC57E
:0289F80080D825
:1089FA0090978EE493FF3395E0FE90029B75F013F7
:108A0A00EF123040EE75F013A42583F58312305C23
:108A1A00E92407F9E43AFA7556FF75577875580D3F
:108A2A00755908755A01755BF4126BD690978EE4E6
:108A3A0093FF3395E0FE90029B75F013EF123040DE
:108A4A00EE75F013A42583F58312305CE92407F947
:108A5A00E43AFA12000EEF2401F557E43EF5569077
:108A6A00978DE493FF7B737D01129FE1D2B6D2B357
:108A7A00C2B4C2B5E4F58475C304C2C3FFFEEF24D1
:108A8A00F0FD90005012305C8F828E83ED122B7DA8
:108A9A000FBF00010EEF64084E70E3900056E060CD
:108AAA00FA30E816C39002CFE094099002CEE0941F
:108ABA00005042E49002CEF0A3F0E4900056F0FE9B
:108ACA00FF90004FE0FDC3EF9DEE9400502390000D
:108ADA005312305C8F828E83122B0BFD9000501242
:108AEA00305C8F828E83ED122B7D0FBF00010E80CA
:098AFA00D0B2B580A6A20192FBE6
:108B0300900CFF122FD1000107ACE4FFFEFDFC9097
:108B13000CFF122F89D3122EA24017900CFF122F95
:108B23007D74FFFBFAF9F8122D4F900CFF122FC53D
:028B330080D8E8
:108B350090978EE493FF3395E0FE90029B75F013BA
:108B4500EF123040EE75F013A42583F58312305CE7
:108B5500E92407F9E43AFA7556FF75577475583DD7
:108B65007559FF755A78755B5B126BD690978EE4D5
:108B750093FF3395E0FE90029B75F013EF123040A2
:108B8500EE75F013A42583F58312305CE92407F90B
:108B9500E43AFA12000EEF2401F557E43EF556903B
:108BA500978DE493FF7B737D01129FE1D2B3C2B42D
:0C8BB500C2B5C2B6E4900004F0854C8408
:018BC1002291
:10C00000011201010601010201000000010000000F
:10C010000C00000077000004A900002E9B0001D254
:10C02000090012345600B60B61071C71C7471C711A
:01C03000C748
:04B2990041111E0041
:108BC2009002AE12305C8B418A4289439002ADE042
:108BD2009002ACF0E4F53BF53CF540F53FF53EF58F
:108BE2003DAB41AA42A943053CE53CAE3B700205C0
:108BF2003B142406F582E43EF58374FA122B7D05BC
:108C02003CE53CAE3B7002053B142406F582E43E93
:108C1200F583E4122B7D053CE53CAE3B7002053B3F
:108C2200142406F582E43EF5837401122B7D053C83
:108C3200E53CAE3B7002053B142406F582E43EF5AA
:108C420083E4122B7D053CE53CAE3B7002053B14F0
:108C52002406F582E43EF5837401122B7D053CE582
:108C62003CAE3B7002053B142406F582E43EF583DC
:108C7200E4122B7DAD3CAC3B7F087E0612B2C7905E
:108C820002A3E07002A3E070F6900278E0F53BA345
:108C9200E0F53C9002ADE0FF9002ACE0B50713783E
:108CA2003D122FA57B407A4B794C7800D3122EB817
:108CB20050E19002ADE0FF9002ACE06F7003028BD6
:108CC200D6E4F53BF53CAB41AA42A943053CE53C61
:108CD200AE3B7002053B142406F582E43EF5837434
:108CE20001122B7D053CE53CAE3B7002053B142492
:108CF20006F582E43EF583E4122B7D053CE53CAEAD
:108D02003B7002053B142406F582E43EF583E4122F
:108D12002B7D053CE53CAE3B7002053B142406F579
:108D220082E43EF583E4122B7D053CE53CAE3B70CC
:108D320002053B142406F582E43EF58374C0122B2F
:108D42007D053CE53CAE3B7002053B142406F582F2
:108D5200E43EF5837408122B7D053CE53CAE3B7086
:108D620002053B142406F582E43EF583E4122B7DD2
:108D7200053CE53CAE3B7002053B142406F582E45B
:108D82003EF583E4122B7DE92406F9E43AFAE9255B
:108D92003CF9EA353BFA12300200E1000074042586
:108DA2003CF53CE4353BF53BAB41AA42A943053CCB
:108DB200E53CAE3B7002053B142406F582E43EF529
:108DC200837401122B7D053CE53CAE3B7002053BF2
:108DD200142406F582E43EF583E4122B7D053CE57E
:108DE2003CAE3B7002053B142406F582E43EF5835B
:108DF2007401122B7D053CE53CAE3B7002053B1431
:108E02002406F582E43EF583E4122B7D053CE53C25
:108E1200AE3B7002053B142406F582E43EF583E482
:108E2200122B7D053CE53CAE3B7002053B1424064B
:108E3200F582E43EF583E4122B7D053CE53CAE3B36
:108E42007002053B142406F582E43EF583E4122BFE
:108E52007D053CE53CAE3B7002053B142406F582E1
:108E6200E43EF583E4122B7DAD3CAC3B7F007E06F5
:0D8E720012B2C79002A3E07002A3E070F6F8
:108E7F00900CE3122FD1000008CAE4FFFEFDFC9016
:108E8F000CE3122F89D3122EA24017900CE3122F4E
:108E9F007D74FFFBFAF9F8122D4F900CE3122FC5DA
:028EAF0080D869
:108EB1007B017A0279A17F007EE17D007C00129B1B
:018EC100C8E8
:108EC200900CE7122FD100004650E4FFFEFDFC900B
:108ED2000CE7122F89D3122EA24017900CE7122F03
:108EE2007D74FFFBFAF9F8122D4F900CE7122FC593
:028EF20080D826
:018EF400225B
:1000A60078157C0F7D017BFF7AC079007E007F0981
:1000B600122ACC9002AE12305C8B538A548955902A
:1000C6000018E0700302020A9002ADE09002ACF064
:1000D600E4F552E4F550F551E55275F003A4241504
:1000E600F582E4340FF583E0FFAB53AA54A9550516
:1000F60051E551AC5070020550142406F582E43CDB
:10010600F583EF122B7DE55275F003A42415F582D5
:10011600E4340FF583A3E0FF0551E551AC507002BE
:100126000550142406F582E43CF583EF122B7DE599
:100136005275F003A42417F582E4340FF583E0FF2B
:100146000551E551AC5070020550142406F582E4C1
:100156003CF583EF12B2BC9002A3E07002A3E070FC
:10016600F69002ADE0FF9002ACE06F60F49002B151
:1001760012305C9002ADE0FF75F0DCA4F58285F0EC
:1001860083122C93F55185F050EFB402047F008062
:10019600069002ADE004FF9002ADEFF0E551640178
:1001A6007004E5506405600C9002ADE0FF9002AC6F
:0401B600E0B507B9F0
:1001BA00900EF9122FD100001194E4FFFEFDFC907D
:1001CA000EF9122F89D3122EA24017900EF9122F70
:1001DA007D74FFFBFAF9F8122D4F900EF9122FC514
:0201EA0080D8BB
:1001EC00E55164017004E550640560030200D90513
:1001FC0052E552C3940350030200D9020DD2E4F528
:10020C0050F551AB53AA54A9550551E551AE507058
:10021C00020550142406F582E43EF5837401122B7A
:10022C007D0551E551AE5070020550142406F5823F
:10023C00E43EF5837402122B7D0551E551AE5070EE
:10024C00020550142406F582E43EF583E4122B7D5E
:10025C000551E551AE5070020550142406F582E4A8
:10026C003EF5837401122B7D0551E551AE507002A1
:10027C000550142406F582E43EF583E4122B7D052B
:10028C0051E551AE5070020550142406F582E43E3F
:10029C00F583E4122B7D0551E551AE5070020550EB
:1002AC00142406F582E43EF5837401122B7D05516E
:1002BC00E551AE5070020550142406F582E43EF56B
:1002CC00837401122B7D0551E551AE50700205501F
:1002DC00142406F582E43EF583E4122B7D0551E5EA
:1002EC0051AE5070020550142406F582E43EF5839D
:1002FC00E4122B7D0551E551AE50700205501424CB
:10030C0006F582E43EF583E4122B7D0551E551AEF2
:10031C005070020550142406F582E43EF583E41275
:10032C002B7D0551E551AE5070020550142406F595
:10033C0082E43EF5837401122B7D0551E551AE50DC
:10034C0070020550142406F582E43EF583740612FF
:10035C002B7D0551E551AE5070020550142406F565
:10036C0082E43EF583E4122B7D0551E551AE5070CD
:10037C00020550142406F582E43EF5837401122B19
:10038C007D0551E551AE5070020550142406F582DE
:10039C00E43EF583E4122B7D0551E551AE5070021D
:1003AC000550142406F582E43EF583E4122B7D05FA
:1003BC0051E551AE5070020550142406F582E43E0E
:1003CC00F5837401122B7D0551E551AE5070020579
:1003DC0050142406F582E43EF5837412122B7D052D
:1003EC0051E551AE5070020550142406F582E43EDE
:1003FC00F583E4122B7D0551E551AE50700205508A
:10040C00142406F582E43EF5837401122B7D05510C
:10041C00E551AE5070020550142406F582E43EF509
:10042C0083E4122B7D0551E551AE5070020550143A
:10043C002406F582E43EF583E4122B7D0551E5514B
:10044C00AE5070020550142406F582E43EF5837418
:10045C0001122B7D0551E551AE507002055014244C
:10046C0006F582E43EF5837403122B7D0551E551AC
:10047C00AE5070020550142406F582E43EF583E478
:10048C00122B7D0551E551AE507002055014240617
:10049C00F582E43EF583E4122B7D0551E551AE5017
:1004AC0070020550142406F582E43EF583E4122B09
:1004BC007D0551E551AE5070020550142406F582AD
:1004CC00E43EF583E4122B7D0551E551AE507002EC
:1004DC000550142406F582E43EF5837401122B7D3D
:1004EC000551E551AE5070020550142406F582E416
:1004FC003EF5837430122B7D0551E551AE507002E0
:10050C000550142406F582E43EF583E4122B7D0598
:10051C0051E551AE5070020550142406F582E43EAC
:10052C00F583E4122B7D0551E551AE507002055058
:10053C00142406F582E43EF583E4122B7D0551E587
:10054C0051AE5070020550142406F582E43EF5833A
:10055C00E4122B7D0551E551AE5070020550142468
:10056C0006F582E43EF5837401122B7D0551E551AD
:10057C00AE5070020550142406F582E43EF58374E7
:10058C0004122B7D0551E551AE5070020550142418
:10059C0006F582E43EF583E4122B7D0551E551AE60
:1005AC005070020550142406F582E43EF583E412E3
:1005BC002B7D0551E551AE5070020550142406F503
:1005CC0082E43EF583E4122B7D0551E551AE50706B
:1005DC00020550142406F582E43EF583E4122B7DCB
:1005EC000551E551AE5070020550142406F582E415
:1005FC003EF5837401122B7D0551E551AE5070020E
:10060C000550142406F582E43EF5837420122B7DEC
:10061C000551E551AE5070020550142406F582E4E4
:10062C003EF583E4122B7D0551E551AE5070020569
:10063C0050142406F582E43EF583E4122B7D05511B
:10064C00E551AE5070020550142406F582E43EF5D7
:10065C0083E4122B7D0551E551AE5070020550120A
:10066C00B2B29002A3E07002A3E070F69002ADE08B
:10067C00FF9002ACE06F60F49002B112305C90021B
:10068C00ADE0FF75F0DCA4F58285F083122C93F5B8
:10069C005185F050EFB402047F0080069002ADE06B
:1006AC0004FF9002ADEFF0E55164017004E5506475
:0F06BC0005600C9002ADE0FF9002ACE0B507B90D
:1006CB00900EFD122FD100002328E4FFFEFDFC90BD
:1006DB000EFD122F89D3122EA24017900EFD122F52
:1006EB007D74FFFBFAF9F8122D4F900EFD122FC5FA
:0206FB0080D8A5
:1006FD00E55164017004E5506405600302020AE4EB
:10070D00F550F551AB53AA54A9550551E551AE50CD
:10071D0070020550142406F582E43EF5837401122F
:10072D002B7D0551E551AE5070020550142406F590
:10073D0082E43EF5837411122B7D0551E551AE50C7
:10074D0070020550142406F582E43EF583E4122B65
:10075D007D0551E551AE5070020550142406F58209
:10076D00E43EF583E4122B7D0551E551AE50700248
:10077D000550142406F582E43EF583E4122B7D0525
:10078D0051E551AE5070020550142406F582E43E39
:10079D00F583E4122B7D0551E551AE5070020550E5
:1007AD00142406F582E43EF5837401122B7D055168
:1007BD00E551AE5070020550142406F582E43EF565
:1007CD00837421122B7D0551E551AE5070020550F9
:1007DD00142406F582E43EF583E4122B7D0551E5E4
:1007ED0051AE5070020550142406F582E43EF58397
:1007FD00E4122B7D0551E551AE50700205501424C5
:10080D0006F582E43EF583E4122B7D0551E551AEEC
:10081D005070020550142406F582E43EF583E4126F
:10082D002B7D0551E551AE5070020550142406F58F
:10083D0082E43EF5837401122B7D0551E551AE50D6
:10084D0070020550142406F582E43EF583742212DD
:10085D002B7D0551E551AE5070020550142406F55F
:10086D0082E43EF583E4122B7D0551E551AE5070C7
:10087D00020550142406F582E43EF583E4122B7D27
:10088D000551E551AE5070020550142406F582E471
:10089D003EF583E4122B7D0551E551AE50700205F6
:1008AD0050142406F582E43EF583E4122B7D0551A8
:1008BD00E551AE5070020550142406F582E43EF564
:1008CD0083740A122B7D0551E551AE50700205500F
:1008DD00142406F582E43EF5837407122B7D055131
:1008ED00E551AE5070020550142406F582E43EF534
:1008FD0083E4122B7D0551E551AE50700205501465
:10090D002406F582E43EF583E4122B7D0551E55175
:10091D00AE5070020550142406F582E43EF583E4D2
:10092D00122B7D0551E551AE507002055014240671
:10093D00F582E43EF583E4122B7D0551E551AE5071
:10094D0070020550142406F582E43EF583740A12F4
:10095D002B7D0551E551AE5070020550142406F55E
:10096D0082E43EF5837408122B7D0551E551AE509E
:10097D0070020550142406F582E43EF583E4122B33
:10098D007D0551E551AE5070020550142406F582D7
:10099D00E43EF583E4122B7D0551E551AE50700216
:1009AD000550142406F582E43EF583E4122B7D05F3
:1009BD0051E551AE5070020550142406F582E43E07
:1009CD00F583E4122B7D0551E551AE5070020550B3
:1009DD00142406F582E43EF583740A122B7D05512D
:1009ED00E551AE5070020550142406F582E43EF533
:1009FD00837402122B7D0551E551AE5070020550E6
:100A0D00142406F582E43EF583E4122B7D0551E5B1
:100A1D0051AE5070020550142406F582E43EF58364
:100A2D00E4122B7D0551E551AE5070020550142492
:100A3D0006F582E43EF583E4122B7D0551E551AEBA
:100A4D005070020550142406F582E43EF583E4123D
:100A5D002B7D0551E551AE5070020550142406F55D
:100A6D0082E43EF583740A122B7D0551E551AE509B
:100A7D0070020550142406F582E43EF583740912C4
:100A8D002B7D0551E551AE5070020550142406F52D
:100A9D0082E43EF583E4122B7D0551E551AE507095
:100AAD00020550142406F582E43EF583E4122B7DF5
:100ABD000551E551AE5070020550142406F582E43F
:100ACD003EF583E4122B7D0551E551AE50700205C4
:100ADD0050142406F582E43EF583E4122B7D055176
:100AED00E551AE5070020550142406F582E43EF532
:100AFD0083740A122B7D0551E551AE5070020550DD
:100B0D00142406F582E43EF5837401122B7D055104
:100B1D00E551AE5070020550142406F582E43EF501
:100B2D0083E4122B7D0551E551AE50700205501432
:100B3D002406F582E43EF583E4122B7D0551E55143
:100B4D00AE5070020550142406F582E43EF583E4A0
:100B5D00122B7D0551E551AE50700205501424063F
:100B6D00F582E43EF583E4122B7D0551E551AE503F
:100B7D0070020550142406F582E43EF583740A12C2
:100B8D002B7D0551E551AE5070020550142406F52C
:100B9D0082E43EF5837403122B7D0551E551AE5071
:100BAD0070020550142406F582E43EF583E4122B01
:100BBD007D0551E551AE5070020550142406F582A5
:100BCD00E43EF583E4122B7D0551E551AE507002E4
:100BDD000550142406F582E43EF583E4122B7D05C1
:100BED0051E551AE507002055012B2B29002A3E021
:100BFD007002A3E070F69002ADE0FF9002ACE06FE2
:100C0D0060F49002B112305C9002ADE0FF75F0DC43
:100C1D00A4F58285F083122C93F55185F050EFB435
:100C2D0002047F0080069002ADE004FF9002ADEF5C
:100C3D00F0E55164017004E5506405600C9002AD5F
:090C4D00E0FF9002ACE0B507B92C
:100C5600900F01122FD100002328E4FFFEFDFC9027
:100C66000F01122F89D3122EA24017900F01122FB7
:100C76007D74FFFBFAF9F8122D4F900F01122FC564
:020C860080D814
:100C8800E55164017004E5506405600302070CE453
:100C9800F550F551AB53AA54A9550551E551AE503D
:100CA80070020550142406F582E43EF58374FA12A6
:100CB8002B7D0551E551AE5070020550142406F500
:100CC80082E43EF583E4122B7D0551E551AE507068
:100CD800020550142406F582E43EF5837401122BB4
:100CE8007D0551E551AE5070020550142406F58279
:100CF800E43EF583E4122B7D0551E551AE507002B8
:100D08000550142406F582E43EF5837401122B7D08
:100D18000551E551AE5070020550142406F582E4E1
:100D28003EF583E4122B7D7F0812B2C19002A3E046
:100D38007002A3E070F69002ADE0FF9002ACE06FA5
:100D480060F49002B112305C9002ADE0FF75F0DC07
:100D5800A4F58285F083122C93F55185F050EFB4F9
:100D680002047F0080069002ADE004FF9002ADEF20
:100D7800F0E55164017004E5506405600C9002AD23
:090D8800E0FF9002ACE0B507B9F0
:100D9100900F05122FD100001194E4FFFEFDFC908D
:100DA1000F05122F89D3122EA24017900F05122F73
:100DB1007D74FFFBFAF9F8122D4F900F05122FC524
:020DC10080D8D8
:0F0DC300E55164017004E55064056003020C976C
:100DD200900CB5E0FBE4FAF9F87F807E967D98FCF2
:100DE20012BF248F598E588D578C567808122EC9EF
:100DF200E4FFE4FDFCC004C005C006C007AF59AE65
:100E020058AD57AC567818122EC9E4FEFDFCD0033B
:100E1200D002D001D000122E87C004C005C006C087
:100E220007AF59AE58AD57AC567808122EDCE4FF26
:100E3200FEE4FCD003D002D001D000122E87C00401
:100E4200C005C006C007AF59AE58AD57AC567818AA
:100E5200122EDCE4FFFEFDECD003D002D001D00064
:100E6200122E87AB53AA54A955900006122F59E4AB
:100E720075590AF558F557F556AF59AE58AD57ACF6
:100E8200567808122EC9E4FFE4FDFCC004C005C078
:100E920006C007AF59AE58AD57AC567818122EC9D6
:100EA200E4FEFDFCD003D002D001D000122E87C098
:100EB20004C005C006C007AF59AE58AD57AC56784E
:100EC20008122EDCE4FFFEE4FCD003D002D001D0F5
:100ED20000122E87C004C005C006C007AF59AE5825
:100EE200AD57AC567818122EDCE4FFFEFDECD003B1
:100EF200D002D001D000122E87AB53AA54A955902C
:100F0200000A122F597550007551080551E551AE6E
:100F12005070020550142406F582E43EF5837401F4
:100F2200122B7D0551E551AE507002055014240676
:100F3200F582E43EF5837401122B7D0551E551AE35
:100F42005070020550142406F582E43EF583E41243
:100F52002B7D0551E551AE5070020550142406F563
:100F620082E43EF583E4122B7D0551E551AE5070CB
:100F7200020550142406F582E43EF5837432122BE6
:100F82007D0551E551AE5070020550142406F582DC
:100F9200E43EF583E4122B7D0551E551AE5070021B
:100FA2000550142406F582E43EF5837434122B7D39
:100FB2000551E551AE5070020550142406F582E445
:100FC2003EF5837403122B7D0551E551AE5070023C
:100FD2000550142406F582E43EF583E4122B7D05C8
:100FE20051E551AE5070020550142406F582E43EDC
:100FF200F583E4122B7D0551E551AE507002055088
:10100200142406F582E43EF583E4122B7D0551E5B6
:1010120051AE5070020550142406F582E43EF58369
:10102200E4122B7DAD51AC507F077E0612B2C79001
:1010320002A3E07002A3E070F69002ADE0FF90021E
:10104200ACE06F60F49002B112305C9002ADE0FF50
:1010520075F0DCA4F58285F083122C93F55185F0AE
:1010620050EFB402047F0080069002ADE004FF90CE
:1010720002ADEFF0E55164017004E5506405600CC7
:0C1082009002ADE0FF9002ACE0B507B9B1
:10108E00900F09122FD100001194E4FFFEFDFC9089
:10109E000F09122F89D3122EA24017900F09122F6B
:1010AE007D74FFFBFAF9F8122D4F900F09122FC520
:0210BE0080D8D8
:1010C000E55164017004E55064056003020DD2909F
:1010D0000018E070030215AEE4F550F551AB53AAC9
:1010E00054A9550551E551AE50700205501424061F
:1010F000F582E43EF583E4122B7D0551E551AE50B7
:1011000070020550142406F582E43EF583E4122BA8
:101110007D0551E551AE5070020550142406F5824C
:10112000E43EF583E4122B7D0551E551AE5070028B
:101130000550142406F582E43EF583E4122B7D0568
:1011400051E551AE5070020550142406F582E43E7C
:10115000F583E4122B7D0551E551AE507002055028
:10116000142406F582E43EF583E4122B7D0551E557
:1011700051AE5070020550142406F582E43EF5830A
:10118000E4122B7D0551E551AE5070020550142438
:1011900006F582E43EF583E4122B7DAD51AC507F21
:1011A000167E0612B2C79002A3E07002A3E070F6AA
:1011B0009002ADE0FF9002ACE06F60F49002B112DB
:1011C000305C9002ADE0FF75F0DCA4F58285F08321
:1011D000122C93F55185F050EFB402047F00800685
:1011E0009002ADE004FF9002ADEFF0E551640170B4
:1011F00004E5506405600C9002ADE0FF9002ACE0A5
:03120000B507B976
:10120300900F0D122FD100001194E4FFFEFDFC900E
:101213000F0D122F89D3122EA24017900F0D122FEC
:101223007D74FFFBFAF9F8122D4F900F0D122FC5A5
:0212330080D861
:10123500E55164017004E550640560030210D8E4CB
:10124500F550F551AB53AA54A9550551E551AE508A
:1012550070020550142406F582E43EF583740512E8
:101265002B7D0551E551AE5070020550142406F54D
:1012750082E43EF583E4122B7D0551E551AE5070B5
:10128500020550142406F582E43EF5837404122BFE
:101295007D0551E551AE5070020550142406F582C6
:1012A500E43EF5837402122B7DE92406F9E43AFA4B
:1012B500E92551F9EA3550FA12300250C30000749D
:1012C500042551F551E43550F550AB53E555240649
:1012D500F9E43554FAE92551F9EA3550FA123002A4
:1012E5000000000074042551F551E43550F550AB6C
:1012F50053AA54A9550551E551AE50700205501435
:101305002406F582E43EF5837405122B7D0551E52F
:1013150051AE5070020550142406F582E43EF58363
:10132500E4122B7DE92406F9E43AFAE92551F9EAB4
:101335003550FA74FA75F000122D0374022551F533
:1013450051E43550F550AB53E5552406F9E43554D1
:10135500FAE92551F9EA3550FA74FA75F000122DBB
:101365000374022551F551E43550F550AB53E5555D
:101375002406F9E43554FAE92551F9EA3550FA74A9
:101385006475F000122D0374022551F551E43550B2
:10139500F550AB53E5552406F9E43554FAE92551E2
:1013A500F9EA3550FA742C75F001122D03740225F3
:1013B50051F551E43550F550AB53AA54A955055193
:1013C500E551AE5070020550142406F582E43EF551
:1013D50083E4122B7D0551E551AE50700205501482
:1013E5002406F582E43EF583E4122B7D0551E55193
:1013F500AE5070020550142406F582E43EF583E4F0
:10140500122B7D0551E551AE50700205501424068E
:10141500F582E43EF583E4122B7D0551E551AE508E
:1014250070020550142406F582E43EF583E4122B80
:101435007D0551E551AE5070020550142406F58224
:10144500E43EF583E4122B7D0551E551AE50700263
:101455000550142406F582E43EF583E4122B7D0540
:1014650051E551AE5070020550142406F582E43E54
:10147500F583E4122B7D0551E551AE507002055000
:10148500142406F582E43EF583E4122B7D0551E52F
:1014950051AE5070020550142406F582E43EF583E2
:1014A500E4122B7D0551E551AE5070020550142410
:1014B50006F582E43EF583E4122B7D0551E551AE38
:1014C5005070020550142406F582E43EF583E412BB
:1014D5002B7D0551E551AE5070020550142406F5DB
:1014E50082E43EF583E4122B7D0551E551AE507043
:1014F500020550142406F582E43EF583E4122B7DA3
:10150500AD51AC507F247E0612B2C79002A3E070A5
:1015150002A3E070F69002ADE0FF9002ACE06F60D0
:10152500F49002B112305C9002ADE0FF75F0DCA4DE
:10153500F58285F083122C93F55185F050EFB402B6
:10154500047F0080069002ADE004FF9002ADEFF04D
:10155500E55164017004E5506405600C9002ADE04E
:08156500FF9002ACE0B507B9EC
:10156D00900F11122FD100001194E4FFFEFDFC909D
:10157D000F11122F89D3122EA24017900F11122F77
:10158D007D74FFFBFAF9F8122D4F900F11122FC534
:02159D0080D8F4
:0F159F00E55164017004E55064056003021244D5
:0115AE00221A
:10B2B200142406F582E43EF583E4122B7D7F01AD72
:05B2C20051AC507E06B6
:08B2C7008E5A8F5B8C5C8D5DDB
:10B2CF009002AE12305C74B5122B6B9002AE12303E
:10B2DF005C9000017462122B7DE55A900002122BD4
:10B2EF007DE55B900003122B7DE55D900004122B32
:10B2FF007DE55C900005122B7DE4F55FF55E7F0226
:10B30F00FEE55D2406FDE4355CFCC3EF9DEE9C502D
:10B31F001C9002AE12305C8F828E83122B0B255E37
:10B32F00F55E255FF55F0FBF00010E80D49002AE72
:10B33F0012305CE55D2406FFE4355C8F82F583E512
:10B34F005E122B7DE55D2407FFE4355C8F82F5836C
:10B35F00E55F122B7D7B017A0279A1E55D2408FD63
:07B36F00E4355CFC02BC6543
:0649EB008B3B8A3C893D74
:1049F10090111EE0700804F01200A602515DAB3B5D
:104A0100AA3CA93D122C6812311D4A1B01024D0E10
:0A4A110001064EE7011200005157A4
:104A1B007406253DF53DE4353CF53C75410075428A
:104A2B0000754349E4F544F545783BE475F0011214
:104A3B00304C122AF2FF784174FFF5F012304CEF34
:104A4B00122B6B0545E54570020544640445447023
:104A5B00D8AC46EC3350047F0180027F008F4AAF05
:104A6B0049AE48AD47AC46EC334002800BAF49AE84
:104A7B0048AD47AC46122E948F498E488D478C46D5
:104A8B00AB3EAA3FA94090000A12301C0000000068
:104A9B00E4F544F545AB3EE540240AF9E4353FFA2D
:104AAB00C003C002C001122EEFC004C005C006C077
:104ABB0007E47B0AFAF9F8AF49AE48AD47AC4612AA
:104ACB00BF24AC00AD01AE02AF03C004C005C006ED
:104ADB00C007E545AE447802C333CE33CED8F924B4
:104AEB0009F58274C03EF583122F95D007D006D0FE
:104AFB0005D004122D6AA804A905AA06AB07D00796
:104B0B00D006D005D004122D4FD001D002D0031205
:104B1B002F3FAF49AE48AD47AC46E47B0AFAF9F8F4
:104B2B0012BF248F498E488D478C460545E545704D
:104B3B00020544640A45446003024AA0E54A601535
:104B4B00AB3EAA3FA94090000A122F0F122E949051
:104B5B00000A122F59754100754200754349E4F55F
:104B6B0044F545783BE475F00112304C122AF2FF04
:104B7B00784174FFF5F012304CEF122B6B0545E5C5
:104B8B0045700205446404454470D8AC46EC335080
:104B9B00047F0180027F008F4AAF49AE48AD47AC1E
:104BAB0046EC334002800BAF49AE48AD47AC4612E2
:104BBB002E948F498E488D478C46AB3EAA3FA94019
:104BCB0090000612301C00000000E4F544F545ABE4
:104BDB003EE5402406F9E4353FFAC003C002C001AC
:104BEB00122EEFC004C005C006C007E47B0AFAF919
:104BFB00F8AF49AE48AD47AC4612BF24AC00AD018F
:104C0B00AE02AF03C004C005C006C007E545AE4405
:104C1B007802C333CE33CED8F92409F58274C03E63
:104C2B00F583122F95D007D006D005D004122D6A2C
:104C3B00A804A905AA06AB07D007D006D005D00457
:104C4B00122D4FD001D002D003122F3FAF49AE48E7
:104C5B00AD47AC46E47B0AFAF9F812BF248F498EB4
:104C6B00488D478C460545E54570020544640A4569
:104C7B00446003024BDAE54A6015AB3EAA3FA940FC
:104C8B00900006122F0F122E94900006122F5974BB
:104C9B0004253DF53DE4353CF53C7541007542007E
:104CAB00754349E4F544F545783BE475F001123062
:104CBB004C122AF2FF784174FFF5F012304CEF12D0
:104CCB002B6B0545E545700205446404454470D8DB
:104CDB00AF49AE48AD47AC46E47BE87A03F9F8122E
:104CEB00BF248F498E488D478C46AB3EAA3FA940C7
:104CFB0090000EEE8FF0122D229002FCE04404F097
:104D0B0002515DAB3BAA3CA93D90002F122B0BFE31
:104D1B0090002E122B0B7C002400FFEC3E9002CB5C
:104D2B00F0A3EFF0900031122B0B900CBBF0740240
:104D3B00253DF53DE4353CF53CFAA93D90000B12C1
:104D4B002B0B540D640D6008E4900CBBF0024EDD90
:104D5B00E5402403F9E4353F853E41F5428943E4C0
:104D6B00F544F545783BE475F00112304C122AF20C
:104D7B00FF784174FFF5F012304CEF122B6B0545A9
:104D8B00E545700205446404454470D8740125431D
:104D9B00F543E43542F542900CBBE0604A74FFFFEB
:104DAB00FEFDFC90002B122F89C3122EB87038AB6E
:104DBB0041AA42A943122EEFE4FBFAF9F8C3122ED3
:104DCB00B86024AB41AA42A943122EEF74FFFBFA41
:104DDB00F9F8C3122EB8600FAB41AA42A943122EA9
:104DEB00EF90002B122FC5900CBBE06038AB41AAA3
:104DFB0042A943122EEFE4FBFAF9F8C3122EB86066
:104E0B0024AB41AA42A943122EEF74FFFBFAF9F827
:104E1B00C3122EB8600FAB41AA42A943122EEF90DA
:104E2B00003F122FC57404253DF53DE4353CF53CA0
:104E3B00E5402404F9E4353FFAE92401F9E43A8525
:104E4B003E41F5428943E4F544F545783BE475F082
:104E5B000112304C122AF2FF784174FFF5F0123038
:104E6B004CEF122B6B0545E545700205446402457A
:104E7B004470D874012543F543E43542F542900C58
:104E8B00BBE0FF602B900016E0B4FF24A3E0B4FF5F
:104E9B001FAB41AA42A943122C68FDACF04C601029
:104EAB00EDF47002ECF46008900016ECF0A3EDF05A
:104EBB00EF601FAB41AA42A943122C68FFAEF04E24
:104ECB006010EFF47002EEF46008900019EEF0A39E
:0C4EDB00EFF09002FCE04402F002515D98
:104EE7007406253DF53DE4353CF53CAB3BFAA93D61
:104EF700122EEF8F498E488D478C467808122EC99F
:104F0700E4FFE4FDFCC004C005C006C007AF49AE1E
:104F170048AD47AC467818122EC9E4FEFDFCD00315
:104F2700D002D001D000122E87C004C005C006C031
:104F370007AF49AE48AD47AC467808122EDCE4FF10
:104F4700FEE4FCD003D002D001D000122E87C004AB
:104F5700C005C006C007AF49AE48AD47AC46781894
:104F6700122EDCE4FFFEFDECD003D002D001D0000E
:104F7700122E878F498E488D478C46E47B64FAF959
:104F8700F812BF248F498E488D478C468E4C8F4D23
:104F97007404253DF53DE4353CF53CAB3BFAA93DB2
:104FA700122EEF8F498E488D478C467808122EC9EE
:104FB700E4FFE4FDFCC004C005C006C007AF49AE6E
:104FC70048AD47AC467818122EC9E4FEFDFCD00365
:104FD700D002D001D000122E87C004C005C006C081
:104FE70007AF49AE48AD47AC467808122EDCE4FF60
:104FF700FEE4FCD003D002D001D000122E87C004FB
:10500700C005C006C007AF49AE48AD47AC467818E3
:10501700122EDCE4FFFEFDECD003D002D001D0005D
:10502700122E878F498E488D478C46E47B64FAF9A8
:10503700F812BF248F498E488D478C468E4A8F4B76
:105047007404253DF53DE4353CF53CAB3BFAA93D01
:10505700122EEF8F498E488D478C467808122EC93D
:10506700E4FFE4FDFCC004C005C006C007AF49AEBD
:1050770048AD47AC467818122EC9E4FEFDFCD003B4
:10508700D002D001D000122E87C004C005C006C0D0
:1050970007AF49AE48AD47AC467808122EDCE4FFAF
:1050A700FEE4FCD003D002D001D000122E87C0044A
:1050B700C005C006C007AF49AE48AD47AC46781833
:1050C700122EDCE4FFFEFDECD003D002D001D000AD
:1050D700122E878F498E488D478C46E47B64FAF9F8
:1050E700F812BF248F498E488D478C46C3E49FF53D
:1050F7004FE49EF54EE54A5407FEE47803CEC3130A
:10510700CE13D8F9AB3EAA3FA940900010122B7DD1
:10511700E54C5407FEE47806CEC313CE13D8F990B6
:105127000010122B38E54E5403900010122B38E56F
:105137004B900011122B7DE54D900012122B7DE54F
:0E5147004F900013122B7D9002FCE04401F00B
:1051550080067544007545019002FCE06407600314
:105165000252B9F0900CBBE060030252949000002B
:10517500E075F015A424D0F9740235F0FA7B01A886
:1051850040AC3FAD3E7E007F15122ACCAB3EAA3F18
:10519500A940122EEFEF24FAFFE43EFEE43DFDE4C4
:1051A5003CFC122F3F900000E0640175F015A4242B
:1051B500D0F582E43402F583122F7DE4FBFAF9F889
:1051C500C3122EB87003025294AB3EE5402406F993
:1051D500E4353FFAC003C002C001122EEFC004C07F
:1051E50005C006C007900000E0FF640175F015A436
:1051F50024D6F582E43402F583122F89EF75F01574
:10520500A424D6F582E43402F583122F7D122D5C99
:10521500A804A905AA06AB07D007D006D005D00477
:10522500122D4FD001D002D003122F3FAB3EE540E7
:10523500240AF9E4353FFAC003C002C001122EEF7B
:10524500C004C005C006C007900000E0FF640175FA
:10525500F015A424DAF582E43402F583122F89EFE0
:1052650075F015A424DAF582E43402F583122F7D56
:10527500122D5CA804A905AA06AB07D007D006D055
:1052850005D004122D4FD001D002D003122F3F902C
:105295000000E06401F0E075F015A424D0F9740273
:1052A50035F0A801FC7D01AB3EAA3FA9407E007FF9
:0452B50015122ACCD8
:0152B90022D2
:10C08900EF6004D2B18002C2B1E4FF0FBF14FCC259
:10C09900B2E4FF0FBF14FCE4FEB2B1E4FF0FBF141A
:07C0A900FC0EBE85F4D2B2CB
:01C0B000226D
:10C10D00AF84E4F58475C04475CFEB43C040C2C322
:05C11D0043E6028F84DF
:01C1220022FA
:03003B0002A1AF70
:10A1AF00C0E0C083C082C0D075D000C000C001C065
:07A1BF0002C003C006C00747
:10A1C600C200AFC1EF1230F7A21408A21410A235D4
:10A1D60018A26320A23528A26330A2D238A26A4010
:10A1E600A26548A26A50A2A358A2D760A2D770A2BD
:10A1F600E580A33288A2E590A33298A364A0A33693
:10A20600A8A336B8A34AC0A364C80000A2D290008F
:10A216004BE0F5C2900056E4F053C2FEA20C334266
:10A22600C2C2C590004DE4F090004CF002A36490C9
:10A23600004EE0FF90004CE0FEC39F501990005086
:10A2460012305C8E82758300122B0BF5C290004C87
:10A25600E004F002A364D2C4C20B02A364D2C5D246
:10A26600C502A36490004DE0601624FFFFE434FFAE
:10A27600FE90005312305C8F828E83E5C2122B7DD6
:10A2860090004DE004F090004FE0FF90004DE0C3D9
:10A296009F5005D2C202A364C2C202A36490004DBD
:10A2A600E024FFFFE434FFFE90005312305C8F82FF
:10A2B6008E83E5C2122B7D90004DE004F09000568F
:10A2C6007401F0D2C4C20BD2C202A364D20002A3AC
:10A2D60064900056E4F090004CF0A3F002A3649062
:10A2E600004DE0FF700D90004FE5C2F0900056E47F
:10A2F600F08017EF24FFFFE434FFFE900053123086
:10A306005C8F828E83E5C2122B7D90004DE004F0B7
:10A3160090004FE0FF90004DE0D39F400B90005619
:10A326007401F090004DE4F0D2C28032D2C2802E89
:10A3360090005012305C90004CE0FF04F08F827564
:10A346008300801590004CE024FFFFE434FFFE906C
:10A35600005012305C8F828E83122B0BF5C23000B8
:10A366001053C0BF43C040C2C5C2C4C2C2C20BC2A2
:03A3760000C2C35F
:10A37900D007D006D003D002D001D000D0D0D082EF
:05A38900D083D0E0329A
:10C0F400AF84E4F584D2C6200BFDD20BC20C9000B1
:08C104004BE0F5C3D2C58F84A6
:01C10C002210
:10C0D800AF84E4F584D2C6200BFDD20BD20C9000BD
:0BC0E8004BE0F5C3D2C5200BFD8F8498
:01C0F300222A
:10B29D0002080001010C00020D000042111B00000C
:04B2AD0041111D002E
:06BC65008B608A61896218
:10BC6B00858463AB60AA61A962900002122C934594
:10BC7B00F070F0AB60AA61A96290000D12306EC03B
:10BC8B0003C002C001AB60AA61A962900007123029
:10BC9B009EAB60AA61A962900002EC8DF0122D227E
:10BCAB00122AF27006F584D2998005758401D29917
:03BCBB008563841A
:01BCBE002263
:10003E00AE84E4F5848F9B30FFFDC2FFAF9B8E84B0
:01004E00228F
:10BCBF00AF8475840F759601758C67E4FDFC0DBD1F
:10BCCF0000010CE4B505F7ECB401F3E58C30E7FBAC
:10BCDF00759701E4F58A758905F58475B720758424
:10BCEF000F758D01758F01758E03FCFD0DBD000164
:10BCFF000CE4B505F7ECB401F3438902E58930E4B0
:06BD0F00FB7597028F8412
:01BD1500220B
:0E9BC8008B4C8A4D894E8F528E518D508C4F92
:109BD600858453122AF214606F046003029DC8E460
:109BE600F58475911590000A122B0B24BB6018247E
:109BF600F6601424EA601024F76007146009242133
:109C0600700875985080037598D0E4F58475C8047B
:109C160075C908AB52AA51A950A84FFFFE7D657CB5
:109C260004122DF5E47B10FAF9F8122DF5122E9494
:109C36008ECB8FCA74FFF5CDF5CCD2CAE4F584C2BB
:109C460099C298D2AC029DC8758401AB4CAA4DA9A5
:109C56004E90000A122B0B24BB601824F6601424C5
:109C6600EA601024F76007146009242170087598CB
:109C7600108003759890E4F58453890F438920ABCF
:109C860052AA51A950A84FFFFE7D657C04122DF5FE
:109C9600E47B02FAF9F8122DF5E4FB7A01F9F812E1
:109CA6002DF5E47B01FAF9F8D3122EB84026AB5213
:109CB600AA51A950A84FE4FFFE7D657C04122DF53C
:109CC600E47B02FAF9F8122DF5122E948F8D438E4D
:109CD60010029DB9AB52AA51A950A84FE4FFFE7DD0
:109CE600657C04122DF5E47B02FAF9F8122DF5E4F1
:109CF600FB7A01F9F8122DF5E47B04FAF9F8D31290
:109D06002EB84031AB52AA51A950A84FE4FFFE7DB0
:109D1600657C04122DF5E47B02FAF9F8122DF5E4C0
:109D26007B04FAF9F8122DF5122E948F8D538EECD2
:109D3600438E01807EAB52AA51A950A84FE4FFFE84
:109D46007D657C04122DF5E47B02FAF9F8122DF5F7
:109D5600E4FB7A01F9F8122DF5E47B0CFAF9F8D355
:109D6600122EB8AB52AA51A950A84FE4FFFE7D654A
:109D76007C04401F122DF5E47B02FAF9F8122DF54A
:109D8600E47B0CFAF9F8122DF5122E948F8D538E72
:109D9600EC8020122DF5E47B02FAF9F8122DF5E499
:109DA6007B30FAF9F8122DF5122E948F8D538EEC26
:109DB600438E02858D8BD28E758401C299C29843DB
:059DC600E74085538415
:019DCB002275
:10002600AF84E4F584759D04759A70C2FFD2F88F8B
:010036008445
:0100370022A6
:10C05F00AD84758401E4F5C8F5C9EF2408FFE43E0B
:10C06F00FEC3E49FFFE49EF5CB8FCA74FFF5CDF5B9
:09C07F00CC43E70143C8048D84A1
:01C088002295
:03002300029DCC6F
:109DCC00C0E0C0F0C083C082C0D075D000C000C05D
:0D9DDC0001C002C003C004C005C006C007DE
:109DE900E59820E003029F638599275398FEE508CB
:109DF9006003029F30E50924FE6063147003029E2C
:109E090098147003029EFD24036003029F30750DB0
:109E190000750E00E52764166003029F30900299D1
:109E2900E0FF7E007C027D1D122B9F90029E123066
:109E39005CE92FF9EA3E8B0FF5108911FA050EE559
:109E49000EAE0D7002050D14F5828E83E527122BD7
:109E59007DE527620C750800750902029F30AB0F7A
:109E6900AA10A911050EE50EAE0D7002050D14F527
:109E7900828E83E527122B7DE527620CE50E6406A9
:109E8900450D6003029F30F508750903029F30AB49
:109E99000FAA10A911050EE50EAE0D7002050D14DD
:109EA900F5828E83E527122B7D630CFFE50C652770
:109EB9007031AB0FAA10A911900003122B0B750A70
:109EC90000F50B750B00F50A900004122B0B250BFE
:109ED900F50BE4350AF50A450B6046750800750966
:109EE900048044750D00750E00750800750901752B
:109EF9000C008033D2B4AB0FAA10A911050EE50EE0
:109F0900AE0D7002050D14F5828E83E527122B7DA7
:109F1900E50B2407FFE4350AFEEFB50E0AEEB50D91
:109F290006750800750905E50964054508702BC221
:109F3900B4F508750901F50DF50EF50C90029212AC
:109F4900305CE94A4B7013AB0FAA10A91190029229
:109F5900123065900299E06401F0E59830E13E9095
:109F69000290E07002A3E06023D2B490029512300F
:109F79005C122AF2F599900296E475F001122C3CD4
:109F890090029074FFF5F0122C3C800EC2B47B0055
:0D9F99007A0079009002951230655398FD12
:109FA600D007D006D005D004D003D002D001D0000F
:0B9FB600D0D0D082D083D0F0D0E032B9
:0300A3000299912E
:10999100C0E0C0F0C083C082C0D075D000C000C09C
:0999A10001C002C003C006C007AA
:1099AA00E59820E003029B3C85992890111DE0125E
:1099BA0030F799DB0099EC0199FF029A4F039A7CE0
:1099CA00049A95059ABC069AFD079B0E0800009B0F
:1099DA0039E52864B56003029B3990111D04F00231
:1099EA009B39E52890111DB462067402F0029B3976
:1099FA00E4F0029B3975180075170090111BE4F00A
:109A0A00A3F09002ACE075F0DCA4FF9002B1123032
:109A1A005CE92FF9EA35F08B12F5138914FA9011E3
:109A2A001BE475F001122C5285F082F583E52812A9
:109A3A002B7DE5282517F5172518F51890111D74A3
:109A4A0003F0029B39AB12AA13A91490111BE475F7
:109A5A00F001122C5285F082F583E528122B7DE560
:109A6A00282517F5172518F51890111D7404F0020A
:109A7A009B39751500852816E5282517F517251829
:109A8A00F51890111D7405F0029B39E528FEE425AE
:109A9A0016F516EE3515F515E5282517F5172518C7
:109AAA00F518E516451590111D700280417406F0EF
:109ABA00807DAB12AA13A91490111BE475F0011250
:109ACA002C5285F082F583E528122B7DE52825178F
:109ADA00F5172518F518E5162402FFE43515FE904A
:109AEA00111BE06E7003A3E06F704490111D7407A0
:109AFA00F0803CE51790111DB528057408F0802FF9
:049B0A00E4F0802BD8
:109B0E009002ACE0FFB402067E007F008003EF04FB
:109B1E00FF8F29E518B5280E9002ADE06529600685
:0B9B2E009002ACE529F090111DE4F05E
:109B39005398FEE59830E1709002A3E07002A3E02B
:109B490060579002ABE024BB601A24E0601624F64B
:109B59006004242070229002A812305C122AF2308C
:109B6900E00E80119002A812305C122AF230E00552
:109B790043980480035398FB9002A812305C122A80
:109B8900F2F5999002A9E475F001122C3C9002A318
:109B990074FFF5F0122C3C800C7B007A0079009060
:089BA90002A81230655398FD7B
:109BB100D007D006D003D002D001D000D0D0D082BF
:079BC100D083D0F0D0E032A8
:0300730002B426AE
:10B42600C0E0C0F0C083C082C0D075D000C000C0EC
:03B4360006C00746
:10B4390075840153C87F900278E475F001122C3CA1
:10B449009002C8E0FEA3E0FF900278E0B50619A3D8
:10B45900E0B507149002C8E475F0A0122C3C9000E6
:10B4690057E475F001122C3CE4FFFE74322FF5828B
:10B47900E4340CF583E0600D74322FF582E4340C6A
:10B48900F583E014F00FBF00010EEF64034E70DB8B
:10B4990075840F20E816C39002CFE094FF9002CE86
:10B4A900E094FF5007E475F001122C3C7584007597
:06B4B900BB00C2EDD2EC65
:10B4BF00D007D006D000D0D0D082D083D0F0D0E04B
:01B4CF00324A
:10247F00022845E86480F8E933E83360110460F01E
:10248F00ED33EC337009E8FCE9FDEAFEEBFF2204C3
:10249F0060DED3EB9FEA9EE99DE8C2E78CF0C2F7BE
:1024AF0095F0400CE8CCF8E9CDF9EACEFAEBCFFB8A
:1024BF0012281085D0F05804700320D5B3E80470AB
:1024CF00075002B2D502284F92D5EC0460F7E4CC46
:1024DF00C0E0C398F8603B94186008400DD0E0FB53
:1024EF00022827E4FBFAC9FC8028E830E406E4C997
:1024FF00FBE4CAFCE830E305E4C9CACBFCE85407A7
:10250F006010F8C3E913F9EA13FAEB13FBEC13FCB1
:10251F00D8F130F52FC3E49CFCEF9BFFEE9AFEED54
:10252F0099FDD0E0FBEF4E4D4C701222DB030228D9
:10253F004CEC2CFCEF33FFEE33FEED33FDED30E7CB
:10254F00EB022827EF2BFFEE3AFEED39FDD0E0FB33
:10255F0050130BBB000302284FED13FDEE13FEEFDC
:08256F0013FFEC13FC02282706
:10257700EC4D6011E8497017ED33EC3304600DE45E
:10258700FCFFFEFD22E933E8330470F80228451208
:10259700281058046009E4CC248150062850090209
:1025A700284F28400302284CC0E0EB4A7044B9800A
:1025B70006D0E0FB02283BEF4E701CBD8008EBFF06
:1025C700EAFEE9FD80EBE98DF0A4FEE5F002266066
:1025D700E9CDF9EAFEEBFFEF89F0A4FCE5F0CE893F
:1025E700F0A42EFFE435F0CD89F0A42DFEE435F0FC
:1025F7008067EF4E7005BD80D780C3EF8BF0A4AC2A
:10260700F0EE8BF0A42CFCE435F0F8EF8AF0A42C64
:10261700E5F038FCE433CB8DF0A42CFCE5F03BF877
:10262700EE8AF0A42CFCE5F038F8E433CF89F0A467
:102637002CFCE5F038CF3400CE89F0A42FFFE5F06D
:102647003EFEE433C98DF0A42EFEE5F039CD8AF0C5
:10265700A42FFFE5F03EFEE43DFD33D0E0FB50073D
:102667000BBB000F02284FEC2CFCEF33FFEE33FEC1
:06267700ED33FD022827EF
:10267D0002284FEC5D046005E859047003022845FB
:10268D00122810580460F6EC4860F2EC7004FDFE60
:10269D00FF22C860DB2481C85009C3986002500630
:1026AD0002284C9850CAF582E9294B4A7005AB8235
:1026BD0002283B75F0007C1A7880C3EF9BEE9AEDF3
:1026CD0099400DC3EF9BFFEE9AFEED99FDE842F0A8
:1026DD00DC23ACF0D0E0FFD0E0FED0E0FDAB8220FB
:1026ED00E7101BEB60BAEC2CFCEF33FFEE33FEED85
:1026FD0033FD022827E803F830E705C0F075F00038
:10270D00EF2FFFEE33FEED33FD40B830E7C280AA68
:10271D0074F8CC6480CCC86480C8F582046043C36F
:10272D00EB9FF5F0EA9E42F0E99D42F0E89C45F002
:10273D0060305018E5825FFFE582F42B5582FB5027
:10274D00210ABA001D09B90019088016E5825BFB44
:10275D00E582F42F5582FF50090EBE00050DBD0018
:10276D00010CC3EB9FF5F0EA9E42F0E99D42F0E8C3
:0D277D009C45F06007CC4820E701B3EC223A
:10278A00ED33EC33600A047003BD8004ECB2E7FC5D
:01279A00221C
:10279B0075F020800E75F010800575F0087D007EB9
:1027AB00007F003392D530D503122E94EC334010BA
:1027BB00EF33FFEE33FEED33FDEC33FCD5F0ED22C2
:0E27CB00E5F0247EA2D513CC92E7CDCEFF22FE
:1027D900EDD2E7CD33EC3392D524814006E4FFFEF8
:1027E900FDFC22FCE4CFCECDCC24E0501174FF8057
:1027F900EDC3CC13CCCD13CDCE13CECF13CF0470F4
:07280900F030D5DE022E9431
:106B7A00E56A2456F8E6056A2278533009027856FF
:106B8A00E475F00112304C022AF22002EB7F2ED279
:106B9A00028018EF540F2490D43440D4FF30060BEF
:106BAA00EF24BFB41A0050032461FFE56B6002159D
:106BBA006B056EE56E7002056D30090D7853E4754C
:106BCA00F00112304CEF022B6B02C0B17403D209F0
:106BDA008003E4C209F56A8B538A548955E4F56B3C
:106BEA00F56DF56EE56B60077F20126BB580F57564
:106BFA006CFFC203C202C204C205C207C208C20AAB
:106C0A00126B83FF700D3009057F00126BC6AF6EE1
:106C1A00AE6D22B4255FC2D5C206126B83FF24D0A3
:106C2A00B40A00501A75F00A786B30D50508B6FF19
:106C3A000106C6A426F620D5047002D20580D924FE
:106C4A00CFB41A00EF5004C2E5D206026EB3D203E3
:106C5A0080C6D20280C0D20480BCD2D580BAD20704
:106C6A0080B47F20126BB52004077401B56B004015
:106C7A00F1126B7AFF126BB5026BEED20AD2088060
:106C8A0095126B7AFB126B7AFA126B7AF94A4B708D
:106C9A000679AA7A6F7BFF20042EE56B602A7E00B4
:106CAA008E82758300122B0B60060EEE656C70F0F7
:106CBA00C2D5EBC0E0EAC0E0E9C0E0EE126F13D043
:106CCA00E0F9D0E0FAD0E0FB122AF2FF60AAEBC0AA
:106CDA00E0EAC0E0E9C0E0126BB5D0E02401F9D0E7
:106CEA00E03400FAD0E0FBE56C0460DCD56CD980B6
:106CFA0087D20480A2126EF660F7E56C7001041266
:106D0A00285AA96C600DE56C600914F56C126F9D28
:106D1A00EF60F3EA30E702F404C3995077EAF42506
:106D2A006C0430E701E404F56C800D126EF660C164
:106D3A00EA056C256C12285AEA7869F630E701E40C
:106D4A00256C04D56C0420070114126F13E4C0E00B
:106D5A00126F9D7869E6601320E70714F6126B9D9F
:106D6A00802204F6D0E014C0E07F00126B9DE56C2F
:106D7A006007126B94156C800B300703126B94D06A
:106D8A00E0026BEED0E00480C5126EF660A0E56CFE
:106D9A000412285A7869EAF6E56C200702600104B1
:056DAA002404126F1328
:106DAF0074FF04C0E0126F9D126B9DE56C2007020B
:106DBF006003126B94D0E0B56CE87F45126BA77837
:106DCF0069E67F2B30E7047F2DF404C0E0126BB52A
:106DDF00D0E075F00A84C0F0126B9ED0E0126B9E6B
:106DEF00026BEE791080027908C208C20A8008D2BD
:106DFF00D5790A8004790AC2D5E56C047002F56C66
:106E0F00E4FAFDFEFF126B7AFC7B08200313126B72
:106E1F007AFD7B1030020A126B7AFE126B7AFF7BBF
:106E2F0020EC3382D592D55013C3E43002069FFF76
:106E3F00E49EFEE42003039DFDE49CFCE4CBF8C23A
:106E4F0003EC700CCFCECDCCE824F8F870F380179C
:106E5F00C3EF33FFEE33FEED33FDEC33FCEB33FBCF
:106E6F00994002FB0FD8E9EB300305F8D0E0C44896
:106E7F00B203C0E00AEC4D4E4F78207B0070C2EA9F
:106E8F00B56C0040BCC0E0126F15D0F0D0E020030D
:106E9F0004C4C0E0C4B203C0F0126B9ED0F0D5F0B2
:106EAF00EB026BEE1230F76C8B536DF2586C5C4C3F
:106EBF006C58426DF64F6DFE446DFE496C71436E1A
:106ECF0004556D35466D93456CFF476FCA506C6026
:106EDF002D6C642E6C872B6C68236C85206FB32A06
:106EEF006C204800006C7FE56CB4FF03756C0612D4
:106EFF006B7AFC126B7AFD126B7AFE126B7AFF784B
:106F0F0062022889790AA2D5200514300709B91021
:106F1F00020404B9080104A2D5200802500104207C
:106F2F0004689204B56B005034C0E07F203005191F
:106F3F007F30A20472087207500F126F6CC204C226
:106F4F0008C207C20A7F30800F300703E9C0E01282
:106F5F006BB5300703D0E0F9D0E0B56BCC30071735
:106F6F007F30B9100C126BB57F583006077F7880D1
:106F7F0003B90803126BB53004057F2D026BB57F83
:106F8F0020200AF87F2B2008F322920480CF7F0065
:106F9F00B4070050052462F8E6FF22286E756C6C6A
:106FAF002900D203126B7A3003F8C203786B30D505
:106FBF000108F6026C202D50434958126B7A2403B6
:106FCF00B405004001E4906FC593126BA6743A129A
:0A6FDF006BA6D205756B04026DF27B
:10B4D00002284522EDA2E7D2E7F9EC3340F260F30F
:10B4E000B4FF08ED547F70E802284FF82481C2E0D1
:10B4F000C0E0F40428FAC313FCED92E7FD8C3B8D09
:10B500003C8E3D8F3EEEA2E7E9BA7F02C3133400C2
:10B510009400FA75F091A4E5F013F494FE8AF0A477
:10B5200033E5F033248CD313FDE492E7FE7F007CF7
:10B530003F758302ECC0E0F8EDC0E0F9EEC0E0FA40
:10B54000EFC0E0FBAC3BAD3CAE3DAF3E122680D041
:10B55000E0FBD0E0FAD0E0F9D0E0F8122486ED6408
:10B5600080FD30E7011CD583CBED33CC33F8D0E040
:0AB57000A2E71328C313CC13FD2239
:10281000E9D2E7C933E833F892D5EDD2E7CD33EC0E
:0728200033FC5002B2D52287
:10282700EC30E7100FBF000C0EBE00080DBD000412
:102837000BEB6014A2D5EB13FCED92E7FD2274FFBE
:10284700FCFDFEFF22E480F8A2D574FF13FC7D8017
:03285700E480EF2B
:10285A00F920E72824F950037907E4F42402FB1845
:10286A00DBFDE624FB5014E9600DE4F618E604F6F5
:0F287A00B40A08E4F6D9F57401F60A22C2D52291
:10288900ED33EC3392D5FA602AB4FF33EDC2E77B1E
:10289900FF60067A2879AEE4227A2879B720D50430
:1028A9007A2879B2224E614E002B494E46002D49B5
:1028B9004E4600E47A08F608DAFC7B00740722E841
:1028C900C0E0ECC0E0EDC0E0EEC0E0EFC0E0EA75CA
:1028D900F010A4CAABF075F04DA42BFBE435F0FC65
:1028E900EA2410FAEB34C5FBEC34D9FCEDC2E7FF5E
:1028F90075F056A4F42411C5F0F434C58FF0A42A58
:10290900E5F03BE43CF620E7141229BCD0E0FFD007
:10291900E0FED0E0FDD0E0FC1226808014F4041221
:1029290029BCD0E0FFD0E0FED0E0FDD0E0FC1225CC
:1029390077D0E0F8E6FAEDD2E7CD33EC332482FB29
:10294900E4C3CF33CFCE33CECD33CD33DBF37B07E7
:1029590075F00A846004F6081B0AE5F0F6088FF0A2
:10296900740AA4FFACF08EF0740AA42CFEACF050EB
:10297900010C8DF0740AA42CFDE435F0F608DBDEB9
:03298900740722AE
:10298C003F8000004120000042C80000447A000053
:10299C00461C400047C35000497424004B189680D5
:1029AC004CBEBC205A0E1BCA6753C21C749DC5AECC
:1029BC00FB60065407601C23231229EAEB54386091
:1029CC00091229D61229E5122577ECF8EDF9EEFA61
:1029DC00EFCB22EB1229E580F1543803241C90290B
:1029EC008CFE93FC0EEE93FD0EEE930ECE93FF2217
:0300000002B755EF
:0CB75500787FE4F6D8FD75817F02B79C78
:1029FC00E709F608DFFA8046E709F208DFFA803EBD
:102A0C0088828C83E709F0A3DFFA8032E309F608A9
:102A1C00DFFA8078E309F208DFFA807088828C8311
:102A2C00E309F0A3DFFA806489828A83E0A3F608C5
:102A3C00DFFA805889828A83E0A3F208DFFA804C9F
:102A4C0080D280FA80C680D4806980F28033801076
:102A5C0080A680EA809A80A880DA80E280CA8033DF
:102A6C0089828A83ECFAE493A3C8C582C8CCC58357
:102A7C00CCF0A3C8C582C8CCC583CCDFE9DEE78027
:102A8C000D89828A83E493A3F608DFF9ECFAA9F0A6
:102A9C00EDFB2289828A83ECFAE0A3C8C582C8CCFC
:102AAC00C583CCF0A3C8C582C8CCC583CCDFEADE15
:102ABC00E880DB89828A83E493A3F208DFF980CC77
:102ACC0088F0EF60010E4E60C388F0ED2402B40470
:102ADC000050B9F582EB2402B4040050AF23234517
:062AEC008223902A4C73C6
:102AF200BB010689828A83E0225002E722BBFE02E2
:092B0200E32289828A83E4932214
:102B0B00BB010CE58229F582E5833AF583E022507F
:102B1B0006E92582F8E622BBFE06E92582F8E222C9
:0D2B2B00E58229F582E5833AF583E49322E3
:102B3800BB010FF8E58229F582E5833AF583E028A1
:102B4800F0225009C58229F8E58226F622BBFE0943
:102B5800C58229F8E22582F222F8EA2583F583E97D
:032B68009328228D
:102B6B00BB010689828A83F0225002F722BBFE0149
:022B7B00F32243
:102B7D00F8BB010DE58229F582E5833AF583E8F08E
:102B8D00225006E92582C8F622BBFE05E92582C83A
:022B9D00F22222
:102B9F00EF8DF0A4A8F0CF8CF0A428CE8DF0A42E4A
:022BAF00FE2204
:102BB100BC000BBE0029EF8DF084FFADF022E4CC08
:102BC100F875F008EF2FFFEE33FEEC33FCEE9DECD1
:102BD100984005FCEE9DFE0FD5F0E9E4CEFD22ED17
:102BE100F8F5F0EE8420D21CFEADF075F008EF2F61
:102BF100FFED33FD4007985006D5F0F222C398FD52
:052C01000FD5F0EA22EE
:102C0600C2D5EC30E709B2D5E4C39DFDE49CFCEEE9
:102C160030E715B2D5E4C39FFFE49EFE122BB1C385
:102C2600E49DFDE49CFC8003122BB130D507C3E480
:062C36009FFFE49EFE2258
:102C3C00C5F0F8A3E028F0C5F0F8E5821582700223
:062C4C001583E038F022C0
:102C5200A3F8E0C5F025F0F0E58215827002158335
:062C6200E0C838F0E82292
:102C6800BB010A89828A83E0F5F0A3E02250068737
:102C7800F009E71922BBFE07E3F5F009E3192289F9
:0B2C8800828A83E493F5F0740193222C
:102C9300BB0110E58229F582E5833AF583E0F5F07F
:102CA300A3E0225009E92582F886F008E622BBFE5C
:102CB3000AE92582F8E2F5F008E222E5832AF583A2
:082CC300E993F5F0A3E9932267
:102CCB00BB010789828A83022C3C500B09C5F02774
:102CDB00F7C5F01937F722BBFE0D09F8E325F0F322
:102CEB00C5F019E338F322F889828A83740193259E
:082CFB00F0C5F0F8E493382263
:102D0300BB010A89828A83F0E5F0A3F0225006F71B
:0F2D130009A7F01922BBFE06F3E5F009F3192218
:102D2200F8BB0111E58229F582E5833AF583E8F0E3
:102D3200E5F0A3F0225009E92582C8F608A6F022A0
:0D2D4200BBFE09E92582C8F2E5F008F22287
:0D2D4F00EF2BFFEE3AFEED39FDEC38FC22D3
:0E2D5C00C3EF9BFFEE9AFEED99FDEC98FC2272
:102D6A00E88FF0A4CC8BF0A42CFCE98EF0A42CFC08
:102D7A008AF0EDA42CFCEA8EF0A4CDA8F08BF0A486
:102D8A002DCC3825F0FDE98FF0A42CCD35F0FCEBE5
:102D9A008EF0A4FEA9F0EB8FF0A4CFC5F02ECD39AA
:0F2DAA00FEE43CFCEAA42DCE35F0FDE43CFC2217
:102DB90075F008758200EF2FFFEE33FECD33CDCCD1
:102DC90033CCC58233C5829BED9AEC99E582984054
:102DD9000CF582EE9BFEED9AFDEC99FC0FD5F0D631
:102DE900E4CEFBE4CDFAE4CCF9A88222B800C1B95B
:102DF9000059BA002DEC8BF084CFCECDFCE5F0CB99
:102E0900F97818EF2FFFEE33FEED33FDEC33FCEBD1
:102E190033FB10D703994004EB99FB0FD8E5E4F98C
:102E2900FA227818EF2FFFEE33FEED33FDEC33FC79
:102E3900C933C910D7059BE99A4007EC9BFCE99A6D
:102E4900F90FD8E0E4C9FAE4CCFB2275F010EF2FB2
:102E5900FFEE33FEED33FDCC33CCC833C810D707B2
:102E69009BEC9AE899400AED9BFDEC9AFCE899F8ED
:0E2E79000FD5F0DAE4CDFBE4CCFAE4C8F92280
:10BF2400C2D5E830E70FB2D5E4C39BFBE49AFAE448
:10BF340099F9E498F8EC30E717B2D512BF5A122DEC
:10BF4400F5E4C39BFBE49AFAE499F9E498F88003D6
:10BF5400122DF530D50DE4C39FFFE49EFEE49DFD54
:04BF6400E49CFC223B
:0D2E8700EF4BFFEE4AFEED49FDEC48FC224A
:0E2E9400C3E49FFFE49EFEE49DFDE49CFC224F
:102EA200EB9FF5F0EA9E42F0E99D42F0EC6480C8A7
:062EB20064809845F02247
:102EB800EB9FF5F0EA9E42F0E99D42F0E89C45F070
:012EC80022E7
:102EC900E8600FECC313FCED13FDEE13FEEF13FFE7
:032ED900D8F1220B
:102EDC00E8600FEFC333FFEE33FEED33FDEC33FC54
:032EEC00D8F122F8
:102EEF00BB010789828A83022F7D5005E9F80232E0
:102EFF0039BBFE05E9F802324589828A83023251D5
:102F0F00BB010DE58229F582E5833AF583022F7D1A
:102F1F005007E92582F8023239BBFE07E92582F80E
:102F2F00023245E58229F582E5833AF58302325173
:102F3F00BB010789828A83022FC55005E9F8023247
:0A2F4F0061BBFE05E9F802326D22B5
:102F5900BB010DE58229F582E5833AF583022FC588
:102F69005007E92582F8023261BBFE07E92582F89C
:042F790002326D2291
:0C2F7D00E0FCA3E0FDA3E0FEA3E0FF22C7
:0C2F8900E0F8A3E0F9A3E0FAA3E0FB22CB
:102F9500E493F8740193F9740293FA740393FB2292
:102FA5007401FF3395E0FEFDFC080808E62FFFF6E7
:102FB50018E63EFEF618E63DFDF618E63CFCF62260
:0C2FC500ECF0A3EDF0A3EEF0A3EFF0227F
:102FD100A8828583F0D083D082122FE8122FE812C5
:102FE1002FE8122FE8E473E493A3C583C5F0C583EA
:102FF100C8C582C8F0A3C583C5F0C583C8C582C84A
:0130010022AC
:10300200BB010789828A83022FD15005E9F8023277
:0A30120079BBFE05E9F802329222B4
:10301C00BB010DE58229F582E5833AF583022FD1B8
:10302C005007E92582F8023279BBFE07E92582F8C0
:04303C0002329222A8
:0C304000A42582F582E5F03583F583229B
:10304C00FAE6FB0808E6F925F0F618E6CA3AF62285
:09305C00E0FBA3E0FAA3E0F92275
:09306500EBF0A3EAF0A3E9F0226C
:10306E00BB010DE58229F582E5833AF58302305CDA
:10307E005007E92582F80232ABBBFE07E92582F83C
:10308E000232BDE58229F582E5833AF5830232CF1D
:10309E00BB0120E58229F582E5833AF583D0F0D095
:1030AE00E0F8D0E0F9D0E0FAD0E0FBE8C0E0C0F004
:1030BE000230655018E92582F8D083D082D0E0F92D
:1030CE00D0E0FAD0E0FBC082C0830232B4BBFE185F
:1030DE00E92582F8D083D082D0E0F9D0E0FAD0E0B2
:0930EE00FBC082C0830232C6223D
:1030F700D083D082F8E4937012740193700DA3A368
:1031070093F8740193F5828883E47374029368607B
:06311700EFA3A3A380DF7B
:10311D00D083D082F8E4937012740193700DA3A341
:10312D0093F8740193F5828883E473740293B5F078
:0D313D00067403936860E9A3A3A3A380D8E0
:06314A008A838982E47310
:10C0B100EFB40A07740D12C0BC740A309811A89924
:10C0C100B8130CC2983098FDA899C298B811F630EF
:07C0D10099FDC299F59922C7
:0F005E00EFC394204007EF947F50028001C3222C
:10315000E709F60870FA8046E709F20870FA803E3F
:1031600088828C83E709F0A370FA807EE309F60871
:1031700070FA8076E309F20870FA806E88828C8398
:10318000E309F0A370FA806289828A83E0A3F608DB
:1031900070FA805689828A83E0A3F20870FA804A26
:1031A00080D280FA80C680D4806580F28031801021
:1031B00080A680EA809A80A880DA80E280CA803186
:1031C00089828A83ECFAE493A3C8C582C8CCC583FC
:1031D000CCF0A3C8C582C8CCC583CC70E9800D896A
:1031E000828A83E493A3F60870F9ECFAA9F0EDFB68
:1031F0002289828A83ECFAE0A3C8C582C8CCC58341
:10320000CCF0A3C8C582C8CCC583CC70EA80DD8968
:10321000828A83E493A3F20870F980CE88F0ED24CB
:1032200002B4040050C4F582EB2402B4040050BA86
:0932300023234582239031A07391
:10000E00E4FFFE122AF2600C0FEF70010E09E97088
:05001E00F20A80EF2250
:10B761000215AFE493A3F8E493A34003F68001F23A
:10B7710008DFF48029E493A3F85407240CC8C333E9
:10B78100C4540F4420C8834004F456800146F6DFB8
:10B79100E4800B010204081020408090B1D1E47EC6
:10B7A100019360BCA3FF543F30E509541FFEE493AD
:10B7B100A360010ECF54C025E060A840B8E493A374
:10B7C100FAE493A3F8E493A3C8C582C8CAC583CA9F
:10B7D100F0A3C8C582C8CAC583CADFE9DEE780BE57
:01B2B100009C
:0C323900E6FC08E6FD08E6FE08E6FF22C1
:0C324500E2FC08E2FD08E2FE08E2FF22C5
:10325100E493FC740193FD740293FE740393FF22C3
:0C326100ECF608EDF608EEF608EFF62299
:0C326D00ECF208EDF208EEF208EFF2229D
:10327900D083D082E493F608740193F6087402931C
:09328900F608740393F674047353
:10329200D083D082E493F208740193F2087402930B
:0932A200F208740393F274047342
:0932AB00E6FB08E6FA08E6F92248
:0932B400EBF608EAF608E9F6223F
:0932BD00E2FB08E2FA08E2F92242
:0932C600EBF208EAF208E9F22239
:0C32CF00E493FB740193FA740293F9225B
:00000001FF
