:106BE400436F7079726967687420284329203230B2
:106BF40030352D3920547261636B20537973746579
:106C04006D7320546563686E6F6C6F676965732C70
:106C1400204C4C43000200FF000000C0C1C18101B0
:106C240040C30103C00280C241C60106C00780C739
:106C3400410500C5C1C4810440CC010CC00D80CD08
:106C4400410F00CFC1CE810E400A00CAC1CB810BD7
:106C540040C90109C00880C841D80118C01980D9A9
:106C6400411B00DBC1DA811A401E00DEC1DF811F37
:106C740040DD011DC01C80DC411400D4C1D5811548
:106C840040D70117C01680D641D20112C01380D359
:106C9400411100D1C1D0811040F00130C03180F1E8
:106CA400413300F3C1F28132403600F6C1F7813737
:106CB40040F50135C03480F4413C00FCC1FD813D08
:106CC40040FF013FC03E80FE41FA013AC03B80FBD9
:106CD400413900F9C1F88138402800E8C1E9812927
:106CE40040EB012BC02A80EA41EE012EC02F80EF39
:106CF400412D00EDC1EC812C40E40124C02580E548
:106D0400412700E7C1E68126402200E2C1E3812356
:106D140040E10121C02080E041A00160C06180A168
:106D2400416300A3C1A28162406600A6C1A7816736
:106D340040A50165C06480A4416C00ACC1AD816D07
:106D440040AF016FC06E80AE41AA016AC06B80ABD8
:106D5400416900A9C1A88168407800B8C1B98179A6
:106D640040BB017BC07A80BA41BE017EC07F80BF38
:106D7400417D00BDC1BC817C40B40174C07580B547
:106D8400417700B7C1B68176407200B2C1B3817356
:106D940040B10171C07080B041500090C1918151E7
:106DA40040930153C052809241960156C057809738
:106DB40041550095C1948154409C015CC05D809D07
:106DC400415F009FC19E815E405A009AC19B815BD6
:106DD40040990159C058809841880148C049808928
:106DE400414B008BC18A814A404E008EC18F814F36
:106DF400408D014DC04C808C41440084C185814547
:106E040040870147C046808641820142C043808357
:096E140041410081C18081404030
:108093005000150000000000000000000000000078
:1080A300000000430BF7000000410BF600410C7A7F
:1080B3000A41000500026F0000026B00005000251A
:1080C30000000000000000000000000000000000AD
:1080D30001730041028B00410C8100420002000049
:1080E300410C7D0042025E000042003D000042025E
:1080F3008E00A0410C7C00410C80004202910000E4
:1081030041000100410004004102C000410BB000E6
:10811300410C7B0002740000026D000042029400D7
:1081230000410290004102C10041000000410C8265
:0981330000410014004102C204E5
:10310100E4F52DF52CF52BF52A75840F75FFDE7589
:10311100FFAD1289371286C253B0BF53B0DF53B02F
:10312100EF12005E75340175350975361A7B017A27
:103131000B79F4127FAD127E95900C7A7414F0E441
:10314100900290F0900000F0900000E0FFC3942AFC
:103151005018EF75F015A42496F582E43402F58336
:10316100E4F0900000E004F080DEE4900000F01252
:1031710088197F007E96120026128CF0128B11E4C2
:10318100900265F09002787402F0900281744EF022
:103191007B017A0279C3900274122F747A09791C27
:1031A100900287122F747A0679FD900271122F74A2
:1031B1007A0B79B1900284122F74E4900264F0903A
:1031C100027704F090026E744EF0E4900279F0A35D
:1031D100F0900266F0A3F0900283F0900270F090FC
:1031E1000282F090026FF01BFAF990027E122F74A6
:1031F10090027B122F7490026B122F74900268124E
:103201002F740B7A0279647F007E847D037C001227
:103211007054900014E07B017A02797760067F8018
:103221007E2580047F007EE17D007C001270544386
:0A323100F880D2AF900014E0603581
:10323B00900C85122EE0000057E4E4FFFEFDFC909D
:10324B000C85122EB8D3122DD14017900C85122E4F
:10325B00AC74FFFBFAF9F8122C7E900C85122ED46D
:02326B0080D809
:10326D001272581200A6900C827401F0E490025173
:10327D00F0A3F0A3F090025DF0900257F0A3F09050
:10328D000255F0A3F0E5D830E2047F0180027F0003
:10329D00900254EFF090025FE02458FE90025EE041
:1032AD00340090025BF0A3CEF090003DE0FCA3E073
:1032BD00FD2406FEE43C900259F0A3CEF0ED24056A
:1032CD00FEE43C900C98F0A3CEF0E5D854037002C8
:1032DD00806C7B017A00793F754D00754E037F1030
:1032ED007E021284149001E5E0540F900006F090D8
:1032FD0001E5E054F0C4540F900007F0900006E093
:10330D006403702AE5D85403FFBF0208900251747C
:10331D0004F0802E900007E0900251B4030974036D
:10332D00F0A37401F0801B7401F0A3F080149000E1
:10333D0007E0B403089002517402F08005E4900296
:10334D0051F0E4FFFED390091BE09F90091AE09E17
:10335D004013743F2FF58274003EF583E4F00FBFE8
:10336D0000010E80E090028BE0602CC390001AE00B
:10337D0094B8900019E0940B501D53B0F753B0BFA3
:10338D0053B0DF53B0EFE4F54BF54C7B937D037FEA
:10339D0002127667127D3C900251E06404600302D4
:0233AD00358069
:1033AF00F52EF52F90003DE0FEA3E0FF900C98E086
:1033BF00B50612A3E0B5070D752E01900C98E475B4
:1033CF00F001122BA3E5D830E314900253E064040C
:1033DF0070030234B07404F0752E010234B0900201
:1033EF0053E06404702F7402F090025FE02403FE38
:1033FF0090025EE0340090025BF0A3CEF0E5D8308F
:10340F00E2047F0180027F00900254EFF0E490020B
:10341F005DF0752E0190025BE0FEA3E0FF90025E6F
:10342F00E0FCA3E0FD6F7002EC6E7075E5D830E242
:10343F00047F0180027F00900254E0FE6F70309095
:10344F00025DE0C394025005E004F08047EE601087
:10345F00900253E06402603C7402F0752E018034D8
:10346F00900253E06401602C7401F0F52E802590DA
:10347F000253E0640360067403F0752E019002544A
:10348F00E070047F0180027F00900254EFF0900201
:10349F005D7401F0ED2458FEE43C90025BF0A3CE86
:1034AF00F0900BF6E0FFC394054006EFD3941F4056
:1034BF003FE52E603B900253E0FF906C1CE493FDC0
:1034CF003395E0FC90027175F013ED122F4FEC75F0
:1034DF00F013A42583F583122F6B900007EF122AA8
:1034EF00E4754B00754C017B297D037F02127667D3
:1034FF00900252E06004A3E0701E9002537401F03A
:10350F00900252F090003EE02405FE90003DE03422
:10351F0000900259F0A3CEF0900259E0FEA3E0FF15
:10352F0090003DE0B50619A3E0B50714900259E4E9
:10353F0075F00A122BA3900253E0B40103752F010B
:10354F00900BF6E0FFC394054009EFD3941F50038F
:10355F00E4F52FE52F601A9002527405F090025F88
:10356F00E02403FE90025EE03400900257F0A3CEF9
:01357F00F05B
:10358000900257E0FEA3E0FF90025EE0FCA3E0FDA6
:103590006F7002EC6E6003023618900252E024FD58
:1035A000605224FE601A1460512404706B90025221
:1035B0007403F0ED2428FEE43C900257F0A3CEF013
:1035C000900252E0B405177406F090025FE02428E0
:1035D000FE90025EE03400900257F0A3CEF090021D
:1035E00051E024FD60091460042403702B80004323
:1035F000C81080249002527404F0900252E0B40685
:10360000037401F0900251E024FD60091460042469
:10361000037005800053C8EF900268122F6BE94ACF
:033620004B602BD1
:10362300900268122F6B8B2E8A2F89307B007A00D1
:103633007900900268122F74AB2EAA2FA930E4FFF1
:0B3643001245FB900C96EEF0A3EFF098
:10364E00900C7CE07003023851E4F09002C0E0F47C
:10365E00600302372E900251E06404600302371DAE
:0B366E00900253E06404703843C81061
:10367900900C89122EE00001B774E4FFFEFDFC9066
:103689000C89122EB8D3122DD14017900C89122E05
:10369900AC74FFFBFAF9F8122C7E900C89122ED427
:0236A90080D8C7
:0B36AB0053C8EF900253E06401606719
:1036B600900C8D122EE0000DBBA0E4FFFEFDFC90E9
:1036C6000C8D122EB8D3122DD14017900C8D122EC0
:1036D600AC74FFFBFAF9F8122C7E900C8D122ED4E6
:0236E60080D88A
:0336E80043C810C4
:1036EB00900C91122EE000112A88E4FFFEFDFC9055
:1036FB000C91122EB8D3122DD14017900C91122E83
:10370B00AC74FFFBFAF9F8122C7E900C91122ED4AC
:02371B0080D854
:10371D0053B0F753B0BF53B0DF53B0EF53F87F80C2
:10372D00FE9002C0E0FF64F07027900BF6EFF0E41E
:10373D00F574F57590000574FFF043B00843B04083
:10374D0043B02043B010C2A853E7FD53E7BF023882
:10375D004CEFB4F113900BF6F053B0F753B0BF53D9
:10376D00B0DF53B0EF02384CEF64F2702F900BF6D0
:10377D00EFF043B00843B04043B02043B010900B7E
:10378D00F5E024FFFD900BF4E034FFFCE4FBFFFEBD
:10379D0012873AE4F58443EF010238519002C0E0FC
:1037AD00FFC394054009EFD3941F500343B04090DD
:1037BD0002C0E0FFC39405400CEFD3942350067E66
:1037CD00007F0180047E007F00900BF6E0FDC39426
:1037DD0005400CEDD3942350067C007D0180047CC4
:1037ED00007D00ED6F7002EC6E604C9002C0E0FF4A
:1037FD00C39405403FEFD3942350391258AB128830
:10380D00191200A6E4900C81F0900C7AE0FF74A0E0
:10381D008FF08475F00AA4FF90025FE02401FD9003
:10382D00025EE03400CD2FFEED35F0900002F0A3E6
:10383D00CEF08003127D3C9002C0E0900BF6F0E4D8
:10384D009002C0F0900BF6E0FFC3940550030233D5
:10385D0072EFD394234003023372900268122F6BE0
:10386D00E94A4B6003023372900BF9E060030233B7
:10387D007290026B122F6BE94A4B60030233729008
:10388D00028BE07003023B7190001AE094B8900037
:10389D0019E0940B4007E490028BF0800690028BA8
:1038AD007401F0C3E570940AE56F6480948040065E
:1038BD00756F00757009900014E06007E490028A3E
:1038CD00F0803590001BE0FEA3E0FFEF24FBFFEE40
:1038DD0034EBFEE434FFFDE434FFFCE47BE87A03D3
:1038ED00F9F8122C99E47BE57A24F9F8128BA09063
:1038FD00028AEFF0E024CEF0900017E0540FFD9017
:10390D000015E0540FC4F854F0C8E4C4540F482D0A
:10391D00FF906C1CE493FD3395E0FC90027175F003
:10392D0013ED122F4FEC75F013A42583F583122F91
:10393D006B900007EF122AE490005575F033E57097
:10394D00122F4FE56F75F033A42583F58375F003C2
:10395D00E56C122F4FE56B75F003A42583F583E01D
:10396D00FF900015A3E0FEEF2EFF906C1CE4933347
:10397D0095E0FC90027175F013ED122F4FEC75F080
:10398D0013A42583F583122F6B900008EF122AE400
:10399D0090005675F033E570122F4FE56F75F033CB
:1039AD00A42583F58375F003E56C122F4FE56B7538
:1039BD00F003A42583F583E0FF900017A3E0FEEF4D
:1039CD002EFF906C1CE4933395E0FC90027175F022
:1039DD0013ED122F4FEC75F013A42583F583122FE1
:1039ED006B900009EF122AE4E5D8F4FF900271758F
:1039FD00F013ED122F4FEC75F013A42583F5831200
:103A0D002F6B90000AEF122AE4900263E0FF900002
:103A1D0023E0FEA3E0A807088005CEC313CE13D87C
:103A2D00F9FF906C1CE493FD3395E0FC90027175E9
:103A3D00F013ED122F4FEC75F013A42583F58312BF
:103A4D002F6B90000BEF122AE4900262E0FF9000C2
:103A5D0021E0FEA3E0A807088005CEC313CE13D83E
:103A6D00F9FF906C1CE493FD3395E0FC90027175A9
:103A7D00F013ED122F4FEC75F013A42583F583127F
:103A8D002F6B90000CEF122AE4900261E0FF900082
:103A9D001FE0FEA3E0A807088005CEC313CE13D800
:103AAD00F9FF906C1CE493FD3395E0FC9002717569
:103ABD00F013ED122F4FEC75F013A42583F583123F
:103ACD002F6B90000DEF122AE4900260E0FF900042
:103ADD001DE0FEA3E0A807088005CEC313CE13D8C2
:103AED00F9FF906C1CE493FD3395E0FC9002717529
:103AFD00F013ED122F4FEC75F013A42583F58312FF
:103B0D002F6B90000EEF122AE490024FE0A3FF906E
:103B1D00027175F013ED122F4FEC75F013A4258380
:103B2D00F583122F6B90000FEF122AE490024FA332
:103B3D00E0FF90027175F013ED122F4FEC75F0133D
:103B4D00A42583F583122F6B900010EF122AE475D4
:103B5D004B00754C0A7B927D037F021276671269CA
:103B6D00A6023372900283E0FF900282E06F606DD7
:103B7D00EF75F0DCA4FF900287122F6BE92FF9EAA5
:103B8D0035F08B2EF52F8930900283E0FFB40204BF
:103B9D007F008003EF04FF900283EFF090028AE034
:103BAD00FF90005375F033E570122F4FE56F75F0F0
:103BBD0033A42583F583EFF0AE6FAF707C007D33BA
:103BCD00122B06743F2FF974003E753401F53589BB
:0A3BDD0036AB2EAA2FA930123DC40A
:103BE700023372900C81E0FD7017900002E0FEA393
:103BF700E0FF90025EE06E7003A3E06F60030233A4
:103C070072900C7AE0FF74A08FF08475F00AA4FF1D
:103C170090025FE02401FB90025EE03400CB2FFEB0
:103C2700EB35F0900002F0A3CEF0ED700E900C8013
:103C3700F090000274FFF5F0122BA39002C2E0FF90
:103C47007003023CE4900BF6E0FEC39405500302B8
:103C57003CE4EED3941F4003023CE4900C81E070F7
:103C670003023DA7900251E0FE605C900BF6E0FD79
:0B3C7700C394054052EDD3941F504C45
:103C8200EEB40407900253E0B40408900251E064D9
:103C9200046039900C7AE0900C95B428057406F013
:103CA20080037404F0900C95E0B5072090025274E2
:103CB20002F0900255E0FEA3E0FF90025FE02FFFCA
:0C3CC20090025EE03E900257F0A3EFF08D
:103CCE009002C2E014F06003023DA7F56BF56CF5AF
:103CDE006FF570023DA7900BF6E0FFC394055003FD
:0C3CEE00023DA7EFD394234003023DA742
:103CFA00900C80E0FF906C1CE493FD3395E0FC90FF
:103D0A00027175F013ED122F4FEC75F013A4258391
:103D1A00F583122F6B900007EF122AE4900291E0CC
:103D2A00A3FF90027175F013ED122F4FEC75F0138B
:103D3A00A42583F583122F6B900008EF122AE490D2
:103D4A000291A3E0FF90027175F013ED122F4FEC70
:103D5A0075F013A42583F583122F6B900009EF12D7
:103D6A002AE4754B00754C037B277D037F0212768C
:103D7A0067E4F52EF52FD390091BE0952F90091AC9
:103D8A00E0952E4018743F252FF5827400352EF5E4
:0D3D9A0083E4F0052FE52F70DD052E80D9A4
:103DA700E4900C81F09002C1F0900C80E060086311
:0D3DB700B020E4F002337253B0DF0233722B
:0E7D3C0053B0BF53B0DF900252E0640370708A
:107D4A00900C9A122EE000015F90E4FFFEFDFC9079
:107D5A000C9A122EB8D3122DD14017900C9A122ECB
:107D6A00AC74FFFBFAF9F8122C7E900C9A122ED4FE
:027D7A0080D8AF
:037D7C00E4F5C863
:107D7F00900C9E122EE000020F58E4FFFEFDFC90C7
:107D8F000C9E122EB8D3122DD14017900C9E122E8E
:107D9F00AC74FFFBFAF9F8122C7E900C9E122ED4C5
:027DAF0080D87A
:107DB1009002527401F0A304F0900251E0FFB40468
:107DC10008900253E064046013EF64047003027EC0
:0C7DD1008B900252E064046003027E8B81
:107DDD00900CA2122EE000015F90E4FFFEFDFC90DE
:107DED000CA2122EB8D3122DD14017900CA2122E28
:107DFD00AC74FFFBFAF9F8122C7E900CA2122ED463
:027E0D0080D81B
:107E0F00900251E024FD603C1460042403706D4324
:027E1F00C81089
:107E2100900CA6122EE00001B774E4FFFEFDFC9059
:107E31000CA6122EB8D3122DD1404C900CA6122EA6
:107E4100AC74FFFBFAF9F8122C7E900CA6122ED41A
:027E510080D8D7
:037E530043C81011
:107E5600900CAA122EE00001B774E4FFFEFDFC9020
:107E66000CAA122EB8D3122DD14017900CAA122E9E
:107E7600AC74FFFBFAF9F8122C7E900CAA122ED4E1
:027E860080D8A2
:0D7E880053C8EF9002527401F0E4F5C822D7
:1058AB0090025EE0F533A3E0F534E4F56FF570F5A7
:1058BB006BF56C900C80F0A3F090091AE0FEA3E05E
:1058CB00FF7B017A00793F754D00754E01128414F0
:1058DB00900BB0E024FC601424027027900C7A74B7
:1058EB0014F0900255E4F0A374F08026900C7A74B7
:1058FB0028F0900255E4F0A374A4F09002C2740651
:10590B00F08016900C7A740AF09002557402F0A392
:10591B007434F09002C27404F0900C7BE09002900F
:10592B00F090028CE0FCA3E0FD4C700890000AF0B4
:10593B00A3F08067900293E0701E122707A804A9BA
:10594B0005AA06AB07E4FFFE7D7A7C481225E71219
:10595B0027407C007DF08038900293E0B40F0374F5
:10596B0010F090028CE0FCA3E0FDE4122707A804E2
:10597B00A905AA06AB07E4FFFE7D7A7C481225E752
:10598B00122740900293E0FD74788DF084FD7C002B
:10599B00122B0690000AEEF0A3EFF0E5D85403703B
:1059AB0007900290F0025C877B017A00793F754D7E
:1059BB0000754E037F107E02128414E4F531F5322C
:1059CB0090005775F028E532122F4FE53175F0280E
:1059DB00A42583F583E024FB601524FB70227460FF
:1059EB002532F58274023531F5837403F08020740F
:1059FB00602532F58274023531F5837402F0800F25
:105A0B0074602532F58274023531F5837404F00528
:105A1B0032E532700205316404453170A3E4F5318F
:105A2B00F53290006475F028E532122F4FE5317591
:105A3B00F028A42583F583E0FDE53225E0FFE53171
:105A4B0033FE740D2FF58274003EF583EDF090005C
:105A5B005875F028E532122F4FE53175F028A42543
:105A6B0083F583122EB890005C75F028E532122F67
:105A7B004FE53175F028A42583F583122EAC122344
:105A8B00E9C004C005C006C00790005875F028E5B2
:105A9B0032122F4FE53175F028A42583F583122E92
:105AAB00B890006075F028E532122F4FE53175F094
:105ABB0028A42583F583122EAC1223E9D003D00240
:105ACB00D001D0001225E7E4FBFAF9F812268490F6
:105ADB00005875F02860054003025B65E532122F14
:105AEB004FE53175F028A42583F583122EB890006D
:105AFB005C75F028E532122F4FE53175F028A4259F
:105B0B0083F583122EAC1223E9C004C005C006C076
:105B1B000790005875F028E532122F4FE53175F0DC
:105B2B0028A42583F583122EB890006075F028E524
:105B3B0032122F4FE53175F028A42583F583122EF1
:105B4B00AC1223E9D003D002D001D0001225E7C05C
:105B5B0004C005C006C007025BEBE532122F4FE510
:105B6B003175F028A42583F583122EB890005C754F
:105B7B00F028E532122F4FE53175F028A42583F577
:105B8B0083122EAC1223E9C004C005C006C00790D7
:105B9B00005875F028E532122F4FE53175F028A427
:105BAB002583F583122EB890006075F028E532122C
:105BBB002F4FE53175F028A42583F583122EAC12F7
:105BCB0023E9D003D002D001D0001225E71226F131
:105BDB00AB07AA06A905A804C000C001C002C003F8
:105BEB0090006575F028E532122F4FE53175F028DE
:105BFB00A42583F583E0FF90006675F028E532124B
:105C0B002F4FE53175F028A42583F583E0C39FFD65
:105C1B00E49400FCE4122707D003D002D001D0009B
:105C2B001224DEC004C005C006C00790006575F0E5
:105C3B0028E532122F4FE53175F028A42583F58323
:105C4B00E0FCE412270CD003D002D001D0001223C9
:105C5B00ED122740AD07E53225E0FFE53133FE7449
:105C6B000C2FF58274003EF583EDF00532E53270B2
:105C7B00020531640445316003025A2D900290E015
:105C8B0030E7034403F0E4F531F532D390091BE020
:105C9B00953290091AE095314018743F2532F58200
:105CAB0074003531F583E4F00532E53270DD0531F2
:025CBB0080D98E
:015CBD0022C4
:0969A600900290E07003026BE323
:0369AF0075310639
:1069B200AF31900290E0FEA807088002C313D8FC12
:1069C20020E003026BD5E5311230066B48006B3FC5
:1069D200016A30026A300369EE0469EE0569E6066F
:1069E20000006BD5E5D8F4F532026BD5AF31EF3349
:1069F20095E0FEEF25E0FFEE33FE74192FF5827469
:106A0200003EF583E0FEA3E0FFAD31ED3395E0FCFF
:106A1200745E2DF58274023CF583E0FDEFA8050853
:0E6A22008005CEC313CE13D8F9F532026BD522
:106A3000E4F533AF31EF3395E0FEEF25E0FFEE33C1
:106A4000FE74192FF58274003EF583E0FEA3E0FF8B
:106A5000AD31ED3395E0FC745E2DF58274023CF5AA
:106A600083E0FBEFA803088005CEC313CE13D8F94B
:106A7000F53274042DF58274003CF583E064026005
:106A800003026BD5AF31EF3395E0FEEF25E0FFEE6B
:106A900033FE74092FF58274003EF583E060230411
:106AA000604624FE706A74082FF58274003EF583F8
:106AB000E0FFE532D39F40047F0180027F008F33E7
:106AC000804EAF31EF3395E0FEEF25E0FFEE33FE71
:106AD00074082FF58274003EF583E0B532047F011F
:106AE00080027F008F338028AF31EF3395E0FEEFD7
:106AF00025E0FFEE33FE74082FF58274003EF58327
:106B0000E0FFE532C39F50047F0180027F008F3396
:106B1000E5336015E5312402FF7401A807088002FF
:106B2000C333D8FC42C8026BD5E5312402FF74019F
:0F6B3000A807088002C333D8FCF452C8026BD503
:096B3F0090024FE0F532026BD523
:106B480090024FE0FEA3E0FFF53290000AE0FCA3BC
:106B5800E0FD4C6078EF4E6074D3ED9FEC9E5038AA
:106B6800E4F533F53474062534F58274003533F5CD
:106B780083E0B40113E5342404FF7401A8070880F6
:106B880002C333D8FCF452C80534E5347002053327
:106B98006402453370CF8035E4F533F53474062547
:106BA80034F58274003533F583E0B40112E53424FA
:106BB80004FF7401A807088002C333D8FC42C80543
:0D6BC80034E534700205336402453370D0AB
:0E6BD5001531C3E5316480948040030269B23B
:016BE300228F
:108882008B518A528953E92DF9EA3C8B54F555896B
:1088920056E4F557F558C3855583855682E55395B9
:1088A20082E5529583502F7851E475F001122F5BC7
:1088B200122A59FFE5586F25E0FFE433FE741D2F9D
:1088C200F582746C3EF583E557FFE493F557740126
:0A88D200936FF55880C0AE57AF5801
:0188DC002279
:107E9500E4900D36F07B017A0B79FA12898E900CFD
:107EA50063E07004A3E064DE700C900C65E0700480
:107EB500A3E064086018900C63E4F0A374DEF0900E
:107EC5000C65E4F0A37408F0900D367401F0900C85
:107ED5004CE0B4FF0974C8F0900D367401F0900CB5
:107EE5004BE0640160077401F0900D36F0900BF4DF
:107EF500E0FCA3E0FDB40015ECB41011900C68E0B3
:107F050030E40AE054EFF0900D367401F0E4B50565
:107F150015ECB42011900C68E020E40AE04410F060
:107F2500900D367401F0900BFAE0FF128CE1400DD4
:107F3500900BFAE06007E4F0900D3604F0900C0E1B
:107F4500E0FF128CE1400D900C0EE06007E4F0902C
:107F55000D3604F0900C22E0FF128CE1400D900CE0
:107F650022E06007E4F0900D3604F0900C6BE0B46D
:107F7500FF07E4F0900D3604F0900C6CE0B4FF11AF
:107F8500A3E0B4FF0CE4900C6CF0A3F0900D360464
:107F9500F0900D36E06010128C7B7B017A0B79FA3C
:077FA5007D807C001287AA19
:017FAC0022B2
:108C7B00AF84E4F584781EF608F6A2AF33FEC2AFDC
:108C8B0043B701758F0718E6FC08E6F5828C83E481
:0D8C9B00F0F58F53B7FEEE24FF92AF8F84EB
:018CA80022A9
:0A87AA008B458A4689478C488D49AB
:1087B40085844AE4F584781EF608F6A2AF33FFC236
:1087C400AF43B701758F05E4F54BF54CC3E54C9504
:1087D40049E5486480F8E54B64809850297845E47D
:1087E40075F001122F5B122A59FE781E0806E6184E
:1087F400860470010614F5828C83EEF0054CE54C7A
:1088040070CA054B80C6E4F58F53B7FEEF24FF9280
:04881400AF854A845E
:01881800223D
:06898E008B458A46894773
:10899400858448E4F549F54AF584A2AF33F54BC222
:1089A400AF758F04E4FFFE054AE54AAC4970020541
:1089B4004914F5828C83E493FD7845E475F0011243
:1089C4002F5BED122AD20FBF00010EEF64804E70B0
:0D89D400D6E4F58FE54B24FF92AF85488473
:0189E1002273
:0E84AF008E4C8F4D8C4E8D4F8B508A518952C2
:0A84BD0012007EEF30E7F953F8FDDE
:1084C700E4F557F5580558E55870020557644045D7
:0384D7005770F2E9
:1084DA00E54D6401454C70047F8480027F87128CCD
:1084EA00D0E4FF128CD0E4FF128CD0E4FF128CD0BF
:1084FA00E4F555F556C3E556954FE54E6480F8E523
:10850A0055648098501DAB50AA51A9528556828550
:10851A005583122A72FF128CD00556E55670D6057D
:10852A005580D243F802AD54AC53AF4DAE4C0286DF
:01853A0045FB
:088645008E598F5A8C5B8D5C8D
:10864D0090091AE0FEA3E0FF1283788F5D12007E81
:07865D00EF30E7F953F8FDCF
:10866400E4F55EF55F055FE55F7002055E64404515
:038674005E70F243
:10867700E55D6010E55A6401455970047F838012F7
:108687007F86800EE55A6401455970047F82800217
:108697007F85128CD0E55CAE5B7806CEA2E713CE61
:1086A70013D8F8FF128CD0AF5CEF25E025E0FF125E
:0A86B7008CD0E4FF128CD043F802CF
:0186C1002296
:03007E0053F8FD37
:10008100E4F569F56A056AE56A7002056964404547
:030091006970F2A1
:0D0094007FD7128CD0E4FF128CD043F8020D
:0100A100223C
:0A8414008E488F498B4A8A4B894C31
:0A841E0012007EEF30E7F953F8FD7D
:10842800E4F551F5520552E5527002055164404594
:038438005170F28E
:10843B007FD2128CD0E54EAE4D7806CEA2E713CE8E
:10844B0013D8F8FF128CD0AF4EEF25E025E0FF12CA
:10845B008CD0E4FF128CD0E4FF128CD0E4FF128C92
:10846B00D0E4FF128CD0E4FF128CD0E4F54FF55022
:10847B00C3E5509549E5486480F8E54F6480985012
:10848B001FE4FF128CD0AB4AAA4BA94C85508285B6
:10849B004F83EF122AE40550E55070D4054F80D07E
:0384AB0043F80291
:0184AE0022AB
:088378008E608F618C628D6341
:0D83800075640112007EEF30E7F953F8FD3F
:10838D00E4F567F5680568E56870020567644045C2
:03839D006770F214
:1083A0007FD2128CD0E563AE627806CEA2E713CE00
:1083B00013D8F8FF128CD0AF63EF25E025E0FF1251
:1083C0008CD0E4FF128CD0E4FF128CD0E4FF128C2E
:1083D000D0E4FF128CD0E4FF128CD0E4F565F56692
:1083E000C3E5669561E5606480F8E5656480985052
:1083F0001DE4FF128CD0BFFF047F0180027F008F3D
:1084000064EF600A0566E56670D6056580D243F8BC
:0384100002AF6454
:018413002246
:048A31008E478F4895
:0A8A350012007EEF30E7F953F8FD60
:108A3F00E4F549F54A054AE54A700205496440459F
:038A4F004970F279
:108A52007F50128CD0E548AE477806CEC313CE13B2
:108A6200D8F9FF128CD0AF48EF25E025E0FF128C39
:098A7200D0E4FF128CD043F8029D
:018A7B0022D8
:048A7C008E488F4948
:0A8A800012007EEF30E7F953F8FD15
:108A8A00E4F54AF54B054BE54B7002054A6440454F
:038A9A004A70F22D
:108A9D007F81128CD0E549AE487806CEC313CE1334
:108AAD00D8F9FF128CD0AF49EF25E025E0FF128CED
:098ABD00D0E4FF128CD043F80252
:018AC600228D
:06873A008C428D438B44CC
:10874000E544600353B0BF8E458F46D3E54695435D
:10875000E5459542504CE54654077035C3E54395D1
:1087600046FFE5429545FEC3EF9408EE9400402194
:10877000E5446009E546543F700363B040AF46AE40
:1087800045128A3174072546F546E43545F545809E
:1087900007AF46AE45128A7C0546E54670AD0545F5
:0987A00080A9E544600353B0BF59
:0187A90022AD
:067FAD008B318A3289339A
:097FB30043F80143F80253F8FB06
:107FBC00E4F537F5380538E5387002053764404587
:037FCC003770F219
:037FCF0043F80470
:107FD200E4F537F5380538E5387002053764404571
:037FE2003770F203
:107FE50012007EEF543C12300680070C801114807D
:107FF5001B1C80252480402C805B3480763C00004F
:108005008092AB31AA32A9337402801CAB31AA32FB
:10801500A93374048012AB31AA32A93374088008DD
:10802500AB31AA32A933741075F000122C32AB347F
:10803500AA35A936740175F008804FAB31AA32A96B
:1080450033741075F000122C32AB34AA35A936748E
:108055000275F0108034AB31AA32A933742075F063
:1080650000122C32AB34AA35A936740275F0108093
:1080750019AB31AA32A933742075F000122C32AB3A
:0D80850034AA35A936740475F020122C328F
:0180920022CB
:10FE00008E448F458E448F45E4F546F547A2AF33C7
:10FE1000F548C2AFE4F58443B701758F03C3E546E7
:10FE200094FC50168547828546837488F0E4254704
:10FE3000F54774043546F54680E3E4F58FF546F55D
:10FE400047F54BF54C75840FE54C5403700363B0D4
:10FE50004012FFBB8F4DE54D30E7F653F8FDE4F55A
:10FE60004EF54F054FE54F7002054E6440454E700C
:10FE7000F27FD212FFAAE54CAE4B7806CEC313CE6A
:10FE800013D8F9FF12FFAA12FFA2E4FF12FFAAE49F
:10FE9000FF12FFAAE4FF12FFAAE4FF12FFAAE4FF89
:10FEA00012FFAAE4F549F54AE4FF12FFAA743F25C0
:10FEB0004AF58274003549F583EFF0054AE54A704A
:10FEC000020549C3E549940240DE43F802E4F584A3
:10FED000758F01F549F54A743F254AF5827400355E
:10FEE00049F583E0FF0547E547AC46700205461437
:10FEF000F5828C83EFF0054AE54A70020549B400AB
:10FF0000D6E549B402D1E4F58F054CE54C70020505
:0AFF10004BC3947FE54B94005003AF
:10FF1A0002FE45E4F58F53B7FEE54824FF92AFE4AD
:10FF2A00F5D075840FF54BF54CC3E54B942050572B
:10FF3A00E54C543F700363B02012FFBB8F4DE54D73
:10FF4A0030E7F653F8FDE4F54EF54F054FE54F70EF
:10FF5A0002054E6440454E70F27F5012FFAAE54CEE
:10FF6A00AE4B7806CEC313CE13D8F9FF12FFAA12EE
:10FF7A00FFA2E4FF12FFAA43F8027408254CF54CCD
:10FF8A00E4354BF54B80A212FFBB8F4DE54D30E7B0
:08FF9A00F6E4F58443EF0122B7
:10FFA200AF4CEF25E025E0FFAE84E4F5848F9B3073
:09FFB200FFFDC2FFAF9B8E84220B
:10FFBB0053F8FDE4F550F5510551E551700205502C
:10FFCB006440455070F27FD712FFAAE4FF12FFAADC
:04FFDB0043F80222C3
:10764D00906C19E493FFAB32AA33A9349000011268
:0A765D002A72FDE4F54BF54C7B06A4
:047667008F488B4A73
:10766B00754DFFE4F54EF54FED906C1993F5507495
:10767B00F62DF582E4340BF5837464F0906C19E409
:10768B0093B54819E54A64066013E54A6415600D25
:10769B0074F02DF582E4340BF583E54AF0E5507573
:1076AB00F013A42471F582E43402F583122F6B746A
:1076BB0016122AD2E55075F013A42471F582E43426
:1076CB0002F583122F6B900001E548122AE4E55076
:1076DB0075F013A42471F582E43402F583122F6B39
:1076EB00900002ED122AE47402254CF54CE4354B64
:1076FB00F54BFFE55075F013A42471F582E43402C9
:10770B00F583122F6B900003EF122AE4E55075F00E
:10771B0013A42471F582E43402F583122F6B9000CD
:10772B0004E54C122AE4E55075F013A42471F5829C
:10773B00E43402F583122F6B900005E54A122AE41C
:10774B00E4FEFFE55075F013A42471F582E43402D6
:10775B00F583122F6B8F828E83122A72624D0FBFAD
:10776B0000010EEF64064E70DAE55075F013A42499
:10777B0071F582E43402F583122F6B900006E54D10
:10778B00122AE474FE254CF54C74FF354BF54BE592
:10779B005075F013A42471F582E43402F583122F93
:1077AB006BE92407F9E43AFAAD4CAC4B1288828EA4
:1077BB004E8F4FEEFFE55075F013A42471F582E464
:1077CB003402F583122F6B054CE54C7002054B24EC
:1077DB0006F582E4354BF583EF122AE4E55075F09C
:1077EB0013A42471F582E43402F583122F6B054C3C
:1077FB00E54C7002054B2406F582E4354BF583E529
:10780B004F122AE4E55075F013A42464F974023581
:10781B00F0FA7B01E54C2407FDE4354BFC1288DDC7
:09782B00E54C2407FFE4354BFE97
:017834002231
:0845FB008F318B328A338934C1
:10460300E4900CA2F0A3F0900003122A72FE900033
:1046130004122A727C002400FFEC3ECF24FECF3428
:10462300FFFE900CA4F0FCA3EFF0FDE92407F9E4EE
:104633003AFA128AC7900CA2EEF0A3EFF04E603A5A
:10464300AB32AA33A934900005122A72FF641570A5
:1046530003024D39EF64067003024D3990000112D5
:104663002A7224F6F582E4340BF5837464F0900027
:0A46730001122A72FF7D04024A0EB4
:10467D00AB32AA33A934900002122A72FF906C1942
:10468D00E4936F7003024737EFF47003024737EF7F
:10469D0093FF3395E0FE90027175F013EF122F4FDB
:1046AD00EE75F013A42583F583122F6BE92407F91A
:1046BD00E43A8B3AF53B893CE5342407F9E435338C
:1046CD00853237F5388939E4F535F536D3900CA5B3
:1046DD00E09536900CA4E0953540247837E475F0DC
:1046ED0001122F5B122A59FF783AE475F001122F4F
:1046FD005BEF122AD20536E53670D1053580CDAB8C
:10470D0032AA33A934900001122A72FF90000212CE
:10471D002A72FD900005122A72FB900CA4E0F54B55
:10472D00A3E0F54C127667024D39AB32AA33A934AA
:10473D00900005122A7212300647800647BB1047BB
:10474D00A4154A49304A7E314AA6324ACE334AF63A
:10475D003449A24149A2424B1B504B6D5148DD706B
:10476D0049417147E8904C58914B13934877980005
:10477D00004D05900001122A7224F0F582E4340BED
:10478D00F583AB32AA33A934900001122A7224F0BA
:10479D00F582E4340B8010AB32AA33A934122A59B6
:1047AD0024F1F582E4340BF583E4F0024CF2900B26
:1047BD00F6E0FFC394054006EFD3941F4004EFB419
:1047CD00E2051289E2800312764D900CA2EEF0A361
:0B47DD00EFF0AB32AA33A934024CF21B
:1047E800900BF6E0FFC394054006EFD3941F4004F6
:1047F800EFB4E2051289E28065AB32AA33A934909E
:104808000007122A72FE900008122A727C00240007
:10481800F53EEC3EF53DE53175F013A42471F582C3
:10482800E43402F583122F6BE92407F9E43AFA908D
:10483800091AE0FEA3E0FF853D4D853E4E12841423
:10484800906C19E493FFAB32AA33A934900001129B
:104858002A72FD90091AE0F54BA3E0127663900CDA
:0F486800A2EEF0A3EFF0AB32AA33A934024CF268
:10487700900BF6E0FFC394054006EFD3941F400466
:10488700EFB4E2051289E2803CAB32AA33A9349037
:104897000007122A72FE900008122A727C00240078
:1048A700F53EEC3EF53D90091AE0FCA3E0FDE92456
:1048B70009F9E43AFA853D53853E547F027E00129A
:1048C70084AF12764D900CA2EEF0A3EFF0AB32AAB4
:0648D70033A934024CF28B
:1048DD00900BF6E0FFC394054006EFD3941F400400
:1048ED00EFB4E2051289E2803AE53175F013A424A4
:1048FD0071F582E43402F583122F6BE92407F9E494
:10490D003AFA12898E906C19E493FFAB32AA33A94F
:10491D0034900001122A72FD754B00754C807B0698
:10492D00127667900CA2EEF0A3EFF0AB32AA33A98A
:10493D0034024CF2900BF6E0FFC394054006EFD322
:10494D00941F4004EFB4E2051289E28037128C7B8C
:10495D00AB32E5342407F9E43533FA900CA4E0FECC
:10496D00A3E0FFC39480EE94005006AC06AD078023
:10497D00047C007D801287AA7B017A0B79FA12895B
:10498D008E12764D900CA2EEF0A3EFF0AB32AA335F
:05499D00A934024CF2F8
:1049A200900BF6E0FFF53DAB32AA33A93490000537
:1049B200122A72FE7C00B441047D0080027D058CC7
:1049C2003E8D3FEE900BF5E024FFFD900BF4E034BA
:1049D200FFFC8C408D41AB32AA33A9349000011206
:1049E2002A7224F6F582E4340BF583E4F0EFC394E3
:1049F200054009900BF6E0D3941F4007900BF6E0B8
:104A0200B4E217900001122A72FF7D201289F19000
:104A12000CA2EEF0A3EFF0024D39900BF674E2F027
:104A220012764D900CA2EEF0A3EFF0E4FFFE128A94
:104A32007C7B01AD41AC40AF3FAE3E12873A900B5A
:074A4200F6E53DF0024D39DD
:104A490012764D900CA2EEF0A3EFF0AB32AA33A987
:104A590034900001122A7224F6F582E4340BF583AE
:104A6900E4F012007E8F3DE53D30E7F6E4F584433E
:054A7900EF01024D39C0
:104A7E0012764D900CA2EEF0A3EFF0AB32AA33A952
:104A8E0034900001122A7224F6F582E4340BF58379
:104A9E00E4F01215AF024D3912764D900CA2EEF0E5
:104AAE00A3EFF0AB32AA33A934900001122A72247C
:104ABE00F6F582E4340BF583E4F0124D42024D39E3
:104ACE0012764D900CA2EEF0A3EFF0AB32AA33A902
:104ADE0034900001122A7224F6F582E4340BF58329
:104AEE00E4F01266F6024D39AB32AA33A9349000C7
:104AFE0001122A7224F6F582E4340BF583E4F012E7
:104B0E0060C2024D399002C074FF024BF0900BF65A
:104B1E00E064F07027754501754600754705AB32A8
:104B2E00AA33A93412821C12764D900CA2EEF0A379
:104B3E00EFF00575E575701E0574801AAB32AA3359
:104B4E00A934900001122A72FF7D081289F1900C8F
:104B5E00A2EEF0A3EFF0AB32AA33A934024CF290DE
:104B6E000BF6E0B4F114AB32AA33A934900007125D
:104B7E002A72FF900005E06F6072AB32AA33A9343F
:104B8E00900001122A72FF7D081289F1900CA2EE9C
:104B9E00F0A3EFF0AB32AA33A934900001122A72BF
:0B4BAE0024F6F582E4340BF583E4F0FC
:104BB900900C9A122EE00000AFC8E4FFFEFDFC90B5
:104BC9000C9A122EB8D3122DD14017900C9A122E8E
:104BD900AC74FFFBFAF9F8122C7E900C9A122ED4C1
:024BE90080D872
:104BEB009002C074F2F0900C7C7401F0024D3912FB
:104BFB00764D900CA2EEF0A3EFF0AB32AA33A934B2
:104C0B00900001122A7224F6F582E4340BF583E44A
:014C1B00F0A8
:104C1C00900C9E122EE00000AFC8E4FFFEFDFC904D
:104C2C000C9E122EB8D3122DD14017900C9E122E22
:104C3C00AC74FFFBFAF9F8122C7E900C9E122ED459
:024C4C0080D80E
:104C4E00AF75AE74128BE4024D39900C7C7401F08A
:104C5E00AB32AA33A934900007122A729002C0F028
:104C6E00900008122A72540F900BB0F090000912A7
:104C7E002A72900C7BF0E4F535F536AB32AA33A9E7
:104C8E0034E536240AFFE435358F82F583122A7215
:104C9E00FF74602536F58274023535F583EFF00525
:104CAE0036E536700205356404453570CEAB32AA52
:104CBE0033A93490000E122A72900293F090000FD6
:104CCE00122BFAFF90028CE5F0F0A3EFF0906C1926
:104CDE00E493FF127659900CA2EEF0A3EFF0AB32F4
:104CEE00AA33A934900001122A7224F6F582E43414
:104CFE000BF583E4F08034AB32AA33A93490000173
:104D0E00122A7224F6F582E4340BF5837464F09063
:104D1E000001122A72FF7D021289F1900CA2EEF0B0
:0B4D2E00A3EFF074FF900CA2F0A3F0C4
:084D3900900CA2E0FEA3E0FFD4
:014D4100224F
:0A8AC7008B428A4389448C458D469A
:108AD1001288828E478F48AB42AA43A944854682B9
:108AE100854583122A727F00FEE5462401FDE435A7
:108AF100458D82F583122A722FFFE43EFEE548B5CB
:0F8B01000709E547B50604E4FEFF227EFF7FFF6C
:018B10002242
:0F89E200AB32AA33A934900001122A72FF7D2014
:1089F100AE07EE906C1993FB3395E0FA9002717516
:108A0100F013EB122F4FEA75F013A42583F58312AF
:108A11002F6B900007ED122AE4906C19E493FFADDF
:108A210006754B00754C017B15127667E4FEFF223B
:06821C008B428A438944F5
:10822200E4F548F549900003122A72FE9000041208
:108232002A72FDEEF54AEDF54BE4F548F549E54BBA
:1082420024FEFFE54A34FFFEC3648094825002801C
:10825200047E027F00C3E5499FEE6480F8E548642E
:1082620080985048AB45AA46A947C003C002C00146
:10827200122A59FFAB42AA43A944E5492407FDE467
:1082820035488D82F583122A72FE743F2549F582A4
:1082920074003548F583EEF06FD001D002D003129E
:1082A2002AD20549E5497096054880927E00E57517
:1082B2005401FF90091AE0FCA3E0FD7B017A0079EA
:0A82C2003F8574538575540284AFA4
:048BE4008E428F43EB
:108BE80090FE00E493FE740193FF900CA9EEF0A3AD
:108BF800EFF0BE8012BFFE0F7B007AFE7902900C68
:0E8C0800A6122F74023059AF75AE7412FE0022
:018C1600223B
:108819008584317B017A0B79FA12898E900014E0F4
:10882900702EF58475D98075D84075DA4275DB42AA
:10883900900C5FE0A3E0F5FB900C5FE0A3E0F5FC92
:10884900900C61E0A3E0F5FD900C61E0A3E0F5FE7A
:10885900900C7AE0FD7C007E057F00122B188E714A
:108869008F72E4F58475E8C075D107F5BAF5BB7563
:08887900BC7043E70285318465
:0188810022D4
:03007B00027A08FE
:107A0800C0E0C0F0C083C082C0D075D000C000C044
:0B7A180002C003C004C005C006C00788
:107A2300758400C2EDE57325E02425F582E4340076
:107A3300F583E5BF85BEF0122BA3E5731230067AFA
:107A43005E007A66017A6E027A81037A89047A91FA
:107A5300057A99067AA10700007AA775BB017573A9
:107A630001804175BB027573028039900014E06098
:107A73000575BB07800375BB08757303802675BB4B
:107A830003757304801E75BB04757305801675BB7F
:107A930005757306800E75BB06757307800675BB87
:107AA30000757300E57215727002157114457160EB
:047AB30003027B9AB5
:107AB700900C7AE0FF74A08FF0841313543F752263
:107AC70000F523E4FBFAEB64034A7026900014E008
:107AD7007020900C7AE075F00A84FF7E0090002BEE
:107AE700E0FCA3E0FD122B0690001BEEF0A3EFF0E5
:107AF7008037EB25E0FFEA33FE74252FF58274000B
:107B07003EF583E0FEA3E0FFAC22AD23122B18ACB9
:107B170006AD07EB25E0FFEA33FE74152FF58274F7
:107B2700003EF583ECF0A3EDF0EB25E0FFEA33FE32
:107B370074252FF58274003EF583E4F0A3F00BBBA8
:107B470000010AEB64084A6003027ACD900004E062
:107B57007029900C59E0FEA3E0FF900C58E02FFF2E
:107B6700900C57E03EFE900015E0FCA3E0FDC3EF4C
:107B77009DFFEE9C900015F0A3EFF0900C7AE0FDCE
:107B87007C007E057F00122B188E718F7290028BFE
:037B97007401F086
:0C7B9A00E5737003D38001C34002D2ECFD
:107BA600D007D006D005D004D003D002D000D0D064
:097BB600D082D083D0F0D0E0327F
:03813C000119FF27
:1086C200AF8475840F75E1EF75E20775E3C475A495
:1086D200157580EA75ADFF75A53D759001E4F5A6A7
:1086E20075A0FF75A7F875B07F759CFFF5C8F59D5D
:1086F20075D8FFF59E75E8FFE5E854E0FEBE20045C
:108702007E0180027E00900014EEF0759FF7EE600D
:108712000575F88F800375F8E7E4FDFC0DBD0001D7
:108722000CBC0BF8BDB8F5900014E0600575F89F1D
:07873200800375F8F78F8446
:01873900221D
:108B1100AF84E4F584F5D875D980F5F9F5FAF5E96E
:108B210075EA0C75DC4675D840900C7EF0A3F09088
:108B3100024FF0A3F0F584C28C758905438E08F5C8
:108B41008AF58CC28DD28C758401758880758930C7
:078B5100D2A943E6308F8436
:018B580022FA
:0D8CF000AF84E4F584C289D288D2A88F84B5
:018CFD002254
:03005B00027BBF66
:107BBF00C0E0C0F0C083C082C0D075D000C000C08C
:0D7BCF0001C002C003C004C005C006C0070D
:107BDC0053E6CF758400AF8CEFFEAD8A7C00E42DAC
:107BEC00F525EC3EF524900C7EE0FEA3E0FFC3E50A
:107BFC00259FFFE5249EFED3EF9464EE9400500382
:107C0C00027D18C28C758A00758C00C28DD28CE5F1
:047C1C0019F47041A6
:107C2000F519F526AE24AF25E52625E02435F582A5
:107C3000E43400F583EEF0A3EFF0E4FCFDE51D2F46
:107C4000FFE51C3EFEED351BFDEC351A8F1D8E1C2D
:0E7C50008D1BF51A0526E526B404C990024FD7
:107C5E00027D0A0519E519C394044003751900E560
:107C6E001925E02435F582E43400F583E0FEA3E027
:107C7E00FBC3E51D9BFFE51C9EFEE51B9400FDE589
:107C8E001A94008F1D8E1C8D1BF51AAE24AF25E5A0
:107C9E001925E02435F582E43400F583EEF0A3EFE8
:107CAE00F0E4FCFDE51D2FFFE51C3EFEED351BFD52
:107CBE00EC351A8F1D8E1C8D1BF51AE47B04FAF918
:107CCE00F8AC1A122D248E248F25C3900250E09505
:107CDE0025FF90024FE09524FEC394004006AC06AB
:107CEE00AD078009C3E49FFFE49EFCAD0790024FF1
:107CFE00E0C313FFC3ED9FEC94004007E524F0A30F
:107D0E00E525F0900C7EE4F0A3F07584015388CF46
:037D1E0043E63009
:107D2100D007D006D005D004D003D002D001D000B6
:0B7D3100D0D0D082D083D0F0D0E03260
:03005300028B59C4
:108B5900C0E0C083C082C0D075D000C004C005C0C9
:108B690006C00753E6CF758400AF8CEFFEAD8A7C53
:108B790000E42DFFEC3E900C7EF0A3EFF07584012C
:108B89005388CF43E630D007D006D005D004D0D0E3
:078B9900D082D083D0E0324E
:03000B00028C174D
:108C1700C0E0C083C08253E6CF758400C28C758ADA
:108C270000758C00D28C900C7EE4F0A3F090024F7C
:108C3700F0A3F07584015388CF43E630D082D08308
:038C4700D0E03248
:030003000285C7AC
:1085C700C0E0C0F0C083C082C0D075D000C000C07A
:0985D70003C004C005C006C00782
:1085E000A2AFE433FB900C817401F0900C7AE0FDB3
:1085F0007C007E057F00122B188E718F72757300C0
:108600007F10900025E4F0A3DFFCC2AF53E7FE75B6
:108610008400C2ECC2ED75BB0075840175C800749E
:0E862000FFF5CDF5CC43E70143C8042B92AF24
:10862E00D007D006D005D004D003D000D0D0D08251
:07863E00D083D0F0D0E03240
:02FDFE0080FE85
:10813F0002080001010C00020D0000420DA2000018
:04814F00410DA4003A
:0688DD008B568A578958F2
:1088E300858459AB56AA57A958900002122BFA4512
:1088F300F070F0AB56AA57A95890000D122F7DC007
:1089030003C002C001AB56AA57A958900007122F03
:10891300ADAB56AA57A958900002EC8DF0122C511A
:10892300122A597006F584D2998005758401D2996B
:03893300855984DF
:01893600221E
:108CD000AE84E4F5848F9B30FFFDC2FFAF9B8E8492
:018CE0002271
:10893700AF8475840F759601758C67E4FDFC0DBDDA
:1089470000010CE4B505F7ECB401F3E58C30E7FB67
:10895700759701E4F58A758905F58475B7207584DF
:108967000F758D01758F01758E03FCFD0DBD00011F
:108977000CE4B505F7ECB401F3438902E58930E46B
:06898700FB7597028F84CE
:01898D0022C7
:0E7054008B348A3589368F3A8E398D388C37D9
:1070620085843B122A5914606F046003027254E44F
:10707200F58475911590000A122A7224BB601824B7
:10708200F6601424EA601024F760071460092421D2
:10709200700875985080037598D0E4F58475C8041B
:1070A20075C908AB3AAA39A938A837FFFE7D657CB5
:1070B20004122D24E47B10FAF9F8122D24122DC3A8
:1070C2008ECB8FCA74FFF5CDF5CCD2CAE4F584C25B
:1070D20099C298D2AC027254758401AB34AA35A914
:1070E2003690000A122A7224BB601824F660142417
:1070F200EA601024F760071460092421700875986B
:10710200108003759890E4F58453890F438920AB6E
:107112003AAA39A938A837FFFE7D657C04122D24CE
:10712200E47B02FAF9F8122D24E4FB7A01F9F81251
:107132002D24E47B01FAF9F8D3122DE74026AB3A6D
:10714200AA39A938A837E4FFFE7D657C04122D24F4
:10715200E47B02FAF9F8122D24122DC38F8D438E8F
:1071620010027245AB3AAA39A938A837E4FFFE7D6E
:10717200657C04122D24E47B02FAF9F8122D24E432
:10718200FB7A01F9F8122D24E47B04FAF9F8D31200
:107192002DE74031AB3AAA39A938A837E4FFFE7D82
:1071A200657C04122D24E47B02FAF9F8122D24E402
:1071B2007B04FAF9F8122D24122DC38F8D538EEC15
:1071C200438E01807EAB3AAA39A938A837E4FFFE84
:1071D2007D657C04122D24E47B02FAF9F8122D2439
:1071E200E4FB7A01F9F8122D24E47B0CFAF9F8D3C6
:1071F200122DE7AB3AAA39A938A837E4FFFE7D651C
:107202007C04401F122D24E47B02FAF9F8122D248B
:10721200E47B0CFAF9F8122D24122DC38F8D538EB4
:10722200EC8020122D24E47B02FAF9F8122D24E4DA
:107232007B30FAF9F8122D24122DC38F8D538EEC68
:10724200438E02858D8BD28E758401C299C298437A
:05725200E740853B84CC
:017257002214
:10005E00AF84E4F584759D04759A70C2FFD2F88F53
:01006E00840D
:01006F00226E
:10002600AD84758401E4F5C8F5C9EF2408FFE43E04
:10003600FEC3E49FFFE49EF5CB8FCA74FFF5CDF5B2
:09004600CC43E70143C8048D849A
:01004F00228E
:0300230002745410
:10745400C0E0C0F0C083C082C0D075D000C000C0FE
:0D74640001C002C003C004C005C006C0077F
:10747100E59820E0030275ED8599275398FEE5080C
:1074810060030275B9E50924FE6063147003027597
:1074910020147003027585240360030275B9750D0C
:1074A10000750E00E527641660030275B990026F3E
:1074B100E0FF7E007C027D1D122B06900274122FCC
:1074C1006BE92FF9EA3E8B0FF5108911FA050EE5EC
:1074D1000EAE0D7002050D14F5828E83E527122A7A
:1074E100E4E527620C7508007509020275B9AB0F56
:1074F100AA10A911050EE50EAE0D7002050D14F5C9
:10750100828E83E527122AE4E527620CE50E6406E4
:10751100450D60030275B9F5087509030275B9AB2C
:107521000FAA10A911050EE50EAE0D7002050D147E
:10753100F5828E83E527122AE4630CFFE50C6527AB
:107541007031AB0FAA10A911900003122A72750AAB
:1075510000F50B750B00F50A900004122A72250B39
:10756100F50BE4350AF50A450B6047750800750906
:10757100048045750D00750E0075080075090175CB
:107581000C00803443B010AB0FAA10A911050EE511
:107591000EAE0D7002050D14F5828E83E527122AB9
:1075A100E4E50B2407FFE4350AFEEFB50E0AEEB55C
:1075B1000D06750800750905E50964054508702C77
:1075C10053B0EFF508750901F50DF50EF50C9002B4
:1075D10068122F6BE94A4B7013AB0FAA10A91190D7
:1075E1000268122F7490026FE06401F0E59830E1B7
:1075F10040900266E07002A3E0602443B010900264
:107601006B122F6B122A59F59990026CE475F001F7
:10761100122BA390026674FFF5F0122BA3800F5377
:10762100B0EF7B007A00790090026B122F745398AF
:01763100FD5B
:10763200D007D006D005D004D003D002D001D000AC
:0B764200D0D0D082D083D0F0D0E03256
:0300A300026E1DCD
:106E1D00C0E0C0F0C083C082C0D075D000C000C03B
:096E2D0001C002C003C006C00749
:106E3600E59820E003026FC8859928900DA4E0121A
:106E460030066E67006E78016E8B026EDB036F088C
:106E5600046F21056F48066F89076F9A0800006F57
:106E6600C5E52864B56003026FC5900DA404F00261
:106E76006FC5E528900DA4B462067402F0026FC5D2
:106E8600E4F0026FC5751800751700900DA2E4F0C6
:106E9600A3F0900282E075F0DCA4FF900287122F27
:106EA6006BE92FF9EA35F08B12F5138914FA900D78
:106EB600A2E475F001122BB985F082F583E528125C
:106EC6002AE4E5282517F5172518F518900DA4745A
:106ED60003F0026FC5AB12AA13A914900DA2E475B4
:106EE600F001122BB985F082F583E528122AE4E534
:106EF600282517F5172518F518900DA47404F00227
:106F06006FC5751500852816E5282517F517251868
:106F1600F518900DA47405F0026FC5E528FEE4256A
:106F260016F516EE3515F515E5282517F517251866
:106F3600F518E5164515900DA4700280417406F00B
:106F4600807DAB12AA13A914900DA2E475F001126C
:106F56002BB985F082F583E528122AE4E528251762
:106F6600F5172518F518E5162402FFE43515FE90E9
:106F76000DA2E06E7003A3E06F7044900DA4740739
:106F8600F0803CE517900DA4B528057408F0802F15
:046F9600E4F0802B78
:106F9A00900282E0FFB402067E007F008003EF04C5
:106FAA00FF8F29E518B5280E900283E0652960064F
:0B6FBA00900282E529F0900DA4E4F0A5
:106FC5005398FEE59830E170900279E07002A3E0F5
:106FD5006057900281E024BB601A24E0601624F615
:106FE50060042420702290027E122F6B122A5930E1
:106FF500E00E801190027E122F6B122A5930E005A7
:1070050043980480035398FB90027E122F6B122A3B
:1070150059F59990027FE475F001122BA39002793E
:1070250074FFF5F0122BA3800C7B007A0079009099
:08703500027E122F745398FD36
:10703D00D007D006D003D002D001D000D0D0D0825E
:07704D00D083D0F0D0E03247
:030073000282CC3A
:1082CC00C0E0C0F0C083C082C0D075D000C000C078
:0382DC0006C007D2
:1082DF0075840153C87F90025EE475F001122BA3E1
:1082EF0090028EE0FEA3E0FF90025EE0B50619A3B8
:1082FF00E0B5071490028EE475F0A0122BA3900046
:10830F003DE475F001122BA3E4FFFE74F72FF58205
:10831F00E4340BF583E0600D74F72FF582E4340B32
:10832F00F583E014F00FBF00010EEF64034E70DB16
:10833F0075840FE5E820E016C3900295E094FF9056
:10834F000294E094FF5007E475F001122BA375849B
:08835F000075BB00C2EDD2EC79
:10836700D007D006D000D0D0D082D083D0F0D0E0D4
:0183770032D3
:10642D00257300506C61636520756E697420666C10
:10643D006174206F6E206C6576656C207375726665
:10644D006163652E00466C6970206F7665722E2033
:10645D004661636520646F776E2E00486F6C642013
:10646D00766572746963616C2C2047505320616EA0
:10647D0074656E6E61206A61636B2075702E0048C5
:10648D006F6C6420766572746963616C2C20475063
:10649D005320616E74656E6E61206A61636B20645A
:1064AD006F776E2E005374616E64206F6E2072696B
:1064BD0067687420736964652E005374616E64207F
:1064CD006F6E206C65667420736964652E00496E6D
:1064DD0076657274696E6720582056616C756573A8
:1064ED0000496E76657274696E6720592056616C2D
:1064FD0075657300496E76657274696E67205A20F2
:10650D0056616C7565730020005A65726F20506F6F
:10651D00696E74733A20582025752C2059202575E5
:10652D002C205A20257500582052616E67653A203F
:10653D0025752C20257500592052616E67653A200E
:10654D0025752C202575005A2052616E67653A20FD
:10655D0025752C2025750053746F72696E67204365
:10656D00616C6962726174696F6E2044617461203F
:10657D00696E20466C6173682E0043616C696272AE
:10658D006174696F6E20436F6D706C6574652E005C
:10659D00547261716D61746520496E70757420540B
:1065AD0065737400444947494E3A2000310030006C
:1065BD00583A2025752C20593A202575005A3A2035
:1065CD0025752C2035563A2025750035563A20254F
:1065DD00752C20543A2025750041303A2025752C14
:1065ED002041313A2025750041323A2025752C2065
:1065FD0041333A20257500496E7075745465737476
:10660D0020436F6D706C6574652E00547261716DF1
:10661D00617465204F7574707574205465737400C2
:10662D00626974202564004F7574707574546573B8
:10663D007420436F6D706C6574652E005A65726FB2
:10664D00696E6720582C20592050574D0046696EB1
:10665D00616C2043616C3A2025752C2575004669C7
:10666D006E616C2056616C3A2025752C25750044A1
:10667D00617461666C6173682054657374002A2AB5
:10668D002A2A2A2A20466C6173682057726974651C
:10669D00204641494C4544202A2A2A2A2A2A2C20C0
:1066AD00706167652025642C20627974652564000E
:1066BD00466C617368206F6B20706167652025647F
:1066CD000044617461666C61736854657374204332
:1066DD006F6D706C6574652E00010204081020400A
:0966ED0080010204081020408025
:1015AF008584429000047401F075840FFB7A0B79E7
:1015BF00FA12898EE4900C4AF0906C1993900C4BB0
:1015CF00F0A374C8F0900C63E4F0A374DEF0900CF9
:1015DF0065E4F0A37408F074FFFFFEFDFC900C4D62
:1015EF00122EB8C3122DE7700A900C4D122EE00088
:1015FF00000000900C51E0B4FF037401F0900C5206
:10160F00E0B4FF037408F0900C6774FFF0A3F09040
:10161F000C537408F0A3E4F0900C557408F0A3E495
:10162F00F0900BFAF0900C0EF0900C22F0900C61F1
:10163F00F0A374A0F0900C5FE4F0A374A0F0E4901A
:10164F000294F0A3F043B00843B04043B02043B03E
:01165F00107A
:10166000900CA6122EE0000107ACE4FFFEFDFC90FA
:101670000CA6122EB8D3122DD14017900CA6122E04
:10168000AC74FFFBFAF9F8122C7E900CA6122ED443
:0216900080D800
:10169200906C1AE493FF3395E0FE90027175F0139B
:1016A200EF122F4FEE75F013A42583F583122F6BE3
:1016B200E92407F9E43AFA754BFF754C64754D2D30
:1016C200754EFF754F64755030125498906C1AE441
:1016D20093FF3395E0FE90027175F013EF122F4FD6
:1016E200EE75F013A42583F583122F6BE92407F915
:1016F200E43AFA12000EEF2401F54CE43EF54B9069
:0C1702006C19E493FF7B737D0112766785
:10170E00900CAA122EE0000107ACE4FFFEFDFC9047
:10171E000CAA122EB8D3122DD14017900CAA122E4D
:10172E00AC74FFFBFAF9F8122C7E900CAA122ED490
:02173E0080D851
:10174000127835900014E06065900D9CE0FEA3E0F7
:10175000FF900D97E02FFF900D96E03EC313FEEF34
:1017600013FF900C53EEF0A3EFF0900D9EE0FEA35C
:10177000E0FF900D99E02FFF900D98E03EC313FE1F
:10178000EF13FF900C55EEF0A3EFF0900DA0E0FEEC
:10179000A3E0FF900D9BE02FFF900D9AE03EC31356
:1017A000FEEF13FF900C72EEF0A3EFF08003125CDB
:1017B000BE900014E0700302189253B0F753B0DFEC
:1017C000906C1AE493FF3395E0FE90027175F0136C
:1017D000EF122F4FEE75F013A42583F583122F6BB4
:1017E000E92407F9E43AFA754BFF754C64754D2D01
:1017F000754EFF754F64755052125498906C1AE4F0
:1018000093FF3395E0FE90027175F013EF122F4FA6
:10181000EE75F013A42583F583122F6BE92407F9E5
:10182000E43AFA12000EEF2401F54CE43EF54B9039
:0C1830006C19E493FF7B737D0112766756
:10183C00900CAE122EE0000107ACE4FFFEFDFC9014
:10184C000CAE122EB8D3122DD14017900CAE122E16
:10185C00AC74FFFBFAF9F8122C7E900CAE122ED45D
:02186C0080D822
:10186E00127835900DA0E0FEA3E0FF900D9BE02FC7
:10187E00FF900D9AE03EC313FEEF13FF900C70EE37
:10188E00F0A3EFF053B0F753B0BF53B0DF53B0EF48
:10189E00906C1AE493FF3395E0FE90027175F0138D
:1018AE00EF122F4FEE75F013A42583F583122F6BD5
:1018BE00E92407F9E43AFA754BFF754C64754D2D22
:1018CE00754EFF754F64755068125498906C1AE4FB
:1018DE0093FF3395E0FE90027175F013EF122F4FC8
:1018EE00EE75F013A42583F583122F6BE92407F907
:1018FE00E43AFA12000EEF2401F54CE43EF54B905B
:0C190E006C19E493FF7B737D0112766777
:10191A00900CB2122EE0000107ACE4FFFEFDFC9031
:10192A000CB2122EB8D3122DD14017900CB2122E2F
:10193A00AC74FFFBFAF9F8122C7E900CB2122ED47A
:02194A0080D843
:10194C00127835900D9CE0FEA3E0FF900D97E02FF0
:10195C00FF900D96E03EC313FEEF13FF900C59EE73
:10196C00F0A3EFF0900014E06021900DA0E0FEA336
:10197C00E0FF900D9BE02FFF900D9AE03EC313FE0D
:10198C00EF13FF900C6EEEF0A3EFF043B008906CE9
:10199C001AE493FF3395E0FE90027175F013EF1289
:1019AC002F4FEE75F013A42583F583122F6BE924CA
:1019BC0007F9E43AFA754BFF754C64754D2D754E6D
:1019CC00FF754F6475508C125498906C1AE493FF09
:1019DC003395E0FE90027175F013EF122F4FEE75F8
:1019EC00F013A42583F583122F6BE92407F9E43A4D
:1019FC00FA12000EEF2401F54CE43EF54B906C19F5
:0A1A0C00E493FF7B737D01127667FF
:101A1600900CB6122EE0000107ACE4FFFEFDFC9030
:101A26000CB6122EB8D3122DD14017900CB6122E2A
:101A3600AC74FFFBFAF9F8122C7E900CB6122ED479
:021A460080D846
:101A4800127835900D9CE0FEA3E0FF900D97E02FF3
:101A5800FF900D96E03EC313FEEF13FF900C57EE78
:101A6800F0A3EFF043B040906C1AE493FF3395E095
:101A7800FE90027175F013EF122F4FEE75F013A45C
:101A88002583F583122F6BE92407F9E43AFA754B9D
:101A9800FF754C64754D2D754EFF754F647550B2CA
:101AA800125498906C1AE493FF3395E0FE900271FB
:101AB80075F013EF122F4FEE75F013A42583F583FD
:101AC800122F6BE92407F9E43AFA12000EEF240109
:101AD800F54CE43EF54B906C19E493FF7B737D0164
:031AE8001276670C
:101AEB00900CBA122EE0000107ACE4FFFEFDFC9057
:101AFB000CBA122EB8D3122DD14017900CBA122E4D
:101B0B00AC74FFFBFAF9F8122C7E900CBA122ED49F
:021B1B0080D870
:101B1D00127835900D9EE0FEA3E0FF900D99E02F19
:101B2D00FF900D98E03EC313FEEF13FF900C5BEE9C
:101B3D00F0A3EFF043B020906C1AE493FF3395E0DF
:101B4D00FE90027175F013EF122F4FEE75F013A486
:101B5D002583F583122F6BE92407F9E43AFA754BC7
:101B6D00FF754C64754D2D754EFF754F647550C7DF
:101B7D00125498906C1AE493FF3395E0FE90027125
:101B8D0075F013EF122F4FEE75F013A42583F58327
:101B9D00122F6BE92407F9E43AFA12000EEF240133
:101BAD00F54CE43EF54B906C19E493FF7B737D018E
:031BBD0012766736
:101BC000900CBE122EE0000107ACE4FFFEFDFC907D
:101BD0000CBE122EB8D3122DD14017900CBE122E6F
:101BE000AC74FFFBFAF9F8122C7E900CBE122ED4C6
:021BF00080D89B
:101BF200127835900D9EE0FEA3E0FF900D99E02F44
:101C0200FF900D98E03EC313FEEF13FF900C5DEEC4
:101C1200F0A3EFF043B010900C57E0FEA3E0FFC337
:101C2200900C5AE09F900C59E09E4003021D0290D6
:101C32006C1AE493FF3395E0FE90027175F013EF96
:101C4200122F4FEE75F013A42583F583122F6BE943
:101C52002407F9E43AFA754BFF754C64754D2D75FE
:101C62004EFF754F647550DB125498906C1AE493D2
:101C7200FF3395E0FE90027175F013EF122F4FEED5
:101C820075F013A42583F583122F6BE92407F9E479
:101C92003AFA12000EEF2401F54CE43EF54B906C3B
:0B1CA20019E493FF7B737D011276674D
:101CAD00900CC2122EE0000107ACE4FFFEFDFC908B
:101CBD000CC2122EB8D3122DD14017900CC2122E79
:101CCD00AC74FFFBFAF9F8122C7E900CC2122ED4D4
:021CDD0080D8AD
:101CDF00900C59E0F543A3E0F544900C57E0FFA3B7
:101CEF00E0900C59CFF0A3EFF0900C57E543F0A321
:101CFF00E544F0900C5BE0FEA3E0FFC3900C5EE0C8
:101D0F009F900C5DE09E4003021DEB906C1AE493D4
:101D1F00FF3395E0FE90027175F013EF122F4FEE27
:101D2F0075F013A42583F583122F6BE92407F9E4CB
:101D3F003AFA754BFF754C64754D2D754EFF754F07
:101D4F00647550EE125498906C1AE493FF3395E03B
:101D5F00FE90027175F013EF122F4FEE75F013A472
:101D6F002583F583122F6BE92407F9E43AFA120061
:101D7F000EEF2401F54CE43EF54B906C19E493FF04
:071D8F007B737D01127667F2
:101D9600900CC6122EE0000107ACE4FFFEFDFC909D
:101DA6000CC6122EB8D3122DD14017900CC6122E87
:101DB600AC74FFFBFAF9F8122C7E900CC6122ED4E6
:021DC60080D8C3
:101DC800900C5DE0F543A3E0F544900C5BE0FFA3C5
:101DD800E0900C5DCFF0A3EFF0900C5BE543F0A32F
:101DE800E544F0900014E07003021EDD900C70E0F2
:101DF800FEA3E0FFC3900C73E09F900C72E09E403E
:101E080003021EDD906C1AE493FF3395E0FE900206
:101E18007175F013EF122F4FEE75F013A42583F5AB
:101E280083122F6BE92407F9E43AFA754BFF754CD6
:101E380064754D2D754EFF754F6575500112549898
:101E4800906C1AE493FF3395E0FE90027175F013DD
:101E5800EF122F4FEE75F013A42583F583122F6B25
:101E6800E92407F9E43AFA12000EEF2401F54CE4EC
:101E78003EF54B906C19E493FF7B737D01127667F6
:101E8800900CCA122EE0000107ACE4FFFEFDFC90A6
:101E98000CCA122EB8D3122DD14017900CCA122E8C
:101EA800AC74FFFBFAF9F8122C7E900CCA122ED4EF
:021EB80080D8D0
:101EBA00900C72E0F543A3E0F544900C70E0FFA3A8
:101ECA00E0900C72CFF0A3EFF0900C70E543F0A312
:101EDA00E544F0906C1AE493FF3395E0FE900271AA
:101EEA0075F013EF122F4FEE75F013A42583F583C7
:101EFA00122F6BE92407F9E43AFA754BFF754C6423
:101F0A00754D2D754EFF754F657550141254989086
:101F1A006C1AE493FF3395E0FE90027175F013EFAB
:101F2A00122F4FEE75F013A42583F583122F6BE958
:101F3A002407F9E43AFA12000EEF2401F54CE43EC4
:0F1F4A00F54B906C19E493FF7B737D0112766762
:101F5900900CCE122EE0000107ACE4FFFEFDFC90D0
:101F69000CCE122EB8D3122DD14017900CCE122EB2
:101F7900AC74FFFBFAF9F8122C7E900CCE122ED419
:021F890080D8FE
:101F8B00754BFF754C65754D16900C53E0F54EA3D4
:101F9B00E0F54F900C55E0F550A3E0F551900C6E29
:101FAB00E0F552A3E0F5537B017A0C79E6125498D5
:101FBB00906C1AE493FF3395E0FE90027175F01369
:101FCB00EF122F4FEE75F013A42583F583122F6BB1
:101FDB00E92407F9E43AFA754BFF754C64754D2DFE
:101FEB00754E01754F0C7550E6125498906C1AE4AF
:101FFB0093FF3395E0FE90027175F013EF122F4FA4
:10200B00EE75F013A42583F583122F6BE92407F9E2
:10201B00E43AFA12000EEF2401F54CE43EF54B9036
:0C202B006C19E493FF7B737D0112766753
:10203700900CD2122EE0000107ACE4FFFEFDFC90ED
:102047000CD2122EB8D3122DD14017900CD2122ECB
:10205700AC74FFFBFAF9F8122C7E900CD2122ED436
:0220670080D81F
:10206900906C1AE493FF3395E0FE90027175F013BA
:10207900EF122F4FEE75F013A42583F583122F6B02
:10208900E92407F9E43AFA754BFF754C65754D3447
:10209900900C57E0F54EA3E0F54F900C59E0F55040
:1020A900A3E0F551125498906C1AE493FF3395E02C
:1020B900FE90027175F013EF122F4FEE75F013A415
:1020C9002583F583122F6BE92407F9E43AFA120004
:1020D9000EEF2401F54CE43EF54B906C19E493FFA7
:0720E9007B737D0112766795
:1020F000900CD6122EE0000107ACE4FFFEFDFC9030
:102100000CD6122EB8D3122DD14017900CD6122E09
:10211000AC74FFFBFAF9F8122C7E900CD6122ED478
:0221200080D865
:10212200906C1AE493FF3395E0FE90027175F01300
:10213200EF122F4FEE75F013A42583F583122F6B48
:10214200E92407F9E43AFA754BFF754C65754D447D
:10215200900C5BE0F54EA3E0F54F900C5DE0F5507E
:10216200A3E0F551125498906C1AE493FF3395E072
:10217200FE90027175F013EF122F4FEE75F013A45B
:102182002583F583122F6BE92407F9E43AFA12004A
:102192000EEF2401F54CE43EF54B906C19E493FFED
:0721A2007B737D01127667DB
:1021A900900CDA122EE0000107ACE4FFFEFDFC9072
:1021B9000CDA122EB8D3122DD14017900CDA122E48
:1021C900AC74FFFBFAF9F8122C7E900CDA122ED4BB
:0221D90080D8AC
:1021DB00906C1AE493FF3395E0FE90027175F01347
:1021EB00EF122F4FEE75F013A42583F583122F6B8F
:1021FB00E92407F9E43AFA754BFF754C65754D54B4
:10220B00900C70E0F54EA3E0F54F900C72E0F5509A
:10221B00A3E0F551125498906C1AE493FF3395E0B8
:10222B00FE90027175F013EF122F4FEE75F013A4A1
:10223B002583F583122F6BE92407F9E43AFA120090
:10224B000EEF2401F54CE43EF54B906C19E493FF33
:07225B007B737D0112766721
:10226200900CDE122EE0000107ACE4FFFEFDFC90B4
:102272000CDE122EB8D3122DD14017900CDE122E86
:10228200AC74FFFBFAF9F8122C7E900CDE122ED4FD
:0222920080D8F2
:10229400906C1AE493FF3395E0FE90027175F0138D
:1022A400EF122F4FEE75F013A42583F583122F6BD5
:1022B400E92407F9E43AFA754BFF754C64754D2D22
:1022C400754EFF754F65755064125498906C1AE4FE
:1022D40093FF3395E0FE90027175F013EF122F4FC8
:1022E400EE75F013A42583F583122F6BE92407F907
:1022F400E43AFA12000EEF2401F54CE43EF54B905B
:102304006C19E493FF7B737D01127667128C7B7BDF
:0C231400017A0B79FA7D7A7C001287AA0E
:10232000900CE2122EE0000107ACE4FFFEFDFC90F1
:102330000CE2122EB8D3122DD14017900CE2122EBF
:10234000AC74FFFBFAF9F8122C7E900CE2122ED43A
:0223500080D833
:10235200906C1AE493FF3395E0FE90027175F013CE
:10236200EF122F4FEE75F013A42583F583122F6B16
:10237200E92407F9E43AFA754BFF754C64754D2D63
:10238200754EFF754F65755087125498906C1AE41C
:1023920093FF3395E0FE90027175F013EF122F4F09
:1023A200EE75F013A42583F583122F6BE92407F948
:1023B200E43AFA12000EEF2401F54CE43EF54B909C
:1023C2006C19E493FF7B737D0112766743B0085367
:1023D200B0BF53B0DF53B0EFE4900004F0127E952B
:0323E200854284AD
:0123E50022D5
:104D420085844278C67C0C7D017BFF7A6679E67E9B
:0C4D5200007F08122A339000047401F066
:104D5E00900CA6122EE0000107ACE4FFFEFDFC90C5
:104D6E000CA6122EB8D3122DD14017900CA6122ECF
:104D7E00AC74FFFBFAF9F8122C7E900CA6122ED40E
:024D8E0080D8CB
:104D9000906C1AE493FF3395E0FE90027175F01366
:104DA000EF122F4FEE75F013A42583F583122F6BAE
:104DB000E92407F9E43AFA754BFF754C64754D2DFB
:104DC000754EFF754F6575509D125498906C1AE49E
:104DD00093FF3395E0FE90027175F013EF122F4FA1
:104DE000EE75F013A42583F583122F6BE92407F9E0
:104DF000E43AFA12000EEF2401F54CE43EF54B9034
:104E00006C19E493FF7B737D01127667E490029442
:034E1000F0A3F01C
:104E130075840FE5E830E019C3900295E09409909A
:104E23000294E094004003025372E4900294F0A3CE
:0C4E3300F090028BE060D9E4F085D843D9
:104E3F00900CAA122EE00006DDD0E4FFFEFDFC90E0
:104E4F000CAA122EB8D3122DD14017900CAA122EE5
:104E5F00AC74FFFBFAF9F8122C7E900CAA122ED428
:024E6F0080D8E9
:104E7100906C1AE493FF3395E0FE90027175F01384
:104E8100EF122F4FEE75F013A42583F583122F6BCC
:104E9100E92407F9E43AFA754BFF754C64754D2D19
:104EA100754EFF754F65755014125498906C1AE445
:104EB10093FF3395E0FE90027175F013EF122F4FBF
:104EC100EE75F013A42583F583122F6BE92407F9FE
:104ED100E43AFA12000EEF2401F54CE43EF54B9052
:0C4EE1006C19E493FF7B737D011276676F
:104EED00900CAE122EE0000107ACE4FFFEFDFC902D
:104EFD000CAE122EB8D3122DD14017900CAE122E2F
:104F0D00AC74FFFBFAF9F8122C7E900CAE122ED475
:024F1D0080D83A
:104F1F00754BFF754C65754DB17B017A0C79CE12CF
:104F2F0054987544007545067B017A0C79CE1200B2
:104F3F000E74CE2FF9740C3EFA7B01C003C002C071
:104F4F000174C62545F582740C3544F583E055434D
:104F5F007BFF60067A6579B980047A6579BB8B4BE4
:104F6F008A4C894DD001D002D003125498E54515D3
:104F7F004570021544C3E5446480948050AA906C38
:104F8F001AE493FF3395E0FE90027175F013EF1260
:104F9F002F4FEE75F013A42583F583122F6BE924A1
:104FAF0007F9E43AFA754BFF754C64754D2D754E44
:104FBF0001754F0C7550CE125498906C1AE493FFF4
:104FCF003395E0FE90027175F013EF122F4FEE75CF
:104FDF00F013A42583F583122F6BE92407F9E43A24
:104FEF00FA12000EEF2401F54CE43EF54B906C19CC
:0A4FFF00E493FF7B737D01127667D7
:10500900900CB2122EE0000107ACE4FFFEFDFC900B
:105019000CB2122EB8D3122DD14017900CB2122E09
:10502900AC74FFFBFAF9F8122C7E900CB2122ED454
:0250390080D81D
:10503B00754BFF754C65754DBD900015E0F54EA396
:10504B00E0F54FA3E0F550A3E0F5517B017A0C7925
:10505B00CE125498906C1AE493FF3395E0FE9002B5
:10506B007175F013EF122F4FEE75F013A42583F526
:10507B0083122F6BE92407F9E43AFA754BFF754C51
:10508B0064754D2D754E01754F0C7550CE1254989D
:10509B00906C1AE493FF3395E0FE90027175F01358
:1050AB00EF122F4FEE75F013A42583F583122F6BA0
:1050BB00E92407F9E43AFA12000EEF2401F54CE467
:1050CB003EF54B906C19E493FF7B737D0112766771
:1050DB00900CB6122EE0000107ACE4FFFEFDFC9035
:1050EB000CB6122EB8D3122DD14017900CB6122E2F
:1050FB00AC74FFFBFAF9F8122C7E900CB6122ED47E
:02510B0080D84A
:10510D00900014E06018754BFF754C65754DCA9095
:10511D00001BE0F54EA3E0F54F9000198014754B80
:10512D00FF754C65754DD8900019E0F54EA3E0F56F
:10513D004FA3E0F550A3E0F5517B017A0C79CE1227
:10514D005498906C1AE493FF3395E0FE90027175BC
:10515D00F013EF122F4FEE75F013A42583F5831284
:10516D002F6BE92407F9E43AFA754BFF754C64751A
:10517D004D2D754E01754F0C7550CE125498906C87
:10518D001AE493FF3395E0FE90027175F013EF1260
:10519D002F4FEE75F013A42583F583122F6BE924A1
:1051AD0007F9E43AFA12000EEF2401F54CE43EF54E
:0E51BD004B906C19E493FF7B737D01127667B3
:1051CB00900CBA122EE0000107ACE4FFFEFDFC9040
:1051DB000CBA122EB8D3122DD14017900CBA122E36
:1051EB00AC74FFFBFAF9F8122C7E900CBA122ED489
:0251FB0080D85A
:1051FD00754BFF754C65754DE690001DE0F54EA3A2
:10520D00E0F54FA3E0F550A3E0F5517B017A0C7961
:10521D00CE125498906C1AE493FF3395E0FE9002F1
:10522D007175F013EF122F4FEE75F013A42583F562
:10523D0083122F6BE92407F9E43AFA754BFF754C8D
:10524D0064754D2D754E01754F0C7550CE125498D9
:10525D00906C1AE493FF3395E0FE90027175F01394
:10526D00EF122F4FEE75F013A42583F583122F6BDC
:10527D00E92407F9E43AFA12000EEF2401F54CE4A3
:10528D003EF54B906C19E493FF7B737D01127667AD
:10529D00900CBE122EE0000107ACE4FFFEFDFC9069
:1052AD000CBE122EB8D3122DD14017900CBE122E5B
:1052BD00AC74FFFBFAF9F8122C7E900CBE122ED4B2
:0252CD0080D887
:1052CF00754BFF754C65754DF5900021E0F54EA3BC
:1052DF00E0F54FA3E0F550A3E0F5517B017A0C798F
:1052EF00CE125498906C1AE493FF3395E0FE90021F
:1052FF007175F013EF122F4FEE75F013A42583F590
:10530F0083122F6BE92407F9E43AFA754BFF754CBA
:10531F0064754D2D754E01754F0C7550CE12549806
:10532F00906C1AE493FF3395E0FE90027175F013C1
:10533F00EF122F4FEE75F013A42583F583122F6B09
:10534F00E92407F9E43AFA12000EEF2401F54CE4D0
:10535F003EF54B906C19E493FF7B737D01127667DA
:0A536F00024E13E4900294F0A3F044
:10537900900CC2122EE0000107ACE4FFFEFDFC9088
:105389000CC2122EB8D3122DD14017900CC2122E76
:10539900AC74FFFBFAF9F8122C7E900CC2122ED4D1
:0253A90080D8AA
:1053AB00906C1AE493FF3395E0FE90027175F01345
:1053BB00EF122F4FEE75F013A42583F583122F6B8D
:1053CB00E92407F9E43AFA754BFF754C64754D2DDA
:1053DB00754EFF754F66755004125498906C1AE415
:1053EB0093FF3395E0FE90027175F013EF122F4F80
:1053FB00EE75F013A42583F583122F6BE92407F9BF
:10540B00E43AFA12000EEF2401F54CE43EF54B9012
:10541B006C19E493FF7B737D0112766743B00853DD
:10542B00B0BF53B0DF53B0EFE4900004F08542847B
:01543B00224E
:1066F600858442E4F545F54678B27C0C7D017BFF46
:0A6706007A6679EEFE7F08122A334E
:10671000900CA6122EE0000107ACE4FFFEFDFC90F9
:106720000CA6122EB8D3122DD14017900CA6122E03
:10673000AC74FFFBFAF9F8122C7E900CA6122ED442
:0267400080D8FF
:10674200906C1AE493FF3395E0FE90027175F0139A
:10675200EF122F4FEE75F013A42583F583122F6BE2
:10676200E92407F9E43AFA754BFF754C64754D2D2F
:10677200754EFF754F66755018125498906C1AE456
:1067820093FF3395E0FE90027175F013EF122F4FD5
:10679200EE75F013A42583F583122F6BE92407F914
:1067A200E43AFA12000EEF2401F54CE43EF54B9068
:0C67B2006C19E493FF7B737D0112766785
:1067BE00900CAA122EE0000107ACE4FFFEFDFC9047
:1067CE000CAA122EB8D3122DD14017900CAA122E4D
:1067DE00AC74FFFBFAF9F8122C7E900CAA122ED490
:0267EE0080D851
:1067F000E4900294F0A3F090025FE024A0F54490AE
:10680000025EE03400F54375840FE5E830E019C31B
:10681000900295E09409900294E09400400302688D
:10682000E1E4900294F0A3F090025EE0FEA3E0FFAA
:10683000B544D4EEB543D0EF24A0F544E43EF5438F
:10684000906C1AE493FF3395E0FE90027175F0139B
:10685000EF122F4FEE75F013A42583F583122F6BE3
:10686000E92407F9E43AFA754BFF754C66754D2D2E
:1068700085454E85464F125498906C1AE493FF3329
:1068800095E0FE90027175F013EF122F4FEE75F048
:1068900013A42583F583122F6BE92407F9E43AFA50
:1068A00012000EEF2401F54CE43EF54B906C19E418
:1068B00093FF7B737D0112766774B22546F582746F
:1068C0000C3545F583E0F5C80546E54670020545FB
:1068D000FFAE457C007D07122B6D8C458D4602680E
:0868E00007E4900294F0A3F01C
:1068E800900CAE122EE0000107ACE4FFFEFDFC9018
:1068F8000CAE122EB8D3122DD14017900CAE122E1A
:10690800AC74FFFBFAF9F8122C7E900CAE122ED460
:0269180080D825
:10691A00906C1AE493FF3395E0FE90027175F013C0
:10692A00EF122F4FEE75F013A42583F583122F6B08
:10693A00E92407F9E43AFA754BFF754C64754D2D55
:10694A00754EFF754F66755034125498906C1AE460
:10695A0093FF3395E0FE90027175F013EF122F4FFB
:10696A00EE75F013A42583F583122F6BE92407F93A
:10697A00E43AFA12000EEF2401F54CE43EF54B908E
:10698A006C19E493FF7B737D0112766743B0085359
:0B699A00B0BF53B0DF53B0EF85428464
:0169A50022CF
:10783500900D9A740FF0A374FFF0900D98740FF0EB
:10784500A374FFF0900D96740FF0A374FFF0E4900D
:107855000DA0F0A3F0900D9EF0A3F0900D9CF0A369
:10786500F0FFFE90028BE060FA900015E0FCA3E0CB
:10787500FD900D96E0FAA3E0FBC39DEA9C5006AC93
:1078850002AD038008900015E0FCA3E0FD900D9685
:10789500ECF0A3EDF0900017E0FCA3E0FD900D984F
:1078A500E0FAA3E0FBC39DEA9C5006AC02AD038061
:1078B50008900017E0FCA3E0FD900D98ECF0A3ED17
:1078C500F090001BE0FCA3E0FD900D9AE0FAA3E028
:1078D500FBC39DEA9C5006AC02AD03800890001BDB
:1078E500E0FCA3E0FD900D9AECF0A3EDF0900015FF
:1078F500E0FCA3E0FD900D9CE0FAA3E0FBD39DEA3C
:107905009C4006AC02AD038008900015E0FCA3E0A6
:10791500FD900D9CECF0A3EDF0900017E0FCA3E0CA
:10792500FD900D9EE0FAA3E0FBD39DEA9C4006ACDA
:1079350002AD038008900017E0FCA3E0FD900D9ECA
:10794500ECF0A3EDF090001BE0FCA3E0FD900DA092
:10795500E0FAA3E0FBD39DEA9C4006AC02AD0380B0
:107965000890001BE0FCA3E0FD900DA0ECF0A3ED5A
:10797500F0E490028BF00FBF00010EEF64284E601B
:1079850003027868900D98E0FEA3E0FF900D9EE05D
:10799500FCA3E0FDC39FFFEC9EFEC3940040028064
:1079A50016900D98E0FEA3E0FFC3ED9FFFEC9EFE51
:1079B500C3E49FFFE49EFED3EF9404EE94004003DE
:1079C500027835900D96E0FEA3E0FF900D9CE0FC5B
:1079D500A3E0FDC39FFFEC9EFEC39400400280160A
:1079E500900D96E0FEA3E0FFC3ED9FFFEC9EFEC366
:1079F500E49FFFE49EFED3EF9404EE94004003025F
:027A05007835D2
:017A0700225C
:105CBE00E4F545F546F584900C61E0A3E0F5FD9022
:105CCE000C61E0A3E0F5FE900C5FE0A3E0F5FB9025
:105CDE000C5FE0A3E0F5FC906C1AE493FF3395E0C3
:105CEE00FE90027175F013EF122F4FEE75F013A4A4
:105CFE002583F583122F6BE92407F9E43AFA754BE5
:105D0E00FF754C64754D2D754EFF754F6675504978
:105D1E00125498906C1AE493FF3395E0FE90027142
:105D2E0075F013EF122F4FEE75F013A42583F58344
:105D3E00122F6BE92407F9E43AFA12000EEF240150
:105D4E00F54CE43EF54B906C19E493FF7B737D01AB
:035D5E0012766753
:105D6100900D36122EE0000107ACE4FFFEFDFC9021
:105D71000D36122EB8D3122DD14017900D36122E9A
:105D8100AC74FFFBFAF9F8122C7E900D36122ED46A
:025D910080D8B8
:105D930090028BE060FAE490028BF090028BE0605B
:105DA300FAE545700F900015E0FFA3E0900C53CF88
:105DB300F0A3EFF0E546700F900017E0FFA3E0902B
:105DC3000C55CFF0A3EFF0E490028BF0E545704B58
:105DD300900C53E0FEA3E02400EE34F8C3648094F7
:105DE300804010900C53E0FEA3E02400FFEE34F853
:105DF300FE8015900C53E0FEA3E02400FFEE34F880
:105E0300FEC3E49FFFE49EFED3EF9405EE6480940B
:105E13008050047F0180027F008F45E5457048C3B1
:105E2300900C53E094085015900C5FE07002A3E0CF
:105E330070028014900C5F74FFF5F08017900C5F74
:105E4300E07003A3E0F47005754501800A900C5FD0
:105E5300E475F001122BA3900C5FE0A3E0F5FB9037
:105E63000C5FE0A3E0F5FCE546704B900C55E0FEBB
:105E7300A3E02400EE34F8C3648094804010900CB7
:105E830055E0FEA3E02400FFEE34F8FE8015900CED
:105E930055E0FEA3E02400FFEE34F8FEC3E49FFFC9
:105EA300E49EFED3EF9405EE6480948050047F015A
:105EB30080027F008F46E5467048C3900C55E094FE
:105EC300085015900C61E07002A3E07002801490FA
:105ED3000C6174FFF5F08017900C61E07003A3E090
:105EE300F47005754601800A900C61E475F00112A7
:105EF3002BA3900C61E0A3E0F5FD900C61E0A3E01F
:105F0300F5FEE5457003025D93E5467003025D937C
:105F1300127835900015E0FFA3E0900C53CFF0A367
:105F2300EFF0900017E0FFA3E0900C55CFF0A3EF44
:105F3300F0906C1AE493FF3395E0FE90027175F0D4
:105F430013EF122F4FEE75F013A42583F583122F51
:105F53006BE92407F9E43AFA754BFF754C66754D06
:105F63005A900C5FE0F54EA3E0F54F900C61E0F51D
:105F730050A3E0F551125498906C1AE493FF3395B3
:105F8300E0FE90027175F013EF122F4FEE75F013D0
:105F9300A42583F583122F6BE92407F9E43AFA1257
:105FA300000EEF2401F54CE43EF54B906C19E4939D
:085FB300FF7B737D011276678C
:105FBB00900D3A122EE0000107ACE4FFFEFDFC90C1
:105FCB000D3A122EB8D3122DD14017900D3A122E36
:105FDB00AC74FFFBFAF9F8122C7E900D3A122ED40A
:025FEB0080D85C
:105FED00754BFF754C66754D6B900C53E0F54EA3DC
:105FFD00E0F54F900C55E0F550A3E0F5517B017A9B
:10600D000D7942125498906C1AE493FF3395E0FE8B
:10601D0090027175F013EF122F4FEE75F013A4254A
:10602D0083F583122F6BE92407F9E43AFA754BFFD8
:10603D00754C64754D2D754E01754F0D7550421291
:10604D005498906C1AE493FF3395E0FE90027175AD
:10605D00F013EF122F4FEE75F013A42583F5831275
:10606D002F6BE92407F9E43AFA12000EEF2401F53B
:10607D004CE43EF54B906C19E493FF7B737D01125C
:02608D00766734
:10608F00900D3E122EE0000107ACE4FFFEFDFC90E8
:10609F000D3E122EB8D3122DD14017900D3E122E59
:1060AF00AC74FFFBFAF9F8122C7E900D3E122ED431
:0260BF0080D887
:0160C10022BC
:1060C200858442E4F543F544F547906C1A93FF3317
:1060D20095E0FE90027175F013EF122F4FEE75F0FE
:1060E20013A42583F583122F6BE92407F9E43AFA06
:1060F200754BFF754C64754D2D754EFF754F66756A
:10610200507C125498906C1AE493FF3395E0FE9001
:10611200027175F013EF122F4FEE75F013A4258361
:10612200F583122F6BE92407F9E43AFA12000EEF15
:106132002401F54CE43EF54B906C19E493FF7B731C
:106142007D01127667E4900294F0A3F0F545F546DE
:10615200D390091BE0954690091AE095454023AE7D
:1061620045AF467C017D00122B6D743F2546F582BA
:1061720074003545F583EDF00546E54670020545A8
:1061820080CE75840FE5E830E019C3900295E09463
:1061920009900294E094004003026374E490029434
:1061A200F0A3F090091AE0FCA3E0FD7B017A0079EC
:1061B2003F854353854454E4FFFE1284AF90091A8D
:1061C200E0FEA3E0FF7B017A00793F85434D8544E1
:1061D2004E128414E4F545F546D390091BE095462A
:1061E20090091AE09545402DAE45AF467C017D00F1
:1061F200122B6D743F2546F58274003545F583E018
:106202006D7001EC6005754701800A0546E5467030
:1062120002054580C4E54770030262A0906C1AE44F
:1062220093FF3395E0FE90027175F013EF122F4F3A
:10623200EE75F013A42583F583122F6BE92407F979
:10624200E43AFA754BFF754C66754D8B85434E8566
:10625200444F854550854651125498906C1AE493E8
:10626200FF3395E0FE90027175F013EF122F4FEE9F
:1062720075F013A42583F583122F6BE92407F9E443
:106282003AFA12000EEF2401F54CE43EF54B906C05
:0E62920019E493FF7B737D011276670263743B
:1062A000900CA6122EE0000107ACE4FFFEFDFC906E
:1062B0000CA6122EB8D3122DD14017900CA6122E78
:1062C000AC74FFFBFAF9F8122C7E900CA6122ED4B7
:0262D00080D874
:1062D200906C1AE493FF3395E0FE90027175F0130F
:1062E200EF122F4FEE75F013A42583F583122F6B57
:1062F200E92407F9E43AFA754BFF754C66754DBD12
:1063020085434E85444F125498906C1AE493FF33A0
:1063120095E0FE90027175F013EF122F4FEE75F0BB
:1063220013A42583F583122F6BE92407F9E43AFAC3
:1063320012000EEF2401F54CE43EF54B906C19E48B
:1063420093FF7B737D01127667AF44AE43128A7C62
:10635200D3900BF5E09544900BF4E095435008E49C
:10636200F543F5440261840544E5447002054302A5
:096372006184E4900294F0A3F0B0
:10637B00900CAA122EE0000107ACE4FFFEFDFC908E
:10638B000CAA122EB8D3122DD14017900CAA122E94
:10639B00AC74FFFBFAF9F8122C7E900CAA122ED4D7
:0263AB0080D898
:1063AD00906C1AE493FF3395E0FE90027175F01333
:1063BD00EF122F4FEE75F013A42583F583122F6B7B
:1063CD00E92407F9E43AFA754BFF754C64754D2DC8
:1063DD00754EFF754F667550CE125498906C1AE439
:1063ED0093FF3395E0FE90027175F013EF122F4F6E
:1063FD00EE75F013A42583F583122F6BE92407F9AD
:10640D00E43AFA12000EEF2401F54CE43EF54B9000
:0F641D006C19E493FF7B737D01127667854284CF
:01642C00224D
:108C4A0001120101060101020100000001000000F9
:108C5A000C00000077000004A900002E9B0001D23E
:108C6A00090012345600B60B61071C71C7471C7104
:018C7A00C732
:04815300410DA50035
:10725800900284122F6B8B318A328933E4FDFC0D46
:107268000470010C142406F582E433F583740112CA
:107278002AE40DEDAE0470010C142406F582E43EF8
:10728800F583E4122AE40DEDAE0470010C14240613
:10729800F582E43EF583E4122AE40DEDAE047001B4
:1072A8000C142406F582E43EF583E4122AE40DED7D
:1072B800AE0470010C142406F582E43EF58374C014
:1072C800122AE40DEDAE0470010C14042405F582B5
:1072D800E43EF5837408122AE40DEDAE0470010C47
:1072E8001425E0F582E43EF583E4122AE40DEDAEC0
:1072F8000470010C14142407F582E43EF583E412AB
:107308002AE4E92406F9E43AFAE92DF9EA3CFA1202
:107318002F1100E1000074042DFDE43CFCAB31AA00
:1073280032A9330DEDAE0470010C142406F582E485
:107338003EF5837401122AE40DEDAE0470010C14BD
:107348002406F582E43EF583E4122AE40DEDAE044A
:1073580070010C142406F582E43EF5837401122AA8
:10736800E40DEDAE0470010C142406F582E43EF53C
:1073780083E4122AE40DEDAE0470010C142406F522
:1073880082E43EF583E4122AE40DEDAE0470010CAC
:10739800142406F582E43EF583E4122AE40DEDAEEA
:1073A8000470010C142406F582E43EF583E4122AE5
:1073B800E40DEDAE0470010C142406F582E43EF5EC
:1073C80083E4122AE47F007E0612816D900279E040
:0673D8007002A3E070F654
:1073DE00900C9A122EE000002328E4FFFEFDFC9094
:1073EE000C9A122EB8D3122DD14017900C9A122E41
:1073FE00AC74FFFBFAF9F8122C7E900C9A122ED474
:02740E0080D824
:107410007B017A0279777F007EE17D007C0012702B
:017420005417
:10742100900C9E122EE000004650E4FFFEFDFC9001
:107431000C9E122EB8D3122DD14017900C9E122EF5
:10744100AC74FFFBFAF9F8122C7E900C9E122ED42C
:0274510080D8E1
:017453002216
:1000A60078B67C0C7D017BFF7A8C794A7E007F09CD
:1000B600122A33900284122F6B8B498A4A894B90FD
:1000C6000014E0700302020A900283E0900282F0BC
:1000D600E4F548E4F546F547E54875F003A424B68B
:1000E600F582E4340CF583E0FFAB49AA4AA94B0537
:1000F60047E547AC4670020546142406F582E43C03
:10010600F583EF122AE4E54875F003A424B6F582D8
:10011600E4340CF583A3E0FF0547E547AC467002DF
:100126000546142406F582E43CF583EF122AE4E53D
:100136004875F003A424B8F582E4340CF583E0FF97
:100146000547E547AC4670020546142406F582E4E9
:100156003CF583EF128162900279E07002A3E070B1
:10016600F6900283E0FF900282E06F60F4900287CF
:10017600122F6B900283E0FF75F0DCA4F58285F008
:1001860083122BFAF54785F046EFB402047F008010
:1001960006900283E004FF900283EFF0E5476401D6
:1001A6007004E5466405600C900283E0FF900282CD
:0401B600E0B507B9F0
:1001BA00900C9A122EE0000057E4E4FFFEFDFC903A
:1001CA000C9A122EB8D3122DD14017900C9A122ED7
:1001DA00AC74FFFBFAF9F8122C7E900C9A122ED40A
:0201EA0080D8BB
:1001EC00E54764017004E546640560030200D90527
:1001FC0048E548C3940350030200D9020C97E4F578
:10020C0046F547AB49AA4AA94B0547E547AE4670A8
:10021C00020546142406F582E43EF5837401122A85
:10022C00E40547E547AE4670020546142406F58200
:10023C00E43EF5837402122AE40547E547AE4670A6
:10024C00020546142406F582E43EF583E4122AE402
:10025C000547E547AE4670020546142406F582E4D0
:10026C003EF5837401122AE40547E547AE46700259
:10027C000546142406F582E43EF583E4122AE405CF
:10028C0047E547AE4670020546142406F582E43E67
:10029C00F583E4122AE40547E547AE4670020546AD
:1002AC00142406F582E43EF5837401122AE4054712
:1002BC00E547AE4670020546142406F582E43EF589
:1002CC00837401122AE40547E547AE4670020546E1
:1002DC00142406F582E43EF583E4122AE40547E58E
:1002EC0047AE4670020546142406F582E43EF583BB
:1002FC00E4122AE40547E547AE467002054614248D
:10030C0006F582E43EF583E4122AE40547E547AEA0
:10031C004670020546142406F582E43EF583E41289
:10032C002AE40547E547AE4670020546142406F557
:10033C0082E43EF5837401122AE40547E547AE4694
:10034C0070020546142406F582E43EF58374061209
:10035C002AE40547E547AE4670020546142406F527
:10036C0082E43EF583E4122AE40547E547AE467085
:10037C00020546142406F582E43EF5837401122A24
:10038C00E40547E547AE4670020546142406F5829F
:10039C00E43EF583E4122AE40547E547AE467002D5
:1003AC000546142406F582E43EF583E4122AE4059E
:1003BC0047E547AE4670020546142406F582E43E36
:1003CC00F5837401122AE40547E547AE4670020531
:1003DC0046142406F582E43EF5837412122AE405D1
:1003EC0047E547AE4670020546142406F582E43E06
:1003FC00F583E4122AE40547E547AE46700205464C
:10040C00142406F582E43EF5837401122AE40547B0
:10041C00E547AE4670020546142406F582E43EF527
:10042C0083E4122AE40547E547AE467002054614FC
:10043C002406F582E43EF583E4122AE40547E547F9
:10044C00AE4670020546142406F582E43EF583742C
:10045C0001122AE40547E547AE467002054614240E
:10046C0006F582E43EF5837403122AE40547E5475A
:10047C00AE4670020546142406F582E43EF583E48C
:10048C00122AE40547E547AE4670020546142406D9
:10049C00F582E43EF583E4122AE40547E547AE46CF
:1004AC0070020546142406F582E43EF583E4122A14
:1004BC00E40547E547AE4670020546142406F5826E
:1004CC00E43EF583E4122AE40547E547AE467002A4
:1004DC000546142406F582E43EF5837401122AE4E1
:1004EC000547E547AE4670020546142406F582E43E
:1004FC003EF5837430122AE40547E547AE46700298
:10050C000546142406F582E43EF583E4122AE4053C
:10051C0047E547AE4670020546142406F582E43ED4
:10052C00F583E4122AE40547E547AE46700205461A
:10053C00142406F582E43EF583E4122AE40547E52B
:10054C0047AE4670020546142406F582E43EF58358
:10055C00E4122AE40547E547AE467002054614242A
:10056C0006F582E43EF5837401122AE40547E5475B
:10057C00AE4670020546142406F582E43EF58374FB
:10058C0004122AE40547E547AE46700205461424DA
:10059C0006F582E43EF583E4122AE40547E547AE0E
:1005AC004670020546142406F582E43EF583E412F7
:1005BC002AE40547E547AE4670020546142406F5C5
:1005CC0082E43EF583E4122AE40547E547AE467023
:1005DC00020546142406F582E43EF583E4122AE46F
:1005EC000547E547AE4670020546142406F582E43D
:1005FC003EF5837401122AE40547E547AE467002C6
:10060C000546142406F582E43EF5837420122AE490
:10061C000547E547AE4670020546142406F582E40C
:10062C003EF583E4122AE40547E547AE4670020521
:10063C0046142406F582E43EF583E4122AE40547C9
:10064C00E547AE4670020546142406F582E43EF5F5
:10065C0083E4122AE40547E547AE467002054612CC
:10066C008158900279E07002A3E070F6900283E06A
:10067C00FF900282E06F60F4900287122F6B900261
:10068C0083E0FF75F0DCA4F58285F083122BFAF57C
:10069C004785F046EFB402047F008006900283E0A9
:1006AC0004FF900283EFF0E54764017004E54664B3
:0F06BC0005600C900283E0FF900282E0B507B961
:1006CB00900C9E122EE00000AFC8E4FFFEFDFC90E4
:1006DB000C9E122EB8D3122DD14017900C9E122EB9
:1006EB00AC74FFFBFAF9F8122C7E900C9E122ED4F0
:0206FB0080D8A5
:1006FD00E54764017004E5466405600302020AE4FF
:10070D00F546F547AB49AA4AA94B0547E547AE461D
:10071D0070020546142406F582E43EF58374011239
:10072D002AE40547E547AE4670020546142406F552
:10073D0082E43EF5837411122AE40547E547AE467F
:10074D0070020546142406F582E43EF583E4122A70
:10075D00E40547E547AE4670020546142406F582CA
:10076D00E43EF583E4122AE40547E547AE46700200
:10077D000546142406F582E43EF583E4122AE405C9
:10078D0047E547AE4670020546142406F582E43E61
:10079D00F583E4122AE40547E547AE4670020546A7
:1007AD00142406F582E43EF5837401122AE405470C
:1007BD00E547AE4670020546142406F582E43EF583
:1007CD00837421122AE40547E547AE4670020546BB
:1007DD00142406F582E43EF583E4122AE40547E588
:1007ED0047AE4670020546142406F582E43EF583B5
:1007FD00E4122AE40547E547AE4670020546142487
:10080D0006F582E43EF583E4122AE40547E547AE9A
:10081D004670020546142406F582E43EF583E41283
:10082D002AE40547E547AE4670020546142406F551
:10083D0082E43EF5837401122AE40547E547AE468E
:10084D0070020546142406F582E43EF583742212E7
:10085D002AE40547E547AE4670020546142406F521
:10086D0082E43EF583E4122AE40547E547AE46707F
:10087D00020546142406F582E43EF583E4122AE4CB
:10088D000547E547AE4670020546142406F582E499
:10089D003EF583E4122AE40547E547AE46700205AE
:1008AD0046142406F582E43EF583E4122AE4054756
:1008BD00E547AE4670020546142406F582E43EF582
:1008CD0083740A122AE40547E547AE4670020546D1
:1008DD00142406F582E43EF5837407122AE40547D5
:1008ED00E547AE4670020546142406F582E43EF552
:1008FD0083E4122AE40547E547AE46700205461427
:10090D002406F582E43EF583E4122AE40547E54723
:10091D00AE4670020546142406F582E43EF583E4E6
:10092D00122AE40547E547AE467002054614240633
:10093D00F582E43EF583E4122AE40547E547AE4629
:10094D0070020546142406F582E43EF583740A12FE
:10095D002AE40547E547AE4670020546142406F520
:10096D0082E43EF5837408122AE40547E547AE4656
:10097D0070020546142406F582E43EF583E4122A3E
:10098D00E40547E547AE4670020546142406F58298
:10099D00E43EF583E4122AE40547E547AE467002CE
:1009AD000546142406F582E43EF583E4122AE40597
:1009BD0047E547AE4670020546142406F582E43E2F
:1009CD00F583E4122AE40547E547AE467002054675
:1009DD00142406F582E43EF583740A122AE40547D1
:1009ED00E547AE4670020546142406F582E43EF551
:1009FD00837402122AE40547E547AE4670020546A8
:100A0D00142406F582E43EF583E4122AE40547E555
:100A1D0047AE4670020546142406F582E43EF58382
:100A2D00E4122AE40547E547AE4670020546142454
:100A3D0006F582E43EF583E4122AE40547E547AE68
:100A4D004670020546142406F582E43EF583E41251
:100A5D002AE40547E547AE4670020546142406F51F
:100A6D0082E43EF583740A122AE40547E547AE4653
:100A7D0070020546142406F582E43EF583740912CE
:100A8D002AE40547E547AE4670020546142406F5EF
:100A9D0082E43EF583E4122AE40547E547AE46704D
:100AAD00020546142406F582E43EF583E4122AE499
:100ABD000547E547AE4670020546142406F582E467
:100ACD003EF583E4122AE40547E547AE467002057C
:100ADD0046142406F582E43EF583E4122AE4054724
:100AED00E547AE4670020546142406F582E43EF550
:100AFD0083740A122AE40547E547AE46700205469F
:100B0D00142406F582E43EF5837401122AE40547A8
:100B1D00E547AE4670020546142406F582E43EF51F
:100B2D0083E4122AE40547E547AE467002054614F4
:100B3D002406F582E43EF583E4122AE40547E547F1
:100B4D00AE4670020546142406F582E43EF583E4B4
:100B5D00122AE40547E547AE467002054614240601
:100B6D00F582E43EF583E4122AE40547E547AE46F7
:100B7D0070020546142406F582E43EF583740A12CC
:100B8D002AE40547E547AE4670020546142406F5EE
:100B9D0082E43EF5837403122AE40547E547AE4629
:100BAD0070020546142406F582E43EF583E4122A0C
:100BBD00E40547E547AE4670020546142406F58266
:100BCD00E43EF583E4122AE40547E547AE4670029C
:100BDD000546142406F582E43EF583E4122AE40565
:100BED0047E547AE4670020546128158900279E0FE
:100BFD007002A3E070F6900283E0FF900282E06F36
:100C0D0060F4900287122F6B900283E0FF75F0DC89
:100C1D00A4F58285F083122BFAF54785F046EFB4E3
:100C2D0002047F008006900283E004FF900283EFB0
:100C3D00F0E54764017004E5466405600C9002839D
:090C4D00E0FF900282E0B507B956
:100C5600900CA2122EE00000AFC8E4FFFEFDFC904F
:100C66000CA2122EB8D3122DD14017900CA2122E20
:100C7600AC74FFFBFAF9F8122C7E900CA2122ED45B
:020C860080D814
:100C8800E54764017004E5466405600302070CE467
:100C9800F546F547AB49AA4AA94B0547E547AE468D
:100CA80070020546142406F582E43EF58374FA12B0
:100CB8002AE40547E547AE4670020546142406F5C2
:100CC80082E43EF583E4122AE40547E547AE467020
:100CD800020546142406F582E43EF5837401122ABF
:100CE800E40547E547AE4670020546142406F5823A
:100CF800E43EF583E4122AE40547E547AE46700270
:100D08000546142406F582E43EF5837401122AE4AC
:100D18000547E547AE4670020546142406F582E409
:100D28003EF583E4122AE47F08128167900279E095
:100D38007002A3E070F6900283E0FF900282E06FF9
:100D480060F4900287122F6B900283E0FF75F0DC4D
:100D5800A4F58285F083122BFAF54785F046EFB4A7
:100D680002047F008006900283E004FF900283EF74
:100D7800F0E54764017004E5466405600C90028361
:090D8800E0FF900282E0B507B91A
:100D9100900CA6122EE0000057E4E4FFFEFDFC904B
:100DA1000CA6122EB8D3122DD14017900CA6122EDC
:100DB100AC74FFFBFAF9F8122C7E900CA6122ED41B
:020DC10080D8D8
:0F0DC300E54764017004E54664056003020C9780
:100DD200900C7AE0FBE4FAF9F87F807E967D98FC2D
:100DE200128BA08F4F8E4E8D4D8C4C7808122DF8A1
:100DF200E4FFE4FDFCC004C005C006C007AF4FAE6F
:100E02004EAD4DAC4C7818122DF8E4FEFDFCD0032B
:100E1200D002D001D000122DB6C004C005C006C059
:100E220007AF4FAE4EAD4DAC4C7808122E0BE4FF1F
:100E3200FEE4FCD003D002D001D000122DB6C004D3
:100E4200C005C006C007AF4FAE4EAD4DAC4C7818D2
:100E5200122E0BE4FFFEFDECD003D002D001D00035
:100E6200122DB6AB49AA4AA94B900006122E88E46D
:100E7200754F0AF54EF54DF54CAF4FAE4EAD4DAC3C
:100E82004C7808122DF8E4FFE4FDFCC004C005C054
:100E920006C007AF4FAE4EAD4DAC4C7818122DF8D0
:100EA200E4FEFDFCD003D002D001D000122DB6C06A
:100EB20004C005C006C007AF4FAE4EAD4DAC4C7876
:100EC20008122E0BE4FFFEE4FCD003D002D001D0C6
:100ED20000122DB6C004C005C006C007AF4FAE4E0B
:100EE200AD4DAC4C7818122E0BE4FFFEFDECD00396
:100EF200D002D001D000122DB6AB49AA4AA94B901C
:100F0200000A122E887546007547080547E547AE68
:100F12004670020546142406F582E43EF583740108
:100F2200122AE40547E547AE467002054614240638
:100F3200F582E43EF5837401122AE40547E547AEE3
:100F42004670020546142406F582E43EF583E41257
:100F52002AE40547E547AE4670020546142406F525
:100F620082E43EF583E4122AE40547E547AE467083
:100F7200020546142406F582E43EF5837432122AF1
:100F8200E40547E547AE4670020546142406F5829D
:100F9200E43EF583E4122AE40547E547AE467002D3
:100FA2000546142406F582E43EF5837434122AE4DD
:100FB2000547E547AE4670020546142406F582E46D
:100FC2003EF5837403122AE40547E547AE467002F4
:100FD2000546142406F582E43EF583E4122AE4056C
:100FE20047E547AE4670020546142406F582E43E04
:100FF200F583E4122AE40547E547AE46700205464A
:10100200142406F582E43EF583E4122AE40547E55A
:1010120047AE4670020546142406F582E43EF58387
:10102200E4122AE4AD47AC467F077E0612816D903A
:101032000279E07002A3E070F6900283E0FF900272
:1010420082E06F60F4900287122F6B900283E0FFC0
:1010520075F0DCA4F58285F083122BFAF54785F052
:1010620046EFB402047F008006900283E004FF9002
:101072000283EFF0E54764017004E5466405600C05
:0C108200900283E0FF900282E0B507B905
:10108E00900CAA122EE0000057E4E4FFFEFDFC9047
:10109E000CAA122EB8D3122DD14017900CAA122ED4
:1010AE00AC74FFFBFAF9F8122C7E900CAA122ED417
:0210BE0080D8D8
:1010C000E54764017004E54664056003020DD290B3
:1010D0000014E070030215AEE4F546F547AB49AAEB
:1010E0004AA94B0547E547AE46700205461424065B
:1010F000F582E43EF583E4122AE40547E547AE466F
:1011000070020546142406F582E43EF583E4122AB3
:10111000E40547E547AE4670020546142406F5820D
:10112000E43EF583E4122AE40547E547AE46700243
:101130000546142406F582E43EF583E4122AE4050C
:1011400047E547AE4670020546142406F582E43EA4
:10115000F583E4122AE40547E547AE4670020546EA
:10116000142406F582E43EF583E4122AE40547E5FB
:1011700047AE4670020546142406F582E43EF58328
:10118000E4122AE40547E547AE46700205461424FA
:1011900006F582E43EF583E4122AE4AD47AC467FCF
:1011A000167E0612816D900279E07002A3E070F65F
:1011B000900283E0FF900282E06F60F49002871259
:1011C0002F6B900283E0FF75F0DCA4F58285F0833D
:1011D000122BFAF54785F046EFB402047F00800633
:1011E000900283E004FF900283EFF0E54764017012
:1011F00004E5466405600C900283E0FF900282E003
:03120000B507B976
:10120300900CAE122EE0000057E4E4FFFEFDFC90CC
:101213000CAE122EB8D3122DD14017900CAE122E55
:10122300AC74FFFBFAF9F8122C7E900CAE122ED49C
:0212330080D861
:10123500E54764017004E546640560030210D8E4DF
:10124500F546F547AB49AA4AA94B0547E547AE46DA
:1012550070020546142406F582E43EF583740512F2
:101265002AE40547E547AE4670020546142406F50F
:1012750082E43EF583E4122AE40547E547AE46706D
:10128500020546142406F582E43EF5837404122A09
:10129500E40547E547AE4670020546142406F58287
:1012A500E43EF5837402122AE4E92406F9E43AFAE5
:1012B500E92547F9EA3546FA122F1150C3000074A3
:1012C500042547F547E43546F546AB49E54B240685
:1012D500F9E4354AFAE92547F9EA3546FA122F11B4
:1012E5000000000074042547F547E43546F546AB94
:1012F50049AA4AA94B0547E547AE4670020546147B
:101305002406F582E43EF5837405122AE40547E5D3
:1013150047AE4670020546142406F582E43EF58381
:10132500E4122AE4E92406F9E43AFAE92547F9EA58
:101335003546FA74FA75F000122C3274022547F519
:1013450047E43546F546AB49E54B2406F9E4354A0D
:10135500FAE92547F9EA3546FA74FA75F000122CD0
:101365003274022547F547E43546F546AB49E54B6A
:101375002406F9E4354AFAE92547F9EA3546FA74C7
:101385006475F000122C3274022547F547E43546A2
:10139500F546AB49E54B2406F9E4354AFAE9254714
:1013A500F9EA3546FA742C75F001122C32740225CF
:1013B50047F547E43546F546AB49AA4AA94B0547E3
:1013C500E547AE4670020546142406F582E43EF56F
:1013D50083E4122AE40547E547AE46700205461444
:1013E5002406F582E43EF583E4122AE40547E54741
:1013F500AE4670020546142406F582E43EF583E404
:10140500122AE40547E547AE467002054614240650
:10141500F582E43EF583E4122AE40547E547AE4646
:1014250070020546142406F582E43EF583E4122A8B
:10143500E40547E547AE4670020546142406F582E5
:10144500E43EF583E4122AE40547E547AE4670021B
:101455000546142406F582E43EF583E4122AE405E4
:1014650047E547AE4670020546142406F582E43E7C
:10147500F583E4122AE40547E547AE4670020546C2
:10148500142406F582E43EF583E4122AE40547E5D3
:1014950047AE4670020546142406F582E43EF58300
:1014A500E4122AE40547E547AE46700205461424D2
:1014B50006F582E43EF583E4122AE40547E547AEE6
:1014C5004670020546142406F582E43EF583E412CF
:1014D5002AE40547E547AE4670020546142406F59D
:1014E50082E43EF583E4122AE40547E547AE4670FB
:1014F500020546142406F582E43EF583E4122AE447
:10150500AD47AC467F247E0612816D900279E0706E
:1015150002A3E070F6900283E0FF900282E06F6024
:10152500F4900287122F6B900283E0FF75F0DCA424
:10153500F58285F083122BFAF54785F046EFB40264
:10154500047F008006900283E004FF900283EFF0A1
:10155500E54764017004E5466405600C900283E08C
:08156500FF900282E0B507B916
:10156D00900CB2122EE0000057E4E4FFFEFDFC905B
:10157D000CB2122EB8D3122DD14017900CB2122EE0
:10158D00AC74FFFBFAF9F8122C7E900CB2122ED42B
:02159D0080D8F4
:0F159F00E54764017004E54664056003021244E9
:0115AE00221A
:10815800142406F582E43EF583E4122AE47F01AD97
:0581680047AC467E0655
:08816D008E508F518C528D538E
:10817500900284122F6B74B5122AD2900284122FAA
:108185006B9000017462122AE4E550900002122AF5
:10819500E4E551900003122AE4E553900004122A05
:1081A500E4E552900005122AE4E4F555F5547F0202
:1081B500FEE5532406FDE43552FCC3EF9DEE9C50CD
:1081C5001C900284122F6B8F828E83122A72255483
:1081D500F5542555F5550FBF00010E80D490028446
:1081E500122F6BE5532406FFE435528F82F583E5A4
:1081F50054122AE4E5532407FFE435528F82F583B0
:10820500E555122AE47B017A027977E5532408FDC6
:07821500E43552FC0288DD94
:063DC4008B318A328933C5
:103DCA00900DA5E0700804F01200A602443EAB3143
:103DDA00AA32A933122BCF12302C3DF4010240E74C
:0A3DEA00010641C801120000443830
:103DF40074062533F533E43532F5327537007538FA
:103E04000075393FE4F53AF53B7831E475F0011279
:103E14002F5B122A59FF783774FFF5F0122F5BEFEE
:103E2400122AD2053BE53B7002053A6404453A7018
:103E3400D8AC3CEC3350047F0180027F008F40AF4C
:103E44003FAE3EAD3DAC3CEC334002800BAF3FAEE9
:103E54003EAD3DAC3C122DC38F3F8E3E8D3D8C3C20
:103E6400AB34AA35A93690000A122F2B00000000AB
:103E7400E4F53AF53BAB34E536240AF9E43535FA92
:103E8400C003C002C001122E1EC004C005C006C07B
:103E940007E47B0AFAF9F8AF3FAE3EAD3DAC3C1205
:103EA4008BA0AC00AD01AE02AF03C004C005C006D8
:103EB400C007E53BAE3A7802C333CE33CED8F924FB
:103EC40053F582748C3EF583122EC4D007D006D0ED
:103ED40005D004122C99A804A905AA06AB07D0079B
:103EE400D006D005D004122C7ED001D002D003120B
:103EF4002E6EAF3FAE3EAD3DAC3CE47B0AFAF9F822
:103F0400128BA08F3F8E3E8D3D8C3C053BE53B7074
:103F140002053A640A453A6003023E79E5406015B9
:103F2400AB34AA35A93690000A122E3E122DC39046
:103F3400000A122E8875370075380075393FE4F58C
:103F44003AF53B7831E475F001122F5B122A59FFE0
:103F5400783774FFF5F0122F5BEF122AD2053BE598
:103F64003B7002053A6404453A70D8AC3CEC3350DB
:103F7400047F0180027F008F40AF3FAE3EAD3DAC79
:103F84003CEC334002800BAF3FAE3EAD3DAC3C1247
:103F94002DC38F3F8E3E8D3D8C3CAB34AA35A93664
:103FA400900006122F2B00000000E4F53AF53BAB1D
:103FB40034E5362406F9E43535FAC003C002C001FD
:103FC400122E1EC004C005C006C007E47B0AFAF91D
:103FD400F8AF3FAE3EAD3DAC3C128BA0AC00AD01A2
:103FE400AE02AF03C004C005C006C007E53BAE3A4D
:103FF4007802C333CE33CED8F92453F582748C3E81
:10400400F583122EC4D007D006D005D004122C9903
:10401400A804A905AA06AB07D007D006D005D0048A
:10402400122C7ED001D002D003122E6EAF3FAE3ED2
:10403400AD3DAC3CE47B0AFAF9F8128BA08F3F8EBD
:104044003E8D3D8C3C053BE53B7002053A640A45D8
:104054003A6003023FB3E5406015AB34AA35A93694
:10406400900006122E3E122DC3900006122E887464
:10407400042533F533E43532F532753700753800ED
:1040840075393FE4F53AF53B7831E475F001122FC8
:104094005B122A59FF783774FFF5F0122F5BEF1289
:1040A4002AD2053BE53B7002053A6404453A70D8D0
:1040B400AF3FAE3EAD3DAC3CE47BE87A03F9F81289
:1040C4008BA08F3F8E3E8D3D8C3CAB34AA35A936F8
:1040D40090000EEE8FF0122C519002C1E04404F0D7
:1040E40002443EAB31AA32A93390002F122A72FE49
:1040F40090002E122A727C002400FFEC3E90029164
:10410400F0A3EFF0900031122A72900C80F0740248
:104114002533F533E43532F532FAA93390000B1226
:104124002A72540D640D6008E4900C80F00241BEC4
:10413400E5362403F9E43535853437F5388939E42F
:10414400F53AF53B7831E475F001122F5B122A59E8
:10415400FF783774FFF5F0122F5BEF122AD2053B7C
:10416400E53B7002053A6404453A70D8740425337B
:10417400F533E43532F532E5362404F9E43535FA1D
:10418400E92401F9E43A853437F5388939E4F53A14
:10419400F53B7831E475F001122F5B122A59FF7850
:1041A4003774FFF5F0122F5BEF122AD2053BE53B83
:1041B4007002053A6402453A70D89002C1E04402A4
:0441C400F002443E83
:1041C80074062533F533E43532F532AB31FAA933C9
:1041D800122E1E8F3F8E3E8D3D8C3C7808122DF896
:1041E800E4FFE4FDFCC004C005C006C007AF3FAE55
:1041F8003EAD3DAC3C7818122DF8E4FEFDFCD00332
:10420800D002D001D000122DB6C004C005C006C02F
:1042180007AF3FAE3EAD3DAC3C7808122E0BE4FF35
:10422800FEE4FCD003D002D001D000122DB6C004A9
:10423800C005C006C007AF3FAE3EAD3DAC3C7818E8
:10424800122E0BE4FFFEFDECD003D002D001D0000B
:10425800122DB68F3F8E3E8D3D8C3CE47B64FAF97F
:10426800F8128BA08F3F8E3E8D3D8C3C8E428F4343
:1042780074042533F533E43532F532AB31FAA9331A
:10428800122E1E8F3F8E3E8D3D8C3C7808122DF8E5
:10429800E4FFE4FDFCC004C005C006C007AF3FAEA4
:1042A8003EAD3DAC3C7818122DF8E4FEFDFCD00381
:1042B800D002D001D000122DB6C004C005C006C07F
:1042C80007AF3FAE3EAD3DAC3C7808122E0BE4FF85
:1042D800FEE4FCD003D002D001D000122DB6C004F9
:1042E800C005C006C007AF3FAE3EAD3DAC3C781838
:1042F800122E0BE4FFFEFDECD003D002D001D0005B
:10430800122DB68F3F8E3E8D3D8C3CE47B64FAF9CE
:10431800F8128BA08F3F8E3E8D3D8C3C8E408F4196
:1043280074042533F533E43532F532AB31FAA93369
:10433800122E1E8F3F8E3E8D3D8C3C7808122DF834
:10434800E4FFE4FDFCC004C005C006C007AF3FAEF3
:104358003EAD3DAC3C7818122DF8E4FEFDFCD003D0
:10436800D002D001D000122DB6C004C005C006C0CE
:1043780007AF3FAE3EAD3DAC3C7808122E0BE4FFD4
:10438800FEE4FCD003D002D001D000122DB6C00448
:10439800C005C006C007AF3FAE3EAD3DAC3C781887
:1043A800122E0BE4FFFEFDECD003D002D001D000AA
:1043B800122DB68F3F8E3E8D3D8C3CE47B64FAF91E
:1043C800F8128BA08F3F8E3E8D3D8C3CC3E49FF549
:1043D80045E49EF544E5405407FEE47803CEC31354
:1043E800CE13D8F9AB34AA35A936900010122AE4B6
:1043F800E5425407FEE47806CEC313CE13D8F990ED
:104408000010122A9FE5445403900010122A9FE5D9
:1044180041900011122AE4E543900012122AE4E5C3
:0E44280045900013122AE49002C1E04401F016
:104436008006753A00753B019002C1E0640760038F
:104446000245FAF0900C80E060030245759000008A
:10445600E075F015A42496F9740235F0FA7B01A8EC
:1044660036AC35AD347E007F15122A33AB34AA350F
:10447600A936122E1EEF24FAFFE43EFEE43DFDE4CB
:104486003CFC122E6E900000E0640175F015A42429
:1044960096F582E43402F583122EACE4FBFAF9F8C1
:1044A600C3122DE77003024575AB34E5362406F9D1
:1044B600E43535FAC003C002C001122E1EC004C086
:1044C60005C006C007900000E0FF640175F015A462
:1044D600249CF582E43402F583122EB8EF75F015AC
:1044E600A4249CF582E43402F583122EAC122C8BA4
:1044F600A804A905AA06AB07D007D006D005D004A4
:10450600122C7ED001D002D003122E6EAB34E536CB
:10451600240AF9E43535FAC003C002C001122E1E82
:10452600C004C005C006C007900000E0FF64017526
:10453600F015A424A0F582E43402F583122EB8EF18
:1045460075F015A424A0F582E43402F583122EAC8E
:10455600122C8BA804A905AA06AB07D007D006D053
:1045660005D004122C7ED001D002D003122E6E90FC
:104576000000E06401F0E075F015A42496F97402D9
:1045860035F0A801FC7D01AB34AA35A9367E007F43
:1045960015122A33906C1CE493FF3395E0FE9002CB
:1045A6007175F013EF122F4FEE75F013A42583F5F6
:1045B60083122F6BE92407F9E43A8B37F5388939EA
:1045C600900C80E0FF7837E475F001122F5BEF1254
:1045D6002AD2A839AC38AD37AB34AA35A9367E0015
:1045E6007F15122A33754B00754C167B227D037F8F
:0445F60002127667D0
:0145FA00229E
:1023E6000227ACE86480F8E933E83360110460F052
:1023F600ED33EC337009E8FCE9FDEAFEEBFF22045D
:1024060060DED3EB9FEA9EE99DE8C2E78CF0C2F757
:1024160095F0400CE8CCF8E9CDF9EACEFAEBCFFB23
:1024260012277785D0F05804700320D5B3E80470DE
:10243600075002B2D50227B692D5EC0460F7E4CC79
:10244600C0E0C398F8603B94186008400DD0E0FBEC
:1024560002278EE4FBFAC9FC8028E830E406E4C9CA
:10246600FBE4CAFCE830E305E4C9CACBFCE8540740
:102476006010F8C3E913F9EA13FAEB13FBEC13FC4B
:10248600D8F130F52FC3E49CFCEF9BFFEE9AFEEDEE
:1024960099FDD0E0FBEF4E4D4C701222DB03022774
:1024A600B3EC2CFCEF33FFEE33FEED33FDED30E7FE
:1024B600EB02278EEF2BFFEE3AFEED39FDD0E0FB67
:1024C60050130BBB00030227B6ED13FDEE13FEEF10
:0824D60013FFEC13FC02278E3A
:1024DE00EC4D6011E8497017ED33EC3304600DE4F8
:1024EE00FCFFFEFD22E933E8330470F80227AC123C
:1024FE00277758046009E4CC24815006285009023D
:10250E0027B62840030227B3C0E0EB4A7044B980D7
:10251E0006D0E0FB0227A2EF4E701CBD8008EBFF39
:10252E00EAFEE9FD80EBE98DF0A4FEE5F00225C799
:10253E00E9CDF9EAFEEBFFEF89F0A4FCE5F0CE89D8
:10254E00F0A42EFFE435F0CD89F0A42DFEE435F095
:10255E008067EF4E7005BD80D780C3EF8BF0A4ACC3
:10256E00F0EE8BF0A42CFCE435F0F8EF8AF0A42CFE
:10257E00E5F038FCE433CB8DF0A42CFCE5F03BF811
:10258E00EE8AF0A42CFCE5F038F8E433CF89F0A401
:10259E002CFCE5F038CF3400CE89F0A42FFFE5F007
:1025AE003EFEE433C98DF0A42EFEE5F039CD8AF05F
:1025BE00A42FFFE5F03EFEE43DFD33D0E0FB5007D7
:1025CE000BBB000F0227B6EC2CFCEF33FFEE33FEF5
:0625DE00ED33FD02278E23
:1025E4000227B6EC5D046005E8590470030227ACC9
:1025F400122777580460F6EC4860F2EC7004FDFE94
:10260400FF22C860DB2481C85009C39860025006C9
:102614000227B39850CAF582E9294B4A7005AB8268
:102624000227A275F0007C1A7880C3EF9BEE9AED26
:1026340099400DC3EF9BFFEE9AFEED99FDE842F041
:10264400DC23ACF0D0E0FFD0E0FED0E0FDAB822094
:10265400E7101BEB60BAEC2CFCEF33FFEE33FEED1E
:1026640033FD02278EE803F830E705C0F075F0006B
:10267400EF2FFFEE33FEED33FD40B830E7C280AA02
:1026840074F8CC6480CCC86480C8F582046043C309
:10269400EB9FF5F0EA9E42F0E99D42F0E89C45F09C
:1026A40060305018E5825FFFE582F42B5582FB50C1
:1026B400210ABA001D09B90019088016E5825BFBDE
:1026C400E582F42F5582FF50090EBE00050DBD00B2
:1026D400010CC3EB9FF5F0EA9E42F0E99D42F0E85D
:0D26E4009C45F06007CC4820E701B3EC22D4
:1026F100ED33EC33600A047003BD8004ECB2E7FCF7
:0127010022B5
:1027020075F020800E75F010800575F0087D007E52
:10271200007F003392D530D503122DC3EC33401025
:10272200EF33FFEE33FEED33FDEC33FCD5F0ED225B
:0E273200E5F0247EA2D513CC92E7CDCEFF2297
:10274000EDD2E7CD33EC3392D524814006E4FFFE91
:10275000FDFC22FCE4CFCECDCC24E0501174FF80F0
:10276000EDC3CC13CCCD13CDCE13CECF13CF04708D
:07277000F030D5DE022DC39D
:10543C00E55F244BF8E6055F227848300702784B8D
:10544C00E475F001122F5B022A592000EB7F2ED25B
:10545C00008018EF540F2490D43440D4FF30040B48
:10546C00EF24BFB41A0050032461FFE560600215FD
:10547C00600563E5637002056230070D7848E475DA
:10548C00F001122F5BEF022AD2028CA97403D2070F
:10549C008003E4C207F55F8B488A49894AE4F560CA
:1054AC00F562F563E56060077F2012547780F5752F
:1054BC0061FFC201C200C202C203C205C206C20819
:1054CC00125445FF700D3007057F00125488AF63EE
:1054DC00AE6222B4255FC2D5C204125445FF24D05B
:1054EC00B40A00501A75F00A786030D50508B6FF7A
:1054FC000106C6A426F620D5047002D20380D92456
:10550C00CFB41A00EF5004C2E5D204025775D20191
:10551C0080C6D20080C0D20280BCD2D580BAD2055F
:10552C0080B47F201254772002077401B5600040CC
:10553C00F112543CFF1254770254B0D208D20680B8
:10554C009512543CFB12543CFA12543CF94A4B70E1
:10555C0006796C7A587BFF20022EE560602A7E006B
:10556C008E82758300122A7260060EEE656170F0F1
:10557C00C2D5EBC0E0EAC0E0E9C0E0EE1257D5D0EE
:10558C00E0F9D0E0FAD0E0FB122A59FF60AAEBC098
:10559C00E0EAC0E0E9C0E0125477D0E02401F9D091
:1055AC00E03400FAD0E0FBE5610460DCD561D98021
:1055BC0087D20280A21257B860F7E561700104121D
:1055CC0027C1A961600DE561600914F56112585F8E
:1055DC00EF60F3EA30E702F404C3995077EAF4255C
:1055EC00610430E701E404F561800D1257B860C125
:1055FC00EA056125611227C1EA785EF630E701E41D
:10560C00256104D56104200501141257D5E4C0E0CE
:10561C0012585F785EE6601320E70714F612545FA9
:10562C00802204F6D0E014C0E07F0012545FE561E4
:10563C0060071254561561800B300503125456D076
:10564C00E00254B0D0E00480C51257B860A0E56108
:10565C00041227C1785EEAF6E561200502600104B8
:05566C0024041257D5D3
:1056710074FF04C0E012585F12545FE56120050217
:105681006003125456D0E0B561E87F451254697841
:105691005EE67F2B30E7047F2DF404C0E0125477DF
:1056A100D0E075F00A84C0F0125460D0E01254606A
:1056B1000254B0791080027908C206C2088008D26B
:1056C100D5790A8004790AC2D5E561047002F561D1
:1056D100E4FAFDFEFF12543CFC7B08200113125436
:1056E1003CFD7B1030000A12543CFE12543CFF7BFF
:1056F10020EC3382D592D55013C3E43000069FFFCE
:10570100E49EFEE42001039DFDE49CFCE4CBF8C291
:1057110001EC700CCFCECDCCE824F8F870F38017F3
:10572100C3EF33FFEE33FEED33FDEC33FCEB33FB24
:10573100994002FB0FD8E9EB300105F8D0E0C448ED
:10574100B201C0E00AEC4D4E4F78207B0070C2EAF6
:10575100B5610040BCC0E01257D7D0F0D0E02001C5
:1057610004C4C0E0C4B201C0F0125460D0F0D5F05E
:10577100EB0254B0123006554D5356B458551E4CD9
:10578100551A4256B84F56C04456C0495533435630
:10579100C65555F74656554555C147588C50552263
:1057A1002D55262E55492B552A2355472058752A04
:1057B10054E24800005541E561B4FF0375610612EA
:1057C100543CFC12543CFD12543CFE12543CFF78F4
:1057D100570227F0790AA2D5200314300509B91020
:1057E100020404B9080104A2D520060250010420D4
:1057F10002689202B560005034C0E07F2030031986
:105801007F30A20272067205500F12582EC202C2D8
:1058110006C205C2087F30800F300503E9C0E012DF
:105821005477300503D0E0F9D0E0B560CC300517EE
:105831007F30B9100C1254777F583004077F78807D
:1058410003B908031254773002057F2D0254777F84
:10585100202008F87F2B2006F322920280CF7F00C0
:10586100B4070050052457F8E6FF22286E756C6CCA
:105871002900D20112543C3001F8C201786030D5C0
:105881000108F60254E22D5043495812543C2403B6
:10589100B405004001E490588793125468743A1299
:0A58A1005468D2037560040256B487
:10277700E9D2E7C933E833F892D5EDD2E7CD33ECA8
:0727870033FC5002B2D52221
:10278E00EC30E7100FBF000C0EBE00080DBD0004AC
:10279E000BEB6014A2D5EB13FCED92E7FD2274FF58
:1027AE00FCFDFEFF22E480F8A2D574FF13FC7D80B1
:0327BE00E480EFC5
:1027C100F920E72824F950037907E4F42402FB18DF
:1027D100DBFDE624FB5014E9600DE4F618E604F68F
:0F27E100B40A08E4F6D9F57401F60A22C2D5222B
:1027F000ED33EC3392D5FA602AB4FF33EDC2E77BB8
:10280000FF60067A287915E4227A28791E20D504FB
:102810007A287919224E614E002B494E46002D49E7
:102820004E4600E47A08F608DAFC7B00740722E8DA
:10283000C0E0ECC0E0EDC0E0EEC0E0EFC0E0EA7563
:10284000F010A4CAABF075F04DA42BFBE435F0FCFE
:10285000EA2410FAEB34C5FBEC34D9FCEDC2E7FFF7
:1028600075F056A4F42411C5F0F434C58FF0A42AF1
:10287000E5F03BE43CF620E714122923D0E0FFD03A
:10288000E0FED0E0FDD0E0FC1225E78014F4041255
:102890002923D0E0FFD0E0FED0E0FDD0E0FC122400
:1028A000DED0E0F8E6FAEDD2E7CD33EC332482FB5C
:1028B000E4C3CF33CFCE33CECD33CD33DBF37B0781
:1028C00075F00A846004F6081B0AE5F0F6088FF03C
:1028D000740AA4FFACF08EF0740AA42CFEACF05085
:1028E000010C8DF0740AA42CFDE435F0F608DBDE53
:0328F00074072248
:1028F3003F8000004120000042C80000447A0000ED
:10290300461C400047C35000497424004B1896806E
:102913004CBEBC205A0E1BCA6753C21C749DC5AE65
:10292300FB60065407601C2323122951EB543860C3
:102933000912293D12294C1224DEECF8EDF9EEFAC6
:10294300EFCB22EB12294C80F1543803241C90283E
:10295300F3FE93FC0EEE93FD0EEE930ECE93FF2249
:0300000002853B3B
:0C853B00787FE4F6D8FD7581750285821A
:10296300E709F608DFFA8046E709F208DFFA803E56
:1029730088828C83E709F0A3DFFA8032E309F60843
:10298300DFFA8078E309F208DFFA807088828C83AB
:10299300E309F0A3DFFA806489828A83E0A3F6085F
:1029A300DFFA805889828A83E0A3F208DFFA804C39
:1029B30080D280FA80C680D4806980F28033801010
:1029C30080A680EA809A80A880DA80E280CA803379
:1029D30089828A83ECFAE493A3C8C582C8CCC583F1
:1029E300CCF0A3C8C582C8CCC583CCDFE9DEE780C1
:1029F3000D89828A83E493A3F608DFF9ECFAA9F040
:102A0300EDFB2289828A83ECFAE0A3C8C582C8CC95
:102A1300C583CCF0A3C8C582C8CCC583CCDFEADEAE
:102A2300E880DB89828A83E493A3F208DFF980CC10
:102A330088F0EF60010E4E60C388F0ED2402B40409
:102A43000050B9F582EB2402B4040050AF232345B0
:062A530082239029B373F9
:102A5900BB010689828A83E0225002E722BBFE027B
:092A6900E32289828A83E49322AE
:102A7200BB010CE58229F582E5833AF583E0225019
:102A820006E92582F8E622BBFE06E92582F8E22263
:0D2A9200E58229F582E5833AF583E493227D
:102A9F00BB010FF8E58229F582E5833AF583E0283B
:102AAF00F0225009C58229F8E58226F622BBFE09DD
:102ABF00C58229F8E22582F222F8EA2583F583E917
:032ACF0093282227
:102AD200BB010689828A83F0225002F722BBFE01E3
:022AE200F322DD
:102AE400F8BB010DE58229F582E5833AF583E8F028
:102AF400225006E92582C8F622BBFE05E92582C8D4
:022B0400F222BB
:102B0600EF8DF0A4A8F0CF8CF0A428CE8DF0A42EE3
:022B1600FE229D
:102B1800BC000BBE0029EF8DF084FFADF022E4CCA1
:102B2800F875F008EF2FFFEE33FEEC33FCEE9DEC6A
:102B3800984005FCEE9DFE0FD5F0E9E4CEFD22EDB0
:102B4800F8F5F0EE8420D21CFEADF075F008EF2FFA
:102B5800FFED33FD4007985006D5F0F222C398FDEB
:052B68000FD5F0EA2288
:102B6D00C2D5EC30E709B2D5E4C39DFDE49CFCEE83
:102B7D0030E715B2D5E4C39FFFE49EFE122B18C3B8
:102B8D00E49DFDE49CFC8003122B1830D507C3E4B3
:062B9D009FFFE49EFE22F2
:102BA300C5F0F8A3E028F0C5F0F8E58215827002BD
:062BB3001583E038F0225A
:102BB900A3F8E0C5F025F0F0E582158270021583CF
:062BC900E0C838F0E8222C
:102BCF00BB010A89828A83E0F5F0A3E022500687D1
:102BDF00F009E71922BBFE07E3F5F009E319228993
:0B2BEF00828A83E493F5F074019322C6
:102BFA00BB0110E58229F582E5833AF583E0F5F019
:102C0A00A3E0225009E92582F886F008E622BBFEF5
:102C1A000AE92582F8E2F5F008E222E5832AF5833B
:082C2A00E993F5F0A3E9932200
:102C3200BB010A89828A83F0E5F0A3F0225006F7ED
:0F2C420009A7F01922BBFE06F3E5F009F31922EA
:102C5100F8BB0111E58229F582E5833AF583E8F0B5
:102C6100E5F0A3F0225009E92582C8F608A6F02272
:0D2C7100BBFE09E92582C8F2E5F008F22259
:0D2C7E00EF2BFFEE3AFEED39FDEC38FC22A5
:0E2C8B00C3EF9BFFEE9AFEED99FDEC98FC2244
:102C9900E88FF0A4CC8BF0A42CFCE98EF0A42CFCDA
:102CA9008AF0EDA42CFCEA8EF0A4CDA8F08BF0A458
:102CB9002DCC3825F0FDE98FF0A42CCD35F0FCEBB7
:102CC9008EF0A4FEA9F0EB8FF0A4CFC5F02ECD397C
:0F2CD900FEE43CFCEAA42DCE35F0FDE43CFC22E9
:102CE80075F008758200EF2FFFEE33FECD33CDCCA3
:102CF80033CCC58233C5829BED9AEC99E582984026
:102D08000CF582EE9BFEED9AFDEC99FC0FD5F0D602
:102D1800E4CEFBE4CDFAE4CCF9A88222B800C1B92C
:102D28000059BA002DEC8BF084CFCECDFCE5F0CB6A
:102D3800F97818EF2FFFEE33FEED33FDEC33FCEBA3
:102D480033FB10D703994004EB99FB0FD8E5E4F95E
:102D5800FA227818EF2FFFEE33FEED33FDEC33FC4B
:102D6800C933C910D7059BE99A4007EC9BFCE99A3F
:102D7800F90FD8E0E4C9FAE4CCFB2275F010EF2F84
:102D8800FFEE33FEED33FDCC33CCC833C810D70784
:102D98009BEC9AE899400AED9BFDEC9AFCE899F8BF
:0E2DA8000FD5F0DAE4CDFBE4CCFAE4C8F92252
:108BA000C2D5E830E70FB2D5E4C39BFBE49AFAE400
:108BB00099F9E498F8EC30E717B2D5128BD6122D5C
:108BC00024E4C39BFBE49AFAE499F9E498F880035F
:108BD000122D2430D50DE4C39FFFE49EFEE49DFDDD
:048BE000E49CFC22F3
:0D2DB600EF4BFFEE4AFEED49FDEC48FC221C
:0E2DC300C3E49FFFE49EFEE49DFDE49CFC2221
:102DD100EB9FF5F0EA9E42F0E99D42F0EC6480C879
:062DE10064809845F02219
:102DE700EB9FF5F0EA9E42F0E99D42F0E89C45F042
:012DF70022B9
:102DF800E8600FECC313FCED13FDEE13FEEF13FFB9
:032E0800D8F122DC
:102E0B00E8600FEFC333FFEE33FEED33FDEC33FC25
:032E1B00D8F122C9
:102E1E00BB010789828A83022EAC5005E9F8023085
:102E2E005FBBFE05E9F802306B89828A8302307738
:102E3E00BB010DE58229F582E5833AF583022EACBE
:102E4E005007E92582F802305FBBFE07E92582F8BC
:102E5E0002306BE58229F582E5833AF583023077FD
:102E6E00BB010789828A83022ED45005E9F802300D
:0A2E7E0087BBFE05E9F8023093223D
:102E8800BB010DE58229F582E5833AF583022ED44C
:102E98005007E92582F8023087BBFE07E92582F84A
:042EA800023093223F
:0C2EAC00E0FCA3E0FDA3E0FEA3E0FF2299
:0C2EB800E0F8A3E0F9A3E0FAA3E0FB229D
:102EC400E493F8740193F9740293FA740393FB2264
:0C2ED400ECF0A3EDF0A3EEF0A3EFF02271
:102EE000A8828583F0D083D082122EF7122EF7129B
:102EF0002EF7122EF7E473E493A3C583C5F0C583C0
:102F0000C8C582C8F0A3C583C5F0C583C8C582C83B
:012F1000229E
:102F1100BB010789828A83022EE05005E9F802305D
:0A2F21009FBBFE05E9F80230B8225C
:102F2B00BB010DE58229F582E5833AF583022EE09C
:102F3B005007E92582F802309FBBFE07E92582F88E
:042F4B000230B82276
:0C2F4F00A42582F582E5F03583F583228D
:102F5B00FAE6FB0808E6F925F0F618E6CA3AF62277
:092F6B00E0FBA3E0FAA3E0F92267
:092F7400EBF0A3EAF0A3E9F0225E
:102F7D00BB010DE58229F582E5833AF583022F6BBE
:102F8D005007E92582F80230D1BBFE07E92582F80A
:102F9D000230E3E58229F582E5833AF5830230F5C7
:102FAD00BB0120E58229F582E5833AF583D0F0D087
:102FBD00E0F8D0E0F9D0E0FAD0E0FBE8C0E0C0F0F6
:102FCD00022F745018E92582F8D083D082D0E0F911
:102FDD00D0E0FAD0E0FBC082C0830230DABBFE182D
:102FED00E92582F8D083D082D0E0F9D0E0FAD0E0A4
:092FFD00FBC082C0830230EC220B
:10300600D083D082F8E4937012740193700DA3A359
:1030160093F8740193F5828883E47374029368606D
:06302600EFA3A3A380DF6D
:10302C00D083D082F8E4937012740193700DA3A333
:10303C0093F8740193F5828883E473740293B5F06A
:0D304C00067403936860E9A3A3A3A380D8D2
:063059008A838982E47302
:108CA900EFB40A07740D128CB4740A309811A8999C
:108CB900B8130CC2983098FDA899C298B811F6302B
:078CC90099FDC299F5992203
:0F8CE100EFC394204007EF947F50028001C3221D
:10000E00E4FFFE122A59600C0FEF70010E09E97021
:05001E00F20A80EF2250
:10854700023101E493A3F8E493A34003F68001F218
:1085570008DFF48029E493A3F85407240CC8C33335
:10856700C4540F4420C8834004F456800146F6DF04
:10857700E4800B0102040810204080908093E47E81
:10858700019360BCA3FF543F30E509541FFEE493F9
:10859700A360010ECF54C025E060A840B8E493A3C0
:1085A700FAE493A3F8E493A3C8C582C8CAC583CAEB
:1085B700F0A3C8C582C8CAC583CADFE9DEE780BEA3
:018157000027
:0C305F00E6FC08E6FD08E6FE08E6FF229D
:0C306B00E2FC08E2FD08E2FE08E2FF22A1
:10307700E493FC740193FD740293FE740393FF229F
:0C308700ECF608EDF608EEF608EFF62275
:0C309300ECF208EDF208EEF208EFF22279
:10309F00D083D082E493F608740193F608740293F8
:0930AF00F608740393F67404732F
:1030B800D083D082E493F208740193F208740293E7
:0930C800F208740393F27404731E
:0930D100E6FB08E6FA08E6F92224
:0930DA00EBF608EAF608E9F6221B
:0930E300E2FB08E2FA08E2F9221E
:0930EC00EBF208EAF208E9F22215
:0C30F500E493FB740193FA740293F92237
:00000001FF
