:106ADD00436F7079726967687420284329203230BA
:106AED0030352D3720547261636B20537973746583
:106AFD006D7320546563686E6F6C6F676965732C79
:106B0D00204C4C43000200FF000000C0C1C18101B8
:106B1D0040C30103C00280C241C60106C00780C741
:106B2D00410500C5C1C4810440CC010CC00D80CD10
:106B3D00410F00CFC1CE810E400A00CAC1CB810BDF
:106B4D0040C90109C00880C841D80118C01980D9B1
:106B5D00411B00DBC1DA811A401E00DEC1DF811F3F
:106B6D0040DD011DC01C80DC411400D4C1D5811550
:106B7D0040D70117C01680D641D20112C01380D361
:106B8D00411100D1C1D0811040F00130C03180F1F0
:106B9D00413300F3C1F28132403600F6C1F781373F
:106BAD0040F50135C03480F4413C00FCC1FD813D10
:106BBD0040FF013FC03E80FE41FA013AC03B80FBE1
:106BCD00413900F9C1F88138402800E8C1E981292F
:106BDD0040EB012BC02A80EA41EE012EC02F80EF41
:106BED00412D00EDC1EC812C40E40124C02580E550
:106BFD00412700E7C1E68126402200E2C1E381235F
:106C0D0040E10121C02080E041A00160C06180A170
:106C1D00416300A3C1A28162406600A6C1A781673E
:106C2D0040A50165C06480A4416C00ACC1AD816D0F
:106C3D0040AF016FC06E80AE41AA016AC06B80ABE0
:106C4D00416900A9C1A88168407800B8C1B98179AE
:106C5D0040BB017BC07A80BA41BE017EC07F80BF40
:106C6D00417D00BDC1BC817C40B40174C07580B54F
:106C7D00417700B7C1B68176407200B2C1B381735E
:106C8D0040B10171C07080B041500090C1918151EF
:106C9D0040930153C052809241960156C057809740
:106CAD0041550095C1948154409C015CC05D809D0F
:106CBD00415F009FC19E815E405A009AC19B815BDE
:106CCD0040990159C058809841880148C049808930
:106CDD00414B008BC18A814A404E008EC18F814F3E
:106CED00408D014DC04C808C41440084C18581454F
:106CFD0040870147C046808641820142C043808360
:096D0D0041410081C18081404038
:107F560050001A00000000000000000000000000B1
:107F6600000000430BF9000000410BF800410C7CB7
:107F76000A41000500026900000265000050002E5B
:107F860000000000000000000000000000000000EB
:107F9600016D0041028F00410C8300420002000087
:107FA600410C7F004202620000410C7E00410C82BF
:107FB600004202930000410001004100040041021A
:107FC600C200410BB200410C7D00026E0000026748
:107FD60000004202960000410292004102C30041A5
:107FE60000000044002AFFFFFFFF44003EFFFFFFA2
:0F7FF600FF420016FFFF420018FFFF4102C404C4
:1028D40075840F75FFDE75FFAD1289B1128A5C53E2
:1028E400B0BF53B0DF53B0EF1280E512005E753015
:1028F4000175310975321C7B017A0B79F6127E70F1
:10290400900C7C7414F0E4900292F0127BA01245B7
:102914002EE4900000F0900000E0FFC3942A5018C9
:10292400EF75F015A42498F582E43402F583E4F0FD
:10293400900000E004F080DEE4900000F01288983B
:102944007F007E96120026128DE4128BDCE4900246
:1029540069F090027C7402F0900285744EF07B0161
:102964007A0279C5900278121AE47A09791E9002E3
:102974008B121AE47A0679FF900275121AE47A0B24
:1029840079B3900288121AE4E4900268F090027B12
:1029940004F0900272744EF0E490027DF0A3F09083
:1029A400026AF0A3F0900287F0900274F09002861D
:1029B400F0900273F01BFAF9900282121AE490026A
:1029C4007F121AE490026F121AE490026C121AE455
:1029D4000B7A0279687F007EC27D017C00126F4D04
:1029E4007B017A02797B7F007EE17D007C00126F9F
:0829F4004DD2AFE5E830E0FB35
:1029FC00900C84121A6A0000AFC8E4FFFEFDFC9034
:102A0C000C84121A42D312195B4017900C84121AC0
:102A1C003674FFFBFAF9F8121816900C84121A5E31
:022A2C0080D850
:102A2E00E4900296F0A3F043F88090028FE06021CC
:0F2A3E00C390001FE094B890001EE0940B50125C
:102A4D0012753812007E8F2AE52A30E7F653F87F8B
:022A5D0080FEF9
:102A5F0090025CE0606F900260E0FEA3E0FFA3E0F5
:102A6F00FCA3E0FD6F7002EC6E705A90025DE024E3
:102A7F00FD603204704FED2428FEE43C900260F0BC
:102A8F00A3CEF090025D7403F090025CE024FE6030
:102A9F000F1460092402702D43C810802843C810FA
:102AAF0043C820802090025D7404F090025CE02403
:102ABF00FE600F1460092402700B53C8EF80065399
:102ACF00C8EF53C8DF90026C121ADBE94A4B602B38
:102ADF0090026C121ADB8B2A8A2B892C7B007A00CE
:102AEF00790090026C121AE4AB2AAA2BA92CE4FFEE
:0B2AFF00123E98900C89EEF0A3EFF05F
:0F2B0A00C3900297E094F0900296E0940040157B
:102B190012753812007E8F2AE52A30E7F653F87FBE
:052B2900E4F5F880FE58
:102B2E00E5E830E060C3900297E09409900296E0E9
:102B3E009400404A53B0DF900BF8E0241F60342419
:102B4E00FE603324E3703743B0401250ED75300011
:102B5E007531007532677B007A00796E125D5B907D
:102B6E000005EFF0900BF87002800F74E1F043B0A7
:102B7E0040800B127544E4900BF8F053B0BFE49014
:102B8E000296F0A3F0900C7EE07003022C19E4F094
:102B9E009002C2E0FF64F07026900BF8EFF0E4F5BF
:102BAE006EF56F90000574FFF043B00843B04043DC
:102BBE00B02043B010C2A853E7FD53E7BF8014EF17
:102BCE00B4F117900BF8F053B0F753B0BF53B0DF1A
:102BDE0053B0EFE49002C2F08031EF64F2702C90AB
:102BEE000BF8EFF043B00843B04043B02043B010B1
:102BFE00900BF7E024FFFD900BF6E034FFFCE4FBB6
:102C0E00FFFE12874BE4F58443EF01900BF8E0646E
:102C1E00E16003022A3890028FE07003022D5BD32D
:102C2E0090001FE094B890001EE0940B4007E490D3
:102C3E00028FF0800690028F7401F0C3E56A940A49
:102C4E00E569648094804006756900756A09900094
:102C5E0020E0FEA3E0FFEF24FBFFEE34EBFEE434B6
:102C6E00FFFDE434FFFCE47BE87A03F9F812182345
:102C7E00E47BE57A24F9F8128C6B90028EEFF0E08B
:102C8E0024CEF09002C4E06003022A38C3E56694B5
:102C9E000AE5656480948040067565007566099046
:102CAE00001CE0540FFD90001AE0540FC4F854F0CD
:102CBE00C8E4C4540F482DFF90005F75F033E56AE9
:102CCE00121ABFE56975F033A42583F58375F003F9
:102CDE00E566121ABFE56575F003A42583F583EF4B
:102CEE00F090001AA3E0FF90006075F033E56A12D1
:102CFE001ABFE56975F033A42583F58375F003E5F6
:102D0E0066121ABFE56575F003A42583F583EFF00F
:102D1E0090001CA3E0FF90006175F033E56A121A73
:102D2E00BFE56975F033A42583F58375F003E56679
:102D3E00121ABFE56575F003A42583F583EFF00540
:102D4E0066E56670020565126041022A38900287B8
:092D5E00E0FF900286E06F606D59
:102D6700EF75F0DCA4FF90028B121ADBE92FF9EA6A
:102D770035F08B2AF52B892C900287E0FFB40204EB
:102D87007F008003EF04FF900287EFF090028EE050
:102D9700FF90005E75F033E56A121ABFE56975F0BA
:102DA70033A42583F583EFF0AE69AF6A7C007D33EA
:102DB700121666744A2FF974003E753001F5318991
:0A2DC70032AB2AAA2BA92C123051BE
:102DD100022A38900C83E0FD7017900002E0FEA3F8
:102DE100E0FF900262E06E7003A3E06F6003022ACD
:102DF10038900C7CE0FC74A08CF08475F00AA4FF80
:102E0100900263E02401FB900262E03400CB2FFECC
:102E1100EB35F0900002F0A3CEF0ED700E900C8235
:102E2100F090000274FFF5F01217039002C4E0FF66
:102E3100606D900C83E0700302303490025CE060BE
:012E4100345C
:102E4200EC900C88B428057406F080037404F090AA
:102E52000C88E0B5071E90025D7402F0A3E0FEA3A9
:102E6200E0FF900263E02FFF900262E03E9002607A
:042E7200F0A3EFF0EA
:102E76009002C4E014F06003023034F565F566F59F
:102E860069F56A90091DE024FFFE90091CE034FFF5
:102E9600900006F0A3CEF0023034C3E566940AE54E
:102EA60065648094804003023031E5664565707A3A
:102EB600900C57E0540FFD900C55E0540FC4F85495
:102EC600F0C8E4C4540F482DFF90005F75F033E559
:102ED6006A121ABFE56975F033A42583F58375F088
:102EE60003E566121ABFE56575F003A42583F5832D
:102EF600EFF0900C55E0A3E0FF90006075F033E52D
:102F06006A121ABFE56975F033A42583F58375F057
:102F160003E566121ABFE56575F003A42583F583FC
:102F2600EFF0900C57E0A3022FFB90005C75F03396
:102F3600E56A121ABFE56975F033A42583F5837532
:102F4600F003E566121ABFE56575F003A42583F55F
:102F560083E0FF90005F75F033E56A121ABFE569FA
:102F660075F033A42583F58375F003E566121ABF61
:102F7600E56575F003A42583F583EFF090005D7594
:102F8600F033E56A121ABFE56975F033A42583F5B7
:102F96008375F003E566121ABFE56575F003A4258F
:102FA60083F583E0FF90006075F033E56A121ABF7F
:102FB600E56975F033A42583F58375F003E566129C
:102FC6001ABFE56575F003A42583F583EFF090003D
:102FD6005E75F033E56A121ABFE56975F033A4250C
:102FE60083F58375F003E566121ABFE56575F00390
:102FF600A42583F583E0FF90006175F033E56A123E
:103006001ABFE56975F033A42583F58375F003E5EA
:1030160066121ABFE56575F003A42583F583EFF004
:103026000566E56670020565022EA012824EE490E2
:103036000C83F09002C3F0900C82E0600863B0202D
:0B304600E4F0022A3853B0DF022A3801
:10824E00C3E56A9409E5696480948050030282EA6A
:10825E0090091CE0FCA3E0FD7B017A00794A856E53
:10826E004D856F4E7F027E0012842FE56824FFFF3E
:10827E00E56734FFFEC3E56F9FE56E9E402CAD684B
:10828E00AC677F017E001286CE900005E0FFAB68E2
:10829E00AA67AD6FAC6E127D12E4900BF8F0900CE5
:1082AE0082F053B0BF53B0DF8008056FE56F7002E8
:1082BE00056EE4FFFED390091DE09F90091CE09E21
:1082CE004013744A2FF58274003EF583E4F00FBF1D
:1082DE0000010E80E0E4F569F56A8008056AE56A3A
:0982EE0070020569E4F565F5660E
:0182F7002264
:0C75380053B0F753B0BF53B0DF53B0EFB7
:1075440053B0BF53B0DF900BF8E064E170279002B2
:10755400C4E07011900292E0600BAD68AC677F01EB
:107564007E001286CE900005E0FFAB68AA67AD6F7F
:0D757400AC6E127D1290025DE06403706D3C
:10758100900C8B121A6A00015F90E4FFFEFDFC90E3
:107591000C8B121A42D312195B4017900C8B121AE2
:1075A1003674FFFBFAF9F8121816900C8B121A5E5A
:0275B10080D880
:0375B300E4F5C834
:1075B600900C8F121A6A00020F58E4FFFEFDFC9031
:1075C6000C8F121A42D312195B4017900C8F121AA5
:1075D6003674FFFBFAF9F8121816900C8F121A5E21
:0275E60080D84B
:1075E80090025D7404F090025DE06404600302762A
:0175F800EAA8
:1075F900900C93121A6A00015F90E4FFFEFDFC9063
:107609000C93121A42D312195B4017900C93121A59
:107619003674FFFBFAF9F8121816900C93121A5ED9
:0276290080D807
:10762B0090025CE024FE6044146076240260030246
:05763B0076EA43C810CF
:10764000900C97121A6A0001B774E4FFFEFDFC90DB
:107650000C97121A42D312195B4017900C97121A0A
:107660003674FFFBFAF9F8121816900C97121A5E8E
:0276700080D8C0
:0876720053C8EF807343C820E8
:10767A00900C9B121A6A0001B774E4FFFEFDFC909D
:10768A000C9B121A42D312195B4052900C9B121A8D
:10769A003674FFFBFAF9F8121816900C9B121A5E50
:0276AA0080D886
:0676AC0043C81043C82092
:1076B200900C9F121A6A0001B774E4FFFEFDFC9061
:1076C2000C9F121A42D312195B4017900C9F121A88
:1076D2003674FFFBFAF9F8121816900C9F121A5E14
:0276E20080D84E
:1076E40053C8EF53C8DF90025D7401F0E4F5C8227B
:1050ED00E4F569F56AF565F566900C82F0A3F0902C
:1050FD00091CE0FEA3E0FF7B017A00794A754700A9
:10510D0075480112839490004DE0540F900BB2F04E
:10511D0090004EE0900C7DF090004CE075F01690F4
:10512D00011F121ABFE0A3E0540F900295F09000FA
:10513D004CE075F016900121121ABFE0FFA3E0902C
:10514D000290CFF0A3EFF0900BB2E024FC6014249A
:10515D00027027900C7C7414F090025EE4F0A3743E
:10516D00608026900C7C7428F090025EE4F0A374AD
:10517D0062F09002C47406F08016900C7C740AF0F4
:10518D0090025E7401F0A37458F09002C47404F0A0
:10519D00900C7DE0900292F0900290E0FCA3E0FD77
:1051AD004C700890000CF0A3F08067900295E070B1
:1051BD001E121267A804A905AA06AB07E4FFFE7D1F
:1051CD007A7C481211471212A07C007DF080389035
:1051DD000295E0B40F037410F0900290E0FCA3E090
:1051ED00FDE4121267A804A905AA06AB07E4FFFEA9
:1051FD007D7A7C481211471212A0900295E0FD7441
:10520D00788DF084FD7C0012166690000CEEF0A3F4
:10521D00EFF0E5D820E008E4900292F002554A7BC9
:10522D00017A00794A7547007548037F107E021296
:10523D008394E4F52DF52E90006275F028E52E127D
:10524D001ABFE52D75F028A42583F583E024FB60B6
:10525D001524FB70227464252EF5827402352DF50C
:10526D00837403F080207464252EF5827402352D2D
:10527D00F5837402F0800F7464252EF58274023567
:10528D002DF5837404F0052EE52E7002052D6404B2
:10529D00452D70A39001F0E0540F900008F090019F
:1052AD00F0E054F0C4540F900009F090025D7401C9
:1052BD00F0900008E0B40312A3E090025CB4030583
:1052CD007403F080197401F08014900009E0B403A8
:1052DD000890025C7402F08005E490025CF0E4F545
:1052ED002DF52E90006F75F028E52E121ABFE52DC5
:1052FD0075F028A42583F583E0FDE52E25E0FFE577
:10530D002D33FE740F2FF58274003EF583EDF09072
:10531D00006375F028E52E121ABFE52D75F028A44F
:10532D002583F583121A4290006775F028E52E1239
:10533D001ABFE52D75F028A42583F583121A3612B0
:10534D000F49C004C005C006C00790006375F02862
:10535D00E52E121ABFE52D75F028A42583F58312CD
:10536D001A4290006B75F028E52E121ABFE52D75C7
:10537D00F028A42583F583121A36120F49D003D0D5
:10538D0002D001D000121147E4FBFAF9F81211E432
:10539D0090006375F02860054003025428E52E1235
:1053AD001ABFE52D75F028A42583F583121A4290B6
:1053BD00006775F028E52E121ABFE52D75F028A4AB
:1053CD002583F583121A36120F49C004C005C00695
:1053DD00C00790006375F028E52E121ABFE52D75F4
:1053ED00F028A42583F583121A4290006B75F028DE
:1053FD00E52E121ABFE52D75F028A42583F583122D
:10540D001A36120F49D003D002D001D00012114725
:10541D00C004C005C006C0070254AEE52E121ABF67
:10542D00E52D75F028A42583F583121A42900067A7
:10543D0075F028E52E121ABFE52D75F028A42583E9
:10544D00F583121A36120F49C004C005C006C007F5
:10545D0090006375F028E52E121ABFE52D75F02822
:10546D00A42583F583121A4290006B75F028E52E62
:10547D00121ABFE52D75F028A42583F583121A366F
:10548D00120F49D003D002D001D0001211471212D1
:10549D0051AB07AA06A905A804C000C001C002C0EF
:1054AD000390007075F028E52E121ABFE52D75F0EA
:1054BD0028A42583F583E0FF90007175F028E52E73
:1054CD00121ABFE52D75F028A42583F583E0C39F3F
:1054DD00FDE49400FCE4121267D003D002D001D099
:1054ED000012103EC004C005C006C00790007075C4
:1054FD00F028E52E121ABFE52D75F028A42583F5A9
:10550D0083E0FCE412126CD003D002D001D0001263
:10551D000F4D1212A0AD07E52E25E0FFE52D33FE50
:10552D00740E2FF58274003EF583EDF0052EE52EF9
:10553D007002052D6404452D60030252F090029215
:10554D00E030E7034403F0E4F52DF52ED390091D6B
:10555D00E0952E90091CE0952D4018744A252EF5E6
:10556D00827400352DF583E4F0052EE52E70DD05F2
:03557D002D80D9A5
:015580002208
:09604100900292E0700302631565
:03604A00752D06AB
:10604D00AF2D900292E0FEA807088002C313D8FC82
:10605D0020E003026307E52D121B7661E30061DA90
:10606D000160CB0260CB0360890460890560810605
:10607D0000006270E5D8F4F52E026270AF2DEF339B
:10608D0095E0FEEF25E0FFEE33FE741E2FF58274D2
:10609D00003EF583E0FEA3E0FFAD2DED3395E0FC72
:1060AD0074622DF58274023CF583E0FDEFA80508BE
:0E60BD008005CEC313CE13D8F9F52E02627003
:1060CB00E4F52FAF2DEF3395E0FEEF25E0FFEE3338
:1060DB00FE741E2FF58274003EF583E0FEA3E0FFF5
:1060EB00AD2DED3395E0FC74622DF58274023CF519
:1060FB0083E0FBEFA803088005CEC313CE13D8F9BA
:10610B00F52E74062DF58274003CF583E064026075
:10611B0003026270AF2DEF3395E0FEEF25E0FFEE4B
:10612B0033FE740B2FF58274003EF583E06023047D
:10613B00604624FE706A740A2FF58274003EF58364
:10614B00E0FFE52ED39F40047F0180027F008F2F5D
:10615B00804EAF2DEF3395E0FEEF25E0FFEE33FEE3
:10616B00740A2FF58274003EF583E0B52E047F018F
:10617B0080027F008F2F8028AF2DEF3395E0FEEF4D
:10618B0025E0FFEE33FE740A2FF58274003EF58393
:10619B00E0FFE52EC39F50047F0180027F008F2F0D
:1061AB00E52F6015E52D2402FF7401A80708800276
:1061BB00C333D8FC42C8026270E52D2402FF740180
:0F61CB00A807088002C333D8FCF452C8026270E0
:0961DA0090025AE0F52E026270F9
:1061E30090025AE0FEA3E0FFF52E90000CE0FCA322
:1061F300E0FD4C6078EF4E6074D3ED9FEC9E503819
:10620300E4F52FF53074082530F5827400352FF549
:1062130083E0B40113E5302404FF7401A807088068
:1062230002C333D8FCF452C80530E5307002052FA1
:106233006402452F70CF8035E4F52FF530740825BF
:1062430030F5827400352FF583E0B40112E5302474
:1062530004FF7401A807088002C333D8FC42C805B1
:0D62630030E5307002052F6402452F70D029
:1062700075370075380075392E900006E0FAA3E0F6
:10628000FB7D017C007F017E00128547900006E0C7
:106290007002A3E0600C90000674FFF5F012170383
:1062A0008065AD68AC677F017E001286CEE568240C
:1062B000FFFFE56734FFFEC3E56F9FE56E9E402359
:1062C000900005E0FFAB68AA67AD6FAC6E127D125F
:1062D000E4900BF8F0900C82F053B0BF53B0DFF5B0
:1062E000C88024E56815687002156790091CE0FCF9
:1062F000A3E0FD24FFFEEC34FF900006F0A3CEF0F7
:076300007F017E0012882AD4
:0E630700152DC3E52D64809480400302604D87
:016315002265
:1088FC008B4B8A4C894DE92DF9EA3C8B4EF54F890F
:10890C0050E4F551F552C3854F83855082E54D9562
:10891C0082E54C9583502F784BE475F001121ACBFD
:10892C001215B9FFE5526F25E0FFE433FE74162FE4
:10893C00F582746B3EF583E551FFE493F5517401B8
:0A894C00936FF55280C0AE51AF5298
:0189560022FE
:1080050002080001010C00020D00004210BF000033
:048015004110C10055
:068957008B518A52895386
:10895D00858454AB51AA52A95390000212175A455F
:10896D00F070F0AB51AA52A95390000D121AEDC040
:10897D0003C002C001AB51AA52A953900007121BAC
:10898D001DAB51AA52A953900002EC8DF01217E9BC
:10899D001215B97006F584D2998005758401D299A6
:0389AD008554846A
:0189B00022A4
:108DC400AE84E4F5848F9B30FFFDC2FFAF9B8E849D
:018DD400227C
:1089B100AF8475840F759601758C67E4FDFC0DBD60
:1089C10000010CE4B505F7ECB401F3E58C30E7FBED
:1089D100759701E4F58A758905F58475B720758465
:1089E1000F758D01758F01758E03FCFD0DBD0001A5
:1089F1000CE4B505F7ECB401F3438902E58930E4F1
:068A0100FB7597028F8453
:018A0700224C
:0E6F4D008B2D8A2E892F8F338E328D318C3012
:106F5B008584341215B914606F04600302714DE41B
:106F6B00F58475911590000A1215D224BB60182474
:106F7B00F6601424EA601024F760071460092421DA
:106F8B00700875985080037598D0E4F58475C80423
:106F9B0075C908AB33AA32A931A830FFFE7D657CD9
:106FAB00041218AEE47B10FAF9F81218AE12194D50
:106FBB008ECB8FCA74FFF5CDF5CCD2CAE4F584C263
:106FCB0099C298D2AC02714D758401AB2DAA2EA932
:106FDB002F90000A1215D224BB601824F6601424DB
:106FEB00EA601024F7600714600924217008759873
:106FFB00108003759890E4F58453890F438920AB77
:10700B0033AA32A931A830FFFE7D657C041218AE7D
:10701B00E47B02FAF9F81218AEE4FB7A01F9F812E4
:10702B0018AEE47B01FAF9F8D31219714026AB3391
:10703B00AA32A931A830E4FFFE7D657C041218AE9C
:10704B00E47B02FAF9F81218AE12194D8F8D438EAC
:10705B001002713EAB33AA32A931A830E4FFFE7D9A
:10706B00657C041218AEE47B02FAF9F81218AEE450
:10707B00FB7A01F9F81218AEE47B04FAF9F8D31293
:10708B0019714031AB33AA32A931A830E4FFFE7D30
:10709B00657C041218AEE47B02FAF9F81218AEE420
:1070AB007B04FAF9F81218AE12194D8F8D538EEC32
:1070BB00438E01807EAB33AA32A931A830E4FFFEA8
:1070CB007D657C041218AEE47B02FAF9F81218AE57
:1070DB00E4FB7A01F9F81218AEE47B0CFAF9F8D359
:1070EB00121971AB33AA32A931A830E4FFFE7D65CA
:1070FB007C04401F1218AEE47B02FAF9F81218AEAA
:10710B00E47B0CFAF9F81218AE12194D8F8D538ED1
:10711B00EC80201218AEE47B02FAF9F81218AEE4F8
:10712B007B30FAF9F81218AE12194D8F8D538EEC85
:10713B00438E02858D8BD28E758401C299C2984382
:05714B00E740853484DB
:01715000221C
:10005E00AF84E4F584759D04759A70C2FFD2F88F53
:01006E00840D
:01006F00226E
:10002600AD84758401E4F5C8F5C9EF2408FFE43E04
:10003600FEC3E49FFFE49EF5CB8FCA74FFF5CDF5B2
:09004600CC43E70143C8048D849A
:01004F00228E
:0300230002715116
:10715100C0E0C0F0C083C082C0D075D000C000C004
:0D71610001C002C003C004C005C006C00785
:10716E00E59820E0030272EA8599225398FEE5081D
:10717E0060030272B6E50924FE60631470030272A6
:10718E001D147003027282240360030272B6750D21
:10719E0000750E00E522641660030272B69002734B
:1071AE00E0FF7E007C027D1D121666900278121A98
:1071BE00DBE92FF9EA3E8B0FF5108911FA050EE582
:1071CE000EAE0D7002050D14F5828E83E522121699
:1071DE0044E522620C7508007509020272B6AB0F07
:1071EE00AA10A911050EE50EAE0D7002050D14F5CF
:1071FE00828E83E522121644E522620CE50E6406A9
:10720E00450D60030272B6F5087509030272B6AB3E
:10721E000FAA10A911050EE50EAE0D7002050D1484
:10722E00F5828E83E522121644630CFFE50C65226F
:10723E007031AB0FAA10A9119000031215D2750A66
:10724E0000F50B750B00F50A9000041215D2250BF4
:10725E00F50BE4350AF50A450B604775080075090C
:10726E00048045750D00750E0075080075090175D1
:10727E000C00803443B010AB0FAA10A911050EE517
:10728E000EAE0D7002050D14F5828E83E5221216D8
:10729E0044E50B2407FFE4350AFEEFB50E0AEEB502
:1072AE000D06750800750905E50964054508702C7D
:1072BE0053B0EFF508750901F50DF50EF50C9002BA
:1072CE006C121ADBE94A4B7013AB0FAA10A911907E
:1072DE00026C121AE4900273E06401F0E59830E15A
:1072EE004090026AE07002A3E0602443B010900266
:1072FE006F121ADB1215B9F599900270E475F00150
:10730E0012170390026A74FFF5F0121703800F53E1
:10731E00B0EF7B007A00790090026F121AE4539856
:01732E00FD61
:10732F00D007D006D005D004D003D002D001D000B2
:0B733F00D0D0D082D083D0F0D0E0325C
:0300A300026D16D5
:106D1600C0E0C0F0C083C082C0D075D000C000C043
:096D260001C002C003C006C00751
:106D2F00E59820E003026EC18599239010C1E0120F
:106D3F001B766D60006D71016D84026DD4036E0161
:106D4F00046E1A056E41066E82076E930800006E80
:106D5F00BEE52364B56003026EBE9010C104F0025D
:106D6F006EBEE5239010C1B462067402F0026EBECF
:106D7F00E4F0026EBE7518007517009010BFE4F0B6
:106D8F00A3F0900286E075F0DCA4FF90028B121A3C
:106D9F00DBE92FF9EA35F08B12F5138914FA90100D
:106DAF00BFE475F00112171985F082F583E5231200
:106DBF001644E5232517F5172518F5189010C174FB
:106DCF0003F0026EBEAB12AA13A9149010BFE475A4
:106DDF00F00112171985F082F583E523121644E5A9
:106DEF00232517F5172518F5189010C17404F00214
:106DFF006EBE751500852316E5232517F517251883
:106E0F00F5189010C17405F0026EBEE523FEE4255F
:106E1F0016F516EE3515F515E5232517F517251873
:106E2F00F518E51645159010C1700280417406F0F3
:106E3F00807DAB12AA13A9149010BFE475F0011254
:106E4F00171985F082F583E523121644E5232517DC
:106E5F00F5172518F518E5162402FFE43515FE90F1
:106E6F0010BFE06E7003A3E06F70449010C1740701
:106E7F00F0803CE5179010C1B523057408F0802F02
:046E8F00E4F0802B80
:106E9300900286E0FFB402067E007F008003EF04C9
:106EA300FF8F24E518B5230E900287E06524600662
:0B6EB300900286E524F09010C1E4F08E
:106EBE005398FEE59830E17090027DE07002A3E0F9
:106ECE006057900285E024BB601A24E0601624F619
:106EDE00600424207022900282121ADB1215B9303F
:106EEE00E00E8011900282121ADB1215B930E00505
:106EFE0043980480035398FB900282121ADB1215FA
:106F0E00B9F599900283E475F00112170390027D92
:106F1E0074FFF5F0121703800C7B007A0079009055
:086F2E000282121AE45398FDDF
:106F3600D007D006D003D002D001D000D0D0D08266
:076F4600D083D0F0D0E0324F
:030073000285CC37
:1085CC00C0E0C0F0C083C082C0D075D000C000C075
:0385DC0006C007CF
:1085DF0075840153C87F900262E475F0011217038E
:1085EF00E4FFFE74F92FF582E4340BF583E0600DA0
:1085FF0074F92FF582E4340BF583E014F00FBF000C
:10860F00010EEF64034E70DB75840FE5E820E01672
:10861F00C3900297E094FF900296E094FF5007E416
:10862F0075F00112170375840075BB00C2EDD2EC13
:10863F00D007D006D000D0D0D082D083D0F0D0E0F9
:01864F0032F8
:1080E500E4900CCBF07B017A0B79FC128A08900C9A
:1080F50065E07004A3E06482700C900C67E0700486
:10810500A3E064066018900C65E4F0A37482F09017
:108115000C67E4F0A37406F0900CCB7401F0900C9E
:108125004EE0B46508900C4DE064016010900C4E73
:108135007465F0900C4D7401F0900CCBF0900BFC35
:10814500E0FF128DD5400D900BFCE06007E4F09048
:108155000CCB04F0900C10E0FF128DD5400D900C67
:1081650010E06007E4F0900CCB04F0900C24E0FFE5
:10817500128DD5400D900C24E06007E4F0900CCBF7
:1081850004F0900CCBE06010128D477B017A0B79DF
:08819500FC7D807C001287BB19
:01819D0022BF
:108D4700AF84E4F584781EF608F6A2AF33FEC2AF0F
:108D570043B701758F0718E6FC08E6F5828C83E4B4
:0D8D6700F0F58F53B7FEEE24FF92AF8F841E
:018D740022DC
:0A87BB008B3F8A4089418C428D43B8
:1087C500858444E4F584781EF608F6A2AF33FFC22B
:1087D500AF43B701758F05E4F545F546C3E5469505
:1087E50043E5426480F8E5456480985029783FE484
:1087F50075F001121ACB1215B9FE781E0806E61897
:10880500860470010614F5828C83EEF00546E54674
:1088150070CA054580C6E4F58F53B7FEEF24FF9275
:04882500AF85448453
:01882900222C
:068A08008B3F8A4089410A
:108A0E00858442E4F543F544F584A2AF33F545C2BF
:108A1E00AF758F04E4FFFE0544E544AC43700205D8
:108A2E004314F5828C83E493FD783FE475F00112D4
:108A3E001ACBED1216320FBF00010EEF64804E708E
:0D8A4E00D6E4F58FE54524FF92AF85428404
:018A5B0022F8
:0E842F008E468F478C488D498B4A8A4B894C6C
:0A843D0012007EEF30E7F953F8FD5E
:10844700E4F551F5520552E5527002055164404575
:038457005170F26F
:10845A00E5476401454670047F8480027F87128D58
:10846A00C4E4FF128DC4E4FF128DC4E4FF128DC46C
:10847A00E4F54FF550C3E5509549E5486480F8E5C1
:10848A004F648098501DAB4AAA4BA94C85508285EF
:10849A004F831215D2FF128DC40550E55070D605D0
:1084AA004F80D243F802AD4EAC4DAF47AE4602867E
:0184BA00CEF3
:0886CE008E538F548C558D561C
:1086D60090091CE0FEA3E0FF1282F88F5712007E7D
:0786E600EF30E7F953F8FD46
:1086ED00E4F558F5590559E55970020558644045AA
:0386FD005870F2C0
:10870000E5576010E5546401455370047F8380127F
:108710007F86800EE5546401455370047F82800299
:108720007F85128DC4E556AE557806CEA2E713CEEE
:1087300013D8F8FF128DC4AF56EF25E025E0FF12E5
:0A8740008DC4E4FF128DC443F8025B
:01874A00220C
:0C8547008E318F328C338D348A358B36A8
:0A85530012007EEF30E7F953F8FD47
:10855D00E4F53CF53D053DE53D7002053C644045C7
:03856D003C70F26D
:10857000E5326401453170047F8480027F87128D6B
:10858000C4E4FF128DC4E5355403FF128DC4AF3629
:10859000E536128DC4E4F53AF53BC3E53B9534E589
:1085A000336480F8E53A648098501DAB37AA38A947
:1085B00039853B82853A831215D2FF128DC4053B63
:0B85C000E53B70D6053A80D243F8027C
:0185CB00228D
:08882A008E338F348C358D363E
:0A88320012007EEF30E7F953F8FD65
:10883C00E4F539F53A053AE53A70020539644045F4
:03884C003970F28E
:10884F00E5346401453370047F8480027F87128D85
:10885F00C4E4FF128DC4E4FF128DC4E4FF128DC473
:10886F00E4F537F538C3E5389536E5356480F8E536
:10887F0037648098500F7FFF128DC40538E538702C
:08888F00E4053780E043F80224
:0188970022BE
:03007E0053F8FD37
:10008100E4F563F5640564E5647002056364404565
:030091006370F2A7
:0D0094007FD7128DC4E4FF128DC443F80223
:0100A100223C
:0A8394008E428F438B448A458946D0
:0A839E0012007EEF30E7F953F8FDFE
:1083A800E4F54BF54C054CE54C7002054B64404533
:0383B8004B70F215
:1083BB007FD2128DC4E548AE477806CEA2E713CE26
:1083CB0013D8F8FF128DC4AF48EF25E025E0FF125C
:1083DB008DC4E4FF128DC4E4FF128DC4E4FF128D33
:1083EB00C4E4FF128DC4E4FF128DC4E4F549F54AD1
:1083FB00C3E54A9543E5426480F8E54964809850AB
:10840B001FE4FF128DC4AB44AA45A946854A828559
:10841B004983EF121644054AE54A70D4054980D0CA
:03842B0043F80211
:01842E00222B
:0882F8008E5A8F5B8C5C8D5DDA
:0D830000755E0112007EEF30E7F953F8FDC5
:10830D00E4F561F5620562E5627002056164404560
:03831D006170F29A
:108320007FD2128DC4E55DAE5C7806CEA2E713CE97
:1083300013D8F8FF128DC4AF5DEF25E025E0FF12E2
:108340008DC4E4FF128DC4E4FF128DC4E4FF128DCE
:10835000C4E4FF128DC4E4FF128DC4E4F55FF56040
:10836000C3E560955BE55A6480F8E55F64809850EA
:108370001DE4FF128DC4BFFF047F0180027F008FC8
:108380005EEF600A0560E56070D6055F80D243F855
:0383900002AF5EDB
:0183930022C7
:048AFC008E428F43D4
:0A8B000012007EEF30E7F953F8FD94
:108B0A00E4F544F5450545E54570020544644045EC
:038B1A004470F2B2
:108B1D007F50128DC4E543AE427806CEC313CE13FB
:108B2D00D8F9FF128DC4AF43EF25E025E0FF128D7C
:098B3D00C4E4FF128DC443F802E8
:018B4600220C
:048B47008E428F4388
:0A8B4B0012007EEF30E7F953F8FD49
:108B5500E4F544F5450545E54570020544644045A1
:038B65004470F267
:108B68007F81128DC4E543AE427806CEC313CE137F
:108B7800D8F9FF128DC4AF43EF25E025E0FF128D31
:098B8800C4E4FF128DC443F8029D
:018B910022C1
:06874B008C3D8D3E8B3FCA
:10875100E53F600353B0BF8E408F41D3E541953E65
:10876100E540953D504CE54154077035C3E53E95D4
:1087710041FFE53D9540FEC3EF9408EE9400402192
:10878100E53F6009E541543F700363B040AF41AE3E
:1087910040128AFC74072541F541E43540F54080DB
:1087A10007AF41AE40128B470541E54170AD054031
:0987B10080A9E53F600353B0BF4D
:0187BA00229C
:067E70008B2D8A2E892FE4
:097E760043F80143F80253F8FB44
:107E7F00E4F533F5340534E53470020533644045D9
:037E8F003370F25B
:037E920043F804AE
:107E9500E4F533F5340534E53470020533644045C3
:037EA5003370F245
:107EA80012007EEF543C121B767ECA0C7ED4147EE0
:107EB800DE1C7EE8247F032C7F1E347F393C0000C3
:107EC8007F55AB2DAA2EA92F7402801CAB2DAA2E8C
:107ED800A92F74048012AB2DAA2EA92F740880082C
:107EE800AB2DAA2EA92F741075F0001217CAAB304B
:107EF800AA31A932740175F008804FAB2DAA2EA9BA
:107F08002F741075F0001217CAAB30AA31A9327459
:107F18000275F0108034AB2DAA2EA92F742075F0AD
:107F2800001217CAAB30AA31A932740275F010805A
:107F380019AB2DAA2EA92F742075F0001217CAAB01
:0D7F480030AA31A932740475F0201217CA56
:017F55002209
:10631600257300506C61636520756E697420666C28
:106326006174206F6E206C6576656C20737572667D
:106336006163652E00486F6C6420766572746963CC
:10634600616C2C2047505320616E74656E6E61201F
:106356006A61636B2075702E00486F6C64207665E9
:1063660072746963616C2C2047505320616E7465AA
:106376006E6E61206A61636B20646F776E2E0053C8
:1063860074616E64206F6E20726967687420736929
:1063960064652E005374616E64206F6E206C6566B2
:1063A6007420736964652E00496E76657274696E31
:1063B6006720582056616C75657300496E76657264
:1063C60074696E6720592056616C756573002000EC
:1063D60043616C6962726174696F6E2056616C7597
:1063E60065733A2025752C20257500416374756107
:1063F6006C205A65726F20506F696E74733A20581C
:106406002025752C205920257500582052616E676D
:10641600653A2025642C20256400592052616E6758
:10642600653A2025642C2025640053746F72696ECA
:10643600672043616C6962726174696F6E204461A2
:10644600746120696E20466C6173682E0043616C2E
:106456006962726174696F6E20436F6D706C6574EA
:10646600652E00547261716D61746520496E707598
:1064760074205465737400444947494E3A200031EC
:10648600003000583A2025752C20593A20257500F1
:1064960035563A2025752C20543A20257500413072
:1064A6003A2025752C2041313A2025750041323A93
:1064B6002025752C2041333A20257500496E7075CC
:1064C600745465737420436F6D706C6574652E002B
:1064D600547261716D617465204F757470757420A6
:1064E6005465737400626974202564004F75747076
:1064F60075745465737420436F6D706C6574652E86
:106506000025752C25750043616C3A2025642C25E1
:10651600640056616C3A2025752C257500582C2090
:1065260059205A65726F6564204F75740046696E0E
:10653600616C2043616C3A2025642C256400466911
:106546006E616C2056616C3A2025752C25750044C9
:10655600617461666C6173682054657374002A2ADD
:106566002A2A2A2A20466C61736820577269746544
:10657600204641494C4544202A2A2A2A2A2A2C20E8
:10658600706167652025642C206279746525640036
:10659600466C617368206F6B2070616765202564A7
:1065A6000044617461666C6173685465737420435A
:1065B6006F6D706C6574652E000102040810204032
:0965C6008001020408102040804D
:101D5A0085843C9000047401F075840FFB7A0B793A
:101D6A00FC128A08E4900C4CF0906B1293900C4D84
:101D7A00F0A37465F0900C65E4F0A37482F0900C03
:101D8A0067E4F0A37406F074FFFFFEFDFC900C4FAD
:101D9A00121A42C3121971700A900C4F121A6A0071
:101DAA00000000900C53E0B4FF037401F0900C544F
:101DBA00E0B4FF037407F0900C6974FFF0A3F0908D
:101DCA000C557408F0A3E4F0900C577408F0A3E4DF
:101DDA00F0900BFCF0900C10F0900C24F0900C6337
:101DEA00F0A374A0F0900C61E4F0A374A0F0E49066
:101DFA000296F0A3F043B00843B04043B02043B08A
:101E0A0010906B1393FF3395E0FE90027575F013F3
:101E1A00EF121ABFEE75F013A42583F583121ADBAD
:101E2A00E92407F9E43AFA7545FF754663754716DA
:101E3A007548FF754963754A191255DD906B13E4AD
:101E4A0093FF3395E0FE90027575F013EF121ABFF7
:101E5A00EE75F013A42583F583121ADBE92407F93A
:101E6A00E43AFA12000EEF2401F546E43EF54590F5
:101E7A006B12E493FF7B737D0112736A12687F12FF
:0E1E8A004B6053B0F753B0BF53B0DF53B0EF0F
:101E9800900C97121A6A000107ACE4FFFEFDFC9053
:101EA8000C97121A42D312195B4017900C97121A0A
:101EB8003674FFFBFAF9F8121816900C97121A5E8E
:021EC80080D8C0
:101ECA00906B13E493FF3395E0FE90027575F0135F
:101EDA00EF121ABFEE75F013A42583F583121ADBED
:101EEA00E92407F9E43AFA7545FF7546637547161A
:101EFA007548FF754963754A3B1255DD906B13E4CB
:101F0A0093FF3395E0FE90027575F013EF121ABF36
:101F1A00EE75F013A42583F583121ADBE92407F979
:101F2A00E43AFA12000EEF2401F546E43EF5459034
:101F3A006B12E493FF7B737D0112736A12687F90C0
:101F4A0010BBE0FEA3E0FF9010B8E02FFF9010B79F
:101F5A00E03EC313FEEF13FF900C5BEEF0A3EFF02D
:031F6A0043B00879
:101F6D00900C9B121A6A000107ACE4FFFEFDFC9079
:101F7D000C9B121A42D312195B4017900C9B121A2C
:101F8D003674FFFBFAF9F8121816900C9B121A5EB4
:021F9D0080D8EA
:101F9F00906B13E493FF3395E0FE90027575F01389
:101FAF00EF121ABFEE75F013A42583F583121ADB17
:101FBF00E92407F9E43AFA7545FF75466375471644
:101FCF007548FF754963754A5F1255DD906B13E4D1
:101FDF0093FF3395E0FE90027575F013EF121ABF61
:101FEF00EE75F013A42583F583121ADBE92407F9A4
:101FFF00E43AFA12000EEF2401F546E43EF545905F
:10200F006B12E493FF7B737D0112736A12687F90EA
:10201F0010BBE0FEA3E0FF9010B8E02FFF9010B7C9
:10202F00E03EC313FEEF13FF900C59EEF0A3EFF059
:03203F0043B0406B
:10204200900C9F121A6A000107ACE4FFFEFDFC909F
:102052000C9F121A42D312195B4017900C9F121A4E
:102062003674FFFBFAF9F8121816900C9F121A5EDA
:0220720080D814
:10207400906B13E493FF3395E0FE90027575F013B3
:10208400EF121ABFEE75F013A42583F583121ADB41
:10209400E92407F9E43AFA7545FF7546637547166E
:1020A4007548FF754963754A851255DD906B13E4D5
:1020B40093FF3395E0FE90027575F013EF121ABF8B
:1020C400EE75F013A42583F583121ADBE92407F9CE
:1020D400E43AFA12000EEF2401F546E43EF5459089
:1020E4006B12E493FF7B737D0112736A12687F9015
:1020F40010BDE0FEA3E0FF9010BAE02FFF9010B9EE
:10210400E03EC313FEEF13FF900C5DEEF0A3EFF07F
:0321140043B020B5
:10211700900CA3121A6A000107ACE4FFFEFDFC90C5
:102127000CA3121A42D312195B4017900CA3121A70
:102137003674FFFBFAF9F8121816900CA3121A5E00
:0221470080D83E
:10214900906B13E493FF3395E0FE90027575F013DD
:10215900EF121ABFEE75F013A42583F583121ADB6B
:10216900E92407F9E43AFA7545FF75466375471698
:102179007548FF754963754A9A1255DD906B13E4EA
:1021890093FF3395E0FE90027575F013EF121ABFB5
:10219900EE75F013A42583F583121ADBE92407F9F8
:1021A900E43AFA12000EEF2401F546E43EF54590B3
:1021B9006B12E493FF7B737D0112736A12687F903F
:1021C90010BDE0FEA3E0FF9010BAE02FFF9010B918
:1021D900E03EC313FEEF13FF900C5FEEF0A3EFF0A8
:1021E90043B010900C59E0FEA3E0FFC3900C5CE0F3
:0B21F9009F900C5BE09E40030222D58B
:10220400900CA7121A6A000107ACE4FFFEFDFC90D3
:102214000CA7121A42D312195B4017900CA7121A7A
:102224003674FFFBFAF9F8121816900CA7121A5E0E
:0222340080D850
:10223600906B13E493FF3395E0FE90027575F013EF
:10224600EF121ABFEE75F013A42583F583121ADB7D
:10225600E92407F9E43AFA7545FF754663754716AA
:102266007548FF754963754AAE1255DD906B13E4E8
:1022760093FF3395E0FE90027575F013EF121ABFC7
:10228600EE75F013A42583F583121ADBE92407F90A
:10229600E43AFA12000EEF2401F546E43EF54590C5
:1022A6006B12E493FF7B737D0112736A900C5BE003
:1022B600F53DA3E0F53E900C59E0FFA3E0900C5BE2
:1022C600CFF0A3EFF0900C59E53DF0A3E53EF0907A
:1022D6000C5DE0FEA3E0FFC3900C60E09F900C5FF6
:0722E600E09E40030223BE4D
:1022ED00900CAB121A6A000107ACE4FFFEFDFC90E6
:1022FD000CAB121A42D312195B4017900CAB121A89
:10230D003674FFFBFAF9F8121816900CAB121A5E20
:02231D0080D866
:10231F00906B13E493FF3395E0FE90027575F01305
:10232F00EF121ABFEE75F013A42583F583121ADB93
:10233F00E92407F9E43AFA7545FF754663754716C0
:10234F007548FF754963754AC11255DD906B13E4EB
:10235F0093FF3395E0FE90027575F013EF121ABFDD
:10236F00EE75F013A42583F583121ADBE92407F920
:10237F00E43AFA12000EEF2401F546E43EF54590DB
:10238F006B12E493FF7B737D0112736A900C5FE015
:10239F00F53DA3E0F53E900C5DE0FFA3E0900C5FF0
:0F23AF00CFF0A3EFF0900C5DE53DF0A3E53EF01D
:1023BE00900CAF121A6A000107ACE4FFFEFDFC9010
:1023CE000CAF121A42D312195B4017900CAF121AAF
:1023DE003674FFFBFAF9F8121816900CAF121A5E4B
:0223EE0080D895
:1023F000906B13E493FF3395E0FE90027575F01334
:10240000EF121ABFEE75F013A42583F583121ADBC1
:10241000E92407F9E43AFA7545FF754663754716EE
:102420007548FF754963754AD41255DD906B13E406
:1024300093FF3395E0FE90027575F013EF121ABF0B
:10244000EE75F013A42583F583121ADBE92407F94E
:10245000E43AFA12000EEF2401F546E43EF5459009
:0C2460006B12E493FF7B737D0112736A22
:10246C00900CB3121A6A000107ACE4FFFEFDFC905D
:10247C000CB3121A42D312195B4017900CB3121AF8
:10248C003674FFFBFAF9F8121816900CB3121A5E98
:02249C0080D8E6
:10249E00906B13E493FF3395E0FE90027575F01385
:1024AE00EF121ABFEE75F013A42583F583121ADB13
:1024BE00E92407F9E43AFA7545FF7546637547D680
:1024CE00900C61E0F548A3E0F549900C63E0F54A05
:1024DE00A3E0F54B1255DD906B13E493FF3395E0BB
:1024EE00FE90027575F013EF121ABFEE75F013A47D
:1024FE002583F583121ADBE92407F9E43AFA120070
:10250E000EEF2401F546E43EF545906B12E493FF81
:07251E007B737D0112736A5B
:10252500900CB7121A6A000107ACE4FFFEFDFC909F
:102535000CB7121A42D312195B4017900CB7121A36
:102545003674FFFBFAF9F8121816900CB7121A5EDA
:0225550080D82C
:10255700906B13E493FF3395E0FE90027575F013CB
:10256700EF121ABFEE75F013A42583F583121ADB59
:10257700E92407F9E43AFA7545FF7546637547F1AB
:10258700900C55E0F548A3E0F549900C57E0F54A63
:10259700A3E0F54B1255DD906B13E493FF3395E001
:1025A700FE90027575F013EF121ABFEE75F013A4C3
:1025B7002583F583121ADBE92407F9E43AFA1200B6
:1025C7000EEF2401F546E43EF545906B12E493FFC8
:0725D7007B737D0112736AA2
:1025DE00900CBB121A6A000107ACE4FFFEFDFC90E2
:1025EE000CBB121A42D312195B4017900CBB121A75
:1025FE003674FFFBFAF9F8121816900CBB121A5E1D
:02260E0080D872
:10261000906B13E493FF3395E0FE90027575F01311
:10262000EF121ABFEE75F013A42583F583121ADB9F
:10263000E92407F9E43AFA7545FF754664754710D1
:10264000900C59E0F548A3E0F549900C5BE0F54AA1
:10265000A3E0F54B1255DD906B13E493FF3395E047
:10266000FE90027575F013EF121ABFEE75F013A409
:102670002583F583121ADBE92407F9E43AFA1200FC
:102680000EEF2401F546E43EF545906B12E493FF0E
:072690007B737D0112736AE8
:10269700900CBF121A6A000107ACE4FFFEFDFC9024
:1026A7000CBF121A42D312195B4017900CBF121AB3
:1026B7003674FFFBFAF9F8121816900CBF121A5E5F
:0226C70080D8B9
:1026C900906B13E493FF3395E0FE90027575F01358
:1026D900EF121ABFEE75F013A42583F583121ADBE6
:1026E900E92407F9E43AFA7545FF75466475472008
:1026F900900C5DE0F548A3E0F549900C5FE0F54AE0
:10270900A3E0F54B1255DD906B13E493FF3395E08D
:10271900FE90027575F013EF121ABFEE75F013A44F
:102729002583F583121ADBE92407F9E43AFA120042
:102739000EEF2401F546E43EF545906B12E493FF54
:072749007B737D0112736A2E
:10275000900CC3121A6A000107ACE4FFFEFDFC9066
:102760000CC3121A42D312195B4017900CC3121AF1
:102770003674FFFBFAF9F8121816900CC3121A5EA1
:0227800080D8FF
:10278200906B13E493FF3395E0FE90027575F0139E
:10279200EF121ABFEE75F013A42583F583121ADB2C
:1027A200E92407F9E43AFA7545FF75466375471659
:1027B2007548FF754964754A301255DD906B13E414
:1027C20093FF3395E0FE90027575F013EF121ABF76
:1027D200EE75F013A42583F583121ADBE92407F9B9
:1027E200E43AFA12000EEF2401F546E43EF5459074
:1027F2006B12E493FF7B737D0112736A128D477B28
:0C280200017A0B79FC7D707C001287BB12
:10280E00900CC7121A6A000107ACE4FFFEFDFC90A3
:10281E000CC7121A42D312195B4017900CC7121A2A
:10282E003674FFFBFAF9F8121816900CC7121A5EDE
:02283E0080D840
:10284000906B13E493FF3395E0FE90027575F013DF
:10285000EF121ABFEE75F013A42583F583121ADB6D
:10286000E92407F9E43AFA7545FF7546637547169A
:102870007548FF754964754A531255DD906B13E432
:1028800093FF3395E0FE90027575F013EF121ABFB7
:10289000EE75F013A42583F583121ADBE92407F9FA
:1028A000E43AFA12000EEF2401F546E43EF54590B5
:1028B0006B12E493FF7B737D0112736A43B008537C
:1028C000B0BF53B0DF53B0EFE4900004F01280E5E6
:0328D000853C84C0
:0128D30022E2
:1037BC0085843C78B77C0C7D017BFF7A6579BF7E74
:0C37CC00007F081215939000047401F0B7
:1037D800900C97121A6A000107ACE4FFFEFDFC90FA
:1037E8000C97121A42D312195B4017900C97121AB1
:1037F8003674FFFBFAF9F8121816900C97121A5E35
:0238080080D866
:10380A00906B13E493FF3395E0FE90027575F01305
:10381A00EF121ABFEE75F013A42583F583121ADB93
:10382A00E92407F9E43AFA7545FF754663754716C0
:10383A007548FF754964754A691255DD906B13E442
:10384A0093FF3395E0FE90027575F013EF121ABFDD
:10385A00EE75F013A42583F583121ADBE92407F920
:10386A00E43AFA12000EEF2401F546E43EF54590DB
:10387A006B12E493FF7B737D0112736AE4900296E4
:03388A00F0A3F0B8
:10388D0075840FE5E830E019C3900297E094099034
:10389D000296E094004003023DCEE4900296F0A320
:0C38AD00F090028FE060D9E4F085D83D77
:1038B900900C9B121A6A0006DDD0E4FFFEFDFC9015
:1038C9000C9B121A42D312195B4017900C9B121AC7
:1038D9003674FFFBFAF9F8121816900C9B121A5E4F
:0238E90080D885
:1038EB00906B13E493FF3395E0FE90027575F01324
:1038FB00EF121ABFEE75F013A42583F583121ADBB2
:10390B00E92407F9E43AFA7545FF754663754716DE
:10391B007548FF754963754AD41255DD906B13E4F6
:10392B0093FF3395E0FE90027575F013EF121ABFFB
:10393B00EE75F013A42583F583121ADBE92407F93E
:10394B00E43AFA12000EEF2401F546E43EF54590F9
:0C395B006B12E493FF7B737D0112736A12
:10396700900C9F121A6A000107ACE4FFFEFDFC9061
:103977000C9F121A42D312195B4017900C9F121A10
:103987003674FFFBFAF9F8121816900C9F121A5E9C
:0239970080D8D6
:103999007545FF75466475477D7B017A0C79BF12C1
:1039A90055DD753E00753F067B017A0C79BF120023
:1039B9000E74BF2FF9740C3EFA7B01C003C002C01C
:1039C9000174B7253FF582740C353EF583E0553D0A
:1039D9007BFF60067A64798580047A6479878B45F0
:1039E9008A468947D001D002D0031255DDE53F153B
:1039F9003F7002153EC3E53E6480948050AA906BE7
:103A090013E493FF3395E0FE90027575F013EF12FE
:103A19001ABFEE75F013A42583F583121ADBE92486
:103A290007F9E43AFA7545FF75466375471675480F
:103A39000175490C754ABF1255DD906B13E493FF6C
:103A49003395E0FE90027575F013EF121ABFEE750B
:103A5900F013A42583F583121ADBE92407F9E43A64
:103A6900FA12000EEF2401F546E43EF545906B127B
:0A3A7900E493FF7B737D0112736A72
:103A8300900CA3121A6A000107ACE4FFFEFDFC9040
:103A93000CA3121A42D312195B4017900CA3121AEB
:103AA3003674FFFBFAF9F8121816900CA3121A5E7B
:023AB30080D8B9
:103AB5007545FF75466475478990001AE0F548A37A
:103AC500E0F549A3E0F54AA3E0F54B7B017A0C79D3
:103AD500BF1255DD906B13E493FF3395E0FE900222
:103AE5007575F013EF121ABFEE75F013A42583F563
:103AF50083121ADBE92407F9E43AFA7545FF75469E
:103B05006375471675480175490C754ABF1255DD31
:103B1500906B13E493FF3395E0FE90027575F013F7
:103B2500EF121ABFEE75F013A42583F583121ADB85
:103B3500E92407F9E43AFA12000EEF2401F546E408
:103B45003EF545906B12E493FF7B737D0112736A1A
:103B5500900CA7121A6A000107ACE4FFFEFDFC9069
:103B65000CA7121A42D312195B4017900CA7121A10
:103B75003674FFFBFAF9F8121816900CA7121A5EA4
:023B850080D8E6
:103B87007545FF75466475479690001EE0F548A396
:103B9700E0F549A3E0F54AA3E0F54B7B017A0C7900
:103BA700BF1255DD906B13E493FF3395E0FE90024F
:103BB7007575F013EF121ABFEE75F013A42583F590
:103BC70083121ADBE92407F9E43AFA7545FF7546CB
:103BD7006375471675480175490C754ABF1255DD5F
:103BE700906B13E493FF3395E0FE90027575F01325
:103BF700EF121ABFEE75F013A42583F583121ADBB3
:103C0700E92407F9E43AFA12000EEF2401F546E435
:103C17003EF545906B12E493FF7B737D0112736A47
:103C2700900CAB121A6A000107ACE4FFFEFDFC9092
:103C37000CAB121A42D312195B4017900CAB121A35
:103C47003674FFFBFAF9F8121816900CAB121A5ECD
:023C570080D813
:103C59007545FF7546647547A4900022E0F548A3B1
:103C6900E0F549A3E0F54AA3E0F54B7B017A0C792D
:103C7900BF1255DD906B13E493FF3395E0FE90027C
:103C89007575F013EF121ABFEE75F013A42583F5BD
:103C990083121ADBE92407F9E43AFA7545FF7546F8
:103CA9006375471675480175490C754ABF1255DD8C
:103CB900906B13E493FF3395E0FE90027575F01352
:103CC900EF121ABFEE75F013A42583F583121ADBE0
:103CD900E92407F9E43AFA12000EEF2401F546E463
:103CE9003EF545906B12E493FF7B737D0112736A75
:103CF900900CAF121A6A000107ACE4FFFEFDFC90BC
:103D09000CAF121A42D312195B4017900CAF121A5A
:103D19003674FFFBFAF9F8121816900CAF121A5EF6
:023D290080D840
:103D2B007545FF7546647547B3900026E0F548A3CB
:103D3B00E0F549A3E0F54AA3E0F54B7B017A0C795A
:103D4B00BF1255DD906B13E493FF3395E0FE9002A9
:103D5B007575F013EF121ABFEE75F013A42583F5EA
:103D6B0083121ADBE92407F9E43AFA7545FF754625
:103D7B006375471675480175490C754ABF1255DDB9
:103D8B00906B13E493FF3395E0FE90027575F0137F
:103D9B00EF121ABFEE75F013A42583F583121ADB0D
:103DAB00E92407F9E43AFA12000EEF2401F546E490
:103DBB003EF545906B12E493FF7B737D0112736AA2
:0A3DCB0002388DE4900296F0A3F098
:103DD500900CB3121A6A000107ACE4FFFEFDFC90DB
:103DE5000CB3121A42D312195B4017900CB3121A76
:103DF5003674FFFBFAF9F8121816900CB3121A5E16
:023E050080D863
:103E0700906B13E493FF3395E0FE90027575F01302
:103E1700EF121ABFEE75F013A42583F583121ADB90
:103E2700E92407F9E43AFA7545FF754663754716BD
:103E37007548FF754964754AC21255DD906B13E4E6
:103E470093FF3395E0FE90027575F013EF121ABFDA
:103E5700EE75F013A42583F583121ADBE92407F91D
:103E6700E43AFA12000EEF2401F546E43EF54590D8
:103E77006B12E493FF7B737D0112736A43B008539F
:103E8700B0BF53B0DF53B0EFE4900004F0853C843B
:013E97002208
:1065CF0085843CE4F53FF54078A37C0C7D017BFF8F
:0A65DF007A6579C7FE7F0812159354
:1065E900900C97121A6A000107ACE4FFFEFDFC90BB
:1065F9000C97121A42D312195B4017900C97121A72
:106609003674FFFBFAF9F8121816900C97121A5EF5
:0266190080D827
:10661B00906B13E493FF3395E0FE90027575F013C6
:10662B00EF121ABFEE75F013A42583F583121ADB54
:10663B00E92407F9E43AFA7545FF75466375471681
:10664B007548FF754964754AD61255DD906B13E496
:10665B0093FF3395E0FE90027575F013EF121ABF9E
:10666B00EE75F013A42583F583121ADBE92407F9E1
:10667B00E43AFA12000EEF2401F546E43EF545909C
:0C668B006B12E493FF7B737D0112736AB5
:10669700900C9B121A6A000107ACE4FFFEFDFC9008
:1066A7000C9B121A42D312195B4017900C9B121ABB
:1066B7003674FFFBFAF9F8121816900C9B121A5E43
:0266C70080D879
:1066C900E4900296F0A3F0900263E024A0F53E90D6
:1066D9000262E03400F53D75840FE5E830E019C346
:1066E900900297E09409900296E0940040030267B3
:1066F900BAE4900296F0A3F0900262E0FEA3E0FFF4
:10670900B53ED4EEB53DD0EF24A0F53EE43EF53DCF
:10671900906B13E493FF3395E0FE90027575F013C7
:10672900EF121ABFEE75F013A42583F583121ADB55
:10673900E92407F9E43AFA7545FF7546647547EBAC
:10674900853F488540491255DD906B13E493FF332B
:1067590095E0FE90027575F013EF121ABFEE75F011
:1067690013A42583F583121ADBE92407F9E43AFA1D
:1067790012000EEF2401F546E43EF545906B12E454
:1067890093FF7B737D0112736A74A32540F58274AC
:106799000C353FF583E0F5C80540E5407002053F3B
:1067A900FFAE3F7C007D071216CD8C3F8D400266FF
:0867B900E0E4900296F0A3F069
:1067C100900C9F121A6A000107ACE4FFFEFDFC90D9
:1067D1000C9F121A42D312195B4017900C9F121A88
:1067E1003674FFFBFAF9F8121816900C9F121A5E14
:0267F10080D84E
:1067F300906B13E493FF3395E0FE90027575F013ED
:10680300EF121ABFEE75F013A42583F583121ADB7A
:10681300E92407F9E43AFA7545FF754663754716A7
:106823007548FF754964754AF21255DD906B13E4A0
:1068330093FF3395E0FE90027575F013EF121ABFC4
:10684300EE75F013A42583F583121ADBE92407F907
:10685300E43AFA12000EEF2401F546E43EF54590C2
:106863006B12E493FF7B737D0112736A43B0085389
:0B687300B0BF53B0DF53B0EF853C8492
:01687E0022F7
:10687F00E4F53FF540E4F53FF54090028FE060FA14
:10688F0090001AE0FEA3E0FF9010BBEEF0A3EFF034
:10689F009010B7EEF0A3EFF090001CE0FEA3E0FF26
:1068AF009010BDEEF0A3EFF09010B9EEF0A3EFF063
:1068BF00E490028FF0C3E5409428E53F6480948014
:1068CF004003026A5E90028FE060EAAE3FAF407C09
:0D68DF00007D0A1216CDED4C60030269BE6B
:1068EC00900CCB121A6A000107ACE4FFFEFDFC9081
:1068FC000CCB121A42D312195B4017900CCB121A04
:10690C003674FFFBFAF9F8121816900CCB121A5EBB
:02691C0080D821
:10691E007545FF75466575470790001AE0F548A363
:10692E00E0F549A3E0F54AA3E0F54B7B017A0C793B
:10693E00CF1255DD906B13E493FF3395E0FE90027A
:10694E007575F013EF121ABFEE75F013A42583F5CB
:10695E0083121ADBE92407F9E43AFA7545FF754606
:10696E006375471675480175490C754ACF1255DD8A
:10697E00906B13E493FF3395E0FE90027575F01360
:10698E00EF121ABFEE75F013A42583F583121ADBEE
:10699E00E92407F9E43AFA12000EEF2401F546E471
:1069AE003EF545906B12E493FF7B737D0112736A83
:1069BE0090001AE0FEA3E0FF9010B7E0FCA3E0FD0C
:1069CE00C39FEC9E5006AE04AF0580009010B7EE4C
:1069DE00F0A3EFF090001CE0FEA3E0FF9010B9E0F2
:1069EE00FCA3E0FDC39FEC9E5006AE04AF058000F5
:1069FE009010B9EEF0A3EFF090001AE0FEA3E0FFC6
:106A0E009010BBE0FCA3E0FDD39FEC9E4006AE04CD
:106A1E00AF0580009010BBEEF0A3EFF090001CE0ED
:106A2E00FEA3E0FF9010BDE0FCA3E0FDD39FEC9E23
:106A3E004006AE04AF0580009010BDEEF0A3EFF05F
:106A4E00E490028FF00540E5407002053F0268C4F5
:106A5E009010B9E0FEA3E0FF9010BDE0FCA3E0FDB6
:106A6E00C39FFFEC9EFEC39400400280169010B9A7
:106A7E00E0FEA3E0FFC3ED9FFFEC9EFEC3E49FFF8D
:106A8E00E49EFED3EF9404EE9400400302688490DB
:106A9E0010B7E0FEA3E0FF9010BBE0FCA3E0FDC347
:106AAE009FFFEC9EFEC39400400280169010B7E04C
:106ABE00FEA3E0FFC3ED9FFFEC9EFEC3E49FFFE449
:0E6ACE009EFED3EF9404EE9400400302688411
:016ADC002297
:104B6000E4F53FF540F584900C63E0A3E0F5FD909B
:104B70000C63E0A3E0F5FE900C61E0A3E0F5FB9090
:104B80000C61E0A3E0F5FC90028FE07003024E7B25
:104B9000E4F0E53F700F90001AE0FFA3E0900C55A1
:104BA000CFF0A3EFF0E540700F90001CE0FFA3E012
:084BB000900C57CFF0A3EFF0C9
:104BB800900CCB121A6A000107ACE4FFFEFDFC90D2
:104BC8000CCB121A42D312195B4017900CCB121A55
:104BD8003674FFFBFAF9F8121816900CCB121A5E0D
:024BE80080D873
:104BEA00906B13E493FF3395E0FE90027575F01312
:104BFA00EF121ABFEE75F013A42583F583121ADBA0
:104C0A00E92407F9E43AFA7545FF75466575470DD3
:104C1A00900C61E0F548A3E0F549900C63E0F54A91
:104C2A00A3E0F54B1255DD906B13E493FF3395E047
:104C3A00FE90027575F013EF121ABFEE75F013A409
:104C4A002583F583121ADBE92407F9E43AFA1200FC
:104C5A000EEF2401F546E43EF545906B12E493FF0E
:104C6A007B737D0112736A7545FF75466575471832
:104C7A00900C55E0F548A3E0F549900C57E0F54A49
:0D4C8A00A3E0F54B7B017A0C79DF1255DDBC
:104C9700900CCF121A6A000107ACE4FFFEFDFC90EE
:104CA7000CCF121A42D312195B4017900CCF121A6D
:104CB7003674FFFBFAF9F8121816900CCF121A5E29
:024CC70080D893
:104CC900906B13E493FF3395E0FE90027575F01332
:104CD900EF121ABFEE75F013A42583F583121ADBC0
:104CE900E92407F9E43AFA7545FF754663754716ED
:104CF90075480175490C754ADF1255DD906B13E44F
:104D090093FF3395E0FE90027575F013EF121ABF09
:104D1900EE75F013A42583F583121ADBE92407F94C
:104D2900E43AFA12000EEF2401F546E43EF5459007
:104D39006B12E493FF7B737D0112736AE53F704B3D
:104D4900900C55E0FEA3E02400EE34F8C36480948F
:104D5900804010900C55E0FEA3E02400FFEE34F8EB
:104D6900FE8015900C55E0FEA3E02400FFEE34F818
:104D7900FEC3E49FFFE49EFED3EF9414EE64809497
:104D89008050047F0180027F008F3FE53F7048C358
:104D9900900C55E094085015900C61E07002A3E066
:104DA90070028014900C6174FFF5F08017900C610B
:104DB900E07003A3E0F47005753F01800A900C616F
:104DC900E475F001121703900C61E0A3E0F5FB9084
:104DD9000C61E0A3E0F5FCE540704B900C57E0FE58
:104DE900A3E02400EE34F8C3648094804010900C52
:104DF90057E0FEA3E02400FFEE34F8FE8015900C86
:104E090057E0FEA3E02400FFEE34F8FEC3E49FFF61
:104E1900E49EFED3EF9414EE6480948050047F01E5
:104E290080027F008F40E5407048C3900C57E094A2
:104E3900085015900C63E07002A3E0700280149092
:104E49000C6374FFF5F08017900C63E07003A3E026
:104E5900F47005754001800A900C63E475F0011245
:104E69001703900C63E0A3E0F5FD900C63E0A3E069
:104E7900F5FEE53F7003024B87E5407003024B875F
:104E8900900CD3121A6A000107ACE4FFFEFDFC90F6
:104E99000CD3121A42D312195B4017900CD3121A71
:104EA9003674FFFBFAF9F8121816900CD3121A5E31
:024EB90080D89F
:104EBB00906B13E493FF3395E0FE90027575F0133E
:104ECB00EF121ABFEE75F013A42583F583121ADBCC
:104EDB00E92407F9E43AFA7545FF754663754716F9
:104EEB007548FF754965754A231255DD906B13E4C0
:104EFB0093FF3395E0FE90027575F013EF121ABF16
:104F0B00EE75F013A42583F583121ADBE92407F958
:104F1B00E43AFA12000EEF2401F546E43EF5459013
:104F2B006B12E493FF7B737D0112736A90028FE027
:104F3B0060FAE490028FF090001AE0FFA3E0900C6F
:104F4B0055CFF0A3EFF090001CE0FFA3E0900C57BF
:054F5B00CFF0A3EFF010
:104F6000900CD7121A6A000107ACE4FFFEFDFC901A
:104F70000CD7121A42D312195B4017900CD7121A91
:104F80003674FFFBFAF9F8121816900CD7121A5E55
:024F900080D8C7
:104F9200906B13E493FF3395E0FE90027575F01366
:104FA200EF121ABFEE75F013A42583F583121ADBF4
:104FB200E92407F9E43AFA7545FF75466575473302
:104FC200900C61E0F548A3E0F549900C63E0F54AE6
:104FD200A3E0F54B1255DD906B13E493FF3395E09C
:104FE200FE90027575F013EF121ABFEE75F013A45E
:104FF2002583F583121ADBE92407F9E43AFA120051
:105002000EEF2401F546E43EF545906B12E493FF62
:105012007B737D0112736A7545FF7546657547445A
:10502200900C55E0F548A3E0F549900C57E0F54A9D
:0D503200A3E0F54B7B017A0C79DF1255DD10
:10503F00900CDB121A6A000107ACE4FFFEFDFC9036
:10504F000CDB121A42D312195B4017900CDB121AA9
:10505F003674FFFBFAF9F8121816900CDB121A5E71
:02506F0080D8E7
:10507100906B13E493FF3395E0FE90027575F01386
:10508100EF121ABFEE75F013A42583F583121ADB14
:10509100E92407F9E43AFA7545FF75466375471641
:1050A10075480175490C754ADF1255DD906B13E4A3
:1050B10093FF3395E0FE90027575F013EF121ABF5E
:1050C100EE75F013A42583F583121ADBE92407F9A1
:1050D100E43AFA12000EEF2401F546E43EF545905C
:0C50E1006B12E493FF7B737D0102736A85
:1059F00085843CE4F53DF53EF541906B1393FF3310
:105A000095E0FE90027575F013EF121ABFEE75F077
:105A100013A42583F583121ADBE92407F9E43AFA83
:105A20007545FF7546637547167548FF7549657579
:105A30004A551255DD906B13E493FF3395E0FE90C9
:105A4000027575F013EF121ABFEE75F013A42583DB
:105A5000F583121ADBE92407F9E43AFA12000EEF93
:105A60002401F546E43EF545906B12E493FF7B7309
:105A70007D0112736AE4900296F0A3F0F53FF540C1
:105A8000D390091DE0954090091CE0953F4023AE5E
:105A90003FAF407C017D001216CD744A2540F5824F
:105AA0007400353FF583EDF00540E5407002053F99
:105AB00080CE75840FE5E830E019C3900297E0943A
:105AC00009900296E094004003025CA2E4900296E2
:105AD000F0A3F090091CE0FCA3E0FD7B017A0079C3
:105AE0004A853D4D853E4EE4FFFE12842F90091CF1
:105AF000E0FEA3E0FF7B017A00794A853D47853EC1
:105B000048128394E4F53FF540D390091DE0954099
:105B100090091CE0953F402DAE3FAF407C017D00D9
:105B20001216CD744A2540F5827400353FF583E0A6
:105B30006D7001EC6005754101800A0540E540701B
:105B400002053F80C4E5417003025BCE906B13E415
:105B500093FF3395E0FE90027575F013EF121ABFB4
:105B6000EE75F013A42583F583121ADBE92407F9F7
:105B7000E43AFA7545FF754665754764853D488585
:105B80003E49853F4A85404B1255DD906B13E493A7
:105B9000FF3395E0FE90027575F013EF121ABFEE19
:105BA00075F013A42583F583121ADBE92407F9E4C1
:105BB0003AFA12000EEF2401F546E43EF545906BEB
:0E5BC00012E493FF7B737D0112736A025CA2F4
:105BCE00900C97121A6A000107ACE4FFFEFDFC90E0
:105BDE000C97121A42D312195B4017900C97121A97
:105BEE003674FFFBFAF9F8121816900C97121A5E1B
:025BFE0080D84D
:105C0000906B13E493FF3395E0FE90027575F013EB
:105C1000EF121ABFEE75F013A42583F583121ADB79
:105C2000E92407F9E43AFA7545FF75466575479624
:105C3000853D48853E491255DD906B13E493FF3353
:105C400095E0FE90027575F013EF121ABFEE75F035
:105C500013A42583F583121ADBE92407F9E43AFA41
:105C600012000EEF2401F546E43EF545906B12E478
:105C700093FF7B737D0112736AAF3EAE3D128B477B
:105C8000D3900BF7E0953E900BF6E0953D5008E47D
:105C9000F53DF53E025AB2053EE53E7002053D0275
:095CA0005AB2E4900296F0A3F060
:105CA900900C9B121A6A000107ACE4FFFEFDFC9000
:105CB9000C9B121A42D312195B4017900C9B121AB3
:105CC9003674FFFBFAF9F8121816900C9B121A5E3B
:025CD90080D871
:105CDB00906B13E493FF3395E0FE90027575F01310
:105CEB00EF121ABFEE75F013A42583F583121ADB9E
:105CFB00E92407F9E43AFA7545FF754663754716CB
:105D0B007548FF754965754AA71255DD906B13E40D
:105D1B0093FF3395E0FE90027575F013EF121ABFE7
:105D2B00EE75F013A42583F583121ADBE92407F92A
:105D3B00E43AFA12000EEF2401F546E43EF54590E5
:0F5D4B006B12E493FF7B737D0112736A853C84B6
:015D5A002226
:10FE00008E3E8F3F8E3E8F3FE4F540F541A2AF33EB
:10FE1000F542C2AFE4F58443B701758F03C3E540F3
:10FE200094FC50168541828540837488F0E4254116
:10FE3000F54174043540F54080E3E4F58FF540F575
:10FE400041F545F54675840FE5465403700363B0EC
:10FE50004012FFBB8F47E54730E7F653F8FDE4F566
:10FE600048F5490549E54970020548644045487030
:10FE7000F27FD212FFAAE546AE457806CEC313CE76
:10FE800013D8F9FF12FFAA12FFA2E4FF12FFAAE49F
:10FE9000FF12FFAAE4FF12FFAAE4FF12FFAAE4FF89
:10FEA00012FFAAE4F543F544E4FF12FFAA744A25C1
:10FEB00044F58274003543F583EFF00544E5447062
:10FEC000020543C3E543940240DE43F802E4F584AF
:10FED000758F01F543F544744A2544F58274003565
:10FEE00043F583E0FF0541E541AC40700205401455
:10FEF000F5828C83EFF00544E54470020543B400BD
:10FF0000D6E543B402D1E4F58F0546E54670020517
:0AFF100045C3947FE54594005003BB
:10FF1A0002FE45E4F58F53B7FEE54224FF92AFE4B3
:10FF2A00F5D075840FF545F546C3E545942050573D
:10FF3A00E546543F700363B02012FFBB8F47E54785
:10FF4A0030E7F653F8FDE4F548F5490549E5497007
:10FF5A000205486440454870F27F5012FFAAE54600
:10FF6A00AE457806CEC313CE13D8F9FF12FFAA12F4
:10FF7A00FFA2E4FF12FFAA43F80274082546F546D9
:10FF8A00E43545F54580A212FFBB8F47E54730E7C8
:08FF9A00F6E4F58443EF0122B7
:10FFA200AF46EF25E025E0FFAE84E4F5848F9B3079
:09FFB200FFFDC2FFAF9B8E84220B
:10FFBB0053F8FDE4F54AF54B054BE54B7002054A4A
:10FFCB006440454A70F27FD712FFAAE4FF12FFAAE2
:04FFDB0043F80222C3
:10734A00900BF874E3F0906B12E493FFAB2EAA2F24
:10735A00A9309000011215D2FDE4F545F5467B06E9
:04736A008F428B447F
:10736E007547FFE4F548F549ED906B1293F54A74B5
:10737E00F82DF582E4340BF5837464F0906B12E40F
:10738E0093B54219E54464066013E5446415600D37
:10739E0074F22DF582E4340BF583E544F0E54A757D
:1073AE00F013A42475F582E43402F583121ADB740B
:1073BE0016121632E54A75F013A42475F582E434DC
:1073CE0002F583121ADB900001E542121644E54ADB
:1073DE0075F013A42475F582E43402F583121ADBDA
:1073EE00900002ED12164474022546F546E435452A
:1073FE00F545FFE54A75F013A42475F582E43402D1
:10740E00F583121ADB900003EF121644E54A75F06D
:10741E0013A42475F582E43402F583121ADB90006E
:10742E0004E546121644E54A75F013A42475F58258
:10743E00E43402F583121ADB900005E5441216447B
:10744E00E4FEFFE54A75F013A42475F582E43402D8
:10745E00F583121ADB8F828E831215D262470FBF0D
:10746E0000010EEF64064E70DAE54A75F013A4249F
:10747E0075F582E43402F583121ADB900006E547B7
:10748E0012164474FE2546F54674FF3545F545E55E
:10749E004A75F013A42475F582E43402F583121AAA
:1074AE00DBE92407F9E43AFAAD46AC451288FC8EC6
:1074BE00488F49EEFFE54A75F013A42475F582E472
:1074CE003402F583121ADB0546E5467002054524A3
:1074DE0006F582E43545F583EF121644E54A75F05C
:1074EE0013A42475F582E43402F583121ADB0546E3
:1074FE00E546700205452406F582E43545F583E53B
:10750E0049121644E54A75F013A42468F97402353D
:10751E00F0FA7B01E5462407FDE43545FC12895758
:09752E00E5462407FFE43545FEA3
:017537002231
:083E98008F2D8B2E8A2F89303B
:103EA000E4900C93F0A3F09000031215D2FE900062
:103EB000041215D27C002400FFEC3ECF24FECF3448
:103EC000FFFE900C95F0FCA3EFF0FDE92407F9E468
:103ED0003AFA128B92900C93EEF0A3EFF04E603A08
:103EE000AB2EAA2FA9309000051215D2FF641570D1
:103EF00003024525EF640670030245259000011278
:103F000015D224F8F582E4340BF5837464F0900044
:0A3F1000011215D2FF7D040242C128
:103F1A00AB2EAA2FA9309000021215D2FF906B1275
:103F2A00E4936F7003023FD4EFF47003023FD4EFBF
:103F3A0093FF3395E0FE90027575F013EF121ABFE6
:103F4A00EE75F013A42583F583121ADBE92407F929
:103F5A00E43A8B36F5378938E5302407F9E4352F0A
:103F6A00852E33F5348935E4F531F532D3900C9644
:103F7A00E09532900C95E0953140247833E475F061
:103F8A0001121ACB1215B9FF7836E475F001121A2C
:103F9A00CBEF1216320532E53270D1053180CDAB46
:103FAA002EAA2FA9309000011215D2FF90000212FA
:103FBA0015D2FD9000051215D2FB900C95E0F5453F
:103FCA00A3E0F54612736A024525AB2EAA2FA93043
:103FDA009000051215D2121B76402006405B104055
:103FEA004415430030432A31433032433633433C8D
:103FFA0034421F4042734142734243745043C65194
:10400A0041687041C57140819044B19143429341E6
:10401A000998000044F19000011215D224F2F582A9
:10402A00E4340BF583AB2EAA2FA9309000011215A8
:10403A00D224F2F582E4340B8010AB2EAA2FA930D9
:10404A001215B924F3F582E4340BF583E4F0024443
:10405A00DE900BF8E0FF64E16004EFB4E305128A36
:10406A00AD8003127350900C93EEF0A3EFF0AB2ED9
:07407A00AA2FA9300244DE69
:10408100900BF8E0FF64E16004EFB4E305128AAD40
:104091008065AB2EAA2FA9309000071215D2FE9091
:1040A10000081215D27C002400F53AEC3EF539E502
:1040B1002D75F013A42475F582E43402F583121AE8
:1040C100DBE92407F9E43AFA90091CE0FEA3E0FFDA
:1040D100853947853A48128394906B12E493FFAB7C
:1040E1002EAA2FA9309000011215D2FD90091CE0D3
:1040F100F545A3E0127366900C93EEF0A3EFF0ABDD
:084101002EAA2FA9300244DEB2
:10410900900BF8E0FF64E16004EFB4E305128AADB7
:10411900803CAB2EAA2FA9309000071215D2FE9031
:1041290000081215D27C002400F53AEC3EF53990CE
:10413900091CE0FCA3E0FDE92409F9E43AFA853910
:104149004D853A4E7F027E0012842F127350900CD7
:0F41590093EEF0A3EFF0AB2EAA2FA9300244DEB5
:10416800900BF8E0FF64E16004EFB4E305128AAD58
:10417800803AE52D75F013A42475F582E43402F530
:1041880083121ADBE92407F9E43AFA128A08906BD9
:1041980012E493FFAB2EAA2FA9309000011215D27A
:1041A800FD7545007546807B0612736A900C93EE88
:1041B800F0A3EFF0AB2EAA2FA9300244DE900BF843
:1041C800E0FF64E16004EFB4E305128AAD803712C2
:1041D8008D47AB2EE5302407F9E4352FFA900C957E
:1041E800E0FEA3E0FFC39480EE94005006AC06AD59
:1041F8000780047C007D801287BB7B017A0B79FCE9
:10420800128A08127350900C93EEF0A3EFF0AB2EC5
:07421800AA2FA9300244DEC9
:10421F00900BF8E0FFF539AB2EAA2FA930900001D3
:10422F001215D224F8F582E4340BF583E4F0EF6431
:10423F00E16007900BF8E0B4E30C9000011215D287
:10424F00FF7D200242C112734A900C93EEF0A3EF50
:10425F00F0AB2EAA2FA9309000071215D2FF1278BB
:04426F00970242F779
:10427300900BF8E0FFF539AB2EAA2FA9309000057B
:104283001215D27C00B441047D0080027D048C3A77
:104293008D3B9000011215D224F8F582E4340BF51E
:1042A30083E4F0EF64E16007900BF8E0B4E31DAB47
:1042B3002EAA2FA9309000011215D2FF7D20128A59
:1042C300BC900C93EEF0A3EFF002452512734A90D5
:1042D3000C93EEF0A3EFF0E4FFFE128B47900BF785
:1042E300E024FFFD900BF6E034FFFC7B01AF3BAE17
:0D42F3003A12874B900BF8E539F002452593
:10430000AB2EAA2FA9309000011215D224F8F58205
:10431000E4340BF583E4F012007E8F39E53930E7A1
:0A432000F6E4F58443EF01024525A1
:10432A00121D5A0245251237BC0245251265CF02D5
:08433A0045251259F00245254A
:1043420053B0F753B0BF53B0DF53B0EF900BF8E068
:10435200B4E110900005E0FFAB68AA67AD6FAC6EE8
:10436200127D1212007E8F39E53930E7F653F87F5D
:0243720080FECB
:10437400900BF8E064F07027753F017540007541BB
:1043840005AB2EAA2FA93012819E127350900C9364
:10439400EEF0A3EFF0056FE56F701E056E801AABAB
:1043A4002EAA2FA9309000011215D2FF7D08128A7F
:1043B400BC900C93EEF0A3EFF0AB2EAA2FA9300221
:1043C40044DE900BF8E0B4F114AB2EAA2FA9309080
:1043D40000071215D2FF900005E06F6072AB2EAAA1
:1043E4002FA9309000011215D2FF7D08128ABC90CB
:1043F4000C93EEF0A3EFF0AB2EAA2FA9309000019E
:0E4404001215D224F8F582E4340BF583E4F0AF
:10441200900C8B121A6A0000AFC8E4FFFEFDFC90FC
:104422000C8B121A42D312195B4017900C8B121A82
:104432003674FFFBFAF9F8121816900C8B121A5EFA
:0244420080D820
:104444009002C274F2F0900C7E7401F002452512C1
:104454007350900C93EEF0A3EFF0AB2EAA2FA9307B
:104464009000011215D224F8F582E4340BF583E4AC
:01447400F057
:10447500900C8F121A6A0000AFC8E4FFFEFDFC9095
:104485000C8F121A42D312195B4017900C8F121A17
:104495003674FFFBFAF9F8121816900C8F121A5E93
:0244A50080D8BD
:1044A700AF6FAE6E128CAF024525900C7E7401F093
:1044B700AB2EAA2FA9309000071215D29002C2F096
:1044C700906B12E493FF12735C900C93EEF0A3EFE2
:1044D700F0AB2EAA2FA9309000011215D224F8F5BF
:1044E70082E4340BF583E4F08034AB2EAA2FA93095
:1044F7009000011215D224F8F582E4340BF5837489
:1045070064F09000011215D2FF7D02128ABC900C54
:0E45170093EEF0A3EFF074FF900C93F0A3F07E
:08452500900C93E0FEA3E0FFFF
:01452D00226B
:0A8B92008B3C8A3D893E8C3F8D40EC
:108B9C001288FC8E418F42AB3CAA3DA93E85408297
:108BAC00853F831215D27F00FEE5402401FDE4359C
:108BBC003F8D82F5831215D22FFFE43EFEE542B5C0
:0F8BCC000709E541B50604E4FEFF227EFF7FFFA7
:018BDB002277
:0F8AAD00AB2EAA2FA9309000011215D2FF7D2009
:108ABC00AE07EE906B1293FB3395E0FA900275754E
:108ACC00F013EB121ABFEA75F013A42583F5831289
:108ADC001ADB900007ED121644906B12E493FFAD75
:108AEC00067545007546017B1512736AE4FEFF227C
:06819E008B3C8A3D893E86
:1081A400E4F542F5439000031215D2FE9000041248
:1081B40015D2FDEEF544EDF545E4F542F543E5450C
:1081C40024FEFFE54434FFFEC364809482500280A1
:1081D400047E027F00C3E5439FEE6480F8E54264B9
:1081E40080985048AB3FAA40A941C003C002C001D7
:1081F4001215B9FFAB3CAA3DA93EE5432407FDE4B3
:1082040035428D82F5831215D2FE744A2543F582D8
:1082140074003542F583EEF06FD001D002D0031222
:1082240016320543E5437096054280927E00E56F61
:108234005401FF90091CE0FCA3E0FD7B017A007966
:0A8244004A856E4D856F4E02842FAF
:048CAF008E3C8F3D2B
:108CB30090FE00E493FE740193FF900C9AEEF0A3F0
:108CC300EFF0BE8012BFFE0F7B007AFE7902900C9C
:0E8CD30097121AE4021BC9AF6FAE6E12FE00BC
:018CE1002270
:108D1500564F4C5453004F4E004F4646004472691F
:108D250076657241004361724100547261636B4123
:108D350000416E616C6F6778004469676974616CA6
:028D45007800B4
:065D5B008B2D8A2E892F1A
:105D610090003E121A6AFFFFFFFF90002A121A6A82
:105D7100FFFFFFFF74FF900018F0A3F0900016F0F2
:105D8100A3F07B017A0C798B7547007548017F1070
:105D91007E02128394900C8BE0900E9BF0900C8C01
:105DA100E0900E9CF0900C8DE0900E9DF0900C8E8A
:105DB100E0540F900E9EF0E024FC600C2402701061
:105DC100900C7C7414F0800E900C7C7428F080068A
:105DD100900C7C740AF09000067402F0A3740FF02A
:105DE100900292E030E7034403F090091CE0FCA329
:105DF100E0FD7F017E0012882A1288981200A67B9E
:105E0100017A0C798BE4F547F5487F107E02128305
:105E110094AB2DAA2EA92FE475F0031217CAE490B2
:105E21000E9FF0900BF6E0FFA3E0AB30AA31A93250
:105E3100CF8FF01217CAE4900EA0F0900EA0E0FFF1
:105E4100C394154003025F3775F019EF900C8B1264
:105E51001ABFE0FEA3E0FFBEFF16BFFF13900E9F27
:105E6100E06003025F2EA3E004900E9FF0025F2E1C
:105E7100900EA0E0FF75F019900C8D121ABFE0FC96
:105E8100A3E0F47002ECF47003025F2EAB2DAA2E96
:105E9100A92F12172FFDACF075F019EF900C8D1290
:105EA1001ABFE0FEA3E0D39DEE9C4014900EA0E04B
:105EB10075F019900C8D121ABFE0FEA3E0FF80046B
:105EC100AE04AF05AB2DAA2EA92FEE8FF01217CA83
:105ED100900EA0E0FF75F019900C9F121ABFE0FC24
:105EE100A3E0F47002ECF46044AB30AA31A93212A1
:105EF100172FFDACF075F019EF900C9F121ABFE04F
:105F0100FEA3E0C39DEE9C5014900EA0E075F01925
:105F1100900C9F121ABFE0FEA3E0FF8004AE04AF15
:105F210005AB30AA31A932EE8FF01217CA900EA03C
:105F3100E004F0025E3C900E9FE07002FF22AB3065
:105F4100AA31A93212172FFFAEF0AB2DAA2EA92F1D
:105F510012172FC39FE5F09E40037F0022E475F0E6
:105F610001121792AB30AA31A93274FFF5F0121762
:105F710092AB2DAA2EA92F12172FFFAEF0D39404A6
:105F8100EE9400400280047E007F04900E9FE0FDAD
:105F910075F019900C72121ABFEEF0A3EFF0900297
:105FA10092E0FF600EAB30AA31A93212172FFBAA83
:105FB100F080047AFF7BFF75F019ED900C84121AC2
:105FC100BFEAF0A3EBF075F019ED900C86121ABF41
:105FD10074FFF0A3F075F019ED900C83121ABFEF66
:105FE100F0900E9BE0FF75F019ED900C88121ABF2E
:105FF100EFF0900E9DE0FF75F019ED900C89121AEB
:10600100BFEFF0900E9CE0FF75F019ED900C8A1235
:106011001ABFEFF0900E9EE0FF75F019ED900C8223
:10602100121ABFEFF07B017A0C798BE4F54DF54E36
:0F6031007D107C027F02FE12842F900E9FE0FFF5
:01604000223D
:0A7D12008F3C8C3D8D3E8A3F8B4074
:107D1C00153C7B017A0E79A3E4F547F5487F107E7C
:107D2C000212839474FFFFFEFDFC90002A121A428B
:107D3C00C3121971705F75F019E53C900EAD121AF3
:107D4C00BF121A6AFFFFFFFF75F019E53C900EA7F2
:107D5C00121ABF121A6AFFFFFFFF75F019E53C906B
:107D6C000EB1121ABF74FFF0A3F075F019E53C9038
:107D7C000EAB121ABF74FFF0A3F075F019E53C902E
:107D8C000EA5121ABF74FFF0A3F075F019E53C9024
:107D9C000EA3027E5390002A121A3675F019E53C98
:107DAC00900EA7121ABF121A5E900016E0FEA3E006
:107DBC00FF75F019E53C900EAB121ABFEEF0A3EF75
:107DCC00F090003E121A3675F019E53C900EAD128B
:107DDC001ABF121A5E900018E0FEA3E0FF75F019AE
:107DEC00E53C900EB1121ABFEEF0A3EFF075F0194E
:107DFC00E53C900EA5121ABFE53DF0A3E53EF090D0
:107E0C000292E0602A75F019E53C900EB5121ABF8B
:107E1C00E0FEA3E0F47002EEF4601475F019E53C9A
:107E2C00900EB7121ABFE53FF0A3E540F080207525
:107E3C00F019E53C900EB7121ABF74FFF0A3F07561
:107E4C00F019E53C900EB5121ABF74FFF0A3F07B4D
:107E5C00017A0E79A3E4F54DF54E7D107C027F027C
:047E6C00FE02842F5F
:107BA000E4900EA1F0A3F07B017A0C798FF547F5F4
:107BB000487F107E02128394E4900EA1F0A3F0900F
:107BC0000EA1E0FEA3E0FFC39415EE940040030273
:107BD0007D11900C8F75F019EF121ABFEE75F01928
:107BE000A42583F583E0FEA3E0F47002EEF47003B5
:107BF000027D04900EA1E0FEA3E0900C9775F019B1
:107C0000121ABFEE75F019A42583F583E0FCA3E0FA
:0A7C1000F47002ECF46003027D043E
:107C1A00900CA175F019EF121ABFEE75F019A42590
:107C2A0083F583E0FDA3E0900C8BCDF0A3EDF090FB
:107C3A000CA375F019EF121ABFEE75F019A425837B
:107C4A00F583E0FFA3E0900C8DCFF0A3EFF0900E48
:107C5A00A1A3E0900C8F75F019121ABFEE75F019F6
:107C6A00A42583F583E0FFA3E0900E9FCFF0A3EF56
:107C7A00F0900BF7E024FFFF900BF6E034FFFEC311
:107C8A00900EA0E09F900E9FE09E506E7B017A0CB2
:107C9A00798FE0F547A3E0F5487F107E02128394BE
:107CAA0074FFFFFEFDFC900C8F121A42C312197169
:107CBA00703B900C8DE0B4FF12A3E0B4FF0D900C62
:107CCA008BE0FFA3E0A3CFF0A3EFF0900EA1A3E017
:107CDA0004FF900EA0E024FFFD900E9FE034FFFC0D
:107CEA00900C8DE0FAA3E0FB127D12800D900E9F9E
:0A7CFA00E475F001121703027C7B11
:0D7D0400900EA1E475F001121703027BBF81
:017D1100224F
:027897008F3C24
:107899007B017A0C7997E4F547F5487F107E02124F
:1078A900839475F019E53C900C7E121ABFE0FEA393
:1078B900E0F47002EEF4603B75F019E53C900C8041
:1078C900121ABFE0FEA3E0F47002EEF4602575F031
:1078D90019E53C900C7E121ABFE0FEA3E0FF75F09B
:1078E90019E53C900C80121ABFE0FCA3E0FD7B0176
:1078F90012874B7B017A0C7997E4F547F5487F109D
:107909007E0212839475F019E53C900C90121ABF0F
:10791900E0FEA3E0F47002EEF4603B75F019E53C7B
:10792900900C92121ABFE0FEA3E0F47002EEF4602C
:107939002575F019E53C900C92121ABFE0FEA3E000
:10794900FF75F019E53C900C90121ABFE0FCA3E01A
:10795900FD7B0112874B7B017A0C7997E4F547F59A
:10796900487F107E0212839475F019E53C900C92C1
:10797900121ABF74FFF0A3F075F019E53C900C9052
:10798900121ABF74FFF0A3F075F019E53C900C8052
:10799900121ABF74FFF0A3F075F019E53C900C7E44
:1079A900121ABF74FFF0A3F075F019E53C900C882A
:1079B900121ABF121A6AFFFFFFFF75F019E53C9012
:1079C9000C82121ABF121A6AFFFFFFFF75F019E540
:1079D9003C900C8C121ABF74FFF0A3F075F019E5F6
:1079E9003C900C86121ABF74FFF0A3F075F019E5EC
:1079F9003C900C8F121ABFE4F075F019E53C900C1D
:107A09008E121ABFE4F07B017A0C7997F54DF54E89
:0A7A19007D107C027F02FE02842F24
:10452E00E4F52E7B017A0C79B0F5477548017F10C2
:10453E007E0212839474FFFFFEFDFC900CB0121AE3
:10454E0042C31219716003024629752E01900CB4F4
:10455E00F0900CB2F0900CB1F0900CB0F0900CB357
:06456E007402F0E4F52DDB
:10457400788B7C0C7D017BFF7A8D79227E007F080D
:10458400121593E52D2441900C91F0E52D75F01052
:10459400A424B5F9740C35F0A801FC7D017B017AE3
:0645A4000C798B121C9B38
:0A45AA00052DE52DB40CC3E4F52D3A
:1045B40078937C0C7D017BFF7A8D792A7E007F05C0
:1045C400121593E52D2441900C96F0E52D75F01607
:1045D400A42475F9740D35F0A801FC7D017B017AE2
:1045E4000C7993121C9B75F016E52D900D85121A0B
:1045F400BFE4F0A304F075F016E52D900D89121AAE
:10460400BF7417F0A37470F075F016E52D900D8744
:0A461400121ABF7417F0A37470F0BF
:10461E00052DE52D640C708E0246FF900CB0E0D394
:10462E00940C4005E4F0752E01900CB1E0D394107B
:10463E004005E4F0752E01900CB2E0D3940C4005C9
:10464E00E4F0752E01E4F52D75F010E52D900CB506
:10465E00121ABFE0FF128DD5401E75F010E52D9099
:10466E000CB5121ABFE0601075F010E52D900CB568
:10467E00121ABFE4F0752E01052DE52DC3940C40E2
:10468E00C7E4F52D75F016E52D900D75121ABFE0E5
:10469E00FF128DD5405275F016E52D900D75121A3C
:1046AE00BFE0604475F016E52D900D75121ABFE44B
:1046BE00F075F016E52D900D85121ABFE4F0A304E7
:1046CE00F075F016E52D900D89121ABF7417F0A330
:1046DE007470F075F016E52D900D87121ABF7417D1
:1046EE00F0A37470F0752E01052DE52DC3940C40CA
:1046FE0093E52E60177B017A0C79B0754D00754EDF
:10470E00017D107C027F027E0012842F7B017A0CC9
:10471E0079B07547007548027F107E02128394E4CB
:10472E00F52E900CB0E0F460030247C9A3E0F460EC
:09473E00030247C9752E01F52D97
:1047470078987C0C7D017BFF7A8D792F7E007F071F
:10475700121593E52D2441900C9DF0E52D75F01C65
:10476700A424B0F9740C35F0A801FC7D017B017A13
:104777000C7998121C9B75F01CE52D900CC4121A2D
:10478700BF121A6A0000000075F01CE52D900CC0DE
:10479700121ABF121A6A0000000075F01CE52D906E
:1047A7000CC8121ABFE4F0A3F075F01CE52D900CAD
:0847B700CA121ABFE4F0A3F0DE
:1047BF00052DE52D64107080807EE4F52D75F01CBD
:1047CF00E52D900CB0121ABFE0FF128DD540607529
:1047DF00F01CE52D900CB0121ABFE0605275F01C62
:1047EF00E52D900CB0121ABFE4F075F01CE52D907A
:1047FF000CC4121ABF121A6A0000000075F01CE5F3
:10480F002D900CC0121ABF121A6A0000000075F02A
:10481F001CE52D900CC8121ABFE4F0A3F075F01C24
:10482F00E52D900CCA121ABFE4F0A3F0752E010506
:10483F002DE52DC394104085E52E60177B017A0C72
:10484F0079B0754D00754E027D107C027F027E009F
:10485F0012842FE4F52E7B017A0C79B0F547754859
:10486F00037F107E0212839474FFFFFEFDFC900CF9
:10487F00B0121A42C31219716003024A20752E0139
:02488F00F52D05
:10489100789F7C0C7D017BFF7A8D79367E007F08C5
:1048A100121593E52D2430900CA5F0E52D75F02817
:1048B100A424B0F9740C35F0A801FC7D017B017AC8
:1048C1000C799F121C9BE52D75F028A424BCF9746A
:1048D1000C35F0A801FC7D017BFF7A8D7915121C46
:1048E1009B75F028E52D900CC8121ABF7414F07551
:1048F100F028E52D900CC9121ABF121A6A000000A7
:104901000075F028E52D900CCD121ABF121A6A41DC
:10491100A0000075F028E52D900CD1121ABF121AD3
:104921006A41A0000075F028E52D900CD5121ABF40
:104931007401F075F028E52D900CD6121ABFE4F041
:0E49410075F028E52D900CD7121ABF74F8F00F
:0E494F00052DE52D64046003024891E4F52D6A
:10495D0078A77C0C7D017BFF7A8D793E7E007F09E7
:10496D00121593E52D2430900CAEF0E52D75F02445
:10497D00A42450F9740D35F0A801FC7D017B017A5A
:10498D000C79A7121C9BE52D75F024A4245CF974F9
:10499D000D35F0A801FC7D017BFF7A8D791B121C72
:1049AD009BE52D75F024A42468F9740D35F0A8014C
:0C49BD00FC7D017BFF7A8D791E121C9B93
:1049C900052DE52DB4078DE4F52D75F005E52D9040
:1049D9000E4E121ABFE4F0A3F075F005E52D900E06
:1049E9004C121ABFE4F0A3F075F005E52D900E50B6
:1049F900121ABF7401F0052DE52DB402CDE4F52D91
:104A09007456252DF582E4340EF583E4F0052DE581
:104A19002DB402EC024B44E4F52D75F028E52D90F8
:104A29000CB0121ABFE0FF128DD55003024AC675A9
:104A3900F028E52D900CB0121ABFE07003024AC6A7
:104A490075F028E52D900CB0121ABFE4F075F02826
:104A5900E52D900CC8121ABF7414F075F028E52DD5
:104A6900900CC9121ABF121A6A0000000075F028CA
:104A7900E52D900CCD121ABF121A6A41A0000075DB
:104A8900F028E52D900CD1121ABF121A6A41A00024
:104A99000075F028E52D900CD5121ABF7401F07538
:104AA900F028E52D900CD6121ABFE4F075F028E530
:104AB9002D900CD7121ABF74F8F0752E01052DE54B
:104AC9002DC394045003024A23E4F52D75F024E51F
:104AD9002D900D50121ABFE0FF128DD5405475F07C
:104AE90024E52D900D50121ABFE0604675F024E5BB
:104AF9002D900D50121ABFE4F0E52D75F024A42471
:104B09005CF9740D35F0A801FC7D017BFF7A8D7984
:104B19001B121C9BE52D75F024A42468F9740D352E
:104B2900F0A801FC7D017BFF7A8D791E121C9B7513
:104B39002E01052DE52DC394074091E52E60177BC5
:104B4900017A0C79B0754D00754E037D107C027F9A
:064B5900027E0012842F11
:014B5F002233
:108898008584337B017A0B79FC128A08E4F58475A8
:1088A800D98075D84075DA4275DB42900C61E0A337
:1088B800E0F5FB900C61E0A3E0F5FC900C63E0A30D
:1088C800E0F5FD900C63E0A3E0F5FE900C7CE0FD84
:1088D8007C007E057F001216788E6B8F6CE4F58421
:1088E80075E8C075D107F5BAF5BB75BC7043E702EA
:0388F80085338441
:0188FB00225A
:03007B000276F416
:1076F400C0E0C0F0C083C082C0D075D000C000C05C
:0B77040002C003C004C005C006C0079F
:10770F00758400C2EDE56D25E0242EF582E434008A
:10771F00F583E5BF85BEF0121703E56D121B767773
:10772F004A00775201775A02776203776A047772B9
:10773F0005777A067782070000778875BB01756D2C
:10774F0001803675BB02756D02802E75BB08756D95
:10775F0003802675BB03756D04801E75BB04756DA4
:10776F0005801675BB05756D06800E75BB06756DAC
:10777F0007800675BB00756D00E56C156C70021502
:09778F006B14456B600302787273
:10779800900C7CE0FF74A08FF0841313543F752580
:1077A80000F526E4FBFAEB64034A7020900C7CE0B9
:1077B80075F00A84FF7E00900034E0FCA3E0FD121F
:1077C8001666900020EEF0A3EFF08037EB25E0FF7F
:1077D800EA33FE742E2FF58274003EF583E0FEA393
:1077E800E0FFAC25AD26121678AC06AD07EB25E018
:1077F800FFEA33FE741A2FF58274003EF583ECF02D
:10780800A3EDF0EB25E0FFEA33FE742E2FF582742A
:10781800003EF583E4F0A3F00BBB00010AEB64081B
:107828004A7083900004E07029900C5BE0FEA3E0AE
:10783800FF900C5AE02FFF900C59E03EFE90001A82
:10784800E0FCA3E0FDC3EF9DFFEE9C90001AF0A3BF
:10785800EFF0900C7CE0FD7C007E057F001216782E
:0A7868008E6B8F6C90028F7401F09C
:0C787200E56D7003D38001C34002D2EC2E
:10787E00D007D006D005D004D003D002D000D0D08F
:09788E00D082D083D0F0D0E032AA
:038019000119FF4B
:108A5C00AF8475840F75E1EF75E20775E3C475A4F7
:108A6C00157580EA75ADFF75A53D759001E4F5A609
:108A7C0075A0FF75A7F875B07F759CFFF5C8F59DBF
:108A8C0075D8FFF59E75E8FF759FFF75F8FFFDFC27
:108A9C000DBD00010CBC0BF8BDB8F575F8F78F8453
:018AAC0022A7
:108BDC00AF84E4F584F5D875D980F5F9F5FAF5E9A3
:108BEC0075EA0C75DC4675D840900C80F0A3F090BB
:108BFC00025AF0A3F0F584C28C758905438E08F5F2
:108C0C008AF58CC28DD28C758401758880758930FB
:078C1C00D2A943E6308F846A
:018C2300222E
:0D8DE400AF84E4F584C289D288D2A88F84C0
:018DF100225F
:03005B00027A2303
:107A2300C0E0C0F0C083C082C0D075D000C000C029
:0D7A330001C002C003C004C005C006C007AA
:107A400053E6CF758400AF8CEFFEAD8A7C00E42D49
:107A5000F528EC3EF527900C80E0FEA3E0FFC3E59F
:107A6000289FFFE5279EFED3EF9464EE9400500319
:107A7000027B7CC28C758A00758C00C28DD28CE52D
:047A800019F4704144
:107A8400F519F529AE27AF28E52925E02442F5822A
:107A9400E43400F583EEF0A3EFF0E4FCFDE51D2FE4
:107AA400FFE51C3EFEED351BFDEC351A8F1D8E1CCB
:0E7AB4008D1BF51A0529E529B404C990025A64
:107AC200027B6E0519E519C394044003751900E59C
:107AD2001925E02442F582E43400F583E0FEA3E0B8
:107AE200FBC3E51D9BFFE51C9EFEE51B9400FDE527
:107AF2001A94008F1D8E1C8D1BF51AAE27AF28E538
:107B02001925E02442F582E43400F583EEF0A3EF78
:107B1200F0E4FCFDE51D2FFFE51C3EFEED351BFDEF
:107B2200EC351A8F1D8E1C8D1BF51AE47B04FAF9B5
:107B3200F8AC1A1218AE8E278F28C390025BE0951C
:107B420028FF90025AE09527FEC394004006AC0637
:107B5200AD078009C3E49FFFE49EFCAD0790025A83
:107B6200E0C313FFC3ED9FEC94004007E527F0A3A9
:107B7200E528F0900C80E4F0A3F07584015388CFDF
:037B820043E630A7
:107B8500D007D006D005D004D003D002D001D00054
:0B7B9500D0D0D082D083D0F0D0E032FE
:03005300028C24F8
:108C2400C0E0C083C082C0D075D000C004C005C0FD
:108C340006C00753E6CF758400AF8CEFFEAD8A7C87
:108C440000E42DFFEC3E900C80F0A3EFF07584015E
:108C54005388CF43E630D007D006D005D004D0D017
:078C6400D082D083D0E03282
:03000B00028CE282
:108CE200C0E0C083C08253E6CF758400C28C758A0F
:108CF20000758C00D28C900C80E4F0A3F090025AA4
:108D0200F0A3F07584015388CF43E630D082D0833C
:038D1200D0E0327C
:0300030002865022
:10865000C0E0C0F0C083C082C0D075D000C000C0F0
:0986600003C004C005C006C007F8
:10866900A2AFE433FB900C837401F0900C7CE0FD25
:108679007C007E057F001216788E6B8F6C756D00FD
:108689007F1090002EE4F0A3DFFCC2AF53E7FE7524
:108699008400C2ECC2ED75BB0075840175C8007415
:0E86A900FFF5CDF5CC43E70143C8042B92AF9B
:1086B700D007D006D005D004D003D000D0D0D082C8
:0786C700D083D0F0D0E032B7
:108D7500000000010000000C00000077000004A9BD
:108D850000002E9A0001D2090012345600B60B617C
:088D9500071C71C7471C71C7E0
:04801C004110C2004D
:1000A600900288121ADB8B448A458946E4F542F5AC
:1000B60043AB44AA45A9460543E543AE4270020553
:1000C60042142406F582E43EF583740112164405B3
:1000D60043E543AE4270020542142406F582E43E2F
:1000E600F58374021216440543E543AE42700205D9
:1000F60042142406F582E43EF583E41216440543D1
:10010600E543AE4270020542142406F582E43EF54C
:100116008374011216440543E543AE42700205425C
:10012600142406F582E43EF583E41216440543E5FD
:1001360043AE4270020542142406F582E43EF5837E
:10014600E41216440543E543AE4270020542142408
:1001560006F582E43EF58374011216440543E54331
:10016600AE4270020542142406F582E43EF583741D
:10017600011216440543E543AE42700205421424BB
:1001860006F582E43EF583E41216440543E543AEE4
:100196004270020542142406F582E43EF583E41219
:1001A60016440543E543AE4270020542142406F5A3
:1001B60082E43EF583E41216440543E543AE4270FD
:1001C600020542142406F582E43EF583E412164441
:1001D6000543E543AE4270020542142406F582E467
:1001E6003EF58374011216440543E543AE427002A0
:1001F6000542142406F582E43EF58374061216447D
:100206000543E543AE4270020542142406F582E436
:100216003EF583E41216440543E543AE42700205FB
:1002260042142406F582E43EF58374011216440551
:1002360043E543AE4270020542142406F582E43ECD
:10024600F583E41216440543E543AE4270020542C7
:10025600142406F582E43EF583E41216440543E5CC
:1002660043AE4270020542142406F582E43EF5834D
:1002760074011216440543E543AE4270020542146A
:100286002406F582E43EF58374121216440543E50E
:1002960043AE4270020542142406F582E43EF5831D
:1002A600E41216440543E543AE42700205421424A7
:1002B60006F582E43EF58374011216440543E543D0
:1002C600AE4270020542142406F582E43EF583E44C
:1002D6001216440543E543AE427002054214240655
:1002E600F582E43EF583E41216440543E543AE4247
:1002F60070020542142406F582E43EF58374011269
:1003060016440543E543AE4270020542142406F541
:1003160082E43EF58374031216440543E543AE4278
:1003260070020542142406F582E43EF583E41216B3
:10033600440543E543AE4270020542142406F582A5
:10034600E43EF583E41216440543E543AE427002EB
:100356000542142406F582E43EF583E412164405AC
:1003660043E543AE4270020542142406F582E43E9C
:10037600F583E41216440543E543AE427002054296
:10038600142406F582E43EF58374011216440543EF
:10039600E543AE4270020542142406F582E43EF5BA
:1003A6008374301216440543E543AE42700205429B
:1003B600142406F582E43EF583E41216440543E56B
:1003C60043AE4270020542142406F582E43EF583EC
:1003D600E41216440543E543AE4270020542142476
:1003E60006F582E43EF583E41216440543E543AE82
:1003F6004270020542142406F582E43EF583E412B7
:1004060016440543E543AE4270020542142406F540
:1004160082E43EF58374011216440543E543AE4279
:1004260070020542142406F582E43EF58374041234
:1004360016440543E543AE4270020542142406F510
:1004460082E43EF583E41216440543E543AE42706A
:10045600020542142406F582E43EF583E4121644AE
:100466000543E543AE4270020542142406F582E4D4
:100476003EF583E41216440543E543AE4270020599
:1004860042142406F582E43EF583E412164405433D
:10049600E543AE4270020542142406F582E43EF5B9
:1004A6008374011216440543E543AE4270020542C9
:1004B600142406F582E43EF583742012164405439F
:1004C600E543AE4270020542142406F582E43EF589
:1004D60083E41216440543E543AE42700205421416
:1004E6002406F582E43EF583E41216440543E5430B
:1004F600AE4270020542142406F582E43EF583E41A
:100506001216440543E543AE4270020542128021AD
:1005160090027DE07002A3E070F6900287E0FF9003
:100526000286E06F60F490028B121ADB900287E07D
:10053600FF75F0DCA4F58285F08312175AF5438522
:10054600F042EFB402047F008006900287E004FFC9
:10055600900287EFF0E54364017004E542640560AC
:0D0566000C900287E0FF900286E0B507B917
:10057300900EA1121A6A0000AFC8E4FFFEFDFC90C2
:100583000EA1121A42D312195B4017900EA1121A30
:100593003674FFFBFAF9F8121816900EA1121A5EC0
:0205A30080D8FE
:1005A500E54364017004E542640560030200B2E4BA
:1005B500F542F543AB44AA45A9460543E543AE429A
:1005C50070020542142406F582E43EF58374011297
:1005D50016440543E543AE4270020542142406F570
:1005E50082E43EF58374111216440543E543AE4299
:1005F50070020542142406F582E43EF583E41216E2
:10060500440543E543AE4270020542142406F582D3
:10061500E43EF583E41216440543E543AE42700219
:100625000542142406F582E43EF583E412164405DA
:1006350043E543AE4270020542142406F582E43ECA
:10064500F583E41216440543E543AE4270020542C4
:10065500142406F582E43EF583740112164405431D
:10066500E543AE4270020542142406F582E43EF5E8
:100675008374211216440543E543AE4270020542D8
:10068500142406F582E43EF583E41216440543E599
:1006950043AE4270020542142406F582E43EF5831A
:1006A500E41216440543E543AE42700205421424A4
:1006B50006F582E43EF583E41216440543E543AEB0
:1006C5004270020542142406F582E43EF583E412E5
:1006D50016440543E543AE4270020542142406F56F
:1006E50082E43EF58374011216440543E543AE42A8
:1006F50070020542142406F582E43EF58374221245
:1007050016440543E543AE4270020542142406F53E
:1007150082E43EF583E41216440543E543AE427098
:10072500020542142406F582E43EF583E4121644DC
:100735000543E543AE4270020542142406F582E402
:100745003EF583E41216440543E543AE42700205C7
:1007550042142406F582E43EF583E412164405436B
:10076500E543AE4270020542142406F582E43EF5E7
:1007750083740A1216440543E543AE4270020542EE
:10078500142406F582E43EF58374071216440543E6
:10079500E543AE4270020542142406F582E43EF5B7
:1007A50083E41216440543E543AE42700205421444
:1007B5002406F582E43EF583E41216440543E54339
:1007C500AE4270020542142406F582E43EF583E448
:1007D5001216440543E543AE427002054214240651
:1007E500F582E43EF583E41216440543E543AE4243
:1007F50070020542142406F582E43EF583740A125C
:1008050016440543E543AE4270020542142406F53D
:1008150082E43EF58374081216440543E543AE426F
:1008250070020542142406F582E43EF583E41216AF
:10083500440543E543AE4270020542142406F582A1
:10084500E43EF583E41216440543E543AE427002E7
:100855000542142406F582E43EF583E412164405A8
:1008650043E543AE4270020542142406F582E43E98
:10087500F583E41216440543E543AE427002054292
:10088500142406F582E43EF583740A1216440543E2
:10089500E543AE4270020542142406F582E43EF5B6
:1008A5008374021216440543E543AE4270020542C5
:1008B500142406F582E43EF583E41216440543E567
:1008C50043AE4270020542142406F582E43EF583E8
:1008D500E41216440543E543AE4270020542142472
:1008E50006F582E43EF583E41216440543E543AE7E
:1008F5004270020542142406F582E43EF583E412B3
:1009050016440543E543AE4270020542142406F53C
:1009150082E43EF583740A1216440543E543AE426C
:1009250070020542142406F582E43EF5837409122B
:1009350016440543E543AE4270020542142406F50C
:1009450082E43EF583E41216440543E543AE427066
:10095500020542142406F582E43EF583E4121644AA
:100965000543E543AE4270020542142406F582E4D0
:100975003EF583E41216440543E543AE4270020595
:1009850042142406F582E43EF583E4121644054339
:10099500E543AE4270020542142406F582E43EF5B5
:1009A50083740A1216440543E543AE4270020542BC
:1009B500142406F582E43EF58374011216440543BA
:1009C500E543AE4270020542142406F582E43EF585
:1009D50083E41216440543E543AE42700205421412
:1009E5002406F582E43EF583E41216440543E54307
:1009F500AE4270020542142406F582E43EF583E416
:100A05001216440543E543AE42700205421424061E
:100A1500F582E43EF583E41216440543E543AE4210
:100A250070020542142406F582E43EF583740A1229
:100A350016440543E543AE4270020542142406F50B
:100A450082E43EF58374031216440543E543AE4242
:100A550070020542142406F582E43EF583E412167D
:100A6500440543E543AE4270020542142406F5826F
:100A7500E43EF583E41216440543E543AE427002B5
:100A85000542142406F582E43EF583E41216440576
:100A950043E543AE427002054212802190027DE09B
:100AA5007002A3E070F6900287E0FF900286E06F87
:100AB50060F490028B121ADB900287E0FF75F0DC80
:100AC500A4F58285F08312175AF54385F042EFB4F9
:100AD50002047F008006900287E004FF900287EF02
:100AE500F0E54364017004E5426405600C900287FB
:090AF500E0FF900286E0B507B9AC
:100AFE00900EA5121A6A0000AFC8E4FFFEFDFC902E
:100B0E000EA5121A42D312195B4017900EA5121A97
:100B1E003674FFFBFAF9F8121816900EA5121A5E2B
:020B2E0080D86D
:100B3000E54364017004E542640560030205B4E422
:100B4000F542F543AB44AA45A9460543E543AE4209
:100B500070020542142406F582E43EF58374FA120D
:100B600016440543E543AE4270020542142406F5DF
:100B700082E43EF583E41216440543E543AE427039
:100B8000020542142406F582E43EF5837401121630
:100B9000440543E543AE4270020542142406F58243
:100BA000E43EF583E41216440543E543AE42700289
:100BB0000542142406F582E43EF5837401121644BE
:100BC0000543E543AE4270020542142406F582E473
:100BD0003EF583E41216447F0812803090027DE0D7
:100BE0007002A3E070F6900287E0FF900286E06F4B
:100BF00060F490028B121ADB900287E0FF75F0DC44
:100C0000A4F58285F08312175AF54385F042EFB4BC
:100C100002047F008006900287E004FF900287EFC5
:100C2000F0E54364017004E5426405600C900287BE
:090C3000E0FF900286E0B507B96F
:100C3900900EA9121A6A0000AFC8E4FFFEFDFC90ED
:100C49000EA9121A42D312195B4017900EA9121A53
:100C59003674FFFBFAF9F8121816900EA9121A5EEB
:020C690080D831
:0F0C6B00E54364017004E54264056003020B3F3A
:100C7A00900C7CE0FBE4FAF9F87F807E967D98FC84
:100C8A00128C6B8F4A8E498D488C477808121982CC
:100C9A00E4FFE4FDFCC004C005C006C007AF4AAECD
:100CAA0049AD48AC477818121982E4FEFDFCD0031E
:100CBA00D002D001D000121940C004C005C006C03D
:100CCA0007AF4AAE49AD48AC477808121995E4FF18
:100CDA00FEE4FCD003D002D001D000121940C004B7
:100CEA00C005C006C007AF4AAE49AD48AC47781840
:100CFA00121995E4FFFEFDECD003D002D001D0001A
:100D0A00121940AB44AA45A946900006121A12E4E9
:100D1A00754A0AF549F548F547AF4AAE49AD48ACB8
:100D2A00477808121982E4FFE4FDFCC004C005C03C
:100D3A0006C007AF4AAE49AD48AC477818121982C7
:100D4A00E4FEFDFCD003D002D001D000121940C04D
:100D5A0004C005C006C007AF4AAE49AD48AC4778E3
:100D6A0008121995E4FFFEE4FCD003D002D001D0AA
:100D7A0000121940C004C005C006C007AF4AAE49F8
:100D8A00AD48AC477818121995E4FFFEFDECD00384
:100D9A00D002D001D000121940AB44AA45A946900E
:100DAA00000A121A127542007543080543E543AE5C
:100DBA004270020542142406F582E43EF58374016A
:100DCA001216440543E543AE427002054214240656
:100DDA00F582E43EF58374011216440543E543AEF9
:100DEA004270020542142406F582E43EF583E412B9
:100DFA0016440543E543AE4270020542142406F543
:100E0A0082E43EF583E41216440543E543AE42709C
:100E1A00020542142406F582E43EF5837432121662
:100E2A00440543E543AE4270020542142406F582A6
:100E3A00E43EF583E41216440543E543AE427002EC
:100E4A000542142406F582E43EF5837434121644EE
:100E5A000543E543AE4270020542142406F582E4D6
:100E6A003EF58374031216440543E543AE4270020D
:100E7A000542142406F582E43EF583E4121644057D
:100E8A0043E543AE4270020542142406F582E43E6D
:100E9A00F583E41216440543E543AE427002054267
:100EAA00142406F582E43EF583E41216440543E56C
:100EBA0043AE4270020542142406F582E43EF583ED
:100ECA00E4121644AD43AC427F077E061280369088
:100EDA00027DE07002A3E070F6900287E0FF9002C4
:100EEA0086E06F60F490028B121ADB900287E0FFB3
:100EFA0075F0DCA4F58285F08312175AF54385F064
:100F0A0042EFB402047F008006900287E004FF905B
:100F1A000287EFF0E54364017004E5426405600C62
:0C0F2A00900287E0FF900286E0B507B956
:0F0F3600E54364017004E54264056003020C7A30
:010F45002289
:10802100142406F582E43EF583E41216447F01AD83
:0580310043AC427E0695
:088036008E4B8F4C8C4D8D4EDA
:10803E00900288121ADB74B5121632900288121A48
:10804E00DB9000017462121644E54B90000212168A
:10805E0044E54C900003121644E54E9000041216AF
:10806E0044E54D900005121644E4F550F54F7F029D
:10807E00FEE54E2406FDE4354DFCC3EF9DEE9C500F
:10808E001C900288121ADB8F828E831215D2254F16
:10809E00F54F2550F5500FBF00010E80D490028889
:1080AE00121ADBE54E2406FFE4354D8F82F583E58B
:1080BE004F121644E54E2407FFE4354D8F82F583AB
:1080CE00E5501216447B017A02797BE54E2408FDB9
:0780DE00E4354DFC02895757
:063051008B2D8A2E892F51
:103057009010C2E0700504F00200A6AB2DAA2EA9BD
:103067002F12172F121B9C307E0102336F0106357A
:07307700460112000037B50D
:10307E007406252FF52FE4352EF52E753300753495
:10308E000075353BE4F536F537782DE475F0011211
:10309E001ACB1215B9FF783374FFF5F0121ACBEF75
:1030AE001216320537E53770020536640445367060
:1030BE00D8AC38EC3350047F0180027F008F3CAFD8
:1030CE003BAE3AAD39AC38EC334002800BAF3BAE81
:1030DE003AAD39AC3812194D8F3B8E3A8D398C384A
:1030EE00AB30AA31A93290000A121A9B00000000E0
:1030FE00E4F536F537AB30E532240AF9E43531FA2A
:10310E00C003C002C0011219A8C004C005C006C089
:10311E0007E47B0AFAF9F8AF3BAE3AAD39AC381298
:10312E008C6BAC00AD01AE02AF03C004C005C0068F
:10313E00C007E537AE367802C333CE33CED8F92486
:10314E0075F582748D3EF583121A4ED007D006D0D7
:10315E0005D004121823A804A905AA06AB07D007A8
:10316E00D006D005D004121816D001D002D003120A
:10317E0019F8AF3BAE3AAD39AC38E47B0AFAF9F840
:10318E00128C6B8F3B8E3A8D398C380537E5377044
:10319E00020536640A45366003023103E53C6015CC
:1031AE00AB30AA31A93290000A1219C812194D90EB
:1031BE00000A121A1275330075340075353BE4F5AA
:1031CE0036F537782DE475F001121ACB1215B9FFCA
:1031DE00783374FFF5F0121ACBEF1216320537E57D
:1031EE0037700205366404453670D8AC38EC33506F
:1031FE00047F0180027F008F3CAF3BAE3AAD39AC0D
:10320E0038EC334002800BAF3BAE3AAD39AC3812DE
:10321E00194D8F3B8E3A8D398C38AB30AA31A9328D
:10322E00900006121A9B00000000E4F536F537AB4D
:10323E0030E5322406F9E43531FAC003C002C0018C
:10324E001219A8C004C005C006C007E47B0AFAF92B
:10325E00F8AF3BAE3AAD39AC38128C6BAC00AD0169
:10326E00AE02AF03C004C005C006C007E537AE36D8
:10327E007802C333CE33CED8F92475F582748D3EE1
:10328E00F583121A4ED007D006D005D0041218239B
:10329E00A804A905AA06AB07D007D006D005D0040E
:1032AE00121816D001D002D0031219F8AF3BAE3A65
:1032BE00AD39AC38E47B0AFAF9F8128C6B8F3B8E81
:1032CE003A8D398C380537E53770020536640A4574
:1032DE0036600302323DE53C6015AB30AA31A932AF
:1032EE009000061219C812194D900006121A127487
:1032FE0004252FF52FE4352EF52E75330075340089
:10330E0075353BE4F536F537782DE475F001121A74
:10331E00CB1215B9FF783374FFF5F0121ACBEF12FA
:10332E0016320537E537700205366404453670D817
:10333E00AF3BAE3AAD39AC38E47BE87A03F9F8121C
:10334E008C6B8F3B8E3A8D398C38AB30AA31A932CB
:10335E0090000EEE8FF01217E99002C3E04404F0D5
:10336E0022AB2DAA2EA92F90002F1215D2FE90005F
:10337E002E1215D27C002400FFEC3E900293F0A397
:10338E00EFF09000311215D2900C82F07402252FBE
:10339E00F52FE4352EF52EFAA92F90000B1215D22B
:1033AE00540D640D6008E4900C82F002353EE53257
:1033BE002403F9E43531853033F5348935E4F536B7
:1033CE00F537782DE475F001121ACB1215B9FF7886
:1033DE003374FFF5F0121ACBEF1216320537E537BC
:1033EE00700205366404453670D874012535F535FE
:1033FE00E43534F534900C82E0604A74FFFFFEFD34
:10340E00FC90002A121A42C31219717038AB33AAFB
:10341E0034A9351219A8E4FBFAF9F8C31219716030
:10342E0024AB33AA34A9351219A874FFFBFAF9F8A4
:10343E00C3121971600FAB33AA34A9351219A890B3
:10344E00002A121A5E900C82E06038AB33AA34A9BF
:10345E00351219A8E4FBFAF9F8C31219716024ABFE
:10346E0033AA34A9351219A874FFFBFAF9F8C3125E
:10347E001971600FAB33AA34A9351219A890003E0A
:10348E00121A5E7404252FF52FE4352EF52EE53233
:10349E002404F9E43531FAE92401F9E43A853033AC
:1034AE00F5348935E4F536F537782DE475F00112EB
:1034BE001ACB1215B9FF783374FFF5F0121ACBEF51
:1034CE001216320537E5377002053664024536703E
:1034DE00D874012535F535E43534F534900C82E099
:1034EE00FF602B900016E0B4FF24A3E0B4FF1FABE7
:1034FE0033AA34A93512172FFDACF04C6010EDF441
:10350E007002ECF46008900016ECF0A3EDF0EF60A2
:10351E001FAB33AA34A93512172FFFAEF04E601031
:10352E00EFF47002EEF46008900018EEF0A3EFF0E6
:08353E009002C3E04402F022F8
:103546007406252FF52FE4352EF52EAB2DFAA92F6F
:103556001219A88F3B8E3A8D398C38780812198249
:10356600E4FFE4FDFCC004C005C006C007AF3BAEE7
:103576003AAD39AC387818121982E4FEFDFCD00356
:10358600D002D001D000121940C004C005C006C048
:1035960007AF3BAE3AAD39AC387808121995E4FF5F
:1035A600FEE4FCD003D002D001D000121940C004C2
:1035B600C005C006C007AF3BAE3AAD39AC38781887
:1035C600121995E4FFFEFDECD003D002D001D00025
:1035D6001219408F3B8E3A8D398C38E47B64FAF9A8
:1035E600F8128C6B8F3B8E3A8D398C388E3E8F3F1E
:1035F6007404252FF52FE4352EF52EAB2DFAA92FC1
:103606001219A88F3B8E3A8D398C38780812198298
:10361600E4FFE4FDFCC004C005C006C007AF3BAE36
:103626003AAD39AC387818121982E4FEFDFCD003A5
:10363600D002D001D000121940C004C005C006C097
:1036460007AF3BAE3AAD39AC387808121995E4FFAE
:10365600FEE4FCD003D002D001D000121940C00411
:10366600C005C006C007AF3BAE3AAD39AC387818D6
:10367600121995E4FFFEFDECD003D002D001D00074
:103686001219408F3B8E3A8D398C38E47B64FAF9F7
:10369600F8128C6B8F3B8E3A8D398C388E3C8F3D71
:1036A6007404252FF52FE4352EF52EAB2DFAA92F10
:1036B6001219A88F3B8E3A8D398C387808121982E8
:1036C600E4FFE4FDFCC004C005C006C007AF3BAE86
:1036D6003AAD39AC387818121982E4FEFDFCD003F5
:1036E600D002D001D000121940C004C005C006C0E7
:1036F60007AF3BAE3AAD39AC387808121995E4FFFE
:10370600FEE4FCD003D002D001D000121940C00460
:10371600C005C006C007AF3BAE3AAD39AC38781825
:10372600121995E4FFFEFDECD003D002D001D000C3
:103736001219408F3B8E3A8D398C38E47B64FAF946
:10374600F8128C6B8F3B8E3A8D398C38C3E49FF51B
:1037560041E49EF540E53C5407FEE47803CEC313EE
:10376600CE13D8F9AB30AA31A93290001012164404
:10377600E53E5407FEE47806CEC313CE13D8F9907F
:1037860000101215FFE54054039000101215FFE5D6
:103796003D900011121644E53F900012121644E5C2
:0E37A600419000131216449002C3E04401F05B
:0737B4002275360075370194
:0137BB0022EB
:02FDFE0080FE85
:100F460002130CE86480F8E933E83360110460F0BA
:100F5600ED33EC337009E8FCE9FDEAFEEBFF220411
:100F660060DED3EB9FEA9EE99DE8C2E78CF0C2F70C
:100F760095F0400CE8CCF8E9CDF9EACEFAEBCFFBD8
:100F86001212D785D0F05804700320D5B3E8047048
:100F9600075002B2D502131692D5EC0460F7E4CCE2
:100FA600C0E0C398F8603B94186008400DD0E0FBA1
:100FB6000212EEE4FBFAC9FC8028E830E406E4C934
:100FC600FBE4CAFCE830E305E4C9CACBFCE85407F5
:100FD6006010F8C3E913F9EA13FAEB13FBEC13FC00
:100FE600D8F130F52FC3E49CFCEF9BFFEE9AFEEDA3
:100FF60099FDD0E0FBEF4E4D4C701222DB0302133D
:1010060013EC2CFCEF33FFEE33FEED33FDED30E752
:10101600EB0212EEEF2BFFEE3AFEED39FDD0E0FBD0
:1010260050130BBB0003021316ED13FDEE13FEEF78
:0810360013FFEC13FC0212EEA3
:10103E00EC4D6011E8497017ED33EC3304600DE4AC
:10104E00FCFFFEFD22E933E8330470F802130C12A4
:10105E0012D758046009E4CC2481500628500902A6
:10106E001316284003021313C0E0EB4A7044B980F4
:10107E0006D0E0FB021302EF4E701CBD8008EBFFA2
:10108E00EAFEE9FD80EBE98DF0A4FEE5F002112702
:10109E00E9CDF9EAFEEBFFEF89F0A4FCE5F0CE898D
:1010AE00F0A42EFFE435F0CD89F0A42DFEE435F04A
:1010BE008067EF4E7005BD80D780C3EF8BF0A4AC78
:1010CE00F0EE8BF0A42CFCE435F0F8EF8AF0A42CB3
:1010DE00E5F038FCE433CB8DF0A42CFCE5F03BF8C6
:1010EE00EE8AF0A42CFCE5F038F8E433CF89F0A4B6
:1010FE002CFCE5F038CF3400CE89F0A42FFFE5F0BC
:10110E003EFEE433C98DF0A42EFEE5F039CD8AF013
:10111E00A42FFFE5F03EFEE43DFD33D0E0FB50078B
:10112E000BBB000F021316EC2CFCEF33FFEE33FE5D
:06113E00ED33FD0212EE8C
:10114400021316EC5D046005E85904700302130CE5
:101154001212D7580460F6EC4860F2EC7004FDFEFD
:10116400FF22C860DB2481C85009C398600250067E
:101174000213139850CAF582E9294B4A7005AB82D1
:1011840002130275F0007C1A7880C3EF9BEE9AED8F
:1011940099400DC3EF9BFFEE9AFEED99FDE842F0F6
:1011A400DC23ACF0D0E0FFD0E0FED0E0FDAB822049
:1011B400E7101BEB60BAEC2CFCEF33FFEE33FEEDD3
:1011C40033FD0212EEE803F830E705C0F075F000D5
:1011D400EF2FFFEE33FEED33FD40B830E7C280AAB7
:1011E40074F8CC6480CCC86480C8F582046043C3BE
:1011F400EB9FF5F0EA9E42F0E99D42F0E89C45F051
:1012040060305018E5825FFFE582F42B5582FB5075
:10121400210ABA001D09B90019088016E5825BFB92
:10122400E582F42F5582FF50090EBE00050DBD0066
:10123400010CC3EB9FF5F0EA9E42F0E99D42F0E811
:0D1244009C45F06007CC4820E701B3EC2288
:10125100ED33EC33600A047003BD8004ECB2E7FCAB
:01126100226A
:1012620075F020800E75F010800575F0087D007E07
:10127200007F003392D530D50312194DEC33401064
:10128200EF33FFEE33FEED33FDEC33FCD5F0ED2210
:0E129200E5F0247EA2D513CC92E7CDCEFF224C
:1012A000EDD2E7CD33EC3392D524814006E4FFFE46
:1012B000FDFC22FCE4CFCECDCC24E0501174FF80A5
:1012C000EDC3CC13CCCD13CDCE13CECF13CF047042
:0712D000F030D5DE02194DDC
:10558100E5592445F8E60559227842300702784565
:10559100E475F001121ACB0215B92000EB7F2ED26F
:1055A100008018EF540F2490D43440D4FF30040B02
:1055B100EF24BFB41A0050032461FFE55A600215BD
:1055C1005A055DE55D7002055C30070D7842E475B2
:1055D100F001121ACBEF021632028D9D7403D2072D
:1055E1008003E4C207F5598B428A438944E4F55AA2
:1055F100F55CF55DE55A60077F201255BC80F575B5
:105601005BFFC201C200C202C203C205C206C208D8
:1056110012558AFF700D3007057F001255CDAF5D21
:10562100AE5C22B4255FC2D5C20412558AFF24D0D4
:10563100B40A00501A75F00A785A30D50508B6FF39
:105641000106C6A426F620D5047002D20380D9240F
:10565100CFB41A00EF5004C2E5D2040258BAD20105
:1056610080C6D20080C0D20280BCD2D580BAD20519
:1056710080B47F201255BC2002077401B55A004046
:10568100F1125581FF1255BC0255F5D208D20680A0
:1056910095125581FB125581FA125581F94A4B70C9
:1056A1000679B17A597BFF20022EE55A602A7E00E5
:1056B1008E827583001215D260060EEE655B70F066
:1056C100C2D5EBC0E0EAC0E0E9C0E0EE12591AD061
:1056D100E0F9D0E0FAD0E0FB1215B9FF60AAEBC007
:1056E100E0EAC0E0E9C0E01255BCD0E02401F9D005
:1056F100E03400FAD0E0FBE55B0460DCD55BD980E7
:1057010087D20280A21258FD60F7E55B7001041296
:105711001321A95B600DE55B600914F55B1259A4C7
:10572100EF60F3EA30E702F404C3995077EAF42515
:105731005B0430E701E404F55B800D1258FD60C1A4
:10574100EA055B255B121321EA7858F630E701E49C
:10575100255B04D55B042005011412591AE4C0E04D
:105761001259A47858E6601320E70714F61255A4DD
:10577100802204F6D0E014C0E07F001255A4E55B5E
:10578100600712559B155B800B30050312559BD0AA
:10579100E00255F5D0E00480C51258FD60A0E55B3C
:1057A100041213217858EAF6E55B20050260010432
:0557B100240412591A46
:1057B60074FF04C0E01259A41255A4E55B2005024B
:1057C600600312559BD0E0B55BE87F451255AE7875
:1057D60058E67F2B30E7047F2DF404C0E01255BC59
:1057E600D0E075F00A84C0F01255A5D0E01255A598
:1057F6000255F5791080027908C206C2088008D2DF
:10580600D5790A8004790AC2D5E55B047002F55B96
:10581600E4FAFDFEFF125581FC7B082001131255A8
:1058260081FD7B1030000A125581FE125581FF7BE7
:1058360020EC3382D592D55013C3E43000069FFF87
:10584600E49EFEE42001039DFDE49CFCE4CBF8C24B
:1058560001EC700CCFCECDCCE824F8F870F38017AD
:10586600C3EF33FFEE33FEED33FDEC33FCEB33FBDE
:10587600994002FB0FD8E9EB300105F8D0E0C448A7
:10588600B201C0E00AEC4D4E4F78207B0070C2EAB0
:10589600B55B0040BCC0E012591CD0F0D0E020013E
:1058A60004C4C0E0C4B201C0F01255A5D0F0D5F0D2
:1058B600EB0255F5121B7656925357F95856634C20
:1058C600565F4257FD4F5805445805495678435888
:1058D6000B55573C46579A4557064759D150566778
:1058E6002D566B2E568E2B566F23568C2059BA2A60
:1058F60056274800005686E55BB4FF03755B061223
:105906005581FC125581FD125581FE125581FF7895
:1059160051021350790AA2D5200314300509B91093
:10592600020404B9080104A2D5200602500104208D
:1059360002689202B55A005034C0E07F2030031945
:105946007F30A20272067205500F125973C202C24C
:1059560006C205C2087F30800F300503E9C0E01299
:1059660055BC300503D0E0F9D0E0B55ACC30051768
:105976007F30B9100C1255BC7F583004077F7880F1
:1059860003B908031255BC3002057F2D0255BC7FB2
:10599600202008F87F2B2006F322920280CF7F007A
:1059A600B4070050052451F8E6FF22286E756C6C8A
:1059B6002900D2011255813001F8C201785A30D53A
:1059C6000108F60256272D504349581255812403E3
:1059D600B405004001E49059CC931255AD743A12C7
:0A59E60055ADD203755A040257F9BB
:1012D700E9D2E7C933E833F892D5EDD2E7CD33EC5D
:0712E70033FC5002B2D522D6
:1012EE00EC30E7100FBF000C0EBE00080DBD000461
:1012FE000BEB6014A2D5EB13FCED92E7FD2274FF0D
:10130E00FCFDFEFF22E480F8A2D574FF13FC7D8065
:03131E00E480EF79
:10132100F920E72824F950037907E4F42402FB1893
:10133100DBFDE624FB5014E9600DE4F618E604F643
:0F134100B40A08E4F6D9F57401F60A22C2D522DF
:10135000ED33EC3392D5FA602AB4FF33EDC2E77B6C
:10136000FF60067A137975E4227A13797E20D5041A
:101370007A137979224E614E002B494E46002D4951
:101380004E4600E47A08F608DAFC7B00740722E88F
:10139000C0E0ECC0E0EDC0E0EEC0E0EFC0E0EA7518
:1013A000F010A4CAABF075F04DA42BFBE435F0FCB3
:1013B000EA2410FAEB34C5FBEC34D9FCEDC2E7FFAC
:1013C00075F056A4F42411C5F0F434C58FF0A42AA6
:1013D000E5F03BE43CF620E714121483D0E0FFD0A4
:1013E000E0FED0E0FDD0E0FC1211478014F40412BE
:1013F0001483D0E0FFD0E0FED0E0FDD0E0FC12107E
:101400003ED0E0F8E6FAEDD2E7CD33EC332482FBB0
:10141000E4C3CF33CFCE33CECD33CD33DBF37B0735
:1014200075F00A846004F6081B0AE5F0F6088FF0F0
:10143000740AA4FFACF08EF0740AA42CFEACF05039
:10144000010C8DF0740AA42CFDE435F0F608DBDE07
:03145000740722FC
:101453003F8000004120000042C80000447A0000A1
:10146300461C400047C35000497424004B18968023
:101473004CBEBC205A0E1BCA6753C21C749DC5AE1A
:10148300FB60065407601C23231214B1EB5438602D
:101493000912149D1214AC12103EECF8EDF9EEFA99
:1014A300EFCB22EB1214AC80F1543803241C9014BC
:1014B30053FE93FC0EEE93FD0EEE930ECE93FF229E
:030000000284BBBC
:0C84BB00787FE4F6D8FD75816F02850221
:1014C300E709F608DFFA8046E709F208DFFA803E0B
:1014D30088828C83E709F0A3DFFA8032E309F608F8
:1014E300DFFA8078E309F208DFFA807088828C8360
:1014F300E309F0A3DFFA806489828A83E0A3F60814
:10150300DFFA805889828A83E0A3F208DFFA804CED
:1015130080D280FA80C680D4806980F280338010C4
:1015230080A680EA809A80A880DA80E280CA80332D
:1015330089828A83ECFAE493A3C8C582C8CCC583A5
:10154300CCF0A3C8C582C8CCC583CCDFE9DEE78075
:101553000D89828A83E493A3F608DFF9ECFAA9F0F4
:10156300EDFB2289828A83ECFAE0A3C8C582C8CC4A
:10157300C583CCF0A3C8C582C8CCC583CCDFEADE63
:10158300E880DB89828A83E493A3F208DFF980CCC5
:1015930088F0EF60010E4E60C388F0ED2402B404BE
:1015A3000050B9F582EB2402B4040050AF23234565
:0615B30082239015137362
:1015B900BB010689828A83E0225002E722BBFE0230
:0915C900E32289828A83E4932263
:1015D200BB010CE58229F582E5833AF583E02250CE
:1015E20006E92582F8E622BBFE06E92582F8E22218
:0D15F200E58229F582E5833AF583E4932232
:1015FF00BB010FF8E58229F582E5833AF583E028F0
:10160F00F0225009C58229F8E58226F622BBFE0991
:10161F00C58229F8E22582F222F8EA2583F583E9CB
:03162F00932822DB
:10163200BB010689828A83F0225002F722BBFE0197
:02164200F32291
:10164400F8BB010DE58229F582E5833AF583E8F0DC
:10165400225006E92582C8F622BBFE05E92582C888
:02166400F22270
:10166600EF8DF0A4A8F0CF8CF0A428CE8DF0A42E98
:02167600FE2252
:10167800BC000BBE0029EF8DF084FFADF022E4CC56
:10168800F875F008EF2FFFEE33FEEC33FCEE9DEC1F
:10169800984005FCEE9DFE0FD5F0E9E4CEFD22ED65
:1016A800F8F5F0EE8420D21CFEADF075F008EF2FAF
:1016B800FFED33FD4007985006D5F0F222C398FDA0
:0516C8000FD5F0EA223D
:1016CD00C2D5EC30E709B2D5E4C39DFDE49CFCEE38
:1016DD0030E715B2D5E4C39FFFE49EFE121678C322
:1016ED00E49DFDE49CFC800312167830D507C3E41D
:0616FD009FFFE49EFE22A7
:10170300C5F0F8A3E028F0C5F0F8E5821582700271
:061713001583E038F0220E
:10171900A3F8E0C5F025F0F0E58215827002158383
:06172900E0C838F0E822E0
:10172F00BB010A89828A83E0F5F0A3E02250068785
:10173F00F009E71922BBFE07E3F5F009E319228947
:0B174F00828A83E493F5F0740193227A
:10175A00BB0110E58229F582E5833AF583E0F5F0CD
:10176A00A3E0225009E92582F886F008E622BBFEAA
:10177A000AE92582F8E2F5F008E222E5832AF583F0
:08178A00E993F5F0A3E99322B5
:10179200BB010789828A83021703500B09C5F02710
:1017A200F7C5F01937F722BBFE0D09F8E325F0F370
:1017B200C5F019E338F322F889828A8374019325EC
:0817C200F0C5F0F8E4933822B1
:1017CA00BB010A89828A83F0E5F0A3F0225006F76A
:0F17DA0009A7F01922BBFE06F3E5F009F3192267
:1017E900F8BB0111E58229F582E5833AF583E8F032
:1017F900E5F0A3F0225009E92582C8F608A6F022EF
:0D180900BBFE09E92582C8F2E5F008F222D5
:0D181600EF2BFFEE3AFEED39FDEC38FC2221
:10182300E88FF0A4CC8BF0A42CFCE98EF0A42CFC64
:101833008AF0EDA42CFCEA8EF0A4CDA8F08BF0A4E2
:101843002DCC3825F0FDE98FF0A42CCD35F0FCEB41
:101853008EF0A4FEA9F0EB8FF0A4CFC5F02ECD3906
:0F186300FEE43CFCEAA42DCE35F0FDE43CFC2273
:1018720075F008758200EF2FFFEE33FECD33CDCC2D
:1018820033CCC58233C5829BED9AEC99E5829840B0
:101892000CF582EE9BFEED9AFDEC99FC0FD5F0D68D
:1018A200E4CEFBE4CDFAE4CCF9A88222B800C1B9B7
:1018B2000059BA002DEC8BF084CFCECDFCE5F0CBF5
:1018C200F97818EF2FFFEE33FEED33FDEC33FCEB2E
:1018D20033FB10D703994004EB99FB0FD8E5E4F9E9
:1018E200FA227818EF2FFFEE33FEED33FDEC33FCD6
:1018F200C933C910D7059BE99A4007EC9BFCE99ACA
:10190200F90FD8E0E4C9FAE4CCFB2275F010EF2F0E
:10191200FFEE33FEED33FDCC33CCC833C810D7070E
:101922009BEC9AE899400AED9BFDEC9AFCE899F849
:0E1932000FD5F0DAE4CDFBE4CCFAE4C8F922DC
:108C6B00C2D5E830E70FB2D5E4C39BFBE49AFAE434
:108C7B0099F9E498F8EC30E717B2D5128CA11218D9
:108C8B00AEE4C39BFBE49AFAE499F9E498F8800309
:108C9B001218AE30D50DE4C39FFFE49EFEE49DFD9C
:048CAB00E49CFC2227
:0D194000EF4BFFEE4AFEED49FDEC48FC22A6
:0E194D00C3E49FFFE49EFEE49DFDE49CFC22AB
:10195B00EB9FF5F0EA9E42F0E99D42F0EC6480C803
:06196B0064809845F022A3
:10197100EB9FF5F0EA9E42F0E99D42F0E89C45F0CC
:011981002243
:10198200E8600FECC313FCED13FDEE13FEEF13FF43
:03199200D8F12267
:10199500E8600FEFC333FFEE33FEED33FDEC33FCB0
:0319A500D8F12254
:1019A800BB010789828A83021A365005E9F8021CAE
:1019B800B8BBFE05E9F8021CC489828A83021CD0E0
:1019C800BB010DE58229F582E5833AF583021A36D3
:1019D8005007E92582F8021CB8BBFE07E92582F802
:1019E800021CC4E58229F582E5833AF583021CD0FE
:1019F800BB010789828A83021A5E5005E9F8021C36
:0A1A0800E0BBFE05E9F8021CEC2229
:101A1200BB010DE58229F582E5833AF583021A5E60
:101A22005007E92582F8021CE0BBFE07E92582F88F
:041A3200021CEC2284
:0C1A3600E0FCA3E0FDA3E0FEA3E0FF2223
:0C1A4200E0F8A3E0F9A3E0FAA3E0FB2227
:101A4E00E493F8740193F9740293FA740393FB22EE
:0C1A5E00ECF0A3EDF0A3EEF0A3EFF022FB
:101A6A00A8828583F0D083D082121A81121A811239
:101A7A001A81121A81E473E493A3C583C5F0C5835E
:101A8A00C8C582C8F0A3C583C5F0C583C8C582C8C6
:011A9A002229
:101A9B00BB010DE58229F582E5833AF583021A6ACB
:101AAB005007E92582F8021CF8BBFE07E92582F8EE
:041ABB00021D1122D5
:0C1ABF00A42582F582E5F03583F5832232
:101ACB00FAE6FB0808E6F925F0F618E6CA3AF6221C
:091ADB00E0FBA3E0FAA3E0F9220C
:091AE400EBF0A3EAF0A3E9F02203
:101AED00BB010DE58229F582E5833AF583021ADB08
:101AFD005007E92582F8021D2ABBFE07E92582F869
:101B0D00021D3CE58229F582E5833AF583021D4EDF
:101B1D00BB0120E58229F582E5833AF583D0F0D02B
:101B2D00E0F8D0E0F9D0E0FAD0E0FBE8C0E0C0F09A
:101B3D00021AE45018E92582F8D083D082D0E0F95A
:101B4D00D0E0FAD0E0FBC082C083021D33BBFE188B
:101B5D00E92582F8D083D082D0E0F9D0E0FAD0E048
:091B6D00FBC082C083021D452269
:101B7600D083D082F8E4937012740193700DA3A3FE
:101B860093F8740193F5828883E473740293686012
:061B9600EFA3A3A380DF12
:101B9C00D083D082F8E4937012740193700DA3A3D8
:101BAC0093F8740193F5828883E473740293B5F00F
:0D1BBC00067403936860E9A3A3A3A380D877
:061BC9008A838982E473A7
:108D9D00EFB40A07740D128DA8740A309811A899B2
:108DAD00B8130CC2983098FDA899C298B811F63036
:078DBD0099FDC299F599220E
:0F8DD500EFC394204007EF947F50028001C32228
:101BCF00E709F60870FA8046E709F20870FA803ED6
:101BDF0088828C83E709F0A370FA807EE309F60808
:101BEF0070FA8076E309F20870FA806E88828C832F
:101BFF00E309F0A370FA806289828A83E0A3F60872
:101C0F0070FA805689828A83E0A3F20870FA804ABC
:101C1F0080D280FA80C680D4806580F280318010B7
:101C2F0080A680EA809A80A880DA80E280CA80311C
:101C3F0089828A83ECFAE493A3C8C582C8CCC58392
:101C4F00CCF0A3C8C582C8CCC583CC70E9800D8900
:101C5F00828A83E493A3F60870F9ECFAA9F0EDFBFE
:101C6F002289828A83ECFAE0A3C8C582C8CCC583D7
:101C7F00CCF0A3C8C582C8CCC583CC70EA80DD89FF
:101C8F00828A83E493A3F20870F980CE88F0ED2462
:101C9F0002B4040050C4F582EB2402B4040050BA1D
:091CAF002323458223901C1F73BE
:10000E00E4FFFE1215B9600C0FEF70010E09E970D6
:05001E00F20A80EF2250
:1084C7000228D4E493A3F8E493A34003F68001F2CF
:1084D70008DFF48029E493A3F85407240CC8C333B6
:1084E700C4540F4420C8834004F456800146F6DF85
:1084F700E4800B0102040810204080907F56E47E40
:10850700019360BCA3FF543F30E509541FFEE49379
:10851700A360010ECF54C025E060A840B8E493A340
:10852700FAE493A3F8E493A3C8C582C8CAC583CA6B
:10853700F0A3C8C582C8CAC583CADFE9DEE780BE23
:01802000005F
:0C1CB800E6FC08E6FD08E6FE08E6FF2258
:0C1CC400E2FC08E2FD08E2FE08E2FF225C
:101CD000E493FC740193FD740293FE740393FF225A
:0C1CE000ECF608EDF608EEF608EFF62230
:0C1CEC00ECF208EDF208EEF208EFF22234
:101CF800D083D082E493F608740193F608740293B3
:091D0800F608740393F6740473E9
:101D1100D083D082E493F208740193F208740293A1
:091D2100F208740393F2740473D8
:091D2A00E6FB08E6FA08E6F922DE
:091D3300EBF608EAF608E9F622D5
:091D3C00E2FB08E2FA08E2F922D8
:091D4500EBF208EAF208E9F222CF
:0C1D4E00E493FB740193FA740293F922F1
:00000001FF
