:108B9700436F7079726967687420284329203230DF
:108BA70030342D3920547261636B205379737465A7
:108BB7006D7320546563686E6F6C6F676965732C9E
:108BC700204C4C43000200FF000000C0C1C18101DE
:108BD70040C30103C00280C241C60106C00780C767
:108BE700410500C5C1C4810440CC010CC00D80CD36
:108BF700410F00CFC1CE810E400A00CAC1CB810B05
:108C070040C90109C00880C841D80118C01980D9D6
:108C1700411B00DBC1DA811A401E00DEC1DF811F64
:108C270040DD011DC01C80DC411400D4C1D5811575
:108C370040D70117C01680D641D20112C01380D386
:108C4700411100D1C1D0811040F00130C03180F115
:108C5700413300F3C1F28132403600F6C1F7813764
:108C670040F50135C03480F4413C00FCC1FD813D35
:108C770040FF013FC03E80FE41FA013AC03B80FB06
:108C8700413900F9C1F88138402800E8C1E9812954
:108C970040EB012BC02A80EA41EE012EC02F80EF66
:108CA700412D00EDC1EC812C40E40124C02580E575
:108CB700412700E7C1E68126402200E2C1E3812384
:108CC70040E10121C02080E041A00160C06180A196
:108CD700416300A3C1A28162406600A6C1A7816764
:108CE70040A50165C06480A4416C00ACC1AD816D35
:108CF70040AF016FC06E80AE41AA016AC06B80AB06
:108D0700416900A9C1A88168407800B8C1B98179D3
:108D170040BB017BC07A80BA41BE017EC07F80BF65
:108D2700417D00BDC1BC817C40B40174C07580B574
:108D3700417700B7C1B68176407200B2C1B3817383
:108D470040B10171C07080B041500090C191815114
:108D570040930153C052809241960156C057809765
:108D670041550095C1948154409C015CC05D809D34
:108D7700415F009FC19E815E405A009AC19B815B03
:108D870040990159C058809841880148C049808955
:108D9700414B008BC18A814A404E008EC18F814F63
:108DA700408D014DC04C808C41440084C185814574
:108DB70040870147C046808641820142C043808385
:098DC70041410081C1808140405E
:10A1DB00500015000000000000000000000000000F
:10A1EB00000000430C24000000410C2300410CA78D
:10A1FB000A41000500026F0000026B0000500025B1
:10A20B000000000000000000000000000000000043
:10A21B000173004102A700410CAE00420002000096
:10A22B00410CAA0042026A000042004900004202AF
:10A23B00BA00A0410CA900410CAD004202BD0000C8
:10A24B0041000100410004004102ED00410BDD0023
:10A25B00410CA80002740000026D00004202C00015
:10A26B00004102BC004102EE0041000000410CAF76
:0DA27B0000410014004102EC004102EF041C
:10335300E4F52DF52CF52BF52A75840F75FFDE7535
:10336300FFAD12A9FE129B5112002675340175356B
:10337300097536477B017A0C792112A0F9129FD384
:10338300900CA77414F0E49002BCF0900000F0904D
:103393000000E0FFC3942A5018EF75F015A424C26F
:1033A300F582E43402F583E4F0900000E004F08059
:1033B300DEE4900000F012A8E07F007E9612AD6C70
:1033C30012AE3012ABD4E4900281F09002947402F6
:1033D300F090029D744EF07B017A0279F090029096
:1033E3001231C67A0979499002A31231C67A077954
:1033F3002A90028D1231C67A0B79DE9002A0123127
:10340300C6E4900280F090029304F090028A744E16
:10341300F0E4900295F0A3F0900282F0A3F0900202
:103423009FF090028CF090029EF090028BF01BFABA
:10343300F990029A1231C69002971231C690028710
:103443001231C69002841231C60B7A0279807F0052
:103453007E847D037C00129007900014E07B017A48
:1034630002799360067F807E2580047F007EE17D64
:10347300007C00129007900014E060247B017A0224
:1034830079709000451231C67A0279A890004212F1
:1034930031C6E490003EF0A3F0900048F012AE1A5B
:0834A300D2AF900014E0603587
:1034AB00900CB212313200006978E4FFFEFDFC9003
:1034BB000CB21230EAD31230034017900CB2123018
:1034CB00DE74FFFBFAF9F8122EB0900CB212312613
:0234DB0080D897
:1034DD0012837C1200A6900CAF7401F0E490025D93
:1034ED00F0A3F0A3F0900269F0900263F0A3F090C6
:1034FD000261F0A3F0A2DA33900260F090026BE06B
:10350D002458FE90026AE03400900267F0A3CEF0DA
:10351D00900049E0FCA3E0FD2406FEE43C9002652A
:10352D00F0A3CEF0ED2405FEE43C900CC5F0A3CE47
:10353D00F0E5D8540360749002ECE0B40202806BA5
:10354D007B017A00794B754E00754F037F107E021B
:10355D0012A55C9001F1E0540F900006F09001F17E
:10356D00E054F0C4540F900007F0900006E064039F
:10357D00702AE5D85403FFBF020890025D7404F071
:10358D00802E900007E090025DB403097403F0A350
:10359D007401F0801B7401F0A3F08014900007E01B
:1035AD00B4030890025D7402F08005E490025DF0B2
:1035BD00E4FFFED3900948E09F900947E09E401339
:1035CD00744B2FF58274003EF583E4F00FBF0001BC
:1035DD000E80E09002A7E06028C390001AE094B836
:1035ED00900019E0940B5019C2B3C2B6C2B5C2B463
:1035FD00E4F54CF54D7B937D037F0212941A129ED8
:10360D00729002ECE0B4021E20DC0990025F74039C
:10361D00F00237FD90025F30DB067402F00237FDD9
:10362D007404F00237FD90025DE06404600302371C
:01363D00FD8F
:10363E00F52EF52F900049E0FEA3E0FF900CC5E0BB
:10364E00B50612A3E0B5070D752E01900CC5E475F5
:10365E00F001122DD530DB1490025FE0640470038C
:10366E0002372D7404F0752E0102372D90025FE0A3
:10367E00B404277402F090026BE02403FE90026AF9
:10368E00E03400900267F0A3CEF0A2DAE4339002A9
:10369E0060F0E4900269F0752E01900267E0FEA3DF
:1036AE00E0FF90026AE0FCA3E0FD6F7002EC6E702A
:1036BE006EA2DA33FF900260E0FE6F703090026906
:1036CE00E0C394025005E004F08047EE60109002D3
:1036DE005FE06402603C7402F0752E01803490024B
:1036EE005FE06401602C7401F0F52E802590025F7E
:1036FE00E0640360067403F0752E01900260E070C2
:10370E00047F0180027F00900260EFF090026974E6
:10371E0001F0ED2458FEE43C900267F0A3CEF09049
:10372E000C23E0FFC394054006EFD3941F403FE502
:10373E002E603B90025FE0FF908BCFE493FD3395BC
:10374E00E0FC90028D75F013ED1231A1EC75F013C3
:10375E00A42583F5831231BD900007EF122D167547
:10376E004C00754D017B297D037F0212941A900245
:10377E005EE06004A3E0701E90025F7401F09002A0
:10378E005EF090004AE02405FE900049E03400907F
:10379E000265F0A3CEF0900265E0FEA3E0FF90007C
:1037AE0049E0B50619A3E0B50714900265E475F07B
:1037BE000A122DD590025FE0B40103752F01900C13
:1037CE0023E0FFC394054009EFD3941F5003E4F5A3
:1037DE002FE52F601A90025E7405F090026BE024C4
:0F37EE0003FE90026AE03400900263F0A3CEF075
:1037FD00900263E0FEA3E0FF90026AE0FCA3E0FD0F
:10380D006F7002EC6E600302389790025EE024FD4B
:10381D00605324FE601A1460522404706D90025E91
:10382D007403F0ED2428FEE43C900263F0A3CEF087
:10383D0090025EE0B405177406F090026BE0242848
:10384D00FE90026AE03400900263F0A3CEF0900285
:10385D005DE024FD600B1460042403702DD2CC8038
:10386D0029D2CC802590025E7404F090025EE0B403
:10387D0006037401F090025DE024FD600B146004FA
:10388D0024037006C2CC8002C2CC9002841231BDDA
:05389D00E94A4B602B1D
:1038A2009002841231BD8B2E8A2F89307B007A00E0
:1038B20079009002841231C6AB2EAA2FA930E4FF00
:0B38C20012401E900CC3EEF0A3EFF0CC
:1038CD00900CA9E07003023ABAE4F09002EDE0F436
:1038DD0060030239A490025DE0640460030239982C
:0938ED0090025FE0B40436D2CC75
:1038F600900CB61231320001B774E4FFFEFDFC9065
:103906000CB61230EAD31230034017900CB61230C0
:10391600DE74FFFBFAF9F8122EB0900CB6123126BF
:0239260080D847
:0A392800C2CC90025FE0640160660B
:10393200900CBA123132000DBBA0E4FFFEFDFC90E8
:103942000CBA1230EAD31230034017900CBA12307C
:10395200DE74FFFBFAF9F8122EB0900CBA1231267F
:0239620080D80B
:02396400D2CCC3
:10396600900CBE12313200112A88E4FFFEFDFC9055
:103976000CBE1230EAD31230034017900CBE123040
:10398600DE74FFFBFAF9F8122EB0900CBE12312647
:0239960080D8D7
:10399800C2B3C2B6C2B5C2B4C2FF80FE9002EDE0A7
:1039A800FF64F07023900C23EFF0E4F574F5759044
:1039B800000574FFF0D2B3D2B6D2B5D2B4C2A853C0
:1039C800E7FD53E7BF023AB5EFB4F10F900C23F0CF
:1039D800C2B3C2B6C2B5C2B4023AB5EF64F2702B34
:1039E800900C23EFF0D2B3D2B6D2B5D2B4900C2259
:1039F800E024FFFD900C21E034FFFCE4FBFFFE1205
:103A0800A873E4F58443EF01023ABA9002EDE0FFAF
:103A1800C394054008EFD3941F5002D2B69002ED2C
:103A2800E0FFC39405400CEFD3942350067E007F3B
:103A38000180047E007F00900C23E0FDC3940540C4
:103A48000CEDD3942350067C007D0180047C007D1E
:103A580000ED6F7002EC6E604C9002EDE0FFC394D5
:103A680005403FEFD3942350391274A212A8E012F4
:103A780000A6E4900CAEF0900CA7E0FF74A08FF0C5
:103A88008475F00AA4FF90026BE02401FD90026A9D
:103A9800E03400CD2FFEED35F0900002F0A3CEF01B
:103AA8008003129E729002EDE0900C23F0E49002E5
:103AB800EDF0900C23E0FFC3940550030235E0EFCE
:103AC800D3942340030235E09002841231BDE94AC1
:103AD8004B60030235E0900C26E060030235E0906D
:103AE80002871231BDE94A4B60030235E09002A714
:103AF800E07003023DDA90001AE094B8900019E0F3
:103B0800940B4007E49002A7F080069002A7740186
:103B1800F0C3E570940AE56F648094804006756F81
:103B280000757009900014E06007E49002A6F08028
:103B38003590001BE0FEA3E0FFEF24FBFFEE34EB23
:103B4800FEE434FFFDE434FFFCE47BE87A03F9F893
:103B5800122ECBE47BE57A24F9F812AC639002A626
:103B6800EFF0E024CEF0900017E0540FFD90001520
:103B7800E0540FC4F854F0C8E4C4540F482DFF9023
:103B88008BCFE493FD3395E0FC90028D75F013ED37
:103B98001231A1EC75F013A42583F5831231BD9081
:103BA8000007EF122D1690006175F033E5701231A1
:103BB800A1E56F75F033A42583F58375F003E56CF3
:103BC8001231A1E56B75F003A42583F583E0FF901E
:103BD8000015A3E0FEEF2EFF908BCFE4933395E022
:103BE800FC90028D75F013ED1231A1EC75F013A461
:103BF8002583F5831231BD900008EF122D16900031
:103C08006275F033E5701231A1E56F75F033A425C4
:103C180083F58375F003E56C1231A1E56B75F0034C
:103C2800A42583F583E0FF900017A3E0FEEF2EFFA5
:103C3800908BCFE4933395E0FC90028D75F013EDF3
:103C48001231A1EC75F013A42583F5831231BD90D0
:103C58000009EF122D16E5D8F4FF90028D75F013C8
:103C6800ED1231A1EC75F013A42583F5831231BD53
:103C780090000AEF122D1690026FE0FF900023E0EB
:103C8800FEA3E0A807088005CEC313CE13D8F9FF1A
:103C9800908BCFE493FD3395E0FC90028D75F01383
:103CA800ED1231A1EC75F013A42583F5831231BD13
:103CB80090000BEF122D1690026EE0FF900021E0AD
:103CC800FEA3E0A807088005CEC313CE13D8F9FFDA
:103CD800908BCFE493FD3395E0FC90028D75F01343
:103CE800ED1231A1EC75F013A42583F5831231BDD3
:103CF80090000CEF122D1690026DE0FF90001FE06F
:103D0800FEA3E0A807088005CEC313CE13D8F9FF99
:103D1800908BCFE493FD3395E0FC90028D75F01302
:103D2800ED1231A1EC75F013A42583F5831231BD92
:103D380090000DEF122D1690026CE0FF90001DE030
:103D4800FEA3E0A807088005CEC313CE13D8F9FF59
:103D5800908BCFE493FD3395E0FC90028D75F013C2
:103D6800ED1231A1EC75F013A42583F5831231BD52
:103D780090000EEF122D1690025BE0A3FF90028DCB
:103D880075F013ED1231A1EC75F013A42583F583BA
:103D98001231BD90000FEF122D1690025BA3E0FFC9
:103DA80090028D75F013ED1231A1EC75F013A42576
:103DB80083F5831231BD900010EF122D16754C005B
:103DC800754D0A7B927D037F0212941A128959025B
:0E3DD80035E090029FE0FF90029EE06F606D6C
:103DE600EF75F0DCA4FF9002A31231BDE92FF9EACA
:103DF60035F08B2EF52F893090029FE0FFB4020438
:103E06007F008003EF04FF90029FEFF09002A6E090
:103E1600FF90005F75F033E5701231A1E56F75F024
:103E260033A42583F583EFF0AE6FAF707C007D334E
:103E3600122D38744B2FF974003E753401F535890F
:0A3E460036AB2EAA2FA93012495BFB
:103E50000235E0900CAEE0FD7017900002E0FEA38A
:103E6000E0FF90026AE06E7003A3E06F600302352A
:103E7000E0900CA7E0FF74A08FF08475F00AA4FF17
:103E800090026BE02401FB90026AE03400CB2FFE2D
:103E9000EB35F0900002F0A3CEF0ED700E900CAD7B
:103EA000F090000274FFF5F0122DD59002EFE0FFC4
:103EB0007003023F56900C23E0FEC39405500302AA
:103EC0003F56EED3941F4003023F56900CAEE07075
:103ED000030240039002ECE0B40202D2CA90025DF9
:103EE000E0FE605C900C23E0FDC394054052EDD3EE
:043EF000941F504C7F
:103EF400EEB4040790025FE0B4040890025DE0644D
:103F0400046039900CA7E0900CC2B428057406F044
:103F140080037404F0900CC2E0B5072090025E7434
:103F240002F0900261E0FEA3E0FF90026BE02FFF3D
:0C3F340090026AE03E900263F0A3EFF000
:103F40009002EFE014F06003024003F56BF56CF5AE
:063F50006FF57002400352
:103F5600900CADE0FF908BCFE493FD3395E0FC90A1
:103F6600028D75F013ED1231A1EC75F013A42583C3
:103F7600F5831231BD900007EF122D169002BDE0B9
:103F8600A3FF90028D75F013ED1231A1EC75F013BD
:103F9600A42583F5831231BD900008EF122D1690EB
:103FA60002BDA3E0FF90028D75F013ED1231A1EC76
:103FB60075F013A42583F5831231BD900009EF1225
:103FC6002D16754C00754D037B277D037F021294D9
:103FD6001AE4F52EF52FD3900948E0952F9009475E
:103FE600E0952E4018744B252FF5827400352EF57A
:0D3FF60083E4F0052FE52F70DD052E80D946
:10400300E4900CAEF09002EEF0900CADE06007B2DD
:0B401300B5E4F00235E0C2B50235E074
:109E7200C2B6C2B59002ECE0B40202C2CA90025E5F
:059E8200E064037070B4
:109E8700900CC712313200015F90E4FFFEFDFC9099
:109E97000CC71230EAD31230034017900CC71230A8
:109EA700DE74FFFBFAF9F8122EB0900CC7123126B8
:029EB70080D851
:039EB900E4F5C805
:109EBC00900CCB12313200020F58E4FFFEFDFC90E7
:109ECC000CCB1230EAD31230034017900CCB12306B
:109EDC00DE74FFFBFAF9F8122EB0900CCB1231267F
:029EEC0080D81C
:109EEE0090025E7401F0A304F090025DE0FFB404F2
:109EFE000890025FE064046013EF64047003029F35
:0C9F0E00C990025EE064046003029FC979
:109F1A00900CCF12313200015F90E4FFFEFDFC90FD
:109F2A000CCF1230EAD31230034017900CCF123004
:109F3A00DE74FFFBFAF9F8122EB0900CCF1231261C
:029F4A0080D8BD
:109F4C0090025DE024FD603F1460042403706ED227
:019F5C00CC38
:109F5D00900CD31231320001B774E4FFFEFDFC907A
:109F6D000CD31230EAD31230034017900CD31230B9
:109F7D00DE74FFFBFAF9F8122EB0900CD3123126D5
:029F8D0080D87A
:069F8F00C2CC8036D2CCEA
:109F9500900CD71231320001B774E4FFFEFDFC903E
:109FA5000CD71230EAD31230034017900CD7123079
:109FB500DE74FFFBFAF9F8122EB0900CD712312699
:029FC50080D842
:0C9FC700C2CC90025E7401F0E4F5C822E8
:1074A20090026AE0F533A3E0F534E4F56FF570F588
:1074B2006BF56C900CADF0A3F0900947E0FEA3E0F1
:1074C200FF7B017A00794B754E00754F0112A55C66
:1074D200900BDDE024FC601424027027900CA7744A
:1074E20014F0900261E4F0A374F08026900CA7746B
:1074F20028F0900261E4F0A374A4F09002EF740605
:10750200F08016900CA7740AF09002617402F0A346
:107512007434F09002EF7404F0900CA8E09002BC76
:10752200F09002B8E0FCA3E0FD4C700890000AF075
:10753200A3F080679002BFE0701E122939A804A947
:1075420005AA06AB07E4FFFE7D7A7C4812281912D1
:1075520029727C007DF080389002BFE0B40F037482
:1075620010F09002B8E0FCA3E0FDE4122939A8046F
:10757200A905AA06AB07E4FFFE7D7A7C481228190A
:107582001229729002BFE0FD74788DF084FD7C00B8
:10759200122D3890000AEEF0A3EFF0E5D8540370F4
:1075A200079002BCF002787E7B017A00794B754E1F
:1075B20000754F037F107E0212A55CE4F531F532AF
:1075C20090006375F028E5321231A1E53175F0289B
:1075D200A42583F583E024FB601524FB7022746CE0
:1075E2002532F58274023531F5837403F0802074FC
:1075F2006C2532F58274023531F5837402F0800F06
:10760200746C2532F58274023531F5837404F00509
:1076120032E532700205316404453170A3E4F5317C
:10762200F53290007075F028E5321231A1E531751E
:10763200F028A42583F583E0FDE53225E0FFE5315E
:1076420033FE740D2FF58274003EF583EDF0900049
:107652006475F028E5321231A1E53175F028A425D0
:1076620083F5831230EA90006875F028E532123112
:10767200A1E53175F028A42583F5831230DE1226A8
:107682001BC004C005C006C00790006475F028E561
:10769200321231A1E53175F028A42583F583123029
:1076A200EA90006C75F028E5321231A1E53175F0EF
:1076B20028A42583F5831230DE12261BD003D002C4
:1076C200D001D000122819E4FBFAF9F81228B6907A
:1076D200006475F0286005400302775CE5321231E0
:1076E200A1E53175F028A42583F5831230EA9000D4
:1076F2006875F028E5321231A1E53175F028A4252C
:1077020083F5831230DE12261BC004C005C006C0FA
:107712000790006475F028E5321231A1E53175F069
:1077220028A42583F5831230EA90006C75F028E5D1
:10773200321231A1E53175F028A42583F583123088
:10774200DE12261BD003D002D001D000122819C0AD
:1077520004C005C006C0070277E2E5321231A1E596
:107762003175F028A42583F5831230EA90006875FC
:10777200F028E5321231A1E53175F028A42583F510
:10778200831230DE12261BC004C005C006C007905B
:10779200006475F028E5321231A1E53175F028A4B4
:1077A2002583F5831230EA90006C75F028E53212D9
:1077B20031A1E53175F028A42583F5831230DE125C
:1077C200261BD003D002D001D0001228191229237F
:1077D200AB07AA06A905A804C000C001C002C003E5
:1077E20090007175F028E5321231A1E53175F0286B
:1077F200A42583F583E0FF90007275F028E532122C
:1078020031A1E53175F028A42583F583E0C39FFDFE
:10781200E49400FCE4122939D003D002D001D00054
:10782200122710C004C005C006C00790007175F091
:1078320028E5321231A1E53175F028A42583F583BC
:10784200E0FCE412293ED003D002D001D00012267F
:107852001F122972AD07E53225E0FFE53133FE74D0
:107862000C2FF58274003EF583EDF00532E532709F
:107872000205316404453160030276249002BCE0C3
:1078820030E7034403F0E4F531F532D3900948E0E0
:107892009532900947E095314018744B2532F582B4
:1078A20074003531F583E4F00532E53270DD0531DF
:0278B20080D97B
:0178B40022B1
:098959009002BCE07003028B9651
:0389620075310666
:10896500AF319002BCE0FEA807088002C313D8FC13
:1089750020E003028B88E5311232588AFB008AF227
:108985000189E30289E30389A10489A1058999067F
:1089950000008B88E5D8F4F532028B88AF31EF33D0
:1089A50095E0FEEF25E0FFEE33FE74192FF5827496
:1089B500003EF583E0FEA3E0FFAD31ED3395E0FC2D
:1089C500746A2DF58274023CF583E0FDEFA8050875
:0E89D5008005CEC313CE13D8F9F532028B887D
:1089E300E4F533AF31EF3395E0FEEF25E0FFEE33EF
:1089F300FE74192FF58274003EF583E0FEA3E0FFB9
:108A0300AD31ED3395E0FC746A2DF58274023CF5CB
:108A130083E0FBEFA803088005CEC313CE13D8F978
:108A2300F53274042DF58274003CF583E064026032
:108A330003028B88AF31EF3395E0FEEF25E0FFEEC5
:108A430033FE74092FF58274003EF583E06023043E
:108A5300604624FE706A74082FF58274003EF58325
:108A6300E0FFE532D39F40047F0180027F008F3314
:108A7300804EAF31EF3395E0FEEF25E0FFEE33FE9E
:108A830074082FF58274003EF583E0B532047F014C
:108A930080027F008F338028AF31EF3395E0FEEF04
:108AA30025E0FFEE33FE74082FF58274003EF58354
:108AB300E0FFE532C39F50047F0180027F008F33C4
:108AC300E5336015E5312402FF7401A8070880022D
:108AD300C333D8FC42C8028B88E5312402FF7401FA
:0F8AE300A807088002C333D8FCF452C8028B885E
:098AF20090025BE0F532028B8872
:108AFB0090025BE0FEA3E0FFF53290000AE0FCA3DE
:108B0B00E0FD4C6078EF4E6074D3ED9FEC9E5038D7
:108B1B00E4F533F53474062534F58274003533F5FA
:108B2B0083E0B40113E5342404FF7401A807088023
:108B3B0002C333D8FCF452C80534E5347002053354
:108B4B006402453370CF8035E4F533F53474062574
:108B5B0034F58274003533F583E0B40112E5342427
:108B6B0004FF7401A807088002C333D8FC42C80570
:0D8B7B0034E534700205336402453370D0D8
:0E8B88001531C3E53164809480400302896595
:018B960022BC
:10A949008B528A538954E92DF9EA3C8B55F556897E
:10A9590057E4F558F559C3855683855782E55495CB
:10A9690082E5539583502F7852E475F0011231AD89
:10A97900122C8BFFE5596F25E0FFE433FE74D02FCD
:10A98900F582748B3EF583E558FFE493F55874011D
:0AA99900936FF55980C0AE58AF5916
:01A9A3002291
:109FD300E4900D67F07B017A0C792712AA55900C57
:109FE30090E07004A3E064F4700C900C92E07004B1
:109FF300A3E064086018900C90E4F0A374F4F0906C
:10A003000C92E4F0A37408F0900D677401F0900CC7
:10A0130079E0B4FF17900014E0900C79600574C8E0
:10A02300F080037464F0900D677401F0900C78E095
:10A03300640160077401F0900D67F0900C21E0FC5F
:10A04300A3E0FDB40015ECB41011900C95E030E4DE
:10A053000AE054EFF0900D677401F0E4B50515ECD8
:10A06300B42011900C95E020E40AE04410F0900D28
:10A07300677401F0900C27E0FF12005E400D900C16
:10A0830027E06007E4F0900D6704F0900C3BE0FFDD
:10A0930012005E400D900C3BE06007E4F0900D670A
:10A0A30004F0900C4FE0FF12005E400D900C4FE067
:10A0B3006007E4F0900D6704F0900C98E0B4FF079C
:10A0C300E4F0900D6704F0900C99E0B4FF11A3E065
:10A0D300B4FF0CE4900C99F0A3F0900D6704F0909A
:10A0E3000D67E0601012AD3E7B017A0C79277D800D
:05A0F3007C0012A8042E
:01A0F8002245
:10AD3E00AF84E4F584781EF608F6A2AF33FEC2AFF8
:10AD4E0043B701758F0718E6FC08E6F5828C83E49D
:0DAD5E00F0F58F53B7FEEE24FF92AF8F8407
:01AD6B0022C5
:0AA804008B458A4689478C488D4930
:10A80E0085844AE4F584781EF608F6A2AF33FFC2BB
:10A81E00AF43B701758F05E4F54BF54CC3E54C9589
:10A82E0049E5486480F8E54B64809850297845E402
:10A83E0075F0011231AD122C8BFE781E0806E6184B
:10A84E00860470010614F5828C83EEF0054CE54CFF
:10A85E0070CA054B80C6E4F58F53B7FEEF24FF9206
:04A86E00AF854A84E4
:01A8720022C3
:06AA55008B458A4689478B
:10AA5B00858448E4F549F54AF584A2AF33F54BC23A
:10AA6B00AF758F04E4FFFE054AE54AAC4970020559
:10AA7B004914F5828C83E493FD7845E475F001125B
:10AA8B0031ADED122D040FBF00010EEF64804E703F
:0DAA9B00D6E4F58FE54B24FF92AF8548848B
:01AAA800228B
:0EA681008E4C8F4D8C4E8D4F8B508A518952CE
:09A68F0012007EEF30E7F9C2F978
:10A69800E4F557F5580558E55870020557644045E4
:03A6A8005770F2F6
:10A6AB00E54D6401454C70047F8480027F87120066
:10A6BB003EE4FF12003EE4FF12003EE4FF12003EB8
:10A6CB00E4F555F556C3E556954FE54E6480F8E530
:10A6DB0055648098501DAB50AA51A952855682855E
:10A6EB005583122CA4FF12003E0556E55670D60575
:10A6FB005580D2D2F9AD54AC53AF4DAE4C02A789B5
:08A789008E598F5A8C5B8D5C28
:10A79100900947E0FEA3E0FF12A4C28F5D12007E84
:06A7A100EF30E7F9C2F9F8
:10A7A700E4F55EF55F055FE55F7002055E644045B1
:03A7B7005E70F2DF
:10A7BA00E55D6010E55A6401455970047F83801293
:10A7CA007F86800EE55A6401455970047F828002B3
:10A7DA007F8512003EE55CAE5B7806CEA2E713CE1B
:10A7EA0013D8F8FF12003EAF5CEF25E025E0FF1218
:09A7FA00003EE4FF12003ED2F91A
:01A803002232
:02007E00C2F9C5
:10008000E4F569F56A056AE56A7002056964404548
:030090006970F2A2
:0C0093007FD712003EE4FF12003ED2F9BD
:01009F00223E
:0AA55C008E498F4A8B4B8A4C894DC3
:09A5660012007EEF30E7F9C2F9A2
:10A56F00E4F552F5530553E5537002055264404527
:03A57F005270F225
:10A582007FD212003EE54FAE4E7806CEA2E713CE42
:10A5920013D8F8FF12003EAF4FEF25E025E0FF127F
:10A5A200003EE4FF12003EE4FF12003EE4FF120010
:10A5B2003EE4FF12003EE4FF12003EE4F550F55186
:10A5C200C3E551954AE5496480F8E55064809850A6
:10A5D2001FE4FF12003EAB4BAA4CA94D8551828568
:10A5E2005083EF122D160551E55170D4055080D0DD
:02A5F200D2F99C
:01A5F4002244
:08A4C2008E608F618C628D63D6
:0CA4CA0075640112007EEF30E7F9C2F962
:10A4D600E4F567F5680568E5687002056764404558
:03A4E6006770F2AA
:10A4E9007FD212003EE563AE627806CEA2E713CEB4
:10A4F90013D8F8FF12003EAF63EF25E025E0FF1205
:10A50900003EE4FF12003EE4FF12003EE4FF1200A9
:10A519003EE4FF12003EE4FF12003EE4F565F566F5
:10A52900C3E5669561E5606480F8E56564809850E7
:10A539001DE4FF12003EBFFF047F0180027F008FF0
:10A5490064EF600A0566E56670D6056580D2D2F9C2
:02A55900AF64ED
:01A55B0022DD
:04AB42008E478F4863
:09AB460012007EEF30E7F9C2F9BC
:10AB4F00E4F549F54A054AE54A700205496440456E
:03AB5F004970F248
:10AB62007F5012003EE548AE477806CEC313CE139F
:10AB7200D8F9FF12003EAF48EF25E025E0FF1200B2
:08AB82003EE4FF12003ED2F98F
:01AB8A0022A8
:04AB8B008E498F4A16
:09AB8F0012007EEF30E7F9C2F973
:10AB9800E4F54BF54C054CE54C7002054B6440451B
:03ABA8004B70F2FD
:10ABAB007F8112003EE54AAE497806CEC313CE1321
:10ABBB00D8F9FF12003EAF4AEF25E025E0FF120067
:08ABCB003EE4FF12003ED2F946
:01ABD300225F
:06A873008C428D438B4472
:10A87900E5446002C2B68E458F46D3E5469543E569
:10A88900459542504BE54654077034C3E543954618
:10A89900FFE5429545FEC3EF9408EE94004020E59C
:10A8A900446008E546543F7002B2B6AF46AE451261
:10A8B900AB4274072546F546E43545F5458007AFB3
:10A8C90046AE4512AB8B0546E54670AE054580AAF6
:06A8D900E5446002C2B676
:01A8DF002256
:06A0F9008B318A3289332D
:06A0FF00D2F8D2F9C2FA0A
:10A10500E4F537F5380538E538700205376440451C
:03A115003770F2AE
:02A11800D2FA79
:10A11A00E4F537F5380538E5387002053764404507
:03A12A003770F299
:10A12D0012007EEF543C123258A14F0CA15914A1CC
:10A13D00631CA16D24A1882CA1A334A1BE3C0000F9
:10A14D00A1DAAB31AA32A9337402801CAB31AA3229
:10A15D00A93374048012AB31AA32A9337408800874
:10A16D00AB31AA32A933741075F000122E64AB34E2
:10A17D00AA35A936740175F008804FAB31AA32A902
:10A18D0033741075F000122E64AB34AA35A93674F1
:10A19D000275F0108034AB31AA32A933742075F0FA
:10A1AD0000122E64AB34AA35A936740275F01080F6
:10A1BD0019AB31AA32A933742075F000122E64AB9D
:0DA1CD0034AA35A936740475F020122E64F2
:01A1DA002262
:10FE00008E448F458E448F45E4F546F547A2AF33C7
:10FE1000F548C2AFE4F58443B701758F03C3E546E7
:10FE200094FC50168547828546837488F0E4254704
:10FE3000F54774043546F54680E3E4F58FF546F55D
:10FE400047F54BF54C75840FE54C54037002B2B680
:10FE500012FFB58F4DE54D30E7F6C2F9E4F54EF5EA
:10FE60004F054FE54F7002054E6440454E70F27FDE
:10FE7000D212FFA4E54CAE4B7806CEC313CE13D8F6
:10FE8000F9FF12FFA412FF9CE4FF12FFA4E4FF128B
:10FE9000FFA4E4FF12FFA4E4FF12FFA4E4FF12FF9B
:10FEA000A4E4F549F54AE4FF12FFA4744B254AF592
:10FEB0008274003549F583EFF0054AE54A70020582
:10FEC00049C3E549940240DED2F9E4F584758F0117
:10FED000F549F54A744B254AF58274003549F58396
:10FEE000E0FF0547E547AC467002054614F5828CF5
:10FEF00083EFF0054AE54A70020549B400D6E549AA
:10FF0000B402D1E4F58F054CE54C7002054BC39467
:07FF10007FE54B9400500354
:10FF170002FE45E4F58F53B7FEE54824FF92AFE4B0
:10FF2700F5D075840FF54BF54CC3E54B9420505431
:10FF3700E54C543F7002B2B512FFB58F4DE54D3019
:10FF4700E7F6C2F9E4F54EF54F054FE54F700205A8
:10FF57004E6440454E70F27F5012FFA4E54CAE4B05
:10FF67007806CEC313CE13D8F9FF12FFA412FF9C55
:10FF7700E4FF12FFA4D2F97408254CF54CE4354B85
:10FF8700F54B80A512FFB58F4DE54D30E7F6E4F54B
:05FF97008443EF01228C
:10FF9C00AF4CEF25E025E0FFAE84E4F5848F9B3079
:09FFAC00FFFDC2FFAF9B8E842211
:10FFB500C2F9E4F550F5510551E55170020550645B
:10FFC50040455070F27FD712FFA4E4FF12FFA4D280
:02FFD500F9220F
:10940000908BCCE493FFAB32AA33A93490000112C5
:0A9410002CA4FDE4F54CF54D7B069D
:04941A008F498B4BA0
:10941E00754EFFE4F54FF550ED908BCC93F55174EE
:10942E00232DF582E4340CF5837464F0908BCCE438
:10943E0093B54919E54B64066013E54B6415600D51
:10944E00741D2DF582E4340CF583E54BF0E5517572
:10945E00F013A4248DF582E43402F5831231BD7429
:10946E0016122D04E55175F013A4248DF582E43403
:10947E0002F5831231BD900001E549122D16E5511A
:10948E0075F013A4248DF582E43402F5831231BDF8
:10949E00900002ED122D167402254DF54DE4354C5B
:1094AE00F54CFFE55175F013A4248DF582E43402DA
:1094BE00F5831231BD900003EF122D16E55175F0B4
:1094CE0013A4248DF582E43402F5831231BD90008D
:1094DE0004E54D122D16E55175F013A4248DF58279
:1094EE00E43402F5831231BD900005E54B122D16C2
:1094FE00E4FEFFE55175F013A4248DF582E43402E9
:10950E00F5831231BD8F828E83122CA4624E0FBF53
:10951E0000010EEF64064E70DAE55175F013A424C7
:10952E008DF582E43402F5831231BD900006E54ECE
:10953E00122D1674FE254DF54D74FF354CF54CE588
:10954E005175F013A4248DF582E43402F5831231A3
:10955E00BDE92407F9E43AFAAD4DAC4C12A9498E97
:10956E004F8F50EEFFE55175F013A4248DF582E474
:10957E003402F5831231BD054DE54D7002054C24C4
:10958E0006F582E4354CF583EF122D16E55175F094
:10959E0013A4248DF582E43402F5831231BD054DFA
:1095AE00E54D7002054C2406F582E4354CF583E555
:1095BE0050122D16E55175F013A42480F97402355E
:1095CE00F0FA7B01E54D2407FDE4354CFC12A9A40D
:0995DE00E54D2407FFE4354CFEC5
:0195E7002261
:08401E008F318B328A338934A3
:10402600E4900CD3F0A3F0900003122CA4FE9000B1
:1040360004122CA47C002400FFEC3ECF24FECF34D7
:10404600FFFE900CD5F0FCA3EFF0FDE92407F9E4A0
:104056003AFA12AAF8900CD3EEF0A3EFF04E603ABB
:10406600AB32AA33A934900005122CA4FF64157054
:1040760003024952EF64067003024952900001128E
:104086002CA42423F582E4340CF5837464F09000A8
:0A40960001122CA4FF7D0402445F18
:1040A000AB32AA33A934900002122CA4FF908BCC1F
:1040B000E4936F700302415AEFF4700302415AEF28
:1040C00093FF3395E0FE90028D75F013EF1231A14E
:1040D000EE75F013A42583F5831231BDE92407F9A9
:1040E000E43A8B3AF53B893CE5342407F9E435336F
:1040F000853237F5388939E4F535F536D3900CD665
:10410000E09536900CD5E0953540247837E475F08D
:10411000011231AD122C8BFF783AE475F0011231A7
:10412000ADEF122D040536E53670D1053580CDABE7
:1041300032AA33A934900001122CA4FF900002127D
:104140002CA4FD900005122CA4FB900CD5E0F54C9E
:10415000A3E0F54D12941A024952AB32AA33A934A6
:10416000900005122CA412325841BB0641F61041B2
:10417000DF15449A3045BF3145E732460F3346FFDD
:1041800034463735465F3646873746FF3846AF39BF
:1041900046D73A43F34143F342472B50477D5144BE
:1041A000CF55431870437C71422390486891472350
:1041B0009345879442B2980000491E900001122C4A
:1041C000A4241DF582E4340CF583AB32AA33A93460
:1041D000900001122CA4241DF582E4340C8010AB55
:1041E00032AA33A934122C8B241EF582E4340CF548
:1041F00083E4F002490B900C23E0FFC394054006D2
:10420000EFD3941F4004EFB4E20512AAA980031271
:104210009400900CD3EEF0A3EFF0AB32AA33A934A4
:0342200002490B45
:10422300900C23E0FFC394054006EFD3941F400492
:10423300EFB4E20512AAA98065AB32AA33A9349080
:104243000007122CA4FE900008122CA47C0024006A
:10425300F53EEC3EF53DE53175F013A4248DF58272
:10426300E43402F5831231BDE92407F9E43AFA9004
:104273000947E0FEA3E0FF853D4E853E4F12A55C56
:10428300908BCCE493FFAB32AA33A9349000011294
:104293002CA4FD900947E0F54CA3E0129416900C72
:0F42A300D3EEF0A3EFF0AB32AA33A93402490BEC
:1042B200900C23E0FFC394054006EFD3941F400403
:1042C200EFB4E20512AAA9803CAB32AA33A934901A
:1042D2000007122CA4FE900008122CA47C002400DB
:1042E200F53EEC3EF53D900947E0FCA3E0FDE924F4
:1042F20009F9E43AFA853D53853E547F027E001265
:10430200A681129400900CD3EEF0A3EFF0AB32AA88
:0643120033A93402490B3F
:10431800900C23E0FFC394054006EFD3941F40049C
:10432800EFB4E20512AAA9803AE53175F013A42486
:104338008DF582E43402F5831231BDE92407F9E4EE
:104348003AFA12AA55908BCCE493FFAB32AA33A960
:1043580034900001122CA4FD754C00754D807B062D
:1043680012941A900CD3EEF0A3EFF0AB32AA33A953
:104378003402490B900C23E0FFC394054006EFD3A9
:10438800941F4004EFB4E20512AAA9804D12AD3E75
:10439800AB32E5342407F9E43533FA900CD5E0FE66
:1043A800A3E0FFC39480EE94005006AC06AD0780EE
:1043B800047C007D8012A8047B017A0C792712AA5C
:1043C80055900014E06010900C97E030E4047F00F2
:1043D80080027F0112AD96129400900CD3EEF0A3E8
:0B43E800EFF0AB32AA33A93402490BFE
:1043F300900C23E0FFF53DAB32AA33A934900005BE
:10440300122CA4FE7C00B441047D0080027D058C47
:104413003E8D3FEE900C22E024FFFD900C21E03412
:10442300FFFC8C408D41AB32AA33A93490000112BA
:104433002CA42423F582E4340CF583E4F0EFC39435
:10444300054009900C23E0D3941F4007900C23E010
:10445300B4E217900001122CA4FF7D2012AAB89099
:104463000CD3EEF0A3EFF0024952900C2374E2F068
:10447300129400900CD3EEF0A3EFF0E4FFFE12AB26
:104483008B7B01AD41AC40AF3FAE3E12A873900CA5
:0744930023E53DF002495250
:10449A00129400900CD3EEF0A3EFF0AB32AA33A93A
:1044AA0034900001122CA42423F582E4340CF58301
:1044BA00E4F012007E8F3DE53D30E7F6E4F58443F3
:0544CA00EF0102495260
:1044CF00129400900CD3EEF0A3EFF07B017A0279F7
:0C44DF00807F007EE17D007C00129007D1
:1044EB00900CC712313200004650E4FFFEFDFC90E9
:1044FB000CC71230EAD31230034017900CC712309E
:10450B00DE74FFFBFAF9F8122EB0900CC7123126AD
:02451B0080D846
:10451D00E4F584C2ACC298D29975840153E7BFC249
:03452D0098D29988
:1045300075840F30E815C39002C1E094099002C061
:10454000E094004006E4F58443EF01E4F5843098FC
:1045500017758401309911C299F58485993DC298E7
:10456000B2B4758401853D997584013098C2E4F533
:10457000843099BCC29975840185993DC298B2B5C1
:05458000F584853D9962
:1045850080A9129400900CD3EEF0A3EFF0AB32AA01
:1045950033A934900001122CA42423F582E4340CB1
:1045A500F583E4F0900014E070030249529000078F
:1045B500122CA4FF12AD96024952129400900CD30E
:1045C500EEF0A3EFF0AB32AA33A934900001122C20
:1045D500A42423F582E4340CF583E4F01217E602F3
:1045E5004952129400900CD3EEF0A3EFF0AB32AA2F
:1045F50033A934900001122CA42423F582E4340C51
:10460500F583E4F0125192024952129400900CD3B2
:10461500EEF0A3EFF0AB32AA33A934900001122CCF
:10462500A42423F582E4340CF583E4F01286AF026A
:104635004952129400900CD3EEF0A3EFF0AB32AADE
:1046450033A934900001122CA42423F582E4340C00
:10465500F583E4F0125886024952129400900CD367
:10466500EEF0A3EFF0AB32AA33A934900001122C7F
:10467500A42423F582E4340CF583E4F0125E0702EA
:104685004952129400900CD3EEF0A3EFF0AB32AA8E
:1046950033A934900001122CA42423F582E4340CB0
:1046A500F583E4F0127065024952129400900CD320
:1046B500EEF0A3EFF0AB32AA33A934900001122C2F
:1046C500A42423F582E4340CF583E4F01267C702D1
:1046D5004952129400900CD3EEF0A3EFF0AB32AA3E
:1046E50033A934900001122CA42423F582E4340C60
:1046F500F583E4F0128039024952AB32AA33A9346A
:10470500900001122CA42423F582E4340CF583E4F3
:10471500F0900005122CA4FF127CB90249529002B8
:10472500ED74FF024800900C23E064F07027754596
:1047350001754600754705AB32AA33A93412A36843
:10474500129400900CD3EEF0A3EFF00575E57570AB
:104755001E0574801AAB32AA33A934900001122CBD
:10476500A4FF7D0812AAB8900CD3EEF0A3EFF0AB2E
:1047750032AA33A93402490B900C23E0B4F114ABEF
:1047850032AA33A934900007122CA4FF900005E04B
:104795006F6072AB32AA33A934900001122CA4FFCA
:1047A5007D0812AAB8900CD3EEF0A3EFF0AB32AAB5
:1047B50033A934900001122CA42423F582E4340C8F
:0447C500F583E4F0A4
:1047C900900CCB1231320000AFC8E4FFFEFDFC9023
:1047D9000CCB1230EAD31230034017900CCB1230B5
:1047E900DE74FFFBFAF9F8122EB0900CCB123126C9
:0247F90080D866
:1047FB009002ED74F2F0900CA97401F00249521280
:10480B009400900CD3EEF0A3EFF0AB32AA33A934A3
:10481B00900001122CA42423F582E4340CF583E4DC
:01482B00F09C
:10482C00900CCF1231320000AFC8E4FFFEFDFC90BB
:10483C000CCF1230EAD31230034017900CCF123049
:10484C00DE74FFFBFAF9F8122EB0900CCF12312661
:02485C0080D802
:10485E00AF75AE7412ACA7024952900CA97401F058
:10486E00AB32AA33A934900007122CA49002EDF0BB
:10487E00D3900CD6E09401900CD5E09400406D904E
:10488E000008122CA4540F900BDDF0900009122C8E
:10489E00A4900CA8F0E4F535F536AB32AA33A93462
:1048AE00E536240AFFE435358F82F583122CA4FFFA
:1048BE00746C2536F58274023535F583EFF00536C6
:1048CE00E536700205356404453570CEAB32AA3339
:1048DE00A93490000E122CA49002BFF090000F127B
:1048EE002E2CFF9002B8E5F0F0A3EFF0129400909A
:1048FE000CD3EEF0A3EFF0AB32AA33A93490000143
:10490E00122CA42423F582E4340CF583E4F08034D5
:10491E00AB32AA33A934900001122CA42423F582C1
:10492E00E4340CF5837464F0900001122CA4FF7D26
:10493E000212AAB8900CD3EEF0A3EFF074FF900C15
:04494E00D3F0A3F00F
:08495200900CD3E0FEA3E0FF8E
:01495A00223A
:0AAAF8008B428A4389448C458D4649
:10AB020012A9498E478F48AB42AA43A9448546827F
:10AB1200854583122CA47F00FEE5462401FDE43521
:10AB2200458D82F583122CA42FFFE43EFEE548B545
:0FAB32000709E547B50604E4FEFF227EFF7FFF1B
:01AB410022F1
:0FAAA900AB32AA33A934900001122CA4FF7D20F8
:10AAB800AE07EE908BCC93FB3395E0FA90028D7540
:10AAC800F013EB1231A1EA75F013A42583F5831274
:10AAD80031BD900007ED122D16908BCCE493FFAD9D
:10AAE80006754C00754D017B1512941AE4FEFF2281
:06A368008B428A43894488
:10A36E00E4F548F549900003122CA4FE9000041267
:10A37E002CA4FDEEF54AEDF54BE4F548F549E54B19
:10A38E0024FEFFE54A34FFFEC364809482500280AF
:10A39E00047E027F00C3E5499FEE6480F8E54864C1
:10A3AE0080985048AB45AA46A947C003C002C001D9
:10A3BE00122C8BFFAB42AA43A944E5492407FDE4C6
:10A3CE0035488D82F583122CA4FE744B2549F582F7
:10A3DE0074003548F583EEF06FD001D002D0031231
:10A3EE002D040549E5497096054880927E00E57575
:10A3FE005401FF900947E0FCA3E0FD7B017A007950
:0AA40E004B85745385755402A68136
:04ACA7008E428F4307
:10ACAB0090FE00E493FE740193FF900CDAEEF0A398
:10ACBB00EFF0BE8012BFFE0F7B007AFE7902900C84
:0EACCB00D71231C60232ABAF75AE7412FE0066
:01ACD9002258
:10A8E0008584317B017A0C792712AA55900014E0F7
:10A8F000702EF58475D98075D84075DA4275DB42C3
:10A90000900C8CE0A3E0F5FB900C8CE0A3E0F5FC50
:10A91000900C8EE0A3E0F5FD900C8EE0A3E0F5FE38
:10A92000900CA7E0FD7C007E057F00122D4A8E7101
:10A930008F72E4F58475E8C075D107F5BAF5BB757B
:08A94000BC7043E7028531847D
:01A9480022EC
:03007B0002999A4D
:10999A00C0E0C0F0C083C082C0D075D000C000C093
:0B99AA0002C003C004C005C006C007D7
:1099B500758400C2EDE57325E02425F582E43400C5
:1099C500F583E5BF85BEF0122DD5E57312325899A2
:1099D500F00099F8019A00029A13039A1B049A233E
:1099E500059A2B069A330700009A3975BB017573E2
:1099F50001804175BB027573028039900014E060E7
:109A05000575BB07800375BB08757303802675BB99
:109A150003757304801E75BB04757305801675BBCD
:109A250005757306800E75BB06757307800675BBD5
:109A350000757300E5721572700215711445716039
:049A450003029B2C51
:109A4900900CA7E0FF74A08FF0841313543F752284
:109A590000F523E4FBFAEB64034A7026900014E056
:109A69007020900CA7E075F00A84FF7E0090002B0F
:109A7900E0FCA3E0FD122D3890001BEEF0A3EFF0FF
:109A89008037EB25E0FFEA33FE74252FF582740059
:109A99003EF583E0FEA3E0FFAC22AD23122D4AACD4
:109AA90006AD07EB25E0FFEA33FE74152FF5827446
:109AB900003EF583ECF0A3EDF0EB25E0FFEA33FE81
:109AC90074252FF58274003EF583E4F0A3F00BBBF7
:109AD90000010AEB64084A6003029A5F900004E0FF
:109AE9007029900C86E0FEA3E0FF900C85E02FFF23
:109AF900900C84E03EFE900015E0FCA3E0FDC3EF6E
:109B09009DFFEE9C900015F0A3EFF0900CA7E0FDEF
:109B19007C007E057F00122D4A8E718F729002A7FC
:039B29007401F0D4
:0C9B2C00E5737003D38001C34002D2EC4B
:109B3800D007D006D005D004D003D002D000D0D0B2
:099B4800D082D083D0F0D0E032CD
:03A288000119FFBA
:109B510085843175840F75E1EF75E20775E344750E
:109B6100A4157580EA75ADFF75A53D759001E4F505
:109B7100A675A0FFF59E75E8FFE5E854E0FFBFC0BC
:109B8100047F0180027F00900014EFF0600875B03F
:109B91007975A7FE800675B07E75A7F8E4F5C875DE
:109BA1009CFFF59D75D8FF900014E0FF600875F8E3
:109BB10097759FF78006759FFF75F8F7EF6004C2F0
:109BC100FC8002D2FCD2B3C2B6C2B5C2B430D80353
:099BD100029CF120D903029CF171
:0E9BDA00E4F532F533EF6002D2FBD2B4C2CA1A
:109BE800900CC712313200001194E4FFFEFDFC9086
:109BF8000CC71230EAD31230034017900CC712304A
:109C0800DE74FFFBFAF9F8122EB0900CC712312659
:029C180080D8F2
:089C1A0030DB3730DC34D2CA24
:109C2200900CCB12313200001194E4FFFEFDFC9047
:109C32000CCB1230EAD31230034017900CCB123007
:109C4200DE74FFFBFAF9F8122EB0900CCB1231261B
:029C520080D8B8
:109C5400E4F532F53320DC100533E53370020532C8
:109C6400B488F2E532B413ED20DC089002EC740100
:039C7400F0807A03
:0F9C7700753511D2B5E4F534E5351392C8B2CA8C
:109C8600900CCF123132000008CAE4FFFEFDFC90B2
:109C96000CCF1230EAD31230034017900CCF12309B
:109CA600DE74FFFBFAF9F8122EB0900CCF123126B3
:029CB60080D854
:109CB800E535C313F5350534E534B408BAE4F532AF
:109CC800F53330DC100533E53370020532B488F221
:109CD800E532B413ED9002EC30DC057401F0800538
:099CE8007402F0D2B6C2C8C2CA6F
:039CF10085318436
:019CF400224D
:10ABD400AF84E4F584F5D875D980F5F9F5FAF5E98B
:10ABE40075EA0C75DC4675D840900CABF0A3F09078
:10ABF400025BF0A3F0F584C28C758905438E08F5D9
:10AC04008AF58CC28DD28C758401758880758930E3
:07AC1400D2A943E6308F8452
:01AC1B002216
:0DAE3000AF84E4F584C289D288D2A88F8453
:01AE3D0022F2
:03005B00029CF50F
:109CF500C0E0C0F0C083C082C0D075D000C000C035
:0D9D050001C002C003C004C005C006C007B5
:109D120053E6CF758400AF8CEFFEAD8A7C00E42D54
:109D2200F525EC3EF524900CABE0FEA3E0FFC3E585
:109D3200259FFFE5249EFED3EF9464EE940050032A
:109D4200029E4EC28C758A00758C00C28DD28CE543
:049D520019F470414F
:109D5600F519F526AE24AF25E52625E02435F5824E
:109D6600E43400F583EEF0A3EFF0E4FCFDE51D2FEF
:109D7600FFE51C3EFEED351BFDEC351A8F1D8E1CD6
:0E9D86008D1BF51A0526E526B404C990025B74
:109D9400029E400519E519C394044003751900E5B2
:109DA4001925E02435F582E43400F583E0FEA3E0D0
:109DB400FBC3E51D9BFFE51C9EFEE51B9400FDE532
:109DC4001A94008F1D8E1C8D1BF51AAE24AF25E549
:109DD4001925E02435F582E43400F583EEF0A3EF91
:109DE400F0E4FCFDE51D2FFFE51C3EFEED351BFDFB
:109DF400EC351A8F1D8E1C8D1BF51AE47B04FAF9C1
:109E0400F8AC1A122F568E248F25C390025CE0956D
:109E140025FF90025BE09524FEC394004006AC0647
:109E2400AD078009C3E49FFFE49EFCAD0790025B8D
:109E3400E0C313FFC3ED9FEC94004007E524F0A3B7
:109E4400E525F0900CABE4F0A3F07584015388CFC2
:039E540043E630B2
:109E5700D007D006D005D004D003D002D001D0005F
:0B9E6700D0D0D082D083D0F0D0E03209
:0300530002AC1CE0
:10AC1C00C0E0C083C082C0D075D000C004C005C0E5
:10AC2C0006C00753E6CF758400AF8CEFFEAD8A7C6F
:10AC3C0000E42DFFEC3E900CABF0A3EFF07584011B
:10AC4C005388CF43E630D007D006D005D004D0D0FF
:07AC5C00D082D083D0E0326A
:03000B0002ACDA6A
:10ACDA00C0E0C083C08253E6CF758400C28C758AF7
:10ACEA0000758C00D28C900CABE4F0A3F090025B60
:10ACFA00F0A3F07584015388CF43E630D082D08325
:03AD0A00D0E03264
:0300030002A70B46
:10A70B00C0E0C0F0C083C082C0D075D000C000C014
:09A71B0003C004C005C006C0071C
:10A72400A2AFE433FB900CAE7401F0900CA7E0FDF3
:10A734007C007E057F00122D4A8E718F7275730026
:10A744007F10900025E4F0A3DFFCC2AF53E7FE7551
:10A754008400C2ECC2ED75BB0075840175C8007439
:0EA76400FFF5CDF5CC43E70143C8042B92AFBF
:10A77200D007D006D005D004D003D000D0D0D082EC
:07A78200D083D0F0D0E032DB
:02FDFE0080FE85
:106C1C00257300506C61636520756E697420666C19
:106C2C006174206F6E206C6576656C20737572666E
:106C3C006163652E00466C6970206F7665722E203C
:106C4C004661636520646F776E2E00486F6C64201C
:106C5C00766572746963616C2C2047505320616EA9
:106C6C0074656E6E61206A61636B2075702E0048CE
:106C7C006F6C6420766572746963616C2C2047506C
:106C8C005320616E74656E6E61206A61636B206463
:106C9C006F776E2E005374616E64206F6E20726974
:106CAC0067687420736964652E005374616E642088
:106CBC006F6E206C65667420736964652E00496E76
:106CCC0076657274696E6720582056616C756573B1
:106CDC0000496E76657274696E6720592056616C36
:106CEC0075657300496E76657274696E67205A20FB
:106CFC0056616C7565730020005A65726F20506F79
:106D0C00696E74733A20582025752C2059202575EE
:106D1C002C205A20257500582052616E67653A2048
:106D2C0025752C20257500592052616E67653A2017
:106D3C0025752C202575005A2052616E67653A2006
:106D4C0025752C2025750053746F72696E6720436E
:106D5C00616C6962726174696F6E20446174612048
:106D6C00696E20466C6173682E0043616C696272B7
:106D7C006174696F6E20436F6D706C6574652E0065
:106D8C005A65726F696E6720582C20592050574DE8
:106D9C000046696E616C2043616C3A2025752C2588
:106DAC00750046696E616C2056616C3A2025752C15
:106DBC0025750044617461666C6173682054657359
:106DCC0074002A2A20466C617368204641494C4560
:106DDC0044202A2A2C20706167652025642C2062AF
:106DEC0079746525640050616765202564206F6B9C
:106DFC000054657374205061737365642E00496E82
:106E0C00707574205465737400444947494E3A2098
:106E1C000031003000583A2025752C20593A202595
:106E2C0075005A3A2025752C2035563A20257500C8
:106E3C0035563A2025752C20543A202575004130C2
:106E4C003A2025752C2041313A2025750041323AE3
:106E5C002025752C2041333A20257500496E70751C
:106E6C00745465737420436F6D706C6574652E007B
:106E7C004F75747075742054657374006269742056
:106E8C002564004F75747075745465737420436F6A
:106E9C006D706C6574652E00412F442054657374BD
:106EAC0000426F61726420666C61742E20546573AD
:106EBC007420666978747572652061747461636896
:106ECC0065642E005820205920203556205A202049
:106EDC00413020413120413220413300312020000B
:106EEC003020200041445465737420504153532E7C
:106EFC00002A2A20414454657374204641494C2091
:106F0C002A2A004469676974616C20494F205465D2
:106F1C007374004F6E6C792056616C696420666FD7
:106F2C007220535532202D2045786974696E672E76
:106F3C0000446967494F5465737420506F696E74CF
:106F4C00202564002A2A20204641494C202A2A0068
:106F5C00446967494F5465737420504153532E0054
:106F6C002A2A20446967494F546573742046414965
:106F7C004C202A2A004175746F4F6E20546573742F
:106F8C0000456E61626C696E67204175746F4F6E5F
:106F9C002E2E2E0044726F7070696E67203556204D
:106FAC00456E61626C650044697361626C696E6701
:106FBC00204175746F4F6E2E2E2E004175746F4FDD
:106FCC006E5465737420504153532E00534D4275CB
:106FDC00732054657374202D204D61737465720099
:106FEC0025752042797465732C20257520437963AF
:106FFC006C657300546F74616C204572726F7220F3
:10700C00436F756E742C20257500534D427573209B
:10701C005465737420506173732E00534D42757315
:10702C002054657374202D20536C61766500534D8C
:10703C0042757320536C61766520546573742043DC
:10704C006F6D706C6574652E000102040810204091
:09705C00800102040810204080AC
:1017E6008584429000047401F075840FFB7A0C79AD
:1017F6002712AA55E4900C77F0908BCC93900C7836
:10180600F0900014E0900C79600574C8F0800374C1
:1018160064F0900C90E4F0A374F4F0900C92E4F071
:10182600A37408F074FFFFFEFDFC900C7A1230EAF8
:10183600C3123019700A900C7A123132000000007F
:10184600900C7EE0B4FF037401F0900C7FE0B4FFCF
:10185600037409F0900C9474FFF0A3F0900C80745C
:1018660008F0A3E4F0900C827408F0A3E4F0900C66
:1018760027F0900C3BF0900C4FF0900C8EF0A37478
:10188600A0F0900C8CE4F0A374A0F0E49002C0F0F9
:0A189600A3F0D2B3D2B6D2B5D2B49B
:1018A000900CD7123132000107ACE4FFFEFDFC9032
:1018B0000CD71230EAD31230034017900CD71230F5
:1018C000DE74FFFBFAF9F8122EB0900CD712312615
:0218D00080D8BE
:1018D200908BCDE493FF3395E0FE90028D75F0136B
:1018E200EF1231A1EE75F013A42583F5831231BDF9
:1018F200E92407F9E43AFA754CFF754D6C754E1CF4
:10190200754FFF75506C75511F1263B4908BCDE407
:1019120093FF3395E0FE90028D75F013EF1231A123
:10192200EE75F013A42583F5831231BDE92407F97E
:10193200E43AFA12000EEF2401F54DE43EF54C9024
:0C1942008BCCE493FF7B737D0112941AA0
:10194E00900CDB123132000107ACE4FFFEFDFC907F
:10195E000CDB1230EAD31230034017900CDB12303E
:10196E00DE74FFFBFAF9F8122EB0900CDB12312662
:02197E0080D80F
:101980001297C7900014E06065900DCDE0FEA3E0D3
:10199000FF900DC8E02FFF900DC7E03EC313FEEF90
:1019A00013FF900C80EEF0A3EFF0900DCFE0FEA3BC
:1019B000E0FF900DCAE02FFF900DC9E03EC313FE7B
:1019C000EF13FF900C82EEF0A3EFF0900DD1E0FE4C
:1019D000A3E0FF900DCCE02FFF900DCBE03EC313B2
:1019E000FEEF13FF900C9FEEF0A3EFF08003127850
:1019F000B5900014E07003021AD0C2B3C2B5908B48
:101A0000CDE493FF3395E0FE90028D75F013EF1255
:101A100031A1EE75F013A42583F5831231BDE924BD
:101A200007F9E43AFA754CFF754D6C754E1C754F0D
:101A3000FF75506C7551411263B4908BCDE493FFE8
:101A40003395E0FE90028D75F013EF1231A1EE7523
:101A5000F013A42583F5831231BDE92407F9E43A94
:101A6000FA12000EEF2401F54DE43EF54C908BCCBC
:0A1A7000E493FF7B737D0112941ACA
:101A7A00900CDF123132000107ACE4FFFEFDFC904E
:101A8A000CDF1230EAD31230034017900CDF123009
:101A9A00DE74FFFBFAF9F8122EB0900CDF12312631
:021AAA0080D8E2
:101AAC001297C7900DD1E0FEA3E0FF900DCCE02F74
:101ABC00FF900DCBE03EC313FEEF13FF900C9DEE99
:101ACC00F0A3EFF0C2B3C2B6C2B5C2B4908BCDE4F2
:101ADC0093FF3395E0FE90028D75F013EF1231A158
:101AEC00EE75F013A42583F5831231BDE92407F9B3
:101AFC00E43AFA754CFF754D6C754E1C754FFF75BD
:101B0C00506C7551571263B4908BCDE493FF3395A1
:101B1C00E0FE90028D75F013EF1231A1EE75F0130B
:101B2C00A42583F5831231BDE92407F9E43AFA12AE
:101B3C00000EEF2401F54DE43EF54C908BCCE49374
:081B4C00FF7B737D0112941A66
:101B5400900CE3123132000107ACE4FFFEFDFC906F
:101B64000CE31230EAD31230034017900CE3123026
:101B7400DE74FFFBFAF9F8122EB0900CE312312652
:021B840080D807
:101B86001297C7900DCDE0FEA3E0FF900DC8E02FA1
:101B9600FF900DC7E03EC313FEEF13FF900C86EED9
:101BA600F0A3EFF0900014E06021900DD1E0FEA3C9
:101BB600E0FF900DCCE02FFF900DCBE03EC313FE6F
:101BC600EF13FF900C9BEEF0A3EFF0D2B3908BCD0A
:101BD600E493FF3395E0FE90028D75F013EF12311A
:101BE600A1EE75F013A42583F5831231BDE9240710
:101BF600F9E43AFA754CFF754D6C754E1C754FFF3E
:101C060075506C75517B1263B4908BCDE493FF33A2
:101C160095E0FE90028D75F013EF1231A1EE75F08E
:101C260013A42583F5831231BDE92407F9E43AFAB2
:101C360012000EEF2401F54DE43EF54C908BCCE4FA
:091C460093FF7B737D0112941AD7
:101C4F00900CE7123132000107ACE4FFFEFDFC906F
:101C5F000CE71230EAD31230034017900CE7123022
:101C6F00DE74FFFBFAF9F8122EB0900CE712312652
:021C7F0080D80B
:101C81001297C7900DCDE0FEA3E0FF900DC8E02FA5
:101C9100FF900DC7E03EC313FEEF13FF900C84EEDF
:101CA100F0A3EFF0D2B6908BCDE493FF3395E0FE35
:101CB10090028D75F013EF1231A1EE75F013A4258A
:101CC10083F5831231BDE92407F9E43AFA754CFF33
:101CD100754D6C754E1C754FFF75506C7551A11289
:101CE10063B4908BCDE493FF3395E0FE90028D7544
:101CF100F013EF1231A1EE75F013A42583F58312D1
:101D010031BDE92407F9E43AFA12000EEF2401F596
:101D11004DE43EF54C908BCCE493FF7B737D011237
:021D2100941A12
:101D2300900CEB123132000107ACE4FFFEFDFC9096
:101D33000CEB1230EAD31230034017900CEB123045
:101D4300DE74FFFBFAF9F8122EB0900CEB12312679
:021D530080D836
:101D55001297C7900DCFE0FEA3E0FF900DCAE02FCC
:101D6500FF900DC9E03EC313FEEF13FF900C88EE04
:101D7500F0A3EFF0D2B5908BCDE493FF3395E0FE61
:101D850090028D75F013EF1231A1EE75F013A425B5
:101D950083F5831231BDE92407F9E43AFA754CFF5E
:101DA500754D6C754E1C754FFF75506C7551B6129F
:101DB50063B4908BCDE493FF3395E0FE90028D756F
:101DC500F013EF1231A1EE75F013A42583F58312FC
:101DD50031BDE92407F9E43AFA12000EEF2401F5C2
:101DE5004DE43EF54C908BCCE493FF7B737D011263
:021DF500941A3E
:101DF700900CEF123132000107ACE4FFFEFDFC90BE
:101E07000CEF1230EAD31230034017900CEF123068
:101E1700DE74FFFBFAF9F8122EB0900CEF123126A0
:021E270080D861
:101E29001297C7900DCFE0FEA3E0FF900DCAE02FF7
:101E3900FF900DC9E03EC313FEEF13FF900C8AEE2D
:101E4900F0A3EFF0D2B4900C84E0FEA3E0FFC390BE
:101E59000C87E09F900C86E09E4003021F38908B10
:101E6900CDE493FF3395E0FE90028D75F013EF12E8
:101E790031A1EE75F013A42583F5831231BDE92450
:101E890007F9E43AFA754CFF754D6C754E1C754FA0
:101E9900FF75506C7551CA1263B4908BCDE493FFF2
:101EA9003395E0FE90028D75F013EF1231A1EE75B6
:101EB900F013A42583F5831231BDE92407F9E43A27
:101EC900FA12000EEF2401F54DE43EF54C908BCC4F
:0A1ED900E493FF7B737D0112941A5D
:101EE300900CF3123132000107ACE4FFFEFDFC90CD
:101EF3000CF31230EAD31230034017900CF3123074
:101F0300DE74FFFBFAF9F8122EB0900CF3123126AF
:021F130080D874
:101F1500900C86E0F543A3E0F544900C84E0FFA324
:101F2500E0900C86CFF0A3EFF0900C84E543F0A38E
:101F3500E544F0900C88E0FEA3E0FFC3900C8BE035
:101F45009F900C8AE09E4003022021908BCDE49364
:101F5500FF3395E0FE90028D75F013EF1231A1EE7F
:101F650075F013A42583F5831231BDE92407F9E43F
:101F75003AFA754CFF754D6C754E1C754FFF7550D3
:101F85006C7551DD1263B4908BCDE493FF3395E00E
:101F9500FE90028D75F013EF1231A1EE75F013A4CA
:101FA5002583F5831231BDE92407F9E43AFA1200D5
:101FB5000EEF2401F54DE43EF54C908BCCE493FFF8
:071FC5007B737D0112941AE9
:101FCC00900CF7123132000107ACE4FFFEFDFC90DF
:101FDC000CF71230EAD31230034017900CF7123082
:101FEC00DE74FFFBFAF9F8122EB0900CF7123126C2
:021FFC0080D88B
:101FFE00900C8AE0F543A3E0F544900C88E0FFA333
:10200E00E0900C8ACFF0A3EFF0900C88E543F0A39C
:10201E00E544F0900014E07003022113900C9DE053
:10202E00FEA3E0FFC3900CA0E09F900C9FE09E40AB
:10203E0003022113908BCDE493FF3395E0FE9002C3
:10204E008D75F013EF1231A1EE75F013A42583F503
:10205E00831231BDE92407F9E43AFA754CFF754D48
:10206E006C754E1C754FFF75506C7551F01263B444
:10207E00908BCDE493FF3395E0FE90028D75F013B7
:10208E00EF1231A1EE75F013A42583F5831231BD45
:10209E00E92407F9E43AFA12000EEF2401F54DE4B3
:1020AE003EF54C908BCCE493FF7B737D0112941A1A
:1020BE00900CFB123132000107ACE4FFFEFDFC90E8
:1020CE000CFB1230EAD31230034017900CFB123087
:1020DE00DE74FFFBFAF9F8122EB0900CFB123126CB
:0220EE0080D898
:1020F000900C9FE0F543A3E0F544900C9DE0FFA316
:10210000E0900C9FCFF0A3EFF0900C9DE543F0A37F
:10211000E544F0908BCDE493FF3395E0FE90028D83
:1021200075F013EF1231A1EE75F013A42583F5833A
:102130001231BDE92407F9E43AFA754CFF754D6C8C
:10214000754E1C754FFF75506D7551031263B49039
:102150008BCDE493FF3395E0FE90028D75F013EF85
:102160001231A1EE75F013A42583F5831231BDE978
:102170002407F9E43AFA12000EEF2401F54DE43E8B
:0F218000F54C908BCCE493FF7B737D0112941A86
:10218F00900CFF123132000107ACE4FFFEFDFC9012
:10219F000CFF1230EAD31230034017900CFF1230AD
:1021AF00DE74FFFBFAF9F8122EB0900CFF123126F5
:0221BF0080D8C6
:1021C100754CFF754D6D754E05900C80E0F54FA374
:1021D100E0F550900C82E0F551A3E0F552900C9B94
:1021E100E0F553A3E0F5547B017A0D79171263B43E
:1021F100908BCDE493FF3395E0FE90028D75F01343
:10220100EF1231A1EE75F013A42583F5831231BDD0
:10221100E92407F9E43AFA754CFF754D6C754E1CCB
:10222100754F0175500D7551171263B4908BCDE444
:1022310093FF3395E0FE90028D75F013EF1231A1FB
:10224100EE75F013A42583F5831231BDE92407F956
:10225100E43AFA12000EEF2401F54DE43EF54C90FC
:0C2261008BCCE493FF7B737D0112941A78
:10226D00900D03123132000107ACE4FFFEFDFC902E
:10227D000D031230EAD31230034017900D031230C4
:10228D00DE74FFFBFAF9F8122EB0900D0312312611
:02229D0080D8E7
:10229F00908BCDE493FF3395E0FE90028D75F01394
:1022AF00EF1231A1EE75F013A42583F5831231BD22
:1022BF00E92407F9E43AFA754CFF754D6D754E2315
:1022CF00900C84E0F54FA3E0F550900C86E0F551AB
:1022DF00A3E0F5521263B4908BCDE493FF3395E0F6
:1022EF00FE90028D75F013EF1231A1EE75F013A46D
:1022FF002583F5831231BDE92407F9E43AFA120078
:10230F000EEF2401F54DE43EF54C908BCCE493FF9A
:07231F007B737D0112941A8B
:10232600900D07123132000107ACE4FFFEFDFC9070
:102336000D071230EAD31230034017900D07123002
:10234600DE74FFFBFAF9F8122EB0900D0712312653
:0223560080D82D
:10235800908BCDE493FF3395E0FE90028D75F013DA
:10236800EF1231A1EE75F013A42583F5831231BD68
:10237800E92407F9E43AFA754CFF754D6D754E334B
:10238800900C88E0F54FA3E0F550900C8AE0F551E9
:10239800A3E0F5521263B4908BCDE493FF3395E03C
:1023A800FE90028D75F013EF1231A1EE75F013A4B3
:1023B8002583F5831231BDE92407F9E43AFA1200BE
:1023C8000EEF2401F54DE43EF54C908BCCE493FFE1
:0723D8007B737D0112941AD2
:1023DF00900D0B123132000107ACE4FFFEFDFC90B3
:1023EF000D0B1230EAD31230034017900D0B123041
:1023FF00DE74FFFBFAF9F8122EB0900D0B12312696
:02240F0080D873
:10241100908BCDE493FF3395E0FE90028D75F01320
:10242100EF1231A1EE75F013A42583F5831231BDAE
:10243100E92407F9E43AFA754CFF754D6D754E4381
:10244100900C9DE0F54FA3E0F550900C9FE0F55105
:10245100A3E0F5521263B4908BCDE493FF3395E082
:10246100FE90028D75F013EF1231A1EE75F013A4F9
:102471002583F5831231BDE92407F9E43AFA120004
:102481000EEF2401F54DE43EF54C908BCCE493FF27
:072491007B737D0112941A18
:10249800900D0F123132000107ACE4FFFEFDFC90F5
:1024A8000D0F1230EAD31230034017900D0F12307F
:1024B800DE74FFFBFAF9F8122EB0900D0F123126D8
:0224C80080D8BA
:1024CA00908BCDE493FF3395E0FE90028D75F01367
:1024DA00EF1231A1EE75F013A42583F5831231BDF5
:1024EA00E92407F9E43AFA754CFF754D6C754E1CF0
:1024FA00754FFF75506D7551531263B4908BCDE4CF
:10250A0093FF3395E0FE90028D75F013EF1231A11F
:10251A00EE75F013A42583F5831231BDE92407F97A
:10252A00E43AFA12000EEF2401F54DE43EF54C9020
:10253A008BCCE493FF7B737D0112941A12AD3E7B20
:0C254A00017A0C79277D7A7C0012A8042D
:10255600900D13123132000107ACE4FFFEFDFC9032
:102566000D131230EAD31230034017900D131230B8
:10257600DE74FFFBFAF9F8122EB0900D1312312615
:0225860080D8FB
:10258800908BCDE493FF3395E0FE90028D75F013A8
:10259800EF1231A1EE75F013A42583F5831231BD36
:1025A800E92407F9E43AFA754CFF754D6C754E1C31
:1025B800754FFF75506D7551761263B4908BCDE4ED
:1025C80093FF3395E0FE90028D75F013EF1231A161
:1025D800EE75F013A42583F5831231BDE92407F9BC
:1025E800E43AFA12000EEF2401F54DE43EF54C9062
:1025F8008BCCE493FF7B737D0112941AD2B3C2B6DD
:0F260800C2B5C2B4E4900004F0129FD38542849F
:0126170022A0
:1097C700900DCB740FF0A374FFF0900DC9740FF0D8
:1097D700A374FFF0900DC7740FF0A374FFF0E4902B
:1097E7000DD1F0A3F0900DCFF0A3F0900DCDF0A325
:1097F700F0FFFE9002A7E060FA900015E0FCA3E0FE
:10980700FD900DC7E0FAA3E0FBC39DEA9C5006ACB0
:1098170002AD038008900015E0FCA3E0FD900DC7A2
:10982700ECF0A3EDF0900017E0FCA3E0FD900DC96C
:10983700E0FAA3E0FBC39DEA9C5006AC02AD0380AF
:1098470008900017E0FCA3E0FD900DC9ECF0A3ED34
:10985700F090001BE0FCA3E0FD900DCBE0FAA3E045
:10986700FBC39DEA9C5006AC02AD03800890001B29
:10987700E0FCA3E0FD900DCBECF0A3EDF09000151C
:10988700E0FCA3E0FD900DCDE0FAA3E0FBD39DEA59
:109897009C4006AC02AD038008900015E0FCA3E0F5
:1098A700FD900DCDECF0A3EDF0900017E0FCA3E0E8
:1098B700FD900DCFE0FAA3E0FBD39DEA9C4006ACF8
:1098C70002AD038008900017E0FCA3E0FD900DCFE8
:1098D700ECF0A3EDF090001BE0FCA3E0FD900DD1B0
:1098E700E0FAA3E0FBD39DEA9C4006AC02AD0380FF
:1098F7000890001BE0FCA3E0FD900DD1ECF0A3ED78
:10990700F0E49002A7F00FBF00010EEF64284E604D
:10991700030297FA900DC9E0FEA3E0FF900DCFE098
:10992700FCA3E0FDC39FFFEC9EFEC39400400280B2
:1099370016900DC9E0FEA3E0FFC3ED9FFFEC9EFE6E
:10994700C3E49FFFE49EFED3EF9404EE940040032C
:109957000297C7900DC7E0FEA3E0FF900DCDE0FC96
:10996700A3E0FDC39FFFEC9EFEC394004002801658
:10997700900DC7E0FEA3E0FFC3ED9FFFEC9EFEC383
:10998700E49FFFE49EFED3EF9404EE9400400302AD
:0299970097C770
:0199990022AB
:1078B500E4F545F546F584900C8EE0A3E0F5FD90E2
:1078C5000C8EE0A3E0F5FE900C8CE0A3E0F5FB90B8
:1078D5000C8CE0A3E0F5FC908BCDE493FF3395E0B1
:1078E500FE90028D75F013EF1231A1EE75F013A421
:1078F5002583F5831231BDE92407F9E43AFA754C7D
:10790500FF754D6C754E1C754FFF75506D75518C1F
:107915001263B4908BCDE493FF3395E0FE90028D16
:1079250075F013EF1231A1EE75F013A42583F583DD
:107935001231BDE92407F9E43AFA12000EEF2401E9
:10794500F54DE43EF54C908BCCE493FF7B737D01C4
:0379550012941A6F
:10795800900D67123132000107ACE4FFFEFDFC9088
:107968000D671230EAD31230034017900D671230BA
:10797800DE74FFFBFAF9F8122EB0900D671231266B
:0279880080D8A5
:10798A009002A7E060FAE49002A7F09002A7E060F4
:10799A00FAE545700F900015E0FFA3E0900C80CF48
:1079AA00F0A3EFF0E546700F900017E0FFA3E09018
:1079BA000C82CFF0A3EFF0E49002A7F0E545704BFC
:1079CA00900C80E0FEA3E02400EE34F8C3648094B7
:1079DA00804010900C80E0FEA3E02400FFEE34F813
:1079EA00FE8015900C80E0FEA3E02400FFEE34F840
:1079FA00FEC3E49FFFE49EFED3EF9405EE648094F9
:107A0A008050047F0180027F008F45E5457048C39E
:107A1A00900C80E094085015900C8CE07002A3E062
:107A2A0070028014900C8C74FFF5F08017900C8C07
:107A3A00E07003A3E0F47005754501800A900C8C90
:107A4A00E475F001122DD5900C8CE0A3E0F5FB90C3
:107A5A000C8CE0A3E0F5FCE546704B900C82E0FE4E
:107A6A00A3E02400EE34F8C3648094804010900CA4
:107A7A0082E0FEA3E02400FFEE34F8FE8015900CAD
:107A8A0082E0FEA3E02400FFEE34F8FEC3E49FFF89
:107A9A00E49EFED3EF9405EE6480948050047F0147
:107AAA0080027F008F46E5467048C3900C82E094BE
:107ABA00085015900C8EE07002A3E07002801490BA
:107ACA000C8E74FFF5F08017900C8EE07003A3E023
:107ADA00F47005754601800A900C8EE475F0011267
:107AEA002DD5900C8EE0A3E0F5FD900C8EE0A3E07E
:107AFA00F5FEE545700302798AE546700302798A44
:107B0A001297C7900015E0FFA3E0900C80CFF0A376
:107B1A00EFF0900017E0FFA3E0900C82CFF0A3EF04
:107B2A00F0908BCDE493FF3395E0FE90028D75F0D3
:107B3A0013EF1231A1EE75F013A42583F5831231E8
:107B4A00BDE92407F9E43AFA754CFF754D6D754E97
:107B5A009D900C8CE0F54FA3E0F550900C8EE0F56B
:107B6A0051A3E0F5521263B4908BCDE493FF3395A1
:107B7A00E0FE90028D75F013EF1231A1EE75F0134D
:107B8A00A42583F5831231BDE92407F9E43AFA12F0
:107B9A00000EEF2401F54DE43EF54C908BCCE493B6
:087BAA00FF7B737D0112941AA8
:107BB200900D6B123132000107ACE4FFFEFDFC9028
:107BC2000D6B1230EAD31230034017900D6B123056
:107BD200DE74FFFBFAF9F8122EB0900D6B1231260B
:027BE20080D849
:107BE400754CFF754D6D754EAE900C80E0F54FA34E
:107BF400E0F550900C82E0F551A3E0F5527B017A58
:107C04000D79731263B4908BCDE493FF3395E0FE4A
:107C140090028D75F013EF1231A1EE75F013A425C7
:107C240083F5831231BDE92407F9E43AFA754CFF70
:107C3400754D6C754E1C754F0175500D7551731251
:107C440063B4908BCDE493FF3395E0FE90028D7581
:107C5400F013EF1231A1EE75F013A42583F583120E
:107C640031BDE92407F9E43AFA12000EEF2401F5D4
:107C74004DE43EF54C908BCCE493FF7B737D011275
:027C8400941A50
:107C8600900D6F123132000107ACE4FFFEFDFC904F
:107C96000D6F1230EAD31230034017900D6F123079
:107CA600DE74FFFBFAF9F8122EB0900D6F12312632
:027CB60080D874
:017CB80022A9
:027CB9008F42F8
:107CBB00858443E4F544F545F548908BCD93FF332C
:107CCB0095E0FE90028D75F013EF1231A1EE75F079
:107CDB0013A42583F5831231BDE92407F9E43AFA9D
:107CEB00754CFF754D6C754E1C754FFF75506D7552
:107CFB0051BF1263B4908BCDE493FF3395E0FE90AC
:107D0B00028D75F013EF1231A1EE75F013A42583DC
:107D1B00F5831231BDE92407F9E43AFA12000EEFAC
:107D2B002401F54DE43EF54C908BCCE493FF7B7333
:107D3B007D0112941AE49002C0F0A3F0F546F547CA
:107D4B00D3900948E09547900947E095464023AE0C
:107D5B0046AF477C017D00122D9F744B2547F58262
:107D6B0074003546F583EDF00547E547700205468F
:107D7B0080CE75840F30E819C39002C1E09409904E
:107D8B0002C0E094004003027F80E49002C0F0A3A5
:107D9B00F0900947E0FCA3E0FD7B017A00794B856D
:107DAB004453854554E4FFFE12A681900947E0FE3B
:107DBB00A3E0FF7B017A00794B85444E85454F123A
:107DCB00A55CE4F546F547D3900948E09547900943
:107DDB0047E09546402DAE46AF477C017D00122D06
:107DEB009F744B2547F58274003546F583E06D7023
:107DFB0001EC6005754801800A0547E547700205EF
:107E0B004680C4E5487003027E97908BCDE493FFC8
:107E1B003395E0FE90028D75F013EF1231A1EE75E4
:107E2B00F013A42583F5831231BDE92407F9E43A55
:107E3B00FA754CFF754D6D754ECE85444F8545508B
:107E4B008546518547521263B4908BCDE493FF3333
:107E5B0095E0FE90028D75F013EF1231A1EE75F0E7
:107E6B0013A42583F5831231BDE92407F9E43AFA0B
:107E7B0012000EEF2401F54DE43EF54C908BCCE453
:0C7E8B0093FF7B737D0112941A027F802C
:107E9700900CD7123132000107ACE4FFFEFDFC90D5
:107EA7000CD71230EAD31230034017900CD7123098
:107EB700DE74FFFBFAF9F8122EB0900CD7123126B8
:027EC70080D861
:107EC900908BCDE493FF3395E0FE90028D75F0130E
:107ED900EF1231A1EE75F013A42583F5831231BD9C
:107EE900E92407F9E43AFA754CFF754D6D754EF2C0
:107EF90085444F8545501263B4908BCDE493FF338D
:107F090095E0FE90028D75F013EF1231A1EE75F038
:107F190013A42583F5831231BDE92407F9E43AFA5C
:107F290012000EEF2401F54DE43EF54C908BCCE4A4
:107F390093FF7B737D0112941AAF45AE4412AB8B4C
:107F4900D3900C22E09545900C21E095445007E42C
:107F5900F544F54580080545E54570020544E542C7
:107F690064347003027D7DD3E5459404E54464805F
:0E7F790094805003027D7DE49002C0F0A3F0DE
:107F8700900CDB123132000107ACE4FFFEFDFC90E0
:107F97000CDB1230EAD31230034017900CDB12309F
:107FA700DE74FFFBFAF9F8122EB0900CDB123126C3
:027FB70080D870
:107FB900908BCDE493FF3395E0FE90028D75F0131D
:107FC900EF1231A1EE75F013A42583F5831231BDAB
:107FD900E92407F9E43AFA754CFF754D6C754E1CA6
:107FE900754FFF75506D7551FD1263B4908BCDE4DB
:107FF90093FF3395E0FE90028D75F013EF1231A1D6
:10800900EE75F013A42583F5831231BDE92407F930
:10801900E43AFA12000EEF2401F54DE43EF54C90D6
:0F8029008BCCE493FF7B737D0112941A85438403
:018038002225
:1051920085844278F77C0C7D017BFF7A7079557E9D
:0C51A200007F08122C659000047401F0DE
:1051AE00900CD7123132000107ACE4FFFEFDFC90EB
:1051BE000CD71230EAD31230034017900CD71230AE
:1051CE00DE74FFFBFAF9F8122EB0900CD7123126CE
:0251DE0080D877
:1051E000908BCDE493FF3395E0FE90028D75F01324
:1051F000EF1231A1EE75F013A42583F5831231BDB2
:10520000E92407F9E43AFA754CFF754D6C754E1CAC
:10521000754FFF75506E75510A1263B4908BCDE4D3
:1052200093FF3395E0FE90028D75F013EF1231A1DC
:10523000EE75F013A42583F5831231BDE92407F937
:10524000E43AFA12000EEF2401F54DE43EF54C90DD
:105250008BCCE493FF7B737D0112941AE49002C01F
:03526000F0A3F0C8
:1052630075840F30E819C39002C1E094099002C01D
:10527300E0940040030257C0E49002C0F0A3F09012
:0A52830002A7E060DBE4F085D843E9
:10528D00900CDB1231320006DDD0E4FFFEFDFC9008
:10529D000CDB1230EAD31230034017900CDB1230C6
:1052AD00DE74FFFBFAF9F8122EB0900CDB123126EA
:0252BD0080D897
:1052BF00908BCDE493FF3395E0FE90028D75F01344
:1052CF00EF1231A1EE75F013A42583F5831231BDD2
:1052DF00E92407F9E43AFA754CFF754D6C754E1CCD
:1052EF00754FFF75506D7551031263B4908BCDE4FC
:1052FF0093FF3395E0FE90028D75F013EF1231A1FD
:10530F00EE75F013A42583F5831231BDE92407F957
:10531F00E43AFA12000EEF2401F54DE43EF54C90FD
:0C532F008BCCE493FF7B737D0112941A79
:10533B00900CDF123132000107ACE4FFFEFDFC9054
:10534B000CDF1230EAD31230034017900CDF12300F
:10535B00DE74FFFBFAF9F8122EB0900CDF12312637
:02536B0080D8E8
:10536D00754CFF754D6E754E157B017A0C79FF12DC
:10537D0063B47544007545067B017A0C79FF120004
:10538D000E74FF2FF9740C3EFA7B01C003C002C0EE
:10539D000174F72545F582740C3544F583E05543CA
:1053AD007BFF60067A6E791D80047A6E791F8B4CB7
:1053BD008A4D894ED001D002D0031263B4E5451554
:1053CD004570021544C3E5446480948050AA908BC7
:1053DD00CDE493FF3395E0FE90028D75F013EF123F
:1053ED0031A1EE75F013A42583F5831231BDE924A7
:1053FD0007F9E43AFA754CFF754D6C754E1C754FF7
:10540D000175500C7551FF1263B4908BCDE493FF71
:10541D003395E0FE90028D75F013EF1231A1EE750C
:10542D00F013A42583F5831231BDE92407F9E43A7D
:10543D00FA12000EEF2401F54DE43EF54C908BCCA5
:0A544D00E493FF7B737D0112941AB3
:10545700900CE3123132000107ACE4FFFEFDFC9033
:105467000CE31230EAD31230034017900CE31230EA
:10547700DE74FFFBFAF9F8122EB0900CE312312616
:0254870080D8CB
:10548900754CFF754D6E754E21900015E0F54FA3D3
:10549900E0F550A3E0F551A3E0F5527B017A0C79D0
:1054A900FF1263B4908BCDE493FF3395E0FE900235
:1054B9008D75F013EF1231A1EE75F013A42583F564
:1054C900831231BDE92407F9E43AFA754CFF754DA9
:1054D9006C754E1C754F0175500C7551FF1263B4F4
:1054E900908BCDE493FF3395E0FE90028D75F01318
:1054F900EF1231A1EE75F013A42583F5831231BDA6
:10550900E92407F9E43AFA12000EEF2401F54DE413
:105519003EF54C908BCCE493FF7B737D0112941A7A
:10552900900CE7123132000107ACE4FFFEFDFC905C
:105539000CE71230EAD31230034017900CE712300F
:10554900DE74FFFBFAF9F8122EB0900CE71231263F
:0255590080D8F8
:10555B00900014E06018754CFF754D6E754E2E90D3
:10556B00001BE0F54FA3E0F5509000198014754C2B
:10557B00FF754D6E754E3C900019E0F54FA3E0F5AD
:10558B0050A3E0F551A3E0F5527B017A0C79FF12A1
:10559B0063B4908BCDE493FF3395E0FE90028D7551
:1055AB00F013EF1231A1EE75F013A42583F58312DE
:1055BB0031BDE92407F9E43AFA754CFF754D6C756A
:1055CB004E1C754F0175500C7551FF1263B4908BC7
:1055DB00CDE493FF3395E0FE90028D75F013EF123F
:1055EB0031A1EE75F013A42583F5831231BDE924A7
:1055FB0007F9E43AFA12000EEF2401F54DE43EF5FB
:0E560B004C908BCCE493FF7B737D0112941ABC
:10561900900CEB123132000107ACE4FFFEFDFC9067
:105629000CEB1230EAD31230034017900CEB123016
:10563900DE74FFFBFAF9F8122EB0900CEB1231264A
:0256490080D807
:10564B00754CFF754D6E754E4A90001DE0F54FA3DE
:10565B00E0F550A3E0F551A3E0F5527B017A0C790C
:10566B00FF1263B4908BCDE493FF3395E0FE900271
:10567B008D75F013EF1231A1EE75F013A42583F5A0
:10568B00831231BDE92407F9E43AFA754CFF754DE5
:10569B006C754E1C754F0175500C7551FF1263B430
:1056AB00908BCDE493FF3395E0FE90028D75F01354
:1056BB00EF1231A1EE75F013A42583F5831231BDE2
:1056CB00E92407F9E43AFA12000EEF2401F54DE450
:1056DB003EF54C908BCCE493FF7B737D0112941AB7
:1056EB00900CEF123132000107ACE4FFFEFDFC9091
:1056FB000CEF1230EAD31230034017900CEF12303C
:10570B00DE74FFFBFAF9F8122EB0900CEF12312673
:02571B0080D834
:10571D00754CFF754D6E754E59900021E0F54FA3F8
:10572D00E0F550A3E0F551A3E0F5527B017A0C7939
:10573D00FF1263B4908BCDE493FF3395E0FE90029E
:10574D008D75F013EF1231A1EE75F013A42583F5CD
:10575D00831231BDE92407F9E43AFA754CFF754D12
:10576D006C754E1C754F0175500C7551FF1263B45D
:10577D00908BCDE493FF3395E0FE90028D75F01381
:10578D00EF1231A1EE75F013A42583F5831231BD0F
:10579D00E92407F9E43AFA12000EEF2401F54DE47D
:1057AD003EF54C908BCCE493FF7B737D0112941AE4
:0A57BD00025263E49002C0F0A3F072
:1057C700900CF3123132000107ACE4FFFEFDFC90B0
:1057D7000CF31230EAD31230034017900CF3123057
:1057E700DE74FFFBFAF9F8122EB0900CF312312693
:0257F70080D858
:1057F900908BCDE493FF3395E0FE90028D75F01305
:10580900EF1231A1EE75F013A42583F5831231BD92
:10581900E92407F9E43AFA754CFF754D6C754E1C8D
:10582900754FFF75506E7551681263B4908BCDE456
:1058390093FF3395E0FE90028D75F013EF1231A1BD
:10584900EE75F013A42583F5831231BDE92407F918
:10585900E43AFA12000EEF2401F54DE43EF54C90BE
:105869008BCCE493FF7B737D0112941AD2B3C2B639
:0C587900C2B5C2B4E4900004F085428483
:015885002200
:1086AF00858442E4F545F54678E37C0C7D017BFF3C
:0A86BF007A70795DFE7F08122C65C9
:1086C900900CD7123132000107ACE4FFFEFDFC909B
:1086D9000CD71230EAD31230034017900CD712305E
:1086E900DE74FFFBFAF9F8122EB0900CD71231267E
:0286F90080D827
:1086FB00908BCDE493FF3395E0FE90028D75F013D4
:10870B00EF1231A1EE75F013A42583F5831231BD61
:10871B00E92407F9E43AFA754CFF754D6C754E1C5C
:10872B00754FFF75506E75517C1263B4908BCDE411
:10873B0093FF3395E0FE90028D75F013EF1231A18C
:10874B00EE75F013A42583F5831231BDE92407F9E7
:10875B00E43AFA12000EEF2401F54DE43EF54C908D
:0C876B008BCCE493FF7B737D0112941A09
:10877700900CDB123132000107ACE4FFFEFDFC90E8
:108787000CDB1230EAD31230034017900CDB1230A7
:10879700DE74FFFBFAF9F8122EB0900CDB123126CB
:0287A70080D878
:1087A900E49002C0F0A3F090026BE024A0F544909D
:1087B900026AE03400F54375840F30E819C390026A
:1087C900C1E094099002C0E094004003028898E453
:1087D9009002C0F0A3F090026AE0FEA3E0FFB54466
:1087E900D6EEB543D2EF24A0F544E43EF543908B91
:1087F900CDE493FF3395E0FE90028D75F013EF12EF
:1088090031A1EE75F013A42583F5831231BDE92456
:1088190007F9E43AFA754CFF754D6E754E88854532
:108829004F8546501263B4908BCDE493FF3395E0A6
:10883900FE90028D75F013EF1231A1EE75F013A4BD
:108849002583F5831231BDE92407F9E43AFA1200C8
:108859000EEF2401F54DE43EF54C908BCCE493FFEB
:108869007B737D0112941A74E32546F582740C35E5
:1088790045F583E0F5C80546E54670020545FFAEB6
:10888900457C007D07122D9F8C458D460287C0E4EB
:068899009002C0F0A3F004
:10889F00900CDF123132000107ACE4FFFEFDFC90BB
:1088AF000CDF1230EAD31230034017900CDF123076
:1088BF00DE74FFFBFAF9F8122EB0900CDF1231269E
:0288CF0080D84F
:1088D100908BCDE493FF3395E0FE90028D75F013FC
:1088E100EF1231A1EE75F013A42583F5831231BD8A
:1088F100E92407F9E43AFA754CFF754D6C754E1C85
:10890100754FFF75506E75518F1263B4908BCDE426
:1089110093FF3395E0FE90028D75F013EF1231A1B4
:10892100EE75F013A42583F5831231BDE92407F90F
:10893100E43AFA12000EEF2401F54DE43EF54C90B5
:108941008BCCE493FF7B737D0112941AD2B3C2B630
:07895100C2B5C2B4854284E7
:0189580022FC
:0C5886008584427544019000047401F018
:10589200900CD7123132000107ACE4FFFEFDFC9000
:1058A2000CD71230EAD31230034017900CD71230C3
:1058B200DE74FFFBFAF9F8122EB0900CD7123126E3
:0258C20080D88C
:1058C400908BCDE493FF3395E0FE90028D75F01339
:1058D400EF1231A1EE75F013A42583F5831231BDC7
:1058E400E92407F9E43AFA754CFF754D6C754E1CC2
:1058F400754FFF75506E7551A41263B4908BCDE44F
:1059040093FF3395E0FE90028D75F013EF1231A1F1
:10591400EE75F013A42583F5831231BDE92407F94C
:10592400E43AFA12000EEF2401F54DE43EF54C90F2
:0C5934008BCCE493FF7B737D0112941A6E
:10594000900CDB123132000107ACE4FFFEFDFC904D
:105950000CDB1230EAD31230034017900CDB12300C
:10596000DE74FFFBFAF9F8122EB0900CDB12312630
:0259700080D8DD
:10597200908BCDE493FF3395E0FE90028D75F0138A
:10598200EF1231A1EE75F013A42583F5831231BD18
:10599200E92407F9E43AFA754CFF754D6C754E1C13
:1059A200754FFF75506E7551AD1263B4908BCDE497
:1059B20093FF3395E0FE90028D75F013EF1231A143
:1059C200EE75F013A42583F5831231BDE92407F99E
:1059D200E43AFA12000EEF2401F54DE43EF54C9044
:0C59E2008BCCE493FF7B737D0112941AC0
:1059EE00900CDF123132000107ACE4FFFEFDFC909B
:1059FE000CDF1230EAD31230034017900CDF123056
:105A0E00DE74FFFBFAF9F8122EB0900CDF1231267D
:025A1E0080D82E
:105A2000908BCDE493FF3395E0FE90028D75F013DB
:105A3000EF1231A1EE75F013A42583F5831231BD69
:105A4000E92407F9E43AFA754CFF754D6C754E1C64
:105A5000754FFF75506E7551D01263B4908BCDE4C5
:105A600093FF3395E0FE90028D75F013EF1231A194
:105A7000EE75F013A42583F5831231BDE92407F9EF
:105A8000E43AFA12000EEF2401F54DE43EF54C9095
:105A90008BCCE493FF7B737D0112941A9002A7E0F4
:105AA00060FAE4F545E5451232585AC6005AC60177
:105AB0005AF4025B22035B5C045B8A055BB7065BFE
:105AC000E40700005C0FE54525E02415F582E43489
:105AD00000F583E0FEA3E0FFC394A4EE9406400D1E
:105AE000D3EF94FCEE940850047F0180027F008F76
:105AF00043025C0FE54525E02415F582E43400F50A
:105B000083E0FEA3E0FFC39484EE940E400DD3EF38
:105B1000949CEE941050047F0180027F008F43021A
:105B20005C0F900014E0602EE54525E02415F58219
:105B3000E43400F583E0FEA3E0FFC394AAEE9405ED
:105B4000400DD3EF946CEE940750047F0180027FE8
:105B5000008F43025C0F754301025C0FE54525E0B1
:105B60002415F582E43400F583E0FEA3E0FFC3943E
:105B700030EE9404400DD3EF9460EE940550047F12
:105B80000180027F008F43025C0FE54525E024156C
:105B9000F582E43400F583E0FEA3E0FFC394CAEE8F
:105BA0009402400DD3EF9496EE940350047F01804D
:105BB000027F008F438058E54525E02415F582E4F7
:105BC0003400F583E0FEA3E0FFC39465EE9401404A
:105BD0000DD3EF94CBEE940150047F0180027F003F
:105BE0008F43802BE54525E02415F582E43400F54C
:105BF00083E0FEA3E0FFC3943FEE9403400DD3EF98
:105C0000942BEE940450047F0180027F008F43E5C3
:105C1000437002F5447B017A0C79EB12000E74EBB1
:105C20002FF9740C3EFA7B01C003C002C001E543AA
:105C30007BFF60067A6E79E880047A6E79EC8B4C93
:105C40008A4D894ED001D002D0031263B40545E5D8
:0E5C500045C394085003025AA5E49002A7F041
:105C5E00900CE3123132000107ACE4FFFEFDFC9024
:105C6E000CE31230EAD31230034017900CE31230DB
:105C7E00DE74FFFBFAF9F8122EB0900CE312312607
:025C8E0080D8BC
:105C9000908BCDE493FF3395E0FE90028D75F01369
:105CA000EF1231A1EE75F013A42583F5831231BDF7
:105CB000E92407F9E43AFA754CFF754D6C754E1CF2
:105CC000754F0175500C7551EB1263B4908BCDE498
:105CD00093FF3395E0FE90028D75F013EF1231A122
:105CE000EE75F013A42583F5831231BDE92407F97D
:105CF000E43AFA12000EEF2401F54DE43EF54C9023
:0C5D00008BCCE493FF7B737D0112941A9E
:105D0C00900CE7123132000107ACE4FFFEFDFC9071
:105D1C000CE71230EAD31230034017900CE7123024
:105D2C00DE74FFFBFAF9F8122EB0900CE712312654
:025D3C0080D80D
:105D3E00E544908BCD6038E493FF3395E0FE9002FE
:105D4E008D75F013EF1231A1EE75F013A42583F5C6
:105D5E00831231BDE92407F9E43AFA754CFF754D0B
:105D6E006C754E1C754FFF75506E7551F08036E494
:105D7E0093FF3395E0FE90028D75F013EF1231A173
:105D8E00EE75F013A42583F5831231BDE92407F9CE
:105D9E00E43AFA754CFF754D6C754E1C754FFF75D8
:105DAE00506E7551FD1263B4908BCDE493FF339515
:105DBE00E0FE90028D75F013EF1231A1EE75F01327
:105DCE00A42583F5831231BDE92407F9E43AFA12CA
:105DDE00000EEF2401F54DE43EF54C908BCCE49390
:105DEE00FF7B737D0112941AD2B3C2B6C2B5C2B490
:085DFE00E4900004F0854284EA
:015E06002279
:0E5E0700858442754301E4F54590000404F0E3
:105E1500900CD7123132000107ACE4FFFEFDFC9077
:105E25000CD71230EAD31230034017900CD712303A
:105E3500DE74FFFBFAF9F8122EB0900CD71231265A
:025E450080D803
:105E4700908BCDE493FF3395E0FE90028D75F013B0
:105E5700EF1231A1EE75F013A42583F5831231BD3E
:105E6700E92407F9E43AFA754CFF754D6C754E1C39
:105E7700754FFF75506F75510F1263B4908BCDE45A
:105E870093FF3395E0FE90028D75F013EF1231A169
:105E9700EE75F013A42583F5831231BDE92407F9C4
:105EA700E43AFA12000EEF2401F54DE43EF54C906A
:105EB7008BCCE493FF7B737D0112941A900014E05E
:025EC700706EFB
:105EC900900CDB123132000107ACE4FFFEFDFC90BF
:105ED9000CDB1230EAD31230034017900CDB12307E
:105EE900DE74FFFBFAF9F8122EB0900CDB123126A2
:025EF90080D84F
:105EFB00908BCDE493FF3395E0FE90028D75F013FC
:105F0B00EF1231A1EE75F013A42583F5831231BD89
:105F1B00E92407F9E43AFA754CFF754D6C754E1C84
:105F2B00754FFF75506F75511F026304E4F546E51D
:105F3B0046B40807E4F5C8D2FB80058545C8C2FB0B
:105F4B00900CDF123132000107ACE4FFFEFDFC9038
:105F5B000CDF1230EAD31230034017900CDF1230F3
:105F6B00DE74FFFBFAF9F8122EB0900CDF1231261B
:025F7B0080D8CC
:105F7D00908BCDE493FF3395E0FE90028D75F01379
:105F8D00EF1231A1EE75F013A42583F5831231BD07
:105F9D00E92407F9E43AFA754CFF754D6F754E3DDE
:105FAD0085464F1263B4908BCDE493FF3395E0FE9D
:105FBD0090028D75F013EF1231A1EE75F013A4253B
:105FCD0083F5831231BDE92407F9E43AFA12000E84
:105FDD00EF2401F54DE43EF54C908BCCE493FF7B23
:105FED00737D0112941A9002A7E060FAE546123211
:105FFD0058601D00604801607302609E0360C90413
:10600D0060F405611E066148076172080000618534
:10601D00E5D8B5451FD3900018E094CA900017E05D
:10602D009402401020A00D20A10A3086073087046D
:10603D007F0180027F008F44026185E5D8B5451F41
:10604D00C3900018E0942C900017E094015010209C
:10605D00A00D20A10A2086073087047F0180027FD2
:10606D00008F44026185E5D8B5451FC3900018E047
:10607D00942C900017E09401501020A00D20A10A3F
:10608D003086072087047F0180027F008F440261E4
:10609D0085E5D8B5451FC3900018E0942C900017E6
:1060AD00E09401501020A00D20A10A308607308702
:1060BD00047F0180027F008F44026185E5D8B545DC
:1060CD001FC3900018E0942C900017E0940150101D
:1060DD0020A00D20A10A3086073087047F018002A1
:1060ED007F008F44026185E5D8B5451FC390001828
:1060FD00E0942C900017E09401501020A00D20A1E9
:10610D000A3086073087047F0180027F008F44802C
:10611D0067E5D8B5451FC3900018E0942C90001783
:10612D00E09401501020A00D30A10A308607308771
:10613D00047F0180027F008F44803DE5D8B5451F67
:10614D00C3900018E0942C900017E094015010209B
:10615D00A00D30A10A3086073087047F0180027FB1
:10616D00008F448013E545B4030A20860720870479
:10617D007F0180027F008F44E49002A7F0E5446028
:04618D000302624265
:10619100900CE3123132000107ACE4FFFEFDFC90EC
:1061A1000CE31230EAD31230034017900CE31230A3
:1061B100DE74FFFBFAF9F8122EB0900CE3123126CF
:0261C10080D884
:1061C300908BCDE493FF3395E0FE90028D75F01331
:1061D300EF1231A1EE75F013A42583F5831231BDBF
:1061E300E92407F9E43AFA754CFF754D6C754E1CBA
:1061F300754FFF75506F7551501263B4908BCDE49A
:1062030093FF3395E0FE90028D75F013EF1231A1E9
:10621300EE75F013A42583F5831231BDE92407F944
:10622300E43AFA12000EEF2401F54DE43EF54C90EA
:106233008BCCE493FF7B737D0112941AE4F543E561
:106243004570057545018006E54525E0F54505469C
:0A625300E546C394085003025F3AC9
:10625D00900CE7123132000107ACE4FFFEFDFC901B
:10626D000CE71230EAD31230034017900CE71230CE
:10627D00DE74FFFBFAF9F8122EB0900CE7123126FE
:02628D0080D8B7
:10628F00E543908BCD6038E493FF3395E0FE9002A9
:10629F008D75F013EF1231A1EE75F013A42583F570
:1062AF00831231BDE92407F9E43AFA754CFF754DB5
:1062BF006C754E1C754FFF75506F75515C8036E4D1
:1062CF0093FF3395E0FE90028D75F013EF1231A11D
:1062DF00EE75F013A42583F5831231BDE92407F978
:1062EF00E43AFA754CFF754D6C754E1C754FFF7582
:1062FF00506F75516C1263B4908BCDE493FF33954F
:10630F00E0FE90028D75F013EF1231A1EE75F013D0
:10631F00A42583F5831231BDE92407F9E43AFA1273
:10632F00000EEF2401F54DE43EF54C908BCCE49339
:10633F00FF7B737D0112941AD2B3C2B6C2B5C2B439
:08634F00E4900004F085428493
:016357002223
:097065008584429000047401F0DE
:10706E00900CD7123132000107ACE4FFFEFDFC900C
:10707E000CD71230EAD31230034017900CD71230CF
:10708E00DE74FFFBFAF9F8122EB0900CD7123126EF
:02709E0080D898
:1070A000908BCDE493FF3395E0FE90028D75F01345
:1070B000EF1231A1EE75F013A42583F5831231BDD3
:1070C000E92407F9E43AFA754CFF754D6C754E1CCE
:1070D000754FFF75506F7551811263B4908BCDE47D
:1070E00093FF3395E0FE90028D75F013EF1231A1FE
:1070F000EE75F013A42583F5831231BDE92407F959
:10710000E43AFA12000EEF2401F54DE43EF54C90FE
:107110008BCCE493FF7B737D0112941A900014E0F2
:02712000706E8F
:10712200900CDB123132000107ACE4FFFEFDFC9053
:107132000CDB1230EAD31230034017900CDB123012
:10714200DE74FFFBFAF9F8122EB0900CDB12312636
:0271520080D8E3
:10715400908BCDE493FF3395E0FE90028D75F01390
:10716400EF1231A1EE75F013A42583F5831231BD1E
:10717400E92407F9E43AFA754CFF754D6C754E1C19
:0F718400754FFF75506F75511F02744E75C820FF
:10719300900CDF123132000107ACE4FFFEFDFC90DE
:1071A3000CDF1230EAD31230034017900CDF123099
:1071B300DE74FFFBFAF9F8122EB0900CDF123126C1
:0271C30080D872
:1071C500908BCDE493FF3395E0FE90028D75F0131F
:1071D500EF1231A1EE75F013A42583F5831231BDAD
:1071E500E92407F9E43AFA754CFF754D6C754E1CA8
:1071F500754FFF75506F75518D1263B4908BCDE44B
:1072050093FF3395E0FE90028D75F013EF1231A1D7
:10721500EE75F013A42583F5831231BDE92407F932
:10722500E43AFA12000EEF2401F54DE43EF54C90D8
:107235008BCCE493FF7B737D0112941A7F0112AD11
:047245009675C86012
:10724900900CE3123132000107ACE4FFFEFDFC9023
:107259000CE31230EAD31230034017900CE31230DA
:10726900DE74FFFBFAF9F8122EB0900CE312312606
:0272790080D8BB
:10727B00908BCDE493FF3395E0FE90028D75F01368
:10728B00EF1231A1EE75F013A42583F5831231BDF6
:10729B00E92407F9E43AFA754CFF754D6C754E1CF1
:1072AB00754FFF75506F7551A01263B4908BCDE481
:1072BB0093FF3395E0FE90028D75F013EF1231A121
:1072CB00EE75F013A42583F5831231BDE92407F97C
:1072DB00E43AFA12000EEF2401F54DE43EF54C9022
:0E72EB008BCCE493FF7B737D0112941AC2FFDB
:1072F900900CE71231320006DDD0E4FFFEFDFC9070
:107309000CE71230EAD31230034017900CE7123021
:10731900DE74FFFBFAF9F8122EB0900CE712312651
:0273290080D80A
:02732B00D2FF8F
:10732D00900CEB123132000107ACE4FFFEFDFC9036
:10733D000CEB1230EAD31230034017900CEB1230E5
:10734D00DE74FFFBFAF9F8122EB0900CEB12312619
:02735D0080D8D6
:10735F00908BCDE493FF3395E0FE90028D75F01383
:10736F00EF1231A1EE75F013A42583F5831231BD11
:10737F00E92407F9E43AFA754CFF754D6C754E1C0C
:10738F00754FFF75506F7551B31263B4908BCDE489
:10739F0093FF3395E0FE90028D75F013EF1231A13C
:1073AF00EE75F013A42583F5831231BDE92407F997
:1073BF00E43AFA12000EEF2401F54DE43EF54C903D
:1073CF008BCCE493FF7B737D0112941AE4FF12AD13
:0473DF0096E4F5C873
:1073E300900CEF123132000107ACE4FFFEFDFC907C
:1073F3000CEF1230EAD31230034017900CEF123027
:10740300DE74FFFBFAF9F8122EB0900CEF1231265E
:0274130080D81F
:10741500908BCDE493FF3395E0FE90028D75F013CC
:10742500EF1231A1EE75F013A42583F5831231BD5A
:10743500E92407F9E43AFA754CFF754D6C754E1C55
:10744500754FFF75506F7551C71263B4908BCDE4BE
:1074550093FF3395E0FE90028D75F013EF1231A185
:10746500EE75F013A42583F5831231BDE92407F9E0
:10747500E43AFA12000EEF2401F54DE43EF54C9086
:107485008BCCE493FF7B737D0112941AD2B3C2B601
:0C749500C2B5C2B4E4900004F08542844B
:0174A10022C8
:1067C700E4900CEFF0A3F0A2FB92018584469000C1
:0367D7000404F0C7
:1067DA00900CD7123132000107ACE4FFFEFDFC90A9
:1067EA000CD71230EAD31230034017900CD712306C
:1067FA00DE74FFFBFAF9F8122EB0900CD71231268C
:02680A0080D834
:10680C00908BCDE493FF3395E0FE90028D75F013E1
:10681C00EF1231A1EE75F013A42583F5831231BD6F
:10682C00E92407F9E43AFA754CFF754D6C754E1C6A
:10683C00754FFF75506F7551D81263B4908BCDE4C2
:10684C0093FF3395E0FE90028D75F013EF1231A19A
:10685C00EE75F013A42583F5831231BDE92407F9F5
:10686C00E43AFA12000EEF2401F54DE43EF54C909B
:10687C008BCCE493FF7B737D0112941A900014E08F
:02688C00706E2C
:10688E00900CDB123132000107ACE4FFFEFDFC90F0
:10689E000CDB1230EAD31230034017900CDB1230AF
:1068AE00DE74FFFBFAF9F8122EB0900CDB123126D3
:0268BE0080D880
:1068C000908BCDE493FF3395E0FE90028D75F0132D
:1068D000EF1231A1EE75F013A42583F5831231BDBB
:1068E000E92407F9E43AFA754CFF754D6C754E1CB6
:1068F000754FFF75506F75511F026BC8C2FBE4F5F1
:0369000084D2C678
:10690300900CDF123132000107ACE4FFFEFDFC9076
:106913000CDF1230EAD31230034017900CDF123031
:10692300DE74FFFBFAF9F8122EB0900CDF12312659
:0269330080D80A
:106935007542007543087544017545F4908BCDE4A7
:1069450093FF3395E0FE90028D75F013EF1231A1A0
:10695500EE75F013A42583F5831231BDE92407F9FB
:10696500E43AFA754CFF754D6F754EEC85424F85CF
:1069750043508544518545521263B4908BCDE493C1
:10698500FF3395E0FE90028D75F013EF1231A1EE05
:1069950075F013A42583F5831231BDE92407F9E4C5
:1069A5003AFA12000EEF2401F54DE43EF54C908BBA
:1069B500CCE493FF7B737D0112941AD2B6D2B3C295
:1069C500B4C2B59000421231BD7408122D04E4F52D
:1069D50042F543E5432440FF9000421231BDE543B3
:1069E5002401FDE435428D82F583EF122D16054312
:1069F500E543700205426408454270D79000407433
:106A050009F0A314F090003D7404F0E4F544F54555
:106A150012AE01AE44AF457C007D64122D4AED4CAB
:106A25006002B2B530E819C39002C1E09409900242
:106A3500C0E094004003026B1BE49002C0F0A3F099
:106A4500900CE312313200001194E4FFFEFDFC903E
:106A55000CE31230EAD31230034017900CE31230E6
:106A6500DE74FFFBFAF9F8122EB0900CE312312612
:026A750080D8C7
:106A770012ADE5900048E060FAE4900048F0F54276
:106A8700F5439000421231BDE5432401FFE435424E
:106A97008F82F583122CA4FF9000451231BD8543E8
:106AA70082854283122CA46F600A900CEFE475F084
:106AB70001122DD50543E54370020542640845429E
:0E6AC70070C0900CEFE07002A3E06002C2B35A
:106AD500900CE712313200001194E4FFFEFDFC90AA
:106AE5000CE71230EAD31230034017900CE712304E
:106AF500DE74FFFBFAF9F8122EB0900CE71231267E
:026B050080D836
:106B07000545E54570020544C394F4E544940150F6
:086B170003026A15A20192FBC2
:106B1F00900CEB123132000107ACE4FFFEFDFC904C
:106B2F000CEB1230EAD31230034017900CEB1230FB
:106B3F00DE74FFFBFAF9F8122EB0900CEB1231262F
:026B4F0080D8EC
:106B5100900CEFE0FEA3E0FF4E908BCD6033E49309
:106B6100FD3395E0FC90028D75F013ED1231A1EC2F
:106B710075F013A42583F5831231BDE92407F9E4E7
:106B81003AFA754CFF754D70754E008E4F8F5080DF
:106B910036E493FF3395E0FE90028D75F013EF120A
:106BA10031A1EE75F013A42583F5831231BDE924DB
:106BB10007F9E43AFA754CFF754D6C754E1C754F2B
:106BC100FF7550707551161263B4908BCDE493FF2D
:106BD1003395E0FE90028D75F013EF1231A1EE7541
:106BE100F013A42583F5831231BDE92407F9E43AB2
:106BF100FA12000EEF2401F54DE43EF54C908BCCDA
:106C0100E493FF7B737D0112941AD2B3C2B4C2B56F
:0A6C1100C2B6E4900004F08546844A
:016C1B002256
:10803900A2FB92018584449000047401F0900040F1
:0A8049007410F0A3F0E4900048F07A
:10805300900CD7123132000107ACE4FFFEFDFC9017
:108063000CD71230EAD31230034017900CD71230DA
:10807300DE74FFFBFAF9F8122EB0900CD7123126FA
:0280830080D8A3
:10808500908BCDE493FF3395E0FE90028D75F01350
:10809500EF1231A1EE75F013A42583F5831231BDDE
:1080A500E92407F9E43AFA754CFF754D6C754E1CD9
:1080B500754FFF7550707551271263B4908BCDE4E1
:1080C50093FF3395E0FE90028D75F013EF1231A109
:1080D500EE75F013A42583F5831231BDE92407F964
:1080E500E43AFA12000EEF2401F54DE43EF54C900A
:1080F5008BCCE493FF7B737D0112941A900014E0FE
:02810500706E9A
:10810700900CDB123132000107ACE4FFFEFDFC905E
:108117000CDB1230EAD31230034017900CDB12301D
:10812700DE74FFFBFAF9F8122EB0900CDB12312641
:0281370080D8EE
:10813900908BCDE493FF3395E0FE90028D75F0139B
:10814900EF1231A1EE75F013A42583F5831231BD29
:10815900E92407F9E43AFA754CFF754D6C754E1C24
:0E816900754FFF75506F75511F028328C2FBC2
:10817700900CDF123132000107ACE4FFFEFDFC90EA
:108187000CDF1230EAD31230034017900CDF1230A5
:10819700DE74FFFBFAF9F8122EB0900CDF123126CD
:0281A70080D87E
:1081A9007F087E007542017543F4908BCDE493FD01
:1081B9003395E0FC90028D75F013ED1231A1EC7549
:1081C900F013A42583F5831231BDE92407F9E43AB4
:1081D900FA754CFF754D6F754EEC8E4F8F50854279
:1081E900518543521263B4908BCDE493FF3395E0EC
:1081F900FE90028D75F013EF1231A1EE75F013A404
:108209002583F5831231BDE92407F9E43AFA12000E
:108219000EEF2401F54DE43EF54C908BCCE493FF31
:108229007B737D0112941AD2B6D2B3C2B4C2B5E43B
:10823900F58475C304C2C3FEFFEF24F0FD9000422C
:108249001231BD8F828E83ED122D160FBF00010EE4
:10825900EF64084E70E3900048E060FA30E816C316
:108269009002C1E094099002C0E094005042E49069
:1082790002C0F0A3F0E4900048F0FEFF900041E056
:10828900FDC3EF9DEE940050239000451231BD8F40
:10829900828E83122CA4FD9000421231BD8F828EF2
:1082A90083ED122D160FBF00010E80D0B2B580A646
:0482B900A20192FB91
:1082BD00900CE3123132000107ACE4FFFEFDFC909F
:1082CD000CE31230EAD31230034017900CE3123056
:1082DD00DE74FFFBFAF9F8122EB0900CE312312682
:0282ED0080D837
:1082EF00908BCDE493FF3395E0FE90028D75F013E4
:1082FF00EF1231A1EE75F013A42583F5831231BD72
:10830F00E92407F9E43AFA754CFF754D6C754E1C6C
:10831F00754FFF75507075513A1263B4908BCDE461
:10832F0093FF3395E0FE90028D75F013EF1231A19C
:10833F00EE75F013A42583F5831231BDE92407F9F7
:10834F00E43AFA12000EEF2401F54DE43EF54C909D
:10835F008BCCE493FF7B737D0112941AD2B3C2B41A
:0C836F00C2B5C2B6E4900004F08544845E
:01837B0022DF
:10AD0D000112010106010102010000000100000015
:10AD1D000C00000077000004A900002E9B0001D25A
:10AD2D00090012345600B60B61071C71C7471C7120
:01AD3D00C74E
:04A28B00410DD600AB
:10837C009002A01231BD8B378A38893990029FE068
:10838C0090029EF0E4F531F532F536F535F534F51D
:10839C0033AB37AA38A9390532E532AE3170020554
:1083AC0031142406F582E43EF58374FA122D160579
:1083BC0032E532AE3170020531142406F582E43E0A
:1083CC00F583E4122D160532E532AE31700205311B
:1083DC00142406F582E43EF5837401122D16053241
:1083EC00E532AE3170020531142406F582E43EF517
:1083FC0083E4122D160532E532AE317002053114CC
:10840C002406F582E43EF5837401122D160532E53F
:10841C0032AE3170020531142406F582E43EF58348
:10842C00E4122D16AD32AC317F087E0612A2B99043
:10843C000295E07002A3E070F690026AE0F531A3B9
:10844C00E0F53290029FE0FF90029EE0B5071378B2
:10845C00331231067B407A4B794C7800D3123019A9
:10846C0050E190029FE0FF90029EE06F7003028348
:10847C0090E4F531F532AB37AA38A9390532E5323B
:10848C00AE3170020531142406F582E43EF5837496
:10849C0001122D160532E532AE317002053114246D
:1084AC0006F582E43EF583E4122D160532E532AE74
:1084BC003170020531142406F582E43EF583E41292
:1084CC002D160532E532AE3170020531142406F555
:1084DC0082E43EF583E4122D160532E532AE31709E
:1084EC00020531142406F582E43EF58374C0122D86
:1084FC00160532E532AE3170020531142406F582D0
:10850C00E43EF5837408122D160532E532AE317057
:10851C00020531142406F582E43EF583E4122D168F
:10852C000532E532AE3170020531142406F582E4D1
:10853C003EF583E4122D16E92406F9E43AFAE9250E
:10854C0032F9EA3531FA12316300E1000074042586
:10855C0032F532E43531F531AB37AA38A939053269
:10856C00E532AE3170020531142406F582E43EF595
:10857C00837401122D160532E532AE3170020531CD
:10858C00142406F582E43EF583E4122D160532E53B
:10859C0032AE3170020531142406F582E43EF583C7
:1085AC007401122D160532E532AE3170020531140C
:1085BC002406F582E43EF583E4122D160532E532ED
:1085CC00AE3170020531142406F582E43EF583E4E5
:1085DC00122D160532E532AE317002053114240627
:1085EC00F582E43EF583E4122D160532E532AE3108
:1085FC0070020531142406F582E43EF583E4122D55
:10860C00160532E532AE3170020531142406F582BE
:10861C00E43EF583E4122D16AD32AC317F007E06BC
:0D862C0012A2B9900295E07002A3E070F672
:10863900900CC7123132000008CAE4FFFEFDFC901D
:108649000CC71230EAD31230034017900CC712300E
:10865900DE74FFFBFAF9F8122EB0900CC71231261E
:0286690080D8B7
:10866B007B017A0279937F007EE17D007C00129082
:01867B0007F7
:10867C00900CCB12313200004650E4FFFEFDFC9012
:10868C000CCB1230EAD31230034017900CCB1230C3
:10869C00DE74FFFBFAF9F8122EB0900CCB123126D7
:0286AC0080D874
:0186AE0022A9
:1000A60078E77C0C7D017BFF7AAD790D7E007F09B8
:1000B600122C659002A01231BD8B498A4A894B9059
:1000C6000014E0700302020A90029FE090029EF084
:1000D600E4F548E4F546F547E54875F003A424E75A
:1000E600F582E4340CF583E0FFAB49AA4AA94B0537
:1000F60047E547AC4670020546142406F582E43C03
:10010600F583EF122D16E54875F003A424E7F58272
:10011600E4340CF583A3E0FF0547E547AC467002DF
:100126000546142406F582E43CF583EF122D16E508
:100136004875F003A424E9F582E4340CF583E0FF66
:100146000547E547AC4670020546142406F582E4E9
:100156003CF583EF12A2AE900295E07002A3E07028
:10016600F690029FE0FF90029EE06F60F49002A37B
:100176001231BD90029FE0FF75F0DCA4F58285F098
:1001860083122E2CF54785F046EFB402047F0080DB
:100196000690029FE004FF90029FEFF0E54764019E
:1001A6007004E5466405600C90029FE0FF90029E95
:0401B600E0B507B9F0
:1001BA00900CC712313200001194E4FFFEFDFC904E
:1001CA000CC71230EAD31230034017900CC7123012
:1001DA00DE74FFFBFAF9F8122EB0900CC712312622
:0201EA0080D8BB
:1001EC00E54764017004E546640560030200D90527
:1001FC0048E548C3940350030200D9020DD2E4F53C
:10020C0046F547AB49AA4AA94B0547E547AE4670A8
:10021C00020546142406F582E43EF5837401122D82
:10022C00160547E547AE4670020546142406F582CE
:10023C00E43EF5837402122D160547E547AE467071
:10024C00020546142406F582E43EF583E4122D16CD
:10025C000547E547AE4670020546142406F582E4D0
:10026C003EF5837401122D160547E547AE46700224
:10027C000546142406F582E43EF583E4122D16059A
:10028C0047E547AE4670020546142406F582E43E67
:10029C00F583E4122D160547E547AE467002054678
:1002AC00142406F582E43EF5837401122D160547DD
:1002BC00E547AE4670020546142406F582E43EF589
:1002CC00837401122D160547E547AE4670020546AC
:1002DC00142406F582E43EF583E4122D160547E559
:1002EC0047AE4670020546142406F582E43EF583BB
:1002FC00E4122D160547E547AE4670020546142458
:10030C0006F582E43EF583E4122D160547E547AE6B
:10031C004670020546142406F582E43EF583E41289
:10032C002D160547E547AE4670020546142406F522
:10033C0082E43EF5837401122D160547E547AE465F
:10034C0070020546142406F582E43EF58374061209
:10035C002D160547E547AE4670020546142406F5F2
:10036C0082E43EF583E4122D160547E547AE467050
:10037C00020546142406F582E43EF5837401122D21
:10038C00160547E547AE4670020546142406F5826D
:10039C00E43EF583E4122D160547E547AE467002A0
:1003AC000546142406F582E43EF583E4122D160569
:1003BC0047E547AE4670020546142406F582E43E36
:1003CC00F5837401122D160547E547AE46700205FC
:1003DC0046142406F582E43EF5837412122D16059C
:1003EC0047E547AE4670020546142406F582E43E06
:1003FC00F583E4122D160547E547AE467002054617
:10040C00142406F582E43EF5837401122D1605477B
:10041C00E547AE4670020546142406F582E43EF527
:10042C0083E4122D160547E547AE467002054614C7
:10043C002406F582E43EF583E4122D160547E547C4
:10044C00AE4670020546142406F582E43EF583742C
:10045C0001122D160547E547AE46700205461424D9
:10046C0006F582E43EF5837403122D160547E54725
:10047C00AE4670020546142406F582E43EF583E48C
:10048C00122D160547E547AE4670020546142406A4
:10049C00F582E43EF583E4122D160547E547AE469A
:1004AC0070020546142406F582E43EF583E4122D11
:1004BC00160547E547AE4670020546142406F5823C
:1004CC00E43EF583E4122D160547E547AE4670026F
:1004DC000546142406F582E43EF5837401122D16AC
:1004EC000547E547AE4670020546142406F582E43E
:1004FC003EF5837430122D160547E547AE46700263
:10050C000546142406F582E43EF583E4122D160507
:10051C0047E547AE4670020546142406F582E43ED4
:10052C00F583E4122D160547E547AE4670020546E5
:10053C00142406F582E43EF583E4122D160547E5F6
:10054C0047AE4670020546142406F582E43EF58358
:10055C00E4122D160547E547AE46700205461424F5
:10056C0006F582E43EF5837401122D160547E54726
:10057C00AE4670020546142406F582E43EF58374FB
:10058C0004122D160547E547AE46700205461424A5
:10059C0006F582E43EF583E4122D160547E547AED9
:1005AC004670020546142406F582E43EF583E412F7
:1005BC002D160547E547AE4670020546142406F590
:1005CC0082E43EF583E4122D160547E547AE4670EE
:1005DC00020546142406F582E43EF583E4122D163A
:1005EC000547E547AE4670020546142406F582E43D
:1005FC003EF5837401122D160547E547AE46700291
:10060C000546142406F582E43EF5837420122D165B
:10061C000547E547AE4670020546142406F582E40C
:10062C003EF583E4122D160547E547AE46700205EC
:10063C0046142406F582E43EF583E4122D16054794
:10064C00E547AE4670020546142406F582E43EF5F5
:10065C0083E4122D160547E547AE46700205461297
:10066C00A2A4900295E07002A3E070F690029FE0C5
:10067C00FF90029EE06F60F49002A31231BD9002D5
:10068C009FE0FF75F0DCA4F58285F083122E2CF52B
:10069C004785F046EFB402047F00800690029FE08D
:1006AC0004FF90029FEFF0E54764017004E5466497
:0F06BC0005600C90029FE0FF90029EE0B507B929
:1006CB00900CCB12313200002328E4FFFEFDFC908E
:1006DB000CCB1230EAD31230034017900CCB1230F4
:1006EB00DE74FFFBFAF9F8122EB0900CCB12312608
:0206FB0080D8A5
:1006FD00E54764017004E5466405600302020AE4FF
:10070D00F546F547AB49AA4AA94B0547E547AE461D
:10071D0070020546142406F582E43EF58374011239
:10072D002D160547E547AE4670020546142406F51D
:10073D0082E43EF5837411122D160547E547AE464A
:10074D0070020546142406F582E43EF583E4122D6D
:10075D00160547E547AE4670020546142406F58298
:10076D00E43EF583E4122D160547E547AE467002CB
:10077D000546142406F582E43EF583E4122D160594
:10078D0047E547AE4670020546142406F582E43E61
:10079D00F583E4122D160547E547AE467002054672
:1007AD00142406F582E43EF5837401122D160547D7
:1007BD00E547AE4670020546142406F582E43EF583
:1007CD00837421122D160547E547AE467002054686
:1007DD00142406F582E43EF583E4122D160547E553
:1007ED0047AE4670020546142406F582E43EF583B5
:1007FD00E4122D160547E547AE4670020546142452
:10080D0006F582E43EF583E4122D160547E547AE65
:10081D004670020546142406F582E43EF583E41283
:10082D002D160547E547AE4670020546142406F51C
:10083D0082E43EF5837401122D160547E547AE4659
:10084D0070020546142406F582E43EF583742212E7
:10085D002D160547E547AE4670020546142406F5EC
:10086D0082E43EF583E4122D160547E547AE46704A
:10087D00020546142406F582E43EF583E4122D1696
:10088D000547E547AE4670020546142406F582E499
:10089D003EF583E4122D160547E547AE4670020579
:1008AD0046142406F582E43EF583E4122D16054721
:1008BD00E547AE4670020546142406F582E43EF582
:1008CD0083740A122D160547E547AE46700205469C
:1008DD00142406F582E43EF5837407122D160547A0
:1008ED00E547AE4670020546142406F582E43EF552
:1008FD0083E4122D160547E547AE467002054614F2
:10090D002406F582E43EF583E4122D160547E547EE
:10091D00AE4670020546142406F582E43EF583E4E6
:10092D00122D160547E547AE4670020546142406FE
:10093D00F582E43EF583E4122D160547E547AE46F4
:10094D0070020546142406F582E43EF583740A12FE
:10095D002D160547E547AE4670020546142406F5EB
:10096D0082E43EF5837408122D160547E547AE4621
:10097D0070020546142406F582E43EF583E4122D3B
:10098D00160547E547AE4670020546142406F58266
:10099D00E43EF583E4122D160547E547AE46700299
:1009AD000546142406F582E43EF583E4122D160562
:1009BD0047E547AE4670020546142406F582E43E2F
:1009CD00F583E4122D160547E547AE467002054640
:1009DD00142406F582E43EF583740A122D1605479C
:1009ED00E547AE4670020546142406F582E43EF551
:1009FD00837402122D160547E547AE467002054673
:100A0D00142406F582E43EF583E4122D160547E520
:100A1D0047AE4670020546142406F582E43EF58382
:100A2D00E4122D160547E547AE467002054614241F
:100A3D0006F582E43EF583E4122D160547E547AE33
:100A4D004670020546142406F582E43EF583E41251
:100A5D002D160547E547AE4670020546142406F5EA
:100A6D0082E43EF583740A122D160547E547AE461E
:100A7D0070020546142406F582E43EF583740912CE
:100A8D002D160547E547AE4670020546142406F5BA
:100A9D0082E43EF583E4122D160547E547AE467018
:100AAD00020546142406F582E43EF583E4122D1664
:100ABD000547E547AE4670020546142406F582E467
:100ACD003EF583E4122D160547E547AE4670020547
:100ADD0046142406F582E43EF583E4122D160547EF
:100AED00E547AE4670020546142406F582E43EF550
:100AFD0083740A122D160547E547AE46700205466A
:100B0D00142406F582E43EF5837401122D16054773
:100B1D00E547AE4670020546142406F582E43EF51F
:100B2D0083E4122D160547E547AE467002054614BF
:100B3D002406F582E43EF583E4122D160547E547BC
:100B4D00AE4670020546142406F582E43EF583E4B4
:100B5D00122D160547E547AE4670020546142406CC
:100B6D00F582E43EF583E4122D160547E547AE46C2
:100B7D0070020546142406F582E43EF583740A12CC
:100B8D002D160547E547AE4670020546142406F5B9
:100B9D0082E43EF5837403122D160547E547AE46F4
:100BAD0070020546142406F582E43EF583E4122D09
:100BBD00160547E547AE4670020546142406F58234
:100BCD00E43EF583E4122D160547E547AE46700267
:100BDD000546142406F582E43EF583E4122D160530
:100BED0047E547AE467002054612A2A4900295E075
:100BFD007002A3E070F690029FE0FF90029EE06FFE
:100C0D0060F49002A31231BD90029FE0FF75F0DCFD
:100C1D00A4F58285F083122E2CF54785F046EFB4AE
:100C2D0002047F00800690029FE004FF90029FEF78
:100C3D00F0E54764017004E5466405600C90029F81
:090C4D00E0FF90029EE0B507B93A
:100C5600900CCF12313200002328E4FFFEFDFC90F9
:100C66000CCF1230EAD31230034017900CCF12305B
:100C7600DE74FFFBFAF9F8122EB0900CCF12312673
:020C860080D814
:100C8800E54764017004E5466405600302070CE467
:100C9800F546F547AB49AA4AA94B0547E547AE468D
:100CA80070020546142406F582E43EF58374FA12B0
:100CB8002D160547E547AE4670020546142406F58D
:100CC80082E43EF583E4122D160547E547AE4670EB
:100CD800020546142406F582E43EF5837401122DBC
:100CE800160547E547AE4670020546142406F58208
:100CF800E43EF583E4122D160547E547AE4670023B
:100D08000546142406F582E43EF5837401122D1677
:100D18000547E547AE4670020546142406F582E409
:100D28003EF583E4122D167F0812A2B3900295E0D7
:100D38007002A3E070F690029FE0FF90029EE06FC1
:100D480060F49002A31231BD90029FE0FF75F0DCC1
:100D5800A4F58285F083122E2CF54785F046EFB472
:100D680002047F00800690029FE004FF90029FEF3C
:100D7800F0E54764017004E5466405600C90029F45
:090D8800E0FF90029EE0B507B9FE
:100D9100900CD312313200001194E4FFFEFDFC905F
:100DA1000CD31230EAD31230034017900CD3123017
:100DB100DE74FFFBFAF9F8122EB0900CD312312633
:020DC10080D8D8
:0F0DC300E54764017004E54664056003020C9780
:100DD200900CA7E0FBE4FAF9F87F807E967D98FC00
:100DE20012AC638F4F8E4E8D4D8C4C780812302A88
:100DF200E4FFE4FDFCC004C005C006C007AF4FAE6F
:100E02004EAD4DAC4C781812302AE4FEFDFCD003F6
:100E1200D002D001D000122FE8C004C005C006C025
:100E220007AF4FAE4EAD4DAC4C780812303DE4FFEB
:100E3200FEE4FCD003D002D001D000122FE8C0049F
:100E4200C005C006C007AF4FAE4EAD4DAC4C7818D2
:100E520012303DE4FFFEFDECD003D002D001D00001
:100E6200122FE8AB49AA4AA94B9000061230BAE405
:100E7200754F0AF54EF54DF54CAF4FAE4EAD4DAC3C
:100E82004C780812302AE4FFE4FDFCC004C005C01F
:100E920006C007AF4FAE4EAD4DAC4C781812302A9B
:100EA200E4FEFDFCD003D002D001D000122FE8C036
:100EB20004C005C006C007AF4FAE4EAD4DAC4C7876
:100EC2000812303DE4FFFEE4FCD003D002D001D092
:100ED20000122FE8C004C005C006C007AF4FAE4ED7
:100EE200AD4DAC4C781812303DE4FFFEFDECD00362
:100EF200D002D001D000122FE8AB49AA4AA94B90E8
:100F0200000A1230BA7546007547080547E547AE34
:100F12004670020546142406F582E43EF583740108
:100F2200122D160547E547AE467002054614240603
:100F3200F582E43EF5837401122D160547E547AEAE
:100F42004670020546142406F582E43EF583E41257
:100F52002D160547E547AE4670020546142406F5F0
:100F620082E43EF583E4122D160547E547AE46704E
:100F7200020546142406F582E43EF5837432122DEE
:100F8200160547E547AE4670020546142406F5826B
:100F9200E43EF583E4122D160547E547AE4670029E
:100FA2000546142406F582E43EF5837434122D16A8
:100FB2000547E547AE4670020546142406F582E46D
:100FC2003EF5837403122D160547E547AE467002BF
:100FD2000546142406F582E43EF583E4122D160537
:100FE20047E547AE4670020546142406F582E43E04
:100FF200F583E4122D160547E547AE467002054615
:10100200142406F582E43EF583E4122D160547E525
:1010120047AE4670020546142406F582E43EF58387
:10102200E4122D16AD47AC467F077E0612A2B99098
:101032000295E07002A3E070F690029FE0FF90023A
:101042009EE06F60F49002A31231BD90029FE0FF18
:1010520075F0DCA4F58285F083122E2CF54785F01D
:1010620046EFB402047F00800690029FE004FF90E6
:10107200029FEFF0E54764017004E5466405600CE9
:0C10820090029FE0FF90029EE0B507B9CD
:10108E00900CD712313200001194E4FFFEFDFC905B
:10109E000CD71230EAD31230034017900CD712300F
:1010AE00DE74FFFBFAF9F8122EB0900CD71231262F
:0210BE0080D8D8
:1010C000E54764017004E54664056003020DD290B3
:1010D0000014E070030217E5E4F546F547AB49AAB2
:1010E0004AA94B0547E547AE46700205461424065B
:1010F000F582E43EF583E4122D160547E547AE463A
:1011000070020546142406F582E43EF583E4122DB0
:10111000160547E547AE4670020546142406F582DB
:10112000E43EF583E4122D160547E547AE4670020E
:101130000546142406F582E43EF583E4122D1605D7
:1011400047E547AE4670020546142406F582E43EA4
:10115000F5837440122D160547E547AE467002052B
:1011600046142406F582E43EF583741F122D1605FD
:1011700047E547AE4670020546142406F582E43E74
:10118000F58374E8122D160547E547AE4670020553
:1011900046142406F582E43EF5837403122D1605E9
:1011A00047E547AE4670020546142406F582E43E44
:1011B000F5837498122D160547E547AE4670020573
:1011C00046142406F582E43EF583743A122D160582
:1011D00047E547AE4670020546142406F582E43E14
:1011E000F58374B0122D160547E547AE467002052B
:1011F00046142406F582E43EF5837404122D160588
:1012000047E547AE4670020546142406F582E43EE3
:10121000F58374E8122D160547E547AE46700205C2
:1012200046142406F582E43EF5837403122D160558
:1012300047E547AE4670020546142406F582E43EB3
:10124000F5837403122D160547E547AE4670020577
:1012500046142406F582E43EF583E4122D16AD47CC
:10126000AC467F257E0612A2B9900295E07002A3DB
:10127000E070F690029FE0FF90029EE06F60F490B5
:1012800002A31231BD90029FE0FF75F0DCA4F5824D
:1012900085F083122E2CF54785F046EFB402047FCB
:1012A00000800690029FE004FF90029FEFF0E54768
:1012B00064017004E5466405600C90029FE0FF90B5
:0612C000029EE0B507B933
:1012C600900CDB12313200001194E4FFFEFDFC901D
:1012D6000CDB1230EAD31230034017900CDB1230CD
:1012E600DE74FFFBFAF9F8122EB0900CDB123126F1
:0212F60080D89E
:1012F800E54764017004E546640560030210D805FB
:1013080047E54770020546E4F546F547AB49AA4A62
:10131800A94B0547E547AE4670020546142406F575
:1013280082E43EF583E4122D160547E547AE467084
:10133800020546142406F582E43EF583E4122D16D0
:101348000547E547AE4670020546142406F582E4D3
:101358003EF583E4122D160547E547AE46700205B3
:1013680046142406F582E43EF583E4122D1605475B
:10137800E547AE4670020546142406F582E43EF5BC
:1013880083E4122D160547E547AE4670020546145C
:101398002406F582E43EF583E4122D160547E54759
:1013A800AE4670020546142406F582E43EF583E451
:1013B800122D160547E547AE467002054614240669
:1013C800F582E43EF583E4122D16AD47AC467F1650
:1013D8007E0612A2B9900295E07002A3E070F69022
:1013E800029FE0FF90029EE06F60F49002A312312A
:1013F800BD90029FE0FF75F0DCA4F58285F08312B2
:101408002E2CF54785F046EFB402047F0080069045
:10141800029FE004FF90029FEFF0E547640170042B
:10142800E5466405600C90029FE0FF90029EE0B5DF
:0214380007B9F2
:10143A00900CDF12313200001194E4FFFEFDFC90A3
:10144A000CDF1230EAD31230034017900CDF12304F
:10145A00DE74FFFBFAF9F8122EB0900CDF12312677
:02146A0080D828
:10146C00E54764017004E5466405600302130FE46C
:10147C00F546F547AB49AA4AA94B0547E547AE46A1
:10148C0070020546142406F582E43EF583740512B9
:10149C002D160547E547AE4670020546142406F5A1
:1014AC0082E43EF583E4122D160547E547AE4670FF
:1014BC00020546142406F582E43EF5837404122DCD
:1014CC00160547E547AE4670020546142406F5821C
:1014DC00E43EF5837402122D16E92406F9E43AFA77
:1014EC00E92547F9EA3546FA12316350C300007416
:1014FC00042547F547E43546F546AB49E54B24064C
:10150C00F9E4354AFAE92547F9EA3546FA12316326
:10151C000000000074042547F547E43546F546AB5A
:10152C0049AA4AA94B0547E547AE46700205461441
:10153C002406F582E43EF5837405122D160547E565
:10154C0047AE4670020546142406F582E43EF58348
:10155C00E4122D16E92406F9E43AFAE92547F9EAEA
:10156C003546FA74FA75F000122E6474022547F5AC
:10157C0047E43546F546AB49E54B2406F9E4354AD4
:10158C00FAE92547F9EA3546FA74FA75F000122E95
:10159C006474022547F547E43546F546AB49E54BFF
:1015AC002406F9E4354AFAE92547F9EA3546FA748E
:1015BC006475F000122E6474022547F547E4354635
:1015CC00F546AB49E54B2406F9E4354AFAE92547DB
:1015DC00F9EA3546FA742C75F001122E6474022562
:1015EC0047F547E43546F546AB49AA4AA94B0547AA
:1015FC00E547AE4670020546142406F582E43EF536
:10160C0083E4122D160547E547AE467002054614D5
:10161C002406F582E43EF583E4122D160547E547D2
:10162C00AE4670020546142406F582E43EF583E4CA
:10163C00122D160547E547AE4670020546142406E2
:10164C00F582E43EF583E4122D160547E547AE46D8
:10165C0070020546142406F582E43EF583E4122D4F
:10166C00160547E547AE4670020546142406F5827A
:10167C00E43EF583E4122D160547E547AE467002AD
:10168C000546142406F582E43EF583E4122D160576
:10169C0047E547AE4670020546142406F582E43E43
:1016AC00F583E4122D160547E547AE467002054654
:1016BC00142406F582E43EF583E4122D160547E565
:1016CC0047AE4670020546142406F582E43EF583C7
:1016DC00E4122D160547E547AE4670020546142464
:1016EC0006F582E43EF583E4122D160547E547AE78
:1016FC004670020546142406F582E43EF583E41296
:10170C002D160547E547AE4670020546142406F52E
:10171C0082E43EF583E4122D160547E547AE46708C
:10172C00020546142406F582E43EF583E4122D16D8
:10173C00AD47AC467F247E0612A2B9900295E070AC
:10174C0002A3E070F690029FE0FF90029EE06F60B3
:10175C00F49002A31231BD90029FE0FF75F0DCA45F
:10176C00F58285F083122E2CF54785F046EFB402F6
:10177C00047F00800690029FE004FF90029FEFF030
:10178C00E54764017004E5466405600C90029FE037
:08179C00FF90029EE0B507B9C1
:1017A400900CE312313200001194E4FFFEFDFC9032
:1017B4000CE31230EAD31230034017900CE31230DA
:1017C400DE74FFFBFAF9F8122EB0900CE312312606
:0217D40080D8BB
:0F17D600E54764017004E5466405600302147B77
:0117E50022E1
:10A2A400142406F582E43EF583E4122D167F01ADF5
:05A2B40047AC467E06E8
:08A2B9008E508F518C528D5321
:10A2C1009002A01231BD74B5122D049002A012317A
:10A2D100BD9000017462122D16E550900002122DFE
:10A2E10016E551900003122D16E553900004122D2E
:10A2F10016E552900005122D16E4F555F5547F022E
:10A30100FEE5532406FDE43552FCC3EF9DEE9C505F
:10A311001C9002A01231BD8F828E83122CA4255471
:10A32100F5542555F5550FBF00010E80D49002A0BC
:10A331001231BDE5532406FFE435528F82F583E5E2
:10A3410054122D16E5532407FFE435528F82F5830D
:10A35100E555122D167B017A027993E5532408FD08
:07A36100E43552FC02A9A43F
:06495B008B318A32893322
:10496100900DD6E0700804F01200A6024FD5AB31CD
:10497100AA32A933122E0112327E498B01024C7EDA
:0A49810001064D5F011200004FCF48
:10498B0074062533F533E43532F532753700753857
:10499B000075393FE4F53AF53B7831E475F00112D7
:1049AB0031AD122C8BFF783774FFF5F01231ADEF70
:1049BB00122D04053BE53B7002053A6404453A7041
:1049CB00D8AC3CEC3350047F0180027F008F40AFAA
:1049DB003FAE3EAD3DAC3CEC334002800BAF3FAE47
:1049EB003EAD3DAC3C122FF58F3F8E3E8D3D8C3C4A
:1049FB00AB34AA35A93690000A12317D00000000B5
:104A0B00E4F53AF53BAB34E536240AF9E43535FAEF
:104A1B00C003C002C001123050C004C005C006C0A4
:104A2B0007E47B0AFAF9F8AF3FAE3EAD3DAC3C1262
:104A3B00AC63AC00AD01AE02AF03C004C005C00651
:104A4B00C007E53BAE3A7802C333CE33CED8F92458
:104A5B0016F58274AD3EF5831230F6D007D006D032
:104A6B0005D004122ECBA804A905AA06AB07D007C4
:104A7B00D006D005D004122EB0D001D002D0031234
:104A8B0030A0AF3FAE3EAD3DAC3CE47B0AFAF9F84B
:104A9B0012AC638F3F8E3E8D3D8C3C053BE53B70EE
:104AAB0002053A640A453A6003024A10E540601574
:104ABB00AB34AA35A93690000A123070122FF5903C
:104ACB00000A1230BA75370075380075393FE4F5B6
:104ADB003AF53B7831E475F0011231AD122C8BFFB6
:104AEB00783774FFF5F01231ADEF122D04053BE56D
:104AFB003B7002053A6404453A70D8AC3CEC335039
:104B0B00047F0180027F008F40AF3FAE3EAD3DACD6
:104B1B003CEC334002800BAF3FAE3EAD3DAC3C12A4
:104B2B002FF58F3F8E3E8D3D8C3CAB34AA35A9368D
:104B3B0090000612317D00000000E4F53AF53BAB26
:104B4B0034E5362406F9E43535FAC003C002C0015A
:104B5B00123050C004C005C006C007E47B0AFAF946
:104B6B00F8AF3FAE3EAD3DAC3C12AC63AC00AD011B
:104B7B00AE02AF03C004C005C006C007E53BAE3AAA
:104B8B007802C333CE33CED8F92416F58274AD3EFA
:104B9B00F5831230F6D007D006D005D004122ECBF9
:104BAB00A804A905AA06AB07D007D006D005D004E8
:104BBB00122EB0D001D002D0031230A0AF3FAE3EC8
:104BCB00AD3DAC3CE47B0AFAF9F812AC638F3F8E37
:104BDB003E8D3D8C3C053BE53B7002053A640A4536
:104BEB003A6003024B4AE5406015AB34AA35A9364F
:104BFB00900006123070122FF59000061230BA7426
:104C0B00042533F533E43532F5327537007538004A
:104C1B0075393FE4F53AF53B7831E475F001123123
:104C2B00AD122C8BFF783774FFF5F01231ADEF120C
:104C3B002D04053BE53B7002053A6404453A70D8F8
:104C4B00AF3FAE3EAD3DAC3CE47BE87A03F9F812E6
:104C5B00AC638F3F8E3E8D3D8C3CAB34AA35A93671
:104C6B0090000EEE8FF0122E839002EEE04404F0D3
:104C7B00024FD5AB31AA32A93390002F122CA4FED0
:104C8B0090002E122CA47C002400FFEC3E9002BD61
:104C9B00F0A3EFF0900031122CA4900CADF0740245
:104CAB002533F533E43532F532FAA93390000B1284
:104CBB002CA4540D640D6008E4900CADF0024D551E
:104CCB00E5362403F9E43535853437F5388939E48D
:104CDB00F53AF53B7831E475F0011231AD122C8BBE
:104CEB00FF783774FFF5F01231ADEF122D04053B51
:104CFB00E53B7002053A6404453A70D874042533D9
:104D0B00F533E43532F532E5362404F9E43535FA7A
:104D1B00E92401F9E43A853437F5388939E4F53A71
:104D2B00F53B7831E475F0011231AD122C8BFF7825
:104D3B003774FFF5F01231ADEF122D04053BE53B57
:104D4B007002053A6402453A70D89002EEE04402D4
:044D5B00F0024FD53E
:104D5F0074062533F533E43532F532AB31FAA93326
:104D6F001230508F3F8E3E8D3D8C3C780812302A8A
:104D7F00E4FFE4FDFCC004C005C006C007AF3FAEB2
:104D8F003EAD3DAC3C781812302AE4FEFDFCD0035A
:104D9F00D002D001D000122FE8C004C005C006C059
:104DAF0007AF3FAE3EAD3DAC3C780812303DE4FF5F
:104DBF00FEE4FCD003D002D001D000122FE8C004D3
:104DCF00C005C006C007AF3FAE3EAD3DAC3C781846
:104DDF0012303DE4FFFEFDECD003D002D001D00035
:104DEF00122FE88F3F8E3E8D3D8C3CE47B64FAF9A9
:104DFF00F812AC638F3F8E3E8D3D8C3C8E428F43BD
:104E0F0074042533F533E43532F532AB31FAA93377
:104E1F001230508F3F8E3E8D3D8C3C780812302AD9
:104E2F00E4FFE4FDFCC004C005C006C007AF3FAE01
:104E3F003EAD3DAC3C781812302AE4FEFDFCD003A9
:104E4F00D002D001D000122FE8C004C005C006C0A8
:104E5F0007AF3FAE3EAD3DAC3C780812303DE4FFAE
:104E6F00FEE4FCD003D002D001D000122FE8C00422
:104E7F00C005C006C007AF3FAE3EAD3DAC3C781895
:104E8F0012303DE4FFFEFDECD003D002D001D00084
:104E9F00122FE88F3F8E3E8D3D8C3CE47B64FAF9F8
:104EAF00F812AC638F3F8E3E8D3D8C3C8E408F4110
:104EBF0074042533F533E43532F532AB31FAA933C7
:104ECF001230508F3F8E3E8D3D8C3C780812302A29
:104EDF00E4FFE4FDFCC004C005C006C007AF3FAE51
:104EEF003EAD3DAC3C781812302AE4FEFDFCD003F9
:104EFF00D002D001D000122FE8C004C005C006C0F8
:104F0F0007AF3FAE3EAD3DAC3C780812303DE4FFFD
:104F1F00FEE4FCD003D002D001D000122FE8C00471
:104F2F00C005C006C007AF3FAE3EAD3DAC3C7818E4
:104F3F0012303DE4FFFEFDECD003D002D001D000D3
:104F4F00122FE88F3F8E3E8D3D8C3CE47B64FAF947
:104F5F00F812AC638F3F8E3E8D3D8C3CC3E49FF5C2
:104F6F0045E49EF544E5405407FEE47803CEC313B1
:104F7F00CE13D8F9AB34AA35A936900010122D16DE
:104F8F00E5425407FEE47806CEC313CE13D8F9904A
:104F9F000010122CD1E5445403900010122CD1E5CF
:104FAF0041900011122D16E543900012122D16E5B7
:0E4FBF0045900013122D169002EEE04401F012
:104FCD008006753A00753B019002EEE064076003C0
:104FDD00025191F0900CADE0600302510C90000075
:104FED00E075F015A424C2F9740235F0FA7B01A81E
:104FFD0036AC35AD347E007F15122C65AB34AA3539
:10500D00A936123050EF24FAFFE43EFEE43DFDE4F4
:10501D003CFC1230A0900000E0640175F015A42452
:10502D00C2F582E43402F5831230DEE4FBFAF9F8BE
:10503D00C3123019700302510CAB34E5362406F956
:10504D00E43535FAC003C002C001123050C004C0AF
:10505D0005C006C007900000E0FF640175F015A4BF
:10506D0024C8F582E43402F5831230EAEF75F015A9
:10507D00A424C8F582E43402F5831230DE122EBD6D
:10508D00A804A905AA06AB07D007D006D005D00401
:10509D00122EB0D001D002D0031230A0AB34E536C1
:1050AD00240AF9E43535FAC003C002C001123050AC
:1050BD00C004C005C006C007900000E0FF64017584
:1050CD00F015A424CCF582E43402F5831230EAEF16
:1050DD0075F015A424CCF582E43402F5831230DE8C
:1050ED00122EBDA804A905AA06AB07D007D006D07D
:1050FD0005D004122EB0D001D002D0031230A090F2
:10510D000000E06401F0E075F015A424C2F974020A
:10511D0035F0A801FC7D01AB34AA35A9367E007FA0
:10512D0015122C65908BCFE493FF3395E0FE900222
:10513D008D75F013EF1231A1EE75F013A42583F5E3
:10514D00831231BDE92407F9E43A8B37F5388939F3
:10515D00900CADE0FF7837E475F0011231ADEF1230
:10516D002D04A839AC38AD37AB34AA35A9367E003D
:10517D007F15122C65754C00754D167B227D037FB6
:04518D000212941A5C
:0151910022FB
:10AD9600EF6004C2B18002D2B1E4FF0FBF1EFCD245
:10ADA600B2E4FF0FBF1EFCE4FEB2B1E4FF0FBF1E0C
:07ADB600FC0EBE85F4C2B2E1
:01ADBD002273
:10AE1A00AF84E4F58475C04475CFEC43C040C2C327
:05AE2A0043E6028F84E5
:01AE2F002200
:03003B000295E843
:1095E800C0E0C083C082C0D075D000C000C001C038
:0795F80002C003C006C0071A
:1095FF00C200AFC1EF123258964D08964D10966EBD
:10960F0018969C20966E28969C30970B3896A34000
:10961F00969E4896A35096DC5897106097107097B7
:10962F001E80976B88971E90976B98979DA0976F4A
:10963F00A8976FB89783C0979DC80000970B9000AD
:10964F003DE0F5C2900048E4F053C2FEA20C334255
:10965F00C2C2C590003FE4F090003EF002979D908B
:10966F000040E0FF90003EE0FEC39F501990004283
:10967F001231BD8E82758300122CA4F5C290003E6C
:10968F00E004F002979DD2C4C20B02979DD2C5D2BF
:10969F00C502979D90003FE0601624FFFFE434FF62
:1096AF00FE9000451231BD8F828E83E5C2122D16BA
:1096BF0090003FE004F0900041E0FF90003FE0C3D6
:1096CF009F5005D2C202979DC2C202979D90003F44
:1096DF00E024FFFFE434FFFE9000451231BD8F827E
:1096EF008E83E5C2122D1690003FE004F0900048E3
:1096FF007401F0D2C4C20BD2C202979DD20002975E
:10970F009D900048E4F090003EF0A3F002979D90EA
:10971F00003FE0FF700D900041E5C2F0900048E47B
:10972F00F08017EF24FFFFE434FFFE900045123165
:10973F00BD8F828E83E5C2122D1690003FE004F09C
:10974F00900041E0FF90003FE0D39F400B90004816
:10975F007401F090003FE4F0D2C28032D2C2802E6A
:10976F009000421231BD90003EE0FF04F08F8275F1
:10977F008300801590003EE024FFFFE434FFFE904D
:10978F0000421231BD8F828E83122CA4F5C230009D
:10979F001053C0BF43C040C2C5C2C4C2C2C20BC275
:0397AF0000C2C332
:1097B200D007D006D003D002D001D000D0D0D082C2
:0597C200D083D0E0326D
:10AE0100AF84E4F584D2C6200BFDD20BC20C9000B6
:08AE11003DE0F5C3D2C58F84BA
:01AE19002216
:10ADE500AF84E4F584D2C6200BFDD20BD20C9000C3
:0BADF5003DE0F5C3D2C5200BFD8F84AC
:01AE0000222F
:10A28F0002080001010C00020D0000420DD3000076
:04A29F00410DD50098
:06A9A4008B568A5789580A
:10A9AA00858459AB56AA57A958900002122E2C45F5
:10A9BA00F070F0AB56AA57A95890000D1231CFC0CB
:10A9CA0003C002C001AB56AA57A95890000712311A
:10A9DA00FFAB56AA57A958900002EC8DF0122E83AD
:10A9EA00122C8B7006F584D2998005758401D29950
:03A9FA00855984F8
:01A9FD002237
:10003E00AE84E4F5848F9B30FFFDC2FFAF9B8E84B0
:01004E00228F
:10A9FE00AF8475840F759601758C67E4FDFC0DBDF3
:10AA0E0000010CE4B505F7ECB401F3E58C30E7FB7F
:10AA1E00759701E4F58A758905F58475B7207584F7
:10AA2E000F758D01758F01758E03FCFD0DBD000137
:10AA3E000CE4B505F7ECB401F3438902E58930E483
:06AA4E00FB7597028F84E6
:01AA540022DF
:0E9007008B428A4389448F488E478D468C45A4
:10901500858449122C8B14606F046003029207E467
:10902500F58475911590000A122CA424BB601824B0
:10903500F6601424EA601024F760071460092421FF
:10904500700875985080037598D0E4F58475C80448
:1090550075C908AB48AA47A946A845FFFE7D657CAA
:1090650004122F56E47B10FAF9F8122F56122FF539
:109075008ECB8FCA74FFF5CDF5CCD2CAE4F584C288
:1090850099C298D2AC029207758401AB42AA43A952
:109095004490000A122CA424BB601824F660142402
:1090A500EA601024F7600714600924217008759898
:1090B500108003759890E4F58453890F438920AB9C
:1090C50048AA47A946A845FFFE7D657C04122F5690
:1090D500E47B02FAF9F8122F56E4FB7A01F9F8124B
:1090E5002F56E47B01FAF9F8D31230194026AB4824
:1090F500AA47A946A845E4FFFE7D657C04122F56C4
:10910500E47B02FAF9F8122F56122FF58F8D438E54
:10911500100291F8AB48AA47A946A845E4FFFE7D91
:10912500657C04122F56E47B02FAF9F8122F56E4F7
:10913500FB7A01F9F8122F56E47B04FAF9F8D312F9
:1091450030194031AB48AA47A946A845E4FFFE7D42
:10915500657C04122F56E47B02FAF9F8122F56E4C7
:109165007B04FAF9F8122F56122FF58F8D538EECDA
:10917500438E01807EAB48AA47A946A845E4FFFE79
:109185007D657C04122F56E47B02FAF9F8122F56FE
:10919500E4FB7A01F9F8122F56E47B0CFAF9F8D3BF
:1091A500123019AB48AA47A946A845E4FFFE7D65DC
:1091B5007C04401F122F56E47B02FAF9F8122F5651
:1091C500E47B0CFAF9F8122F56122FF58F8D538E7A
:1091D500EC8020122F56E47B02FAF9F8122F56E4A0
:1091E5007B30FAF9F8122F56122FF58F8D538EEC2E
:1091F500438E02858D8BD28E758401C299C29843A8
:05920500E740854984EB
:01920A002241
:10002600AF84E4F584759D04759A70C2FFD2F88F8B
:010036008445
:0100370022A6
:10AD6C00AD84758401E4F5C8F5C9EF2408FFE43E11
:10AD7C00FEC3E49FFFE49EF5CB8FCA74FFF5CDF5BF
:09AD8C00CC43E70143C8048D84A7
:01AD9500229B
:0300230002920B3B
:10920B00C0E0C0F0C083C082C0D075D000C000C029
:0D921B0001C002C003C004C005C006C007AA
:10922800E59820E0030293A28599275398FEE50864
:10923800600302936FE50924FE60631470030292D1
:10924800D714700302933C2403600302936F750DD7
:1092580000750E00E5276416600302936F90028B79
:10926800E0FF7E007C027D1D122D389002901231A5
:10927800BDE92FF9EA3E8B0FF5108911FA050EE5C5
:109288000EAE0D7002050D14F5828E83E527122DA2
:1092980016E527620C75080075090202936FAB0F7B
:1092A800AA10A911050EE50EAE0D7002050D14F5F4
:1092B800828E83E527122D16E527620CE50E6406DB
:1092C800450D600302936FF50875090302936FABB0
:1092D8000FAA10A911050EE50EAE0D7002050D14AA
:1092E800F5828E83E527122D16630CFFE50C6527A2
:1092F8007031AB0FAA10A911900003122CA4750AA3
:1093080000F50B750B00F50A900004122CA4250B30
:10931800F50BE4350AF50A450B6046750800750932
:10932800048044750D00750E0075080075090175F7
:109338000C008033D2B4AB0FAA10A911050EE50EAC
:10934800AE0D7002050D14F5828E83E527122D16D9
:10935800E50B2407FFE4350AFEEFB50E0AEEB50D5E
:1093680006750800750905E50964054508702BC2EE
:10937800B4F508750901F50DF50EF50C9002841287
:1093880031BDE94A4B7013AB0FAA10A911900284A2
:109398001231C690028BE06401F0E59830E13E900E
:1093A8000282E07002A3E06023D2B49002871231F7
:1093B800BD122C8BF599900288E475F001122DD519
:1093C80090028274FFF5F0122DD5800EC2B47B0096
:0D93D8007A0079009002871231C65398FD8B
:1093E500D007D006D005D004D003D002D001D000DC
:0B93F500D0D0D082D083D0F0D0E03286
:0300A300028DD0FB
:108DD000C0E0C0F0C083C082C0D075D000C000C069
:098DE00001C002C003C006C00777
:108DE900E59820E003028F7B859928900DD5E01244
:108DF90032588E1A008E2B018E3E028E8E038EBB48
:108E0900048ED4058EFB068F3C078F4D0800008F1A
:108E190078E52864B56003028F78900DD504F002D7
:108E29008F78E528900DD5B462067402F0028F7828
:108E3900E4F0028F78751800751700900DD3E4F0EF
:108E4900A3F090029EE075F0DCA4FF9002A312311A
:108E5900BDE92FF9EA35F08B12F5138914FA900D53
:108E6900D3E475F001122DEB85F082F583E5281224
:108E79002D16E5282517F5172518F518900DD57421
:108E890003F0028F78AB12AA13A914900DD3E475DD
:108E9900F001122DEB85F082F583E528122D16E5F8
:108EA900282517F5172518F518900DD57404F00223
:108EB9008F78751500852816E5282517F5172518C3
:108EC900F518900DD57405F0028F78E528FEE42594
:108ED90016F516EE3515F515E5282517F517251894
:108EE900F518E5164515900DD5700280417406F008
:108EF900807DAB12AA13A914900DD3E475F0011269
:108F09002DEB85F082F583E528122D16E528251726
:108F1900F5172518F518E5162402FFE43515FE9016
:108F29000DD3E06E7003A3E06F7044900DD5740704
:108F3900F0803CE517900DD5B528057408F0802F11
:048F4900E4F0802BA5
:108F4D0090029EE0FFB402067E007F008003EF04D6
:108F5D00FF8F29E518B5280E90029FE06529600660
:0B8F6D0090029EE529F0900DD5E4F085
:108F78005398FEE59830E170900295E07002A3E006
:108F8800605790029DE024BB601A24E0601624F626
:108F980060042420702290029A1231BD122C8B306A
:108FA800E00E801190029A1231BD122C8B30E00530
:108FB80043980480035398FB90029A1231BD122CF7
:108FC8008BF59990029BE475F001122DD5900295CE
:108FD80074FFF5F0122DD5800C7B007A0079009093
:088FE800029A1231C65398FDF4
:108FF000D007D006D003D002D001D000D0D0D0828C
:07900000D083D0F0D0E03274
:0300730002A418CC
:10A41800C0E0C0F0C083C082C0D075D000C000C00A
:03A4280006C00764
:10A42B0075840153C87F90026AE475F001122DD533
:10A43B009002BAE0FEA3E0FF90026AE0B50619A312
:10A44B00E0B507149002BAE475F0A0122DD5900078
:10A45B0049E475F001122DD5E4FFFE74242FF5822B
:10A46B00E4340CF583E0600D74242FF582E4340C96
:10A47B00F583E014F00FBF00010EEF64034E70DBA9
:10A48B0075840F20E816C39002C1E094FF9002C0C0
:10A49B00E094FF5007E475F001122DD5758400751B
:06A4AB00BB00C2EDD2EC83
:10A4B100D007D006D000D0D0D082D083D0F0D0E069
:01A4C1003268
:102618000229DEE86480F8E933E83360110460F0E9
:10262800ED33EC337009E8FCE9FDEAFEEBFF220428
:1026380060DED3EB9FEA9EE99DE8C2E78CF0C2F723
:1026480095F0400CE8CCF8E9CDF9EACEFAEBCFFBEF
:102658001229A985D0F05804700320D5B3E8047076
:10266800075002B2D50229E892D5EC0460F7E4CC11
:10267800C0E0C398F8603B94186008400DD0E0FBB8
:102688000229C0E4FBFAC9FC8028E830E406E4C962
:10269800FBE4CAFCE830E305E4C9CACBFCE854070C
:1026A8006010F8C3E913F9EA13FAEB13FBEC13FC17
:1026B800D8F130F52FC3E49CFCEF9BFFEE9AFEEDBA
:1026C80099FDD0E0FBEF4E4D4C701222DB0302293E
:1026D800E5EC2CFCEF33FFEE33FEED33FDED30E798
:1026E800EB0229C0EF2BFFEE3AFEED39FDD0E0FBFF
:1026F80050130BBB00030229E8ED13FDEE13FEEFA8
:0827080013FFEC13FC0229C0D1
:10271000EC4D6011E8497017ED33EC3304600DE4C3
:10272000FCFFFEFD22E933E8330470F80229DE12D3
:1027300029A958046009E4CC2481500628500902D4
:1027400029E82840030229E5C0E0EB4A7044B9803B
:1027500006D0E0FB0229D4EF4E701CBD8008EBFFD1
:10276000EAFEE9FD80EBE98DF0A4FEE5F00227F931
:10277000E9CDF9EAFEEBFFEF89F0A4FCE5F0CE89A4
:10278000F0A42EFFE435F0CD89F0A42DFEE435F061
:102790008067EF4E7005BD80D780C3EF8BF0A4AC8F
:1027A000F0EE8BF0A42CFCE435F0F8EF8AF0A42CCA
:1027B000E5F038FCE433CB8DF0A42CFCE5F03BF8DD
:1027C000EE8AF0A42CFCE5F038F8E433CF89F0A4CD
:1027D0002CFCE5F038CF3400CE89F0A42FFFE5F0D3
:1027E0003EFEE433C98DF0A42EFEE5F039CD8AF02B
:1027F000A42FFFE5F03EFEE43DFD33D0E0FB5007A3
:102800000BBB000F0229E8EC2CFCEF33FFEE33FE8C
:06281000ED33FD0229C0BA
:102816000229E8EC5D046005E8590470030229DE2C
:102826001229A9580460F6EC4860F2EC7004FDFE2B
:10283600FF22C860DB2481C85009C3986002500695
:102846000229E59850CAF582E9294B4A7005AB8200
:102856000229D475F0007C1A7880C3EF9BEE9AEDBE
:1028660099400DC3EF9BFFEE9AFEED99FDE842F00D
:10287600DC23ACF0D0E0FFD0E0FED0E0FDAB822060
:10288600E7101BEB60BAEC2CFCEF33FFEE33FEEDEA
:1028960033FD0229C0E803F830E705C0F075F00003
:1028A600EF2FFFEE33FEED33FD40B830E7C280AACE
:1028B60074F8CC6480CCC86480C8F582046043C3D5
:1028C600EB9FF5F0EA9E42F0E99D42F0E89C45F068
:1028D60060305018E5825FFFE582F42B5582FB508D
:1028E600210ABA001D09B90019088016E5825BFBAA
:1028F600E582F42F5582FF50090EBE00050DBD007E
:10290600010CC3EB9FF5F0EA9E42F0E99D42F0E828
:0D2916009C45F06007CC4820E701B3EC229F
:10292300ED33EC33600A047003BD8004ECB2E7FCC2
:012933002281
:1029340075F020800E75F010800575F0087D007E1E
:10294400007F003392D530D503122FF5EC334010BD
:10295400EF33FFEE33FEED33FDEC33FCD5F0ED2227
:0E296400E5F0247EA2D513CC92E7CDCEFF2263
:10297200EDD2E7CD33EC3392D524814006E4FFFE5D
:10298200FDFC22FCE4CFCECDCC24E0501174FF80BC
:10299200EDC3CC13CCCD13CDCE13CECF13CF047059
:0729A200F030D5DE022FF535
:10635800E560244CF8E60560227849300902784C5B
:10636800E475F0011231AD022C8B2002EB7F2ED2A6
:10637800028018EF540F2490D43440D4FF30060B19
:10638800EF24BFB41A0050032461FFE561600215D1
:10639800610564E5647002056330090D7849E475A8
:1063A800F0011231ADEF022D0402ADBE7403D20923
:1063B8008003E4C209F5608B498A4A894BE4F56198
:1063C800F563F564E56160077F2012639380F575D6
:1063D80062FFC203C202C204C205C207C208C20ADF
:1063E800126361FF700D3009057F001263A4AF646A
:1063F800AE6322B4255FC2D5C206126361FF24D002
:10640800B40A00501A75F00A786130D50508B6FF4D
:106418000106C6A426F620D5047002D20580D92428
:10642800CFB41A00EF5004C2E5D206026691D20337
:1064380080C6D20280C0D20480BCD2D580BAD2072E
:1064480080B47F201263932004077401B561004073
:10645800F1126358FF1263930263CCD20AD2088008
:1064680095126358FB126358FA126358F94A4B7035
:106478000679887A677BFF20042EE561602A7E0012
:106488008E82758300122CA460060EEE656270F091
:10649800C2D5EBC0E0EAC0E0E9C0E0EE1266F1D098
:1064A800E0F9D0E0FAD0E0FB122C8BFF60AAEBC039
:1064B800E0EAC0E0E9C0E0126393D0E02401F9D03B
:1064C800E03400FAD0E0FBE5620460DCD562D980F4
:1064D80087D20480A21266D460F7E56270010412C4
:1064E80029F3A962600DE562600914F56212677B01
:1064F800EF60F3EA30E702F404C3995077EAF42531
:10650800620430E701E404F562800D1266D460C1CC
:10651800EA056225621229F3EA785FF630E701E4BA
:10652800256204D56204200701141266F1E4C0E074
:1065380012677B785FE6601320E70714F612637B27
:10654800802204F6D0E014C0E07F0012637BE5628D
:1065580060071263721562800B300703126372D0F2
:10656800E00263CCD0E00480C51266D460A0E56286
:10657800041229F3785FEAF6E56220070260010455
:0565880024041266F17D
:10658D0074FF04C0E012677B12637BE56220070293
:10659D006003126372D0E0B562E87F4512638578BF
:1065AD005FE67F2B30E7047F2DF404C0E012639388
:1065BD00D0E075F00A84C0F012637CD0E012637CE9
:1065CD000263CC791080027908C208C20A8008D211
:1065DD00D5790A8004790AC2D5E562047002F562A4
:1065ED00E4FAFDFEFF126358FC7B082003131263CF
:1065FD0058FD7B1030020A126358FE126358FF7B60
:10660D0020EC3382D592D55013C3E43002069FFFA0
:10661D00E49EFEE42003039DFDE49CFCE4CBF8C264
:10662D0003EC700CCFCECDCCE824F8F870F38017C6
:10663D00C3EF33FFEE33FEED33FDEC33FCEB33FBF9
:10664D00994002FB0FD8E9EB300305F8D0E0C448C0
:10665D00B203C0E00AEC4D4E4F78207B0070C2EAC9
:10666D00B5620040BCC0E01266F3D0F0D0E020036C
:10667D0004C4C0E0C4B203C0F012637CD0F0D5F006
:10668D00EB0263CC12325864695365D058643A4CAE
:10669D0064364265D44F65DC4465DC49644F43651F
:1066AD00E25565134665714564DD4767A850643E44
:1066BD002D64422E64652B64462364632067912A02
:1066CD0063FE480000645DE562B4FF037562061267
:1066DD006358FC126358FD126358FE126358FF781D
:1066ED0058022A22790AA2D5200514300709B910BB
:1066FD00020404B9080104A2D520080250010420A7
:10670D0004689204B561005034C0E07F2030051953
:10671D007F30A20472087207500F12674AC204C27A
:10672D0008C207C20A7F30800F300703E9C0E012AC
:10673D006393300703D0E0F9D0E0B561CC30071793
:10674D007F30B9100C1263937F583006077F788025
:10675D0003B908031263933004057F2D0263937F01
:10676D0020200AF87F2B2008F322920480CF7F008F
:10677D00B4070050052458F8E6FF22286E756C6C9E
:10678D002900D2031263583003F8C203786130D563
:10679D000108F60263FE2D50434958126358240335
:1067AD00B405004001E49067A393126384743A1218
:0A67BD006384D2057561040265D003
:1029A900E9D2E7C933E833F892D5EDD2E7CD33EC74
:0729B90033FC5002B2D522ED
:1029C000EC30E7100FBF000C0EBE00080DBD000478
:1029D0000BEB6014A2D5EB13FCED92E7FD2274FF24
:1029E000FCFDFEFF22E480F8A2D574FF13FC7D807D
:0329F000E480EF91
:1029F300F920E72824F950037907E4F42402FB18AB
:102A0300DBFDE624FB5014E9600DE4F618E604F65A
:0F2A1300B40A08E4F6D9F57401F60A22C2D522F6
:102A2200ED33EC3392D5FA602AB4FF33EDC2E77B83
:102A3200FF60067A2A7947E4227A2A795020D5045F
:102A42007A2A794B224E614E002B494E46002D497F
:102A52004E4600E47A08F608DAFC7B00740722E8A6
:102A6200C0E0ECC0E0EDC0E0EEC0E0EFC0E0EA752F
:102A7200F010A4CAABF075F04DA42BFBE435F0FCCA
:102A8200EA2410FAEB34C5FBEC34D9FCEDC2E7FFC3
:102A920075F056A4F42411C5F0F434C58FF0A42ABD
:102AA200E5F03BE43CF620E714122B55D0E0FFD0D2
:102AB200E0FED0E0FDD0E0FC1228198014F40412EC
:102AC2002B55D0E0FFD0E0FED0E0FDD0E0FC122795
:102AD20010D0E0F8E6FAEDD2E7CD33EC332482FBF6
:102AE200E4C3CF33CFCE33CECD33CD33DBF37B074D
:102AF20075F00A846004F6081B0AE5F0F6088FF008
:102B0200740AA4FFACF08EF0740AA42CFEACF05050
:102B1200010C8DF0740AA42CFDE435F0F608DBDE1E
:032B220074072213
:102B25003F8000004120000042C80000447A0000B8
:102B3500461C400047C35000497424004B1896803A
:102B45004CBEBC205A0E1BCA6753C21C749DC5AE31
:102B5500FB60065407601C2323122B83EB5438605B
:102B650009122B6F122B7E122710ECF8EDF9EEFAF5
:102B7500EFCB22EB122B7E80F1543803241C902BD3
:102B850025FE93FC0EEE93FD0EEE930ECE93FF22E3
:0300000002A5F561
:0CA5F500787FE4F6D8FD75817502A63C65
:102B9500E709F608DFFA8046E709F208DFFA803E22
:102BA50088828C83E709F0A3DFFA8032E309F6080F
:102BB500DFFA8078E309F208DFFA807088828C8377
:102BC500E309F0A3DFFA806489828A83E0A3F6082B
:102BD500DFFA805889828A83E0A3F208DFFA804C05
:102BE50080D280FA80C680D4806980F280338010DC
:102BF50080A680EA809A80A880DA80E280CA803345
:102C050089828A83ECFAE493A3C8C582C8CCC583BC
:102C1500CCF0A3C8C582C8CCC583CCDFE9DEE7808C
:102C25000D89828A83E493A3F608DFF9ECFAA9F00B
:102C3500EDFB2289828A83ECFAE0A3C8C582C8CC61
:102C4500C583CCF0A3C8C582C8CCC583CCDFEADE7A
:102C5500E880DB89828A83E493A3F208DFF980CCDC
:102C650088F0EF60010E4E60C388F0ED2402B404D5
:102C75000050B9F582EB2402B4040050AF2323457C
:062C85008223902BE57391
:102C8B00BB010689828A83E0225002E722BBFE0247
:092C9B00E32289828A83E493227A
:102CA400BB010CE58229F582E5833AF583E02250E5
:102CB40006E92582F8E622BBFE06E92582F8E2222F
:0D2CC400E58229F582E5833AF583E4932249
:102CD100BB010FF8E58229F582E5833AF583E02807
:102CE100F0225009C58229F8E58226F622BBFE09A9
:102CF100C58229F8E22582F222F8EA2583F583E9E3
:032D0100932822F2
:102D0400BB010689828A83F0225002F722BBFE01AE
:022D1400F322A8
:102D1600F8BB010DE58229F582E5833AF583E8F0F3
:102D2600225006E92582C8F622BBFE05E92582C89F
:022D3600F22287
:102D3800EF8DF0A4A8F0CF8CF0A428CE8DF0A42EAF
:022D4800FE2269
:102D4A00BC000BBE0029EF8DF084FFADF022E4CC6D
:102D5A00F875F008EF2FFFEE33FEEC33FCEE9DEC36
:102D6A00984005FCEE9DFE0FD5F0E9E4CEFD22ED7C
:102D7A00F8F5F0EE8420D21CFEADF075F008EF2FC6
:102D8A00FFED33FD4007985006D5F0F222C398FDB7
:052D9A000FD5F0EA2254
:102D9F00C2D5EC30E709B2D5E4C39DFDE49CFCEE4F
:102DAF0030E715B2D5E4C39FFFE49EFE122D4AC350
:102DBF00E49DFDE49CFC8003122D4A30D507C3E44B
:062DCF009FFFE49EFE22BE
:102DD500C5F0F8A3E028F0C5F0F8E5821582700289
:062DE5001583E038F02226
:102DEB00A3F8E0C5F025F0F0E5821582700215839B
:062DFB00E0C838F0E822F8
:102E0100BB010A89828A83E0F5F0A3E0225006879C
:102E1100F009E71922BBFE07E3F5F009E31922895E
:0B2E2100828A83E493F5F07401932291
:102E2C00BB0110E58229F582E5833AF583E0F5F0E4
:102E3C00A3E0225009E92582F886F008E622BBFEC1
:102E4C000AE92582F8E2F5F008E222E5832AF58307
:082E5C00E993F5F0A3E99322CC
:102E6400BB010A89828A83F0E5F0A3F0225006F7B9
:0F2E740009A7F01922BBFE06F3E5F009F31922B6
:102E8300F8BB0111E58229F582E5833AF583E8F081
:102E9300E5F0A3F0225009E92582C8F608A6F0223E
:0D2EA300BBFE09E92582C8F2E5F008F22225
:0D2EB000EF2BFFEE3AFEED39FDEC38FC2271
:0E2EBD00C3EF9BFFEE9AFEED99FDEC98FC2210
:102ECB00E88FF0A4CC8BF0A42CFCE98EF0A42CFCA6
:102EDB008AF0EDA42CFCEA8EF0A4CDA8F08BF0A424
:102EEB002DCC3825F0FDE98FF0A42CCD35F0FCEB83
:102EFB008EF0A4FEA9F0EB8FF0A4CFC5F02ECD3948
:0F2F0B00FEE43CFCEAA42DCE35F0FDE43CFC22B4
:102F1A0075F008758200EF2FFFEE33FECD33CDCC6E
:102F2A0033CCC58233C5829BED9AEC99E5829840F1
:102F3A000CF582EE9BFEED9AFDEC99FC0FD5F0D6CE
:102F4A00E4CEFBE4CDFAE4CCF9A88222B800C1B9F8
:102F5A000059BA002DEC8BF084CFCECDFCE5F0CB36
:102F6A00F97818EF2FFFEE33FEED33FDEC33FCEB6F
:102F7A0033FB10D703994004EB99FB0FD8E5E4F92A
:102F8A00FA227818EF2FFFEE33FEED33FDEC33FC17
:102F9A00C933C910D7059BE99A4007EC9BFCE99A0B
:102FAA00F90FD8E0E4C9FAE4CCFB2275F010EF2F50
:102FBA00FFEE33FEED33FDCC33CCC833C810D70750
:102FCA009BEC9AE899400AED9BFDEC9AFCE899F88B
:0E2FDA000FD5F0DAE4CDFBE4CCFAE4C8F9221E
:10AC6300C2D5E830E70FB2D5E4C39BFBE49AFAE41C
:10AC730099F9E498F8EC30E717B2D512AC99122F92
:10AC830056E4C39BFBE49AFAE499F9E498F8800349
:10AC9300122F5630D50DE4C39FFFE49EFEE49DFDC5
:04ACA300E49CFC220F
:0D2FE800EF4BFFEE4AFEED49FDEC48FC22E8
:0E2FF500C3E49FFFE49EFEE49DFDE49CFC22ED
:10300300EB9FF5F0EA9E42F0E99D42F0EC6480C844
:0630130064809845F022E4
:10301900EB9FF5F0EA9E42F0E99D42F0E89C45F00D
:013029002284
:10302A00E8600FECC313FCED13FDEE13FEEF13FF84
:03303A00D8F122A8
:10303D00E8600FEFC333FFEE33FEED33FDEC33FCF1
:03304D00D8F12295
:10305000BB010789828A830230DE5005E9F802321B
:10306000B1BBFE05E9F80232BD89828A830232C90A
:10307000BB010DE58229F582E5833AF5830230DE56
:103080005007E92582F80232B1BBFE07E92582F834
:103090000232BDE58229F582E5833AF5830232C921
:1030A000BB010789828A830231265005E9F8023282
:0A30B000D9BBFE05E9F80232E52263
:1030BA00BB010DE58229F582E5833AF583023126C3
:1030CA005007E92582F80232D9BBFE07E92582F8C2
:0430DA000232E522B7
:0C30DE00E0FCA3E0FDA3E0FEA3E0FF2265
:0C30EA00E0F8A3E0F9A3E0FAA3E0FB2269
:1030F600E493F8740193F9740293FA740393FB2230
:103106007401FF3395E0FEFDFC080808E62FFFF684
:1031160018E63EFEF618E63DFDF618E63CFCF622FD
:0C312600ECF0A3EDF0A3EEF0A3EFF0221C
:10313200A8828583F0D083D082123149123149129C
:103142003149123149E473E493A3C583C5F0C583C1
:10315200C8C582C8F0A3C583C5F0C583C8C582C8E7
:01316200224A
:10316300BB010789828A830231325005E9F80232B2
:0A317300F1BBFE05E9F802330A2261
:10317D00BB010DE58229F582E5833AF583023132F3
:10318D005007E92582F80232F1BBFE07E92582F8E6
:04319D0002330A22CD
:0C31A100A42582F582E5F03583F5832239
:1031AD00FAE6FB0808E6F925F0F618E6CA3AF62223
:0931BD00E0FBA3E0FAA3E0F92213
:0931C600EBF0A3EAF0A3E9F0220A
:1031CF00BB010DE58229F582E5833AF5830231BD16
:1031DF005007E92582F8023323BBFE07E92582F861
:1031EF00023335E58229F582E5833AF583023347C9
:1031FF00BB0120E58229F582E5833AF583D0F0D033
:10320F00E0F8D0E0F9D0E0FAD0E0FBE8C0E0C0F0A1
:10321F000231C65018E92582F8D083D082D0E0F968
:10322F00D0E0FAD0E0FBC082C08302332CBBFE1883
:10323F00E92582F8D083D082D0E0F9D0E0FAD0E04F
:09324F00FBC082C08302333E2261
:10325800D083D082F8E4937012740193700DA3A305
:1032680093F8740193F5828883E473740293686019
:06327800EFA3A3A380DF19
:10327E00D083D082F8E4937012740193700DA3A3DF
:10328E0093F8740193F5828883E473740293B5F016
:0D329E00067403936860E9A3A3A3A380D87E
:0632AB008A838982E473AE
:10ADBE00EFB40A07740D12ADC9740A309811A89930
:10ADCE00B8130CC2983098FDA899C298B811F630F5
:07ADDE0099FDC299F59922CD
:0F005E00EFC394204007EF947F50028001C3222C
:10000E00E4FFFE122C8B600C0FEF70010E09E970ED
:05001E00F20A80EF2250
:10A60100023353E493A3F8E493A34003F68001F2E9
:10A6110008DFF48029E493A3F85407240CC8C3335A
:10A62100C4540F4420C8834004F456800146F6DF29
:10A63100E4800B010204081020408090A1DBE47E3D
:10A64100019360BCA3FF543F30E509541FFEE4931E
:10A65100A360010ECF54C025E060A840B8E493A3E5
:10A66100FAE493A3F8E493A3C8C582C8CAC583CA10
:10A67100F0A3C8C582C8CAC583CADFE9DEE780BEC8
:01A2A30000BA
:0C32B100E6FC08E6FD08E6FE08E6FF2249
:0C32BD00E2FC08E2FD08E2FE08E2FF224D
:1032C900E493FC740193FD740293FE740393FF224B
:0C32D900ECF608EDF608EEF608EFF62221
:0C32E500ECF208EDF208EEF208EFF22225
:1032F100D083D082E493F608740193F608740293A4
:09330100F608740393F6740473DA
:10330A00D083D082E493F208740193F20874029392
:09331A00F208740393F2740473C9
:09332300E6FB08E6FA08E6F922CF
:09332C00EBF608EAF608E9F622C6
:09333500E2FB08E2FA08E2F922C9
:09333E00EBF208EAF208E9F222C0
:0C334700E493FB740193FA740293F922E2
:00000001FF
