:1000A60053656C65637420447269766572005365A6
:1000B6006C65637420547261636B0053656C656391
:1000C600742056656869636C650053657373696F60
:1000D6006E730056696577204C61707300457261D6
:1000E600736520446174610053657373696F6E2094
:1000F60044657461696C00313020487A00323020E2
:10010600487A00343020487A0053656C6563742061
:1001160052617465005553205374616E6461726454
:10012600004D65747269630053656C656374205590
:100136006E697473004C617074696D6520486F6CEC
:1001460064004772617068205363616C6500547285
:1001560061636B204C656E677468004C6170205358
:10016600657474696E6773002D302E3520746F20A8
:10017600302E3573002D3120746F202B3173002DF6
:100186003220746F202B3273002D3520746F202B94
:100196003573002D313020746F202B3130730053AE
:1001A600686F7274203C31206D692C312E366B6D70
:1001B600004D656420312D356D692C312E362D3874
:1001C6006B6D004C6F6E6720352B206D692C382BBC
:1001D600206B6D00447269766572005665686963C6
:1001E6006C6500547261636B0053616D706C696E6F
:1001F60067205261746500457261736520536573AB
:1002060073696F6E73005061636B20536573736916
:100216006F6E7300474D54204F66667365740043D6
:100226006F6E747261737400556E697473004C61FD
:10023600702F5175616C2053657474696E67730015
:10024600466163746F72792044656661756C747378
:100256000053657474696E6773004C617073005166
:1002660075616C696679696E67004175746F637252
:100276006F7373202F2052616C6C79005365676D24
:10028600656E742054696D696E670044726976659F
:10029600005461636820262053706565646F0047CB
:1002A600617567657300472D466F72636573004716
:1002B600732026204C6F636174696F6E00496E70FF
:1002C6007574730044617461204D6F646500475016
:1002D6005320436F6D7061737300475053204C6F0A
:1002E600636174696F6E00436865636B20496E7065
:1002F600757473004F74686572204D6F6465730082
:100306005265636F72642044617461005669657753
:100316002053657373696F6E73004368616E67651A
:100326002053657474696E67730043757272656EE7
:100336007420537461747573004F74686572204637
:1003460065617475726573004D61696E204D656EE9
:100356007500594553004E4F002041726520596F74
:100366007520537572653F0020436C72205374618B
:1003760072742F46696E3F005357204D49534D41C5
:10038600544348002052656C6F6164205357004403
:100396005249564520534146454C59002020445564
:1003A6002073772025642E253032642064617461C1
:1003B60020256400202053552073772025642E25A0
:1003C6003032642064617461202564002A2053550C
:1003D600204E4F5420434F4E4E4543544544202A09
:1003E600005468697320756E69742062656C6F6E5F
:1003F600677320746F004C6F6164696E6700537495
:100406006F72696E670043616E63656C696E670043
:10041600030100FF43757272656E74205374617434
:1004260075730007FF00D9FFB21D04FF00E3FFD874
:10043600AD06FF00EEFF7B82000000000000000218
:10044600FF00FDFFDA2102FF0103FFDA2102FF01AF
:1004560009FFDA210000000000000002FF011BFF77
:10046600DC5802FF0127FFDC5800000000000000F6
:1004760007FF013BFFD95406FF0148FFD5B306FF2E
:100486000154FFDB330000000000000002FF016E94
:10049600FFDC2F02FF017BFFDC2F02FF0185FFDC63
:1004A6002F02FF018FFFDC2F02FF0199FFDC2F00D7
:1004B60000000000000002FF01A5FFDCA702FF010B
:1004C600B7FFDCA702FF01C9FFDCA70000000000A0
:1004D600000006FF01DAFFBF6706FF01E1FFBAEC85
:1004E60006FF01E9FFB72B06FF01EFFFD23504FF38
:1004F60001FDFFDA5106FF020CFFDDB107FF021A0C
:10050600FFD91E07FF0225FFD7F006FF022EFFDCEC
:10051600CC01FF02340103BD04FF0246FFDC0600E6
:1005260000000000000007FF0260FF4E2307FF02E5
:1005360065FF4E2307FF0270FF4E2307FF0282FF6F
:100546004E2307FF0291FF4E2307FF0297FF4E231C
:1005560007FF02A5FF4E2307FF02ACFF4E2307FF4E
:1005660002B5FF4E2307FF02C3FF4E230000000023
:1005760000000007FF02D4FF4E2307FF02E0FF4EF4
:100586002307FF02EDFF4E23000000000000000FCE
:100596000F0F0FFFFFFFFF0F0F0F0FFFFFFFFFCF25
:1005A600CFCFCFCFFFFFFEFC008FCFCFCFCFCFCFA8
:1005B600CFCFFFFEFEFCFCFEFFFF0F0F0F0F0F0F4E
:1005C6000FFFFFFEF800FFFFFFFF0F0F0FFFFFFFFC
:1005D600FF0F0F0FFFFFFEFC008FCFCFCFCFCFCF88
:1005E600CFCFFFFEFEFC0F0F0F0FFFFFFFFF0F0F1A
:1005F6000F0FFCFEFFFFCFCFCFCFCFCFFFFFFEFC0D
:10060600000000007F7F7FFF000000007F7F7F7F6C
:1006160003070F1F3F7F7B73613F7F7F7B7B7B7B66
:100626007B7B7B7F7F7F7F1F3F7F7F78787B7F7F92
:100636007E7C3F7F7F7F607F7F7F7F0000007F7FA4
:100646007F7F0000007F7F7F7F3F7F7F7B7B7B7B81
:100656007B7B7B7F7F7F7F000000007F7F7F7F002B
:100666000000001F3F3F7F7B7B7B7B7B7B7B7B7917
:1006760078FFFFFFFFFFFFFFFFFFFFFFFFFFFFFF0B
:10068600FFFFFFFFFFFFFFFFFFFFFFFFFFFFFFFF74
:10069600FFFFFFFFFFFFFFFFFFFFFFFFFFFFFFFF64
:1006A600FFFFFFFFFFFFFFFFFFFFFFFFFFFFFFFF54
:1006B600FFFFFFFFFFFFFFFFFFFFFFFFFFFFFFFF44
:1006C600FFFFFFFFFFFFFFFFFFFFFFFFFFFFFFFF34
:1006D600FFFFFFFFFFFFFFFFFFFFFFFFFFFFFFFF24
:1006E600FFFFFFFFFFFFFFFFFFFFFF00000000000F
:1006F60000000000000000000000000000000000F4
:1007060000000000000000000000000000000000E3
:1007160000000000000000000000000000000000D3
:1007260000000000000000000000000000000000C3
:1007360000000000000000000000000000000000B3
:1007460000000000000000000000000000000000A3
:100756000000000000000000000000000000000093
:100766000000000000FF0000000000000000000084
:1007760000000000C30000000000000000000000B0
:10078600000000E70000000000000000000000007C
:100796000000C30000000000000000000000000090
:1007A6000055AA0000000000000000000000000044
:1007B60000C3000000000000000000000000000070
:1007C600E70000000000000000000000000000C379
:1007D6000000000000000000000000000000FF0014
:1007E600406070787C7E7C7870604000000000007D
:1007F60000000000000000000000000000000000F3
:1008060000000000000000000000000000000000E2
:1008160000000000000000000000000000000000D2
:1008260000000000000000000000000000000000C2
:1008360000000000000000000000000000000000B2
:1008460000000000000000000000000000000000A2
:100856000000000000000000000002060E1E3E7EA2
:100866003E1E0E0602000000000000000000000010
:100876000000000000000000000000000000000072
:100886000000000000000000000000000000000062
:100896000000000000000000000000000000000052
:1008A6000000000000000000000000000000000042
:1008B6000000000000000000000000000000000032
:1008C6000000000000000000000000000000000022
:1008D60000000000060606060606060606060600D0
:1008E6000000000000000000000000000000000002
:1008F60000000000000000000000000000000000F2
:1009060000000000000000000000000000000000E1
:1009160000000000000000000000000000000000D1
:1009260000000000000000000000000000000000C1
:1009360000000000000000000000000000000000B1
:1009460000000000000000000000000000006060E1
:100956006060606060606060600000000000000031
:100966000000000000000000000000000000000081
:100976000000000000000000000000000000000071
:100986000000000000000000000000000000000061
:100996000000000000000000000000000000000051
:1009A6000000000000000000000000000000000041
:1009B6000000000000000000000000000000000031
:1009C60000000000000000006666666666666666F1
:1009D60066666600000000000000000000000000DF
:1009E6000000000000000000000000000000000001
:1009F60000000000000000000000000000000000F1
:100A060000000000000000000000000000000000E0
:100A160000000000000000000000000000000000D0
:100A260000000000000000000000000000000000C0
:100A360000000000000000000000000000000000B0
:100A460000FFFF000081C3E7FF000081C3E7FFFF4F
:100A5600FFFFFFFFFFFFFFFFFFFFFFFFFFFFFFFFA0
:100A6600FFFFFFFFFFFFFFFFFFFFFFFFFFFFFFFF90
:100A7600FFFFFFFFFFFFFFFFFFFFFFFFFFFFFFFF80
:100A8600FFFFFFFFFFFFFFFFFFFFFFFFFFFFFFFF70
:100A9600FFFFFFFFFFFFFFFFFFFFFFFFFFFFFFFF60
:100AA600FFFFFFFFFFFFFFFFFFFFFFFFFFFFFFFF50
:100AB600FFFFFFFFFFFFFFFFFFFFFF28142814289B
:100AC600142814281428142814281428142800007C
:100AD6000000000000000000000000000000000010
:100AE6000000000000000000000000000000000000
:100AF60000000000000000000000000000000000F0
:100B060000000000000000000000000000000000DF
:100B160000000000000000000000000000000000CF
:100B2600000028142814281428142814281428141B
:100B360028142814283E7F6363637F7E60607E7F6F
:100B46006363637F3E3C19436343193C60603C1911
:100B5600436343193C3E7F7F7F7F7F7E60607E7F5D
:100B66007F7F7F7F3E000000000000000000000045
:100B760000008080808080C06030180C18B0E04093
:100B8600000000000000000000000000000000005F
:100B9600000000000000000080C0C080000080C08F
:100BA600C0C0C0800080C0C0C0C08000C0C00000FF
:100BB600C0C000C0C0C0C000C0C0C0C0C08000C0AF
:100BC600C0C0C000C0C08000C0C00080C0C0C0C0DF
:100BD600C00000000000000000000000000000004F
:100BE600000000000000000080FCFE57AB55AB552E
:100BF600AB55ABFEFC060341404080808080800000
:100C060000000000000000000000000000000000DE
:100C160000FFFF1919FFFF007FFFC0C0E161007FE1
:100C2600FFC0F0FFFF007FFFC0C0FF7F00C0FFFFD7
:100C3600C000FFFF3C7CEFC700C0FFFFC000FFFF06
:100C46000F7CFFFF007FFFC0CCFC7C000000000093
:100C56000000000000000000000000000000081C6A
:100C66003663C160311B0E070607060723212040A5
:100C76004044444488888888081111111121222291
:100C8600424444000000000000F0F81898B8B00094
:100C9600F8F89898F8F000F0F89898B83000000046
:100CA6000000F0F89898B8300018F8F81800F0F836
:100CB6001898B8B000F8F8F080F8F800E0F0383886
:100CC600F0E000F8F800000000000000000000005E
:100CD600000000000000000000000000000000000E
:100CE60000000000000000000000000000000000FE
:100CF60000000101010101020202040404000000D7
:100D06000000000F1F18191F0F001F1F010101000F
:100D1600000C1D19191F0F00000000000C1D1919E9
:100D26001F0F00181F1F18000F1F18191F0F001F75
:100D36001F010F1F1F001F1F03031F1F001F1F1868
:100D46001818180000000000000000000000FCFC5D
:100D56000000000000F8FC0C0CFCF800F8FC0C0C81
:100D6600FCF800FCFCF0B81C0C000CFCFC0C00FCB5
:100D7600FC78E0FCFC00F8FC0CCCDCD800000000A1
:100D86000000000000000000000000E0F090D8C85D
:100D9600ACA49692CA4A7E3E3090905048282824A9
:100DA60024242424242444A4140C0404885020203D
:100DB600202020202020202040C04080000000006D
:100DC6000000008040201000E7E76666666600C304
:100DD600E76666E7C300E3E76666E7C30007070161
:100DE600C3E76660E6C7076660E7E760630787C034
:100DF600E3E7C68607E3E06060E0C0006060E0E02D
:100E0600606000000000E0BE0203C3E1713034768A
:100E1600E6C53554949494949494949494949494A8
:100E26001414010202C1E474343474E4C8081828A6
:100E360090783C1E0D8640203078FCFEFFFFFE7C3D
:100E460038003F3F06060600001F3F30303F1F00B8
:100E56003F3F061E3B3100000000193B33363E1C67
:100E66000000003F3F0000003F3F0C0C3F3F003FAB
:100E76003F061E3B310000003F3F0000000000001F
:100E86000001010103070E0C0C0E07030202020209
:100E9600020202020202020202020202020202012D
:100EA600070E0C0C0E07038242E1F0F8FCFEF9F087
:100EB600E04060F0F8FDFFFDF8F060000000000083
:100EC600000000000000000000000000000000001C
:100ED600000000000000000000000000000000000C
:100EE60000000000000000000000000000000000FC
:100EF60000000000000000000000000000000000EC
:100F060000000000000000000000000000000000DB
:100F160000000000000000000080C0E0F0F8F4E2ED
:100F2600C18080C0E1F3FFFFF3E1C0804020110BD8
:100F3600070301000000000000F0F03030F0E00090
:100F4600F0F03030F0E000F0F03030303000E0F01B
:100F56003030706000E0F03030706000000000F863
:100F66000404E4F43434746404F4F434343404F4DB
:100F7600F404040404F4F434343404E4F43434742B
:100F860064043434F4F434340404F800000000C07B
:100F9600E07070E0C0003030F0F03030000000004B
:100FA600000000000000000000000080402010004B
:100FB6000000003F3F03030301003F3F0F1F3B318B
:100FC600003F3F3333333000193B33333F1E0019A4
:100FD6003B33333F1E000000007F808099BBB3B3D4
:100FE600BF9E80BFBFB3B3B080BFBFB0B0B080BF3D
:100FF600BFB3B3B0809FBFB0B0B898808080BFBF8A
:10100600808080807F000000003F3F06063F3F0053
:1010160000003F3F0000000000000000008040206C
:101026003078FCFEFFFFFE7C3800000000F0F898E8
:1010360098B830001818F8F8181800E0F03838F0AA
:10104600E000F8F89898F8F0001818F8F818180062
:1010560000000080E078180000F8F89898981800CA
:1010660018F8F81800F8F8F080F8F80018F8F818EA
:1010760000F0F89898B83000F8F88080F8F800008A
:1010860000000000000000000000000000000080DA
:1010960040E0F0F8FCFEF9F0E04060F0F8FDFFFDFE
:1010A600F8F060000000000C1D19191F0F00000069
:1010B6001F1F0000001F1F03031F1F001F1F070F16
:1010C6001D180000001F1F00000000181E07010069
:1010D6000000001F1F0101010000181F1F18001F3C
:1010E6001F010F1F1F00181F1F18000C1D19191FA5
:1010F6000F001F1F01011F1F00000000000000005D
:101106000080C0E0F0F8F4E2C18080C0E1F3FFFFA8
:10111600F3E1C0804020110B07030100000000002E
:101126000000008060101010101010101010101029
:1011360010F000000000000000F070C00000000089
:1011460000000000000000000000000080C0C0E0B9
:10115600E0F0F07878787C7CFCFCFC7C7CFCFC7C09
:101166007CFCFC7C7C7C7878F0F0E0E0C0C0800001
:10117600000000000000F010101050501010101069
:101186001010101010F000000000000000E020A079
:101196006040603808F8000080C060384F010002E7
:1011A6000300000000000000000018438478C0809F
:1011B60000C0601F00FF000000000000000000806B
:1011C600E0F8FCFEFFFFFFFFFFFFFFFFFFC0C0DBF5
:1011D600DBC0E4FFFFFCF8C3C3F8FCFFFFC0C0DBC5
:1011E600DBDFFFFFFFFFFFFFFFFFFEFCF8F0E08005
:1011F6007F0087C0000000000000000000010CF323
:1012060086FC0000000000FFF700000000003E0121
:10121600FF111412131010101010101010101010CF
:10122600909090101010101312151110101010132A
:101236001214141C181010101E1F1F9FDFFF7F3F73
:101246001F1F1F1F1F1F1FDF23B9A535B5A5392176
:101256002121212139A5B535A5B923DF1F1F1F1F60
:101266001F1F1F3F7FFFDF9F171118141710101045
:101276009090901010101010101015131F1E1010C3
:101286001C1310101010101010101F00003040001A
:1012960040000000000000000705010302030000F3
:1012A6000000000000000000000000000080C0E018
:1012B60070381C0E0703010000000000000000004B
:1012C6007F7870717130111110363636363610113E
:1012D6001130717170787F0000000000000000007E
:1012E6000103070E1C3870E0C181000001000020D8
:1012F6001038280830000000000000000000000040
:101306000000000000FFFFFFFFFFFFFFFF000000DF
:101316001C1C1C000000FFFFFFFFFFFFFFFF00007B
:1013260000FFFFFFFFFFFFFFFF0000001C1C1C006B
:101336000000FFFFFFFFFFFFFFFF000000FFFFFFB2
:10134600FFFFFFFFFF000000000000000000FFFF9E
:10135600FFFFFFFFFFFF3F3F3F3F3F3F3FFF0000D5
:10136600001C1C1C0000003F3F3F3F3F3F3F3F002B
:1013760000003F3F3F3F3F3F3F3F0000001C1C1C1B
:101386000000003F3F3F3F3F3F3F3F0000003F3FE1
:101396003F3F3F3F3F3F0000001C1C1C0000003F3A
:1013A6003F3F3F3F3F3F3F0000000000000000007E
:1013B600000000000000000000000000F0F0F0F067
:1013C600F0F0F0F0000000C0C0C0000000F0F0F047
:1013D600F0F0F0F0F0000000F0F0F0F0F0F0F0F0D7
:1013E600000000C0C0C0000000F0F0F0F0F0F0F027
:1013F600F0000000F0F0F0F0F0F0F0F00000000077
:101406000000000000F0F0F0F0F0F0F0F000000056
:1014160000000000000000000000000000000000C6
:1014260000000000000000000000000000000000B6
:10143600000000000000FFFFFFFFFFFFFFFF0000AE
:1014460000C1C1C1000000FFFFFFFFFFFFFFFF005B
:101456000000FFFFFFFFFFFFFFFF000000C1C1C14B
:10146600000000FFFFFFFFFFFFFFFF000000FFFF80
:10147600FFFFFFFFFFFF000000C0C0C0000000FF2D
:10148600FFFFFFFFFFFFFF0000000000000000005D
:101496000000000000000000000000C04040404086
:1014A60040404040404040404040C04040404040B6
:1014B600434343434343434340C04041414140408B
:1014C6004043434343434343C34040404343434372
:1014D60043434343404040C141414040404343436E
:1014E60043434343434040C043434343434343434F
:1014F600404040414141C04040434343434343434E
:101506004340404040C04040404040404040404052
:1015160040404040C0FF8080808080808080808006
:1015260080808080E1808080808080808080808054
:10153600808080F380808080808080808080808032
:101546008080E18080808080808080808080808034
:1015560080AAD58080808080808080808080808006
:1015660080E1808080808080808080808080808014
:10157600F38080808080808080808080808080E191
:101586008080808080808080808080808080FF0056
:101596000000F0F03030F0E000F0F030303000C005
:1015A600E07070E0C000F0F03030F0E000F0F000E5
:1015B60000F0F0000000003030F0F0303000E0F0D5
:1015C6003030F0E0000000000000808080800000E5
:1015D60000000000000000C0201008060100000006
:1015E6000000000000009F00000000000000000155
:1015F60006081020C00000000000000000008080E7
:101606008080000000000000000000003F3F071F30
:101616003B31003F3F333330003F3F06063F3F003C
:101626003F3F30303F1F0001033F3F0301000000F2
:101636000000003F3F0000001F3F30303F1F00000A
:101646000080F0FE0F01010FFEF0800020100C025A
:1016560001000000C02010D0D01020C00000000003
:101666003F000000C02010D0D01020C000000001B4
:10167600020C10200080F0FE0F01010FFEF080002A
:101686000000000000000000F8F80000000000E084
:10169600F03838F0E000F8F80000F8F800F8F8F054
:1016A60080F8F800F0F81818383000F8F88080F85C
:1016B600F80000000000003078F8FCFFE7C0C0C06A
:1016C600C0C0C0E7FFFCF878300000F80E03037BCB
:1016D6007B7B037B7B7B03838383838383037B7B8C
:1016E6007B037B7B7B03030EF800003078F8FCFF5E
:1016F600E7C0C0C0C0C0C0E7FFFCF87830000000FB
:1017060000001F1F18181818001F1F03031F1F00B3
:101716000F1F18181F0F001F1F010F1F1F000F1F7D
:1017260018181C0C001F1F01011F1F0000000000DD
:10173600000000000103030707070707070303016B
:1017460000000000003F3E3C3C3C3C3C1C040404C2
:101756000C0D0D0D0D0D0D0C0404041C3C3C3C3C05
:101766003C3E3F0000000000010303070707070790
:101776000703030100000000000000F00808C8E8A5
:101786006868E8C808E8E868686808E8E8080808D3
:1017960008E8E868686808C8E86868E8C808686823
:1017A600E8E868680808F000000000000000000093
:1017B60080F03C06063CF0800000000000000000BF
:1017C6000000000000000000000000000000000013
:1017D6000000000000000000000000000000000003
:1017E6000000000080F03C06063CF080000000008F
:1017F6000000000000FF0000337766667E3C007F35
:101806007F666660007F7F606060007F7F666660DF
:10181600003F7F606070300000007F7F00000000A6
:10182600FF0000000002020002070F0E1C1C1C1C19
:101836000E0F07020000020202020202028040208E
:10184600A2A2224282020200000002020282422278
:10185600A2A02040820202020202000002070F0E2E
:101866001C1C1C1C0E0F07020002020000000030A8
:1018760031F1F1313101E1F13131F1E101010101E2
:1018860001E1F131317161013131F1F1313101E1C2
:10189600F13131F1E101E1F13131706000F0F03008
:1018A60030300000000000000000000000000000D2
:1018B60000000000F01C0607F6F6F707F6F6F70636
:1018C60006060606060606F7F6F607F7F6F607060E
:1018D6001CF00000000000000000000000000000F6
:1018E60000000000000000000000003F3F00000074
:1018F6001F3F30303F1F0000000000193B33333FCD
:101906001E0000003F3F0000003F3F06063F3F002D
:101916001F3F30363E1E003F3F333330000000008D
:1019260000000000000000000000000000007F7CB6
:10193600787878787838080808181B1B1B1B1B1B3F
:10194600180808083878787878787C7F00000000D6
:10195600000000000000000000000000000000F889
:10196600FC1E0F070303030303030303030303031D
:101976000303030303030303030303030303030331
:101986000303030303030303030303030303030321
:101996000303030303030303030303030303030311
:1019A6000303030303030303030303030303030301
:1019B60003030303030303030303030303030303F1
:1019C60003030303030303030303030303030303E1
:1019D60003030303070F1EFCF8FFFF0000000000CF
:1019E60000000000000000000000000000000000F1
:1019F60000000000000000000000000000000000E1
:101A060000000000000000000000000000000000D0
:101A160000000000000000000000000000000000C0
:101A260000000000000000000000000000000000B0
:101A360000000000000000000000000000000000A0
:101A46000000000000000000000000000000000090
:101A560000FFFFFFFF000000000000000000000084
:101A66000000000000000000000000000000000070
:101A76000000000000000000000000000000000060
:101A86000000000000000000000000000000000050
:101A96000000000000000000000000000000000040
:101AA60000000000000000000000000000008000B0
:101AB600008000C0404040800000804080000080E0
:101AC6004040408000C00000804000FFFF1F3F787C
:101AD600F0E0C0C0C0C0C0C0C0C0C0C0C0C0C0C0B0
:101AE600C0C0C0C0C0C0C0C0C0C0C0C0C0C0C0C0F0
:101AF600C0C0C0C0C0C0C0C0C0C0C0C0C0C0C0C0E0
:101B0600C0C0C0C0C0C0C0C0C0C0C0C0C0C0C0C0CF
:101B1600C0C0C0C0C0C0C0C0C0C0C0C0C0C0C0C0BF
:101B2600C0C0C0C0C0C0C2C5C8C2C5C8C0DFD2D24E
:101B3600D2CDC0DFC4C4C4DFC0CFD0D0D0C8C0DFD0
:101B4600C2C5C8D0C0FFFF000000000000005F0053
:101B560000000E000E00247E247E24242A7F2A12F2
:101B6600261608343236495926500000000E003E2B
:101B760041410000000041413E2A1C3E1C2A080843
:101B86003E08080000004030080808080800000069
:101B9600400020100804023E4549513E00427F4065
:101BA60000724949494622494949361814127F109C
:101BB6002F494949313E49494932017109050336E0
:101BC60049494936264949493E0000363600000053
:101BD6002636000018244200001414140000422483
:101BE600180002015109063E415D553E7C12111254
:101BF6007C7F494949363E414141227F4141413E30
:101C06007F494949417F090909013E4149493A7FCE
:101C16000808087F00417F41002040413F017F08BE
:101C26001422417F404040407F027C027F7F020CAD
:101C3600307F3E4141413E7F090909063E415161DF
:101C46007E7F09192946264949493201017F01014A
:101C56003F4040403F1F2040201F3F403E403F4105
:101C6600221C2241010678060161514945437F4104
:101C76004100000204081020000041417F301C078B
:101C86001C3040404040400102040000345454548B
:101C9600787F444444383844444448384444447F74
:101CA6003854545458087E090902185454543C7F39
:101CB6000808087000047D40002040443D007F1065
:101CC600384400007F4000007C047C04787C0404D7
:101CD600047838444444387E1212120C18242464C2
:101CE600587C040404084854545424043F444424AF
:101CF6003C4040403C0C3040300C3C4038403C447A
:101D060028102844004C50503C645454544C083E0F
:101D160041410000007F00000041413E08040202EC
:101D260004020000000000000000000000000000A7
:101D36000000000000FFFF00000000000033330039
:101D4600000000001E1E001E1E0000000000000015
:101D5600000030FEFE3030FEFE30031F1F03031F5F
:101D66001F0378FCCCFFFFCCCC8C0C0C0C3F3F0C3B
:101D76000F070E1F1BDFFE7C1F07303C0F1F3F3671
:101D86003E1C1CBEF7E3F73E9C800F1F39391F0F20
:101D96003F3B000006C6FE7C00000000000000007D
:101DA60000000000FCFE0703000000000F1F383093
:101DB600000000000307FEFC0000000030381F0F83
:101DC6000000CEDEF0FEFEF0DECE1C1E031F1F035B
:101DD6001E1CC0C0C0FCFCC0C0C00000000F0F002D
:101DE60000000000000000000000000000002C1CA5
:101DF600000000C0C0C0C0C0C0000000000000005D
:101E0600000000000000000000000000303000006C
:101E16000000000000C0F03C0F03303C0F03000040
:101E26000000F8FE07030307FEF8071F38303038B6
:101E36001F0700181C0EFFFF0000000030303F3F58
:101E460030300C0E0783C3E77E3C3C3E37333130DF
:101E560030300C0EC7C3C3E7FE3C0C1C383030399B
:101E66001F0F00C0F03C0FFFFF0007070606063FE6
:101E76003F06FFFF636363E3C380183830303038B2
:101E86001F0FFCFEC76363E7C6800F1F383030386C
:101E96001F0F030303C3F37F1F07303C1F07010017
:101EA60000003CFEE7C3C3E7FE3C0F1F3930303964
:101EB6001F0F7CFEC78383C7FEFC183831313138CB
:101EC6001F0F000000303000000000000003030078
:101ED600000000008E8E8E0000000000110F07002B
:101EE600000080C0E070381C0C00000103070E1CC7
:101EF6001800303030303030303003030303030332
:101F06000303000C1C3870E0C08000181C0E070389
:101F160001001C1E0686C6FE7C0000003737010045
:101F26000000FEFF03F3FB1BFFFE1F3F3033373677
:101F36003733F8FC0E07070EFCF83F3F0303030395
:101F46003F3FFFFFC3C3C3E7FE9C3F3F30303038FF
:101F56001F0FFCFE070303070E0C0F1F3830303827
:101F66001C0CFFFF03030307FEFC3F3F30303038F5
:101F76001F0FFFFFC3C3C3C3C3033F3F303030301F
:101F86003030FFFF6363636303033F3F00000000DD
:101F96000000FCFE070383878E8C0F1F383031311B
:101FA6003F1FFFFFC0C0C0C0FFFF3F3F0000000053
:101FB6003F3F000303FFFF0303000030303F3F3085
:101FC600300000000303FFFF03031C3C30303F1FBB
:101FD6000000FFFFF0381C0E07033F3F03070E1CEF
:101FE6003830FFFF0000000000003F3F3030303047
:101FF6003030FEFF3EF8F83EFFFE3F3F003F3F0019
:102006003F3FFFFF3CF0C000FFFF3F3F0000030FD4
:102016003F3FFCFE07030307FEFC0F1F3830303836
:102026001F0FFFFF838383C7FE7C3F3F0101010132
:102036000000FCFE07030307FEFC0F1F38363E1C9C
:102046003F37FFFF838383C7FE7C3F3F03070F1D98
:1020560038303C7EE7C3C3C78E0C0C1C3830303991
:102066001F0F030303FFFF0303030000003F3F00AE
:102076000000FFFF00000000FFFF0F1F3830303860
:102086001F0FFFFF80000080FFFF00030F3C3C0F87
:102096000300FFFF00FFFF00FFFF0F3F3F07073F63
:1020A6003F0F071F3CF0F03C1F07383E0F03030F9E
:1020B6003E380F7FF8C0C0F87F0F0000013F3F0198
:1020C6000000030383E3FB3F0F07383E3F33303006
:1020D60030300000FFFF0303000000003F3F3030B8
:1020E6000000030F3CF0C000000000000000030FDA
:1020F6003C3000000303FFFF0000000030303F3F8C
:10210600000080C0E07070E0C080030100000000A5
:102116000103000000000000000030303030303095
:102126003030000003070E1C1800000000000000FD
:102136000000607030303030F0E01E3F3333333310
:102146003F3FFFFF70303070E0C03F1F38303038FF
:102156001F0FC0E070303070E0C00F1F38303038CD
:102166001C0CC0E070303070FFFF0F1F3830301885
:102176003F3FC0E070303070E0C00F1F3B33333359
:102186003B1B0060FEFF6363030000003F3F00004F
:102196000000E0F030303030F0E0193B3333333BB1
:1021A6001F0FFFFF70303070E0C03F3F000000009F
:1021B6003F3F000060ECEC0000000000003F3F00E5
:1021C600000000000060ECEC0000183830303F1FC3
:1021D6000000FFFFC0E0703818003F3F03070E1CE9
:1021E6003830000000FFFF0000000000001F3F30F5
:1021F6000000F0E070F0E070F0E03F3F003F3F008D
:102206003F3FF0E070303070E0C03F3F000000001C
:102216003F3FC0E070303070E0C00F1F38303038BC
:102226001F0FF0F030303030F0E03F3F0303030380
:102236000301E0F030303030F0F001030303030314
:102246003F3FF0F0E0703070E0C03F3F000000001C
:102256000000E0F0303030307060193B33333333F8
:102266003F1E6060FEFE6060600000001F3F303071
:102276003000F0F000000000F0F00F1F383030188A
:102286003F3F70F0C00000C0F07000030F3C3C0FF1
:102296000300F0F000C0C000F0F00F3F381F1F38F9
:1022A6003F0F60E0C08080C0E06030381D0F0F1D1A
:1022B6003830F0F080000080F0F0183933333339CD
:1022C6001F0F30303030B0F0F070383C3E373331CD
:1022D600303000C0FE3F0303000000001F3F3030D7
:1022E6000000000000FEFE0000000000001F1F00AE
:1022F6000000000003033FFEC000000030303F1F17
:10230600000080C06060C0C06020000000000000C7
:1023160000007EFFC3C3FF7E00C6FFFFC000E6F3DA
:10232600FBDBDFCE66E7C3DBFF763C3E33FFFF30E9
:10233600DFDFDBDBFB737EFFDBDBFB700003E3FB36
:102346003F0F66FFDBDBFF66CEDFDBDBFF7EC0C059
:102356000000FEFF0303FFFE010303030301000663
:10236600FFFF000000030303030086C7E3733F1E5D
:1023760003030303030386873333FFCE01030303FB
:102386000301F0FCCFFFFFC0000000030300BFBF46
:102396003333F3E3010303030301FEFF3333F7E6AD
:1023A6000103030303010383E3FB3F0F0003030061
:1023B6000000CEFF3333FFCE0103030303019EBFAC
:1023C6003333FFFE010303030301FFFF0000000098
:1023D60003030303030300000000000000000000E5
:1023E60000001818181818181818181818FFFF18C9
:1023F6001818FF1F1F1F1FE1E1E1E1FF03020202A0
:1024060002030303030300000000000000000000B5
:1024160000000000000000000000000000000000B6
:1024260000000000000000000000000000000000A6
:102436000000000000000000000000000000000096
:102446000000000000000000000000000000000086
:102456000000000000000000000000000000000076
:102466000000C0C1C1810140C30103C00280C24156
:10247600C60106C00780C7410500C5C1C481044026
:10248600CC010CC00D80CD410F00CFC1CE810E40D6
:102496000A00CAC1CB810B40C90109C00880C841E6
:1024A600D80118C01980D9411B00DBC1DA811A4056
:1024B6001E00DEC1DF811F40DD011DC01C80DC4126
:1024C6001400D4C1D5811540D70117C01680D64156
:1024D600D20112C01380D3411100D1C1D081104066
:1024E600F00130C03180F1413300F3C1F281324056
:1024F6003600F6C1F7813740F50135C03480F44126
:102506003C00FCC1FD813D40FF013FC03E80FE41D5
:10251600FA013AC03B80FB413900F9C1F8813840E5
:102526002800E8C1E9812940EB012BC02A80EA4155
:10253600EE012EC02F80EF412D00EDC1EC812C4025
:10254600E40124C02580E5412700E7C1E681264055
:102556002200E2C1E3812340E10121C02080E04165
:10256600A00160C06180A1416300A3C1A281624055
:102576006600A6C1A7816740A50165C06480A44125
:102586006C00ACC1AD816D40AF016FC06E80AE41D5
:10259600AA016AC06B80AB416900A9C1A8816840E5
:1025A6007800B8C1B9817940BB017BC07A80BA4155
:1025B600BE017EC07F80BF417D00BDC1BC817C4025
:1025C600B40174C07580B5417700B7C1B681764055
:1025D6007200B2C1B3817340B10171C07080B04165
:1025E600500090C191815140930153C05280924155
:1025F600960156C057809741550095C19481544025
:102606009C015CC05D809D415F009FC19E815E40D4
:102616005A009AC19B815B40990159C058809841E4
:10262600880148C0498089414B008BC18A814A4054
:102636004E008EC18F814F408D014DC04C808C4124
:10264600440084C185814540870147C04680864154
:10265600820142C043808341410081C18081404064
:1092430043150A0000004E05140000000000000052
:109253000000000000000042041A000042019500D3
:10926300004204C500A04215A10000411435FE557B
:109273001441000000000000000000000000000096
:10928300000000000000004204CA000042019300F5
:10929300004214330000420492000041000E0041DA
:1092A30015B4004204C800004100340047141D00F7
:1092B30000000000000043141A00000041000003F6
:1092C30041069C0041069D00411593144104C700CB
:1092D3004106BA01440170FFFFFFFF44018FFFFF06
:1092E300FFFF420135FFFF420137FFFF4D0001FF42
:1092F30000A60103B0000000000114704D000FFF31
:1093030000B40103B0000000000114704D06ADFF6E
:1093130000C10103B0000000000114704D15B5FF3A
:1093230000D001140D000000000114704B143653DB
:10933300657373696F6E202323004D146301143624
:109343000104B8000000000103CA4D04B80114363B
:109353000115B500000000FF04294D069EFF010F13
:109363000103B000000000FF04454D0174FF012E0E
:109373000103B000000000FF04614D03BDFF016164
:109383000103B000000000FF04764D1594FF01486F
:109393000103BD00000000FF04924D040DFF0154C2
:1093A3000103BD00000000FF04BC4D03B0FF0257E2
:1093B30001140D00000000FF04D84D1456FF02CA2B
:1093C30001140D00000000FF052C4D0163FF02FA9C
:1093D30001140D00000000FF0579602A013901FF27
:1093E300030601145606FF0312FF000301FF0320C7
:1093F3000103B006FF0330FF7EBE01FF033F0101FF
:1094030063000000000000004D140DFF034E011423
:109413000D0000000001013955001E06FF0358002E
:10942300000001FF035C00000000000000000000DA
:109433005515C207FF0358FFAA1107FF035CFFD7A7
:10944300AD000000000000004D15A3FF035F000006
:10945300000000000001001E4D1424FF036E0000F5
:1094630000000000000115C2470197010000000140
:1094730014244D0182000000000000000000FF01E1
:0294830001974F
:10C28E00900418E493FF3395E0FE9004A075F0122D
:10C29E00EF1241B8EE75F012A42583F5830241E644
:10C2AE007E00123D039017F9E475F001023E73E42F
:10C2BE00FFFEFDFC12415FD30240CC12414374FFDE
:10C2CE00FBFAF9F8023F869004987B007A00790019
:10C2DE000241EF9017F9E0FEA3E0FFC3229004188D
:10C2EE00E493FD3395E0FC9004A075F012ED12413D
:10C2FE00B8EC22E49017F9F0A3F0227B01E4F540AC
:10C30E0075412D22900007123DB4755800755901E4
:10C31E00229004980241E625E02414F582E43405C7
:10C32E00F58322749E2FF58274013EF583227C00E4
:10C33E007D64AE02023DE87B017A01799E755F0055
:01C34E0022CC
:105C4900E49017F8F090181404F075840F75FFDECE
:105C590075FFAD12D46812CD8DE49004A7F09004BD
:105C690095F0900494F09004A604F0E49004A8F050
:105C7900A3F0900496F0A3F09004B1F090049FF083
:105C89009004B0744EF090049EF09004AD12C2D806
:105C99009004AA1241EF90049B1241EF90049812CC
:105CA90041EF0B7A0679BB9004A31241EF7A0A7986
:105CB900F59004B51241EF7A0F79CF9004A0124103
:105CC900EF7A1179EC9004B21241EF7A04799412C7
:105CD90061E17B017A0479A61261E17F007E961267
:105CE900DBDC12DE2E752801752914752A097B0162
:105CF9007A14793112BE8512ABB7126769D2AF1225
:105D0900C1CCD2FEE4FF12CE9730D821755E007562
:105D19005F0F7560FF75610575629575632D7B7100
:105D29007A007D097C007F037E00128A4C30D820DE
:105D39009017E7124187000AFC809017E712C2BD4D
:105D4900400E9017E712C2C99017E712417B80EA0B
:105D590012C30112C28EE412C3127B911261C69062
:105D6900069CE0701412C2B3C39017FAE094039032
:105D790017F9E06480948040DA90069CE06008128C
:105D8900C3187B701261C6901576E0FFA3E09017E7
:105D9900FBCFF0A3EFF0901578E0FFA3E09017FD9B
:105DA900CFF0A3EFF0E4FF12CE9790069CE0FF122C
:105DB9008D05EF703A7BFF7A03797E1261F87BFFDC
:0F5DC9007A03798AE4F55375542D7F0212BDA138
:105DD8009017EB124187002255109017EB12C2BDA5
:105DE800400E9017EB12C2C99017EB12417B80EA64
:105DF800E4FF12CE977BFF7A037995E41261F87578
:105E080064FF7565037566A2756700756802756934
:105E180000756A15756B00756C081261D112C30B99
:105E28007F0212BBD590069CE0602F7564FF7565F4
:105E3800037566BA9017FBE0FAA3E0FBFF12C33CB8
:105E48008E678F68AF0312C33C8C698D6AA3E0F537
:105E58006BA3E0F56C1261D180067BFF7A0379D2DF
:0B5E680012C30B7F0312BBD530D825FE
:105E73009017EF12418700112A88E4FFFEFDFC9082
:105E830017EF12C2C2400E9017EF12C2C99017EF5C
:055E930012417B80E5D7
:105E9800E4FF12CE977BFF7A0379E712C30BFF1258
:105EA800BBD57A15790D12C3097F0212BBD57A15B5
:105EB800792112C3097F0312BBD512C3457560034C
:105EC8007F107E0212CAB790069CE0607012C28EE4
:105ED800900007E4123DB412C298900008740312AF
:105EE8003DB412C30112C2E19410EE648094825052
:105EF8002512C331E0FF12C2EB12C2A39017FAE0D9
:105F08002409FD9017F9E034008D82F583EF123DE6
:105F1800B412C2B380CF7558027559127B981261BA
:105F2800ED90157DE030E4047F0080027F0112C20D
:105F3800EB12C2A3EF12C3127B941261ED12C301DC
:105F480012C2E19404EE6480948050287C007D287D
:105F5800123DD6749E2FF974013EFA7B01C001747C
:105F68002F2FF9740F3EA801FC7D01D0017F281264
:105F7800C2AE80CC12C30112C2E19402EE648094D6
:105F88008050287C007D24123DD674CE2FF97402EF
:105F98003EFA7B01C00174CC2FF974043EA801FCC1
:0E5FA8007D01D0017F2412C2AE80CC30D825FE
:105FB6009017F3124187000BAC48E4FFFEFDFC90FE
:105FC60017F312C2C240109017F312C2C99017F30A
:055FD60012417B80E593
:105FDB00C2FEE4FF12CE97752801752904752A922B
:105FEB007B017A14793312B63312C3457560017F86
:105FFB00107E0212CAB79001A1E0540F24FC600C72
:10600B00240270109015937414F0800E90159374F5
:10601B0028F08006901593740AF09001A2E090048A
:10602B00C7F0901409E0FCA3E0FD7F017E0012D0C5
:10603B00F79004C7E030E7034403F012C30112C228
:10604B00E19410EE64809482500D12C331E4F09011
:10605B0017F912C2B780E7E4901435F07D03FF12F5
:02606B006202CF
:10606D0090157DE030E4047F0080027F01EF702009
:10607D00C3900521E094F0900520E0940040077D49
:10608D00067F0112620230DE07E4900520F0A3F0D6
:10609D00E49017F7F09017F7E0FFC39406504374A0
:1060AD00017E00A807088005C333CE33CED8F9FF93
:1060BD00ADD8EF5D60249017F7E0FD12C325E0FE2B
:1060CD00A3E0C39409EE940040057F011262029093
:1060DD0017F7E012C325E4F0A3F09017F7E004F0F2
:0A60ED0080B312C31FE94A4B60178D
:1060F70012C31F8B228A23892412C2D5AB22AA235B
:07610700A924E4FF12266643
:0B610E009004AA1241E6E94A4B60230E
:106119009004AA1241E68B228A2389247B007A0003
:1061290079009004AA1241EFAB22AA23A9247F0186
:03613900122666C5
:10613C009015A1E07002A3E0700302606DE490156D
:10614C00A1F0A3F090069DE0FFB4F018901435F088
:10615C00E4901433F0A3F090000E74FFF0FB7A037C
:10616C0079FC801290069DE0FFB4F115901435F087
:10617C007BFF7A04790412DD5AE490069DF00260EC
:10618C006D90069DE0FF64F2600302606D90143523
:10619C00EFF07BFF7A04790C12DD5A901432E02474
:1061AC00FBFD901431E034FFFC7B01E4FFFE12CBCD
:0761BC00E6E4F58443EF0166
:0361C30002606D0A
:1061C6007D027F0312B32912DADB227B017A17796B
:1061D600FF126D127B017A1779FF227F007E847D84
:1061E600037C0012991A227D027F0312B32912DA68
:0C61F600DB22F55375542DFF12BDA122D1
:0EDADB0090150BE070FA12C31FE94A4B601D54
:10DAE90012C31F9018151241EF90069C7401F01291
:0DDAF900C2D59018151241E6E4FF12266612
:01DB060022FC
:0300000002CC77B8
:0CCC7700787FE4F6D8FD75818002CCBE09
:10B532002530326420004C49535420454D50545913
:10B54200002A004E6F205355004E6F20496E7075D1
:10B55200747300472D466F7263657300496E707590
:10B562007473004D656D2046756C6C002530326435
:10B57200004D454D2025644B2F25644B2C2025641E
:10B582002525004C4150532025642C20524154451E
:10B59200203130487A004C4150532025642C2052EF
:10B5A200415445203230487A004C415053202564A2
:10B5B2002C2052415445203430487A0054656D7035
:10B5C2002025332E32662046005265632054696D71
:10B5D200653A2025322E3166204872730053657316
:10B5E2007320417661696C3A20256400492F4F3AF5
:10B5F20020412D2D2D2D20442D2D20462D2D005066
:10B602006F7765723A2025752525004E6F204C61B3
:10B61200707300436F6E7420256400474D542025DB
:10B622002B303264004C6170486F6C6420253364A7
:01B632000017
:03948500011C01C6
:10561A00900418E493FF3395E0FE9004A075F0120D
:10562A00EF1241B8EE75F012A42583F58322E0FE4D
:10563A00A3E0FF90147075F0071241B8EE75F007F9
:10564A00A42583F583E4F0FBFAF990147475F00746
:10565A00EF1241B8EE75F007A42583F5831241EFE6
:10566A0090147175F007EF1241B8EE75F007A42592
:10567A0083F58322901CB31241E6900008123D4242
:10568A0075F007A4FFAEF090000A124218900004C9
:10569A00E92FF9EA3EFA024218E0FEA3E0FF900180
:1056AA00B275F0191241B8EE75F019A42583F58385
:1056BA00E0FCA3E0FD9001B075F019EF1241B8EEDD
:1056CA0075F019A42583F583E022901CB30241E604
:1056DA007BFF90144A1241EF7B007A0079002290F6
:1056EA00185CE475F001023E737B017A01799E90A1
:1056FA00041CE01313543FFF7E00901432E024FC94
:10570A00FD901431E034FF22755E00755F08756004
:10571A00FF75610A7562C175632D7B7A7A00E4FDB3
:10572A00FCFFFE22FF900418E493FD3395E0FC9001
:10573A0004A075F012ED1241B8EC22E0FCA3E0FDE2
:10574A00C4F8540FC868FFECC454F048FE74312FF3
:10575A00F58274053EF583E4F090147075F007ED58
:10576A001241B8EC22900009123D42FF901852E013
:10577A002FFFE433FE7C007D07123DD690000A120B
:10578A004218E92FF9EA3EFA2290041CE075F00C5F
:10579A0090019E1241B812414390044112417B90FC
:1057AA00041CE075F00C9001A21241B8124143901A
:1057BA00044512417B90041CE075F00C22C4F85495
:1057CA000FC868FFE0C454F048FE74222FF974052C
:1057DA003EFA7B0122E4901435F07B017A01799E2E
:1057EA002235F0754B01F54C894D754E00754F10F9
:1057FA00227B017A147956901CB91241EF7A1C79EE
:10580A00B6901CB30241EFFF90041CE0540375F0FC
:10581A008490019E1241B8E5822FF582E5833EF518
:10582A00832290185CE0FEA3E0FFC32290144D127D
:10583A0041EF9014471241EF90144A0241EF7B0165
:10584A00755F007560017F107E022214FF900008C8
:10585A00023D427564FF7565B675661D90155DE07B
:10586A00FF3395E0F5678F687B01221241E6740ADF
:10587A002547F582E433F5832290157AE0F5FBE0BB
:10588A00F5FC8F847564FF7565B6756615E024A00E
:10589A00F568E434FFF5677B0122FFE433FE9000EC
:1058AA0006023D4290042112414390041D12415FB9
:1058BA00C30240CC7564FF7565B675662790157C82
:1058CA00E0756700F5687B0122900009023D4212EB
:1058DA0042CBA81E081241DDA81E080241C47BFF64
:1058EA009014440241EF9014661241EF7A0379CA88
:1058FA0090146D1241EFE490146CF090146BF090D8
:10590A00146AF0901469F022EFF024FEFFE434FFE9
:10591A00FE9004B80241E6C39DFFEE9CCF2401CF5E
:10592A003400FEE0FCA3E0FD90019E75F0190241EF
:10593A00B87BFFE0FCA3E0FD90147475F0071241F8
:10594A00B8EC2275F0161241B8E0FFA3E02275F018
:10595A0028A42447F582E4340FF583E024FB22FAD5
:10596A00A3E0FB9001A0ED75F0190241B8E4F55FE0
:10597A00F5607F107E02227BFF9014470241EF9070
:10598A00041CE0540375F08490021E0241B890187A
:10599A005AE0FEA3E02290041CE09001AE75F01CD0
:1059AA000241B87B017A15790D7D807C002224D3CF
:1059BA00F58274153EF58312414390041D02417B22
:1059CA0075F012A42422F9740535F0FA7B0122CD70
:1059DA002FF562EE3DF5617D107C027F0222E49094
:1059EA00185CF0A3F02290000EE0FF901433E0FC64
:1059FA00A3E0FD900492E0FAA3E0FB22755F007534
:105A0A0060027F107E022275580075590A7B917DCB
:105A1A00027F0322EF900008023DB4FCA3E0C39B7F
:105A2A00FDEC9ACD2401CD3400CD2FFFED3E22901E
:105A3A001A6CE0FF75F007A42470F582E43414F5BB
:105A4A008322EF75F007A42474F582E43414F583F5
:105A5A001241EFEF22CD2FF560EE3DF55F7F107E0C
:105A6A00022290144D0241EFE49017E7F0A3F022CE
:105A7A001241E6E4900007023DB490047EE4F0A3EC
:105A8A00F0A3F0A3F0221241E6EF900009023DB420
:105A9A00FF1241B8E4F0A3F02290185AE075F0041E
:105AAA009015D70241B890000A02421890000302EA
:105ABA00421824D7F58274153EF5832212386A906B
:105ACA0017ED02417B74FF900008023D6F755F007D
:105ADA007560047F107E022275F007A42471F58296
:105AEA00E43414F58322E4900473F0A3F090045E86
:105AFA00F0A3F0227BFF7AB5795575552D7D24E404
:105B0A00FF2212414374FFFBFAF9F8C30240E21282
:105B1A0041438F6A8E698D688C677B01227BFF7A8D
:105B2A001579957D2D2275F0190241B81241E6E9E1
:105B3A004A4B221242CBA81E080241DD901435F0CE
:105B4A0090185F740222E0C4F8540FC868FF227EDE
:105B5A0000123D0390185FE004F0229001A0E07566
:105B6A00F01622E4901435F07B0122745F2FF5823F
:105B7A0074183EF583E0221241EF1B7A00790090F7
:105B8A0003CE2275F019A42583F5830241431241FD
:105B9A00E6740A2554221241E6740A254C22E0755D
:105BAA00F01CA4249EF9740122E0FEA3E0FF7C000D
:105BBA00023DD67403F07C007D15023DD6E4FBFA63
:105BCA007920784102386A900008123DB49004C7DF
:105BDA00E022F557A3E0F5582275F007A4F582856F
:105BEA00F08322900007023D42901852E0FF90187D
:105BFA0057E022E4900479F0900464F022124143C1
:105C0A0090042102417B90185E7401F0227B017A94
:105C1A000379B022E4F0FBFAF9A30241EF901435BC
:105C2A007418F022900482E4F0A322900482E0FE29
:0F5C3A00A3E0780222AF84E4F58490157AE0228B
:10B103007B017A18795B12597712CAB7E4901A6CEB
:10B11300F0901A6BF0901A6BE0FFC3941540030292
:10B12300B1DF75F019EF90185B1241B8E0FEA3E0B0
:10B13300F47002EEF4700302B1D6901A6BE090182B
:10B143005D125971E0FEA3E0F47002EEF4700302A5
:10B15300B1D6901A6CE01259CA7564FF7565B5755E
:10B163006632901A6BE02401FFE433F5678F6812AF
:10B173006D12901A6BE090185F125B30124143C05E
:10B1830006C007901A6BE0901863125B30E0125B05
:10B19300DCE4F559901A6CE075F012A42425F974D7
:10B1A3000535F0755A01F55B895CD007D00612A20C
:10B1B300E0125A397406F07BFF7AC1790A125A4CAD
:10B1C3001259CA901A6CE0125AE21241EF901A6CAB
:10B1D300E004F0901A6BE004F002B118901A6CE0EE
:10B1E300FD9015BBF0D394035003E480069015BB88
:10B1F300E024FD9015BEF09015BBE070028002EDD7
:10B20300149015BDF09015BCF0125A39E4F0FBFA16
:0AB21300F9125A4C125AE20241EF00
:10620200151EA81EA605151EA81EA607E51E24F922
:02621200F51E77
:10621400E51C60307B017A14790D12580B1B7A004F
:106224007900901CB61241EF901CB91241EFE49032
:106234001CBEF0901CBDF0901CBCF0901CC0124120
:10624400EFE4F51CE51E2407F8E614700302636608
:106254000460030267621256D41258A87033900087
:1062640006123DB41256D4125AB0C003C002C00183
:106274001256D41258A8125BE3D001D002D00312F4
:106284003D42600D1256D49000067401123D6F8099
:10629400D312DE1C1256D41258D3B4FF0302642B5B
:1062A400E4FF12CE97125712128A4C1256D412419E
:1062B400F812DDE2C374149FFFE49EFE7C007D06A9
:1062C400123DD67D02123E3DA81EEFF6FD1256D4B5
:1062D4001241F875552DE4FF12C0411256D4125ADA
:1062E400B0123D29FFB403101256D4E4125A94E4B8
:1062F400125A1F900007804BEF640260030264C3CC
:106304001256D41258D3FF125BEDFEC39F4013EF15
:106314002402FDE433FCEED39DEC6480F874809891
:10632400403D1256D4125BED125A1F1258A8FFD3E7
:10633400940340091256D4125857FE70091256D4C9
:10634400900009E48016EF24FDFFEE14FEC39F5075
:1063540004AF0680001256D4900009EF123DB40237
:1063640064C3E51E2408F8E6700302676014700332
:1063740002651324FE70030264C914607224FE7063
:10638400030266D324046003026762901447125B1D
:1063940036600F1256D4C003C002C00190144702E5
:1063A40064071256D41258D3F47011125857D39468
:1063B400005003026762125ACF02642B1256D412A1
:1063C40058A87003026762125857FF1258D3FEC3CD
:1063D4009F50051256D48011EED39400400E1256ED
:1063E400D490000974FF123D6F125ACF0264C39017
:1063F400144D125B3660121256D4C003C002C001A1
:1064040090144D1241E602660D1256D41258D3F47C
:1064140070301258A8125855D39F40030267621275
:1064240056D47401125AD112585775F007A4FFAE0E
:10643400F0125AB090000112569A7D2D12C408022F
:1064440067621256D41258A8FF700302676212588A
:10645400D3FE125857FDC39EC394025039EF24FF54
:10646400FFE434FFFEED2401FDE433FCC3ED9FEEB5
:106474006480F8EC648098901CB3500A1241E612D0
:10648400585704FF80081241E61258A814FF125608
:10649400D4125A1E80291256D41258D324031258E7
:1064A400A4FDC3EF9D7480F86E9850131256D490D7
:1064B40000097401123D6F9000087401123D6F12BF
:1064C400A86502676290144A125B36602F1256D494
:1064D400C003C002C00190144A1241E689828A8333
:1064E400D001D002D0031258D9E94A4B7003026795
:1064F400621258E212580B7D030266891256D412B6
:106504005AB612580BE4901435F07D03026651908C
:106514001444125B36602F1256D4C003C002C0016B
:106524009014441241E689828A83D001D002D003B8
:106534001258D9E94A4B70030267621258E21258A2
:106544000B7D010266891256D4125AB0E94A4B7087
:10655400030267621256D4125AB0C003C002C001CB
:106564001256D4125857FF125BE3D001D002D00365
:10657400123D4224FE602D24FE700302668D24FE2B
:10658400700302665514605314700302661D2407D9
:1065940060030267621256D4EF12568A12580B7DBA
:1065A400010266891256D4125857125A7EE4901486
:1065B40035F0125684E94A4B601C1256D4C003C00D
:1065C40002C0011256D412569189828A83D001D016
:1065D40002D003125B3D7D010266891256D4125B20
:1065E40040901CB91241EF7B011258071258E21275
:1065F4005684E94A4B70030267621258E2C003C032
:1066040002C0011258E212569189828A83D001D0C5
:1066140002D0031242CB0267621256D4125AB61247
:10662400580B125684E94A4B601C1256E2C003C050
:1066340002C0011256D412569189828A83D001D0A5
:1066440002D0031242CBE4901435F07D01FF0266C0
:10665400CD12567EE94A4B601C1256D4C003C002C8
:10666400C0011256D412569189828A83D001D00275
:10667400D003125B3D1258E2E94A4B60061258E21D
:1066840012580B7D017F0080401256D49015A6123B
:1066940041EF12567EC003C002C0019015AD1241F5
:1066A400E69000041242481256D4C003C002C0014E
:1066B4009015AD1241E690000B1242487B017A1509
:0F66C40079A312580B7D017F00126202026762F8
:1066D300C2FDC2FE7BFF7A1179237D2D12C408907F
:1066E3001435E0FFC39405400CEFD3941F500612FA
:1066F30059F012BCBB901435E0FF6405600EEF64E3
:106703001E6009EF641B6004EFB41C0612DD141253
:0F671300C4BF12DD38E51E2404F8EFF630E7F3BB
:10672200E4F558F5597B937D027F0312B329E51EE8
:106732002405F8E4F608F6E51E2405F8E6FE08E668
:10674200FFE4FCFD7B407A9CF9F8D31240CC40D0A8
:0E675200E51E2405F80806E61870DC0680D95E
:02676000B2FE87
:07676200E51E2409F51E22CB
:10A865001256D41258A87034F55E755F087560FFEE
:10A8750075610675627775632D7B7AFA7D10FCFF2D
:10A88500FE128A4C7BFF7AB5793812AA03FD7BFF4D
:0CA895007AB5793875555E7F0202C0412B
:10A8A1009018527401F01256D41258A8FF7403C3C1
:10A8B1009F50047F038000901852E0FED39F400315
:10A8C10002AA021258D3FDEE2D12577B90FFF91206
:10A8D1003D426403601A1256D41258D3FF901852A5
:10A8E100E02F125855B50708901853747EF0800672
:10A8F100901853742DF07BFF7A0679F19018541259
:10A9010041EF1256D41258A8FFB401087BFF7A090F
:10A9110079CD804E901852E0FE24FE601D14601F18
:10A92100240270441256D41258D37BFF70067A0861
:10A9310079D980047A0779E58028EF6402702912B9
:10A9410056D41258D3FDEE2D1258A47C00B5070C35
:10A95100ECB506087BFF7A09795380067BFF7A08FC
:10A96100795F9018541241EF901852E075F008A4E5
:10A97100FDACF0755E00755F089018541241E68BCE
:10A98100608A618962901853E0F5637B7A7A00E40A
:10A99100FFFE128A4C1256D412576F90FFFA1242E0
:10A9A1001812AA03901857F01256D41258D3FF90D8
:10A9B1001852E0FE2F14FD125BED6D70251256D476
:10A9C100EFFDEE2D12577B90FFF9123D42B40212BA
:10A9D100125BF324F4FD7BFF7AB5794375555E1262
:10A9E100C0411256D412576F90FFFA124218125BEF
:10A9F100F3FD75555E12C041901852E004F002A8B3
:01AA0100A7AD
:0FAA02002212DDE2EF75F006A4FFC3747A9F22E3
:064E23008B448A4589461C
:104E2900E490185EF090069CE0700C7BFF7AB579EF
:074E39004512DD5A0254EF9F
:104E4000AB44AA45A946125857F5471257E4755F77
:104E5000007560037F107E0212CAB7E490185FF0FD
:104E600090185FE0FFC394045028EF75F028A4FF6A
:104E7000AEF0249EF974013EFA7B01C001742F2F1D
:104E8000F9740F3EA801FC7D01D0017F28125B5907
:104E900080CEE490185FF090185FE0FFC39402505A
:104EA00028EF75F024A4FFAEF024CEF974023EFA88
:104EB0007B01C00174CC2FF974043EA801FC7D0174
:104EC000D0017F24125B5980CE12561A125A7A12E0
:104ED00056241241E69000087403123DB41259E8BA
:104EE00012582C9410EE9402502E749E2FF582745A
:104EF000013EF583E012572E12562F1241E690180C
:104F00005DE02409FD90185CE034008D82F583EFAC
:104F1000123DB41256E980C87558027559127B9833
:104F20007D027F0312B32990150BE070FA1257E44B
:104F300012584A12CAB790019FE090041CF09001E9
:104F4000A1E0540F90185FF09001A0E0900273125E
:104F5000594D90048CCFF0A3EFF09001A0E09002A7
:104F60007512594D90048ECFF0A3EFF0125B65904F
:104F70000277125950900490CFF0A3EFF09001A265
:104F8000E09004C7F09006BA7401F0FB7A017963EF
:104F9000E5448545838546826401700A74636582B1
:104FA0007004740165837006740A2547F547E54768
:104FB0001242A14FDE004FDE015340024FDE035389
:104FC000F20453F905540106547B0754A60854AE65
:104FD0000954C10A54CD0B54D90C000054EFE547D5
:104FE000B401089003AF7401F08005E49003AFF0C2
:104FF00012560E125A849004651241870000000078
:105000009004501241870000000090046B12418709
:105010000000000090045612418700000000900438
:105020006F1241870000000090045A12418700006F
:105030000000125AF0900482F0A3F0900460124134
:1050400087000000009004751241870000000012E4
:105050005BFD9004841241870000000090048812D8
:1050600041870000000090157DE054E0FFC4135418
:105070000724FC601614601F14602824047030900C
:1050800004091241873F000000802E90040912415C
:105090008740000000802290040912418740A00050
:1050A00000801690040912418741200000800A9078
:1050B00004091241873F80000090157DE0540EC323
:1050C0001324FE600F240270179006ABE4F0A37463
:1050D00032F080159006AB7403F0A37420F08009C1
:1050E0009006ABE4F0A374FAF01259E812582C942D
:1050F00084EE94005019EF7802C333CE33CED8F942
:10510000125ABC124187FFFFFFFF1256E980DD12E1
:1051100057E4125A0612CAB71259A012414390041A
:105120002C12417B90041CE09001B21259A712414D
:105130004390043012417B90041CE075F01C9001F8
:10514000B812595090047ACFF0A3EFF090041CE00D
:1051500075F0101259CDC003C001125BA835F08B59
:105160004B1257F0D001D00312D51390041CE075F8
:10517000F0109005311241B8E4F0E5476403701C6B
:105180001257E4F55F125ADA12CAB7125793900118
:10519000A812595090047CCFF0A3EFF01256F312EE
:1051A0005A5F12CAB774FFFFFEFDFC90042C125820
:1051B000B7600F90042C124143EC4D4E4F60030238
:1051C00052587ADD797B1258E8E547901435B403DC
:1051D000057409F08003740AF01259E890185CE035
:1051E000FAA3E0FBAE027802C333CE33CED8F91275
:1051F000581112418700000000EBAE027803C33360
:10520000CE33CED8F9FBAA062439F58274003AF5DC
:10521000831241870000000074352BF58274003A38
:10522000F583124187000000001256E990185CE0F7
:105230007004A3E0642070A4125989124187FFFF13
:10524000FFFF900421124187FFFFFFFF1256F31268
:1052500059D912CD030254BC9003AFE0B4014D12F2
:1052600059E812582C9420EE94005033EF7803C381
:1052700033CE33CED8F9FBAA062435F58274003A32
:10528000F5831241870000000074392BF582740009
:105290003AF583124187000000001256E980C3905E
:1052A0000421124187FFFFFFFF0253251259E890A6
:1052B000185CE0FAA3E0FBC39420EA94005060EB92
:1052C000AE027803C333CE33CED8F92439F58274D5
:1052D000003EF58312418700000000EBAE02780229
:1052E000C333CE33CED8F9125811124143C004C093
:1052F00005C006C00790185CE0FEA3E07803C33346
:10530000CE33CED8F92435F58274003EF583D0072C
:10531000D006D005D00412417B1256E90252AF12DA
:105320005989125C077AD879721258E8E5479014C7
:1053300035B403067419F00254BC741FF00254BC57
:1053400012560E9003AF7401F0125A849004651245
:1053500041870000000090045012418700000000C7
:1053600090046B12418700000000900456124187A0
:105370000000000090046F124187000000009004BC
:105380005A12418700000000125AF0A31241870010
:1053900000000090047512418700000000125BFDC0
:1053A0001259E912582C9484EE94005019EF7802A7
:1053B000C333CE33CED8F9125ABC124187FFFFFF58
:1053C000FF1256E980DD1257E4125AD712CAB712FB
:1053D00057939001A812595090047CCFF0A3EFF09E
:1053E0007BFF7AC679DB1258EA9014357420F002FC
:1053F00054BC12560574068005901435740EF08066
:015400005556
:1054010090185B7402F090185BE0FFC39407501E84
:105411009004C7E0FEA807088002C313D8FC54011A
:1054210090185AF0700890185BE004F080D890183A
:105431005AE06035A3E0FFB40608901435740EF00D
:105441008013EFB405089014357414F08007EF242D
:105451000E901435F0125C107A00791E1259817A7F
:10546100C57975125A6C0254EF7BFF7AB5794B12EC
:0A547100DD5A90143574E30254E98B
:10547B009014357416F0125C107A00791E12598153
:10548B007AC57975125A6CE4FF12CE971257121225
:10549B008A4C125AFE12C0410254EF125605740D7B
:1054AB00F0800EE4FF12CE971257121255EE740FC6
:1054BB00F0125C10802EE4FF12CE977422125B4622
:1054CB00801CE4FF12CE977421125B468010E4FF20
:1054DB0012CE971257121255EE7423125B49F0E459
:0454EB0090185EF0C7
:1054EF0090185EE06042E49004CAF0A3F09001933C
:1054FF00F0A3F09006BA04F090001C04F0A3740F10
:10550F00F0754B01754C04754D927B017A1479330C
:10551F0012878790000EEFF0700E7BFF7AB57965DA
:10552F0012DD5AE4901435F0901435E0FF70030249
:02553F0055E62F
:1055410012572F12562F1241E6EF125A7E90185F12
:10555100E0FF12573912562F1241E6125A1E9004DB
:10556100C7E0FF12573912562F125A90E4F547E55A
:1055710047125958600E24FB701412561A125875AE
:105581007403801212561A1258757402800812564A
:105591001A1258757404123DB40547E54764047046
:1055A100CE125B659002731241B8E0A3E0540F1272
:1055B100572E12562F1241E690000EEF123DB412F3
:1055C1005B659002751241B8E0FEA3E0FF12573906
:1055D10012562F1241E690000FEE8FF0123F591232
:0555E1005A1112B3296C
:0755E6007AB979121256DABE
:1055ED0022128A4C7BFF7AB5795E75552D7D2AE4A2
:1055FD00FF12C04190143522E4FF12CE979014355E
:0D560D00227BFF7A0B796B7D2D12C40822E1
:10DA51008B448A458946E4901435F0FFFE12D6D9ED
:10DA6100901432E024FB12570AFC7B017F057E00F3
:0FDA710012CBE6126769E4FF12CE97125C172200
:10DC06008B448A458946E4901435F0901432E0241A
:10DC1600FF12570AFC7B01E4FFFE12CBE61267698E
:09DC2600E4FF12CE97125C1722F4
:10DDB1008B448A458946E4901435F07F0112712520
:09DDC100E4FF12CE97125C172258
:06D29B008B478A48894917
:10D2A1007A1A796E12584812CAB7900008E0901A9B
:10D2B1006EF0900016E0901A6FF09006B4E0901AAC
:10D2C10070F0A3E054F0F0901593E024D8600D24A1
:10D2D100147010901A71E02402F08007901A71E026
:10D2E1002404F07B017A1A796E756100756201126E
:0DD2F10059E17E0012CD03AB47AA48A949C0
:01D2FE00220D
:10DA21008B448A45894612585724FE600B047010B6
:10DA31009015937414F0800E9015937428F080065D
:10DA4100901593740AF012D29BAB44AA45A94622C1
:06BF67008B448A45894667
:10BF6D00125B6D7A18795AF55F12584D12CAB79057
:10BF7D00185AE0900008F090185CE09006B4F0902C
:10BF8D00185BE0900016F0E4901A6CF0A3F0901A94
:10BF9D006AF0A3F0901A6A12582F940CEE648094F4
:10BFAD0080400302C032EF125B51EEC454F048FEE4
:10BFBD00125B75F46066125B756061901A6DE090AE
:10BFCD001A6C1257C7C003C001901A6B125B5090C8
:10BFDD001A6AE0C454F048FE745F2FF974183E8B52
:10BFED004B1257F0D001D00312D513901A6C125783
:10BFFD00451256757402F07AD2799B901A6C1259CB
:10C00D003B1256751241EF1257D4901471125766A8
:10C01D001256751241EF901A6C1256EC901A6A1264
:10C02D0056EC02BFA1901A6C1256381241EF0B7AE2
:03C03D0000790186
:01C0400022DD
:06BAEC008B448A458946E7
:10BAF200125B6D7A18795AF55F12584D12CAB790D7
:10BB0200185AE0900008F090185CE09006B4F090AB
:10BB1200185BE0900016F0E4901A6CF0A3F0901A13
:10BB22006AF0A3F0901A6A12582F940CEE64809473
:10BB320080400302BBC690191F75F016EF1241B880
:10BB4200EE75F0161256CDF46071901A6AA3E09069
:10BB5200191F75F0161241B8EE75F0161256CD6027
:10BB62005A901A6DE0901A6C1257C7C003C0019028
:10BB72001A6A7D16125BB3741F2FF974193E8B4B30
:10BB82001257F0D001D00312D513901A6C125745F8
:10BB92001256757402F07AD2799B901A6C12593B44
:10BBA2001256751241EF1257D49014711257661241
:10BBB20056751241EF901A6C1256EC901A6A125690
:10BBC200EC02BB26901A6C1256381241EF0B7A0621
:02BBD20079AD4B
:01BBD400224E
:06B72B008B448A458946AB
:10B73100125B6D7A18795AF55F12584D12CAB7909B
:10B74100185AE0900008F090185CE09006B4F09070
:10B75100185BE0900016F07B017A18795A125A06AC
:10B7610012CAB7E4901A6CF0A3F0901A6AF0A3F031
:10B77100901A6A12582F9410EE648094804003024C
:10B78100B81290185A75F01CEF1241B8EE75F01C02
:10B791001256CDF46072901A6AA3E090185A1259A9
:10B7A100A7EE75F01C1256CD605E901A6D125B50BB
:10B7B100901A6C1257CEC003C001901A6A7D1C12F8
:10B7C1005BB3745A2FF974183E8B4B1257F0D001AA
:10B7D100D00312D513901A6C125745125675740284
:10B7E100F07BFF7AD2799B901A6C12593D125675F3
:10B7F1001241EF1257D490147112576612567512F6
:10B8010041EF901A6C1256EC901A6A1256EC02B77C
:0FB8110071901A6C1256381241EF0B7A00790FB2
:01B820002205
:06D235008B448A45894686
:10D23B007A18795A12584812CAB790185AE09000C7
:10D24B0008F090185CE09006B4F090185BE090004A
:10D25B0016F090185DE0540F24FC60112402701A34
:10D26B009015937414F09006A67401801790159383
:10D27B007428F09006A67402800A901593740AF035
:0FD28B00E49006A6F09006A5F07B017A06799E46
:01D29A002271
:10DC58008B448A45894612585790157D7006E044D2
:10DC680001F08004E054FEF012DA801259AD12D0AF
:08DC780088AB44AA45A946222D
:10DCCC008B448A45894690157DE030E006E490014E
:10DCDC007C800590017C7401F090017BF07B017AD3
:04DCEC000179742224
:10DCA7008B448A458946900414E025E0FF90157D52
:10DCB700E054F14FF012DA801259AD12D088AB441C
:05DCC700AA45A9462258
:10DB33008B448A45894690157DE0540EC3139004A7
:10DB430015F0900414F0E0D394024008A37401F09C
:0BDB5300900414F07B017A04790D228D
:10DC2F008B448A45894690159BE02402C43354E007
:10DC3F00FF90157DE0541F4FF012DA801259AD128C
:09DC4F00D088AB44AA45A9462285
:10D5B3008B448A45894690157DE054E0C413540793
:10D5C30024FC60101460141460182404701BE4908D
:10D5D300159C801A90159C7402801390159C7403FB
:10D5E300800C90159C7404800590159C7401F09038
:0AD5F300159BF07B017A1579942254
:100003008B4A8A4B894CE4901435F0FBFAF9125869
:0B0013004212B1037B017A1579B5227F
:06C10A008B478A488949B9
:10C110001257DF12597812CAB7E4901A6FF0A3F0E1
:10C12000901A6DF0A3F0901A6D12582F9415EE64CA
:10C13000809480504F90019E1256C2FEA3E0F4708E
:10C1400002EEF46037901A6DE0FEA3E09001A07556
:10C15000F0191256C6FEA3E0F47002EEF4601DABB7
:10C1600047AA48A949125857FF901A6FE475F00181
:10C17000123E89FCE5F06F7001EC6008901A6D12B8
:10C1800056EC80A212591B12DDE2901A6FEEF0A35A
:10C19000EFF012591BEF24FEFFEE34FFFE12578C16
:10C1A0007564FF7565B575666E901A6EE02401F5CD
:10C1B00068901A6DE03400F567126D127BFF7A000B
:0BC1C00079031258427B017A0479B821
:01C1CB002251
:067B82008B448A45894690
:107B8800E4901435F07B017A14793690146312412D
:107B9800EF7A0479B81258F090185AF0A3F01259F5
:107BA80098FF9003CA75F007125671125BBD125701
:107BB800D4125998FF9003CB75F007125671125BD7
:107BC8008112566D1241EF90185A1256EC90185ABD
:107BD800E07004A3E0640870C5900402125C1E9073
:107BE80004061241EF12591B12DDE290185AEEF00A
:107BF800A3EFF012591BEF24FEFFEE34FFFE1257DD
:107C08008C12C78BEF24FFFFEE34FF90185AF0A3B5
:107C1800EFF07B017A1579D7125998FF901432E06A
:107C28002FFF901431E03ECF24E7F560EF34FF12C8
:107C38005A6512CAB7E4901865F0A3F09018651257
:107C4800582F9484EE9400501AEF7802C333CE3341
:107C5800CED8F9125ABC125B0C60089018651256FF
:107C6800EC80D91257E412597712CAB7125998FF03
:107C78009001B475F0191256C690185CF0E0D394D0
:107C88000C4002E4F09001B61256C290185DF0E084
:107C9800D394104002E4F01259989001B575F01988
:107CA8001256C690185EF0E0D3940C4002E4F0122D
:107CB8005998FF90019E75F0191256C6FDA3E090E1
:107CC800185FCDF0A3EDF09001A275F019EF124105
:107CD800B8EE125B8D90185AE0FAA3E09001A61254
:107CE8005935EA1256CA125BDC7559017A0579765C
:107CF800755A01755B05755C7612A2E090185AE01A
:107D0800FAA3E0FB9001A8125935EA125B8D9001A5
:107D1800AC75F019EB1241B8EA1256CA125BDC7561
:107D280059017A05798B755A01755B05755C8B125B
:107D3800A2E090185A1256A3FEA3E090185A1259BE
:107D480021EC1256CA125969EC1256CA125A25FE6B
:107D5800E4FCFD90186112417B7564FF7565B5758B
:107D68006673E47B02FAF9F89018611241431240F5
:107D78002C8E678F68901431E0C313F569A3E01364
:107D8800F56AE47F64FEFDFC90186112415F123FC2
:107D9800A1C006C007901431E0FEA3E0FBAA06E4E8
:107DA800F9F8D007D00612402C8E6B8F6C7B017AC5
:107DB800057961126D121259989001AE75F0191279
:107DC80056C6540F24FE6013146010146018800007
:107DD8007564FF7565B575668580147564FF75658E
:107DE800B575669880097564FF7565B57566AB905D
:107DF8001865E0F567A3E0F5687B017A0579A012BC
:107E08006D121257E412584A12CAB790185CE075FE
:107E1800F010A424A3F974011257EB7B017A0579B9
:107E28002212D513E4900531F090185EE075F01633
:107E3800A42463F974021257EB7B017A057937128F
:107E4800D513E4900546F01257E4F55F125A09126B
:107E5800CAB790185D125BA81257EB7B017A0579B7
:107E68004C12D513E490055BF01257E490185FE0CC
:107E7800F55FA3E012597A12CAB79001E5E0FE3324
:107E880095E090185AF0A3CEF09001E5E0FF7D460A
:107E980012D41190186712417B7564FF7565B5752A
:107EA80066BE901867125B197A0579B5126D127B58
:057EB800017A1479635A
:017EBD0022A2
:067EBE008B228A238924B7
:107EC4008584259017E9125A87F526901435F0F524
:107ED40084C2EDD2EC7BFF7A04791A9014631241C8
:107EE400EF7B017A14790D1258F0125A739017E748
:107EF400E0FEA3E0FF9003CA75F007125671125B0F
:107F0400BD1257D49017E7E0FEA3E0FF9003CB75B2
:107F1400F007125671125B8112566D1241EF9017E1
:107F2400E71256EC9017E7E07004A3E0640470BD18
:107F34009003E6125C1E9003EA1241EF8525840B40
:107F44007A01799E12584A12CAB79001A2E09004AD
:107F5400C7F01257E412597712CAB7125A7290171F
:107F6400E712582F9415EE9400504490019E125637
:107F7400C2FEA3E0F47002EEF4602B9017EB1256ED
:107F8400EC9017E71256A3FEA3E09017E7125921CD
:107F9400EC1256CA125969EC1256CA125A25901795
:107FA400E98FF0123E739017E71256EC027F6212CB
:107FB4005A729017E712582F9407EE9400502474C5
:107FC400017E00A807088005C333CE33CED8F9FF5D
:107FD4009004C7E0FDEF5D600205269017E7125696
:107FE400EC80CFE526FD7C00901593E0FF7E001227
:107FF4003DD6AC06AD07E412398AC004C005C006FC
:10800400C007901409E0FCA3E0FDE412398AA80437
:10801400A905AA06AB07D007D006D005D004125A8A
:10802400C69017ED12415FC000C001C002C00390AA
:108034001593E0FCE412398F125BC7125BC7D003BF
:10804400D002D001D000123670125AC99017ED1226
:108054004143E4FBFA79617845123761125AC990B9
:108064001432E024E1FF12570BFE9017E9E0FAA363
:10807400E0FBC39FEA9E400C9017ED12418700007D
:108084000000801E901432E024E6FF12570BCFC389
:108094009BFDEF9AFCE412398A9017ED12415F12AE
:1080A4005AC67564FF7565B57566CB9017ED125B9E
:1080B400197A057922126D127564FF7565B57566B6
:1080C400DF9017EB12582F74159FF568E49EF5673F
:1080D4007B017A057937126D127564FF7565B57584
:1080E40066EE9017EBE0F567A3E0F5687569157B1C
:1080F400017A057961126D12125A729017E71258BB
:108104002F9404EE9400503BEF2402FF74017E0090
:10811400A807088005C333CE33CED8F9FF9004C72F
:10812400E0FDEF5D60159017E7A3E0FF2430FE74D7
:10813400672FF582E43405F583EEF09017E71256C5
:10814400EC80B89004C7E0FF30E60990056D743404
:10815400F0A304F0EF30E70E9005707452F0A374AE
:1081640050F0A3744DF0E4F584125A7320ED11908D
:1081740017E71256ECFED3E5F09410EE942740EC8A
:108184009017F1E5BFF0A3E5BEF0852584E0241245
:10819400FF9017F1E034FDFE7C007D64123DD67D36
:1081A400FA123DE89017E7EEF0A3EFF07564FF755F
:1081B40065B67566018E67F5687B017A05794C12A0
:0881C4006D127B017A1479634E
:0181CC002290
:06D8AD008B448A45894608
:10D8B3001257DF12597812CAB712591B12DDE290C0
:10D8C300185A12591212578C12C78B90185AEFF02C
:10D8D300D394155005E0FF12B43012B1037B017AE3
:03D8E3001579B5FF
:01D8E600221F
:06B912008B508A5189529E
:10B91800901435E0FFC394054021EFD3941F501BCA
:10B928009004C7E0600F900492E0FCA3E0FD7F0163
:10B938007E0012CF9A1259F012BCBB901435E0FF6A
:10B948006405600EEF641E6009EF641B6004EFB4C9
:10B958001C0612DD1412C4BFE4901435F0900418CC
:10B9680012561E125A7A901593E0FF24F66011249D
:10B97800E260042414700CEF75F00A84F553800318
:10B98800E4F55312561A1241E6E553125BD1FD1243
:10B9980056241241E6900009ED123DB4E4F554E551
:10B9A80054125958602224FB601124F6702812564C
:10B9B8001A125B9812587C7404801812561A125B7B
:10B9C8009812587C7403800B12561A125B981258FE
:10B9D8007C7402123DB40554E554640470C1125AD3
:10B9E8001112B3291256E21258361258EAAB50AA6D
:06B9F80051A952125AB6DB
:01B9FE002226
:10DD7B008B488A49894A9015B4E0C3940340081232
:0BDD8B0056E27F011243EC1256E22228
:10DE0A008B508A5189521256E27F021243EC125603
:02DE1A00E22202
:06AA11008B228A23892438
:10AA1700901409E0FCA3E0FD1257E4901433E0F52D
:10AA270061A3E0F5627F027E0012CD0390048412D9
:10AA3700418700000000E4900482F0A3F01256F36F
:10AA4700125A5F12CAB7E4FBFAEBAE027802C333BD
:10AA5700CE33CED8F9125811124187000000000BEF
:10AA6700BB00010AEB64204A70DF12598912418743
:10AA7700FFFFFFFF1256F31259D912CD031257E405
:10AA8700125A0612CAB790041CE075F01C9001B266
:10AA97001241B8124187000000009004301241872C
:10AAA700000000001259A012418700000000900426
:10AAB7002C1241870000000090041CE075F01C90E8
:10AAC70001B6125A9A75F01CEF9001B8125A9B9072
:10AAD700047AF0A31257E3F5617562021259E1FE99
:10AAE70012CD031257E4125AD712CAB71257BF90A2
:10AAF70001A21241B81241870000000090044512DC
:10AB07004187000000001257BF90019E1241B81202
:10AB170041870000000090044112418700000000B7
:10AB270090041CE075F00C9001A6125A9A75F00C6F
:10AB3700EF9001A8125A9B90047CF0A31257E3F5FB
:10AB4700617562041259E1FE12CD03901409E0FE0B
:10AB5700A3E0FF1257E4901433E0F55FA3E0F5603C
:10AB670012CAB77BFF7AB97912125842901435E0AE
:10AB7700FFB4020F7ADD797B1258EA901435740A14
:10AB8700F08024EFB403117BFF7ADD797B1258EA5A
:10AB97009014357409F0800F1256E21258EA125BCE
:0FABA7002712C408125C271257FB1B7A00790093
:01ABB600227C
:10D7AD008B4D8A4E894F7BFF7AB979121258427A86
:10D7BD00D879721258EA901435E024FD600B04708C
:10D7CD0010901435741FF080119014357419F08079
:10D7DD0009125B2712C408125C271257FB1B7A0033
:03D7ED007900229E
:10D872009014271256DF1258EA7BFF7AD779AD123D
:10D882005842901435E024E7600C24FA701090148A
:10D89200357402F0800E9014357403F080069014F3
:0BD8A200357401F07B017A1479242218
:06B21D008B448A458946BE
:10B223009014357424F0125C2E04F0900421124122
:10B2330087FFFFFFFFE4900425F012591B12DDE2A4
:10B2430090185A12591212578C12C78B90185AEF32
:10B25300F0D3941550227B017A1579D7901432E0FC
:10B2630024E6FF12570BFE90185AE07C002FF5607E
:10B27300EC3E125A6512CAB7E490185AF090185A65
:10B28300E0FFC39484502C75F004EF125AAA125BAA
:10B293000C6020900421124143125AA312415FC350
:10B2A3001240E25006125AA3125C0790185AE004A7
:10B2B300F080CA90185AE0900425F0700B7BFF7A57
:10B2C300B6790D12DD5A80567BFF7A007926125922
:10B2D300837AD67947125A6C9015D71259C19003C5
:10B2E300AF7403F0E4FF12CE97755E00755F0E75C1
:10B2F30060FF75611375620B75632D7B517A007D59
:10B30300097C007F157E00128A4C12AE9D12D72253
:10B313001258AE70047F0180027F0012DBB27ADD27
:05B3230079961256DAD4
:01B328002202
:10D647008B478A488949900425E0FF900482E0B41B
:10D65700000CA3E0B50707125C2E04F080069004C7
:10D66700821256EC125C35C333CE33CED8F9125939
:10D67700B812AE9D12D7221258AE70047F018002F5
:09D687007F0012DBB21256E22210
:100026008B478A488949900482E07004A3E0640102
:10003600700C900425E0FF125C2EEFF0800A90040D
:100046008274FFF5F0123E73125C35C333CE33CEA5
:10005600D8F91259B812AE9D12D7221258AE7004B2
:0D0066007F0180027F0012DBB21256E22201
:10DD96008B478A488949E4901435F0FBFAF9125802
:0BDDA60036AB47AA48A949125AB62222
:04001E0012C5752270
:10C575008B488A49894A901435E01242A1C5A10623
:10C58500C6050EC5B110C5C111C5D012C5DF13C58D
:10C59500EE14C5FD15C61E160000C6249004C7E09E
:10C5A50030E2099014357410F002C6249004C7E0F7
:10C5B50030E3099014357411F002C6249004C7E0E5
:10C5C50030E4089014357412F080549004C7E030BC
:10C5D500E5089014357413F080459004C7E030E603
:10C5E500089014357414F080369004C7E030E608DE
:10C5F5009014357415F08027901435740EF0801F53
:10C605009014357416F0E4FF12CE97125712128A61
:10C615004C125AFE12C04180069014357406F01271
:03C6250056E222B8
:06DB5E008B478A4889494B
:10DB6400125C3F04F0D3947440037474F01258832D
:10DB74007A187967126D127B017A18796712DD5A67
:03DB84001256E254
:01DB8700227B
:06DB88008B478A48894921
:10DB8E00125C3F14F0C3944C5003744CF012588343
:10DB9E007A187967126D127B017A18796712DD5A3D
:03DBAE001256E22A
:01DBB1002251
:10DCF0008B478A488949E4901435F012DA8012592A
:10DD0000AD12D0881256E2125836AB47AA48A9493C
:04DD1000125AB622CB
:06D7F0008B448A458946C6
:10D7F600E4901435F07564FF7565B6756615901579
:10D806007A1258977A18795A126D127B017A18791A
:10D816005A12DD5A7BFF7ADB795E1259837ADB79FD
:0BD8260088125A6C7ADC79F01256DC94
:01D8310022D4
:060076008B478A4889490E
:10007C0090155DE004F0D36480948C4003740CF014
:10008C0012585D7A187967126D127B017A187967AC
:06009C0012DD5A1256E2CB
:0100A200223B
:06DAAE008B478A488949FC
:10DAB40090155DE014F0C364809474500374F4F022
:10DAC40012585D7A187967126D127B017A1879679A
:06DAD40012DD5A1256E2B9
:01DADA002229
:06D91E008B448A45894696
:10D92400E4901435F012585D7A18795A126D127B0E
:10D93400017A18795A12DD5A7BFF7A0079761259E6
:0FD94400837ADA79AE125A6C7ADC79F01256DCFB
:01D9530022B1
:06DB07008B478A488949A2
:10DB0D0090157CE0240AF0D394F0400374F0F012E9
:10DB1D0058BE7A187967126D127B017A18796712DF
:05DB2D00DD5A1256E272
:01DB320022D0
:06D9F0008B478A488949BB
:10D9F60090157CE0D3940A5004E4F0800790157CDF
:10DA0600E024F6F01258BE7A187967126D127B017F
:0ADA16007A18796712DD5A1256E201
:01DA200022E3
:06D954008B448A45894660
:10D95A00E4901435F01258BE7A18795A126D127B77
:10D96A00017A18795A12DD5A7BFF7ADB7907125944
:0FD97A00837AD979F0125A6C7ADC79F01256DC84
:01D98900227B
:06C6DB008B488A49894AE0
:10C6E100901435E0FF12572F12562F1241E6900099
:10C6F10007EF123DB412573912562F1241E6E54B9E
:10C70100125BD1FF12573912562F125A90E4F54C91
:10C71100E54C125958602224FB601124F67028124E
:10C72100561A125BA012587C7404801812561A1201
:10C731005BA012587C7403800B12561A125BA01274
:10C74100587C7402123DB4054CE54C640470C1126E
:10C751005A1112B329125B2712C40874FFFFFEFDA0
:10C76100FC9004411258B7600C900441124143EC13
:10C771004D4E4F70051256E280067BFF7AD87972D2
:09C781001258EA125C271256E27C
:01C78A00228C
:10DDCA00FF7F3F1F0F07030100FEFCF8F0E0C08051
:08DDDA00FFFEFCF8F0E0C08040
:10CD8D0085842575840F75E16FE4F5E275E3C4754F
:10CD9D00A4157580EA75ADFF75A50D759002F5A604
:10CDAD0075A0FFF5A775B0FF759FFF75F88EF59E01
:10CDBD0075E8FFF59D75D8FF759CE075C8F9F5848C
:10CDCD0075D98075D84075DA4275DB427B017A15CD
:10CDDD00790D12D4BF90157AE0D394745006E0C348
:10CDED00944C500690157A7460F090157AE0F5FB2E
:10CDFD00E0F5FCE4F58475E8C075D107F5BAF5BB2F
:06CE0D0075BC7085258450
:01CE130022FC
:08C1CC0085842575840FC2CCA7
:10C1D400901815124187000001C2E4FFFEFDFC9097
:10C1E400181512415FD31240CC4017901815124114
:10C1F4004374FFFBFAF9F8123F8690181512417B3D
:02C2040080D8E0
:02C20600D2CC98
:10C20800901819124187000001C2E4FFFEFDFC905E
:10C21800181912415FD31240CC40179018191241D7
:10C228004374FFFBFAF9F8123F8690181912417B04
:02C2380080D8AC
:10C23A007DE212CB527B017DE27F0112CB56E4FBF9
:10C24A007DA97F0112CB567B017DA97F0112CB56B6
:10C25A00E4FB7DA07F0112CB567B017DA07F0112FA
:10C26A00CB56E4FB7DC07F0112CB567B017DC07F9C
:10C27A000112CB5612CB507B017DAF7F0112CB56F8
:03C28A0085258483
:01C28D00228E
:06CB50007DAFE4FB7F0154
:06CB56008F748D758B76D3
:10CB5C00E4F577F57885847975840FAD767F0112CD
:10CB6C00D8320578E57870020577EF30E70DC3E52C
:10CB7C00789432E5776480948040E0C2CBE574B45D
:10CB8C000104C2C88002D2C8E5766004D2CA800211
:10CB9C00D2C98575E8E5766005439C048003439C07
:10CBAC0002E5766005539CFB8003539CFD7F0105D9
:10CBBC0078E57870020577DFF6E5766004C2CA8006
:10CBCC0002C2C9D2C8D2CB439C01439C08539CFEE1
:09CBDC00539CF775E8FF8579848C
:01CBE500222D
:10D83200AE8475840FBF0104C2C88002D2C8ED60F5
:10D842000AD2CA439C04539CFB8008D2C9439C025F
:10D85200539CFD7C030FDCFDACE8ED6004C2CA8082
:0FD8620002C2C9D2C8439C01539CFE8E84AF04FE
:01D871002294
:08C408008B508A5189528D53BB
:10C41000E4F554E4F555F556F557E55424B8FD1206
:10C42000CB52E4FBFD7F0112CB56E55424B8FD7BD3
:10C43000017F0112CB567B01E4FD7F0112CB56E454
:10C44000F555F556E556643D45557003755701E5BC
:10C4500053B47E1FE55475F07AA4AB502552F9E52C
:10C460005135F0FAE92556F9EA3555FA123D29F425
:10C47000FD801CE55475F07AA4AB502552F9E551C6
:10C4800035F0FAE92556F9EA3555FA123D29FDABA2
:10C49000577FFF12CB560556E55670020555C394DB
:10C4A0007AE5559400409D0554E554C39404500327
:0FC4B00002C41312CB507B017DAF7F0102CB562C
:0C8A4C008E588F598C5A8D5B8A5C8B5DB4
:108A5800AE5AAF5B7C007D08123E3D8F6CE55B250E
:108A68005FCFE55A355ECF24FFCF34FFFE7C007D13
:108A780008123E3DC3EF9403EE6480948050028058
:108A8800027F038F6DAE5AAF5B7C007D08123E3DBE
:108A9800901CB2EDF0855868855969C3E569943D25
:108AA800E5686480948050047F0080027F018F6EA7
:108AB800E559255DCFE558355CCF24FFCF34FFFE5F
:108AC800C3EF9479EE64809480500280047E007F26
:108AD800798E6A8F6BE56EB4011874C32569F569E0
:108AE80074FF3568F56874C3256BF56B74FF356AD8
:108AF800F56A856C64E564D3956D4003028D048541
:108B08006E67C3E56C9564FF901CB2E02F131313D6
:108B1800541FF56FE56E701FE56424B8FD12CB5243
:108B2800AD6912CB52E56424B8FD7B017F0112CBFD
:108B3800567B01E4FD8010E56424B8FD7B017F01CC
:108B480012CB56AD697B017F0112CB5685686585CE
:108B58006966D3E566956BE565956A4003028CFF07
:108B6800E566643D45657003756701E564B56C05A8
:108B7800E4F5718055C3E564956CFFE49400CF2457
:108B8800FFCF34FFFEAC5CAD5D123DD6AB60E56255
:108B98002FF9E5613EFAC3E5669569FFE5659568D5
:108BA800FEE92FF9EA3EFA123D29F570901CB2E071
:108BB800FF90DDCA93F45570FEC374089FFFEEA8BA
:108BC80007088002C313D8FCF571E564B56D29AEBA
:108BD8005EAF5F7C007D08123E3DC374089DFFE4D4
:108BE8009CFE901CB2E05407D39FEE6480F874801A
:108BF800984005E4F5728048C3E564956CFFE494F9
:108C080000FEAC5CAD5D123DD6AB60E5622FF9E5C8
:108C1800613EFAC3E5669569FFE5659568FEE92F4B
:108C2800F9EA3EFA123D29F570901CB2E0FF90DD9A
:108C3800CA935570FEA807088002C333D8FCF572A2
:108C4800E5714572F570AB677DE07F0112CB56ADDB
:108C5800677FFF12D8328F73AD677FFF12D8328FCC
:108C680073E56324A2601824E2600E24FE601624D3
:108C7800587015E5735270800FE57342708009E5EE
:108C880073627080036370FFE4901CB1F0E56CB50B
:108C9800640BA3E090DDDA93F4901CB1F0E56DB5B8
:108CA8006429901CB1E0FBE55B255FFFE55A355E62
:108CB800FE7C007D08123E3D74D22DF58274DD3CA9
:108CC800F583E493FFEB4F901CB1F0901CB1E0FFEB
:108CD800F45570FEE5735F4EF570AB677DEE7F016E
:0C8CE80012CB56AB67AD707FFF12CB566D
:108CF4000566E56670020565028B5A0564028AFD05
:018D0400224C
:02CE97008F50BA
:10CE9900E4FB7DAE7F0112CB567B017DAE7F011293
:10CEA900CB56E4F551E4F552F553F554E55124B860
:10CEB900FD12CB52E4FBFD7F0112CB56E55124B89C
:10CEC900FD7B017F0112CB567B01E4FD7F0112CB73
:10CED90056E4F552F553E553643D455270037554D4
:10CEE90001AB54AD507FFF12CB560553E553700289
:10CEF9000552C3947AE552940040DB0551E551C3CC
:10CF0900940440A112CB507B017DAF7F0102CB5627
:08BBD5008F3C8B3D8A3E893F45
:10BBDD00E5406028900000E0F53C04F05403F0E0EF
:10BBED0075F008A424C0FD12CB52900000E075F052
:10BBFD0008A424C0FD7B017F0112CB56E4F542F56C
:10BC0D0043C3E5439475E54264809480400302BCD0
:10BC1D00BAAB3DAA3EA93F123D29FFC3648094A053
:10BC2D004041D3EF648094FE5039E53C75F008A493
:10BC3D00FDACF0C004C005123D29FF3395E0FE7C3C
:10BC4D00007D05123DD674AD2FF9741A3E7560FF57
:10BC5D00F5618962755E00755F08854163D005D019
:10BC6D0004801BE53C75F008A4FDACF0755E007515
:10BC7D005F087560FF75611B75624D8541637B05BE
:10BC8D007A00AF43AE42128A4CAB3DAA3EA93F1299
:10BC9D003D29600B7401253FF53FE4353EF53E74BB
:0DBCAD00062543F543E43542F54202BC0E86
:01BCBA002267
:08C041008F508B528A53895481
:10C04900AF05901CA9E4F0A3EFF0C3901CAAE094FB
:10C0590075901CA9E064809480400302C109AB5229
:10C06900AA53A954123D29FF700302C109C3EF6401
:10C079008094A04049D3EF648094FE5041E5507507
:10C08900F008A4FDACF0C004C005123D29FF3395AA
:10C09900E0FE7C007D05123DD674AD2FF9741A3E81
:10C0A9007560FFF5618962901CA9E0FEA3E0FF7548
:10C0B9005E00755F08855563D005D0048023E5507F
:10C0C90075F008A4FDACF0901CA9E0FEA3E0FF7593
:10C0D9005E00755F087560FF75611B75624D85555A
:10C0E900637B057A00128A4C74012554F554E435B2
:10C0F90053F553901CA9E475F006123E7302C05320
:01C109002213
:08BDA1008F4F8B508A5189522B
:10BDA900E553602A900000E05402F0F54F24025454
:10BDB90003F075F008A424C0FD12CB52900000E0F6
:10BDC90075F008A424C0FD7B017F0112CB56E4F570
:10BDD90055F556C3E5569471E55564809480400342
:10BDE90002BE84AB50AA51A952123D29FFC36480F7
:10BDF90094A0403DD3EF648094FE5035E54F75F033
:10BE090008A4FDACF0755E00755F10123D29FF3383
:10BE190095E0FEEFC4F8540FC868FFEEC454F0482B
:10BE2900FE74282FF9741B3E7560FFF561896280E5
:10BE390018E54F75F008A4FDACF0755E00755F104C
:10BE49007560FF75611D7562288554637B087A00EA
:10BE5900AF56AE55128A4CAB50AA51A952123D2980
:10BE6900600B74012552F552E43551F551740A25D8
:0BBE790056F556E43555F55502BDDCCA
:01BE8400229B
:08C34F008F4D8B4F8A5089517C
:10C35700AF057553008F54C3E5549471E55364805A
:10C367009480400302C407AB4FAA50A951123D293C
:10C37700FF700302C407C3EF648094A04043D3EF68
:10C38700648094FE503BE54D75F008A4FDACF07554
:10C397005E00755F10AB4FAA50A951123D29FF33BC
:10C3A70095E0FEEFC4F8540FC868FFEEC454F04898
:10C3B700FE74282FF9741B3E7560FFF56189628052
:10C3C70018E54D75F008A4FDACF0755E00755F10BB
:10C3D7007560FF75611D7562288552637B087A0059
:10C3E700AF54AE53128A4C74012551F551E43550C0
:10C3F700F550740A2554F554E43553F55302C35EDA
:01C407002212
:08CA1E008F508B528A5389549A
:10CA2600AF057556008F57C3E5579474E556648075
:10CA36009480507CAB52AA53A954123D29FF6070D2
:10CA4600C3EF648094B0402DD3EF648094B9502531
:10CA5600EF3395E0FE7C007D0C123DD674182FF95D
:10CA660074213E7560FFF5618962E550FD755E00D3
:10CA7600755F0A8014E550FD7C00755E00755F0ADF
:10CA86007560FF7561237562DC8555637B067A00E8
:10CA9600AF57AE56128A4C74012554F554E43553FB
:10CAA600F55374072557F557E43556F55602CA2D42
:01CAB600225D
:10DE1C00E4FB7DC07F0112CB567B017DC07F0102EC
:02DE2C00CB56D3
:10DD5A008B4A8A4B894C7BFF7A1979657D2D12C4CF
:10DD6A0008AB4AAA4BA94C75522D7D077F0102C305
:01DD7A004F59
:10B8210025332E33662C25332E3366002C256400F8
:10B831004820253033642C200048202D2D2D2C202C
:10B84100005620253032642C2000542025322E3021
:10B851006625630025326420005461636820262038
:10B8610053706565646F0052504D004D5048004B58
:10B87100504800204E2F43002535750025336400C4
:10B881004E6F475053004125642025342E326656B1
:10B89100200044343A2025642044353A20256400B0
:10B8A100523A2535750025342E3166202573200046
:10B8B10025342E326620257320004E20004E45008F
:10B8C1004E57004520005720005345005357005361
:10B8D1002000253032642F2530326400202530329B
:10B8E100643A253032643A253032640025303464BC
:10B8F1002D253032642D2530326400253032643AF2
:10B9010025303264001F1C1F1E1F1E1F1F1E1F1EFD
:01B911001F16
:109D1600E53D75F028A42450F582E4340FF583124E
:109D2600414390186A12415F023907901854E0FCCB
:109D3600A3E0FDEC02398AAF03EAF0A3EFF0E47B7F
:109D46003CFAF9F8901A7D12414302402CF0E53DA9
:109D560075F028A4223401FE7C017D68123DE8C31B
:109D660074689DFF74019CFE7C017D68023DE87568
:109D760064FF7565B875662DAB3CAA3DA93E22AB5E
:109D860048AA47A946A8457C401237610239C375DF
:109D96005E00755F087560FF75610A7562C122AD68
:109DA60007AC06E412398AA804A905AA06AB07E49B
:109DB600FFFE7D7A7C4802386A901A77E0F567A341
:109DC600E0F568A3E0F569A3E0F56A22FFE49400F4
:109DD600FE741D2FF58274143EF583E022AB67AA4C
:109DE60068A969123E9FFFAEF07C007D04123E3DDD
:109DF600ED4C22124113EC12398579B47833E4FB29
:109E0600FA0237617B5C7A8F7982783F0237617B11
:109E1600017A1879522290185AE09400227B3CE489
:109E2600FAF9F802402C1241438F6A8E698D688CCC
:109E360067227E007F78123DE8AC06AD07E4023962
:109E46008A7B7A7A00E4FDFCFFFE227B017A187990
:109E56005C221240F3900004123ECAF55885F05772
:109E6600227C40AB42AA41A940A83F023761F0E5F7
:109E76003D75F024A424CCF97404222448F582E428
:109E8600340FF58302415F901422E0FEA3E0FDED5E
:109E9600FF4E227BFF90186DE0F55522E0F567A393
:109EA600E0F56822E475F001023F022455F582E4EC
:109EB600340FF583E0222456F582E4340FF583E06F
:109EC60022E56B9FF56BE56A9EF56A22900010020B
:109ED6003D4290186DE0F552227564FF7565B875C0
:109EE600667D22FDE49400FCE402398A7B017A183F
:109EF600795222AB5AAA5BA95C2290186B024143A5
:0A84C0008C3F8D408B3C8A3D893EC5
:1084CA00900006129DF990185312417B129D7E90DE
:1084DA00000A129DF990185712417BE544C3940291
:1084EA005015129D7E129E5875590185415A854232
:1084FA005B85435C12A2E0E544700312874BE544B6
:10850A006004640270627564FF7565B875662190CF
:10851A001853129E2C9018571241438F6E8E6D8DF0
:10852A006C8C6B12872E90157DE030E02A129D75B7
:10853A0090000E123ECAFFAEF0EE3395E0FDFCE469
:10854A007B27FAF9F8123FA1E47B0CFAF9F812D763
:10855A00698E678F68800E129D7590000E123ECA52
:10856A00F56885F06712875FE544700312874BE56B
:0A857A004460076403600302872DCC
:10858400129D7E129ED254E075F008A4FF90001153
:10859400123D42FDE5F0F549EF4DF54AE54930E27B
:1085A4000744F8F549854A4A129D7E129ED2541C0E
:1085B40075F040A4FF900012123D42FDE5F0F54B2A
:1085C400EF4DF54CE54B30E20744F8F54B854C4C48
:1085D400129D7E129ED25403FE900013123D42FD62
:1085E400EEF54DEDF54EE54D30E10744FCF54D85D6
:1085F4004E4EE54A45497006E54C454B6028AD4C66
:10860400AC4BAF4AAE4912D1CD8E518F52E55224B4
:108614000EFFE551129D5B8C518D527564FF75659B
:10862400B875663180097564FF7565B875663A85F5
:10863400516785526812875F128769AC4BAD4CEC69
:1086440012398AC004C005C006C007AC4BAD4CEC5F
:1086540012398AD003D002D001D000123761C0048D
:10866400C005C006C007AC49AD4AEC12398AC00443
:10867400C005C006C007AC49AD4AEC12398AD00324
:10868400D002D001D000123761D003D002D001D083
:108694000012367012C83D129E0A8F488E478D46CE
:1086A4008C4590157DE030E0157F747ED17D0D12F0
:1086B4009D858E4F8F509018527446F080127466C8
:1086C400FFFEFD129D858E4F8F509018527443F01B
:1086D4007564FF7565B8756642854F678550681285
:1086E400872E129D7E900014123D42FF901852E096
:1086F400FD12D4118F488E478D468C457564FF75E5
:1087040065B875664B129E2F901852E0F56B128770
:108714007D1287697564FF7565B87566559015B4E3
:09872400E0756700F56812877D1D
:10872D0022AB41AA42A943126D12AB41AA42A94301
:10873D0012DDE2EF2543F543EE3542F54222AB4122
:10874D00AA42A94312DDE2EF2543F543EE3542F58A
:10875D004222AB41AA42A943126D1222AB41AA4259
:10876D00A94312DDE2EF2543F543EE3542F54222F2
:0A877D00AB41AA42A943126D12227B
:06A693008B3C8A3D893E6C
:0BA69900129E8D7006F543F5448043CF
:10A6A400129DA58F428E418D408C3F7E0090048D7B
:10A6B400E0540F8E45F5467007FF7D707C4380148F
:10A6C400E546640F45457005F545754610AC45AD46
:10A6D40046129E38AB42AA41A940A83F129D8F8ED4
:03A6E400438F445D
:10A6E700C390048FE0954490048EE0954350047F17
:10A6F7007E80027F2D90186DEFF0647E6004E4FF8A
:10A7070080027FFF12CE97129D9590186DE0F5633A
:10A71700129E47128A4C7AB8795A129E997D16E48E
:10A72700FF12C0417AB87968129E997D167F03128D
:10A73700C04190157DE07BFF30E0067AB8796C80E8
:10A74700047AB87970129E9B7D5D7F0312C0419099
:10A7570004C7E070087BFF7AB8797480127564FFCC
:10A767007565B875667985436785446812A855127B
:10A777009ED87D027F0112C34F9015B4E0C39403A6
:05A78700500302A8448C
:10A78C00AB3CE53E2410F9E4353DFA7553017554A4
:10A79C0018755552755601755718755854755901D9
:10A7AC00755A18755B5612CF19129D31C004C0052D
:10A7BC00C006C007129D31D003D002D001D00012C8
:10A7CC003761C004C005C006C007901852129D34F2
:10A7DC00C004C005C006C007901852129D34D003A7
:10A7EC00D002D001D000123761D003D002D001D0FA
:10A7FC000012367012C83D129E0A8F428E418D4057
:10A80C008C3F90157DE030E0087F747ED17D0D800B
:10A81C00057466FFFEFDAB42AA41A940A83F129DFC
:10A82C008D8E458F46129EDF85456785466812A83A
:06A83C0055129ED87D5369
:10A84200800B7BFF7AB87981129ED87D467F0112F8
:02A85200C34FF2
:10A85400227B017A187958126D127B017A18795883
:01A8640022D1
:10A4C000E490186BF090186BE0FFC36480948440B4
:10A4D0000302A57CEF3395E0FEC374049FFFE49E66
:10A4E000129DD6FCE412398FC004C005C006C00717
:10A4F00090186BE0FF3395E0FE900F4775F028EF62
:10A500001241B8EE75F028A42583F583E0FCE4122F
:10A51000398FD003D002D001D000123761E4FBFAAA
:10A520007978784312386A90186712417B7564FF16
:10A530007565B875668790186BE0FF3395E0F56731
:10A540008F689018671241438F6C8E6B8D6A8C698F
:10A55000129E15126D1290186BE0FEA2E71304FF15
:10A56000EE30E0047D4380027D06129E1575552D68
:10A5700012C04190186BE004F002A4C590141DE0D5
:10A5800054FC70639018527444F0A3743AF0A374AE
:10A5900020F090186B7407F090186BE0FFC3648094
:10A5A0009480403C90141DE0FEA807088002C3136D
:10A5B000D8FC30E0047F3180027F3090186BE0FDE2
:10A5C0003395E0FCC3740A9DFDE49CFC74522DF5A8
:10A5D0008274183CF583EFF090186BE014F080B8AB
:10A5E000E490185DF080337564FF7565B875669307
:10A5F00090141DE0FF7C0030E4047D0180027D00AA
:10A600008C678D68EF7E0030E5047F0180027F005B
:10A610008E698F6A129E15126D12129E1575552D38
:10A620007D017F0312C041129E8D7006F53CF53D01
:02A63000803F69
:10A63200129DA590186712417B7E0090048DE05414
:10A642000F8E3EF53F7007FF7D707C438014E53F1F
:10A65200640F453E7005F53E753F10AC3EAD3F12AE
:0FA662009E3890186712415F129D8F8E3C8F3D7E
:10A671007564FF7565B87566A1853C67853D68128F
:10A681009E15126D12129E1575552D7D4B7F03027D
:02A69100C041C6
:028FB2008F3CF2
:0F8FB400E53C64146009E53C64156003029058C5
:108FC300E53C24ECF53DE4FF12CE97129D957563C5
:108FD3002D129E47128A4CE53D75F024A424D7F543
:108FE30082E43404F583E4129E7412920C90186E9A
:108FF300EF129E7435F0FA7B01E0FD75552DE4FF09
:1090030012C041E53CB4141D90141DE030E40B750F
:109013003E01753F047540D88026753E01753F04B7
:109023007540E4801B90141DE030E50B753E01751F
:109033003F047540FC8009753E01753F0575400886
:10904300AB3EAA3FA940129229AB3EAA3FA9407565
:02905300522D9C
:039055000292067E
:10905800E53C24F0F53DFFC374049F129DD2FB123A
:109068009D54129EB1FAEBC39A500D90186A1241A2
:1090780087000000000290DC129D54129EBCFFEB9A
:10908800D39F400C90186A1241873F8000008044AB
:10909800C37404953D129DD2FFEAFDC3EF9D129E55
:1090A800E9C004C005C006C007129D54129EB1FF56
:1090B800129D54129EBCC39F129EE9A804A905AA3A
:1090C80006AB07D007D006D005D00412386A90182E
:1090D8006A12417B129D54129E81129D54244CF5B4
:1090E80082E4340FF58312414312366C90186A12E9
:1090F800415F123761129D54129E8112367090188A
:109108006A12417B129D542454F582E4340FF5838E
:10911800E0601804602424FE702D129D166006403D
:10912800047F7E80027F2D8F3E801C129D16700466
:109138007F7E80027F2D8F3E800D129D1650047F0A
:109148007E80027F2D8F3EE53E647E6004E4FF80D2
:10915800027FFF12CE97129D95853E63129E47129D
:109168008A4C129D54243AF582E4340FF583E412B4
:109178009D53242FF9740F12920C90186EEF129DC4
:1091880053242FF9740F35F0FA7B01E0FD853E5525
:10919800E4FF12C041E4FFFEFDFC129D2840089048
:1091A800186A124143800990186A124143123974AF
:1091B800E4FBFA79207841123907500B7564FF7582
:1091C80065B87566A780097564FF7565B87566B179
:1091D80090186A129E2C129D54243BF9740F35F096
:1091E800756B01F56C896D129EF2126D12E4901880
:1091F8005EF0129EF2129229129EF2853E527F0272
:0392080012C34F3F
:10920B002235F0FA7B0112DDE2C374149FFFE49E5A
:10921B00FE7C007D06123DD67D02123E3D2212DD04
:10922B00E2C3740D9FFFE49EFE7C007D09123DD6C8
:08923B007D02123E3DAD072249
:069B1E008B3C8A3D893EEC
:109B2400E92410F9E43AFA7553017554187555543B
:109B3400755601755718755856755901755A187523
:109B44005B5812CF19901854E0FEA3E0FF4E700B3F
:109B5400A3E07002A3E07003029C48901856E0FC56
:109B6400A3E0FD12D1CD90185AEEF0A3EFF0240E2D
:109B7400FFEE129D5B90185AECF0A3EDF0D39447DE
:109B8400EC94015009C3E09417129E1C500C7564A8
:109B9400FF7565B87566BB029C35C390185BE0948D
:109BA40044129E1C500C7564FF7565B87566BE0240
:109BB4009C35D390185BE0942790185AE0940140A8
:109BC4000B7564FF7565B87566C18065C390185BD5
:109BD400E09471129E1C500B7564FF7565B8756630
:109BE400C4804ED390185BE094F7129E1C400B7512
:109BF40064FF7565B87566C78037C390185BE094D9
:109C04009E129E1C500B7564FF7565B87566CA80FC
:109C140020D390185BE094CA129E1C400B7564FF1D
:109C24007565B87566CD80097564FF7565B8756628
:109C3400D0129E51126D12129E5175522D7D027FCB
:109C44000112C34FAB3CAA3DA93E129E587559025E
:109C5400755A01755B18755C5C12A2E0129E517511
:109C6400522D7D227F0112C34F901856129D34C08D
:109C740004C005C006C007901856129D34D003D006
:109C840002D001D000123761C004C005C006C0076D
:109C9400901854129D34C004C005C006C007901823
:109CA40054129D34D003D002D001D000123761D0B9
:109CB40003D002D001D00012367012C83D129E0AA1
:109CC4008F428E418D408C3F90157DE030E0147FB3
:109CD400787ED17D0D129E67E4FBFAF9783F123647
:109CE4007080087466FFFEFD129E671239C39018D7
:109CF40052EEF0A3EFF0129EDF901852129EA212C1
:109D04009E51126D12129E5175522D7D5C7F01027F
:029D1400C34F3B
:08A2E0008F568E558D548C53EE
:10A2E800E55845577027901A7BF0A3F0901A79F03B
:10A2F800A3F0901A77F0A3F0901A73F0A3F0901AD5
:10A308006FF0A3F0901A6DF0A3F002A43F90155DD2
:07A31800E0F4700302A3AAA8
:10A31F00E0FF3395E0FEFDFC7B807AEE7936780026
:10A32F00123FA1AB56AA55A954A853123F868F606E
:10A33F008E5F8D5E8C5DEC33501CE55815587002A6
:10A34F001557E42560FFE55F3484FEE55E340CFDB0
:10A35F00E55D342480317F007E847D0C7C24AB60EE
:10A36F00AA5FA95EA85DD31240CC40230558E558DB
:10A37F0070020557E5609400FFE55F9484FEE55E8B
:10A38F00940CFDE55D94248F608E5F8D5EF55D8589
:0BA39F006056855F55855E54855D5358
:10A3AA00E47BE87A03F9F8AF56AE55AD54AC5312D4
:10A3BA00402C901A7D12417B129D44129E237B18D9
:10A3CA00129E25901A71EEF0A3EFF0E47B107A0E3C
:10A3DA00129D48E47B18129E26901A77129D3D1210
:10A3EA009E23901A79129D3DAF03901A7BEAF0A33F
:10A3FA00EFF0AE57AF587C007D07123DD6901A7227
:10A40A00E02FFF901A71E03ECF24A2CF34E0FE90F5
:10A41A001A75F0A3EFF075640175651A75666F75A4
:10A42A00670175681A7569738E6AF56B7B017A1A0A
:10A43A00796D12C628E55914601E146066240270EC
:10A44A00747564FF7565B87566D3901A6F129EA20B
:10A45A00901A6D129DCA801F7564FF7565B875667E
:10A46A00ED901A73129EA2901A6F129DCA901A6DDD
:10A47A00E0F56BA3E0F56C129EF9126D12129EF9CB
:10A48A0012DDE2AB5AE55C2FF9E55B3EFA7564FF33
:10A49A007565B87566DD129DBFA3E0F56BA3E0F59F
:10A4AA006C800F7564FF7565B87566FC129DBF12E6
:05A4BA009EF9126D1275
:01A4BF00227A
:02D411008D5339
:10D41300AC07EC12398F90186B12417BE5536446CD
:10D423006005E553B46628E4FBFAF97840129F00DF
:10D4330012386A79107841129E04E4FBFA79A078D5
:10D443004012386AE4FBFAF97842123670800C1203
:10D453009F00E4FBFAF9784012386A90186B124186
:04D463007B129F0099
:01D4670022A2
:06C628008B618A62896348
:10C62E0078817C1A7D017BFF7AB979067E007F0CBA
:10C63E00123D03AB67AA68A969740775F0D2123F61
:10C64E003AD3E56B946DE56A64809481402C129D1B
:10C65E00E3700CE56B646E7004E56A6401601BEDBB
:10C66E004C7E0160047F6D80027F6EC3129EC7AB4D
:10C67E0067AA68A969129EAA80C7129DE3700690E8
:10C68E001A82741DF0AB64AA65A966E4F5F0123F38
:10C69E003AAB64AA65A966123E9F2481F582741A8C
:10C6AE0035F0F583E0FF7E00D3E56B9F7480F8656F
:10C6BE006A984008129EC7129EAA80D5129EAAABF7
:0DC6CE0061AA62A963E56A856BF0023F3A3C
:10D98A0025303275200025303375004869742053DC
:10D99A00454C4543542061742046696E697368009A
:10D9AA002A2046696E697368204C696E6520536542
:04D9BA0074202A00AB
:1081CD00755E00755F0EE47B0AFAF9F8901CA91232
:1081DD00414312D769AC00AD01AE02AF03E47B1091
:1081ED00FAF9F8123FA174282FF9741E3E7560FF3D
:1081FD00F561896222124143EC123985E4FBFA796B
:10820D00B47833123761901CA512417B90046B1228
:10821D004143EC12398579B47833E4FBFA023761C6
:10822D0090042C12414390158D12417B9004301215
:10823D0041439015B012417B90047AE0FFA3E0908A
:10824D00140BCFF0A3EFF022E4F9F8901CAD12411E
:10825D004312D7697B3CE4FAF9F812D769AC00AD4B
:10826D0001AE02AF03901CA912417BC37409955056
:10827D00FDE49400FC22755E00755F087560FF7566
:10828D0061237562F075632D7B087A007D177C0084
:10829D002290044112414390158D12417B9004456B
:1082AD001241439015B002417B75F008EB900039F7
:1082BD001241B812414375F008EB9000350241B8F8
:1082CD0090140BE0FEA3E0FF900480E0FCA3E0C35C
:1082DD009F2290187B124143A804A905AA06AB075B
:1082ED0022901875E0FCA3E0FDEC02398A755E0062
:1082FD00755F0875632D7B06227D207C41E4FFFEB2
:10830D00AB53AA52A951A850227B017A01799E90B4
:10831D00041CE01313543FFF7E00901432E024FC44
:10832D00FD901431E034FF22755E00755F0E7B0AFF
:10833D00901CA9E4FAF9F812414302D769755E0061
:10834D00755F087560FF227B007A007900901444F8
:10835D000241EF74FFFFFE900421FDFC12415FC34B
:10836D000240CC12417B90046F12414390041CE0FB
:10837D002290041D0241439003AEE0FB75F008907E
:10838D0000390241B812417B9003AEE004F022ABFC
:10839D0050AA51A952123D42FD7C00023D29AF5316
:1083AD00AE52AD51AC502275F01C1241B802417B5A
:1083BD00E49003AEF0900181F022900484124143C9
:1083CD000239C312417B900480E0FEA3E0FF9004CC
:1083DD001CE0221239C37C007D0A023E3DF5617D11
:1083ED00107C027F0222901591E0FEA3E0FF221285
:1083FD00386A90186002417B900482E0FEA3E0226F
:10840D0075610775626B75632D7B7A2275612375B6
:10841D00625475632D7B0222FFEC9EFEC3E49FFF29
:10842D00E49EFE22E4FFFEFDFC12415F023907A42B
:10843D002DFFEC35F08FF0023F3A123E9FFFAEF06C
:10844D00EE22900480A3E09FFFEC9EFE229004415B
:10845D00124143EC4D4E4F221241B8EEF0FEA3EF08
:10846D00F0FF22900482E094002275610675627718
:10847D0075635E22755E00755F0A7560FF227D0172
:10848D007E007F15023D0312376190187B02417B00
:10849D0012414302397475F0049015D70241B8901A
:1084AD00041CE0540375F08422901CA912417B90AA
:0384BD001CA922D5
:10AE9D00D3900483E094011284704039901435E00E
:10AEAD006405703190157CE0FFE4FCFDFE7BE87AD3
:10AEBD0003F9F8123FA190041D12836950171284F3
:10AECD00057802C333CE33CED8F924CFF58274156D
:10AEDD003EF583800390041D124143901CAD124139
:10AEED007B9003AFE0B40305E4F550800375500586
:10AEFD00901CAD124143EC33500A901CAD124187AA
:10AF0D00000000007B807AEE79367800901CAD123F
:10AF1D0083447B18128263C004C0051281CD756312
:10AF2D002DD005D0047F1512AFC77B607AEA12824F
:10AF3D0055C004C0051283351281EA75632DD00505
:10AF4D00D0047F2612AFC7128278C004C0051281CB
:10AF5D00CD75632DD005D0047F3112AFD17BE87A4A
:10AF6D0003128255C004C0051283351281EA756340
:10AF7D002DD005D0047F4212AFD1128278C004C00B
:10AF8D00051281CD75632DD005D0047B087A007F25
:10AF9D004D7E00128A4C7B64901CAD128340128250
:10AFAD0072C004C0051281CD75632DD005D0047B10
:0AAFBD00087A007F5E7E00028A4CD5
:10AFC7007B087A007E00128A4C227B087A007E007A
:04AFD700128A4C226C
:08949F008F538E528D518C5049
:1094A70012834A12840D128297E4FFFE128A4CE45B
:1094B700FFFEFDFC12830D12390740047F01800275
:1094C7007F00901CA9EFF0E4FFFEFDFC12830D1254
:1094D700390740051283AB80061283AB1239747BC0
:1094E700CD7ACC794C783D1236708F538E528D5190
:1094F7008C5090040912415F12386A7970784212D1
:109507008227E4FBFAF9783F1236701239C3C3EFAA
:10951700943CEE9400500280047E007F3C901CAA8D
:10952700EEF0A3EFF07DC67C4212830A1239076082
:109537000D400BE4F553F5527551C6755042128331
:109547000612390740521283AB1239C3AB07AA067A
:109557001283E3901CACEFF07C007D0AAF03AE02F0
:10956700123E3DA3EDF0901CA9E060161282837FA6
:109577005F1296CA1281FA1282FA1282977F6902E3
:1095870095DF1296607F0D1296A91281FA1282FA60
:109597001282977F1502963D1283AB1283E0901CCF
:1095A700ACEDF01283061237611283E0901CADED2B
:1095B700F0901CA9E0604B1282837F5B1296CA125F
:1095C70081FA1282FA1282977F651296BE7560FF42
:1095D7001284191282977F6D1296A91281FA12824C
:1095E700FA1282977F711296BE7560FF1284779088
:1095F7001CAAE0FAA3E0FB7D177C007F3E7E0002F9
:10960700965C1296607F0D7E00128A4C12834A1276
:1096170084191282977F157E00128A4C901CADE048
:1096270075F006A42418F9742335F01281FA128212
:10963700FA1282977F197E00128A4C901CAAE0FAD0
:10964700A3E0FBC3743C9BFFE49AFE12834A128497
:08965700777D177C00128A4C9C
:10965F0022755E00755F087560FF7561237562E89E
:10966F0075632D7B087A007D177C007F037E0012C7
:10967F008A4C901CACE075F006A42418F9742335BD
:10968F00F07560FFF5618962755E00755F0875633F
:10969F002D7B067A007D177C00227E00128A4C906B
:1096AF001CADE075F006A42418F9742335F0227E62
:1096BF0000128A4C755E00755F08227E00128A4C7C
:1096CF00901CACE075F006A42418F9742335F02231
:10D72200128405FFD39463EE9400500F7564FF7565
:10D7320065D975668A8E678F6880137564FF756513
:10D74200D9756690900482E0F567A3E0F5687B01E5
:10D752007A1C79A9126D127B017A1C79A975552D53
:07D762007D017F0102CA1ED8
:10DBB200EF600B1284817561237562F8800912840B
:10DBC2008175612475620C75632D7B0A7A007D0173
:0ADBD2007C007F6F7E00128A4C2257
:0643EC008B4B8A4C894D49
:1043F200EF147003024ADA147003024C5414604C36
:1044020024FE602B24056003024D1390041D12410B
:104412005FC000901593E0FD7C007E037FE8123DB3
:10442200E8E4FCFDD000123F8690041D02417BE4CB
:10443200F51D12822D900488124187000000009021
:0C444200041D124187000000001283BD21
:10444E00901435E0FF64086004EFB41D1CE47FE8AF
:10445E007E0390041D128367700F900480E0FFA30B
:10446E00E090047ACFF0A3EFF078507C047B017AD1
:10447E0004796512848B900480E0FFA3E090047EA3
:10448E00CFF0A3EFF078657C04AB4BAA4CA94D128C
:10449E00848B901435E064207003024D13AB4BE512
:1044AE004D2410F9E4354CFA7553017554187555B1
:1044BE007F755601755718755881755901755A18BB
:1044CE00755B8312CF1990187FE0FEA3E0FF4E704C
:0C44DE000BA3E07002A3E07003024D137A
:1044EA00901435E0FD64056004EDB41F1290187352
:1044FA00E4F0A37428F0A3E4F0A3742DF0801090E4
:10450A001873E4F0A3741EF0A3E4F0A3740AF09005
:10451A001881E0FCA3E0FD12D1CD900480EEF0A357
:10452A00EFF0900456128202124D50C004C005C02A
:10453A0006C00790045A12821CC004C005C006C0F7
:10454A000790046F12821CD003D002D001D000124F
:10455A00366CD003D002D001D0001284941283C7E3
:10456A00901591EEF0A3EFF090048412415FC00021
:10457A00C001C002C0031282DF123761C004C00545
:10458A00C006C0079018771282E2123761D003D0B2
:10459A0002D001D000124E1CD003D002D001D000AC
:1045AA0012367090048412417BD3900483E0940005
:1045BA001284705003024710D3901592E094009031
:0C45CA001591E0648094805003024710BB
:1045D6001283C79006ABE0FAA3E0FBFDAC02123DE6
:1045E600E88C4E8D4F1283F3AD03AC02123DE8907A
:1045F6001591ECF0A3EDF0901435E0FF640560171B
:10460600EF641C6012EF641A600DEF64086008EF37
:10461600641D60030247101283F3D3954FE54E6481
:0B46260080F8EE6480985003024710FB
:104631009006ACE0254FFD9006ABE0354ECDC39F13
:10464100CD9EFCE412398AC004C005C006C0071221
:1046510083F3C39006ACE09FFD9006ABE09EFCE4C3
:1046610012398AD003D002D001D0001283FC900409
:104671008812415F12837E123F93EC1239859018A4
:104681006012415F1237611283FF128360602090D4
:104691000181E0FF75F0081282C712415FE8494AC3
:1046A1004B700CEFD394004006900181E014F09020
:1046B10018601283CA90048812415F123F861283E8
:1046C1008412417BEBC3941F503912836060319097
:1046D10003AEE012838912415F900181E075F00819
:1046E1001282C7124143123F93EC123985E4FBFA5F
:1046F100797A78441283FC90186012414312949F96
:0F470100128395900181E0C3941F5003E004F0F0
:1047100012837E90048812417B901435E0FF641A66
:104720007003024D13EF64087003024D131282CD23
:10473000EC9EC364809480400512844F80061282F0
:10474000CD128425D3901874E09FEE6480F8901801
:1047500073E064809850381282CDEC9EC3648094DC
:1047600080400512844F80061282CD128425901855
:1047700073E0FCA3E0FDC374689DFD74019CFCD351
:10478000EF9DEC6480F8EE6480985003024D139026
:10479000158D128202124D50C004C005C006C0071C
:1047A0009015B012821CC004C005C006C00790045A
:1047B0006F12821CD003D002D001D00012366CD010
:1047C00003D002D001D00012849490187712843163
:1047D0009018774005124143800312849DC004C0A5
:1047E00005C006C0071282EE1282E5D007D006D0BF
:1047F00005D00412390760025003024AD690187B94
:1048000012843190187B4005124143800312849D2D
:10481000C004C005C006C0071282EE1282E5D007B0
:10482000D006D005D00412390760025003024AD6E0
:07483000E51D6003024D13BA
:10483700901870F0A3F0A3F0751D011282DF1237F4
:1048470061C004C005C006C0079018771282E21243
:104857003761D003D002D001D000124E1C901864EB
:1048670012417B9018811282F1C004C005C006C0B6
:10487700079018811282F1D003D002D001D0001224
:104887003761C004C005C006C00790187F1282F1C7
:10489700C004C005C006C00790187F1282F1D0037C
:1048A700D002D001D000123761D003D002D001D09E
:1048B7000012367012C83D90186812417BE4FFFE63
:1048C7007D7A7C4490186412415F123761901868B2
:1048D70012415F12386AE4FBFA794878421236705F
:1048E7001239C390186C12417B901435E024FB6099
:1048F7001C24EA601314601F14601C24FE60042447
:1049070006701A9018708012901871800D901871A7
:104917007401F0A3F080069018727401F09018707B
:03492700E060202D
:10492A00E4900482F0A3F0900425F0F54EE54E12CF
:10493A0084A3124187FFFFFFFF054EE54EB484EDC5
:10494A00901872E070030249E712837E90186C1285
:10495A00415F123F8690041D12417BD3900483E08D
:10496A009484128470502B12837EC004C005C00642
:10497A00C0071284057802C333CE33CED8F924D3C4
:10498A00F58274153EF583D007D006D005D00412FF
:10499A00417B901435E0641D604312834A12840DF2
:1049AA00128297E4FFFE128A4C900421124143AB13
:1049BA0007AA06A905A80412837EC31240E240187A
:1049CA0012837E124DEE9003AEE0FBC39420500D8D
:1049DA001282B612839280EEE4FF12DBB290187153
:1049EA00E07006901870E0605D90186C12414312F6
:1049FA0040BE90041D12417B90186412849D90045D
:104A0A008412417BE4901591F0A3F090048812413E
:104A1A008700000000E49003AEF09003AEE0FFC30D
:104A2A009420501375F008EF12838C12418700000E
:104A3A00000012839580E31283BD90048275F00111
:104A4A00123E7312D722901435E024E7602124FE27
:104A5A00605714606414606B24FE6003024D137483
:104A6A0005124D946003024D13124D14028A4C1222
:104A7A00845A7013901435741AF0124DB4124DDB27
:104A8A007ADE790A024AAD12829E90047C1282482A
:104A9A00741C124D947006124D14128A4C7B007AC3
:104AAA0000790012835A024C5112829E90047C12A1
:104ABA008248901435741CF02212822D9014357499
:0C4ACA001B8005901435741EF002AE9D98
:034AD600E4F51DE7
:014AD90022BA
:104ADA00751D01900482E4F0A304F0900488124149
:104AEA00870000000090041D12418700000000901A
:104AFA000421124187FFFFFFFFE4900425F0900490
:104B0A008412418700000000E4901591F0A3F09010
:104B1A0003AEF09003AEE0FFC394845010EF12840A
:104B2A00A3124187FFFFFFFF12839580E6E49003FB
:104B3A00AEF0128384124187000000001282C31271
:104B4A00418700000000128395E0B420E51283BD7E
:104B5A007B017A187985F55F7560027F107E0212F3
:104B6A00CAB790046B1283769018951283B4900496
:104B7A002C1283709018991283B49004301283D047
:104B8A0075F01C90189F12846590047AEEF0A3EFDA
:104B9A00F07B017A1879857561007562021283ECDF
:104BAA007E0012CD03124DB4901435E0FF641860F4
:104BBA0005EF6409703C12845A7020124DDB7ADECC
:104BCA00790A12835A901435E0B40906741AF0026D
:104BDA004C3D9014357408F0024C3D901435741D08
:104BEA00F0124DFF12835412AE9D12829E90047CE5
:104BFA00803E124E101282837F6F7E00128A4C1200
:104C0A00834A7561237562E81282927F037E0012DD
:104C1A008A4C1283549014357405F090042C124176
:104C2A004390158D12417B9004301282AD90047A24
:104C3A00128248901435E0FF64087003024D13EFA6
:0A4C4A00641D7003024D1302D7220F
:104C5400901435E0641A702712822D901435741B59
:104C6400F0124E1012AE9D12837E124DEE9003AEE2
:104C7400E0FBC3942050311282B612839280EE90EE
:104C84001435741EF0755E00755F077560FF7561FD
:104C9400067562F175632D7B7A7A007D187C00E4D9
:104CA400FFFE128A4C124DFF12835412837E90151C
:104CB400D712417B0B7A1A7995755F007560047F72
:104CC400107E0212CAB790046B12837675F00C90B2
:104CD4001A951283B790044112837075F00C901AE0
:104CE400991283B79004451283D075F00C901A9FE3
:104CF40012846590047CEEF0A3EFF07B017A1A79BC
:0F4D0400957561007562041283EC7E0012CD0379
:104D130022F55E755F087560FF7561237562F07536
:104D2300632D7B08FA7D17FC7F6FFE128A4C755E3C
:104D330000755F087560FF7561237562E875632D03
:104D43007B087A007D177C007F037E0022901CA5E0
:104D530012415F12366C7B807A7B79DB784712379E
:104D63006190187712417B7BE17A2E7965784290C6
:104D73001CA512414312386A12AD777BD67A527959
:104D83001A784C123761E4FBFA79B4784312386A23
:104D930022901435F07BFF7A1379AD7D2D12C40870
:104DA30074FFFFFEFDFC90042112415FC31240CC4F
:104DB30022E4FF12CE97755E00755F0E7560FF7576
:104DC300611375620B75632D7B517A007D047C0042
:104DD3007F157E00128A4C227BFF7AD9799575550F
:104DE3002D7D017F0312C0417BFF229004211241DC
:104DF3007B7F0112DBB2E49003AEF0227BFF7AD912
:104E030079AA75552D7D047F0312C041227BFF7A59
:104E13001379AD7D2D12C4082212367012C83D22BB
:10DD14007B017A1579D7901432E024E6FF12832E22
:10DD2400FE90000EE07C002FF562EC3E1283EA7E4A
:04DD34000002CD0319
:10C4BF00128316CD2FF560EE3DF55F7F107E0212D1
:10C4CF00CAB71284AC90021E1241B8124143AB0797
:10C4DF00AA06A905A804900421124143D31240E2F1
:05C4EF00500302C574BA
:10C4F400900421128376540375F08490021E1283F3
:10C50400B7E4F555F556E556AE557803C333CE3347
:10C51400CED8F92435F58274003EF583124143C028
:10C5240004C005C006C007E556AE557802C333CE35
:10C5340033CED8F9FF1284AC90019E1241B8E58243
:10C544002FF582E5833EF583D007D006D005D004CD
:10C5540012417B0556E55670020555642045557019
:10C56400A5128316CD2FF562EE3D1283EA12CD0398
:01C5740022A4
:10CF19008B508A5189529000011283A254E075F016
:10CF290008AB53AA54A95512843CAB53AA54A9552A
:10CF390012844730E20744F88FF0123F3A9000021A
:10CF490012839C541C75F040AB56AA57A9581284F9
:10CF59003CAB56AA57A95812844730E20744F88FC8
:10CF6900F0123F3A90000312839C5403FEE42DFF14
:10CF7900EC3EAB59AA5AA95B8FF0123F3AAB59AABA
:10CF89005AA95B12844730E10744FC8FF0123F3AFB
:01CF99002275
:04D1CD008E538F549A
:10D1D100AE04AF05EC12398AC004C005C006C00711
:10D1E100AC53AD54EC12398A8F5C8E5B8D5A8C59DD
:10D1F100D007D006D005D00412D0151284B6124142
:10D20100437BE07A2E796578421237611284B61237
:10D2110083CA901CADEEF0A3EFF02468FFEE340159
:10D22100FE7C017D68123E3D901CADECF0A3EDF05B
:03D23100FFAE0449
:01D2340022D7
:10D2FF00436C65616E696E67005061636B696E6741
:10D30F0020257500494F20436C65616E696E67007B
:10D31F00494F205061636B20257500564F4C545375
:10D32F00004F4E004F4646004472697665724100C9
:10D33F004361724100547261636B4100416E616CD5
:0DD34F006F6778004469676974616C78004D
:10782B009018823395E0FE75F019EF1241B8EE75A2
:10783B00F019A42583F583E022901844E54775F0F1
:10784B00190241B8901854E54775F0190241B8F088
:10785B00901A2FE55575F0190241B8901856E54767
:10786B0075F0190241B8FDACF0EF75F0190241B893
:10787B0075F028E5479018A41241B87401F075F023
:10788B0028E5479018A51241B8E4F09018A675F0BA
:10789B0028E5470241B8901A35E55575F0190241B4
:1078AB00B8A3F07A1879827B01E4F55FF5607F105D
:1078BB007E0222901A3BE55575F0190241B875F01E
:1078CB001CE5479018971241B8E4F0A3F075F01C33
:1078DB00901899E5471241B8E4F0A322E54775F0FB
:1078EB0024A4242BF9741935F0A801FC7D017BFF2E
:1078FB007AD37930124399E54775F024A42437F9EC
:10790B00741935F0A8017AD37933FC7D017BFF0222
:10791B004399FDACF0EF75F0190241B8FE75F01903
:10792B00ED1241B8EEF0A3EFF07A1879827B01E407
:10793B00F561F5627D107C027F022275F028E54728
:10794B0090187F0241B8E54775F0190241B8901ABB
:10795B0041E55575F0190241B87404F075F016E560
:10796B00479019561241B87417F0A37470F0901920
:10797B005875F016E5470241B8FFED75F019024155
:10798B00B8E54775F0190241B8E4F5487B017A1860
:10799B00797F227414F090189875F028E54702410E
:1079AB00B87D017BFF7F087E00123D03E54722EF88
:1079BB0075F0190241B890187F74FFFFFEFDFC12A1
:1079CB00415FC30240E290187F75F084E54A124193
:1079DB00B8E54975F084A42583F58322E547A424F3
:1079EB007FF9741835F0A801FC7D017B012290040E
:1079FB0092E0FFA3E0901A95CFF0A3EFF022901442
:107A0B0032E024E7FF901431E034FF22ED75F019DA
:107A1B000241B875F019E5470241B875F019EF123C
:107A2B0041B8E0FFA3E0901A97CFF0A3EFF0E54742
:107A3B002275F010901884E5471241B8E022901897
:107A4B009375F01CE5470241B89018A075F028E536
:107A5B00470241B875F024E54790191F0241B8ABB6
:107A6B0025AA26A927023F3AAB4BAA4CA94D227B4C
:107A7B00017A187982901A92123E8985F062F5612B
:107A8B0022901A92E0FCA3E0FD22F07B017A187998
:107A9B001922FDA3E0901A95CDF0A3EDF0901A9466
:107AAB00EFF022AB48AA49A94A22E0FEA3E0FF90DF
:107ABB001A97E022901A94E02401F568E433F567F5
:107ACB007B01227B017A1879828C5F8D607F107E1F
:107ADB00022274FFF0A3F075F01922901A97E0FEC2
:107AEB00A3E0FF22AB28AA29A92A22E0FFA3E0905A
:107AFB001A97CFF0A3EFF022FEA3E0FF901A95E0C8
:107B0B00FCA3E0FD22CDF0A3EDF0901A92E0FDA3D3
:107B1B00E0227B017A18795B22E475F001023E7357
:107B2B00901A92F0A3EFF0A37415F0227D017BFF66
:107B3B007E00123D03E5472212417B90181DE0FFAA
:107B4B00A3E022E0FEA3E0FF901A94E0FD22E58281
:107B5B002FF582E5833EF58322EE8FF0023F3AA3A9
:107B6B00F09004C7E022901432E024E622EEF0A35A
:077B7B00EFF0901A93E022E5
:06B633008B258A26892701
:10B639007A01799E1278B212CAB7E475F004127AC7
:10B649006A127A09127AEF8FF0123F3AE4901815CC
:10B65900F0901815E0FFC39415400302B714900148
:10B669009E1279BAE0FEA3E0F47002EEF4700302D0
:10B67900B70B901815E09001A0127849E0FCA3E0FF
:10B68900F47002ECF4607BAB25AA26A927123E9F31
:10B699009001A0127871E0FEA3E0D39DEE9C4011C9
:10B6A900901815E09001A0127854E0FEA3E0FF8005
:10B6B90004AE04AF05EE8FF0127A6A901815E0FF18
:10B6C9009001B2127860E0FCA3E0F47002ECF4603F
:10B6D90031127AEF123E9F9001B212791DE0FEA35A
:10B6E900E0C39DEE9C5011901815E09001B21278BC
:10B6F9006BE0FEA3E0FF8004AE04AF05127AEF12FF
:10B709007B64901815E004F002B65AAB25AA26A965
:10B7190027E475F001123F02127AEF74FFF5F00287
:02B729003F02DD
:068787008B488A49894A73
:10878D0090018F124187FFFFFFFF9001701241870B
:10879D00FFFFFFFF74FF900137F0A3F0900135F05C
:1087AD00A3F07B017A187960755F007560017F1009
:1087BD007E0212CAB7901860E0901A70F09018619E
:1087CD00E0901A71F0901862E0901A72F0901863B0
:1087DD00E0540F901A73F0E024FC600C240270102A
:1087ED009015937414F0800E9015937428F08006F4
:1087FD00901593740AF0901864E09004C7F09000FF
:10880D001C7402F0740F127B6A30E7034403F0907E
:10881D001409E0FCA3E0FD7F017E0012D0F77B017F
:10882D007A1879601278B412CAB7127AAEE475F07C
:10883D0004123F3AE4901A74F0127A09127A738F87
:10884D00F0123F3AE4901A75F0901A75E0FFC39458
:10885D0015400302891E9018601279BAE0FEA3E05C
:10886D00FFBEFF16BFFF13901A74E0600302891557
:10887D00A3E004901A74F0028915901A75E0FF9028
:10888D001862127875E0FCA3E0F47002ECF46078E5
:10889D00127AAE123E9F901862127871E0FEA3E03C
:1088AD00D39DEE9C4011901A75E09018621278A637
:1088BD00E0FEA3E0FF8004AE04AF05127AAE127B9A
:1088CD0064901A75E0FF9018741278C3E0FCA3E071
:1088DD00F47002ECF46031127A73123E9F901874AA
:1088ED0012791DE0FEA3E0C39DEE9C5011901A7508
:1088FD00E0901874127921E0FEA3E0FF8004AE042D
:10890D00AF05127A73127B64901A75E004F0028839
:10891D0056901A74E07002FF22127A73123E9FFF76
:10892D00AEF0127AAE123E9FC39FE5F09E40037FDC
:10893D000022E475F001123F02127A7374FFF5F014
:10894D00123F02127AAE123E9FFFAEF0D39405EEA7
:10895D009400400280047E007F05901A74E0FD9023
:10896D001847127953EEF0EF127B6AFF600B127A03
:10897D0073123E9FFBAAF080047AFF7BFF9018597B
:10898D00127A17EAF0A3EBF090185B127A17127AAD
:10899D00DDED9018581241B8EFF0901A70E0901874
:1089AD005D127984EFF0901A72E090185E1279845E
:1089BD00EFF0901A71E0FF75F019ED90185F12410C
:1089CD00B8EFF0901435E01242A18A02058A240610
:1089DD008A0C078A04088A1C098A020A8A0C0B8AE7
:1089ED00140C8A240D8A04178A1C198A021F8A0402
:1089FD002000008A028028901A73E02410802490B1
:108A0D001A73E02420801C901A73E0243080149097
:108A1D001A73E02440800C901A73E0245080049067
:108A2D001A73E0FFA3E090185712795EEFF07A18F1
:0E8A3D007960127938FE12CD03901A74E0FFB2
:018A4B002208
:0ABCBB008F558C568D578A588B590F
:10BCC50015557B017A1A792D1278B412CAB79001ED
:10BCD500701279C47037901A3712785E124187FF57
:10BCE500FFFFFF901A311278A4124187FFFFFFFF73
:10BCF5001278BE74FFF0A3F01278A174FFF0A312BE
:10BD0500785A127ADDE555901A2D02BD8C90017096
:10BD1500124143901A311278C112417B900135E0EE
:10BD2500FEA3E0FF1278A1EEF0A3EFF090018F12D1
:10BD35004143901A3712795C12417B900137E0FE3E
:10BD4500A3E0FF1278BEEEF0A3EF12785AE556F0A5
:10BD5500A3E557F09004C7E0602275F019E555900A
:10BD65001A3F1241B8E0FEA3E0F47002EEF4600C55
:10BD7500127959E558F0A3E559F080131279591253
:10BD85007ADDE555901A3F1241B874FFF0A3F07BB8
:0CBD9500017A1A792D12793AFE02CD03D2
:10ABB700E4901A2BF0A3127A951278B512CAB7E46B
:10ABC700901A2BF0A3F0901A2BE0FEA3E0FFC3949A
:10ABD70015EE9400400302AD2E901819127832FE3C
:10ABE700A3E0F47002EEF4700302AD25901A2BE097
:10ABF700FEA3E090182175F019127836FCA3E0F453
:09AC07007002ECF4600302AD1CC4
:10AC1000901A2BE0FCA3E0FD901819127849EC1271
:10AC2000783AFBA3E0901A29CBF0A3EBF090182B15
:10AC3000127985EC12783AFDA3E0901815CDF0A3B7
:10AC4000EDF090182D127832FFA3E0901817CFF096
:10AC5000A3EF127A95901A29E0F55FA3E01278B776
:10AC600012CAB7901819124143900170127B439099
:10AC70000135CFF0A3EFF0127B71127A0FFEC39073
:10AC80001A2AE09F901A29E09E400302AD1C127A16
:10AC900096E0F55FA3E01278B712CAB774FFFFFE23
:10ACA000FDFC9018191279CA7069127A96901A2AC6
:10ACB000E024FFF560901A29E034FFF55F7F107EF5
:10ACC0000212CAB790181912414390018F127B43A8
:10ACD000900137CFF0A3EFF0901817E0B4FF12A364
:10ACE000E0B4FF0D901815E0FFA3E0A3CFF0A3EFB1
:10ACF000F0901A2BA3E004FF901A2AE024FFFD90A5
:10AD00001A29E034FFFC901817E0FAA3E0FB12BC0C
:0CAD1000BB8009901A29127B2402AC774A
:10AD1C00127A961278B412CAB7901A2B127B2402AC
:02AD2C00ABCDAD
:01AD2E002202
:027125008F4792
:10712700900492127AF6901A92E4F074051278ACF1
:0371370012CAB7C2
:10713A001279F9901A947415F0E490186DF0901879
:10714A006DE0FFC36480949540030271DBEF12780F
:10715A002BFCA3E0F47002ECF4606D9018821278B4
:10716A0032FEA3E0FF127A8CB50725ECB506219012
:10717A00186DE0FF90188412782EFEA3E02401FF18
:10718A00E43E127B2B1279F990186D74FFF0803867
:10719A0090186DE0FF12782BFAA3E0D39DEA9C4089
:1071AA0027901882127832127B03C3EF9DEE9C500F
:1071BA001790186DE0FFFD3395E0FC901882127964
:1071CA0085EC12783A127A9D90186DE004F00271FB
:1071DA0048901A94E064157033900492127AB56E4E
:1071EA007003A3E06F70030272C2E547600CE4FF0C
:1071FA0012CE977AD279FF12748F901A92127AB5B8
:0C720A00FCA3E0FDAB4712CBE60272C211
:10721600901A94E0FF901882127986E0FDA3E09020
:10722600185C127B1090185ECDF0A3EDF0901884D8
:10723600127A26601FE4FF12CE977564FF7565D338
:10724600756608127ABF7A187960126D127A187903
:107256006012749D90185CE0FFA3E090185ACFF07E
:10726600A3EFF0127AE690185AE0FCA3E0FDD39F54
:10727600EC9E501D127ACE12CAB7E475F001127A4E
:107286007A12793F7E0012CD0390185A127B248021
:10729600D21278AE12CAB790185E127B4E90188240
:1072A60012798E127B7824FFFF901A92E034FF90B9
:0972B6001884127927FE12CD03A1
:1072BF0002713A901433127AF6127B71FE127A1021
:0B72CF00901A92F0CE1278AC12CAB7F1
:1072DA009014331279FC901A947415F0E490188182
:1072EA00F0901881E0FFC36480949540030273AA6A
:1072FA00EF3395E0FEA3127832FCA3E0F47002ECBF
:10730A00F470030273A1901894127832FEA3E0F489
:10731A007002EEF470030273A1901881E0F93395BC
:10732A00E0FE901894127832FCA3E0FD901A92E0E5
:10733A00FAA3E0FBB50524EAB50420901896127862
:10734A0032FEA3E024FFFFEE34FF127B2B901433AE
:10735A001279FC90188174FFF0803CE9FF3395E0C4
:10736A00FE901894127832FCA3E0C39BEC9A502743
:10737A00901894127832127B03D3EF9DEE9C40173B
:10738A00901881E0FFFD3395E0FC901894127985FE
:10739A00EC12783A127A9D901881E004F00272EBAE
:1073AA00901A94E06415702C901433127AB56E70AA
:1073BA0003A3E06F700302748EE547600CE4FF12CA
:1073CA00CE977AD3791312748F127AE6127A8C7B5B
:0473DA000102CBE6FB
:1073DE00901A94E0FF9018941279BBE0FDA3E09010
:1073EE001870127B10901872CDF0A3EDF0901896D5
:1073FE00127A26601FE4FF12CE977564FF7565D36F
:10740E0075661F127ABF7A187974126D127A18790E
:10741E007412749D901870E0FFA3E090186ECFF078
:10742E00A3EFF0127AE690186EE0FCA3E0FDC39F86
:10743E00EC9E4021127ACE12CAB774FFF5F0127A82
:10744E007A12793F7E0012CD0390186E74FFF5F01C
:10745E00123E7380CE1278AE12CAB7901872127B9B
:10746E004E901894127A18127B782401FF901A927B
:0D747E00E03400901896127927FE12CD031D
:03748B000272DAB0
:10748E00227BFFE4F55375542D7F0112BDA1227BA3
:0D749E0001E4F55375542D7F0112BDA122AC
:02B430008F4744
:10B43200127B1D1278B412CAB7901842127847E0F4
:10B44200FEA3E0F47002EEF4601F127844E0FEA363
:10B45200E0F47002EEF46011901842127852E0FEAD
:10B46200A3E0FF12784412B527127B1D1278B412A2
:10B47200CAB712784FE0FEA3E0F47002EEF4601C4B
:10B48200127866E0FEA3E0F47002EEF4600E127829
:10B4920066E0FEA3E0FF12784F12B527127B71120D
:10B4A2007A0FFE7C00EF2547FFEC3EFE12D6D91242
:10B4B2007B1D1278B412CAB712786674FFF0A3F03B
:10B4C20012784F74FFF0A3F012784474FFF0A3F0E7
:10B4D20090184212786974FFF0A3F090184C127918
:10B4E20051124187FFFFFFFF901846127951124116
:10B4F20087FFFFFFFF90185012798C74FFF0A3F0C2
:10B5020090184A12798C74FFF0A3F0901853127AB3
:10B512001EE4F0901852127A1EE4F0127B1D12798A
:05B522003BFE02CD0319
:0BB52700E0FCA3E0FDE4FB12CBE622F9
:10676900127994F55F7560017F107E0212CAB71223
:1067790079C16003026818754801901881F0901872
:1067890080F090187FF09018837480F090188274CC
:0567990002F0E4F547E9
:10679E00785A7C187AD379371279AC2441901860E4
:1067AE00F0E54775F010A42484F974181279EF7A85
:0667BE0018795A124399FC
:0A67C4000547E547B40CD3E4F547A0
:1067CE0078627C187D017BFF7AD3793F7F05127941
:1067DE00B22441901865F0E54775F016A42444F9EB
:1067EE0074191279EF7A18796212439975F016902E
:0F67FE0019541278DE127964741BF0A37458F0EA
:10680D000547E547640C70B90268B590187FE0D371
:10681D00940C4005E4F0754801901880E0D3941075
:10682D004005E4F0754801901881E0D3940C4005C3
:10683D00E4F0754801E4F547127A3CFF12DE514051
:10684D0015127A3C601075F010E5479018841241CE
:10685D00B8E4F07548010547E547C3940C40D9E409
:10686D00F54790194412797CE0FF12DE51403075E6
:10687D00F016901944127A42602575F016E547908E
:10688D0019441241B8E4F075F016E5479019541209
:10689D0078E0127964741BF0A37458F07548010503
:1068AD0047E547C3940C40BAE548601112799775D6
:1068BD00610075620112793F7E0012CD0312799746
:1068CD00755F007560027F107E0212CAB7E4F5484D
:1068DD0090187FE0F4704FA3E0F4704A754801F50D
:0168ED004763
:1068EE0078677C187AD379447F07127B37244190DE
:1068FE00186CF075F01C1279E77A187967124399C3
:10690E00127A491241870000000090188F127A4CBB
:0B691E00124187000000001278C9F051
:106929000547E547641070BD804DE4F54775F01CD7
:10693900127949E0FF12DE51403475F01C12794991
:10694900E0602B75F01C127949E4F0127A49124182
:10695900870000000075F01CE54790188F1241B8B8
:10696900124187000000001278C9F07548010547F7
:10697900E547C3941040B6E54860111279977561EF
:106989000075620212793F7E0012CD03127994F5E7
:106999005F7560047F107E0212CAB790187FE0F419
:1069A9006003026A48A3E0F46003026A487548017B
:1069B900F54775F00CE5479018831241B8124187E5
:1069C9000000000075F00C1279491241870000009F
:1069D9000075F00CE5479018871278E0F075F00C17
:1069E900E5479018891278E0F00547E547B410C2E9
:0369F900E4F5477B
:1069FC0075F014E5479019411278E0F075F014E544
:106A0C004790193F1278E0F0F549F54AE54A25E040
:106A1C00FFE54933FE75F014E5479019431241B870
:106A2C00127B59E4F0A3F0054AE54A70020549646B
:056A3C0008454970D778
:106A41000547E547B40CB4E54860111279977561C3
:106A51000075620412793F7E0012CD03E4F548F51A
:016A610047ED
:106A6200127994901432E024FC127A0FFE7C00EF2B
:106A72002547F560EC3EF55F7F107E0212CAB7E44F
:106A8200F549F54A1279D112414374FFFBFAF9F83C
:066A9200C31240CC703D70
:106A9800754801F54BF54CE54CAE4B7802C333CE47
:106AA80033CED8F9FF1279D1127B591241870000F1
:106AB8000000054CE54C7002054B6420454B70D72F
:0D6AC8009018FF1279D4124187FFFFFFFFE5
:106AD500054AE54A700205496404454970A3E5483D
:106AE5006020127997901432E024FC127A0FFE7C14
:106AF50000EF2547F562EC3EF56112793F7E001205
:026B0500CD03BE
:106B07000547E547C394045003026A62127994F576
:106B17005F7560037F107E0212CAB71279C16003E6
:086B2700026C23754801F547DB
:106B2F00786E7C187AD3794B1279AC243090187424
:106B3F00F075F0281279E77A18796E124399E547C4
:106B4F0075F028A4248BF9741835F0A8017AD3793D
:106B5F002A12791590189712789912799E124187F7
:106B6F000000000090189C1279A412418741A000E8
:106B7F0000127A5412418741A0000012787B74F8FA
:016B8F00F015
:0B6B90000547E54764047097E4F547F3
:106B9B0078767C187AD379537F09127B372430901F
:106BAB00187DF0E54775F024A4241FF974191279A8
:0B6BBB00EF7A1879761243991278E700
:106BC6000547E547B407CEE4F54775F005E5479078
:106BD6001A1D1278E0F075F005E547901A1B127839
:106BE600E0F075F005E547901A1F1241B87401F000
:106BF6000547E547B402D3E4F54774252547F582F2
:106C0600E4341AF583E4F00547E547B402EC901A3C
:106C1600257403F0901A277405F0026CA0E4F5477A
:106C2600127946E0FF12DE514040127946E0603AA2
:106C3600127946E4F0901897127A5712799E12410B
:106C4600870000000075F028E54790189C1241B8AF
:106C560012418741A00000127A5412418741A000D8
:106C66000012787B74F8F07548010547E547C39430
:106C76000440ADE4F547127A5FE0FF12DE514011A1
:106C8600127A5FE0600B127A5FE4F01278E77548DB
:106C9600010547E547C3940740DCE54860111279D2
:0F6CA6009775610075620312793F7E0012CD036E
:016CB50022BC
:10D35C008B5E8A5F8960E92DF9EA3C8B61F5628905
:10D36C0063E4F564F565C3856283856382E5609546
:10D37C0082E55F9583502F785EE475F0011241CD04
:10D38C00123D29FFE5656F25E0FFE433FE74662F3F
:10D39C00F58274243EF583E564FFE493F56474012F
:0AD3AC00936FF56580C0AE64AF65B5
:01D3B6002254
:1094880002080001010C00020D0000021200010197
:069498001600021700009F
:06D3B7008B5E8A5F8960B5
:10D3BD00858461AB5EAA5FA960900002123ECA45EA
:10D3CD00F070F0AB5EAA5FA96090000C124218C01D
:10D3DD0003C002C001AB5EAA5FA9609000071242B4
:10D3ED0048AB5EAA5FA960900002EC8DF0123F5928
:10D3FD00123D297006F584D2998005758401D29964
:03D40D00856184B2
:01D4100022F9
:10DE4000AE84E4F5848F9B30FFFDC2FFAF9B8E84D0
:01DE500022AF
:10D46800AF8475840F759601758C67E4FDFC0DBD5E
:10D4780000010CE4B505F7ECB401F3E58C30E7FBEB
:10D48800759701E4F58A758905F58475B720758463
:10D498000F758D01758F01758E03FCFD0DBD0001A3
:10D4A8000CE4B505F7ECB401F3438902E58930E4EF
:06D4B800FB7597028F8452
:01D4BE00224B
:0E991A008B258A2689278F2B8E2A8D298C2853
:1099280085842C123D2914606F046003029B1AE49D
:10993800F58475911590000A123D4224BB601824E5
:10994800F6601424EA601024F760071460092421E3
:10995800700875985080037598D0E4F58475C8042C
:1099680075C908AB2BAA2AA929A828FFFE7D657C02
:109978000412402CE47B10FAF9F812402C1240BE75
:109988008ECB8FCA74FFF5CDF5CCD2CAE4F584C26C
:1099980099C298D2AC029B1A758401AB25AA26A954
:1099A8002790000A123D4224BB601824F660142454
:1099B800EA601024F760071460092421700875987C
:1099C800108003759890E4F58453890F438920AB80
:1099D8002BAA2AA929A828FFFE7D657C0412402C01
:1099E800E47B02FAF9F812402CE4FB7A01F9F81248
:1099F800402CE47B01FAF9F8D31240E24026AB2B65
:109A0800AA2AA929A828E4FFFE7D657C0412402C17
:109A1800E47B02FAF9F812402C1240BE8F8D438E77
:109A280010029B0BAB2BAA2AA929A828E4FFFE7DCC
:109A3800657C0412402CE47B02FAF9F812402CE40D
:109A4800FB7A01F9F812402CE47B04FAF9F8D312F6
:109A580040E24031AB2BAA2AA929A828E4FFFE7DC1
:109A6800657C0412402CE47B02FAF9F812402CE4DD
:109A78007B04FAF9F812402C1240BE8F8D538EECFD
:109A8800438E01807EAB2BAA2AA929A828E4FFFED1
:109A98007D657C0412402CE47B02FAF9F812402C14
:109AA800E4FB7A01F9F812402CE47B0CFAF9F8D3BC
:109AB8001240E2AB2BAA2AA929A828E4FFFE7D655B
:109AC8007C04401F12402CE47B02FAF9F812402C67
:109AD800E47B0CFAF9F812402C1240BE8F8D538E9D
:109AE800EC802012402CE47B02FAF9F812402CE4B6
:109AF8007B30FAF9F812402C1240BE8F8D538EEC51
:109B0800438E02858D8BD28E758401C299C298438B
:059B1800E740852C84EC
:019B1D002225
:10DE2E00AF84E4F584759D04759A70C2FFD2F88FA5
:01DE3E00845F
:01DE3F0022C0
:10DBDC00AD84758401E4F5C8F5C9EF2408FFE43E73
:10DBEC00FEC3E49FFFE49EF5CB8FCA74FFF5CDF521
:09DBFC00CC43E70143C8048D8409
:01DC050022FC
:03002300029F0633
:109F0600C0E0C0F0C083C082C0D075D000C000C021
:0D9F160001C002C003C004C005C006C007A2
:109F2300E59820E00302A09985997D5398FEE50802
:109F3300600302A068E50924FE6063147003029FB6
:109F4300D214700302A0372403600302A068750DC6
:109F530000750E00E57D6416600302A06890049FFF
:109F6300E0FF7E007C027D1D123DD69004A31241CA
:109F7300E6E92FF9EA3E8B0FF5108911FA050EE594
:109F83000EAE0D7002050D14F5828E83E57D123D34
:109F9300B4E57D620C75080075090202A068AB0F79
:109FA300AA10A911050EE50EAE0D7002050D14F5EC
:109FB300828E83E57D123DB4E57D620CE50E640679
:109FC300450D600302A068F50875090302A068AB9C
:109FD3000FAA10A911050EE50EAE0D7002050D14A2
:109FE300F5828E83E57D123DB4630CFFE50C657D40
:109FF3007031AB0FAA10A911900003123D42750AEC
:10A0030000F50B750B00F50A900004123D42250B79
:10A01300F50BE4350AF50A450B604475080075092C
:10A02300048042750D00750E0075080075090175F1
:10A033000C008031AB0FAA10A911050EE50EAE0D71
:10A043007002050D14F5828E83E57D123DB4E50B98
:10A053002407FFE4350AFEEFB50E0AEEB50D0675CB
:10A063000800750905E509640545087029F50875B3
:10A073000901F50DF50EF50C9004981241E6E94A35
:10A083004B7013AB0FAA10A9119004981241EF90D3
:10A09300049FE06401F0E59830E13A900496E070A3
:10A0A30002A3E0602190049B1241E6123D29F59939
:10A0B30090049CE475F001123E7390049674FFF5CE
:10A0C300F0123E73800C7B007A00790090049B129F
:05A0D30041EF5398FD70
:10A0D800D007D006D005D004D003D002D001D000DC
:0BA0E800D0D0D082D083D0F0D0E03286
:0300A30002A0F3C5
:10A0F300C0E0C0F0C083C082C0D075D000C000C033
:0DA1030001C002C003C004C005C006C007B3
:10A11000E59820E00302A28685997E5398FEE51219
:10A12000600302A255E51324FE606314700302A1CC
:10A13000BF14700302A2242403600302A255751702
:10A1400000751800E57E6416600302A2559004B104
:10A15000E0FF7E007C027D1D123DD69004B51241C9
:10A16000E6E92FF9EA3E8B19F51A891BFA0518E57D
:10A1700018AE177002051714F5828E83E57E123D26
:10A18000B4E57E621675120075130202A255AB1972
:10A19000AA1AA91B0518E518AE177002051714F5C1
:10A1A000828E83E57E123DB4E57E6216E518640674
:10A1B0004517600302A255F51275130302A255ABB1
:10A1C00019AA1AA91B0518E518AE1770020517146D
:10A1D000F5828E83E57E123DB46316FFE516657E3B
:10A1E0007031AB19AA1AA91B900003123D427514D5
:10A1F00000F515751500F514900004123D42251563
:10A20000F515E43514F51445156044751200751301
:10A2100004804275170075180075120075130175DA
:10A2200016008031AB19AA1AA91B0518E518AE173C
:10A230007002051714F5828E83E57E123DB4E51594
:10A240002407FFE43514FEEFB5180AEEB5170675BE
:10A250001200751305E513640545127029F5127592
:10A260001301F517F518F5169004AA1241E6E94A0C
:10A270004B7013AB19AA1AA91B9004AA1241EF90B4
:10A2800004B1E06401F0E59830E13A9004A8E07090
:10A2900002A3E060219004AD1241E6123D29F59938
:10A2A0009004AEE475F001123E739004A874FFF5BB
:10A2B000F0123E73800C7B007A0079009004AD129E
:05A2C00041EF5398FD81
:10A2C500D007D006D005D004D003D002D001D000ED
:0BA2D500D0D0D082D083D0F0D0E03297
:0300730002B9FFD0
:10B9FF00C0E0C0F0C083C082C0D075D000C000C00E
:0BBA0F0002C003C004C005C006C00751
:10BA1A0075840153C87F90041AE475F001123E73CD
:10BA2A009004C5E0FEA3E0FF90041AE0B50619A34E
:10BA3A00E0B507149004C5E475F0A0123E739001B6
:10BA4A0095E475F001123E73E4FDFC740A2DF5824B
:10BA5A00E43415F583E0600D740A2DF582E434159B
:10BA6A00F583E014F00DBD00010CED64034C70DBAE
:10BA7A007C007D0075840FAF0574017E00A807085D
:10BA8A008005C333CE33CED8F9FFABD8EF5B702E27
:10BA9A00ED25E0FFEC33FE74142FF58274053EF5B4
:10BAAA0083E0FAA3E0C394FFEA94FF501174142FC1
:10BABA00F58274053EF583E475F001123E730DBDFF
:09BACA0000010CED64074C70ABA7
:10BAD300D007D006D005D004D003D002D000D0D0F8
:09BAE300D082D083D0F0D0E03213
:028D05008F25B8
:108D0700E4901895F0E5256012901578E07004A3BB
:108D1700E0640860069018957401F07B017A187971
:108D27001512D4BF901895E060037F002290188237
:108D3700E0F4600CE0D394745006E0C3944C500CFC
:108D47009018827460F09018957401F0901884E080
:108D5700B4FF09743CF09018957401F0901885E001
:108D6700B4FF097473F09018957401F0901815E02A
:108D7700FF12DE51400D901815E06007E4F09018DF
:108D87009504F0901829E0FF12DE51400D90182944
:108D9700E06007E4F090189504F090183DE0FF12AA
:108DA700DE51400D90183DE06007E4F090189504FF
:108DB700F090187EE07004A3E064DD700C901880DA
:108DC700E07004A3E06408601890187EE4F0A374D0
:108DD700DDF0901880E4F0A37408F0901895740102
:108DE700F090155FE0B4FF097465F0901895740171
:108DF700F090155EE0640260087402F09018951414
:108E0700F0901431E0FCA3E0FDB40015ECB41011B0
:108E170090157BE030E40AE054EFF0901895740168
:108E2700F0E4B50515ECB4201190157BE020E40AB9
:108E3700E04410F09018957401F0E5257003028F57
:108E470090901566E0FEA3E0FF90186EE06E700349
:108E5700A3E06F6015901566E0FFA3E090186ECF52
:108E6700F0A3EFF09018957401F0901568E0FEA359
:108E7700E0FF901870E06E7003A3E06F6015901527
:108E870068E0FFA3E0901870CFF0A3EFF09018957B
:108E97007401F090156AE0FEA3E0FF901872E06E8F
:108EA7007003A3E06F601590156AE0FFA3E09018C8
:108EB70072CFF0A3EFF09018957401F090156CE065
:108EC700FEA3E0FF901874E06E7003A3E06F6015D7
:108ED70090156CE0FFA3E0901874CFF0A3EFF0902B
:108EE70018957401F090156EE0FEA3E0FF901876D8
:108EF700E06E7003A3E06F601590156EE0FFA3E0CE
:108F0700901876CFF0A3EFF09018957401F09015B4
:108F170070E0FEA3E0FF901878E06E7003A3E06FA7
:108F27006015901570E0FFA3E0901878CFF0A3EFDD
:108F3700F09018957401F0901572E0FEA3E0FF9091
:108F4700187AE06E7003A3E06F6015901572E0FF6A
:108F5700A3E090187ACFF0A3EFF09018957401F082
:108F6700901574E0FEA3E0FF90187CE06E7003A3F9
:108F7700E06F6015901574E0FFA3E090187CCFF0C8
:108F8700A3EFF09018957401F0901895E060101217
:108F9700DA807B017A1879157D807C0012D0887B76
:0A8FA700017A15790D12D4BF7F0185
:018FB100229D
:10DA8000AF84E4F584787FF608F6A2AF33FEC2AF28
:10DA900043B701758F0718E6FC08E6F5828C83E42E
:0DDAA000F0F58F53B7FEEE24FF92AF8F8498
:01DAAD002256
:0AD088008B4A8A4B894C8C4D8D4E6B
:10D0920085844FE4F584787FF608F6A2AF33FFC2A9
:10D0A200AF43B701758F05E4F550F551C3E55195CE
:10D0B2004EE54D6480F8E5506480985029784AE442
:10D0C20075F0011241CD123D29FE787F0806E6185F
:10D0D200860470010614F5828C83EEF00551E55149
:10D0E20070CA055080C6E4F58F53B7FEEF24FF9255
:04D0F200AF854F8433
:01D0F6002217
:06D4BF008B3C8A3D893E12
:10D4C50085843FE4F540F541F584A2AF33F542C2CA
:10D4D500AF758F04E4FFFE0541E541AC40700205E0
:10D4E5004014F5828C83E493FD783CE475F00112D9
:10D4F50041CDED123DA20FBF00010EEF64804E70CD
:0DD50500D6E4F58FE54224FF92AF853F8408
:01D5120022F6
:0BDE6F0045726173696E672535640021
:0ECD03008E5A8F5B8C5C8D5D8B5E8A5F8960C3
:09CD110012DD38EF30E7F9C2F938
:10CD1A00E4F565F5660566E56670020565644045F5
:03CD2A006570F23F
:10CD2D00E55B6401455A70047F8480027F8712DEC3
:10CD3D0040E4FF12DE40E4FF12DE40E4FF12DE406D
:10CD4D00E4F563F564C3E564955DE55C6480F8E541
:10CD5D0063648098501DAB5EAA5FA960856482856F
:10CD6D006383123D42FF12DE400564E56470D60513
:10CD7D006380D2D2F9AD62AC61AF5BAE5A02CF9A8D
:08CF9A008E678F688C698D6AB7
:10CFA200901409E0FEA3E0FF12C9848F6B12DD38F2
:06CFB200EF30E7F9C2F9BF
:10CFB800E4F56CF56D056DE56D7002056C64404532
:03CFC8006C70F298
:10CFCB00E56B6010E5686401456770047F83801230
:10CFDB007F86800EE5686401456770047F8280025E
:10CFEB007F8512DE40E56AAE697806CEA2E713CEE6
:10CFFB0013D8F8FF12DE40AF6AEF25E025E0FF12F1
:09D00B00DE40E4FF12DE40D2F920
:01D0140022F9
:0CCE14008E3C8F3D8C3E8D3F8A408B4150
:09CE200012DD38EF30E7F9C2F928
:10CE2900E4F547F5480548E548700205476440457B
:03CE39004770F24D
:10CE3C00E53D6401453C70047F8480027F8712DEEF
:10CE4C0040E4FF12DE40E5405403FF12DE40AF41E8
:10CE5C00E54112DE40E4F545F546C3E546953FE570
:10CE6C003E6480F8E545648098501DAB42AA43A906
:10CE7C0044854682854583123D42FF12DE400546BD
:0ACE8C00E54670D6054580D2D2F9C4
:01CE96002279
:08D0F7008E4E8F4F8C508D51BD
:09D0FF0012DD38EF30E7F9C2F947
:10D10800E4F554F5550555E5557002055464404558
:03D118005470F25E
:10D11B00E54F6401454E70047F8480027F8712DEE9
:10D12B0040E4FF12DE40E4FF12DE40E4FF12DE407B
:10D13B00E4F552F553C3E5539551E5506480F8E59A
:10D14B0052648098500F7FFF12DE400553E55370F9
:07D15B00E4055280E0D2F967
:01D1620022AA
:02DD3800C2F92E
:10DD3A00E4F577F5780578E578700205776440456B
:03DD4A007770F2FD
:0CDD4D007FD712DE40E4FF12DE40D2F966
:01DD590022A7
:0ACAB7008E5A8F5B8B5C8A5D895EEE
:09CAC10012DD38EF30E7F9C2F98B
:10CACA00E4F563F5640564E5647002056364404552
:03CADA006370F294
:10CADD007FD212DE40E560AE5F7806CEA2E713CEC0
:10CAED0013D8F8FF12DE40AF60EF25E025E0FF120E
:10CAFD00DE40E4FF12DE40E4FF12DE40E4FF12DE12
:10CB0D0040E4FF12DE40E4FF12DE40E4F561F56221
:10CB1D00C3E562955BE55A6480F8E56164809850E1
:10CB2D001FE4FF12DE40AB5CAA5DA95E85628285C3
:10CB3D006183EF123DB40562E56270D4056180D06A
:02CB4D00D2F91B
:01CB4F0022C3
:08C984008E6E8F6F8C708D71B7
:0CC98C0075720112DD38EF30E7F9C2F9D6
:10C99800E4F575F5760576E576700205756440452B
:03C9A8007570F2B5
:10C9AB007FD212DE40E571AE707806CEA2E713CED1
:10C9BB0013D8F8FF12DE40AF71EF25E025E0FF1230
:10C9CB00DE40E4FF12DE40E4FF12DE40E4FF12DE45
:10C9DB0040E4FF12DE40E4FF12DE40E4F573F57431
:10C9EB00C3E574956FE56E6480F8E57364809850C9
:10C9FB001DE4FF12DE40BFFF047F0180027F008F2A
:10CA0B0072EF600A0574E57470D6057380D2D2F9A3
:02CA1B00AF72F8
:01CA1D0022F6
:04D690008E4F8F50DA
:09D6940012DD38EF30E7F9C2F9AC
:10D69D00E4F551F5520552E55270020551644045CD
:03D6AD005170F2C7
:10D6B0007F5012DE40E550AE4F7806CEC313CE1336
:10D6C000D8F9FF12DE40AF50EF25E025E0FF12DE73
:08D6D00040E4FF12DE40D2F934
:01D6D800222F
:04D6D9008E4F8F5091
:09D6DD0012DD38EF30E7F9C2F963
:10D6E600E4F551F5520552E5527002055164404584
:03D6F6005170F27E
:10D6F9007F8112DE40E550AE4F7806CEC313CE13BC
:10D70900D8F9FF12DE40AF50EF25E025E0FF12DE29
:08D7190040E4FF12DE40D2F9EA
:01D7210022E5
:0ACBE6008E488F498C4A8D4B8B4C12
:10CBF000E54C6005E4FF12CE9785484D85494ED33C
:10CC0000E54E954BE54D954A506CE54E54077055F1
:10CC1000C3E54B954EFFE54A954DFEC3EF9408EEF4
:08CC200094004041E54C60293D
:10CC28007564FF7565DE75666F854D67854E687B33
:10CC3800017A1A7999126D127B017A1A7999E4F5B9
:09CC48005375542D7F0112BDA1AA
:10CC5100AF4EAE4D12D6907407254EF54EE4354DCC
:10CC6100F54D8007AF4EAE4D12D6D9054EE54E704B
:05CC71008D054D8089D6
:01CC7600229B
:06BE85008B258A268927A7
:06BE8B00D2F8D2F9C2FA60
:10BE9100E4F52BF52C052CE52C7002052B644045AF
:03BEA1002B70F211
:02BEA400D2FAD0
:10BEA600E4F52BF52C052CE52C7002052B6440459A
:03BEB6002B70F2FC
:10BEB90012DD38EF543C1242A1BEDB0CBEE514BEC4
:10BEC900EF1CBEF924BF142CBF2F34BF4A3C00001D
:10BED900BF66AB25AA26A9277402801CAB25AA2612
:10BEE900A92774048012AB25AA26A92774088008FB
:10BEF900AB25AA26A927741075F000123F3AAB2882
:10BF0900AA29A92A740175F008804FAB25AA26A988
:10BF190027741075F000123F3AAB28AA29A92A7490
:10BF29000275F0108034AB25AA26A927742075F074
:10BF390000123F3AAB28AA29A92A740275F0108089
:10BF490019AB25AA26A927742075F000123F3AAB30
:0DBF590028AA29A92A740475F020123F3A85
:01BF660022B8
:10FE00008E3E8F3F8E3E8F3FE4F540F541A2AF33EB
:10FE1000F542C2AFE4F58443B701758F03C3E540F3
:10FE200094FC50168541828540837488F0E4254116
:10FE3000F54174043540F54080E3E4F58FF540F575
:10FE400041F545F54675840F12FFA58F47E547300C
:10FE5000E7F6C2F9E4F548F5490549E549700205B8
:10FE6000486440454870F27FD212FF94E546AE45A3
:10FE70007806CEC313CE13D8F9FF12FF9412FF8C6D
:10FE8000E4FF12FF94E4FF12FF94E4FF12FF94E4F6
:10FE9000FF12FF94E4FF12FF94E4F543F544E4FFFE
:10FEA00012FF94749E2544F58274013543F583EF67
:10FEB000F00544E54470020543C3E543940240DE87
:10FEC000D2F9E4F584758F01F543F544749E254419
:10FED000F58274013543F583E0FF0541E541AC400F
:10FEE0007002054014F5828C83EFF00544E5447000
:10FEF000020543B400D6E543B402D1E4F58F0546CC
:10FF0000E54670020545C3947FE545940050030221
:08FF1000FE45E4F58F53B7FE36
:10FF1800E54224FF92AFE4F5D075840FF545F54628
:10FF2800C3E5459420504C12FFA58F47E54730E7BD
:10FF3800F6C2F9E4F548F5490549E549700205486E
:10FF48006440454870F27F5012FF94E546AE45780C
:10FF580006CEC313CE13D8F9FF12FF9412FF8CE418
:10FF6800FF12FF94D2F974082546F546E43545F5A5
:10FF78004580AD12FFA58F47E54730E7F6E4F584E5
:04FF880043EF012220
:10FF8C00AF46EF25E025E0FFAE84E4F5848F9B308F
:09FF9C00FFFDC2FFAF9B8E842221
:10FFA500C2F9E4F54AF54B054BE54B7002054A6489
:10FFB50040454A70F27FD712FF94E4FF12FF94D2B6
:02FFC500F9221F
:10D16300505752204C4F535400447269766500481F
:10D173004447202020202054494D452020202020B2
:10D183004D504800484447202020202054494D4515
:10D1930020202020204B5048005820252B322E32AF
:10D1A30066205920252B322E326600253564200057
:10D1B300202D2D2D2D200025633A25312E3166207B
:0AD1C3000025633A25312E31660085
:1096DF0090143574E2F0900416E493FF900001AB00
:1096EF0026AA27A928023D429004CAE0FEA3E090D3
:1096FF00019E75F0331241B8EE75F033A42583F552
:10970F008322EF123DB4E55D75F012A424A0F5821B
:10971F00E43404F5830241E675F0031241B8EC75A9
:10972F00F003A42583F58322900001123D42240902
:10973F00F582E43415F58322900007AB26AA27A9FA
:10974F0028023D429004CAE0FCA3E0FD9001B375EE
:10975F00F0331241B8EC22AB26E5282408F9E435A2
:10976F0027FA22901568E0FCA3E0FDE402398AABEA
:10977F0026AA27A92822900193E0FCA3E022123DFC
:10978F0042FF9004CAE0FCA3E022901435E0FFC32F
:10979F00940522E4FFFEFDFCAB35AA34A933A832B1
:1097AF0002390790184EEEF0A3EFF02275F0031276
:1097BF0041B8EE22EDF09004CAE0FEA3E02290043F
:1097CF0093E024FFFF900492E034FFFEC390143423
:1097DF00E09F901433E09E22901409E0FCA3E0FD7B
:1097EF007B017A01799E901433E0F561A3E0F56275
:1097FF002212414374FFFBFAF9F8C30240E29001D1
:10980F0093E0FEA3E0227464F0900001123D42FF4A
:10981F0022901433E475F001023E73900008FE129B
:10982F003D427C00240022E92407F9E43AFA229011
:10983F0015B4E0C3940322E4FFFEFDFCAB39AA3854
:10984F00A937A836023907AB26E5282407F9E435EE
:10985F002722755E00755F087560FF22F0AF39AE85
:10986F0038AD37AC3622F0AF35AE34AD33AC322233
:10987F0075F033ED1241B8EC228F398E388D378C5D
:10988F0036228F358E348D338C3222900005023D77
:10989F0042E4FFFEFDFC02415F12414374FFFBFAFD
:1098AF00F9F8023F8675F012A42583F5830241E68D
:1098BF00901435E0FFF53122901435E0D3941F2238
:1098CF007B01E4F54075412D2274FFF5F0023E73E4
:1098DF0012366CA804A905AA06AB0722E0253BF5B2
:1098EF003BE4353AF53A222406F582E43558F58300
:1098FF00229004A075F0120241B8E4F0EFC3940572
:0B990F0022E0FCA3E0FD7F017E0022AF
:04B329008F558B575A
:10B32D00755AFFE4F55BF55CED90041693F55D74CD
:10B33D00092D12973F7464F0900416E493B55519D6
:10B34D00E55764066013E5576415600D74192DF506
:10B35D0082E43414F583E557F01297157416123DF7
:10B36D00A2129715900001E555129712900002ED6B
:10B37D00123DB474022559F559E43558F558FF12AC
:10B38D009715900003129711900004E5591297122A
:10B39D00900005E557123DB4E4FEFF1297158F821C
:10B3AD008E83123D42625A0FBF00010EEF64064EAE
:10B3BD0070E9129715900006E55A123DB474FE25FA
:10B3CD0059F55974FF3558F558129715129836AD31
:10B3DD0059AC5812D35C8E5B8F5CEEFF129715053E
:10B3ED0059E559700205581298F61297110559E54D
:10B3FD0059700205581298F6E55C123DB4E55D757D
:10B40D00F012A42494F9740435F0FA7B01E5592463
:10B41D0007FDE43558FC12D3B7E5592407FFE43591
:02B42D0058FEC7
:01B42F0022FA
:082666008F258B268A278928A5
:10266E00E490184EF0A3F0900003123D4290000447
:10267E0012982DFFEC3ECF24FECF34FFFE90185063
:10268E00F0FCA3EFF0FD12983612D5FD1297B24E64
:10269E0060219000051296EEFF6415700302354915
:1026AE00EF640670030235491297371298157D04B0
:0326BE00022A13DA
:1026C10090000212974AFF900416E4936F70030280
:1026D1002753EFF4607CEF93FF3395E0FEEF1299FF
:1026E10000EE1298B4E92407F9E43A8B2EF52F890C
:1026F1003012985885262BF52C892DE4F529F52AD9
:10270100D3901851E0952A901850E09529402478EB
:102711002BE475F0011241CD123D29FF782EE475AD
:10272100F0011241CDEF123DA2052AE52A70D10533
:102731002980CD1296EBFF900002123D42FD1298C6
:102741009AFB901850E0F558A3E0F55912B329020D
:10275100354912977E12989A1242A127A50627FDA4
:102761001027E9152C3E222F20272BDB292A3B306D
:102771002A56342A563829614029C34129C342299E
:1027810093432AEC502B1A5128C9702903712BBB92
:10279100722823902BA7913107922A6893287B985E
:1027A10000003533900001123D422419F582E434D2
:1027B10014F583E024907024901850E07004A3E095
:1027C10064807018129836C002C001780D7C157DA6
:1027D10001D001D0027E007F80123D031296EB24CE
:1027E10019F582E43414800D12977E123D29241AC2
:1027F100F582E43414F583E4F0022BD31297994067
:1028010006EFD3941F4004EFB4E2081296EB1236A0
:102811005B80061296E512363E1297B212977E023F
:022821002BD3B7
:102823001297994006EFD3941F4004EFB4E20812C5
:1028330096EB12365B803812974712982AF532ECE2
:102843003EF531E525129717129836901409E0FEEC
:10285300A3E0FF85315F85326012CAB71296E5FDAA
:10286300901409E0F558A3E0F5597B0612B3291239
:0828730097B212977E022BD3ED
:10287B001297994006EFD3941F4004EFB4E208126D
:10288B0096EB123662802E12974712982AF532EC8D
:10289B003EF531901409E0FCA3E0FDE92409F9E4CD
:1028AB003AFA8531618532627F027E0012CD0312C6
:0E28BB0096E512363E1297B212977E022BD38C
:1028C9001297994006EFD3941F4004EFB4E208121F
:1028D90096EB123662801AE525129717129836126E
:1028E900D4BF1296E5FD7558007559807B0612B361
:1028F900291297B212977E022BD31297994006EFAD
:10290900D3941F4004EFB4E20B1296EBFF7D201223
:10291900D9BE803B12DA80129856FA901850E0FE20
:10292900A3E0FFC39480EE94005006AC06AD078087
:10293900047C007D8012D0887B017A15790D12D430
:10294900BF1296E5FDE4F558F5597B0612B3291235
:0829590097B212977E022BD306
:102961001298BF1296EB12973D12990940051298E1
:10297100C74007901435E0B4E2081298187D200290
:102981002A131296DF1235D7129747FF12B430027D
:022991002A32E8
:102993001298BF1296EB12973D12990940051298AF
:1029A300C74007901435E0B4E2081298187D20025E
:1029B3002A131296DF1235D77F01127125022A32AC
:1029C3001298BF12977E12989AFE7C00B441047D40
:1029D3000080027D058C328D33EE901432B44105B4
:1029E300E024FF8003E024FBFD901431E034FFFC7E
:1029F3008C348D351296EB12973D129909400512CE
:102A030098C74007901435E0B4E20B1298187D2064
:102A13001236220235491296DF1235EBE4FFFE121D
:102A2300D6D9E4FBAD35AC34AF33AE3212CBE6903E
:082A33001435E531F0023549CC
:102A3B0012355212973DE4F012DD388F31E531300B
:0B2A4B00E7F6E4F58443EF0102354993
:102A56001296EB12973DE4F012989AFF1274AB02AD
:022A66003549F0
:102A6800C2FDC2FE7BFF7AD1796312DD5A129799B3
:102A7800401EEFD3941F501890000EE0FF901433BF
:102A8800E0FCA3E0FD900492E0FAA3E0FB12BCBBDB
:102A9800901435E0FF6405600EEF641E6009EF6472
:102AA8001B6004EFB41C0312DD1412DD388F31E50E
:042AB8003130E7F6DC
:102ABC00E4F558F5597B937D027F0312B329E4F5B5
:102ACC0032F533AE32AF33E4FCFD7B407A9CF9F83F
:102ADC00D31240CC40DA0533E53370E7053280E39E
:102AEC00901435E064F0701A753F01754000754123
:102AFC000E12977E12C8E31296E51235EB1298204F
:102B0C0080061296EB1235FF12977E022BD390148F
:102B1C0035E0B4F10B129747FF90000EE06F604167
:0E2B2C001296EB1235FF1296EB12973DE4F075
:102B3A009018181241870000AFC89018181298A070
:102B4A00D31240CC400E9018181298A89018181258
:042B5A00417B80E655
:102B5E0090069D74F2F09015A17401F002354912A1
:072B6E00355212973DE4F01F
:102B750090181C1241870000AFC890181C1298A02D
:102B8500D31240CC400E90181C1298A890181C1215
:042B9500417B80E61A
:102B9900901433E0FEA3E0FF12D8E70235499015FF
:102BA900A17401F012974790069D1235B612977ECF
:102BB9008018129856FA75400175412D7F0312BB92
:102BC900D51296E512360E12977E129737E4F00267
:102BD9003549901435E064FE700302354912974770
:102BE9009000341235B61296EB12973DE4F090142A
:102BF90035E06003023549900034E024FC600F247D
:102C090002701612986175610B75623B80141298F7
:102C19006175610B75625B800912986175610B754D
:102C2900624B75632D7B107A00E4FDFC7F69FE120F
:052C39008A4C02354940
:102C3E0012358412973DE4F0900007123D42901534
:102C4E00B4F0E92408F9E43AFAC0011297C5FF7C02
:102C5E00007D33123DD6749E2FF974013EA801FCFF
:102C6E007D01D0017E007F15123D039015B4E0FF6B
:102C7E007003022D6E603274FFFFFEFDFC9001703A
:102C8E0012415FC31240E270201296F7124143E4E4
:102C9E0012980560141296F7129800600C1296F7AF
:102CAE0012414390017012417B9015B4E0602012E6
:102CBE0096F7124143E412980560141296F7129893
:102CCE0000600C1296F712414390018F12417B90D7
:102CDE0015B4E0FF604C900135E0F47003A3E0F40E
:102CEE007040129791FD9001A212975E129708E024
:102CFE00FAA3E04A602C9001A212987F129708E086
:102D0E00FCA3E0F47002ECF460181297919001A20B
:102D1E0012975E129708E0FDA3E0900135CDF0A367
:102D2E00EDF0EF603B1297C5FF9001A2129701E004
:102D3E00FCA3E04C602A9001A275F033EF129704C9
:102D4E00E0FEA3E0F47002EEF460151297C5900158
:102D5E00A2129701E0FFA3E0900137CFF0A3EFF0AE
:102D6E00901435E01242A12DC1052E02062DC10888
:102D7E002E7B092E7B0A2DC90D2E6C0E2E750F2E55
:102D8E0061102E61112E61122E61132E61142E61AF
:102D9E00152EDB192DC11A2DC11B2DC11C2DC11DC8
:102DAE002EDB1F2EBE202DC9212E02222E752300B2
:102DBE00002F1A1297667F03022F0C12983E5003B3
:032DCE00022F1AB7
:102DD100753101129766129785FD7541017542188B
:102DE1007543208531441284C07A1879201298CF16
:102DF100AF3112BBD50531E531D3940340D5022F54
:012E01001AB6
:102E020012983E5003022EBAE4FF12CE97755E006E
:102E1200755F077560FF75610A7562C175632D7B09
:102E22007A7A00E4FDFCFFFE128A4C7BFF7AD179AC
:102E32006C75552D7D2DE4FF12C04190157DE07B10
:102E4200FF30E0067AD1797280047AD179871298BC
:102E5200D17F0312BBD5129766129B1E022F1A90C6
:102E62001435E0FF128FB2022F1A12976612A69340
:102E7200022F1A12A4C0022F1A12983E403A7BFF68
:102E82007A0F793B7D2D12C408901435E0B40921E4
:102E9200755E00755F0A7560FF75612475620C7559
:102EA200632D7B2D7A007D137C007F287E00128AA1
:102EB2004C1297667F0580527BFF805312983E7BAF
:102EC200FF40067A17797D80047A0B796B7D2D128B
:102ED200C4081297667F05803112983E7BFF402F0F
:102EE2007A0D79537D2D12C40890041CE075F01000
:102EF200A42422F9740535F0FA7B0175552D7D0164
:102F02007F0312C0411297667F051243EC80097A53
:0E2F12000B796B7D2D12C40812DE1C023549AE
:102F200012358412973DE4F0900008123D42FE9065
:102F3000000912982EFFEC3E9004C8F0A3EFF09029
:102F400006BAE06011E4F0900193F0A3F09004CA97
:102F5000F0A3F00231001297995003023100EFD331
:102F6000941F400302310012980DFFC3940AEE64CF
:102F700080948040030230A1EF4E707B901568E092
:102F8000540FFD901566E0540FC4F854F0C8E4C423
:102F9000540F482DFF12979112975B129708C08328
:102FA000C082129785D082D083129727EFF09015B8
:102FB00066E0A3E0FF1297919001B412975E12971A
:102FC00008C083C082129785D082D083129727EFE2
:102FD000F0901568E0A3E0FF1297919001B5129769
:102FE0005E129708C083C082129785D082D0831268
:102FF0009727EFF00230981297C5FF9001B0129713
:1030000001C083C082129785D082D083129727E0B7
:10301000FD9001B375F033EF129704C083C08212A4
:10302000980DD082D0831297BB12972E1297C3FFB0
:103030009001B1129701C083C082129785D082D0CF
:1030400083129727E0FD9001B475F033EF129704D7
:10305000C083C08212980DD082D0831297BB129782
:103060002E1297C3FF9001B2129701C083C0821243
:103070009785D082D083129727E0FD9001B575F037
:1030800033EF129704C083C08212980DD082D08390
:103090001297BB12972EEDF0900193129823022FF6
:1030A00067C39004CBE094099004CAE064809480E4
:1030B00040481297E77F027E0012CD03129820E469
:1030C000F531F532749E2532F58274013531F58380
:1030D000E4F00532E53270020531B410E7E531B4B1
:1030E00002E2E49004CAF0A3F01297CD40121298C5
:1030F000D87D037F0112620280069004CA129823D1
:07310000E490019302354643
:103107001296E512360E1296EB12973DE4F0C39035
:103117000194E0940A900193E0648094804006E46F
:10312700F0A37409F090000712978D12975B12971E
:1031370008C083C082129785D082D083129727EF69
:10314700F012977E90000812978D9001B412975E47
:10315700129708C083C082129785D082D0831297B6
:1031670027EFF090000912978D9001B512975E1224
:103177009708C083C082129785D082D08312972781
:10318700EFF0129753129708C083C08212980DD0A0
:1031970082D0831297BB12972EE0540F753B00F530
:1031A7003A9001B512987F129708C083C0829001A8
:1031B70093A3E0D082D0831297BB12972E1298EB7D
:1031C700129772C004C005C006C007AC3AAD3BE415
:1031D70012398AD003D002D001D00012366C12986F
:1031E7008812984690184D5020744C12986BC00462
:1031F700C005C006C00790156E129775C004C005BC
:10320700C006C007901568801B745212986BC004E3
:10321700C005C006C007129772C004C005C006C02B
:1032270007901570129775D003D002D001D0001205
:1032370098DFD007D006D005D00412386A129888D4
:10324700129753129708C083C08212980DD082D06C
:10325700831297BB12972EE054F075F010A4F53B3C
:1032670085F03A9001B412987F129708C083C08204
:10327700900193A3E0D082D0831297BB12972E12AE
:1032870098EB901566129775C004C005C006C00775
:10329700AC3AAD3BE412398AD003D002D001D0005A
:1032A70012366C1298911297A290184C50207441C4
:1032B700129875C004C005C006C00790156A12971A
:1032C70075C004C005C006C007901566801E74420D
:1032D700129875C004C005C006C0079015661297FE
:1032E70075C004C005C006C00790156C129775D04D
:1032F70003D002D001D0001298DFD007D006D00546
:10330700D00412386A129891901435E01242A13312
:10331700350533350833640D33C91633461833354D
:0E3327001A33351C33351D3364210000343554
:103335007B007A007900E4FF1243EC12AE9D023463
:10334500357F337E337DB37CBE1297A740030234AD
:10335500357B007A0079007F011243EC0234357524
:1033650064FF7565D175669C85356A8534698533D5
:103375006885326785396E85386D85376C85366B1E
:103385007B017A187936126D129015B4E07B017ABB
:10339500187936600B12364A7565D17566AE8009A7
:1033A50012364A7565D17566B39004C8E0F567A312
:1033B500E0F568126D127A1879361298CFFF12BBB4
:1033C500D50234351297A250091298761239741223
:1033D5009891129846500912986C1239741298886F
:1033E5007564FF7565D17566BA90184CE0F567850B
:1033F500356B85346A85336985326812362E755288
:103405002D7D037F0212C34F7564FF7565D1756607
:10341500C490184DE0F56785396B85386A8537693D
:1034250085366812362E75522D7D457F0212C34FA3
:10343500E4F531AF31EF3395E0FE740A2FF582E400
:103445003EF5831296EEFFE531FD3395E0FC741DE4
:103455002DF58274143CF583EFF00531E531B407A1
:10346500D212977E90000A123D42F4540390003325
:10347500F0700302352B129799500302352BEFD3C9
:10348500941F400302352B9006BAE0600302352BEA
:10349500753106AF319004C7E0FEA807088002C366
:1034A50013D8FC30E072AF31EF3395E0FEE5282408
:1034B50010F9E43527FAC3E99FF9EA9E852642F516
:1034C50043894490001CE0FAA3E0FB7D017C007F6A
:1034D500017E0012CE1490001CE07002A3E060088B
:1034E50090001C1298D880301297CD40097D037F3B
:1034F50001126202802290049212991012CF9A90C2
:1035050004921298D890001C7402F0A3740FF090E6
:10351500140912991012D0F71531C3E5316480945E
:0E352500804003023498900193129823801680
:103533001296EB12973D1298157D0212362274FFF4
:0635430090184EF0A3F009
:0835490090184EE0FEA3E0FF24
:1035510022900416E493FFAB26AA27A92890000124
:10356100123D42FDE4F558F5597B0612B329901836
:103571004EEEF0A3EFF0AB26AA27A9289000011286
:103581003D4222900416E493FFAB26AA27A9289076
:103591000001123D42FDE4F558F5597B0612B329AD
:1035A10090184EEEF0A3EFF0AB26AA27A9289000C1
:1035B10001123D4222F0900416E493FF90000112A3
:1035C1003D42FDE4F558F5597B0612B32990184E9A
:1035D100EEF0A3EFF022FDE4F558F5597B0612B3A6
:1035E1002990184EEEF0A3EFF022FDE4F558F559BD
:1035F1007B0612B32990184EEEF0A3EFF022FF7D67
:103601000812D9BE90184EEEF0A3EFF022FDE4F5BA
:1036110058F5597B0612B32990184EEEF0A3EFF03E
:103621002212D9BE90184EEEF0A3EFF0227B017A60
:10363100187936126D127B017A18793622FDE4F57C
:1036410058F5597B0612B3292212DDE274362FF99F
:1036510074183EFA7B017564FF22FF7D2012D9BEEA
:0836610022FF7D2012D9BE22D8
:0AD5FD008B3C8A3D893E8C3F8D4037
:10D6070012D35C8E418F42AB3CAA3DA93E85408236
:10D61700853F83123D427F00FEE5402401FDE4354E
:10D627003F8D82F583123D422FFFE43EFEE542B572
:0FD637000709E541B50604E4FEFF227EFF7FFFF1
:01D6460022C1
:10D9BE00AE07EE90041693FB3395E0FAEB12990046
:10D9CE00EA1298B4900007ED123DB4900416E49359
:10D9DE00FFAD067558007559017B1512B329E4FE8B
:02D9EE00FF2216
:06C8E3008B3C8A3D893EFA
:10C8E900E4F542F543900003123D42FE9000041224
:10C8F9003D42FDEEF544EDF545E4F542F543E545E8
:10C9090024FEFFE54434FFFEC36480948250028014
:10C91900047E027F00C3E5439FEE6480F8E542642C
:10C9290080985048AB3FAA40A941C003C002C0014A
:10C93900123D29FFAB3CAA3DA93EE5432407FDE48E
:10C9490035428D82F583123D42FE749E2543F58260
:10C9590074013542F583EEF06FD001D002D0031295
:10C969003DA20543E5437096054280927E009014EE
:0BC9790034E05401FF1297E702CD03E9
:04D8E7008E3C8F3DA7
:10D8EB0090FE00E493FE740193FF901855EEF0A3A5
:10D8FB00EFF0BE8012BFFE0F7B007AFE790290180C
:10D90B00521241EF0242C7901433E0FEA3E0FF1224
:02D91B00FE000C
:01D91D0022E7
:10D5650025730044617461666C617368205465734A
:10D5750074002A2A20466C617368204641494C454F
:10D5850044202A2A2C20706167652025642C20629E
:10D5950079746525640050616765202564206F6B8B
:0ED5A5000054657374205061737365642E002A
:0274AB008F3C14
:1074AD0085843DE4F53EF53FF54290041793FF3397
:1074BD0095E0FE9004A075F012EF1241B8EE75F054
:1074CD0012A42583F5831241E6E92407F9E43AFA7B
:1074DD007564FF7565D57566657567FF7568D575D6
:1074ED006968126D12900417E493FF3395E0FE90D6
:1074FD0004A075F012EF1241B8EE75F012A42583B9
:10750D00F5831241E6E92407F9E43AFA12DDE2EFD8
:10751D002401F559E43EF558900416E493FF7B736E
:10752D007D0112B329E4900516F0A3F0F540F54165
:10753D00D390140AE09541901409E095404023AE94
:10754D0040AF417C017D00123E3D749E2541F58288
:10755D0074013540F583EDF00541E54170020540BC
:10756D0080CE75840F30D919C3900517E09409901A
:10757D000516E094004003027772E4900516F0A31F
:10758D00F0901409E0FCA3E0FD7B017A01799E8562
:10759D003E61853F62E4FFFE12CD03901409E0FECB
:1075AD00A3E0FF7B017A01799E853E5F853F6012E6
:1075BD00CAB7E4F540F541D390140AE09541901413
:1075CD0009E09540402DAE40AF417C017D00123E5B
:1075DD003D749E2541F58274013540F583E06D7053
:1075ED0001EC6005754201800A0541E54170020517
:1075FD004080C4E5427003027689900417E493FF3E
:10760D003395E0FE9004A075F012EF1241B8EE75BF
:10761D00F012A42583F5831241E6E92407F9E43A33
:10762D00FA7564FF7565D5756677853E67853F6824
:10763D0085406985416A126D12900417E493FF33FA
:10764D0095E0FE9004A075F012EF1241B8EE75F0C2
:10765D0012A42583F5831241E6E92407F9E43AFAE9
:10766D0012DDE2EF2401F559E43EF558900416E4DD
:0C767D0093FF7B737D0112B3290277722A
:1076890090185212418700015F90E4FFFEFDFC90C3
:10769900185212415FD31240CC4017901852124130
:1076A9004374FFFBFAF9F8123F8690185212417B96
:0276B90080D877
:1076BB00900417E493FF3395E0FE9004A075F0124D
:1076CB00EF1241B8EE75F012A42583F5831241E653
:1076DB00E92407F9E43AFA7564FF7565D575669B7D
:1076EB00853E67853F68126D12900417E493FF3354
:1076FB0095E0FE9004A075F012EF1241B8EE75F014
:10770B0012A42583F5831241E6E92407F9E43AFA3A
:10771B0012DDE2EF2401F559E43EF558900416E42E
:10772B0093FF7B737D0112B329AF3FAE3E12D6D9C7
:10773B00D3901432E0953F901431E0953E5007E41E
:10774B00F53EF53F8008053FE53F7002053EE53C01
:10775B006434700302756FD3E53F9404E53E648097
:0E776B009480500302756FE4900516F0A3F0B1
:1077790090185612418700015F90E4FFFEFDFC90CE
:10778900185612415FD31240CC4017901856124137
:107799004374FFFBFAF9F8123F8690185612417BA1
:0277A90080D886
:1077AB00900417E493FF3395E0FE9004A075F0125C
:1077BB00EF1241B8EE75F012A42583F5831241E662
:1077CB00E92407F9E43AFA7564FF7565D5756665C2
:1077DB007567FF7568D57569A6126D12900417E46D
:1077EB0093FF3395E0FE9004A075F012EF1241B8B1
:1077FB00EE75F012A42583F5831241E6E92407F90F
:10780B00E43AFA12DDE2EF2401F559E43EF5589023
:0F781B000416E493FF7B737D0112B329853D842E
:01782A00223B
:02FDFE0080FE85
:10FFD000436F707972696768742032303130205411
:10FFE0007261636B2053797374656D73205465631C
:0EFFF000686E6F6C6F676965732C204C4C4314
:10366900023A2FE86480F8E933E83360110460F026
:10367900ED33EC337009E8FCE9FDEAFEEBFF2204C7
:1036890060DED3EB9FEA9EE99DE8C2E78CF0C2F7C2
:1036990095F0400CE8CCF8E9CDF9EACEFAEBCFFB8E
:1036A9001239FA85D0F05804700320D5B3E80470B4
:1036B900075002B2D5023A3992D5EC0460F7E4CC4E
:1036C900C0E0C398F8603B94186008400DD0E0FB57
:1036D900023A11E4FBFAC9FC8028E830E406E4C99F
:1036E900FBE4CAFCE830E305E4C9CACBFCE85407AB
:1036F9006010F8C3E913F9EA13FAEB13FBEC13FCB6
:10370900D8F130F52FC3E49CFCEF9BFFEE9AFEED58
:1037190099FDD0E0FBEF4E4D4C701222DB03023ACB
:1037290036EC2CFCEF33FFEE33FEED33FDED30E7E5
:10373900EB023A11EF2BFFEE3AFEED39FDD0E0FB3B
:1037490050130BBB0003023A39ED13FDEE13FEEFE4
:0837590013FFEC13FC023A110E
:10376100EC4D6011E8497017ED33EC3304600DE462
:10377100FCFFFEFD22E933E8330470F8023A2F1210
:1037810039FA58046009E4CC248150062850090212
:103791003A39284003023A36C0E0EB4A7044B98016
:1037A10006D0E0FB023A25EF4E701CBD8008EBFF0E
:1037B100EAFEE9FD80EBE98DF0A4FEE5F002384A6E
:1037C100E9CDF9EAFEEBFFEF89F0A4FCE5F0CE8943
:1037D100F0A42EFFE435F0CD89F0A42DFEE435F000
:1037E1008067EF4E7005BD80D780C3EF8BF0A4AC2E
:1037F100F0EE8BF0A42CFCE435F0F8EF8AF0A42C69
:10380100E5F038FCE433CB8DF0A42CFCE5F03BF87B
:10381100EE8AF0A42CFCE5F038F8E433CF89F0A46B
:103821002CFCE5F038CF3400CE89F0A42FFFE5F071
:103831003EFEE433C98DF0A42EFEE5F039CD8AF0C9
:10384100A42FFFE5F03EFEE43DFD33D0E0FB500741
:103851000BBB000F023A39EC2CFCEF33FFEE33FEC9
:06386100ED33FD023A11F7
:10386700023A39EC5D046005E859047003023A2F07
:103877001239FA580460F6EC4860F2EC7004FDFE69
:10388700FF22C860DB2481C85009C3986002500634
:10389700023A369850CAF582E9294B4A7005AB823D
:1038A700023A2575F0007C1A7880C3EF9BEE9AEDFB
:1038B70099400DC3EF9BFFEE9AFEED99FDE842F0AC
:1038C700DC23ACF0D0E0FFD0E0FED0E0FDAB8220FF
:1038D700E7101BEB60BAEC2CFCEF33FFEE33FEED89
:1038E70033FD023A11E803F830E705C0F075F00040
:1038F700EF2FFFEE33FEED33FD40B830E7C280AA6D
:1039070074F8CC6480CCC86480C8F582046043C373
:10391700EB9FF5F0EA9E42F0E99D42F0E89C45F006
:1039270060305018E5825FFFE582F42B5582FB502B
:10393700210ABA001D09B90019088016E5825BFB48
:10394700E582F42F5582FF50090EBE00050DBD001C
:10395700010CC3EB9FF5F0EA9E42F0E99D42F0E8C7
:0D3967009C45F06007CC4820E701B3EC223E
:10397400ED33EC33600A047003BD8004ECB2E7FC61
:013984002220
:1039850075F020800E75F010800575F0087D007EBD
:10399500007F003392D530D5031240BEEC33401082
:1039A500EF33FFEE33FEED33FDEC33FCD5F0ED22C6
:0E39B500E5F0247EA2D513CC92E7CDCEFF2202
:1039C300EDD2E7CD33EC3392D524814006E4FFFEFC
:1039D300FDFC22FCE4CFCECDCC24E0501174FF805B
:1039E300EDC3CC13CCCD13CDCE13CECF13CF0470F8
:0739F300F030D5DE0240BEFA
:106CB600E5782464F8E6057822786130070278647E
:106CC600E475F0011241CD023D292000EB7F2ED262
:106CD600008018EF540F2490D43440D4FF30040BB6
:106CE600EF24BFB41A0050032461FFE57960021552
:106CF60079057CE57C7002057B30070D7861E475CB
:106D0600F0011241CDEF023DA202DC807403D207EE
:106D16008003E4C207F5788B618A628963E4F579BA
:106D2600F57BF57CE57960077F20126CF180F575BF
:106D36007AFFC201C200C202C203C205C206C2086D
:106D4600126CBFFF700D3007057F00126D02AF7C1D
:106D5600AE7B22B4255FC2D5C204126CBFFF24D01D
:106D6600B40A00501A75F00A787930D50508B6FFCE
:106D76000106C6A426F620D5047002D20380D924C3
:106D8600CFB41A00EF5004C2E5D204026FEFD2016D
:106D960080C6D20080C0D20280BCD2D580BAD205CD
:106DA60080B47F20126CF12002077401B57900408F
:106DB600F1126CB6FF126CF1026D2AD208D206806F
:106DC60095126CB6FB126CB6FA126CB6F94A4B7099
:106DD6000679E67A707BFF20022EE579602A7E002E
:106DE6008E82758300123D4260060EEE657A70F063
:106DF600C2D5EBC0E0EAC0E0E9C0E0EE12704FD0C9
:106E0600E0F9D0E0FAD0E0FB123D29FF60AAEBC022
:106E1600E0EAC0E0E9C0E0126CF1D0E02401F9D06C
:106E2600E03400FAD0E0FBE57A0460DCD57AD9805C
:106E360087D20280A212703260F7E57A70010412DE
:106E46003A44A97A600DE57A600914F57A1270D988
:106E5600EF60F3EA30E702F404C3995077EAF425C9
:106E66007A0430E701E404F57A800D12703260C1CD
:106E7600EA057A257A123A44EA7877F630E701E4A9
:106E8600257A04D57A042005011412704FE4C0E077
:106E96001270D97877E6601320E70714F6126CD9DA
:106EA600802204F6D0E014C0E07F00126CD9E57AA7
:106EB6006007126CD0157A800B300503126CD0D0A7
:106EC600E0026D2AD0E00480C512703260A0E57A37
:106ED60004123A447877EAF6E57A2005026001045E
:056EE600240412704FAE
:106EEB0074FF04C0E01270D9126CD9E57A20050248
:106EFB006003126CD0D0E0B57AE87F45126CE37872
:106F0B0077E67F2B30E7047F2DF404C0E0126CF1A1
:106F1B00D0E075F00A84C0F0126CDAD0E0126CDAB3
:106F2B00026D2A791080027908C206C2088008D245
:106F3B00D5790A8004790AC2D5E57A047002F57A0C
:106F4B00E4FAFDFEFF126CB6FC7B08200113126CF9
:106F5B00B6FD7B1030000A126CB6FE126CB6FF7BCE
:106F6B0020EC3382D592D55013C3E43000069FFF3B
:106F7B00E49EFEE42001039DFDE49CFCE4CBF8C2FF
:106F8B0001EC700CCFCECDCCE824F8F870F3801761
:106F9B00C3EF33FFEE33FEED33FDEC33FCEB33FB92
:106FAB00994002FB0FD8E9EB300105F8D0E0C4485B
:106FBB00B201C0E00AEC4D4E4F78207B0070C2EA64
:106FCB00B57A0040BCC0E0127051D0F0D0E0200187
:106FDB0004C4C0E0C4B201C0F0126CDAD0F0D5F03A
:106FEB00EB026D2A1242A16DC7536F2E586D984C50
:106FFB006D94426F324F6F3A446F3A496DAD436FA8
:10700B0040556E71466ECF456E3B477106506D9C79
:10701B002D6DA02E6DC32B6DA4236DC12070EF2A97
:10702B006D5C4800006DBBE57AB4FF03757A061200
:10703B006CB6FC126CB6FD126CB6FE126CB6FF7819
:10704B0070023A73790AA2D5200314300509B910DE
:10705B00020404B9080104A2D52006025001042041
:10706B0002689202B579005034C0E07F20300319DA
:10707B007F30A20272067205500F1270A8C202C2B4
:10708B0006C205C2087F30800F300503E9C0E0124D
:10709B006CF1300503D0E0F9D0E0B579CC300517B1
:1070AB007F30B9100C126CF17F583004077F788059
:1070BB0003B90803126CF13002057F2D026CF17FCE
:1070CB00202008F87F2B2006F322920280CF7F002E
:1070DB00B4070050052470F8E6FF22286E756C6C1F
:1070EB002900D201126CB63001F8C201787930D583
:1070FB000108F6026D5C2D50434958126CB62403FF
:10710B00B405004001E490710193126CE2743A12E1
:0A711B006CE2D203757904026F2EB6
:10C83900023A2F22EDA2E7D2E7F9EC3340F260F396
:10C84900B4FF08ED547F70E8023A39F82481C2E058
:10C85900C0E0F40428FAC313FCED92E7FD8C538D74
:10C86900548E558F56EEA2E7E9BA7F02C3133400FE
:10C879009400FA75F091A4E5F013F494FE8AF0A4FB
:10C8890033E5F033248CD313FDE492E7FE7F007C7B
:10C899003F758302ECC0E0F8EDC0E0F9EEC0E0FAC4
:10C8A900EFC0E0FBAC53AD54AE55AF5612386AD069
:10C8B900E0FBD0E0FAD0E0F9D0E0F8123670ED6490
:10C8C90080FD30E7011CD583CBED33CC33F8D0E0C4
:0AC8D900A2E71328C313CC13FD22BD
:10D015008F588E578D568C55AB5CAA5BA95AA8596B
:10D0250012386A12AFFB8F588E578D568C55E559BD
:10D0350030E747ECC0E0EDC0E0EEC0E0EFC0E0E473
:10D04500FFFEFDFCAB58AA57A956A8551239077B18
:10D05500DB600250087A0F7949784080067A0F79AB
:10D065004978C0D0E0FFD0E0FED0E0FDD0E0FC1272
:10D0750036708F588E578D568C55AF58AE57AD5666
:03D08500AC552285
:10AD2F003A70FA83BCAAE9E43E81E0F8BF9DE9E6F8
:10AD3F003F80000039283C1ABB9969663DA335E373
:10AD4F00BF255DE73FC90FDB418DDBCCC44936EE34
:10AD5F0045C9913FC5B0F83D3F800000C317F5349A
:10AD6F00452FFA73C60AFDDD12AE1E04A2E1920052
:10AD7F001420E01590AD2F7404123B76802612AE8E
:10AD8F001E30E102B20020E0EB8C508D518E528FBD
:10AD9F005390AD437404123B76A850A951AA52ABFD
:10ADAF0053123761ED4C6007300004EC6480FC22D5
:10ADBF0012AE1EC0E08C508D518E528F5390AD67E6
:10ADCF007403123B76A850A951AA52AB53123761A4
:10ADDF00ECC550FCEDC551FDEEC552FEEFC553FF5E
:10ADEF0090AD577403123B76D082A850A951AA5246
:10ADFF00AB53E58230E00712386AB20080A6EFCB82
:10AE0F00FFEECAFEEDC9FDECC8FC12386A8095ED65
:10AE1F0033EC547FCC33920024605007D0E0D0E065
:10AE2F00023A2F7B837AF97922783E123761EDF956
:10AE3F0033ECF83324815011EFFBEEFA1239C312C1
:10AE4F003985ECB2E7FC123670ED33EC33602F240A
:10AE5F0003F8C313FCED92E7FDE82481E4501FECE7
:10AE6F00F8EDF9EEFAEFFB1239C3EF04C2E0FCF58F
:10AE7F008212398FECB2E7FC123670E58203FAEDDD
:0EAE8F0033EC3360071413FCED92E7FDEA226A
:1039FA00E9D2E7C933E833F892D5EDD2E7CD33EC13
:073A0A0033FC5002B2D5228B
:103A1100EC30E7100FBF000C0EBE00080DBD000416
:103A21000BEB6014A2D5EB13FCED92E7FD2274FFC2
:103A3100FCFDFEFF22E480F8A2D574FF13FC7D801B
:033A4100E480EF2F
:103A4400F920E72824F950037907E4F42402FB1849
:103A5400DBFDE624FB5014E9600DE4F618E604F6F9
:0F3A6400B40A08E4F6D9F57401F60A22C2D52295
:103A7300ED33EC3392D5FA602AB4FF33EDC2E77B22
:103A8300FF60067A3A7998E4227A3A79A120D5043C
:103A93007A3A799C224E614E002B494E46002D49BD
:103AA3004E4600E47A08F608DAFC7B00740722E845
:103AB300C0E0ECC0E0EDC0E0EEC0E0EFC0E0EA75CE
:103AC300F010A4CAABF075F04DA42BFBE435F0FC69
:103AD300EA2410FAEB34C5FBEC34D9FCEDC2E7FF62
:103AE30075F056A4F42411C5F0F434C58FF0A42A5C
:103AF300E5F03BE43CF620E714123BF3D0E0FFD0C3
:103B0300E0FED0E0FDD0E0FC12386A8014F4041229
:103B13003BF3D0E0FFD0E0FED0E0FDD0E0FC123775
:103B230061D0E0F8E6FAEDD2E7CD33EC332482FB43
:103B3300E4C3CF33CFCE33CECD33CD33DBF37B07EB
:103B430075F00A846004F6081B0AE5F0F6088FF0A6
:103B5300740AA4FFACF08EF0740AA42CFEACF050EF
:103B6300010C8DF0740AA42CFDE435F0F608DBDEBD
:033B7300740722B2
:103B7600C0E0EFFBEEFAEDF9ECF8123761D0E0F5B4
:103B8600F0EFFBEEFAEDF9ECF812414FA3A3A3A375
:103B9600E8C0E0E9C0E0EAC0E0EBC0E0C0F0123700
:103BA6006112416BA3A3A3A3123670D0F0D0E0FB41
:0D3BB600D0E0FAD0E0F9D0E0F8D5F0D4224C
:10AFDB00BE1249253E4CCCCDBEAAAAAB3F80000089
:10AFEB003E7ADBB03EED63383F24BC7D3F490FDB3F
:10AFFB00ED33ECC2E7CC339200B4FF13ED547F601A
:10B00B0003023A2F7FDB7E0F7DC97C3F02B0F6C275
:10B01B0001C3947F401E7007EDD2E794904015EF6B
:10B02B00FBEEFAEDF9ECF87F007E007D807C3F12A1
:10B03B00386AD201ED33EC33248430E705E4C0E009
:10B04B00806D04FAEDD2E754F0C333DAFD540734C4
:10B05B00002323C0E0CCC0E0F8EDC0E0F9EEC0E087
:10B06B00FAEFC0E0FBE412398FEC24FEFC8C5D8D13
:10B07B005E8E5F8F601237617B007A007980783F3C
:10B08B00123670ECC55DB2E7FCEDC55EFDEEC55F3B
:10B09B00FEEFC560FFD0E0FBD0E0FAD0E0F9D0E0E6
:10B0AB00F8123670A85DA95EAA5FAB6012386A8C85
:10B0BB005D8D5E8E5F8F6090AFDB7403123B76A865
:10B0CB005DA95EAA5FAB60123761D0E0600F24E729
:10B0DB00F582E434AFF58312416B12367030010BFD
:10B0EB007BDB7A0F79C978BF123670ED33EC3360A6
:08B0FB0006ECA20092E7FC2222
:103BC3003F8000004120000042C80000447A00000A
:103BD300461C400047C35000497424004B1896808C
:103BE3004CBEBC205A0E1BCA6753C21C749DC5AE83
:103BF300FB60065407601C2323123C21EB543860FE
:103C030009123C0D123C1C123761ECF8EDF9EEFA87
:103C1300EFCB22EB123C1C80F1543803241C903B65
:103C2300C3FE93FC0EEE93FD0EEE930ECE93FF2296
:10CC8300025C49E493A3F8E493A34003F68001F222
:10CC930008DFF48029E493A3F85407240CC8C333B2
:10CCA300C4540F4420C8834004F456800146F6DF81
:10CCB300E4800B0102040810204080909243E47E3C
:10CCC300019360BCA3FF543F30E509541FFEE49376
:10CCD300A360010ECF54C025E060A840B8E493A33D
:10CCE300FAE493A3F8E493A3C8C582C8CAC583CA68
:10CCF300F0A3C8C582C8CAC583CADFE9DEE780BE20
:01949E0000CD
:103C3300E709F608DFFA8046E709F208DFFA803E73
:103C430088828C83E709F0A3DFFA8032E309F60860
:103C5300DFFA8078E309F208DFFA807088828C83C8
:103C6300E309F0A3DFFA806489828A83E0A3F6087C
:103C7300DFFA805889828A83E0A3F208DFFA804C56
:103C830080D280FA80C680D4806980F2803380102D
:103C930080A680EA809A80A880DA80E280CA803396
:103CA30089828A83ECFAE493A3C8C582C8CCC5830E
:103CB300CCF0A3C8C582C8CCC583CCDFE9DEE780DE
:103CC3000D89828A83E493A3F608DFF9ECFAA9F05D
:103CD300EDFB2289828A83ECFAE0A3C8C582C8CCB3
:103CE300C583CCF0A3C8C582C8CCC583CCDFEADECC
:103CF300E880DB89828A83E493A3F208DFF980CC2E
:103D030088F0EF60010E4E60C388F0ED2402B40426
:103D13000050B9F582EB2402B4040050AF232345CD
:063D23008223903C837333
:103D2900BB010689828A83E0225002E722BBFE0298
:093D3900E32289828A83E49322CB
:103D4200BB010CE58229F582E5833AF583E0225036
:103D520006E92582F8E622BBFE06E92582F8E22280
:0D3D6200E58229F582E5833AF583E493229A
:103D6F00BB010FF8E58229F582E5833AF583E02858
:103D7F00F0225009C58229F8E58226F622BBFE09FA
:103D8F00C58229F8E22582F222F8EA2583F583E934
:033D9F0093282244
:103DA200BB010689828A83F0225002F722BBFE0100
:023DB200F322FA
:103DB400F8BB010DE58229F582E5833AF583E8F045
:103DC400225006E92582C8F622BBFE05E92582C8F1
:023DD400F222D9
:103DD600EF8DF0A4A8F0CF8CF0A428CE8DF0A42E01
:023DE600FE22BB
:103DE800BC000BBE0029EF8DF084FFADF022E4CCBF
:103DF800F875F008EF2FFFEE33FEEC33FCEE9DEC88
:103E0800984005FCEE9DFE0FD5F0E9E4CEFD22EDCD
:103E1800F8F5F0EE8420D21CFEADF075F008EF2F17
:103E2800FFED33FD4007985006D5F0F222C398FD08
:053E38000FD5F0EA22A5
:103E3D00C2D5EC30E709B2D5E4C39DFDE49CFCEEA0
:103E4D0030E715B2D5E4C39FFFE49EFE123DE8C3F3
:103E5D00E49DFDE49CFC8003123DE830D507C3E4EE
:063E6D009FFFE49EFE220F
:103E7300C5F0F8A3E028F0C5F0F8E58215827002DA
:063E83001583E038F02277
:103E8900A3F8E0C5F025F0F0E582158270021583EC
:063E9900E0C838F0E82249
:103E9F00BB010A89828A83E0F5F0A3E022500687EE
:103EAF00F009E71922BBFE07E3F5F009E3192289B0
:0B3EBF00828A83E493F5F074019322E3
:103ECA00BB0110E58229F582E5833AF583E0F5F036
:103EDA00A3E0225009E92582F886F008E622BBFE13
:103EEA000AE92582F8E2F5F008E222E5832AF58359
:083EFA00E993F5F0A3E993221E
:103F0200BB010789828A83023E73500B09C5F027E1
:103F1200F7C5F01937F722BBFE0D09F8E325F0F3D8
:103F2200C5F019E338F322F889828A837401932554
:083F3200F0C5F0F8E493382219
:103F3A00BB010A89828A83F0E5F0A3F0225006F7D2
:0F3F4A0009A7F01922BBFE06F3E5F009F31922CF
:103F5900F8BB0111E58229F582E5833AF583E8F09A
:103F6900E5F0A3F0225009E92582C8F608A6F02257
:0D3F7900BBFE09E92582C8F2E5F008F2223E
:0D3F8600EF2BFFEE3AFEED39FDEC38FC228A
:0E3F9300C3EF9BFFEE9AFEED99FDEC98FC2229
:103FA100E88FF0A4CC8BF0A42CFCE98EF0A42CFCBF
:103FB1008AF0EDA42CFCEA8EF0A4CDA8F08BF0A43D
:103FC1002DCC3825F0FDE98FF0A42CCD35F0FCEB9C
:103FD1008EF0A4FEA9F0EB8FF0A4CFC5F02ECD3961
:0F3FE100FEE43CFCEAA42DCE35F0FDE43CFC22CE
:103FF00075F008758200EF2FFFEE33FECD33CDCC88
:1040000033CCC58233C5829BED9AEC99E58298400A
:104010000CF582EE9BFEED9AFDEC99FC0FD5F0D6E7
:10402000E4CEFBE4CDFAE4CCF9A88222B800C1B911
:104030000059BA002DEC8BF084CFCECDFCE5F0CB4F
:10404000F97818EF2FFFEE33FEED33FDEC33FCEB88
:1040500033FB10D703994004EB99FB0FD8E5E4F943
:10406000FA227818EF2FFFEE33FEED33FDEC33FC30
:10407000C933C910D7059BE99A4007EC9BFCE99A24
:10408000F90FD8E0E4C9FAE4CCFB2275F010EF2F69
:10409000FFEE33FEED33FDCC33CCC833C810D70769
:1040A0009BEC9AE899400AED9BFDEC9AFCE899F8A4
:0E40B0000FD5F0DAE4CDFBE4CCFAE4C8F92237
:10D76900C2D5E830E70FB2D5E4C39BFBE49AFAE4EB
:10D7790099F9E498F8EC30E717B2D512D79F12401F
:10D789002CE4C39BFBE49AFAE499F9E498F8800342
:10D7990012402C30D50DE4C39FFFE49EFEE49DFDAD
:04D7A900E49CFC22DE
:0E40BE00C3E49FFFE49EFEE49DFDE49CFC2213
:1040CC00EB9FF5F0EA9E42F0E99D42F0EC6480C86B
:0640DC0064809845F0220B
:1040E200EB9FF5F0EA9E42F0E99D42F0E89C45F034
:0140F20022AB
:1040F300BB010789828A830241435005E9F80243E1
:10410300B6BBFE05E9F80243C289828A8302414FA6
:10411300BB010DE58229F582E5833AF5830241432C
:104123005007E92582F80243B6BBFE07E92582F86A
:104133000243C2E58229F582E5833AF58302414FC2
:0C414300E0FCA3E0FDA3E0FEA3E0FF22EF
:10414F00E493FC740193FD740293FE740393FF22B6
:0C415F00E0F8A3E0F9A3E0FAA3E0FB22E3
:10416B00E493F8740193F9740293FA740393FB22AA
:0C417B00ECF0A3EDF0A3EEF0A3EFF022B7
:10418700A8828583F0D083D08212419E12419E126D
:10419700419E12419EE473E493A3C583C5F0C58392
:1041A700C8C582C8F0A3C583C5F0C583C8C582C882
:0141B70022E5
:0C41B800A42582F582E5F03583F5832212
:0941C400E6FB08E6FA08E6F92220
:1041CD00FAE6FB0808E6F925F0F618E6CA3AF622F3
:0941DD00EBF608EAF608E9F62207
:0941E600E0FBA3E0FAA3E0F922DA
:0941EF00EBF0A3EAF0A3E9F022D1
:1041F800BB010789828A830241E65005E9F802413A
:10420800C4BBFE05E9F80243CE89828A830243E0F3
:10421800BB010DE58229F582E5833AF5830241E683
:104228005007E92582F80241C4BBFE07E92582F858
:104238000243CEE58229F582E5833AF5830243E01D
:10424800BB0120E58229F582E5833AF583D0F0D0D9
:10425800E0F8D0E0F9D0E0FAD0E0FBE8C0E0C0F048
:104268000241EF5018E92582F8D083D082D0E0F9D6
:10427800D0E0FAD0E0FBC082C0830241DDBBFE186B
:10428800E92582F8D083D082D0E0F9D0E0FAD0E0F6
:09429800FBC082C0830243D7225F
:1042A100D083D082F8E4937012740193700DA3A3AC
:1042B10093F8740193F5828883E4737402936860C0
:0642C100EFA3A3A380DFC0
:0642C7008A838982E47382
:10DC8000EFB40A07740D12DC8B740A309811A8994E
:10DC9000B8130CC2983098FDA899C298B811F63004
:07DCA00099FDC299F59922DC
:0FDE5100EFC394204007EF947F50028001C3225B
:1042CD00E709F60870FA8046E709F20870FA803EB1
:1042DD0088828C83E709F0A370FA807EE309F608E3
:1042ED0070FA8076E309F20870FA806E88828C830A
:1042FD00E309F0A370FA806289828A83E0A3F6084D
:10430D0070FA805689828A83E0A3F20870FA804A97
:10431D0080D280FA80C680D4806580F28031801092
:10432D0080A680EA809A80A880DA80E280CA8031F7
:10433D0089828A83ECFAE493A3C8C582C8CCC5836D
:10434D00CCF0A3C8C582C8CCC583CC70E9800D89DB
:10435D00828A83E493A3F60870F9ECFAA9F0EDFBD9
:10436D002289828A83ECFAE0A3C8C582C8CCC583B2
:10437D00CCF0A3C8C582C8CCC583CC70EA80DD89DA
:10438D00828A83E493A3F20870F980CE88F0ED243D
:10439D0002B4040050C4F582EB2402B4040050BAF8
:0943AD00232345822390431D7374
:10D513008B488A49894AE4F550F551E54F154FAEDA
:10D523004E7002154E4E6033AB4BAA4CA94D123DC3
:10D5330029FFAB48AA49A94A0551E551AC507002ED
:10D54300055014F5828C83EF123DB4EF60CD740166
:10D55300254DF54DE4354CF54C80C0AB48AA49A99F
:02D563004A225A
:10DDE200E4FFFE123D29600C0FEF70010E09E9708D
:05DDF200F20A80EF229F
:10C78B008B478A488949AB47AA48A949123D29FFDB
:10C79B0012DDF7500D74012549F549E43548F5488C
:10C7AB0080E4D200AB47AA48A949123D29FF642B6C
:10C7BB006004EFB42D1BAB470549E549AA4870024D
:10C7CB00054814F9123D29642D6003D38001C392EF
:10C7DB0000E4F54AF54BAB47AA48A949123D29FF9E
:10C7EB0012DE605036AB47AA48A949123D29FF33E8
:10C7FB0095E0FEEF24D0FBEE34FFFAAE4AAF4B7C54
:10C80B00007D0A123DD6EF2BF54BEE3AF54A74013B
:10C81B002549F549E43548F54880BB300006AE4A5A
:0EC82B00AF4B8009C3E4954BFFE4954AFE2213
:0C43B600E6FC08E6FD08E6FE08E6FF2233
:0C43C200E2FC08E2FD08E2FE08E2FF2237
:0943CE00E2FB08E2FA08E2F92220
:0943D700EBF208EAF208E9F22217
:0C43E000E493FB740193FA740293F92239
:0FDE6000EFC394304007EF943A50028001C32281
:10DDF700EFC394094005EF940E4003BF2003D3807F
:03DE070001C32232
:00000001FF
