:10885900436F707972696768742028432920323020
:1088690030342D3920547261636B205379737465E8
:108879006D7320546563686E6F6C6F676965732CDF
:10888900204C4C43000200FF000000C0C1C181011F
:1088990040C30103C00280C241C60106C00780C7A8
:1088A900410500C5C1C4810440CC010CC00D80CD77
:1088B900410F00CFC1CE810E400A00CAC1CB810B46
:1088C90040C90109C00880C841D80118C01980D918
:1088D900411B00DBC1DA811A401E00DEC1DF811FA6
:1088E90040DD011DC01C80DC411400D4C1D58115B7
:1088F90040D70117C01680D641D20112C01380D3C8
:10890900411100D1C1D0811040F00130C03180F156
:10891900413300F3C1F28132403600F6C1F78137A5
:1089290040F50135C03480F4413C00FCC1FD813D76
:1089390040FF013FC03E80FE41FA013AC03B80FB47
:10894900413900F9C1F88138402800E8C1E9812995
:1089590040EB012BC02A80EA41EE012EC02F80EFA7
:10896900412D00EDC1EC812C40E40124C02580E5B6
:10897900412700E7C1E68126402200E2C1E38123C5
:1089890040E10121C02080E041A00160C06180A1D7
:10899900416300A3C1A28162406600A6C1A78167A5
:1089A90040A50165C06480A4416C00ACC1AD816D76
:1089B90040AF016FC06E80AE41AA016AC06B80AB47
:1089C900416900A9C1A88168407800B8C1B9817915
:1089D90040BB017BC07A80BA41BE017EC07F80BFA7
:1089E900417D00BDC1BC817C40B40174C07580B5B6
:1089F900417700B7C1B68176407200B2C1B38173C5
:108A090040B10171C07080B041500090C191815155
:108A190040930153C052809241960156C0578097A6
:108A290041550095C1948154409C015CC05D809D75
:108A3900415F009FC19E815E405A009AC19B815B44
:108A490040990159C058809841880148C049808996
:108A5900414B008BC18A814A404E008EC18F814FA4
:108A6900408D014DC04C808C41440084C1858145B5
:108A790040870147C046808641820142C0438083C6
:098A890041410081C1808140409F
:109CC000500015000000000000000000000000002F
:109CD000000000430C23000000410C2200410CA6B0
:109CE0000A41000500026F0000026B0000500025D1
:109CF0000000000000000000000000000000000064
:109D00000173004102A600410CAD004200020000B8
:109D1000410CA900420269000042004800004202D2
:109D2000B900A0410CA800410CAC004202BC0000EC
:109D300041000100410004004102EC00410BDC0045
:109D4000410CA70002740000026D00004202BF0037
:109D5000004102BB004102ED0041000000410CAE99
:0D9D600000410014004102EB004102EE043E
:1030F100E4F52DF52CF52BF52A75840F75FFDE759A
:10310100FFAD12A55512A2E9D2FFC2B3C2B6C2B534
:10311100C2B412003E7534017535097536467B011E
:103121007A0C7920129BDE129AC6900CA67414F0C8
:10313100E49002BBF0900000F0900000E0FFC39427
:103141002A5018EF75F015A424C1F582E43402F574
:1031510083E4F0900000E004F080DEE4900000F0F1
:1031610012A4377F007E9612A8C312A97512A72B4D
:10317100E4900280F09002937402F090029C744EED
:10318100F07B017A0279EF90028F122F647A09792C
:10319100489002A2122F647A07792990028C122F8B
:1031A100647A0B79DD90029F122F64E490027FF024
:1031B10090029204F0900289744EF0E4900294F02F
:1031C100A3F0900281F0A3F090029EF090028BF0A8
:1031D10090029DF090028AF01BFAF9900299122F49
:1031E10064900296122F64900286122F64900283DB
:1031F100122F640B7A02797F7F007E847D037C002D
:10320100128CC9900014E07B017A02799260067FEA
:10321100807E2580047F007EE17D007C00128CC9C8
:103221007B017A02796F900044122F647A0279A7A8
:10323100900041122F64E490003EF0A3F09000470B
:10324100F0900014E0600312A93CD2AF900014E0AA
:10325100600312792A1200A6900CAE7401F0C2B676
:10326100E490025CF0A3F0A3F0900268F090026297
:10327100F0A3F0900260F0A3F0A2DA3390025FF0C5
:1032810090026AE02458FE900269E03400900266E0
:10329100F0A3CEF0900048E0FCA3E0FD2406FEE49C
:1032A1003C900264F0A3CEF0ED2405FEE43C900CCA
:1032B100C0F0A3CEF0E5D854037002806C7B017A94
:1032C10000794A754E00754F037F107E0212A041AE
:1032D1009001F0E0540F900006F09001F0E054F0FE
:1032E100C4540F900007F0900006E06403702AE5D3
:1032F100D85403FFBF020890025C7404F0802E9042
:103301000007E090025CB403097403F0A37401F0B8
:10331100801B7401F0A3F08014900007E0B403084F
:1033210090025C7402F08005E490025CF0E4FFFE20
:10333100D3900947E09F900946E09E4013744A2FBD
:10334100F58274003EF583E4F00FBF00010E80E0CA
:103351009002A6E06028C390001AE094B89000198A
:10336100E0940B5019C2B3C2B6C2B5C2B4E4F54C75
:10337100F54D7B937D037F021290DC12996E9002D2
:093381005CE064046003023549BC
:10338A00F52EF52F900048E0FEA3E0FF900CC0E078
:10339A00B50612A3E0B5070D752E01900CC0E475B1
:1033AA00F001122B9330DB1490025EE06404700388
:1033BA000234797404F0752E0102347990025EE0C9
:1033CA00B404277402F090026AE02403FE900269B2
:1033DA00E03400900266F0A3CEF0A2DAE433900261
:1033EA005FF0E4900268F0752E01900266E0FEA399
:1033FA00E0FF900269E0FCA3E0FD6F7002EC6E70E2
:10340A006EA2DA33FF90025FE0FE6F7030900268BE
:10341A00E0C394025005E004F08047EE6010900289
:10342A005EE06402603C7402F0752E018034900202
:10343A005EE06401602C7401F0F52E802590025E36
:10344A00E0640360067403F0752E0190025FE07079
:10345A00047F0180027F0090025FEFF0900268749F
:10346A0001F0ED2458FEE43C900266F0A3CEF09001
:10347A000C22E0FFC394054006EFD3941F403FE5BA
:10348A002E603B90025EE0FF908891E493FD3395B5
:10349A00E0FC90028C75F013ED122F3FEC75F013DF
:1034AA00A42583F583122F5B900007EF122AD475A7
:1034BA004C00754D017B297D037F021290DC90023E
:1034CA005DE06004A3E0701E90025E7401F0900259
:1034DA005DF0900049E02405FE900048E034009039
:1034EA000264F0A3CEF0900264E0FEA3E0FF900035
:1034FA0048E0B50619A3E0B50714900264E475F034
:10350A000A122B9390025EE0B40103752F01900C0E
:10351A0022E0FFC394054009EFD3941F5003E4F55A
:10352A002FE52F601A90025D7405F090026AE0247C
:0F353A0003FE900269E03400900262F0A3CEF02D
:10354900900262E0FEA3E0FF900269E0FCA3E0FDC7
:103559006F7002EC6E60030235E390025DE024FDBA
:10356900605324FE601A1460522404706D90025D49
:103579007403F0ED2428FEE43C900262F0A3CEF03F
:1035890090025DE0B405177406F090026AE0242801
:10359900FE900269E03400900262F0A3CEF090023E
:1035A9005CE024FD600B1460042403702DD2CC80F0
:1035B90029D2CC802590025D7404F090025DE0B4BC
:1035C90006037401F090025CE024FD600B146004B2
:1035D90024037006C2CC8002C2CC900283122F5BF6
:0535E900E94A4B602BD4
:1035EE00900283122F5B8B2E8A2F89307B007A00FC
:1035FE007900900283122F64AB2EAA2FA930E4FF1C
:0B360E00123D77900CBEEEF0A3EFF031
:10361900900CA8E07003023806E4F09002ECE0F4A4
:1036290060030236F090025CE0640460030236E451
:0936390090025EE0B40436D2CC2C
:10364200900CB1122ED00001B774E4FFFEFDFC9085
:103652000CB1122EA8D3122DC14017900CB1122E0C
:103662009C74FFFBFAF9F8122C6E900CB1122EC466
:0236720080D8FE
:0A367400C2CC90025EE064016066C3
:10367E00900CB5122ED0000DBBA0E4FFFEFDFC9009
:10368E000CB5122EA8D3122DC14017900CB5122EC8
:10369E009C74FFFBFAF9F8122C6E900CB5122EC426
:0236AE0080D8C2
:0236B000D2CC7A
:1036B200900CB9122ED000112A88E4FFFEFDFC9076
:1036C2000CB9122EA8D3122DC14017900CB9122E8C
:1036D2009C74FFFBFAF9F8122C6E900CB9122EC4EE
:0236E20080D88E
:1036E400C2B3C2B6C2B5C2B4C2FF80FE9002ECE05F
:1036F400FF64F07023900C22EFF0E4F574F57590FC
:10370400000574FFF0D2B3D2B6D2B5D2B4C2A85376
:10371400E7FD53E7BF023801EFB4F10F900C22F03C
:10372400C2B3C2B6C2B5C2B4023801EF64F2702BA0
:10373400900C22EFF0D2B3D2B6D2B5D2B4900C2111
:10374400E024FFFD900C20E034FFFCE4FBFFFE12BC
:10375400A3CAE4F58443EF010238069002ECE0FFCB
:10376400C394054008EFD3941F5002D2B69002ECE4
:10377400E0FFC39405400CEFD3942350067E007FF2
:103784000180047E007F00900C22E0FDC39405407C
:103794000CEDD3942350067C007D0180047C007DD5
:1037A40000ED6F7002EC6E604C9002ECE0FFC3948D
:1037B40005403FEFD394235039126D5F12A43712A2
:1037C40000A6E4900CADF0900CA6E0FF74A08FF07E
:1037D4008475F00AA4FF90026AE02401FD90026956
:1037E400E03400CD2FFEED35F0900002F0A3CEF0D2
:1037F400800312996E9002ECE0900C22F0E49002A7
:10380400ECF0900C22E0FFC394055003023351EF17
:10381400D394234003023351900283122F5BE94A6D
:103824004B6003023351900C25E060030233519046
:103834000286122F5BE94A4B60030233519002A6C1
:10384400E07003023B2690001AE094B8900019E05F
:10385400940B4007E49002A6F080069002A674013F
:10386400F0C3E570940AE56F648094804006756F38
:1038740000757009900014E06007E49002A5F080E0
:103884003590001BE0FEA3E0FFEF24FBFFEE34EBDA
:10389400FEE434FFFDE434FFFCE47BE87A03F9F84A
:1038A400122C89E47BE57A24F9F812A7BA9002A5D0
:1038B400EFF0E024CEF0900017E0540FFD900015D7
:1038C400E0540FC4F854F0C8E4C4540F482DFF90DA
:1038D4008891E493FD3395E0FC90028C75F013ED30
:1038E400122F3FEC75F013A42583F583122F5B9000
:1038F4000007EF122AD490006075F033E570122FA0
:103904003FE56F75F033A42583F58375F003E56C0B
:10391400122F3FE56B75F003A42583F583E0FF9038
:103924000015A3E0FEEF2EFF908891E4933395E019
:10393400FC90028C75F013ED122F3FEC75F013A47C
:103944002583F583122F5B900008EF122AD4900090
:103954006175F033E570122F3FE56F75F033A425E0
:1039640083F58375F003E56C122F3FE56B75F00367
:10397400A42583F583E0FF900017A3E0FEEF2EFF5C
:10398400908891E4933395E0FC90028C75F013EDEC
:10399400122F3FEC75F013A42583F583122F5B904F
:1039A4000009EF122AD4E5D8F4FF90028C75F013C5
:1039B400ED122F3FEC75F013A42583F583122F5BD2
:1039C40090000AEF122AD490026EE0FF900023E0E8
:1039D400FEA3E0A807088005CEC313CE13D8F9FFD1
:1039E400908891E493FD3395E0FC90028C75F0137C
:1039F400ED122F3FEC75F013A42583F583122F5B92
:103A040090000BEF122AD490026DE0FF900021E0A9
:103A1400FEA3E0A807088005CEC313CE13D8F9FF90
:103A2400908891E493FD3395E0FC90028C75F0133B
:103A3400ED122F3FEC75F013A42583F583122F5B51
:103A440090000CEF122AD490026CE0FF90001FE06B
:103A5400FEA3E0A807088005CEC313CE13D8F9FF50
:103A6400908891E493FD3395E0FC90028C75F013FB
:103A7400ED122F3FEC75F013A42583F583122F5B11
:103A840090000DEF122AD490026BE0FF90001DE02D
:103A9400FEA3E0A807088005CEC313CE13D8F9FF10
:103AA400908891E493FD3395E0FC90028C75F013BB
:103AB400ED122F3FEC75F013A42583F583122F5BD1
:103AC40090000EEF122AD490025AE0A3FF90028CC9
:103AD40075F013ED122F3FEC75F013A42583F583D5
:103AE400122F5B90000FEF122AD490025AA3E0FF2A
:103AF40090028C75F013ED122F3FEC75F013A42592
:103B040083F583122F5B900010EF122AD4754C00BA
:103B1400754D0A7B927D037F021290DC12861B0294
:0E3B2400335190029EE0FF90029DE06F606DB5
:103B3200EF75F0DCA4FF9002A2122F5BE92FF9EAE5
:103B420035F08B2EF52F893090029EE0FFB40204EF
:103B52007F008003EF04FF90029EEFF09002A5E049
:103B6200FF90005E75F033E570122F3FE56F75F040
:103B720033A42583F583EFF0AE6FAF707C007D3305
:103B8200122AF6744A2FF974003E753401F535890C
:0A3B920036AB2EAA2FA93012469E72
:103B9C00023351900CADE0FD7017900002E0FEA3D3
:103BAC00E0FF900269E06E7003A3E06F60030233E4
:103BBC0051900CA6E0FF74A08FF08475F00AA4FF5E
:103BCC0090026AE02401FB900269E03400CB2FFEE6
:103BDC00EB35F0900002F0A3CEF0ED700E900CAC33
:103BEC00F090000274FFF5F0122B939002EEE0FFC0
:103BFC007003023C99900C22E0FEC3940550030222
:103C0C003C99EED3941F4003023C99900CADE070AC
:103C1C0003023D5C90025CE0FE605C900C22E0FDD7
:0B3C2C00C394054052EDD3941F504C90
:103C3700EEB4040790025EE0B4040890025CE0640E
:103C4700046039900CA6E0900CBDB428057406F00A
:103C570080037404F0900CBDE0B5072090025D74FA
:103C670002F0900260E0FEA3E0FF90026AE02FFFFF
:0C3C7700900269E03E900262F0A3EFF0C2
:103C83009002EEE014F06003023D5CF56BF56CF519
:103C93006FF570023D5C900C22E0FFC39405500366
:0C3CA300023D5CEFD394234003023D5C23
:103CAF00900CACE0FF908891E493FD3395E0FC908D
:103CBF00028C75F013ED122F3FEC75F013A42583D2
:103CCF00F583122F5B900007EF122AD49002BCE00D
:103CDF00A3FF90028C75F013ED122F3FEC75F013CC
:103CEF00A42583F583122F5B900008EF122AD4903E
:103CFF0002BCA3E0FF90028C75F013ED122F3FEC86
:103D0F0075F013A42583F583122F5B900009EF1232
:103D1F002AD4754C00754D037B277D037F021290CB
:103D2F00DCE4F52EF52FD3900947E0952F90094647
:103D3F00E0952E4018744A252FF5827400352EF524
:0D3D4F0083E4F0052FE52F70DD052E80D9EF
:103D5C00E4900CADF09002EDF0900CACE06007B28A
:0B3D6C00B5E4F0023351C2B502335140
:0C996E00C2B6C2B590025DE064037070E8
:10997A00900CC2122ED000015F90E4FFFEFDFC9015
:10998A000CC2122EA8D3122DC14017900CC2122E4F
:10999A009C74FFFBFAF9F8122C6E900CC2122EC4BA
:0299AA0080D863
:0399AC00E4F5C817
:1099AF00900CC6122ED000020F58E4FFFEFDFC9063
:1099BF000CC6122EA8D3122DC14017900CC6122E12
:1099CF009C74FFFBFAF9F8122C6E900CC6122EC481
:0299DF0080D82E
:1099E10090025D7401F0A304F090025CE0FFB40406
:1099F1000890025EE064046013EF64047003029A4D
:0C9A0100BC90025DE064046003029ABCAB
:109A0D00900CCA122ED000015F90E4FFFEFDFC9079
:109A1D000CCA122EA8D3122DC14017900CCA122EAB
:109A2D009C74FFFBFAF9F8122C6E900CCA122EC41E
:029A3D0080D8CF
:109A3F0090025CE024FD603F1460042403706ED23A
:019A4F00CC4A
:109A5000900CCE122ED00001B774E4FFFEFDFC90F6
:109A60000CCE122EA8D3122DC14017900CCE122E60
:109A70009C74FFFBFAF9F8122C6E900CCE122EC4D7
:029A800080D88C
:069A8200C2CC8036D2CCFC
:109A8800900CD2122ED00001B774E4FFFEFDFC90BA
:109A98000CD2122EA8D3122DC14017900CD2122E20
:109AA8009C74FFFBFAF9F8122C6E900CD2122EC49B
:029AB80080D854
:0C9ABA00C2CC90025D7401F0E4F5C822FB
:106D5F00900269E0F533A3E0F534E4F56FF570F5D3
:106D6F006BF56C900CACF0A3F0900946E0FEA3E03D
:106D7F00FF7B017A00794A754E00754F0112A041D1
:106D8F00900BDCE024FC601424027027900CA67496
:106D9F0014F0900260E4F0A374F08026900CA674B7
:106DAF0028F0900260E4F0A374A4F09002EE740651
:106DBF00F08016900CA6740AF09002607402F0A393
:106DCF007434F09002EE7404F0900CA7E09002BBC4
:106DDF00F09002B7E0FCA3E0FD4C700890000AF0C1
:106DEF00A3F080679002BEE0701E1226F7A804A9D8
:106DFF0005AA06AB07E4FFFE7D7A7C481225D71261
:106E0F0027307C007DF080389002BEE0B40F037411
:106E1F0010F09002B7E0FCA3E0FDE41226F7A804FF
:106E2F00A905AA06AB07E4FFFE7D7A7C481225D799
:106E3F001227309002BEE0FD74788DF084FD7C0047
:106E4F00122AF690000AEEF0A3EFF0E5D854037083
:106E5F00079002BBF002713B7B017A00794A754EB5
:106E6F0000754F037F107E0212A041E4F531F53219
:106E7F0090006275F028E532122F3FE53175F0284A
:106E8F00A42583F583E024FB601524FB7022746B2B
:106E9F002532F58274023531F5837403F080207446
:106EAF006B2532F58274023531F5837402F0800F51
:106EBF00746B2532F58274023531F5837404F00555
:106ECF0032E532700205316404453170A3E4F531C7
:106EDF00F53290006F75F028E532122F3FE53175CE
:106EEF00F028A42583F583E0FDE53225E0FFE531A9
:106EFF0033FE740D2FF58274003EF583EDF0900094
:106F0F006375F028E532122F3FE53175F028A4257F
:106F1F0083F583122EA890006775F028E532122FA3
:106F2F003FE53175F028A42583F583122E9C12239B
:106F3F00D9C004C005C006C00790006375F028E5EE
:106F4F0032122F3FE53175F028A42583F583122ED9
:106F5F00A890006B75F028E532122F3FE53175F0E0
:106F6F0028A42583F583122E9C1223D9D003D00297
:106F7F00D001D0001225D7E4FBFAF9F8122674904D
:106F8F00006375F02860054003027019E532122F77
:106F9F003FE53175F028A42583F583122EA89000C4
:106FAF006775F028E532122F3FE53175F028A425DB
:106FBF0083F583122E9C1223D9C004C005C006C0CE
:106FCF000790006375F028E532122F3FE53175F019
:106FDF0028A42583F583122EA890006B75F028E561
:106FEF0032122F3FE53175F028A42583F583122E39
:106FFF009C1223D9D003D002D001D0001225D7C0C4
:10700F0004C005C006C00702709FE532122F3FE58E
:10701F003175F028A42583F583122EA8900067758B
:10702F00F028E532122F3FE53175F028A42583F5BE
:10703F0083122E9C1223D9C004C005C006C007902E
:10704F00006375F028E532122F3FE53175F028A463
:10705F002583F583122EA890006B75F028E5321268
:10706F002F3FE53175F028A42583F583122E9C124E
:10707F0023D9D003D002D001D0001225D71226E198
:10708F00AB07AA06A905A804C000C001C002C0032F
:10709F0090007075F028E532122F3FE53175F0281A
:1070AF00A42583F583E0FF90007175F028E5321277
:1070BF002F3FE53175F028A42583F583E0C39FFDAD
:1070CF00E49400FCE41226F7D003D002D001D000E4
:1070DF001224CEC004C005C006C00790007075F022
:1070EF0028E532122F3FE53175F028A42583F5836B
:1070FF00E0FCE41226FCD003D002D001D000122312
:10710F00DD122730AD07E53225E0FFE53133FE74A0
:10711F000C2FF58274003EF583EDF00532E53270E9
:10712F00020531640445316003026EE19002BBE059
:10713F0030E7034403F0E4F531F532D3900947E02B
:10714F009532900946E095314018744A2532F58200
:10715F0074003531F583E4F00532E53270DD053129
:02716F0080D9C5
:0171710022FB
:09861B009002BBE07003028858D4
:03862400753106A7
:10862700AF319002BBE0FEA807088002C313D8FC55
:1086370020E00302884AE531122FF687BD0087B490
:108647000186A50286A503866304866305865B0605
:108657000000884AE5D8F4F53202884AAF31EF3393
:1086670095E0FEEF25E0FFEE33FE74192FF58274D7
:10867700003EF583E0FEA3E0FFAD31ED3395E0FC6E
:1086870074692DF58274023CF583E0FDEFA80508B7
:0E8697008005CEC313CE13D8F9F53202884AFF
:1086A500E4F533AF31EF3395E0FEEF25E0FFEE3330
:1086B500FE74192FF58274003EF583E0FEA3E0FFFA
:1086C500AD31ED3395E0FC74692DF58274023CF50E
:1086D50083E0FBEFA803088005CEC313CE13D8F9BA
:1086E500F53274042DF58274003CF583E064026074
:1086F5000302884AAF31EF3395E0FEEF25E0FFEE48
:1087050033FE74092FF58274003EF583E06023047F
:10871500604624FE706A74082FF58274003EF58366
:10872500E0FFE532D39F40047F0180027F008F3355
:10873500804EAF31EF3395E0FEEF25E0FFEE33FEDF
:1087450074082FF58274003EF583E0B532047F018D
:1087550080027F008F338028AF31EF3395E0FEEF45
:1087650025E0FFEE33FE74082FF58274003EF58395
:10877500E0FFE532C39F50047F0180027F008F3305
:10878500E5336015E5312402FF7401A8070880026E
:10879500C333D8FC42C802884AE5312402FF74017C
:0F87A500A807088002C333D8FCF452C802884AE0
:0987B40090025AE0F53202884AF5
:1087BD0090025AE0FEA3E0FFF53290000AE0FCA320
:1087CD00E0FD4C6078EF4E6074D3ED9FEC9E503819
:1087DD00E4F533F53474062534F58274003533F53C
:1087ED0083E0B40113E5342404FF7401A807088065
:1087FD0002C333D8FCF452C80534E5347002053396
:10880D006402453370CF8035E4F533F534740625B5
:10881D0034F58274003533F583E0B40112E5342468
:10882D0004FF7401A807088002C333D8FC42C805B1
:0D883D0034E534700205336402453370D019
:0E884A001531C3E53164809480400302862717
:0188580022FD
:10A4A0008B528A538954E92DF9EA3C8B55F556892C
:10A4B00057E4F558F559C3855683855782E5549579
:10A4C00082E5539583502F7852E475F001122F4B9B
:10A4D000122A49FFE5596F25E0FFE433FE74922FFD
:10A4E000F58274883EF583E558FFE493F5587401CE
:0AA4F000936FF55980C0AE58AF59C4
:01A4FA00223F
:109AC600E4900D62F07B017A0C792612A5AC900C1D
:109AD6008FE07004A3E064EA700C900C91E07004CF
:109AE600A3E064086018900C8FE4F0A374EAF09089
:109AF6000C91E4F0A37408F0900D627401F0900CE0
:109B060078E0B4FF0974C8F0900D627401F0900C0F
:109B160077E0640160077401F0900D62F0900C200C
:109B2600E0FCA3E0FDB40015ECB41011900C94E039
:109B360030E40AE054EFF0900D627401F0E4B505EC
:109B460015ECB42011900C94E020E40AE04410F0E7
:109B5600900D627401F0900C26E0FF12A966400D8C
:109B6600900C26E06007E4F0900D6204F0900C3A49
:109B7600E0FF12A966400D900C3AE06007E4F09011
:109B86000D6204F0900C4EE0FF12A966400D900C99
:109B96004EE06007E4F0900D6204F0900C97E0B49C
:109BA600FF07E4F0900D6204F0900C98E0B4FF110A
:109BB600A3E0B4FF0CE4900C98F0A3F0900D6204BF
:109BC600F0900D62E0601012A8957B017A0C792660
:079BD6007D807C0012A35BFF
:019BDD002265
:10A89500AF84E4F584781EF608F6A2AF33FEC2AFA6
:10A8A50043B701758F0718E6FC08E6F5828C83E44B
:0DA8B500F0F58F53B7FEEE24FF92AF8F84B5
:01A8C2002273
:0AA35B008B458A4689478C488D49DE
:10A3650085844AE4F584781EF608F6A2AF33FFC269
:10A37500AF43B701758F05E4F54BF54CC3E54C9537
:10A3850049E5486480F8E54B64809850297845E4B0
:10A3950075F001122F4B122A49FE781E0806E618A1
:10A3A500860470010614F5828C83EEF0054CE54CAD
:10A3B50070CA054B80C6E4F58F53B7FEEF24FF92B4
:04A3C500AF854A8492
:01A3C9002271
:06A5AC008B458A46894739
:10A5B200858448E4F549F54AF584A2AF33F54BC2E8
:10A5C200AF758F04E4FFFE054AE54AAC4970020507
:10A5D2004914F5828C83E493FD7845E475F0011209
:10A5E2002F4BED122AC20FBF00010EEF64804E7096
:0DA5F200D6E4F58FE54B24FF92AF85488439
:01A5FF002239
:0EA166008E4C8F4D8C4E8D4F8B508A518952EE
:09A1740012007EEF30E7F9C2F998
:10A17D00E4F557F5580558E5587002055764404504
:03A18D005770F216
:10A19000E54D6401454C70047F8480027F87120086
:10A1A0005EE4FF12005EE4FF12005EE4FF12005E58
:10A1B000E4F555F556C3E556954FE54E6480F8E550
:10A1C00055648098501DAB50AA51A952855682857E
:10A1D0005583122A62FF12005E0556E55670D605B9
:10A1E0005580D2D2F9AD54AC53AF4DAE4C02A26EF5
:08A26E008E598F5A8C5B8D5C48
:10A27600900946E0FEA3E0FF129FA78F5D12007EC5
:06A28600EF30E7F9C2F918
:10A28C00E4F55EF55F055FE55F7002055E644045D1
:03A29C005E70F2FF
:10A29F00E55D6010E55A6401455970047F838012B3
:10A2AF007F86800EE55A6401455970047F828002D3
:10A2BF007F8512005EE55CAE5B7806CEA2E713CE1B
:10A2CF0013D8F8FF12005EAF5CEF25E025E0FF1218
:09A2DF00005EE4FF12005ED2F9FA
:01A2E8002253
:02007E00C2F9C5
:10008000E4F569F56A056AE56A7002056964404548
:030090006970F2A2
:0C0093007FD712005EE4FF12005ED2F97D
:01009F00223E
:0AA041008E498F4A8B4B8A4C894DE3
:09A04B0012007EEF30E7F9C2F9C2
:10A05400E4F552F5530553E5537002055264404547
:03A064005270F245
:10A067007FD212005EE54FAE4E7806CEA2E713CE42
:10A0770013D8F8FF12005EAF4FEF25E025E0FF127F
:10A08700005EE4FF12005EE4FF12005EE4FF1200D0
:10A097005EE4FF12005EE4FF12005EE4F550F55146
:10A0A700C3E551954AE5496480F8E55064809850C6
:10A0B7001FE4FF12005EAB4BAA4CA94D8551828568
:10A0C7005083EF122AD40551E55170D4055080D042
:02A0D700D2F9BC
:01A0D9002264
:089FA7008E608F618C628D63F6
:0C9FAF0075640112007EEF30E7F9C2F982
:109FBB00E4F567F5680568E5687002056764404578
:039FCB006770F2CA
:109FCE007FD212005EE563AE627806CEA2E713CEB4
:109FDE0013D8F8FF12005EAF63EF25E025E0FF1205
:109FEE00005EE4FF12005EE4FF12005EE4FF12006A
:109FFE005EE4FF12005EE4FF12005EE4F565F566B6
:10A00E00C3E5669561E5606480F8E5656480985007
:10A01E001DE4FF12005EBFFF047F0180027F008FF0
:10A02E0064EF600A0566E56670D6056580D2D2F9E2
:02A03E00AF640D
:01A0400022FD
:04A699008E478F4811
:09A69D0012007EEF30E7F9C2F96A
:10A6A600E4F549F54A054AE54A700205496440451C
:03A6B6004970F2F6
:10A6B9007F5012005EE548AE477806CEC313CE132D
:10A6C900D8F9FF12005EAF48EF25E025E0FF120040
:08A6D9005EE4FF12005ED2F9FD
:01A6E1002256
:04A6E2008E498F4AC4
:09A6E60012007EEF30E7F9C2F921
:10A6EF00E4F54BF54C054CE54C7002054B644045C9
:03A6FF004B70F2AB
:10A702007F8112005EE54AAE497806CEC313CE13AE
:10A71200D8F9FF12005EAF4AEF25E025E0FF1200F4
:08A722005EE4FF12005ED2F9B3
:01A72A00220C
:06A3CA008C428D438B4420
:10A3D000E5446002C2B68E458F46D3E5469543E517
:10A3E000459542504BE54654077034C3E5439546C6
:10A3F000FFE5429545FEC3EF9408EE94004020E54A
:10A40000446008E546543F7002B2B6AF46AE45120E
:10A41000A69974072546F546E43545F5458007AF0E
:10A4200046AE4512A6E20546E54670AE054580AA51
:06A43000E5446002C2B623
:01A436002203
:069BDE008B318A3289334D
:069BE400D2F8D2F9C2FA2A
:109BEA00E4F537F5380538E538700205376440453D
:039BFA003770F2CF
:029BFD00D2FA9A
:109BFF00E4F537F5380538E5387002053764404528
:039C0F003770F2B9
:109C120012007EEF543C122FF69C340C9C3E149C96
:109C2200481C9C52249C6D2C9C88349CA33C0000B4
:109C32009CBFAB31AA32A9337402801CAB31AA3269
:109C4200A93374048012AB31AA32A9337408800894
:109C5200AB31AA32A933741075F000122C22AB3446
:109C6200AA35A936740175F008804FAB31AA32A922
:109C720033741075F000122C22AB34AA35A9367455
:109C82000275F0108034AB31AA32A933742075F01A
:109C920000122C22AB34AA35A936740275F010805A
:109CA20019AB31AA32A933742075F000122C22AB01
:0D9CB20034AA35A936740475F020122C2256
:019CBF002282
:10FE00008E448F458E448F45E4F546F547A2AF33C7
:10FE1000F548C2AFE4F58443B701758F03C3E546E7
:10FE200094FC50168547828546837488F0E4254704
:10FE3000F54774043546F54680E3E4F58FF546F55D
:10FE400047F54BF54C75840FE54C54037002B2B680
:10FE500012FFB58F4DE54D30E7F6C2F9E4F54EF5EA
:10FE60004F054FE54F7002054E6440454E70F27FDE
:10FE7000D212FFA4E54CAE4B7806CEC313CE13D8F6
:10FE8000F9FF12FFA412FF9CE4FF12FFA4E4FF128B
:10FE9000FFA4E4FF12FFA4E4FF12FFA4E4FF12FF9B
:10FEA000A4E4F549F54AE4FF12FFA4744A254AF593
:10FEB0008274003549F583EFF0054AE54A70020582
:10FEC00049C3E549940240DED2F9E4F584758F0117
:10FED000F549F54A744A254AF58274003549F58397
:10FEE000E0FF0547E547AC467002054614F5828CF5
:10FEF00083EFF0054AE54A70020549B400D6E549AA
:10FF0000B402D1E4F58F054CE54C7002054BC39467
:07FF10007FE54B9400500354
:10FF170002FE45E4F58F53B7FEE54824FF92AFE4B0
:10FF2700F5D075840FF54BF54CC3E54B9420505431
:10FF3700E54C543F7002B2B512FFB58F4DE54D3019
:10FF4700E7F6C2F9E4F54EF54F054FE54F700205A8
:10FF57004E6440454E70F27F5012FFA4E54CAE4B05
:10FF67007806CEC313CE13D8F9FF12FFA412FF9C55
:10FF7700E4FF12FFA4D2F97408254CF54CE4354B85
:10FF8700F54B80A512FFB58F4DE54D30E7F6E4F54B
:05FF97008443EF01228C
:10FF9C00AF4CEF25E025E0FFAE84E4F5848F9B3079
:09FFAC00FFFDC2FFAF9B8E842211
:10FFB500C2F9E4F550F5510551E55170020550645B
:10FFC50040455070F27FD712FFA4E4FF12FFA4D280
:02FFD500F9220F
:1090C20090888EE493FFAB32AA33A9349000011248
:0A90D2002A62FDE4F54CF54D7B0623
:0490DC008F498B4BE2
:1090E000754EFFE4F54FF550ED90888E93F5517471
:1090F000222DF582E4340CF5837464F090888EE4BC
:1091000093B54919E54B64066013E54B6415600D92
:10911000741C2DF582E4340CF583E54BF0E55175B4
:10912000F013A4248CF582E43402F583122F5B74CF
:1091300016122AC2E55175F013A4248CF582E4348A
:1091400002F583122F5B900001E549122AD4E55104
:1091500075F013A4248CF582E43402F583122F5B9E
:10916000900002ED122AD47402254DF54DE4354CE1
:10917000F54CFFE55175F013A4248CF582E434021C
:10918000F583122F5B900003EF122AD4E55175F09E
:1091900013A4248CF582E43402F583122F5B900033
:1091A00004E54D122AD4E55175F013A4248CF58200
:1091B000E43402F583122F5B900005E54B122AD4AC
:1091C000E4FEFFE55175F013A4248CF582E434022B
:1091D000F583122F5B8F828E83122A62624E0FBF3D
:1091E00000010EEF64064E70DAE55175F013A42409
:1091F0008CF582E43402F583122F5B900006E54E75
:10920000122AD474FE254DF54D74FF354CF54CE50E
:109210005175F013A4248CF582E43402F583122FE7
:109220005BE92407F9E43AFAAD4DAC4C12A4A08EE8
:109230004F8F50EEFFE55175F013A4248CF582E4B6
:109240003402F583122F5B054DE54D7002054C2469
:1092500006F582E4354CF583EF122AD4E55175F01A
:1092600013A4248CF582E43402F583122F5B054DA0
:10927000E54D7002054C2406F582E4354CF583E596
:1092800050122AD4E55175F013A4247FF9740235E5
:10929000F0FA7B01E54D2407FDE4354CFC12A4FBFC
:0992A000E54D2407FFE4354CFE06
:0192A90022A2
:083D77008F318B328A3389344D
:103D7F00E4900CCEF0A3F0900003122A62FE9000A4
:103D8F0004122A627C002400FFEC3ECF24FECF34C5
:103D9F00FFFE900CD0F0FCA3EFF0FDE92407F9E44F
:103DAF003AFA12A64F900CCEEEF0A3EFF04E603A17
:103DBF00AB32AA33A934900005122A62FF64157042
:103DCF0003024695EF6406700302469590000112B8
:103DDF002A622422F582E4340CF5837464F0900097
:0A3DEF0001122A62FF7D040241A2C6
:103DF900AB32AA33A934900002122A62FF90888E4E
:103E0900E4936F7003023EB3EFF47003023EB3EF25
:103E190093FF3395E0FE90028C75F013EF122F3F5C
:103E2900EE75F013A42583F583122F5BE92407F9B6
:103E3900E43A8B3AF53B893CE5342407F9E4353318
:103E4900853237F5388939E4F535F536D3900CD113
:103E5900E09536900CD0E0953540247837E475F03C
:103E690001122F4B122A49FF783AE475F001122FFB
:103E79004BEF122AC20536E53670D1053580CDAB38
:103E890032AA33A934900001122A62FF900002126B
:103E99002A62FD900005122A62FB900CD0E0F54CD5
:103EA900A3E0F54D1290DC024695AB32AA33A93452
:103EB900900005122A62122FF63F14063F4F103F59
:103EC900381541DD30430231432A324352334442EB
:103ED90034437A3543A23643CA3744423843F23928
:103EE900441A3A413641413642446E5044C0514227
:103EF900125540717040D5713F7C9045AB91446635
:103F09009342CA94400B9800004661900001122A1E
:103F190062241CF582E4340CF583AB32AA33A9344C
:103F2900900001122A62241CF582E4340C8010AB43
:103F390032AA33A934122A49241DF582E4340CF536
:103F490083E4F002464E900C22E0FFC3940540063C
:103F5900EFD3941F4004EFB4E20512A600800312C8
:103F690090C2900CCEEEF0A3EFF0AB32AA33A93495
:033F790002464EAF
:103F7C00900C22E0FFC394054006EFD3941F40043D
:103F8C00EFB4E20512A6008065AB32AA33A93490D7
:103F9C000007122A62FE900008122A627C0024009C
:103FAC00F53EEC3EF53DE53175F013A4248CF5821D
:103FBC00E43402F583122F5BE92407F9E43AFA9012
:103FCC000946E0FEA3E0FF853D4E853E4F12A04121
:103FDC0090888EE493FFAB32AA33A934900001127F
:103FEC002A62FD900946E0F54CA3E01290D8900CA3
:0F3FFC00CEEEF0A3EFF0AB32AA33A93402464E5B
:10400B00900C22E0FFC394054006EFD3941F4004AD
:10401B00EFB4E20512A600803CAB32AA33A9349070
:10402B000007122A62FE900008122A627C0024000C
:10403B00F53EEC3EF53D900946E0FCA3E0FDE9249E
:10404B0009F9E43AFA853D53853E547F027E00120E
:10405B00A1661290C2900CCEEEF0A3EFF0AB32AA99
:06406B0033A93402464EA9
:10407100900C22E0FFC394054006EFD3941F400447
:10408100EFB4E20512A600803AE53175F013A424DD
:104091008CF582E43402F583122F5BE92407F9E4FD
:1040A1003AFA12A5AC90888EE493FFAB32AA33A9F9
:1040B10034900001122A62FD754C00754D807B061B
:1040C1001290DC900CCEEEF0A3EFF0AB32AA33A944
:1040D1003402464E900C22E0FFC394054006EFD314
:1040E100941F4004EFB4E20512A600803712A89590
:1040F100AB32E5342407F9E43533FA900CD0E0FE15
:10410100A3E0FFC39480EE94005006AC06AD078097
:10411100047C007D8012A35B7B017A0C792612A5B9
:10412100AC1290C2900CCEEEF0A3EFF0AB32AA33FA
:05413100A93402464E16
:10413600900C22E0FFF53DAB32AA33A9349000057E
:10414600122A62FE7C00B441047D0080027D058C4B
:104156003E8D3FEE900C21E024FFFD900C20E034D4
:10416600FFFC8C408D41AB32AA33A934900001127A
:104176002A622422F582E4340CF583E4F0EFC3943A
:10418600054009900C22E0D3941F4007900C22E0D2
:10419600B4E217900001122A62FF7D2012A60F904A
:1041A6000CCEEEF0A3EFF0024695900C2274E2F0EE
:1041B6001290C2900CCEEEF0A3EFF0E4FFFE12A632
:1041C600E27B01AD41AC40AF3FAE3E12A3CA900CBC
:0741D60022E53DF0024695D1
:1041DD001290C2900CCEEEF0A3EFF0AB32AA33A941
:1041ED0034900001122A622422F582E4340CF58306
:1041FD00E4F012007E8F3DE53D30E7F6E4F58443B3
:05420D00EF01024695DF
:104212001290C2900CCEEEF0A3EFF07B017A0279FD
:0C4222007F7F007EE17D007C00128CC9D3
:10422E00900CC2122ED000004650E4FFFEFDFC9012
:10423E000CC2122EA8D3122DC14017900CC2122EF2
:10424E009C74FFFBFAF9F8122C6E900CC2122EC45D
:02425E0080D806
:10426000E4F584C2ACC298D29975840153E7BFC209
:0342700098D29948
:1042730075840F30E815C39002C0E094099002BF23
:10428300E094004006E4F58443EF01E4F5843098BC
:1042930017758401309911C299F58485993DC298A7
:1042A300B2B4758401853D997584013098C2E4F5F3
:1042B300843099BCC29975840185993DC298B2B581
:0542C300F584853D9922
:1042C80080A91290C2900CCEEEF0A3EFF0AB32AA08
:1042D80033A934900001122A622422F582E4340CB6
:1042E800F583E4F0900014E070030246959000070F
:1042F800122A62FF12A8ED0246951290C2900CCEC7
:10430800EEF0A3EFF0AB32AA33A934900001122AE1
:10431800622422F582E4340CF583E4F01215B1022C
:1043280046951290C2900CCEEEF0A3EFF0AB32AAF5
:1043380033A934900001122A622422F582E4340C55
:10434800F583E4F0124ED50246951290C2900CCE39
:10435800EEF0A3EFF0AB32AA33A934900001122A91
:10436800622422F582E4340CF583E4F012837102AE
:1043780046951290C2900CCEEEF0A3EFF0AB32AAA5
:1043880033A934900001122A622422F582E4340C05
:10439800F583E4F01255C90246951290C2900CCEEE
:1043A800EEF0A3EFF0AB32AA33A934900001122A41
:1043B800622422F582E4340CF583E4F0125B4A02AD
:1043C80046951290C2900CCEEEF0A3EFF0AB32AA55
:1043D80033A934900001122A622422F582E4340CB5
:1043E800F583E4F01269250246951290C2900CCE2E
:1043F800EEF0A3EFF0AB32AA33A934900001122AF1
:10440800622422F582E4340CF583E4F01275760216
:1044180046951290C2900CCEEEF0A3EFF0AB32AA04
:1044280033A934900001122A622422F582E4340C64
:10443800F583E4F012805B024695AB32AA33A934C7
:10444800900001122A622422F582E4340CF583E4F8
:10445800F0900005122A62FF127CDB02469590025A
:10446800EC74FF024543900C22E064F07027754518
:1044780001754600754705AB32AA33A934129E4D23
:104488001290C2900CCEEEF0A3EFF00575E57570B2
:104498001E0574801AAB32AA33A934900001122A7F
:1044A80062FF7D0812A60F900CCEEEF0A3EFF0ABE2
:1044B80032AA33A93402464E900C22E0B4F114AB70
:1044C80032AA33A934900007122A62FF900005E04F
:1044D8006F6072AB32AA33A934900001122A62FFCE
:1044E8007D0812A60F900CCEEEF0A3EFF0AB32AA27
:1044F80033A934900001122A622422F582E4340C94
:04450800F583E4F063
:10450C00900CC6122ED00000AFC8E4FFFEFDFC904C
:10451C000CC6122EA8D3122DC14017900CC6122E09
:10452C009C74FFFBFAF9F8122C6E900CC6122EC478
:02453C0080D825
:10453E009002EC74F2F0900CA87401F00246951201
:10454E0090C2900CCEEEF0A3EFF0AB32AA33A934AA
:10455E00900001122A622422F582E4340CF583E4E1
:01456E00F05C
:10456F00900CCA122ED00000AFC8E4FFFEFDFC90E5
:10457F000CCA122EA8D3122DC14017900CCA122E9E
:10458F009C74FFFBFAF9F8122C6E900CCA122EC411
:02459F0080D8C2
:1045A100AF75AE7412A7FE024695900CA87401F087
:1045B100AB32AA33A934900007122A629002ECF0C0
:1045C100D3900CD1E09401900CD0E09400406D9018
:1045D1000008122A62540F900BDCF0900009122A95
:1045E10062900CA7F0E4F535F536AB32AA33A93465
:1045F100E536240AFFE435358F82F583122A62FFFE
:10460100746B2536F58274023535F583EFF0053686
:10461100E536700205356404453570CEAB32AA33F8
:10462100A93490000E122A629002BEF090000F127F
:104631002BEAFF9002B7E5F0F0A3EFF01290C290E1
:104641000CCEEEF0A3EFF0AB32AA33A93490000107
:10465100122A622422F582E4340CF583E4F08034DA
:10466100AB32AA33A934900001122A622422F582C6
:10467100E4340CF5837464F0900001122A62FF7D2A
:104681000212A60F900CCEEEF0A3EFF074FF900C87
:04469100CEF0A3F0D4
:08469500900CCEE0FEA3E0FF53
:01469D0022FA
:0AA64F008B428A4389448C458D46F6
:10A6590012A4A08E478F48AB42AA43A944854682DB
:10A66900854583122A627F00FEE5462401FDE43513
:10A67900458D82F583122A622FFFE43EFEE548B537
:0FA689000709E547B50604E4FEFF227EFF7FFFC9
:01A69800229F
:0FA60000AB32AA33A934900001122A62FF7D20E9
:10A60F00AE07EE90888E93FB3395E0FA90028C752F
:10A61F00F013EB122F3FEA75F013A42583F5831285
:10A62F002F5B900007ED122AD490888EE493FFAD34
:10A63F0006754C00754D017B151290DCE4FEFF2270
:069E4D008B428A438944A8
:109E5300E4F548F549900003122A62FE90000412CB
:109E63002A62FDEEF54AEDF54BE4F548F549E54B7D
:109E730024FEFFE54A34FFFEC364809482500280CF
:109E8300047E027F00C3E5499FEE6480F8E54864E1
:109E930080985048AB45AA46A947C003C002C001F9
:109EA300122A49FFAB42AA43A944E5492407FDE42A
:109EB30035488D82F583122A62FE744A2549F5825C
:109EC30074003548F583EEF06FD001D002D0031251
:109ED3002AC20549E5497096054880927E00E575DA
:109EE3005401FF900946E0FCA3E0FD7B017A007971
:0A9EF3004A85745385755402A16678
:04A7FE008E428F43B5
:10A8020090FE00E493FE740193FF900CD5EEF0A34A
:10A81200EFF0BE8012BFFE0F7B007AFE7902900C31
:0EA82200D2122F64023049AF75AE7412FE00E0
:01A830002205
:10A437008584317B017A0C792612A5AC900014E053
:10A44700702EF58475D98075D84075DA4275DB4270
:10A45700900C8BE0A3E0F5FB900C8BE0A3E0F5FC00
:10A46700900C8DE0A3E0F5FD900C8DE0A3E0F5FEE8
:10A47700900CA6E0FD7C007E057F00122B088E71F4
:10A487008F72E4F58475E8C075D107F5BAF5BB7529
:08A49700BC7043E7028531842B
:01A49F00229A
:03007B0002963AB0
:10963A00C0E0C0F0C083C082C0D075D000C000C0F6
:0B964A0002C003C004C005C006C0073A
:10965500758400C2EDE57325E02425F582E4340028
:10966500F583E5BF85BEF0122B93E573122FF696B1
:10967500900096980196A00296B30396BB0496C3F4
:109685000596CB0696D307000096D975BB01757371
:1096950001804175BB027573028039900014E0604A
:1096A5000575BB07800375BB08757303802675BBFD
:1096B50003757304801E75BB04757305801675BB31
:1096C50005757306800E75BB06757307800675BB39
:1096D50000757300E572157270021571144571609D
:0496E500030297CC19
:1096E900900CA6E0FF74A08FF0841313543F7522E9
:1096F90000F523E4FBFAEB64034A7026900014E0BA
:109709007020900CA6E075F00A84FF7E0090002B73
:10971900E0FCA3E0FD122AF690001BEEF0A3EFF0A7
:109729008037EB25E0FFEA33FE74252FF5827400BC
:109739003EF583E0FEA3E0FFAC22AD23122B08AC7B
:1097490006AD07EB25E0FFEA33FE74152FF58274A9
:10975900003EF583ECF0A3EDF0EB25E0FFEA33FEE4
:1097690074252FF58274003EF583E4F0A3F00BBB5A
:1097790000010AEB64084A60030296FF900004E0C6
:109789007029900C85E0FEA3E0FF900C84E02FFF88
:10979900900C83E03EFE900015E0FCA3E0FDC3EFD2
:1097A9009DFFEE9C900015F0A3EFF0900CA6E0FD54
:1097B9007C007E057F00122B088E718F729002A6A5
:0397C9007401F038
:0C97CC00E5737003D38001C34002D2ECAF
:1097D800D007D006D005D004D003D002D000D0D016
:0997E800D082D083D0F0D0E03231
:039D6D000119FFDA
:10A2E900AF8475840F75E1EF75E20775E34475A4D2
:10A2F900157580EA75ADFF75A53D759001E4F5A664
:10A3090075A0FF75A7F875B07F759CFFF5C8F59D19
:10A3190075D8FFF59E75E8FFE5E854E0FEBEC00478
:10A329007E0180027E00900014EEF06008759FF7B0
:10A3390075F8978006759FFF75F8F720D80330D90F
:10A349000E9002EB7401F0900014E06002D2FB8FD2
:01A35900847F
:01A35A0022E0
:10A72B00AF84E4F584F5D875D980F5F9F5FAF5E938
:10A73B0075EA0C75DC4675D840900CAAF0A3F09026
:10A74B00025AF0A3F0F584C28C758905438E08F587
:10A75B008AF58CC28DD28C75840175888075893091
:07A76B00D2A943E6308F8400
:01A7720022C4
:0DA97500AF84E4F584C289D288D2A88F8413
:01A9820022B2
:03005B000297F118
:1097F100C0E0C0F0C083C082C0D075D000C000C03E
:0D98010001C002C003C004C005C006C007BE
:10980E0053E6CF758400AF8CEFFEAD8A7C00E42D5D
:10981E00F525EC3EF524900CAAE0FEA3E0FFC3E58F
:10982E00259FFFE5249EFED3EF9464EE9400500333
:10983E0002994AC28C758A00758C00C28DD28CE555
:04984E0019F4704158
:10985200F519F526AE24AF25E52625E02435F58257
:10986200E43400F583EEF0A3EFF0E4FCFDE51D2FF8
:10987200FFE51C3EFEED351BFDEC351A8F1D8E1CDF
:0E9882008D1BF51A0526E526B404C990025A7E
:1098900002993C0519E519C394044003751900E5C4
:1098A0001925E02435F582E43400F583E0FEA3E0D9
:1098B000FBC3E51D9BFFE51C9EFEE51B9400FDE53B
:1098C0001A94008F1D8E1C8D1BF51AAE24AF25E552
:1098D0001925E02435F582E43400F583EEF0A3EF9A
:1098E000F0E4FCFDE51D2FFFE51C3EFEED351BFD04
:1098F000EC351A8F1D8E1C8D1BF51AE47B04FAF9CA
:10990000F8AC1A122D148E248F25C390025BE095BB
:1099100025FF90025AE09524FEC394004006AC0651
:10992000AD078009C3E49FFFE49EFCAD0790025A97
:10993000E0C313FFC3ED9FEC94004007E524F0A3C0
:10994000E525F0900CAAE4F0A3F07584015388CFCC
:0399500043E630BB
:10995300D007D006D005D004D003D002D001D00068
:0B996300D0D0D082D083D0F0D0E03212
:0300530002A7738E
:10A77300C0E0C083C082C0D075D000C004C005C093
:10A7830006C00753E6CF758400AF8CEFFEAD8A7C1D
:10A7930000E42DFFEC3E900CAAF0A3EFF0758401CA
:10A7A3005388CF43E630D007D006D005D004D0D0AD
:07A7B300D082D083D0E03218
:03000B0002A83117
:10A83100C0E0C083C08253E6CF758400C28C758AA4
:10A8410000758C00D28C900CAAE4F0A3F090025A0F
:10A85100F0A3F07584015388CF43E630D082D083D2
:03A86100D0E03212
:0300030002A1F067
:10A1F000C0E0C0F0C083C082C0D075D000C000C035
:09A2000003C004C005C006C0073C
:10A20900A2AFE433FB900CAD7401F0900CA6E0FD15
:10A219007C007E057F00122B088E718F727573008A
:10A229007F10900025E4F0A3DFFCC2AF53E7FE7571
:10A239008400C2ECC2ED75BB0075840175C8007459
:0EA24900FFF5CDF5CC43E70143C8042B92AFDF
:10A25700D007D006D005D004D003D000D0D0D0820C
:07A26700D083D0F0D0E032FB
:02FDFE0080FE85
:109D700002080001010C00020D0000420DCE00009F
:049D8000410DD000C1
:06A4FB008B568A578958B8
:10A50100858459AB56AA57A958900002122BEA45E7
:10A51100F070F0AB56AA57A95890000D122F6DC0DC
:10A5210003C002C001AB56AA57A958900007122FC9
:10A531009DAB56AA57A958900002EC8DF0122C4100
:10A54100122A497006F584D2998005758401D29941
:03A55100855984A5
:01A5540022E4
:10005E00AE84E4F5848F9B30FFFDC2FFAF9B8E8490
:01006E00226F
:10A55500AF8475840F759601758C67E4FDFC0DBDA0
:10A5650000010CE4B505F7ECB401F3E58C30E7FB2D
:10A57500759701E4F58A758905F58475B7207584A5
:10A585000F758D01758F01758E03FCFD0DBD0001E5
:10A595000CE4B505F7ECB401F3438902E58930E431
:06A5A500FB7597028F8494
:01A5AB00228D
:0E8CC9008B428A4389448F488E478D468C45E6
:108CD700858449122A4914606F046003028EC9E42F
:108CE700F58475911590000A122A6224BB60182436
:108CF700F6601424EA601024F76007146009242141
:108D0700700875985080037598D0E4F58475C80489
:108D170075C908AB48AA47A946A845FFFE7D657CEB
:108D270004122D14E47B10FAF9F8122D14122DB346
:108D37008ECB8FCA74FFF5CDF5CCD2CAE4F584C2C9
:108D470099C298D2AC028EC9758401AB42AA43A9D5
:108D57004490000A122A6224BB601824F660142487
:108D6700EA601024F76007146009242170087598D9
:108D7700108003759890E4F58453890F438920ABDD
:108D870048AA47A946A845FFFE7D657C04122D1415
:108D9700E47B02FAF9F8122D14E4FB7A01F9F812D0
:108DA7002D14E47B01FAF9F8D3122DD74026AB48EE
:108DB700AA47A946A845E4FFFE7D657C04122D1449
:108DC700E47B02FAF9F8122D14122DB38F8D438E1E
:108DD70010028EBAAB48AA47A946A845E4FFFE7D14
:108DE700657C04122D14E47B02FAF9F8122D14E4C1
:108DF700FB7A01F9F8122D14E47B04FAF9F8D3127F
:108E07002DD74031AB48AA47A946A845E4FFFE7DC8
:108E1700657C04122D14E47B02FAF9F8122D14E490
:108E27007B04FAF9F8122D14122DB38F8D538EECA3
:108E3700438E01807EAB48AA47A946A845E4FFFEBA
:108E47007D657C04122D14E47B02FAF9F8122D14C7
:108E5700E4FB7A01F9F8122D14E47B0CFAF9F8D344
:108E6700122DD7AB48AA47A946A845E4FFFE7D6562
:108E77007C04401F122D14E47B02FAF9F8122D141A
:108E8700E47B0CFAF9F8122D14122DB38F8D538E43
:108E9700EC8020122D14E47B02FAF9F8122D14E469
:108EA7007B30FAF9F8122D14122DB38F8D538EECF7
:108EB700438E02858D8BD28E758401C299C29843E9
:058EC700E7408549842D
:018ECC002283
:10003E00AF84E4F584759D04759A70C2FFD2F88F73
:01004E00842D
:01004F00228E
:10A8C300AD84758401E4F5C8F5C9EF2408FFE43EBF
:10A8D300FEC3E49FFFE49EF5CB8FCA74FFF5CDF56D
:09A8E300CC43E70143C8048D8455
:01A8EC002249
:03002300028ECD7D
:108ECD00C0E0C0F0C083C082C0D075D000C000C06B
:0D8EDD0001C002C003C004C005C006C007EC
:108EEA00E59820E0030290648599275398FEE508E7
:108EFA006003029031E50924FE6063147003028F57
:108F0A0099147003028FFE24036003029031750DD9
:108F1A0000750E00E5276416600302903190028AFC
:108F2A00E0FF7E007C027D1D122AF690028F122F2E
:108F3A005BE92FF9EA3E8B0FF5108911FA050EE568
:108F4A000EAE0D7002050D14F5828E83E527122AE6
:108F5A00D4E527620C750800750902029031AB0F3F
:108F6A00AA10A911050EE50EAE0D7002050D14F535
:108F7A00828E83E527122AD4E527620CE50E640661
:108F8A00450D6003029031F508750903029031AB73
:108F9A000FAA10A911050EE50EAE0D7002050D14EB
:108FAA00F5828E83E527122AD4630CFFE50C652728
:108FBA007031AB0FAA10A911900003122A62750A28
:108FCA0000F50B750B00F50A900004122A62250BB6
:108FDA00F50BE4350AF50A450B6046750800750974
:108FEA00048044750D00750E007508007509017539
:108FFA000C008033D2B4AB0FAA10A911050EE50EEE
:10900A00AE0D7002050D14F5828E83E527122AD45F
:10901A00E50B2407FFE4350AFEEFB50E0AEEB50D9F
:10902A0006750800750905E50964054508702BC22F
:10903A00B4F508750901F50DF50EF50C90028312C9
:10904A002F5BE94A4B7013AB0FAA10A91190028348
:10905A00122F6490028AE06401F0E59830E13E90B4
:10906A000281E07002A3E06023D2B4900286122F3C
:10907A005B122A49F599900287E475F001122B9345
:10908A0090028174FFF5F0122B93800EC2B47B001C
:0D909A007A007900900286122F645398FD31
:1090A700D007D006D005D004D003D002D001D0001D
:0B90B700D0D0D082D083D0F0D0E032C7
:0300A300028A923C
:108A9200C0E0C0F0C083C082C0D075D000C000C0AA
:098AA20001C002C003C006C007B8
:108AAB00E59820E003028C3D859928900DD0E012CB
:108ABB002FF68ADC008AED018B00028B50038B7D35
:108ACB00048B96058BBD068BFE078C0F0800008C64
:108ADB003AE52864B56003028C3A900DD004F0029D
:108AEB008C3AE528900DD0B462067402F0028C3AF1
:108AFB00E4F0028C3A751800751700900DCEE4F077
:108B0B00A3F090029DE075F0DCA4FF9002A2122F5F
:108B1B005BE92FF9EA35F08B12F5138914FA900DF6
:108B2B00CEE475F001122BA985F082F583E52812AE
:108B3B002AD4E5282517F5172518F518900DD074AC
:108B4B0003F0028C3AAB12AA13A914900DCEE47564
:108B5B00F001122BA985F082F583E528122AD4E5C2
:108B6B00282517F5172518F518900DD07404F00269
:108B7B008C3A751500852816E5282517F517251845
:108B8B00F518900DD07405F0028C3AE528FEE4251B
:108B9B0016F516EE3515F515E5282517F5172518D5
:108BAB00F518E5164515900DD0700280417406F04E
:108BBB00807DAB12AA13A914900DCEE475F00112AF
:108BCB002BA985F082F583E528122AD4E5282517F1
:108BDB00F5172518F518E5162402FFE43515FE9058
:108BEB000DCEE06E7003A3E06F7044900DD0740750
:108BFB00F0803CE517900DD0B528057408F0802F58
:048C0B00E4F0802BE6
:108C0F0090029DE0FFB402067E007F008003EF0418
:108C1F00FF8F29E518B5280E90029EE065296006A2
:0B8C2F0090029DE529F0900DD0E4F0CC
:108C3A005398FEE59830E170900294E07002A3E048
:108C4A00605790029CE024BB601A24E0601624F668
:108C5A00600424207022900299122F5B122A493054
:108C6A00E00E8011900299122F5B122A4930E0051A
:108C7A0043980480035398FB900299122F5B122A9F
:108C8A0049F59990029AE475F001122B9390029497
:108C9A0074FFF5F0122B93800C7B007A0079009018
:088CAA000299122F645398FD9A
:108CB200D007D006D003D002D001D000D0D0D082CD
:078CC200D083D0F0D0E032B6
:03007300029EFDED
:109EFD00C0E0C0F0C083C082C0D075D000C000C02B
:039F0D0006C00784
:109F100075840153C87F900269E475F001122B9398
:109F20009002B9E0FEA3E0FF900269E0B50619A334
:109F3000E0B507149002B9E475F0A0122B939000DD
:109F400048E475F001122B93E4FFFE74232FF58291
:109F5000E4340CF583E0600D74232FF582E4340CB7
:109F6000F583E014F00FBF00010EEF64034E70DBC9
:109F700075840F20E816C39002C0E094FF9002BFE2
:109F8000E094FF5007E475F001122B93758400757F
:069F9000BB00C2EDD2ECA3
:109F9600D007D006D000D0D0D082D083D0F0D0E089
:019FA6003288
:1064DC00257300506C61636520756E697420666C61
:1064EC006174206F6E206C6576656C2073757266B6
:1064FC006163652E00466C6970206F7665722E2084
:10650C004661636520646F776E2E00486F6C642063
:10651C00766572746963616C2C2047505320616EF0
:10652C0074656E6E61206A61636B2075702E004815
:10653C006F6C6420766572746963616C2C204750B3
:10654C005320616E74656E6E61206A61636B2064AA
:10655C006F776E2E005374616E64206F6E207269BB
:10656C0067687420736964652E005374616E6420CF
:10657C006F6E206C65667420736964652E00496EBD
:10658C0076657274696E6720582056616C756573F8
:10659C0000496E76657274696E6720592056616C7D
:1065AC0075657300496E76657274696E67205A2042
:1065BC0056616C7565730020005A65726F20506FC0
:1065CC00696E74733A20582025752C205920257536
:1065DC002C205A20257500582052616E67653A2090
:1065EC0025752C20257500592052616E67653A205F
:1065FC0025752C202575005A2052616E67653A204E
:10660C0025752C2025750053746F72696E672043B5
:10661C00616C6962726174696F6E2044617461208F
:10662C00696E20466C6173682E0043616C696272FE
:10663C006174696F6E20436F6D706C6574652E00AC
:10664C005A65726F696E6720582C20592050574D2F
:10665C000046696E616C2043616C3A2025752C25CF
:10666C00750046696E616C2056616C3A2025752C5C
:10667C0025750044617461666C61736820546573A0
:10668C0074002A2A20466C617368204641494C45A7
:10669C0044202A2A2C20706167652025642C2062F6
:1066AC0079746525640050616765202564206F6BE3
:1066BC000054657374205061737365642E00496EC9
:1066CC00707574205465737400444947494E3A20E0
:1066DC000031003000583A2025752C20593A2025DD
:1066EC0075005A3A2025752C2035563A2025750010
:1066FC0035563A2025752C20543A2025750041300A
:10670C003A2025752C2041313A2025750041323A2A
:10671C002025752C2041333A20257500496E707563
:10672C00745465737420436F6D706C6574652E00C2
:10673C004F7574707574205465737400626974209D
:10674C002564004F75747075745465737420436FB1
:10675C006D706C6574652E00412F44205465737404
:10676C0000426F61726420666C61742E20546573F4
:10677C0074206669787475726520617474616368DD
:10678C0065642E005820205920203556205A202090
:10679C004130204131204132204133003120200052
:1067AC003020200041445465737420504153532EC3
:1067BC00002A2A20414454657374204641494C20D8
:1067CC002A2A004469676974616C20494F2054651A
:1067DC007374004F6E6C792056616C696420666F1F
:1067EC007220535532202D2045786974696E672EBE
:1067FC0000446967494F5465737420506F696E7417
:10680C00202564002A2A20204641494C202A2A00AF
:10681C00446967494F5465737420504153532E009B
:10682C002A2A20446967494F5465737420464149AC
:10683C004C202A2A004175746F4F6E205465737476
:10684C0000456E61626C696E67204175746F4F6EA6
:10685C002E2E2E0044726F7070696E672035562094
:10686C00456E61626C650044697361626C696E6748
:10687C00204175746F4F6E2E2E2E004175746F4F24
:10688C006E5465737420504153532E00534D427512
:10689C00732054657374202D204D617374657200E0
:1068AC0025642042797465732C2025642043796318
:1068BC006C657300546F74616C204572726F72203A
:1068CC00436F756E742C20257500534D42757320E3
:1068DC005465737420506173732E00534D4275735D
:1068EC002054657374202D20536C61766500534DD4
:1068FC0042757320536C6176652054657374204324
:10690C006F6D706C6574652E0001020408102040D8
:09691C00800102040810204080F3
:1015B1008584429000047401F075840FFB7A0C79E4
:1015C1002612A5ACE4900C76F090888E93900C775F
:1015D100F0A374C8F0900C8FE4F0A374EAF0900CBF
:1015E10091E4F0A37408F074FFFFFEFDFC900C7908
:1015F100122EA8C3122DD7700A900C79122ED0008A
:10160100000000900C7DE0B4FF037401F0900C7EAB
:10161100E0B4FF037409F0900C9374FFF0A3F09011
:101621000C7F7408F0A3E4F0900C817408F0A3E43B
:10163100F0900C26F0900C3AF0900C4EF0900C8D3E
:10164100F0A374A0F0900C8BE4F0A374A0F0E490EC
:0D16510002BFF0A3F0D2B3D2B6D2B5D2B42E
:10165E00900CD2122ED0000107ACE4FFFEFDFC90E0
:10166E000CD2122EA8D3122DC14017900CD2122ECE
:10167E009C74FFFBFAF9F8122C6E900CD2122EC449
:02168E0080D802
:1016900090888FE493FF3395E0FE90028C75F013F1
:1016A000EF122F3FEE75F013A42583F583122F5B05
:1016B000E92407F9E43AFA754CFF754D64754EDC80
:1016C000754FFF7550647551DF1260C990888FE4C3
:1016D00093FF3395E0FE90028C75F013EF122F3FCD
:1016E000EE75F013A42583F583122F5BE92407F927
:1016F000E43AFA12000EEF2401F54DE43EF54C9069
:0C170000888EE493FF7B737D011290DC67
:10170C00900CD6122ED0000107ACE4FFFEFDFC902D
:10171C000CD6122EA8D3122DC14017900CD6122E17
:10172C009C74FFFBFAF9F8122C6E900CD6122EC496
:02173C0080D853
:10173E001292AA900014E06065900DC8E0FEA3E03E
:10174E00FF900DC3E02FFF900DC2E03EC313FEEFDE
:10175E0013FF900C7FEEF0A3EFF0900DCAE0FEA306
:10176E00E0FF900DC5E02FFF900DC4E03EC313FEC9
:10177E00EF13FF900C81EEF0A3EFF0900DCCE0FE96
:10178E00A3E0FF900DC7E02FFF900DC6E03EC31300
:10179E00FEEF13FF900C9EEEF0A3EFF0800312719C
:1017AE0072900014E0700302188EC2B3C2B5908816
:1017BE008FE493FF3395E0FE90028C75F013EF12D9
:1017CE002F3FEE75F013A42583F583122F5BE924CA
:1017DE0007F9E43AFA754CFF754D64754EDC754F9A
:1017EE00FF7550657551011260C990888FE493FFA3
:1017FE003395E0FE90028C75F013EF122F3FEE75CD
:10180E00F013A42583F583122F5BE92407F9E43A3C
:10181E00FA12000EEF2401F54DE43EF54C90888E41
:0A182E00E493FF7B737D011290DC50
:10183800900CDA122ED0000107ACE4FFFEFDFC90FC
:101848000CDA122EA8D3122DC14017900CDA122EE2
:101858009C74FFFBFAF9F8122C6E900CDA122EC465
:0218680080D826
:10186A001292AA900DCCE0FEA3E0FF900DC7E02FE4
:10187A00FF900DC6E03EC313FEEF13FF900C9CEEE3
:10188A00F0A3EFF0C2B3C2B6C2B5C2B490888FE477
:10189A0093FF3395E0FE90028C75F013EF122F3F01
:1018AA00EE75F013A42583F583122F5BE92407F95B
:1018BA00E43AFA754CFF754D64754EDC754FFF7549
:1018CA0050657551171260C990888FE493FF33955C
:1018DA00E0FE90028C75F013EF122F3FEE75F013B5
:1018EA00A42583F583122F5BE92407F9E43AFA1257
:1018FA00000EEF2401F54DE43EF54C90888EE493FA
:08190A00FF7B737D011290DCEC
:10191200900CDE122ED0000107ACE4FFFEFDFC901D
:101922000CDE122EA8D3122DC14017900CDE122EFF
:101932009C74FFFBFAF9F8122C6E900CDE122EC486
:0219420080D84B
:101944001292AA900DC8E0FEA3E0FF900DC3E02F11
:10195400FF900DC2E03EC313FEEF13FF900C85EE23
:10196400F0A3EFF0900014E06021900DCCE0FEA312
:10197400E0FF900DC7E02FFF900DC6E03EC313FEBD
:10198400EF13FF900C9AEEF0A3EFF0D2B390888F90
:10199400E493FF3395E0FE90028C75F013EF122F61
:1019A4003FEE75F013A42583F583122F5BE924071A
:1019B400F9E43AFA754CFF754D64754EDC754FFFCA
:1019C40075506575513B1260C990888FE493FF335D
:1019D40095E0FE90028C75F013EF122F3FEE75F038
:1019E40013A42583F583122F5BE92407F9E43AFA5B
:1019F40012000EEF2401F54DE43EF54C90888EE480
:091A040093FF7B737D011290DC5D
:101A0D00900CE2122ED0000107ACE4FFFEFDFC901D
:101A1D000CE2122EA8D3122DC14017900CE2122EFB
:101A2D009C74FFFBFAF9F8122C6E900CE2122EC486
:021A3D0080D84F
:101A3F001292AA900DC8E0FEA3E0FF900DC3E02F15
:101A4F00FF900DC2E03EC313FEEF13FF900C83EE29
:101A5F00F0A3EFF0D2B690888FE493FF3395E0FEBA
:101A6F0090028C75F013EF122F3FEE75F013A42533
:101A7F0083F583122F5BE92407F9E43AFA754CFFDB
:101A8F00754D64754EDC754FFF755065755161125C
:101A9F0060C990888FE493FF3395E0FE90028C75B8
:101AAF00F013EF122F3FEE75F013A42583F5831279
:101ABF002F5BE92407F9E43AFA12000EEF2401F53F
:101ACF004DE43EF54C90888EE493FF7B737D0112BD
:021ADF0090DC99
:101AE100900CE6122ED0000107ACE4FFFEFDFC9045
:101AF1000CE6122EA8D3122DC14017900CE6122E1F
:101B01009C74FFFBFAF9F8122C6E900CE6122EC4AD
:021B110080D87A
:101B13001292AA900DCAE0FEA3E0FF900DC5E02F3C
:101B2300FF900DC4E03EC313FEEF13FF900C87EE4E
:101B3300F0A3EFF0D2B590888FE493FF3395E0FEE6
:101B430090028C75F013EF122F3FEE75F013A4255E
:101B530083F583122F5BE92407F9E43AFA754CFF06
:101B6300754D64754EDC754FFF7550657551761272
:101B730060C990888FE493FF3395E0FE90028C75E3
:101B8300F013EF122F3FEE75F013A42583F58312A4
:101B93002F5BE92407F9E43AFA12000EEF2401F56A
:101BA3004DE43EF54C90888EE493FF7B737D0112E8
:021BB30090DCC4
:101BB500900CEA122ED0000107ACE4FFFEFDFC906C
:101BC5000CEA122EA8D3122DC14017900CEA122E42
:101BD5009C74FFFBFAF9F8122C6E900CEA122EC4D5
:021BE50080D8A6
:101BE7001292AA900DCAE0FEA3E0FF900DC5E02F68
:101BF700FF900DC4E03EC313FEEF13FF900C89EE78
:101C0700F0A3EFF0D2B4900C83E0FEA3E0FFC39003
:101C17000C86E09F900C85E09E4003021CF690889E
:101C27008FE493FF3395E0FE90028C75F013EF126B
:101C37002F3FEE75F013A42583F583122F5BE9245C
:101C470007F9E43AFA754CFF754D64754EDC754F2C
:101C5700FF75506575518A1260C990888FE493FFAC
:101C67003395E0FE90028C75F013EF122F3FEE755F
:101C7700F013A42583F583122F5BE92407F9E43ACF
:101C8700FA12000EEF2401F54DE43EF54C90888ED4
:0A1C9700E493FF7B737D011290DCE3
:101CA100900CEE122ED0000107ACE4FFFEFDFC907B
:101CB1000CEE122EA8D3122DC14017900CEE122E4D
:101CC1009C74FFFBFAF9F8122C6E900CEE122EC4E4
:021CD10080D8B9
:101CD300900C85E0F543A3E0F544900C83E0FFA36B
:101CE300E0900C85CFF0A3EFF0900C83E543F0A3D5
:101CF300E544F0900C87E0FEA3E0FFC3900C8AE07C
:101D03009F900C89E09E4003021DDF90888FE4932F
:101D1300FF3395E0FE90028C75F013EF122F3FEE28
:101D230075F013A42583F583122F5BE92407F9E4E7
:101D33003AFA754CFF754D64754EDC754FFF75505F
:101D43006575519D1260C990888FE493FF3395E0C8
:101D5300FE90028C75F013EF122F3FEE75F013A473
:101D63002583F583122F5BE92407F9E43AFA12007D
:101D73000EEF2401F54DE43EF54C90888EE493FF7D
:071D83007B737D011290DC6F
:101D8A00900CF2122ED0000107ACE4FFFEFDFC908D
:101D9A000CF2122EA8D3122DC14017900CF2122E5B
:101DAA009C74FFFBFAF9F8122C6E900CF2122EC4F6
:021DBA0080D8CF
:101DBC00900C89E0F543A3E0F544900C87E0FFA379
:101DCC00E0900C89CFF0A3EFF0900C87E543F0A3E3
:101DDC00E544F0900014E07003021ED1900C9CE0DE
:101DEC00FEA3E0FFC3900C9FE09F900C9EE09E40F2
:101DFC0003021ED190888FE493FF3395E0FE90028E
:101E0C008C75F013EF122F3FEE75F013A42583F5AC
:101E1C0083122F5BE92407F9E43AFA754CFF754DF0
:101E2C0064754EDC754FFF7550657551B01260C905
:101E3C0090888FE493FF3395E0FE90028C75F0133D
:101E4C00EF122F3FEE75F013A42583F583122F5B51
:101E5C00E92407F9E43AFA12000EEF2401F54DE4F7
:101E6C003EF54C90888EE493FF7B737D011290DCE1
:101E7C00900CF6122ED0000107ACE4FFFEFDFC9096
:101E8C000CF6122EA8D3122DC14017900CF6122E60
:101E9C009C74FFFBFAF9F8122C6E900CF6122EC4FF
:021EAC0080D8DC
:101EAE00900C9EE0F543A3E0F544900C9CE0FFA35C
:101EBE00E0900C9ECFF0A3EFF0900C9CE543F0A3C6
:101ECE00E544F090888FE493FF3395E0FE90028C0A
:101EDE0075F013EF122F3FEE75F013A42583F583E3
:101EEE00122F5BE92407F9E43AFA754CFF754D643D
:101EFE00754EDC754FFF7550657551C31260C990F4
:101F0E00888FE493FF3395E0FE90028C75F013EF0B
:101F1E00122F3FEE75F013A42583F583122F5BE984
:101F2E002407F9E43AFA12000EEF2401F54DE43ECF
:0F1F3E00F54C90888EE493FF7B737D011290DC4D
:101F4D00900CFA122ED0000107ACE4FFFEFDFC90C0
:101F5D000CFA122EA8D3122DC14017900CFA122E86
:101F6D009C74FFFBFAF9F8122C6E900CFA122EC429
:021F7D0080D80A
:101F7F00754CFF754D65754EC5900C7FE0F54FA301
:101F8F00E0F550900C81E0F551A3E0F552900C9ADA
:101F9F00E0F553A3E0F5547B017A0D79121260C975
:101FAF0090888FE493FF3395E0FE90028C75F013C9
:101FBF00EF122F3FEE75F013A42583F583122F5BDD
:101FCF00E92407F9E43AFA754CFF754D64754EDC58
:101FDF00754F0175500D7551121260C990888FE4BD
:101FEF0093FF3395E0FE90028C75F013EF122F3FA5
:101FFF00EE75F013A42583F583122F5BE92407F9FF
:10200F00E43AFA12000EEF2401F54DE43EF54C9040
:0C201F00888EE493FF7B737D011290DC3F
:10202B00900CFE122ED0000107ACE4FFFEFDFC90DD
:10203B000CFE122EA8D3122DC14017900CFE122E9F
:10204B009C74FFFBFAF9F8122C6E900CFE122EC446
:02205B0080D82B
:10205D0090888FE493FF3395E0FE90028C75F0131A
:10206D00EF122F3FEE75F013A42583F583122F5B2E
:10207D00E92407F9E43AFA754CFF754D65754EE3A1
:10208D00900C83E0F54FA3E0F550900C85E0F551F1
:10209D00A3E0F5521260C990888FE493FF3395E069
:1020AD00FE90028C75F013EF122F3FEE75F013A416
:1020BD002583F583122F5BE92407F9E43AFA120020
:1020CD000EEF2401F54DE43EF54C90888EE493FF20
:0720DD007B737D011290DC12
:1020E400900D02122ED0000107ACE4FFFEFDFC901F
:1020F4000D02122EA8D3122DC14017900D02122EDC
:102104009C74FFFBFAF9F8122C6E900D02122EC487
:0221140080D871
:1021160090888FE493FF3395E0FE90028C75F01360
:10212600EF122F3FEE75F013A42583F583122F5B74
:10213600E92407F9E43AFA754CFF754D65754EF3D7
:10214600900C87E0F54FA3E0F550900C89E0F5512F
:10215600A3E0F5521260C990888FE493FF3395E0AF
:10216600FE90028C75F013EF122F3FEE75F013A45C
:102176002583F583122F5BE92407F9E43AFA120066
:102186000EEF2401F54DE43EF54C90888EE493FF66
:072196007B737D011290DC58
:10219D00900D06122ED0000107ACE4FFFEFDFC9061
:1021AD000D06122EA8D3122DC14017900D06122E1A
:1021BD009C74FFFBFAF9F8122C6E900D06122EC4CA
:0221CD0080D8B8
:1021CF0090888FE493FF3395E0FE90028C75F013A7
:1021DF00EF122F3FEE75F013A42583F583122F5BBB
:1021EF00E92407F9E43AFA754CFF754D66754E030D
:1021FF00900C9CE0F54FA3E0F550900C9EE0F5514C
:10220F00A3E0F5521260C990888FE493FF3395E0F5
:10221F00FE90028C75F013EF122F3FEE75F013A4A2
:10222F002583F583122F5BE92407F9E43AFA1200AC
:10223F000EEF2401F54DE43EF54C90888EE493FFAC
:07224F007B737D011290DC9E
:10225600900D0A122ED0000107ACE4FFFEFDFC90A3
:102266000D0A122EA8D3122DC14017900D0A122E58
:102276009C74FFFBFAF9F8122C6E900D0A122EC40C
:0222860080D8FE
:1022880090888FE493FF3395E0FE90028C75F013ED
:10229800EF122F3FEE75F013A42583F583122F5B01
:1022A800E92407F9E43AFA754CFF754D64754EDC7C
:1022B800754FFF7550667551131260C990888FE489
:1022C80093FF3395E0FE90028C75F013EF122F3FC9
:1022D800EE75F013A42583F583122F5BE92407F923
:1022E800E43AFA12000EEF2401F54DE43EF54C9065
:1022F800888EE493FF7B737D011290DC12A8957B96
:0C230800017A0C79267D7A7C0012A35B20
:10231400900D0E122ED0000107ACE4FFFEFDFC90E0
:102324000D0E122EA8D3122DC14017900D0E122E91
:102334009C74FFFBFAF9F8122C6E900D0E122EC449
:0223440080D83F
:1023460090888FE493FF3395E0FE90028C75F0132E
:10235600EF122F3FEE75F013A42583F583122F5B42
:10236600E92407F9E43AFA754CFF754D64754EDCBD
:10237600754FFF7550667551361260C990888FE4A7
:1023860093FF3395E0FE90028C75F013EF122F3F0A
:10239600EE75F013A42583F583122F5BE92407F964
:1023A600E43AFA12000EEF2401F54DE43EF54C90A6
:1023B600888EE493FF7B737D011290DCD2B3C2B6A4
:0F23C600C2B5C2B4E4900004F0129AC6854284F6
:0123D50022E5
:1092AA00900DC6740FF0A374FFF0900DC4740FF004
:1092BA00A374FFF0900DC2740FF0A374FFF0E49052
:1092CA000DCCF0A3F0900DCAF0A3F0900DC8F0A356
:1092DA00F0FFFE9002A6E060FA900015E0FCA3E021
:1092EA00FD900DC2E0FAA3E0FBC39DEA9C5006ACD8
:1092FA0002AD038008900015E0FCA3E0FD900DC2CA
:10930A00ECF0A3EDF0900017E0FCA3E0FD900DC493
:10931A00E0FAA3E0FBC39DEA9C5006AC02AD0380D1
:10932A0008900017E0FCA3E0FD900DC4ECF0A3ED5B
:10933A00F090001BE0FCA3E0FD900DC6E0FAA3E06C
:10934A00FBC39DEA9C5006AC02AD03800890001B4B
:10935A00E0FCA3E0FD900DC6ECF0A3EDF090001543
:10936A00E0FCA3E0FD900DC8E0FAA3E0FBD39DEA80
:10937A009C4006AC02AD038008900015E0FCA3E017
:10938A00FD900DC8ECF0A3EDF0900017E0FCA3E00F
:10939A00FD900DCAE0FAA3E0FBD39DEA9C4006AC1F
:1093AA0002AD038008900017E0FCA3E0FD900DCA0F
:1093BA00ECF0A3EDF090001BE0FCA3E0FD900DCCD7
:1093CA00E0FAA3E0FBD39DEA9C4006AC02AD038021
:1093DA000890001BE0FCA3E0FD900DCCECF0A3ED9F
:1093EA00F0E49002A6F00FBF00010EEF64284E6071
:1093FA00030292DD900DC4E0FEA3E0FF900DCAE0E7
:10940A00FCA3E0FDC39FFFEC9EFEC39400400280D4
:10941A0016900DC4E0FEA3E0FFC3ED9FFFEC9EFE95
:10942A00C3E49FFFE49EFED3EF9404EE940040034E
:10943A000292AA900DC2E0FEA3E0FF900DC8E0FCE4
:10944A00A3E0FDC39FFFEC9EFEC39400400280167A
:10945A00900DC2E0FEA3E0FFC3ED9FFFEC9EFEC3AA
:10946A00E49FFFE49EFED3EF9404EE9400400302CF
:02947A0092AAB4
:01947C0022CD
:10717200E4F545F546F584900C8DE0A3E0F5FD902D
:107182000C8DE0A3E0F5FE900C8BE0A3E0F5FB9004
:107192000C8BE0A3E0F5FC90888FE493FF3395E03D
:1071A200FE90028C75F013EF122F3FEE75F013A4D0
:1071B2002583F583122F5BE92407F9E43AFA754C2B
:1071C200FF754D64754EDC754FFF75506675514CF9
:1071D2001260C990888FE493FF3395E0FE90028C91
:1071E20075F013EF122F3FEE75F013A42583F5838C
:1071F200122F5BE92407F9E43AFA12000EEF240198
:10720200F54DE43EF54C90888EE493FF7B737D014F
:037212001290DCFB
:10721500900D62122ED0000107ACE4FFFEFDFC903C
:107225000D62122EA8D3122DC14017900D62122E99
:107235009C74FFFBFAF9F8122C6E900D62122EC4A5
:0272450080D8EF
:107247009002A6E060FAE49002A6F09002A6E06041
:10725700FAE545700F900015E0FFA3E0900C7FCF93
:10726700F0A3EFF0E546700F900017E0FFA3E09062
:107277000C81CFF0A3EFF0E49002A6F0E545704B48
:10728700900C7FE0FEA3E02400EE34F8C364809402
:10729700804010900C7FE0FEA3E02400FFEE34F85E
:1072A700FE8015900C7FE0FEA3E02400FFEE34F88B
:1072B700FEC3E49FFFE49EFED3EF9405EE64809443
:1072C7008050047F0180027F008F45E5457048C3E9
:1072D700900C7FE094085015900C8BE07002A3E0AF
:1072E70070028014900C8B74FFF5F08017900C8B54
:1072F700E07003A3E0F47005754501800A900C8BDC
:10730700E475F001122B93900C8BE0A3E0F5FB9052
:107317000C8BE0A3E0F5FCE546704B900C81E0FE9A
:10732700A3E02400EE34F8C3648094804010900CEE
:1073370081E0FEA3E02400FFEE34F8FE8015900CF8
:1073470081E0FEA3E02400FFEE34F8FEC3E49FFFD4
:10735700E49EFED3EF9405EE6480948050047F0191
:1073670080027F008F46E5467048C3900C81E09409
:10737700085015900C8DE07002A3E0700280149005
:107387000C8D74FFF5F08017900C8DE07003A3E06F
:10739700F47005754601800A900C8DE475F00112B2
:1073A7002B93900C8DE0A3E0F5FD900C8DE0A3E00E
:1073B700F5FEE5457003027247E546700302724722
:1073C7001292AA900015E0FFA3E0900C7FCFF0A3E4
:1073D700EFF0900017E0FFA3E0900C81CFF0A3EF50
:1073E700F090888FE493FF3395E0FE90028C75F060
:1073F70013EF122F3FEE75F013A42583F583122F99
:107407005BE92407F9E43AFA754CFF754D66754E4A
:107417005D900C8BE0F54FA3E0F550900C8DE0F5F7
:1074270051A3E0F5521260C990888FE493FF33951A
:10743700E0FE90028C75F013EF122F3FEE75F013FC
:10744700A42583F583122F5BE92407F9E43AFA129E
:10745700000EEF2401F54DE43EF54C90888EE49341
:08746700FF7B737D011290DC34
:10746F00900D66122ED0000107ACE4FFFEFDFC90DC
:10747F000D66122EA8D3122DC14017900D66122E35
:10748F009C74FFFBFAF9F8122C6E900D66122EC445
:02749F0080D893
:1074A100754CFF754D66754E6E900C7FE0F54FA3E0
:1074B100E0F550900C81E0F551A3E0F5527B017AA3
:1074C1000D796E1260C990888FE493FF3395E0FEC9
:1074D10090028C75F013EF122F3FEE75F013A42577
:1074E10083F583122F5BE92407F9E43AFA754CFF1F
:1074F100754D64754EDC754F0175500D75516E12E9
:1075010060C990888FE493FF3395E0FE90028C75FB
:10751100F013EF122F3FEE75F013A42583F58312BC
:107521002F5BE92407F9E43AFA12000EEF2401F582
:107531004DE43EF54C90888EE493FF7B737D011200
:0275410090DCDC
:10754300900D6A122ED0000107ACE4FFFEFDFC9003
:107553000D6A122EA8D3122DC14017900D6A122E58
:107563009C74FFFBFAF9F8122C6E900D6A122EC46C
:0275730080D8BE
:0175750022F3
:027CDB008F42D6
:107CDD00858443E4F544F545F54890888F93FF334B
:107CED0095E0FE90028C75F013EF122F3FEE75F0BC
:107CFD0013A42583F583122F5BE92407F9E43AFADF
:107D0D00754CFF754D64754EDC754FFF755066757E
:107D1D00517F1260C990888FE493FF3395E0FE90F8
:107D2D00028C75F013EF122F3FEE75F013A425831F
:107D3D00F583122F5BE92407F9E43AFA12000EEFEE
:107D4D002401F54DE43EF54C90888EE493FF7B7352
:107D5D007D011290DCE49002BFF0A3F0F546F547EB
:107D6D00D3900947E09547900946E095464023AEEC
:107D7D0046AF477C017D00122B5D744A2547F58285
:107D8D0074003546F583EDF00547E547700205466D
:107D9D0080CE75840F30E819C39002C0E09409902D
:107DAD0002BFE094004003027FA2E49002BFF0A363
:107DBD00F0900946E0FCA3E0FD7B017A00794A854D
:107DCD004453854554E4FFFE12A166900946E0FE3A
:107DDD00A3E0FF7B017A00794A85444E85454F1219
:107DED00A041E4F546F547D3900947E09547900942
:107DFD0046E09546402DAE46AF477C017D00122BE7
:107E0D005D744A2547F58274003546F583E06D7043
:107E1D0001EC6005754801800A0547E547700205CC
:107E2D004680C4E5487003027EB990888FE493FFC5
:107E3D003395E0FE90028C75F013EF122F3FEE7527
:107E4D00F013A42583F583122F5BE92407F9E43A97
:107E5D00FA754CFF754D66754E8E85444F854550B0
:107E6D008546518547521260C990888FE493FF3340
:107E7D0095E0FE90028C75F013EF122F3FEE75F02A
:107E8D0013A42583F583122F5BE92407F9E43AFA4D
:107E9D0012000EEF2401F54DE43EF54C90888EE472
:0C7EAD0093FF7B737D011290DC027FA22A
:107EB900900CD2122ED0000107ACE4FFFEFDFC901D
:107EC9000CD2122EA8D3122DC14017900CD2122E0B
:107ED9009C74FFFBFAF9F8122C6E900CD2122EC486
:027EE90080D83F
:107EEB0090888FE493FF3395E0FE90028C75F0132E
:107EFB00EF122F3FEE75F013A42583F583122F5B42
:107F0B00E92407F9E43AFA754CFF754D66754EB2E4
:107F1B0085444F8545501260C990888FE493FF3399
:107F2B0095E0FE90028C75F013EF122F3FEE75F07B
:107F3B0013A42583F583122F5BE92407F9E43AFA9E
:107F4B0012000EEF2401F54DE43EF54C90888EE4C3
:107F5B0093FF7B737D011290DCAF45AE4412A6E21A
:107F6B00D3900C21E09545900C20E095445007E40C
:107F7B00F544F54580080545E54570020544E542A5
:107F8B0064347003027D9FD3E5459404E54464801B
:0E7F9B0094805003027D9FE49002BFF0A3F09B
:107FA900900CD6122ED0000107ACE4FFFEFDFC9028
:107FB9000CD6122EA8D3122DC14017900CD6122E12
:107FC9009C74FFFBFAF9F8122C6E900CD6122EC491
:027FD90080D84E
:107FDB0090888FE493FF3395E0FE90028C75F0133D
:107FEB00EF122F3FEE75F013A42583F583122F5B51
:107FFB00E92407F9E43AFA754CFF754D64754EDCCC
:10800B00754FFF7550667551BD1260C990888FE42E
:10801B0093FF3395E0FE90028C75F013EF122F3F18
:10802B00EE75F013A42583F583122F5BE92407F972
:10803B00E43AFA12000EEF2401F54DE43EF54C90B4
:0F804B00888EE493FF7B737D011290DC85438464
:01805A002203
:104ED50085844278F27C0C7D017BFF7A6979157EA9
:0C4EE500007F08122A239000047401F0E2
:104EF100900CD2122ED0000107ACE4FFFEFDFC9015
:104F01000CD2122EA8D3122DC14017900CD2122E02
:104F11009C74FFFBFAF9F8122C6E900CD2122EC47D
:024F210080D836
:104F230090888FE493FF3395E0FE90028C75F01325
:104F3300EF122F3FEE75F013A42583F583122F5B39
:104F4300E92407F9E43AFA754CFF754D64754EDCB4
:104F5300754FFF7550667551CA1260C990888FE40A
:104F630093FF3395E0FE90028C75F013EF122F3F01
:104F7300EE75F013A42583F583122F5BE92407F95B
:104F8300E43AFA12000EEF2401F54DE43EF54C909D
:104F9300888EE493FF7B737D011290DCE49002BF63
:034FA300F0A3F088
:104FA60075840F30E819C39002C0E094099002BFDF
:104FB600E094004003025503E49002BFF0A3F09092
:0A4FC60002A6E060DBE4F085D843AA
:104FD000900CD6122ED00006DDD0E4FFFEFDFC9032
:104FE0000CD6122EA8D3122DC14017900CD6122E1B
:104FF0009C74FFFBFAF9F8122C6E900CD6122EC49A
:0250000080D856
:1050020090888FE493FF3395E0FE90028C75F01345
:10501200EF122F3FEE75F013A42583F583122F5B59
:10502200E92407F9E43AFA754CFF754D64754EDCD4
:10503200754FFF7550657551C31260C990888FE432
:1050420093FF3395E0FE90028C75F013EF122F3F21
:10505200EE75F013A42583F583122F5BE92407F97B
:10506200E43AFA12000EEF2401F54DE43EF54C90BD
:0C507200888EE493FF7B737D011290DCBC
:10507E00900CDA122ED0000107ACE4FFFEFDFC907E
:10508E000CDA122EA8D3122DC14017900CDA122E64
:10509E009C74FFFBFAF9F8122C6E900CDA122EC4E7
:0250AE0080D8A8
:1050B000754CFF754D66754ED57B017A0C79FA12E9
:1050C00060C97544007545067B017A0C79FA1200B7
:1050D0000E74FA2FF9740C3EFA7B01C003C002C0B3
:1050E0000174F22545F582740C3544F583E055438F
:1050F0007BFF60067A6679DD80047A6679DF8B4C07
:105100008A4D894ED001D002D0031260C9E5451501
:105110004570021544C3E5446480948050AA908889
:105120008FE493FF3395E0FE90028C75F013EF123D
:105130002F3FEE75F013A42583F583122F5BE9242E
:1051400007F9E43AFA754CFF754D64754EDC754FFE
:105150000175500C7551FA1260C990888FE493FF65
:105160003395E0FE90028C75F013EF122F3FEE7531
:10517000F013A42583F583122F5BE92407F9E43AA1
:10518000FA12000EEF2401F54DE43EF54C90888EA6
:0A519000E493FF7B737D011290DCB5
:10519A00900CDE122ED0000107ACE4FFFEFDFC905D
:1051AA000CDE122EA8D3122DC14017900CDE122E3F
:1051BA009C74FFFBFAF9F8122C6E900CDE122EC4C6
:0251CA0080D88B
:1051CC00754CFF754D66754EE1900015E0F54FA3DB
:1051DC00E0F550A3E0F551A3E0F5527B017A0C7990
:1051EC00FA1260C990888FE493FF3395E0FE900229
:1051FC008C75F013EF122F3FEE75F013A42583F589
:10520C0083122F5BE92407F9E43AFA754CFF754DCC
:10521C0064754EDC754F0175500C7551FA1260C9EE
:10522C0090888FE493FF3395E0FE90028C75F01319
:10523C00EF122F3FEE75F013A42583F583122F5B2D
:10524C00E92407F9E43AFA12000EEF2401F54DE4D3
:10525C003EF54C90888EE493FF7B737D011290DCBD
:10526C00900CE2122ED0000107ACE4FFFEFDFC9086
:10527C000CE2122EA8D3122DC14017900CE2122E64
:10528C009C74FFFBFAF9F8122C6E900CE2122EC4EF
:02529C0080D8B8
:10529E00900014E06018754CFF754D66754EEE90DB
:1052AE00001BE0F54FA3E0F5509000198014754CEB
:1052BE00FF754D66754EFC900019E0F54FA3E0F5B5
:1052CE0050A3E0F551A3E0F5527B017A0C79FA1266
:1052DE0060C990888FE493FF3395E0FE90028C7541
:1052EE00F013EF122F3FEE75F013A42583F5831202
:1052FE002F5BE92407F9E43AFA754CFF754D647596
:10530E004EDC754F0175500C7551FA1260C99088BC
:10531E008FE493FF3395E0FE90028C75F013EF123D
:10532E002F3FEE75F013A42583F583122F5BE9242E
:10533E0007F9E43AFA12000EEF2401F54DE43EF5BA
:0E534E004C90888EE493FF7B737D011290DCFF
:10535C00900CE6122ED0000107ACE4FFFEFDFC9091
:10536C000CE6122EA8D3122DC14017900CE6122E6B
:10537C009C74FFFBFAF9F8122C6E900CE6122EC4FA
:02538C0080D8C7
:10538E00754CFF754D67754E0A90001DE0F54FA3E5
:10539E00E0F550A3E0F551A3E0F5527B017A0C79CC
:1053AE00FA1260C990888FE493FF3395E0FE900265
:1053BE008C75F013EF122F3FEE75F013A42583F5C5
:1053CE0083122F5BE92407F9E43AFA754CFF754D09
:1053DE0064754EDC754F0175500C7551FA1260C92B
:1053EE0090888FE493FF3395E0FE90028C75F01356
:1053FE00EF122F3FEE75F013A42583F583122F5B6A
:10540E00E92407F9E43AFA12000EEF2401F54DE40F
:10541E003EF54C90888EE493FF7B737D011290DCF9
:10542E00900CEA122ED0000107ACE4FFFEFDFC90BA
:10543E000CEA122EA8D3122DC14017900CEA122E90
:10544E009C74FFFBFAF9F8122C6E900CEA122EC423
:02545E0080D8F4
:10546000754CFF754D67754E19900021E0F54FA3FF
:10547000E0F550A3E0F551A3E0F5527B017A0C79F9
:10548000FA1260C990888FE493FF3395E0FE900292
:105490008C75F013EF122F3FEE75F013A42583F5F2
:1054A00083122F5BE92407F9E43AFA754CFF754D36
:1054B00064754EDC754F0175500C7551FA1260C958
:1054C00090888FE493FF3395E0FE90028C75F01383
:1054D000EF122F3FEE75F013A42583F583122F5B97
:1054E000E92407F9E43AFA12000EEF2401F54DE43D
:1054F0003EF54C90888EE493FF7B737D011290DC27
:0A550000024FA6E49002BFF0A3F0F2
:10550A00900CEE122ED0000107ACE4FFFEFDFC90D9
:10551A000CEE122EA8D3122DC14017900CEE122EAB
:10552A009C74FFFBFAF9F8122C6E900CEE122EC442
:02553A0080D817
:10553C0090888FE493FF3395E0FE90028C75F01306
:10554C00EF122F3FEE75F013A42583F583122F5B1A
:10555C00E92407F9E43AFA754CFF754D64754EDC95
:10556C00754FFF7550677551281260C990888FE48C
:10557C0093FF3395E0FE90028C75F013EF122F3FE2
:10558C00EE75F013A42583F583122F5BE92407F93C
:10559C00E43AFA12000EEF2401F54DE43EF54C907E
:1055AC00888EE493FF7B737D011290DCD2B3C2B67C
:0C55BC00C2B5C2B4E4900004F085428443
:0155C80022C0
:10837100858442E4F545F54678DE7C0C7D017BFF82
:0A8381007A69791DFE7F08122A2395
:10838B00900CD2122ED0000107ACE4FFFEFDFC9046
:10839B000CD2122EA8D3122DC14017900CD2122E34
:1083AB009C74FFFBFAF9F8122C6E900CD2122EC4AF
:0283BB0080D868
:1083BD0090888FE493FF3395E0FE90028C75F01357
:1083CD00EF122F3FEE75F013A42583F583122F5B6B
:1083DD00E92407F9E43AFA754CFF754D64754EDCE6
:1083ED00754FFF75506775513C1260C990888FE4C9
:1083FD0093FF3395E0FE90028C75F013EF122F3F33
:10840D00EE75F013A42583F583122F5BE92407F98C
:10841D00E43AFA12000EEF2401F54DE43EF54C90CE
:0C842D00888EE493FF7B737D011290DCCD
:10843900900CD6122ED0000107ACE4FFFEFDFC9093
:108449000CD6122EA8D3122DC14017900CD6122E7D
:108459009C74FFFBFAF9F8122C6E900CD6122EC4FC
:0284690080D8B9
:10846B00E49002BFF0A3F090026AE024A0F54490E0
:10847B000269E03400F54375840F30E819C39002AC
:10848B00C0E094099002BFE09400400302855AE4D7
:10849B009002BFF0A3F0900269E0FEA3E0FFB544A9
:1084AB00D6EEB543D2EF24A0F544E43EF5439088D5
:1084BB008FE493FF3395E0FE90028C75F013EF126F
:1084CB002F3FEE75F013A42583F583122F5BE92460
:1084DB0007F9E43AFA754CFF754D67754E488545BB
:1084EB004F8546501260C990888FE493FF3395E017
:1084FB00FE90028C75F013EF122F3FEE75F013A464
:10850B002583F583122F5BE92407F9E43AFA12006D
:10851B000EEF2401F54DE43EF54C90888EE493FF6D
:10852B007B737D011290DC74DE2546F582740C356D
:10853B0045F583E0F5C80546E54670020545FFAEF7
:10854B00457C007D07122B5D8C458D46028482E4B1
:06855B009002BFF0A3F046
:10856100900CDA122ED0000107ACE4FFFEFDFC9066
:108571000CDA122EA8D3122DC14017900CDA122E4C
:108581009C74FFFBFAF9F8122C6E900CDA122EC4CF
:0285910080D890
:1085930090888FE493FF3395E0FE90028C75F0137F
:1085A300EF122F3FEE75F013A42583F583122F5B93
:1085B300E92407F9E43AFA754CFF754D64754EDC0E
:1085C300754FFF75506775514F1260C990888FE4DE
:1085D30093FF3395E0FE90028C75F013EF122F3F5B
:1085E300EE75F013A42583F583122F5BE92407F9B5
:1085F300E43AFA12000EEF2401F54DE43EF54C90F7
:10860300888EE493FF7B737D011290DCD2B3C2B6F4
:07861300C2B5C2B485428428
:01861A00223D
:0C55C9008584427544019000047401F0D8
:1055D500900CD2122ED0000107ACE4FFFEFDFC902A
:1055E5000CD2122EA8D3122DC14017900CD2122E18
:1055F5009C74FFFBFAF9F8122C6E900CD2122EC493
:0256050080D84B
:1056070090888FE493FF3395E0FE90028C75F0133A
:10561700EF122F3FEE75F013A42583F583122F5B4E
:10562700E92407F9E43AFA754CFF754D64754EDCC9
:10563700754FFF7550677551641260C990888FE484
:1056470093FF3395E0FE90028C75F013EF122F3F16
:10565700EE75F013A42583F583122F5BE92407F970
:10566700E43AFA12000EEF2401F54DE43EF54C90B2
:0C567700888EE493FF7B737D011290DCB1
:10568300900CD6122ED0000107ACE4FFFEFDFC9077
:105693000CD6122EA8D3122DC14017900CD6122E61
:1056A3009C74FFFBFAF9F8122C6E900CD6122EC4E0
:0256B30080D89D
:1056B50090888FE493FF3395E0FE90028C75F0138C
:1056C500EF122F3FEE75F013A42583F583122F5BA0
:1056D500E92407F9E43AFA754CFF754D64754EDC1B
:1056E500754FFF75506775516D1260C990888FE4CD
:1056F50093FF3395E0FE90028C75F013EF122F3F68
:10570500EE75F013A42583F583122F5BE92407F9C1
:10571500E43AFA12000EEF2401F54DE43EF54C9003
:0C572500888EE493FF7B737D011290DC02
:10573100900CDA122ED0000107ACE4FFFEFDFC90C4
:105741000CDA122EA8D3122DC14017900CDA122EAA
:105751009C74FFFBFAF9F8122C6E900CDA122EC42D
:0257610080D8EE
:1057630090888FE493FF3395E0FE90028C75F013DD
:10577300EF122F3FEE75F013A42583F583122F5BF1
:10578300E92407F9E43AFA754CFF754D64754EDC6C
:10579300754FFF7550677551901260C990888FE4FB
:1057A30093FF3395E0FE90028C75F013EF122F3FB9
:1057B300EE75F013A42583F583122F5BE92407F913
:1057C300E43AFA12000EEF2401F54DE43EF54C9055
:1057D300888EE493FF7B737D011290DC9002A6E038
:1057E30060FAE4F545E545122FF65809005809011A
:1057F300583702586503589F0458CD0558FA06597F
:10580300270700005952E54525E02415F582E434C5
:1058130000F583E0FEA3E0FFC394A4EE9406400DDD
:10582300D3EF94FCEE940850047F0180027F008F35
:1058330043025952E54525E02415F582E43400F589
:1058430083E0FEA3E0FFC39484EE940E400DD3EFF8
:10585300949CEE941050047F0180027F008F4302DA
:105863005952900014E0602EE54525E02415F58299
:10587300E43400F583E0FEA3E0FFC394AAEE9405AD
:10588300400DD3EF946CEE940750047F0180027FA8
:10589300008F43025952754301025952E54525E0F1
:1058A3002415F582E43400F583E0FEA3E0FFC394FE
:1058B30030EE9404400DD3EF9460EE940550047FD2
:1058C3000180027F008F43025952E54525E02415EC
:1058D300F582E43400F583E0FEA3E0FFC394CAEE4F
:1058E3009402400DD3EF9496EE940350047F01800D
:1058F300027F008F438058E54525E02415F582E4B7
:105903003400F583E0FEA3E0FFC39465EE94014009
:105913000DD3EF94CBEE940150047F0180027F00FE
:105923008F43802BE54525E02415F582E43400F50B
:1059330083E0FEA3E0FFC3943FEE9403400DD3EF57
:10594300942BEE940450047F0180027F008F43E583
:10595300437002F5447B017A0C79E612000E74E67B
:105963002FF9740C3EFA7B01C003C002C001E5436A
:105973007BFF60067A6779A880047A6779AC8B4CE1
:105983008A4D894ED001D002D0031260C90545E586
:0E59930045C3940850030257E8E49002A6F0C2
:1059A100900CDE122ED0000107ACE4FFFEFDFC904E
:1059B1000CDE122EA8D3122DC14017900CDE122E30
:1059C1009C74FFFBFAF9F8122C6E900CDE122EC4B7
:0259D10080D87C
:1059D30090888FE493FF3395E0FE90028C75F0136B
:1059E300EF122F3FEE75F013A42583F583122F5B7F
:1059F300E92407F9E43AFA754CFF754D64754EDCFA
:105A0300754F0175500C7551E61260C990888FE48B
:105A130093FF3395E0FE90028C75F013EF122F3F46
:105A2300EE75F013A42583F583122F5BE92407F9A0
:105A3300E43AFA12000EEF2401F54DE43EF54C90E2
:0C5A4300888EE493FF7B737D011290DCE1
:105A4F00900CE2122ED0000107ACE4FFFEFDFC909B
:105A5F000CE2122EA8D3122DC14017900CE2122E79
:105A6F009C74FFFBFAF9F8122C6E900CE2122EC404
:025A7F0080D8CD
:105A8100E54490888F6038E493FF3395E0FE9002FF
:105A91008C75F013EF122F3FEE75F013A42583F5EB
:105AA10083122F5BE92407F9E43AFA754CFF754D2F
:105AB10064754EDC754FFF7550677551B08036E4E3
:105AC10093FF3395E0FE90028C75F013EF122F3F98
:105AD100EE75F013A42583F583122F5BE92407F9F2
:105AE100E43AFA754CFF754D64754EDC754FFF75E0
:105AF10050677551BD1260C990888FE493FF33954B
:105B0100E0FE90028C75F013EF122F3FEE75F0134B
:105B1100A42583F583122F5BE92407F9E43AFA12ED
:105B2100000EEF2401F54DE43EF54C90888EE49390
:105B3100FF7B737D011290DCD2B3C2B6C2B5C2B491
:085B4100E4900004F0854284A9
:015B49002239
:0E5B4A00858442754301E4F54590000404F0A3
:105B5800900CD2122ED0000107ACE4FFFEFDFC90A1
:105B68000CD2122EA8D3122DC14017900CD2122E8F
:105B78009C74FFFBFAF9F8122C6E900CD2122EC40A
:025B880080D8C3
:105B8A0090888FE493FF3395E0FE90028C75F013B2
:105B9A00EF122F3FEE75F013A42583F583122F5BC6
:105BAA00E92407F9E43AFA754CFF754D64754EDC41
:105BBA00754FFF7550677551CF1260C990888FE491
:105BCA0093FF3395E0FE90028C75F013EF122F3F8E
:105BDA00EE75F013A42583F583122F5BE92407F9E8
:105BEA00E43AFA12000EEF2401F54DE43EF54C902A
:105BFA00888EE493FF7B737D011290DC900014E0A1
:025C0A00706EBA
:105C0C00900CD6122ED0000107ACE4FFFEFDFC90E8
:105C1C000CD6122EA8D3122DC14017900CD6122ED2
:105C2C009C74FFFBFAF9F8122C6E900CD6122EC451
:025C3C0080D80E
:105C3E0090888FE493FF3395E0FE90028C75F013FD
:105C4E00EF122F3FEE75F013A42583F583122F5B11
:105C5E00E92407F9E43AFA754CFF754D64754EDC8C
:105C6E00754FFF7550677551DF026019E4F546E513
:105C7E0046B40707E4F5C8D2FB80058545C8C2FBCC
:105C8E00900CDA122ED0000107ACE4FFFEFDFC9062
:105C9E000CDA122EA8D3122DC14017900CDA122E48
:105CAE009C74FFFBFAF9F8122C6E900CDA122EC4CB
:025CBE0080D88C
:105CC00090888FE493FF3395E0FE90028C75F0137B
:105CD000EF122F3FEE75F013A42583F583122F5B8F
:105CE000E92407F9E43AFA754CFF754D67754EFDE6
:105CF00085464F1260C990888FE493FF3395E0FE8C
:105D000090028C75F013EF122F3FEE75F013A4255F
:105D100083F583122F5BE92407F9E43AFA12000EA7
:105D2000EF2401F54DE43EF54C90888EE493FF7B23
:105D3000737D011290DC9002A6E060FAE546122F16
:105D4000F65D5D005D88015DB3025DDE035E090402
:105D50005E33055E5D065E870700005E9AE5D8B596
:105D6000451FD3900018E094CA900017E0940240B9
:105D70001020A00D20A10A3086073087047F018003
:105D8000027F008F44025E9AE5D8B5451FC390009C
:105D900018E0942C900017E09401501020A00D20E2
:105DA000A10A2086073087047F0180027F008F448C
:105DB000025E9AE5D8B5451FC3900018E0942C9078
:105DC0000017E09401501020A00D20A10A30860792
:105DD0002087047F0180027F008F44025E9AE5D80D
:105DE000B5451FC3900018E0942C900017E0940173
:105DF000501020A00D20A10A3086073087047F01B3
:105E000080027F008F44025E9AE5D8B5451FC3909B
:105E10000018E0942C900017E09401501020A00D81
:105E200020A10A3086073087047F0180027F008F1F
:105E3000448067E5D8B5451FC3900018E0942C90C6
:105E40000017E09401501020A00D30A10A30860701
:105E50003087047F0180027F008F44803DE5D8B504
:105E6000451FC3900018E0942C900017E094015057
:105E70001030A00D20A10A3086073087047F0180F2
:105E8000027F008F448013E545B4030A2086072073
:105E900087047F0180027F008F44E49002A6F0E532
:065EA000446003025F579D
:105EA600900CDE122ED0000107ACE4FFFEFDFC9044
:105EB6000CDE122EA8D3122DC14017900CDE122E26
:105EC6009C74FFFBFAF9F8122C6E900CDE122EC4AD
:025ED60080D872
:105ED80090888FE493FF3395E0FE90028C75F01361
:105EE800EF122F3FEE75F013A42583F583122F5B75
:105EF800E92407F9E43AFA754CFF754D64754EDCF0
:105F0800754FFF7550687551101260C990888FE4FD
:105F180093FF3395E0FE90028C75F013EF122F3F3C
:105F2800EE75F013A42583F583122F5BE92407F996
:105F3800E43AFA12000EEF2401F54DE43EF54C90D8
:105F4800888EE493FF7B737D011290DCE4F543E5D2
:105F58004570057545018006E54525E0F54505468A
:0A5F6800E546C394075003025C7D78
:105F7200900CE2122ED0000107ACE4FFFEFDFC9073
:105F82000CE2122EA8D3122DC14017900CE2122E51
:105F92009C74FFFBFAF9F8122C6E900CE2122EC4DC
:025FA20080D8A5
:105FA400E54390888F6038E493FF3395E0FE9002D8
:105FB4008C75F013EF122F3FEE75F013A42583F5C3
:105FC40083122F5BE92407F9E43AFA754CFF754D07
:105FD40064754EDC754FFF75506875511C8036E44E
:105FE40093FF3395E0FE90028C75F013EF122F3F70
:105FF400EE75F013A42583F583122F5BE92407F9CA
:10600400E43AFA754CFF754D64754EDC754FFF75B7
:10601400506875512C1260C990888FE493FF3395B2
:10602400E0FE90028C75F013EF122F3FEE75F01323
:10603400A42583F583122F5BE92407F9E43AFA12C5
:10604400000EEF2401F54DE43EF54C90888EE49368
:10605400FF7B737D011290DCD2B3C2B6C2B5C2B469
:08606400E4900004F085428481
:01606C002211
:096925008584429000047401F025
:10692E00900CD2122ED0000107ACE4FFFEFDFC90BD
:10693E000CD2122EA8D3122DC14017900CD2122EAB
:10694E009C74FFFBFAF9F8122C6E900CD2122EC426
:02695E0080D8DF
:1069600090888FE493FF3395E0FE90028C75F013CE
:10697000EF122F3FEE75F013A42583F583122F5BE2
:10698000E92407F9E43AFA754CFF754D64754EDC5D
:10699000754FFF7550687551411260C990888FE43A
:1069A00093FF3395E0FE90028C75F013EF122F3FAA
:1069B000EE75F013A42583F583122F5BE92407F904
:1069C000E43AFA12000EEF2401F54DE43EF54C9046
:1069D000888EE493FF7B737D011290DC900014E0BD
:0269E000706ED7
:1069E200900CD6122ED0000107ACE4FFFEFDFC9005
:1069F2000CD6122EA8D3122DC14017900CD6122EEF
:106A02009C74FFFBFAF9F8122C6E900CD6122EC46D
:026A120080D82A
:106A140090888FE493FF3395E0FE90028C75F01319
:106A2400EF122F3FEE75F013A42583F583122F5B2D
:106A3400E92407F9E43AFA754CFF754D64754EDCA8
:0F6A4400754FFF7550677551DF026D0B75C820D8
:106A5300900CDA122ED0000107ACE4FFFEFDFC908F
:106A63000CDA122EA8D3122DC14017900CDA122E75
:106A73009C74FFFBFAF9F8122C6E900CDA122EC4F8
:026A830080D8B9
:106A850090888FE493FF3395E0FE90028C75F013A8
:106A9500EF122F3FEE75F013A42583F583122F5BBC
:106AA500E92407F9E43AFA754CFF754D64754EDC37
:106AB500754FFF75506875514D1260C990888FE408
:106AC50093FF3395E0FE90028C75F013EF122F3F84
:106AD500EE75F013A42583F583122F5BE92407F9DE
:106AE500E43AFA12000EEF2401F54DE43EF54C9020
:106AF500888EE493FF7B737D011290DC7F0112A8E1
:016B0500EDA2
:106B0600900CDE122ED0000107ACE4FFFEFDFC90D7
:106B16000CDE122EA8D3122DC14017900CDE122EB9
:106B26009C74FFFBFAF9F8122C6E900CDE122EC440
:026B360080D805
:106B380090888FE493FF3395E0FE90028C75F013F4
:106B4800EF122F3FEE75F013A42583F583122F5B08
:106B5800E92407F9E43AFA754CFF754D64754EDC83
:106B6800754FFF7550687551601260C990888FE441
:106B780093FF3395E0FE90028C75F013EF122F3FD0
:106B8800EE75F013A42583F583122F5BE92407F92A
:106B9800E43AFA12000EEF2401F54DE43EF54C906C
:0E6BA800888EE493FF7B737D011290DCC2FFA8
:106BB600900CE2122ED00006DDD0E4FFFEFDFC9024
:106BC6000CE2122EA8D3122DC14017900CE2122E01
:106BD6009C74FFFBFAF9F8122C6E900CE2122EC48C
:026BE60080D855
:026BE800D2FFDA
:106BEA00900CE6122ED0000107ACE4FFFEFDFC90EB
:106BFA000CE6122EA8D3122DC14017900CE6122EC5
:106C0A009C74FFFBFAF9F8122C6E900CE6122EC453
:026C1A0080D820
:106C1C0090888FE493FF3395E0FE90028C75F0130F
:106C2C00EF122F3FEE75F013A42583F583122F5B23
:106C3C00E92407F9E43AFA754CFF754D64754EDC9E
:106C4C00754FFF7550687551731260C990888FE449
:106C5C0093FF3395E0FE90028C75F013EF122F3FEB
:106C6C00EE75F013A42583F583122F5BE92407F945
:106C7C00E43AFA12000EEF2401F54DE43EF54C9087
:106C8C00888EE493FF7B737D011290DCE4FF12A8E5
:046C9C00EDE4F5C866
:106CA000900CEA122ED0000107ACE4FFFEFDFC9030
:106CB0000CEA122EA8D3122DC14017900CEA122E06
:106CC0009C74FFFBFAF9F8122C6E900CEA122EC499
:026CD00080D86A
:106CD20090888FE493FF3395E0FE90028C75F01359
:106CE200EF122F3FEE75F013A42583F583122F5B6D
:106CF200E92407F9E43AFA754CFF754D64754EDCE8
:106D0200754FFF7550687551871260C990888FE47E
:106D120093FF3395E0FE90028C75F013EF122F3F34
:106D2200EE75F013A42583F583122F5BE92407F98E
:106D3200E43AFA12000EEF2401F54DE43EF54C90D0
:106D4200888EE493FF7B737D011290DCD2B3C2B6CE
:0C6D5200C2B5C2B4E4900004F085428495
:016D5E002212
:10757600E4900CE6F0A3F0A2FB920185844690000D
:037586000404F00A
:10758900900CD2122ED0000107ACE4FFFEFDFC9056
:107599000CD2122EA8D3122DC14017900CD2122E44
:1075A9009C74FFFBFAF9F8122C6E900CD2122EC4BF
:0275B90080D878
:1075BB0090888FE493FF3395E0FE90028C75F01367
:1075CB00EF122F3FEE75F013A42583F583122F5B7B
:1075DB00E92407F9E43AFA754CFF754D64754EDCF6
:1075EB00754FFF7550687551981260C990888FE47C
:1075FB0093FF3395E0FE90028C75F013EF122F3F43
:10760B00EE75F013A42583F583122F5BE92407F99C
:10761B00E43AFA12000EEF2401F54DE43EF54C90DE
:10762B00888EE493FF7B737D011290DC900014E055
:02763B00706E6F
:10763D00900CD6122ED0000107ACE4FFFEFDFC909D
:10764D000CD6122EA8D3122DC14017900CD6122E87
:10765D009C74FFFBFAF9F8122C6E900CD6122EC406
:02766D0080D8C3
:10766F0090888FE493FF3395E0FE90028C75F013B2
:10767F00EF122F3FEE75F013A42583F583122F5BC6
:10768F00E92407F9E43AFA754CFF754D64754EDC41
:0E769F00754FFF7550677551DF0278D6C2FB3C
:1076AD00900CDA122ED0000107ACE4FFFEFDFC9029
:1076BD000CDA122EA8D3122DC14017900CDA122E0F
:1076CD009C74FFFBFAF9F8122C6E900CDA122EC492
:0276DD0080D853
:1076DF0090888FE493FF3395E0FE90028C75F01342
:1076EF00EF122F3FEE75F013A42583F583122F5B56
:1076FF00E92407F9E43AFA754CFF754D68754EACFD
:10770F00754F087550037551E81260C990888FE462
:10771F0093FF3395E0FE90028C75F013EF122F3F1D
:10772F00EE75F013A42583F583122F5BE92407F977
:10773F00E43AFA12000EEF2401F54DE43EF54C90B9
:10774F00888EE493FF7B737D011290DCC2B3E4F566
:10775F0042F543900041122F5B854382854283E5BA
:10776F0043122AD40543E54370020542640845429B
:10777F0070E19000407408F090003D7404F0E4F55F
:10778F0044F54512A955120026E4F542F543900041
:10779F0041122F5B854382854283122A62FF90003C
:1077AF0044122F5B854382854283122A626F600ADF
:1077BF00900CE6E475F001122B930543E54370023C
:1077CF0005426408454270C6900CE6E07002A3E0E3
:0477DF006002D2B3BF
:1077E300900CDE122ED0000001C2E4FFFEFDFC90DF
:1077F3000CDE122EA8D3122DC14017900CDE122ED0
:107803009C74FFFBFAF9F8122C6E900CDE122EC456
:0278130080D81B
:107815000545E54570020544C394E8E544940350E5
:0878250003027792A20192FB1D
:10782D00900CE2122ED0000107ACE4FFFEFDFC909F
:10783D000CE2122EA8D3122DC14017900CE2122E7D
:10784D009C74FFFBFAF9F8122C6E900CE2122EC408
:02785D0080D8D1
:10785F00900CE6E0FEA3E0FF4E90888F6033E49338
:10786F00FD3395E0FC90028C75F013ED122F3FEC79
:10787F0075F013A42583F583122F5BE92407F9E430
:10788F003AFA754CFF754D68754EC08E4F8F50800C
:10789F0036E493FF3395E0FE90028C75F013EF12F0
:1078AF002F3FEE75F013A42583F583122F5BE92488
:1078BF0007F9E43AFA754CFF754D64754EDC754F58
:1078CF00FF7550687551D61260C990888FE493FF89
:1078DF003395E0FE90028C75F013EF122F3FEE758B
:1078EF00F013A42583F583122F5BE92407F9E43AFB
:1078FF00FA12000EEF2401F54DE43EF54C90888E00
:10790F00E493FF7B737D011290DCD2B3C2B6C2B594
:0A791F00C2B4E4900004F085468431
:01792900223B
:0D805B00A2FB92018584429000047401F0A4
:10806800900CD2122ED0000107ACE4FFFEFDFC906C
:108078000CD2122EA8D3122DC14017900CD2122E5A
:108088009C74FFFBFAF9F8122C6E900CD2122EC4D5
:0280980080D88E
:10809A0090888FE493FF3395E0FE90028C75F0137D
:1080AA00EF122F3FEE75F013A42583F583122F5B91
:1080BA00E92407F9E43AFA754CFF754D64754EDC0C
:1080CA00754FFF7550687551E71260C990888FE443
:1080DA0093FF3395E0FE90028C75F013EF122F3F59
:1080EA00EE75F013A42583F583122F5BE92407F9B3
:1080FA00E43AFA12000EEF2401F54DE43EF54C90F5
:10810A00888EE493FF7B737D011290DC900014E06B
:02811A00706E85
:10811C00900CD6122ED0000107ACE4FFFEFDFC90B3
:10812C000CD6122EA8D3122DC14017900CD6122E9D
:10813C009C74FFFBFAF9F8122C6E900CD6122EC41C
:02814C0080D8D9
:10814E0090888FE493FF3395E0FE90028C75F013C8
:10815E00EF122F3FEE75F013A42583F583122F5BDC
:10816E00E92407F9E43AFA754CFF754D64754EDC57
:0E817E00754FFF7550677551DF02831DC2FB00
:10818C00900CDA122ED0000107ACE4FFFEFDFC903F
:10819C000CDA122EA8D3122DC14017900CDA122E25
:1081AC009C74FFFBFAF9F8122C6E900CDA122EC4A8
:0281BC0080D869
:1081BE0090888FE493FF3395E0FE90028C75F01358
:1081CE00EF122F3FEE75F013A42583F583122F5B6C
:1081DE00E92407F9E43AFA754CFF754D68754EAC13
:1081EE00754F087550037551E81260C990888FE479
:1081FE0093FF3395E0FE90028C75F013EF122F3F34
:10820E00EE75F013A42583F583122F5BE92407F98D
:10821E00E43AFA12000EEF2401F54DE43EF54C90CF
:10822E00888EE493FF7B737D011290DCC2B3E4F57C
:10823E0084C2C3FFFE900041122F5B8F828E837427
:10824E00FD122AD40FBF00010EEF64084E70E63007
:10825E00E816C39002C0E094099002BFE09400506B
:10826E003FE49002BFF0A3F0900047E060FAE49084
:10827E000047F0FEFF900044122F5B8F828E831218
:10828E002A62FD900041122F5B8F828E83ED122A9F
:10829E00D40FBF00010EEF64084E70D9B2B380AF99
:0482AE00A20192FB9C
:1082B200900CDE122ED0000107ACE4FFFEFDFC9014
:1082C2000CDE122EA8D3122DC14017900CDE122EF6
:1082D2009C74FFFBFAF9F8122C6E900CDE122EC47D
:0282E20080D842
:1082E40090888FE493FF3395E0FE90028C75F01331
:1082F400EF122F3FEE75F013A42583F583122F5B45
:10830400E92407F9E43AFA754CFF754D64754EDCBF
:10831400754FFF7550687551FA1260C990888FE4E3
:1083240093FF3395E0FE90028C75F013EF122F3F0C
:10833400EE75F013A42583F583122F5BE92407F966
:10834400E43AFA12000EEF2401F54DE43EF54C90A8
:10835400888EE493FF7B737D011290DCD2B3C2B6A6
:0C836400C2B5C2B4E4900004F08542846D
:0183700022EA
:10A8640001120101060101020100000001000000C3
:10A874000C00000077000004A900002E9B0001D208
:10A88400090012345600B60B61071C71C7471C71CE
:01A89400C7FC
:049D8400410DD100BC
:10792A0090029F122F5B8B338A34893590029EE036
:10793A0090029DF0D2B3E4F531F532AB33AA34A903
:10794A00350532E532AE3170020531142406F5826E
:10795A00E43EF58374FA122AD40532E532AE317068
:10796A00020531142406F582E43EF583E4122AD492
:10797A000532E532AE3170020531142406F582E48F
:10798A003EF5837401122AD40532E532AE31700213
:10799A000531142406F582E43EF583E4122AD4055F
:1079AA0032E532AE3170020531142406F582E43E26
:1079BA00F5837401122AD40532E532AE317002051C
:1079CA0031142406F582E43EF583E4122AD4AD325A
:1079DA00AC317F087E06129D9E900294E07002A34D
:0879EA00E070F6E4F531F5321E
:1079F200900CC2122ED000001194E4FFFEFDFC9008
:107A02000CC2122EA8D3122DC14017900CC2122EF6
:107A12009C74FFFBFAF9F8122C6E900CC2122EC461
:027A220080D80A
:107A240090029EE0FF90029DE06F60359002A212EA
:107A34002F5B75F0DCEFA4F58285F083122BEAF559
:107A44003285F031EFB402047F00800690029EE09C
:107A540004FF90029EEFF0E532B401C4E531B405B1
:017A6400BF62
:107A6500900CC6122ED000002328E4FFFEFDFC90EA
:107A75000CC6122EA8D3122DC14017900CC6122E7B
:107A85009C74FFFBFAF9F8122C6E900CC6122EC4EA
:027A950080D897
:107A9700E53264017004E5316405600302793ED282
:107AA700B6F531F532AB33AA34A9350532E532AE36
:107AB7003170020531142406F582E43EF583740122
:107AC700122AD40532E532AE31700205311424068C
:107AD700F582E43EF583E4122AD40532E532AE316D
:107AE70070020531142406F582E43EF583E4122A78
:107AF700D40532E532AE3170020531142406F58221
:107B0700E43EF583E4122AD40532E532AE31700241
:107B17000531142406F582E43EF58374C0122AD495
:107B27000532E532AE3170020531142406F582E4E0
:107B37003EF5837408122AD40532E532AE3170025D
:107B47000531142406F582E43EF583E4122AD405B0
:107B570032E532AE3170020531142406F582E43E77
:107B6700F583E4122AD4E92406F9E43AFAE925323E
:107B7700F9EA3531FA122F0100E1000074042532C9
:107B8700F532E43531F531AB33AA34A9350532E5A1
:107B970032AE3170020531142406F582E43EF583D6
:107BA7007401122AD40532E532AE31700205311460
:107BB7002406F582E43EF583E4122AD40532E53241
:107BC700AE3170020531142406F582E43EF5837464
:107BD70001122AD40532E532AE3170020531142480
:107BE70006F582E43EF583E4122AD40532E532AE87
:107BF7003170020531142406F582E43EF583E41260
:107C07002AD40532E532AE3170020531142406F567
:107C170082E43EF583E4122AD40532E532AE3170B0
:107C2700020531142406F582E43EF583E4122AD4D2
:107C37000532E532AE3170020531142406F582E4CF
:107C47003EF583E4122AD4AD32AC317F007E0612B2
:0C7C57009D9E900294E07002A3E070F685
:107C6300900CCA122ED000001194E4FFFEFDFC908C
:107C73000CCA122EA8D3122DC14017900CCA122E73
:107C83009C74FFFBFAF9F8122C6E900CCA122EC4E6
:027C930080D897
:107C9500D2B57B017A0279927F007EE17D007C007E
:037CA500128CC975
:107CA800900CCE122ED000004650E4FFFEFDFC9052
:107CB8000CCE122EA8D3122DC14017900CCE122E26
:107CC8009C74FFFBFAF9F8122C6E900CCE122EC49D
:027CD80080D852
:017CDA002287
:1000A60078DE7C0C7D017BFF7AA879647E007F096F
:1000B600122A2390029F122F5B8B498A4A894B9002
:1000C6000014E0700302020C90029EE090029DF084
:1000D600E4F548E4F546F547E54875F003A424DE63
:1000E600F582E4340CF583E0FFAB49AA4AA94B0537
:1000F60047E547AC4670020546142406F582E43C03
:10010600F583EF122AD4E54875F003A424DEF582C0
:10011600E4340CF583A3E0FF0547E547AC467002DF
:100126000546142406F582E43CF583EF122AD4E54D
:100136004875F003A424E0F582E4340CF583E0FF6F
:100146000547E547AC4670020546142406F582E4E9
:100156003CF583EF129D93900294E07002A3E07049
:10016600F690029EE0FF90029DE06F60F49002A27E
:10017600122F5B90029EE0FF75F0DCA4F58285F0FD
:1001860083122BEAF54785F046EFB402047F008020
:100196000690029EE004FF90029EEFF0E5476401A0
:1001A6007004E5466405600C90029EE0FF90029D97
:0401B600E0B507B9F0
:1001BA00900CC2122ED000002328E4FFFEFDFC9012
:1001CA000CC2122EA8D3122DC14017900CC2122EA7
:1001DA009C74FFFBFAF9F8122C6E900CC2122EC412
:0201EA0080D8BB
:1001EC00E54764017004E546640560030200D9C26A
:1001FC00B30548E548C3940350030200D9020C9997
:10020C00E4F546F547AB49AA4AA94B0547E547AE85
:10021C004670020546142406F582E43EF58374010B
:10022C00122AD40547E547AE46700205461424064B
:10023C00F582E43EF5837402122AD40547E547AEF5
:10024C004670020546142406F582E43EF583E4125A
:10025C002AD40547E547AE4670020546142406F538
:10026C0082E43EF5837401122AD40547E547AE4675
:10027C0070020546142406F582E43EF583E4122A46
:10028C00D40547E547AE4670020546142406F582B0
:10029C00E43EF583E4122AD40547E547AE467002E6
:1002AC000546142406F582E43EF5837401122AD423
:1002BC000547E547AE4670020546142406F582E470
:1002CC003EF5837401122AD40547E547AE46700209
:1002DC000546142406F582E43EF583E4122AD4057F
:1002EC0047E547AE4670020546142406F582E43E07
:1002FC00F583E4122AD40547E547AE46700205465D
:10030C00142406F582E43EF583E4122AD40547E56D
:10031C0047AE4670020546142406F582E43EF5838A
:10032C00E4122AD40547E547AE467002054614246C
:10033C0006F582E43EF5837401122AD40547E5479D
:10034C00AE4670020546142406F582E43EF583742D
:10035C0006122AD40547E547AE467002054614241A
:10036C0006F582E43EF583E4122AD40547E547AE50
:10037C004670020546142406F582E43EF5837401AA
:10038C00122AD40547E547AE4670020546142406EA
:10039C00F582E43EF583E4122AD40547E547AE46E0
:1003AC0070020546142406F582E43EF583E4122A15
:1003BC00D40547E547AE4670020546142406F5827F
:1003CC00E43EF5837401122AD40547E547AE467026
:1003DC00020546142406F582E43EF5837412122AB3
:1003EC00D40547E547AE4670020546142406F5824F
:1003FC00E43EF583E4122AD40547E547AE46700285
:10040C000546142406F582E43EF5837401122AD4C1
:10041C000547E547AE4670020546142406F582E40E
:10042C003EF583E4122AD40547E547AE4670020533
:10043C0046142406F582E43EF583E4122AD40547DB
:10044C00E547AE4670020546142406F582E43EF5F7
:10045C00837401122AD40547E547AE46700205465F
:10046C00142406F582E43EF5837403122AD405475E
:10047C00E547AE4670020546142406F582E43EF5C7
:10048C0083E4122AD40547E547AE467002054614AC
:10049C002406F582E43EF583E4122AD40547E547A9
:1004AC00AE4670020546142406F582E43EF583E45C
:1004BC00122AD40547E547AE4670020546142406B9
:1004CC00F582E43EF583E4122AD40547E547AE46AF
:1004DC0070020546142406F582E43EF5837401127D
:1004EC002AD40547E547AE4670020546142406F5A6
:1004FC0082E43EF5837430122AD40547E547AE46B4
:10050C0070020546142406F582E43EF583E4122AB3
:10051C00D40547E547AE4670020546142406F5821D
:10052C00E43EF583E4122AD40547E547AE46700253
:10053C000546142406F582E43EF583E4122AD4051C
:10054C0047E547AE4670020546142406F582E43EA4
:10055C00F583E4122AD40547E547AE4670020546FA
:10056C00142406F582E43EF5837401122AD405475F
:10057C00E547AE4670020546142406F582E43EF5C6
:10058C00837404122AD40547E547AE46700205462B
:10059C00142406F582E43EF583E4122AD40547E5DB
:1005AC0047AE4670020546142406F582E43EF583F8
:1005BC00E4122AD40547E547AE46700205461424DA
:1005CC0006F582E43EF583E4122AD40547E547AEEE
:1005DC004670020546142406F582E43EF583E412C7
:1005EC002AD40547E547AE4670020546142406F5A5
:1005FC0082E43EF5837401122AD40547E547AE46E2
:10060C0070020546142406F582E43EF5837420122C
:10061C002AD40547E547AE4670020546142406F574
:10062C0082E43EF583E4122AD40547E547AE4670D2
:10063C00020546142406F582E43EF583E4122AD41E
:10064C000547E547AE4670020546142406F582E4DC
:10065C003EF583E4122AD40547E547AE4670020501
:10066C0046129D89900294E07002A3E070F690020D
:10067C009EE0FF90029DE06F60F49002A2122F5B4F
:10068C0090029EE0FF75F0DCA4F58285F083122BBE
:10069C00EAF54785F046EFB402047F00800690022D
:1006AC009EE004FF90029EEFF0E54764017004E5C4
:1006BC00466405600C90029EE0FF90029DE0B50739
:0106CC00B974
:1006CD00900CC6122ED000002328E4FFFEFDFC90F6
:1006DD000CC6122EA8D3122DC14017900CC6122E87
:1006ED009C74FFFBFAF9F8122C6E900CC6122EC4F6
:0206FD0080D8A3
:1006FF00E54764017004E5466405600302020CE4FB
:10070F00F546F547AB49AA4AA94B0547E547AE461B
:10071F0070020546142406F582E43EF58374011237
:10072F002AD40547E547AE4670020546142406F560
:10073F0082E43EF5837411122AD40547E547AE468D
:10074F0070020546142406F582E43EF583E4122A6E
:10075F00D40547E547AE4670020546142406F582D8
:10076F00E43EF583E4122AD40547E547AE4670020E
:10077F000546142406F582E43EF583E4122AD405D7
:10078F0047E547AE4670020546142406F582E43E5F
:10079F00F583E4122AD40547E547AE4670020546B5
:1007AF00142406F582E43EF5837401122AD405471A
:1007BF00E547AE4670020546142406F582E43EF581
:1007CF00837421122AD40547E547AE4670020546C9
:1007DF00142406F582E43EF583E4122AD40547E596
:1007EF0047AE4670020546142406F582E43EF583B3
:1007FF00E4122AD40547E547AE4670020546142495
:10080F0006F582E43EF583E4122AD40547E547AEA8
:10081F004670020546142406F582E43EF583E41281
:10082F002AD40547E547AE4670020546142406F55F
:10083F0082E43EF5837401122AD40547E547AE469C
:10084F0070020546142406F582E43EF583742212E5
:10085F002AD40547E547AE4670020546142406F52F
:10086F0082E43EF583E4122AD40547E547AE46708D
:10087F00020546142406F582E43EF583E4122AD4D9
:10088F000547E547AE4670020546142406F582E497
:10089F003EF583E4122AD40547E547AE46700205BC
:1008AF0046142406F582E43EF583E4122AD4054764
:1008BF00E547AE4670020546142406F582E43EF580
:1008CF0083740A122AD40547E547AE4670020546DF
:1008DF00142406F582E43EF5837407122AD40547E3
:1008EF00E547AE4670020546142406F582E43EF550
:1008FF0083E4122AD40547E547AE46700205461435
:10090F002406F582E43EF583E4122AD40547E54731
:10091F00AE4670020546142406F582E43EF583E4E4
:10092F00122AD40547E547AE467002054614240641
:10093F00F582E43EF583E4122AD40547E547AE4637
:10094F0070020546142406F582E43EF583740A12FC
:10095F002AD40547E547AE4670020546142406F52E
:10096F0082E43EF5837408122AD40547E547AE4664
:10097F0070020546142406F582E43EF583E4122A3C
:10098F00D40547E547AE4670020546142406F582A6
:10099F00E43EF583E4122AD40547E547AE467002DC
:1009AF000546142406F582E43EF583E4122AD405A5
:1009BF0047E547AE4670020546142406F582E43E2D
:1009CF00F583E4122AD40547E547AE467002054683
:1009DF00142406F582E43EF583740A122AD40547DF
:1009EF00E547AE4670020546142406F582E43EF54F
:1009FF00837402122AD40547E547AE4670020546B6
:100A0F00142406F582E43EF583E4122AD40547E563
:100A1F0047AE4670020546142406F582E43EF58380
:100A2F00E4122AD40547E547AE4670020546142462
:100A3F0006F582E43EF583E4122AD40547E547AE76
:100A4F004670020546142406F582E43EF583E4124F
:100A5F002AD40547E547AE4670020546142406F52D
:100A6F0082E43EF583740A122AD40547E547AE4661
:100A7F0070020546142406F582E43EF583740912CC
:100A8F002AD40547E547AE4670020546142406F5FD
:100A9F0082E43EF583E4122AD40547E547AE46705B
:100AAF00020546142406F582E43EF583E4122AD4A7
:100ABF000547E547AE4670020546142406F582E465
:100ACF003EF583E4122AD40547E547AE467002058A
:100ADF0046142406F582E43EF583E4122AD4054732
:100AEF00E547AE4670020546142406F582E43EF54E
:100AFF0083740A122AD40547E547AE4670020546AD
:100B0F00142406F582E43EF5837401122AD40547B6
:100B1F00E547AE4670020546142406F582E43EF51D
:100B2F0083E4122AD40547E547AE46700205461402
:100B3F002406F582E43EF583E4122AD40547E547FF
:100B4F00AE4670020546142406F582E43EF583E4B2
:100B5F00122AD40547E547AE46700205461424060F
:100B6F00F582E43EF583E4122AD40547E547AE4605
:100B7F0070020546142406F582E43EF583740A12CA
:100B8F002AD40547E547AE4670020546142406F5FC
:100B9F0082E43EF5837403122AD40547E547AE4637
:100BAF0070020546142406F582E43EF583E4122A0A
:100BBF00D40547E547AE4670020546142406F58274
:100BCF00E43EF583E4122AD40547E547AE467002AA
:100BDF000546142406F582E43EF583E4122AD40573
:100BEF0047E547AE4670020546129D89900294E094
:100BFF007002A3E070F690029EE0FF90029DE06FFE
:100C0F0060F49002A2122F5B90029EE0FF75F0DC61
:100C1F00A4F58285F083122BEAF54785F046EFB4F1
:100C2F0002047F00800690029EE004FF90029EEF78
:100C3F00F0E54764017004E5466405600C90029E80
:090C4F00E0FF90029DE0B507B939
:100C5800900CCA122ED000002328E4FFFEFDFC9061
:100C68000CCA122EA8D3122DC14017900CCA122EEE
:100C78009C74FFFBFAF9F8122C6E900CCA122EC461
:020C880080D812
:100C8A00E54764017004E5466405600302070EE463
:100C9A00F546F547AB49AA4AA94B0547E547AE468B
:100CAA0070020546142406F582E43EF58374FA12AE
:100CBA002AD40547E547AE4670020546142406F5D0
:100CCA0082E43EF583E4122AD40547E547AE46702E
:100CDA00020546142406F582E43EF5837401122ABD
:100CEA00D40547E547AE4670020546142406F58248
:100CFA00E43EF583E4122AD40547E547AE4670027E
:100D0A000546142406F582E43EF5837401122AD4BA
:100D1A000547E547AE4670020546142406F582E407
:100D2A003EF583E4122AD47F08129D98900294E03B
:100D3A007002A3E070F690029EE0FF90029DE06FC1
:100D4A0060F49002A2122F5B90029EE0FF75F0DC25
:100D5A00A4F58285F083122BEAF54785F046EFB4B5
:100D6A0002047F00800690029EE004FF90029EEF3C
:100D7A00F0E54764017004E5466405600C90029E44
:090D8A00E0FF90029DE0B507B9FD
:100D9300900CCE122ED000002328E4FFFEFDFC9021
:100DA3000CCE122EA8D3122DC14017900CCE122EAA
:100DB3009C74FFFBFAF9F8122C6E900CCE122EC421
:020DC30080D8D6
:0F0DC500E54764017004E54664056003020C997C
:100DD400900CA6E0FBE4FAF9F87F807E967D98FCFF
:100DE40012A7BA8F4F8E4E8D4D8C4C7808122DE879
:100DF400E4FFE4FDFCC004C005C006C007AF4FAE6D
:100E04004EAD4DAC4C7818122DE8E4FEFDFCD00339
:100E1400D002D001D000122DA6C004C005C006C067
:100E240007AF4FAE4EAD4DAC4C7808122DFBE4FF2E
:100E3400FEE4FCD003D002D001D000122DA6C004E1
:100E4400C005C006C007AF4FAE4EAD4DAC4C7818D0
:100E5400122DFBE4FFFEFDECD003D002D001D00044
:100E6400122DA6AB49AA4AA94B900006122E78E48B
:100E7400754F0AF54EF54DF54CAF4FAE4EAD4DAC3A
:100E84004C7808122DE8E4FFE4FDFCC004C005C062
:100E940006C007AF4FAE4EAD4DAC4C7818122DE8DE
:100EA400E4FEFDFCD003D002D001D000122DA6C078
:100EB40004C005C006C007AF4FAE4EAD4DAC4C7874
:100EC40008122DFBE4FFFEE4FCD003D002D001D0D5
:100ED40000122DA6C004C005C006C007AF4FAE4E19
:100EE400AD4DAC4C7818122DFBE4FFFEFDECD003A5
:100EF400D002D001D000122DA6AB49AA4AA94B902A
:100F0400000A122E787546007547080547E547AE76
:100F14004670020546142406F582E43EF583740106
:100F2400122AD40547E547AE467002054614240646
:100F3400F582E43EF5837401122AD40547E547AEF1
:100F44004670020546142406F582E43EF583E41255
:100F54002AD40547E547AE4670020546142406F533
:100F640082E43EF583E4122AD40547E547AE467091
:100F7400020546142406F582E43EF5837432122AEF
:100F8400D40547E547AE4670020546142406F582AB
:100F9400E43EF583E4122AD40547E547AE467002E1
:100FA4000546142406F582E43EF5837434122AD4EB
:100FB4000547E547AE4670020546142406F582E46B
:100FC4003EF5837403122AD40547E547AE46700202
:100FD4000546142406F582E43EF583E4122AD4057A
:100FE40047E547AE4670020546142406F582E43E02
:100FF400F583E4122AD40547E547AE467002054658
:10100400142406F582E43EF583E4122AD40547E568
:1010140047AE4670020546142406F582E43EF58385
:10102400E4122AD4AD47AC467F077E06129D9E90FB
:101034000294E07002A3E070F690029EE0FF90023A
:101044009DE06F60F49002A2122F5B90029EE0FF7D
:1010540075F0DCA4F58285F083122BEAF54785F060
:1010640046EFB402047F00800690029EE004FF90E5
:10107400029EEFF0E54764017004E5466405600CE8
:0C10840090029EE0FF90029DE0B507B9CD
:10109000900CD2122ED000002328E4FFFEFDFC901D
:1010A0000CD2122EA8D3122DC14017900CD2122EA2
:1010B0009C74FFFBFAF9F8122C6E900CD2122EC41D
:0210C00080D8D6
:1010C200E54764017004E54664056003020DD490AF
:1010D2000014E070030215B0E4F546F547AB49AAE7
:1010E2004AA94B0547E547AE467002054614240659
:1010F200F582E43EF583E4122AD40547E547AE467D
:1011020070020546142406F582E43EF583E4122AB1
:10111200D40547E547AE4670020546142406F5821B
:10112200E43EF583E4122AD40547E547AE46700251
:101132000546142406F582E43EF583E4122AD4051A
:1011420047E547AE4670020546142406F582E43EA2
:10115200F583E4122AD40547E547AE4670020546F8
:10116200142406F582E43EF583E4122AD40547E509
:1011720047AE4670020546142406F582E43EF58326
:10118200E4122AD40547E547AE4670020546142408
:1011920006F582E43EF583E4122AD4AD47AC467FDD
:1011A200167E06129D9E900294E07002A3E070F6F5
:1011B20090029EE0FF90029DE06F60F49002A21206
:1011C2002F5B90029EE0FF75F0DCA4F58285F08330
:1011D200122BEAF54785F046EFB402047F00800641
:1011E20090029EE004FF90029EEFF0E547640170DA
:1011F20004E5466405600C90029EE0FF90029DE0CB
:03120200B507B974
:10120500900CD6122ED000002328E4FFFEFDFC90A2
:101215000CD6122EA8D3122DC14017900CD6122E23
:101225009C74FFFBFAF9F8122C6E900CD6122EC4A2
:0212350080D85F
:10123700E54764017004E546640560030210DAE4DB
:10124700F546F547AB49AA4AA94B0547E547AE46D8
:1012570070020546142406F582E43EF583740512F0
:101267002AD40547E547AE4670020546142406F51D
:1012770082E43EF583E4122AD40547E547AE46707B
:10128700020546142406F582E43EF5837404122A07
:10129700D40547E547AE4670020546142406F58295
:1012A700E43EF5837402122AD4E92406F9E43AFAF3
:1012B700E92547F9EA3546FA122F0150C3000074B1
:1012C700042547F547E43546F546AB49E54B240683
:1012D700F9E4354AFAE92547F9EA3546FA122F01C2
:1012E7000000000074042547F547E43546F546AB92
:1012F70049AA4AA94B0547E547AE46700205461479
:101307002406F582E43EF5837405122AD40547E5E1
:1013170047AE4670020546142406F582E43EF5837F
:10132700E4122AD4E92406F9E43AFAE92547F9EA66
:101337003546FA74FA75F000122C2274022547F527
:1013470047E43546F546AB49E54B2406F9E4354A0B
:10135700FAE92547F9EA3546FA74FA75F000122CCE
:101367002274022547F547E43546F546AB49E54B78
:101377002406F9E4354AFAE92547F9EA3546FA74C5
:101387006475F000122C2274022547F547E43546B0
:10139700F546AB49E54B2406F9E4354AFAE9254712
:1013A700F9EA3546FA742C75F001122C22740225DD
:1013B70047F547E43546F546AB49AA4AA94B0547E1
:1013C700E547AE4670020546142406F582E43EF56D
:1013D70083E4122AD40547E547AE46700205461452
:1013E7002406F582E43EF583E4122AD40547E5474F
:1013F700AE4670020546142406F582E43EF583E402
:10140700122AD40547E547AE46700205461424065E
:10141700F582E43EF583E4122AD40547E547AE4654
:1014270070020546142406F582E43EF583E4122A89
:10143700D40547E547AE4670020546142406F582F3
:10144700E43EF583E4122AD40547E547AE46700229
:101457000546142406F582E43EF583E4122AD405F2
:1014670047E547AE4670020546142406F582E43E7A
:10147700F583E4122AD40547E547AE4670020546D0
:10148700142406F582E43EF583E4122AD40547E5E1
:1014970047AE4670020546142406F582E43EF583FE
:1014A700E4122AD40547E547AE46700205461424E0
:1014B70006F582E43EF583E4122AD40547E547AEF4
:1014C7004670020546142406F582E43EF583E412CD
:1014D7002AD40547E547AE4670020546142406F5AB
:1014E70082E43EF583E4122AD40547E547AE467009
:1014F700020546142406F582E43EF583E4122AD455
:10150700AD47AC467F247E06129D9E900294E07004
:1015170002A3E070F690029EE0FF90029DE06F60EC
:10152700F49002A2122F5B90029EE0FF75F0DCA4FC
:10153700F58285F083122BEAF54785F046EFB40272
:10154700047F00800690029EE004FF90029EEFF069
:10155700E54764017004E5466405600C90029EE06F
:08156700FF90029DE0B507B9F9
:10156F00900CDA122ED000002328E4FFFEFDFC9031
:10157F000CDA122EA8D3122DC14017900CDA122EAE
:10158F009C74FFFBFAF9F8122C6E900CDA122EC431
:02159F0080D8F2
:0F15A100E54764017004E54664056003021246E5
:0115B0002218
:109D8900142406F582E43EF583E4122AD47F01AD5A
:059D990047AC467E0608
:089D9E008E508F518C528D5341
:109DA60090029F122F5B74B5122AC290029F122F47
:109DB6005B9000017462122AD4E550900002122AC8
:109DC600D4E551900003122AD4E553900004122AD8
:109DD600D4E552900005122AD4E4F555F5547F02D5
:109DE600FEE5532406FDE43552FCC3EF9DEE9C5080
:109DF6001C90029F122F5B8F828E83122A6225543B
:109E0600F5542555F5550FBF00010E80D490029FDD
:109E1600122F5BE5532406FFE435528F82F583E566
:109E260054122AD4E5532407FFE435528F82F58372
:109E3600E555122AD47B017A027992E5532408FD6E
:079E4600E43552FC02A4FB0D
:06469E008B318A328933E2
:1046A400900DD1E0700804F01200A6024D18AB3151
:1046B400AA32A933122BBF12301C46CE010249C1C3
:0A46C40001064AA2011200004D1287
:1046CE0074062533F533E43532F532753700753817
:1046DE000075393FE4F53AF53B7831E475F0011297
:1046EE002F4B122A49FF783774FFF5F0122F4BEF3C
:1046FE00122AC2053BE53B7002053A6404453A7046
:10470E00D8AC3CEC3350047F0180027F008F40AF69
:10471E003FAE3EAD3DAC3CEC334002800BAF3FAE06
:10472E003EAD3DAC3C122DB38F3F8E3E8D3D8C3C4D
:10473E00AB34AA35A93690000A122F1B00000000D8
:10474E00E4F53AF53BAB34E536240AF9E43535FAAF
:10475E00C003C002C001122E0EC004C005C006C0A8
:10476E0007E47B0AFAF9F8AF3FAE3EAD3DAC3C1222
:10477E00A7BAAC00AD01AE02AF03C004C005C006BF
:10478E00C007E53BAE3A7802C333CE33CED8F92418
:10479E006DF58274A83EF583122EB4D007D006D0E4
:1047AE0005D004122C89A804A905AA06AB07D007C8
:1047BE00D006D005D004122C6ED001D002D0031238
:1047CE002E5EAF3FAE3EAD3DAC3CE47B0AFAF9F84F
:1047DE0012A7BA8F3F8E3E8D3D8C3C053BE53B705C
:1047EE0002053A640A453A6003024753E5406015F4
:1047FE00AB34AA35A93690000A122E2E122DB39084
:10480E00000A122E7875370075380075393FE4F5B9
:10481E003AF53B7831E475F001122F4B122A49FF1D
:10482E00783774FFF5F0122F4BEF122AC2053BE5D5
:10483E003B7002053A6404453A70D8AC3CEC3350F8
:10484E00047F0180027F008F40AF3FAE3EAD3DAC96
:10485E003CEC334002800BAF3FAE3EAD3DAC3C1264
:10486E002DB38F3F8E3E8D3D8C3CAB34AA35A93691
:10487E00900006122F1B00000000E4F53AF53BAB4A
:10488E0034E5362406F9E43535FAC003C002C0011A
:10489E00122E0EC004C005C006C007E47B0AFAF94A
:1048AE00F8AF3FAE3EAD3DAC3C12A7BAAC00AD0189
:1048BE00AE02AF03C004C005C006C007E53BAE3A6A
:1048CE007802C333CE33CED8F9246DF58274A83E68
:1048DE00F583122EB4D007D006D005D004122C8941
:1048EE00A804A905AA06AB07D007D006D005D004A8
:1048FE00122C6ED001D002D003122E5EAF3FAE3E10
:10490E00AD3DAC3CE47B0AFAF9F812A7BA8F3F8EA4
:10491E003E8D3D8C3C053BE53B7002053A640A45F5
:10492E003A600302488DE5406015AB34AA35A936CE
:10493E00900006122E2E122DB3900006122E7874B1
:10494E00042533F533E43532F5327537007538000A
:10495E0075393FE4F53AF53B7831E475F001122FE5
:10496E004B122A49FF783774FFF5F0122F4BEF12D6
:10497E002AC2053BE53B7002053A6404453A70D8FD
:10498E00AF3FAE3EAD3DAC3CE47BE87A03F9F812A6
:10499E00A7BA8F3F8E3E8D3D8C3CAB34AA35A936DF
:1049AE0090000EEE8FF0122C419002EDE04404F0D8
:1049BE00024D18AB31AA32A93390002F122A62FE93
:1049CE0090002E122A627C002400FFEC3E9002BC66
:1049DE00F0A3EFF0900031122A62900CACF074024A
:1049EE002533F533E43532F532FAA93390000B1244
:1049FE002A62540D640D6008E4900CACF0024A98E3
:104A0E00E5362403F9E43535853437F5388939E44C
:104A1E00F53AF53B7831E475F001122F4B122A4925
:104A2E00FF783774FFF5F0122F4BEF122AC2053BB9
:104A3E00E53B7002053A6404453A70D87404253398
:104A4E00F533E43532F532E5362404F9E43535FA3A
:104A5E00E92401F9E43A853437F5388939E4F53A31
:104A6E00F53B7831E475F001122F4B122A49FF788D
:104A7E003774FFF5F0122F4BEF122AC2053BE53BC0
:104A8E007002053A6402453A70D89002EDE0440295
:044A9E00F0024D18BD
:104AA20074062533F533E43532F532AB31FAA933E6
:104AB200122E0E8F3F8E3E8D3D8C3C7808122DE8D3
:104AC200E4FFE4FDFCC004C005C006C007AF3FAE72
:104AD2003EAD3DAC3C7818122DE8E4FEFDFCD0035F
:104AE200D002D001D000122DA6C004C005C006C05D
:104AF20007AF3FAE3EAD3DAC3C7808122DFBE4FF64
:104B0200FEE4FCD003D002D001D000122DA6C004D6
:104B1200C005C006C007AF3FAE3EAD3DAC3C781805
:104B2200122DFBE4FFFEFDECD003D002D001D00039
:104B3200122DA68F3F8E3E8D3D8C3CE47B64FAF9AC
:104B4200F812A7BA8F3F8E3E8D3D8C3C8E428F432A
:104B520074042533F533E43532F532AB31FAA93337
:104B6200122E0E8F3F8E3E8D3D8C3C7808122DE822
:104B7200E4FFE4FDFCC004C005C006C007AF3FAEC1
:104B82003EAD3DAC3C7818122DE8E4FEFDFCD003AE
:104B9200D002D001D000122DA6C004C005C006C0AC
:104BA20007AF3FAE3EAD3DAC3C7808122DFBE4FFB3
:104BB200FEE4FCD003D002D001D000122DA6C00426
:104BC200C005C006C007AF3FAE3EAD3DAC3C781855
:104BD200122DFBE4FFFEFDECD003D002D001D00089
:104BE200122DA68F3F8E3E8D3D8C3CE47B64FAF9FC
:104BF200F812A7BA8F3F8E3E8D3D8C3C8E408F417E
:104C020074042533F533E43532F532AB31FAA93386
:104C1200122E0E8F3F8E3E8D3D8C3C7808122DE871
:104C2200E4FFE4FDFCC004C005C006C007AF3FAE10
:104C32003EAD3DAC3C7818122DE8E4FEFDFCD003FD
:104C4200D002D001D000122DA6C004C005C006C0FB
:104C520007AF3FAE3EAD3DAC3C7808122DFBE4FF02
:104C6200FEE4FCD003D002D001D000122DA6C00475
:104C7200C005C006C007AF3FAE3EAD3DAC3C7818A4
:104C8200122DFBE4FFFEFDECD003D002D001D000D8
:104C9200122DA68F3F8E3E8D3D8C3CE47B64FAF94B
:104CA200F812A7BA8F3F8E3E8D3D8C3CC3E49FF530
:104CB20045E49EF544E5405407FEE47803CEC31371
:104CC200CE13D8F9AB34AA35A936900010122AD4E3
:104CD200E5425407FEE47806CEC313CE13D8F9900A
:104CE2000010122A8FE5445403900010122A8FE517
:104CF20041900011122AD4E543900012122AD4E501
:0E4D020045900013122AD49002EDE04401F017
:104D10008006753A00753B019002EDE06407600380
:104D2000024ED4F0900CACE06003024E4F900000B5
:104D3000E075F015A424C1F9740235F0FA7B01A8DE
:104D400036AC35AD347E007F15122A23AB34AA353C
:104D5000A936122E0EEF24FAFFE43EFEE43DFDE4F8
:104D60003CFC122E5E900000E0640175F015A42456
:104D7000C1F582E43402F583122E9CE4FBFAF9F8C3
:104D8000C3122DD77003024E4FAB34E5362406F91B
:104D9000E43535FAC003C002C001122E0EC004C0B3
:104DA00005C006C007900000E0FF640175F015A47F
:104DB00024C7F582E43402F583122EA8EF75F015AE
:104DC000A424C7F582E43402F583122E9C122C7BB6
:104DD000A804A905AA06AB07D007D006D005D004C1
:104DE000122C6ED001D002D003122E5EAB34E53609
:104DF000240AF9E43535FAC003C002C001122E0EB0
:104E0000C004C005C006C007900000E0FF64017543
:104E1000F015A424CBF582E43402F583122EA8EF1A
:104E200075F015A424CBF582E43402F583122E9C90
:104E3000122C7BA804A905AA06AB07D007D006D080
:104E400005D004122C6ED001D002D003122E5E9039
:104E50000000E06401F0E075F015A424C1F97402CB
:104E600035F0A801FC7D01AB34AA35A9367E007F60
:104E700015122A23908891E493FF3395E0FE900267
:104E80008C75F013EF122F3FEE75F013A42583F508
:104E900083122F5BE92407F9E43A8B37F538893917
:104EA000900CACE0FF7837E475F001122F4BEF1255
:104EB0002AC2A839AC38AD37AB34AA35A9367E0042
:104EC0007F15122A23754C00754D167B227D037FBA
:044ED000021290DC5E
:014ED40022BB
:10A8ED00EF6004D2B18002C2B1E4FF0FBF14FCC20D
:10A8FD00B2E4FF0FBF14FCE4FEB2B1E4FF0FBF14CE
:07A90D00FC0EBE85F4D2B27E
:01A914002220
:10A93C00AF84E4F58475C00475CFF175C30243C0D0
:08A94C0040C2C343E6028F8400
:01A9540022E0
:03003B0002947DAF
:10947D00C0E0C083C082C0D075D000C000C001C0A4
:07948D0002C003C006C00786
:10949400C200AFC1EF122FF694E20894E21094FFD9
:1094A4001895342094FF28953430959838953E408B
:1094B400953948954F50957958959C60959C709531
:1094C400A58095D38895A59095D3989610A095D707
:1094D400A895D9B895F6C09610C800009598900044
:1094E4003DE0F5C253C2FEA20CE43342C2C2C590B1
:1094F400003FE4F090003EF0029610900040E0FF40
:1095040090003EE0FED39F5020EE24FFFFE434FFA2
:10951400FE900041122F5B8F828E83122A62F5C265
:1095240090003EE004F0029610D2C4C20B029610E2
:10953400D2C5029610D2C502961090003FE0B41036
:1095440005C2C2029610D2C202961090003FE0C338
:109554009410501C900044122F5B90003FE0FF04D5
:10956400F08F82758300E5C2122AD4D2C20296100B
:10957400C2C2029610900044122F5B90003FE0FF9D
:1095840004F08F82758300E5C2122AD4D2C4C20BC0
:10959400D2C28078D200807490003EE4F0A3F080C0
:1095A4006B900044122F5B90003FE0FF04F08F8229
:1095B400758300E5C2122AD4900040E0FF90003F7A
:1095C400E0C39F40069000477401F0D2C2803DD2B0
:1095D400C28039800990003EE0D39410502E900050
:1095E40041122F5B90003EE0FF04F08F82758300F0
:1095F400801590003EE024FFFFE434FFFE9000411C
:10960400122F5B8F828E83122A62F5C230001053B0
:10961400C0BF43C040C2C5C2C4C2C2C20BC200C2A2
:01962400C382
:10962500D007D006D003D002D001D000D0D0D08250
:05963500D083D0E032FB
:10A95500AF84E4F584200BFDD20BC20CD2C58F84E5
:01A9650022CF
:10002600AF84E4F584200BFDD20BD20CD2C5200B95
:03003600FD8F84B7
:0100390022A4
:1023D60002279CE86480F8E933E83360110460F072
:1023E600ED33EC337009E8FCE9FDEAFEEBFF22046D
:1023F60060DED3EB9FEA9EE99DE8C2E78CF0C2F768
:1024060095F0400CE8CCF8E9CDF9EACEFAEBCFFB33
:1024160012276785D0F05804700320D5B3E80470FE
:10242600075002B2D50227A692D5EC0460F7E4CC99
:10243600C0E0C398F8603B94186008400DD0E0FBFC
:1024460002277EE4FBFAC9FC8028E830E406E4C9EA
:10245600FBE4CAFCE830E305E4C9CACBFCE8540750
:102466006010F8C3E913F9EA13FAEB13FBEC13FC5B
:10247600D8F130F52FC3E49CFCEF9BFFEE9AFEEDFE
:1024860099FDD0E0FBEF4E4D4C701222DB03022784
:10249600A3EC2CFCEF33FFEE33FEED33FDED30E71E
:1024A600EB02277EEF2BFFEE3AFEED39FDD0E0FB87
:1024B60050130BBB00030227A6ED13FDEE13FEEF30
:0824C60013FFEC13FC02277E5A
:1024CE00EC4D6011E8497017ED33EC3304600DE408
:1024DE00FCFFFEFD22E933E8330470F802279C125C
:1024EE00276758046009E4CC24815006285009025D
:1024FE0027A62840030227A3C0E0EB4A7044B98008
:10250E0006D0E0FB022792EF4E701CBD8008EBFF59
:10251E00EAFEE9FD80EBE98DF0A4FEE5F00225B7B9
:10252E00E9CDF9EAFEEBFFEF89F0A4FCE5F0CE89E8
:10253E00F0A42EFFE435F0CD89F0A42DFEE435F0A5
:10254E008067EF4E7005BD80D780C3EF8BF0A4ACD3
:10255E00F0EE8BF0A42CFCE435F0F8EF8AF0A42C0E
:10256E00E5F038FCE433CB8DF0A42CFCE5F03BF821
:10257E00EE8AF0A42CFCE5F038F8E433CF89F0A411
:10258E002CFCE5F038CF3400CE89F0A42FFFE5F017
:10259E003EFEE433C98DF0A42EFEE5F039CD8AF06F
:1025AE00A42FFFE5F03EFEE43DFD33D0E0FB5007E7
:1025BE000BBB000F0227A6EC2CFCEF33FFEE33FE15
:0625CE00ED33FD02277E43
:1025D4000227A6EC5D046005E85904700302279CF9
:1025E400122767580460F6EC4860F2EC7004FDFEB4
:1025F400FF22C860DB2481C85009C39860025006DA
:102604000227A39850CAF582E9294B4A7005AB8288
:1026140002279275F0007C1A7880C3EF9BEE9AED46
:1026240099400DC3EF9BFFEE9AFEED99FDE842F051
:10263400DC23ACF0D0E0FFD0E0FED0E0FDAB8220A4
:10264400E7101BEB60BAEC2CFCEF33FFEE33FEED2E
:1026540033FD02277EE803F830E705C0F075F0008B
:10266400EF2FFFEE33FEED33FD40B830E7C280AA12
:1026740074F8CC6480CCC86480C8F582046043C319
:10268400EB9FF5F0EA9E42F0E99D42F0E89C45F0AC
:1026940060305018E5825FFFE582F42B5582FB50D1
:1026A400210ABA001D09B90019088016E5825BFBEE
:1026B400E582F42F5582FF50090EBE00050DBD00C2
:1026C400010CC3EB9FF5F0EA9E42F0E99D42F0E86D
:0D26D4009C45F06007CC4820E701B3EC22E4
:1026E100ED33EC33600A047003BD8004ECB2E7FC07
:0126F10022C6
:1026F20075F020800E75F010800575F0087D007E63
:10270200007F003392D530D503122DB3EC33401045
:10271200EF33FFEE33FEED33FDEC33FCD5F0ED226B
:0E272200E5F0247EA2D513CC92E7CDCEFF22A7
:10273000EDD2E7CD33EC3392D524814006E4FFFEA1
:10274000FDFC22FCE4CFCECDCC24E0501174FF8000
:10275000EDC3CC13CCCD13CDCE13CECF13CF04709D
:07276000F030D5DE022DB3BD
:10606D00E560244CF8E60560227849300902784C49
:10607D00E475F001122F4B022A492002EB7F2ED23C
:10608D00028018EF540F2490D43440D4FF30060B07
:10609D00EF24BFB41A0050032461FFE561600215BF
:1060AD00610564E5647002056330090D7849E47596
:1060BD00F001122F4BEF022AC202A9157403D20967
:1060CD008003E4C209F5608B498A4A894BE4F56186
:1060DD00F563F564E56160077F201260A880F575B2
:1060ED0062FFC203C202C204C205C207C208C20ACD
:1060FD00126076FF700D3009057F001260B9AF6434
:10610D00AE6322B4255FC2D5C206126076FF24D0DD
:10611D00B40A00501A75F00A786130D50508B6FF3B
:10612D000106C6A426F620D5047002D20580D92416
:10613D00CFB41A00EF5004C2E5D2060263A6D20313
:10614D0080C6D20280C0D20480BCD2D580BAD2071C
:10615D0080B47F201260A82004077401B56100404F
:10616D00F112606DFF1260A80260E1D20AD20880C0
:10617D009512606DFB12606DFA12606DF94A4B70ED
:10618D0006799D7A647BFF20042EE561602A7E00EE
:10619D008E82758300122A6260060EEE656270F0C3
:1061AD00C2D5EBC0E0EAC0E0E9C0E0EE126406D073
:1061BD00E0F9D0E0FAD0E0FB122A49FF60AAEBC06B
:1061CD00E0EAC0E0E9C0E01260A8D0E02401F9D017
:1061DD00E03400FAD0E0FBE5620460DCD562D980E2
:1061ED0087D20480A21263E960F7E56270010412A0
:1061FD0027B1A962600DE562600914F56212649021
:10620D00EF60F3EA30E702F404C3995077EAF4251E
:10621D00620430E701E404F562800D1263E960C1A8
:10622D00EA056225621227B1EA785FF630E701E4EC
:10623D00256204D5620420070114126406E4C0E04F
:10624D00126490785FE6601320E70714F6126090F1
:10625D00802204F6D0E014C0E07F00126090E56269
:10626D0060071260871562800B300703126087D0BC
:10627D00E00260E1D0E00480C51263E960A0E56250
:10628D00041227B1785FEAF6E56220070260010487
:05629D00240412640658
:1062A20074FF04C0E0126490126090E5622007025D
:1062B2006003126087D0E0B562E87F4512609A7889
:1062C2005FE67F2B30E7047F2DF404C0E01260A864
:1062D200D0E075F00A84C0F0126091D0E0126091B3
:1062E2000260E1791080027908C208C20A8008D2ED
:1062F200D5790A8004790AC2D5E562047002F56292
:10630200E4FAFDFEFF12606DFC7B082003131260AD
:106312006DFD7B1030020A12606DFE12606DFF7B14
:1063220020EC3382D592D55013C3E43002069FFF8E
:10633200E49EFEE42003039DFDE49CFCE4CBF8C252
:1063420003EC700CCFCECDCCE824F8F870F38017B4
:10635200C3EF33FFEE33FEED33FDEC33FCEB33FBE7
:10636200994002FB0FD8E9EB300305F8D0E0C448AE
:10637200B203C0E00AEC4D4E4F78207B0070C2EAB7
:10638200B5620040BCC0E0126408D0F0D0E0200347
:1063920004C4C0E0C4B203C0F0126091D0F0D5F0E2
:1063A200EB0260E1122FF6617E5362E558614F4CB9
:1063B200614B4262E94F62F14462F14961644362B6
:1063C200F75562284662864561F24764BD506153C3
:1063D2002D61572E617A2B615B2361782064A62A96
:1063E20061134800006172E562B4FF037562061230
:1063F200606DFC12606DFD12606DFE12606DFF78C3
:10640200580227E0790AA2D5200514300709B910ED
:10641200020404B9080104A2D52008025001042094
:1064220004689204B561005034C0E07F2030051941
:106432007F30A20472087207500F12645FC204C256
:1064420008C207C20A7F30800F300703E9C0E0129A
:1064520060A8300703D0E0F9D0E0B561CC3007176F
:106462007F30B9100C1260A87F583006077F788001
:1064720003B908031260A83004057F2D0260A87FCB
:1064820020200AF87F2B2008F322920480CF7F007D
:10649200B4070050052458F8E6FF22286E756C6C8C
:1064A2002900D20312606D3003F8C203786130D53F
:1064B2000108F60261132D5043495812606D2403FE
:1064C200B405004001E49064B893126099743A12E2
:0A64D2006099D2057561040262E5CD
:10276700E9D2E7C933E833F892D5EDD2E7CD33ECB8
:0727770033FC5002B2D52231
:10277E00EC30E7100FBF000C0EBE00080DBD0004BC
:10278E000BEB6014A2D5EB13FCED92E7FD2274FF68
:10279E00FCFDFEFF22E480F8A2D574FF13FC7D80C1
:0327AE00E480EFD5
:1027B100F920E72824F950037907E4F42402FB18EF
:1027C100DBFDE624FB5014E9600DE4F618E604F69F
:0F27D100B40A08E4F6D9F57401F60A22C2D5223B
:1027E000ED33EC3392D5FA602AB4FF33EDC2E77BC8
:1027F000FF60067A287905E4227A28790E20D5042C
:102800007A287909224E614E002B494E46002D4907
:102810004E4600E47A08F608DAFC7B00740722E8EA
:10282000C0E0ECC0E0EDC0E0EEC0E0EFC0E0EA7573
:10283000F010A4CAABF075F04DA42BFBE435F0FC0E
:10284000EA2410FAEB34C5FBEC34D9FCEDC2E7FF07
:1028500075F056A4F42411C5F0F434C58FF0A42A01
:10286000E5F03BE43CF620E714122913D0E0FFD05A
:10287000E0FED0E0FDD0E0FC1225D78014F4041275
:102880002913D0E0FFD0E0FED0E0FDD0E0FC122420
:10289000CED0E0F8E6FAEDD2E7CD33EC332482FB7C
:1028A000E4C3CF33CFCE33CECD33CD33DBF37B0791
:1028B00075F00A846004F6081B0AE5F0F6088FF04C
:1028C000740AA4FFACF08EF0740AA42CFEACF05095
:1028D000010C8DF0740AA42CFDE435F0F608DBDE63
:0328E00074072258
:1028E3003F8000004120000042C80000447A0000FD
:1028F300461C400047C35000497424004B1896807F
:102903004CBEBC205A0E1BCA6753C21C749DC5AE75
:10291300FB60065407601C2323122941EB543860E3
:102923000912292D12293C1224CEECF8EDF9EEFA06
:10293300EFCB22EB12293C80F1543803241C90285E
:10294300E3FE93FC0EEE93FD0EEE930ECE93FF2269
:0300000002A0DA81
:0CA0DA00787FE4F6D8FD75817502A121A5
:10295300E709F608DFFA8046E709F208DFFA803E66
:1029630088828C83E709F0A3DFFA8032E309F60853
:10297300DFFA8078E309F208DFFA807088828C83BB
:10298300E309F0A3DFFA806489828A83E0A3F6086F
:10299300DFFA805889828A83E0A3F208DFFA804C49
:1029A30080D280FA80C680D4806980F28033801020
:1029B30080A680EA809A80A880DA80E280CA803389
:1029C30089828A83ECFAE493A3C8C582C8CCC58301
:1029D300CCF0A3C8C582C8CCC583CCDFE9DEE780D1
:1029E3000D89828A83E493A3F608DFF9ECFAA9F050
:1029F300EDFB2289828A83ECFAE0A3C8C582C8CCA6
:102A0300C583CCF0A3C8C582C8CCC583CCDFEADEBE
:102A1300E880DB89828A83E493A3F208DFF980CC20
:102A230088F0EF60010E4E60C388F0ED2402B40419
:102A33000050B9F582EB2402B4040050AF232345C0
:062A430082239029A37319
:102A4900BB010689828A83E0225002E722BBFE028B
:092A5900E32289828A83E49322BE
:102A6200BB010CE58229F582E5833AF583E0225029
:102A720006E92582F8E622BBFE06E92582F8E22273
:0D2A8200E58229F582E5833AF583E493228D
:102A8F00BB010FF8E58229F582E5833AF583E0284B
:102A9F00F0225009C58229F8E58226F622BBFE09ED
:102AAF00C58229F8E22582F222F8EA2583F583E927
:032ABF0093282237
:102AC200BB010689828A83F0225002F722BBFE01F3
:022AD200F322ED
:102AD400F8BB010DE58229F582E5833AF583E8F038
:102AE400225006E92582C8F622BBFE05E92582C8E4
:022AF400F222CC
:102AF600EF8DF0A4A8F0CF8CF0A428CE8DF0A42EF4
:022B0600FE22AD
:102B0800BC000BBE0029EF8DF084FFADF022E4CCB1
:102B1800F875F008EF2FFFEE33FEEC33FCEE9DEC7A
:102B2800984005FCEE9DFE0FD5F0E9E4CEFD22EDC0
:102B3800F8F5F0EE8420D21CFEADF075F008EF2F0A
:102B4800FFED33FD4007985006D5F0F222C398FDFB
:052B58000FD5F0EA2298
:102B5D00C2D5EC30E709B2D5E4C39DFDE49CFCEE93
:102B6D0030E715B2D5E4C39FFFE49EFE122B08C3D8
:102B7D00E49DFDE49CFC8003122B0830D507C3E4D3
:062B8D009FFFE49EFE2202
:102B9300C5F0F8A3E028F0C5F0F8E58215827002CD
:062BA3001583E038F0226A
:102BA900A3F8E0C5F025F0F0E582158270021583DF
:062BB900E0C838F0E8223C
:102BBF00BB010A89828A83E0F5F0A3E022500687E1
:102BCF00F009E71922BBFE07E3F5F009E3192289A3
:0B2BDF00828A83E493F5F074019322D6
:102BEA00BB0110E58229F582E5833AF583E0F5F029
:102BFA00A3E0225009E92582F886F008E622BBFE06
:102C0A000AE92582F8E2F5F008E222E5832AF5834B
:082C1A00E993F5F0A3E9932210
:102C2200BB010A89828A83F0E5F0A3F0225006F7FD
:0F2C320009A7F01922BBFE06F3E5F009F31922FA
:102C4100F8BB0111E58229F582E5833AF583E8F0C5
:102C5100E5F0A3F0225009E92582C8F608A6F02282
:0D2C6100BBFE09E92582C8F2E5F008F22269
:0D2C6E00EF2BFFEE3AFEED39FDEC38FC22B5
:0E2C7B00C3EF9BFFEE9AFEED99FDEC98FC2254
:102C8900E88FF0A4CC8BF0A42CFCE98EF0A42CFCEA
:102C99008AF0EDA42CFCEA8EF0A4CDA8F08BF0A468
:102CA9002DCC3825F0FDE98FF0A42CCD35F0FCEBC7
:102CB9008EF0A4FEA9F0EB8FF0A4CFC5F02ECD398C
:0F2CC900FEE43CFCEAA42DCE35F0FDE43CFC22F9
:102CD80075F008758200EF2FFFEE33FECD33CDCCB3
:102CE80033CCC58233C5829BED9AEC99E582984036
:102CF8000CF582EE9BFEED9AFDEC99FC0FD5F0D613
:102D0800E4CEFBE4CDFAE4CCF9A88222B800C1B93C
:102D18000059BA002DEC8BF084CFCECDFCE5F0CB7A
:102D2800F97818EF2FFFEE33FEED33FDEC33FCEBB3
:102D380033FB10D703994004EB99FB0FD8E5E4F96E
:102D4800FA227818EF2FFFEE33FEED33FDEC33FC5B
:102D5800C933C910D7059BE99A4007EC9BFCE99A4F
:102D6800F90FD8E0E4C9FAE4CCFB2275F010EF2F94
:102D7800FFEE33FEED33FDCC33CCC833C810D70794
:102D88009BEC9AE899400AED9BFDEC9AFCE899F8CF
:0E2D98000FD5F0DAE4CDFBE4CCFAE4C8F92262
:10A7BA00C2D5E830E70FB2D5E4C39BFBE49AFAE4CA
:10A7CA0099F9E498F8EC30E717B2D512A7F0122DF0
:10A7DA0014E4C39BFBE49AFAE499F9E498F8800339
:10A7EA00122D1430D50DE4C39FFFE49EFEE49DFDB7
:04A7FA00E49CFC22BD
:0D2DA600EF4BFFEE4AFEED49FDEC48FC222C
:0E2DB300C3E49FFFE49EFEE49DFDE49CFC2231
:102DC100EB9FF5F0EA9E42F0E99D42F0EC6480C889
:062DD10064809845F02229
:102DD700EB9FF5F0EA9E42F0E99D42F0E89C45F052
:012DE70022C9
:102DE800E8600FECC313FCED13FDEE13FEEF13FFC9
:032DF800D8F122ED
:102DFB00E8600FEFC333FFEE33FEED33FDEC33FC36
:032E0B00D8F122D9
:102E0E00BB010789828A83022E9C5005E9F80230A5
:102E1E004FBBFE05E9F802305B89828A8302306778
:102E2E00BB010DE58229F582E5833AF583022E9CDE
:102E3E005007E92582F802304FBBFE07E92582F8DC
:102E4E0002305BE58229F582E5833AF5830230672D
:102E5E00BB010789828A83022EC45005E9F802302D
:0A2E6E0077BBFE05E9F8023083226D
:102E7800BB010DE58229F582E5833AF583022EC46C
:102E88005007E92582F8023077BBFE07E92582F86A
:042E9800023083225F
:0C2E9C00E0FCA3E0FDA3E0FEA3E0FF22A9
:0C2EA800E0F8A3E0F9A3E0FAA3E0FB22AD
:102EB400E493F8740193F9740293FA740393FB2274
:0C2EC400ECF0A3EDF0A3EEF0A3EFF02281
:102ED000A8828583F0D083D082122EE7122EE712CB
:102EE0002EE7122EE7E473E493A3C583C5F0C583F0
:102EF000C8C582C8F0A3C583C5F0C583C8C582C84C
:012F000022AE
:102F0100BB010789828A83022ED05005E9F802307D
:0A2F11008FBBFE05E9F80230A8228C
:102F1B00BB010DE58229F582E5833AF583022ED0BC
:102F2B005007E92582F802308FBBFE07E92582F8AE
:042F3B000230A82296
:0C2F3F00A42582F582E5F03583F583229D
:102F4B00FAE6FB0808E6F925F0F618E6CA3AF62287
:092F5B00E0FBA3E0FAA3E0F92277
:092F6400EBF0A3EAF0A3E9F0226E
:102F6D00BB010DE58229F582E5833AF583022F5BDE
:102F7D005007E92582F80230C1BBFE07E92582F82A
:102F8D000230D3E58229F582E5833AF5830230E5F7
:102F9D00BB0120E58229F582E5833AF583D0F0D097
:102FAD00E0F8D0E0F9D0E0FAD0E0FBE8C0E0C0F006
:102FBD00022F645018E92582F8D083D082D0E0F931
:102FCD00D0E0FAD0E0FBC082C0830230CABBFE184D
:102FDD00E92582F8D083D082D0E0F9D0E0FAD0E0B4
:092FED00FBC082C0830230DC222B
:102FF600D083D082F8E4937012740193700DA3A36A
:1030060093F8740193F5828883E47374029368607D
:06301600EFA3A3A380DF7D
:10301C00D083D082F8E4937012740193700DA3A343
:10302C0093F8740193F5828883E473740293B5F07A
:0D303C00067403936860E9A3A3A3A380D8E2
:063049008A838982E47312
:10A91500EFB40A07740D12A920740A309811A8998A
:10A92500B8130CC2983098FDA899C298B811F630A2
:07A9350099FDC299F599227A
:0FA96600EFC394204007EF947F50028001C3227B
:10000E00E4FFFE122A49600C0FEF70010E09E97031
:05001E00F20A80EF2250
:10A0E6000230F1E493A3F8E493A34003F68001F26F
:10A0F60008DFF48029E493A3F85407240CC8C3337B
:10A10600C4540F4420C8834004F456800146F6DF49
:10A11600E4800B0102040810204080909CC0E47E7D
:10A12600019360BCA3FF543F30E509541FFEE4933E
:10A13600A360010ECF54C025E060A840B8E493A305
:10A14600FAE493A3F8E493A3C8C582C8CAC583CA30
:10A15600F0A3C8C582C8CAC583CADFE9DEE780BEE8
:019D880000DA
:0C304F00E6FC08E6FD08E6FE08E6FF22AD
:0C305B00E2FC08E2FD08E2FE08E2FF22B1
:10306700E493FC740193FD740293FE740393FF22AF
:0C307700ECF608EDF608EEF608EFF62285
:0C308300ECF208EDF208EEF208EFF22289
:10308F00D083D082E493F608740193F60874029308
:09309F00F608740393F67404733F
:1030A800D083D082E493F208740193F208740293F7
:0930B800F208740393F27404732E
:0930C100E6FB08E6FA08E6F92234
:0930CA00EBF608EAF608E9F6222B
:0930D300E2FB08E2FA08E2F9222E
:0930DC00EBF208EAF208E9F22225
:0C30E500E493FB740193FA740293F92247
:00000001FF
