BL51 BANKED LINKER/LOCATER V6.22                                                        11/30/2014  18:01:41  PAGE 1


BL51 BANKED LINKER/LOCATER V6.22, INVOKED BY:
C:\KEIL\C51\BIN\BL51.EXE display.obj, displayunit.obj, formatgps.obj, menu.obj, timer.obj, .\crc.obj, .\cygfx120.obj, .\
>> cygnalflash.obj, .\dataflash.obj, .\factorytest.obj, .\message.obj, .\roadblock.obj, .\session.obj, .\fdlold.obj TO D
>> isplayUnit NOLINES IXREF RAMSIZE (256) DISABLEWARNING (13) RECURSIONS (32) CODE (ROADBLOCK (0XFDFE), ?PR?*FDL (0XFE02
>> ))




PROGRAM RECURSIONS REMOVED FROM CALL TREE
=========================================
+--> ?CO?DISPLAYUNIT
|  | ?PR?_SHOWLAPS?MENU
<--+ ?PR?MENU


+--> ?CO?DISPLAYUNIT
|  | ?PR?_SHOWLAPS?MENU
<--+ ?PR?_INFO_SCREEN?DISPLAY


+--> ?CO?DISPLAYUNIT
|  | ?PR?_SHOWLAPS?MENU
|  | ?PR?_INFO_SCREEN?DISPLAY
|  | ?PR?_WRITE_SCREEN?DISPLAY
<--+ ?PR?DISPLAY


+--> ?CO?DISPLAYUNIT
|  | ?PR?_SHOWLAPS?MENU
|  | ?PR?_UPLAP?MENU
|  | ?PR?WRITE_TIMER?TIMER
<--+ ?PR?TIMER


+--> ?CO?DISPLAYUNIT
|  | ?PR?_SHOWLAPS?MENU
|  | ?PR?_UPLAP?MENU
|  | ?PR?WRITE_LAP?TIMER
<--+ ?PR?_WRITE_MED_TEXT?DISPLAY


+--> ?CO?DISPLAYUNIT
|  | ?PR?_SHOWLAPS?MENU
|  | ?PR?_UPLAP?MENU
<--+ ?PR?_WRITE_FLAG?TIMER


+--> ?CO?DISPLAYUNIT
<--+ ?PR?_SHOWLAPS?MENU


+--> ?CO?DISPLAYUNIT
|  | ?PR?_ERASESESS?MENU
|  | ?PR?SESSION_INIT?MENU
|  | ?PR?_FORMATTIME?FORMATGPS
<--+ ?PR?FORMATGPS

BL51 BANKED LINKER/LOCATER V6.22                                                      11/30/2014  18:01:41  PAGE 2



+--> ?PR?SESSION_INIT?MENU
|  | ?PR?_SESSTITLE?MENU
<--+ ?PR?_REVIEW?MENU


+--> ?CO?DISPLAYUNIT
|  | ?PR?_SAVEAUTOON?MENU
<--+ ?PR?_SENDMESSAGE?MESSAGE


+--> ?CO?DISPLAYUNIT
|  | ?PR?_SAVEAUTOON?MENU
|  | ?PR?_SENDMESSAGE?MESSAGE
<--+ ?PR?MESSAGE


+--> ?CO?DISPLAYUNIT
|  | ?PR?_SAVEAUTOON?MENU
|  | ?PR?_SENDMESSAGE?MESSAGE
<--+ ?PR?_CRC16?CRC


+--> ?CO?DISPLAYUNIT
|  | ?PR?_COLLECTDATA?MENU
|  | ?PR?_MARKSTART?MENU
|  | ?PR?_LAP_CHECK?TIMER
<--+ ?PR?_WRITE_QUAL?TIMER


+--> ?CO?DISPLAYUNIT
|  | ?PR?_COLLECTDATA?MENU
|  | ?PR?_MARKSTART?MENU
|  | ?PR?_LAP_CHECK?TIMER
|  | ?PR?_DISPLAYDRAGNUMS?MENU
<--+ ?PR?_WRITE_TEXT?DISPLAY


+--> ?PR?_LAP_CHECK?TIMER
<--+ ?PR?_MARKFINISH?MENU


+--> ?CO?DISPLAYUNIT
|  | ?PR?_COLLECTDATA?MENU
|  | ?PR?_MARKSTART?MENU
<--+ ?PR?_LAP_CHECK?TIMER


+--> ?PR?_CLEARMENU?MENU
<--+ ?PR?_DONTCLEAR?MENU


+--> ?CO?DISPLAYUNIT
|  | ?PR?_COLLECTDATA?MENU
<--+ ?PR?_STAGE?MENU


BL51 BANKED LINKER/LOCATER V6.22                                                      11/30/2014  18:01:41  PAGE 3


+--> ?CO?DISPLAYUNIT
<--+ ?PR?_COLLECTDATA?MENU



MEMORY MODEL: SMALL WITH FLOATING POINT ARITHMETIC


INPUT MODULES INCLUDED:
  display.obj (DISPLAY)
  displayunit.obj (DISPLAYUNIT)
  formatgps.obj (FORMATGPS)
  menu.obj (MENU)
  timer.obj (TIMER)
  .\crc.obj (CRC)
  .\cygfx120.obj (CYGFX120)
  .\cygnalflash.obj (CYGNALFLASH)
  .\dataflash.obj (DATAFLASH)
  .\factorytest.obj (FACTORYTEST)
  .\message.obj (MESSAGE)
  .\roadblock.obj (ROADBLOCK)
  .\session.obj (SESSION)
  .\fdlold.obj (FDL)
  C:\KEIL\C51\LIB\C51FPS.LIB (?C?FPADD)
  C:\KEIL\C51\LIB\C51FPS.LIB (?C?FPMUL)
  C:\KEIL\C51\LIB\C51FPS.LIB (?C?FPDIV)
  C:\KEIL\C51\LIB\C51FPS.LIB (?C?FPCMP)
  C:\KEIL\C51\LIB\C51FPS.LIB (?C?FPNEG)
  C:\KEIL\C51\LIB\C51FPS.LIB (?C?FCAST)
  C:\KEIL\C51\LIB\C51FPS.LIB (?C?CASTF)
  C:\KEIL\C51\LIB\C51FPS.LIB (PRINTF)
  C:\KEIL\C51\LIB\C51FPS.LIB (SQRT)
  C:\KEIL\C51\LIB\C51FPS.LIB (ATAN2)
  C:\KEIL\C51\LIB\C51FPS.LIB (SIN)
  C:\KEIL\C51\LIB\C51FPS.LIB (?C?FPGETOPN)
  C:\KEIL\C51\LIB\C51FPS.LIB (?C?FPROUND)
  C:\KEIL\C51\LIB\C51FPS.LIB (?C?FPCONVERT)
  C:\KEIL\C51\LIB\C51FPS.LIB (?C?FPSERIES)
  C:\KEIL\C51\LIB\C51FPS.LIB (ATAN)
  C:\KEIL\C51\LIB\C51FPS.LIB (?C?FTNPWR)
  C:\KEIL\C51\LIB\C51S.LIB (?C_STARTUP)
  C:\KEIL\C51\LIB\C51S.LIB (?C?COPY)
  C:\KEIL\C51\LIB\C51S.LIB (?C?CLDPTR)
  C:\KEIL\C51\LIB\C51S.LIB (?C?CLDOPTR)
  C:\KEIL\C51\LIB\C51S.LIB (?C?CILDOPTR)
  C:\KEIL\C51\LIB\C51S.LIB (?C?CSTPTR)
  C:\KEIL\C51\LIB\C51S.LIB (?C?CSTOPTR)
  C:\KEIL\C51\LIB\C51S.LIB (?C?UIDIV)
  C:\KEIL\C51\LIB\C51S.LIB (?C?SIDIV)
  C:\KEIL\C51\LIB\C51S.LIB (?C?IILDX)
  C:\KEIL\C51\LIB\C51S.LIB (?C?ILDIX)
  C:\KEIL\C51\LIB\C51S.LIB (?C?ILDPTR)
  C:\KEIL\C51\LIB\C51S.LIB (?C?ILDOPTR)
  C:\KEIL\C51\LIB\C51S.LIB (?C?IILDPTR)
  C:\KEIL\C51\LIB\C51S.LIB (?C?ISTPTR)
  C:\KEIL\C51\LIB\C51S.LIB (?C?ISTOPTR)
  C:\KEIL\C51\LIB\C51S.LIB (?C?LADD)
BL51 BANKED LINKER/LOCATER V6.22                                                      11/30/2014  18:01:41  PAGE 4


  C:\KEIL\C51\LIB\C51S.LIB (?C?LSUB)
  C:\KEIL\C51\LIB\C51S.LIB (?C?ULDIV)
  C:\KEIL\C51\LIB\C51S.LIB (?C?SLDIV)
  C:\KEIL\C51\LIB\C51S.LIB (?C?LNEG)
  C:\KEIL\C51\LIB\C51S.LIB (?C?SLCMP)
  C:\KEIL\C51\LIB\C51S.LIB (?C?ULCMP)
  C:\KEIL\C51\LIB\C51S.LIB (?C?LLDPTR)
  C:\KEIL\C51\LIB\C51S.LIB (?C?LLDOPTR)
  C:\KEIL\C51\LIB\C51S.LIB (?C?LLDXDATA)
  C:\KEIL\C51\LIB\C51S.LIB (?C?LLDCODE)
  C:\KEIL\C51\LIB\C51S.LIB (?C?LLDXDATA0)
  C:\KEIL\C51\LIB\C51S.LIB (?C?LLDCODE0)
  C:\KEIL\C51\LIB\C51S.LIB (?C?LSTXDATA)
  C:\KEIL\C51\LIB\C51S.LIB (?C?LSTKXDATA)
  C:\KEIL\C51\LIB\C51S.LIB (?C?OFFXADD)
  C:\KEIL\C51\LIB\C51S.LIB (?C?PLDIDATA)
  C:\KEIL\C51\LIB\C51S.LIB (?C?PLDIIDATA)
  C:\KEIL\C51\LIB\C51S.LIB (?C?PSTIDATA)
  C:\KEIL\C51\LIB\C51S.LIB (?C?PLDXDATA)
  C:\KEIL\C51\LIB\C51S.LIB (?C?PSTXDATA)
  C:\KEIL\C51\LIB\C51S.LIB (?C?PLDPTR)
  C:\KEIL\C51\LIB\C51S.LIB (?C?PLDOPTR)
  C:\KEIL\C51\LIB\C51S.LIB (?C?PSTOPTR)
  C:\KEIL\C51\LIB\C51S.LIB (?C?CCASE)
  C:\KEIL\C51\LIB\C51S.LIB (?C?ICALL)
  C:\KEIL\C51\LIB\C51S.LIB (?C_IBP)
  C:\KEIL\C51\LIB\C51S.LIB (PUTCHAR)
  C:\KEIL\C51\LIB\C51S.LIB (ISPRINT)
  C:\KEIL\C51\LIB\C51S.LIB (?C?STRCPY)
  C:\KEIL\C51\LIB\C51S.LIB (STRNCPY)
  C:\KEIL\C51\LIB\C51S.LIB (STRLEN)
  C:\KEIL\C51\LIB\C51S.LIB (ATOI)
  C:\KEIL\C51\LIB\C51S.LIB (?C?IMUL_F120)
  C:\KEIL\C51\LIB\C51S.LIB (?C?LMUL_F120)
  C:\KEIL\C51\LIB\C51S.LIB (?C_INIT)
  C:\KEIL\C51\LIB\C51S.LIB (?C?IMUL)
  C:\KEIL\C51\LIB\C51S.LIB (?C?LLDIDATA)
  C:\KEIL\C51\LIB\C51S.LIB (?C?LLDPDATA)
  C:\KEIL\C51\LIB\C51S.LIB (?C?PLDPDATA)
  C:\KEIL\C51\LIB\C51S.LIB (?C?PSTPDATA)
  C:\KEIL\C51\LIB\C51S.LIB (?C?PLDCODE)
  C:\KEIL\C51\LIB\C51S.LIB (ISDIGIT)
  C:\KEIL\C51\LIB\C51S.LIB (ISSPACE)


LINK MAP OF MODULE:  DisplayUnit (DISPLAY)


            TYPE    BASE      LENGTH    RELOCATION   SEGMENT NAME
            -----------------------------------------------------

            * * * * * * *   D A T A   M E M O R Y   * * * * * * *
            REG     0000H     0008H     ABSOLUTE     "REG BANK 0"
            DATA    0008H     0014H     UNIT         ?DT?CYGFX120
            DATA    001CH     0001H     UNIT         ?DT?MENU
            DATA    001DH     0001H     UNIT         ?DT?TIMER
            DATA    001EH     0001H     UNIT         ?C?LIB_DATA
BL51 BANKED LINKER/LOCATER V6.22                                                      11/30/2014  18:01:41  PAGE 5


                    001FH     0001H                  *** GAP ***
            BIT     0020H.0   0001H.1   UNIT         _BIT_GROUP_
                    0021H.1   0000H.7                *** GAP ***
            DATA    0022H     0058H     UNIT         _DATA_GROUP_
            IDATA   007AH     0002H     UNIT         _IDATA_GROUP_
            IDATA   007CH     0001H     UNIT         ?STACK

            * * * * * * *  X D A T A   M E M O R Y  * * * * * * *
            XDATA   0000H     1833H     UNIT         ?XD?DISPLAYUNIT
            XDATA   1833H     070DH     UNIT         _XDATA_GROUP_
            XDATA   1F40H     0010H     UNIT         ?XD?MENU

            * * * * * * *   C O D E   M E M O R Y   * * * * * * *
            CODE    0000H     0003H     ABSOLUTE     
            CODE    0003H     001DH     UNIT         ?PR?C?IMUL_F120
                    0020H     0003H                  *** GAP ***
            CODE    0023H     0003H     ABSOLUTE     
            CODE    0026H     004DH     UNIT         ?PR?_UPLAP?MENU
            CODE    0073H     0003H     ABSOLUTE     
            CODE    0076H     002DH     UNIT         ?PR?_UPGMT?MENU
            CODE    00A3H     0003H     ABSOLUTE     
            CODE    00A6H     2D06H     UNIT         ?CO?DISPLAYUNIT
            CODE    2DACH     11BDH     UNIT         ?PR?_PARSE_MESSAGE?MESSAGE
            CODE    3F69H     0D40H     UNIT         ?C?LIB_CODE
            CODE    4CA9H     0C6AH     UNIT         ?PR?_LAP_CHECK?TIMER
            CODE    5913H     08B2H     UNIT         ?PR?_COLLECTDATA?MENU
            CODE    61C5H     0753H     UNIT         ?PR?MAIN?DISPLAYUNIT
            CODE    6918H     0692H     UNIT         ?PR?MENU
            CODE    6FAAH     0571H     UNIT         ?PR?_?MENU_OP?MENU
            CODE    751BH     054DH     UNIT         ?PR?INIT_TABLES?SESSION
            CODE    7A68H     046FH     UNIT         ?PR?PRINTF?PRINTF
            CODE    7ED7H     03CAH     UNIT         ?PR?TIMER
            CODE    82A1H     038FH     UNIT         ?PR?_PACK_SESSIONS?SESSION
            CODE    8630H     0381H     UNIT         ?PR?SESSION
            CODE    89B1H     0380H     UNIT         ?PR?_DATAFLASHTEST?FACTORYTEST
            CODE    8D31H     0369H     UNIT         ?PR?_FORMATGPS?FORMATGPS
            CODE    909AH     0338H     UNIT         ?PR?_DETAIL?MENU
            CODE    93D2H     0327H     UNIT         ?PR?_INITDUSCRATCHPAD?CYGNALFLASH
            CODE    96F9H     0301H     UNIT         ?PR?_STATUS?MENU
            CODE    99FAH     02DCH     UNIT         ?PR?_DISPLAYDRAGNUMS?MENU
            CODE    9CD6H     02A3H     UNIT         ?PR?_START_SESSION?SESSION
            CODE    9F79H     0294H     UNIT         ?PR?_FORMATGAUGES?FORMATGPS
            CODE    A20DH     028CH     UNIT         ?C_INITSEG
            CODE    A499H     0255H     UNIT         ?PR?MESSAGE
            CODE    A6EEH     0240H     UNIT         ?PR?_WRITE_QUAL?TIMER
            CODE    A92EH     0227H     UNIT         ?PR?_WRITE_ICON?DISPLAY
            CODE    AB55H     0207H     UNIT         ?PR?FORMATGPS
            CODE    AD5CH     0204H     UNIT         ?PR?_UART_INIT?CYGFX120
            CODE    AF60H     01F8H     UNIT         ?PR?_WRITECOMPASS?FORMATGPS
            CODE    B158H     01EDH     UNIT         ?PR?MSG0_ISR?CYGFX120
            CODE    B345H     01EDH     UNIT         ?PR?MSG1_ISR?CYGFX120
            CODE    B532H     01E0H     UNIT         ?PR?_FORMATTIME?FORMATGPS
            CODE    B712H     01D6H     UNIT         ?PR?WRITEINPUTS?FORMATGPS
            CODE    B8E8H     01D5H     UNIT         ?PR?_WRITERPM?FORMATGPS
            CODE    BABDH     01ADH     UNIT         ?PR?DRAW_MENU?MENU
            CODE    BC6AH     01A6H     UNIT         ?PR?_CLEARSTART?MENU
            CODE    BE10H     0185H     UNIT         ?PR?_IDLE?MENU
BL51 BANKED LINKER/LOCATER V6.22                                                      11/30/2014  18:01:41  PAGE 6


            CODE    BF95H     017AH     UNIT         ?CO?MENU
            CODE    C10FH     0178H     UNIT         ?PR?REPAIR_SESSIONS?SESSION
            CODE    C287H     016EH     UNIT         ?PR?SIN?SIN
            CODE    C3F5H     015BH     UNIT         ?PR?WRITE_TIMER?TIMER
            CODE    C550H     0141H     UNIT         ?PR?DISPLAY
            CODE    C691H     0128H     UNIT         ?PR?ATAN?ATAN
            CODE    C7B9H     011AH     UNIT         ?PR?SESSION_INIT?MENU
            CODE    C8D3H     010CH     UNIT         ?PR?_SHOWLAPS?MENU
            CODE    C9DFH     0107H     UNIT         ?PR?_SENDMESSAGE?MESSAGE
            CODE    CAE6H     0102H     UNIT         ?PR?_ERASE_SESSION?SESSION
            CODE    CBE8H     00F9H     UNIT         ?CO?FORMATGPS
            CODE    CCE1H     00F8H     UNIT         ?PR?_INIT_SESSION?SESSION
            CODE    CDD9H     00F6H     UNIT         ?PR?_LOADTRACKS?MENU
            CODE    CECFH     00EDH     UNIT         ?PR?T3_ISR?CYGFX120
            CODE    CFBCH     00E9H     UNIT         ?PR?_LOADVEHICLES?MENU
            CODE    D0A5H     00E6H     UNIT         ?PR?_END_SESSION?SESSION
            CODE    D18BH     00DDH     UNIT         ?PR?DISPLAYUNIT
            CODE    D268H     00DAH     UNIT         ?PR?_LOADDRIVERS?MENU
            CODE    D342H     00D4H     UNIT         ?PR?_STAGE?MENU
            CODE    D416H     00C2H     UNIT         ?PR?_SESSTITLE?MENU
            CODE    D4D8H     00BBH     UNIT         ?PR?SECTOR_STORE?TIMER
            CODE    D593H     00B3H     UNIT         ?PR?_DODATE?FORMATGPS
            CODE    D646H     00B3H     UNIT         ?PR?_NEXTINPUT?MENU
            CODE    D6F9H     00AEH     UNIT         ?PR?_ATOI?ATOI
            CODE    D7A7H     00AAH     UNIT         ?PR?SQRT?SQRT
            CODE    D851H     00A2H     UNIT         ?PR?_WRITE_LINE?DISPLAY
            CODE    D8F3H     00A1H     UNIT         ?PR?_SAVEDOWNLOAD?MESSAGE
            CODE    D994H     00A0H     UNIT         ?PR?DISPLAY_INIT?DISPLAY
            CODE    DA34H     009CH     UNIT         ?PR?_DATAFLASH_INIT?DATAFLASH
            CODE    DAD0H     0091H     UNIT         ?PR?_DATAFLASH_ERASE_RANGE?DATAFLASH
            CODE    DB61H     0090H     UNIT         ?PR?_WRITE_DISPLAY?DISPLAY
            CODE    DBF1H     008EH     UNIT         ?PR?_WRITE_MED_TEXT?DISPLAY
            CODE    DC7FH     008EH     UNIT         ?PR?_DATAFLASH_PAGE_READ?DATAFLASH
            CODE    DD0DH     008DH     UNIT         ?PR?_DATAFLASH_PAGE_WRITE_ERASE?DATAFLASH
            CODE    DD9AH     008CH     UNIT         ?C_C51STARTUP
            CODE    DE26H     008BH     UNIT         ?PR?_WRITE_TEXT?DISPLAY
            CODE    DEB1H     008BH     UNIT         ?PR?_WRITE_BIG_LINE?DISPLAY
            CODE    DF3CH     008BH     UNIT         ?PR?_SAVECAMERAS?MENU
            CODE    DFC7H     0087H     UNIT         ?PR?PORT_INIT_DU?DISPLAY
            CODE    E04EH     0083H     UNIT         ?PR?_DATAFLASH_BUFFER_WRITE?DATAFLASH
            CODE    E0D1H     0081H     UNIT         ?PR?_UNPACK_VELOCITIES?TIMER
            CODE    E152H     0080H     UNIT         ?PR?_WRITE_SCREEN?DISPLAY
            CODE    E1D2H     007EH     UNIT         ?PR?_FULL_SCREEN?DISPLAY
            CODE    E250H     0075H     UNIT         ?PR?_WRITE_BIG_TEXT?DISPLAY
            CODE    E2C5H     0075H     UNIT         ?PR?_LOADCAMERAS?MENU
            CODE    E33AH     0073H     UNIT         ?PR?_ATAN2?ATAN2
            CODE    E3ADH     0070H     UNIT         ?PR?_SAVEAUTOON?MENU
            CODE    E41DH     006FH     UNIT         ?PR?_WRITESCRATCHPAD?CYGNALFLASH
            CODE    E48CH     006CH     UNIT         ?PR?_DATAFLASH_BUFFER_CLEAR?DATAFLASH
            CODE    E4F8H     006AH     UNIT         ?CO?MESSAGE
            CODE    E562H     0068H     UNIT         ?PR?_COMPUTE_HEADING?TIMER
            CODE    E5CAH     0064H     UNIT         ?PR?_SAVEPICKLISTS?MENU
            CODE    E62EH     005DH     UNIT         ?PR?_LOADSAMP?MENU
            CODE    E68BH     005DH     UNIT         ?CO?SESSION
            CODE    E6E8H     005BH     UNIT         ?PR?_CRC16?CRC
            CODE    E743H     005AH     UNIT         ?PR?_XMITUART?CYGFX120
            CODE    E79DH     0057H     UNIT         ?PR?_DOTEMP?FORMATGPS
BL51 BANKED LINKER/LOCATER V6.22                                                      11/30/2014  18:01:41  PAGE 7


            CODE    E7F4H     0057H     UNIT         ?PR?SYSCLK_INIT?CYGFX120
            CODE    E84BH     0054H     UNIT         ?PR?_READSCRATCHPAD?CYGNALFLASH
            CODE    E89FH     0054H     UNIT         ?PR?_DATAFLASH_PAGE_WRITE_FROM_BUFFER_ERASE?DATAFLASH
            CODE    E8F3H     0052H     UNIT         ?PR?_STRNCPY?STRNCPY
            CODE    E945H     0050H     UNIT         ?CO?FACTORYTEST
            CODE    E995H     004DH     UNIT         ?PR?C?LMUL_F120
            CODE    E9E2H     004AH     UNIT         ?PR?_LOADGRAPHSCALE?MENU
            CODE    EA2CH     004AH     UNIT         ?PR?_VERIFY_CRC?MESSAGE
            CODE    EA76H     0049H     UNIT         ?PR?_DNLAP?MENU
            CODE    EABFH     0048H     UNIT         ?CO?TIMER
            CODE    EB07H     0047H     UNIT         ?PR?WRITE_LAP?TIMER
            CODE    EB4EH     0046H     UNIT         ?PR?_DATAFLASH_ERASE_BLOCK?DATAFLASH
            CODE    EB94H     0046H     UNIT         ?PR?_DATAFLASH_ERASE_PAGE?DATAFLASH
            CODE    EBDAH     0044H     UNIT         ?C?LDIV
            CODE    EC1EH     0043H     UNIT         ?PR?_DONTCLEAR?MENU
            CODE    EC61H     0042H     UNIT         ?PR?_CONTRAST?MENU
            CODE    ECA3H     0040H     UNIT         ?PR?_READ_DISPLAY?DISPLAY
            CODE    ECE3H     003BH     UNIT         ?PR?_CLEARMENU?MENU
            CODE    ED1EH     003AH     UNIT         ?PR?_ERASESESS?MENU
            CODE    ED58H     0037H     UNIT         ?PR?_JUMPCOPY?MESSAGE
            CODE    ED8FH     0036H     UNIT         ?PR?_DOGMT?MENU
            CODE    EDC5H     0036H     UNIT         ?PR?_LAPHOLD?MENU
            CODE    EDFBH     0032H     UNIT         ?PR?_SENDNAK?MESSAGE
            CODE    EE2DH     0031H     UNIT         ?PR?_DNLAPHOLD?MENU
            CODE    EE5EH     002FH     UNIT         ?PR?_ERASEALL?MENU
            CODE    EE8DH     002EH     UNIT         ?PR?ERASESCRATCHPAD?CYGNALFLASH
            CODE    EEBBH     002DH     UNIT         ?PR?_DNGMT?MENU
            CODE    EEE8H     002CH     UNIT         ?PR?SWALLOW_MESSAGE?DISPLAYUNIT
            CODE    EF14H     002CH     UNIT         ?PR?_UPLAPHOLD?MENU
            CODE    EF40H     002BH     UNIT         ?PR?_LOADTRACKLEN?MENU
            CODE    EF6BH     002BH     UNIT         ?PR?_LOADSTARTSCREEN?MENU
            CODE    EF96H     002AH     UNIT         ?PR?_UPCONTRAST?MENU
            CODE    EFC0H     002AH     UNIT         ?PR?_DNCONTRAST?MENU
            CODE    EFEAH     002AH     UNIT         ?PR?_WRITE_FLAG?TIMER
            CODE    F014H     002AH     UNIT         ?PR?_TIMER3_INIT?CYGFX120
            CODE    F03EH     002AH     UNIT         ?PR?DATAFLASH
            CODE    F068H     0029H     UNIT         ?PR?_WIPEMEM?MENU
            CODE    F091H     0029H     UNIT         ?PR?_SAVESCALE?MENU
            CODE    F0BAH     0029H     UNIT         ?PR?_SAVESTARTSCREEN?MENU
            CODE    F0E3H     0028H     UNIT         ?PR?_SAVEUNITS?MENU
            CODE    F10BH     0027H     UNIT         ?PR?_SAVESAMP?MENU
            CODE    F132H     0027H     UNIT         ?PR?PUTCHAR?PUTCHAR
            CODE    F159H     0025H     UNIT         ?PR?_SAVETRACKLEN?MENU
            CODE    F17EH     0024H     UNIT         ?PR?_LOADUNITS?MENU
            CODE    F1A2H     0024H     UNIT         ?PR?_BACKCONTRAST?MENU
            CODE    F1C6H     0024H     UNIT         ?PR?_LOADAUTOON?MENU
            CODE    F1EAH     0024H     UNIT         ?PR?LAP_STORE?TIMER
            CODE    F20EH     0022H     UNIT         ?PR?DATAFLASH_READ_STATUS?DATAFLASH
            CODE    F230H     0021H     UNIT         ?PR?_INFO_SCREEN?DISPLAY
            CODE    F251H     001BH     UNIT         ?PR?_REVIEW?MENU
            CODE    F26CH     001BH     UNIT         ?PR?_BACKLAP?MENU
            CODE    F287H     0019H     UNIT         ?PR?_PACKMEM?MENU
            CODE    F2A0H     0018H     UNIT         ?CO?DISPLAY
            CODE    F2B8H     0017H     UNIT         ?PR?_MARKSTART?MENU
            CODE    F2CFH     0015H     UNIT         ?PR?_STRLEN?STRLEN
            CODE    F2E4H     0013H     UNIT         ?PR?_ISSPACE?ISSPACE
            CODE    F2F7H     0012H     UNIT         ?PR?RESET_TOP_LINE?DISPLAY
BL51 BANKED LINKER/LOCATER V6.22                                                      11/30/2014  18:01:41  PAGE 8


            CODE    F309H     0012H     UNIT         ?PR?_MARKFINISH?MENU
            CODE    F31BH     0012H     UNIT         ?PR?SPIO_INIT?CYGFX120
            CODE    F32DH     0011H     UNIT         ?PR?_XFERSPI?CYGFX120
            CODE    F33EH     000FH     UNIT         ?PR?_ISPRINT?ISPRINT
            CODE    F34DH     000FH     UNIT         ?PR?_ISDIGIT?ISDIGIT
            CODE    F35CH     000BH     UNIT         ?CO?DATAFLASH
            CODE    F367H     0004H     UNIT         ?PR?_PREVINPUT?MENU
                    F36BH     0A93H                  *** GAP ***
            CODE    FDFEH     0002H     UNIT         ROADBLOCK
            CODE    FE00H     0002H     ABSOLUTE     
            CODE    FE02H     01BEH     UNIT         ?PR?_COPYTOCODESPACE?FDL
            CODE    FFC0H     0019H     UNIT         ?PR?_FDL_XFERSPI?FDL
            CODE    FFD9H     0024H     UNIT         ?PR?FDL_DATAFLASH_READ_STATUS?FDL



OVERLAY MAP OF MODULE:   DisplayUnit (DISPLAY)


SEGMENT                                             BIT_GROUP          DATA_GROUP          IDATA_GROUP         XDATA_GRO
>> UP
  +--> CALLED SEGMENT                            START    LENGTH     START    LENGTH     START    LENGTH     START    LE
>> NGTH
------------------------------------------------------------------------------------------------------------------------
>> ----
?PR?MSG0_ISR?CYGFX120                            -----    -----      0022H    0001H      -----    -----      -----    --
>> ---
  +--> ?PR?C?IMUL_F120

*** NEW ROOT ***************************************************

?PR?MSG1_ISR?CYGFX120                            -----    -----      0023H    0001H      -----    -----      -----    --
>> ---
  +--> ?PR?C?IMUL_F120

*** NEW ROOT ***************************************************

?C_C51STARTUP                                    -----    -----      -----    -----      -----    -----      -----    --
>> ---
  +--> ?PR?MAIN?DISPLAYUNIT
  +--> ?C_INITSEG

?PR?MAIN?DISPLAYUNIT                             -----    -----      -----    -----      -----    -----      1833H    00
>> 31H
  +--> ?PR?SYSCLK_INIT?CYGFX120
  +--> ?PR?PORT_INIT_DU?DISPLAY
  +--> ?PR?DISPLAYUNIT
  +--> ?PR?_TIMER3_INIT?CYGFX120
  +--> ?PR?SPIO_INIT?CYGFX120
  +--> ?PR?_DATAFLASH_INIT?DATAFLASH
  +--> ?PR?REPAIR_SESSIONS?SESSION
  +--> ?PR?INIT_TABLES?SESSION
  +--> ?PR?DISPLAY_INIT?DISPLAY
  +--> ?PR?_FULL_SCREEN?DISPLAY
  +--> ?CO?DISPLAYUNIT
  +--> ?PR?_WRITE_ICON?DISPLAY
  +--> ?PR?_INITDUSCRATCHPAD?CYGNALFLASH
BL51 BANKED LINKER/LOCATER V6.22                                                      11/30/2014  18:01:41  PAGE 9


  +--> ?PR?_WRITE_BIG_LINE?DISPLAY
  +--> ?PR?_WRITE_LINE?DISPLAY
  +--> ?PR?_DATAFLASH_PAGE_READ?DATAFLASH
  +--> ?PR?C?IMUL_F120
  +--> ?PR?_INIT_SESSION?SESSION
  +--> ?PR?_DATAFLASH_BUFFER_CLEAR?DATAFLASH
  +--> ?PR?_WRITE_SCREEN?DISPLAY
  +--> ?PR?_?MENU_OP?MENU
  +--> ?PR?_PARSE_MESSAGE?MESSAGE
  +--> ?PR?_INFO_SCREEN?DISPLAY
  +--> ?PR?_DATAFLASH_ERASE_RANGE?DATAFLASH
  +--> ?PR?_SENDMESSAGE?MESSAGE
  +--> ?PR?SWALLOW_MESSAGE?DISPLAYUNIT
  +--> ?PR?PRINTF?PRINTF
  +--> ?PR?_UART_INIT?CYGFX120

?PR?PORT_INIT_DU?DISPLAY                         -----    -----      0024H    0001H      -----    -----      -----    --
>> ---
  +--> ?PR?_READSCRATCHPAD?CYGNALFLASH

?PR?_READSCRATCHPAD?CYGNALFLASH                  -----    -----      0039H    0007H      -----    -----      -----    --
>> ---

?PR?DISPLAYUNIT                                  -----    -----      -----    -----      -----    -----      -----    --
>> ---
  +--> ?CO?DISPLAYUNIT

?CO?DISPLAYUNIT                                  -----    -----      -----    -----      -----    -----      -----    --
>> ---
  +--> ?PR?_SHOWLAPS?MENU
  +--> ?PR?_ERASESESS?MENU
  +--> ?PR?_DETAIL?MENU
  +--> ?PR?_SAVESAMP?MENU
  +--> ?PR?_SAVEUNITS?MENU
  +--> ?PR?_LAPHOLD?MENU
  +--> ?PR?_LOADGRAPHSCALE?MENU
  +--> ?PR?_LOADTRACKLEN?MENU
  +--> ?PR?_SAVESCALE?MENU
  +--> ?PR?_SAVETRACKLEN?MENU
  +--> ?PR?_SAVEAUTOON?MENU
  +--> ?PR?_SAVECAMERAS?MENU
  +--> ?PR?_SAVESTARTSCREEN?MENU
  +--> ?PR?_LOADDRIVERS?MENU
  +--> ?PR?_LOADVEHICLES?MENU
  +--> ?PR?_LOADTRACKS?MENU
  +--> ?PR?_LOADCAMERAS?MENU
  +--> ?PR?_LOADSAMP?MENU
  +--> ?PR?_ERASEALL?MENU
  +--> ?PR?_PACKMEM?MENU
  +--> ?PR?_DOGMT?MENU
  +--> ?PR?_CONTRAST?MENU
  +--> ?PR?_LOADUNITS?MENU
  +--> ?PR?_WIPEMEM?MENU
  +--> ?PR?_LOADAUTOON?MENU
  +--> ?PR?_LOADSTARTSCREEN?MENU
  +--> ?PR?_COLLECTDATA?MENU

BL51 BANKED LINKER/LOCATER V6.22                                                      11/30/2014  18:01:41  PAGE 10


?PR?_SHOWLAPS?MENU                               -----    -----      0041H    0003H      -----    -----      18ADH    00
>> 01H
  +--> ?PR?MENU
  +--> ?PR?_STRLEN?STRLEN
  +--> ?PR?_ATOI?ATOI
  +--> ?PR?_DATAFLASH_PAGE_READ?DATAFLASH
  +--> ?CO?MENU
  +--> ?PR?_INFO_SCREEN?DISPLAY
  +--> ?PR?_UPLAP?MENU
  +--> ?PR?_DNLAP?MENU
  +--> ?PR?_FULL_SCREEN?DISPLAY
  +--> ?PR?_WRITE_ICON?DISPLAY
  +--> ?PR?WRITE_TIMER?TIMER
  +--> ?PR?WRITE_LAP?TIMER
  +--> ?PR?_WRITE_FLAG?TIMER
  +--> ?PR?_BACKLAP?MENU

?PR?MENU                                         -----    -----      -----    -----      -----    -----      -----    --
>> ---
  +--> ?PR?C?IMUL_F120
  +--> ?CO?MENU

?PR?_ATOI?ATOI                                   0020H.0  0000H.1    0044H    0005H      -----    -----      -----    --
>> ---
  +--> ?PR?_ISSPACE?ISSPACE
  +--> ?PR?_ISDIGIT?ISDIGIT

?PR?_DATAFLASH_PAGE_READ?DATAFLASH               -----    -----      0056H    000BH      -----    -----      -----    --
>> ---
  +--> ?PR?DATAFLASH_READ_STATUS?DATAFLASH
  +--> ?PR?_XFERSPI?CYGFX120
  +--> ?PR?DATAFLASH

?PR?DATAFLASH_READ_STATUS?DATAFLASH              -----    -----      0063H    0002H      -----    -----      -----    --
>> ---
  +--> ?PR?_XFERSPI?CYGFX120

?PR?_INFO_SCREEN?DISPLAY                         -----    -----      0047H    0003H      -----    -----      -----    --
>> ---
  +--> ?PR?_WRITE_SCREEN?DISPLAY
  +--> ?PR?_WRITE_BIG_TEXT?DISPLAY

?PR?_WRITE_SCREEN?DISPLAY                        -----    -----      004DH    0008H      -----    -----      -----    --
>> ---
  +--> ?PR?DISPLAY
  +--> ?PR?_WRITE_DISPLAY?DISPLAY

?PR?DISPLAY                                      -----    -----      -----    -----      -----    -----      -----    --
>> ---
  +--> ?PR?C?IMUL_F120
  +--> ?CO?DISPLAY
  +--> ?PR?_READ_DISPLAY?DISPLAY

?PR?_WRITE_DISPLAY?DISPLAY                       -----    -----      0072H    0006H      -----    -----      -----    --
>> ---
  +--> ?PR?_READ_DISPLAY?DISPLAY

BL51 BANKED LINKER/LOCATER V6.22                                                      11/30/2014  18:01:41  PAGE 11


?PR?_WRITE_BIG_TEXT?DISPLAY                      -----    -----      004AH    0008H      -----    -----      -----    --
>> ---
  +--> ?PR?DISPLAY
  +--> ?PR?_WRITE_ICON?DISPLAY

?PR?_WRITE_ICON?DISPLAY                          -----    -----      0056H    001CH      -----    -----      1F3EH    00
>> 02H
  +--> ?PR?DISPLAY
  +--> ?PR?_WRITE_DISPLAY?DISPLAY
  +--> ?CO?DISPLAY

?PR?_UPLAP?MENU                                  -----    -----      0044H    0003H      -----    -----      -----    --
>> ---
  +--> ?PR?MENU
  +--> ?PR?WRITE_TIMER?TIMER
  +--> ?PR?WRITE_LAP?TIMER
  +--> ?PR?_WRITE_FLAG?TIMER

?PR?WRITE_TIMER?TIMER                            -----    -----      -----    -----      -----    -----      1F10H    00
>> 09H
  +--> ?PR?TIMER
  +--> ?PR?C?LMUL_F120
  +--> ?PR?_WRITE_ICON?DISPLAY

?PR?TIMER                                        -----    -----      -----    -----      -----    -----      -----    --
>> ---
  +--> ?PR?C?LMUL_F120

?PR?WRITE_LAP?TIMER                              -----    -----      -----    -----      -----    -----      1F10H    00
>> 05H
  +--> ?PR?TIMER
  +--> ?CO?TIMER
  +--> ?PR?PRINTF?PRINTF
  +--> ?PR?_WRITE_MED_TEXT?DISPLAY

?PR?PRINTF?PRINTF                                0020H.0  0001H.1    005EH    001CH      -----    -----      -----    --
>> ---
  +--> ?PR?PUTCHAR?PUTCHAR

?PR?_WRITE_MED_TEXT?DISPLAY                      -----    -----      004DH    0008H      -----    -----      -----    --
>> ---
  +--> ?PR?DISPLAY
  +--> ?PR?_WRITE_ICON?DISPLAY

?PR?_WRITE_FLAG?TIMER                            -----    -----      -----    -----      -----    -----      -----    --
>> ---
  +--> ?PR?TIMER
  +--> ?PR?_WRITE_ICON?DISPLAY

?PR?_DNLAP?MENU                                  -----    -----      0044H    0003H      -----    -----      -----    --
>> ---
  +--> ?PR?MENU
  +--> ?PR?WRITE_TIMER?TIMER
  +--> ?PR?WRITE_LAP?TIMER
  +--> ?PR?_WRITE_FLAG?TIMER

?PR?_FULL_SCREEN?DISPLAY                         -----    -----      0050H    0005H      -----    -----      -----    --
BL51 BANKED LINKER/LOCATER V6.22                                                      11/30/2014  18:01:41  PAGE 12


>> ---
  +--> ?PR?DISPLAY
  +--> ?PR?_WRITE_DISPLAY?DISPLAY

?PR?_BACKLAP?MENU                                -----    -----      0044H    0003H      -----    -----      -----    --
>> ---
  +--> ?PR?MENU

?PR?_ERASESESS?MENU                              -----    -----      0041H    0003H      -----    -----      18ADH    00
>> 01H
  +--> ?PR?MENU
  +--> ?PR?_DATAFLASH_PAGE_READ?DATAFLASH
  +--> ?PR?_STRLEN?STRLEN
  +--> ?PR?_ATOI?ATOI
  +--> ?PR?_ERASE_SESSION?SESSION
  +--> ?PR?SESSION_INIT?MENU

?PR?_ERASE_SESSION?SESSION                       -----    -----      0045H    0001H      -----    -----      1AEBH    02
>> 10H
  +--> ?PR?SESSION
  +--> ?PR?_DATAFLASH_PAGE_READ?DATAFLASH
  +--> ?PR?_DATAFLASH_ERASE_PAGE?DATAFLASH
  +--> ?PR?_DATAFLASH_PAGE_WRITE_ERASE?DATAF...
  +--> ?PR?_DATAFLASH_ERASE_RANGE?DATAFLASH

?PR?SESSION                                      -----    -----      -----    -----      -----    -----      -----    --
>> ---
  +--> ?CO?SESSION

?PR?_DATAFLASH_ERASE_PAGE?DATAFLASH              -----    -----      004DH    0004H      -----    -----      -----    --
>> ---
  +--> ?PR?DATAFLASH_READ_STATUS?DATAFLASH
  +--> ?PR?_XFERSPI?CYGFX120
  +--> ?PR?DATAFLASH

?PR?_DATAFLASH_PAGE_WRITE_ERASE?DATAF...         -----    -----      0056H    000DH      -----    -----      -----    --
>> ---
  +--> ?PR?DATAFLASH_READ_STATUS?DATAFLASH
  +--> ?PR?_XFERSPI?CYGFX120
  +--> ?PR?DATAFLASH

?PR?_DATAFLASH_ERASE_RANGE?DATAFLASH             -----    -----      0046H    0007H      -----    -----      1CFBH    00
>> 0DH
  +--> ?PR?_FULL_SCREEN?DISPLAY
  +--> ?CO?DATAFLASH
  +--> ?PR?PRINTF?PRINTF
  +--> ?PR?_WRITE_BIG_LINE?DISPLAY
  +--> ?PR?_DATAFLASH_ERASE_BLOCK?DATAFLASH
  +--> ?PR?_DATAFLASH_ERASE_PAGE?DATAFLASH

?PR?_WRITE_BIG_LINE?DISPLAY                      -----    -----      004DH    0008H      -----    -----      -----    --
>> ---
  +--> ?PR?DISPLAY
  +--> ?PR?_WRITE_DISPLAY?DISPLAY
  +--> ?PR?_WRITE_ICON?DISPLAY

?PR?_DATAFLASH_ERASE_BLOCK?DATAFLASH             -----    -----      004DH    0004H      -----    -----      -----    --
BL51 BANKED LINKER/LOCATER V6.22                                                      11/30/2014  18:01:41  PAGE 13


>> ---
  +--> ?PR?DATAFLASH_READ_STATUS?DATAFLASH
  +--> ?PR?_XFERSPI?CYGFX120
  +--> ?PR?DATAFLASH

?PR?SESSION_INIT?MENU                            -----    -----      -----    -----      -----    -----      18AEH    02
>> 12H
  +--> ?PR?MENU
  +--> ?PR?_DATAFLASH_PAGE_READ?DATAFLASH
  +--> ?CO?MENU
  +--> ?PR?PRINTF?PRINTF
  +--> ?PR?_FORMATTIME?FORMATGPS
  +--> ?PR?_SESSTITLE?MENU

?PR?_FORMATTIME?FORMATGPS                        -----    -----      0050H    000EH      -----    -----      1AC0H    00
>> 14H
  +--> ?PR?C?LMUL_F120
  +--> ?PR?FORMATGPS
  +--> ?PR?C?IMUL_F120
  +--> ?PR?_DODATE?FORMATGPS
  +--> ?CO?FORMATGPS
  +--> ?PR?PRINTF?PRINTF
  +--> ?PR?_STRLEN?STRLEN

?PR?FORMATGPS                                    -----    -----      -----    -----      -----    -----      -----    --
>> ---
  +--> ?CO?FORMATGPS

?PR?_DODATE?FORMATGPS                            -----    -----      005EH    000BH      -----    -----      1AD4H    00
>> 0CH
  +--> ?CO?FORMATGPS
  +--> ?PR?FORMATGPS

?PR?_SESSTITLE?MENU                              -----    -----      0044H    0003H      -----    -----      1AC0H    00
>> 04H
  +--> ?PR?MENU
  +--> ?PR?_DATAFLASH_PAGE_READ?DATAFLASH
  +--> ?PR?_STRLEN?STRLEN
  +--> ?CO?MENU
  +--> ?PR?PRINTF?PRINTF
  +--> ?PR?_REVIEW?MENU

?PR?_REVIEW?MENU                                 -----    -----      0047H    0003H      -----    -----      -----    --
>> ---
  +--> ?PR?MENU

?PR?_DETAIL?MENU                                 -----    -----      0041H    0003H      -----    -----      18ADH    00
>> 11H
  +--> ?PR?MENU
  +--> ?PR?_STRLEN?STRLEN
  +--> ?PR?_ATOI?ATOI
  +--> ?PR?_DATAFLASH_PAGE_READ?DATAFLASH
  +--> ?PR?_FORMATTIME?FORMATGPS
  +--> ?CO?MENU
  +--> ?PR?C?LMUL_F120
  +--> ?PR?PRINTF?PRINTF
  +--> ?PR?_STRNCPY?STRNCPY
BL51 BANKED LINKER/LOCATER V6.22                                                      11/30/2014  18:01:41  PAGE 14


  +--> ?PR?_DOTEMP?FORMATGPS

?PR?_STRNCPY?STRNCPY                             -----    -----      0045H    000AH      -----    -----      -----    --
>> ---

?PR?_DOTEMP?FORMATGPS                            -----    -----      0050H    0001H      -----    -----      18BEH    00
>> 04H
  +--> ?PR?FORMATGPS

?PR?_SAVESAMP?MENU                               -----    -----      0041H    0003H      -----    -----      -----    --
>> ---
  +--> ?PR?MENU
  +--> ?PR?_SAVEPICKLISTS?MENU

?PR?_SAVEPICKLISTS?MENU                          -----    -----      0044H    0003H      -----    -----      1AC1H    02
>> 10H
  +--> ?PR?MENU
  +--> ?PR?_DATAFLASH_PAGE_READ?DATAFLASH
  +--> ?PR?_DATAFLASH_PAGE_WRITE_ERASE?DATAF...

?PR?_SAVEUNITS?MENU                              -----    -----      0041H    0003H      -----    -----      -----    --
>> ---
  +--> ?PR?MENU
  +--> ?PR?ERASESCRATCHPAD?CYGNALFLASH
  +--> ?PR?_WRITESCRATCHPAD?CYGNALFLASH

?PR?ERASESCRATCHPAD?CYGNALFLASH                  -----    -----      -----    -----      007AH    0002H      -----    --
>> ---

?PR?_WRITESCRATCHPAD?CYGNALFLASH                 -----    -----      0047H    0008H      007AH    0002H      -----    --
>> ---

?PR?_LAPHOLD?MENU                                -----    -----      0041H    0003H      -----    -----      18ADH    00
>> 0DH
  +--> ?PR?MENU
  +--> ?PR?PRINTF?PRINTF
  +--> ?PR?_INFO_SCREEN?DISPLAY
  +--> ?PR?_UPLAPHOLD?MENU
  +--> ?PR?_DNLAPHOLD?MENU
  +--> ?PR?_BACKCONTRAST?MENU

?PR?_UPLAPHOLD?MENU                              -----    -----      0044H    0003H      -----    -----      18BAH    00
>> 0DH
  +--> ?PR?MENU
  +--> ?PR?PRINTF?PRINTF
  +--> ?PR?_INFO_SCREEN?DISPLAY

?PR?_DNLAPHOLD?MENU                              -----    -----      0044H    0003H      -----    -----      18BAH    00
>> 0DH
  +--> ?PR?MENU
  +--> ?PR?PRINTF?PRINTF
  +--> ?PR?_INFO_SCREEN?DISPLAY

?PR?_BACKCONTRAST?MENU                           -----    -----      0044H    0003H      -----    -----      -----    --
>> ---
  +--> ?PR?ERASESCRATCHPAD?CYGNALFLASH
  +--> ?PR?MENU
BL51 BANKED LINKER/LOCATER V6.22                                                      11/30/2014  18:01:41  PAGE 15


  +--> ?PR?_WRITESCRATCHPAD?CYGNALFLASH

?PR?_LOADGRAPHSCALE?MENU                         -----    -----      0041H    0003H      -----    -----      -----    --
>> ---

?PR?_LOADTRACKLEN?MENU                           -----    -----      0041H    0003H      -----    -----      -----    --
>> ---

?PR?_SAVESCALE?MENU                              -----    -----      0041H    0003H      -----    -----      -----    --
>> ---
  +--> ?PR?ERASESCRATCHPAD?CYGNALFLASH
  +--> ?PR?MENU
  +--> ?PR?_WRITESCRATCHPAD?CYGNALFLASH

?PR?_SAVETRACKLEN?MENU                           -----    -----      0041H    0003H      -----    -----      -----    --
>> ---
  +--> ?PR?ERASESCRATCHPAD?CYGNALFLASH
  +--> ?PR?MENU
  +--> ?PR?_WRITESCRATCHPAD?CYGNALFLASH

?PR?_SAVEAUTOON?MENU                             -----    -----      0041H    0003H      -----    -----      -----    --
>> ---
  +--> ?PR?MENU
  +--> ?PR?ERASESCRATCHPAD?CYGNALFLASH
  +--> ?PR?_WRITESCRATCHPAD?CYGNALFLASH
  +--> ?PR?_SENDMESSAGE?MESSAGE

?PR?_SENDMESSAGE?MESSAGE                         -----    -----      0051H    0009H      -----    -----      -----    --
>> ---
  +--> ?PR?MESSAGE
  +--> ?PR?_CRC16?CRC
  +--> ?PR?_XMITUART?CYGFX120

?PR?_CRC16?CRC                                   -----    -----      005AH    0008H      -----    -----      -----    --
>> ---

?PR?_XMITUART?CYGFX120                           -----    -----      005AH    0004H      -----    -----      -----    --
>> ---

?PR?_SAVECAMERAS?MENU                            -----    -----      0041H    0003H      -----    -----      -----    --
>> ---
  +--> ?PR?MENU
  +--> ?PR?_DATAFLASH_PAGE_READ?DATAFLASH
  +--> ?PR?_DATAFLASH_PAGE_WRITE_ERASE?DATAF...

?PR?_SAVESTARTSCREEN?MENU                        -----    -----      0041H    0003H      -----    -----      -----    --
>> ---
  +--> ?PR?MENU
  +--> ?PR?ERASESCRATCHPAD?CYGNALFLASH
  +--> ?PR?_WRITESCRATCHPAD?CYGNALFLASH

?PR?_LOADDRIVERS?MENU                            -----    -----      0041H    0003H      -----    -----      18ADH    02
>> 14H
  +--> ?PR?MENU
  +--> ?PR?_DATAFLASH_PAGE_READ?DATAFLASH
  +--> ?PR?_STRNCPY?STRNCPY
  +--> ?PR?_SAVEPICKLISTS?MENU
BL51 BANKED LINKER/LOCATER V6.22                                                      11/30/2014  18:01:41  PAGE 16



?PR?_LOADVEHICLES?MENU                           -----    -----      0041H    0003H      -----    -----      18ADH    02
>> 14H
  +--> ?PR?MENU
  +--> ?PR?_DATAFLASH_PAGE_READ?DATAFLASH
  +--> ?PR?_STRNCPY?STRNCPY
  +--> ?PR?_SAVEPICKLISTS?MENU

?PR?_LOADTRACKS?MENU                             -----    -----      0041H    0003H      -----    -----      18ADH    02
>> 14H
  +--> ?PR?MENU
  +--> ?PR?_DATAFLASH_PAGE_READ?DATAFLASH
  +--> ?PR?_STRNCPY?STRNCPY
  +--> ?PR?_SAVEPICKLISTS?MENU

?PR?_LOADCAMERAS?MENU                            -----    -----      0041H    0003H      -----    -----      -----    --
>> ---
  +--> ?PR?MENU
  +--> ?PR?_DATAFLASH_PAGE_READ?DATAFLASH

?PR?_LOADSAMP?MENU                               -----    -----      0041H    0003H      -----    -----      18ADH    02
>> 10H
  +--> ?PR?MENU
  +--> ?PR?_DATAFLASH_PAGE_READ?DATAFLASH

?PR?_ERASEALL?MENU                               -----    -----      0041H    0003H      -----    -----      -----    --
>> ---
  +--> ?PR?_DATAFLASH_ERASE_PAGE?DATAFLASH
  +--> ?PR?MENU
  +--> ?PR?_DATAFLASH_ERASE_RANGE?DATAFLASH
  +--> ?PR?INIT_TABLES?SESSION
  +--> ?PR?_FULL_SCREEN?DISPLAY

?PR?INIT_TABLES?SESSION                          -----    -----      0044H    0006H      -----    -----      18ADH    02
>> 35H
  +--> ?PR?SESSION
  +--> ?PR?_DATAFLASH_PAGE_READ?DATAFLASH
  +--> ?CO?SESSION
  +--> ?PR?_ISPRINT?ISPRINT
  +--> ?PR?_DATAFLASH_PAGE_WRITE_ERASE?DATAF...

?PR?_PACKMEM?MENU                                -----    -----      0041H    0003H      -----    -----      -----    --
>> ---
  +--> ?PR?_PACK_SESSIONS?SESSION
  +--> ?PR?_FULL_SCREEN?DISPLAY
  +--> ?PR?MENU

?PR?_PACK_SESSIONS?SESSION                       -----    -----      0044H    0001H      -----    -----      18ADH    02
>> 3EH
  +--> ?PR?SESSION
  +--> ?PR?_DATAFLASH_PAGE_READ?DATAFLASH
  +--> ?PR?_ERASE_SESSION?SESSION
  +--> ?PR?_FULL_SCREEN?DISPLAY
  +--> ?CO?SESSION
  +--> ?PR?_DATAFLASH_ERASE_RANGE?DATAFLASH
  +--> ?PR?PRINTF?PRINTF
  +--> ?PR?_DATAFLASH_PAGE_WRITE_ERASE?DATAF...
BL51 BANKED LINKER/LOCATER V6.22                                                      11/30/2014  18:01:41  PAGE 17


  +--> ?PR?_WRITE_BIG_LINE?DISPLAY

?PR?_DOGMT?MENU                                  -----    -----      0041H    0003H      -----    -----      18ADH    00
>> 0DH
  +--> ?PR?MENU
  +--> ?PR?PRINTF?PRINTF
  +--> ?PR?_INFO_SCREEN?DISPLAY
  +--> ?PR?_UPGMT?MENU
  +--> ?PR?_DNGMT?MENU
  +--> ?PR?_BACKCONTRAST?MENU

?PR?_UPGMT?MENU                                  -----    -----      0044H    0003H      -----    -----      18BAH    00
>> 0DH
  +--> ?PR?MENU
  +--> ?PR?PRINTF?PRINTF
  +--> ?PR?_INFO_SCREEN?DISPLAY

?PR?_DNGMT?MENU                                  -----    -----      0044H    0003H      -----    -----      18BAH    00
>> 0DH
  +--> ?PR?MENU
  +--> ?PR?PRINTF?PRINTF
  +--> ?PR?_INFO_SCREEN?DISPLAY

?PR?_CONTRAST?MENU                               -----    -----      0041H    0003H      -----    -----      18ADH    00
>> 0DH
  +--> ?CO?MENU
  +--> ?PR?MENU
  +--> ?PR?PRINTF?PRINTF
  +--> ?PR?_INFO_SCREEN?DISPLAY
  +--> ?PR?_UPCONTRAST?MENU
  +--> ?PR?_DNCONTRAST?MENU
  +--> ?PR?_BACKCONTRAST?MENU

?PR?_UPCONTRAST?MENU                             -----    -----      0044H    0003H      -----    -----      18BAH    00
>> 0DH
  +--> ?PR?MENU
  +--> ?PR?PRINTF?PRINTF
  +--> ?PR?_INFO_SCREEN?DISPLAY

?PR?_DNCONTRAST?MENU                             -----    -----      0044H    0003H      -----    -----      18BAH    00
>> 0DH
  +--> ?PR?MENU
  +--> ?PR?PRINTF?PRINTF
  +--> ?PR?_INFO_SCREEN?DISPLAY

?PR?_LOADUNITS?MENU                              -----    -----      0041H    0003H      -----    -----      -----    --
>> ---

?PR?_WIPEMEM?MENU                                -----    -----      0041H    0003H      -----    -----      -----    --
>> ---
  +--> ?PR?MENU
  +--> ?PR?_DATAFLASH_ERASE_RANGE?DATAFLASH
  +--> ?PR?INIT_TABLES?SESSION
  +--> ?PR?_FULL_SCREEN?DISPLAY

?PR?_LOADAUTOON?MENU                             -----    -----      0041H    0003H      -----    -----      -----    --
>> ---
BL51 BANKED LINKER/LOCATER V6.22                                                      11/30/2014  18:01:41  PAGE 18



?PR?_LOADSTARTSCREEN?MENU                        -----    -----      0041H    0003H      -----    -----      -----    --
>> ---

?PR?_COLLECTDATA?MENU                            -----    -----      0041H    0004H      -----    -----      18ADH    00
>> 06H
  +--> ?CO?MENU
  +--> ?PR?_INFO_SCREEN?DISPLAY
  +--> ?PR?MENU
  +--> ?PR?_DATAFLASH_PAGE_READ?DATAFLASH
  +--> ?PR?_SENDMESSAGE?MESSAGE
  +--> ?PR?_STRNCPY?STRNCPY
  +--> ?PR?_MARKSTART?MENU
  +--> ?PR?_DATAFLASH_PAGE_WRITE_ERASE?DATAF...
  +--> ?PR?_CLEARMENU?MENU
  +--> ?PR?_STAGE?MENU
  +--> ?PR?_FULL_SCREEN?DISPLAY
  +--> ?PR?_PREVINPUT?MENU
  +--> ?PR?_NEXTINPUT?MENU
  +--> ?PR?_WRITE_ICON?DISPLAY
  +--> ?PR?_WRITE_TEXT?DISPLAY
  +--> ?PR?_LAP_CHECK?TIMER
  +--> ?PR?_START_SESSION?SESSION
  +--> ?PR?_IDLE?MENU
  +--> ?PR?_WRITE_SCREEN?DISPLAY

?PR?_MARKSTART?MENU                              -----    -----      0045H    0003H      -----    -----      -----    --
>> ---
  +--> ?PR?MENU
  +--> ?PR?_LAP_CHECK?TIMER

?PR?_LAP_CHECK?TIMER                             -----    -----      0048H    0005H      -----    -----      18B3H    06
>> 5DH
  +--> ?PR?TIMER
  +--> ?PR?_DATAFLASH_PAGE_READ?DATAFLASH
  +--> ?PR?_DATAFLASH_PAGE_WRITE_ERASE?DATAF...
  +--> ?PR?_UNPACK_VELOCITIES?TIMER
  +--> ?PR?_COMPUTE_HEADING?TIMER
  +--> ?PR?_WRITE_QUAL?TIMER
  +--> ?PR?_DISPLAYDRAGNUMS?MENU
  +--> ?PR?_WRITE_TEXT?DISPLAY
  +--> ?PR?SQRT?SQRT
  +--> ?PR?_WRITE_ICON?DISPLAY
  +--> ?PR?_WRITE_FLAG?TIMER
  +--> ?PR?WRITE_LAP?TIMER
  +--> ?PR?_FULL_SCREEN?DISPLAY
  +--> ?PR?_MARKFINISH?MENU
  +--> ?PR?WRITE_TIMER?TIMER
  +--> ?PR?SIN?SIN
  +--> ?PR?_WRITE_SCREEN?DISPLAY
  +--> ?CO?TIMER

?PR?_UNPACK_VELOCITIES?TIMER                     -----    -----      004DH    000CH      -----    -----      -----    --
>> ---
  +--> ?PR?TIMER

?PR?_COMPUTE_HEADING?TIMER                       -----    -----      0050H    0002H      -----    -----      1F10H    00
BL51 BANKED LINKER/LOCATER V6.22                                                      11/30/2014  18:01:41  PAGE 19


>> 06H
  +--> ?PR?_ATAN2?ATAN2
  +--> ?PR?TIMER

?PR?_ATAN2?ATAN2                                 -----    -----      0052H    0008H      -----    -----      -----    --
>> ---
  +--> ?PR?ATAN?ATAN

?PR?ATAN?ATAN                                    0020H.0  0000H.2    005AH    0004H      -----    -----      -----    --
>> ---

?PR?_WRITE_QUAL?TIMER                            -----    -----      004DH    0004H      -----    -----      1F10H    00
>> 05H
  +--> ?PR?TIMER
  +--> ?PR?_WRITE_ICON?DISPLAY

?PR?_DISPLAYDRAGNUMS?MENU                        -----    -----      004DH    0003H      -----    -----      1F10H    00
>> 2CH
  +--> ?PR?MENU
  +--> ?PR?_FULL_SCREEN?DISPLAY
  +--> ?CO?MENU
  +--> ?PR?_WRITE_TEXT?DISPLAY
  +--> ?PR?PRINTF?PRINTF

?PR?_WRITE_TEXT?DISPLAY                          -----    -----      0050H    0006H      -----    -----      1F3CH    00
>> 02H
  +--> ?PR?DISPLAY
  +--> ?PR?_WRITE_ICON?DISPLAY

?PR?SQRT?SQRT                                    -----    -----      0050H    0004H      -----    -----      -----    --
>> ---

?PR?_MARKFINISH?MENU                             -----    -----      004DH    0003H      -----    -----      -----    --
>> ---
  +--> ?PR?MENU

?PR?SIN?SIN                                      0020H.0  0000H.1    004DH    0004H      -----    -----      -----    --
>> ---

?PR?_CLEARMENU?MENU                              -----    -----      -----    -----      -----    -----      -----    --
>> ---
  +--> ?PR?MENU
  +--> ?PR?_DONTCLEAR?MENU

?PR?_DONTCLEAR?MENU                              -----    -----      0049H    0003H      -----    -----      -----    --
>> ---
  +--> ?PR?_IDLE?MENU
  +--> ?PR?MENU
  +--> ?PR?_WRITE_SCREEN?DISPLAY

?PR?_IDLE?MENU                                   -----    -----      004CH    0005H      -----    -----      18B3H    02
>> 10H
  +--> ?PR?MENU
  +--> ?PR?_DATAFLASH_PAGE_READ?DATAFLASH
  +--> ?PR?_DATAFLASH_PAGE_WRITE_ERASE?DATAF...
  +--> ?PR?_DATAFLASH_PAGE_WRITE_FROM_BUFFER...
  +--> ?PR?_END_SESSION?SESSION
BL51 BANKED LINKER/LOCATER V6.22                                                      11/30/2014  18:01:41  PAGE 20


  +--> ?PR?LAP_STORE?TIMER
  +--> ?PR?SECTOR_STORE?TIMER
  +--> ?PR?_SENDMESSAGE?MESSAGE

?PR?_DATAFLASH_PAGE_WRITE_FROM_BUFFER...         -----    -----      0051H    0006H      -----    -----      -----    --
>> ---
  +--> ?PR?DATAFLASH_READ_STATUS?DATAFLASH
  +--> ?PR?_XFERSPI?CYGFX120
  +--> ?PR?DATAFLASH

?PR?_END_SESSION?SESSION                         -----    -----      0051H    0005H      -----    -----      1AC3H    02
>> 10H
  +--> ?PR?SESSION
  +--> ?PR?_DATAFLASH_PAGE_READ?DATAFLASH
  +--> ?PR?_DATAFLASH_PAGE_WRITE_ERASE?DATAF...

?PR?LAP_STORE?TIMER                              -----    -----      -----    -----      -----    -----      -----    --
>> ---
  +--> ?PR?TIMER
  +--> ?PR?_DATAFLASH_PAGE_WRITE_ERASE?DATAF...

?PR?SECTOR_STORE?TIMER                           -----    -----      0051H    0002H      -----    -----      -----    --
>> ---
  +--> ?PR?TIMER
  +--> ?PR?_DATAFLASH_PAGE_READ?DATAFLASH
  +--> ?PR?_DATAFLASH_PAGE_WRITE_ERASE?DATAF...

?PR?_STAGE?MENU                                  -----    -----      0045H    0004H      -----    -----      -----    --
>> ---
  +--> ?PR?MENU
  +--> ?PR?_WRITE_SCREEN?DISPLAY
  +--> ?PR?_CLEARMENU?MENU
  +--> ?PR?_WRITE_ICON?DISPLAY
  +--> ?PR?_SENDMESSAGE?MESSAGE

?PR?_PREVINPUT?MENU                              -----    -----      -----    -----      -----    -----      -----    --
>> ---
  +--> ?PR?_NEXTINPUT?MENU

?PR?_NEXTINPUT?MENU                              -----    -----      0045H    0003H      -----    -----      -----    --
>> ---
  +--> ?PR?_FULL_SCREEN?DISPLAY
  +--> ?PR?MENU
  +--> ?PR?_WRITE_ICON?DISPLAY
  +--> ?PR?_WRITE_TEXT?DISPLAY

?PR?_START_SESSION?SESSION                       -----    -----      0045H    0006H      -----    -----      18B3H    02
>> 16H
  +--> ?PR?_DATAFLASH_PAGE_READ?DATAFLASH
  +--> ?PR?SESSION
  +--> ?PR?_DATAFLASH_BUFFER_CLEAR?DATAFLASH
  +--> ?PR?_DATAFLASH_PAGE_WRITE_ERASE?DATAF...

?PR?_DATAFLASH_BUFFER_CLEAR?DATAFLASH            -----    -----      004BH    0008H      -----    -----      -----    --
>> ---
  +--> ?PR?DATAFLASH_READ_STATUS?DATAFLASH
  +--> ?PR?_XFERSPI?CYGFX120
BL51 BANKED LINKER/LOCATER V6.22                                                      11/30/2014  18:01:41  PAGE 21



?PR?_DATAFLASH_INIT?DATAFLASH                    -----    -----      0024H    0008H      -----    -----      -----    --
>> ---
  +--> ?PR?DATAFLASH_READ_STATUS?DATAFLASH
  +--> ?PR?DATAFLASH

?PR?REPAIR_SESSIONS?SESSION                      -----    -----      -----    -----      -----    -----      1864H    02
>> 18H
  +--> ?PR?SESSION
  +--> ?PR?_DATAFLASH_PAGE_READ?DATAFLASH
  +--> ?PR?_END_SESSION?SESSION

?PR?DISPLAY_INIT?DISPLAY                         -----    -----      0024H    0001H      -----    -----      1864H    00
>> 08H
  +--> ?PR?DISPLAY
  +--> ?PR?_WRITE_DISPLAY?DISPLAY

?PR?_INITDUSCRATCHPAD?CYGNALFLASH                -----    -----      0024H    0001H      -----    -----      1864H    00
>> 81H
  +--> ?PR?_READSCRATCHPAD?CYGNALFLASH
  +--> ?PR?_ISPRINT?ISPRINT
  +--> ?PR?ERASESCRATCHPAD?CYGNALFLASH
  +--> ?PR?_WRITESCRATCHPAD?CYGNALFLASH

?PR?_WRITE_LINE?DISPLAY                          -----    -----      0039H    0008H      -----    -----      -----    --
>> ---
  +--> ?PR?DISPLAY
  +--> ?PR?_WRITE_DISPLAY?DISPLAY
  +--> ?CO?DISPLAYUNIT
  +--> ?PR?_WRITE_ICON?DISPLAY

?PR?_INIT_SESSION?SESSION                        -----    -----      0024H    0006H      -----    -----      1864H    00
>> 01H
  +--> ?PR?SESSION
  +--> ?PR?_DATAFLASH_PAGE_READ?DATAFLASH

?PR?_?MENU_OP?MENU                               -----    -----      -----    -----      -----    -----      -----    --
>> ---
  +--> ?PR?MENU
  +--> ?PR?RESET_TOP_LINE?DISPLAY
  +--> ?PR?_FULL_SCREEN?DISPLAY
  +--> ?PR?_WRITE_ICON?DISPLAY
  +--> ?PR?_STRLEN?STRLEN
  +--> ?PR?C?IMUL_F120
  +--> ?PR?_WRITE_TEXT?DISPLAY
  +--> ?PR?_WRITE_SCREEN?DISPLAY
  +--> ?PR?DRAW_MENU?MENU
  +--> ?CO?DISPLAYUNIT
  +--> ?PR?_END_SESSION?SESSION
  +--> ?PR?LAP_STORE?TIMER
  +--> ?PR?SECTOR_STORE?TIMER
  +--> ?PR?DATAFLASH_READ_STATUS?DATAFLASH
  +--> ?PR?_SENDMESSAGE?MESSAGE

?PR?RESET_TOP_LINE?DISPLAY                       -----    -----      -----    -----      -----    -----      -----    --
>> ---
  +--> ?PR?_WRITE_DISPLAY?DISPLAY
BL51 BANKED LINKER/LOCATER V6.22                                                      11/30/2014  18:01:41  PAGE 22



?PR?DRAW_MENU?MENU                               -----    -----      -----    -----      -----    -----      18A5H    00
>> 06H
  +--> ?PR?MENU
  +--> ?CO?DISPLAYUNIT
  +--> ?PR?_WRITE_ICON?DISPLAY
  +--> ?CO?MENU
  +--> ?PR?_WRITE_TEXT?DISPLAY
  +--> ?PR?_STRLEN?STRLEN

?PR?_PARSE_MESSAGE?MESSAGE                       -----    -----      0024H    0015H      -----    -----      1867H    00
>> 3EH
  +--> ?PR?MESSAGE
  +--> ?PR?_VERIFY_CRC?MESSAGE
  +--> ?CO?DISPLAYUNIT
  +--> ?PR?_SENDMESSAGE?MESSAGE
  +--> ?PR?_DATAFLASH_PAGE_READ?DATAFLASH
  +--> ?PR?_SENDNAK?MESSAGE
  +--> ?PR?_DATAFLASH_PAGE_WRITE_ERASE?DATAF...
  +--> ?PR?_READSCRATCHPAD?CYGNALFLASH
  +--> ?PR?ERASESCRATCHPAD?CYGNALFLASH
  +--> ?PR?_WRITESCRATCHPAD?CYGNALFLASH
  +--> ?PR?_ERASE_SESSION?SESSION
  +--> ?PR?_PACK_SESSIONS?SESSION
  +--> ?PR?_DATAFLASH_ERASE_PAGE?DATAFLASH
  +--> ?PR?_DATAFLASH_ERASE_RANGE?DATAFLASH
  +--> ?PR?DATAFLASH_READ_STATUS?DATAFLASH
  +--> ?PR?_DATAFLASHTEST?FACTORYTEST
  +--> ?CO?MESSAGE
  +--> ?PR?_INFO_SCREEN?DISPLAY
  +--> ?PR?_END_SESSION?SESSION
  +--> ?PR?LAP_STORE?TIMER
  +--> ?PR?_SAVEDOWNLOAD?MESSAGE
  +--> ?PR?_JUMPCOPY?MESSAGE
  +--> ?PR?_WRITE_LINE?DISPLAY
  +--> ?PR?_WRITE_ICON?DISPLAY
  +--> ?PR?C?IMUL_F120
  +--> ?PR?_FORMATGPS?FORMATGPS
  +--> ?PR?_FULL_SCREEN?DISPLAY
  +--> ?PR?_WRITE_TEXT?DISPLAY
  +--> ?PR?_WRITECOMPASS?FORMATGPS
  +--> ?PR?_FORMATGAUGES?FORMATGPS
  +--> ?PR?_WRITERPM?FORMATGPS
  +--> ?PR?WRITEINPUTS?FORMATGPS
  +--> ?PR?_WRITE_SCREEN?DISPLAY
  +--> ?PR?_LAP_CHECK?TIMER
  +--> ?PR?RESET_TOP_LINE?DISPLAY
  +--> ?PR?_?MENU_OP?MENU
  +--> ?PR?WRITE_TIMER?TIMER
  +--> ?PR?PRINTF?PRINTF
  +--> ?PR?_WRITE_BIG_TEXT?DISPLAY
  +--> ?PR?_DATAFLASH_BUFFER_WRITE?DATAFLASH
  +--> ?PR?_DATAFLASH_PAGE_WRITE_FROM_BUFFER...
  +--> ?PR?_DATAFLASH_BUFFER_CLEAR?DATAFLASH
  +--> ?PR?_STRLEN?STRLEN

?PR?_VERIFY_CRC?MESSAGE                          -----    -----      0039H    0007H      -----    -----      -----    --
BL51 BANKED LINKER/LOCATER V6.22                                                      11/30/2014  18:01:41  PAGE 23


>> ---
  +--> ?PR?_CRC16?CRC

?PR?_SENDNAK?MESSAGE                             -----    -----      -----    -----      -----    -----      -----    --
>> ---
  +--> ?CO?DISPLAYUNIT
  +--> ?PR?MESSAGE
  +--> ?PR?_SENDMESSAGE?MESSAGE

?PR?_DATAFLASHTEST?FACTORYTEST                   -----    -----      0039H    0007H      -----    -----      18A5H    00
>> 08H
  +--> ?CO?DISPLAYUNIT
  +--> ?CO?FACTORYTEST
  +--> ?PR?PRINTF?PRINTF
  +--> ?PR?_STRLEN?STRLEN
  +--> ?PR?_SENDMESSAGE?MESSAGE
  +--> ?PR?_DATAFLASH_PAGE_WRITE_ERASE?DATAF...
  +--> ?PR?_DATAFLASH_PAGE_READ?DATAFLASH
  +--> ?PR?_DATAFLASH_ERASE_PAGE?DATAFLASH

?PR?_SAVEDOWNLOAD?MESSAGE                        -----    -----      0039H    000AH      -----    -----      -----    --
>> ---
  +--> ?PR?MESSAGE
  +--> ?PR?_DATAFLASH_PAGE_WRITE_ERASE?DATAF...

?PR?_JUMPCOPY?MESSAGE                            -----    -----      0039H    0002H      -----    -----      18A5H    00
>> 05H
  +--> ?PR?_COPYTOCODESPACE?FDL

?PR?_COPYTOCODESPACE?FDL                         -----    -----      003BH    000CH      -----    -----      -----    --
>> ---
  +--> ?PR?FDL_DATAFLASH_READ_STATUS?FDL
  +--> ?PR?_FDL_XFERSPI?FDL

?PR?FDL_DATAFLASH_READ_STATUS?FDL                -----    -----      0047H    0002H      -----    -----      -----    --
>> ---
  +--> ?PR?_FDL_XFERSPI?FDL

?PR?_FORMATGPS?FORMATGPS                         -----    -----      0039H    0017H      -----    -----      18A5H    00
>> 09H
  +--> ?PR?FORMATGPS
  +--> ?PR?_FORMATTIME?FORMATGPS
  +--> ?CO?FORMATGPS
  +--> ?PR?C?LMUL_F120
  +--> ?PR?_COMPUTE_HEADING?TIMER
  +--> ?PR?SQRT?SQRT
  +--> ?PR?_DOTEMP?FORMATGPS
  +--> ?PR?PRINTF?PRINTF
  +--> ?PR?_STRLEN?STRLEN

?PR?_WRITECOMPASS?FORMATGPS                      -----    -----      0039H    0007H      -----    -----      18A5H    00
>> 1FH
  +--> ?PR?_UNPACK_VELOCITIES?TIMER
  +--> ?PR?_COMPUTE_HEADING?TIMER
  +--> ?PR?FORMATGPS
  +--> ?CO?FORMATGPS
  +--> ?PR?PRINTF?PRINTF
BL51 BANKED LINKER/LOCATER V6.22                                                      11/30/2014  18:01:41  PAGE 24


  +--> ?PR?_WRITE_BIG_TEXT?DISPLAY
  +--> ?PR?_FORMATTIME?FORMATGPS
  +--> ?PR?SQRT?SQRT

?PR?_FORMATGAUGES?FORMATGPS                      -----    -----      0039H    0005H      -----    -----      18A5H    00
>> 1DH
  +--> ?PR?_FULL_SCREEN?DISPLAY
  +--> ?PR?FORMATGPS
  +--> ?PR?_WRITE_ICON?DISPLAY
  +--> ?PR?_WRITE_TEXT?DISPLAY
  +--> ?CO?FORMATGPS
  +--> ?PR?PRINTF?PRINTF
  +--> ?PR?_WRITE_BIG_TEXT?DISPLAY
  +--> ?PR?_STRLEN?STRLEN
  +--> ?PR?C?IMUL_F120

?PR?_WRITERPM?FORMATGPS                          -----    -----      0039H    000BH      -----    -----      18A5H    00
>> 1CH
  +--> ?PR?FORMATGPS
  +--> ?PR?_FULL_SCREEN?DISPLAY
  +--> ?PR?_WRITE_ICON?DISPLAY
  +--> ?CO?FORMATGPS
  +--> ?PR?_WRITE_TEXT?DISPLAY
  +--> ?PR?_WRITE_BIG_TEXT?DISPLAY
  +--> ?PR?_UNPACK_VELOCITIES?TIMER
  +--> ?PR?SQRT?SQRT
  +--> ?PR?PRINTF?PRINTF

?PR?WRITEINPUTS?FORMATGPS                        -----    -----      0039H    0004H      -----    -----      18A5H    00
>> 1AH
  +--> ?PR?FORMATGPS
  +--> ?CO?FORMATGPS
  +--> ?PR?PRINTF?PRINTF
  +--> ?PR?_WRITE_TEXT?DISPLAY

?PR?_DATAFLASH_BUFFER_WRITE?DATAFLASH            -----    -----      0039H    000DH      -----    -----      -----    --
>> ---
  +--> ?PR?DATAFLASH_READ_STATUS?DATAFLASH
  +--> ?PR?_XFERSPI?CYGFX120

?PR?SWALLOW_MESSAGE?DISPLAYUNIT                  -----    -----      -----    -----      -----    -----      1864H    00
>> 03H
  +--> ?PR?DISPLAYUNIT
  +--> ?PR?_PARSE_MESSAGE?MESSAGE

?PR?_UART_INIT?CYGFX120                          -----    -----      0024H    0008H      -----    -----      -----    --
>> ---

?C_INITSEG                                       -----    -----      -----    -----      -----    -----      -----    --
>> ---
  +--> ?CO?DISPLAYUNIT
  +--> ?PR?_REVIEW?MENU
  +--> ?PR?_STATUS?MENU
  +--> ?PR?_DONTCLEAR?MENU
  +--> ?PR?_CLEARSTART?MENU

?PR?_STATUS?MENU                                 -----    -----      0024H    0005H      -----    -----      1833H    00
BL51 BANKED LINKER/LOCATER V6.22                                                      11/30/2014  18:01:41  PAGE 25


>> 0CH
  +--> ?CO?DISPLAYUNIT
  +--> ?PR?MENU
  +--> ?PR?_DATAFLASH_PAGE_READ?DATAFLASH
  +--> ?PR?C?IMUL_F120
  +--> ?CO?MENU
  +--> ?PR?PRINTF?PRINTF

?PR?_CLEARSTART?MENU                             -----    -----      0024H    0003H      -----    -----      -----    --
>> ---
  +--> ?PR?MENU
  +--> ?PR?_DATAFLASH_PAGE_WRITE_ERASE?DATAF...
  +--> ?PR?_DATAFLASH_PAGE_READ?DATAFLASH
  +--> ?PR?_IDLE?MENU
  +--> ?PR?_MARKSTART?MENU
  +--> ?PR?_WRITE_SCREEN?DISPLAY



SYMBOL TABLE OF MODULE:  DisplayUnit (DISPLAY)

  VALUE           TYPE          NAME
  ----------------------------------

  -------         MODULE        DISPLAY
  C:0000H         SYMBOL        _ICE_DUMMY_
  D:0080H         PUBLIC        P0
  D:0090H         PUBLIC        P1
  D:00A0H         PUBLIC        P2
  B:00C8H.0       PUBLIC        A0_DISP
  D:00BCH         PUBLIC        ADC0CF
  D:00B0H         PUBLIC        P3
  D:00C8H         PUBLIC        P4
  D:00D8H         PUBLIC        P5
  C:F2F7H         PUBLIC        RESET_TOP_LINE
  D:00E8H         PUBLIC        P6
  D:00F8H         PUBLIC        P7
  B:00C8H.1       PUBLIC        E1_DISP
  B:00C8H.2       PUBLIC        E2_DISP
  C:E250H         PUBLIC        _WRITE_BIG_TEXT
  D:00E8H         PUBLIC        ADC0CN
  D:0084H         PUBLIC        SFRPAGE
  B:00C8H.4       PUBLIC        RST_DISP
  D:00A4H         PUBLIC        P0MDOUT
  D:00A5H         PUBLIC        P1MDOUT
  C:DBF1H         PUBLIC        _WRITE_MED_TEXT
  D:00A6H         PUBLIC        P2MDOUT
  D:00A7H         PUBLIC        P3MDOUT
  D:009CH         PUBLIC        P4MDOUT
  D:009DH         PUBLIC        P5MDOUT
  D:00FCH         PUBLIC        PCA0CPH0
  D:009EH         PUBLIC        P6MDOUT
  D:009FH         PUBLIC        P7MDOUT
  C:DE26H         PUBLIC        _WRITE_TEXT
  D:00FBH         PUBLIC        PCA0CPL0
  D:00DAH         PUBLIC        PCA0CPM0
  D:00D9H         PUBLIC        PCA0MD
BL51 BANKED LINKER/LOCATER V6.22                                                      11/30/2014  18:01:41  PAGE 26


  D:00D8H         PUBLIC        PCA0CN
  D:00DBH         PUBLIC        PCA0CPM1
  D:00E1H         PUBLIC        XBR0
  D:00E2H         PUBLIC        XBR1
  D:00E3H         PUBLIC        XBR2
  D:00D1H         PUBLIC        REF0CN
  D:00BAH         PUBLIC        AMX0CF
  D:00ADH         PUBLIC        P1MDIN
  C:DFC7H         PUBLIC        PORT_INIT_DU
  D:00BBH         PUBLIC        AMX0SL
  C:ECA3H         PUBLIC        _READ_DISPLAY
  B:00C8H.3       PUBLIC        RW_DISP
  C:DB61H         PUBLIC        _WRITE_DISPLAY
  C:D994H         PUBLIC        DISPLAY_INIT
  C:F230H         PUBLIC        _INFO_SCREEN
  C:E152H         PUBLIC        _WRITE_SCREEN
  C:E1D2H         PUBLIC        _FULL_SCREEN
  C:DEB1H         PUBLIC        _WRITE_BIG_LINE
  C:D851H         PUBLIC        _WRITE_LINE
  C:A92EH         PUBLIC        _WRITE_ICON
  C:C550H         SYMBOL        COM0093
  C:C550H         SYMBOL        L?0148
  C:C56CH         SYMBOL        L?0149
  C:C575H         SYMBOL        L?0150
  C:C5A7H         SYMBOL        L?0151
  C:C5A9H         SYMBOL        L?0152
  C:C5B7H         SYMBOL        L?0153
  C:C5D2H         SYMBOL        L?0155
  C:C5D6H         SYMBOL        L?0156
  C:C5DDH         SYMBOL        L?0157
  C:C5E3H         SYMBOL        L?0158
  C:C5ECH         SYMBOL        L?0159
  C:C5EFH         SYMBOL        L?0160
  C:C5F0H         SYMBOL        L?0161
  C:C5F8H         SYMBOL        L?0162
  C:C600H         SYMBOL        L?0163
  C:C607H         SYMBOL        L?0164
  C:C609H         SYMBOL        L?0165
  C:C611H         SYMBOL        L?0166
  C:C613H         SYMBOL        L?0167
  C:C61BH         SYMBOL        L?0169
  C:C627H         SYMBOL        L?0170
  C:C633H         SYMBOL        L?0171
  C:C633H         SYMBOL        L?0172
  C:C63AH         SYMBOL        L?0173
  C:C63AH         SYMBOL        L?0174
  C:C642H         SYMBOL        L?0177
  C:C642H         SYMBOL        L?0178
  C:C649H         SYMBOL        L?0179
  C:C649H         SYMBOL        L?0180
  C:C650H         SYMBOL        L?0181
  C:C650H         SYMBOL        L?0182
  C:C657H         SYMBOL        L?0183
  C:C661H         SYMBOL        L?0184
  C:C66BH         SYMBOL        L?0185
  C:C674H         SYMBOL        L?0186
  C:C67EH         SYMBOL        L?0187
BL51 BANKED LINKER/LOCATER V6.22                                                      11/30/2014  18:01:41  PAGE 27


  C:C687H         SYMBOL        L?0188
  -------         PROC          COM0093
  -------         ENDPROC       COM0093
  -------         PROC          PORT_INIT_DU
  D:0024H         SYMBOL        SFRPAGE_SAVE
  -------         ENDPROC       PORT_INIT_DU
  C:DA1AH         SYMBOL        L?0154
  C:DA24H         SYMBOL        L?0168
  C:DA2CH         SYMBOL        L?0175
  -------         PROC          DISPLAY_INIT
  X:1864H         SYMBOL        ZZZ
  X:1868H         SYMBOL        ZZZ
  D:0024H         SYMBOL        SFRPAGE_SAVE
  -------         ENDPROC       DISPLAY_INIT
  -------         PROC          _WRITE_DISPLAY
  D:0072H         SYMBOL        COMMAND
  D:0073H         SYMBOL        DAT
  D:0074H         SYMBOL        SIDE
  D:0007H         SYMBOL        STATUS
  D:0075H         SYMBOL        TIMEOUT
  D:0077H         SYMBOL        SFRPAGE_SAVE
  -------         ENDPROC       _WRITE_DISPLAY
  -------         PROC          _READ_DISPLAY
  D:0007H         SYMBOL        COMMAND
  D:0005H         SYMBOL        SIDE
  D:0004H         SYMBOL        RETURN_BYTE
  D:0006H         SYMBOL        SFRPAGE_SAVE
  -------         ENDPROC       _READ_DISPLAY
  -------         PROC          _WRITE_SCREEN
  D:004DH         SYMBOL        BITMAP
  D:0050H         SYMBOL        OPERATION
  D:0051H         SYMBOL        PAGE
  D:0052H         SYMBOL        COLUMN
  D:0054H         SYMBOL        SIDE
  -------         ENDPROC       _WRITE_SCREEN
  -------         PROC          _WRITE_ICON
  D:0056H         SYMBOL        LOCX
  D:0058H         SYMBOL        LOCY
  D:005AH         SYMBOL        SIZEX
  D:005CH         SYMBOL        SIZEY
  D:005EH         SYMBOL        BITMAP
  D:0061H         SYMBOL        OPERATION
  X:1F3EH         SYMBOL        SAVEMASK
  D:0062H         SYMBOL        PAGE
  D:0063H         SYMBOL        COLUMN
  D:0065H         SYMBOL        SIDE
  D:0066H         SYMBOL        STARTCOLUMN
  D:0068H         SYMBOL        ENDCOLUMN
  D:006AH         SYMBOL        STARTPAGE
  D:006BH         SYMBOL        ENDPAGE
  D:006CH         SYMBOL        STARTSIDE
  D:006DH         SYMBOL        ICONROW
  X:1F3FH         SYMBOL        BITOFFSET
  D:006EH         SYMBOL        TEMPDATA
  D:006FH         SYMBOL        UPPERMASK
  D:0070H         SYMBOL        LOWERMASK
  D:0071H         SYMBOL        RCVDATA
BL51 BANKED LINKER/LOCATER V6.22                                                      11/30/2014  18:01:41  PAGE 28


  C:F2A0H         SYMBOL        MASK1
  C:F2A8H         SYMBOL        MASK3
  C:F2B0H         SYMBOL        MASK2
  -------         ENDPROC       _WRITE_ICON
  C:E248H         SYMBOL        L?0176
  -------         PROC          _FULL_SCREEN
  D:0050H         SYMBOL        DAT
  D:0051H         SYMBOL        PAGE
  D:0052H         SYMBOL        COLUMN
  D:0054H         SYMBOL        SIDE
  -------         ENDPROC       _FULL_SCREEN
  -------         PROC          _WRITE_LINE
  D:0039H         SYMBOL        LINENUM
  D:003AH         SYMBOL        LINETEXT
  D:003DH         SYMBOL        SCROLL
  D:003EH         SYMBOL        OPERATION
  D:003FH         SYMBOL        I
  -------         ENDPROC       _WRITE_LINE
  -------         PROC          _WRITE_TEXT
  D:0050H         SYMBOL        LINENUM
  D:0005H         SYMBOL        COLNUM
  D:0052H         SYMBOL        LINETEXT
  D:0055H         SYMBOL        OPERATION
  X:1F3CH         SYMBOL        I
  -------         ENDPROC       _WRITE_TEXT
  -------         PROC          _WRITE_BIG_LINE
  D:004DH         SYMBOL        LINENUM
  D:004EH         SYMBOL        LINETEXT
  D:0051H         SYMBOL        SCROLL
  D:0052H         SYMBOL        OPERATION
  D:0053H         SYMBOL        I
  -------         ENDPROC       _WRITE_BIG_LINE
  -------         PROC          _WRITE_BIG_TEXT
  D:004AH         SYMBOL        LINENUM
  D:0005H         SYMBOL        COLNUM
  D:004CH         SYMBOL        LINETEXT
  D:004FH         SYMBOL        OPERATION
  D:0050H         SYMBOL        I
  -------         ENDPROC       _WRITE_BIG_TEXT
  -------         PROC          _WRITE_MED_TEXT
  D:004DH         SYMBOL        ROWNUM
  D:0005H         SYMBOL        COLNUM
  D:004FH         SYMBOL        LINETEXT
  D:0052H         SYMBOL        OPERATION
  D:0053H         SYMBOL        I
  -------         ENDPROC       _WRITE_MED_TEXT
  -------         PROC          RESET_TOP_LINE
  -------         ENDPROC       RESET_TOP_LINE
  -------         PROC          _INFO_SCREEN
  D:0047H         SYMBOL        INFOTEXT
  -------         ENDPROC       _INFO_SCREEN
  -------         ENDMOD        DISPLAY

  -------         MODULE        DISPLAYUNIT
  C:0000H         SYMBOL        _ICE_DUMMY_
  X:0000H         PUBLIC        TOPLINE
  D:0090H         PUBLIC        P1
BL51 BANKED LINKER/LOCATER V6.22                                                      11/30/2014  18:01:41  PAGE 29


  C:0537H         PUBLIC        UNITLIST
  D:00FFH         PUBLIC        WDTCN
  C:0905H         PUBLIC        GRAPHBCKGND
  D:00B0H         PUBLIC        P3
  X:0001H         PUBLIC        DRIVERS
  D:00C8H         PUBLIC        P4
  B:00D8H.6       PUBLIC        ONOFF_SW
  D:00D8H         PUBLIC        P5
  B:00A8H.7       PUBLIC        EA
  D:00F8H         PUBLIC        P7
  X:000EH         PUBLIC        _BUTTON_OVERLAY
  X:0023H         PUBLIC        SESSION
  D:0084H         PUBLIC        SFRPAGE
  X:0024H         PUBLIC        TRACKS
  C:2BACH         PUBLIC        CRC16_TABLE
  X:0031H         PUBLIC        IOBYTE
  C:072FH         PUBLIC        TRAQMATEICON
  X:0033H         PUBLIC        CONFIRMATION
  X:0048H         PUBLIC        TRAQDATACONNECTED
  X:0049H         PUBLIC        SECTOR
  X:0149H         PUBLIC        SESSSTARTWEEKS
  C:EEE8H         PUBLIC        SWALLOW_MESSAGE
  C:0592H         PUBLIC        TRACKLENLIST
  X:014BH         PUBLIC        STARTSCREENCHOICES
  C:246EH         PUBLIC        LARGEASCII
  C:2B3EH         PUBLIC        FLAG
  X:0158H         PUBLIC        SESSENDWEEKS
  X:015AH         PUBLIC        MAINMENULIST
  C:0CE5H         PUBLIC        CAMNOTREADY
  X:0184H         PUBLIC        DRAGNUMBERS
  C:2B16H         PUBLIC        MEDL
  X:019DH         PUBLIC        OTHER
  X:01AAH         PUBLIC        SESSSTARTTIME
  X:01AEH         PUBLIC        UNITCHOICES
  X:01BBH         PUBLIC        REFSECTORNUM
  C:61C5H         PUBLIC        MAIN
  C:0B67H         PUBLIC        CLEARTOPBOT
  X:01BCH         PUBLIC        STARTFINMENU
  X:01C9H         PUBLIC        SU_HW
  C:2293H         PUBLIC        SMALLASCII
  C:06B1H         PUBLIC        COLLECTLIST
  C:05C3H         PUBLIC        CAMERALIST
  X:01CAH         PUBLIC        SESSENDTIME
  X:01CEH         PUBLIC        GCNT
  X:01D0H         PUBLIC        SECONDTICK
  X:01D2H         PUBLIC        STARTFINLIST
  C:0BE1H         PUBLIC        REVERSEARROW
  X:01D9H         PUBLIC        FLASHPAGE
  X:03E9H         PUBLIC        CURSECTORNUM
  C:20ABH         PUBLIC        INFOSCREEN
  X:03EAH         PUBLIC        WAITFORCAM
  X:03EBH         PUBLIC        TIMINGMODE
  X:03ECH         PUBLIC        SU_SW
  X:03EEH         PUBLIC        SETUP
  X:03FBH         PUBLIC        LAPSETTINGS
  X:0408H         PUBLIC        DETAILLIST
  C:1AF3H         PUBLIC        PREDICTIVE
BL51 BANKED LINKER/LOCATER V6.22                                                      11/30/2014  18:01:41  PAGE 30


  C:0CF5H         PUBLIC        CAMRECORD
  C:2B52H         PUBLIC        BLANKICON
  C:04FFH         PUBLIC        SESSMENULIST
  X:0447H         PUBLIC        GRAPHRATIO
  C:168DH         PUBLIC        DRAGSTAGE
  C:12BDH         PUBLIC        END
  C:1A51H         PUBLIC        TIMINGICON
  C:0811H         PUBLIC        REVERSEBAR
  B:00D8H.0       PUBLIC        LITE_SW
  X:044BH         PUBLIC        TRACKLENCHOICES
  X:0458H         PUBLIC        CLOCKTICK
  X:045AH         PUBLIC        LAP
  X:04CAH         PUBLIC        CURRENTCAR
  X:04D0H         PUBLIC        IOPAGECNT
  X:04D2H         PUBLIC        COM
  C:2A9EH         PUBLIC        MEDDIGITS
  X:04F6H         PUBLIC        SESSIONMENU
  C:088BH         PUBLIC        CLEARBAR
  X:0503H         PUBLIC        NEXTSECOND
  X:0505H         PUBLIC        IOCOLLECT
  X:0506H         PUBLIC        DOP
  C:051BH         PUBLIC        SAMPLELIST
  X:0508H         PUBLIC        SECONDCNT
  C:2B22H         PUBLIC        MEDSPACE
  C:2A9AH         PUBLIC        SMALLBOLDPERIOD
  X:050AH         PUBLIC        DIGITALSCALING
  C:2A5EH         PUBLIC        SMALLBOLDDIGITS
  C:0568H         PUBLIC        SCALELIST
  X:0552H         PUBLIC        DEBOUNCE
  C:0CD5H         PUBLIC        CAMREADY
  C:054CH         PUBLIC        LAPSETLIST
  C:1EC3H         PUBLIC        AUTOXSTAGE
  C:1CDBH         PUBLIC        AUTOXREADY
  C:04F0H         PUBLIC        STATUSTITLE
  X:0560H         PUBLIC        MENUNAMES
  X:06DAH         PUBLIC        SU_PRESENT
  X:06DBH         PUBLIC        CAMERACHOICES
  C:0AEDH         PUBLIC        CLEARBOT
  X:06E8H         PUBLIC        NEW_MODE
  C:0EEDH         PUBLIC        FINDSTART
  X:06E9H         PUBLIC        SAMPRATES
  X:06F6H         PUBLIC        TRACKSAMPLEDIST
  C:04ECH         PUBLIC        MSGROUTING
  C:1961H         PUBLIC        GO
  X:06F8H         PUBLIC        VEHICLES
  X:0705H         PUBLIC        FIRSTPULSE
  C:05AEH         PUBLIC        AUTOONLIST
  X:0706H         PUBLIC        MSGRXBUFF
  B:00F8H.6       PUBLIC        BACKLITEDS
  X:0F7AH         PUBLIC        ANALOGSCALING
  X:101AH         PUBLIC        MSGTXBUFF
  X:1454H         PUBLIC        PAGESIZE
  C:09F9H         PUBLIC        CLEARDN
  X:1456H         PUBLIC        SEEKHDG
  X:1458H         PUBLIC        MAINMENU
  C:0A73H         PUBLIC        CLEARTOP
  C:1875H         PUBLIC        READYTEXT
BL51 BANKED LINKER/LOCATER V6.22                                                      11/30/2014  18:01:41  PAGE 31


  X:1465H         PUBLIC        DRAGLIGHTTIMER
  X:1467H         PUBLIC        OUTSTANDING_MSG
  X:146AH         PUBLIC        ALLINPUTS
  C:2B2EH         PUBLIC        MINUSSIGN
  D:00EFH         PUBLIC        RSTSRC
  X:1471H         PUBLIC        CLEARSF
  C:070CH         PUBLIC        OTHERLIST
  C:1A4DH         PUBLIC        STOPLIGHT
  X:147EH         PUBLIC        SU_DATA
  X:1480H         PUBLIC        NUMPAGES
  X:1482H         PUBLIC        PAGECNT
  X:1484H         PUBLIC        TM_STATE
  X:1485H         PUBLIC        SESSIONMENUTITLE
  X:1490H         PUBLIC        COLLECT
  X:149DH         PUBLIC        DETAILS
  X:14AAH         PUBLIC        MENULISTS
  X:1544H         PUBLIC        CTS
  X:1547H         PUBLIC        SCRATCH
  X:15C7H         PUBLIC        SEEKLAT
  X:15CBH         PUBLIC        LASTDIST
  X:15CDH         PUBLIC        SAMPS_PER_SEC
  C:14A5H         PUBLIC        WAITFORCAMERA
  X:15CEH         PUBLIC        SCALECHOICES
  C:0C5BH         PUBLIC        MENUBAR
  C:0D05H         PUBLIC        FINDGPS
  C:10D5H         PUBLIC        STARTFIN
  C:097FH         PUBLIC        CLEARUP
  X:15DBH         PUBLIC        MODE_CHANGE
  X:15DDH         PUBLIC        CONFIRM
  C:0648H         PUBLIC        SETUPLIST
  C:0602H         PUBLIC        STARTSCREENLIST
  X:15EAH         PUBLIC        SEEKLON
  X:15EEH         PUBLIC        SU_WEEK
  X:15EFH         PUBLIC        GPSLOCK
  X:15F0H         PUBLIC        CAMREADYTICK
  C:2B36H         PUBLIC        PLUSSIGN
  X:15F2H         PUBLIC        SESSIONS
  X:15FFH         PUBLIC        SU_YEAR
  X:1600H         PUBLIC        CAMLANCSTATUS
  X:1601H         PUBLIC        CLEARCONFIRM
  X:1616H         PUBLIC        AUTOONCHOICES
  X:1623H         PUBLIC        LAPLIST
  C:D18BH         SYMBOL        COM0079
  C:D18BH         SYMBOL        L?0122
  C:D195H         SYMBOL        L?0123
  C:D1A0H         SYMBOL        L?0124
  C:D1ABH         SYMBOL        L?0125
  C:D1B0H         SYMBOL        L?0126
  C:D1B4H         SYMBOL        L?0127
  C:D1BAH         SYMBOL        L?0128
  C:D1BFH         SYMBOL        L?0129
  C:D1C6H         SYMBOL        L?0130
  C:D1C6H         SYMBOL        L?0131
  C:D1D2H         SYMBOL        L?0133
  C:D1EEH         SYMBOL        L?0134
  C:D1F1H         SYMBOL        L?0135
  C:D1FAH         SYMBOL        L?0136
BL51 BANKED LINKER/LOCATER V6.22                                                      11/30/2014  18:01:41  PAGE 32


  C:D1FAH         SYMBOL        L?0137
  C:D1FDH         SYMBOL        L?0138
  C:D204H         SYMBOL        L?0140
  C:D21AH         SYMBOL        L?0142
  C:D21AH         SYMBOL        L?0143
  C:D222H         SYMBOL        L?0144
  C:D224H         SYMBOL        L?0145
  C:D22BH         SYMBOL        L?0146
  C:D238H         SYMBOL        L?0147
  C:D238H         SYMBOL        L?0148
  C:D23EH         SYMBOL        L?0149
  C:D24AH         SYMBOL        L?0152
  C:D255H         SYMBOL        L?0154
  C:D25EH         SYMBOL        L?0155
  -------         PROC          COM0079
  -------         ENDPROC       COM0079
  C:6892H         SYMBOL        L?0119
  C:68AFH         SYMBOL        L?0120
  C:68C5H         SYMBOL        L?0132
  C:68D4H         SYMBOL        L?0139
  C:68DFH         SYMBOL        L?0141
  C:68EFH         SYMBOL        L?0150
  C:68FBH         SYMBOL        L?0151
  C:6903H         SYMBOL        L?0153
  C:690EH         SYMBOL        L?0156
  -------         PROC          MAIN
  X:1833H         SYMBOL        ZZZ
  X:1837H         SYMBOL        ZZZ
  X:183BH         SYMBOL        ZZZ
  X:183FH         SYMBOL        ZZZ
  X:1843H         SYMBOL        TMPPTR
  X:1846H         SYMBOL        TMPPTR
  X:1849H         SYMBOL        B
  X:184AH         SYMBOL        COLLECTING
  X:184BH         SYMBOL        I
  X:184DH         SYMBOL        TEMPSTRING
  X:1862H         SYMBOL        FIRSTPULSE
  X:1863H         SYMBOL        MENUINITIALIZED
  -------         ENDPROC       MAIN
  -------         PROC          SWALLOW_MESSAGE
  X:1864H         SYMBOL        TMPPTR
  -------         ENDPROC       SWALLOW_MESSAGE
  -------         ENDMOD        DISPLAYUNIT

  -------         MODULE        FORMATGPS
  C:0000H         SYMBOL        _ICE_DUMMY_
  C:B8E8H         PUBLIC        _WRITERPM
  D:00B0H         PUBLIC        P3
  D:00C8H         PUBLIC        P4
  D:00D8H         PUBLIC        P5
  D:00F8H         PUBLIC        P7
  C:E79DH         PUBLIC        _DOTEMP
  C:9F79H         PUBLIC        _FORMATGAUGES
  C:AF60H         PUBLIC        _WRITECOMPASS
  C:B532H         PUBLIC        _FORMATTIME
  C:CCD5H         SYMBOL        _?IX1000
  C:B712H         PUBLIC        WRITEINPUTS
BL51 BANKED LINKER/LOCATER V6.22                                                      11/30/2014  18:01:41  PAGE 33


  C:8D31H         PUBLIC        _FORMATGPS
  C:D593H         PUBLIC        _DODATE
  C:AB55H         SYMBOL        COM00AB
  C:AB55H         SYMBOL        L?0172
  C:AB55H         SYMBOL        L?0173
  C:AB67H         SYMBOL        L?0174
  C:AB70H         SYMBOL        L?0175
  C:AB73H         SYMBOL        L?0176
  C:AB86H         SYMBOL        L?0179
  C:AB89H         SYMBOL        L?0180
  C:AB92H         SYMBOL        L?0181
  C:AB99H         SYMBOL        L?0182
  C:AB9DH         SYMBOL        L?0183
  C:ABA8H         SYMBOL        L?0184
  C:ABA9H         SYMBOL        L?0185
  C:ABB0H         SYMBOL        L?0186
  C:ABB9H         SYMBOL        L?0187
  C:ABC0H         SYMBOL        L?0188
  C:ABDAH         SYMBOL        L?0189
  C:ABDEH         SYMBOL        L?0190
  C:ABE2H         SYMBOL        L?0191
  C:ABEBH         SYMBOL        L?0192
  C:ABF3H         SYMBOL        L?0193
  C:ABF5H         SYMBOL        L?0194
  C:ABFBH         SYMBOL        L?0195
  C:ABFBH         SYMBOL        L?0196
  C:AC0BH         SYMBOL        L?0197
  C:AC16H         SYMBOL        L?0198
  C:AC1EH         SYMBOL        L?0199
  C:AC22H         SYMBOL        L?0200
  C:AC2FH         SYMBOL        L?0202
  C:AC45H         SYMBOL        L?0205
  C:AC50H         SYMBOL        L?0206
  C:AC56H         SYMBOL        L?0207
  C:AC56H         SYMBOL        L?0208
  C:AC61H         SYMBOL        L?0210
  C:AC61H         SYMBOL        L?0211
  C:AC6AH         SYMBOL        L?0212
  C:AC6AH         SYMBOL        L?0213
  C:AC71H         SYMBOL        L?0214
  C:AC71H         SYMBOL        L?0215
  C:AC78H         SYMBOL        L?0216
  C:AC7AH         SYMBOL        L?0217
  C:AC7BH         SYMBOL        L?0218
  C:AC81H         SYMBOL        L?0219
  C:AC84H         SYMBOL        L?0220
  C:AC8DH         SYMBOL        L?0221
  C:AC9CH         SYMBOL        L?0222
  C:AC9CH         SYMBOL        L?0223
  C:ACA6H         SYMBOL        L?0224
  C:ACA6H         SYMBOL        L?0225
  C:ACADH         SYMBOL        L?0226
  C:ACBCH         SYMBOL        L?0227
  C:ACC9H         SYMBOL        L?0228
  C:ACD6H         SYMBOL        L?0229
  C:ACE2H         SYMBOL        L?0230
  C:ACEEH         SYMBOL        L?0231
BL51 BANKED LINKER/LOCATER V6.22                                                      11/30/2014  18:01:41  PAGE 34


  C:ACF0H         SYMBOL        L?0232
  C:ACF7H         SYMBOL        L?0233
  C:ACF7H         SYMBOL        L?0234
  C:ACFFH         SYMBOL        L?0235
  C:ACFFH         SYMBOL        L?0236
  C:AD06H         SYMBOL        L?0237
  C:AD10H         SYMBOL        L?0238
  C:AD1BH         SYMBOL        L?0239
  C:AD26H         SYMBOL        L?0240
  C:AD31H         SYMBOL        L?0241
  C:AD31H         SYMBOL        L?0242
  C:AD37H         SYMBOL        L?0243
  C:AD37H         SYMBOL        L?0244
  C:AD3EH         SYMBOL        L?0245
  C:AD48H         SYMBOL        L?0246
  C:AD48H         SYMBOL        L?0247
  C:AD4FH         SYMBOL        L?0248
  C:AD4FH         SYMBOL        L?0249
  C:AD56H         SYMBOL        L?0250
  C:AD56H         SYMBOL        L?0251
  -------         PROC          COM00AB
  -------         ENDPROC       COM00AB
  C:9041H         SYMBOL        L?0170
  C:905EH         SYMBOL        L?0178
  C:9072H         SYMBOL        L?0203
  C:907CH         SYMBOL        L?0209
  C:9090H         SYMBOL        L?0252
  -------         PROC          _FORMATGPS
  D:0039H         SYMBOL        GPS
  D:003CH         SYMBOL        MSEC
  D:003EH         SYMBOL        TEXTLINE
  D:0041H         SYMBOL        LINENUM
  D:0046H         SYMBOL        EASTVEL
  D:0048H         SYMBOL        NORTHVEL
  D:004AH         SYMBOL        VERTVEL
  D:004CH         SYMBOL        SPEED
  D:004EH         SYMBOL        HEADING
  X:18A5H         SYMBOL        TEMPTYPE
  X:18A6H         SYMBOL        LAT
  X:18AAH         SYMBOL        LON
  D:0042H         SYMBOL        TEMPFLOAT
  -------         ENDPROC       _FORMATGPS
  C:BAADH         SYMBOL        L?0204
  -------         PROC          _WRITERPM
  D:0039H         SYMBOL        GPS
  D:0042H         SYMBOL        CYL
  D:0042H         SYMBOL        SPEED
  D:003CH         SYMBOL        TEMPFLOAT
  D:0040H         SYMBOL        RPM
  D:0006H         SYMBOL        PERIOD
  X:18A5H         SYMBOL        EASTVEL
  X:18A7H         SYMBOL        NORTHVEL
  X:18A9H         SYMBOL        VERTVEL
  X:18ABH         SYMBOL        TEMPSTRING
  X:18C0H         SYMBOL        WARNING
  -------         ENDPROC       _WRITERPM
  -------         PROC          WRITEINPUTS
BL51 BANKED LINKER/LOCATER V6.22                                                      11/30/2014  18:01:41  PAGE 35


  D:003BH         SYMBOL        CYL
  X:18A5H         SYMBOL        TEMPSTRING
  X:18BAH         SYMBOL        TEMPFLOAT
  X:18BEH         SYMBOL        J
  D:0039H         SYMBOL        RPM
  D:0006H         SYMBOL        PERIOD
  -------         ENDPROC       WRITEINPUTS
  C:A1D6H         SYMBOL        L?0177
  C:A1F3H         SYMBOL        L?0201
  -------         PROC          _FORMATGAUGES
  D:0039H         SYMBOL        STATE
  D:003AH         SYMBOL        J
  D:003BH         SYMBOL        NAMEPTR
  D:003AH         SYMBOL        J
  D:003BH         SYMBOL        WARNING
  X:18A5H         SYMBOL        TEMPSTRING
  X:18BDH         SYMBOL        TEMPFLOAT
  X:18C1H         SYMBOL        TEMP
  -------         ENDPROC       _FORMATGAUGES
  -------         PROC          _WRITECOMPASS
  D:0039H         SYMBOL        GPS
  D:003CH         SYMBOL        TEMPFLOAT
  X:18A5H         SYMBOL        SPEED
  X:18A7H         SYMBOL        EASTVEL
  X:18A9H         SYMBOL        NORTHVEL
  X:18ABH         SYMBOL        VERTVEL
  X:18ADH         SYMBOL        HEADING
  X:18AFH         SYMBOL        TEMPSTRING
  -------         ENDPROC       _WRITECOMPASS
  -------         PROC          _FORMATTIME
  D:0050H         SYMBOL        TIME
  D:0054H         SYMBOL        WEEKS
  D:0056H         SYMBOL        WHATTODO
  D:0057H         SYMBOL        TEXTLINE
  D:005AH         SYMBOL        NEWTIME
  X:1AC0H         SYMBOL        DAY
  X:1AC2H         SYMBOL        MON
  X:1AC4H         SYMBOL        DOW
  X:1AC6H         SYMBOL        YEAR
  X:1AC8H         SYMBOL        DAYS
  X:1ACAH         SYMBOL        HOUR
  X:1ACCH         SYMBOL        MIN
  X:1ACEH         SYMBOL        SEC
  X:1AD0H         SYMBOL        SECS
  -------         ENDPROC       _FORMATTIME
  -------         PROC          _DOTEMP
  D:0007H         SYMBOL        SCALEDTEMP
  D:0050H         SYMBOL        CORF
  X:18BEH         SYMBOL        TEMPERATURE
  -------         ENDPROC       _DOTEMP
  -------         PROC          _DODATE
  D:005EH         SYMBOL        DAY
  D:0061H         SYMBOL        MON
  D:0064H         SYMBOL        YEAR
  D:0067H         SYMBOL        DAYS
  X:1AD4H         SYMBOL        CALENDAR
  -------         ENDPROC       _DODATE
BL51 BANKED LINKER/LOCATER V6.22                                                      11/30/2014  18:01:41  PAGE 36


  -------         ENDMOD        FORMATGPS

  -------         MODULE        MENU
  C:0000H         SYMBOL        _ICE_DUMMY_
  D:00B0H         PUBLIC        P3
  C:E2C5H         PUBLIC        _LOADCAMERAS
  D:00C8H         PUBLIC        P4
  D:00D8H         PUBLIC        P5
  D:00F8H         PUBLIC        P7
  C:F1A2H         PUBLIC        _BACKCONTRAST
  C:BABDH         PUBLIC        DRAW_MENU
  C:5913H         PUBLIC        _COLLECTDATA
  D:0084H         PUBLIC        SFRPAGE
  C:F159H         PUBLIC        _SAVETRACKLEN
  C:E5CAH         PUBLIC        _SAVEPICKLISTS
  C:EA76H         PUBLIC        _DNLAP
  D:00FCH         PUBLIC        PCA0CPH0
  C:DF3CH         PUBLIC        _SAVECAMERAS
  C:F251H         PUBLIC        _REVIEW
  D:00FBH         PUBLIC        PCA0CPL0
  C:D342H         PUBLIC        _STAGE
  C:EEBBH         PUBLIC        _DNGMT
  C:ED8FH         PUBLIC        _DOGMT
  C:BE10H         PUBLIC        _IDLE
  B:00E8H.5       PUBLIC        AD0INT
  C:0026H         PUBLIC        _UPLAP
  C:D268H         PUBLIC        _LOADDRIVERS
  C:96F9H         PUBLIC        _STATUS
  C:CDD9H         PUBLIC        _LOADTRACKS
  C:0076H         PUBLIC        _UPGMT
  C:F309H         PUBLIC        _MARKFINISH
  X:1F40H         SYMBOL        MENU
  C:6FAAH         PUBLIC        _?MENU_OP
  C:EE2DH         PUBLIC        _DNLAPHOLD
  C:BC6AH         PUBLIC        _CLEARSTART
  C:F1C6H         PUBLIC        _LOADAUTOON
  C:F091H         PUBLIC        _SAVESCALE
  C:EC1EH         PUBLIC        _DONTCLEAR
  C:ECE3H         PUBLIC        _CLEARMENU
  C:E9E2H         PUBLIC        _LOADGRAPHSCALE
  C:EFC0H         PUBLIC        _DNCONTRAST
  C:E3ADH         PUBLIC        _SAVEAUTOON
  C:EE5EH         PUBLIC        _ERASEALL
  C:EF14H         PUBLIC        _UPLAPHOLD
  B:00F8H.5       PUBLIC        BACKLITEKB
  C:F26CH         PUBLIC        _BACKLAP
  C:ED1EH         PUBLIC        _ERASESESS
  X:1F43H         SYMBOL        GETBACK
  C:E62EH         PUBLIC        _LOADSAMP
  C:EF6BH         PUBLIC        _LOADSTARTSCREEN
  C:F17EH         PUBLIC        _LOADUNITS
  C:EF96H         PUBLIC        _UPCONTRAST
  B:00F8H.6       PUBLIC        BACKLITEDS
  C:C7B9H         PUBLIC        SESSION_INIT
  C:F2B8H         PUBLIC        _MARKSTART
  C:99FAH         PUBLIC        _DISPLAYDRAGNUMS
  C:F287H         PUBLIC        _PACKMEM
BL51 BANKED LINKER/LOCATER V6.22                                                      11/30/2014  18:01:41  PAGE 37


  C:F10BH         PUBLIC        _SAVESAMP
  C:D416H         PUBLIC        _SESSTITLE
  C:F0BAH         PUBLIC        _SAVESTARTSCREEN
  C:F0E3H         PUBLIC        _SAVEUNITS
  C:EDC5H         PUBLIC        _LAPHOLD
  C:F367H         PUBLIC        _PREVINPUT
  C:EC61H         PUBLIC        _CONTRAST
  C:D646H         PUBLIC        _NEXTINPUT
  C:C8D3H         PUBLIC        _SHOWLAPS
  C:909AH         PUBLIC        _DETAIL
  C:F068H         PUBLIC        _WIPEMEM
  D:00BEH         PUBLIC        ADC0
  B:00E8H.4       PUBLIC        AD0BUSY
  C:CFBCH         PUBLIC        _LOADVEHICLES
  C:EF40H         PUBLIC        _LOADTRACKLEN
  C:6918H         SYMBOL        COM0242
  C:6918H         SYMBOL        L?0579
  C:6918H         SYMBOL        L?0580
  C:6922H         SYMBOL        L?0581
  C:692DH         SYMBOL        L?0582
  C:6936H         SYMBOL        L?0583
  C:6936H         SYMBOL        L?0584
  C:696BH         SYMBOL        L?0585
  C:696FH         SYMBOL        L?0586
  C:6973H         SYMBOL        L?0587
  C:697CH         SYMBOL        L?0589
  C:6982H         SYMBOL        L?0590
  C:6988H         SYMBOL        L?0591
  C:698FH         SYMBOL        L?0592
  C:6998H         SYMBOL        L?0593
  C:69A1H         SYMBOL        L?0595
  C:69C0H         SYMBOL        L?0596
  C:69C4H         SYMBOL        L?0597
  C:69C8H         SYMBOL        L?0598
  C:69CBH         SYMBOL        L?0599
  C:69D2H         SYMBOL        L?0600
  C:69D2H         SYMBOL        L?0601
  C:69D8H         SYMBOL        L?0602
  C:69DDH         SYMBOL        L?0603
  C:69E7H         SYMBOL        L?0604
  C:69F3H         SYMBOL        L?0606
  C:69F5H         SYMBOL        L?0607
  C:69F8H         SYMBOL        L?0608
  C:69FBH         SYMBOL        L?0609
  C:6A02H         SYMBOL        L?0610
  C:6A02H         SYMBOL        L?0611
  C:6A16H         SYMBOL        L?0612
  C:6A1EH         SYMBOL        L?0613
  C:6A1EH         SYMBOL        L?0614
  C:6A21H         SYMBOL        L?0615
  C:6A28H         SYMBOL        L?0616
  C:6A28H         SYMBOL        L?0617
  C:6A3FH         SYMBOL        L?0618
  C:6A40H         SYMBOL        L?0619
  C:6A47H         SYMBOL        L?0620
  C:6A47H         SYMBOL        L?0621
  C:6A68H         SYMBOL        L?0622
BL51 BANKED LINKER/LOCATER V6.22                                                      11/30/2014  18:01:41  PAGE 38


  C:6A71H         SYMBOL        L?0623
  C:6A9DH         SYMBOL        L?0624
  C:6AA5H         SYMBOL        L?0625
  C:6AB1H         SYMBOL        L?0626
  C:6AC2H         SYMBOL        L?0627
  C:6AC9H         SYMBOL        L?0628
  C:6AD0H         SYMBOL        L?0629
  C:6AD6H         SYMBOL        L?0630
  C:6AE1H         SYMBOL        L?0632
  C:6AE5H         SYMBOL        L?0633
  C:6AE6H         SYMBOL        L?0634
  C:6AEDH         SYMBOL        L?0635
  C:6AEFH         SYMBOL        L?0636
  C:6AF5H         SYMBOL        L?0637
  C:6AF5H         SYMBOL        L?0638
  C:6AFAH         SYMBOL        L?0639
  C:6B05H         SYMBOL        L?0640
  C:6B11H         SYMBOL        L?0641
  C:6B15H         SYMBOL        L?0642
  C:6B1BH         SYMBOL        L?0643
  C:6B1BH         SYMBOL        L?0644
  C:6B36H         SYMBOL        L?0645
  C:6B38H         SYMBOL        L?0646
  C:6B3BH         SYMBOL        L?0647
  C:6B43H         SYMBOL        L?0648
  C:6B43H         SYMBOL        L?0649
  C:6B46H         SYMBOL        L?0650
  C:6B4DH         SYMBOL        L?0651
  C:6B4DH         SYMBOL        L?0652
  C:6B59H         SYMBOL        L?0653
  C:6B5FH         SYMBOL        L?0654
  C:6B5FH         SYMBOL        L?0655
  C:6B77H         SYMBOL        L?0656
  C:6B79H         SYMBOL        L?0657
  C:6B7FH         SYMBOL        L?0658
  C:6B7FH         SYMBOL        L?0659
  C:6B86H         SYMBOL        L?0660
  C:6B8DH         SYMBOL        L?0661
  C:6BA1H         SYMBOL        L?0662
  C:6BAEH         SYMBOL        L?0663
  C:6BB2H         SYMBOL        L?0664
  C:6BB8H         SYMBOL        L?0665
  C:6BBAH         SYMBOL        L?0666
  C:6BC0H         SYMBOL        L?0667
  C:6BC0H         SYMBOL        L?0668
  C:6BCBH         SYMBOL        L?0669
  C:6BCBH         SYMBOL        L?0670
  C:6BE0H         SYMBOL        L?0671
  C:6BE0H         SYMBOL        L?0672
  C:6BE6H         SYMBOL        L?0673
  C:6BEFH         SYMBOL        L?0674
  C:6BF5H         SYMBOL        L?0675
  C:6BF5H         SYMBOL        L?0676
  C:6C02H         SYMBOL        L?0677
  C:6C24H         SYMBOL        L?0678
  C:6C2DH         SYMBOL        L?0679
  C:6C33H         SYMBOL        L?0680
BL51 BANKED LINKER/LOCATER V6.22                                                      11/30/2014  18:01:41  PAGE 39


  C:6C47H         SYMBOL        L?0681
  C:6C4DH         SYMBOL        L?0682
  C:6C4FH         SYMBOL        L?0683
  C:6C5FH         SYMBOL        L?0684
  C:6C62H         SYMBOL        L?0685
  C:6C63H         SYMBOL        L?0686
  C:6C6AH         SYMBOL        L?0687
  C:6C6DH         SYMBOL        L?0688
  C:6C75H         SYMBOL        L?0689
  C:6C7DH         SYMBOL        L?0690
  C:6C84H         SYMBOL        L?0691
  C:6C84H         SYMBOL        L?0692
  C:6C95H         SYMBOL        L?0693
  C:6C9DH         SYMBOL        L?0694
  C:6CA3H         SYMBOL        L?0695
  C:6CA3H         SYMBOL        L?0696
  C:6CB3H         SYMBOL        L?0697
  C:6CB3H         SYMBOL        L?0698
  C:6CB4H         SYMBOL        L?0699
  C:6CB6H         SYMBOL        L?0700
  C:6CBDH         SYMBOL        L?0701
  C:6CBDH         SYMBOL        L?0702
  C:6CCCH         SYMBOL        L?0703
  C:6CCCH         SYMBOL        L?0704
  C:6CD0H         SYMBOL        L?0705
  C:6CD6H         SYMBOL        L?0706
  C:6CD6H         SYMBOL        L?0707
  C:6CDEH         SYMBOL        L?0708
  C:6CDEH         SYMBOL        L?0709
  C:6CEAH         SYMBOL        L?0710
  C:6CF1H         SYMBOL        L?0711
  C:6CF7H         SYMBOL        L?0713
  C:6CF7H         SYMBOL        L?0714
  C:6CFDH         SYMBOL        L?0715
  C:6D06H         SYMBOL        L?0716
  C:6D0FH         SYMBOL        L?0717
  C:6D0FH         SYMBOL        L?0718
  C:6D16H         SYMBOL        L?0719
  C:6D19H         SYMBOL        L?0720
  C:6D25H         SYMBOL        L?0721
  C:6D25H         SYMBOL        L?0722
  C:6D26H         SYMBOL        L?0723
  C:6D2DH         SYMBOL        L?0725
  C:6D43H         SYMBOL        L?0726
  C:6D43H         SYMBOL        L?0727
  C:6D46H         SYMBOL        L?0728
  C:6D4EH         SYMBOL        L?0729
  C:6D4EH         SYMBOL        L?0730
  C:6D51H         SYMBOL        L?0731
  C:6D59H         SYMBOL        L?0732
  C:6D59H         SYMBOL        L?0733
  C:6D66H         SYMBOL        L?0735
  C:6D66H         SYMBOL        L?0736
  C:6D6AH         SYMBOL        L?0737
  C:6D70H         SYMBOL        L?0738
  C:6D71H         SYMBOL        L?0739
  C:6D77H         SYMBOL        L?0740
BL51 BANKED LINKER/LOCATER V6.22                                                      11/30/2014  18:01:41  PAGE 40


  C:6D8BH         SYMBOL        L?0741
  C:6D9EH         SYMBOL        L?0742
  C:6DB1H         SYMBOL        L?0743
  C:6DB7H         SYMBOL        L?0744
  C:6DBEH         SYMBOL        L?0745
  C:6DC1H         SYMBOL        L?0746
  C:6DC8H         SYMBOL        L?0747
  C:6DC8H         SYMBOL        L?0748
  C:6DD3H         SYMBOL        L?0749
  C:6DD3H         SYMBOL        L?0750
  C:6DD4H         SYMBOL        L?0751
  C:6DDBH         SYMBOL        L?0752
  C:6DDFH         SYMBOL        L?0753
  C:6DE5H         SYMBOL        L?0754
  C:6DE6H         SYMBOL        L?0755
  C:6DEEH         SYMBOL        L?0756
  C:6DF5H         SYMBOL        L?0757
  C:6DFBH         SYMBOL        L?0758
  C:6DFBH         SYMBOL        L?0759
  C:6E01H         SYMBOL        L?0760
  C:6E01H         SYMBOL        L?0761
  C:6E07H         SYMBOL        L?0762
  C:6E07H         SYMBOL        L?0763
  C:6E11H         SYMBOL        L?0764
  C:6E11H         SYMBOL        L?0765
  C:6E19H         SYMBOL        L?0766
  C:6E19H         SYMBOL        L?0767
  C:6E21H         SYMBOL        L?0768
  C:6E24H         SYMBOL        L?0769
  C:6E2AH         SYMBOL        L?0770
  C:6E2CH         SYMBOL        L?0771
  C:6E32H         SYMBOL        L?0772
  C:6E40H         SYMBOL        L?0773
  C:6E4EH         SYMBOL        L?0774
  C:6E5CH         SYMBOL        L?0775
  C:6E5CH         SYMBOL        L?0776
  C:6E65H         SYMBOL        L?0777
  C:6E65H         SYMBOL        L?0778
  C:6E6EH         SYMBOL        L?0779
  C:6E6EH         SYMBOL        L?0780
  C:6E77H         SYMBOL        L?0782
  C:6E7DH         SYMBOL        L?0783
  C:6E7DH         SYMBOL        L?0784
  C:6E84H         SYMBOL        L?0785
  C:6E87H         SYMBOL        L?0786
  C:6E8DH         SYMBOL        L?0787
  C:6E8EH         SYMBOL        L?0788
  C:6E96H         SYMBOL        L?0789
  C:6E96H         SYMBOL        L?0790
  C:6E9DH         SYMBOL        L?0791
  C:6E9EH         SYMBOL        L?0792
  C:6EA6H         SYMBOL        L?0793
  C:6EA6H         SYMBOL        L?0794
  C:6EADH         SYMBOL        L?0795
  C:6EB9H         SYMBOL        L?0796
  C:6EB9H         SYMBOL        L?0797
  C:6EC1H         SYMBOL        L?0798
BL51 BANKED LINKER/LOCATER V6.22                                                      11/30/2014  18:01:41  PAGE 41


  C:6ECDH         SYMBOL        L?0799
  C:6ED9H         SYMBOL        L?0800
  C:6EE4H         SYMBOL        L?0801
  C:6EF0H         SYMBOL        L?0802
  C:6EF0H         SYMBOL        L?0803
  C:6EF8H         SYMBOL        L?0804
  C:6EF8H         SYMBOL        L?0805
  C:6F00H         SYMBOL        L?0806
  C:6F0BH         SYMBOL        L?0807
  C:6F15H         SYMBOL        L?0808
  C:6F1FH         SYMBOL        L?0809
  C:6F1FH         SYMBOL        L?0810
  C:6F26H         SYMBOL        L?0811
  C:6F30H         SYMBOL        L?0812
  C:6F30H         SYMBOL        L?0813
  C:6F36H         SYMBOL        L?0814
  C:6F40H         SYMBOL        L?0815
  C:6F4AH         SYMBOL        L?0816
  C:6F4AH         SYMBOL        L?0817
  C:6F51H         SYMBOL        L?0818
  C:6F5AH         SYMBOL        L?0819
  C:6F5AH         SYMBOL        L?0820
  C:6F61H         SYMBOL        L?0821
  C:6F61H         SYMBOL        L?0822
  C:6F68H         SYMBOL        L?0823
  C:6F68H         SYMBOL        L?0824
  C:6F6FH         SYMBOL        L?0825
  C:6F78H         SYMBOL        L?0826
  C:6F78H         SYMBOL        L?0827
  C:6F7FH         SYMBOL        L?0828
  C:6F88H         SYMBOL        L?0829
  C:6F88H         SYMBOL        L?0830
  C:6F8FH         SYMBOL        L?0831
  C:6F8FH         SYMBOL        L?0832
  C:6F96H         SYMBOL        L?0833
  C:6FA0H         SYMBOL        L?0834
  -------         PROC          COM0242
  -------         ENDPROC       COM0242
  -------         PROC          SESSION_INIT
  X:18AEH         SYMBOL        FLASHPAGE
  X:1ABEH         SYMBOL        I
  X:1ABFH         SYMBOL        J
  -------         ENDPROC       SESSION_INIT
  -------         PROC          _?MENU_OP
  i:0007H         SYMBOL        OPERATION
  i:0008H         SYMBOL        BUTTON
  i:0005H         SYMBOL        RETRY
  i:0004H         SYMBOL        STATUS
  i:0000H         SYMBOL        TEMP
  i:0001H         SYMBOL        MENUPTR
  D:001CH         SYMBOL        FIRSTTIME
  -------         ENDPROC       _?MENU_OP
  C:BC5CH         SYMBOL        L?0781
  -------         PROC          DRAW_MENU
  X:18A5H         SYMBOL        I
  X:18A6H         SYMBOL        ATTRIB
  X:18A7H         SYMBOL        ICON
BL51 BANKED LINKER/LOCATER V6.22                                                      11/30/2014  18:01:41  PAGE 42


  X:18AAH         SYMBOL        TEMP
  -------         ENDPROC       DRAW_MENU
  C:6194H         SYMBOL        L?0712
  C:61AEH         SYMBOL        L?0724
  -------         PROC          _COLLECTDATA
  D:0041H         SYMBOL        MENU
  X:18ADH         SYMBOL        FOUND
  X:18AEH         SYMBOL        CHECKBITS
  X:18AFH         SYMBOL        I
  D:0044H         SYMBOL        INDEX
  D:0044H         SYMBOL        I
  X:18B1H         SYMBOL        STOREDATA
  X:18B2H         SYMBOL        SAMPRATE
  -------         ENDPROC       _COLLECTDATA
  -------         PROC          _ERASEALL
  D:0041H         SYMBOL        MENU
  -------         ENDPROC       _ERASEALL
  -------         PROC          _WIPEMEM
  D:0041H         SYMBOL        MENU
  -------         ENDPROC       _WIPEMEM
  -------         PROC          _PACKMEM
  D:0041H         SYMBOL        MENU
  -------         ENDPROC       _PACKMEM
  -------         PROC          _SAVEPICKLISTS
  D:0044H         SYMBOL        MENU
  X:1AC1H         SYMBOL        FLASHPAGE
  -------         ENDPROC       _SAVEPICKLISTS
  -------         PROC          _SAVESAMP
  D:0041H         SYMBOL        MENU
  -------         ENDPROC       _SAVESAMP
  -------         PROC          _LOADDRIVERS
  D:0041H         SYMBOL        MENU
  X:18ADH         SYMBOL        FLASHPAGE
  X:1ABDH         SYMBOL        I
  X:1ABFH         SYMBOL        J
  -------         ENDPROC       _LOADDRIVERS
  -------         PROC          _LOADVEHICLES
  D:0041H         SYMBOL        MENU
  X:18ADH         SYMBOL        FLASHPAGE
  X:1ABDH         SYMBOL        I
  X:1ABFH         SYMBOL        J
  -------         ENDPROC       _LOADVEHICLES
  -------         PROC          _LOADTRACKS
  D:0041H         SYMBOL        MENU
  X:18ADH         SYMBOL        FLASHPAGE
  X:1ABDH         SYMBOL        I
  X:1ABFH         SYMBOL        J
  -------         ENDPROC       _LOADTRACKS
  -------         PROC          _LOADSAMP
  D:0041H         SYMBOL        MENU
  X:18ADH         SYMBOL        FLASHPAGE
  -------         ENDPROC       _LOADSAMP
  -------         PROC          _SAVEUNITS
  D:0041H         SYMBOL        MENU
  -------         ENDPROC       _SAVEUNITS
  -------         PROC          _LOADUNITS
  D:0041H         SYMBOL        MENU
BL51 BANKED LINKER/LOCATER V6.22                                                      11/30/2014  18:01:41  PAGE 43


  -------         ENDPROC       _LOADUNITS
  -------         PROC          _SAVETRACKLEN
  D:0041H         SYMBOL        MENU
  -------         ENDPROC       _SAVETRACKLEN
  -------         PROC          _LOADTRACKLEN
  D:0041H         SYMBOL        MENU
  -------         ENDPROC       _LOADTRACKLEN
  -------         PROC          _SAVESCALE
  D:0041H         SYMBOL        MENU
  -------         ENDPROC       _SAVESCALE
  -------         PROC          _LOADGRAPHSCALE
  D:0041H         SYMBOL        MENU
  -------         ENDPROC       _LOADGRAPHSCALE
  -------         PROC          _REVIEW
  D:0047H         SYMBOL        MENU
  -------         ENDPROC       _REVIEW
  -------         PROC          _SESSTITLE
  D:0044H         SYMBOL        MENU
  X:1AC0H         SYMBOL        I
  X:1AC2H         SYMBOL        N
  -------         ENDPROC       _SESSTITLE
  -------         PROC          _DETAIL
  D:0041H         SYMBOL        MENU
  X:18ADH         SYMBOL        I
  X:18AFH         SYMBOL        DRIVERNUM
  X:18B0H         SYMBOL        TRACKNUM
  X:18B1H         SYMBOL        CARNUM
  X:18B2H         SYMBOL        STARTPAGE
  X:18B4H         SYMBOL        MEM
  X:18B8H         SYMBOL        LAPS
  X:18BAH         SYMBOL        TEMPERATURE
  -------         ENDPROC       _DETAIL
  -------         PROC          _STATUS
  D:0024H         SYMBOL        MENU
  D:0027H         SYMBOL        SFRPAGE_SAVE
  X:1833H         SYMBOL        I
  X:1835H         SYMBOL        MEM
  X:1837H         SYMBOL        SESS
  X:1839H         SYMBOL        HRSLEFT
  D:0028H         SYMBOL        IOBYTES
  X:183DH         SYMBOL        BATVOLT
  -------         ENDPROC       _STATUS
  -------         PROC          _ERASESESS
  D:0041H         SYMBOL        MENU
  X:18ADH         SYMBOL        I
  -------         ENDPROC       _ERASESESS
  -------         PROC          _IDLE
  D:004CH         SYMBOL        MENU
  D:004FH         SYMBOL        SAMPRATE
  D:0050H         SYMBOL        I
  X:18B3H         SYMBOL        TEMPFLASH
  -------         ENDPROC       _IDLE
  -------         PROC          _MARKSTART
  D:0045H         SYMBOL        MENU
  -------         ENDPROC       _MARKSTART
  -------         PROC          _MARKFINISH
  D:004DH         SYMBOL        MENU
BL51 BANKED LINKER/LOCATER V6.22                                                      11/30/2014  18:01:41  PAGE 44


  -------         ENDPROC       _MARKFINISH
  -------         PROC          _CLEARSTART
  D:0024H         SYMBOL        TEMPMENU
  D:0002H         SYMBOL        I
  -------         ENDPROC       _CLEARSTART
  -------         PROC          _DONTCLEAR
  D:0049H         SYMBOL        TEMPMENU
  -------         ENDPROC       _DONTCLEAR
  -------         PROC          _CLEARMENU
  D:0001H         SYMBOL        MENU
  -------         ENDPROC       _CLEARMENU
  -------         PROC          _SHOWLAPS
  D:0041H         SYMBOL        MENU
  X:18ADH         SYMBOL        I
  -------         ENDPROC       _SHOWLAPS
  -------         PROC          _DNLAP
  D:0044H         SYMBOL        MENU
  -------         ENDPROC       _DNLAP
  -------         PROC          _UPLAP
  D:0044H         SYMBOL        MENU
  -------         ENDPROC       _UPLAP
  -------         PROC          _BACKLAP
  D:0044H         SYMBOL        MENU
  -------         ENDPROC       _BACKLAP
  -------         PROC          _PREVINPUT
  D:0001H         SYMBOL        MENU
  -------         ENDPROC       _PREVINPUT
  -------         PROC          _NEXTINPUT
  D:0045H         SYMBOL        MENU
  -------         ENDPROC       _NEXTINPUT
  -------         PROC          _UPCONTRAST
  D:0044H         SYMBOL        MENU
  X:18BAH         SYMBOL        TEMPSTRING
  D:0007H         SYMBOL        SFRPAGE_SAVE
  -------         ENDPROC       _UPCONTRAST
  -------         PROC          _DNCONTRAST
  D:0044H         SYMBOL        MENU
  X:18BAH         SYMBOL        TEMPSTRING
  D:0007H         SYMBOL        SFRPAGE_SAVE
  -------         ENDPROC       _DNCONTRAST
  -------         PROC          _BACKCONTRAST
  D:0044H         SYMBOL        MENU
  -------         ENDPROC       _BACKCONTRAST
  -------         PROC          _CONTRAST
  D:0041H         SYMBOL        MENU
  X:18ADH         SYMBOL        TEMPSTRING
  -------         ENDPROC       _CONTRAST
  -------         PROC          _UPGMT
  D:0044H         SYMBOL        MENU
  X:18BAH         SYMBOL        TEMPSTRING
  -------         ENDPROC       _UPGMT
  -------         PROC          _DNGMT
  D:0044H         SYMBOL        MENU
  X:18BAH         SYMBOL        TEMPSTRING
  -------         ENDPROC       _DNGMT
  -------         PROC          _DOGMT
  D:0041H         SYMBOL        MENU
BL51 BANKED LINKER/LOCATER V6.22                                                      11/30/2014  18:01:41  PAGE 45


  X:18ADH         SYMBOL        TEMPSTRING
  -------         ENDPROC       _DOGMT
  -------         PROC          _UPLAPHOLD
  D:0044H         SYMBOL        MENU
  X:18BAH         SYMBOL        TEMPSTRING
  -------         ENDPROC       _UPLAPHOLD
  -------         PROC          _DNLAPHOLD
  D:0044H         SYMBOL        MENU
  X:18BAH         SYMBOL        TEMPSTRING
  -------         ENDPROC       _DNLAPHOLD
  -------         PROC          _LAPHOLD
  D:0041H         SYMBOL        MENU
  X:18ADH         SYMBOL        TEMPSTRING
  -------         ENDPROC       _LAPHOLD
  -------         PROC          _STAGE
  D:0045H         SYMBOL        MENU
  D:0048H         SYMBOL        I
  -------         ENDPROC       _STAGE
  -------         PROC          _LOADSTARTSCREEN
  D:0041H         SYMBOL        MENU
  -------         ENDPROC       _LOADSTARTSCREEN
  -------         PROC          _SAVESTARTSCREEN
  D:0041H         SYMBOL        MENU
  -------         ENDPROC       _SAVESTARTSCREEN
  -------         PROC          _LOADCAMERAS
  D:0041H         SYMBOL        MENU
  -------         ENDPROC       _LOADCAMERAS
  -------         PROC          _SAVECAMERAS
  D:0041H         SYMBOL        MENU
  -------         ENDPROC       _SAVECAMERAS
  -------         PROC          _LOADAUTOON
  D:0041H         SYMBOL        MENU
  -------         ENDPROC       _LOADAUTOON
  -------         PROC          _SAVEAUTOON
  D:0041H         SYMBOL        MENU
  -------         ENDPROC       _SAVEAUTOON
  C:9C1CH         SYMBOL        L?0588
  C:9C47H         SYMBOL        L?0594
  C:9C72H         SYMBOL        L?0605
  C:9C9DH         SYMBOL        L?0631
  C:9CC8H         SYMBOL        L?0734
  -------         PROC          _DISPLAYDRAGNUMS
  D:004DH         SYMBOL        MENU
  X:1F10H         SYMBOL        WEIGHTLBS
  X:1F14H         SYMBOL        ET
  X:1F18H         SYMBOL        FACTOR
  X:1F1CH         SYMBOL        HP
  X:1F20H         SYMBOL        TEMPFLOAT
  X:1F24H         SYMBOL        TEMPSTRING
  X:1F39H         SYMBOL        TEMPWEIGHT
  X:1F3BH         SYMBOL        HPLOC
  -------         ENDPROC       _DISPLAYDRAGNUMS
  -------         ENDMOD        MENU

  -------         MODULE        TIMER
  C:0000H         SYMBOL        _ICE_DUMMY_
  D:00B0H         PUBLIC        P3
BL51 BANKED LINKER/LOCATER V6.22                                                      11/30/2014  18:01:41  PAGE 46


  C:A6EEH         PUBLIC        _WRITE_QUAL
  D:00C8H         PUBLIC        P4
  D:00D8H         PUBLIC        P5
  D:00F8H         PUBLIC        P7
  C:EB07H         PUBLIC        WRITE_LAP
  C:F1EAH         PUBLIC        LAP_STORE
  C:E0D1H         PUBLIC        _UNPACK_VELOCITIES
  C:E562H         PUBLIC        _COMPUTE_HEADING
  C:4CA9H         PUBLIC        _LAP_CHECK
  C:D4D8H         PUBLIC        SECTOR_STORE
  C:EFEAH         PUBLIC        _WRITE_FLAG
  C:C3F5H         PUBLIC        WRITE_TIMER
  C:7ED7H         SYMBOL        COM00B2
  C:7ED7H         SYMBOL        L?0179
  C:7ED7H         SYMBOL        L?0180
  C:7EF4H         SYMBOL        L?0181
  C:7F04H         SYMBOL        L?0182
  C:7F0CH         SYMBOL        L?0183
  C:7F6CH         SYMBOL        L?0184
  C:7F74H         SYMBOL        L?0185
  C:7F7DH         SYMBOL        L?0186
  C:7F97H         SYMBOL        L?0187
  C:7FA2H         SYMBOL        L?0188
  C:7FA8H         SYMBOL        L?0189
  C:7FB6H         SYMBOL        L?0190
  C:7FC5H         SYMBOL        L?0191
  C:7FCBH         SYMBOL        L?0192
  C:7FDAH         SYMBOL        L?0194
  C:7FDAH         SYMBOL        L?0195
  C:7FF5H         SYMBOL        L?0196
  C:8002H         SYMBOL        L?0197
  C:8002H         SYMBOL        L?0198
  C:8011H         SYMBOL        L?0199
  C:8016H         SYMBOL        L?0200
  C:801DH         SYMBOL        L?0201
  C:801DH         SYMBOL        L?0202
  C:8020H         SYMBOL        L?0203
  C:8029H         SYMBOL        L?0205
  C:8029H         SYMBOL        L?0206
  C:802CH         SYMBOL        L?0207
  C:8035H         SYMBOL        L?0210
  C:8035H         SYMBOL        L?0211
  C:8044H         SYMBOL        L?0212
  C:804DH         SYMBOL        L?0213
  C:805AH         SYMBOL        L?0214
  C:805EH         SYMBOL        L?0215
  C:8064H         SYMBOL        L?0216
  C:806AH         SYMBOL        L?0217
  C:806DH         SYMBOL        L?0218
  C:8073H         SYMBOL        L?0219
  C:8073H         SYMBOL        L?0220
  C:8085H         SYMBOL        L?0221
  C:808BH         SYMBOL        L?0222
  C:8091H         SYMBOL        L?0223
  C:8094H         SYMBOL        L?0224
  C:8097H         SYMBOL        L?0225
  C:80A0H         SYMBOL        L?0227
BL51 BANKED LINKER/LOCATER V6.22                                                      11/30/2014  18:01:41  PAGE 47


  C:80A0H         SYMBOL        L?0228
  C:80ACH         SYMBOL        L?0229
  C:80B0H         SYMBOL        L?0230
  C:80B3H         SYMBOL        L?0231
  C:80BCH         SYMBOL        L?0232
  C:80D4H         SYMBOL        L?0233
  C:80DBH         SYMBOL        L?0235
  C:80E7H         SYMBOL        L?0236
  C:80F2H         SYMBOL        L?0238
  C:8102H         SYMBOL        L?0239
  C:8108H         SYMBOL        L?0240
  C:8108H         SYMBOL        L?0241
  C:8112H         SYMBOL        L?0243
  C:8118H         SYMBOL        L?0244
  C:8120H         SYMBOL        L?0245
  C:812FH         SYMBOL        L?0246
  C:8136H         SYMBOL        L?0247
  C:8139H         SYMBOL        L?0248
  C:8146H         SYMBOL        L?0249
  C:814BH         SYMBOL        L?0250
  C:814EH         SYMBOL        L?0251
  C:8154H         SYMBOL        L?0252
  C:816BH         SYMBOL        L?0253
  C:816EH         SYMBOL        L?0254
  C:8175H         SYMBOL        L?0255
  C:817BH         SYMBOL        L?0256
  C:8181H         SYMBOL        L?0257
  C:8187H         SYMBOL        L?0258
  C:8190H         SYMBOL        L?0259
  C:8190H         SYMBOL        L?0260
  C:8199H         SYMBOL        L?0261
  C:819CH         SYMBOL        L?0262
  C:81A2H         SYMBOL        L?0264
  C:81A6H         SYMBOL        L?0265
  C:81ACH         SYMBOL        L?0266
  C:81BCH         SYMBOL        L?0269
  C:81BCH         SYMBOL        L?0270
  C:81C6H         SYMBOL        L?0271
  C:81C9H         SYMBOL        L?0272
  C:81CFH         SYMBOL        L?0274
  C:81D2H         SYMBOL        L?0275
  C:81D9H         SYMBOL        L?0276
  C:81DBH         SYMBOL        L?0277
  C:81E1H         SYMBOL        L?0278
  C:81E1H         SYMBOL        L?0279
  C:81EAH         SYMBOL        L?0280
  C:81EDH         SYMBOL        L?0281
  C:81F3H         SYMBOL        L?0283
  C:81F3H         SYMBOL        L?0284
  C:81FBH         SYMBOL        L?0285
  C:8207H         SYMBOL        L?0286
  C:8213H         SYMBOL        L?0287
  C:8215H         SYMBOL        L?0288
  C:821CH         SYMBOL        L?0289
  C:8228H         SYMBOL        L?0290
  C:8233H         SYMBOL        L?0291
  C:8233H         SYMBOL        L?0292
BL51 BANKED LINKER/LOCATER V6.22                                                      11/30/2014  18:01:41  PAGE 48


  C:823BH         SYMBOL        L?0293
  C:8246H         SYMBOL        L?0294
  C:8251H         SYMBOL        L?0295
  C:8251H         SYMBOL        L?0296
  C:8258H         SYMBOL        L?0297
  C:8262H         SYMBOL        L?0298
  C:826CH         SYMBOL        L?0299
  C:8275H         SYMBOL        L?0300
  C:827EH         SYMBOL        L?0301
  C:827EH         SYMBOL        L?0302
  C:8284H         SYMBOL        L?0303
  C:828DH         SYMBOL        L?0304
  C:8297H         SYMBOL        L?0305
  -------         PROC          COM00B2
  -------         ENDPROC       COM00B2
  C:C53CH         SYMBOL        L?0242
  C:C546H         SYMBOL        L?0273
  -------         PROC          WRITE_TIMER
  X:1F10H         SYMBOL        TEMP
  X:1F14H         SYMBOL        DISPLAYTIME
  X:1F18H         SYMBOL        DIGITOFFSET
  -------         ENDPROC       WRITE_TIMER
  C:A8AFH         SYMBOL        L?0177
  C:A8F8H         SYMBOL        L?0209
  C:A90DH         SYMBOL        L?0226
  C:A919H         SYMBOL        L?0237
  -------         PROC          _WRITE_QUAL
  D:004DH         SYMBOL        SECTORADD
  X:1F10H         SYMBOL        PLUS
  X:1F11H         SYMBOL        PIXELS
  X:1F13H         SYMBOL        DIGIT1
  X:1F14H         SYMBOL        DIGIT2
  -------         ENDPROC       _WRITE_QUAL
  -------         PROC          WRITE_LAP
  X:1F10H         SYMBOL        TEMPSTRING
  -------         ENDPROC       WRITE_LAP
  -------         PROC          _WRITE_FLAG
  D:0007H         SYMBOL        ON
  -------         ENDPROC       _WRITE_FLAG
  C:581BH         SYMBOL        L?0193
  C:5856H         SYMBOL        L?0204
  C:589AH         SYMBOL        L?0208
  C:58BAH         SYMBOL        L?0234
  C:58CDH         SYMBOL        L?0263
  C:58E0H         SYMBOL        L?0267
  C:58F1H         SYMBOL        L?0268
  C:5902H         SYMBOL        L?0282
  C:5909H         SYMBOL        L?0306
  -------         PROC          _LAP_CHECK
  D:0007H         SYMBOL        OPER
  D:0048H         SYMBOL        GPS
  X:18B3H         SYMBOL        SECTORADD
  D:004BH         SYMBOL        LAPDIST
  D:004BH         SYMBOL        I
  X:18B7H         SYMBOL        DISTANCE
  X:18BBH         SYMBOL        SPEED
  X:18BFH         SYMBOL        OFFSET
BL51 BANKED LINKER/LOCATER V6.22                                                      11/30/2014  18:01:41  PAGE 49


  X:18C3H         SYMBOL        DOFIRSTSTART
  X:18C4H         SYMBOL        DOSTART
  X:18C5H         SYMBOL        DOFINISH
  X:18C6H         SYMBOL        HEADRANGE
  X:18C8H         SYMBOL        DISTRANGE
  X:18CAH         SYMBOL        FDELTALAT
  X:18CEH         SYMBOL        FDELTALON
  X:18D2H         SYMBOL        EASTVEL
  X:18D4H         SYMBOL        NORTHVEL
  X:18D6H         SYMBOL        VERTVEL
  X:18D8H         SYMBOL        SPEED
  X:18DCH         SYMBOL        TEMPFLASH
  X:1AECH         SYMBOL        TEMPFLASH
  D:004BH         SYMBOL        DIGITOFFSET
  X:1CFCH         SYMBOL        TEMPFLASH
  X:1F0CH         SYMBOL        TEMPFLOAT
  D:001DH         SYMBOL        INRANGE
  -------         ENDPROC       _LAP_CHECK
  -------         PROC          LAP_STORE
  -------         ENDPROC       LAP_STORE
  -------         PROC          SECTOR_STORE
  D:0051H         SYMBOL        I
  -------         ENDPROC       SECTOR_STORE
  -------         PROC          _UNPACK_VELOCITIES
  D:004DH         SYMBOL        VELPTR
  D:0050H         SYMBOL        EASTVEL
  D:0053H         SYMBOL        NORTHVEL
  D:0056H         SYMBOL        VERTVEL
  -------         ENDPROC       _UNPACK_VELOCITIES
  -------         PROC          _COMPUTE_HEADING
  D:0050H         SYMBOL        EASTVEL
  D:0004H         SYMBOL        NORTHVEL
  X:1F10H         SYMBOL        TEMPFLOAT
  X:1F14H         SYMBOL        TEMPINT
  -------         ENDPROC       _COMPUTE_HEADING
  -------         ENDMOD        TIMER

  -------         MODULE        CYGFX120
  C:0000H         SYMBOL        _ICE_DUMMY_
  D:009DH         PUBLIC        SPI0CKR
  B:00F8H.0       PUBLIC        SPIEN
  D:008FH         PUBLIC        PLL0FLT
  D:00B0H         PUBLIC        P3
  D:00C8H         PUBLIC        P4
  D:00D8H         PUBLIC        P5
  D:00E7H         PUBLIC        EIE2
  D:00F8H         PUBLIC        P7
  D:008EH         PUBLIC        PLL0MUL
  D:0084H         PUBLIC        SFRPAGE
  D:0096H         PUBLIC        SFRPGCN
  C:F32DH         PUBLIC        _XFERSPI
  D:00CCH         PUBLIC        TMR2
  D:00CCH         PUBLIC        TMR3
  D:0089H         PUBLIC        PLL0CN
  C:F014H         PUBLIC        _TIMER3_INIT
  D:00C9H         PUBLIC        TMR2CF
  D:00C9H         PUBLIC        TMR3CF
BL51 BANKED LINKER/LOCATER V6.22                                                      11/30/2014  18:01:41  PAGE 50


  C:F31BH         PUBLIC        SPIO_INIT
  B:00F8H.7       PUBLIC        SPIF
  C:AD5CH         PUBLIC        _UART_INIT
  D:0089H         PUBLIC        TMOD
  D:00C8H         PUBLIC        TMR2CN
  D:00C8H         PUBLIC        TMR3CN
  D:0097H         PUBLIC        CLKSEL
  D:008AH         PUBLIC        OSCICN
  B:00A8H.4       PUBLIC        ES0
  B:0098H.0       PUBLIC        RI0
  B:0098H.0       PUBLIC        RI1
  B:0098H.1       PUBLIC        TI0
  D:008DH         PUBLIC        TH1
  B:0098H.1       PUBLIC        TI1
  D:008CH         PUBLIC        OSCXCN
  D:008BH         PUBLIC        TL1
  C:E7F4H         PUBLIC        SYSCLK_INIT
  C:CECFH         PUBLIC        T3_ISR
  B:0088H.6       PUBLIC        TR1
  B:00C8H.2       PUBLIC        TR2
  D:00CAH         PUBLIC        RCAP2
  D:00CAH         PUBLIC        RCAP3
  D:0099H         PUBLIC        SBUF0
  C:E743H         PUBLIC        _XMITUART
  D:0099H         PUBLIC        SBUF1
  D:0098H         PUBLIC        SCON0
  D:0098H         PUBLIC        SCON1
  C:B158H         PUBLIC        MSG0_ISR
  C:B345H         PUBLIC        MSG1_ISR
  D:0091H         PUBLIC        SSTA0
  D:009AH         PUBLIC        SPI0CFG
  D:008EH         PUBLIC        CKCON
  D:00B7H         PUBLIC        FLSCL
  D:009BH         PUBLIC        SPI0DAT
  D:008DH         PUBLIC        PLL0DIV
  -------         PROC          _XMITUART
  D:005AH         SYMBOL        HANDLE
  D:0004H         SYMBOL        NUMBYTES
  D:005DH         SYMBOL        SFRPAGE_SAVE
  -------         ENDPROC       _XMITUART
  -------         PROC          _XFERSPI
  D:0007H         SYMBOL        CH
  D:0006H         SYMBOL        SFRPAGE_SAVE
  -------         ENDPROC       _XFERSPI
  -------         PROC          SYSCLK_INIT
  D:0004H         SYMBOL        I
  D:0007H         SYMBOL        SFRPAGE_SAVE
  -------         ENDPROC       SYSCLK_INIT
  -------         PROC          _UART_INIT
  D:0024H         SYMBOL        HANDLE
  D:0027H         SYMBOL        BAUD
  D:002BH         SYMBOL        SFRPAGE_SAVE
  -------         ENDPROC       _UART_INIT
  -------         PROC          SPIO_INIT
  D:0007H         SYMBOL        SFRPAGE_SAVE
  -------         ENDPROC       SPIO_INIT
  -------         PROC          _TIMER3_INIT
BL51 BANKED LINKER/LOCATER V6.22                                                      11/30/2014  18:01:41  PAGE 51


  D:0006H         SYMBOL        COUNTS
  D:0005H         SYMBOL        SFRPAGE_SAVE
  -------         ENDPROC       _TIMER3_INIT
  -------         PROC          MSG0_ISR
  D:0022H         SYMBOL        TEMPCH
  D:0008H         SYMBOL        MSG_STATE
  D:000AH         SYMBOL        MSG_LENGTH
  D:000CH         SYMBOL        CHK
  D:000DH         SYMBOL        INDEX
  D:000FH         SYMBOL        MSGBUFF
  -------         ENDPROC       MSG0_ISR
  -------         PROC          MSG1_ISR
  D:0023H         SYMBOL        TEMPCH
  D:0012H         SYMBOL        MSG_STATE
  D:0014H         SYMBOL        MSG_LENGTH
  D:0016H         SYMBOL        CHK
  D:0017H         SYMBOL        INDEX
  D:0019H         SYMBOL        MSGBUFF
  -------         ENDPROC       MSG1_ISR
  -------         PROC          T3_ISR
  D:0004H         SYMBOL        I
  -------         ENDPROC       T3_ISR
  -------         ENDMOD        CYGFX120

  -------         MODULE        CYGNALFLASH
  C:0000H         SYMBOL        _ICE_DUMMY_
  C:E84BH         PUBLIC        _READSCRATCHPAD
  D:00B0H         PUBLIC        P3
  D:00C8H         PUBLIC        P4
  D:00D8H         PUBLIC        P5
  B:00A8H.7       PUBLIC        EA
  D:00F8H         PUBLIC        P7
  D:008FH         PUBLIC        PSCTL
  D:0084H         PUBLIC        SFRPAGE
  C:E41DH         PUBLIC        _WRITESCRATCHPAD
  C:93D2H         PUBLIC        _INITDUSCRATCHPAD
  D:00B7H         PUBLIC        FLSCL
  C:EE8DH         PUBLIC        ERASESCRATCHPAD
  -------         PROC          _INITDUSCRATCHPAD
  D:0024H         SYMBOL        SU_PRESENT
  X:1864H         SYMBOL        DUSCRATCH
  X:18E4H         SYMBOL        REPROGRAM
  -------         ENDPROC       _INITDUSCRATCHPAD
  -------         PROC          ERASESCRATCHPAD
  D:0007H         SYMBOL        SFRPAGE_SAVE
  I:007AH         SYMBOL        PWRITE
  D:0006H         SYMBOL        EA_SAVE
  -------         ENDPROC       ERASESCRATCHPAD
  -------         PROC          _WRITESCRATCHPAD
  D:0047H         SYMBOL        BUF
  D:004AH         SYMBOL        BUFLEN
  D:004CH         SYMBOL        SFRPAGE_SAVE
  I:007AH         SYMBOL        PWRITE
  D:0007H         SYMBOL        EA_SAVE
  D:004DH         SYMBOL        I
  -------         ENDPROC       _WRITESCRATCHPAD
  -------         PROC          _READSCRATCHPAD
BL51 BANKED LINKER/LOCATER V6.22                                                      11/30/2014  18:01:41  PAGE 52


  D:0039H         SYMBOL        BUF
  D:003CH         SYMBOL        SFRPAGE_SAVE
  D:003DH         SYMBOL        PREAD
  D:003FH         SYMBOL        EA_SAVE
  D:0006H         SYMBOL        I
  -------         ENDPROC       _READSCRATCHPAD
  -------         ENDMOD        CYGNALFLASH

  -------         MODULE        DATAFLASH
  C:0000H         SYMBOL        _ICE_DUMMY_
  D:00B0H         PUBLIC        P3
  D:00C8H         PUBLIC        P4
  D:00D8H         PUBLIC        P5
  D:00F8H         PUBLIC        P7
  C:DD0DH         PUBLIC        _DATAFLASH_PAGE_WRITE_ERASE
  C:EB4EH         PUBLIC        _DATAFLASH_ERASE_BLOCK
  C:DAD0H         PUBLIC        _DATAFLASH_ERASE_RANGE
  B:00F8H.0       PUBLIC        DF_WP
  C:E04EH         PUBLIC        _DATAFLASH_BUFFER_WRITE
  C:EB94H         PUBLIC        _DATAFLASH_ERASE_PAGE
  C:DC7FH         PUBLIC        _DATAFLASH_PAGE_READ
  B:00F8H.1       PUBLIC        DF_CS1
  C:F20EH         PUBLIC        DATAFLASH_READ_STATUS
  C:E89FH         PUBLIC        _DATAFLASH_PAGE_WRITE_FROM_BUFFER_ERASE
  C:DA34H         PUBLIC        _DATAFLASH_INIT
  B:00F8H.2       PUBLIC        DF_RST
  C:E48CH         PUBLIC        _DATAFLASH_BUFFER_CLEAR
  C:F03EH         SYMBOL        COM009D
  C:F03EH         SYMBOL        L?0158
  C:F040H         SYMBOL        L?0159
  C:F046H         SYMBOL        L?0160
  C:F053H         SYMBOL        L?0162
  C:F053H         SYMBOL        L?0163
  C:F05AH         SYMBOL        L?0164
  C:F05AH         SYMBOL        L?0165
  C:F061H         SYMBOL        L?0166
  C:F061H         SYMBOL        L?0167
  -------         PROC          COM009D
  -------         ENDPROC       COM009D
  -------         PROC          _DATAFLASH_PAGE_WRITE_ERASE
  D:0056H         SYMBOL        BUFFNUM
  D:0058H         SYMBOL        BUFSIZE
  D:005AH         SYMBOL        BUFFER
  D:005DH         SYMBOL        PAGENUM
  D:0061H         SYMBOL        Q
  D:0007H         SYMBOL        STATUS
  D:005FH         SYMBOL        I
  -------         ENDPROC       _DATAFLASH_PAGE_WRITE_ERASE
  -------         PROC          _DATAFLASH_PAGE_WRITE_FROM_BUFFER_ERASE
  D:0051H         SYMBOL        BUFFNUM
  D:0053H         SYMBOL        PAGENUM
  D:0055H         SYMBOL        Q
  D:0007H         SYMBOL        STATUS
  -------         ENDPROC       _DATAFLASH_PAGE_WRITE_FROM_BUFFER_ERASE
  -------         PROC          _DATAFLASH_BUFFER_WRITE
  D:0039H         SYMBOL        BUFFNUM
  D:003BH         SYMBOL        BUFSIZE
BL51 BANKED LINKER/LOCATER V6.22                                                      11/30/2014  18:01:41  PAGE 53


  D:003DH         SYMBOL        ADDRESS
  D:003FH         SYMBOL        BUFFER
  D:0044H         SYMBOL        Q
  D:0007H         SYMBOL        STATUS
  D:0042H         SYMBOL        I
  -------         ENDPROC       _DATAFLASH_BUFFER_WRITE
  -------         PROC          _DATAFLASH_BUFFER_CLEAR
  D:004BH         SYMBOL        BUFFNUM
  D:004DH         SYMBOL        BUFSIZE
  D:0051H         SYMBOL        Q
  D:0007H         SYMBOL        STATUS
  D:004FH         SYMBOL        I
  -------         ENDPROC       _DATAFLASH_BUFFER_CLEAR
  -------         PROC          DATAFLASH_READ_STATUS
  D:0063H         SYMBOL        Q
  D:0007H         SYMBOL        DAT
  -------         ENDPROC       DATAFLASH_READ_STATUS
  C:DCFDH         SYMBOL        L?0161
  -------         PROC          _DATAFLASH_PAGE_READ
  D:0056H         SYMBOL        BUFSIZE
  D:0058H         SYMBOL        BUFFER
  D:005BH         SYMBOL        PAGENUM
  D:005FH         SYMBOL        Q
  D:0007H         SYMBOL        STATUS
  D:005DH         SYMBOL        I
  -------         ENDPROC       _DATAFLASH_PAGE_READ
  -------         PROC          _DATAFLASH_ERASE_BLOCK
  D:004DH         SYMBOL        PAGENUM
  D:004FH         SYMBOL        Q
  D:0007H         SYMBOL        STATUS
  -------         ENDPROC       _DATAFLASH_ERASE_BLOCK
  -------         PROC          _DATAFLASH_ERASE_PAGE
  D:004DH         SYMBOL        PAGENUM
  D:004FH         SYMBOL        Q
  D:0007H         SYMBOL        STATUS
  -------         ENDPROC       _DATAFLASH_ERASE_PAGE
  -------         PROC          _DATAFLASH_ERASE_RANGE
  D:0046H         SYMBOL        FIRSTPAGE
  D:0048H         SYMBOL        LASTPAGE
  D:004AH         SYMBOL        SHOWPROGRESS
  X:1CFBH         SYMBOL        TEMPSTRING
  D:004BH         SYMBOL        SEGMENT
  -------         ENDPROC       _DATAFLASH_ERASE_RANGE
  -------         PROC          _DATAFLASH_INIT
  D:0024H         SYMBOL        PAGES
  D:0027H         SYMBOL        PAGEBYTES
  D:002AH         SYMBOL        Q
  D:002AH         SYMBOL        Q
  D:0007H         SYMBOL        STATUS
  -------         ENDPROC       _DATAFLASH_INIT
  -------         ENDMOD        DATAFLASH

  -------         MODULE        FACTORYTEST
  C:0000H         SYMBOL        _ICE_DUMMY_
  D:00B0H         PUBLIC        P3
  D:00C8H         PUBLIC        P4
  D:00D8H         PUBLIC        P5
BL51 BANKED LINKER/LOCATER V6.22                                                      11/30/2014  18:01:41  PAGE 54


  D:00F8H         PUBLIC        P7
  D:0084H         PUBLIC        SFRPAGE
  C:89B1H         PUBLIC        _DATAFLASHTEST
  B:00D8H.1       PUBLIC        SEL_SW
  -------         PROC          _DATAFLASHTEST
  D:0039H         SYMBOL        WHICHTEST
  X:18A5H         SYMBOL        ZZZ
  X:18A9H         SYMBOL        ZZZ
  D:003AH         SYMBOL        SFRPAGE_SAVE
  D:003BH         SYMBOL        PAGENUM
  D:003DH         SYMBOL        I
  D:003FH         SYMBOL        FLASHFAIL
  -------         ENDPROC       _DATAFLASHTEST
  -------         ENDMOD        FACTORYTEST

  -------         MODULE        MESSAGE
  C:0000H         SYMBOL        _ICE_DUMMY_
  D:00B0H         PUBLIC        P3
  D:00C8H         PUBLIC        P4
  D:00D8H         PUBLIC        P5
  D:00F8H         PUBLIC        P7
  D:0084H         PUBLIC        SFRPAGE
  C:2DACH         PUBLIC        _PARSE_MESSAGE
  C:EA2CH         PUBLIC        _VERIFY_CRC
  C:ED58H         PUBLIC        _JUMPCOPY
  C:D8F3H         PUBLIC        _SAVEDOWNLOAD
  B:00F8H.5       PUBLIC        BACKLITEKB
  C:C9DFH         PUBLIC        _SENDMESSAGE
  B:00F8H.6       PUBLIC        BACKLITEDS
  D:00EFH         PUBLIC        RSTSRC
  C:EDFBH         PUBLIC        _SENDNAK
  C:A499H         SYMBOL        COM0127
  C:A499H         SYMBOL        L?0296
  C:A499H         SYMBOL        L?0297
  C:A49FH         SYMBOL        L?0298
  C:A4A5H         SYMBOL        L?0299
  C:A4A8H         SYMBOL        L?0300
  C:A4B1H         SYMBOL        L?0301
  C:A4B1H         SYMBOL        L?0302
  C:A4BBH         SYMBOL        L?0303
  C:A4BEH         SYMBOL        L?0304
  C:A4C2H         SYMBOL        L?0305
  C:A4CBH         SYMBOL        L?0308
  C:A4CCH         SYMBOL        L?0309
  C:A4CFH         SYMBOL        L?0310
  C:A4D1H         SYMBOL        L?0311
  C:A4E1H         SYMBOL        L?0314
  C:A4E1H         SYMBOL        L?0315
  C:A4E8H         SYMBOL        L?0316
  C:A4F1H         SYMBOL        L?0318
  C:A4F7H         SYMBOL        L?0319
  C:A4F9H         SYMBOL        L?0320
  C:A501H         SYMBOL        L?0322
  C:A501H         SYMBOL        L?0323
  C:A504H         SYMBOL        L?0324
  C:A50DH         SYMBOL        L?0326
  C:A50DH         SYMBOL        L?0327
BL51 BANKED LINKER/LOCATER V6.22                                                      11/30/2014  18:01:41  PAGE 55


  C:A519H         SYMBOL        L?0328
  C:A521H         SYMBOL        L?0329
  C:A524H         SYMBOL        L?0330
  C:A52CH         SYMBOL        L?0332
  C:A52FH         SYMBOL        L?0333
  C:A538H         SYMBOL        L?0334
  C:A538H         SYMBOL        L?0335
  C:A53DH         SYMBOL        L?0336
  C:A548H         SYMBOL        L?0337
  C:A548H         SYMBOL        L?0338
  C:A54FH         SYMBOL        L?0339
  C:A54FH         SYMBOL        L?0340
  C:A557H         SYMBOL        L?0341
  C:A557H         SYMBOL        L?0342
  C:A55BH         SYMBOL        L?0343
  C:A563H         SYMBOL        L?0344
  C:A563H         SYMBOL        L?0345
  C:A56CH         SYMBOL        L?0346
  C:A56CH         SYMBOL        L?0347
  C:A575H         SYMBOL        L?0348
  C:A575H         SYMBOL        L?0349
  C:A57DH         SYMBOL        L?0352
  C:A57DH         SYMBOL        L?0353
  C:A585H         SYMBOL        L?0354
  C:A588H         SYMBOL        L?0355
  C:A58FH         SYMBOL        L?0356
  C:A591H         SYMBOL        L?0357
  C:A599H         SYMBOL        L?0358
  C:A5B3H         SYMBOL        L?0359
  C:A5B3H         SYMBOL        L?0360
  C:A5B4H         SYMBOL        L?0361
  C:A5BDH         SYMBOL        L?0362
  C:A5D6H         SYMBOL        L?0363
  C:A5DBH         SYMBOL        L?0364
  C:A5E3H         SYMBOL        L?0365
  C:A5E3H         SYMBOL        L?0366
  C:A5EBH         SYMBOL        L?0368
  C:A5EEH         SYMBOL        L?0369
  C:A5F4H         SYMBOL        L?0370
  C:A5F7H         SYMBOL        L?0371
  C:A5F8H         SYMBOL        L?0372
  C:A600H         SYMBOL        L?0373
  C:A600H         SYMBOL        L?0374
  C:A608H         SYMBOL        L?0375
  C:A618H         SYMBOL        L?0376
  C:A628H         SYMBOL        L?0378
  C:A62AH         SYMBOL        L?0379
  C:A633H         SYMBOL        L?0380
  C:A633H         SYMBOL        L?0381
  C:A63DH         SYMBOL        L?0382
  C:A63EH         SYMBOL        L?0383
  C:A647H         SYMBOL        L?0384
  C:A647H         SYMBOL        L?0385
  C:A650H         SYMBOL        L?0386
  C:A650H         SYMBOL        L?0387
  C:A659H         SYMBOL        L?0388
  C:A659H         SYMBOL        L?0389
BL51 BANKED LINKER/LOCATER V6.22                                                      11/30/2014  18:01:41  PAGE 56


  C:A662H         SYMBOL        L?0391
  C:A662H         SYMBOL        L?0392
  C:A668H         SYMBOL        L?0393
  C:A670H         SYMBOL        L?0394
  C:A67CH         SYMBOL        L?0395
  C:A688H         SYMBOL        L?0397
  C:A693H         SYMBOL        L?0398
  C:A693H         SYMBOL        L?0399
  C:A69BH         SYMBOL        L?0400
  C:A69BH         SYMBOL        L?0401
  C:A6A3H         SYMBOL        L?0402
  C:A6A5H         SYMBOL        L?0403
  C:A6ACH         SYMBOL        L?0404
  C:A6ACH         SYMBOL        L?0405
  C:A6B3H         SYMBOL        L?0406
  C:A6BEH         SYMBOL        L?0407
  C:A6CAH         SYMBOL        L?0408
  C:A6D4H         SYMBOL        L?0409
  C:A6DDH         SYMBOL        L?0410
  C:A6DDH         SYMBOL        L?0411
  C:A6E4H         SYMBOL        L?0412
  -------         PROC          COM0127
  -------         ENDPROC       COM0127
  -------         PROC          _SENDMESSAGE
  D:0051H         SYMBOL        SOURCE
  D:0005H         SYMBOL        DEST
  D:0053H         SYMBOL        OPCODE
  D:0054H         SYMBOL        BYTES
  D:0056H         SYMBOL        CHK
  D:0006H         SYMBOL        I
  D:0057H         SYMBOL        CRC
  D:0059H         SYMBOL        PORT
  -------         ENDPROC       _SENDMESSAGE
  C:3DBEH         SYMBOL        L?0293
  C:3DF0H         SYMBOL        L?0294
  C:3E22H         SYMBOL        L?0306
  C:3E5AH         SYMBOL        L?0307
  C:3E7BH         SYMBOL        L?0312
  C:3EB3H         SYMBOL        L?0313
  C:3EC7H         SYMBOL        L?0317
  C:3EDBH         SYMBOL        L?0321
  C:3EEFH         SYMBOL        L?0325
  C:3EFEH         SYMBOL        L?0331
  C:3F0BH         SYMBOL        L?0350
  C:3F2BH         SYMBOL        L?0351
  C:3F3BH         SYMBOL        L?0367
  C:3F47H         SYMBOL        L?0377
  C:3F58H         SYMBOL        L?0390
  C:3F62H         SYMBOL        L?0396
  -------         PROC          _PARSE_MESSAGE
  D:0024H         SYMBOL        PORT
  D:0025H         SYMBOL        MSGPTR
  D:0030H         SYMBOL        SEGNUM
  D:0030H         SYMBOL        SEGNUM
  D:0030H         SYMBOL        SAVE_STATE
  D:0030H         SYMBOL        SAVE_STATE
  D:0030H         SYMBOL        SAVE_STATE
BL51 BANKED LINKER/LOCATER V6.22                                                      11/30/2014  18:01:41  PAGE 57


  D:0031H         SYMBOL        STARTERASE
  D:0033H         SYMBOL        ENDERASE
  D:0030H         SYMBOL        STATUS
  D:0031H         SYMBOL        RETRY
  D:0030H         SYMBOL        STATUS
  X:1867H         SYMBOL        ZZZ
  X:186BH         SYMBOL        ZZZ
  X:186FH         SYMBOL        TEMPBUF
  D:0030H         SYMBOL        LINENUM
  D:0030H         SYMBOL        I
  X:1885H         SYMBOL        TEMPVAL
  X:1887H         SYMBOL        TEMPBUF
  D:0030H         SYMBOL        CHECKBITS
  D:0031H         SYMBOL        XG
  D:0035H         SYMBOL        YG
  X:189DH         SYMBOL        TEMPXY
  X:189FH         SYMBOL        XCHAR
  X:18A0H         SYMBOL        YCHAR
  D:0028H         SYMBOL        I
  D:002AH         SYMBOL        TMPFROM
  D:002DH         SYMBOL        TMPTO
  X:18A1H         SYMBOL        RETVAL
  X:18A3H         SYMBOL        MSGDATALEN
  -------         ENDPROC       _PARSE_MESSAGE
  -------         PROC          _VERIFY_CRC
  D:0039H         SYMBOL        DAT
  D:003CH         SYMBOL        BYTECOUNT
  D:003EH         SYMBOL        RETVAL
  D:0006H         SYMBOL        DATA_CRC
  -------         ENDPROC       _VERIFY_CRC
  -------         PROC          _SENDNAK
  D:0006H         SYMBOL        DEST
  D:0005H         SYMBOL        REASON
  -------         ENDPROC       _SENDNAK
  -------         PROC          _SAVEDOWNLOAD
  D:0039H         SYMBOL        MSGPTR
  D:003CH         SYMBOL        CKSUM
  D:003FH         SYMBOL        I
  D:0041H         SYMBOL        LEN
  -------         ENDPROC       _SAVEDOWNLOAD
  -------         PROC          _JUMPCOPY
  D:0039H         SYMBOL        LASTPAGE
  X:18A5H         SYMBOL        F
  X:18A8H         SYMBOL        TMPINT
  -------         ENDPROC       _JUMPCOPY
  -------         ENDMOD        MESSAGE

  -------         MODULE        SESSION
  C:0000H         SYMBOL        _ICE_DUMMY_
  D:00B0H         PUBLIC        P3
  D:00C8H         PUBLIC        P4
  D:00D8H         PUBLIC        P5
  D:00F8H         PUBLIC        P7
  C:C10FH         PUBLIC        REPAIR_SESSIONS
  C:CAE6H         PUBLIC        _ERASE_SESSION
  C:82A1H         PUBLIC        _PACK_SESSIONS
  C:E6C3H         SYMBOL        _?IX1000
BL51 BANKED LINKER/LOCATER V6.22                                                      11/30/2014  18:01:41  PAGE 58


  C:E6CBH         SYMBOL        _?IX1001
  C:E6D0H         SYMBOL        _?IX1002
  C:E6D7H         SYMBOL        _?IX1003
  C:E6DFH         SYMBOL        _?IX1004
  C:751BH         PUBLIC        INIT_TABLES
  C:9CD6H         PUBLIC        _START_SESSION
  C:CCE1H         PUBLIC        _INIT_SESSION
  C:D0A5H         PUBLIC        _END_SESSION
  C:8630H         SYMBOL        COM00D3
  C:8630H         SYMBOL        L?0212
  C:8630H         SYMBOL        L?0213
  C:8631H         SYMBOL        L?0214
  C:8634H         SYMBOL        L?0215
  C:8638H         SYMBOL        L?0216
  C:863CH         SYMBOL        L?0217
  C:8640H         SYMBOL        L?0218
  C:864AH         SYMBOL        L?0219
  C:864AH         SYMBOL        L?0220
  C:864DH         SYMBOL        L?0221
  C:864FH         SYMBOL        L?0222
  C:8655H         SYMBOL        L?0223
  C:8655H         SYMBOL        L?0224
  C:8658H         SYMBOL        L?0225
  C:865AH         SYMBOL        L?0226
  C:8660H         SYMBOL        L?0227
  C:8664H         SYMBOL        L?0228
  C:8666H         SYMBOL        L?0229
  C:866CH         SYMBOL        L?0230
  C:866CH         SYMBOL        L?0231
  C:866FH         SYMBOL        L?0232
  C:8671H         SYMBOL        L?0233
  C:8677H         SYMBOL        L?0234
  C:8679H         SYMBOL        L?0235
  C:867DH         SYMBOL        L?0236
  C:867FH         SYMBOL        L?0237
  C:8680H         SYMBOL        L?0238
  C:8682H         SYMBOL        L?0239
  C:8689H         SYMBOL        L?0240
  C:868DH         SYMBOL        L?0241
  C:8693H         SYMBOL        L?0242
  C:86B1H         SYMBOL        L?0243
  C:86B9H         SYMBOL        L?0244
  C:86BCH         SYMBOL        L?0245
  C:86BEH         SYMBOL        L?0246
  C:86C4H         SYMBOL        L?0247
  C:86C7H         SYMBOL        L?0248
  C:86C9H         SYMBOL        L?0249
  C:86CFH         SYMBOL        L?0250
  C:86E4H         SYMBOL        L?0251
  C:86E6H         SYMBOL        L?0252
  C:86EDH         SYMBOL        L?0253
  C:871BH         SYMBOL        L?0254
  C:8723H         SYMBOL        L?0255
  C:8727H         SYMBOL        L?0256
  C:872DH         SYMBOL        L?0257
  C:873EH         SYMBOL        L?0258
  C:8740H         SYMBOL        L?0259
BL51 BANKED LINKER/LOCATER V6.22                                                      11/30/2014  18:01:41  PAGE 59


  C:8741H         SYMBOL        L?0260
  C:8745H         SYMBOL        L?0261
  C:874CH         SYMBOL        L?0262
  C:874CH         SYMBOL        L?0263
  C:874FH         SYMBOL        L?0264
  C:8757H         SYMBOL        L?0265
  C:8759H         SYMBOL        L?0266
  C:875FH         SYMBOL        L?0267
  C:8762H         SYMBOL        L?0268
  C:8764H         SYMBOL        L?0269
  C:876AH         SYMBOL        L?0270
  C:8782H         SYMBOL        L?0271
  C:878AH         SYMBOL        L?0272
  C:878BH         SYMBOL        L?0273
  C:878CH         SYMBOL        L?0274
  C:8792H         SYMBOL        L?0275
  C:8794H         SYMBOL        L?0276
  C:879AH         SYMBOL        L?0277
  C:879AH         SYMBOL        L?0278
  C:879DH         SYMBOL        L?0279
  C:87A4H         SYMBOL        L?0280
  C:87AAH         SYMBOL        L?0281
  C:87B2H         SYMBOL        L?0282
  C:87B8H         SYMBOL        L?0283
  C:87C0H         SYMBOL        L?0284
  C:87C1H         SYMBOL        L?0285
  C:87C7H         SYMBOL        L?0286
  C:87CAH         SYMBOL        L?0287
  C:87D0H         SYMBOL        L?0288
  C:87D7H         SYMBOL        L?0289
  C:87DAH         SYMBOL        L?0290
  C:87EDH         SYMBOL        L?0291
  C:87F5H         SYMBOL        L?0292
  C:87FFH         SYMBOL        L?0293
  C:8802H         SYMBOL        L?0294
  C:880FH         SYMBOL        L?0295
  C:8815H         SYMBOL        L?0296
  C:8816H         SYMBOL        L?0297
  C:881DH         SYMBOL        L?0298
  C:881EH         SYMBOL        L?0299
  C:8824H         SYMBOL        L?0301
  C:8826H         SYMBOL        L?0302
  C:882CH         SYMBOL        L?0303
  C:8842H         SYMBOL        L?0304
  C:8848H         SYMBOL        L?0305
  C:884FH         SYMBOL        L?0306
  C:8852H         SYMBOL        L?0307
  C:885AH         SYMBOL        L?0308
  C:885DH         SYMBOL        L?0309
  C:8865H         SYMBOL        L?0310
  C:8865H         SYMBOL        L?0311
  C:8870H         SYMBOL        L?0312
  C:8879H         SYMBOL        L?0313
  C:8879H         SYMBOL        L?0314
  C:8880H         SYMBOL        L?0315
  C:8880H         SYMBOL        L?0316
  C:888BH         SYMBOL        L?0317
BL51 BANKED LINKER/LOCATER V6.22                                                      11/30/2014  18:01:41  PAGE 60


  C:889DH         SYMBOL        L?0318
  C:88A6H         SYMBOL        L?0319
  C:88A7H         SYMBOL        L?0320
  C:88AEH         SYMBOL        L?0321
  C:88BFH         SYMBOL        L?0322
  C:88BFH         SYMBOL        L?0323
  C:88C6H         SYMBOL        L?0324
  C:88C6H         SYMBOL        L?0325
  C:88D0H         SYMBOL        L?0326
  C:88DFH         SYMBOL        L?0327
  C:88EEH         SYMBOL        L?0328
  C:88EEH         SYMBOL        L?0329
  C:88F7H         SYMBOL        L?0330
  C:88F7H         SYMBOL        L?0331
  C:8900H         SYMBOL        L?0333
  C:8900H         SYMBOL        L?0334
  C:8907H         SYMBOL        L?0335
  C:8914H         SYMBOL        L?0336
  C:8921H         SYMBOL        L?0337
  C:892EH         SYMBOL        L?0338
  C:892EH         SYMBOL        L?0339
  C:8935H         SYMBOL        L?0340
  C:8935H         SYMBOL        L?0341
  C:893CH         SYMBOL        L?0342
  C:8948H         SYMBOL        L?0343
  C:8954H         SYMBOL        L?0344
  C:8960H         SYMBOL        L?0345
  C:896BH         SYMBOL        L?0346
  C:8976H         SYMBOL        L?0347
  C:8981H         SYMBOL        L?0348
  C:898CH         SYMBOL        L?0350
  C:898CH         SYMBOL        L?0351
  C:8992H         SYMBOL        L?0352
  C:8999H         SYMBOL        L?0353
  C:8999H         SYMBOL        L?0354
  C:89A0H         SYMBOL        L?0355
  C:89A0H         SYMBOL        L?0356
  C:89A7H         SYMBOL        L?0357
  -------         PROC          COM00D3
  -------         ENDPROC       COM00D3
  -------         PROC          _INIT_SESSION
  D:0024H         SYMBOL        STARTPAGE
  D:0027H         SYMBOL        IOPAGE
  X:1864H         SYMBOL        I
  -------         ENDPROC       _INIT_SESSION
  -------         PROC          _START_SESSION
  D:0045H         SYMBOL        STARTPAGE
  D:0048H         SYMBOL        IOPAGE
  X:18B3H         SYMBOL        FLASHPAGE
  X:1AC3H         SYMBOL        DRIVERIDX
  X:1AC4H         SYMBOL        TRACKIDX
  X:1AC5H         SYMBOL        CARIDX
  X:1AC6H         SYMBOL        MODESAMP
  X:1AC7H         SYMBOL        STARTSESS
  X:1AC8H         SYMBOL        I
  -------         ENDPROC       _START_SESSION
  -------         PROC          _END_SESSION
BL51 BANKED LINKER/LOCATER V6.22                                                      11/30/2014  18:01:41  PAGE 61


  D:0051H         SYMBOL        SESSION
  D:0052H         SYMBOL        ENDSEG
  D:0054H         SYMBOL        ENDIOSEG
  X:1AC3H         SYMBOL        FLASHPAGE
  -------         ENDPROC       _END_SESSION
  -------         PROC          REPAIR_SESSIONS
  X:1864H         SYMBOL        STARTIO
  X:1866H         SYMBOL        ENDIO
  X:1868H         SYMBOL        FLASHPAGE
  X:1A78H         SYMBOL        SEGMENT
  X:1A7AH         SYMBOL        SESSION
  -------         ENDPROC       REPAIR_SESSIONS
  C:8614H         SYMBOL        L?0300
  C:8622H         SYMBOL        L?0332
  -------         PROC          _PACK_SESSIONS
  D:0044H         SYMBOL        REPORT
  X:18ADH         SYMBOL        SEGMENTCNT
  X:18AFH         SYMBOL        STARTADDR
  X:18B1H         SYMBOL        SAVEFIRST
  X:18B3H         SYMBOL        TEMPSTRING
  X:18C0H         SYMBOL        SEGMENTCNT
  X:18C2H         SYMBOL        STARTADDR
  X:18C4H         SYMBOL        SAVEFIRST
  X:18C6H         SYMBOL        TEMPSTRING
  X:18D3H         SYMBOL        FLASHPAGE
  X:1AE3H         SYMBOL        FIRSTFREE
  X:1AE5H         SYMBOL        SESSIONTOMOVE
  X:1AE6H         SYMBOL        LOWESTUNMOVEDSTART
  X:1AE8H         SYMBOL        ENDADDR
  X:1AEAH         SYMBOL        TEMPSESSION
  -------         ENDPROC       _PACK_SESSIONS
  C:CBDDH         SYMBOL        L?0349
  -------         PROC          _ERASE_SESSION
  D:0045H         SYMBOL        SESSION
  X:1AEBH         SYMBOL        FLASHPAGE
  -------         ENDPROC       _ERASE_SESSION
  -------         PROC          INIT_TABLES
  X:18ADH         SYMBOL        NAME
  X:18B5H         SYMBOL        NAME
  X:18BAH         SYMBOL        NAME
  D:0046H         SYMBOL        J
  D:0048H         SYMBOL        K
  D:0046H         SYMBOL        J
  X:18C1H         SYMBOL        NAME
  X:18C9H         SYMBOL        NAME
  X:18D2H         SYMBOL        FLASHPAGE
  D:0044H         SYMBOL        I
  D:0045H         SYMBOL        WRITEPAGE
  -------         ENDPROC       INIT_TABLES
  -------         ENDMOD        SESSION

  -------         MODULE        ?C?FPADD
  C:3F70H         PUBLIC        ?C?FPADD
  C:3F6CH         PUBLIC        ?C?FPSUB
  -------         ENDMOD        ?C?FPADD

  -------         MODULE        ?C?FPMUL
BL51 BANKED LINKER/LOCATER V6.22                                                      11/30/2014  18:01:41  PAGE 62


  C:4061H         PUBLIC        ?C?FPMUL
  -------         ENDMOD        ?C?FPMUL

  -------         MODULE        ?C?FPDIV
  C:416AH         PUBLIC        ?C?FPDIV
  -------         ENDMOD        ?C?FPDIV

  -------         MODULE        ?C?FPCMP
  C:4209H         PUBLIC        ?C?FPCMP
  C:4207H         PUBLIC        ?C?FPCMP3
  -------         ENDMOD        ?C?FPCMP

  -------         MODULE        ?C?FPNEG
  C:4280H         PUBLIC        ?C?FPNEG
  -------         ENDMOD        ?C?FPNEG

  -------         MODULE        ?C?FCAST
  C:429BH         PUBLIC        ?C?FCASTC
  C:4296H         PUBLIC        ?C?FCASTI
  C:4291H         PUBLIC        ?C?FCASTL
  -------         ENDMOD        ?C?FCAST

  -------         MODULE        ?C?CASTF
  C:42CFH         PUBLIC        ?C?CASTF
  -------         ENDMOD        ?C?CASTF

  -------         MODULE        PRINTF
  D:005EH         PUBLIC        ?_PRINTF?BYTE
  D:005EH         PUBLIC        ?_SPRINTF?BYTE
  C:7ACAH         PUBLIC        _PRINTF
  C:7AC4H         PUBLIC        _SPRINTF
  -------         ENDMOD        PRINTF

  -------         MODULE        SQRT
  C:D7ABH         PUBLIC        _SQRT
  -------         ENDMOD        SQRT

  -------         MODULE        ATAN2
  D:0052H         PUBLIC        ?_atan2?BYTE
  C:E33AH         PUBLIC        _atan2
  -------         ENDMOD        ATAN2

  -------         MODULE        SIN
  C:C2CFH         PUBLIC        _COS
  C:C2E5H         PUBLIC        _SIN
  C:C317H         PUBLIC        _TAN
  -------         ENDMOD        SIN

  -------         MODULE        ?C?FPROUND
  C:4350H         PUBLIC        ?C?FPROUND
  -------         ENDMOD        ?C?FPROUND

  -------         MODULE        ?C?FPCONVERT
  C:437FH         PUBLIC        ?C?FPCONVERT
  -------         ENDMOD        ?C?FPCONVERT

  -------         MODULE        ATAN
BL51 BANKED LINKER/LOCATER V6.22                                                      11/30/2014  18:01:41  PAGE 63


  C:C6B1H         PUBLIC        _ATAN
  -------         ENDMOD        ATAN

  -------         MODULE        ?C?FTNPWR
  C:44FFH         PUBLIC        ?C?FTNPWR
  -------         ENDMOD        ?C?FTNPWR

  -------         MODULE        ?C?COPY
  C:460FH         PUBLIC        ?C?COPY
  -------         ENDMOD        ?C?COPY

  -------         MODULE        ?C?CLDPTR
  C:4635H         PUBLIC        ?C?CLDPTR
  -------         ENDMOD        ?C?CLDPTR

  -------         MODULE        ?C?CLDOPTR
  C:464EH         PUBLIC        ?C?CLDOPTR
  -------         ENDMOD        ?C?CLDOPTR

  -------         MODULE        ?C?CILDOPTR
  C:467BH         PUBLIC        ?C?CILDOPTR
  -------         ENDMOD        ?C?CILDOPTR

  -------         MODULE        ?C?CSTPTR
  C:46AEH         PUBLIC        ?C?CSTPTR
  -------         ENDMOD        ?C?CSTPTR

  -------         MODULE        ?C?CSTOPTR
  C:46C0H         PUBLIC        ?C?CSTOPTR
  -------         ENDMOD        ?C?CSTOPTR

  -------         MODULE        ?C?UIDIV
  C:46E2H         PUBLIC        ?C?UIDIV
  -------         ENDMOD        ?C?UIDIV

  -------         MODULE        ?C?SIDIV
  C:4737H         PUBLIC        ?C?SIDIV
  -------         ENDMOD        ?C?SIDIV

  -------         MODULE        ?C?IILDX
  C:476DH         PUBLIC        ?C?IILDX
  -------         ENDMOD        ?C?IILDX

  -------         MODULE        ?C?ILDIX
  C:4783H         PUBLIC        ?C?ILDIX
  -------         ENDMOD        ?C?ILDIX

  -------         MODULE        ?C?ILDPTR
  C:4799H         PUBLIC        ?C?ILDPTR
  -------         ENDMOD        ?C?ILDPTR

  -------         MODULE        ?C?ILDOPTR
  C:47C4H         PUBLIC        ?C?ILDOPTR
  -------         ENDMOD        ?C?ILDOPTR

  -------         MODULE        ?C?IILDPTR
  C:47FCH         PUBLIC        ?C?IILDPTR
BL51 BANKED LINKER/LOCATER V6.22                                                      11/30/2014  18:01:41  PAGE 64


  -------         ENDMOD        ?C?IILDPTR

  -------         MODULE        ?C?ISTPTR
  C:4834H         PUBLIC        ?C?ISTPTR
  -------         ENDMOD        ?C?ISTPTR

  -------         MODULE        ?C?ISTOPTR
  C:4853H         PUBLIC        ?C?ISTOPTR
  -------         ENDMOD        ?C?ISTOPTR

  -------         MODULE        ?C?LADD
  C:4880H         PUBLIC        ?C?LADD
  -------         ENDMOD        ?C?LADD

  -------         MODULE        ?C?LSUB
  C:488DH         PUBLIC        ?C?LSUB
  -------         ENDMOD        ?C?LSUB

  -------         MODULE        ?C?ULDIV
  C:48D7H         PUBLIC        ?C?ULDIV
  -------         ENDMOD        ?C?ULDIV

  -------         MODULE        ?C?SLDIV
  C:EBDAH         PUBLIC        ?C?SLDIV
  -------         ENDMOD        ?C?SLDIV

  -------         MODULE        ?C?LNEG
  C:4969H         PUBLIC        ?C?LNEG
  -------         ENDMOD        ?C?LNEG

  -------         MODULE        ?C?SLCMP
  C:4977H         PUBLIC        ?C?SLCMP
  -------         ENDMOD        ?C?SLCMP

  -------         MODULE        ?C?ULCMP
  C:498DH         PUBLIC        ?C?ULCMP
  -------         ENDMOD        ?C?ULCMP

  -------         MODULE        ?C?LLDPTR
  C:499EH         PUBLIC        ?C?LLDPTR
  -------         ENDMOD        ?C?LLDPTR

  -------         MODULE        ?C?LLDOPTR
  C:49BEH         PUBLIC        ?C?LLDOPTR
  -------         ENDMOD        ?C?LLDOPTR

  -------         MODULE        ?C?LLDXDATA
  C:49EEH         PUBLIC        ?C?LLDXDATA
  -------         ENDMOD        ?C?LLDXDATA

  -------         MODULE        ?C?LLDCODE
  C:49FAH         PUBLIC        ?C?LLDCODE
  -------         ENDMOD        ?C?LLDCODE

  -------         MODULE        ?C?LLDXDATA0
  C:4A0AH         PUBLIC        ?C?LLDXDATA0
  -------         ENDMOD        ?C?LLDXDATA0
BL51 BANKED LINKER/LOCATER V6.22                                                      11/30/2014  18:01:41  PAGE 65



  -------         MODULE        ?C?LLDCODE0
  C:4A16H         PUBLIC        ?C?LLDCODE0
  -------         ENDMOD        ?C?LLDCODE0

  -------         MODULE        ?C?LSTXDATA
  C:4A26H         PUBLIC        ?C?LSTXDATA
  -------         ENDMOD        ?C?LSTXDATA

  -------         MODULE        ?C?LSTKXDATA
  C:4A32H         PUBLIC        ?C?LSTKXDATA
  -------         ENDMOD        ?C?LSTKXDATA

  -------         MODULE        ?C?OFFXADD
  C:4A63H         PUBLIC        ?C?OFFXADD
  -------         ENDMOD        ?C?OFFXADD

  -------         MODULE        ?C?PLDIDATA
  C:4A6FH         PUBLIC        ?C?PLDIDATA
  -------         ENDMOD        ?C?PLDIDATA

  -------         MODULE        ?C?PLDIIDATA
  C:4A78H         PUBLIC        ?C?PLDIIDATA
  -------         ENDMOD        ?C?PLDIIDATA

  -------         MODULE        ?C?PSTIDATA
  C:4A88H         PUBLIC        ?C?PSTIDATA
  -------         ENDMOD        ?C?PSTIDATA

  -------         MODULE        ?C?PLDXDATA
  C:4A91H         PUBLIC        ?C?PLDXDATA
  -------         ENDMOD        ?C?PLDXDATA

  -------         MODULE        ?C?PSTXDATA
  C:4A9AH         PUBLIC        ?C?PSTXDATA
  -------         ENDMOD        ?C?PSTXDATA

  -------         MODULE        ?C?PLDPTR
  C:4AA3H         PUBLIC        ?C?PLDPTR
  -------         ENDMOD        ?C?PLDPTR

  -------         MODULE        ?C?PLDOPTR
  C:4AC3H         PUBLIC        ?C?PLDOPTR
  -------         ENDMOD        ?C?PLDOPTR

  -------         MODULE        ?C?PSTOPTR
  C:4AF3H         PUBLIC        ?C?PSTOPTR
  -------         ENDMOD        ?C?PSTOPTR

  -------         MODULE        ?C?CCASE
  C:4B4CH         PUBLIC        ?C?CCASE
  -------         ENDMOD        ?C?CCASE

  -------         MODULE        ?C?ICALL
  C:4B72H         PUBLIC        ?C?ICALL
  C:4B76H         PUBLIC        ?C?ICALL2
  -------         ENDMOD        ?C?ICALL
BL51 BANKED LINKER/LOCATER V6.22                                                      11/30/2014  18:01:41  PAGE 66



  -------         MODULE        ?C_IBP
  D:001EH         PUBLIC        ?C_IBP
  -------         ENDMOD        ?C_IBP

  -------         MODULE        PUTCHAR
  C:F132H         PUBLIC        _PUTCHAR
  -------         ENDMOD        PUTCHAR

  -------         MODULE        ISPRINT
  C:F33EH         PUBLIC        _isprint
  -------         ENDMOD        ISPRINT

  -------         MODULE        ?C?STRCPY
  C:4C44H         PUBLIC        ?C?STRCPY
  -------         ENDMOD        ?C?STRCPY

  -------         MODULE        STRNCPY
  D:0045H         PUBLIC        ?_strncpy?BYTE
  C:E8F3H         PUBLIC        _strncpy
  -------         ENDMOD        STRNCPY

  -------         MODULE        STRLEN
  C:F2CFH         PUBLIC        _STRLEN
  -------         ENDMOD        STRLEN

  -------         MODULE        ATOI
  C:D6F9H         PUBLIC        _atoi
  -------         ENDMOD        ATOI

  -------         MODULE        ?C?IMUL
  C:4C61H         PUBLIC        ?C?IMUL
  -------         ENDMOD        ?C?IMUL

  -------         MODULE        ?C?LLDIDATA
  C:4C73H         PUBLIC        ?C?LLDIDATA
  -------         ENDMOD        ?C?LLDIDATA

  -------         MODULE        ?C?LLDPDATA
  C:4C7FH         PUBLIC        ?C?LLDPDATA
  -------         ENDMOD        ?C?LLDPDATA

  -------         MODULE        ?C?PLDPDATA
  C:4C8BH         PUBLIC        ?C?PLDPDATA
  -------         ENDMOD        ?C?PLDPDATA

  -------         MODULE        ?C?PSTPDATA
  C:4C94H         PUBLIC        ?C?PSTPDATA
  -------         ENDMOD        ?C?PSTPDATA

  -------         MODULE        ?C?PLDCODE
  C:4C9DH         PUBLIC        ?C?PLDCODE
  -------         ENDMOD        ?C?PLDCODE

  -------         MODULE        ISDIGIT
  C:F34DH         PUBLIC        _isdigit
  -------         ENDMOD        ISDIGIT
BL51 BANKED LINKER/LOCATER V6.22                                                      11/30/2014  18:01:41  PAGE 67



  -------         MODULE        ISSPACE
  C:F2E4H         PUBLIC        _isspace
  -------         ENDMOD        ISSPACE



INTER-MODULE CROSS-REFERENCE LISTING
------------------------------------


NAME . . . . . . . . . . . . . . . . . . USAGE    MODULE NAMES
--------------------------------------------------------------

?C?CASTF . . . . . . . . . . . . . . . . CODE;    ?C?CASTF  DISPLAYUNIT  FORMATGPS  MENU  MESSAGE  SIN  TIMER  
?C?CCASE . . . . . . . . . . . . . . . . CODE;    ?C?CCASE  DATAFLASH  DISPLAYUNIT  MENU  MESSAGE  PRINTF  SESSION  TIME
                                                  R  
?C?CILDOPTR. . . . . . . . . . . . . . . CODE;    ?C?CILDOPTR  MENU  
?C?CLDOPTR . . . . . . . . . . . . . . . CODE;    ?C?CLDOPTR  CYGFX120  DATAFLASH  FORMATGPS  MENU  MESSAGE  PRINTF  TIM
                                                  ER  
?C?CLDPTR. . . . . . . . . . . . . . . . CODE;    ?C?CLDPTR  ATOI  CRC  CYGFX120  CYGNALFLASH  DISPLAY  MENU  MESSAGE  P
                                                  RINTF  STRLEN  STRNCPY  TIMER  
?C?COPY. . . . . . . . . . . . . . . . . CODE;    ?C?COPY  DISPLAYUNIT  FORMATGPS  MENU  MESSAGE  SESSION  TIMER  
?C?CSTOPTR . . . . . . . . . . . . . . . CODE;    ?C?CSTOPTR  CYGFX120  DATAFLASH  DISPLAYUNIT  MENU  MESSAGE  STRNCPY  
                                                  
?C?CSTPTR. . . . . . . . . . . . . . . . CODE;    ?C?CSTPTR  CYGNALFLASH  MESSAGE  PRINTF  
?C?FCASTC. . . . . . . . . . . . . . . . CODE;    ?C?FCAST  ATAN  FORMATGPS  MENU  SIN  
?C?FCASTI. . . . . . . . . . . . . . . . CODE;    ?C?FCAST  DISPLAYUNIT  FORMATGPS  MENU  MESSAGE  TIMER  
?C?FCASTL. . . . . . . . . . . . . . . . CODE;    ?C?FCAST  FORMATGPS  SIN  TIMER  
?C?FP2SERIES . . . . . . . . . . . . . . CODE;    ?C?FPSERIES  ATAN  SIN  
?C?FPADD . . . . . . . . . . . . . . . . CODE;    ?C?FPADD  ?C?FPCONVERT  ?C?FPSERIES  ATAN  ATAN2  DISPLAYUNIT  FORMATG
                                                  PS  MENU  SIN  SQRT  TIMER  
?C?FPCMP . . . . . . . . . . . . . . . . CODE;    ?C?FPCMP  
?C?FPCMP3. . . . . . . . . . . . . . . . CODE;    ?C?FPCMP  ATAN2  FORMATGPS  MESSAGE  TIMER  
?C?FPCONVERT . . . . . . . . . . . . . . CODE;    ?C?FPCONVERT  PRINTF  
?C?FPDIV . . . . . . . . . . . . . . . . CODE;    ?C?FPDIV  ?C?FPCONVERT  ATAN  ATAN2  DISPLAYUNIT  FORMATGPS  MENU  MES
                                                  SAGE  SIN  SQRT  TIMER  
?C?FPGETOPN2 . . . . . . . . . . . . . . CODE;    ?C?FPGETOPN  ?C?FPADD  ?C?FPDIV  ?C?FPMUL  
?C?FPMUL . . . . . . . . . . . . . . . . CODE;    ?C?FPMUL  ?C?FPCONVERT  ?C?FPSERIES  ?C?FTNPWR  ATAN  FORMATGPS  MENU 
                                                   MESSAGE  SIN  TIMER  
?C?FPNANRESULT . . . . . . . . . . . . . CODE;    ?C?FPGETOPN  ?C?FPADD  ?C?FPDIV  ?C?FPMUL  ATAN  SIN  SQRT  
?C?FPNEG . . . . . . . . . . . . . . . . CODE;    ?C?FPNEG  FORMATGPS  MESSAGE  TIMER  
?C?FPOVERFLOW. . . . . . . . . . . . . . CODE;    ?C?FPGETOPN  ?C?FPADD  ?C?FPDIV  ?C?FPMUL  SQRT  
?C?FPRESULT. . . . . . . . . . . . . . . CODE;    ?C?FPGETOPN  ?C?FPADD  ?C?FPDIV  ?C?FPMUL  
?C?FPRESULT2 . . . . . . . . . . . . . . CODE;    ?C?FPGETOPN  ?C?FPDIV  ?C?FPMUL  
?C?FPROUND . . . . . . . . . . . . . . . CODE;    ?C?FPROUND  PRINTF  
?C?FPSERIES. . . . . . . . . . . . . . . CODE;    ?C?FPSERIES  
?C?FPSUB . . . . . . . . . . . . . . . . CODE;    ?C?FPADD  FORMATGPS  MESSAGE  TIMER  
?C?FPUNDERFLOW . . . . . . . . . . . . . CODE;    ?C?FPGETOPN  ?C?FPADD  ?C?FPDIV  ?C?FPMUL  
?C?FTNPWR. . . . . . . . . . . . . . . . CODE;    ?C?FTNPWR  ?C?FPCONVERT  
?C?ICALL . . . . . . . . . . . . . . . . CODE;    ?C?ICALL  MESSAGE  
?C?ICALL2. . . . . . . . . . . . . . . . CODE;    ?C?ICALL  MENU  
?C?IILDPTR . . . . . . . . . . . . . . . CODE;    ?C?IILDPTR  FORMATGPS  SESSION  
?C?IILDX . . . . . . . . . . . . . . . . CODE;    ?C?IILDX  ?C?IILDPTR  CYGFX120  DISPLAY  DISPLAYUNIT  MENU  MESSAGE  S
                                                  ESSION  TIMER  
?C?ILDIX . . . . . . . . . . . . . . . . CODE;    ?C?ILDIX  MENU  SESSION  
?C?ILDOPTR . . . . . . . . . . . . . . . CODE;    ?C?ILDOPTR  CYGFX120  FORMATGPS  
BL51 BANKED LINKER/LOCATER V6.22                                                      11/30/2014  18:01:41  PAGE 68


?C?ILDPTR. . . . . . . . . . . . . . . . CODE;    ?C?ILDPTR  FORMATGPS  SESSION  TIMER  
?C?IMUL. . . . . . . . . . . . . . . . . CODE;    ?C?IMUL  ATOI  
?C?IMUL_F120 . . . . . . . . . . . . . . CODE;    ?C?IMUL_F120  CYGFX120  DISPLAY  DISPLAYUNIT  FORMATGPS  MENU  MESSAGE
                                                    
?C?ISTOPTR . . . . . . . . . . . . . . . CODE;    ?C?ISTOPTR  CYGFX120  MENU  
?C?ISTPTR. . . . . . . . . . . . . . . . CODE;    ?C?ISTPTR  DATAFLASH  FORMATGPS  SESSION  TIMER  
?C?LADD. . . . . . . . . . . . . . . . . CODE;    ?C?LADD  DISPLAY  DISPLAYUNIT  FACTORYTEST  FORMATGPS  MESSAGE  TIMER 
                                                   
?C?LLDCODE . . . . . . . . . . . . . . . CODE;    ?C?LLDCODE  ?C?FPSERIES  ?C?LLDOPTR  ?C?LLDPTR  
?C?LLDCODE0. . . . . . . . . . . . . . . CODE;    ?C?LLDCODE0  ?C?FPSERIES  ATAN  
?C?LLDIDATA. . . . . . . . . . . . . . . CODE;    ?C?LLDIDATA  ?C?LLDOPTR  ?C?LLDPTR  
?C?LLDOPTR . . . . . . . . . . . . . . . CODE;    ?C?LLDOPTR  FORMATGPS  
?C?LLDPDATA. . . . . . . . . . . . . . . CODE;    ?C?LLDPDATA  ?C?LLDOPTR  ?C?LLDPTR  
?C?LLDPTR. . . . . . . . . . . . . . . . CODE;    ?C?LLDPTR  FORMATGPS  
?C?LLDXDATA. . . . . . . . . . . . . . . CODE;    ?C?LLDXDATA  ?C?LLDOPTR  ?C?LLDPTR  DISPLAY  DISPLAYUNIT  FACTORYTEST 
                                                   FORMATGPS  MENU  MESSAGE  SESSION  TIMER  
?C?LLDXDATA0 . . . . . . . . . . . . . . CODE;    ?C?LLDXDATA0  DISPLAY  DISPLAYUNIT  FACTORYTEST  FORMATGPS  MENU  MESS
                                                  AGE  SESSION  TIMER  
?C?LMUL_F120 . . . . . . . . . . . . . . CODE;    ?C?LMUL_F120  FORMATGPS  MENU  TIMER  
?C?LNEG. . . . . . . . . . . . . . . . . CODE;    ?C?LNEG  ?C?CASTF  ?C?FCAST  CYGFX120  TIMER  
?C?LSTKXDATA . . . . . . . . . . . . . . CODE;    ?C?LSTKXDATA  DISPLAY  DISPLAYUNIT  FACTORYTEST  FORMATGPS  MENU  MESS
                                                  AGE  SESSION  TIMER  
?C?LSTXDATA. . . . . . . . . . . . . . . CODE;    ?C?LSTXDATA  DISPLAY  DISPLAYUNIT  FACTORYTEST  FORMATGPS  MENU  MESSA
                                                  GE  SESSION  TIMER  
?C?LSUB. . . . . . . . . . . . . . . . . CODE;    ?C?LSUB  TIMER  
?C?OFFXADD . . . . . . . . . . . . . . . CODE;    ?C?OFFXADD  DISPLAYUNIT  FACTORYTEST  FORMATGPS  MENU  MESSAGE  SESSIO
                                                  N  TIMER  
?C?PLDCODE . . . . . . . . . . . . . . . CODE;    ?C?PLDCODE  ?C?PLDOPTR  ?C?PLDPTR  
?C?PLDIDATA. . . . . . . . . . . . . . . CODE;    ?C?PLDIDATA  ?C?PLDOPTR  ?C?PLDPTR  MENU  
?C?PLDIIDATA . . . . . . . . . . . . . . CODE;    ?C?PLDIIDATA  CRC  CYGNALFLASH  MESSAGE  PRINTF  
?C?PLDOPTR . . . . . . . . . . . . . . . CODE;    ?C?PLDOPTR  CYGFX120  MENU  
?C?PLDPDATA. . . . . . . . . . . . . . . CODE;    ?C?PLDPDATA  ?C?PLDOPTR  ?C?PLDPTR  
?C?PLDPTR. . . . . . . . . . . . . . . . CODE;    ?C?PLDPTR  MENU  
?C?PLDXDATA. . . . . . . . . . . . . . . CODE;    ?C?PLDXDATA  ?C?PLDOPTR  ?C?PLDPTR  CYGFX120  DISPLAYUNIT  FACTORYTEST
                                                    MENU  MESSAGE  
?C?PSTIDATA. . . . . . . . . . . . . . . CODE;    ?C?PSTIDATA  ?C?PSTOPTR  MENU  
?C?PSTOPTR . . . . . . . . . . . . . . . CODE;    ?C?PSTOPTR  CYGFX120  MENU  
?C?PSTPDATA. . . . . . . . . . . . . . . CODE;    ?C?PSTPDATA  ?C?PSTOPTR  
?C?PSTXDATA. . . . . . . . . . . . . . . CODE;    ?C?PSTXDATA  ?C?PSTOPTR  CYGFX120  DISPLAYUNIT  MENU  MESSAGE  TIMER  
                                                  
?C?SIDIV . . . . . . . . . . . . . . . . CODE;    ?C?SIDIV  DISPLAY  DISPLAYUNIT  FACTORYTEST  FORMATGPS  MENU  MESSAGE 
                                                   TIMER  
?C?SLCMP . . . . . . . . . . . . . . . . CODE;    ?C?SLCMP  DISPLAY  DISPLAYUNIT  FACTORYTEST  FORMATGPS  MENU  MESSAGE 
                                                   TIMER  
?C?SLDIV . . . . . . . . . . . . . . . . CODE;    ?C?SLDIV  FORMATGPS  TIMER  
?C?STRCPY. . . . . . . . . . . . . . . . CODE;    ?C?STRCPY  SESSION  
?C?UIDIV . . . . . . . . . . . . . . . . CODE;    ?C?UIDIV  ?C?SIDIV  DISPLAYUNIT  FORMATGPS  MENU  TIMER  
?C?ULCMP . . . . . . . . . . . . . . . . CODE;    ?C?ULCMP  CYGFX120  MENU  MESSAGE  SESSION  TIMER  
?C?ULDIV . . . . . . . . . . . . . . . . CODE;    ?C?ULDIV  ?C?SLDIV  CYGFX120  FORMATGPS  MENU  
?C_IBP . . . . . . . . . . . . . . . . . DATA;    ?C_IBP  MENU  
?C_INITSEGSTART. . . . . . . . . . . . . CODE;    ** L51 GENERATED **  
?C_START . . . . . . . . . . . . . . . . CODE;    ?C_INIT  ?C_STARTUP  
?C_STARTUP . . . . . . . . . . . . . . . CODE;    ?C_STARTUP  DISPLAYUNIT  
?_ATAN2?BYTE . . . . . . . . . . . . . . DATA;    ATAN2  TIMER  
?_DATAFLASH_BUFFER_WRITE?BYTE. . . . . . DATA;    DATAFLASH  MESSAGE  
?_DATAFLASH_INIT?BYTE. . . . . . . . . . DATA;    DATAFLASH  DISPLAYUNIT  
?_DATAFLASH_PAGE_READ?BYTE . . . . . . . DATA;    DATAFLASH  DISPLAYUNIT  FACTORYTEST  MENU  MESSAGE  SESSION  TIMER  
BL51 BANKED LINKER/LOCATER V6.22                                                      11/30/2014  18:01:41  PAGE 69


?_DATAFLASH_PAGE_WRITE_ERASE?BYTE. . . . DATA;    DATAFLASH  FACTORYTEST  MENU  MESSAGE  SESSION  TIMER  
?_DODATE?BYTE. . . . . . . . . . . . . . DATA;    FORMATGPS  
?_FORMATGPS?BYTE . . . . . . . . . . . . DATA;    FORMATGPS  MESSAGE  
?_FORMATTIME?BYTE. . . . . . . . . . . . DATA;    FORMATGPS  MENU  
?_INIT_SESSION?BYTE. . . . . . . . . . . DATA;    SESSION  DISPLAYUNIT  
?_PRINTF?BYTE. . . . . . . . . . . . . . DATA;    PRINTF  
?_SAVEDOWNLOAD?BYTE. . . . . . . . . . . DATA;    MESSAGE  
?_SENDMESSAGE?BYTE . . . . . . . . . . . DATA;    MESSAGE  DISPLAYUNIT  FACTORYTEST  MENU  
?_SPRINTF?BYTE . . . . . . . . . . . . . DATA;    PRINTF  DATAFLASH  DISPLAYUNIT  FACTORYTEST  FORMATGPS  MENU  MESSAGE 
                                                   SESSION  TIMER  
?_START_SESSION?BYTE . . . . . . . . . . DATA;    SESSION  MENU  
?_STRNCPY?BYTE . . . . . . . . . . . . . DATA;    STRNCPY  MENU  
?_UNPACK_VELOCITIES?BYTE . . . . . . . . DATA;    TIMER  FORMATGPS  
?_WRITE_BIG_LINE?BYTE. . . . . . . . . . DATA;    DISPLAY  DATAFLASH  DISPLAYUNIT  SESSION  
?_WRITE_BIG_TEXT?BYTE. . . . . . . . . . DATA;    DISPLAY  FORMATGPS  MESSAGE  
?_WRITE_ICON?BYTE. . . . . . . . . . . . DATA;    DISPLAY  DISPLAYUNIT  FORMATGPS  MENU  MESSAGE  TIMER  
?_WRITE_LINE?BYTE. . . . . . . . . . . . DATA;    DISPLAY  DISPLAYUNIT  MESSAGE  
?_WRITE_MED_TEXT?BYTE. . . . . . . . . . DATA;    DISPLAY  TIMER  
?_WRITE_TEXT?BYTE. . . . . . . . . . . . DATA;    DISPLAY  FORMATGPS  MENU  MESSAGE  TIMER  
ALLINPUTS. . . . . . . . . . . . . . . . XDATA;   DISPLAYUNIT  FORMATGPS  MESSAGE  
ANALOGSCALING. . . . . . . . . . . . . . XDATA;   DISPLAYUNIT  FORMATGPS  MENU  
AUTOONCHOICES. . . . . . . . . . . . . . XDATA;   DISPLAYUNIT  MENU  
AUTOONLIST . . . . . . . . . . . . . . . CODE;    DISPLAYUNIT  
AUTOXREADY . . . . . . . . . . . . . . . CODE;    DISPLAYUNIT  MENU  
AUTOXSTAGE . . . . . . . . . . . . . . . CODE;    DISPLAYUNIT  MESSAGE  
BLANKICON. . . . . . . . . . . . . . . . CODE;    DISPLAYUNIT  MESSAGE  TIMER  
CAMERACHOICES. . . . . . . . . . . . . . XDATA;   DISPLAYUNIT  MENU  
CAMERALIST . . . . . . . . . . . . . . . CODE;    DISPLAYUNIT  
CAMLANCSTATUS. . . . . . . . . . . . . . XDATA;   DISPLAYUNIT  MESSAGE  
CAMNOTREADY. . . . . . . . . . . . . . . CODE;    DISPLAYUNIT  MESSAGE  
CAMREADY . . . . . . . . . . . . . . . . CODE;    DISPLAYUNIT  MESSAGE  
CAMREADYTICK . . . . . . . . . . . . . . XDATA;   DISPLAYUNIT  
CAMRECORD. . . . . . . . . . . . . . . . CODE;    DISPLAYUNIT  MESSAGE  
CLEARBAR . . . . . . . . . . . . . . . . CODE;    DISPLAYUNIT  MENU  TIMER  
CLEARBOT . . . . . . . . . . . . . . . . CODE;    DISPLAYUNIT  MENU  
CLEARCONFIRM . . . . . . . . . . . . . . XDATA;   DISPLAYUNIT  
CLEARDN. . . . . . . . . . . . . . . . . CODE;    DISPLAYUNIT  MENU  
CLEARSF. . . . . . . . . . . . . . . . . XDATA;   DISPLAYUNIT  MENU  
CLEARTOP . . . . . . . . . . . . . . . . CODE;    DISPLAYUNIT  MENU  
CLEARTOPBOT. . . . . . . . . . . . . . . CODE;    DISPLAYUNIT  MENU  
CLEARUP. . . . . . . . . . . . . . . . . CODE;    DISPLAYUNIT  MENU  
CLOCKTICK. . . . . . . . . . . . . . . . XDATA;   DISPLAYUNIT  CYGFX120  
COLLECT. . . . . . . . . . . . . . . . . XDATA;   DISPLAYUNIT  MENU  
COLLECTLIST. . . . . . . . . . . . . . . CODE;    DISPLAYUNIT  
COM. . . . . . . . . . . . . . . . . . . XDATA;   DISPLAYUNIT  CYGFX120  FACTORYTEST  MENU  MESSAGE  
CONFIRM. . . . . . . . . . . . . . . . . XDATA;   DISPLAYUNIT  MENU  
CONFIRMATION . . . . . . . . . . . . . . XDATA;   DISPLAYUNIT  
CRC16_TABLE. . . . . . . . . . . . . . . CODE;    DISPLAYUNIT  CRC  
CTS. . . . . . . . . . . . . . . . . . . XDATA;   DISPLAYUNIT  CYGFX120  MENU  MESSAGE  
CURRENTCAR . . . . . . . . . . . . . . . XDATA;   DISPLAYUNIT  FORMATGPS  MENU  
CURSECTORNUM . . . . . . . . . . . . . . XDATA;   DISPLAYUNIT  TIMER  
DATAFLASH_READ_STATUS. . . . . . . . . . CODE;    DATAFLASH  MENU  MESSAGE  
DEBOUNCE . . . . . . . . . . . . . . . . XDATA;   DISPLAYUNIT  CYGFX120  FACTORYTEST  
DETAILLIST . . . . . . . . . . . . . . . XDATA;   DISPLAYUNIT  MENU  
DETAILS. . . . . . . . . . . . . . . . . XDATA;   DISPLAYUNIT  MENU  
DIGITALSCALING . . . . . . . . . . . . . XDATA;   DISPLAYUNIT  FORMATGPS  MENU  
DISPLAY_INIT . . . . . . . . . . . . . . CODE;    DISPLAY  DISPLAYUNIT  
BL51 BANKED LINKER/LOCATER V6.22                                                      11/30/2014  18:01:41  PAGE 70


DOP. . . . . . . . . . . . . . . . . . . XDATA;   DISPLAYUNIT  MESSAGE  
DRAGLIGHTTIMER . . . . . . . . . . . . . XDATA;   DISPLAYUNIT  MENU  MESSAGE  
DRAGNUMBERS. . . . . . . . . . . . . . . XDATA;   DISPLAYUNIT  MENU  MESSAGE  TIMER  
DRAGSTAGE. . . . . . . . . . . . . . . . CODE;    DISPLAYUNIT  MESSAGE  
DRAW_MENU. . . . . . . . . . . . . . . . CODE;    MENU  
DRIVERS. . . . . . . . . . . . . . . . . XDATA;   DISPLAYUNIT  MENU  
END. . . . . . . . . . . . . . . . . . . CODE;    DISPLAYUNIT  MENU  
ERASESCRATCHPAD. . . . . . . . . . . . . CODE;    CYGNALFLASH  MENU  MESSAGE  
FDL_DATAFLASH_READ_STATUS. . . . . . . . CODE;    FDL  
FINDGPS. . . . . . . . . . . . . . . . . CODE;    DISPLAYUNIT  MENU  MESSAGE  
FINDSTART. . . . . . . . . . . . . . . . CODE;    DISPLAYUNIT  MESSAGE  
FIRSTPULSE . . . . . . . . . . . . . . . XDATA;   DISPLAYUNIT  MENU  MESSAGE  
FLAG . . . . . . . . . . . . . . . . . . CODE;    DISPLAYUNIT  TIMER  
FLASHPAGE. . . . . . . . . . . . . . . . XDATA;   DISPLAYUNIT  FACTORYTEST  FDL  MENU  MESSAGE  SESSION  TIMER  
GCNT . . . . . . . . . . . . . . . . . . XDATA;   DISPLAYUNIT  MENU  MESSAGE  
GO . . . . . . . . . . . . . . . . . . . CODE;    DISPLAYUNIT  MESSAGE  
GPSLOCK. . . . . . . . . . . . . . . . . XDATA;   DISPLAYUNIT  FORMATGPS  MENU  MESSAGE  
GRAPHBCKGND. . . . . . . . . . . . . . . CODE;    DISPLAYUNIT  TIMER  
GRAPHRATIO . . . . . . . . . . . . . . . XDATA;   DISPLAYUNIT  MENU  TIMER  
INFOSCREEN . . . . . . . . . . . . . . . CODE;    DISPLAYUNIT  DISPLAY  
INIT_TABLES. . . . . . . . . . . . . . . CODE;    SESSION  DISPLAYUNIT  MENU  
IOBYTE . . . . . . . . . . . . . . . . . XDATA;   DISPLAYUNIT  MENU  MESSAGE  SESSION  
IOCOLLECT. . . . . . . . . . . . . . . . XDATA;   DISPLAYUNIT  FORMATGPS  MENU  MESSAGE  SESSION  
IOPAGECNT. . . . . . . . . . . . . . . . XDATA;   DISPLAYUNIT  MENU  MESSAGE  SESSION  
LAP. . . . . . . . . . . . . . . . . . . XDATA;   DISPLAYUNIT  MENU  MESSAGE  TIMER  
LAPLIST. . . . . . . . . . . . . . . . . XDATA;   DISPLAYUNIT  MENU  TIMER  
LAPSETLIST . . . . . . . . . . . . . . . CODE;    DISPLAYUNIT  
LAPSETTINGS. . . . . . . . . . . . . . . XDATA;   DISPLAYUNIT  
LAP_STORE. . . . . . . . . . . . . . . . CODE;    TIMER  MENU  MESSAGE  
LARGEASCII . . . . . . . . . . . . . . . CODE;    DISPLAYUNIT  DISPLAY  TIMER  
LASTDIST . . . . . . . . . . . . . . . . XDATA;   DISPLAYUNIT  TIMER  
MAIN . . . . . . . . . . . . . . . . . . CODE;    DISPLAYUNIT  ?C_INIT  
MAINMENU . . . . . . . . . . . . . . . . XDATA;   DISPLAYUNIT  MENU  
MAINMENULIST . . . . . . . . . . . . . . XDATA;   DISPLAYUNIT  
MEDDIGITS. . . . . . . . . . . . . . . . CODE;    DISPLAYUNIT  DISPLAY  
MEDL . . . . . . . . . . . . . . . . . . CODE;    DISPLAYUNIT  
MEDSPACE . . . . . . . . . . . . . . . . CODE;    DISPLAYUNIT  DISPLAY  
MENUBAR. . . . . . . . . . . . . . . . . CODE;    DISPLAYUNIT  FORMATGPS  MENU  MESSAGE  
MENULISTS. . . . . . . . . . . . . . . . XDATA;   DISPLAYUNIT  MENU  
MENUNAMES. . . . . . . . . . . . . . . . XDATA;   DISPLAYUNIT  MENU  MESSAGE  
MINUSSIGN. . . . . . . . . . . . . . . . CODE;    DISPLAYUNIT  TIMER  
MODE_CHANGE. . . . . . . . . . . . . . . XDATA;   DISPLAYUNIT  MESSAGE  
MSG0_ISR . . . . . . . . . . . . . . . . CODE;    CYGFX120  
MSG1_ISR . . . . . . . . . . . . . . . . CODE;    CYGFX120  
MSGROUTING . . . . . . . . . . . . . . . CODE;    DISPLAYUNIT  FACTORYTEST  MENU  MESSAGE  
MSGRXBUFF. . . . . . . . . . . . . . . . XDATA;   DISPLAYUNIT  
MSGTXBUFF. . . . . . . . . . . . . . . . XDATA;   DISPLAYUNIT  
NEW_MODE . . . . . . . . . . . . . . . . XDATA;   DISPLAYUNIT  MESSAGE  
NEXTSECOND . . . . . . . . . . . . . . . XDATA;   DISPLAYUNIT  CYGFX120  
NUMPAGES . . . . . . . . . . . . . . . . XDATA;   DISPLAYUNIT  CYGNALFLASH  FACTORYTEST  FDL  MENU  MESSAGE  SESSION  TI
                                                  MER  
OTHER. . . . . . . . . . . . . . . . . . XDATA;   DISPLAYUNIT  MENU  
OTHERLIST. . . . . . . . . . . . . . . . CODE;    DISPLAYUNIT  
OUTSTANDING_MSG. . . . . . . . . . . . . XDATA;   DISPLAYUNIT  MESSAGE  
PAGECNT. . . . . . . . . . . . . . . . . XDATA;   DISPLAYUNIT  MENU  MESSAGE  SESSION  
PAGESIZE . . . . . . . . . . . . . . . . XDATA;   DISPLAYUNIT  FACTORYTEST  MENU  MESSAGE  SESSION  
PLUSSIGN . . . . . . . . . . . . . . . . CODE;    DISPLAYUNIT  TIMER  
BL51 BANKED LINKER/LOCATER V6.22                                                      11/30/2014  18:01:41  PAGE 71


PORT_INIT_DU . . . . . . . . . . . . . . CODE;    DISPLAY  DISPLAYUNIT  
PREDICTIVE . . . . . . . . . . . . . . . CODE;    DISPLAYUNIT  TIMER  
READYTEXT. . . . . . . . . . . . . . . . CODE;    DISPLAYUNIT  MENU  
REFSECTORNUM . . . . . . . . . . . . . . XDATA;   DISPLAYUNIT  TIMER  
REPAIR_SESSIONS. . . . . . . . . . . . . CODE;    SESSION  DISPLAYUNIT  
RESET_TOP_LINE . . . . . . . . . . . . . CODE;    DISPLAY  MENU  MESSAGE  
REVERSEARROW . . . . . . . . . . . . . . CODE;    DISPLAYUNIT  
REVERSEBAR . . . . . . . . . . . . . . . CODE;    DISPLAYUNIT  MENU  TIMER  
SAMPLELIST . . . . . . . . . . . . . . . CODE;    DISPLAYUNIT  
SAMPRATES. . . . . . . . . . . . . . . . XDATA;   DISPLAYUNIT  MENU  
SAMPS_PER_SEC. . . . . . . . . . . . . . XDATA;   DISPLAYUNIT  MENU  MESSAGE  TIMER  
SCALECHOICES . . . . . . . . . . . . . . XDATA;   DISPLAYUNIT  MENU  
SCALELIST. . . . . . . . . . . . . . . . CODE;    DISPLAYUNIT  
SCRATCH. . . . . . . . . . . . . . . . . XDATA;   DISPLAYUNIT  CYGNALFLASH  DISPLAY  FORMATGPS  MENU  MESSAGE  TIMER  
SECONDCNT. . . . . . . . . . . . . . . . XDATA;   DISPLAYUNIT  MENU  MESSAGE  
SECONDTICK . . . . . . . . . . . . . . . XDATA;   DISPLAYUNIT  CYGFX120  
SECTOR . . . . . . . . . . . . . . . . . XDATA;   DISPLAYUNIT  MENU  TIMER  
SECTOR_STORE . . . . . . . . . . . . . . CODE;    TIMER  MENU  
SEEKHDG. . . . . . . . . . . . . . . . . XDATA;   DISPLAYUNIT  TIMER  
SEEKLAT. . . . . . . . . . . . . . . . . XDATA;   DISPLAYUNIT  TIMER  
SEEKLON. . . . . . . . . . . . . . . . . XDATA;   DISPLAYUNIT  TIMER  
SESSENDTIME. . . . . . . . . . . . . . . XDATA;   DISPLAYUNIT  MESSAGE  SESSION  
SESSENDWEEKS . . . . . . . . . . . . . . XDATA;   DISPLAYUNIT  MESSAGE  SESSION  
SESSION. . . . . . . . . . . . . . . . . XDATA;   DISPLAYUNIT  MENU  MESSAGE  TIMER  
SESSIONMENU. . . . . . . . . . . . . . . XDATA;   DISPLAYUNIT  MENU  
SESSIONMENUTITLE . . . . . . . . . . . . XDATA;   DISPLAYUNIT  MENU  
SESSIONS . . . . . . . . . . . . . . . . XDATA;   DISPLAYUNIT  MENU  
SESSION_INIT . . . . . . . . . . . . . . CODE;    MENU  
SESSMENULIST . . . . . . . . . . . . . . CODE;    DISPLAYUNIT  
SESSSTARTTIME. . . . . . . . . . . . . . XDATA;   DISPLAYUNIT  MESSAGE  SESSION  
SESSSTARTWEEKS . . . . . . . . . . . . . XDATA;   DISPLAYUNIT  MESSAGE  SESSION  
SETUP. . . . . . . . . . . . . . . . . . XDATA;   DISPLAYUNIT  MENU  
SETUPLIST. . . . . . . . . . . . . . . . CODE;    DISPLAYUNIT  
SMALLASCII . . . . . . . . . . . . . . . CODE;    DISPLAYUNIT  DISPLAY  
SMALLBOLDDIGITS. . . . . . . . . . . . . CODE;    DISPLAYUNIT  TIMER  
SMALLBOLDPERIOD. . . . . . . . . . . . . CODE;    DISPLAYUNIT  TIMER  
SPIO_INIT. . . . . . . . . . . . . . . . CODE;    CYGFX120  DISPLAYUNIT  
STARTFIN . . . . . . . . . . . . . . . . CODE;    DISPLAYUNIT  MESSAGE  
STARTFINLIST . . . . . . . . . . . . . . XDATA;   DISPLAYUNIT  
STARTFINMENU . . . . . . . . . . . . . . XDATA;   DISPLAYUNIT  
STARTSCREENCHOICES . . . . . . . . . . . XDATA;   DISPLAYUNIT  MENU  
STARTSCREENLIST. . . . . . . . . . . . . CODE;    DISPLAYUNIT  
STATUSTITLE. . . . . . . . . . . . . . . CODE;    DISPLAYUNIT  MENU  
STOPLIGHT. . . . . . . . . . . . . . . . CODE;    DISPLAYUNIT  MESSAGE  
SU_DATA. . . . . . . . . . . . . . . . . XDATA;   DISPLAYUNIT  
SU_HW. . . . . . . . . . . . . . . . . . XDATA;   DISPLAYUNIT  FORMATGPS  MENU  
SU_PRESENT . . . . . . . . . . . . . . . XDATA;   DISPLAYUNIT  MENU  
SU_SW. . . . . . . . . . . . . . . . . . XDATA;   DISPLAYUNIT  
SU_WEEK. . . . . . . . . . . . . . . . . XDATA;   DISPLAYUNIT  
SU_YEAR. . . . . . . . . . . . . . . . . XDATA;   DISPLAYUNIT  
SWALLOW_MESSAGE. . . . . . . . . . . . . CODE;    DISPLAYUNIT  
SYSCLK_INIT. . . . . . . . . . . . . . . CODE;    CYGFX120  DISPLAYUNIT  
T3_ISR . . . . . . . . . . . . . . . . . CODE;    CYGFX120  
TIMINGICON . . . . . . . . . . . . . . . CODE;    DISPLAYUNIT  MENU  TIMER  
TIMINGMODE . . . . . . . . . . . . . . . XDATA;   DISPLAYUNIT  MENU  TIMER  
TM_STATE . . . . . . . . . . . . . . . . XDATA;   DISPLAYUNIT  MENU  MESSAGE  SESSION  TIMER  
TOPLINE. . . . . . . . . . . . . . . . . XDATA;   DISPLAYUNIT  DISPLAY  
BL51 BANKED LINKER/LOCATER V6.22                                                      11/30/2014  18:01:41  PAGE 72


TRACKLENCHOICES. . . . . . . . . . . . . XDATA;   DISPLAYUNIT  MENU  
TRACKLENLIST . . . . . . . . . . . . . . CODE;    DISPLAYUNIT  
TRACKS . . . . . . . . . . . . . . . . . XDATA;   DISPLAYUNIT  MENU  
TRACKSAMPLEDIST. . . . . . . . . . . . . XDATA;   DISPLAYUNIT  MENU  TIMER  
TRAQDATACONNECTED. . . . . . . . . . . . XDATA;   DISPLAYUNIT  MESSAGE  
TRAQMATEICON . . . . . . . . . . . . . . CODE;    DISPLAYUNIT  
UNITCHOICES. . . . . . . . . . . . . . . XDATA;   DISPLAYUNIT  MENU  
UNITLIST . . . . . . . . . . . . . . . . CODE;    DISPLAYUNIT  
VEHICLES . . . . . . . . . . . . . . . . XDATA;   DISPLAYUNIT  MENU  
WAITFORCAM . . . . . . . . . . . . . . . XDATA;   DISPLAYUNIT  
WAITFORCAMERA. . . . . . . . . . . . . . CODE;    DISPLAYUNIT  
WRITEINPUTS. . . . . . . . . . . . . . . CODE;    FORMATGPS  MESSAGE  
WRITE_LAP. . . . . . . . . . . . . . . . CODE;    TIMER  MENU  
WRITE_TIMER. . . . . . . . . . . . . . . CODE;    TIMER  MENU  MESSAGE  
_?MENU_OP. . . . . . . . . . . . . . . . CODE;    MENU  DISPLAYUNIT  MESSAGE  
_ATAN. . . . . . . . . . . . . . . . . . CODE;    ATAN  ATAN2  
_ATAN2 . . . . . . . . . . . . . . . . . CODE;    ATAN2  TIMER  
_ATOI. . . . . . . . . . . . . . . . . . CODE;    ATOI  MENU  
_BACKCONTRAST. . . . . . . . . . . . . . CODE;    MENU  
_BACKLAP . . . . . . . . . . . . . . . . CODE;    MENU  
_BUTTON_OVERLAY. . . . . . . . . . . . . XDATA;   DISPLAYUNIT  MENU  TIMER  
_CLEARMENU . . . . . . . . . . . . . . . CODE;    MENU  
_CLEARSTART. . . . . . . . . . . . . . . CODE;    MENU  DISPLAYUNIT  
_COLLECTDATA . . . . . . . . . . . . . . CODE;    MENU  DISPLAYUNIT  
_COMPUTE_HEADING . . . . . . . . . . . . CODE;    TIMER  FORMATGPS  
_CONTRAST. . . . . . . . . . . . . . . . CODE;    MENU  DISPLAYUNIT  
_COPYTOCODESPACE . . . . . . . . . . . . CODE;    FDL  MESSAGE  
_COS . . . . . . . . . . . . . . . . . . CODE;    SIN  TIMER  
_CRC16 . . . . . . . . . . . . . . . . . CODE;    CRC  MESSAGE  
_DATAFLASHTEST . . . . . . . . . . . . . CODE;    FACTORYTEST  MESSAGE  
_DATAFLASH_BUFFER_CLEAR. . . . . . . . . CODE;    DATAFLASH  DISPLAYUNIT  MESSAGE  SESSION  
_DATAFLASH_BUFFER_WRITE. . . . . . . . . CODE;    DATAFLASH  MESSAGE  
_DATAFLASH_ERASE_BLOCK . . . . . . . . . CODE;    DATAFLASH  
_DATAFLASH_ERASE_PAGE. . . . . . . . . . CODE;    DATAFLASH  FACTORYTEST  MENU  MESSAGE  SESSION  
_DATAFLASH_ERASE_RANGE . . . . . . . . . CODE;    DATAFLASH  DISPLAYUNIT  MENU  MESSAGE  SESSION  
_DATAFLASH_INIT. . . . . . . . . . . . . CODE;    DATAFLASH  DISPLAYUNIT  
_DATAFLASH_PAGE_READ . . . . . . . . . . CODE;    DATAFLASH  DISPLAYUNIT  FACTORYTEST  MENU  MESSAGE  SESSION  TIMER  
_DATAFLASH_PAGE_WRITE_ERASE. . . . . . . CODE;    DATAFLASH  FACTORYTEST  MENU  MESSAGE  SESSION  TIMER  
_DATAFLASH_PAGE_WRITE_FROM_BUFFER_ERASE. CODE;    DATAFLASH  MENU  MESSAGE  
_DETAIL. . . . . . . . . . . . . . . . . CODE;    MENU  DISPLAYUNIT  
_DISPLAYDRAGNUMS . . . . . . . . . . . . CODE;    MENU  TIMER  
_DNCONTRAST. . . . . . . . . . . . . . . CODE;    MENU  
_DNGMT . . . . . . . . . . . . . . . . . CODE;    MENU  
_DNLAP . . . . . . . . . . . . . . . . . CODE;    MENU  
_DNLAPHOLD . . . . . . . . . . . . . . . CODE;    MENU  
_DODATE. . . . . . . . . . . . . . . . . CODE;    FORMATGPS  
_DOGMT . . . . . . . . . . . . . . . . . CODE;    MENU  DISPLAYUNIT  
_DONTCLEAR . . . . . . . . . . . . . . . CODE;    MENU  DISPLAYUNIT  
_DOTEMP. . . . . . . . . . . . . . . . . CODE;    FORMATGPS  MENU  
_END_SESSION . . . . . . . . . . . . . . CODE;    SESSION  MENU  MESSAGE  
_ERASEALL. . . . . . . . . . . . . . . . CODE;    MENU  DISPLAYUNIT  
_ERASESESS . . . . . . . . . . . . . . . CODE;    MENU  DISPLAYUNIT  
_ERASE_SESSION . . . . . . . . . . . . . CODE;    SESSION  MENU  MESSAGE  
_FDL_XFERSPI . . . . . . . . . . . . . . CODE;    FDL  
_FORMATGAUGES. . . . . . . . . . . . . . CODE;    FORMATGPS  MESSAGE  
_FORMATGPS . . . . . . . . . . . . . . . CODE;    FORMATGPS  MESSAGE  
_FORMATTIME. . . . . . . . . . . . . . . CODE;    FORMATGPS  MENU  
BL51 BANKED LINKER/LOCATER V6.22                                                      11/30/2014  18:01:41  PAGE 73


_FULL_SCREEN . . . . . . . . . . . . . . CODE;    DISPLAY  DATAFLASH  DISPLAYUNIT  FORMATGPS  MENU  MESSAGE  SESSION  TI
                                                  MER  
_IDLE. . . . . . . . . . . . . . . . . . CODE;    MENU  
_INFO_SCREEN . . . . . . . . . . . . . . CODE;    DISPLAY  DISPLAYUNIT  MENU  MESSAGE  
_INITDUSCRATCHPAD. . . . . . . . . . . . CODE;    CYGNALFLASH  DISPLAYUNIT  
_INIT_SESSION. . . . . . . . . . . . . . CODE;    SESSION  DISPLAYUNIT  
_ISDIGIT . . . . . . . . . . . . . . . . CODE;    ISDIGIT  ATOI  
_ISPRINT . . . . . . . . . . . . . . . . CODE;    ISPRINT  CYGNALFLASH  SESSION  
_ISSPACE . . . . . . . . . . . . . . . . CODE;    ISSPACE  ATOI  
_JUMPCOPY. . . . . . . . . . . . . . . . CODE;    MESSAGE  
_LAPHOLD . . . . . . . . . . . . . . . . CODE;    MENU  DISPLAYUNIT  
_LAP_CHECK . . . . . . . . . . . . . . . CODE;    TIMER  MENU  MESSAGE  
_LOADAUTOON. . . . . . . . . . . . . . . CODE;    MENU  DISPLAYUNIT  
_LOADCAMERAS . . . . . . . . . . . . . . CODE;    MENU  DISPLAYUNIT  
_LOADDRIVERS . . . . . . . . . . . . . . CODE;    MENU  DISPLAYUNIT  
_LOADGRAPHSCALE. . . . . . . . . . . . . CODE;    MENU  DISPLAYUNIT  
_LOADSAMP. . . . . . . . . . . . . . . . CODE;    MENU  DISPLAYUNIT  
_LOADSTARTSCREEN . . . . . . . . . . . . CODE;    MENU  DISPLAYUNIT  
_LOADTRACKLEN. . . . . . . . . . . . . . CODE;    MENU  DISPLAYUNIT  
_LOADTRACKS. . . . . . . . . . . . . . . CODE;    MENU  DISPLAYUNIT  
_LOADUNITS . . . . . . . . . . . . . . . CODE;    MENU  DISPLAYUNIT  
_LOADVEHICLES. . . . . . . . . . . . . . CODE;    MENU  DISPLAYUNIT  
_MARKFINISH. . . . . . . . . . . . . . . CODE;    MENU  TIMER  
_MARKSTART . . . . . . . . . . . . . . . CODE;    MENU  
_NEXTINPUT . . . . . . . . . . . . . . . CODE;    MENU  
_PACKMEM . . . . . . . . . . . . . . . . CODE;    MENU  DISPLAYUNIT  
_PACK_SESSIONS . . . . . . . . . . . . . CODE;    SESSION  MENU  MESSAGE  
_PARSE_MESSAGE . . . . . . . . . . . . . CODE;    MESSAGE  DISPLAYUNIT  
_PREVINPUT . . . . . . . . . . . . . . . CODE;    MENU  
_PRINTF. . . . . . . . . . . . . . . . . CODE;    PRINTF  
_PUTCHAR . . . . . . . . . . . . . . . . CODE;    PUTCHAR  PRINTF  
_READSCRATCHPAD. . . . . . . . . . . . . CODE;    CYGNALFLASH  DISPLAY  MESSAGE  
_READ_DISPLAY. . . . . . . . . . . . . . CODE;    DISPLAY  
_REVIEW. . . . . . . . . . . . . . . . . CODE;    MENU  DISPLAYUNIT  
_SAVEAUTOON. . . . . . . . . . . . . . . CODE;    MENU  DISPLAYUNIT  
_SAVECAMERAS . . . . . . . . . . . . . . CODE;    MENU  DISPLAYUNIT  
_SAVEDOWNLOAD. . . . . . . . . . . . . . CODE;    MESSAGE  
_SAVEPICKLISTS . . . . . . . . . . . . . CODE;    MENU  
_SAVESAMP. . . . . . . . . . . . . . . . CODE;    MENU  DISPLAYUNIT  
_SAVESCALE . . . . . . . . . . . . . . . CODE;    MENU  DISPLAYUNIT  
_SAVESTARTSCREEN . . . . . . . . . . . . CODE;    MENU  DISPLAYUNIT  
_SAVETRACKLEN. . . . . . . . . . . . . . CODE;    MENU  DISPLAYUNIT  
_SAVEUNITS . . . . . . . . . . . . . . . CODE;    MENU  DISPLAYUNIT  
_SENDMESSAGE . . . . . . . . . . . . . . CODE;    MESSAGE  DISPLAYUNIT  FACTORYTEST  MENU  
_SENDNAK . . . . . . . . . . . . . . . . CODE;    MESSAGE  
_SESSTITLE . . . . . . . . . . . . . . . CODE;    MENU  
_SHOWLAPS. . . . . . . . . . . . . . . . CODE;    MENU  DISPLAYUNIT  
_SIN . . . . . . . . . . . . . . . . . . CODE;    SIN  
_SPRINTF . . . . . . . . . . . . . . . . CODE;    PRINTF  DATAFLASH  DISPLAYUNIT  FACTORYTEST  FORMATGPS  MENU  MESSAGE 
                                                   SESSION  TIMER  
_SQRT. . . . . . . . . . . . . . . . . . CODE;    SQRT  FORMATGPS  TIMER  
_STAGE . . . . . . . . . . . . . . . . . CODE;    MENU  
_START_SESSION . . . . . . . . . . . . . CODE;    SESSION  MENU  
_STATUS. . . . . . . . . . . . . . . . . CODE;    MENU  DISPLAYUNIT  
_STRLEN. . . . . . . . . . . . . . . . . CODE;    STRLEN  FACTORYTEST  FORMATGPS  MENU  MESSAGE  
_STRNCPY . . . . . . . . . . . . . . . . CODE;    STRNCPY  MENU  
_TAN . . . . . . . . . . . . . . . . . . CODE;    SIN  
BL51 BANKED LINKER/LOCATER V6.22                                                      11/30/2014  18:01:41  PAGE 74


_TIMER3_INIT . . . . . . . . . . . . . . CODE;    CYGFX120  DISPLAYUNIT  
_UART_INIT . . . . . . . . . . . . . . . CODE;    CYGFX120  DISPLAYUNIT  
_UNPACK_VELOCITIES . . . . . . . . . . . CODE;    TIMER  FORMATGPS  
_UPCONTRAST. . . . . . . . . . . . . . . CODE;    MENU  
_UPGMT . . . . . . . . . . . . . . . . . CODE;    MENU  
_UPLAP . . . . . . . . . . . . . . . . . CODE;    MENU  
_UPLAPHOLD . . . . . . . . . . . . . . . CODE;    MENU  
_VERIFY_CRC. . . . . . . . . . . . . . . CODE;    MESSAGE  
_WIPEMEM . . . . . . . . . . . . . . . . CODE;    MENU  DISPLAYUNIT  
_WRITECOMPASS. . . . . . . . . . . . . . CODE;    FORMATGPS  MESSAGE  
_WRITERPM. . . . . . . . . . . . . . . . CODE;    FORMATGPS  MESSAGE  
_WRITESCRATCHPAD . . . . . . . . . . . . CODE;    CYGNALFLASH  MENU  MESSAGE  
_WRITE_BIG_LINE. . . . . . . . . . . . . CODE;    DISPLAY  DATAFLASH  DISPLAYUNIT  SESSION  
_WRITE_BIG_TEXT. . . . . . . . . . . . . CODE;    DISPLAY  FORMATGPS  MESSAGE  
_WRITE_DISPLAY . . . . . . . . . . . . . CODE;    DISPLAY  
_WRITE_FLAG. . . . . . . . . . . . . . . CODE;    TIMER  MENU  
_WRITE_ICON. . . . . . . . . . . . . . . CODE;    DISPLAY  DISPLAYUNIT  FORMATGPS  MENU  MESSAGE  TIMER  
_WRITE_LINE. . . . . . . . . . . . . . . CODE;    DISPLAY  DISPLAYUNIT  MESSAGE  
_WRITE_MED_TEXT. . . . . . . . . . . . . CODE;    DISPLAY  TIMER  
_WRITE_QUAL. . . . . . . . . . . . . . . CODE;    TIMER  
_WRITE_SCREEN. . . . . . . . . . . . . . CODE;    DISPLAY  DISPLAYUNIT  MENU  MESSAGE  TIMER  
_WRITE_TEXT. . . . . . . . . . . . . . . CODE;    DISPLAY  FORMATGPS  MENU  MESSAGE  TIMER  
_XFERSPI . . . . . . . . . . . . . . . . CODE;    CYGFX120  DATAFLASH  
_XMITUART. . . . . . . . . . . . . . . . CODE;    CYGFX120  MESSAGE  

Program Size: data=123.1 xdata=8016 code=62823
LINK/LOCATE RUN COMPLETE.  0 WARNING(S),  0 ERROR(S)
