:10990600436F707972696768742028432920323062
:1099160030342D3920547261636B2053797374652A
:109926006D7320546563686E6F6C6F676965732C21
:10993600204C4C43000200FF000000C0C1C1810161
:1099460040C30103C00280C241C60106C00780C7EA
:10995600410500C5C1C4810440CC010CC00D80CDB9
:10996600410F00CFC1CE810E400A00CAC1CB810B88
:1099760040C90109C00880C841D80118C01980D95A
:10998600411B00DBC1DA811A401E00DEC1DF811FE8
:1099960040DD011DC01C80DC411400D4C1D58115F9
:1099A60040D70117C01680D641D20112C01380D30A
:1099B600411100D1C1D0811040F00130C03180F199
:1099C600413300F3C1F28132403600F6C1F78137E8
:1099D60040F50135C03480F4413C00FCC1FD813DB9
:1099E60040FF013FC03E80FE41FA013AC03B80FB8A
:1099F600413900F9C1F88138402800E8C1E98129D8
:109A060040EB012BC02A80EA41EE012EC02F80EFE9
:109A1600412D00EDC1EC812C40E40124C02580E5F8
:109A2600412700E7C1E68126402200E2C1E3812307
:109A360040E10121C02080E041A00160C06180A119
:109A4600416300A3C1A28162406600A6C1A78167E7
:109A560040A50165C06480A4416C00ACC1AD816DB8
:109A660040AF016FC06E80AE41AA016AC06B80AB89
:109A7600416900A9C1A88168407800B8C1B9817957
:109A860040BB017BC07A80BA41BE017EC07F80BFE9
:109A9600417D00BDC1BC817C40B40174C07580B5F8
:109AA600417700B7C1B68176407200B2C1B3817307
:109AB60040B10171C07080B041500090C191815198
:109AC60040930153C052809241960156C0578097E9
:109AD60041550095C1948154409C015CC05D809DB8
:109AE600415F009FC19E815E405A009AC19B815B87
:109AF60040990159C058809841880148C0498089D9
:109B0600414B008BC18A814A404E008EC18F814FE6
:109B1600408D014DC04C808C41440084C1858145F7
:109B260040870147C046808641820142C043808308
:099B360041410081C180814040E1
:10B7780050001B0000000000000000000000000056
:10B78800000000430C32000000410C2400410CB5BD
:10B798000A41000500027900000275000050002FE0
:10B7A8000000000000000000000000000000000091
:10B7B800017D004102A800410CBC004200020000CB
:10B7C800410CB80042026B000042005700004202E0
:10B7D800BB00A0410CB700410CBB004202BE0000F8
:10B7E80041000100410004004102EE00410BDE006F
:10B7F800410CB600027E0000027700004202C10040
:10B80800004102BD004102EF0041000000410CBDB3
:10B8180000410018004102ED0044002BFFFFFFFF2C
:10B8280044003FFFFFFFFF420016FFFF420019FFE1
:05B83800FF4102F004D5
:1017E600E4F52DF52CF52BF52A900CE3F0A3F0A3E8
:1017F6007406F075840F75FFDE75FFAD12C26D12AB
:10180600BF8EC2B4C2B5C2B6120026753E01753F80
:10181600097540487B017A0C792212B69612B55AA0
:10182600900CB57414F0E49002BDF012A398125611
:1018360052E4900CDFF0A3F0900CDFE0FAA3E0FB9B
:101846009002CD75F0151233CBEA75F015A42583F9
:10185600F58312335C000000009002C975F015EBA9
:101866001233CBEA75F015A42583F58312335C0099
:10187600000000900CDFE0FAA3E0FB9002C375F0D5
:10188600151233CBEA75F015A42583F58312335C64
:10189600000000009002D175F015EB1233CBEA750B
:1018A600F015A42583F583E4F0A3F0900CDFE0FEA9
:1018B600A3E0FF9002C775F0151233CBEE75F01555
:1018C600A42583F583E4F0A3F09002D675F015EF16
:1018D6001233CBEE75F015A42583F583E4F0900260
:1018E600D575F015EF1233CBEE75F015A42583F5FB
:1018F60083E4F09002D475F015EF1233CBEE75F059
:1019060015A42583F583E4F09002D375F015EF1244
:1019160033CBEE75F015A42583F583E4F09002D75A
:1019260075F015EF1233CBEE75F015A42583F5830C
:10193600E4F0900CDF75F001122FC7900CDFE07019
:1019460004A3E06402600302183EE4900000F01273
:10195600C14F7F007E9612C60D12C6D112C443E453
:10196600900282F09002957402F090029E744EF0FE
:101976007B017A0279F19002911233F07A09794A61
:101986009002A41233F07A07792B90028E1233F06C
:101996007A0B79DF9002A11233F0E4900281F09085
:1019A600029404F090028B744EF0E4900296F0A339
:1019B600F0900283F0A3F09002A0F090028DF090D8
:1019C600029FF090028CF01BFAF990029B1233F002
:1019D6009002981233F09002881233F0900285122A
:1019E60033F00B7A0279817F007EC27D017C001282
:1019F6009F9F900018E07B017A02799460067F80B1
:101A06007E2580047F007EE17D007C00129F9F90F2
:101A16000018E060247B017A02797190005312333A
:101A2600F07A0279A99000501233F0E490004CF05D
:101A3600A3F0900056F012C6BB12AFEC20E8137864
:101A46002A1233307B807A9679987800D312324303
:021A560050EA54
:101A5800900CC012335C0000AFC8E4FFFEFDFC90A0
:101A68000CC0123314D312322D4017900CC012330D
:101A78000874FFFBFAF9F81230DA900CC0123350F0
:021A880080D804
:101A8A00E49002C1F0A3F0F53E753F00754077FB84
:0F1A9A007A00797E12B419D2AF900018E060354F
:101AA900900CC412335C00006978E4FFFEFDFC90E1
:101AB9000CC4123314D312322D4017900CC41233B4
:101AC9000874FFFBFAF9F81230DA900CC41233509B
:021AD90080D8B3
:101ADB00128D671200A6900CBD7401F0E4900C26D9
:101AEB00F0900C31F0900C2BF0A3F0900C29F0A39C
:101AFB00F0A2DA33900C28F090026CE02458FE90A0
:101B0B00026BE03400900C2FF0A3CEF0900057E066
:101B1B00FCA3E0FD2406FEE43C900C2DF0A3CEF0DC
:101B2B00ED2405FEE43C900CE1F0A3CEF0E5D85497
:101B3B0003600C900C25E064036004E4F080557B9B
:101B4B00017A0079597558007559037F107E02127E
:101B5B00BC639001FFE0540F900008F09001FFE090
:101B6B0054F0C4540F900009F0900008E0B4031F28
:101B7B00900C25E06403601CE5D85403FFBF0205FD
:101B8B007402F0800F900C257401F0A3F08005E433
:101B9B00900C25F0E4900CDFF0A3F0900948E0FEE8
:101BAB00A3E0FF900CDFE0FCA3E0FDC39FEC9E5095
:101BBB001774592DF58274003CF583E4F0900CDF1B
:101BCB0075F001122FC780D3900CA6E0F46009E0EA
:101BDB006006900C2474E0F09002A8E06020C390A3
:0D1BEB000020E094B890001FE0940B501112
:101BF80012B15A12007E8F38E53830E7F6C2FF80FE
:011C0800FEDD
:101C0900900C25E0FF64037040900057E0FCA3E0CE
:101C1900FD900CE1E0B50413A3E0B5050EA3740132
:101C2900F0900CE1E475F001122FC730DC09900C3B
:101C3900277403F0021E4C900C2730DB067404F065
:101C4900021E4C7402F0021E4CEF64026003021E75
:011C59004C3E
:101C5A00F538900057E0FAA3E0FB900CE1E0B502FA
:101C6A0013A3E0B5030EA37401F0900CE1E475F040
:101C7A0001122FC730DB17900C27E06404700302AF
:101C8A001D547404F0900CE37401F0021D54900C7E
:101C9A0027E0B404297402F090026CE02403FE9059
:101CAA00026BE03400900C2FF0A3CEF0A2DAE433FA
:101CBA00900C28F0E4900C31F0900CE304F0900CB6
:101CCA002FE0FEA3E0FF90026BE0FCA3E0FD6F7043
:101CDA0002EC6E7075A2DA33FF900C28E0FE6F708A
:101CEA0034900C31E0C394025005E004F0804EEECB
:101CFA006012900C27E0640260437402F0900CE3D7
:101D0A0014F08039900C27E0640160317401F0907E
:101D1A000CE3F08028900C27E0640360097403F058
:101D2A00900CE37401F0900C28E070047F018002AB
:101D3A007F00900C28EFF0900C317401F0ED2458DC
:101D4A00FEE43C900C2FF0A3CEF0900C26E0600449
:101D5A00A3E07017900C277401F0900C26F0EB2486
:101D6A0005FEE43A900C2DF0A3CEF0900C2DE0FE87
:101D7A00A3E0FF900057E0B50619A3E0B507149059
:101D8A000C2DE475F00A122FC7900C27E0B401035A
:101D9A00753801900C24E0B4E103E4F538E53860C5
:101DAA001A900C267405F090026CE02403FE90024F
:101DBA006BE03400900C2BF0A3CEF0900C2BE0FEDD
:101DCA00A3E0FF90026BE0FCA3E0FD6F7002EC6EF3
:101DDA007070900C26E024FD604B24FE601A14609B
:101DEA004A2404705D900C267403F0ED2450FEE43E
:101DFA003C900C2BF0A3CEF0900C26E0B40517749F
:101E0A0006F090026CE02428FE90026BE034009009
:101E1A000C2BF0A3CEF0900C25E024FE6003047096
:101E2A0021D2CC801D900C267404F0900C26E0B4CC
:101E3A0006037401F0900C25E024FE60030470028E
:021E4A00C2CC08
:0B1E4C009002851233E7E94A4B602B3F
:101E57009002851233E78B388A39893A7B007A00FA
:101E670079009002851233F0AB38AA39A93AE4FF1A
:0B1E7700124498900CDDEEF0A3EFF099
:101E8200900CA5E020E003D38001C35003021F3869
:101E92009002C2E094F09002C1E094005003021F4D
:011EA2003807
:101EA30012B15A12007E8F38E53830E7F69002ED12
:101EB300E0B40204C2CA8076900C25E06402706E1E
:081EC300900C27E06401606649
:101ECB00900CC812335C000DBBA0E4FFFEFDFC9030
:101EDB000CC8123314D312322D4017900CC8123386
:101EEB000874FFFBFAF9F81230DA900CC812335071
:021EFB0080D88D
:021EFD00D2CC45
:101EFF00900CCC12335C00112A88E4FFFEFDFC909D
:101F0F000CCC123314D312322D4017900CCC123349
:101F1F000874FFFBFAF9F81230DA900CCC12335038
:021F2F0080D858
:071F3100C2FFE4F5F880FE99
:101F380020E803021FE5C39002C2E094099002C1A1
:101F4800E094005003021FDE900C24E02420600A75
:0A1F580014606014606724E2707CDE
:101F6200900CA5E030E175127922900057E0FEA3B3
:101F7200E0FF900CA8E02FFF900CA7E03E900CBE73
:101F8200F0A3EFF090026BE0F538A3E0F539753E6F
:101F920000753F007540777B007A00797E12909A37
:101FA200900005EFF07008C2B6900C24F0802D90DE
:091FB2000C2474E1F0D2B6802386
:101FBB00900CA5E030E11C12B162900CA6E0F4602D
:101FCB000BE06008900C2474E0F08005E4900C2486
:101FDB00F0C2B5E49002C1F0A3F0900CB7E070032F
:101FEB00022135E4F09002EEE0F460030220C6908B
:101FFB000C25E0FFB40305C2CA0220BAEF640260ED
:0D200B00030220BA900C27E0B40436D2CCBA
:10201800900CD012335C0001B774E4FFFEFDFC9015
:102028000CD0123314D312322D4017900CD0123327
:102038000874FFFBFAF9F81230DA900CD01233501A
:0220480080D83E
:0A204A00C2CC900C27E06401606630
:10205400900CD412335C000DBBA0E4FFFEFDFC9099
:102064000CD4123314D312322D4017900CD41233E3
:102074000874FFFBFAF9F81230DA900CD4123350DA
:0220840080D802
:02208600D2CCBA
:10208800900CD812335C00112A88E4FFFEFDFC9006
:102098000CD8123314D312322D4017900CD81233A7
:1020A8000874FFFBFAF9F81230DA900CD8123350A2
:0220B80080D8CE
:1020BA00C2B3C2B6C2B5C2B4C2FF80FE9002EEE09D
:1020CA00FF64F07022900C24EFF0E4F57EF57F9027
:1020DA00000574FFF0D2B3D2B6D2B5D2B4C2A853B7
:1020EA00E7FD53E7BF8010EFB4F113900C24F0C260
:1020FA00B3C2B6C2B5C2B4E49002EEF0802DEF646A
:10210A00F27028900C24EFF0D2B3D2B6D2B5D2B482
:10211A00900C23E024FFFD900C22E034FFFCE4FB4A
:10212A00FFFE12C076E4F58443EF01900C24E0FF31
:10213A0064E06008EF64E16003021BE39002A8E038
:10214A007003022295D3900020E094B890001FE01B
:10215A00940B4007E49002A8F080069002A874014C
:10216A00F0C3E57A940AE57964809480400675792B
:10217A0000757A09900018E06007E49002A7F080E1
:10218A0035900021E0FEA3E0FFEF24FBFFEE34EBE5
:10219A00FEE434FFFDE434FFFCE47BE87A03F9F85B
:1021AA001230F5E47BE57A24F9F812C4D29002A73A
:1021BA00EFF0E024CEF0900C24E064E16003021B0F
:1021CA00E39002F0E06003021BE3C3E576940AE5BC
:1021DA007564809480400675750075760990001DB7
:1021EA00E0540FFD90001BE0540FC4F854F0C8E40B
:1021FA00C4540F482DFF90006E75F033E57A123300
:10220A00CBE57975F033A42583F58375F003E5767C
:10221A001233CBE57575F003A42583F583EFF090AF
:10222A00001BA3E0FF90006F75F033E57A1233CB01
:10223A00E57975F033A42583F58375F003E5761205
:10224A0033CBE57575F003A42583F583EFF0900091
:10225A001DA3E0FF90007075F033E57A1233CBE5E9
:10226A007975F033A42583F58375F003E576123387
:10227A00CBE57575F003A42583F583EFF00576E5C4
:10228A007670020575129380021BE39002A0E0FFAC
:0A229A0090029FE06F7003022538E8
:1022A400EF75F0DCA4FF9002A41233E7E92FF9EAFA
:1022B40035F08B38F539893A9002A0E0FFB4020476
:1022C4007F008003EF04FF9002A0EFF09002A7E0EC
:1022D400FF90006D75F033E57A1233CBE57975F034
:1022E40033A42583F583EFF0AE79AF7A7C007D3398
:1022F400122F2A74592FF974003E753E01F53F8957
:1023040040AB38AA39A93A124D8390006975F0336D
:10231400E57A1233CBE57975F033A42583F583E0B0
:1023240054E075F008A4FFAEF090006A75F033E550
:102334007A1233CBE57975F033A42583F583E0FD78
:10234400EEF52EEF4DF52FE52E30E20744F8F52E8D
:10235400852F2F90006975F033E57A1233CBE57938
:1023640075F033A42583F583E0541C75F040A4FF75
:10237400AEF090006B75F033E57A1233CBE57975E6
:10238400F033A42583F583E0FDEEF530EF4DF53110
:10239400E53030E20744F8F530853131AC30AD3109
:1023A400EC122B2BC004C005C006C007AC30AD3105
:1023B400EC122B2BD003D002D001D000122902C082
:1023C40004C005C006C007AC2EAD2FEC122B2BC0E9
:1023D40004C005C006C007AC2EAD2FEC122B2BD0C9
:1023E40003D002D001D000122902D003D002D001C0
:1023F400D00012281112BA7B7B5C7A8F7982783FE5
:102404001229028F378E368D358C347F747ED17DC0
:102414000D7C40AB37AA36A935A834122902122BF9
:10242400648E328F33900C24E064E17066E53345AA
:1024340032601C900057E0FEA3E0FF900CA8E02F50
:10244400FF900CA7E03E900CBEF0A3EFF080449008
:102454000CBEE0FEA3E0FF900057E06E7003A3E023
:102464006F7030900CA7E0F47003A3E0F460249044
:102474000CA7E07002A3E0601A12B162900CA6E00F
:10248400F4600BE06008900C2474E0F08005E490A4
:102494000C24F0900C24E064E06003021BE3900C35
:1024A400E4E07002A3E0600D900CE474FFF5F01218
:1024B4002FC7021BE3900CBBE0D394055003021B0F
:1024C400E39002BFE0942C9002BEE094014003022A
:1024D4001BE3900CA6E0FFC3E5339FE53294005064
:1024E40003021BE3900C2474E1F01279229000574C
:1024F400E0FEA3E0FF900CA8E02FFF900CA7E03EC5
:10250400900CBEF0A3EFF0753E00753F0075407768
:102514007B007A00797E12909A900005EFF07009A2
:10252400C2B6900C24F0021BE3900C2474E1F0D2A8
:01253400B6F0
:10253500021BE3900CBCE0FD7017900002E0FEA3C7
:10254500E0FF90026BE06E7003A3E06F6003021B77
:10255500E3900CB5E0FF74A08FF08475F00AA4FF3A
:1025650090026CE02401FB90026BE03400CB2FFE5F
:10257500EB35F0900002F0A3CEF0ED700E900CBBA1
:10258500F090000274FFF5F0122FC7900C24E0FFC5
:1025950064E160030227EF9002F0E0FE700302267B
:1025A5005BEF64E1600302265B900CBCE070030204
:1025B50027EF900C25E0FFB4031A30DC059002F0FC
:1025C5008008D2CA9002F030DB057401F0805DE02E
:0F25D50014F08058EF6055900C24E064E1704DD5
:1025E400A3E0B40207900C27E0B40408900C25E0A3
:1025F40064026039900CB5E0900CDCB428057406D4
:10260400F080037404F0900CDCE0B50620900C26F6
:102614007402F0900C29E0FEA3E0FF90026CE02F1E
:0D262400FF90026BE03E900C2BF0A3EFF056
:102631009002F0E014F060030227EFF575F576F5EE
:1026410079F57A900949E024FFFE900948E034FFCA
:10265100900006F0A3CEF00227EFC3E576940AE5D9
:10266100756480948040030227ECE5764575707AA5
:10267100900C90E0540FFD900C8EE0540FC4F85470
:10268100F0C8E4C4540F482DFF90006E75F033E597
:102691007A1233CBE57975F033A42583F58375F090
:1026A10003E5761233CBE57575F003A42583F58335
:1026B100EFF0900C8EE0A3E0FF90006F75F033E532
:1026C1007A1233CBE57975F033A42583F58375F060
:1026D10003E5761233CBE57575F003A42583F58305
:1026E100EFF0900C90E0A30227B690006B75F033E9
:1026F100E57A1233CBE57975F033A42583F583753B
:10270100F003E5761233CBE57575F003A42583F567
:1027110083E0FF90006E75F033E57A1233CBE579F3
:1027210075F033A42583F58375F003E5761233CB79
:10273100E57575F003A42583F583EFF090006C75C2
:10274100F033E57A1233CBE57975F033A42583F5BF
:102751008375F003E5761233CBE57575F003A42597
:1027610083F583E0FF90006F75F033E57A1233CB88
:10277100E57975F033A42583F58375F003E57612C9
:1027810033CBE57575F003A42583F583EFF0900055
:102791006D75F033E57A1233CBE57975F033A42505
:1027A10083F58375F003E5761233CBE57575F00398
:1027B100A42583F583E0FF90007075F033E57A126C
:1027C10033CBE57975F033A42583F58375F003E503
:1027D100761233CBE57575F003A42583F583EFF00D
:1027E1000576E5767002057502265B12BB21E49041
:1027F1000CBCF09002EFF0900CBBE06007B2B5E4C6
:09280100F0021BE3C2B5021BE367
:10BB2100C3E57A9409E57964809480500302BBBB34
:10BB3100900948E0FCA3E0FD7B017A007959857EFC
:10BB41005D857F5E7F027E0012BD88E57824FFFF60
:10BB5100E57734FFFEC3E57F9FE57E9E402AAD7801
:10BB6100AC777F017E0012BF13900005E0FFAB7838
:10BB7100AA77AD7FAC7E12B2BBE4900C24F0900C9E
:10BB8100BBF0C2B6C2B58008057FE57F7002057EB5
:10BB9100E4FFFED3900949E09F900948E09E4013DD
:10BBA10074592FF58274003EF583E4F00FBF000154
:10BBB1000E80E0E4F579F57A8008057AE57A70027D
:07BBC1000579E4F575F57646
:01BBC800225A
:08B15A00C2B3C2B6C2B5C2B413
:10B16200C2B6C2B5900C24E064E170279002F0E010
:10B1720070119002BDE0600BAD78AC777F017E006C
:10B1820012BF13900005E0FFAB78AA77AD7FAC7ECB
:10B1920012B2BB900C25E0B40305C2CA02B2AF9052
:07B1A2000C26E0640370704D
:10B1A900900CE612335C00015F90E4FFFEFDFC9019
:10B1B9000CE6123314D312322D4017900CE61233D9
:10B1C9000874FFFBFAF9F81230DA900CE6123350E2
:02B1D90080D81C
:03B1DB00E4F5C8D0
:10B1DE00900CEA12335C00020F58E4FFFEFDFC9067
:10B1EE000CEA123314D312322D4017900CEA12339C
:10B1FE000874FFFBFAF9F81230DA900CEA123350A9
:02B20E0080D8E6
:10B21000900C267401F0A304F0900C25E0FFB4021A
:10B2200008900C27E06404600DEF6402607B900CD2
:06B2300026E064047073C7
:10B23600900CEE12335C00015F90E4FFFEFDFC9083
:10B246000CEE123314D312322D4017900CEE12333B
:10B256000874FFFBFAF9F81230DA900CEE1233504C
:02B2660080D88E
:0DB26800900C25E024FE6003047036D2CC6B
:10B27500900CF212335C0001B774E4FFFEFDFC9004
:10B285000CF2123314D312322D4017900CF21233F4
:10B295000874FFFBFAF9F81230DA900CF212335009
:02B2A50080D84F
:10B2A700C2CC900C267401F0900C25E06403600377
:04B2B700E4F5C822D0
:1079220090026BE0F53DA3E0F53EE4F579F57AF5DA
:1079320075F576900CBBF0A3F0900948E0FEA3E049
:10794200FF7B017A00795975580075590112BC63A1
:1079520090005CE0540F900BDEF090005DE0900C24
:10796200B6F090005BE075F01690012E1233CBE07A
:10797200A3E0540F9002C0F090005BE075F0169007
:1079820001301233CBE0FFA3E09002B9CFF0A3EFB6
:10799200F0900BDEE024FC601424027027900CB5FA
:1079A2007414F0900C29E4F0A374608026900CB556
:1079B2007428F0900C29E4F0A37462F09002F07441
:1079C20006F08016900CB5740AF0900C297401F040
:1079D200A37458F09002F07404F0900CB6E0900298
:1079E200BDF09002B9E0FCA3E0FD4C700890000CE1
:1079F200F0A3F080679002C0E0701E122B2BA80447
:107A0200A905AA06AB07E4FFFE7D7A7C48122A0B81
:107A1200122B647C007DF080389002C0E0B40F032A
:107A22007410F09002B9E0FCA3E0FDE4122B2BA845
:107A320004A905AA06AB07E4FFFE7D7A7C48122A58
:107A42000B122B649002C0E0FD74788DF084FD7CF3
:107A520000122F2A90000CEEF0A3EFF0E5D85403A9
:107A620070079002BDF0027D3F7B017A0079597563
:107A720058007559037F107E0212BC63E4F53BF592
:107A82003C90007175F028E53C1233CBE53B75F074
:107A920028A42583F583E024FB601524FB7022745F
:107AA2006D253CF5827402353BF5837403F080202A
:107AB200746D253CF5827402353BF5837402F080C7
:107AC2000F746D253CF5827402353BF5837404F026
:107AD200053CE53C7002053B6404453B70A3E4F5BC
:107AE2003BF53C90007E75F028E53C1233CBE53B3C
:107AF20075F028A42583F583E0FDE53C25E0FFE54C
:107B02003B33FE740F2FF58274003EF583EDF09047
:107B1200007275F028E53C1233CBE53B75F028A4E2
:107B22002583F58312331490007675F028E53C1214
:107B320033CBE53B75F028A42583F5831233081275
:107B4200280DC004C005C006C00790007275F02859
:107B5200E53C1233CBE53B75F028A42583F583126F
:107B6200331490007A75F028E53C1233CBE53B756F
:107B7200F028A42583F58312330812280DD003D0F0
:107B820002D001D000122A0BE4FBFAF9F8122AA85B
:107B920090007275F02860054003027C1DE53C12DE
:107BA20033CBE53B75F028A42583F583123314907B
:107BB200007675F028E53C1233CBE53B75F028A43E
:107BC2002583F58312330812280DC004C005C006B0
:107BD200C00790007275F028E53C1233CBE53B7587
:107BE200F028A42583F58312331490007A75F028C7
:107BF200E53C1233CBE53B75F028A42583F58312CF
:107C0200330812280DD003D002D001D000122A0B63
:107C1200C004C005C006C007027CA3E53C1233CBFA
:107C2200E53B75F028A42583F58312331490007682
:107C320075F028E53C1233CBE53B75F028A425838B
:107C4200F58312330812280DC004C005C006C00710
:107C520090007275F028E53C1233CBE53B75F028B5
:107C6200A42583F58312331490007A75F028E53C3D
:107C72001233CBE53B75F028A42583F58312330834
:107C820012280DD003D002D001D000122A0B122BE1
:107C920015AB07AA06A905A804C000C001C002C00E
:107CA2000390007F75F028E53C1233CBE53B75F07D
:107CB20028A42583F583E0FF90008075F028E53C39
:107CC2001233CBE53B75F028A42583F583E0C39FEF
:107CD200FDE49400FCE4122B2BD003D002D001D09F
:107CE20000122902C004C005C006C00790007F75BB
:107CF200F028E53C1233CBE53B75F028A42583F54B
:107D020083E0FCE4122B30D003D002D001D0001269
:107D12002811122B64AD07E53C25E0FFE53B33FE5D
:107D2200740E2FF58274003EF583EDF0053CE53CC0
:107D32007002053B6404453B6003027AE59002BD94
:107D4200E030E7034403F0E4F53BF53CD390094906
:107D5200E0953C900948E0953B40187459253CF564
:107D6200827400353BF583E4F0053CE53C70DD05AB
:037D72003B80D97A
:017D750022EB
:099380009002BDE0700302965B4F
:03938900753B062B
:10938C00AF3B9002BDE0FEA807088002C313D8FCD7
:10939C0020E00302964DE53B12348295220095198C
:1093AC0001940A02940A0393C80493C80593C00657
:1093BC00000095AFE5D8F4F53C0295AFAF3BEF3329
:1093CC0095E0FEEF25E0FFEE33FE741F2FF582745F
:1093DC00003EF583E0FEA3E0FFAD3BED3395E0FCF2
:1093EC00746B2DF58274023CF583E0FDEFA8050843
:0E93FC008005CEC313CE13D8F9F53C0295AF11
:10940A00E4F53DAF3BEF3395E0FEEF25E0FFEE33A9
:10941A00FE741F2FF58274003EF583E0FEA3E0FF81
:10942A00AD3BED3395E0FC746B2DF58274023CF58F
:10943A0083E0FBEFA803088005CEC313CE13D8F947
:10944A00F53C74062DF58274003CF583E0640260F5
:10945A00030295AFAF3BEF3395E0FEEF25E0FFEE59
:10946A0033FE740B2FF58274003EF583E06023040B
:10947A00604624FE706A740A2FF58274003EF583F2
:10948A00E0FFE53CD39F40047F0180027F008F3DCF
:10949A00804EAF3BEF3395E0FEEF25E0FFEE33FE63
:1094AA00740A2FF58274003EF583E0B53C047F010F
:1094BA0080027F008F3D8028AF3BEF3395E0FEEFBF
:1094CA0025E0FFEE33FE740A2FF58274003EF58321
:1094DA00E0FFE53CC39F50047F0180027F008F3D7F
:1094EA00E53D6015E53B2402FF7401A807088002E8
:1094FA00C333D8FC42C80295AFE53B2402FF74018E
:0F950A00A807088002C333D8FCF452C80295AFFB
:09951900900269E0F53C0295AFF7
:10952200900269E0FEA3E0FFF53C90000CE0FCA392
:10953200E0FD4C6078EF4E6074D3ED9FEC9E5038A6
:10954200E4F53DF53E7408253EF5827400353DF59F
:1095520083E0B40113E53E2404FF7401A8070880E8
:1095620002C333D8FCF452C8053EE53E7002053D05
:109572006402453D70CF8035E4F53DF53E74082523
:109582003EF5827400353DF583E0B40112E53E24D8
:1095920004FF7401A807088002C333D8FC42C8053F
:0D95A2003EE53E7002053D6402453D70D07F
:1095AF0075450075460075473C900006E0FAA3E04C
:1095BF00FB7D017C007F017E0012BE12900006E051
:1095CF007002A3E0600C90000674FFF5F0122FC735
:1095DF00806CAD78AC777F017E0012BF13E57824E5
:1095EF00FFFFE57734FFFEC3E57F9FE57E9E402AB0
:1095FF00900005E0FFAB78AA77AD7FAC7E12B2BBCF
:10960F00E4900C24F0900CBBF0C2B6C2B5900C25C0
:10961F00E064036029E4F5C88024E57815787002CA
:10962F001577900948E0FCA3E0FD24FFFEEC34FF22
:0E963F00900006F0A3CEF07F017E0012C0E383
:0E964D00153BC3E53B64809480400302938C80
:01965B0022EC
:10C1B8008B5C8A5D895EE92DF9EA3C8B5FF56089C5
:10C1C80061E4F562F563C3856083856182E55E9508
:10C1D80082E55D9583502F785CE475F0011233D7C2
:10C1E800122E7DFFE5636F25E0FFE433FE743F2FD9
:10C1F800F58274993EF583E562FFE493F562740174
:0AC20800936FF56380C0AE62AF6370
:01C212002209
:10B55A00E4900D86F07B017A0C793512C2C4900C06
:10B56A009EE07004A3E064FB700C900CA0E07004F1
:10B57A00A3E064086018900C9EE4F0A374FBF090BA
:10B58A000CA0E4F0A37408F0900D867401F0900CFE
:10B59A0087E0B4FF17900018E0900C87600574C824
:10B5AA00F080037464F0900D867401F0900C86E0CC
:10B5BA00640160077401F0900D86F0900C22E0FCA3
:10B5CA00A3E0FDB40015ECB41011900CA3E030E434
:10B5DA000AE054EFF0900D867401F0E4B50515EC1D
:10B5EA00B42011900CA3E020E40AE04410F0900D7E
:10B5FA00867401F0900C35E0FF12005E400D900C4D
:10B60A0035E06007E4F0900D8604F0900C49E0FF05
:10B61A0012005E400D900C49E06007E4F0900D8640
:10B62A0004F0900C5DE0FF12005E400D900C5DE0AE
:10B63A006007E4F0900D8604F0900CA6E0B4FF07D2
:10B64A00E4F0900D8604F0900CA7E0B4FF11A3E09B
:10B65A00B4FF0CE4900CA7F0A3F0900D8604F090D0
:10B66A000D86E0601012C5DF7B017A0C79357D808A
:10B67A007C0012C007900018E06010900CA5E03022
:0BB68A00E4047F0080027F0112C6373D
:01B695002292
:10C5DF00AF84E4F584781EF608F6A2AF33FEC2AF3F
:10C5EF0043B701758F0718E6FC08E6F5828C83E4E4
:0DC5FF00F0F58F53B7FEEE24FF92AF8F844E
:01C60C00220B
:0AC007008B4F8A5089518C528D53E3
:10C01100858454E4F584781EF608F6A2AF33FFC296
:10C02100AF43B701758F05E4F555F556C3E5569550
:10C0310053E5526480F8E5556480985029784FE4BF
:10C0410075F0011233D7122E7DFE781E0806E61810
:10C05100860470010614F5828C83EEF00556E556D0
:10C0610070CA055580C6E4F58F53B7FEEF24FF92E1
:04C07100AF855484BF
:01C0750022A8
:06C2C4008B4F8A508951E6
:10C2CA00858452E4F553F554F584A2AF33F555C28B
:10C2DA00AF758F04E4FFFE0554E554AC53700205B4
:10C2EA005314F5828C83E493FD784FE475F00112C0
:10C2FA0033D7ED122EF60FBF00010EEF64804E7099
:0DC30A00D6E4F58FE55524FF92AF855284EF
:01C317002203
:0EBD88008E568F578C588D598B5A8A5B895C6A
:09BD960012007EEF30E7F9C2F95A
:10BD9F00E4F561F5620562E5627002056164404594
:03BDAF006170F2CE
:10BDB200E5576401455670047F8480027F87120034
:10BDC2003EE4FF12003EE4FF12003EE4FF12003E9A
:10BDD200E4F55FF560C3E5609559E5586480F8E5E0
:10BDE2005F648098501DAB5AAA5BA95C856082850E
:10BDF2005F83122E96FF12003E0560E56070D60545
:10BE02005F80D2D2F9AD5EAC5DAF57AE5602BF13C2
:08BF13008E638F648C658D665E
:10BF1B00900948E0FEA3E0FF12BBC98F6712007EB9
:06BF2B00EF30E7F9C2F956
:10BF3100E4F568F5690569E56970020568644045DD
:03BF41006870F233
:10BF4400E5676010E5646401456370047F838012D3
:10BF54007F86800EE5646401456370047F828002FD
:10BF64007F8512003EE566AE657806CEA2E713CE65
:10BF740013D8F8FF12003EAF66EF25E025E0FF126C
:09BF8400003EE4FF12003ED2F978
:01BF8D002291
:0CBE12008E3F8F408C418D428A438B4450
:09BE1E0012007EEF30E7F9C2F9D1
:10BE2700E4F54AF54B054BE54B7002054A6440457E
:03BE37004A70F25C
:10BE3A00E5406401453F70047F8480027F871200D9
:10BE4A003EE4FF12003EE5435403FF12003EAF44B6
:10BE5A00E54412003EE4F548F549C3E5499542E553
:10BE6A00416480F8E548648098501DAB45AA46A90C
:10BE7A0047854982854883122E96FF12003E05495E
:0ABE8A00E54970D6054880D2D2F9D0
:01BE9400228B
:08C0E3008E418F428C438D4415
:09C0EB0012007EEF30E7F9C2F902
:10C0F400E4F547F5480548E54870020547644045BE
:03C104004770F28F
:10C10700E5426401454170047F8480027F87120005
:10C117003EE4FF12003EE4FF12003EE4FF12003E41
:10C12700E4F545F546C3E5469544E5436480F8E5FF
:10C1370045648098500F7FFF12003E0546E5467024
:07C14700E4054580E0D2F998
:01C14E0022CE
:02007E00C2F9C5
:10008000E4F573F5740574E5747002057364404516
:030090007370F298
:0C0093007FD712003EE4FF12003ED2F9BD
:01009F00223E
:0ABC63008E538F548B558A56895773
:09BC6D0012007EEF30E7F9C2F984
:10BC7600E4F55CF55D055DE55D7002055C644045D7
:03BC86005C70F2FD
:10BC89007FD212003EE559AE587806CEA2E713CE10
:10BC990013D8F8FF12003EAF59EF25E025E0FF1257
:10BCA900003EE4FF12003EE4FF12003EE4FF1200F2
:10BCB9003EE4FF12003EE4FF12003EE4F55AF55B54
:10BCC900C3E55B9554E5536480F8E55A6480985060
:10BCD9001FE4FF12003EAB55AA56A957855B828522
:10BCE9005A83EF122F08055BE55B70D4055A80D0A3
:02BCF900D2F97E
:01BCFB002226
:08BBC9008E6A8F6B8C6C8D6D90
:0CBBD100756E0112007EEF30E7F9C2F93A
:10BBDD00E4F571F5720572E5727002057164404508
:03BBED007170F282
:10BBF0007FD212003EE56DAE6C7806CEA2E713CE82
:10BC000013D8F8FF12003EAF6DEF25E025E0FF12DC
:10BC1000003EE4FF12003EE4FF12003EE4FF12008B
:10BC20003EE4FF12003EE4FF12003EE4F56FF570C3
:10BC3000C3E570956BE56A6480F8E56F64809850A1
:10BC40001DE4FF12003EBFFF047F0180027F008FD2
:10BC50006EEF600A0570E57070D6056F80D2D2F97C
:02BC6000AF6EC5
:01BC620022BF
:04C3B1008E528F53C6
:09C3B50012007EEF30E7F9C2F935
:10C3BE00E4F554F5550555E55570020554644045B0
:03C3CE005470F2B6
:10C3D1007F5012003EE553AE527806CEC313CE1302
:10C3E100D8F9FF12003EAF53EF25E025E0FF120020
:08C3F1003EE4FF12003ED2F908
:01C3F9002221
:04C3FA008E538F547B
:09C3FE0012007EEF30E7F9C2F9EC
:10C40700E4F555F5560556E5567002055564404561
:03C417005570F26B
:10C41A007F8112003EE554AE537806CEC313CE1385
:10C42A00D8F9FF12003EAF54EF25E025E0FF1200D5
:08C43A003EE4FF12003ED2F9BE
:01C4420022D7
:06C076008C4D8D4E8B4F36
:10C07C00E54F6002C2B68E508F51D3E551954EE517
:10C08C0050954D504BE55154077034C3E54E9551C6
:10C09C00FFE54D9550FEC3EF9408EE94004020E56B
:10C0AC004F6008E551543F7002B2B6AF51AE50121A
:10C0BC00C3B174072551F551E43550F5508007AFE5
:10C0CC0051AE5012C3FA0551E55170AE055080AA1D
:06C0DC00E54F6002C2B650
:01C0E200223B
:06B696008B3B8A3C893D5C
:06B69C00D2F8D2F9C2FA57
:10B6A200E4F541F5420542E5427002054164404538
:03B6B2004170F2F2
:02B6B500D2FAC7
:10B6B700E4F541F5420542E5427002054164404523
:03B6C7004170F2DD
:10B6CA0012007EEF543C123482B6EC0CB6F614B774
:10B6DA00001CB70A24B7252CB74034B75B3C0000DE
:10B6EA00B777AB3BAA3CA93D7402801CAB3BAA3C92
:10B6FA00A93D74048012AB3BAA3CA93D740880089A
:10B70A00AB3BAA3CA93D741075F00012308EAB3EDB
:10B71A00AA3FA940740175F008804FAB3BAA3CA927
:10B72A003D741075F00012308EAB3EAA3FA94074EA
:10B73A000275F0108034AB3BAA3CA93D742075F029
:10B74A000012308EAB3EAA3FA940740275F01080F9
:10B75A0019AB3BAA3CA93D742075F00012308EABA0
:0DB76A003EAA3FA940740475F02012308EF5
:01B7770022AF
:10FE00008E4E8F4F8E4E8F4FE4F550F551A2AF338B
:10FE1000F552C2AFE4F58443B701758F03C3E550D3
:10FE200094FC50168551828550837488F0E42551E6
:10FE3000F55174043550F55080E3E4F58FF550F535
:10FE400051F555F55675840FE55654037002B2B658
:10FE500012FFB58F57E55730E7F6C2F9E4F558F5CC
:10FE6000590559E559700205586440455870F27FAC
:10FE7000D212FFA4E556AE557806CEC313CE13D8E2
:10FE8000F9FF12FFA412FF9CE4FF12FFA4E4FF128B
:10FE9000FFA4E4FF12FFA4E4FF12FFA4E4FF12FF9B
:10FEA000A4E4F553F554E4FF12FFA474592554F566
:10FEB0008274003553F583EFF00554E55470020564
:10FEC00053C3E553940240DED2F9E4F584758F0103
:10FED000F553F55474592554F58274003553F58360
:10FEE000E0FF0551E551AC507002055014F5828CCD
:10FEF00083EFF00554E55470020553B400D6E55382
:10FF0000B402D1E4F58F0556E55670020555C39449
:07FF10007FE555940050034A
:10FF170002FE45E4F58F53B7FEE55224FF92AFE4A6
:10FF2700F5D075840FF555F556C3E5559420505413
:10FF3700E556543F7002B2B512FFB58F57E55730FB
:10FF4700E7F6C2F9E4F558F5590559E55970020580
:10FF5700586440455870F27F5012FFA4E556AE55DD
:10FF67007806CEC313CE13D8F9FF12FFA412FF9C55
:10FF7700E4FF12FFA4D2F974082556F556E4355567
:10FF8700F55580A512FFB58F57E55730E7F6E4F52D
:05FF97008443EF01228C
:10FF9C00AF56EF25E025E0FFAE84E4F5848F9B306F
:09FFAC00FFFDC2FFAF9B8E842211
:10FFB500C2F9E4F55AF55B055BE55B7002055A6429
:10FFC50040455A70F27FD712FFA4E4FF12FFA4D276
:02FFD500F9220F
:10A58C00900C2474E2F090993BE493FFAB3CAA3D11
:10A59C00A93E900001122E96FDE4F556F5577B0668
:04A5AC008F538B55E9
:10A5B0007558FFE4F559F55AED90993B93F55B74A6
:10A5C000312DF582E4340CF5837464F090993BE40A
:10A5D00093B55319E55564066013E5556415600D90
:10A5E000741E2DF582E4340CF583E555F0E55B75BA
:10A5F000F013A4248EF582E43402F5831233E77459
:10A6000016122EF6E55B75F013A4248EF582E43461
:10A6100002F5831233E7900001E553122F08E55B42
:10A6200075F013A4248EF582E43402F5831233E727
:10A63000900002ED122F0874022557F557E43556A5
:10A64000F556FFE55B75F013A4248EF582E4340221
:10A65000F5831233E7900003EF122F08E55B75F0E6
:10A6600013A4248EF582E43402F5831233E79000BC
:10A6700004E557122F08E55B75F013A4248EF582CC
:10A68000E43402F5831233E7900005E555122F08F4
:10A69000E4FEFFE55B75F013A4248EF582E434023A
:10A6A000F5831233E78F828E83122E9662580FBF86
:10A6B00000010EEF64064E70DAE55B75F013A4241A
:10A6C0008EF582E43402F5831233E7900006E558F4
:10A6D000122F0874FE2557F55774FF3556F556E5C9
:10A6E0005B75F013A4248EF582E43402F5831233F3
:10A6F000E7E92407F9E43AFAAD57AC5612C1B88E2F
:10A70000598F5AEEFFE55B75F013A4248EF582E4B1
:10A710003402F5831233E70557E5577002055624D6
:10A7200006F582E43556F583EF122F08E55B75F0E8
:10A7300013A4248EF582E43402F5831233E705571F
:10A74000E557700205562406F582E43556F583E593
:10A750005A122F08E55B75F013A42481F9740235B1
:10A76000F0FA7B01E5572407FDE43556FC12C213CD
:09A77000E5572407FFE43556FE0D
:01A7790022BD
:084498008F3B8B3C8A3D893EFD
:1044A000E4900CF2F0A3F0900003122E96FE900020
:1044B00004122E967C002400FFEC3ECF24FECF3465
:1044C000FFFE900CF4F0FCA3EFF0FDE92407F9E403
:1044D0003AFA12C367900CF2EEF0A3EFF04E603A96
:1044E000AB3CAA3DA93E900005122E96FF641570C4
:1044F00003024D7AEF64067003024D7A90000112B8
:104500002E962431F582E4340CF5837464F0900027
:0A45100001122E96FF7D04024903FC
:10451A00AB3CAA3DA93E900002122E96FF90993B11
:10452A00E4936F70030245D4EFF470030245D4EFAD
:10453A0093FF3395E0FE90028E75F013EF1233CBA2
:10454A00EE75F013A42583F5831233E7E92407F9FE
:10455A00E43A8B44F5458946E53E2407F9E4353DBE
:10456A00853C41F5428943E4F53FF540D3900CF58B
:10457A00E09540900CF4E0953F40247841E475F0D2
:10458A00011233D7122E7DFF7844E475F0011233FD
:10459A00D7EF122EF60540E54070D1053F80CDAB2E
:1045AA003CAA3DA93E900001122E96FF90000212ED
:1045BA002E96FD900005122E96FB900CF4E0F5560F
:1045CA00A3E0F55712A5AC024D7AAB3CAA3DA93E31
:1045DA00900005122E96123482463806467310460B
:1045EA005C154938304A5D314A85324AAD334B9DB4
:1045FA00344AD5354AFD364B25374B9D384B4D3914
:10460A004B753A484D4048A14148A1424BC9504CCC
:10461A001B51496D5547807047DD714699904D068B
:10462A00914BC1934A259447219800004D4690002A
:10463A0001122E96241EF582E4340CF583AB3CAAB3
:10464A003DA93E900001122E96241EF582E4340CF8
:10465A008010AB3CAA3DA93E122E7D241FF582E4B0
:10466A00340CF583E4F0024D33900C24E0FF64E14E
:10467A006004EFB4E20512C318800312A592900CED
:0F468A00F2EEF0A3EFF0AB3CAA3DA93E024D3398
:10469900900C24E0FF64E16004EFB4E20512C31852
:1046A9008065AB3CAA3DA93E900007122E96FE906C
:1046B9000008122E967C002400F548EC3EF547E5EB
:1046C9003B75F013A4248EF582E43402F58312338A
:1046D900E7E92407F9E43AFA900948E0FEA3E0FF84
:1046E90085475885485912BC6390993BE493FFABC1
:1046F9003CAA3DA93E900001122E96FD900948E082
:10470900F556A3E012A5A8900CF2EEF0A3EFF0ABDA
:084719003CAA3DA93E024D330C
:10472100900C24E0FF64E16004EFB4E20512C318C9
:10473100803CAB3CAA3DA93E900007122E96FE900C
:104741000008122E967C002400F548EC3EF54790B7
:104751000948E0FCA3E0FDE92409F9E43AFA8547B8
:104761005D85485E7F027E0012BD8812A592900C85
:0F477100F2EEF0A3EFF0AB3CAA3DA93E024D33B0
:10478000900C24E0FF64E16004EFB4E20512C3186A
:10479000803AE53B75F013A4248EF582E43402F5EB
:1047A000831233E7E92407F9E43AFA12C2C4909974
:1047B0003BE493FFAB3CAA3DA93E900001122E962C
:1047C000FD7556007557807B0612A5AC900CF2EE75
:1047D000F0A3EFF0AB3CAA3DA93E024D33900C2470
:1047E000E0FF64E16004EFB4E20512C318804D12EB
:1047F000C5DFAB3CE53E2407F9E4353DFA900CF407
:10480000E0FEA3E0FFC39480EE94005006AC06AD3A
:104810000780047C007D8012C0077B017A0C79350B
:1048200012C2C4900018E06010900CA5E030E404BF
:104830007F0080027F0112C63712A592900CF2EE23
:0D484000F0A3EFF0AB3CAA3DA93E024D33C2
:10484D00900C24E0FFF547AB3CAA3DA93E9000013A
:10485D00122E962431F582E4340CF583E4F0EF64E6
:10486D00E16007900C24E0B4E20C900001122E964A
:10487D00FF7D2002490312A58C900CF2EEF0A3EF00
:10488D00F0AB3CAA3DA93E900007122E96FF12AC4C
:04489D00E302492FBA
:1048A100900C24E0FFF547AB3CAA3DA93E900005E2
:1048B100122E96FE7C00B441047D0080027D058CA1
:1048C100488D49EE900C23E024FFFD900C22E0344A
:1048D100FFFC8C4A8D4BAB3CAA3DA93E90000112D6
:1048E1002E962431F582E4340CF583E4F0EF64E193
:1048F1006007900C24E0B4E217900001122E96FF9D
:104901007D2012C327900CF2EEF0A3EFF0024D7A56
:1049110012A58C900CF2EEF0A3EFF0E4FFFE12C3AF
:10492100FA7B01AD4BAC4AAF49AE4812C076900C50
:0749310024E547F0024D7A76
:1049380012A592900CF2EEF0A3EFF0AB3CAA3DA9C1
:104948003E900001122E962431F582E4340CF58352
:10495800E4F012007E8F47E54730E7F6E4F584433C
:05496800EF01024D7A91
:10496D0012A592900CF2EEF0A3EFF07B017A027992
:0C497D00817F007EE17D007C00129F9F86
:10498900900CE612335C00004650E4FFFEFDFC90FB
:104999000CE6123314D312322D4017900CE6123361
:1049A9000874FFFBFAF9F81230DA900CE61233506A
:0249B90080D8A4
:1049BB00E4F584C2ACC298D29975840153E7BFC2A7
:0349CB0098D299E6
:1049CE0075840F30E815C39002C2E094099002C1BD
:1049DE00E094004006E4F58443EF01E4F58430985A
:1049EE0017758401309911C299F584859947C2983B
:1049FE00B2B47584018547997584013098C2E4F587
:104A0E00843099BCC299758401859947C298B2B514
:054A1E00F584854799B5
:104A230080A912A592900CF2EEF0A3EFF0AB3CAA92
:104A33003DA93E900001122E962431F582E4340CF8
:104A4300F583E4F0900018E07003024D7A900007BC
:104A5300122E96FF12C637024D7A12A592900CF2CF
:104A6300EEF0A3EFF0AB3CAA3DA93E900001122E5D
:104A7300962431F582E4340CF583E4F012366602B1
:104A83004D7A12A592900CF2EEF0A3EFF0AB3CAA94
:104A93003DA93E900001122E962431F582E4340C98
:104AA300F583E4F0125D7F024D7A12A592900CF229
:104AB300EEF0A3EFF0AB3CAA3DA93E900001122E0D
:104AC300962431F582E4340CF583E4F012965C020B
:104AD3004D7A12A592900CF2EEF0A3EFF0AB3CAA44
:104AE3003DA93E900001122E962431F582E4340C48
:104AF300F583E4F0126AD4024D7A12A592900CF277
:104B0300EEF0A3EFF0AB3CAA3DA93E900001122EBC
:104B1300962431F582E4340CF583E4F012647302D5
:104B23004D7A12A592900CF2EEF0A3EFF0AB3CAAF3
:104B33003DA93E900001122E962431F582E4340CF7
:104B4300F583E4F0127D76024D7A12A592900CF271
:104B5300EEF0A3EFF0AB3CAA3DA93E900001122E6C
:104B6300962431F582E4340CF583E4F01274C80220
:104B73004D7A12A592900CF2EEF0A3EFF0AB3CAAA3
:104B83003DA93E900001122E962431F582E4340CA7
:104B9300F583E4F0129D76024D7AAB3CAA3DA93E23
:104BA300900001122E962431F582E4340CF583E44F
:104BB300F0900005122E96FF1289E7024D7A9002BB
:104BC300EE74FF024C9E900C24E064F07027754F46
:104BD30001755000755105AB3CAA3DA93E12B91DA4
:104BE30012A592900CF2EEF0A3EFF0057FE57F7033
:104BF3001E057E801AAB3CAA3DA93E900001122EF1
:104C030096FF7D0812C327900CF2EEF0A3EFF0ABF2
:104C13003CAA3DA93E024D33900C24E0B4F114AB01
:104C23003CAA3DA93E900007122E96FF900005E096
:104C33006F6072AB3CAA3DA93E900001122E96FF15
:104C43007D0812C327900CF2EEF0A3EFF0AB3CAA61
:104C53003DA93E900001122E962431F582E4340CD6
:044C6300F583E4F001
:104C6700900CEA12335C0000AFC8E4FFFEFDFC9035
:104C77000CEA123314D312322D4017900CEA123378
:104C87000874FFFBFAF9F81230DA900CEA12335085
:024C970080D8C3
:104C99009002EE74F2F0900CB77401F0024D7A12A2
:104CA900A592900CF2EEF0A3EFF0AB3CAA3DA93E21
:104CB900900001122E962431F582E4340CF583E438
:014CC900F0FA
:104CCA00900CEE12335C0000AFC8E4FFFEFDFC90CE
:104CDA000CEE123314D312322D4017900CEE12330D
:104CEA000874FFFBFAF9F81230DA900CEE1233501E
:024CFA0080D860
:104CFC00AF7FAE7E12C516024D7A900CB77401F0E0
:104D0C00AB3CAA3DA93E900007122E969002EEF005
:104D1C0090993BE493FF12A59E900CF2EEF0A3EF5A
:104D2C00F0AB3CAA3DA93E900001122E962431F521
:104D3C0082E4340CF583E4F08034AB3CAA3DA93E0C
:104D4C00900001122E962431F582E4340CF5837414
:104D5C0064F0900001122E96FF7D0212C327900C76
:0E4D6C00F2EEF0A3EFF074FF900CF2F0A3F063
:084D7A00900CF2E0FEA3E0FF43
:014D8200220E
:0AC367008B4C8A4D894E8C4F8D508F
:10C3710012C1B88E518F52AB4CAA4DA94E85508235
:10C38100854F83122E967F00FEE5502401FDE43592
:10C391004F8D82F583122E962FFFE43EFEE552B5B6
:0FC3A1000709E551B50604E4FEFF227EFF7FFF8A
:01C3B000226A
:0FC31800AB3CAA3DA93E900001122E96FF7D205E
:10C32700AE07EE90993B93FB3395E0FA90028E753A
:10C33700F013EB1233CBEA75F013A42583F58312C0
:10C3470033E7900007ED122F0890993BE493FFAD78
:10C35700067556007557017B1512A5ACE4FEFF2242
:06B91D008B4C8A4D894E9F
:10B92300E4F552F553900003122E96FE9000041294
:10B933002E96FDEEF554EDF555E4F552F553E55528
:10B9430024FEFFE55434FFFEC364809482500280DA
:10B95300047E027F00C3E5539FEE6480F8E55264E2
:10B9630080985048AB4FAA50A951C003C002C001F0
:10B97300122E7DFFAB4CAA4DA94EE5532407FDE4DF
:10B9830035528D82F583122E96FE74592553F58216
:10B9930074003552F583EEF06FD001D002D003125C
:10B9A3002EF60553E5537096055280927E00E57F8F
:10B9B3005401FF900948E0FCA3E0FD7B017A007984
:0AB9C30059857E5D857F5E02BD8818
:04C516008E4C8F4D6B
:10C51A0090FE00E493FE740193FF900CF9EEF0A3F1
:10C52A00EFF0BE8012BFFE0F7B007AFE7902900CFC
:0EC53A00F61233F00234D5AF7FAE7E12FE0053
:01C5480022D0
:10C57C00564F4C5453004F4E004F46460044726980
:10C58C0076657241004361724100547261636B4184
:10C59C0000416E616C6F6778004469676974616C07
:02C5AC00780015
:06B419008B3B8A3C893DDB
:10B41F007B017A007959E4F558F5597F107E0212B5
:10B42F00BC63AB3BAA3CA93DE475F00412308E908F
:10B43F000C22E0FFA3E0AB3EAA3FA940CF8FF01252
:10B44F00308EE4900CE6F0900CE6E0FFC3941540CC
:10B45F000302B54075F019EF9000591233CBE0FE9F
:10B46F00A3E0F47002EEF4700302B537900CE6E03F
:10B47F0075F01990005B1233CBE0FCA3E0F470027F
:10B48F00ECF4700302B537AB3BAA3CA93D122FF386
:10B49F00FDACF075F019EF90005B1233CBE0FEA31B
:10B4AF00E0D39DEE9C4014900CE6E075F0199000EF
:10B4BF005B1233CBE0FEA3E0FF8004AE04AF05AB1D
:10B4CF003BAA3CA93DEE8FF012308E900CE6E0FFC8
:10B4DF0075F01990006D1233CBE0FCA3E0F470020D
:10B4EF00ECF46044AB3EAA3FA940122FF3FDACF041
:10B4FF0075F019EF90006D1233CBE0FEA3E0C39D02
:10B50F00EE9C5014900CE6E075F01990006D12331C
:10B51F00CBE0FEA3E0FF8004AE04AF05AB3EAA3F35
:10B52F00A940EE8FF012308E900CE6E004F002B4DA
:10B53F0056AB3BAA3CA93DE475F001123056AB3E29
:0BB54F00AA3FA94074FFF5F00230563F
:06909A008B3B8A3C893D7E
:1090A00090003F12335CFFFFFFFF90002B12335CF8
:1090B000FFFFFFFF74FF900019F0A3F0900016F07F
:1090C000A3F07B017A0C79E67558007559017F1081
:1090D0007E0212BC63900CE6E0900EF6F0900CE776
:1090E000E0900EF7F0900CE8E0900EF8F0900CE9AC
:1090F000E0540F900EF9F0E024FC600C2402701094
:10910000900CB57414F0800E900CB57428F08006A5
:10911000900CB5740AF09000067402F0A3740FF07E
:109120009002BDE030E7034403F0900948E0FCA35F
:10913000E0FD7F017E0012C0E312C14F1200A67B4A
:10914000017A0C79E6E4F558F5597F107E0212BCDD
:1091500063AB3BAA3CA93DE475F00412308EE49069
:109160000EFAF0900C22E0FFA3E0AB3EAA3FA9402C
:10917000CF8FF012308EE4900EFBF0900EFBE0FFEC
:10918000C39415400302927675F019EF900CE61225
:1091900033CBE0FEA3E0FFBEFF16BFFF13900EFA35
:1091A000E0600302926DA3E004900EFAF002926D6B
:1091B000900EFBE0FF75F019900CE81233CBE0FC49
:1091C000A3E0F47002ECF4700302926DAB3BAA3C96
:1091D000A93D122FF3FDACF075F019EF900CE812D9
:1091E00033CBE0FEA3E0D39DEE9C4014900EFBE059
:1091F00075F019900CE81233CBE0FEA3E0FF800479
:10920000AE04AF05AB3BAA3CA93DEE8FF012308E09
:10921000900EFBE0FF75F019900CFA1233CBE0FCD6
:10922000A3E0F47002ECF46044AB3EAA3FA9401204
:109230002FF3FDACF075F019EF900CFA1233CBE080
:10924000FEA3E0C39DEE9C5014900EFBE075F01958
:10925000900CFA1233CBE0FEA3E0FF8004AE04AF23
:1092600005AB3EAA3FA940EE8FF012308E900EFB68
:10927000E004F002917B900EFAE07002FF22AB3E18
:10928000AA3FA940122FF3FFAEF0AB3BAA3CA93D89
:10929000122FF3C39FE5F09E40037F0022E475F098
:1092A00001123056AB3EAA3FA94074FFF5F01230D0
:1092B00056AB3BAA3CA93D122FF3FFAEF0D3940569
:1092C000EE9400400280047E007F05900EFAE0FDDF
:1092D00075F019900CCD1233CBEEF0A3EFF09002A5
:1092E000BDE0FF600EAB3EAA3FA940122FF3FBAAE0
:1092F000F080047AFF7BFF75F019ED900CDF1233DC
:10930000CBEAF0A3EBF075F019ED900CE11233CB42
:1093100074FFF0A3F075F019ED900CDE1233CBEF73
:10932000F0900EF6E0FF75F019ED900CE31233CBE0
:10933000EFF0900EF8E0FF75F019ED900CE41233A9
:10934000CBEFF0900EF7E0FF75F019ED900CE51201
:1093500033CBEFF0900EF9E0FF75F019ED900CDDD6
:109360001233CBEFF07B017A0C79E6E4F55DF55E24
:0F9370007D107C027F02FE12BD88900EFAE0FF96
:01937F0022CB
:0AB2BB008F3F8C408D418A428B4387
:10B2C500153F7B017A0E79FEE4F558F5597F107E1E
:10B2D5000212BC6374FFFFFEFDFC90002B123314B9
:10B2E500C3123243705F75F019E53F900F081233B2
:10B2F500CB12335CFFFFFFFF75F019E53F900F029E
:10B305001233CB12335CFFFFFFFF75F019E53F9059
:10B315000F0C1233CB74FFF0A3F075F019E53F90D5
:10B325000F061233CB74FFF0A3F075F019E53F90CB
:10B335000F001233CB74FFF0A3F075F019E53F90C1
:10B345000EFE02B3FC90002B12330875F019E53F91
:10B35500900F021233CB123350900016E0FEA3E09B
:10B36500FF75F019E53F900F061233CBEEF0A3EF12
:10B37500F090003F12330875F019E53F900F081261
:10B3850033CB123350900019E0FEA3E0FF75F0199E
:10B39500E53F900F0C1233CBEEF0A3EFF075F019EB
:10B3A500E53F900F001233CBE540F0A3E541F09067
:10B3B50002BDE0602A75F019E53F900F101233CBFE
:10B3C500E0FEA3E0F47002EEF4601475F019E53FB9
:10B3D500900F121233CBE542F0A3E543F0802075C0
:10B3E500F019E53F900F121233CB74FFF0A3F075FF
:10B3F500F019E53F900F101233CB74FFF0A3F07BEB
:10B40500017A0E79FEE4F55DF55E7D107C027F0222
:04B41500FE02BD88EE
:10A39800E4900EFCF0A3F07B017A0C79EAF558F50D
:10A3A800597F107E0212BC63E4900EFCF0A3F0907B
:10A3B8000EFCE0FEA3E0FFC39415EE9400400302F8
:10A3C800A58B900CEA75F019EF1233CBEE75F019E6
:10A3D800A42583F583E0FEA3E0F47002EEF4700395
:10A3E80002A57E900EFCE0FEA3E0900CF275F01939
:10A3F8001233CBEE75F019A42583F583E0FCA3E0B6
:0AA40800F47002ECF4600302A56C8E
:10A41200900EFCE0FCA3E0FD900CEA75F0191233FB
:10A42200CBEC75F019A42583F583E0FBA3E0900E35
:10A43200FACBF0A3EBF0900CFC75F019ED1233CBD4
:10A44200EC75F019A42583F583E0FDA3E0900CE6FA
:10A45200CDF0A3EDF0900CFE75F019EF1233CBEEB8
:10A4620075F019A42583F583E0FFA3E0900CE8CFF3
:10A47200F0A3EFF07B017A0C79EA900EFAE0F5583E
:10A48200A3E0F5597F107E0212BC63900CEA1233EE
:10A492000890002B123350900CEEE0FFA3E09000E6
:10A4A20016CFF0A3EFF0900C23E024FFFF900C22D4
:10A4B200E034FFFEC3900EFBE09F900EFAE09E4058
:10A4C2000302A56C7B017A0C79EAE0F558A3E0F56A
:10A4D200597F107E0212BC6374FFFFFEFDFC900CDC
:10A4E200EA123314C312324370737B017A0C79EA95
:10A4F200900EFBE024FFF559900EFAE034FFF55878
:10A502007F107E0212BC63900CEA12330890003F67
:10A51200123350900CEEE0FFA3E0900019CFF0A3AD
:10A52200EFF0900CE8E0B4FF12A3E0B4FF0D900C42
:10A53200E6E0FFA3E0A3CFF0A3EFF0900EFCA3E0D0
:10A5420004FF900EFBE024FFFD900EFAE034FFFCC6
:10A55200900CE8E0FAA3E0FB12B2BB800D900EFA79
:0AA56200E475F001122FC702A4A84F
:10A56C007B017A0C79EAE4F558F5597F107E0212DA
:0FA57C00BC63900EFCE475F001122FC702A3B769
:01A58B0022AD
:02ACE3008F4C94
:10ACE5007B017A0C79F6E4F558F5597F107E02124E
:10ACF500BC6375F019E54C900CDD1233CBE0FEA377
:10AD0500E0F47002EEF4603B75F019E54C900CDF51
:10AD15001233CBE0FEA3E0F47002EEF4602575F08B
:10AD250019E54C900CDD1233CBE0FEA3E0FF75F086
:10AD350019E54C900CDF1233CBE0FCA3E0FD7B0161
:10AD450012C0767B017A0C79F6E4F558F5597F1037
:10AD55007E0212BC6375F019E54C900CEF1233CBF3
:10AD6500E0FEA3E0F47002EEF4603B75F019E54CEB
:10AD7500900CF11233CBE0FEA3E0F47002EEF46028
:10AD85002575F019E54C900CF11233CBE0FEA3E0EC
:10AD9500FF75F019E54C900CEF1233CBE0FCA3E006
:10ADA500FD7B0112C0767B017A0C79F6E4F558F546
:10ADB500597F107E0212BC6375F019E54C900CF1B9
:10ADC5001233CB74FFF0A3F075F019E54C900CEF3E
:10ADD5001233CB74FFF0A3F075F019E54C900CDF3E
:10ADE5001233CB74FFF0A3F075F019E54C900CDD30
:10ADF5001233CB74FFF0A3F075F019E54C900CE716
:10AE05001233CB12335CFFFFFFFF75F019E54C9051
:10AE15000CE11233CB12335CFFFFFFFF75F019E530
:10AE25004C900CEB1233CB74FFF0A3F075F019E5E1
:10AE35004C900CE51233CB74FFF0A3F075F019E5D7
:10AE45004C900CEE1233CBE4F075F019E54C900CF8
:10AE5500ED1233CBE4F07B017A0C79F6F55DF55E06
:0AAE65007D107C027F02FE02BD8812
:10565200E4F53C7B017A0D790BF5587559017F1001
:105662007E0212BC6374FFFFFEFDFC900D0B123331
:1056720014C31232436003025750753C01900D0D62
:10568200F0900D0CF0900D0BF0900D0F7480F090D7
:085692000D0E7402F0E4F53B7B
:10569A0078E67C0C7D017BFF7AC579897E007F08DC
:1056AA00122E57E53B2441900CECF0E53B75F010C7
:1056BA00A42410F9740D35F0A801FC7D017B017A50
:0656CA000C79E61235A781
:0A56D000053BE53BB40CC3E4F53BD9
:1056DA0078EE7C0C7D017BFF7AC579917E007F058F
:1056EA00122E57E53B2441900CF1F0E53B75F0167C
:1056FA00A424D0F9740D35F0A801FC7D017B017A50
:10570A000C79EE1235A775F016E53B900DE01233D1
:10571A00CBE4F0A37404F075F016E53B900DE212A9
:10572A0033CB7417F0A37470F075F016E53B900D47
:0B573A00E41233CB741BF0A37458F092
:10574500053BE53B640C708D025827900D0BE0D3AB
:10575500940C4005E4F0753C01900D0CE0D39410D9
:105765004005E4F0753C01900D0DE0D3940C400527
:10577500E4F0753C01E4F53B75F010E53B900D1048
:105785001233CBE0FF12005E401E75F010E53B9032
:105795000D101233CBE0601075F010E53B900D1045
:1057A5001233CBE4F0753C01053BE53BC3940C405B
:1057B500C7E4F53B75F016E53B900DD01233CBE011
:1057C500FF12005E405375F016E53B900DD0123385
:1057D500CBE0604575F016E53B900DD01233CBE478
:1057E500F075F016E53B900DE01233CBE4F0A374B1
:1057F50004F075F016E53B900DE21233CB7417F00B
:10580500A37470F075F016E53B900DE41233CB747C
:105815001BF0A37458F0753C01053BE53BC3940CA4
:105825004092E53C60177B017A0D790B755D00753B
:105835005E017D107C027F027E0012BD887B017AAD
:105845000D790B7558007559027F107E0212BC63E5
:10585500E4F53C900D0BE0F460030258F1A3E0F48D
:0A58650060030258F1753C01F53BA9
:10586F0078F37C0C7D017BFF7AC579967E007F07EC
:10587F00122E57E53B2441900CF8F0E53B75F01CD8
:10588F00A4240BF9740D35F0A801FC7D017B017A7E
:10589F000C79F31235A775F01CE53B900D1F1233F1
:1058AF00CB12335C0000000075F01CE53B900D1B24
:1058BF001233CB12335C0000000075F01CE53B90F7
:1058CF000D231233CBE4F0A3F075F01CE53B900DE4
:0858DF00251233CBE4F0A3F025
:1058E700053BE53B64107080807EE4F53B75F01C5A
:1058F700E53B900D0B1233CBE0FF12005E40607565
:10590700F01CE53B900D0B1233CBE0605275F01C99
:10591700E53B900D0B1233CBE4F075F01CE53B90A3
:105927000D1F1233CB12335C0000000075F01CE52D
:105937003B900D1B1233CB12335C0000000075F057
:105947001CE53B900D231233CBE4F0A3F075F01C5C
:10595700E53B900D251233CBE4F0A3F0753C010530
:105967003BE53BC394104085E53C60177B017A0D0E
:10597700790B755D00755E027D107C027F027E00EB
:1059870012BD88E4F53C7B017A0D790BF558755902
:10599700047F107E0212BC63900D0BE0F4600302DB
:1059A7005A5BA3E0F46003025A5B753C01F53B7553
:1059B700F00CE53B900D0F1233CB12335C00000067
:1059C7000075F00CE53B900D0B1233CB12335C00E6
:1059D70000000075F00CE53B900D131233CBE4F09B
:1059E700A3F075F00CE53B900D151233CBE4F0A353
:0B59F700F0053BE53BB410B7E4F53BC6
:105A020075F014E53B900DCD1233CBE4F0A3F075A5
:105A1200F014E53B900DCB1233CBE4F0A3F0F53D4F
:105A2200F53EE53E25E0FFE53D33FE75F014E53B2E
:105A3200900DCF1233CBE5822FF582E5833EF583BD
:105A4200E4F0A3F0053EE53E7002053D6408453DE5
:025A520070D012
:105A5400053BE53BB40CA7E53C60177B017A0D7967
:105A64000B755D00755E047D107C027F027E001262
:105A7400BD88E4F53C7B017A0D790BF55875590323
:105A84007F107E0212BC6374FFFFFEFDFC900D0BC1
:105A9400123314C31232436003025C3F753C01F5B8
:015AA4003BC6
:105AA50078FA7C0C7D017BFF7AC5799D7E007F08A5
:105AB500122E57E53B2430900D00F0E53B75F0289C
:105AC500A4240BF9740D35F0A801FC7D017B017A46
:105AD5000C79FA1235A7E53B75F028A42417F9745B
:105AE5000D35F0A801FC7D017BFF7AC5797C123567
:105AF500A775F028E53B900D231233CB7414F07590
:105B0500F028E53B900D241233CB12335C000000E6
:105B15000075F028E53B900D281233CB12335C411C
:105B2500A0000075F028E53B900D2C1233CB123305
:105B35005C41A0000075F028E53B900D301233CB99
:105B45007401F075F028E53B900D311233CBE4F08C
:0E5B550075F028E53B900D321233CB74F8F05A
:0E5B6300053BE53B64046003025AA5E4F53BF4
:105B710078027C0D7D017BFF7AC579A57E007F09C6
:105B8100122E57E53B2430900D09F0E53B75F024CA
:105B9100A424ABF9740D35F0A801FC7D017B017AD9
:105BA1000D79021235A7E53B75F024A424B7F974E9
:105BB1000D35F0A801FC7D017BFF7AC57982123594
:105BC100A7E53B75F024A424C3F9740D35F0A801B1
:0C5BD100FC7D017BFF7AC579851235A7A9
:105BDD00053BE53BB4078DE4F53B75F005E53B90E2
:105BED000EA91233CBE4F0A3F075F005E53B900E52
:105BFD00A71233CBE4F0A3F075F005E53B900EABA7
:105C0D001233CB7401F0053BE53BB402CDE4F53B1B
:105C1D0074B1253BF582E4340EF583E4F0053BE5E4
:105C2D003BB402EC900EB17403F0900EB314F0027D
:105C3D005D63E4F53B75F028E53B900D0B1233CB1E
:105C4D00E0FF12005E5003025CE575F028E53B9025
:105C5D000D0B1233CBE07003025CE575F028E53BCC
:105C6D00900D0B1233CBE4F075F028E53B900D232E
:105C7D001233CB7414F075F028E53B900D241233DC
:105C8D00CB12335C0000000075F028E53B900D2829
:105C9D001233CB12335C41A0000075F028E53B9028
:105CAD000D2C1233CB12335C41A0000075F028E5AA
:105CBD003B900D301233CB7401F075F028E53B901D
:105CCD000D311233CBE4F075F028E53B900D321217
:105CDD0033CB74F8F0753C01053BE53BC3940450A0
:105CED0003025C42E4F53B75F024E53B900DAB12ED
:105CFD0033CBE0FF12005E405475F024E53B900D70
:105D0D00AB1233CBE0604675F024E53B900DAB1242
:105D1D0033CBE4F0E53B75F024A424B7F9740D35CD
:105D2D00F0A801FC7D017BFF7AC579821235A7E5CC
:105D3D003B75F024A424C3F9740D35F0A801FC7D46
:105D4D00017BFF7AC579851235A7753C01053BE5C9
:105D5D003BC394074091E53C60177B017A0D790BAD
:105D6D00755D00755E037D107C027F027E0012BDA5
:015D7D00889D
:015D7E002202
:10C14F008584417B017A0C793512C2C4900018E0C6
:10C15F00702EF58475D98075D84075DA4275DB423B
:10C16F00900C9AE0A3E0F5FB900C9AE0A3E0F5FCAD
:10C17F00900C9CE0A3E0F5FD900C9CE0A3E0F5FE95
:10C18F00900CB5E0FD7C007E057F00122F3C8E7B6E
:10C19F008F7CE4F58475E8C075D107F5BAF5BB75EA
:08C1AF00BC7043E702854184E6
:01C1B7002265
:03007B0002AB2CA9
:10AB2C00C0E0C0F0C083C082C0D075D000C000C0EF
:0BAB3C0002C003C004C005C006C00733
:10AB4700758400C2EDE57D25E0242FF582E434000D
:10AB5700F583E5BF85BEF0122FC7E57D123482ABC2
:10AB67008200AB8A01AB9202ABA503ABAD04ABB5D8
:10AB770005ABBD06ABC5070000ABCB75BB01757D4B
:10AB870001804175BB02757D028039900018E06035
:10AB97000575BB07800375BB08757D03802675BBEC
:10ABA70003757D04801E75BB04757D05801675BB16
:10ABB70005757D06800E75BB06757D07800675BB1E
:10ABC70000757D00E57C157C7002157B14457B6064
:04ABD7000302ACBE0B
:10ABDB00900CB5E0FF74A08FF0841313543F7522D3
:10ABEB0000F523E4FBFAEB64034A7026900018E0AF
:10ABFB007020900CB5E075F00A84FF7E0090003554
:10AC0B00E0FCA3E0FD122F2A900021EEF0A3EFF061
:10AC1B008037EB25E0FFEA33FE742F2FF5827400AB
:10AC2B003EF583E0FEA3E0FFAC22AD23122F3CAC3C
:10AC3B0006AD07EB25E0FFEA33FE741B2FF582749C
:10AC4B00003EF583ECF0A3EDF0EB25E0FFEA33FEDD
:10AC5B00742F2FF58274003EF583E4F0A3F00BBB49
:10AC6B0000010AEB64084A600302ABF1900004E0B8
:10AC7B007029900C94E0FEA3E0FF900C93E02FFF63
:10AC8B00900C92E03EFE90001BE0FCA3E0FDC3EFB6
:10AC9B009DFFEE9C90001BF0A3EFF0900CB5E0FD38
:10ACAB007C007E057F00122F3C8E7B8F7C9002A850
:03ACBB007401F031
:0CACBE00E57D7003D38001C34002D2EC9E
:10ACCA00D007D006D005D004D003D002D000D0D00F
:09ACDA00D082D083D0F0D0E0322A
:03B83D000119FFEF
:10BF8E00AF8475840F75E1EF75E20775E34475A410
:10BF9E00157580EA75ADFF75A53D759001E4F5A6A2
:10BFAE0075A0FFF59E75E8FFE5E854E0FEBEC004FF
:10BFBE007E0180027E00900018EEF0600875B07968
:10BFCE0075A7FE800675B07E75A7F8E4F5C8759C5A
:10BFDE00FFF59D75D8FF900018E0FE600875F89784
:10BFEE00759FF78006759FFF75F8F7EE6006C2FC29
:08BFFE00D2FB8002D2FC8F840B
:01C006002217
:10C44300AF84E4F584F5D875D980F5F9F5FAF5E903
:10C4530075EA0C75DC4675D840900CB9F0A3F090E2
:10C463000269F0A3F0F584C28C758905438E08F543
:10C473008AF58CC28DD28C7584017588807589305C
:07C48300D2A943E6308F84CB
:01C48A00228F
:0DC6D100AF84E4F584C289D288D2A88F849A
:01C6DE002239
:03005B0002AE6F83
:10AE6F00C0E0C0F0C083C082C0D075D000C000C0A9
:0DAE7F0001C002C003C004C005C006C0072A
:10AE8C0053E6CF758400AF8CEFFEAD8A7C00E42DC9
:10AE9C00F525EC3EF524900CB9E0FEA3E0FFC3E5EC
:10AEAC00259FFFE5249EFED3EF9464EE940050039F
:10AEBC0002AFC8C28C758A00758C00C28DD28CE52D
:04AECC0019F47041C4
:10AED000F519F526AE24AF25E52625E02443F582B5
:10AEE000E43400F583EEF0A3EFF0E4FCFDE51D2F64
:10AEF000FFE51C3EFEED351BFDEC351A8F1D8E1C4B
:0EAF00008D1BF51A0526E526B404C9900269DA
:10AF0E0002AFBA0519E519C394044003751900E59B
:10AF1E001925E02443F582E43400F583E0FEA3E036
:10AF2E00FBC3E51D9BFFE51C9EFEE51B9400FDE5A6
:10AF3E001A94008F1D8E1C8D1BF51AAE24AF25E5BD
:10AF4E001925E02443F582E43400F583EEF0A3EFF7
:10AF5E00F0E4FCFDE51D2FFFE51C3EFEED351BFD6F
:10AF6E00EC351A8F1D8E1C8D1BF51AE47B04FAF935
:10AF7E00F8AC1A1231808E248F25C390026AE095A8
:10AF8E0025FF900269E09524FEC394004006AC06AE
:10AF9E00AD078009C3E49FFFE49EFCAD07900269F4
:10AFAE00E0C313FFC3ED9FEC94004007E524F0A32C
:10AFBE00E525F0900CB9E4F0A3F07584015388CF29
:03AFCE0043E63027
:10AFD100D007D006D005D004D003D002D001D000D4
:0BAFE100D0D0D082D083D0F0D0E0327E
:0300530002C48B59
:10C48B00C0E0C083C082C0D075D000C004C005C05E
:10C49B0006C00753E6CF758400AF8CEFFEAD8A7CE8
:10C4AB0000E42DFFEC3E900CB9F0A3EFF075840186
:10C4BB005388CF43E630D007D006D005D004D0D078
:07C4CB00D082D083D0E032E3
:03000B0002C549E2
:10C54900C0E0C083C08253E6CF758400C28C758A6F
:10C5590000758C00D28C900CB9E4F0A3F0900269BC
:10C56900F0A3F07584015388CF43E630D082D0839D
:03C57900D0E032DD
:0300030002BE95A5
:10BE9500C0E0C0F0C083C082C0D075D000C000C073
:09BEA50003C004C005C006C0077B
:10BEAE00A2AFE433FB900CBC7401F0900CB5E0FD36
:10BEBE007C007E057F00122F3C8E7B8F7C757D0073
:10BECE007F1090002FE4F0A3DFFCC2AF53E7FE75A6
:10BEDE008400C2ECC2ED75BB0075840175C8007498
:0EBEEE00FFF5CDF5CC43E70143C8042B92AF1E
:10BEFC00D007D006D005D004D003D000D0D0D0824B
:07BF0C00D083D0F0D0E03239
:02FDFE0080FE85
:1081B300257300506C61636520756E697420666C6D
:1081C3006174206F6E206C6576656C2073757266C2
:1081D3006163652E00466C6970206F7665722E2090
:1081E3004661636520646F776E2E00486F6C642070
:1081F300766572746963616C2C2047505320616EFD
:1082030074656E6E61206A61636B2075702E004821
:108213006F6C6420766572746963616C2C204750BF
:108223005320616E74656E6E61206A61636B2064B6
:108233006F776E2E005374616E64206F6E207269C7
:1082430067687420736964652E005374616E6420DB
:108253006F6E206C65667420736964652E00496EC9
:1082630076657274696E6720582056616C75657304
:1082730000496E76657274696E6720592056616C89
:1082830075657300496E76657274696E67205A204E
:1082930056616C7565730020005A65726F20506FCC
:1082A300696E74733A20582025752C205920257542
:1082B3002C205A20257500582052616E67653A209C
:1082C30025752C20257500592052616E67653A206B
:1082D30025752C202575005A2052616E67653A205A
:1082E30025752C2025750053746F72696E672043C2
:1082F300616C6962726174696F6E2044617461209C
:10830300696E20466C6173682E0043616C6962720A
:108313006174696F6E20436F6D706C6574652E00B8
:108323005A65726F696E6720582C20592050574D3B
:108333000046696E616C2043616C3A2025752C25DB
:10834300750046696E616C2056616C3A2025752C68
:1083530025750044617461666C61736820546573AC
:1083630074002A2A20466C617368204641494C45B3
:1083730044202A2A2C20706167652025642C206202
:1083830079746525640050616765202564206F6BEF
:108393000054657374205061737365642E00496ED5
:1083A300707574205465737400444947494E3A20EC
:1083B3000031003000583A2025752C20593A2025E9
:1083C30075005A3A2025752C2035563A202575001C
:1083D30035563A2025752C20543A20257500413016
:1083E3003A2025752C2041313A2025750041323A37
:1083F3002025752C2041333A20257500496E707570
:10840300745465737420436F6D706C6574652E00CE
:108413004F757470757420546573740062697420A9
:108423002564004F75747075745465737420436FBD
:108433006D706C6574652E00412F44205465737410
:1084430000426F61726420666C61742E2054657300
:1084530074206669787475726520617474616368E9
:1084630065642E005820205920203556205A20209C
:10847300413020413120413220413300312020203E
:108483000030202020004144546573742050415330
:10849300532E002A2A2041445465737420464149CF
:1084A3004C202A2A004469676974616C20494F2073
:1084B30054657374004F6E6C792056616C69642047
:1084C300666F7220535532202D2045786974696E8A
:1084D300672E00446967494F5465737420506F6970
:1084E3006E74202564002A2A20204641494C202A04
:1084F3002A00446967494F546573742050415353AC
:108503002E002A2A20446967494F54657374204614
:1085130041494C202A2A004175746F4F6E205465DF
:10852300737400456E61626C696E67204175746F88
:108533004F6E2E2E2E0044726F7070696E67203559
:108543005620456E61626C650044697361626C69B3
:108553006E67204175746F4F6E2E2E2E0041757419
:108563006F4F6E5465737420504153532E00534D17
:108573004275732054657374202D204D61737465A7
:10858300720025752042797465732C20257520436C
:1085930079636C6573002A2A20534D427573205406
:1085A300657374204641494C202A2A00534D427575
:1085B30073205465737420506173732E00534D42BE
:1085C30075732054657374202D20536C6176650098
:1085D300010204081020408001020408102040809A
:1036660085844C9000047401F075840FFB7A0C7904
:103676003512C2C4E4900C85F090993B93900C8669
:10368600F0900018E0900C87600574C8F080037411
:1036960064F0900C9EE4F0A374FBF0900CA0E4F0B0
:1036A600A37408F074FFFFFEFDFC900C881233141F
:1036B600C3123243700A900C8812335C000000007B
:1036C600900C8CE0B4FF037401F0900C8DE0B4FF15
:1036D600037409F0900CA274FFF0A3F0900C8E74A2
:1036E60008F0A3E4F0900C907408F0A3E4F0900CBA
:1036F60035F0900C49F0900C5DF0900C9CF0A374A2
:10370600A0F0900C9AE4F0A374A0F0E49002C1F04B
:0A371600A3F0D2B3D2B6D2B5D2B4FC
:10372000900CF612335C00015F90E4FFFEFDFC900C
:103730000CF6123314D312322D4017900CF61233BC
:103740000874FFFBFAF9F81230DA900CF6123350D5
:0237500080D81F
:1037520090993CE493FF3395E0FE90028E75F0134E
:10376200EF1233CBEE75F013A42583F5831233E702
:10377200E92407F9E43AFA7556FF7557817558B38B
:103782007559FF755A81755BB61270B590993CE414
:1037920093FF3395E0FE90028E75F013EF1233CB58
:1037A200EE75F013A42583F5831233E7E92407F9B4
:1037B200E43AFA12000EEF2401F557E43EF5569072
:0C37C200993BE493FF7B737D0112A5ACE2
:1037CE00900CFA12335C00015F90E4FFFEFDFC905A
:1037DE000CFA123314D312322D4017900CFA123306
:1037EE000874FFFBFAF9F81230DA900CFA12335023
:0237FE0080D871
:1038000012A959900018E06065901118E0FEA3E03D
:10381000FF901113E02FFF901112E03EC313FEEF53
:1038200013FF900C8EEEF0A3EFF090111AE0FEA3C0
:10383000E0FF901115E02FFF901114E03EC313FE3E
:10384000EF13FF900C90EEF0A3EFF090111CE0FE50
:10385000A3E0FF901117E02FFF901116E03EC31375
:10386000FEEF13FF900CADEEF0A3EFF08003128596
:10387000E3900018E07003023950C2B3C2B59099CA
:103880003CE493FF3395E0FE90028E75F013EF1247
:1038900033CBEE75F013A42583F5831233E7E924C7
:1038A00007F9E43AFA7556FF7557817558B375599B
:1038B000FF755A81755BD81270B590993CE493FFFF
:1038C0003395E0FE90028E75F013EF1233CBEE7558
:1038D000F013A42583F5831233E7E92407F9E43ACA
:1038E000FA12000EEF2401F557E43EF55690993B8D
:0A38F000E493FF7B737D0112A5AC89
:1038FA00900CFE12335C00015F90E4FFFEFDFC9029
:10390A000CFE123314D312322D4017900CFE1233D0
:10391A000874FFFBFAF9F81230DA900CFE123350F1
:02392A0080D843
:10392C0012A95990111CE0FEA3E0FF901117E02F93
:10393C00FF901116E03EC313FEEF13FF900CABEE9D
:10394C00F0A3EFF0C2B3C2B6C2B5C2B490993CE4D6
:10395C0093FF3395E0FE90028E75F013EF1233CB8C
:10396C00EE75F013A42583F5831233E7E92407F9E8
:10397C00E43AFA7556FF7557817558B37559FF754A
:10398C005A81755BEE1270B590993CE493FF3395B8
:10399C00E0FE90028E75F013EF1233CBEE75F01340
:1039AC00A42583F5831233E7E92407F9E43AFA12E4
:1039BC00000EEF2401F557E43EF55690993BE49345
:0839CC00FF7B737D0112A5AC25
:1039D400900D0212335C00015F90E4FFFEFDFC9049
:1039E4000D02123314D312322D4017900D021233EC
:1039F4000874FFFBFAF9F81230DA900D0212335012
:023A040080D868
:103A060012A959901118E0FEA3E0FF901113E02FC0
:103A1600FF901112E03EC313FEEF13FF900C94EEDD
:103A2600F0A3EFF0900018E0602190111CE0FEA3D7
:103A3600E0FF901117E02FFF901116E03EC313FE32
:103A4600EF13FF900CA9EEF0A3EFF0D2B390993CE0
:103A5600E493FF3395E0FE90028E75F013EF123378
:103A6600CBEE75F013A42583F5831233E7E924071B
:103A7600F9E43AFA7556FF7557817558B37559FFCB
:103A8600755A82755B121270B590993CE493FF33B8
:103A960095E0FE90028E75F013EF1233CBEE75F0C3
:103AA60013A42583F5831233E7E92407F9E43AFAE8
:103AB60012000EEF2401F557E43EF55690993BE4CB
:093AC60093FF7B737D0112A5AC96
:103ACF00900D0612335C00015F90E4FFFEFDFC9049
:103ADF000D06123314D312322D4017900D061233E8
:103AEF000874FFFBFAF9F81230DA900D0612335012
:023AFF0080D86D
:103B010012A959901118E0FEA3E0FF901113E02FC4
:103B1100FF901112E03EC313FEEF13FF900C92EEE3
:103B2100F0A3EFF0D2B690993CE493FF3395E0FE19
:103B310090028E75F013EF1233CBEE75F013A425BE
:103B410083F5831233E7E92407F9E43AFA7556FF5E
:103B51007557817558B37559FF755A82755B38125F
:103B610070B590993CE493FF3395E0FE90028E7519
:103B7100F013EF1233CBEE75F013A42583F5831206
:103B810033E7E92407F9E43AFA12000EEF2401F5CC
:103B910057E43EF55690993BE493FF7B737D011208
:023BA100A5ACD1
:103BA300900D0A12335C00015F90E4FFFEFDFC9070
:103BB3000D0A123314D312322D4017900D0A12330B
:103BC3000874FFFBFAF9F81230DA900D0A12335039
:023BD30080D898
:103BD50012A95990111AE0FEA3E0FF901115E02FEC
:103BE500FF901114E03EC313FEEF13FF900C96EE09
:103BF500F0A3EFF0D2B590993CE493FF3395E0FE46
:103C050090028E75F013EF1233CBEE75F013A425E9
:103C150083F5831233E7E92407F9E43AFA7556FF89
:103C25007557817558B37559FF755A82755B4D1275
:103C350070B590993CE493FF3395E0FE90028E7544
:103C4500F013EF1233CBEE75F013A42583F5831231
:103C550033E7E92407F9E43AFA12000EEF2401F5F7
:103C650057E43EF55690993BE493FF7B737D011233
:023C7500A5ACFC
:103C7700900D0E12335C00015F90E4FFFEFDFC9097
:103C87000D0E123314D312322D4017900D0E12332E
:103C97000874FFFBFAF9F81230DA900D0E12335060
:023CA70080D8C3
:103CA90012A95990111AE0FEA3E0FF901115E02F17
:103CB900FF901114E03EC313FEEF13FF900C98EE32
:103CC900F0A3EFF0D2B4900C92E0FEA3E0FFC39012
:103CD9000C95E09F900C94E09E4003023DB89099AA
:103CE9003CE493FF3395E0FE90028E75F013EF12DA
:103CF90033CBEE75F013A42583F5831233E7E9245A
:103D090007F9E43AFA7556FF7557817558B375592D
:103D1900FF755A82755B611270B590993CE493FF07
:103D29003395E0FE90028E75F013EF1233CBEE75EA
:103D3900F013A42583F5831233E7E92407F9E43A5C
:103D4900FA12000EEF2401F557E43EF55690993B1F
:0A3D5900E493FF7B737D0112A5AC1B
:103D6300900D1212335C00015F90E4FFFEFDFC90A6
:103D73000D12123314D312322D4017900D12123339
:103D83000874FFFBFAF9F81230DA900D121233506F
:023D930080D8D6
:103D9500900C94E0F54DA3E0F54E900C92E0FFA356
:103DA500E0900C94CFF0A3EFF0900C92E54DF0A3CA
:103DB500E54EF0900C96E0FEA3E0FFC3900C99E071
:103DC5009F900C98E09E4003023EA190993CE4939D
:103DD500FF3395E0FE90028E75F013EF1233CBEEB4
:103DE50075F013A42583F5831233E7E92407F9E475
:103DF5003AFA7556FF7557817558B37559FF755A57
:103E050082755B741270B590993CE493FF3395E02D
:103E1500FE90028E75F013EF1233CBEE75F013A4FE
:103E25002583F5831233E7E92407F9E43AFA12000A
:103E35000EEF2401F557E43EF55690993BE493FFC8
:073E45007B737D0112A5ACA7
:103E4C00900D1612335C00015F90E4FFFEFDFC90B8
:103E5C000D16123314D312322D4017900D16123347
:103E6C000874FFFBFAF9F81230DA900D1612335081
:023E7C0080D8EC
:103E7E00900C98E0F54DA3E0F54E900C96E0FFA364
:103E8E00E0900C98CFF0A3EFF0900C96E54DF0A3D8
:103E9E00E54EF0900018E07003023F93900CABE0FB
:103EAE00FEA3E0FFC3900CAEE09F900CADE09E40F1
:103EBE0003023F9390993CE493FF3395E0FE90020A
:103ECE008E75F013EF1233CBEE75F013A42583F538
:103EDE00831233E7E92407F9E43AFA7556FF75576A
:103EEE00817558B37559FF755A82755B871270B517
:103EFE0090993CE493FF3395E0FE90028E75F0139B
:103F0E00EF1233CBEE75F013A42583F5831233E74E
:103F1E00E92407F9E43AFA12000EEF2401F557E40A
:103F2E003EF55690993BE493FF7B737D0112A5AC51
:103F3E00900D1A12335C00015F90E4FFFEFDFC90C1
:103F4E000D1A123314D312322D4017900D1A12334C
:103F5E000874FFFBFAF9F81230DA900D1A1233508A
:023F6E0080D8F9
:103F7000900CADE0F54DA3E0F54E900CABE0FFA347
:103F8000E0900CADCFF0A3EFF0900CABE54DF0A3BB
:103F9000E54EF090993CE493FF3395E0FE90028E5D
:103FA00075F013EF1233CBEE75F013A42583F58370
:103FB0001233E7E92407F9E43AFA7556FF75578199
:103FC0007558B37559FF755A82755B9A1270B59022
:103FD000993CE493FF3395E0FE90028E75F013EF69
:103FE0001233CBEE75F013A42583F5831233E7E982
:103FF0002407F9E43AFA12000EEF2401F557E43EE3
:0F400000F55690993BE493FF7B737D0112A5ACBD
:10400F00900D1E12335C00015F90E4FFFEFDFC90EB
:10401F000D1E123314D312322D4017900D1E123372
:10402F000874FFFBFAF9F81230DA900D1E123350B4
:02403F0080D827
:104041007556FF75578275589C900C8EE0F559A3F3
:10405100E0F55A900C90E0F55BA3E0F55C900CA9BB
:10406100E0F55DA3E0F55E7B017A0D79361270B55E
:1040710090993CE493FF3395E0FE90028E75F01326
:10408100EF1233CBEE75F013A42583F5831233E7DA
:10409100E92407F9E43AFA7556FF7557817558B363
:1040A100755901755A0D755B361270B590993CE4DE
:1040B10093FF3395E0FE90028E75F013EF1233CB30
:1040C100EE75F013A42583F5831233E7E92407F98C
:1040D100E43AFA12000EEF2401F557E43EF556904A
:0C40E100993BE493FF7B737D0112A5ACBA
:1040ED00900D2212335C00015F90E4FFFEFDFC9009
:1040FD000D22123314D312322D4017900D2212338C
:10410D000874FFFBFAF9F81230DA900D22123350D1
:02411D0080D848
:10411F0090993CE493FF3395E0FE90028E75F01377
:10412F00EF1233CBEE75F013A42583F5831233E72B
:10413F00E92407F9E43AFA7556FF7557827558BAAC
:10414F00900C92E0F559A3E0F55A900C94E0F55BD2
:10415F00A3E0F55C1270B590993CE493FF3395E0C2
:10416F00FE90028E75F013EF1233CBEE75F013A4A1
:10417F002583F5831233E7E92407F9E43AFA1200AD
:10418F000EEF2401F557E43EF55690993BE493FF6B
:07419F007B737D0112A5AC4A
:1041A600900D2612335C00015F90E4FFFEFDFC904B
:1041B6000D26123314D312322D4017900D261233CA
:1041C6000874FFFBFAF9F81230DA900D2612335014
:0241D60080D88F
:1041D80090993CE493FF3395E0FE90028E75F013BE
:1041E800EF1233CBEE75F013A42583F5831233E772
:1041F800E92407F9E43AFA7556FF7557827558CAE3
:10420800900C96E0F559A3E0F55A900C98E0F55B10
:10421800A3E0F55C1270B590993CE493FF3395E008
:10422800FE90028E75F013EF1233CBEE75F013A4E7
:104238002583F5831233E7E92407F9E43AFA1200F3
:104248000EEF2401F557E43EF55690993BE493FFB1
:074258007B737D0112A5AC90
:10425F00900D2A12335C00015F90E4FFFEFDFC908D
:10426F000D2A123314D312322D4017900D2A123308
:10427F000874FFFBFAF9F81230DA900D2A12335056
:02428F0080D8D5
:1042910090993CE493FF3395E0FE90028E75F01304
:1042A100EF1233CBEE75F013A42583F5831233E7B8
:1042B100E92407F9E43AFA7556FF7557827558DA19
:1042C100900CABE0F559A3E0F55A900CADE0F55B2D
:1042D100A3E0F55C1270B590993CE493FF3395E04F
:1042E100FE90028E75F013EF1233CBEE75F013A42E
:1042F1002583F5831233E7E92407F9E43AFA12003A
:104301000EEF2401F557E43EF55690993BE493FFF7
:074311007B737D0112A5ACD6
:10431800900D2E12335C00015F90E4FFFEFDFC90CF
:104328000D2E123314D312322D4017900D2E123346
:104338000874FFFBFAF9F81230DA900D2E12335098
:0243480080D81B
:10434A0090993CE493FF3395E0FE90028E75F0134A
:10435A00EF1233CBEE75F013A42583F5831233E7FE
:10436A00E92407F9E43AFA7556FF7557817558B387
:10437A007559FF755A82755BEA1270B590993CE4DB
:10438A0093FF3395E0FE90028E75F013EF1233CB54
:10439A00EE75F013A42583F5831233E7E92407F9B0
:1043AA00E43AFA12000EEF2401F557E43EF556906E
:1043BA00993BE493FF7B737D0112A5AC12C5DF7BA9
:0C43CA00017A0C79357D7A7C0012C00766
:1043D600900D3212335C00015F90E4FFFEFDFC900D
:1043E6000D32123314D312322D4017900D32123380
:1043F6000874FFFBFAF9F81230DA900D32123350D6
:0244060080D85C
:1044080090993CE493FF3395E0FE90028E75F0138B
:10441800EF1233CBEE75F013A42583F5831233E73F
:10442800E92407F9E43AFA7556FF7557817558B3C8
:104438007559FF755A83755B0D1270B590993CE4F8
:1044480093FF3395E0FE90028E75F013EF1233CB95
:10445800EE75F013A42583F5831233E7E92407F9F1
:10446800E43AFA12000EEF2401F557E43EF55690AF
:10447800993BE493FF7B737D0112A5ACD2B3C2B61E
:0F448800C2B5C2B4E4900004F012B55A854C845A
:014497002202
:10A95900901116740FF0A374FFF0901114740FF096
:10A96900A374FFF0901112740FF0A374FFF0E49038
:10A97900111CF0A3F090111AF0A3F0901118F0A394
:10A98900F0FFFE9002A8E060FA90001BE0FCA3E053
:10A99900FD901112E0FAA3E0FBC39DEA9C5006ACBE
:10A9A90002AD03800890001BE0FCA3E0FD901112AA
:10A9B900ECF0A3EDF090001DE0FCA3E0FD90111474
:10A9C900E0FAA3E0FBC39DEA9C5006AC02AD03800C
:10A9D9000890001DE0FCA3E0FD901114ECF0A3ED3C
:10A9E900F0900021E0FCA3E0FD901116E0FAA3E04D
:10A9F900FBC39DEA9C5006AC02AD03800890002180
:10AA0900E0FCA3E0FD901116ECF0A3EDF090001B23
:10AA1900E0FCA3E0FD901118E0FAA3E0FBD39DEA66
:10AA29009C4006AC02AD03800890001BE0FCA3E04B
:10AA3900FD901118ECF0A3EDF090001DE0FCA3E0EF
:10AA4900FD90111AE0FAA3E0FBD39DEA9C4006AC05
:10AA590002AD03800890001DE0FCA3E0FD90111AEF
:10AA6900ECF0A3EDF0900021E0FCA3E0FD90111CB7
:10AA7900E0FAA3E0FBD39DEA9C4006AC02AD03805B
:10AA890008900021E0FCA3E0FD90111CECF0A3ED7F
:10AA9900F0E49002A8F00FBF00010EEF64284E60A9
:10AAA9000302A98C901114E0FEA3E0FF90111AE0B3
:10AAB900FCA3E0FDC39FFFEC9EFEC394004002800F
:10AAC90016901114E0FEA3E0FFC3ED9FFFEC9EFE7C
:10AAD900C3E49FFFE49EFED3EF9404EE9400400389
:10AAE90002A959901112E0FEA3E0FF901118E0FCB1
:10AAF900A3E0FDC39FFFEC9EFEC3940040028016B5
:10AB0900901112E0FEA3E0FFC3ED9FFFEC9EFEC390
:10AB1900E49FFFE49EFED3EF9404EE940040030209
:02AB2900A95928
:01AB2B002207
:1085E300E4F54FF550F584900C9CE0A3E0F5FD9085
:1085F3000C9CE0A3E0F5FE900C9AE0A3E0F5FB9061
:108603000C9AE0A3E0F5FC90993CE493FF3395E0EA
:10861300FE90028E75F013EF1233CBEE75F013A4B8
:108623002583F5831233E7E92407F9E43AFA75560B
:10863300FF7557817558B37559FF755A83755B2359
:108643001270B590993CE493FF3395E0FE90028E4F
:1086530075F013EF1233CBEE75F013A42583F58376
:108663001233E7E92407F9E43AFA12000EEF240182
:10867300F557E43EF55690993BE493FF7B737D01F8
:0386830012A5AC91
:10868600900D8612335C00015F90E4FFFEFDFC90C6
:108696000D86123314D312322D4017900D861233E5
:1086A6000874FFFBFAF9F81230DA900D861233508F
:0286B60080D86A
:1086B8009002A8E060FAE49002A8F09002A8E060B6
:1086C800FAE54F700F90001BE0FFA3E0900C8ECFEF
:1086D800F0A3EFF0E550700F90001DE0FFA3E090CD
:1086E8000C90CFF0A3EFF0E49002A8F0E54F704BA8
:1086F800900C8EE0FEA3E02400EE34F8C36480946E
:10870800804010900C8EE0FEA3E02400FFEE34F8C9
:10871800FE8015900C8EE0FEA3E02400FFEE34F8F6
:10872800FEC3E49FFFE49EFED3EF9405EE648094BD
:108738008050047F0180027F008F4FE54F7048C34F
:10874800900C8EE094085015900C9AE07002A3E00B
:1087580070028014900C9A74FFF5F08017900C9AB0
:10876800E07003A3E0F47005754F01800A900C9A3D
:10877800E475F001122FC7900C9AE0A3E0F5FB9086
:108788000C9AE0A3E0F5FCE550704B900C90E0FEED
:10879800A3E02400EE34F8C3648094804010900C69
:1087A80090E0FEA3E02400FFEE34F8FE8015900C64
:1087B80090E0FEA3E02400FFEE34F8FEC3E49FFF40
:1087C800E49EFED3EF9405EE6480948050047F010C
:1087D80080027F008F50E5507048C3900C90E09461
:1087E800085015900C9CE07002A3E0700280149071
:1087F8000C9C74FFF5F08017900C9CE07003A3E0CC
:10880800F47005755001800A900C9CE475F0011213
:108818002FC7900C9CE0A3E0F5FD900C9CE0A3E032
:10882800F5FEE54F70030286B8E55070030286B87E
:1088380012A95990001BE0FFA3E0900C8ECFF0A383
:10884800EFF090001DE0FFA3E0900C90CFF0A3EFB5
:10885800F090993CE493FF3395E0FE90028E75F01A
:1088680013EF1233CBEE75F013A42583F58312337F
:10887800E7E92407F9E43AFA7556FF7557837558FE
:1088880034900C9AE0F559A3E0F55A900C9CE0F569
:108898005BA3E0F55C1270B590993CE493FF3395C7
:1088A800E0FE90028E75F013EF1233CBEE75F013E5
:1088B800A42583F5831233E7E92407F9E43AFA1289
:1088C800000EEF2401F557E43EF55690993BE493EA
:0888D800FF7B737D0112A5ACCA
:1088E000900D8A12335C00015F90E4FFFEFDFC9066
:1088F0000D8A123314D312322D4017900D8A123381
:108900000874FFFBFAF9F81230DA900D8A1233502E
:0289100080D80D
:108912007556FF755783755845900C8EE0F559A32F
:10892200E0F55A900C90E0F55BA3E0F55C7B017AF0
:108932000D79921270B590993CE493FF3395E0FE65
:1089420090028E75F013EF1233CBEE75F013A4255F
:1089520083F5831233E7E92407F9E43AFA7556FFFF
:108962007557817558B3755901755A0D755B921219
:1089720070B590993CE493FF3395E0FE90028E75BA
:10898200F013EF1233CBEE75F013A42583F58312A7
:1089920033E7E92407F9E43AFA12000EEF2401F56D
:1089A20057E43EF55690993BE493FF7B737D0112A9
:0289B200A5AC72
:1089B400900D8E12335C00015F90E4FFFEFDFC908D
:1089C4000D8E123314D312322D4017900D8E1233A4
:1089D4000874FFFBFAF9F81230DA900D8E12335056
:0289E40080D839
:0189E600226E
:0289E7008F4CB3
:1089E90085844DE4F54EF54FF55290993C93FF334C
:1089F90095E0FE90028E75F013EF1233CBEE75F011
:108A090013A42583F5831233E7E92407F9E43AFA35
:108A19007556FF7557817558B37559FF755A837522
:108A29005B561270B590993CE493FF3395E0FE9044
:108A3900028E75F013EF1233CBEE75F013A4258374
:108A4900F5831233E7E92407F9E43AFA12000EEF45
:108A59002401F557E43EF55690993BE493FF7B7367
:108A69007D0112A5ACE49002C1F0A3F0F550F551D7
:108A7900D3900949E09551900948E095504023AEBB
:108A890050AF517C017D00122F9174592551F58207
:108A990074003550F583EDF00551E551700205502C
:108AA90080CE75840F30E819C39002C2E094099012
:108AB90002C1E094004003028CAEE49002C1F0A32D
:108AC900F0900948E0FCA3E0FD7B017A0079598523
:108AD9004E5D854F5EE4FFFE12BD88900948E0FEB9
:108AE900A3E0FF7B017A007959854E58854F5912C9
:108AF900BC63E4F550F551D3900949E095519009CB
:108B090048E09550402DAE50AF517C017D00122FA9
:108B19009174592551F58274003550F583E06D70D3
:108B290001EC6005755201800A0551E55170020595
:108B39005080C4E5527003028BC590993CE493FFC1
:108B49003395E0FE90028E75F013EF1233CBEE757C
:108B5900F013A42583F5831233E7E92407F9E43AEE
:108B6900FA7556FF755783755865854E59854F5A5D
:108B790085505B85515C1270B590993CE493FF3345
:108B890095E0FE90028E75F013EF1233CBEE75F07F
:108B990013A42583F5831233E7E92407F9E43AFAA4
:108BA90012000EEF2401F557E43EF55690993BE487
:0C8BB90093FF7B737D0112A5AC028CAE13
:108BC500900CF612335C00015F90E4FFFEFDFC9013
:108BD5000CF6123314D312322D4017900CF61233C3
:108BE5000874FFFBFAF9F81230DA900CF6123350DC
:028BF50080D826
:108BF70090993CE493FF3395E0FE90028E75F01355
:108C0700EF1233CBEE75F013A42583F5831233E708
:108C1700E92407F9E43AFA7556FF755783755889B9
:108C2700854E59854F5A1270B590993CE493FF339E
:108C370095E0FE90028E75F013EF1233CBEE75F0D0
:108C470013A42583F5831233E7E92407F9E43AFAF5
:108C570012000EEF2401F557E43EF55690993BE4D8
:108C670093FF7B737D0112A5ACAF4FAE4E12C3FAD3
:108C7700D3900C23E0954F900C22E0954E5007E4DB
:108C8700F54EF54F8008054FE54F7002054EE54C50
:108C970064347003028AABD3E54F9404E54E6480D5
:0E8CA70094805003028AABE49002C1F0A3F067
:108CB500900CFA12335C00015F90E4FFFEFDFC901E
:108CC5000CFA123314D312322D4017900CFA1233CA
:108CD5000874FFFBFAF9F81230DA900CFA123350E7
:028CE50080D835
:108CE70090993CE493FF3395E0FE90028E75F01364
:108CF700EF1233CBEE75F013A42583F5831233E718
:108D0700E92407F9E43AFA7556FF7557817558B3A0
:108D17007559FF755A83755B941270B590993CE449
:108D270093FF3395E0FE90028E75F013EF1233CB6D
:108D3700EE75F013A42583F5831233E7E92407F9C9
:108D4700E43AFA12000EEF2401F557E43EF5569087
:0F8D5700993BE493FF7B737D0112A5AC854D849E
:018D660022EA
:105D7F0085844C78167C0D7D017BFF7A8579D37EE7
:0C5D8F00007F08122E579000047401F0F1
:105D9B00900CF612335C00015F90E4FFFEFDFC906B
:105DAB000CF6123314D312322D4017900CF612331B
:105DBB000874FFFBFAF9F81230DA900CF612335034
:025DCB0080D87E
:105DCD0090993CE493FF3395E0FE90028E75F013AD
:105DDD00EF1233CBEE75F013A42583F5831233E761
:105DED00E92407F9E43AFA7556FF7557817558B3EA
:105DFD007559FF755A83755BA11270B590993CE486
:105E0D0093FF3395E0FE90028E75F013EF1233CBB6
:105E1D00EE75F013A42583F5831233E7E92407F912
:105E2D00E43AFA12000EEF2401F557E43EF55690D0
:105E3D00993BE493FF7B737D0112A5ACE49002C105
:035E4D00F0A3F0CF
:105E500075840F30E819C39002C2E094099002C122
:105E6000E0940040030263ADE49002C1F0A3F0901F
:0A5E700002A8E060DBE4F085D84DE5
:105E7A00900CFA12335C0006DDD0E4FFFEFDFC90C4
:105E8A000CFA123314D312322D4017900CFA123333
:105E9A000874FFFBFAF9F81230DA900CFA12335050
:025EAA0080D89E
:105EAC0090993CE493FF3395E0FE90028E75F013CD
:105EBC00EF1233CBEE75F013A42583F5831233E781
:105ECC00E92407F9E43AFA7556FF7557817558B30A
:105EDC007559FF755A82755B9A1270B590993CE4AE
:105EEC0093FF3395E0FE90028E75F013EF1233CBD7
:105EFC00EE75F013A42583F5831233E7E92407F933
:105F0C00E43AFA12000EEF2401F557E43EF55690F0
:0C5F1C00993BE493FF7B737D0112A5AC60
:105F2800900CFE12335C00015F90E4FFFEFDFC90D4
:105F38000CFE123314D312322D4017900CFE12337C
:105F48000874FFFBFAF9F81230DA900CFE1233509D
:025F580080D8EF
:105F5A007556FF7557837558AC7B017A0D791E12F9
:105F6A0070B5754E00754F067B017A0D791E1200C9
:105F7A000E741E2FF9740D3EFA7B01C003C002C0D5
:105F8A00017416254FF582740D354EF583E0554D93
:105F9A007BFF60067A8379B480047A8379B68B565C
:105FAA008A578958D001D002D0031270B5E54F152F
:105FBA004F7002154EC3E54E6480948050AA9099A2
:105FCA003CE493FF3395E0FE90028E75F013EF12D6
:105FDA0033CBEE75F013A42583F5831233E7E92456
:105FEA0007F9E43AFA7556FF7557817558B375592A
:105FFA0001755A0D755B1E1270B590993CE493FFBA
:10600A003395E0FE90028E75F013EF1233CBEE75E6
:10601A00F013A42583F5831233E7E92407F9E43A58
:10602A00FA12000EEF2401F557E43EF55690993B1B
:0A603A00E493FF7B737D0112A5AC17
:10604400900D0212335C00015F90E4FFFEFDFC90B2
:106054000D02123314D312322D4017900D02123355
:106064000874FFFBFAF9F81230DA900D021233507B
:0260740080D8D2
:106076007556FF7557837558B890001BE0F559A300
:10608600E0F55AA3E0F55BA3E0F55C7B017A0D79B8
:106096001E1270B590993CE493FF3395E0FE900292
:1060A6008E75F013EF1233CBEE75F013A42583F53E
:1060B600831233E7E92407F9E43AFA7556FF755770
:1060C600817558B3755901755A0D755B1E1270B5F9
:1060D60090993CE493FF3395E0FE90028E75F013A1
:1060E600EF1233CBEE75F013A42583F5831233E755
:1060F600E92407F9E43AFA12000EEF2401F557E411
:106106003EF55690993BE493FF7B737D0112A5AC57
:10611600900D0612335C00015F90E4FFFEFDFC90DB
:106126000D06123314D312322D4017900D0612337A
:106136000874FFFBFAF9F81230DA900D06123350A4
:0261460080D8FF
:10614800900018E060187556FF7557837558C5900C
:106158000021E0F559A3E0F55A90001F8014755608
:10616800FF7557837558D390001FE0F559A3E0F5E4
:106178005AA3E0F55BA3E0F55C7B017A0D791E126A
:1061880070B590993CE493FF3395E0FE90028E75CC
:10619800F013EF1233CBEE75F013A42583F58312B9
:1061A80033E7E92407F9E43AFA7556FF755781751C
:1061B80058B3755901755A0D755B1E1270B59099D3
:1061C8003CE493FF3395E0FE90028E75F013EF12D6
:1061D80033CBEE75F013A42583F5831233E7E92456
:1061E80007F9E43AFA12000EEF2401F557E43EF5F8
:0E61F8005690993BE493FF7B737D0112A5AC9A
:10620600900D0A12335C00015F90E4FFFEFDFC90E6
:106216000D0A123314D312322D4017900D0A123381
:106226000874FFFBFAF9F81230DA900D0A123350AF
:0262360080D80E
:106238007556FF7557837558E1900023E0F559A30B
:10624800E0F55AA3E0F55BA3E0F55C7B017A0D79F4
:106258001E1270B590993CE493FF3395E0FE9002CE
:106268008E75F013EF1233CBEE75F013A42583F57A
:10627800831233E7E92407F9E43AFA7556FF7557AC
:10628800817558B3755901755A0D755B1E1270B535
:1062980090993CE493FF3395E0FE90028E75F013DD
:1062A800EF1233CBEE75F013A42583F5831233E791
:1062B800E92407F9E43AFA12000EEF2401F557E44D
:1062C8003EF55690993BE493FF7B737D0112A5AC94
:1062D800900D0E12335C00015F90E4FFFEFDFC9010
:1062E8000D0E123314D312322D4017900D0E1233A7
:1062F8000874FFFBFAF9F81230DA900D0E123350D9
:0263080080D83B
:10630A007556FF7557837558F0900027E0F559A325
:10631A00E0F55AA3E0F55BA3E0F55C7B017A0D7921
:10632A001E1270B590993CE493FF3395E0FE9002FB
:10633A008E75F013EF1233CBEE75F013A42583F5A7
:10634A00831233E7E92407F9E43AFA7556FF7557D9
:10635A00817558B3755901755A0D755B1E1270B562
:10636A0090993CE493FF3395E0FE90028E75F0130A
:10637A00EF1233CBEE75F013A42583F5831233E7BE
:10638A00E92407F9E43AFA12000EEF2401F557E47A
:10639A003EF55690993BE493FF7B737D0112A5ACC1
:0A63AA00025E50E49002C1F0A3F07F
:1063B400900D1212335C00015F90E4FFFEFDFC902F
:1063C4000D12123314D312322D4017900D121233C2
:1063D4000874FFFBFAF9F81230DA900D12123350F8
:0263E40080D85F
:1063E60090993CE493FF3395E0FE90028E75F0138E
:1063F600EF1233CBEE75F013A42583F5831233E742
:10640600E92407F9E43AFA7556FF7557817558B3CA
:106416007559FF755A83755BFF1270B590993CE408
:1064260093FF3395E0FE90028E75F013EF1233CB97
:10643600EE75F013A42583F5831233E7E92407F9F3
:10644600E43AFA12000EEF2401F557E43EF55690B1
:10645600993BE493FF7B737D0112A5ACD2B3C2B620
:0C646600C2B5C2B4E4900004F0854C8480
:016472002207
:10965C0085844CE4F54FF55078027C0D7D017BFF41
:0A966C007A8579DBFE7F08122E5785
:10967600900CF612335C00015F90E4FFFEFDFC9057
:109686000CF6123314D312322D4017900CF6123307
:109696000874FFFBFAF9F81230DA900CF612335020
:0296A60080D86A
:1096A80090993CE493FF3395E0FE90028E75F01399
:1096B800EF1233CBEE75F013A42583F5831233E74D
:1096C800E92407F9E43AFA7556FF7557817558B3D6
:1096D8007559FF755A84755B131270B590993CE4FF
:1096E80093FF3395E0FE90028E75F013EF1233CBA3
:1096F800EE75F013A42583F5831233E7E92407F9FF
:10970800E43AFA12000EEF2401F557E43EF55690BC
:0C971800993BE493FF7B737D0112A5AC2C
:10972400900CFA12335C00015F90E4FFFEFDFC90A4
:109734000CFA123314D312322D4017900CFA123350
:109744000874FFFBFAF9F81230DA900CFA1233506D
:0297540080D8BB
:10975600E49002C1F0A3F090026CE024A0F54E90D4
:10976600026BE03400F54D75840F30E819C39002A2
:10977600C2E094099002C1E094004003029845E4D7
:109786009002C1F0A3F090026BE0FEA3E0FFB54E9D
:10979600D6EEB54DD2EF24A0F54EE43EF54D9099A8
:1097A6003CE493FF3395E0FE90028E75F013EF12C2
:1097B60033CBEE75F013A42583F5831233E7E92442
:1097C60007F9E43AFA7556FF75578475581F854FA1
:1097D6005985505A1270B590993CE493FF3395E041
:1097E600FE90028E75F013EF1233CBEE75F013A4D4
:1097F6002583F5831233E7E92407F9E43AFA1200E0
:109806000EEF2401F557E43EF55690993BE493FF9D
:109816007B737D0112A5AC74022550F582740D355B
:109826004FF583E0F5C80550E5507002054FFFAED1
:109836004F7C007D07122F918C4F8D5002976DE45F
:069846009002C1F0A3F046
:10984C00900CFE12335C00015F90E4FFFEFDFC9077
:10985C000CFE123314D312322D4017900CFE12331F
:10986C000874FFFBFAF9F81230DA900CFE12335040
:02987C0080D892
:10987E0090993CE493FF3395E0FE90028E75F013C1
:10988E00EF1233CBEE75F013A42583F5831233E775
:10989E00E92407F9E43AFA7556FF7557817558B3FE
:1098AE007559FF755A84755B261270B590993CE414
:1098BE0093FF3395E0FE90028E75F013EF1233CBCB
:1098CE00EE75F013A42583F5831233E7E92407F927
:1098DE00E43AFA12000EEF2401F557E43EF55690E5
:1098EE00993BE493FF7B737D0112A5ACD2B3C2B654
:0798FE00C2B5C2B4854C8421
:01990500223F
:106AD40085844C754E01E4900D0AF090000404F096
:106AE400900CF612335C00015F90E4FFFEFDFC9015
:106AF4000CF6123314D312322D4017900CF61233C5
:106B04000874FFFBFAF9F81230DA900CF6123350DD
:026B140080D827
:106B160090993CE493FF3395E0FE90028E75F01356
:106B2600EF1233CBEE75F013A42583F5831233E70A
:106B3600E92407F9E43AFA7556FF7557817558B393
:106B46007559FF755A84755B3B1270B590993CE494
:106B560093FF3395E0FE90028E75F013EF1233CB60
:106B6600EE75F013A42583F5831233E7E92407F9BC
:106B7600E43AFA12000EEF2401F557E43EF556907A
:0C6B8600993BE493FF7B737D0112A5ACEA
:106B9200900CFA12335C00015F90E4FFFEFDFC9062
:106BA2000CFA123314D312322D4017900CFA12330E
:106BB2000874FFFBFAF9F81230DA900CFA1233502B
:026BC20080D879
:106BC40090993CE493FF3395E0FE90028E75F013A8
:106BD400EF1233CBEE75F013A42583F5831233E75C
:106BE400E92407F9E43AFA7556FF7557817558B3E5
:106BF4007559FF755A84755B441270B590993CE4DD
:106C040093FF3395E0FE90028E75F013EF1233CBB1
:106C1400EE75F013A42583F5831233E7E92407F90D
:106C2400E43AFA12000EEF2401F557E43EF55690CB
:0C6C3400993BE493FF7B737D0112A5AC3B
:106C4000900CFE12335C00015F90E4FFFEFDFC90AF
:106C50000CFE123314D312322D4017900CFE123357
:106C60000874FFFBFAF9F81230DA900CFE12335078
:026C700080D8CA
:106C720090993CE493FF3395E0FE90028E75F013F9
:106C8200EF1233CBEE75F013A42583F5831233E7AD
:106C9200E92407F9E43AFA7556FF7557817558B336
:106CA2007559FF755A84755B671270B590993CE40B
:106CB20093FF3395E0FE90028E75F013EF1233CB03
:106CC200EE75F013A42583F5831233E7E92407F95F
:106CD200E43AFA12000EEF2401F557E43EF556901D
:106CE200993BE493FF7B737D0112A5AC9002A8E06F
:106CF20060FAE4F54FE54F1234826D18006D180109
:106D02006D46026D74036DAE046DDC056E09066E90
:106D1200360700006E61E54F25E0241BF582E4345E
:106D220000F583E0FEA3E0FFC394A4EE9406400DB9
:106D3200D3EF94FCEE940850047F0180027F008F11
:106D42004D026E61E54F25E0241BF582E43400F527
:106D520083E0FEA3E0FFC39484EE940E400DD3EFD4
:106D6200949CEE941050047F0180027F008F4D02AC
:106D72006E61900018E0602EE54F25E0241BF5823D
:106D8200E43400F583E0FEA3E0FFC394AAEE940589
:106D9200400DD3EF946CEE940750047F0180027F84
:106DA200008F4D026E61754D01026E61E54F25E067
:106DB200241BF582E43400F583E0FEA3E0FFC394D4
:106DC20030EE9404400DD3EF9460EE940550047FAE
:106DD2000180027F008F4D026E61E54F25E0241B8A
:106DE200F582E43400F583E0FEA3E0FFC394CAEE2B
:106DF2009402400DD3EF9496EE940350047F0180E9
:106E0200027F008F4D8058E54F25E0241BF582E478
:106E12003400F583E0FEA3E0FFC39465EE940140E5
:106E22000DD3EF94CBEE940150047F0180027F00DA
:106E32008F4D802BE54F25E0241BF582E43400F5CD
:106E420083E0FEA3E0FFC3943FEE9403400DD3EF33
:106E5200942BEE940450047F0180027F008F4DE555
:106E62004D7002F54E7B017A0D790A12000E740AFA
:106E72002FF9740D3EFA7B01C003C002C001E54D3B
:106E82007BFF60067A84797F80047A8479848B56CA
:106E92008A578958D001D002D0031270B5054FE548
:0E6EA2004FC394085003026CF7E49002A8F06E
:106EB000900D0212335C00015F90E4FFFEFDFC9038
:106EC0000D02123314D312322D4017900D021233DB
:106ED0000874FFFBFAF9F81230DA900D0212335001
:026EE00080D858
:106EE20090993CE493FF3395E0FE90028E75F01387
:106EF200EF1233CBEE75F013A42583F5831233E73B
:106F0200E92407F9E43AFA7556FF7557817558B3C3
:106F1200755901755A0D755B0A1270B590993CE46A
:106F220093FF3395E0FE90028E75F013EF1233CB90
:106F3200EE75F013A42583F5831233E7E92407F9EC
:106F4200E43AFA12000EEF2401F557E43EF55690AA
:0C6F5200993BE493FF7B737D0112A5AC1A
:106F5E00900D0612335C00015F90E4FFFEFDFC9085
:106F6E000D06123314D312322D4017900D06123324
:106F7E000874FFFBFAF9F81230DA900D061233504E
:026F8E0080D8A9
:106F9000E54E90993C6038E493FF3395E0FE900213
:106FA0008E75F013EF1233CBEE75F013A42583F535
:106FB000831233E7E92407F9E43AFA7556FF755767
:106FC000817558B37559FF755A84755B898036E4AD
:106FD00093FF3395E0FE90028E75F013EF1233CBE2
:106FE000EE75F013A42583F5831233E7E92407F93E
:106FF000E43AFA7556FF7557817558B37559FF75A0
:107000005A84755B961270B590993CE493FF339562
:10701000E0FE90028E75F013EF1233CBEE75F01395
:10702000A42583F5831233E7E92407F9E43AFA1239
:10703000000EEF2401F557E43EF55690993BE4939A
:10704000FF7B737D0112A5ACD2B3C2B6C2B5C2B488
:08705000E4900004F0854C847B
:017058002215
:1064730085844C754D01E4F54F90000404F0758458
:0764830002758880854C843E
:10648A00900CF612335C00015F90E4FFFEFDFC9075
:10649A000CF6123314D312322D4017900CF6123325
:1064AA000874FFFBFAF9F81230DA900CF61233503E
:0264BA0080D888
:1064BC0090993CE493FF3395E0FE90028E75F013B7
:1064CC00EF1233CBEE75F013A42583F5831233E76B
:1064DC00E92407F9E43AFA7556FF7557817558B3F4
:1064EC007559FF755A84755BA81270B590993CE488
:1064FC0093FF3395E0FE90028E75F013EF1233CBC1
:10650C00EE75F013A42583F5831233E7E92407F91C
:10651C00E43AFA12000EEF2401F557E43EF55690DA
:10652C00993BE493FF7B737D0112A5AC900018E0BE
:02653C00706E7F
:10653E00900CFA12335C00015F90E4FFFEFDFC90BC
:10654E000CFA123314D312322D4017900CFA123368
:10655E000874FFFBFAF9F81230DA900CFA12335085
:02656E0080D8D3
:1065700090993CE493FF3395E0FE90028E75F01302
:10658000EF1233CBEE75F013A42583F5831233E7B6
:10659000E92407F9E43AFA7556FF7557817558B33F
:1065A0007559FF755A84755BB8026A7BE4F550E54E
:1065B00050B40807E4F5C8D2FB8005854FC8C2FB7C
:1065C000900CFE12335C00015F90E4FFFEFDFC9036
:1065D0000CFE123314D312322D4017900CFE1233DE
:1065E0000874FFFBFAF9F81230DA900CFE123350FF
:0265F00080D851
:1065F20090993CE493FF3395E0FE90028E75F01380
:10660200EF1233CBEE75F013A42583F5831233E733
:10661200E92407F9E43AFA7556FF7557847558D696
:1066220075590085505A1270B590993CE493FF3326
:1066320095E0FE90028E75F013EF1233CBEE75F0FB
:1066420013A42583F5831233E7E92407F9E43AFA20
:1066520012000EEF2401F557E43EF55690993BE403
:1066620093FF7B737D0112A5AC9002A8E060FAE56E
:106672005012348266950066E201672E02677A0341
:1066820067C604681205685E0668A90768F908000B
:106692000068FC854C84E5D8547FB54F19D390002F
:1066A20026E094CA900025E09402400A3086073022
:1066B20087047F0180027F008F4E758401E54E6062
:1066C20007208E047F0180027F008F4E758402E5D1
:1066D2004E6008208E057F010268F27F000268F298
:1066E200854C84E5D8547FB54F19C3900026E094B9
:1066F2005E900025E09401500A2086073087047FCF
:106702000180027F008F4E758401E54E6007208E66
:10671200047F0180027F008F4E758402E54E600780
:10672200208E047F0180027F000268F2854C84E59E
:10673200D8547FB54F19C3900026E0945E9000258F
:10674200E09401500A3086072087047F0180027F8F
:10675200008F4E758401E54E6007208E047F018014
:10676200027F008F4E758402E54E6007208E047F03
:106772000180027F000268F2854C84E5D8547FB51F
:106782004F19C3900026E0945E900025E0940150DA
:106792000A3086073087047F0180027F008F4E75A2
:1067A2008401E54E6007208E047F0180027F008F06
:1067B2004E758402E54E6007208E047F0180027FC1
:1067C200000268F2854C84E5D8547FB54F19C39016
:1067D2000026E0945E900025E09401500A3086077E
:1067E2003087047F0180027F008F4E758401E54E61
:1067F2006007208E047F0180027F008F4E75840225
:10680200E54E6007208E047F0180027F000268F25D
:10681200854C84E5D8547FB54F19C3900026E09487
:106822005E900025E09401500A3086073087047F8D
:106832000180027F008F4E758401E54E6007208E35
:10684200047F0180027F008F4E758402E54E60074F
:10685200208E047F0180027F000268F2854C84E56D
:10686200D8547FB54F19C3900026E0945E9000255E
:10687200E09401500A3086073087047F0180027F4E
:10688200008F4E758401E54E6007208E047F0180E3
:10689200027F008F4E758402E54E6007308E047FC2
:1068A2000180027F008049854C84E5D8547FB54F32
:1068B20019C3900026E0945E900025E09401500AEE
:1068C2003086073087047F0180027F008F4E7584F7
:1068D20001E54E6007308E047F0180027F008F4EFB
:1068E200758402E54E6007208E047F0180027F00DE
:1068F2008F4E854C848003754E01E49002A8F0E52A
:066902004E60030269B9BA
:10690800900D0212335C00015F90E4FFFEFDFC90E5
:106918000D02123314D312322D4017900D02123388
:106928000874FFFBFAF9F81230DA900D02123350AE
:0269380080D805
:10693A0090993CE493FF3395E0FE90028E75F01334
:10694A00EF1233CBEE75F013A42583F5831233E7E8
:10695A00E92407F9E43AFA7556FF7557817558B371
:10696A007559FF755A84755BE91270B590993CE4C4
:10697A0093FF3395E0FE90028E75F013EF1233CB3E
:10698A00EE75F013A42583F5831233E7E92407F99A
:10699A00E43AFA12000EEF2401F557E43EF5569058
:1069AA00993BE493FF7B737D0112A5ACE4F54DE5B9
:1069BA00507005754F018006E54F25E0F54F0550EB
:0A69CA00E550D3940850030265AFB6
:1069D400900D0612335C00015F90E4FFFEFDFC9015
:1069E4000D06123314D312322D4017900D061233B4
:1069F4000874FFFBFAF9F81230DA900D06123350DE
:026A040080D838
:106A0600E54D90993C6038E493FF3395E0FE9002A3
:106A16008E75F013EF1233CBEE75F013A42583F5C4
:106A2600831233E7E92407F9E43AFA7556FF7557F6
:106A3600817558B37559FF755A84755BF58036E4D0
:106A460093FF3395E0FE90028E75F013EF1233CB71
:106A5600EE75F013A42583F5831233E7E92407F9CD
:106A6600E43AFA7556FF7557817558B37559FF752F
:106A76005A85755B051270B590993CE493FF339582
:106A8600E0FE90028E75F013EF1233CBEE75F01325
:106A9600A42583F5831233E7E92407F9E43AFA12C9
:106AA600000EEF2401F557E43EF55690993BE4932A
:106AB600FF7B737D0112A5AC758402E4F588D2B321
:0D6AC600C2B6C2B5C2B4900004F0854C8485
:016AD30022A0
:097D760085844C9000047401F0B6
:107D7F00900CF612335C00015F90E4FFFEFDFC9067
:107D8F000CF6123314D312322D4017900CF6123317
:107D9F000874FFFBFAF9F81230DA900CF612335030
:027DAF0080D87A
:107DB10090993CE493FF3395E0FE90028E75F013A9
:107DC100EF1233CBEE75F013A42583F5831233E75D
:107DD100E92407F9E43AFA7556FF7557817558B3E6
:107DE1007559FF755A85755B1A1270B590993CE407
:107DF10093FF3395E0FE90028E75F013EF1233CBB3
:107E0100EE75F013A42583F5831233E7E92407F90E
:107E1100E43AFA12000EEF2401F557E43EF55690CC
:107E2100993BE493FF7B737D0112A5AC900018E0B0
:027E3100706E71
:107E3300900CFA12335C00015F90E4FFFEFDFC90AE
:107E43000CFA123314D312322D4017900CFA12335A
:107E53000874FFFBFAF9F81230DA900CFA12335077
:027E630080D8C5
:107E650090993CE493FF3395E0FE90028E75F013F4
:107E7500EF1233CBEE75F013A42583F5831233E7A8
:107E8500E92407F9E43AFA7556FF7557817558B331
:0F7E95007559FF755A84755BB802815F75C820F7
:107EA400900CFE12335C00015F90E4FFFEFDFC9039
:107EB4000CFE123314D312322D4017900CFE1233E1
:107EC4000874FFFBFAF9F81230DA900CFE12335002
:027ED40080D854
:107ED60090993CE493FF3395E0FE90028E75F01383
:107EE600EF1233CBEE75F013A42583F5831233E737
:107EF600E92407F9E43AFA7556FF7557817558B3C0
:107F06007559FF755A85755B261270B590993CE4D4
:107F160093FF3395E0FE90028E75F013EF1233CB8C
:107F2600EE75F013A42583F5831233E7E92407F9E8
:107F3600E43AFA12000EEF2401F557E43EF55690A6
:107F4600993BE493FF7B737D0112A5AC7F0112C6BA
:047F56003775C86053
:107F5A00900D0212335C00015F90E4FFFEFDFC907D
:107F6A000D02123314D312322D4017900D02123320
:107F7A000874FFFBFAF9F81230DA900D0212335046
:027F8A0080D89D
:107F8C0090993CE493FF3395E0FE90028E75F013CC
:107F9C00EF1233CBEE75F013A42583F5831233E780
:107FAC00E92407F9E43AFA7556FF7557817558B309
:107FBC007559FF755A85755B391270B590993CE40B
:107FCC0093FF3395E0FE90028E75F013EF1233CBD6
:107FDC00EE75F013A42583F5831233E7E92407F932
:107FEC00E43AFA12000EEF2401F557E43EF55690F0
:0E7FFC00993BE493FF7B737D0112A5ACC2FF9D
:10800A00900D0612335C0006DDD0E4FFFEFDFC9005
:10801A000D06123314D312322D4017900D06123367
:10802A000874FFFBFAF9F81230DA900D0612335091
:02803A0080D8EC
:02803C00D2FF71
:10803E00900D0A12335C00015F90E4FFFEFDFC9090
:10804E000D0A123314D312322D4017900D0A12332B
:10805E000874FFFBFAF9F81230DA900D0A12335059
:02806E0080D8B8
:1080700090993CE493FF3395E0FE90028E75F013E7
:10808000EF1233CBEE75F013A42583F5831233E79B
:10809000E92407F9E43AFA7556FF7557817558B324
:1080A0007559FF755A85755B4C1270B590993CE413
:1080B00093FF3395E0FE90028E75F013EF1233CBF1
:1080C000EE75F013A42583F5831233E7E92407F94D
:1080D000E43AFA12000EEF2401F557E43EF556900B
:1080E000993BE493FF7B737D0112A5ACE4FF12C6BC
:0480F00037E4F5C8B4
:1080F400900D0E12335C00015F90E4FFFEFDFC90D6
:108104000D0E123314D312322D4017900D0E12336C
:108114000874FFFBFAF9F81230DA900D0E1233509E
:0281240080D801
:1081260090993CE493FF3395E0FE90028E75F01330
:10813600EF1233CBEE75F013A42583F5831233E7E4
:10814600E92407F9E43AFA7556FF7557817558B36D
:108156007559FF755A85755B601270B590993CE448
:1081660093FF3395E0FE90028E75F013EF1233CB3A
:10817600EE75F013A42583F5831233E7E92407F996
:10818600E43AFA12000EEF2401F557E43EF5569054
:10819600993BE493FF7B737D0112A5ACD2B3C2B6C3
:0C81A600C2B5C2B4E4900004F0854C8423
:0181B20022AA
:0F74C800E4F550A2FB920185845190000404F07A
:1074D700900CF612335C00015F90E4FFFEFDFC9018
:1074E7000CF6123314D312322D4017900CF61233C8
:1074F7000874FFFBFAF9F81230DA900CF6123350E1
:0275070080D82A
:1075090090993CE493FF3395E0FE90028E75F01359
:10751900EF1233CBEE75F013A42583F5831233E70D
:10752900E92407F9E43AFA7556FF7557817558B396
:107539007559FF755A85755B711270B590993CE460
:1075490093FF3395E0FE90028E75F013EF1233CB63
:10755900EE75F013A42583F5831233E7E92407F9BF
:10756900E43AFA12000EEF2401F557E43EF556907D
:10757900993BE493FF7B737D0112A5AC900018E061
:02758900706E22
:10758B00900CFA12335C00015F90E4FFFEFDFC905F
:10759B000CFA123314D312322D4017900CFA12330B
:1075AB000874FFFBFAF9F81230DA900CFA12335028
:0275BB0080D876
:1075BD0090993CE493FF3395E0FE90028E75F013A5
:1075CD00EF1233CBEE75F013A42583F5831233E759
:1075DD00E92407F9E43AFA7556FF7557817558B3E2
:1075ED007559FF755A84755BB80278CEC2FBE4F508
:0375FD0084D2C66F
:10760000900CFE12335C00015F90E4FFFEFDFC90E5
:107610000CFE123314D312322D4017900CFE12338D
:107620000874FFFBFAF9F81230DA900CFE123350AE
:0276300080D800
:10763200754C00754D08754E00754F3290993CE4BB
:1076420093FF3395E0FE90028E75F013EF1233CB69
:10765200EE75F013A42583F5831233E7E92407F9C5
:10766200E43AFA7556FF755785755885854C5985E4
:107672004D5A854E5B854F5C1270B590993CE493F0
:10768200FF3395E0FE90028E75F013EF1233CBEECE
:1076920075F013A42583F5831233E7E92407F9E48F
:1076A2003AFA12000EEF2401F557E43EF55690998E
:1076B2003BE493FF7B737D0112A5ACD2B6D2B3C279
:1076C200B4C2B59000501233E77408122EF6E4F5F6
:1076D2004CF54DE54D2440FF9000501233E7E54D47
:1076E2002401FDE4354C8D82F583EF122F08054D00
:1076F200E54D7002054C6408454C70D790004E74FD
:1077020009F0A314F090004B7404F0E4F54EF54F29
:10771200E4900056F012C6A2AE4EAF4F7C007D0A36
:10772200122F3CED4C6002B2B530E819C39002C290
:10773200E094099002C1E094004003027823E490AF
:0577420002C1F0A3F0FC
:10774700900D0212335C00001194E4FFFEFDFC90E3
:107757000D02123314D312322D4017900D0212333B
:107767000874FFFBFAF9F81230DA900D0212335061
:0277770080D8B8
:1077790012C686E4FFFE900056E0FD700D0FEF7013
:10778900010EC394ECEE942C40ECED70057550019C
:10779900803EE4F54CF54D9000501233E7E54D2459
:1077A90001FFE4354C8F82F583122E96FF9000532A
:1077B9001233E7854D82854C83122E966F600375CF
:1077C9005001054DE54D7002054C6408454C70C7E4
:0477D900E5507046C1
:1077DD00900D0612335C00001194E4FFFEFDFC9049
:1077ED000D06123314D312322D4017900D0612339D
:1077FD000874FFFBFAF9F81230DA900D06123350C7
:02780D0080D821
:10780F00054FE54F7002054EC39432E54E9400507C
:08781F0003027712A20192FBA3
:10782700900D0A12335C00015F90E4FFFEFDFC90AF
:107837000D0A123314D312322D4017900D0A12334A
:107847000874FFFBFAF9F81230DA900D0A12335078
:0278570080D8D7
:10785900E55090993C6038E493FF3395E0FE90023F
:107869008E75F013EF1233CBEE75F013A42583F563
:10787900831233E7E92407F9E43AFA7556FF755795
:10788900817558B37559FF755A85755B998036E4CA
:1078990093FF3395E0FE90028E75F013EF1233CB10
:1078A900EE75F013A42583F5831233E7E92407F96C
:1078B900E43AFA7556FF7557817558B37559FF75CE
:1078C9005A85755BAF1270B590993CE493FF339577
:1078D900E0FE90028E75F013EF1233CBEE75F013C4
:1078E900A42583F5831233E7E92407F9E43AFA1268
:1078F900000EEF2401F557E43EF55690993BE493C9
:10790900FF7B737D0112A5ACD2B3C2B4C2B5C2B6B6
:08791900E4900004F0855184A4
:017921002243
:109D7600A2FB920185844E9000047401F090004E7F
:109D86007410F0A3F0E4900056F0900018E0600321
:039D9600029E4AE0
:109D9900900CF612335C00015F90E4FFFEFDFC902D
:109DA9000CF6123314D312322D4017900CF61233DD
:109DB9000874FFFBFAF9F81230DA900CF6123350F6
:029DC90080D840
:109DCB0090993CE493FF3395E0FE90028E75F0136F
:109DDB00EF1233CBEE75F013A42583F5831233E723
:109DEB00E92407F9E43AFA7556FF7557817558B3AC
:109DFB007559FF755A84755BB81270B590993CE430
:109E0B0093FF3395E0FE90028E75F013EF1233CB78
:109E1B00EE75F013A42583F5831233E7E92407F9D4
:109E2B00E43AFA12000EEF2401F557E43EF5569092
:0F9E3B00993BE493FF7B737D0112A5AC029F8ED0
:109E4A00900CFA12335C00015F90E4FFFEFDFC9077
:109E5A000CFA123314D312322D4017900CFA123323
:109E6A000874FFFBFAF9F81230DA900CFA12335040
:029E7A0080D88E
:109E7C0090993CE493FF3395E0FE90028E75F013BD
:109E8C00EF1233CBEE75F013A42583F5831233E771
:109E9C00E92407F9E43AFA7556FF7557817558B3FA
:109EAC007559FF755A85755BC01270B590993CE475
:109EBC0093FF3395E0FE90028E75F013EF1233CBC7
:109ECC00EE75F013A42583F5831233E7E92407F923
:109EDC00E43AFA12000EEF2401F557E43EF55690E1
:109EEC00993BE493FF7B737D0112A5ACC2FB7E0012
:109EFC00754C00754D32D2B6D2B3C2B4C2B5E4F5CE
:109F0C008475C304C2C3FFEF24F0FD9000501233DC
:109F1C00E78F828E83ED122F080FBF00010EEF64C6
:109F2C00084E70E3900056E060FA30E816C39002D9
:109F3C00C2E094099002C1E094005042E49002C146
:109F4C00F0A3F0E4900056F0FEFF90004FE0FDC34C
:109F5C00EF9DEE940050239000531233E78F828EC6
:109F6C0083122E96FD9000501233E78F828E83ED74
:109F7C00122F080FBF00010E80D0B2B580A6A2012F
:109F8C0092FBD2B3C2B4C2B5C2B6E4900004F08561
:029F9C004E84F1
:019F9E0022A0
:10C5AE00011201010601010201000000010000005C
:10C5BE000C00000077000004A900002E9B0001D2A1
:10C5CE00090012345600B60B61071C71C7471C7167
:01C5DE00C795
:04B840004111210091
:108D67009002A11233E78B418A4289439002A0E027
:108D770090029FF0E4F53BF53CF540F53FF53EF5F5
:108D87003DAB41AA42A943053CE53CAE3B70020519
:108D97003B142406F582E43EF58374FA122F080586
:108DA7003CE53CAE3B7002053B142406F582E43EED
:108DB700F583E4122F08053CE53CAE3B7002053B0A
:108DC700142406F582E43EF5837401122F08053C4E
:108DD700E53CAE3B7002053B142406F582E43EF504
:108DE70083E4122F08053CE53CAE3B7002053B14BB
:108DF7002406F582E43EF5837401122F08053CE54D
:108E07003CAE3B7002053B142406F582E43EF58335
:108E1700E4122F08AD3CAC3B7F087E0612B86E907B
:108E27000296E07002A3E070F690026BE0F53BA3B8
:108E3700E0F53C9002A0E0FF90029FE0B5071378B1
:108E47003D1233307B407A4B794C7800D312324352
:108E570050E19002A0E0FF90029FE06F7003028D47
:108E67007BE4F53BF53CAB41AA42A943053CE53C15
:108E7700AE3B7002053B142406F582E43EF583748D
:108E870001122F08053CE53CAE3B7002053B14245C
:108E970006F582E43EF583E4122F08053CE53CAE77
:108EA7003B7002053B142406F582E43EF583E41289
:108EB7002F08053CE53CAE3B7002053B142406F544
:108EC70082E43EF583E4122F08053CE53CAE3B7097
:108ED70002053B142406F582E43EF58374C0122F85
:108EE70008053CE53CAE3B7002053B142406F582C1
:108EF700E43EF5837408122F08053CE53CAE3B7051
:108F070002053B142406F582E43EF583E4122F089C
:108F1700053CE53CAE3B7002053B142406F582E4B4
:108F27003EF583E4122F08E92406F9E43AFAE92525
:108F37003CF9EA353BFA12338D00E1000074042551
:108F47003CF53CE4353BF53BAB41AA42A943053C24
:108F5700E53CAE3B7002053B142406F582E43EF582
:108F6700837401122F08053CE53CAE3B7002053BBC
:108F7700142406F582E43EF583E4122F08053CE548
:108F87003CAE3B7002053B142406F582E43EF583B4
:108F97007401122F08053CE53CAE3B7002053B14FB
:108FA7002406F582E43EF583E4122F08053CE53CF0
:108FB700AE3B7002053B142406F582E43EF583E4DC
:108FC700122F08053CE53CAE3B7002053B14240616
:108FD700F582E43EF583E4122F08053CE53CAE3B01
:108FE7007002053B142406F582E43EF583E4122F54
:108FF70008053CE53CAE3B7002053B142406F582B0
:10900700E43EF583E4122F08AD3CAC3B7F007E06BF
:0D90170012B86E900296E07002A3E070F6B1
:10902400900CE612335C000008CAE4FFFEFDFC90DD
:109034000CE6123314D312322D4017900CE612337F
:109044000874FFFBFAF9F81230DA900CE612335088
:0290540080D8C2
:109056007B017A0279947F007EE17D007C00129F7D
:019066009F6A
:10906700900CEA12335C00004650E4FFFEFDFC90D2
:109077000CEA123314D312322D4017900CEA123334
:109087000874FFFBFAF9F81230DA900CEA12335041
:0290970080D87F
:0190990022B4
:1000A600781C7C0F7D017BFF7AC579AE7E007F09C7
:1000B600122E579002A11233E78B538A548955901A
:1000C6000018E0700302020A9002A0E090029FF07E
:1000D600E4F552E4F550F551E55275F003A4241CFD
:1000E600F582E4340FF583E0FFAB53AA54A9550516
:1000F60051E551AC5070020550142406F582E43CDB
:10010600F583EF122F08E55275F003A4241CF5823F
:10011600E4340FF583A3E0FF0551E551AC507002BE
:100126000550142406F582E43CF583EF122F08E50A
:100136005275F003A4241EF582E4340FF583E0FF24
:100146000551E551AC5070020550142406F582E4C1
:100156003CF583EF12B863900296E07002A3E0705C
:10016600F69002A0E0FF90029FE06F60F49002A478
:100176001233E79002A0E0FF75F0DCA4F58285F06B
:100186008312301EF55185F050EFB402047F0080D3
:10019600069002A0E004FF9002A0EFF0E551640192
:1001A6007004E5506405600C9002A0E0FF90029F89
:0401B600E0B507B9F0
:1001BA00900EFC12335C00001194E4FFFEFDFC90EB
:1001CA000EFC123314D312322D4017900EFC123348
:1001DA000874FFFBFAF9F81230DA900EFC12335069
:0201EA0080D8BB
:1001EC00E55164017004E550640560030200D90513
:1001FC0052E552C3940350030200D9020DD2E4F528
:10020C0050F551AB53AA54A9550551E551AE507058
:10021C00020550142406F582E43EF5837401122F76
:10022C00080551E551AE5070020550142406F582B4
:10023C00E43EF5837402122F080551E551AE50705F
:10024C00020550142406F582E43EF583E4122F08CF
:10025C000551E551AE5070020550142406F582E4A8
:10026C003EF5837401122F080551E551AE50700212
:10027C000550142406F582E43EF583E4122F08059C
:10028C0051E551AE5070020550142406F582E43E3F
:10029C00F583E4122F080551E551AE50700205505C
:1002AC00142406F582E43EF5837401122F080551DF
:1002BC00E551AE5070020550142406F582E43EF56B
:1002CC00837401122F080551E551AE507002055090
:1002DC00142406F582E43EF583E4122F080551E55B
:1002EC0051AE5070020550142406F582E43EF5839D
:1002FC00E4122F080551E551AE507002055014243C
:10030C0006F582E43EF583E4122F080551E551AE63
:10031C005070020550142406F582E43EF583E41275
:10032C002F080551E551AE5070020550142406F506
:10033C0082E43EF5837401122F080551E551AE504D
:10034C0070020550142406F582E43EF583740612FF
:10035C002F080551E551AE5070020550142406F5D6
:10036C0082E43EF583E4122F080551E551AE50703E
:10037C00020550142406F582E43EF5837401122F15
:10038C00080551E551AE5070020550142406F58253
:10039C00E43EF583E4122F080551E551AE5070028E
:1003AC000550142406F582E43EF583E4122F08056B
:1003BC0051E551AE5070020550142406F582E43E0E
:1003CC00F5837401122F080551E551AE50700205EA
:1003DC0050142406F582E43EF5837412122F08059E
:1003EC0051E551AE5070020550142406F582E43EDE
:1003FC00F583E4122F080551E551AE5070020550FB
:10040C00142406F582E43EF5837401122F0805517D
:10041C00E551AE5070020550142406F582E43EF509
:10042C0083E4122F080551E551AE507002055014AB
:10043C002406F582E43EF583E4122F080551E551BC
:10044C00AE5070020550142406F582E43EF5837418
:10045C0001122F080551E551AE50700205501424BD
:10046C0006F582E43EF5837403122F080551E5511D
:10047C00AE5070020550142406F582E43EF583E478
:10048C00122F080551E551AE507002055014240688
:10049C00F582E43EF583E4122F080551E551AE5088
:1004AC0070020550142406F582E43EF583E4122F05
:1004BC00080551E551AE5070020550142406F58222
:1004CC00E43EF583E4122F080551E551AE5070025D
:1004DC000550142406F582E43EF5837401122F08AE
:1004EC000551E551AE5070020550142406F582E416
:1004FC003EF5837430122F080551E551AE50700251
:10050C000550142406F582E43EF583E4122F080509
:10051C0051E551AE5070020550142406F582E43EAC
:10052C00F583E4122F080551E551AE5070020550C9
:10053C00142406F582E43EF583E4122F080551E5F8
:10054C0051AE5070020550142406F582E43EF5833A
:10055C00E4122F080551E551AE50700205501424D9
:10056C0006F582E43EF5837401122F080551E5511E
:10057C00AE5070020550142406F582E43EF58374E7
:10058C0004122F080551E551AE5070020550142489
:10059C0006F582E43EF583E4122F080551E551AED1
:1005AC005070020550142406F582E43EF583E412E3
:1005BC002F080551E551AE5070020550142406F574
:1005CC0082E43EF583E4122F080551E551AE5070DC
:1005DC00020550142406F582E43EF583E4122F083C
:1005EC000551E551AE5070020550142406F582E415
:1005FC003EF5837401122F080551E551AE5070027F
:10060C000550142406F582E43EF5837420122F085D
:10061C000551E551AE5070020550142406F582E4E4
:10062C003EF583E4122F080551E551AE50700205DA
:10063C0050142406F582E43EF583E4122F0805518C
:10064C00E551AE5070020550142406F582E43EF5D7
:10065C0083E4122F080551E551AE5070020550127B
:10066C00B859900296E07002A3E070F69002A0E0F8
:10067C00FF90029FE06F60F49002A41233E79002A7
:10068C00A0E0FF75F0DCA4F58285F08312301EF536
:10069C005185F050EFB402047F0080069002A0E078
:1006AC0004FF9002A0EFF0E55164017004E5506482
:0F06BC0005600C9002A0E0FF90029FE0B507B927
:1006CB00900F0012335C00002328E4FFFEFDFC902A
:1006DB000F00123314D312322D4017900F00123328
:1006EB000874FFFBFAF9F81230DA900F001233504E
:0206FB0080D8A5
:1006FD00E55164017004E5506405600302020AE4EB
:10070D00F550F551AB53AA54A9550551E551AE50CD
:10071D0070020550142406F582E43EF5837401122F
:10072D002F080551E551AE5070020550142406F501
:10073D0082E43EF5837411122F080551E551AE5038
:10074D0070020550142406F582E43EF583E4122F61
:10075D00080551E551AE5070020550142406F5827E
:10076D00E43EF583E4122F080551E551AE507002B9
:10077D000550142406F582E43EF583E4122F080596
:10078D0051E551AE5070020550142406F582E43E39
:10079D00F583E4122F080551E551AE507002055056
:1007AD00142406F582E43EF5837401122F080551D9
:1007BD00E551AE5070020550142406F582E43EF565
:1007CD00837421122F080551E551AE50700205506A
:1007DD00142406F582E43EF583E4122F080551E555
:1007ED0051AE5070020550142406F582E43EF58397
:1007FD00E4122F080551E551AE5070020550142436
:10080D0006F582E43EF583E4122F080551E551AE5D
:10081D005070020550142406F582E43EF583E4126F
:10082D002F080551E551AE5070020550142406F500
:10083D0082E43EF5837401122F080551E551AE5047
:10084D0070020550142406F582E43EF583742212DD
:10085D002F080551E551AE5070020550142406F5D0
:10086D0082E43EF583E4122F080551E551AE507038
:10087D00020550142406F582E43EF583E4122F0898
:10088D000551E551AE5070020550142406F582E471
:10089D003EF583E4122F080551E551AE5070020567
:1008AD0050142406F582E43EF583E4122F08055119
:1008BD00E551AE5070020550142406F582E43EF564
:1008CD0083740A122F080551E551AE507002055080
:1008DD00142406F582E43EF5837407122F080551A2
:1008ED00E551AE5070020550142406F582E43EF534
:1008FD0083E4122F080551E551AE507002055014D6
:10090D002406F582E43EF583E4122F080551E551E6
:10091D00AE5070020550142406F582E43EF583E4D2
:10092D00122F080551E551AE5070020550142406E2
:10093D00F582E43EF583E4122F080551E551AE50E2
:10094D0070020550142406F582E43EF583740A12F4
:10095D002F080551E551AE5070020550142406F5CF
:10096D0082E43EF5837408122F080551E551AE500F
:10097D0070020550142406F582E43EF583E4122F2F
:10098D00080551E551AE5070020550142406F5824C
:10099D00E43EF583E4122F080551E551AE50700287
:1009AD000550142406F582E43EF583E4122F080564
:1009BD0051E551AE5070020550142406F582E43E07
:1009CD00F583E4122F080551E551AE507002055024
:1009DD00142406F582E43EF583740A122F0805519E
:1009ED00E551AE5070020550142406F582E43EF533
:1009FD00837402122F080551E551AE507002055057
:100A0D00142406F582E43EF583E4122F080551E522
:100A1D0051AE5070020550142406F582E43EF58364
:100A2D00E4122F080551E551AE5070020550142403
:100A3D0006F582E43EF583E4122F080551E551AE2B
:100A4D005070020550142406F582E43EF583E4123D
:100A5D002F080551E551AE5070020550142406F5CE
:100A6D0082E43EF583740A122F080551E551AE500C
:100A7D0070020550142406F582E43EF583740912C4
:100A8D002F080551E551AE5070020550142406F59E
:100A9D0082E43EF583E4122F080551E551AE507006
:100AAD00020550142406F582E43EF583E4122F0866
:100ABD000551E551AE5070020550142406F582E43F
:100ACD003EF583E4122F080551E551AE5070020535
:100ADD0050142406F582E43EF583E4122F080551E7
:100AED00E551AE5070020550142406F582E43EF532
:100AFD0083740A122F080551E551AE50700205504E
:100B0D00142406F582E43EF5837401122F08055175
:100B1D00E551AE5070020550142406F582E43EF501
:100B2D0083E4122F080551E551AE507002055014A3
:100B3D002406F582E43EF583E4122F080551E551B4
:100B4D00AE5070020550142406F582E43EF583E4A0
:100B5D00122F080551E551AE5070020550142406B0
:100B6D00F582E43EF583E4122F080551E551AE50B0
:100B7D0070020550142406F582E43EF583740A12C2
:100B8D002F080551E551AE5070020550142406F59D
:100B9D0082E43EF5837403122F080551E551AE50E2
:100BAD0070020550142406F582E43EF583E4122FFD
:100BBD00080551E551AE5070020550142406F5821A
:100BCD00E43EF583E4122F080551E551AE50700255
:100BDD000550142406F582E43EF583E4122F080532
:100BED0051E551AE507002055012B859900296E081
:100BFD007002A3E070F69002A0E0FF90029FE06FFC
:100C0D0060F49002A41233E79002A0E0FF75F0DCCF
:100C1D00A4F58285F08312301EF55185F050EFB4A6
:100C2D0002047F0080069002A0E004FF9002A0EF76
:100C3D00F0E55164017004E5506405600C9002A06C
:090C4D00E0FF90029FE0B507B939
:100C5600900F0412335C00002328E4FFFEFDFC9095
:100C66000F04123314D312322D4017900F0412338F
:100C76000874FFFBFAF9F81230DA900F04123350B9
:020C860080D814
:100C8800E55164017004E5506405600302070CE453
:100C9800F550F551AB53AA54A9550551E551AE503D
:100CA80070020550142406F582E43EF58374FA12A6
:100CB8002F080551E551AE5070020550142406F571
:100CC80082E43EF583E4122F080551E551AE5070D9
:100CD800020550142406F582E43EF5837401122FB0
:100CE800080551E551AE5070020550142406F582EE
:100CF800E43EF583E4122F080551E551AE50700229
:100D08000550142406F582E43EF5837401122F0879
:100D18000551E551AE5070020550142406F582E4E1
:100D28003EF583E4122F087F0812B868900296E017
:100D38007002A3E070F69002A0E0FF90029FE06FBF
:100D480060F49002A41233E79002A0E0FF75F0DC93
:100D5800A4F58285F08312301EF55185F050EFB46A
:100D680002047F0080069002A0E004FF9002A0EF3A
:100D7800F0E55164017004E5506405600C9002A030
:090D8800E0FF90029FE0B507B9FD
:100D9100900F0812335C00001194E4FFFEFDFC90FB
:100DA1000F08123314D312322D4017900F0812334B
:100DB1000874FFFBFAF9F81230DA900F0812335079
:020DC10080D8D8
:0F0DC300E55164017004E55064056003020C976C
:100DD200900CB5E0FBE4FAF9F87F807E967D98FCF2
:100DE20012C4D28F598E588D578C567808123254AD
:100DF200E4FFE4FDFCC004C005C006C007AF59AE65
:100E020058AD57AC567818123254E4FEFDFCD003AC
:100E1200D002D001D000123212C004C005C006C0F8
:100E220007AF59AE58AD57AC567808123267E4FF97
:100E3200FEE4FCD003D002D001D000123212C00472
:100E4200C005C006C007AF59AE58AD57AC567818AA
:100E5200123267E4FFFEFDECD003D002D001D000D5
:100E6200123212AB53AA54A9559000061232E4E48E
:100E720075590AF558F557F556AF59AE58AD57ACF6
:100E8200567808123254E4FFE4FDFCC004C005C0E9
:100E920006C007AF59AE58AD57AC56781812325447
:100EA200E4FEFDFCD003D002D001D000123212C009
:100EB20004C005C006C007AF59AE58AD57AC56784E
:100EC20008123267E4FFFEE4FCD003D002D001D066
:100ED20000123212C004C005C006C007AF59AE5896
:100EE200AD57AC567818123267E4FFFEFDECD00322
:100EF200D002D001D000123212AB53AA54A955909D
:100F0200000A1232E47550007551080551E551AEE0
:100F12005070020550142406F582E43EF5837401F4
:100F2200122F080551E551AE5070020550142406E7
:100F3200F582E43EF5837401122F080551E551AEA6
:100F42005070020550142406F582E43EF583E41243
:100F52002F080551E551AE5070020550142406F5D4
:100F620082E43EF583E4122F080551E551AE50703C
:100F7200020550142406F582E43EF5837432122FE2
:100F8200080551E551AE5070020550142406F58251
:100F9200E43EF583E4122F080551E551AE5070028C
:100FA2000550142406F582E43EF5837434122F08AA
:100FB2000551E551AE5070020550142406F582E445
:100FC2003EF5837403122F080551E551AE507002AD
:100FD2000550142406F582E43EF583E4122F080539
:100FE20051E551AE5070020550142406F582E43EDC
:100FF200F583E4122F080551E551AE5070020550F9
:10100200142406F582E43EF583E4122F080551E527
:1010120051AE5070020550142406F582E43EF58369
:10102200E4122F08AD51AC507F077E0612B86E90C5
:101032000296E07002A3E070F69002A0E0FF900238
:101042009FE06F60F49002A41233E79002A0E0FFE9
:1010520075F0DCA4F58285F08312301EF55185F01F
:1010620050EFB402047F0080069002A0E004FF90DB
:1010720002A0EFF0E55164017004E5506405600CD4
:0C1082009002A0E0FF90029FE0B507B9CB
:10108E00900F0C12335C00001194E4FFFEFDFC90F7
:10109E000F0C123314D312322D4017900F0C123343
:1010AE000874FFFBFAF9F81230DA900F0C12335075
:0210BE0080D8D8
:1010C000E55164017004E55064056003020DD2909F
:1010D0000018E070030217E5E4F550F551AB53AA90
:1010E00054A9550551E551AE50700205501424061F
:1010F000F582E43EF583E4122F080551E551AE5028
:1011000070020550142406F582E43EF583E4122FA4
:10111000080551E551AE5070020550142406F582C1
:10112000E43EF583E4122F080551E551AE507002FC
:101130000550142406F582E43EF583E4122F0805D9
:1011400051E551AE5070020550142406F582E43E7C
:10115000F5837440122F080551E551AE5070020519
:1011600050142406F582E43EF583741F122F0805FF
:1011700051E551AE5070020550142406F582E43E4C
:10118000F58374E8122F080551E551AE5070020541
:1011900050142406F582E43EF5837403122F0805EB
:1011A00051E551AE5070020550142406F582E43E1C
:1011B000F5837498122F080551E551AE5070020561
:1011C00050142406F582E43EF583743A122F080584
:1011D00051E551AE5070020550142406F582E43EEC
:1011E000F58374B0122F080551E551AE5070020519
:1011F00050142406F582E43EF5837404122F08058A
:1012000051E551AE5070020550142406F582E43EBB
:10121000F58374E8122F080551E551AE50700205B0
:1012200050142406F582E43EF5837403122F08055A
:1012300051E551AE5070020550142406F582E43E8B
:10124000F5837403122F080551E551AE5070020565
:1012500050142406F582E43EF583E4122F08AD51C4
:10126000AC507F257E0612B86E900296E07002A305
:10127000E070F69002A0E0FF90029FE06F60F490B3
:1012800002A41233E79002A0E0FF75F0DCA4F5821F
:1012900085F08312301EF55185F050EFB402047FC3
:1012A0000080069002A0E004FF9002A0EFF0E5515C
:1012B00064017004E5506405600C9002A0E0FF90AA
:0612C000029FE0B507B932
:1012C600900F1012335C00001194E4FFFEFDFC90B9
:1012D6000F10123314D312322D4017900F10123301
:1012E6000874FFFBFAF9F81230DA900F1012335037
:0212F60080D89E
:1012F800E55164017004E550640560030210D805E7
:1013080051E55170020550E4F550F551AB53AA541C
:10131800A9550551E551AE5070020550142406F543
:1013280082E43EF583E4122F080551E551AE507072
:10133800020550142406F582E43EF583E4122F08D2
:101348000551E551AE5070020550142406F582E4AB
:101358003EF583E4122F080551E551AE50700205A1
:1013680050142406F582E43EF583E4122F08055153
:10137800E551AE5070020550142406F582E43EF59E
:1013880083E4122F080551E551AE50700205501440
:101398002406F582E43EF583E4122F080551E55151
:1013A800AE5070020550142406F582E43EF583E43D
:1013B800122F080551E551AE50700205501424064D
:1013C800F582E43EF583E4122F08AD51AC507F1648
:1013D8007E0612B86E900296E07002A3E070F69056
:1013E80002A0E0FF90029FE06F60F49002A4123325
:1013F800E79002A0E0FF75F0DCA4F58285F0831287
:10140800301EF55185F050EFB402047F008006903D
:1014180002A0E004FF9002A0EFF0E551640170041F
:10142800E5506405600C9002A0E0FF90029FE0B5D3
:0214380007B9F2
:10143A00900F1412335C00001194E4FFFEFDFC903F
:10144A000F14123314D312322D4017900F14123383
:10145A000874FFFBFAF9F81230DA900F14123350BD
:02146A0080D828
:10146C00E55164017004E5506405600302130FE458
:10147C00F550F551AB53AA54A9550551E551AE5051
:10148C0070020550142406F582E43EF583740512AF
:10149C002F080551E551AE5070020550142406F585
:1014AC0082E43EF583E4122F080551E551AE5070ED
:1014BC00020550142406F582E43EF5837404122FC1
:1014CC00080551E551AE5070020550142406F58202
:1014DC00E43EF5837402122F08E92406F9E43AFA83
:1014EC00E92551F9EA3550FA12338D50C3000074D6
:1014FC00042551F551E43550F550AB53E555240610
:10150C00F9E43554FAE92551F9EA3550FA12338DDC
:10151C000000000074042551F551E43550F550AB32
:10152C0053AA54A9550551E551AE507002055014FB
:10153C002406F582E43EF5837405122F080551E567
:10154C0051AE5070020550142406F582E43EF5832A
:10155C00E4122F08E92406F9E43AFAE92551F9EAEC
:10156C003550FA74FA75F00012308E74022551F56C
:10157C0051E43550F550AB53E5552406F9E4355498
:10158C00FAE92551F9EA3550FA74FA75F00012307F
:10159C008E74022551F551E43550F550AB53E55599
:1015AC002406F9E43554FAE92551F9EA3550FA7470
:1015BC006475F00012308E74022551F551E43550EB
:1015CC00F550AB53E5552406F9E43554FAE92551A9
:1015DC00F9EA3550FA742C75F00112308E7402252C
:1015EC0051F551E43550F550AB53AA54A95505515A
:1015FC00E551AE5070020550142406F582E43EF518
:10160C0083E4122F080551E551AE507002055014B9
:10161C002406F582E43EF583E4122F080551E551CA
:10162C00AE5070020550142406F582E43EF583E4B6
:10163C00122F080551E551AE5070020550142406C6
:10164C00F582E43EF583E4122F080551E551AE50C6
:10165C0070020550142406F582E43EF583E4122F43
:10166C00080551E551AE5070020550142406F58260
:10167C00E43EF583E4122F080551E551AE5070029B
:10168C000550142406F582E43EF583E4122F080578
:10169C0051E551AE5070020550142406F582E43E1B
:1016AC00F583E4122F080551E551AE507002055038
:1016BC00142406F582E43EF583E4122F080551E567
:1016CC0051AE5070020550142406F582E43EF583A9
:1016DC00E4122F080551E551AE5070020550142448
:1016EC0006F582E43EF583E4122F080551E551AE70
:1016FC005070020550142406F582E43EF583E41282
:10170C002F080551E551AE5070020550142406F512
:10171C0082E43EF583E4122F080551E551AE50707A
:10172C00020550142406F582E43EF583E4122F08DA
:10173C00AD51AC507F247E0612B86E900296E070CC
:10174C0002A3E070F69002A0E0FF90029FE06F60B1
:10175C00F49002A41233E79002A0E0FF75F0DCA431
:10176C00F58285F08312301EF55185F050EFB402EE
:10177C00047F0080069002A0E004FF9002A0EFF02E
:10178C00E55164017004E5506405600C9002A0E022
:08179C00FF90029FE0B507B9C0
:1017A400900F1812335C00001194E4FFFEFDFC90CE
:1017B4000F18123314D312322D4017900F1812330E
:1017C4000874FFFBFAF9F81230DA900F181233504C
:0217D40080D8BB
:0F17D600E55164017004E5506405600302147B63
:0117E50022E1
:10B85900142406F582E43EF583E4122F087F01AD36
:05B8690051AC507E0609
:08B86E008E5A8F5B8C5C8D5D2E
:10B876009002A11233E774B5122EF69002A112338C
:10B88600E79000017462122F08E55A900002122F09
:10B8960008E55B900003122F08E55D900004122F67
:10B8A60008E55C900005122F08E4F55FF55E7F025F
:10B8B600FEE55D2406FDE4355CFCC3EF9DEE9C5081
:10B8C6001C9002A11233E78F828E83122E96255E7C
:10B8D600F55E255FF55F0FBF00010E80D49002A1D3
:10B8E6001233E7E55D2406FFE4355C8F82F583E5D8
:10B8F6005E122F08E55D2407FFE4355C8F82F58331
:10B90600E55F122F087B017A027994E55D2408FD34
:07B91600E4355CFC02C213E2
:064D83008B3B8A3C893DD8
:104D8900901121E0700804F01200A60254F5AB3B23
:104D9900AA3CA93D122FF31234A84DB3010250A623
:0A4DA9000106527F0112000054EFD2
:104DB3007406253DF53DE4353CF53C7541007542EF
:104DC30000754349E4F544F545783BE475F0011279
:104DD30033D7122E7DFF784174FFF5F01233D7EFEE
:104DE300122EF60545E545700205446404454470FA
:104DF300D8AC46EC3350047F0180027F008F4AAF6A
:104E030049AE48AD47AC46EC334002800BAF49AEE8
:104E130048AD47AC4612321F8F498E488D478C46AA
:104E2300AB3EAA3FA94090000A1233A7000000003E
:104E3300E4F544F545AB3EE540240AF9E4353FFA91
:104E4300C003C002C00112327AC004C005C006C04C
:104E530007E47B0AFAF9F8AF49AE48AD47AC46120E
:104E6300C4D2AC00AD01AE02AF03C004C005C0069E
:104E7300C007E545AE447802C333CE33CED8F92418
:104E8300B7F58274C53EF583123320D007D006D020
:104E930005D0041230F5A804A905AA06AB07D0076C
:104EA300D006D005D0041230DAD001D002D00312DC
:104EB30032CAAF49AE48AD47AC46E47B0AFAF9F8CB
:104EC30012C4D28F498E488D478C460545E54570FF
:104ED300020544640A45446003024E38E54A6015FE
:104EE300AB3EAA3FA94090000A12329A12321F9099
:104EF300000A1232E4754100754200754349E4F536
:104F030044F545783BE475F0011233D7122E7DFF4B
:104F1300784174FFF5F01233D7EF122EF60545E50D
:104F230045700205446404454470D8AC46EC3350E4
:104F3300047F0180027F008F4AAF49AE48AD47AC82
:104F430046EC334002800BAF49AE48AD47AC461246
:104F5300321F8F498E488D478C46AB3EAA3FA940EE
:104F63009000061233A700000000E4F544F545ABBA
:104F73003EE5402406F9E4353FFAC003C002C00110
:104F830012327AC004C005C006C007E47B0AFAF9EE
:104F9300F8AF49AE48AD47AC4612C4D2AC00AD0140
:104FA300AE02AF03C004C005C006C007E545AE446A
:104FB3007802C333CE33CED8F924B7F58274C53E15
:104FC300F583123320D007D006D005D0041230F574
:104FD300A804A905AA06AB07D007D006D005D004BC
:104FE3001230DAD001D002D0031232CAAF49AE4830
:104FF300AD47AC46E47B0AFAF9F812C4D28F498E66
:10500300488D478C460545E54570020544640A45CD
:10501300446003024F72E54A6015AB3EAA3FA940C4
:1050230090000612329A12321F9000061232E47474
:1050330004253DF53DE4353CF53C754100754200E2
:10504300754349E4F544F545783BE475F0011233C3
:10505300D7122E7DFF784174FFF5F01233D7EF128C
:105063002EF60545E545700205446404454470D8B1
:10507300AF49AE48AD47AC46E47BE87A03F9F81292
:10508300C4D28F498E488D478C46AB3EAA3FA94078
:1050930090000EEE8FF01230AD9002EFE04404F07A
:1050A3000254F5AB3BAA3CA93D90002F122E96FE6D
:1050B30090002E122E967C002400FFEC3E9002BE40
:1050C300F0A3EFF0900031122E96900CBBF0740217
:1050D300253DF53DE4353CF53CFAA93D90000B1226
:1050E3002E96540D640D6008E4900CBBF0025275CB
:1050F300E5402403F9E4353F853E41F5428943E425
:10510300F544F545783BE475F0011233D7122E7D53
:10511300FF784174FFF5F01233D7EF122EF60545F1
:10512300E545700205446404454470D87401254381
:10513300F543E43542F542900CBBE0604A74FFFF4F
:10514300FEFDFC90002B123314C31232437038ABB4
:1051530041AA42A94312327AE4FBFAF9F8C31232A4
:10516300436024AB41AA42A94312327A74FFFBFA8B
:10517300F9F8C3123243600FAB41AA42A94312327A
:105183007A90002B123350900CBBE06038AB41AAED
:1051930042A94312327AE4FBFAF9F8C312324360AC
:1051A30024AB41AA42A94312327A74FFFBFAF9F8FD
:1051B300C3123243600FAB41AA42A94312327A9021
:1051C300003F1233507404253DF53DE4353CF53C76
:1051D300E5402404F9E4353FFAE92401F9E43A858A
:1051E3003E41F5428943E4F544F545783BE475F0E7
:1051F300011233D7122E7DFF784174FFF5F012337D
:10520300D7EF122EF60545E54570020544640245C5
:105213004470D874012543F543E43542F542900CBC
:10522300BBE0FF602B900016E0B4FF24A3E0B4FFC3
:105233001FAB41AA42A943122FF3FDACF04C6010FF
:10524300EDF47002ECF46008900016ECF0A3EDF0BE
:10525300EF601FAB41AA42A943122FF3FFAEF04EFA
:105263006010EFF47002EEF46008900019EEF0A302
:0C527300EFF09002EFE04402F00254F56E
:10527F007406253DF53DE4353CF53CAB3BFAA93DC5
:10528F0012327A8F498E488D478C467808123254E5
:10529F00E4FFE4FDFCC004C005C006C007AF49AE83
:1052AF0048AD47AC467818123254E4FEFDFCD003EB
:1052BF00D002D001D000123212C004C005C006C007
:1052CF0007AF49AE48AD47AC467808123267E4FFE6
:1052DF00FEE4FCD003D002D001D000123212C00481
:1052EF00C005C006C007AF49AE48AD47AC467818F9
:1052FF00123267E4FFFEFDECD003D002D001D000E4
:10530F001232128F498E488D478C46E47B64FAF92E
:10531F00F812C4D28F498E488D478C468E4C8F4DD4
:10532F007404253DF53DE4353CF53CAB3BFAA93D16
:10533F0012327A8F498E488D478C46780812325434
:10534F00E4FFE4FDFCC004C005C006C007AF49AED2
:10535F0048AD47AC467818123254E4FEFDFCD0033A
:10536F00D002D001D000123212C004C005C006C056
:10537F0007AF49AE48AD47AC467808123267E4FF35
:10538F00FEE4FCD003D002D001D000123212C004D0
:10539F00C005C006C007AF49AE48AD47AC46781848
:1053AF00123267E4FFFEFDECD003D002D001D00033
:1053BF001232128F498E488D478C46E47B64FAF97E
:1053CF00F812C4D28F498E488D478C468E4A8F4B28
:1053DF007404253DF53DE4353CF53CAB3BFAA93D66
:1053EF0012327A8F498E488D478C46780812325484
:1053FF00E4FFE4FDFCC004C005C006C007AF49AE22
:10540F0048AD47AC467818123254E4FEFDFCD00389
:10541F00D002D001D000123212C004C005C006C0A5
:10542F0007AF49AE48AD47AC467808123267E4FF84
:10543F00FEE4FCD003D002D001D000123212C0041F
:10544F00C005C006C007AF49AE48AD47AC46781897
:10545F00123267E4FFFEFDECD003D002D001D00082
:10546F001232128F498E488D478C46E47B64FAF9CD
:10547F00F812C4D28F498E488D478C46C3E49FF5EE
:10548F004FE49EF54EE54A5407FEE47803CEC3136E
:10549F00CE13D8F9AB3EAA3FA940900010122F08A7
:1054AF00E54C5407FEE47806CEC313CE13D8F9901B
:1054BF000010122EC3E54E5403900010122EC3E5B8
:1054CF004B900011122F08E54D900012122F08E596
:0E54DF004F900013122F089002EFE04401F0EE
:1054ED0080067544007545019002EFE06407600386
:1054FD00025651F0900CBBE0600302562C90000058
:10550D00E075F015A424C3F9740235F0FA7B01A8F7
:10551D0040AC3FAD3E7E007F15122E57AB3EAA3FED
:10552D00A94012327AEF24FAFFE43EFEE43DFDE499
:10553D003CFC1232CA900000E0640175F015A42401
:10554D00C3F582E43402F583123308E4FBFAF9F86B
:10555D00C3123243700302562CAB3EE5402406F9CC
:10556D00E4353FFAC003C002C00112327AC004C054
:10557D0005C006C007900000E0FF640175F015A49A
:10558D0024C9F582E43402F583123314EF75F01556
:10559D00A424C9F582E43402F5831233081230E7EE
:1055AD00A804A905AA06AB07D007D006D005D004DC
:1055BD001230DAD001D002D0031232CAAB3EE54030
:1055CD00240AF9E4353FFAC003C002C00112327A51
:1055DD00C004C005C006C007900000E0FF6401755F
:1055ED00F015A424CDF582E43402F583123314EFC3
:1055FD0075F015A424CDF582E43402F58312330839
:10560D001230E7A804A905AA06AB07D007D006D02B
:10561D0005D0041230DAD001D002D0031232CA9074
:10562D000000E06401F0E075F015A424C3F97402E4
:10563D0035F0A801FC7D01AB3EAA3FA9407E007F5D
:04564D0015122E57AD
:015651002236
:10C63700EF6004C2B18002D2B1E4FF0FBF1EFCD28B
:10C64700B2E4FF0FBF1EFCE4FEB2B1E4FF0FBF1E52
:07C65700FC0EBE85F4C2B227
:01C65E0022B9
:10C6BB00AF84E4F58475C04475CFEC43C040C2C36E
:05C6CB0043E6028F842C
:01C6D0002247
:03003B0002A77A9F
:10A77A00C0E0C083C082C0D075D000C000C001C094
:07A78A0002C003C006C00776
:10A79100C200AFC1EF123482A7DF08A7DF10A80003
:10A7A10018A82E20A80028A82E30A89D38A835402A
:10A7B100A83048A83550A86E58A8A260A8A270A8D1
:10A7C100B080A8FD88A8B090A8FD98A92FA0A901E4
:10A7D100A8A901B8A915C0A92FC80000A89D90007B
:10A7E1004BE0F5C2900056E4F053C2FEA20C334296
:10A7F100C2C2C590004DE4F090004CF002A92F9028
:10A80100004EE0FF90004CE0FEC39F5019900050B5
:10A811001233E78E82758300122E96F5C290004C9A
:10A82100E004F002A92FD2C4C20B02A92FD2C5D2D3
:10A83100C502A92F90004DE0601624FFFFE434FF0C
:10A84100FE9000531233E78F828E83E5C2122F08E8
:10A8510090004DE004F090004FE0FF90004DE0C308
:10A861009F5005D2C202A92FC2C202A92F90004D4A
:10A87100E024FFFFE434FFFE9000531233E78F82A0
:10A881008E83E5C2122F0890004DE004F09000562F
:10A891007401F0D2C4C20BD2C202A92FD20002A904
:10A8A1002F900056E4F090004CF0A3F002A92F90F5
:10A8B100004DE0FF700D90004FE5C2F0900056E4AE
:10A8C100F08017EF24FFFFE434FFFE9000531233B2
:10A8D100E78F828E83E5C2122F0890004DE004F0CD
:10A8E10090004FE0FF90004DE0D39F400B90005649
:10A8F1007401F090004DE4F0D2C28032D2C2802EB9
:10A901009000501233E790004CE0FF04F08F827505
:10A911008300801590004CE024FFFFE434FFFE909B
:10A9210000501233E78F828E83122E96F5C23000CB
:10A931001053C0BF43C040C2C5C2C4C2C2C20BC2D1
:03A9410000C2C38E
:10A94400D007D006D003D002D001D000D0D0D0821E
:05A95400D083D0E032C9
:10C6A200AF84E4F584D2C6200BFDD20BC20C9000FD
:08C6B2004BE0F5C3D2C58F84F3
:01C6BA00225D
:10C68600AF84E4F584D2C6200BFDD20BD20C900009
:0BC696004BE0F5C3D2C5200BFD8F84E4
:01C6A1002276
:10B8440002080001010C00020D000042111E00005C
:04B85400411120007E
:06C213008B608A61896264
:10C21900858463AB60AA61A96290000212301E4551
:10C22900F070F0AB60AA61A96290000D1233F9C0F9
:10C2390003C002C001AB60AA61A962900007123471
:10C2490029AB60AA61A962900002EC8DF01230ADB1
:10C25900122E7D7006F584D2998005758401D299D4
:03C2690085638466
:01C26C0022AF
:10003E00AE84E4F5848F9B30FFFDC2FFAF9B8E84B0
:01004E00228F
:10C26D00AF8475840F759601758C67E4FDFC0DBD6B
:10C27D0000010CE4B505F7ECB401F3E58C30E7FBF8
:10C28D00759701E4F58A758905F58475B720758470
:10C29D000F758D01758F01758E03FCFD0DBD0001B0
:10C2AD000CE4B505F7ECB401F3438902E58930E4FC
:06C2BD00FB7597028F845F
:01C2C3002258
:0E9F9F008B4C8A4D894E8F528E518D508C4FB7
:109FAD00858453122E7D14606F04600302A19FE41B
:109FBD00F58475911590000A122E9624BB60182415
:109FCD00F6601424EA601024F76007146009242158
:109FDD00700875985080037598D0E4F58475C804A1
:109FED0075C908AB52AA51A950A84FFFFE7D657CDB
:109FFD0004123180E47B10FAF9F812318012321F0D
:10A00D008ECB8FCA74FFF5CDF5CCD2CAE4F584C2E0
:10A01D0099C298D2AC02A19F758401AB4CAA4DA9EF
:10A02D004E90000A122E9624BB601824F66014245C
:10A03D00EA601024F76007146009242170087598F0
:10A04D00108003759890E4F58453890F438920ABF4
:10A05D0052AA51A950A84FFFFE7D657C0412318094
:10A06D00E47B02FAF9F8123180E4FB7A01F9F81277
:10A07D003180E47B01FAF9F8D31232434026AB521A
:10A08D00AA51A950A84FE4FFFE7D657C04123180D2
:10A09D00E47B02FAF9F812318012321F8F8D438E54
:10A0AD001002A190AB52AA51A950A84FE4FFFE7D1A
:10A0BD00657C04123180E47B02FAF9F8123180E4F8
:10A0CD00FB7A01F9F8123180E47B04FAF9F8D31226
:10A0DD0032434031AB52AA51A950A84FE4FFFE7D47
:10A0ED00657C04123180E47B02FAF9F8123180E4C8
:10A0FD007B04FAF9F812318012321F8F8D538EECDA
:10A10D00438E01807EAB52AA51A950A84FE4FFFEA9
:10A11D007D657C04123180E47B02FAF9F8123180FE
:10A12D00E4FB7A01F9F8123180E47B0CFAF9F8D3EB
:10A13D00123243AB52AA51A950A84FE4FFFE7D65E0
:10A14D007C04401F123180E47B02FAF9F812318051
:10A15D00E47B0CFAF9F812318012321F8F8D538E79
:10A16D00EC8020123180E47B02FAF9F8123180E4A0
:10A17D007B30FAF9F812318012321F8F8D538EEC2D
:10A18D00438E02858D8BD28E758401C299C2984300
:05A19D00E7408553843A
:01A1A200229A
:10002600AF84E4F584759D04759A70C2FFD2F88F8B
:010036008445
:0100370022A6
:10C60D00AD84758401E4F5C8F5C9EF2408FFE43E57
:10C61D00FEC3E49FFFE49EF5CB8FCA74FFF5CDF505
:09C62D00CC43E70143C8048D84ED
:01C6360022E1
:0300230002A1A394
:10A1A300C0E0C0F0C083C082C0D075D000C000C082
:0DA1B30001C002C003C004C005C006C00703
:10A1C000E59820E00302A33A8599275398FEE50815
:10A1D000600302A307E50924FE606314700302A272
:10A1E0006F14700302A2D42403600302A307750D49
:10A1F00000750E00E5276416600302A30790028C29
:10A20000E0FF7E007C027D1D122F2A900291123306
:10A21000E7E92FF9EA3E8B0FF5108911FA050EE5F3
:10A220000EAE0D7002050D14F5828E83E527122FF8
:10A2300008E527620C75080075090202A307AB0F39
:10A24000AA10A911050EE50EAE0D7002050D14F54C
:10A25000828E83E527122F08E527620CE50E64063F
:10A26000450D600302A307F50875090302A307ABB8
:10A270000FAA10A911050EE50EAE0D7002050D1402
:10A28000F5828E83E527122F08630CFFE50C652706
:10A290007031AB0FAA10A911900003122E96750A07
:10A2A00000F50B750B00F50A900004122E96250B95
:10A2B000F50BE4350AF50A450B604675080075098B
:10A2C000048044750D00750E007508007509017550
:10A2D0000C008033D2B4AB0FAA10A911050EE50E05
:10A2E000AE0D7002050D14F5828E83E527122F083E
:10A2F000E50B2407FFE4350AFEEFB50E0AEEB50DB7
:10A3000006750800750905E50964054508702BC246
:10A31000B4F508750901F50DF50EF50C90028512DE
:10A3200033E7E94A4B7013AB0FAA10A911900285CD
:10A330001233F090028CE06401F0E59830E13E9039
:10A340000283E07002A3E06023D2B490028812334B
:10A35000E7122E7DF599900289E475F001122FC75E
:10A3600090028374FFF5F0122FC7800EC2B47B00F9
:0DA370007A0079009002881233F05398FDB6
:10A37D00D007D006D005D004D003D002D001D00034
:0BA38D00D0D0D082D083D0F0D0E032DE
:0300A300029B3F7E
:109B3F00C0E0C0F0C083C082C0D075D000C000C0EC
:099B4F0001C002C003C006C007FA
:109B5800E59820E003029CEA859928901120E012FC
:109B680034829B89009B9A019BAD029BFD039C2A32
:109B7800049C43059C6A069CAB079CBC0800009C9F
:109B8800E7E52864B56003029CE790112004F00221
:109B98009CE7E528901120B462067402F0029CE765
:109BA800E4F0029CE775180075170090111EE4F0A8
:109BB800A3F090029FE075F0DCA4FF9002A412339A
:109BC800E7E92FF9EA35F08B12F5138914FA9011A9
:109BD8001EE475F001122FDD85F082F583E5281269
:109BE8002F08E5282517F5172518F5189011207462
:109BF80003F0029CE7AB12AA13A91490111EE47596
:109C0800F001122FDD85F082F583E528122F08E593
:109C1800282517F5172518F5189011207404F00257
:109C28009CE7751500852816E5282517F5172518CA
:109C3800F5189011207405F0029CE7E528FEE4254C
:109C480016F516EE3515F515E5282517F517251817
:109C5800F518E5164515901120700280417406F03C
:109C6800807DAB12AA13A91490111EE475F001129D
:109C78002FDD85F082F583E528122F08E5282517C2
:109C8800F5172518F518E5162402FFE43515FE909A
:109C9800111EE06E7003A3E06F70449011207407EA
:109CA800F0803CE517901120B528057408F0802F46
:049CB800E4F0802B29
:109CBC0090029FE0FFB402067E007F008003EF0459
:109CCC00FF8F29E518B5280E9002A0E065296006E3
:0B9CDC0090029FE529F0901120E4F0B9
:109CE7005398FEE59830E170900296E07002A3E089
:109CF700605790029EE024BB601A24E0601624F6A9
:109D070060042420702290029B1233E7122E7D30CC
:109D1700E00E801190029B1233E7122E7D30E00592
:109D270043980480035398FB90029B1233E7122E4B
:109D37007DF59990029CE475F001122FC790029669
:109D470074FFF5F0122FC7800C7B007A0079009022
:089D5700029B1233F05398FD4A
:109D5F00D007D006D003D002D001D000D0D0D0820F
:079D6F00D083D0F0D0E032F8
:0300730002B9CD02
:10B9CD00C0E0C0F0C083C082C0D075D000C000C040
:03B9DD0006C0079A
:10B9E00075840153C87F90026BE475F001122FC774
:10B9F0009002BBE0FEA3E0FF90026BE0B50619A346
:10BA0000E0B507149002BBE475F0A0122FC79000B8
:10BA100057E475F001122FC7E4FFFE74322FF58250
:10BA2000E4340CF583E0600D74322FF582E4340CBD
:10BA3000F583E014F00FBF00010EEF64034E70DBDE
:10BA400075840F20E816C39002C2E094FF9002C1F3
:10BA5000E094FF5007E475F001122FC7758400755C
:06BA6000BB00C2EDD2ECB8
:10BA6600D007D006D000D0D0D082D083D0F0D0E09E
:01BA7600329D
:0CAFEC0030D80302B15920D90302B1593A
:10AFF800E4F53BF53C7B017A007959F5587559031E
:0BB008007F107E0212BC63C2C8C2CAE7
:10B01300900CE612335C00001194E4FFFEFDFC90FB
:10B023000CE6123314D312322D4017900CE6123370
:10B033000874FFFBFAF9F81230DA900CE612335079
:02B0430080D8B3
:0EB0450020DB0302B15320DC0302B153D2CA58
:10B05300900CEA12335C00001194E4FFFEFDFC90B7
:10B063000CEA123314D312322D4017900CEA123328
:10B073000874FFFBFAF9F81230DA900CEA12335035
:02B0830080D873
:10B08500E4F53BF53C30DC10053CE53C7002053B46
:0EB09500B488F2E53BB413ED30DC0302B15396
:10B0A300900201E0C394014006E0D3940640069069
:10B0B30002017402F0900201E0540FC454F0FFE067
:10B0C300540F4FF53E753E55E4F53DE53E1392C8EA
:02B0D300B2CAFF
:10B0D500900CEE12335C000008CAE4FFFEFDFC9004
:10B0E5000CEE123314D312322D4017900CEE12339E
:10B0F5000874FFFBFAF9F81230DA900CEE123350AF
:02B1050080D8F0
:10B10700E53EC313F53E053DE53DB408BAE4F53B1E
:10B11700F53C20DC10053CE53C7002053BB488F2A9
:10B12700E53BB413ED9002ED30DC0A7402F0900CAD
:10B137002504F0800C7401F0E4900C25F0900C27A6
:0BB14700F0D2C8C2CA900C277403F0BD
:07B15200229002ED7401F0F0
:01B1590022D3
:10280A00022BD0E86480F8E933E83360110460F001
:10281A00ED33EC337009E8FCE9FDEAFEEBFF220434
:10282A0060DED3EB9FEA9EE99DE8C2E78CF0C2F72F
:10283A0095F0400CE8CCF8E9CDF9EACEFAEBCFFBFB
:10284A00122B9B85D0F05804700320D5B3E804708E
:10285A00075002B2D5022BDA92D5EC0460F7E4CC29
:10286A00C0E0C398F8603B94186008400DD0E0FBC4
:10287A00022BB2E4FBFAC9FC8028E830E406E4C97A
:10288A00FBE4CAFCE830E305E4C9CACBFCE8540718
:10289A006010F8C3E913F9EA13FAEB13FBEC13FC23
:1028AA00D8F130F52FC3E49CFCEF9BFFEE9AFEEDC6
:1028BA0099FDD0E0FBEF4E4D4C701222DB03022B48
:1028CA00D7EC2CFCEF33FFEE33FEED33FDED30E7B2
:1028DA00EB022BB2EF2BFFEE3AFEED39FDD0E0FB17
:1028EA0050130BBB0003022BDAED13FDEE13FEEFC0
:0828FA0013FFEC13FC022BB2EA
:10290200EC4D6011E8497017ED33EC3304600DE4CF
:10291200FCFFFEFD22E933E8330470F8022BD012EB
:102922002B9B58046009E4CC2481500628500902EC
:102932002BDA284003022BD7C0E0EB4A7044B9805F
:1029420006D0E0FB022BC6EF4E701CBD8008EBFFE9
:10295200EAFEE9FD80EBE98DF0A4FEE5F00229EB49
:10296200E9CDF9EAFEEBFFEF89F0A4FCE5F0CE89B0
:10297200F0A42EFFE435F0CD89F0A42DFEE435F06D
:102982008067EF4E7005BD80D780C3EF8BF0A4AC9B
:10299200F0EE8BF0A42CFCE435F0F8EF8AF0A42CD6
:1029A200E5F038FCE433CB8DF0A42CFCE5F03BF8E9
:1029B200EE8AF0A42CFCE5F038F8E433CF89F0A4D9
:1029C2002CFCE5F038CF3400CE89F0A42FFFE5F0DF
:1029D2003EFEE433C98DF0A42EFEE5F039CD8AF037
:1029E200A42FFFE5F03EFEE43DFD33D0E0FB5007AF
:1029F2000BBB000F022BDAEC2CFCEF33FFEE33FEA5
:062A0200ED33FD022BB2D2
:102A0800022BDAEC5D046005E859047003022BD050
:102A1800122B9B580460F6EC4860F2EC7004FDFE43
:102A2800FF22C860DB2481C85009C39860025006A1
:102A3800022BD79850CAF582E9294B4A7005AB8218
:102A4800022BC675F0007C1A7880C3EF9BEE9AEDD6
:102A580099400DC3EF9BFFEE9AFEED99FDE842F019
:102A6800DC23ACF0D0E0FFD0E0FED0E0FDAB82206C
:102A7800E7101BEB60BAEC2CFCEF33FFEE33FEEDF6
:102A880033FD022BB2E803F830E705C0F075F0001B
:102A9800EF2FFFEE33FEED33FD40B830E7C280AADA
:102AA80074F8CC6480CCC86480C8F582046043C3E1
:102AB800EB9FF5F0EA9E42F0E99D42F0E89C45F074
:102AC80060305018E5825FFFE582F42B5582FB5099
:102AD800210ABA001D09B90019088016E5825BFBB6
:102AE800E582F42F5582FF50090EBE00050DBD008A
:102AF800010CC3EB9FF5F0EA9E42F0E99D42F0E835
:0D2B08009C45F06007CC4820E701B3EC22AB
:102B1500ED33EC33600A047003BD8004ECB2E7FCCE
:012B2500228D
:102B260075F020800E75F010800575F0087D007E2A
:102B3600007F003392D530D50312321FEC3340109C
:102B4600EF33FFEE33FEED33FDEC33FCD5F0ED2233
:0E2B5600E5F0247EA2D513CC92E7CDCEFF226F
:102B6400EDD2E7CD33EC3392D524814006E4FFFE69
:102B7400FDFC22FCE4CFCECDCC24E0501174FF80C8
:102B8400EDC3CC13CCCD13CDCE13CECF13CF047065
:072B9400F030D5DE02321F14
:10705900E56A2456F8E6056A22785330090278561B
:10706900E475F0011233D7022E7D2002EB7F2ED278
:10707900028018EF540F2490D43440D4FF30060B0B
:10708900EF24BFB41A0050032461FFE56B600215B9
:107099006B056EE56E7002056D30090D7853E47568
:1070A900F0011233D7EF022EF602C65F7403D2093C
:1070B9008003E4C209F56A8B538A548955E4F56B58
:1070C900F56DF56EE56B60077F2012709480F5759C
:1070D9006CFFC203C202C204C205C207C208C20AC7
:1070E900127062FF700D3009057F001270A5AF6E36
:1070F900AE6D22B4255FC2D5C206127062FF24D0DC
:10710900B40A00501A75F00A786B30D50508B6FF35
:107119000106C6A426F620D5047002D20580D9241A
:10712900CFB41A00EF5004C2E5D206027392D2031B
:1071390080C6D20280C0D20480BCD2D580BAD20720
:1071490080B47F201270942004077401B56B00404D
:10715900F1127059FF1270940270CDD20AD20880D0
:1071690095127059FB127059FA127059F94A4B70FD
:107179000679897A747BFF20042EE56B602A7E00EC
:107189008E82758300122E9660060EEE656C70F085
:10719900C2D5EBC0E0EAC0E0E9C0E0EE1273F2D07C
:1071A900E0F9D0E0FAD0E0FB122E7DFF60AAEBC037
:1071B900E0EAC0E0E9C0E0127094D0E02401F9D01F
:1071C900E03400FAD0E0FBE56C0460DCD56CD980D2
:1071D90087D20480A21273D560F7E56C700104129E
:1071E9002BE5A96C600DE56C600914F56C12747CD3
:1071F900EF60F3EA30E702F404C3995077EAF42523
:107209006C0430E701E404F56C800D1273D560C19C
:10721900EA056C256C122BE5EA7869F630E701E49A
:10722900256C04D56C04200701141273F2E4C0E044
:1072390012747C7869E6601320E70714F612707CF3
:10724900802204F6D0E014C0E07F0012707CE56C67
:107259006007127073156C800B300703127073D0BE
:10726900E00270CDD0E00480C51273D560A0E56C52
:1072790004122BE57869EAF6E56C2007026001043F
:0572890024041273F261
:10728E0074FF04C0E012747C12707CE56C2007025F
:10729E006003127073D0E0B56CE87F45127086788B
:1072AE0069E67F2B30E7047F2DF404C0E012709462
:1072BE00D0E075F00A84C0F012707DD0E012707DBF
:1072CE000270CD791080027908C208C20A8008D2F5
:1072DE00D5790A8004790AC2D5E56C047002F56C82
:1072EE00E4FAFDFEFF127059FC7B082003131270A6
:1072FE0059FD7B1030020A127059FE127059FF7B35
:10730E0020EC3382D592D55013C3E43002069FFF92
:10731E00E49EFEE42003039DFDE49CFCE4CBF8C256
:10732E0003EC700CCFCECDCCE824F8F870F38017B8
:10733E00C3EF33FFEE33FEED33FDEC33FCEB33FBEB
:10734E00994002FB0FD8E9EB300305F8D0E0C448B2
:10735E00B203C0E00AEC4D4E4F78207B0070C2EABB
:10736E00B56C0040BCC0E01273F4D0F0D0E0200346
:10737E0004C4C0E0C4B203C0F012707DD0F0D5F0EA
:10738E00EB0270CD123482716A5372D158713B4C3C
:10739E0071374272D54F72DD4472DD4971504372BE
:1073AE00E35572144672724571DE4774A950713FEF
:1073BE002D71432E71662B71472371642074922AAE
:1073CE0070FF480000715EE56CB4FF03756C061229
:1073DE007059FC127059FD127059FE127059FF78D7
:1073EE0062022C14790AA2D5200514300709B910AF
:1073FE00020404B9080104A2D52008025001042099
:10740E0004689204B56B005034C0E07F203005193B
:10741E007F30A20472087207500F12744BC204C25E
:10742E0008C207C20A7F30800F300703E9C0E0129E
:10743E007094300703D0E0F9D0E0B56BCC3007176D
:10744E007F30B9100C1270947F583006077F788009
:10745E0003B908031270943004057F2D0270947FD7
:10746E0020200AF87F2B2008F322920480CF7F0081
:10747E00B4070050052462F8E6FF22286E756C6C86
:10748E002900D2031270593003F8C203786B30D53D
:10749E000108F60270FF2D5043495812705924030B
:1074AE00B405004001E49074A493127085743A12EE
:0A74BE007085D205756B040272D1CF
:10BA7700022BD022EDA2E7D2E7F9EC3340F260F3D4
:10BA8700B4FF08ED547F70E8022BDAF82481C2E096
:10BA9700C0E0F40428FAC313FCED92E7FD8C3B8D5C
:10BAA7003C8E3D8F3EEEA2E7E9BA7F02C313340016
:10BAB7009400FA75F091A4E5F013F494FE8AF0A4CB
:10BAC70033E5F033248CD313FDE492E7FE7F007C4B
:10BAD7003F758302ECC0E0F8EDC0E0F9EEC0E0FA94
:10BAE700EFC0E0FBAC3BAD3CAE3DAF3E122A0BD006
:10BAF700E0FBD0E0FAD0E0F9D0E0F8122811ED64CD
:10BB070080FD30E7011CD583CBED33CC33F8D0E093
:0ABB1700A2E71328C313CC13FD228C
:102B9B00E9D2E7C933E833F892D5EDD2E7CD33EC80
:072BAB0033FC5002B2D522F9
:102BB200EC30E7100FBF000C0EBE00080DBD000484
:102BC2000BEB6014A2D5EB13FCED92E7FD2274FF30
:102BD200FCFDFEFF22E480F8A2D574FF13FC7D8089
:032BE200E480EF9D
:102BE500F920E72824F950037907E4F42402FB18B7
:102BF500DBFDE624FB5014E9600DE4F618E604F667
:0F2C0500B40A08E4F6D9F57401F60A22C2D52202
:102C1400ED33EC3392D5FA602AB4FF33EDC2E77B8F
:102C2400FF60067A2C7939E4227A2C794220D50483
:102C34007A2C793D224E614E002B494E46002D4997
:102C44004E4600E47A08F608DAFC7B00740722E8B2
:102C5400C0E0ECC0E0EDC0E0EEC0E0EFC0E0EA753B
:102C6400F010A4CAABF075F04DA42BFBE435F0FCD6
:102C7400EA2410FAEB34C5FBEC34D9FCEDC2E7FFCF
:102C840075F056A4F42411C5F0F434C58FF0A42AC9
:102C9400E5F03BE43CF620E714122D47D0E0FFD0EA
:102CA400E0FED0E0FDD0E0FC122A0B8014F4041204
:102CB4002D47D0E0FFD0E0FED0E0FDD0E0FC1229AB
:102CC40002D0E0F8E6FAEDD2E7CD33EC332482FB10
:102CD400E4C3CF33CFCE33CECD33CD33DBF37B0759
:102CE40075F00A846004F6081B0AE5F0F6088FF014
:102CF400740AA4FFACF08EF0740AA42CFEACF0505D
:102D0400010C8DF0740AA42CFDE435F0F608DBDE2A
:032D14007407221F
:102D17003F8000004120000042C80000447A0000C4
:102D2700461C400047C35000497424004B18968046
:102D37004CBEBC205A0E1BCA6753C21C749DC5AE3D
:102D4700FB60065407601C2323122D75EB54386073
:102D570009122D61122D70122902ECF8EDF9EEFA25
:102D6700EFCB22EB122D7080F1543803241C902DE9
:102D770017FE93FC0EEE93FD0EEE930ECE93FF22FD
:0300000002BCFC43
:0CBCFC00787FE4F6D8FD75817F02BD431F
:102D8700E709F608DFFA8046E709F208DFFA803E2E
:102D970088828C83E709F0A3DFFA8032E309F6081B
:102DA700DFFA8078E309F208DFFA807088828C8383
:102DB700E309F0A3DFFA806489828A83E0A3F60837
:102DC700DFFA805889828A83E0A3F208DFFA804C11
:102DD70080D280FA80C680D4806980F280338010E8
:102DE70080A680EA809A80A880DA80E280CA803351
:102DF70089828A83ECFAE493A3C8C582C8CCC583C9
:102E0700CCF0A3C8C582C8CCC583CCDFE9DEE78098
:102E17000D89828A83E493A3F608DFF9ECFAA9F017
:102E2700EDFB2289828A83ECFAE0A3C8C582C8CC6D
:102E3700C583CCF0A3C8C582C8CCC583CCDFEADE86
:102E4700E880DB89828A83E493A3F208DFF980CCE8
:102E570088F0EF60010E4E60C388F0ED2402B404E1
:102E67000050B9F582EB2402B4040050AF23234588
:062E77008223902DD773A9
:102E7D00BB010689828A83E0225002E722BBFE0253
:092E8D00E32289828A83E4932286
:102E9600BB010CE58229F582E5833AF583E02250F1
:102EA60006E92582F8E622BBFE06E92582F8E2223B
:0D2EB600E58229F582E5833AF583E4932255
:102EC300BB010FF8E58229F582E5833AF583E02813
:102ED300F0225009C58229F8E58226F622BBFE09B5
:102EE300C58229F8E22582F222F8EA2583F583E9EF
:032EF300932822FF
:102EF600BB010689828A83F0225002F722BBFE01BB
:022F0600F322B4
:102F0800F8BB010DE58229F582E5833AF583E8F0FF
:102F1800225006E92582C8F622BBFE05E92582C8AB
:022F2800F22293
:102F2A00EF8DF0A4A8F0CF8CF0A428CE8DF0A42EBB
:022F3A00FE2275
:102F3C00BC000BBE0029EF8DF084FFADF022E4CC79
:102F4C00F875F008EF2FFFEE33FEEC33FCEE9DEC42
:102F5C00984005FCEE9DFE0FD5F0E9E4CEFD22ED88
:102F6C00F8F5F0EE8420D21CFEADF075F008EF2FD2
:102F7C00FFED33FD4007985006D5F0F222C398FDC3
:052F8C000FD5F0EA2260
:102F9100C2D5EC30E709B2D5E4C39DFDE49CFCEE5B
:102FA10030E715B2D5E4C39FFFE49EFE122F3CC368
:102FB100E49DFDE49CFC8003122F3C30D507C3E463
:062FC1009FFFE49EFE22CA
:102FC700C5F0F8A3E028F0C5F0F8E5821582700295
:062FD7001583E038F02232
:102FDD00A3F8E0C5F025F0F0E582158270021583A7
:062FED00E0C838F0E82204
:102FF300BB010A89828A83E0F5F0A3E022500687A9
:10300300F009E71922BBFE07E3F5F009E31922896A
:0B301300828A83E493F5F0740193229D
:10301E00BB0110E58229F582E5833AF583E0F5F0F0
:10302E00A3E0225009E92582F886F008E622BBFECD
:10303E000AE92582F8E2F5F008E222E5832AF58313
:08304E00E993F5F0A3E99322D8
:10305600BB010789828A83022FC7500B09C5F02757
:10306600F7C5F01937F722BBFE0D09F8E325F0F393
:10307600C5F019E338F322F889828A83740193250F
:08308600F0C5F0F8E4933822D4
:10308E00BB010A89828A83F0E5F0A3F0225006F78D
:0F309E0009A7F01922BBFE06F3E5F009F319228A
:1030AD00F8BB0111E58229F582E5833AF583E8F055
:1030BD00E5F0A3F0225009E92582C8F608A6F02212
:0D30CD00BBFE09E92582C8F2E5F008F222F9
:0D30DA00EF2BFFEE3AFEED39FDEC38FC2245
:0E30E700C3EF9BFFEE9AFEED99FDEC98FC22E4
:1030F500E88FF0A4CC8BF0A42CFCE98EF0A42CFC7A
:103105008AF0EDA42CFCEA8EF0A4CDA8F08BF0A4F7
:103115002DCC3825F0FDE98FF0A42CCD35F0FCEB56
:103125008EF0A4FEA9F0EB8FF0A4CFC5F02ECD391B
:0F313500FEE43CFCEAA42DCE35F0FDE43CFC2288
:1031440075F008758200EF2FFFEE33FECD33CDCC42
:1031540033CCC58233C5829BED9AEC99E5829840C5
:103164000CF582EE9BFEED9AFDEC99FC0FD5F0D6A2
:10317400E4CEFBE4CDFAE4CCF9A88222B800C1B9CC
:103184000059BA002DEC8BF084CFCECDFCE5F0CB0A
:10319400F97818EF2FFFEE33FEED33FDEC33FCEB43
:1031A40033FB10D703994004EB99FB0FD8E5E4F9FE
:1031B400FA227818EF2FFFEE33FEED33FDEC33FCEB
:1031C400C933C910D7059BE99A4007EC9BFCE99ADF
:1031D400F90FD8E0E4C9FAE4CCFB2275F010EF2F24
:1031E400FFEE33FEED33FDCC33CCC833C810D70724
:1031F4009BEC9AE899400AED9BFDEC9AFCE899F85F
:0E3204000FD5F0DAE4CDFBE4CCFAE4C8F922F1
:10C4D200C2D5E830E70FB2D5E4C39BFBE49AFAE495
:10C4E20099F9E498F8EC30E717B2D512C508123181
:10C4F20080E4C39BFBE49AFAE499F9E498F8800398
:10C5020012318030D50DE4C39FFFE49EFEE49DFD11
:04C51200E49CFC2287
:0D321200EF4BFFEE4AFEED49FDEC48FC22BB
:0E321F00C3E49FFFE49EFEE49DFDE49CFC22C0
:10322D00EB9FF5F0EA9E42F0E99D42F0EC6480C818
:06323D0064809845F022B8
:10324300EB9FF5F0EA9E42F0E99D42F0E89C45F0E1
:013253002258
:10325400E8600FECC313FCED13FDEE13FEEF13FF58
:03326400D8F1227C
:10326700E8600FEFC333FFEE33FEED33FDEC33FCC5
:03327700D8F12269
:10327A00BB010789828A830233085005E9F80235BF
:10328A00C4BBFE05E9F80235D089828A830235DC9F
:10329A00BB010DE58229F582E5833AF583023308FD
:1032AA005007E92582F80235C4BBFE07E92582F8F2
:1032BA000235D0E58229F582E5833AF5830235DCC9
:1032CA00BB010789828A830233505005E9F8023527
:0A32DA00ECBBFE05E9F80235F8220E
:1032E400BB010DE58229F582E5833AF5830233506B
:1032F4005007E92582F80235ECBBFE07E92582F880
:043304000235F82274
:0C330800E0FCA3E0FDA3E0FEA3E0FF2238
:0C331400E0F8A3E0F9A3E0FAA3E0FB223C
:10332000E493F8740193F9740293FA740393FB2203
:103330007401FF3395E0FEFDFC080808E62FFFF658
:1033400018E63EFEF618E63DFDF618E63CFCF622D1
:0C335000ECF0A3EDF0A3EEF0A3EFF022F0
:10335C00A8828583F0D083D0821233731233731218
:10336C003373123373E473E493A3C583C5F0C5833D
:10337C00C8C582C8F0A3C583C5F0C583C8C582C8BB
:01338C00221E
:10338D00BB010789828A8302335C5005E9F8023656
:0A339D0004BBFE05E9F802361D220C
:1033A700BB010DE58229F582E5833AF58302335C9B
:1033B7005007E92582F8023604BBFE07E92582F8A3
:0433C70002361D228B
:0C33CB00A42582F582E5F03583F583220D
:1033D700FAE6FB0808E6F925F0F618E6CA3AF622F7
:0933E700E0FBA3E0FAA3E0F922E7
:0933F000EBF0A3EAF0A3E9F022DE
:1033F900BB010DE58229F582E5833AF5830233E7BE
:103409005007E92582F8023636BBFE07E92582F81E
:10341900023648E58229F582E5833AF58302365A70
:10342900BB0120E58229F582E5833AF583D0F0D006
:10343900E0F8D0E0F9D0E0FAD0E0FBE8C0E0C0F075
:103449000233F05018E92582F8D083D082D0E0F910
:10345900D0E0FAD0E0FBC082C08302363FBBFE1841
:10346900E92582F8D083D082D0E0F9D0E0FAD0E023
:09347900FBC082C083023651221F
:10348200D083D082F8E4937012740193700DA3A3D9
:1034920093F8740193F5828883E4737402936860ED
:0634A200EFA3A3A380DFED
:1034A800D083D082F8E4937012740193700DA3A3B3
:1034B80093F8740193F5828883E473740293B5F0EA
:0D34C800067403936860E9A3A3A3A380D852
:0634D5008A838982E47382
:10C65F00EFB40A07740D12C66A740A309811A899BC
:10C66F00B8130CC2983098FDA899C298B811F6303B
:07C67F0099FDC299F5992213
:0F005E00EFC394204007EF947F50028001C3222C
:1034DB00E709F60870FA8046E709F20870FA803EB1
:1034EB0088828C83E709F0A370FA807EE309F608E3
:1034FB0070FA8076E309F20870FA806E88828C830A
:10350B00E309F0A370FA806289828A83E0A3F6084C
:10351B0070FA805689828A83E0A3F20870FA804A97
:10352B0080D280FA80C680D4806580F28031801092
:10353B0080A680EA809A80A880DA80E280CA8031F7
:10354B0089828A83ECFAE493A3C8C582C8CCC5836D
:10355B00CCF0A3C8C582C8CCC583CC70E9800D89DB
:10356B00828A83E493A3F60870F9ECFAA9F0EDFBD9
:10357B002289828A83ECFAE0A3C8C582C8CCC583B2
:10358B00CCF0A3C8C582C8CCC583CC70EA80DD89DA
:10359B00828A83E493A3F20870F980CE88F0ED243D
:1035AB0002B4040050C4F582EB2402B4040050BAF8
:0935BB00232345822390352B7374
:10000E00E4FFFE122E7D600C0FEF70010E09E970F9
:05001E00F20A80EF2250
:10BD08000217E6E493A3F8E493A34003F68001F254
:10BD180008DFF48029E493A3F85407240CC8C3333C
:10BD2800C4540F4420C8834004F456800146F6DF0B
:10BD3800E4800B010204081020408090B778E47E6C
:10BD4800019360BCA3FF543F30E509541FFEE49300
:10BD5800A360010ECF54C025E060A840B8E493A3C7
:10BD6800FAE493A3F8E493A3C8C582C8CAC583CAF2
:10BD7800F0A3C8C582C8CAC583CADFE9DEE780BEAA
:01B8580000EF
:0C35C400E6FC08E6FD08E6FE08E6FF2233
:0C35D000E2FC08E2FD08E2FE08E2FF2237
:1035DC00E493FC740193FD740293FE740393FF2235
:0C35EC00ECF608EDF608EEF608EFF6220B
:0C35F800ECF208EDF208EEF208EFF2220F
:10360400D083D082E493F608740193F6087402938D
:09361400F608740393F6740473C4
:10361D00D083D082E493F208740193F2087402937C
:09362D00F208740393F2740473B3
:09363600E6FB08E6FA08E6F922B9
:09363F00EBF608EAF608E9F622B0
:09364800E2FB08E2FA08E2F922B3
:09365100EBF208EAF208E9F222AA
:0C365A00E493FB740193FA740293F922CC
:00000001FF
