:10885200436F707972696768742028432920323027
:1088620030342D3920547261636B205379737465EF
:108872006D7320546563686E6F6C6F676965732CE6
:10888200204C4C43000200FF000000C0C1C1810126
:1088920040C30103C00280C241C60106C00780C7AF
:1088A200410500C5C1C4810440CC010CC00D80CD7E
:1088B200410F00CFC1CE810E400A00CAC1CB810B4D
:1088C20040C90109C00880C841D80118C01980D91F
:1088D200411B00DBC1DA811A401E00DEC1DF811FAD
:1088E20040DD011DC01C80DC411400D4C1D58115BE
:1088F20040D70117C01680D641D20112C01380D3CF
:10890200411100D1C1D0811040F00130C03180F15D
:10891200413300F3C1F28132403600F6C1F78137AC
:1089220040F50135C03480F4413C00FCC1FD813D7D
:1089320040FF013FC03E80FE41FA013AC03B80FB4E
:10894200413900F9C1F88138402800E8C1E981299C
:1089520040EB012BC02A80EA41EE012EC02F80EFAE
:10896200412D00EDC1EC812C40E40124C02580E5BD
:10897200412700E7C1E68126402200E2C1E38123CC
:1089820040E10121C02080E041A00160C06180A1DE
:10899200416300A3C1A28162406600A6C1A78167AC
:1089A20040A50165C06480A4416C00ACC1AD816D7D
:1089B20040AF016FC06E80AE41AA016AC06B80AB4E
:1089C200416900A9C1A88168407800B8C1B981791C
:1089D20040BB017BC07A80BA41BE017EC07F80BFAE
:1089E200417D00BDC1BC817C40B40174C07580B5BD
:1089F200417700B7C1B68176407200B2C1B38173CC
:108A020040B10171C07080B041500090C19181515C
:108A120040930153C052809241960156C0578097AD
:108A220041550095C1948154409C015CC05D809D7C
:108A3200415F009FC19E815E405A009AC19B815B4B
:108A420040990159C058809841880148C04980899D
:108A5200414B008BC18A814A404E008EC18F814FAB
:108A6200408D014DC04C808C41440084C1858145BC
:108A720040870147C046808641820142C0438083CD
:098A820041410081C180814040A6
:109CB9005000150000000000000000000000000036
:109CC900000000430C23000000410C2200410CA6B7
:109CD9000A41000500026F0000026B0000500025D8
:109CE900000000000000000000000000000000006B
:109CF9000173004102A600410CAD004200020000C0
:109D0900410CA900420269000042004800004202D9
:109D1900B900A0410CA800410CAC004202BC0000F3
:109D290041000100410004004102EC00410BDC004C
:109D3900410CA70002740000026D00004202BF003E
:109D4900004102BB004102ED0041000000410CAEA0
:0D9D590000410014004102EB004102EE0445
:1030EF00E4F52DF52CF52BF52A75840F75FFDE759C
:1030FF00FFAD12A54E12A2E2C2B6C2B5C2B4120003
:10310F003E7534017535097536467B017A0C792089
:10311F00129BD7129ABF900CA67414F0E49002BBC6
:10312F00F0900000F0900000E0FFC3942A5018EFD9
:10313F0075F015A424C1F582E43402F583E4F09010
:10314F000000E004F080DEE4900000F012A4307F75
:10315F00007E9612A8BC12A96E12A724E4900280DA
:10316F00F09002937402F090029C744EF07B017AFF
:10317F000279EF90028F122F627A0979489002A29A
:10318F00122F627A07792990028C122F627A0B79AB
:10319F00DD90029F122F62E490027FF09002920462
:1031AF00F0900289744EF0E4900294F0A3F0900234
:1031BF0081F0A3F090029EF090028BF090029DF0B0
:1031CF0090028AF01BFAF9900299122F62900296E0
:1031DF00122F62900286122F62900283122F620BBF
:1031EF007A02797F7F007E847D037C00128CC27B04
:1031FF00017A02796F900044122F627A0279A790B8
:10320F000041122F62E490003EF0A3F0900047F0CF
:10321F00900014E0600312A935900014E07B017A4E
:10322F0002799260067F807E2580047F007EE17D9B
:10323F00007C00128CC2D2FFD2AF900014E0603538
:10324F00900CB1122ECE000057E4E4FFFEFDFC906F
:10325F000CB1122EA6D3122DBF4017900CB1122E07
:10326F009A74FFFBFAF9F8122C6C900CB1122EC263
:02327F0080D8F5
:10328100127CD61200A6900CAE7401F0E490025CA0
:10329100F0A3F0A3F0900268F0900262F0A3F09026
:1032A1000260F0A3F0A2DA3390025FF090026AE0CC
:1032B1002458FE900269E03400900266F0A3CEF03B
:1032C100900048E0FCA3E0FD2406FEE43C9002648B
:1032D100F0A3CEF0ED2405FEE43C900CC4F0A3CEA7
:1032E100F0E5D854037002806C7B017A00794A754D
:1032F1004E00754F037F107E0212A03A9001F0E05C
:10330100540F900006F09001F0E054F0C4540F9077
:103311000007F0900006E06403702AE5D85403FF2B
:10332100BF020890025C7404F0802E900007E090C8
:10333100025CB403097403F0A37401F0801B7401EF
:10334100F0A3F08014900007E0B4030890025C74CD
:1033510002F08005E490025CF0E4FFFED39009479F
:10336100E09F900946E09E4013744A2FF582740055
:103371003EF583E4F00FBF00010E80E09002A6E06D
:103381006028C390001AE094B8900019E0940B50A3
:1033910019C2B3C2B6C2B5C2B4E4F54CF54D7B93C4
:1033A1007D037F021290D512996790025CE064045C
:0533B100600302357508
:1033B600F52EF52F900048E0FEA3E0FF900CC4E048
:1033C600B50612A3E0B5070D752E01900CC4E47581
:1033D600F001122B9130DB1490025EE0640470035E
:1033E6000234A57404F0752E010234A590025EE045
:1033F600B404277402F090026AE02403FE90026986
:10340600E03400900266F0A3CEF0A2DAE433900234
:103416005FF0E4900268F0752E01900266E0FEA36C
:10342600E0FF900269E0FCA3E0FD6F7002EC6E70B5
:103436006EA2DA33FF90025FE0FE6F703090026892
:10344600E0C394025005E004F08047EE601090025D
:103456005EE06402603C7402F0752E0180349002D6
:103466005EE06401602C7401F0F52E802590025E0A
:10347600E0640360067403F0752E0190025FE0704D
:10348600047F0180027F0090025FEFF09002687473
:1034960001F0ED2458FEE43C900266F0A3CEF090D5
:1034A6000C22E0FFC394054006EFD3941F403FE58E
:1034B6002E603B90025EE0FF90888AE493FD339590
:1034C600E0FC90028C75F013ED122F3DEC75F013B5
:1034D600A42583F583122F59900007EF122AD2757F
:1034E6004C00754D017B297D037F021290D5900219
:1034F6005DE06004A3E0701E90025E7401F090022D
:103506005DF0900049E02405FE900048E03400900C
:103516000264F0A3CEF0900264E0FEA3E0FF900008
:1035260048E0B50619A3E0B50714900264E475F007
:103536000A122B9190025EE0B40103752F01900CE4
:1035460022E0FFC394054009EFD3941F5003E4F52E
:103556002FE52F601A90025D7405F090026AE02450
:0F35660003FE900269E03400900262F0A3CEF001
:10357500900262E0FEA3E0FF900269E0FCA3E0FD9B
:103585006F7002EC6E600302360F90025DE024FD61
:10359500605324FE601A1460522404706D90025D1D
:1035A5007403F0ED2428FEE43C900262F0A3CEF013
:1035B50090025DE0B405177406F090026AE02428D5
:1035C500FE900269E03400900262F0A3CEF0900212
:1035D5005CE024FD600B1460042403702DD2CC80C4
:1035E50029D2CC802590025D7404F090025DE0B490
:1035F50006037401F090025CE024FD600B14600486
:1036050024037006C2CC8002C2CC900283122F59CB
:05361500E94A4B602BA7
:10361A00900283122F598B2E8A2F89307B007A00D1
:10362A007900900283122F62AB2EAA2FA930E4FFF1
:0B363A00123DA3900CC2EEF0A3EFF0D5
:10364500900CA8E07003023832E4F09002ECE0F44C
:10365500600302371C90025CE064046003023710CB
:0936650090025EE0B40436D2CC00
:10366E00900CB5122ECE0001B774E4FFFEFDFC9057
:10367E000CB5122EA6D3122DBF4017900CB5122EDC
:10368E009A74FFFBFAF9F8122C6C900CB5122EC23C
:02369E0080D8D2
:0A36A000C2CC90025EE06401606697
:1036AA00900CB9122ECE000DBBA0E4FFFEFDFC90DB
:1036BA000CB9122EA6D3122DBF4017900CB9122E98
:1036CA009A74FFFBFAF9F8122C6C900CB9122EC2FC
:0236DA0080D896
:0236DC00D2CC4E
:1036DE00900CBD122ECE00112A88E4FFFEFDFC9048
:1036EE000CBD122EA6D3122DBF4017900CBD122E5C
:1036FE009A74FFFBFAF9F8122C6C900CBD122EC2C4
:02370E0080D861
:10371000C2B3C2B6C2B5C2B4C2FF80FE9002ECE032
:10372000FF64F07023900C22EFF0E4F574F57590CF
:10373000000574FFF0D2B3D2B6D2B5D2B4C2A8534A
:10374000E7FD53E7BF02382DEFB4F10F900C22F0E4
:10375000C2B3C2B6C2B5C2B402382DEF64F2702B48
:10376000900C22EFF0D2B3D2B6D2B5D2B4900C21E5
:10377000E024FFFD900C20E034FFFCE4FBFFFE1290
:10378000A3C3E4F58443EF010238329002ECE0FF7A
:10379000C394054008EFD3941F5002D2B69002ECB8
:1037A000E0FFC39405400CEFD3942350067E007FC6
:1037B0000180047E007F00900C22E0FDC394054050
:1037C0000CEDD3942350067C007D0180047C007DA9
:1037D00000ED6F7002EC6E604C9002ECE0FFC39461
:1037E00005403FEFD394235039126D8B12A4301251
:1037F00000A6E4900CADF0900CA6E0FF74A08FF052
:103800008475F00AA4FF90026AE02401FD90026929
:10381000E03400CD2FFEED35F0900002F0A3CEF0A5
:1038200080031299679002ECE0900C22F0E4900281
:10383000ECF0900C22E0FFC39405500302337DEFBF
:10384000D39423400302337D900283122F59E94A17
:103850004B600302337D900C25E0600302337D90C2
:103860000286122F59E94A4B600302337D9002A66B
:10387000E07003023B5290001AE094B8900019E007
:10388000940B4007E49002A6F080069002A6740113
:10389000F0C3E570940AE56F648094804006756F0C
:1038A00000757009900014E06007E49002A5F080B4
:1038B0003590001BE0FEA3E0FFEF24FBFFEE34EBAE
:1038C000FEE434FFFDE434FFFCE47BE87A03F9F81E
:1038D000122C87E47BE57A24F9F812A7B39002A5AD
:1038E000EFF0E024CEF0900017E0540FFD900015AB
:1038F000E0540FC4F854F0C8E4C4540F482DFF90AE
:10390000888AE493FD3395E0FC90028C75F013ED0A
:10391000122F3DEC75F013A42583F583122F5990D7
:103920000007EF122AD290006075F033E570122F75
:103930003DE56F75F033A42583F58375F003E56CE1
:10394000122F3DE56B75F003A42583F583E0FF900E
:103950000015A3E0FEEF2EFF90888AE4933395E0F4
:10396000FC90028C75F013ED122F3DEC75F013A452
:103970002583F583122F59900008EF122AD2900068
:103980006175F033E570122F3DE56F75F033A425B6
:1039900083F58375F003E56C122F3DE56B75F0033D
:1039A000A42583F583E0FF900017A3E0FEEF2EFF30
:1039B00090888AE4933395E0FC90028C75F013EDC7
:1039C000122F3DEC75F013A42583F583122F599027
:1039D0000009EF122AD2E5D8F4FF90028C75F0139B
:1039E000ED122F3DEC75F013A42583F583122F59AA
:1039F00090000AEF122AD290026EE0FF900023E0BE
:103A0000FEA3E0A807088005CEC313CE13D8F9FFA4
:103A100090888AE493FD3395E0FC90028C75F01356
:103A2000ED122F3DEC75F013A42583F583122F5969
:103A300090000BEF122AD290026DE0FF900021E07F
:103A4000FEA3E0A807088005CEC313CE13D8F9FF64
:103A500090888AE493FD3395E0FC90028C75F01316
:103A6000ED122F3DEC75F013A42583F583122F5929
:103A700090000CEF122AD290026CE0FF90001FE041
:103A8000FEA3E0A807088005CEC313CE13D8F9FF24
:103A900090888AE493FD3395E0FC90028C75F013D6
:103AA000ED122F3DEC75F013A42583F583122F59E9
:103AB00090000DEF122AD290026BE0FF90001DE003
:103AC000FEA3E0A807088005CEC313CE13D8F9FFE4
:103AD00090888AE493FD3395E0FC90028C75F01396
:103AE000ED122F3DEC75F013A42583F583122F59A9
:103AF00090000EEF122AD290025AE0A3FF90028C9F
:103B000075F013ED122F3DEC75F013A42583F583AA
:103B1000122F5990000FEF122AD290025AA3E0FF01
:103B200090028C75F013ED122F3DEC75F013A42567
:103B300083F583122F59900010EF122AD2754C0092
:103B4000754D0A7B927D037F021290D51286140276
:0E3B5000337D90029EE0FF90029DE06F606D5D
:103B5E00EF75F0DCA4FF9002A2122F59E92FF9EABB
:103B6E0035F08B2EF52F893090029EE0FFB40204C3
:103B7E007F008003EF04FF90029EEFF09002A5E01D
:103B8E00FF90005E75F033E570122F3DE56F75F016
:103B9E0033A42583F583EFF0AE6FAF707C007D33D9
:103BAE00122AF4744A2FF974003E753401F53589E2
:0A3BBE0036AB2EAA2FA9301246CA1A
:103BC80002337D900CADE0FD7017900002E0FEA37B
:103BD800E0FF900269E06E7003A3E06F60030233B8
:103BE8007D900CA6E0FF74A08FF08475F00AA4FF06
:103BF80090026AE02401FB900269E03400CB2FFEBA
:103C0800EB35F0900002F0A3CEF0ED700E900CAC06
:103C1800F090000274FFF5F0122B919002EEE0FF95
:103C28007003023CC5900C22E0FEC39405500302C9
:103C38003CC5EED3941F4003023CC5900CADE07028
:103C480003023D8890025CE0FE605C900C22E0FD7F
:0B3C5800C394054052EDD3941F504C64
:103C6300EEB4040790025EE0B4040890025CE064E2
:103C7300046039900CA6E0900CC1B428057406F0DA
:103C830080037404F0900CC1E0B5072090025D74CA
:103C930002F0900260E0FEA3E0FF90026AE02FFFD3
:0C3CA300900269E03E900262F0A3EFF096
:103CAF009002EEE014F06003023D88F56BF56CF5C1
:103CBF006FF570023D88900C22E0FFC3940550030E
:0C3CCF00023D88EFD394234003023D889F
:103CDB00900CACE0FF90888AE493FD3395E0FC9068
:103CEB00028C75F013ED122F3DEC75F013A42583A8
:103CFB00F583122F59900007EF122AD29002BCE0E5
:103D0B00A3FF90028C75F013ED122F3DEC75F013A1
:103D1B00A42583F583122F59900008EF122AD29015
:103D2B0002BCA3E0FF90028C75F013ED122F3DEC5B
:103D3B0075F013A42583F583122F59900009EF1208
:103D4B002AD2754C00754D037B277D037F021290A1
:103D5B00D5E4F52EF52FD3900947E0952F90094622
:103D6B00E0952E4018744A252FF5827400352EF5F8
:0D3D7B0083E4F0052FE52F70DD052E80D9C3
:103D8800E4900CADF09002EDF0900CACE06007B25E
:0B3D9800B5E4F002337DC2B502337DBC
:0C996700C2B6C2B590025DE064037070EF
:10997300900CC6122ECE00015F90E4FFFEFDFC901A
:109983000CC6122EA6D3122DBF4017900CC6122E52
:109993009A74FFFBFAF9F8122C6C900CC6122EC2C3
:0299A30080D86A
:0399A500E4F5C81E
:1099A800900CCA122ECE00020F58E4FFFEFDFC9068
:1099B8000CCA122EA6D3122DBF4017900CCA122E15
:1099C8009A74FFFBFAF9F8122C6C900CCA122EC28A
:0299D80080D835
:1099DA0090025D7401F0A304F090025CE0FFB4040D
:1099EA000890025EE064046013EF64047003029A54
:0C99FA00B590025DE064046003029AB5C1
:109A0600900CCE122ECE00015F90E4FFFEFDFC907E
:109A16000CCE122EA6D3122DBF4017900CCE122EAE
:109A26009A74FFFBFAF9F8122C6C900CCE122EC227
:029A360080D8D6
:109A380090025CE024FD603F1460042403706ED241
:019A4800CC51
:109A4900900CD2122ECE0001B774E4FFFEFDFC90FB
:109A59000CD2122EA6D3122DBF4017900CD2122E63
:109A69009A74FFFBFAF9F8122C6C900CD2122EC2E0
:029A790080D893
:069A7B00C2CC8036D2CC03
:109A8100900CD6122ECE0001B774E4FFFEFDFC90BF
:109A91000CD6122EA6D3122DBF4017900CD6122E23
:109AA1009A74FFFBFAF9F8122C6C900CD6122EC2A4
:029AB10080D85B
:0C9AB300C2CC90025D7401F0E4F5C82202
:106D8B00900269E0F533A3E0F534E4F56FF570F5A7
:106D9B006BF56C900CACF0A3F0900946E0FEA3E011
:106DAB00FF7B017A00794A754E00754F0112A03AAC
:106DBB00900BDCE024FC601424027027900CA6746A
:106DCB0014F0900260E4F0A374F08026900CA6748B
:106DDB0028F0900260E4F0A374A4F09002EE740625
:106DEB00F08016900CA6740AF09002607402F0A367
:106DFB007434F09002EE7404F0900CA7E09002BB98
:106E0B00F09002B7E0FCA3E0FD4C700890000AF094
:106E1B00A3F080679002BEE0701E1226F5A804A9AD
:106E2B0005AA06AB07E4FFFE7D7A7C481225D51236
:106E3B00272E7C007DF080389002BEE0B40F0374E7
:106E4B0010F09002B7E0FCA3E0FDE41226F5A804D5
:106E5B00A905AA06AB07E4FFFE7D7A7C481225D56F
:106E6B0012272E9002BEE0FD74788DF084FD7C001D
:106E7B00122AF490000AEEF0A3EFF0E5D854037059
:106E8B00079002BBF00271677B017A00794A754E5D
:106E9B0000754F037F107E0212A03AE4F531F532F4
:106EAB0090006275F028E532122F3DE53175F02820
:106EBB00A42583F583E024FB601524FB7022746BFF
:106ECB002532F58274023531F5837403F08020741A
:106EDB006B2532F58274023531F5837402F0800F25
:106EEB00746B2532F58274023531F5837404F00529
:106EFB0032E532700205316404453170A3E4F5319B
:106F0B00F53290006F75F028E532122F3DE53175A3
:106F1B00F028A42583F583E0FDE53225E0FFE5317C
:106F2B0033FE740D2FF58274003EF583EDF0900067
:106F3B006375F028E532122F3DE53175F028A42555
:106F4B0083F583122EA690006775F028E532122F79
:106F5B003DE53175F028A42583F583122E9A122373
:106F6B00D7C004C005C006C00790006375F028E5C4
:106F7B0032122F3DE53175F028A42583F583122EAF
:106F8B00A690006B75F028E532122F3DE53175F0B8
:106F9B0028A42583F583122E9A1223D7D003D0026F
:106FAB00D001D0001225D5E4FBFAF9F81226729025
:106FBB00006375F02860054003027045E532122F1F
:106FCB003DE53175F028A42583F583122EA690009C
:106FDB006775F028E532122F3DE53175F028A425B1
:106FEB0083F583122E9A1223D7C004C005C006C0A6
:106FFB000790006375F028E532122F3DE53175F0EF
:10700B0028A42583F583122EA690006B75F028E536
:10701B0032122F3DE53175F028A42583F583122E0E
:10702B009A1223D7D003D002D001D0001225D5C09D
:10703B0004C005C006C0070270CBE532122F3DE538
:10704B003175F028A42583F583122EA69000677561
:10705B00F028E532122F3DE53175F028A42583F594
:10706B0083122E9A1223D7C004C005C006C0079006
:10707B00006375F028E532122F3DE53175F028A439
:10708B002583F583122EA690006B75F028E532123E
:10709B002F3DE53175F028A42583F583122E9A1226
:1070AB0023D7D003D002D001D0001225D51226DF72
:1070BB00AB07AA06A905A804C000C001C002C00303
:1070CB0090007075F028E532122F3DE53175F028F0
:1070DB00A42583F583E0FF90007175F028E532124B
:1070EB002F3DE53175F028A42583F583E0C39FFD83
:1070FB00E49400FCE41226F5D003D002D001D000BA
:10710B001224CCC004C005C006C00790007075F0F7
:10711B0028E532122F3DE53175F028A42583F58340
:10712B00E0FCE41226FAD003D002D001D0001223E7
:10713B00DB12272EAD07E53225E0FFE53133FE7478
:10714B000C2FF58274003EF583EDF00532E53270BD
:10715B00020531640445316003026F0D9002BBE000
:10716B0030E7034403F0E4F531F532D3900947E0FF
:10717B009532900946E095314018744A2532F582D4
:10718B0074003531F583E4F00532E53270DD0531FD
:02719B0080D999
:01719D0022CF
:098614009002BBE07003028851E2
:03861D00753106AE
:10862000AF319002BBE0FEA807088002C313D8FC5C
:1086300020E003028843E531122FF487B60087ADAE
:1086400001869E02869E03865C04865C058654062F
:1086500000008843E5D8F4F532028843AF31EF33A8
:1086600095E0FEEF25E0FFEE33FE74192FF58274DE
:10867000003EF583E0FEA3E0FFAD31ED3395E0FC75
:1086800074692DF58274023CF583E0FDEFA80508BE
:0E8690008005CEC313CE13D8F9F5320288430D
:10869E00E4F533AF31EF3395E0FEEF25E0FFEE3337
:1086AE00FE74192FF58274003EF583E0FEA3E0FF01
:1086BE00AD31ED3395E0FC74692DF58274023CF515
:1086CE0083E0FBEFA803088005CEC313CE13D8F9C1
:1086DE00F53274042DF58274003CF583E06402607B
:1086EE0003028843AF31EF3395E0FEEF25E0FFEE56
:1086FE0033FE74092FF58274003EF583E060230487
:10870E00604624FE706A74082FF58274003EF5836D
:10871E00E0FFE532D39F40047F0180027F008F335C
:10872E00804EAF31EF3395E0FEEF25E0FFEE33FEE6
:10873E0074082FF58274003EF583E0B532047F0194
:10874E0080027F008F338028AF31EF3395E0FEEF4C
:10875E0025E0FFEE33FE74082FF58274003EF5839C
:10876E00E0FFE532C39F50047F0180027F008F330C
:10877E00E5336015E5312402FF7401A80708800275
:10878E00C333D8FC42C8028843E5312402FF74018A
:0F879E00A807088002C333D8FCF452C8028843EE
:0987AD0090025AE0F53202884303
:1087B60090025AE0FEA3E0FFF53290000AE0FCA327
:1087C600E0FD4C6078EF4E6074D3ED9FEC9E503820
:1087D600E4F533F53474062534F58274003533F543
:1087E60083E0B40113E5342404FF7401A80708806C
:1087F60002C333D8FCF452C80534E534700205339D
:108806006402453370CF8035E4F533F534740625BC
:1088160034F58274003533F583E0B40112E534246F
:1088260004FF7401A807088002C333D8FC42C805B8
:0D88360034E534700205336402453370D020
:0E8843001531C3E53164809480400302862025
:018851002204
:10A499008B528A538954E92DF9EA3C8B55F5568933
:10A4A90057E4F558F559C3855683855782E5549580
:10A4B90082E5539583502F7852E475F001122F49A4
:10A4C900122A47FFE5596F25E0FFE433FE748B2F0D
:10A4D900F58274883EF583E558FFE493F5587401D5
:0AA4E900936FF55980C0AE58AF59CB
:01A4F3002246
:109ABF00E4900D66F07B017A0C792612A5A5900C27
:109ACF008FE07004A3E064E7700C900C91E07004D9
:109ADF00A3E064086018900C8FE4F0A374E7F09093
:109AEF000C91E4F0A37408F0900D667401F0900CE3
:109AFF0078E0B4FF0974C8F0900D667401F0900C13
:109B0F0077E0640160077401F0900D66F0900C200F
:109B1F00E0FCA3E0FDB40015ECB41011900C94E040
:109B2F0030E40AE054EFF0900D667401F0E4B505EF
:109B3F0015ECB42011900C94E020E40AE04410F0EE
:109B4F00900D667401F0900C26E0FF12A95F400D96
:109B5F00900C26E06007E4F0900D6604F0900C3A4C
:109B6F00E0FF12A95F400D900C3AE06007E4F0901F
:109B7F000D6604F0900C4EE0FF12A95F400D900CA3
:109B8F004EE06007E4F0900D6604F0900C97E0B49F
:109B9F00FF07E4F0900D6604F0900C98E0B4FF110D
:109BAF00A3E0B4FF0CE4900C98F0A3F0900D6604C2
:109BBF00F0900D66E0601012A88E7B017A0C79266A
:079BCF007D807C0012A3540D
:019BD600226C
:10A88E00AF84E4F584781EF608F6A2AF33FEC2AFAD
:10A89E0043B701758F0718E6FC08E6F5828C83E452
:0DA8AE00F0F58F53B7FEEE24FF92AF8F84BC
:01A8BB00227A
:0AA354008B458A4689478C488D49E5
:10A35E0085844AE4F584781EF608F6A2AF33FFC270
:10A36E00AF43B701758F05E4F54BF54CC3E54C953E
:10A37E0049E5486480F8E54B64809850297845E4B7
:10A38E0075F001122F49122A47FE781E0806E618AC
:10A39E00860470010614F5828C83EEF0054CE54CB4
:10A3AE0070CA054B80C6E4F58F53B7FEEF24FF92BB
:04A3BE00AF854A8499
:01A3C2002278
:06A5A5008B458A46894740
:10A5AB00858448E4F549F54AF584A2AF33F54BC2EF
:10A5BB00AF758F04E4FFFE054AE54AAC497002050E
:10A5CB004914F5828C83E493FD7845E475F0011210
:10A5DB002F49ED122AC00FBF00010EEF64804E70A1
:0DA5EB00D6E4F58FE54B24FF92AF85488440
:01A5F8002240
:0EA15F008E4C8F4D8C4E8D4F8B508A518952F5
:09A16D0012007EEF30E7F9C2F99F
:10A17600E4F557F5580558E558700205576440450B
:03A186005770F21D
:10A18900E54D6401454C70047F8480027F8712008D
:10A199005EE4FF12005EE4FF12005EE4FF12005E5F
:10A1A900E4F555F556C3E556954FE54E6480F8E557
:10A1B90055648098501DAB50AA51A9528556828585
:10A1C9005583122A60FF12005E0556E55670D605C2
:10A1D9005580D2D2F9AD54AC53AF4DAE4C02A26703
:08A267008E598F5A8C5B8D5C4F
:10A26F00900946E0FEA3E0FF129FA08F5D12007ED3
:06A27F00EF30E7F9C2F91F
:10A28500E4F55EF55F055FE55F7002055E644045D8
:03A295005E70F206
:10A29800E55D6010E55A6401455970047F838012BA
:10A2A8007F86800EE55A6401455970047F828002DA
:10A2B8007F8512005EE55CAE5B7806CEA2E713CE22
:10A2C80013D8F8FF12005EAF5CEF25E025E0FF121F
:09A2D800005EE4FF12005ED2F901
:01A2E100225A
:02007E00C2F9C5
:10008000E4F569F56A056AE56A7002056964404548
:030090006970F2A2
:0C0093007FD712005EE4FF12005ED2F97D
:01009F00223E
:0AA03A008E498F4A8B4B8A4C894DEA
:09A0440012007EEF30E7F9C2F9C9
:10A04D00E4F552F5530553E553700205526440454E
:03A05D005270F24C
:10A060007FD212005EE54FAE4E7806CEA2E713CE49
:10A0700013D8F8FF12005EAF4FEF25E025E0FF1286
:10A08000005EE4FF12005EE4FF12005EE4FF1200D7
:10A090005EE4FF12005EE4FF12005EE4F550F5514D
:10A0A000C3E551954AE5496480F8E55064809850CD
:10A0B0001FE4FF12005EAB4BAA4CA94D855182856F
:10A0C0005083EF122AD20551E55170D4055080D04B
:02A0D000D2F9C3
:01A0D200226B
:089FA0008E608F618C628D63FD
:0C9FA80075640112007EEF30E7F9C2F989
:109FB400E4F567F5680568E568700205676440457F
:039FC4006770F2D1
:109FC7007FD212005EE563AE627806CEA2E713CEBB
:109FD70013D8F8FF12005EAF63EF25E025E0FF120C
:109FE700005EE4FF12005EE4FF12005EE4FF120071
:109FF7005EE4FF12005EE4FF12005EE4F565F566BD
:10A00700C3E5669561E5606480F8E565648098500E
:10A017001DE4FF12005EBFFF047F0180027F008FF7
:10A0270064EF600A0566E56670D6056580D2D2F9E9
:02A03700AF6414
:01A039002204
:04A692008E478F4818
:09A6960012007EEF30E7F9C2F971
:10A69F00E4F549F54A054AE54A7002054964404523
:03A6AF004970F2FD
:10A6B2007F5012005EE548AE477806CEC313CE1334
:10A6C200D8F9FF12005EAF48EF25E025E0FF120047
:08A6D2005EE4FF12005ED2F904
:01A6DA00225D
:04A6DB008E498F4ACB
:09A6DF0012007EEF30E7F9C2F928
:10A6E800E4F54BF54C054CE54C7002054B644045D0
:03A6F8004B70F2B2
:10A6FB007F8112005EE54AAE497806CEC313CE13B6
:10A70B00D8F9FF12005EAF4AEF25E025E0FF1200FB
:08A71B005EE4FF12005ED2F9BA
:01A723002213
:06A3C3008C428D438B4427
:10A3C900E5446002C2B68E458F46D3E5469543E51E
:10A3D900459542504BE54654077034C3E5439546CD
:10A3E900FFE5429545FEC3EF9408EE94004020E551
:10A3F900446008E546543F7002B2B6AF46AE451216
:10A40900A69274072546F546E43545F5458007AF1C
:10A4190046AE4512A6DB0546E54670AE054580AA5F
:06A42900E5446002C2B62A
:01A42F00220A
:069BD7008B318A32893354
:069BDD00D2F8D2F9C2FA31
:109BE300E4F537F5380538E5387002053764404544
:039BF3003770F2D6
:029BF600D2FAA1
:109BF800E4F537F5380538E538700205376440452F
:039C08003770F2C0
:109C0B0012007EEF543C122FF49C2D0C9C37149CAD
:109C1B00411C9C4B249C662C9C81349C9C3C0000DE
:109C2B009CB8AB31AA32A9337402801CAB31AA3277
:109C3B00A93374048012AB31AA32A933740880089B
:109C4B00AB31AA32A933741075F000122C20AB344F
:109C5B00AA35A936740175F008804FAB31AA32A929
:109C6B0033741075F000122C20AB34AA35A936745E
:109C7B000275F0108034AB31AA32A933742075F021
:109C8B0000122C20AB34AA35A936740275F0108063
:109C9B0019AB31AA32A933742075F000122C20AB0A
:0D9CAB0034AA35A936740475F020122C205F
:019CB8002289
:10FE00008E448F458E448F45E4F546F547A2AF33C7
:10FE1000F548C2AFE4F58443B701758F03C3E546E7
:10FE200094FC50168547828546837488F0E4254704
:10FE3000F54774043546F54680E3E4F58FF546F55D
:10FE400047F54BF54C75840FE54C54037002B2B680
:10FE500012FFB58F4DE54D30E7F6C2F9E4F54EF5EA
:10FE60004F054FE54F7002054E6440454E70F27FDE
:10FE7000D212FFA4E54CAE4B7806CEC313CE13D8F6
:10FE8000F9FF12FFA412FF9CE4FF12FFA4E4FF128B
:10FE9000FFA4E4FF12FFA4E4FF12FFA4E4FF12FF9B
:10FEA000A4E4F549F54AE4FF12FFA4744A254AF593
:10FEB0008274003549F583EFF0054AE54A70020582
:10FEC00049C3E549940240DED2F9E4F584758F0117
:10FED000F549F54A744A254AF58274003549F58397
:10FEE000E0FF0547E547AC467002054614F5828CF5
:10FEF00083EFF0054AE54A70020549B400D6E549AA
:10FF0000B402D1E4F58F054CE54C7002054BC39467
:07FF10007FE54B9400500354
:10FF170002FE45E4F58F53B7FEE54824FF92AFE4B0
:10FF2700F5D075840FF54BF54CC3E54B9420505431
:10FF3700E54C543F7002B2B512FFB58F4DE54D3019
:10FF4700E7F6C2F9E4F54EF54F054FE54F700205A8
:10FF57004E6440454E70F27F5012FFA4E54CAE4B05
:10FF67007806CEC313CE13D8F9FF12FFA412FF9C55
:10FF7700E4FF12FFA4D2F97408254CF54CE4354B85
:10FF8700F54B80A512FFB58F4DE54D30E7F6E4F54B
:05FF97008443EF01228C
:10FF9C00AF4CEF25E025E0FFAE84E4F5848F9B3079
:09FFAC00FFFDC2FFAF9B8E842211
:10FFB500C2F9E4F550F5510551E55170020550645B
:10FFC50040455070F27FD712FFA4E4FF12FFA4D280
:02FFD500F9220F
:1090BB00908887E493FFAB32AA33A9349000011256
:0A90CB002A60FDE4F54CF54D7B062C
:0490D5008F498B4BE9
:1090D900754EFFE4F54FF550ED90888793F551747F
:1090E900222DF582E4340CF5837464F0908887E4CA
:1090F90093B54919E54B64066013E54B6415600D9A
:10910900741C2DF582E4340CF583E54BF0E55175BB
:10911900F013A4248CF582E43402F583122F5974D8
:1091290016122AC0E55175F013A4248CF582E43493
:1091390002F583122F59900001E549122AD2E5510F
:1091490075F013A4248CF582E43402F583122F59A7
:10915900900002ED122AD27402254DF54DE4354CEA
:10916900F54CFFE55175F013A4248CF582E4340223
:10917900F583122F59900003EF122AD2E55175F0A9
:1091890013A4248CF582E43402F583122F5990003C
:1091990004E54D122AD2E55175F013A4248CF58209
:1091A900E43402F583122F59900005E54B122AD2B7
:1091B900E4FEFFE55175F013A4248CF582E4340232
:1091C900F583122F598F828E83122A60624E0FBF48
:1091D90000010EEF64064E70DAE55175F013A42410
:1091E9008CF582E43402F583122F59900006E54E7E
:1091F900122AD274FE254DF54D74FF354CF54CE518
:109209005175F013A4248CF582E43402F583122FEE
:1092190059E92407F9E43AFAAD4DAC4C12A4998EF8
:109229004F8F50EEFFE55175F013A4248CF582E4BD
:109239003402F583122F59054DE54D7002054C2472
:1092490006F582E4354CF583EF122AD2E55175F023
:1092590013A4248CF582E43402F583122F59054DA9
:10926900E54D7002054C2406F582E4354CF583E59D
:1092790050122AD2E55175F013A4247FF9740235EE
:10928900F0FA7B01E54D2407FDE4354CFC12A4F40A
:09929900E54D2407FFE4354CFE0D
:0192A20022A9
:083DA3008F318B328A33893421
:103DAB00E4900CD2F0A3F0900003122A60FE900076
:103DBB0004122A607C002400FFEC3ECF24FECF349B
:103DCB00FFFE900CD4F0FCA3EFF0FDE92407F9E41F
:103DDB003AFA12A648900CD2EEF0A3EFF04E603AEE
:103DEB00AB32AA33A934900005122A60FF64157018
:103DFB00030246C1EF640670030246C19000011234
:103E0B002A602422F582E4340CF5837464F090006C
:0A3E1B0001122A60FF7D040241CE6F
:103E2500AB32AA33A934900002122A60FF9088872A
:103E3500E4936F7003023EDFEFF47003023EDFEFA1
:103E450093FF3395E0FE90028C75F013EF122F3D32
:103E5500EE75F013A42583F583122F59E92407F98C
:103E6500E43A8B3AF53B893CE5342407F9E43533EC
:103E7500853237F5388939E4F535F536D3900CD5E3
:103E8500E09536900CD4E0953540247837E475F00C
:103E950001122F49122A47FF783AE475F001122FD3
:103EA50049EF122AC00536E53670D1053580CDAB10
:103EB50032AA33A934900001122A60FF9000021241
:103EC5002A60FD900005122A60FB900CD4E0F54CA9
:103ED500A3E0F54D1290D50246C1AB32AA33A93401
:103EE500900005122A60122FF43F40063F7B103FD9
:103EF5006415420930432E31435632437E33446EB6
:103F05003443A63543CE3643F637446E38441E391E
:103F150044463A416241416242449A5044EC51421E
:103F25003E55409D704101713FA89045D7914492FF
:103F35009342F6944037980000468D900001122A6E
:103F450060241CF582E4340CF583AB32AA33A93422
:103F5500900001122A60241CF582E4340C8010AB19
:103F650032AA33A934122A47241DF582E4340CF50C
:103F750083E4F002467A900C22E0FFC394054006E4
:103F8500EFD3941F4004EFB4E20512A5F9800312A4
:103F950090BB900CD2EEF0A3EFF0AB32AA33A9346C
:033FA50002467A57
:103FA800900C22E0FFC394054006EFD3941F400411
:103FB800EFB4E20512A5F98065AB32AA33A93490B3
:103FC8000007122A60FE900008122A607C00240074
:103FD800F53EEC3EF53DE53175F013A4248CF582F1
:103FE800E43402F583122F59E92407F9E43AFA90E8
:103FF8000946E0FEA3E0FF853D4E853E4F12A03AFC
:10400800908887E493FFAB32AA33A9349000011259
:104018002A60FD900946E0F54CA3E01290D1900C7F
:0F402800D2EEF0A3EFF0AB32AA33A93402467AFE
:10403700900C22E0FFC394054006EFD3941F400481
:10404700EFB4E20512A5F9803CAB32AA33A934904C
:104057000007122A60FE900008122A607C002400E4
:10406700F53EEC3EF53D900946E0FCA3E0FDE92472
:1040770009F9E43AFA853D53853E547F027E0012E2
:10408700A15F1290BB900CD2EEF0A3EFF0AB32AA77
:0640970033A93402467A51
:10409D00900C22E0FFC394054006EFD3941F40041B
:1040AD00EFB4E20512A5F9803AE53175F013A424B9
:1040BD008CF582E43402F583122F59E92407F9E4D3
:1040CD003AFA12A5A5908887E493FFAB32AA33A9DB
:1040DD0034900001122A60FD754C00754D807B06F1
:1040ED001290D5900CD2EEF0A3EFF0AB32AA33A91B
:1040FD003402467A900C22E0FFC394054006EFD3BC
:10410D00941F4004EFB4E20512A5F9803712A88E72
:10411D00AB32E5342407F9E43533FA900CD4E0FEE4
:10412D00A3E0FFC39480EE94005006AC06AD07806B
:10413D00047C007D8012A3547B017A0C792612A594
:10414D00A51290BB900CD2EEF0A3EFF0AB32AA33D8
:05415D00A93402467ABE
:10416200900C22E0FFF53DAB32AA33A93490000552
:10417200122A60FE7C00B441047D0080027D058C21
:104182003E8D3FEE900C21E024FFFD900C20E034A8
:10419200FFFC8C408D41AB32AA33A934900001124E
:1041A2002A602422F582E4340CF583E4F0EFC39410
:1041B200054009900C22E0D3941F4007900C22E0A6
:1041C200B4E217900001122A60FF7D2012A6089027
:1041D2000CD2EEF0A3EFF00246C1900C2274E2F092
:1041E2001290BB900CD2EEF0A3EFF0E4FFFE12A609
:1041F200DB7B01AD41AC40AF3FAE3E12A3C3900C9E
:0742020022E53DF00246C178
:104209001290BB900CD2EEF0A3EFF0AB32AA33A917
:1042190034900001122A602422F582E4340CF583DB
:10422900E4F012007E8F3DE53D30E7F6E4F5844386
:05423900EF010246C187
:10423E001290BB900CD2EEF0A3EFF07B017A0279D4
:0C424E007F7F007EE17D007C00128CC2AE
:10425A00900CC6122ECE00004650E4FFFEFDFC90E4
:10426A000CC6122EA6D3122DBF4017900CC6122EC2
:10427A009A74FFFBFAF9F8122C6C900CC6122EC233
:02428A0080D8DA
:10428C00E4F584C2ACC298D29975840153E7BFC2DD
:03429C0098D2991C
:10429F0075840F30E815C39002C0E094099002BFF7
:1042AF00E094004006E4F58443EF01E4F584309890
:1042BF0017758401309911C299F58485993DC2987B
:1042CF00B2B4758401853D997584013098C2E4F5C7
:1042DF00843099BCC29975840185993DC298B2B555
:0542EF00F584853D99F6
:1042F40080A91290BB900CD2EEF0A3EFF0AB32AADF
:1043040033A934900001122A602422F582E4340C8B
:10431400F583E4F0900014E070030246C1900007B6
:10432400122A60FF12A8E60246C11290BB900CD27A
:10433400EEF0A3EFF0AB32AA33A934900001122AB5
:10434400602422F582E4340CF583E4F01215AF0204
:1043540046C11290BB900CD2EEF0A3EFF0AB32AAA0
:1043640033A934900001122A602422F582E4340C2B
:10437400F583E4F0124F010246C11290BB900CD2B7
:10438400EEF0A3EFF0AB32AA33A934900001122A65
:10439400602422F582E4340CF583E4F012836A028B
:1043A40046C11290BB900CD2EEF0A3EFF0AB32AA50
:1043B40033A934900001122A602422F582E4340CDB
:1043C400F583E4F01255F50246C11290BB900CD26D
:1043D400EEF0A3EFF0AB32AA33A934900001122A15
:1043E400602422F582E4340CF583E4F0125B760257
:1043F40046C11290BB900CD2EEF0A3EFF0AB32AA00
:1044040033A934900001122A602422F582E4340C8A
:10441400F583E4F01269510246C11290BB900CD2AC
:10442400EEF0A3EFF0AB32AA33A934900001122AC4
:10443400602422F582E4340CF583E4F01275A202C0
:1044440046C11290BB900CD2EEF0A3EFF0AB32AAAF
:1044540033A934900001122A602422F582E4340C3A
:10446400F583E4F01280540246C1AB32AA33A93476
:10447400900001122A602422F582E4340CF583E4CE
:10448400F0900005122A60FF1279560246C190028C
:10449400EC74FF02456F900C22E064F070277545C0
:1044A40001754600754705AB32AA33A934129E46FE
:1044B4001290BB900CD2EEF0A3EFF00575E5757089
:1044C4001E0574801AAB32AA33A934900001122A53
:1044D40060FF7D0812A608900CD2EEF0A3EFF0ABBB
:1044E40032AA33A93402467A900C22E0B4F114AB18
:1044F40032AA33A934900007122A60FF900005E025
:104504006F6072AB32AA33A934900001122A60FFA3
:104514007D0812A608900CD2EEF0A3EFF0AB32AAFD
:1045240033A934900001122A602422F582E4340C69
:04453400F583E4F037
:10453800900CCA122ECE0000AFC8E4FFFEFDFC901E
:104548000CCA122EA6D3122DBF4017900CCA122ED9
:104558009A74FFFBFAF9F8122C6C900CCA122EC24E
:0245680080D8F9
:10456A009002EC74F2F0900CA87401F00246C112A9
:10457A0090BB900CD2EEF0A3EFF0AB32AA33A93481
:10458A00900001122A602422F582E4340CF583E4B7
:01459A00F030
:10459B00900CCE122ECE0000AFC8E4FFFEFDFC90B7
:1045AB000CCE122EA6D3122DBF4017900CCE122E6E
:1045BB009A74FFFBFAF9F8122C6C900CCE122EC2E7
:0245CB0080D896
:1045CD00AF75AE7412A7F70246C1900CA87401F036
:1045DD00AB32AA33A934900007122A609002ECF096
:1045ED00D3900CD5E09401900CD4E09400406D90E4
:1045FD000008122A60540F900BDCF0900009122A6B
:10460D0060900CA7F0E4F535F536AB32AA33A9343A
:10461D00E536240AFFE435358F82F583122A60FFD3
:10462D00746B2536F58274023535F583EFF005365A
:10463D00E536700205356404453570CEAB32AA33CC
:10464D00A93490000E122A609002BEF090000F1255
:10465D002BE8FF9002B7E5F0F0A3EFF01290BB90BE
:10466D000CD2EEF0A3EFF0AB32AA33A934900001D7
:10467D00122A602422F582E4340CF583E4F08034B0
:10468D00AB32AA33A934900001122A602422F5829C
:10469D00E4340CF5837464F0900001122A60FF7D00
:1046AD000212A608900CD2EEF0A3EFF074FF900C5E
:0446BD00D2F0A3F0A4
:0846C100900CD2E0FEA3E0FF23
:0146C90022CE
:0AA648008B428A4389448C458D46FD
:10A6520012A4998E478F48AB42AA43A944854682E9
:10A66200854583122A607F00FEE5462401FDE4351C
:10A67200458D82F583122A602FFFE43EFEE548B540
:0FA682000709E547B50604E4FEFF227EFF7FFFD0
:01A6910022A6
:0FA5F900AB32AA33A934900001122A60FF7D20F3
:10A60800AE07EE90888793FB3395E0FA90028C753D
:10A61800F013EB122F3DEA75F013A42583F583128E
:10A628002F59900007ED122AD2908887E493FFAD46
:10A6380006754C00754D017B151290D5E4FEFF227E
:069E46008B428A438944AF
:109E4C00E4F548F549900003122A60FE90000412D4
:109E5C002A60FDEEF54AEDF54BE4F548F549E54B86
:109E6C0024FEFFE54A34FFFEC364809482500280D6
:109E7C00047E027F00C3E5499FEE6480F8E54864E8
:109E8C0080985048AB45AA46A947C003C002C00100
:109E9C00122A47FFAB42AA43A944E5492407FDE433
:109EAC0035488D82F583122A60FE744A2549F58265
:109EBC0074003548F583EEF06FD001D002D0031258
:109ECC002AC00549E5497096054880927E00E575E3
:109EDC005401FF900946E0FCA3E0FD7B017A007978
:0A9EEC004A85745385755402A15F86
:04A7F7008E428F43BC
:10A7FB0090FE00E493FE740193FF900CD9EEF0A34E
:10A80B00EFF0BE8012BFFE0F7B007AFE7902900C38
:0EA81B00D6122F62023047AF75AE7412FE00E7
:01A82900220C
:10A430008584317B017A0C792612A5A5900014E061
:10A44000702EF58475D98075D84075DA4275DB4277
:10A45000900C8BE0A3E0F5FB900C8BE0A3E0F5FC07
:10A46000900C8DE0A3E0F5FD900C8DE0A3E0F5FEEF
:10A47000900CA6E0FD7C007E057F00122B068E71FD
:10A480008F72E4F58475E8C075D107F5BAF5BB7530
:08A49000BC7043E70285318432
:01A4980022A1
:03007B00029633B7
:10963300C0E0C0F0C083C082C0D075D000C000C0FD
:0B96430002C003C004C005C006C00741
:10964E00758400C2EDE57325E02425F582E434002F
:10965E00F583E5BF85BEF0122B91E573122FF496BC
:10966E00890096910196990296AC0396B40496BC25
:10967E000596C40696CC07000096D275BB0175738D
:10968E0001804175BB027573028039900014E06051
:10969E000575BB07800375BB08757303802675BB04
:1096AE0003757304801E75BB04757305801675BB38
:1096BE0005757306800E75BB06757307800675BB40
:1096CE0000757300E57215727002157114457160A4
:0496DE00030297C527
:1096E200900CA6E0FF74A08FF0841313543F7522F0
:1096F20000F523E4FBFAEB64034A7026900014E0C1
:109702007020900CA6E075F00A84FF7E0090002B7A
:10971200E0FCA3E0FD122AF490001BEEF0A3EFF0B0
:109722008037EB25E0FFEA33FE74252FF5827400C3
:109732003EF583E0FEA3E0FFAC22AD23122B06AC84
:1097420006AD07EB25E0FFEA33FE74152FF58274B0
:10975200003EF583ECF0A3EDF0EB25E0FFEA33FEEB
:1097620074252FF58274003EF583E4F0A3F00BBB61
:1097720000010AEB64084A60030296F8900004E0D4
:109782007029900C85E0FEA3E0FF900C84E02FFF8F
:10979200900C83E03EFE900015E0FCA3E0FDC3EFD9
:1097A2009DFFEE9C900015F0A3EFF0900CA6E0FD5B
:1097B2007C007E057F00122B068E718F729002A6AE
:0397C2007401F03F
:0C97C500E5737003D38001C34002D2ECB6
:1097D100D007D006D005D004D003D002D000D0D01D
:0997E100D082D083D0F0D0E03238
:039D66000119FFE1
:10A2E200AF8475840F75E1EF75E20775E34475A4D9
:10A2F200157580EA75ADFF75A53D759001E4F5A66B
:10A3020075A0FF75A7F875B07F759CFFF5C8F59D20
:10A3120075D8FFF59E75E8FFE5E854E0FEBEC0047F
:10A322007E0180027E00900014EEF06008759FF7B7
:10A3320075F8978006759FFF75F8F720D80330D916
:10A342000E9002EB7401F0900014E06002D2FB8FD9
:01A352008486
:01A3530022E7
:10A72400AF84E4F584F5D875D980F5F9F5FAF5E93F
:10A7340075EA0C75DC4675D840900CAAF0A3F0902D
:10A74400025AF0A3F0F584C28C758905438E08F58E
:10A754008AF58CC28DD28C75840175888075893098
:07A76400D2A943E6308F8407
:01A76B0022CB
:0DA96E00AF84E4F584C289D288D2A88F841A
:01A97B0022B9
:03005B000297EA1F
:1097EA00C0E0C0F0C083C082C0D075D000C000C045
:0D97FA0001C002C003C004C005C006C007C6
:1098070053E6CF758400AF8CEFFEAD8A7C00E42D64
:10981700F525EC3EF524900CAAE0FEA3E0FFC3E596
:10982700259FFFE5249EFED3EF9464EE940050033A
:10983700029943C28C758A00758C00C28DD28CE563
:0498470019F470415F
:10984B00F519F526AE24AF25E52625E02435F5825E
:10985B00E43400F583EEF0A3EFF0E4FCFDE51D2FFF
:10986B00FFE51C3EFEED351BFDEC351A8F1D8E1CE6
:0E987B008D1BF51A0526E526B404C990025A85
:109889000299350519E519C394044003751900E5D2
:109899001925E02435F582E43400F583E0FEA3E0E0
:1098A900FBC3E51D9BFFE51C9EFEE51B9400FDE542
:1098B9001A94008F1D8E1C8D1BF51AAE24AF25E559
:1098C9001925E02435F582E43400F583EEF0A3EFA1
:1098D900F0E4FCFDE51D2FFFE51C3EFEED351BFD0B
:1098E900EC351A8F1D8E1C8D1BF51AE47B04FAF9D1
:1098F900F8AC1A122D128E248F25C390025BE095C5
:1099090025FF90025AE09524FEC394004006AC0658
:10991900AD078009C3E49FFFE49EFCAD0790025A9E
:10992900E0C313FFC3ED9FEC94004007E524F0A3C7
:10993900E525F0900CAAE4F0A3F07584015388CFD3
:0399490043E630C2
:10994C00D007D006D005D004D003D002D001D0006F
:0B995C00D0D0D082D083D0F0D0E03219
:0300530002A76C95
:10A76C00C0E0C083C082C0D075D000C004C005C09A
:10A77C0006C00753E6CF758400AF8CEFFEAD8A7C24
:10A78C0000E42DFFEC3E900CAAF0A3EFF0758401D1
:10A79C005388CF43E630D007D006D005D004D0D0B4
:07A7AC00D082D083D0E0321F
:03000B0002A82A1E
:10A82A00C0E0C083C08253E6CF758400C28C758AAB
:10A83A0000758C00D28C900CAAE4F0A3F090025A16
:10A84A00F0A3F07584015388CF43E630D082D083D9
:03A85A00D0E03219
:0300030002A1E96E
:10A1E900C0E0C0F0C083C082C0D075D000C000C03C
:09A1F90003C004C005C006C00744
:10A20200A2AFE433FB900CAD7401F0900CA6E0FD1C
:10A212007C007E057F00122B068E718F7275730093
:10A222007F10900025E4F0A3DFFCC2AF53E7FE7578
:10A232008400C2ECC2ED75BB0075840175C8007460
:0EA24200FFF5CDF5CC43E70143C8042B92AFE6
:10A25000D007D006D005D004D003D000D0D0D08213
:07A26000D083D0F0D0E03202
:02FDFE0080FE85
:109D690002080001010C00020D0000420DD20000A2
:049D7900410DD400C4
:06A4F4008B568A578958BF
:10A4FA00858459AB56AA57A958900002122BE845F1
:10A50A00F070F0AB56AA57A95890000D122F6BC0E5
:10A51A0003C002C001AB56AA57A958900007122FD0
:10A52A009BAB56AA57A958900002EC8DF0122C3F0B
:10A53A00122A477006F584D2998005758401D2994A
:03A54A00855984AC
:01A54D0022EB
:10005E00AE84E4F5848F9B30FFFDC2FFAF9B8E8490
:01006E00226F
:10A54E00AF8475840F759601758C67E4FDFC0DBDA7
:10A55E0000010CE4B505F7ECB401F3E58C30E7FB34
:10A56E00759701E4F58A758905F58475B7207584AC
:10A57E000F758D01758F01758E03FCFD0DBD0001EC
:10A58E000CE4B505F7ECB401F3438902E58930E438
:06A59E00FB7597028F849B
:01A5A4002294
:0E8CC2008B428A4389448F488E478D468C45ED
:108CD000858449122A4714606F046003028EC2E43F
:108CE000F58475911590000A122A6024BB6018243F
:108CF000F6601424EA601024F76007146009242148
:108D0000700875985080037598D0E4F58475C80490
:108D100075C908AB48AA47A946A845FFFE7D657CF2
:108D200004122D12E47B10FAF9F8122D12122DB153
:108D30008ECB8FCA74FFF5CDF5CCD2CAE4F584C2D0
:108D400099C298D2AC028EC2758401AB42AA43A9E3
:108D50004490000A122A6024BB601824F660142490
:108D6000EA601024F76007146009242170087598E0
:108D7000108003759890E4F58453890F438920ABE4
:108D800048AA47A946A845FFFE7D657C04122D121E
:108D9000E47B02FAF9F8122D12E4FB7A01F9F812D9
:108DA0002D12E47B01FAF9F8D3122DD54026AB48F9
:108DB000AA47A946A845E4FFFE7D657C04122D1252
:108DC000E47B02FAF9F8122D12122DB18F8D438E29
:108DD00010028EB3AB48AA47A946A845E4FFFE7D22
:108DE000657C04122D12E47B02FAF9F8122D12E4CC
:108DF000FB7A01F9F8122D12E47B04FAF9F8D31288
:108E00002DD54031AB48AA47A946A845E4FFFE7DD1
:108E1000657C04122D12E47B02FAF9F8122D12E49B
:108E20007B04FAF9F8122D12122DB18F8D538EECAE
:108E3000438E01807EAB48AA47A946A845E4FFFEC1
:108E40007D657C04122D12E47B02FAF9F8122D12D2
:108E5000E4FB7A01F9F8122D12E47B0CFAF9F8D34D
:108E6000122DD5AB48AA47A946A845E4FFFE7D656B
:108E70007C04401F122D12E47B02FAF9F8122D1225
:108E8000E47B0CFAF9F8122D12122DB18F8D538E4E
:108E9000EC8020122D12E47B02FAF9F8122D12E474
:108EA0007B30FAF9F8122D12122DB18F8D538EEC02
:108EB000438E02858D8BD28E758401C299C29843F0
:058EC000E74085498434
:018EC500228A
:10003E00AF84E4F584759D04759A70C2FFD2F88F73
:01004E00842D
:01004F00228E
:10A8BC00AD84758401E4F5C8F5C9EF2408FFE43EC6
:10A8CC00FEC3E49FFFE49EF5CB8FCA74FFF5CDF574
:09A8DC00CC43E70143C8048D845C
:01A8E5002250
:03002300028EC684
:108EC600C0E0C0F0C083C082C0D075D000C000C072
:0D8ED60001C002C003C004C005C006C007F3
:108EE300E59820E00302905D8599275398FEE508F5
:108EF300600302902AE50924FE6063147003028F65
:108F030092147003028FF72403600302902A750DF5
:108F130000750E00E5276416600302902A90028A0A
:108F2300E0FF7E007C027D1D122AF490028F122F37
:108F330059E92FF9EA3E8B0FF5108911FA050EE571
:108F43000EAE0D7002050D14F5828E83E527122AED
:108F5300D2E527620C75080075090202902AAB0F4F
:108F6300AA10A911050EE50EAE0D7002050D14F53C
:108F7300828E83E527122AD2E527620CE50E64066A
:108F8300450D600302902AF50875090302902AAB88
:108F93000FAA10A911050EE50EAE0D7002050D14F2
:108FA300F5828E83E527122AD2630CFFE50C652731
:108FB3007031AB0FAA10A911900003122A60750A31
:108FC30000F50B750B00F50A900004122A60250BBF
:108FD300F50BE4350AF50A450B604675080075097B
:108FE300048044750D00750E007508007509017540
:108FF3000C008033D2B4AB0FAA10A911050EE50EF5
:10900300AE0D7002050D14F5828E83E527122AD268
:10901300E50B2407FFE4350AFEEFB50E0AEEB50DA6
:1090230006750800750905E50964054508702BC236
:10903300B4F508750901F50DF50EF50C90028312D0
:109043002F59E94A4B7013AB0FAA10A91190028351
:10905300122F6290028AE06401F0E59830E13E90BD
:109063000281E07002A3E06023D2B4900286122F43
:1090730059122A47F599900287E475F001122B9152
:1090830090028174FFF5F0122B91800EC2B47B0025
:0D9093007A007900900286122F625398FD3A
:1090A000D007D006D005D004D003D002D001D00024
:0B90B000D0D0D082D083D0F0D0E032CE
:0300A300028A8B43
:108A8B00C0E0C0F0C083C082C0D075D000C000C0B1
:098A9B0001C002C003C006C007BF
:108AA400E59820E003028C36859928900DD4E012D5
:108AB4002FF48AD5008AE6018AF9028B49038B7662
:108AC400048B8F058BB6068BF7078C080800008C87
:108AD40033E52864B56003028C33900DD404F002AE
:108AE4008C33E528900DD4B462067402F0028C3302
:108AF400E4F0028C33751800751700900DD2E4F081
:108B0400A3F090029DE075F0DCA4FF9002A2122F66
:108B140059E92FF9EA35F08B12F5138914FA900DFF
:108B2400D2E475F001122BA785F082F583E52812B3
:108B34002AD2E5282517F5172518F518900DD474B1
:108B440003F0028C33AB12AA13A914900DD2E4756E
:108B5400F001122BA785F082F583E528122AD2E5CD
:108B6400282517F5172518F518900DD47404F0026C
:108B74008C33751500852816E5282517F517251853
:108B8400F518900DD47405F0028C33E528FEE42525
:108B940016F516EE3515F515E5282517F5172518DC
:108BA400F518E5164515900DD4700280417406F051
:108BB400807DAB12AA13A914900DD2E475F00112B2
:108BC4002BA785F082F583E528122AD2E5282517FC
:108BD400F5172518F518E5162402FFE43515FE905F
:108BE4000DD2E06E7003A3E06F7044900DD474074F
:108BF400F0803CE517900DD4B528057408F0802F5B
:048C0400E4F0802BED
:108C080090029DE0FFB402067E007F008003EF041F
:108C1800FF8F29E518B5280E90029EE065296006A9
:0B8C280090029DE529F0900DD4E4F0CF
:108C33005398FEE59830E170900294E07002A3E04F
:108C4300605790029CE024BB601A24E0601624F66F
:108C5300600424207022900299122F59122A47305F
:108C6300E00E8011900299122F59122A4730E00525
:108C730043980480035398FB900299122F59122AA8
:108C830047F59990029AE475F001122B91900294A2
:108C930074FFF5F0122B91800C7B007A0079009021
:088CA3000299122F625398FDA3
:108CAB00D007D006D003D002D001D000D0D0D082D4
:078CBB00D083D0F0D0E032BD
:03007300029EF6F4
:109EF600C0E0C0F0C083C082C0D075D000C000C032
:039F060006C0078B
:109F090075840153C87F900269E475F001122B91A1
:109F19009002B9E0FEA3E0FF900269E0B50619A33B
:109F2900E0B507149002B9E475F0A0122B919000E6
:109F390048E475F001122B91E4FFFE74232FF5829A
:109F4900E4340CF583E0600D74232FF582E4340CBE
:109F5900F583E014F00FBF00010EEF64034E70DBD0
:109F690075840F20E816C39002C0E094FF9002BFE9
:109F7900E094FF5007E475F001122B917584007588
:069F8900BB00C2EDD2ECAA
:109F8F00D007D006D000D0D0D082D083D0F0D0E090
:019F9F00328F
:10650800257300506C61636520756E697420666C34
:106518006174206F6E206C6576656C207375726689
:106528006163652E00466C6970206F7665722E2057
:106538004661636520646F776E2E00486F6C642037
:10654800766572746963616C2C2047505320616EC4
:1065580074656E6E61206A61636B2075702E0048E9
:106568006F6C6420766572746963616C2C20475087
:106578005320616E74656E6E61206A61636B20647E
:106588006F776E2E005374616E64206F6E2072698F
:1065980067687420736964652E005374616E6420A3
:1065A8006F6E206C65667420736964652E00496E91
:1065B80076657274696E6720582056616C756573CC
:1065C80000496E76657274696E6720592056616C51
:1065D80075657300496E76657274696E67205A2016
:1065E80056616C7565730020005A65726F20506F94
:1065F800696E74733A20582025752C20592025750A
:106608002C205A20257500582052616E67653A2063
:1066180025752C20257500592052616E67653A2032
:1066280025752C202575005A2052616E67653A2021
:1066380025752C2025750053746F72696E67204389
:10664800616C6962726174696F6E20446174612063
:10665800696E20466C6173682E0043616C696272D2
:106668006174696F6E20436F6D706C6574652E0080
:106678005A65726F696E6720582C20592050574D03
:106688000046696E616C2043616C3A2025752C25A3
:10669800750046696E616C2056616C3A2025752C30
:1066A80025750044617461666C6173682054657374
:1066B80074002A2A20466C617368204641494C457B
:1066C80044202A2A2C20706167652025642C2062CA
:1066D80079746525640050616765202564206F6BB7
:1066E8000054657374205061737365642E00496E9D
:1066F800707574205465737400444947494E3A20B4
:106708000031003000583A2025752C20593A2025B0
:1067180075005A3A2025752C2035563A20257500E3
:1067280035563A2025752C20543A202575004130DD
:106738003A2025752C2041313A2025750041323AFE
:106748002025752C2041333A20257500496E707537
:10675800745465737420436F6D706C6574652E0096
:106768004F75747075742054657374006269742071
:106778002564004F75747075745465737420436F85
:106788006D706C6574652E00412F442054657374D8
:1067980000426F61726420666C61742E20546573C8
:1067A80074206669787475726520617474616368B1
:1067B80065642E005820205920203556205A202064
:1067C8004130204131204132204133003120200026
:1067D8003020200041445465737420504153532E97
:1067E800002A2A20414454657374204641494C20AC
:1067F8002A2A004469676974616C20494F205465EE
:106808007374004F6E6C792056616C696420666FF2
:106818007220535532202D2045786974696E672E91
:1068280000446967494F5465737420506F696E74EA
:10683800202564002A2A20204641494C202A2A0083
:10684800446967494F5465737420504153532E006F
:106858002A2A20446967494F546573742046414980
:106868004C202A2A004175746F4F6E20546573744A
:1068780000456E61626C696E67204175746F4F6E7A
:106888002E2E2E0044726F7070696E672035562068
:10689800456E61626C650044697361626C696E671C
:1068A800204175746F4F6E2E2E2E004175746F4FF8
:1068B8006E5465737420504153532E00534D4275E6
:1068C800732054657374202D204D617374657200B4
:1068D80025642042797465732C20256420437963EC
:1068E8006C657300546F74616C204572726F72200E
:1068F800436F756E742C20257500534D42757320B7
:106908005465737420506173732E00534D42757330
:106918002054657374202D20536C61766500534DA7
:1069280042757320536C61766520546573742043F7
:106938006F6D706C6574652E0001020408102040AC
:09694800800102040810204080C7
:1015AF008584429000047401F075840FFB7A0C79E6
:1015BF002612A5A5E4900C76F090888793900C776F
:1015CF00F0A374C8F0900C8FE4F0A374E7F0900CC4
:1015DF0091E4F0A37408F074FFFFFEFDFC900C790A
:1015EF00122EA6C3122DD5700A900C79122ECE0092
:1015FF00000000900C7DE0B4FF037401F0900C7EAE
:10160F00E0B4FF037409F0900C9374FFF0A3F09013
:10161F000C7F7408F0A3E4F0900C817408F0A3E43D
:10162F00F0900C26F0900C3AF0900C4EF0900C8D40
:10163F00F0A374A0F0900C8BE4F0A374A0F0E490EE
:0D164F0002BFF0A3F0D2B3D2B6D2B5D2B430
:10165C00900CD6122ECE000107ACE4FFFEFDFC90E0
:10166C000CD6122EA6D3122DBF4017900CD6122ECC
:10167C009A74FFFBFAF9F8122C6C900CD6122EC24D
:02168C0080D804
:10168E00908888E493FF3395E0FE90028C75F013FA
:10169E00EF122F3DEE75F013A42583F583122F590B
:1016AE00E92407F9E43AFA754CFF754D65754E0855
:1016BE00754FFF75506575510B1260F5908888E473
:1016CE0093FF3395E0FE90028C75F013EF122F3DD1
:1016DE00EE75F013A42583F583122F59E92407F92B
:1016EE00E43AFA12000EEF2401F54DE43EF54C906B
:0C16FE008887E493FF7B737D011290D578
:10170A00900CDA122ECE000107ACE4FFFEFDFC902D
:10171A000CDA122EA6D3122DBF4017900CDA122E15
:10172A009A74FFFBFAF9F8122C6C900CDA122EC29A
:02173A0080D855
:10173C001292A3900014E06065900DCCE0FEA3E043
:10174C00FF900DC7E02FFF900DC6E03EC313FEEFD8
:10175C0013FF900C7FEEF0A3EFF0900DCEE0FEA304
:10176C00E0FF900DC9E02FFF900DC8E03EC313FEC3
:10177C00EF13FF900C81EEF0A3EFF0900DD0E0FE94
:10178C00A3E0FF900DCBE02FFF900DCAE03EC313FA
:10179C00FEEF13FF900C9EEEF0A3EFF0800312719E
:1017AC009E900014E0700302188CC2B3C2B59088EE
:1017BC0088E493FF3395E0FE90028C75F013EF12E2
:1017CC002F3DEE75F013A42583F583122F59E924D0
:1017DC0007F9E43AFA754CFF754D65754E08754F6F
:1017EC00FF75506575512D1260F5908888E493FF54
:1017FC003395E0FE90028C75F013EF122F3DEE75D1
:10180C00F013A42583F583122F59E92407F9E43A40
:10181C00FA12000EEF2401F54DE43EF54C9088874A
:0A182C00E493FF7B737D011290D559
:10183600900CDE122ECE000107ACE4FFFEFDFC90FC
:101846000CDE122EA6D3122DBF4017900CDE122EE0
:101856009A74FFFBFAF9F8122C6C900CDE122EC269
:0218660080D828
:101868001292A3900DD0E0FEA3E0FF900DCBE02FE5
:10187800FF900DCAE03EC313FEEF13FF900C9CEEE1
:10188800F0A3EFF0C2B3C2B6C2B5C2B4908888E480
:1018980093FF3395E0FE90028C75F013EF122F3D05
:1018A800EE75F013A42583F583122F59E92407F95F
:1018B800E43AFA754CFF754D65754E08754FFF751E
:1018C80050657551431260F5908888E493FF33950D
:1018D800E0FE90028C75F013EF122F3DEE75F013B9
:1018E800A42583F583122F59E92407F9E43AFA125B
:1018F800000EEF2401F54DE43EF54C908887E49303
:08190800FF7B737D011290D5F5
:10191000900CE2122ECE000107ACE4FFFEFDFC901D
:101920000CE2122EA6D3122DBF4017900CE2122EFD
:101930009A74FFFBFAF9F8122C6C900CE2122EC28A
:0219400080D84D
:101942001292A3900DCCE0FEA3E0FF900DC7E02F12
:10195200FF900DC6E03EC313FEEF13FF900C85EE21
:10196200F0A3EFF0900014E06021900DD0E0FEA310
:10197200E0FF900DCBE02FFF900DCAE03EC313FEB7
:10198200EF13FF900C9AEEF0A3EFF0D2B390888899
:10199200E493FF3395E0FE90028C75F013EF122F63
:1019A2003DEE75F013A42583F583122F59E9240720
:1019B200F9E43AFA754CFF754D65754E08754FFF9F
:1019C2007550657551671260F5908888E493FF330E
:1019D20095E0FE90028C75F013EF122F3DEE75F03C
:1019E20013A42583F583122F59E92407F9E43AFA5F
:1019F20012000EEF2401F54DE43EF54C908887E489
:091A020093FF7B737D011290D566
:101A0B00900CE6122ECE000107ACE4FFFEFDFC901D
:101A1B000CE6122EA6D3122DBF4017900CE6122EF9
:101A2B009A74FFFBFAF9F8122C6C900CE6122EC28A
:021A3B0080D851
:101A3D001292A3900DCCE0FEA3E0FF900DC7E02F16
:101A4D00FF900DC6E03EC313FEEF13FF900C83EE27
:101A5D00F0A3EFF0D2B6908888E493FF3395E0FEC3
:101A6D0090028C75F013EF122F3DEE75F013A42537
:101A7D0083F583122F59E92407F9E43AFA754CFFDF
:101A8D00754D65754E08754FFF75506575518D1205
:101A9D0060F5908888E493FF3395E0FE90028C7595
:101AAD00F013EF122F3DEE75F013A42583F583127D
:101ABD002F59E92407F9E43AFA12000EEF2401F543
:101ACD004DE43EF54C908887E493FF7B737D0112C6
:021ADD0090D5A2
:101ADF00900CEA122ECE000107ACE4FFFEFDFC9045
:101AEF000CEA122EA6D3122DBF4017900CEA122E1D
:101AFF009A74FFFBFAF9F8122C6C900CEA122EC2B2
:021B0F0080D87C
:101B11001292A3900DCEE0FEA3E0FF900DC9E02F3D
:101B2100FF900DC8E03EC313FEEF13FF900C87EE4C
:101B3100F0A3EFF0D2B5908888E493FF3395E0FEEF
:101B410090028C75F013EF122F3DEE75F013A42562
:101B510083F583122F59E92407F9E43AFA754CFF0A
:101B6100754D65754E08754FFF7550657551A2121B
:101B710060F5908888E493FF3395E0FE90028C75C0
:101B8100F013EF122F3DEE75F013A42583F58312A8
:101B91002F59E92407F9E43AFA12000EEF2401F56E
:101BA1004DE43EF54C908887E493FF7B737D0112F1
:021BB10090D5CD
:101BB300900CEE122ECE000107ACE4FFFEFDFC906C
:101BC3000CEE122EA6D3122DBF4017900CEE122E40
:101BD3009A74FFFBFAF9F8122C6C900CEE122EC2D9
:021BE30080D8A8
:101BE5001292A3900DCEE0FEA3E0FF900DC9E02F69
:101BF500FF900DC8E03EC313FEEF13FF900C89EE76
:101C0500F0A3EFF0D2B4900C83E0FEA3E0FFC39005
:101C15000C86E09F900C85E09E4003021CF49088A2
:101C250088E493FF3395E0FE90028C75F013EF1274
:101C35002F3DEE75F013A42583F583122F59E92462
:101C450007F9E43AFA754CFF754D65754E08754F01
:101C5500FF7550657551B61260F5908888E493FF5D
:101C65003395E0FE90028C75F013EF122F3DEE7563
:101C7500F013A42583F583122F59E92407F9E43AD3
:101C8500FA12000EEF2401F54DE43EF54C908887DD
:0A1C9500E493FF7B737D011290D5EC
:101C9F00900CF2122ECE000107ACE4FFFEFDFC907B
:101CAF000CF2122EA6D3122DBF4017900CF2122E4B
:101CBF009A74FFFBFAF9F8122C6C900CF2122EC2E8
:021CCF0080D8BB
:101CD100900C85E0F543A3E0F544900C83E0FFA36D
:101CE100E0900C85CFF0A3EFF0900C83E543F0A3D7
:101CF100E544F0900C87E0FEA3E0FFC3900C8AE07E
:101D01009F900C89E09E4003021DDD908888E4933A
:101D1100FF3395E0FE90028C75F013EF122F3DEE2C
:101D210075F013A42583F583122F59E92407F9E4EB
:101D31003AFA754CFF754D65754E08754FFF755034
:101D4100657551C91260F5908888E493FF3395E079
:101D5100FE90028C75F013EF122F3DEE75F013A477
:101D61002583F583122F59E92407F9E43AFA120081
:101D71000EEF2401F54DE43EF54C908887E493FF86
:071D81007B737D011290D578
:101D8800900CF6122ECE000107ACE4FFFEFDFC908D
:101D98000CF6122EA6D3122DBF4017900CF6122E59
:101DA8009A74FFFBFAF9F8122C6C900CF6122EC2FA
:021DB80080D8D1
:101DBA00900C89E0F543A3E0F544900C87E0FFA37B
:101DCA00E0900C89CFF0A3EFF0900C87E543F0A3E5
:101DDA00E544F0900014E07003021ECF900C9CE0E2
:101DEA00FEA3E0FFC3900C9FE09F900C9EE09E40F4
:101DFA0003021ECF908888E493FF3395E0FE900299
:101E0A008C75F013EF122F3DEE75F013A42583F5B0
:101E1A0083122F59E92407F9E43AFA754CFF754DF4
:101E2A0065754E08754FFF7550657551DC1260F582
:101E3A00908888E493FF3395E0FE90028C75F01346
:101E4A00EF122F3DEE75F013A42583F583122F5957
:101E5A00E92407F9E43AFA12000EEF2401F54DE4F9
:101E6A003EF54C908887E493FF7B737D011290D5F1
:101E7A00900CFA122ECE000107ACE4FFFEFDFC9096
:101E8A000CFA122EA6D3122DBF4017900CFA122E5E
:101E9A009A74FFFBFAF9F8122C6C900CFA122EC203
:021EAA0080D8DE
:101EAC00900C9EE0F543A3E0F544900C9CE0FFA35E
:101EBC00E0900C9ECFF0A3EFF0900C9CE543F0A3C8
:101ECC00E544F0908888E493FF3395E0FE90028C13
:101EDC0075F013EF122F3DEE75F013A42583F583E7
:101EEC00122F59E92407F9E43AFA754CFF754D6540
:101EFC00754E08754FFF7550657551EF1260F59072
:101F0C008888E493FF3395E0FE90028C75F013EF14
:101F1C00122F3DEE75F013A42583F583122F59E98A
:101F2C002407F9E43AFA12000EEF2401F54DE43ED1
:0F1F3C00F54C908887E493FF7B737D011290D55D
:101F4B00900CFE122ECE000107ACE4FFFEFDFC90C0
:101F5B000CFE122EA6D3122DBF4017900CFE122E84
:101F6B009A74FFFBFAF9F8122C6C900CFE122EC22D
:021F7B0080D80C
:101F7D00754CFF754D65754EF1900C7FE0F54FA3D7
:101F8D00E0F550900C81E0F551A3E0F552900C9ADC
:101F9D00E0F553A3E0F5547B017A0D79161260F547
:101FAD00908888E493FF3395E0FE90028C75F013D2
:101FBD00EF122F3DEE75F013A42583F583122F59E3
:101FCD00E92407F9E43AFA754CFF754D65754E082D
:101FDD00754F0175500D7551161260F5908888E496
:101FED0093FF3395E0FE90028C75F013EF122F3DA9
:101FFD00EE75F013A42583F583122F59E92407F903
:10200D00E43AFA12000EEF2401F54DE43EF54C9042
:0C201D008887E493FF7B737D011290D54F
:10202900900D02122ECE000107ACE4FFFEFDFC90DC
:102039000D02122EA6D3122DBF4017900D02122E9B
:102049009A74FFFBFAF9F8122C6C900D02122EC249
:0220590080D82D
:10205B00908888E493FF3395E0FE90028C75F01323
:10206B00EF122F3DEE75F013A42583F583122F5934
:10207B00E92407F9E43AFA754CFF754D66754E0F76
:10208B00900C83E0F54FA3E0F550900C85E0F551F3
:10209B00A3E0F5521260F5908888E493FF3395E046
:1020AB00FE90028C75F013EF122F3DEE75F013A41A
:1020BB002583F583122F59E92407F9E43AFA120024
:1020CB000EEF2401F54DE43EF54C908887E493FF29
:0720DB007B737D011290D51B
:1020E200900D06122ECE000107ACE4FFFEFDFC901F
:1020F2000D06122EA6D3122DBF4017900D06122EDA
:102102009A74FFFBFAF9F8122C6C900D06122EC28B
:0221120080D873
:10211400908888E493FF3395E0FE90028C75F01369
:10212400EF122F3DEE75F013A42583F583122F597A
:10213400E92407F9E43AFA754CFF754D66754E1FAC
:10214400900C87E0F54FA3E0F550900C89E0F55131
:10215400A3E0F5521260F5908888E493FF3395E08C
:10216400FE90028C75F013EF122F3DEE75F013A460
:102174002583F583122F59E92407F9E43AFA12006A
:102184000EEF2401F54DE43EF54C908887E493FF6F
:072194007B737D011290D561
:10219B00900D0A122ECE000107ACE4FFFEFDFC9061
:1021AB000D0A122EA6D3122DBF4017900D0A122E18
:1021BB009A74FFFBFAF9F8122C6C900D0A122EC2CE
:0221CB0080D8BA
:1021CD00908888E493FF3395E0FE90028C75F013B0
:1021DD00EF122F3DEE75F013A42583F583122F59C1
:1021ED00E92407F9E43AFA754CFF754D66754E2FE3
:1021FD00900C9CE0F54FA3E0F550900C9EE0F5514E
:10220D00A3E0F5521260F5908888E493FF3395E0D2
:10221D00FE90028C75F013EF122F3DEE75F013A4A6
:10222D002583F583122F59E92407F9E43AFA1200B0
:10223D000EEF2401F54DE43EF54C908887E493FFB5
:07224D007B737D011290D5A7
:10225400900D0E122ECE000107ACE4FFFEFDFC90A3
:102264000D0E122EA6D3122DBF4017900D0E122E56
:102274009A74FFFBFAF9F8122C6C900D0E122EC210
:0222840080D800
:10228600908888E493FF3395E0FE90028C75F013F6
:10229600EF122F3DEE75F013A42583F583122F5907
:1022A600E92407F9E43AFA754CFF754D65754E0851
:1022B600754FFF75506675513F1260F5908888E43A
:1022C60093FF3395E0FE90028C75F013EF122F3DCD
:1022D600EE75F013A42583F583122F59E92407F927
:1022E600E43AFA12000EEF2401F54DE43EF54C9067
:1022F6008887E493FF7B737D011290D512A88E7BAD
:0C230600017A0C79267D7A7C0012A35429
:10231200900D12122ECE000107ACE4FFFEFDFC90E0
:102322000D12122EA6D3122DBF4017900D12122E8F
:102332009A74FFFBFAF9F8122C6C900D12122EC24D
:0223420080D841
:10234400908888E493FF3395E0FE90028C75F01337
:10235400EF122F3DEE75F013A42583F583122F5948
:10236400E92407F9E43AFA754CFF754D65754E0892
:10237400754FFF7550667551621260F5908888E458
:1023840093FF3395E0FE90028C75F013EF122F3D0E
:10239400EE75F013A42583F583122F59E92407F968
:1023A400E43AFA12000EEF2401F54DE43EF54C90A8
:1023B4008887E493FF7B737D011290D5D2B3C2B6B4
:0F23C400C2B5C2B4E4900004F0129ABF854284FF
:0123D30022E7
:1092A300900DCA740FF0A374FFF0900DC8740FF003
:1092B300A374FFF0900DC6740FF0A374FFF0E49055
:1092C3000DD0F0A3F0900DCEF0A3F0900DCCF0A351
:1092D300F0FFFE9002A6E060FA900015E0FCA3E028
:1092E300FD900DC6E0FAA3E0FBC39DEA9C5006ACDB
:1092F30002AD038008900015E0FCA3E0FD900DC6CD
:10930300ECF0A3EDF0900017E0FCA3E0FD900DC896
:10931300E0FAA3E0FBC39DEA9C5006AC02AD0380D8
:1093230008900017E0FCA3E0FD900DC8ECF0A3ED5E
:10933300F090001BE0FCA3E0FD900DCAE0FAA3E06F
:10934300FBC39DEA9C5006AC02AD03800890001B52
:10935300E0FCA3E0FD900DCAECF0A3EDF090001546
:10936300E0FCA3E0FD900DCCE0FAA3E0FBD39DEA83
:109373009C4006AC02AD038008900015E0FCA3E01E
:10938300FD900DCCECF0A3EDF0900017E0FCA3E012
:10939300FD900DCEE0FAA3E0FBD39DEA9C4006AC22
:1093A30002AD038008900017E0FCA3E0FD900DCE12
:1093B300ECF0A3EDF090001BE0FCA3E0FD900DD0DA
:1093C300E0FAA3E0FBD39DEA9C4006AC02AD038028
:1093D3000890001BE0FCA3E0FD900DD0ECF0A3EDA2
:1093E300F0E49002A6F00FBF00010EEF64284E6078
:1093F300030292D6900DC8E0FEA3E0FF900DCEE0ED
:10940300FCA3E0FDC39FFFEC9EFEC39400400280DB
:1094130016900DC8E0FEA3E0FFC3ED9FFFEC9EFE98
:10942300C3E49FFFE49EFED3EF9404EE9400400355
:109433000292A3900DC6E0FEA3E0FF900DCCE0FCEA
:10944300A3E0FDC39FFFEC9EFEC394004002801681
:10945300900DC6E0FEA3E0FFC3ED9FFFEC9EFEC3AD
:10946300E49FFFE49EFED3EF9404EE9400400302D6
:0294730092A3C2
:0194750022D4
:10719E00E4F545F546F584900C8DE0A3E0F5FD9001
:1071AE000C8DE0A3E0F5FE900C8BE0A3E0F5FB90D8
:1071BE000C8BE0A3E0F5FC908888E493FF3395E018
:1071CE00FE90028C75F013EF122F3DEE75F013A4A6
:1071DE002583F583122F59E92407F9E43AFA754C01
:1071EE00FF754D65754E08754FFF75506675517874
:1071FE001260F5908888E493FF3395E0FE90028C40
:10720E0075F013EF122F3DEE75F013A42583F58361
:10721E00122F59E92407F9E43AFA12000EEF24016D
:10722E00F54DE43EF54C908887E493FF7B737D012A
:03723E001290D5D6
:10724100900D66122ECE000107ACE4FFFEFDFC900E
:107251000D66122EA6D3122DBF4017900D66122E69
:107261009A74FFFBFAF9F8122C6C900D66122EC27B
:0272710080D8C3
:107273009002A6E060FAE49002A6F09002A6E06015
:10728300FAE545700F900015E0FFA3E0900C7FCF67
:10729300F0A3EFF0E546700F900017E0FFA3E09036
:1072A3000C81CFF0A3EFF0E49002A6F0E545704B1C
:1072B300900C7FE0FEA3E02400EE34F8C3648094D6
:1072C300804010900C7FE0FEA3E02400FFEE34F832
:1072D300FE8015900C7FE0FEA3E02400FFEE34F85F
:1072E300FEC3E49FFFE49EFED3EF9405EE64809417
:1072F3008050047F0180027F008F45E5457048C3BD
:10730300900C7FE094085015900C8BE07002A3E082
:1073130070028014900C8B74FFF5F08017900C8B27
:10732300E07003A3E0F47005754501800A900C8BAF
:10733300E475F001122B91900C8BE0A3E0F5FB9028
:107343000C8BE0A3E0F5FCE546704B900C81E0FE6E
:10735300A3E02400EE34F8C3648094804010900CC2
:1073630081E0FEA3E02400FFEE34F8FE8015900CCC
:1073730081E0FEA3E02400FFEE34F8FEC3E49FFFA8
:10738300E49EFED3EF9405EE6480948050047F0165
:1073930080027F008F46E5467048C3900C81E094DD
:1073A300085015900C8DE07002A3E07002801490D9
:1073B3000C8D74FFF5F08017900C8DE07003A3E043
:1073C300F47005754601800A900C8DE475F0011286
:1073D3002B91900C8DE0A3E0F5FD900C8DE0A3E0E4
:1073E300F5FEE5457003027273E54670030272739E
:1073F3001292A3900015E0FFA3E0900C7FCFF0A3BF
:10740300EFF0900017E0FFA3E0900C81CFF0A3EF23
:10741300F0908888E493FF3395E0FE90028C75F03A
:1074230013EF122F3DEE75F013A42583F583122F6E
:1074330059E92407F9E43AFA754CFF754D66754E20
:1074430089900C8BE0F54FA3E0F550900C8DE0F59F
:1074530051A3E0F5521260F5908888E493FF3395C9
:10746300E0FE90028C75F013EF122F3DEE75F013D2
:10747300A42583F583122F59E92407F9E43AFA1274
:10748300000EEF2401F54DE43EF54C908887E4931C
:08749300FF7B737D011290D50F
:10749B00900D6A122ECE000107ACE4FFFEFDFC90AE
:1074AB000D6A122EA6D3122DBF4017900D6A122E05
:1074BB009A74FFFBFAF9F8122C6C900D6A122EC21B
:0274CB0080D867
:1074CD00754CFF754D66754E9A900C7FE0F54FA388
:1074DD00E0F550900C81E0F551A3E0F5527B017A77
:1074ED000D79721260F5908888E493FF3395E0FE74
:1074FD0090028C75F013EF122F3DEE75F013A4254D
:10750D0083F583122F59E92407F9E43AFA754CFFF4
:10751D00754D65754E08754F0175500D755172128B
:10752D0060F5908888E493FF3395E0FE90028C75AA
:10753D00F013EF122F3DEE75F013A42583F5831292
:10754D002F59E92407F9E43AFA12000EEF2401F558
:10755D004DE43EF54C908887E493FF7B737D0112DB
:02756D0090D5B7
:10756F00900D6E122ECE000107ACE4FFFEFDFC90D5
:10757F000D6E122EA6D3122DBF4017900D6E122E28
:10758F009A74FFFBFAF9F8122C6C900D6E122EC242
:02759F0080D892
:0175A10022C7
:027956008F425E
:10795800858443E4F544F545F54890888893FF33DA
:1079680095E0FE90028C75F013EF122F3DEE75F046
:1079780013A42583F583122F59E92407F9E43AFA69
:10798800754CFF754D65754E08754FFF75506675DA
:1079980051AB1260F5908888E493FF3395E0FE9030
:1079A800028C75F013EF122F3DEE75F013A42583AA
:1079B800F583122F59E92407F9E43AFA12000EEF79
:1079C8002401F54DE43EF54C908887E493FF7B73E2
:1079D8007D011290D5E49002BFF0A3F0F546F5477B
:1079E800D3900947E09547900946E095464023AE75
:1079F80046AF477C017D00122B5B744A2547F58210
:107A080074003546F583EDF00547E54770020546F5
:107A180080CE75840F30E819C39002C0E0940990B5
:107A280002BFE094004003027C1DE49002BFF0A373
:107A3800F0900946E0FCA3E0FD7B017A00794A85D5
:107A48004453854554E4FFFE12A15F900946E0FEC9
:107A5800A3E0FF7B017A00794A85444E85454F12A1
:107A6800A03AE4F546F547D3900947E095479009D1
:107A780046E09546402DAE46AF477C017D00122B6F
:107A88005B744A2547F58274003546F583E06D70CE
:107A980001EC6005754801800A0547E54770020555
:107AA8004680C4E5487003027B34908888E493FFDD
:107AB8003395E0FE90028C75F013EF122F3DEE75B2
:107AC800F013A42583F583122F59E92407F9E43A22
:107AD800FA754CFF754D66754EBA85444F8545500D
:107AE8008546518547521260F5908888E493FF33A4
:107AF80095E0FE90028C75F013EF122F3DEE75F0B5
:107B080013A42583F583122F59E92407F9E43AFAD7
:107B180012000EEF2401F54DE43EF54C908887E401
:0C7B280093FF7B737D011290D5027C1D41
:107B3400900CD6122ECE000107ACE4FFFEFDFC90A3
:107B44000CD6122EA6D3122DBF4017900CD6122E8F
:107B54009A74FFFBFAF9F8122C6C900CD6122EC210
:027B640080D8C7
:107B6600908888E493FF3395E0FE90028C75F013BD
:107B7600EF122F3DEE75F013A42583F583122F59CE
:107B8600E92407F9E43AFA754CFF754D66754EDE41
:107B960085444F8545501260F5908888E493FF33FD
:107BA60095E0FE90028C75F013EF122F3DEE75F006
:107BB60013A42583F583122F59E92407F9E43AFA29
:107BC60012000EEF2401F54DE43EF54C908887E453
:107BD60093FF7B737D011290D5AF45AE4412A6DBB1
:107BE600D3900C21E09545900C20E095445007E495
:107BF600F544F54580080545E54570020544E5422E
:107C060064347003027A1AD3E5459404E54464802B
:0E7C160094805003027A1AE49002BFF0A3F0AB
:107C2400900CDA122ECE000107ACE4FFFEFDFC90AE
:107C34000CDA122EA6D3122DBF4017900CDA122E96
:107C44009A74FFFBFAF9F8122C6C900CDA122EC21B
:027C540080D8D6
:107C5600908888E493FF3395E0FE90028C75F013CC
:107C6600EF122F3DEE75F013A42583F583122F59DD
:107C7600E92407F9E43AFA754CFF754D65754E0827
:107C8600754FFF7550667551E91260F5908888E466
:107C960093FF3395E0FE90028C75F013EF122F3DA3
:107CA600EE75F013A42583F583122F59E92407F9FD
:107CB600E43AFA12000EEF2401F54DE43EF54C903D
:0F7CC6008887E493FF7B737D011290D5854384FB
:017CD500228C
:104F010085844278F67C0C7D017BFF7A6979417E4C
:0C4F1100007F08122A219000047401F0B7
:104F1D00900CD6122ECE000107ACE4FFFEFDFC90E6
:104F2D000CD6122EA6D3122DBF4017900CD6122ED2
:104F3D009A74FFFBFAF9F8122C6C900CD6122EC253
:024F4D0080D80A
:104F4F00908888E493FF3395E0FE90028C75F01300
:104F5F00EF122F3DEE75F013A42583F583122F5911
:104F6F00E92407F9E43AFA754CFF754D65754E085B
:104F7F00754FFF7550667551F61260F5908888E48D
:104F8F0093FF3395E0FE90028C75F013EF122F3DD7
:104F9F00EE75F013A42583F583122F59E92407F931
:104FAF00E43AFA12000EEF2401F54DE43EF54C9071
:104FBF008887E493FF7B737D011290D5E49002BF45
:034FCF00F0A3F05C
:104FD20075840F30E819C39002C0E094099002BFB3
:104FE200E09400400302552FE49002BFF0A3F0903A
:0A4FF20002A6E060DBE4F085D8437E
:104FFC00900CDA122ECE0006DDD0E4FFFEFDFC9004
:10500C000CDA122EA6D3122DBF4017900CDA122EEA
:10501C009A74FFFBFAF9F8122C6C900CDA122EC26F
:02502C0080D82A
:10502E00908888E493FF3395E0FE90028C75F01320
:10503E00EF122F3DEE75F013A42583F583122F5931
:10504E00E92407F9E43AFA754CFF754D65754E087B
:10505E00754FFF7550657551EF1260F5908888E4B5
:10506E0093FF3395E0FE90028C75F013EF122F3DF7
:10507E00EE75F013A42583F583122F59E92407F951
:10508E00E43AFA12000EEF2401F54DE43EF54C9091
:0C509E008887E493FF7B737D011290D59E
:1050AA00900CDE122ECE000107ACE4FFFEFDFC9050
:1050BA000CDE122EA6D3122DBF4017900CDE122E34
:1050CA009A74FFFBFAF9F8122C6C900CDE122EC2BD
:0250DA0080D87C
:1050DC00754CFF754D67754E017B017A0C79FE128C
:1050EC0060F57544007545067B017A0C79FE12005B
:1050FC000E74FE2FF9740C3EFA7B01C003C002C083
:10510C000174F62545F582740C3544F583E055435E
:10511C007BFF60067A67790980047A67790B8B4C80
:10512C008A4D894ED001D002D0031260F5E54515A9
:10513C004570021544C3E5446480948050AA90885D
:10514C0088E493FF3395E0FE90028C75F013EF1218
:10515C002F3DEE75F013A42583F583122F59E92406
:10516C0007F9E43AFA754CFF754D65754E08754FA5
:10517C000175500C7551FE1260F5908888E493FF10
:10518C003395E0FE90028C75F013EF122F3DEE7507
:10519C00F013A42583F583122F59E92407F9E43A77
:1051AC00FA12000EEF2401F54DE43EF54C90888781
:0A51BC00E493FF7B737D011290D590
:1051C600900CE2122ECE000107ACE4FFFEFDFC902F
:1051D6000CE2122EA6D3122DBF4017900CE2122E0F
:1051E6009A74FFFBFAF9F8122C6C900CE2122EC29C
:0251F60080D85F
:1051F800754CFF754D67754E0D900015E0F54FA382
:10520800E0F550A3E0F551A3E0F5527B017A0C7963
:10521800FE1260F5908888E493FF3395E0FE9002D3
:105228008C75F013EF122F3DEE75F013A42583F55E
:1052380083122F59E92407F9E43AFA754CFF754DA2
:1052480065754E08754F0175500C7551FE1260F565
:10525800908888E493FF3395E0FE90028C75F013F4
:10526800EF122F3DEE75F013A42583F583122F5905
:10527800E92407F9E43AFA12000EEF2401F54DE4A7
:105288003EF54C908887E493FF7B737D011290D59F
:10529800900CE6122ECE000107ACE4FFFEFDFC9058
:1052A8000CE6122EA6D3122DBF4017900CE6122E34
:1052B8009A74FFFBFAF9F8122C6C900CE6122EC2C5
:0252C80080D88C
:1052CA00900014E06018754CFF754D67754E1A9082
:1052DA00001BE0F54FA3E0F5509000198014754CBF
:1052EA00FF754D67754E28900019E0F54FA3E0F55C
:1052FA0050A3E0F551A3E0F5527B017A0C79FE1236
:10530A0060F5908888E493FF3395E0FE90028C75EF
:10531A00F013EF122F3DEE75F013A42583F58312D7
:10532A002F59E92407F9E43AFA754CFF754D65756A
:10533A004E08754F0175500C7551FE1260F5908834
:10534A0088E493FF3395E0FE90028C75F013EF1218
:10535A002F3DEE75F013A42583F583122F59E92406
:10536A0007F9E43AFA12000EEF2401F54DE43EF58E
:0E537A004C908887E493FF7B737D011290D5E1
:10538800900CEA122ECE000107ACE4FFFEFDFC9063
:105398000CEA122EA6D3122DBF4017900CEA122E3B
:1053A8009A74FFFBFAF9F8122C6C900CEA122EC2D0
:0253B80080D89B
:1053BA00754CFF754D67754E3690001DE0F54FA38D
:1053CA00E0F550A3E0F551A3E0F5527B017A0C79A0
:1053DA00FE1260F5908888E493FF3395E0FE900210
:1053EA008C75F013EF122F3DEE75F013A42583F59B
:1053FA0083122F59E92407F9E43AFA754CFF754DDF
:10540A0065754E08754F0175500C7551FE1260F5A1
:10541A00908888E493FF3395E0FE90028C75F01330
:10542A00EF122F3DEE75F013A42583F583122F5941
:10543A00E92407F9E43AFA12000EEF2401F54DE4E3
:10544A003EF54C908887E493FF7B737D011290D5DB
:10545A00900CEE122ECE000107ACE4FFFEFDFC908C
:10546A000CEE122EA6D3122DBF4017900CEE122E60
:10547A009A74FFFBFAF9F8122C6C900CEE122EC2F9
:02548A0080D8C8
:10548C00754CFF754D67754E45900021E0F54FA3A7
:10549C00E0F550A3E0F551A3E0F5527B017A0C79CD
:1054AC00FE1260F5908888E493FF3395E0FE90023D
:1054BC008C75F013EF122F3DEE75F013A42583F5C8
:1054CC0083122F59E92407F9E43AFA754CFF754D0C
:1054DC0065754E08754F0175500C7551FE1260F5CF
:1054EC00908888E493FF3395E0FE90028C75F0135E
:1054FC00EF122F3DEE75F013A42583F583122F596F
:10550C00E92407F9E43AFA12000EEF2401F54DE410
:10551C003EF54C908887E493FF7B737D011290D508
:0A552C00024FD2E49002BFF0A3F09A
:10553600900CF2122ECE000107ACE4FFFEFDFC90AB
:105546000CF2122EA6D3122DBF4017900CF2122E7B
:105556009A74FFFBFAF9F8122C6C900CF2122EC218
:0255660080D8EB
:10556800908888E493FF3395E0FE90028C75F013E1
:10557800EF122F3DEE75F013A42583F583122F59F2
:10558800E92407F9E43AFA754CFF754D65754E083C
:10559800754FFF7550677551541260F5908888E40F
:1055A80093FF3395E0FE90028C75F013EF122F3DB8
:1055B800EE75F013A42583F583122F59E92407F912
:1055C800E43AFA12000EEF2401F54DE43EF54C9052
:1055D8008887E493FF7B737D011290D5D2B3C2B65E
:0C55E800C2B5C2B4E4900004F085428417
:0155F4002294
:10836A00858442E4F545F54678E27C0C7D017BFF85
:0A837A007A697949FE7F08122A2172
:10838400900CD6122ECE000107ACE4FFFEFDFC904B
:108394000CD6122EA6D3122DBF4017900CD6122E37
:1083A4009A74FFFBFAF9F8122C6C900CD6122EC2B8
:0283B40080D86F
:1083B600908888E493FF3395E0FE90028C75F01365
:1083C600EF122F3DEE75F013A42583F583122F5976
:1083D600E92407F9E43AFA754CFF754D65754E08C0
:1083E600754FFF7550677551681260F5908888E47F
:1083F60093FF3395E0FE90028C75F013EF122F3D3C
:10840600EE75F013A42583F583122F59E92407F995
:10841600E43AFA12000EEF2401F54DE43EF54C90D5
:0C8426008887E493FF7B737D011290D5E2
:10843200900CDA122ECE000107ACE4FFFEFDFC9098
:108442000CDA122EA6D3122DBF4017900CDA122E80
:108452009A74FFFBFAF9F8122C6C900CDA122EC205
:0284620080D8C0
:10846400E49002BFF0A3F090026AE024A0F54490E7
:108474000269E03400F54375840F30E819C39002B3
:10848400C0E094099002BFE094004003028553E4E5
:108494009002BFF0A3F0900269E0FEA3E0FFB544B0
:1084A400D6EEB543D2EF24A0F544E43EF5439088DC
:1084B40088E493FF3395E0FE90028C75F013EF127D
:1084C4002F3DEE75F013A42583F583122F59E9246B
:1084D40007F9E43AFA754CFF754D67754E74854596
:1084E4004F8546501260F5908888E493FF3395E0F9
:1084F400FE90028C75F013EF122F3DEE75F013A46D
:108504002583F583122F59E92407F9E43AFA120076
:108514000EEF2401F54DE43EF54C908887E493FF7B
:108524007B737D011290D574E22546F582740C3577
:1085340045F583E0F5C80546E54670020545FFAEFE
:10854400457C007D07122B5B8C458D4602847BE4C1
:068554009002BFF0A3F04D
:10855A00900CDE122ECE000107ACE4FFFEFDFC906B
:10856A000CDE122EA6D3122DBF4017900CDE122E4F
:10857A009A74FFFBFAF9F8122C6C900CDE122EC2D8
:02858A0080D897
:10858C00908888E493FF3395E0FE90028C75F0138D
:10859C00EF122F3DEE75F013A42583F583122F599E
:1085AC00E92407F9E43AFA754CFF754D65754E08E8
:1085BC00754FFF75506775517B1260F5908888E494
:1085CC0093FF3395E0FE90028C75F013EF122F3D64
:1085DC00EE75F013A42583F583122F59E92407F9BE
:1085EC00E43AFA12000EEF2401F54DE43EF54C90FE
:1085FC008887E493FF7B737D011290D5D2B3C2B60A
:07860C00C2B5C2B48542842F
:018613002244
:0C55F5008584427544019000047401F0AC
:10560100900CD6122ECE000107ACE4FFFEFDFC90FB
:105611000CD6122EA6D3122DBF4017900CD6122EE7
:105621009A74FFFBFAF9F8122C6C900CD6122EC268
:0256310080D81F
:10563300908888E493FF3395E0FE90028C75F01315
:10564300EF122F3DEE75F013A42583F583122F5926
:10565300E92407F9E43AFA754CFF754D65754E0870
:10566300754FFF7550677551901260F5908888E407
:1056730093FF3395E0FE90028C75F013EF122F3DEC
:10568300EE75F013A42583F583122F59E92407F946
:10569300E43AFA12000EEF2401F54DE43EF54C9086
:0C56A3008887E493FF7B737D011290D593
:1056AF00900CDA122ECE000107ACE4FFFEFDFC9049
:1056BF000CDA122EA6D3122DBF4017900CDA122E31
:1056CF009A74FFFBFAF9F8122C6C900CDA122EC2B6
:0256DF0080D871
:1056E100908888E493FF3395E0FE90028C75F01367
:1056F100EF122F3DEE75F013A42583F583122F5978
:10570100E92407F9E43AFA754CFF754D65754E08C1
:10571100754FFF7550677551991260F5908888E44F
:1057210093FF3395E0FE90028C75F013EF122F3D3D
:10573100EE75F013A42583F583122F59E92407F997
:10574100E43AFA12000EEF2401F54DE43EF54C90D7
:0C5751008887E493FF7B737D011290D5E4
:10575D00900CDE122ECE000107ACE4FFFEFDFC9096
:10576D000CDE122EA6D3122DBF4017900CDE122E7A
:10577D009A74FFFBFAF9F8122C6C900CDE122EC203
:02578D0080D8C2
:10578F00908888E493FF3395E0FE90028C75F013B8
:10579F00EF122F3DEE75F013A42583F583122F59C9
:1057AF00E92407F9E43AFA754CFF754D65754E0813
:1057BF00754FFF7550677551BC1260F5908888E47E
:1057CF0093FF3395E0FE90028C75F013EF122F3D8F
:1057DF00EE75F013A42583F583122F59E92407F9E9
:1057EF00E43AFA12000EEF2401F54DE43EF54C9029
:1057FF008887E493FF7B737D011290D59002A6E01A
:10580F0060FAE4F545E545122FF458350058350197
:10581F0058630258910358CB0458F9055926065975
:10582F0053070000597EE54525E02415F582E43441
:10583F0000F583E0FEA3E0FFC394A4EE9406400DB1
:10584F00D3EF94FCEE940850047F0180027F008F09
:10585F004302597EE54525E02415F582E43400F531
:10586F0083E0FEA3E0FFC39484EE940E400DD3EFCC
:10587F00949CEE941050047F0180027F008F4302AE
:10588F00597E900014E0602EE54525E02415F58241
:10589F00E43400F583E0FEA3E0FFC394AAEE940581
:1058AF00400DD3EF946CEE940750047F0180027F7C
:1058BF00008F4302597E75430102597EE54525E06D
:1058CF002415F582E43400F583E0FEA3E0FFC394D2
:1058DF0030EE9404400DD3EF9460EE940550047FA6
:1058EF000180027F008F4302597EE54525E0241594
:1058FF00F582E43400F583E0FEA3E0FFC394CAEE23
:10590F009402400DD3EF9496EE940350047F0180E0
:10591F00027F008F438058E54525E02415F582E48A
:10592F003400F583E0FEA3E0FFC39465EE940140DD
:10593F000DD3EF94CBEE940150047F0180027F00D2
:10594F008F43802BE54525E02415F582E43400F5DF
:10595F0083E0FEA3E0FFC3943FEE9403400DD3EF2B
:10596F00942BEE940450047F0180027F008F43E557
:10597F00437002F5447B017A0C79EA12000E74EA47
:10598F002FF9740C3EFA7B01C003C002C001E5433E
:10599F007BFF60067A6779D480047A6779D88B4C5D
:1059AF008A4D894ED001D002D0031260F50545E52E
:0E59BF0045C394085003025814E49002A6F069
:1059CD00900CE2122ECE000107ACE4FFFEFDFC9020
:1059DD000CE2122EA6D3122DBF4017900CE2122E00
:1059ED009A74FFFBFAF9F8122C6C900CE2122EC28D
:0259FD0080D850
:1059FF00908888E493FF3395E0FE90028C75F01346
:105A0F00EF122F3DEE75F013A42583F583122F5956
:105A1F00E92407F9E43AFA754CFF754D65754E08A0
:105A2F00754F0175500C7551EA1260F5908888E436
:105A3F0093FF3395E0FE90028C75F013EF122F3D1C
:105A4F00EE75F013A42583F583122F59E92407F976
:105A5F00E43AFA12000EEF2401F54DE43EF54C90B6
:0C5A6F008887E493FF7B737D011290D5C3
:105A7B00900CE6122ECE000107ACE4FFFEFDFC906D
:105A8B000CE6122EA6D3122DBF4017900CE6122E49
:105A9B009A74FFFBFAF9F8122C6C900CE6122EC2DA
:025AAB0080D8A1
:105AAD00E5449088886038E493FF3395E0FE9002DA
:105ABD008C75F013EF122F3DEE75F013A42583F5C1
:105ACD0083122F59E92407F9E43AFA754CFF754D05
:105ADD0065754E08754FFF7550677551DC8036E45E
:105AED0093FF3395E0FE90028C75F013EF122F3D6E
:105AFD00EE75F013A42583F583122F59E92407F9C8
:105B0D00E43AFA754CFF754D65754E08754FFF7586
:105B1D0050677551E91260F5908888E493FF3395CD
:105B2D00E0FE90028C75F013EF122F3DEE75F01321
:105B3D00A42583F583122F59E92407F9E43AFA12C3
:105B4D00000EEF2401F54DE43EF54C908887E4936B
:105B5D00FF7B737D011290D5D2B3C2B6C2B5C2B46C
:085B6D00E4900004F08542847D
:015B7500220D
:0E5B7600858442754301E4F54590000404F077
:105B8400900CD6122ECE000107ACE4FFFEFDFC9073
:105B94000CD6122EA6D3122DBF4017900CD6122E5F
:105BA4009A74FFFBFAF9F8122C6C900CD6122EC2E0
:025BB40080D897
:105BB600908888E493FF3395E0FE90028C75F0138D
:105BC600EF122F3DEE75F013A42583F583122F599E
:105BD600E92407F9E43AFA754CFF754D65754E08E8
:105BE600754FFF7550677551FB1260F5908888E414
:105BF60093FF3395E0FE90028C75F013EF122F3D64
:105C0600EE75F013A42583F583122F59E92407F9BD
:105C1600E43AFA12000EEF2401F54DE43EF54C90FD
:105C26008887E493FF7B737D011290D5900014E082
:025C3600706E8E
:105C3800900CDA122ECE000107ACE4FFFEFDFC90BA
:105C48000CDA122EA6D3122DBF4017900CDA122EA2
:105C58009A74FFFBFAF9F8122C6C900CDA122EC227
:025C680080D8E2
:105C6A00908888E493FF3395E0FE90028C75F013D8
:105C7A00EF122F3DEE75F013A42583F583122F59E9
:105C8A00E92407F9E43AFA754CFF754D65754E0833
:105C9A00754FFF75506875510B026045E4F546E58E
:105CAA0046B40707E4F5C8D2FB80058545C8C2FBA0
:105CBA00900CDE122ECE000107ACE4FFFEFDFC9034
:105CCA000CDE122EA6D3122DBF4017900CDE122E18
:105CDA009A74FFFBFAF9F8122C6C900CDE122EC2A1
:025CEA0080D860
:105CEC00908888E493FF3395E0FE90028C75F01356
:105CFC00EF122F3DEE75F013A42583F583122F5967
:105D0C00E92407F9E43AFA754CFF754D68754E298C
:105D1C0085464F1260F5908888E493FF3395E0FE3A
:105D2C0090028C75F013EF122F3DEE75F013A42535
:105D3C0083F583122F59E92407F9E43AFA12000E7D
:105D4C00EF2401F54DE43EF54C908887E493FF7BFE
:105D5C00737D011290D59002A6E060FAE546122FF1
:105D6C00F45D89005DB4015DDF025E0A035E3504FB
:105D7C005E5F055E89065EB30700005EC6E5D8B5BA
:105D8C00451FD3900018E094CA900017E09402408D
:105D9C001020A00D20A10A3086073087047F0180D7
:105DAC00027F008F44025EC6E5D8B5451FC3900044
:105DBC0018E0942C900017E09401501020A00D20B6
:105DCC00A10A2086073087047F0180027F008F4460
:105DDC00025EC6E5D8B5451FC3900018E0942C9020
:105DEC000017E09401501020A00D20A10A30860766
:105DFC002087047F0180027F008F44025EC6E5D8B5
:105E0C00B5451FC3900018E0942C900017E0940146
:105E1C00501020A00D20A10A3086073087047F0186
:105E2C0080027F008F44025EC6E5D8B5451FC39043
:105E3C000018E0942C900017E09401501020A00D55
:105E4C0020A10A3086073087047F0180027F008FF3
:105E5C00448067E5D8B5451FC3900018E0942C909A
:105E6C000017E09401501020A00D30A10A308607D5
:105E7C003087047F0180027F008F44803DE5D8B5D8
:105E8C00451FC3900018E0942C900017E09401502B
:105E9C001030A00D20A10A3086073087047F0180C6
:105EAC00027F008F448013E545B4030A2086072047
:105EBC0087047F0180027F008F44E49002A6F0E506
:065ECC00446003025F8345
:105ED200900CE2122ECE000107ACE4FFFEFDFC9016
:105EE2000CE2122EA6D3122DBF4017900CE2122EF6
:105EF2009A74FFFBFAF9F8122C6C900CE2122EC283
:025F020080D845
:105F0400908888E493FF3395E0FE90028C75F0133B
:105F1400EF122F3DEE75F013A42583F583122F594C
:105F2400E92407F9E43AFA754CFF754D65754E0896
:105F3400754FFF75506875513C1260F5908888E480
:105F440093FF3395E0FE90028C75F013EF122F3D12
:105F5400EE75F013A42583F583122F59E92407F96C
:105F6400E43AFA12000EEF2401F54DE43EF54C90AC
:105F74008887E493FF7B737D011290D5E4F543E5B4
:105F84004570057545018006E54525E0F54505465E
:0A5F9400E546C394075003025CA920
:105F9E00900CE6122ECE000107ACE4FFFEFDFC9045
:105FAE000CE6122EA6D3122DBF4017900CE6122E21
:105FBE009A74FFFBFAF9F8122C6C900CE6122EC2B2
:025FCE0080D879
:105FD000E5439088886038E493FF3395E0FE9002B3
:105FE0008C75F013EF122F3DEE75F013A42583F599
:105FF00083122F59E92407F9E43AFA754CFF754DDD
:1060000065754E08754FFF7550687551488036E4C8
:1060100093FF3395E0FE90028C75F013EF122F3D45
:10602000EE75F013A42583F583122F59E92407F99F
:10603000E43AFA754CFF754D65754E08754FFF755E
:1060400050687551581260F5908888E493FF339535
:10605000E0FE90028C75F013EF122F3DEE75F013F9
:10606000A42583F583122F59E92407F9E43AFA129B
:10607000000EEF2401F54DE43EF54C908887E49343
:10608000FF7B737D011290D5D2B3C2B6C2B5C2B444
:08609000E4900004F085428455
:0160980022E5
:096951008584429000047401F0F9
:10695A00900CD6122ECE000107ACE4FFFEFDFC908F
:10696A000CD6122EA6D3122DBF4017900CD6122E7B
:10697A009A74FFFBFAF9F8122C6C900CD6122EC2FC
:02698A0080D8B3
:10698C00908888E493FF3395E0FE90028C75F013A9
:10699C00EF122F3DEE75F013A42583F583122F59BA
:1069AC00E92407F9E43AFA754CFF754D65754E0804
:1069BC00754FFF75506875516D1260F5908888E4BD
:1069CC0093FF3395E0FE90028C75F013EF122F3D80
:1069DC00EE75F013A42583F583122F59E92407F9DA
:1069EC00E43AFA12000EEF2401F54DE43EF54C901A
:1069FC008887E493FF7B737D011290D5900014E09F
:026A0C00706EAA
:106A0E00900CDA122ECE000107ACE4FFFEFDFC90D6
:106A1E000CDA122EA6D3122DBF4017900CDA122EBE
:106A2E009A74FFFBFAF9F8122C6C900CDA122EC243
:026A3E0080D8FE
:106A4000908888E493FF3395E0FE90028C75F013F4
:106A5000EF122F3DEE75F013A42583F583122F5905
:106A6000E92407F9E43AFA754CFF754D65754E084F
:0F6A7000754FFF75506875510B026D3775C82053
:106A7F00900CDE122ECE000107ACE4FFFEFDFC9061
:106A8F000CDE122EA6D3122DBF4017900CDE122E45
:106A9F009A74FFFBFAF9F8122C6C900CDE122EC2CE
:026AAF0080D88D
:106AB100908888E493FF3395E0FE90028C75F01383
:106AC100EF122F3DEE75F013A42583F583122F5994
:106AD100E92407F9E43AFA754CFF754D65754E08DE
:106AE100754FFF7550687551791260F5908888E48B
:106AF10093FF3395E0FE90028C75F013EF122F3D5A
:106B0100EE75F013A42583F583122F59E92407F9B3
:106B1100E43AFA12000EEF2401F54DE43EF54C90F3
:106B21008887E493FF7B737D011290D57F0112A8C2
:016B3100E67D
:106B3200900CE2122ECE000107ACE4FFFEFDFC90A9
:106B42000CE2122EA6D3122DBF4017900CE2122E89
:106B52009A74FFFBFAF9F8122C6C900CE2122EC216
:026B620080D8D9
:106B6400908888E493FF3395E0FE90028C75F013CF
:106B7400EF122F3DEE75F013A42583F583122F59E0
:106B8400E92407F9E43AFA754CFF754D65754E082A
:106B9400754FFF75506875518C1260F5908888E4C4
:106BA40093FF3395E0FE90028C75F013EF122F3DA6
:106BB400EE75F013A42583F583122F59E92407F900
:106BC400E43AFA12000EEF2401F54DE43EF54C9040
:0E6BD4008887E493FF7B737D011290D5C2FF8A
:106BE200900CE6122ECE0006DDD0E4FFFEFDFC90F6
:106BF2000CE6122EA6D3122DBF4017900CE6122ED1
:106C02009A74FFFBFAF9F8122C6C900CE6122EC261
:026C120080D828
:026C1400D2FFAD
:106C1600900CEA122ECE000107ACE4FFFEFDFC90BC
:106C26000CEA122EA6D3122DBF4017900CEA122E94
:106C36009A74FFFBFAF9F8122C6C900CEA122EC229
:026C460080D8F4
:106C4800908888E493FF3395E0FE90028C75F013EA
:106C5800EF122F3DEE75F013A42583F583122F59FB
:106C6800E92407F9E43AFA754CFF754D65754E0845
:106C7800754FFF75506875519F1260F5908888E4CC
:106C880093FF3395E0FE90028C75F013EF122F3DC1
:106C9800EE75F013A42583F583122F59E92407F91B
:106CA800E43AFA12000EEF2401F54DE43EF54C905B
:106CB8008887E493FF7B737D011290D5E4FF12A8C7
:046CC800E6E4F5C841
:106CCC00900CEE122ECE000107ACE4FFFEFDFC9002
:106CDC000CEE122EA6D3122DBF4017900CEE122ED6
:106CEC009A74FFFBFAF9F8122C6C900CEE122EC26F
:026CFC0080D83E
:106CFE00908888E493FF3395E0FE90028C75F01334
:106D0E00EF122F3DEE75F013A42583F583122F5944
:106D1E00E92407F9E43AFA754CFF754D65754E088E
:106D2E00754FFF7550687551B31260F5908888E401
:106D3E0093FF3395E0FE90028C75F013EF122F3D0A
:106D4E00EE75F013A42583F583122F59E92407F964
:106D5E00E43AFA12000EEF2401F54DE43EF54C90A4
:106D6E008887E493FF7B737D011290D5D2B3C2B6B0
:0C6D7E00C2B5C2B4E4900004F085428469
:016D8A0022E6
:1075A200E4900CEAF0A3F0A2FB92018584469000DD
:0375B2000404F0DE
:1075B500900CD6122ECE000107ACE4FFFEFDFC9028
:1075C5000CD6122EA6D3122DBF4017900CD6122E14
:1075D5009A74FFFBFAF9F8122C6C900CD6122EC295
:0275E50080D84C
:1075E700908888E493FF3395E0FE90028C75F01342
:1075F700EF122F3DEE75F013A42583F583122F5953
:10760700E92407F9E43AFA754CFF754D65754E089C
:10761700754FFF7550687551C41260F5908888E4FE
:1076270093FF3395E0FE90028C75F013EF122F3D18
:10763700EE75F013A42583F583122F59E92407F972
:10764700E43AFA12000EEF2401F54DE43EF54C90B2
:107657008887E493FF7B737D011290D5900014E037
:02766700706E43
:10766900900CDA122ECE000107ACE4FFFEFDFC906F
:107679000CDA122EA6D3122DBF4017900CDA122E57
:107689009A74FFFBFAF9F8122C6C900CDA122EC2DC
:0276990080D897
:10769B00908888E493FF3395E0FE90028C75F0138D
:1076AB00EF122F3DEE75F013A42583F583122F599E
:1076BB00E92407F9E43AFA754CFF754D65754E08E8
:0E76CB00754FFF75506875510B027902C2FBB6
:1076D900900CDE122ECE000107ACE4FFFEFDFC90FB
:1076E9000CDE122EA6D3122DBF4017900CDE122EDF
:1076F9009A74FFFBFAF9F8122C6C900CDE122EC268
:0277090080D826
:10770B00908888E493FF3395E0FE90028C75F0131C
:10771B00EF122F3DEE75F013A42583F583122F592D
:10772B00E92407F9E43AFA754CFF754D68754ED8A4
:10773B00754F087550037551E81260F5908888E411
:10774B0093FF3395E0FE90028C75F013EF122F3DF3
:10775B00EE75F013A42583F583122F59E92407F94D
:10776B00E43AFA12000EEF2401F54DE43EF54C908D
:10777B008887E493FF7B737D011290D5C2B3E4F548
:10778B0042F543900041122F59854382854283E590
:10779B0043122AD20543E543700205426408454271
:1077AB0070E19000407408F090003D7404F0E4F533
:1077BB0044F54512A94E120026E4F542F54390001C
:1077CB0041122F59854382854283122A60FF900014
:1077DB0044122F59854382854283122A606F600AB7
:1077EB00900CEAE475F001122B910543E54370020E
:1077FB0005426408454270C6900CEAE07002A3E0B3
:04780B006002D2B392
:10780F00900CE2122ECE000001C2E4FFFEFDFC90B0
:10781F000CE2122EA6D3122DBF4017900CE2122E9F
:10782F009A74FFFBFAF9F8122C6C900CE2122EC22C
:02783F0080D8EF
:107841000545E54570020544C394E8E544940350B9
:08785100030277BEA20192FBC5
:10785900900CE6122ECE000107ACE4FFFEFDFC9071
:107869000CE6122EA6D3122DBF4017900CE6122E4D
:107879009A74FFFBFAF9F8122C6C900CE6122EC2DE
:0278890080D8A5
:10788B00900CEAE0FEA3E0FF4E9088886033E4930F
:10789B00FD3395E0FC90028C75F013ED122F3DEC4F
:1078AB0075F013A42583F583122F59E92407F9E406
:1078BB003AFA754CFF754D68754EEC8E4F8F5080B4
:1078CB0036E493FF3395E0FE90028C75F013EF12C4
:1078DB002F3DEE75F013A42583F583122F59E92460
:1078EB0007F9E43AFA754CFF754D65754E08754FFF
:1078FB00FF7550697551021260F5908888E493FF0B
:10790B003395E0FE90028C75F013EF122F3DEE7560
:10791B00F013A42583F583122F59E92407F9E43AD0
:10792B00FA12000EEF2401F54DE43EF54C908887DA
:10793B00E493FF7B737D011290D5D2B3C2B6C2B56F
:0A794B00C2B4E4900004F085468405
:01795500220F
:0D805400A2FB92018584429000047401F0AB
:10806100900CD6122ECE000107ACE4FFFEFDFC9071
:108071000CD6122EA6D3122DBF4017900CD6122E5D
:108081009A74FFFBFAF9F8122C6C900CD6122EC2DE
:0280910080D895
:10809300908888E493FF3395E0FE90028C75F0138B
:1080A300EF122F3DEE75F013A42583F583122F599C
:1080B300E92407F9E43AFA754CFF754D65754E08E6
:1080C300754FFF7550697551131260F5908888E4F8
:1080D30093FF3395E0FE90028C75F013EF122F3D62
:1080E300EE75F013A42583F583122F59E92407F9BC
:1080F300E43AFA12000EEF2401F54DE43EF54C90FC
:108103008887E493FF7B737D011290D5900014E080
:02811300706E8C
:10811500900CDA122ECE000107ACE4FFFEFDFC90B8
:108125000CDA122EA6D3122DBF4017900CDA122EA0
:108135009A74FFFBFAF9F8122C6C900CDA122EC225
:0281450080D8E0
:10814700908888E493FF3395E0FE90028C75F013D6
:10815700EF122F3DEE75F013A42583F583122F59E7
:10816700E92407F9E43AFA754CFF754D65754E0831
:0E817700754FFF75506875510B028316C2FBE1
:10818500900CDE122ECE000107ACE4FFFEFDFC9044
:108195000CDE122EA6D3122DBF4017900CDE122E28
:1081A5009A74FFFBFAF9F8122C6C900CDE122EC2B1
:0281B50080D870
:1081B700908888E493FF3395E0FE90028C75F01366
:1081C700EF122F3DEE75F013A42583F583122F5977
:1081D700E92407F9E43AFA754CFF754D68754ED8EE
:1081E700754F087550037551E81260F5908888E45B
:1081F70093FF3395E0FE90028C75F013EF122F3D3D
:10820700EE75F013A42583F583122F59E92407F996
:10821700E43AFA12000EEF2401F54DE43EF54C90D6
:108227008887E493FF7B737D011290D5C2B3E4F591
:1082370084C2C3FFFE900041122F598F828E837430
:10824700FD122AD20FBF00010EEF64084E70E63010
:10825700E816C39002C0E094099002BFE094005072
:108267003FE49002BFF0A3F0900047E060FAE4908B
:108277000047F0FEFF900044122F598F828E831221
:108287002A60FD900041122F598F828E83ED122AAA
:10829700D20FBF00010EEF64084E70D9B2B380AFA2
:0482A700A20192FBA3
:1082AB00900CE2122ECE000107ACE4FFFEFDFC9019
:1082BB000CE2122EA6D3122DBF4017900CE2122EF9
:1082CB009A74FFFBFAF9F8122C6C900CE2122EC286
:0282DB0080D849
:1082DD00908888E493FF3395E0FE90028C75F0133F
:1082ED00EF122F3DEE75F013A42583F583122F5950
:1082FD00E92407F9E43AFA754CFF754D65754E089A
:10830D00754FFF7550697551261260F5908888E498
:10831D0093FF3395E0FE90028C75F013EF122F3D15
:10832D00EE75F013A42583F583122F59E92407F96F
:10833D00E43AFA12000EEF2401F54DE43EF54C90AF
:10834D008887E493FF7B737D011290D5D2B3C2B6BB
:0C835D00C2B5C2B4E4900004F085428474
:0183690022F1
:10A85D0001120101060101020100000001000000CA
:10A86D000C00000077000004A900002E9B0001D20F
:10A87D00090012345600B60B61071C71C7471C71D5
:01A88D00C703
:049D7D00410DD500BF
:107CD60090029F122F598B338A348935E4F531F59A
:107CE60032AB33AA34A9350532E532AE317002051E
:107CF60031142406F582E43EF58374FA122AD2057D
:107D060032E532AE3170020531142406F582E43EC6
:107D1600F583E4122AD20532E532AE31700205311E
:107D2600142406F582E43EF5837401122AD2053244
:107D3600E532AE3170020531142406F582E43EF5D3
:107D460083E4122AD20532E532AE317002053114CF
:107D56002406F582E43EF5837401122AD20532E543
:107D660032AE3170020531142406F582E43EF58305
:107D7600E4122AD2AD32AC317F087E06129D97906E
:107D86000294E07002A3E070F690029EE0FF90027B
:107D96009DE06F60F49002A2122F5990029EE0FFC0
:107DA60075F0DCA4F58285F083122BE8F53285F0B8
:107DB60031EFB402047F00800690029EE004FF903B
:107DC600029EEFF0E53264017004E5316405600C53
:0C7DD60090029EE0FF90029DE0B507B90E
:107DE200900CC6122ECE000057E4E4FFFEFDFC907C
:107DF2000CC6122EA6D3122DBF4017900CC6122EFF
:107E02009A74FFFBFAF9F8122C6C900CC6122EC26F
:027E120080D816
:107E1400E53264017004E53164056003027CE2F537
:107E240031F532AB33AA34A9350532E532AE3170BF
:107E3400020531142406F582E43EF5837401122A06
:107E4400D20532E532AE3170020531142406F582D2
:107E5400E43EF583E4122AD20532E532AE317002F3
:107E64000531142406F582E43EF583E4122AD20592
:107E740032E532AE3170020531142406F582E43E57
:107E8400F583E4122AD20532E532AE3170020531AF
:107E9400142406F582E43EF58374C0122AD2053216
:107EA400E532AE3170020531142406F582E43EF564
:107EB400837408122AD20532E532AE3170020531DC
:107EC400142406F582E43EF583E4122AD20532E551
:107ED40032AE3170020531142406F582E43EF58396
:107EE400E4122AD2E92406F9E43AFAE92532F9EA55
:107EF4003531FA122EFF00E1000074042532F53208
:107F0400E43531F531AB33AA34A9350532E532AE67
:107F14003170020531142406F582E43EF5837401C0
:107F2400122AD20532E532AE31700205311424062C
:107F3400F582E43EF583E4122AD20532E532AE310D
:107F440070020531142406F582E43EF583740112AF
:107F54002AD20532E532AE3170020531142406F519
:107F640082E43EF583E4122AD20532E532AE317062
:107F7400020531142406F582E43EF583E4122AD284
:107F84000532E532AE3170020531142406F582E47F
:107F94003EF583E4122AD20532E532AE3170020591
:107FA40031142406F582E43EF583E4122AD2053224
:107FB400E532AE3170020531142406F582E43EF553
:107FC40083E4122AD2AD32AC317F007E06129D9733
:0A7FD400900294E07002A3E070F642
:107FDE00900CCA122ECE000034BCE4FFFEFDFC90C5
:107FEE000CCA122EA6D3122DBF4017900CCA122EF9
:107FFE009A74FFFBFAF9F8122C6C900CCA122EC26E
:02800E0080D818
:108010007B017A0279927F007EE17D007C00128CE8
:01802000C29D
:10802100900CCE122ECE000057E4E4FFFEFDFC9032
:108031000CCE122EA6D3122DBF4017900CCE122EAD
:108041009A74FFFBFAF9F8122C6C900CCE122EC226
:0280510080D8D5
:01805300220A
:1000A60078E27C0C7D017BFF7AA8795D7E007F0972
:1000B600122A2190029F122F598B498A4A894B9006
:1000C6000014E0700302020A90029EE090029DF086
:1000D600E4F548E4F546F547E54875F003A424E25F
:1000E600F582E4340CF583E0FFAB49AA4AA94B0537
:1000F60047E547AC4670020546142406F582E43C03
:10010600F583EF122AD2E54875F003A424E2F582BE
:10011600E4340CF583A3E0FF0547E547AC467002DF
:100126000546142406F582E43CF583EF122AD2E54F
:100136004875F003A424E4F582E4340CF583E0FF6B
:100146000547E547AC4670020546142406F582E4E9
:100156003CF583EF129D8C900294E07002A3E07050
:10016600F690029EE0FF90029DE06F60F49002A27E
:10017600122F5990029EE0FF75F0DCA4F58285F0FF
:1001860083122BE8F54785F046EFB402047F008022
:100196000690029EE004FF90029EEFF0E5476401A0
:1001A6007004E5466405600C90029EE0FF90029D97
:0401B600E0B507B9F0
:1001BA00900CC6122ECE000057E4E4FFFEFDFC9020
:1001CA000CC6122EA6D3122DBF4017900CC6122EA3
:1001DA009A74FFFBFAF9F8122C6C900CC6122EC214
:0201EA0080D8BB
:1001EC00E54764017004E546640560030200D90527
:1001FC0048E548C3940350030200D9020C97E4F578
:10020C0046F547AB49AA4AA94B0547E547AE4670A8
:10021C00020546142406F582E43EF5837401122A85
:10022C00D20547E547AE4670020546142406F58212
:10023C00E43EF5837402122AD20547E547AE4670B8
:10024C00020546142406F582E43EF583E4122AD214
:10025C000547E547AE4670020546142406F582E4D0
:10026C003EF5837401122AD20547E547AE4670026B
:10027C000546142406F582E43EF583E4122AD205E1
:10028C0047E547AE4670020546142406F582E43E67
:10029C00F583E4122AD20547E547AE4670020546BF
:1002AC00142406F582E43EF5837401122AD2054724
:1002BC00E547AE4670020546142406F582E43EF589
:1002CC00837401122AD20547E547AE4670020546F3
:1002DC00142406F582E43EF583E4122AD20547E5A0
:1002EC0047AE4670020546142406F582E43EF583BB
:1002FC00E4122AD20547E547AE467002054614249F
:10030C0006F582E43EF583E4122AD20547E547AEB2
:10031C004670020546142406F582E43EF583E41289
:10032C002AD20547E547AE4670020546142406F569
:10033C0082E43EF5837401122AD20547E547AE46A6
:10034C0070020546142406F582E43EF58374061209
:10035C002AD20547E547AE4670020546142406F539
:10036C0082E43EF583E4122AD20547E547AE467097
:10037C00020546142406F582E43EF5837401122A24
:10038C00D20547E547AE4670020546142406F582B1
:10039C00E43EF583E4122AD20547E547AE467002E7
:1003AC000546142406F582E43EF583E4122AD205B0
:1003BC0047E547AE4670020546142406F582E43E36
:1003CC00F5837401122AD20547E547AE4670020543
:1003DC0046142406F582E43EF5837412122AD205E3
:1003EC0047E547AE4670020546142406F582E43E06
:1003FC00F583E4122AD20547E547AE46700205465E
:10040C00142406F582E43EF5837401122AD20547C2
:10041C00E547AE4670020546142406F582E43EF527
:10042C0083E4122AD20547E547AE4670020546140E
:10043C002406F582E43EF583E4122AD20547E5470B
:10044C00AE4670020546142406F582E43EF583742C
:10045C0001122AD20547E547AE4670020546142420
:10046C0006F582E43EF5837403122AD20547E5476C
:10047C00AE4670020546142406F582E43EF583E48C
:10048C00122AD20547E547AE4670020546142406EB
:10049C00F582E43EF583E4122AD20547E547AE46E1
:1004AC0070020546142406F582E43EF583E4122A14
:1004BC00D20547E547AE4670020546142406F58280
:1004CC00E43EF583E4122AD20547E547AE467002B6
:1004DC000546142406F582E43EF5837401122AD2F3
:1004EC000547E547AE4670020546142406F582E43E
:1004FC003EF5837430122AD20547E547AE467002AA
:10050C000546142406F582E43EF583E4122AD2054E
:10051C0047E547AE4670020546142406F582E43ED4
:10052C00F583E4122AD20547E547AE46700205462C
:10053C00142406F582E43EF583E4122AD20547E53D
:10054C0047AE4670020546142406F582E43EF58358
:10055C00E4122AD20547E547AE467002054614243C
:10056C0006F582E43EF5837401122AD20547E5476D
:10057C00AE4670020546142406F582E43EF58374FB
:10058C0004122AD20547E547AE46700205461424EC
:10059C0006F582E43EF583E4122AD20547E547AE20
:1005AC004670020546142406F582E43EF583E412F7
:1005BC002AD20547E547AE4670020546142406F5D7
:1005CC0082E43EF583E4122AD20547E547AE467035
:1005DC00020546142406F582E43EF583E4122AD281
:1005EC000547E547AE4670020546142406F582E43D
:1005FC003EF5837401122AD20547E547AE467002D8
:10060C000546142406F582E43EF5837420122AD2A2
:10061C000547E547AE4670020546142406F582E40C
:10062C003EF583E4122AD20547E547AE4670020533
:10063C0046142406F582E43EF583E4122AD20547DB
:10064C00E547AE4670020546142406F582E43EF5F5
:10065C0083E4122AD20547E547AE467002054612DE
:10066C009D82900294E07002A3E070F690029EE0EE
:10067C00FF90029DE06F60F49002A2122F5990023D
:10068C009EE0FF75F0DCA4F58285F083122BE8F573
:10069C004785F046EFB402047F00800690029EE08E
:1006AC0004FF90029EEFF0E54764017004E5466498
:0F06BC0005600C90029EE0FF90029DE0B507B92B
:1006CB00900CCA122ECE0000AFC8E4FFFEFDFC90CA
:1006DB000CCA122EA6D3122DBF4017900CCA122E85
:1006EB009A74FFFBFAF9F8122C6C900CCA122EC2FA
:0206FB0080D8A5
:1006FD00E54764017004E5466405600302020AE4FF
:10070D00F546F547AB49AA4AA94B0547E547AE461D
:10071D0070020546142406F582E43EF58374011239
:10072D002AD20547E547AE4670020546142406F564
:10073D0082E43EF5837411122AD20547E547AE4691
:10074D0070020546142406F582E43EF583E4122A70
:10075D00D20547E547AE4670020546142406F582DC
:10076D00E43EF583E4122AD20547E547AE46700212
:10077D000546142406F582E43EF583E4122AD205DB
:10078D0047E547AE4670020546142406F582E43E61
:10079D00F583E4122AD20547E547AE4670020546B9
:1007AD00142406F582E43EF5837401122AD205471E
:1007BD00E547AE4670020546142406F582E43EF583
:1007CD00837421122AD20547E547AE4670020546CD
:1007DD00142406F582E43EF583E4122AD20547E59A
:1007ED0047AE4670020546142406F582E43EF583B5
:1007FD00E4122AD20547E547AE4670020546142499
:10080D0006F582E43EF583E4122AD20547E547AEAC
:10081D004670020546142406F582E43EF583E41283
:10082D002AD20547E547AE4670020546142406F563
:10083D0082E43EF5837401122AD20547E547AE46A0
:10084D0070020546142406F582E43EF583742212E7
:10085D002AD20547E547AE4670020546142406F533
:10086D0082E43EF583E4122AD20547E547AE467091
:10087D00020546142406F582E43EF583E4122AD2DD
:10088D000547E547AE4670020546142406F582E499
:10089D003EF583E4122AD20547E547AE46700205C0
:1008AD0046142406F582E43EF583E4122AD2054768
:1008BD00E547AE4670020546142406F582E43EF582
:1008CD0083740A122AD20547E547AE4670020546E3
:1008DD00142406F582E43EF5837407122AD20547E7
:1008ED00E547AE4670020546142406F582E43EF552
:1008FD0083E4122AD20547E547AE46700205461439
:10090D002406F582E43EF583E4122AD20547E54735
:10091D00AE4670020546142406F582E43EF583E4E6
:10092D00122AD20547E547AE467002054614240645
:10093D00F582E43EF583E4122AD20547E547AE463B
:10094D0070020546142406F582E43EF583740A12FE
:10095D002AD20547E547AE4670020546142406F532
:10096D0082E43EF5837408122AD20547E547AE4668
:10097D0070020546142406F582E43EF583E4122A3E
:10098D00D20547E547AE4670020546142406F582AA
:10099D00E43EF583E4122AD20547E547AE467002E0
:1009AD000546142406F582E43EF583E4122AD205A9
:1009BD0047E547AE4670020546142406F582E43E2F
:1009CD00F583E4122AD20547E547AE467002054687
:1009DD00142406F582E43EF583740A122AD20547E3
:1009ED00E547AE4670020546142406F582E43EF551
:1009FD00837402122AD20547E547AE4670020546BA
:100A0D00142406F582E43EF583E4122AD20547E567
:100A1D0047AE4670020546142406F582E43EF58382
:100A2D00E4122AD20547E547AE4670020546142466
:100A3D0006F582E43EF583E4122AD20547E547AE7A
:100A4D004670020546142406F582E43EF583E41251
:100A5D002AD20547E547AE4670020546142406F531
:100A6D0082E43EF583740A122AD20547E547AE4665
:100A7D0070020546142406F582E43EF583740912CE
:100A8D002AD20547E547AE4670020546142406F501
:100A9D0082E43EF583E4122AD20547E547AE46705F
:100AAD00020546142406F582E43EF583E4122AD2AB
:100ABD000547E547AE4670020546142406F582E467
:100ACD003EF583E4122AD20547E547AE467002058E
:100ADD0046142406F582E43EF583E4122AD2054736
:100AED00E547AE4670020546142406F582E43EF550
:100AFD0083740A122AD20547E547AE4670020546B1
:100B0D00142406F582E43EF5837401122AD20547BA
:100B1D00E547AE4670020546142406F582E43EF51F
:100B2D0083E4122AD20547E547AE46700205461406
:100B3D002406F582E43EF583E4122AD20547E54703
:100B4D00AE4670020546142406F582E43EF583E4B4
:100B5D00122AD20547E547AE467002054614240613
:100B6D00F582E43EF583E4122AD20547E547AE4609
:100B7D0070020546142406F582E43EF583740A12CC
:100B8D002AD20547E547AE4670020546142406F500
:100B9D0082E43EF5837403122AD20547E547AE463B
:100BAD0070020546142406F582E43EF583E4122A0C
:100BBD00D20547E547AE4670020546142406F58278
:100BCD00E43EF583E4122AD20547E547AE467002AE
:100BDD000546142406F582E43EF583E4122AD20577
:100BED0047E547AE4670020546129D82900294E09D
:100BFD007002A3E070F690029EE0FF90029DE06F00
:100C0D0060F49002A2122F5990029EE0FF75F0DC65
:100C1D00A4F58285F083122BE8F54785F046EFB4F5
:100C2D0002047F00800690029EE004FF90029EEF7A
:100C3D00F0E54764017004E5466405600C90029E82
:090C4D00E0FF90029DE0B507B93B
:100C5600900CCE122ECE0000AFC8E4FFFEFDFC9035
:100C66000CCE122EA6D3122DBF4017900CCE122EEC
:100C76009A74FFFBFAF9F8122C6C900CCE122EC265
:020C860080D814
:100C8800E54764017004E5466405600302070CE467
:100C9800F546F547AB49AA4AA94B0547E547AE468D
:100CA80070020546142406F582E43EF58374FA12B0
:100CB8002AD20547E547AE4670020546142406F5D4
:100CC80082E43EF583E4122AD20547E547AE467032
:100CD800020546142406F582E43EF5837401122ABF
:100CE800D20547E547AE4670020546142406F5824C
:100CF800E43EF583E4122AD20547E547AE46700282
:100D08000546142406F582E43EF5837401122AD2BE
:100D18000547E547AE4670020546142406F582E409
:100D28003EF583E4122AD27F08129D91900294E046
:100D38007002A3E070F690029EE0FF90029DE06FC3
:100D480060F49002A2122F5990029EE0FF75F0DC29
:100D5800A4F58285F083122BE8F54785F046EFB4B9
:100D680002047F00800690029EE004FF90029EEF3E
:100D7800F0E54764017004E5466405600C90029E46
:090D8800E0FF90029DE0B507B9FF
:100D9100900CD2122ECE000057E4E4FFFEFDFC9031
:100DA1000CD2122EA6D3122DBF4017900CD2122EA8
:100DB1009A74FFFBFAF9F8122C6C900CD2122EC225
:020DC10080D8D8
:0F0DC300E54764017004E54664056003020C9780
:100DD200900CA6E0FBE4FAF9F87F807E967D98FC01
:100DE20012A7B38F4F8E4E8D4D8C4C7808122DE684
:100DF200E4FFE4FDFCC004C005C006C007AF4FAE6F
:100E02004EAD4DAC4C7818122DE6E4FEFDFCD0033D
:100E1200D002D001D000122DA4C004C005C006C06B
:100E220007AF4FAE4EAD4DAC4C7808122DF9E4FF32
:100E3200FEE4FCD003D002D001D000122DA4C004E5
:100E4200C005C006C007AF4FAE4EAD4DAC4C7818D2
:100E5200122DF9E4FFFEFDECD003D002D001D00048
:100E6200122DA4AB49AA4AA94B900006122E76E491
:100E7200754F0AF54EF54DF54CAF4FAE4EAD4DAC3C
:100E82004C7808122DE6E4FFE4FDFCC004C005C066
:100E920006C007AF4FAE4EAD4DAC4C7818122DE6E2
:100EA200E4FEFDFCD003D002D001D000122DA4C07C
:100EB20004C005C006C007AF4FAE4EAD4DAC4C7876
:100EC20008122DF9E4FFFEE4FCD003D002D001D0D9
:100ED20000122DA4C004C005C006C007AF4FAE4E1D
:100EE200AD4DAC4C7818122DF9E4FFFEFDECD003A9
:100EF200D002D001D000122DA4AB49AA4AA94B902E
:100F0200000A122E767546007547080547E547AE7A
:100F12004670020546142406F582E43EF583740108
:100F2200122AD20547E547AE46700205461424064A
:100F3200F582E43EF5837401122AD20547E547AEF5
:100F42004670020546142406F582E43EF583E41257
:100F52002AD20547E547AE4670020546142406F537
:100F620082E43EF583E4122AD20547E547AE467095
:100F7200020546142406F582E43EF5837432122AF1
:100F8200D20547E547AE4670020546142406F582AF
:100F9200E43EF583E4122AD20547E547AE467002E5
:100FA2000546142406F582E43EF5837434122AD2EF
:100FB2000547E547AE4670020546142406F582E46D
:100FC2003EF5837403122AD20547E547AE46700206
:100FD2000546142406F582E43EF583E4122AD2057E
:100FE20047E547AE4670020546142406F582E43E04
:100FF200F583E4122AD20547E547AE46700205465C
:10100200142406F582E43EF583E4122AD20547E56C
:1010120047AE4670020546142406F582E43EF58387
:10102200E4122AD2AD47AC467F077E06129D979006
:101032000294E07002A3E070F690029EE0FF90023C
:101042009DE06F60F49002A2122F5990029EE0FF81
:1010520075F0DCA4F58285F083122BE8F54785F064
:1010620046EFB402047F00800690029EE004FF90E7
:10107200029EEFF0E54764017004E5466405600CEA
:0C10820090029EE0FF90029DE0B507B9CF
:10108E00900CD6122ECE000057E4E4FFFEFDFC902D
:10109E000CD6122EA6D3122DBF4017900CD6122EA0
:1010AE009A74FFFBFAF9F8122C6C900CD6122EC221
:0210BE0080D8D8
:1010C000E54764017004E54664056003020DD290B3
:1010D0000014E070030215AEE4F546F547AB49AAEB
:1010E0004AA94B0547E547AE46700205461424065B
:1010F000F582E43EF583E4122AD20547E547AE4681
:1011000070020546142406F582E43EF583E4122AB3
:10111000D20547E547AE4670020546142406F5821F
:10112000E43EF583E4122AD20547E547AE46700255
:101130000546142406F582E43EF583E4122AD2051E
:1011400047E547AE4670020546142406F582E43EA4
:10115000F583E4122AD20547E547AE4670020546FC
:10116000142406F582E43EF583E4122AD20547E50D
:1011700047AE4670020546142406F582E43EF58328
:10118000E4122AD20547E547AE467002054614240C
:1011900006F582E43EF583E4122AD2AD47AC467FE1
:1011A000167E06129D97900294E07002A3E070F6FE
:1011B00090029EE0FF90029DE06F60F49002A21208
:1011C0002F5990029EE0FF75F0DCA4F58285F08334
:1011D000122BE8F54785F046EFB402047F00800645
:1011E00090029EE004FF90029EEFF0E547640170DC
:1011F00004E5466405600C90029EE0FF90029DE0CD
:03120000B507B976
:10120300900CDA122ECE000057E4E4FFFEFDFC90B2
:101213000CDA122EA6D3122DBF4017900CDA122E21
:101223009A74FFFBFAF9F8122C6C900CDA122EC2A6
:0212330080D861
:10123500E54764017004E546640560030210D8E4DF
:10124500F546F547AB49AA4AA94B0547E547AE46DA
:1012550070020546142406F582E43EF583740512F2
:101265002AD20547E547AE4670020546142406F521
:1012750082E43EF583E4122AD20547E547AE46707F
:10128500020546142406F582E43EF5837404122A09
:10129500D20547E547AE4670020546142406F58299
:1012A500E43EF5837402122AD2E92406F9E43AFAF7
:1012B500E92547F9EA3546FA122EFF50C3000074B6
:1012C500042547F547E43546F546AB49E54B240685
:1012D500F9E4354AFAE92547F9EA3546FA122EFFC7
:1012E5000000000074042547F547E43546F546AB94
:1012F50049AA4AA94B0547E547AE4670020546147B
:101305002406F582E43EF5837405122AD20547E5E5
:1013150047AE4670020546142406F582E43EF58381
:10132500E4122AD2E92406F9E43AFAE92547F9EA6A
:101335003546FA74FA75F000122C2074022547F52B
:1013450047E43546F546AB49E54B2406F9E4354A0D
:10135500FAE92547F9EA3546FA74FA75F000122CD0
:101365002074022547F547E43546F546AB49E54B7C
:101375002406F9E4354AFAE92547F9EA3546FA74C7
:101385006475F000122C2074022547F547E43546B4
:10139500F546AB49E54B2406F9E4354AFAE9254714
:1013A500F9EA3546FA742C75F001122C20740225E1
:1013B50047F547E43546F546AB49AA4AA94B0547E3
:1013C500E547AE4670020546142406F582E43EF56F
:1013D50083E4122AD20547E547AE46700205461456
:1013E5002406F582E43EF583E4122AD20547E54753
:1013F500AE4670020546142406F582E43EF583E404
:10140500122AD20547E547AE467002054614240662
:10141500F582E43EF583E4122AD20547E547AE4658
:1014250070020546142406F582E43EF583E4122A8B
:10143500D20547E547AE4670020546142406F582F7
:10144500E43EF583E4122AD20547E547AE4670022D
:101455000546142406F582E43EF583E4122AD205F6
:1014650047E547AE4670020546142406F582E43E7C
:10147500F583E4122AD20547E547AE4670020546D4
:10148500142406F582E43EF583E4122AD20547E5E5
:1014950047AE4670020546142406F582E43EF58300
:1014A500E4122AD20547E547AE46700205461424E4
:1014B50006F582E43EF583E4122AD20547E547AEF8
:1014C5004670020546142406F582E43EF583E412CF
:1014D5002AD20547E547AE4670020546142406F5AF
:1014E50082E43EF583E4122AD20547E547AE46700D
:1014F500020546142406F582E43EF583E4122AD259
:10150500AD47AC467F247E06129D97900294E0700D
:1015150002A3E070F690029EE0FF90029DE06F60EE
:10152500F49002A2122F5990029EE0FF75F0DCA400
:10153500F58285F083122BE8F54785F046EFB40276
:10154500047F00800690029EE004FF90029EEFF06B
:10155500E54764017004E5466405600C90029EE071
:08156500FF90029DE0B507B9FB
:10156D00900CDE122ECE000057E4E4FFFEFDFC9041
:10157D000CDE122EA6D3122DBF4017900CDE122EAC
:10158D009A74FFFBFAF9F8122C6C900CDE122EC235
:02159D0080D8F4
:0F159F00E54764017004E54664056003021244E9
:0115AE00221A
:109D8200142406F582E43EF583E4122AD27F01AD63
:059D920047AC467E060F
:089D97008E508F518C528D5348
:109D9F0090029F122F5974B5122AC090029F122F52
:109DAF00599000017462122AD2E550900002122AD3
:109DBF00D2E551900003122AD2E553900004122AE3
:109DCF00D2E552900005122AD2E4F555F5547F02E0
:109DDF00FEE5532406FDE43552FCC3EF9DEE9C5087
:109DEF001C90029F122F598F828E83122A60255446
:109DFF00F5542555F5550FBF00010E80D490029FE5
:109E0F00122F59E5532406FFE435528F82F583E56F
:109E1F0054122AD2E5532407FFE435528F82F5837B
:109E2F00E555122AD27B017A027992E5532408FD77
:079E3F00E43552FC02A4F41B
:0646CA008B318A328933B6
:1046D000900DD5E0700804F01200A6024D44AB31F5
:1046E000AA32A933122BBD12301A46FA010249ED43
:0A46F00001064ACE011200004D3E03
:1046FA0074062533F533E43532F5327537007538EB
:10470A000075393FE4F53AF53B7831E475F001126A
:10471A002F49122A47FF783774FFF5F0122F49EF15
:10472A00122AC0053BE53B7002053A6404453A701B
:10473A00D8AC3CEC3350047F0180027F008F40AF3D
:10474A003FAE3EAD3DAC3CEC334002800BAF3FAEDA
:10475A003EAD3DAC3C122DB18F3F8E3E8D3D8C3C23
:10476A00AB34AA35A93690000A122F1900000000AE
:10477A00E4F53AF53BAB34E536240AF9E43535FA83
:10478A00C003C002C001122E0CC004C005C006C07E
:10479A0007E47B0AFAF9F8AF3FAE3EAD3DAC3C12F6
:1047AA00A7B3AC00AD01AE02AF03C004C005C0069A
:1047BA00C007E53BAE3A7802C333CE33CED8F924EC
:1047CA0066F58274A83EF583122EB2D007D006D0C1
:1047DA0005D004122C87A804A905AA06AB07D0079E
:1047EA00D006D005D004122C6CD001D002D003120E
:1047FA002E5CAF3FAE3EAD3DAC3CE47B0AFAF9F825
:10480A0012A7B38F3F8E3E8D3D8C3C053BE53B7036
:10481A0002053A640A453A600302477FE54060159B
:10482A00AB34AA35A93690000A122E2C122DB1905B
:10483A00000A122E7675370075380075393FE4F58F
:10484A003AF53B7831E475F001122F49122A47FFF5
:10485A00783774FFF5F0122F49EF122AC0053BE5AD
:10486A003B7002053A6404453A70D8AC3CEC3350CC
:10487A00047F0180027F008F40AF3FAE3EAD3DAC6A
:10488A003CEC334002800BAF3FAE3EAD3DAC3C1238
:10489A002DB18F3F8E3E8D3D8C3CAB34AA35A93667
:1048AA00900006122F1900000000E4F53AF53BAB20
:1048BA0034E5362406F9E43535FAC003C002C001EE
:1048CA00122E0CC004C005C006C007E47B0AFAF920
:1048DA00F8AF3FAE3EAD3DAC3C12A7B3AC00AD0164
:1048EA00AE02AF03C004C005C006C007E53BAE3A3E
:1048FA007802C333CE33CED8F92466F58274A83E43
:10490A00F583122EB2D007D006D005D004122C8718
:10491A00A804A905AA06AB07D007D006D005D0047B
:10492A00122C6CD001D002D003122E5CAF3FAE3EE7
:10493A00AD3DAC3CE47B0AFAF9F812A7B38F3F8E7F
:10494A003E8D3D8C3C053BE53B7002053A640A45C9
:10495A003A60030248B9E5406015AB34AA35A93676
:10496A00900006122E2C122DB1900006122E76748B
:10497A00042533F533E43532F532753700753800DE
:10498A0075393FE4F53AF53B7831E475F001122FB9
:10499A0049122A47FF783774FFF5F0122F49EF12B0
:1049AA002AC0053BE53B7002053A6404453A70D8D3
:1049BA00AF3FAE3EAD3DAC3CE47BE87A03F9F8127A
:1049CA00A7B38F3F8E3E8D3D8C3CAB34AA35A936BA
:1049DA0090000EEE8FF0122C3F9002EDE04404F0AE
:1049EA00024D44AB31AA32A93390002F122A60FE3D
:1049FA0090002E122A607C002400FFEC3E9002BC3C
:104A0A00F0A3EFF0900031122A60900CACF074021F
:104A1A002533F533E43532F532FAA93390000B1217
:104A2A002A60540D640D6008E4900CACF0024AC48C
:104A3A00E5362403F9E43535853437F5388939E420
:104A4A00F53AF53B7831E475F001122F49122A47FD
:104A5A00FF783774FFF5F0122F49EF122AC0053B91
:104A6A00E53B7002053A6404453A70D8740425336C
:104A7A00F533E43532F532E5362404F9E43535FA0E
:104A8A00E92401F9E43A853437F5388939E4F53A05
:104A9A00F53B7831E475F001122F49122A47FF7865
:104AAA003774FFF5F0122F49EF122AC0053BE53B98
:104ABA007002053A6402453A70D89002EDE0440269
:044ACA00F0024D4465
:104ACE0074062533F533E43532F532AB31FAA933BA
:104ADE00122E0C8F3F8E3E8D3D8C3C7808122DE6AB
:104AEE00E4FFE4FDFCC004C005C006C007AF3FAE46
:104AFE003EAD3DAC3C7818122DE6E4FEFDFCD00335
:104B0E00D002D001D000122DA4C004C005C006C032
:104B1E0007AF3FAE3EAD3DAC3C7808122DF9E4FF39
:104B2E00FEE4FCD003D002D001D000122DA4C004AC
:104B3E00C005C006C007AF3FAE3EAD3DAC3C7818D9
:104B4E00122DF9E4FFFEFDECD003D002D001D0000F
:104B5E00122DA48F3F8E3E8D3D8C3CE47B64FAF982
:104B6E00F812A7B38F3F8E3E8D3D8C3C8E428F4305
:104B7E0074042533F533E43532F532AB31FAA9330B
:104B8E00122E0C8F3F8E3E8D3D8C3C7808122DE6FA
:104B9E00E4FFE4FDFCC004C005C006C007AF3FAE95
:104BAE003EAD3DAC3C7818122DE6E4FEFDFCD00384
:104BBE00D002D001D000122DA4C004C005C006C082
:104BCE0007AF3FAE3EAD3DAC3C7808122DF9E4FF89
:104BDE00FEE4FCD003D002D001D000122DA4C004FC
:104BEE00C005C006C007AF3FAE3EAD3DAC3C781829
:104BFE00122DF9E4FFFEFDECD003D002D001D0005F
:104C0E00122DA48F3F8E3E8D3D8C3CE47B64FAF9D1
:104C1E00F812A7B38F3F8E3E8D3D8C3C8E408F4158
:104C2E0074042533F533E43532F532AB31FAA9335A
:104C3E00122E0C8F3F8E3E8D3D8C3C7808122DE649
:104C4E00E4FFE4FDFCC004C005C006C007AF3FAEE4
:104C5E003EAD3DAC3C7818122DE6E4FEFDFCD003D3
:104C6E00D002D001D000122DA4C004C005C006C0D1
:104C7E0007AF3FAE3EAD3DAC3C7808122DF9E4FFD8
:104C8E00FEE4FCD003D002D001D000122DA4C0044B
:104C9E00C005C006C007AF3FAE3EAD3DAC3C781878
:104CAE00122DF9E4FFFEFDECD003D002D001D000AE
:104CBE00122DA48F3F8E3E8D3D8C3CE47B64FAF921
:104CCE00F812A7B38F3F8E3E8D3D8C3CC3E49FF50B
:104CDE0045E49EF544E5405407FEE47803CEC31345
:104CEE00CE13D8F9AB34AA35A936900010122AD2B9
:104CFE00E5425407FEE47806CEC313CE13D8F990DE
:104D0E000010122A8DE5445403900010122A8DE5EE
:104D1E0041900011122AD2E543900012122AD2E5D8
:0E4D2E0045900013122AD29002EDE04401F0ED
:104D3C008006753A00753B019002EDE06407600354
:104D4C00024F00F0900CACE06003024E7B90000030
:104D5C00E075F015A424C1F9740235F0FA7B01A8B2
:104D6C0036AC35AD347E007F15122A21AB34AA3512
:104D7C00A936122E0CEF24FAFFE43EFEE43DFDE4CE
:104D8C003CFC122E5C900000E0640175F015A4242C
:104D9C00C1F582E43402F583122E9AE4FBFAF9F899
:104DAC00C3122DD57003024E7BAB34E5362406F9C5
:104DBC00E43535FAC003C002C001122E0CC004C089
:104DCC0005C006C007900000E0FF640175F015A453
:104DDC0024C7F582E43402F583122EA6EF75F01584
:104DEC00A424C7F582E43402F583122E9A122C798E
:104DFC00A804A905AA06AB07D007D006D005D00495
:104E0C00122C6CD001D002D003122E5CAB34E536E0
:104E1C00240AF9E43535FAC003C002C001122E0C85
:104E2C00C004C005C006C007900000E0FF64017517
:104E3C00F015A424CBF582E43402F583122EA6EFF0
:104E4C0075F015A424CBF582E43402F583122E9A66
:104E5C00122C79A804A905AA06AB07D007D006D056
:104E6C0005D004122C6CD001D002D003122E5C9011
:104E7C000000E06401F0E075F015A424C1F974029F
:104E8C0035F0A801FC7D01AB34AA35A9367E007F34
:104E9C0015122A2190888AE493FF3395E0FE900244
:104EAC008C75F013EF122F3DEE75F013A42583F5DE
:104EBC0083122F59E92407F9E43A8B37F5388939ED
:104ECC00900CACE0FF7837E475F001122F49EF122B
:104EDC002AC0A839AC38AD37AB34AA35A9367E0018
:104EEC007F15122A21754C00754D167B227D037F90
:044EFC00021290D539
:014F0000228E
:10A8E600EF6004D2B18002C2B1E4FF0FBF14FCC214
:10A8F600B2E4FF0FBF14FCE4FEB2B1E4FF0FBF14D5
:07A90600FC0EBE85F4D2B285
:01A90D002227
:10A93500AF84E4F58475C00475CFF175C30243C0D7
:08A9450040C2C343E6028F8407
:01A94D0022E7
:03003B00029476B6
:10947600C0E0C083C082C0D075D000C000C001C0AB
:0794860002C003C006C0078D
:10948D00C200AFC1EF122FF494DB0894DB1094F8F7
:10949D0018952D2094F828952D30959138953740B5
:1094AD00953248954850957258959560959570955B
:1094BD009E8095CC88959E9095CC989609A095D038
:1094CD00A895D2B895EFC09609C800009591900067
:1094DD003DE0F5C253C2FEA20CE43342C2C2C590B8
:1094ED00003FE4F090003EF0029609900040E0FF4E
:1094FD0090003EE0FED39F5020EE24FFFFE434FFAA
:10950D00FE900041122F598F828E83122A60F5C270
:10951D0090003EE004F0029609D2C4C20B029609F7
:10952D00D2C5029609D2C502960990003FE0B4104B
:10953D0005C2C2029609D2C202960990003FE0C34D
:10954D009410501C900044122F5990003FE0FF04DE
:10955D00F08F82758300E5C2122AD2D2C20296091B
:10956D00C2C2029609900044122F5990003FE0FFAD
:10957D0004F08F82758300E5C2122AD2D2C4C20BC9
:10958D00D2C28078D200807490003EE4F0A3F080C7
:10959D006B900044122F5990003FE0FF04F08F8232
:1095AD00758300E5C2122AD2900040E0FF90003F83
:1095BD00E0C39F40069000477401F0D2C2803DD2B7
:1095CD00C28039800990003EE0D39410502E900057
:1095DD0041122F5990003EE0FF04F08F82758300F9
:1095ED00801590003EE024FFFFE434FFFE90004123
:1095FD00122F598F828E83122A60F5C230001053BC
:10960D00C0BF43C040C2C5C2C4C2C2C20BC200C2A9
:01961D00C389
:10961E00D007D006D003D002D001D000D0D0D08257
:05962E00D083D0E03202
:10A94E00AF84E4F584200BFDD20BC20CD2C58F84EC
:01A95E0022D6
:10002600AF84E4F584200BFDD20BD20CD2C5200B95
:03003600FD8F84B7
:0100390022A4
:1023D40002279AE86480F8E933E83360110460F076
:1023E400ED33EC337009E8FCE9FDEAFEEBFF22046F
:1023F40060DED3EB9FEA9EE99DE8C2E78CF0C2F76A
:1024040095F0400CE8CCF8E9CDF9EACEFAEBCFFB35
:1024140012276585D0F05804700320D5B3E8047002
:10242400075002B2D50227A492D5EC0460F7E4CC9D
:10243400C0E0C398F8603B94186008400DD0E0FBFE
:1024440002277CE4FBFAC9FC8028E830E406E4C9EE
:10245400FBE4CAFCE830E305E4C9CACBFCE8540752
:102464006010F8C3E913F9EA13FAEB13FBEC13FC5D
:10247400D8F130F52FC3E49CFCEF9BFFEE9AFEED00
:1024840099FDD0E0FBEF4E4D4C701222DB03022786
:10249400A1EC2CFCEF33FFEE33FEED33FDED30E722
:1024A400EB02277CEF2BFFEE3AFEED39FDD0E0FB8B
:1024B40050130BBB00030227A4ED13FDEE13FEEF34
:0824C40013FFEC13FC02277C5E
:1024CC00EC4D6011E8497017ED33EC3304600DE40A
:1024DC00FCFFFEFD22E933E8330470F802279A1260
:1024EC00276558046009E4CC248150062850090261
:1024FC0027A42840030227A1C0E0EB4A7044B9800E
:10250C0006D0E0FB022790EF4E701CBD8008EBFF5D
:10251C00EAFEE9FD80EBE98DF0A4FEE5F00225B5BD
:10252C00E9CDF9EAFEEBFFEF89F0A4FCE5F0CE89EA
:10253C00F0A42EFFE435F0CD89F0A42DFEE435F0A7
:10254C008067EF4E7005BD80D780C3EF8BF0A4ACD5
:10255C00F0EE8BF0A42CFCE435F0F8EF8AF0A42C10
:10256C00E5F038FCE433CB8DF0A42CFCE5F03BF823
:10257C00EE8AF0A42CFCE5F038F8E433CF89F0A413
:10258C002CFCE5F038CF3400CE89F0A42FFFE5F019
:10259C003EFEE433C98DF0A42EFEE5F039CD8AF071
:1025AC00A42FFFE5F03EFEE43DFD33D0E0FB5007E9
:1025BC000BBB000F0227A4EC2CFCEF33FFEE33FE19
:0625CC00ED33FD02277C47
:1025D2000227A4EC5D046005E85904700302279AFF
:1025E200122765580460F6EC4860F2EC7004FDFEB8
:1025F200FF22C860DB2481C85009C39860025006DC
:102602000227A19850CAF582E9294B4A7005AB828C
:1026120002279075F0007C1A7880C3EF9BEE9AED4A
:1026220099400DC3EF9BFFEE9AFEED99FDE842F053
:10263200DC23ACF0D0E0FFD0E0FED0E0FDAB8220A6
:10264200E7101BEB60BAEC2CFCEF33FFEE33FEED30
:1026520033FD02277CE803F830E705C0F075F0008F
:10266200EF2FFFEE33FEED33FD40B830E7C280AA14
:1026720074F8CC6480CCC86480C8F582046043C31B
:10268200EB9FF5F0EA9E42F0E99D42F0E89C45F0AE
:1026920060305018E5825FFFE582F42B5582FB50D3
:1026A200210ABA001D09B90019088016E5825BFBF0
:1026B200E582F42F5582FF50090EBE00050DBD00C4
:1026C200010CC3EB9FF5F0EA9E42F0E99D42F0E86F
:0D26D2009C45F06007CC4820E701B3EC22E6
:1026DF00ED33EC33600A047003BD8004ECB2E7FC09
:0126EF0022C8
:1026F00075F020800E75F010800575F0087D007E65
:10270000007F003392D530D503122DB1EC33401049
:10271000EF33FFEE33FEED33FDEC33FCD5F0ED226D
:0E272000E5F0247EA2D513CC92E7CDCEFF22A9
:10272E00EDD2E7CD33EC3392D524814006E4FFFEA3
:10273E00FDFC22FCE4CFCECDCC24E0501174FF8002
:10274E00EDC3CC13CCCD13CDCE13CECF13CF04709F
:07275E00F030D5DE022DB1C1
:10609900E560244CF8E60560227849300902784C1D
:1060A900E475F001122F49022A472002EB7F2ED214
:1060B900028018EF540F2490D43440D4FF30060BDB
:1060C900EF24BFB41A0050032461FFE56160021593
:1060D900610564E5647002056330090D7849E4756A
:1060E900F001122F49EF022AC002A90E7403D20946
:1060F9008003E4C209F5608B498A4A894BE4F5615A
:10610900F563F564E56160077F201260D480F57559
:1061190062FFC203C202C204C205C207C208C20AA0
:106129001260A2FF700D3009057F001260E5AF64AF
:10613900AE6322B4255FC2D5C2061260A2FF24D085
:10614900B40A00501A75F00A786130D50508B6FF0F
:106159000106C6A426F620D5047002D20580D924EA
:10616900CFB41A00EF5004C2E5D2060263D2D203BB
:1061790080C6D20280C0D20480BCD2D580BAD207F0
:1061890080B47F201260D42004077401B5610040F7
:10619900F1126099FF1260D402610DD20AD208800F
:1061A90095126099FB126099FA126099F94A4B703D
:1061B9000679C97A647BFF20042EE561602A7E0096
:1061C9008E82758300122A6060060EEE656270F099
:1061D900C2D5EBC0E0EAC0E0E9C0E0EE126432D01B
:1061E900E0F9D0E0FAD0E0FB122A47FF60AAEBC041
:1061F900E0EAC0E0E9C0E01260D4D0E02401F9D0BF
:10620900E03400FAD0E0FBE5620460DCD562D980B5
:1062190087D20480A212641560F7E5627001041246
:1062290027AFA962600DE562600914F5621264BCCA
:10623900EF60F3EA30E702F404C3995077EAF425F2
:10624900620430E701E404F562800D12641560C14F
:10625900EA056225621227AFEA785FF630E701E4C2
:10626900256204D5620420070114126432E4C0E0F7
:106279001264BC785FE6601320E70714F61260BC6D
:10628900802204F6D0E014C0E07F001260BCE56211
:1062990060071260B31562800B3007031260B3D038
:1062A900E002610DD0E00480C512641560A0E562CA
:1062B900041227AF785FEAF6E5622007026001045D
:0562C900240412643200
:1062CE0074FF04C0E01264BC1260BCE562200702D9
:1062DE0060031260B3D0E0B562E87F451260C67805
:1062EE005FE67F2B30E7047F2DF404C0E01260D40C
:1062FE00D0E075F00A84C0F01260BDD0E01260BD2F
:10630E0002610D791080027908C208C20A8008D293
:10631E00D5790A8004790AC2D5E562047002F56265
:10632E00E4FAFDFEFF126099FC7B08200313126055
:10633E0099FD7B1030020A126099FE126099FF7B64
:10634E0020EC3382D592D55013C3E43002069FFF62
:10635E00E49EFEE42003039DFDE49CFCE4CBF8C226
:10636E0003EC700CCFCECDCCE824F8F870F3801788
:10637E00C3EF33FFEE33FEED33FDEC33FCEB33FBBB
:10638E00994002FB0FD8E9EB300305F8D0E0C44882
:10639E00B203C0E00AEC4D4E4F78207B0070C2EA8B
:1063AE00B5620040BCC0E0126434D0F0D0E02003EF
:1063BE0004C4C0E0C4B203C0F01260BDD0F0D5F08A
:1063CE00EB02610D122FF461AA53631158617B4CDD
:1063DE0061774263154F631D44631D4961904363AA
:1063EE00235562544662B245621E4764E950617F8E
:1063FE002D61832E61A62B61872361A42064D22A8E
:10640E00613F480000619EE562B4FF0375620612AB
:10641E006099FC126099FD126099FE126099FF78E6
:10642E00580227DE790AA2D5200514300709B910C3
:10643E00020404B9080104A2D52008025001042068
:10644E0004689204B561005034C0E07F2030051915
:10645E007F30A20472087207500F12648BC204C2FE
:10646E0008C207C20A7F30800F300703E9C0E0126E
:10647E0060D4300703D0E0F9D0E0B561CC30071717
:10648E007F30B9100C1260D47F583006077F7880A9
:10649E0003B908031260D43004057F2D0260D47F47
:1064AE0020200AF87F2B2008F322920480CF7F0051
:1064BE00B4070050052458F8E6FF22286E756C6C60
:1064CE002900D2031260993003F8C203786130D5E7
:1064DE000108F602613F2D5043495812609924037A
:1064EE00B405004001E49064E4931260C5743A125E
:0A64FE0060C5D20575610402631148
:10276500E9D2E7C933E833F892D5EDD2E7CD33ECBA
:0727750033FC5002B2D52233
:10277C00EC30E7100FBF000C0EBE00080DBD0004BE
:10278C000BEB6014A2D5EB13FCED92E7FD2274FF6A
:10279C00FCFDFEFF22E480F8A2D574FF13FC7D80C3
:0327AC00E480EFD7
:1027AF00F920E72824F950037907E4F42402FB18F1
:1027BF00DBFDE624FB5014E9600DE4F618E604F6A1
:0F27CF00B40A08E4F6D9F57401F60A22C2D5223D
:1027DE00ED33EC3392D5FA602AB4FF33EDC2E77BCA
:1027EE00FF60067A287903E4227A28790C20D50432
:1027FE007A287907224E614E002B494E46002D490C
:10280E004E4600E47A08F608DAFC7B00740722E8EC
:10281E00C0E0ECC0E0EDC0E0EEC0E0EFC0E0EA7575
:10282E00F010A4CAABF075F04DA42BFBE435F0FC10
:10283E00EA2410FAEB34C5FBEC34D9FCEDC2E7FF09
:10284E0075F056A4F42411C5F0F434C58FF0A42A03
:10285E00E5F03BE43CF620E714122911D0E0FFD05E
:10286E00E0FED0E0FDD0E0FC1225D58014F4041279
:10287E002911D0E0FFD0E0FED0E0FDD0E0FC122424
:10288E00CCD0E0F8E6FAEDD2E7CD33EC332482FB80
:10289E00E4C3CF33CFCE33CECD33CD33DBF37B0793
:1028AE0075F00A846004F6081B0AE5F0F6088FF04E
:1028BE00740AA4FFACF08EF0740AA42CFEACF05097
:1028CE00010C8DF0740AA42CFDE435F0F608DBDE65
:0328DE007407225A
:1028E1003F8000004120000042C80000447A0000FF
:1028F100461C400047C35000497424004B18968081
:102901004CBEBC205A0E1BCA6753C21C749DC5AE77
:10291100FB60065407601C232312293FEB543860E7
:102921000912292B12293A1224CCECF8EDF9EEFA0E
:10293100EFCB22EB12293A80F1543803241C902862
:10294100E1FE93FC0EEE93FD0EEE930ECE93FF226D
:0300000002A0D388
:0CA0D300787FE4F6D8FD75817502A11AB3
:10295100E709F608DFFA8046E709F208DFFA803E68
:1029610088828C83E709F0A3DFFA8032E309F60855
:10297100DFFA8078E309F208DFFA807088828C83BD
:10298100E309F0A3DFFA806489828A83E0A3F60871
:10299100DFFA805889828A83E0A3F208DFFA804C4B
:1029A10080D280FA80C680D4806980F28033801022
:1029B10080A680EA809A80A880DA80E280CA80338B
:1029C10089828A83ECFAE493A3C8C582C8CCC58303
:1029D100CCF0A3C8C582C8CCC583CCDFE9DEE780D3
:1029E1000D89828A83E493A3F608DFF9ECFAA9F052
:1029F100EDFB2289828A83ECFAE0A3C8C582C8CCA8
:102A0100C583CCF0A3C8C582C8CCC583CCDFEADEC0
:102A1100E880DB89828A83E493A3F208DFF980CC22
:102A210088F0EF60010E4E60C388F0ED2402B4041B
:102A31000050B9F582EB2402B4040050AF232345C2
:062A410082239029A1731D
:102A4700BB010689828A83E0225002E722BBFE028D
:092A5700E32289828A83E49322C0
:102A6000BB010CE58229F582E5833AF583E022502B
:102A700006E92582F8E622BBFE06E92582F8E22275
:0D2A8000E58229F582E5833AF583E493228F
:102A8D00BB010FF8E58229F582E5833AF583E0284D
:102A9D00F0225009C58229F8E58226F622BBFE09EF
:102AAD00C58229F8E22582F222F8EA2583F583E929
:032ABD0093282239
:102AC000BB010689828A83F0225002F722BBFE01F5
:022AD000F322EF
:102AD200F8BB010DE58229F582E5833AF583E8F03A
:102AE200225006E92582C8F622BBFE05E92582C8E6
:022AF200F222CE
:102AF400EF8DF0A4A8F0CF8CF0A428CE8DF0A42EF6
:022B0400FE22AF
:102B0600BC000BBE0029EF8DF084FFADF022E4CCB3
:102B1600F875F008EF2FFFEE33FEEC33FCEE9DEC7C
:102B2600984005FCEE9DFE0FD5F0E9E4CEFD22EDC2
:102B3600F8F5F0EE8420D21CFEADF075F008EF2F0C
:102B4600FFED33FD4007985006D5F0F222C398FDFD
:052B56000FD5F0EA229A
:102B5B00C2D5EC30E709B2D5E4C39DFDE49CFCEE95
:102B6B0030E715B2D5E4C39FFFE49EFE122B06C3DC
:102B7B00E49DFDE49CFC8003122B0630D507C3E4D7
:062B8B009FFFE49EFE2204
:102B9100C5F0F8A3E028F0C5F0F8E58215827002CF
:062BA1001583E038F0226C
:102BA700A3F8E0C5F025F0F0E582158270021583E1
:062BB700E0C838F0E8223E
:102BBD00BB010A89828A83E0F5F0A3E022500687E3
:102BCD00F009E71922BBFE07E3F5F009E3192289A5
:0B2BDD00828A83E493F5F074019322D8
:102BE800BB0110E58229F582E5833AF583E0F5F02B
:102BF800A3E0225009E92582F886F008E622BBFE08
:102C08000AE92582F8E2F5F008E222E5832AF5834D
:082C1800E993F5F0A3E9932212
:102C2000BB010A89828A83F0E5F0A3F0225006F7FF
:0F2C300009A7F01922BBFE06F3E5F009F31922FC
:102C3F00F8BB0111E58229F582E5833AF583E8F0C7
:102C4F00E5F0A3F0225009E92582C8F608A6F02284
:0D2C5F00BBFE09E92582C8F2E5F008F2226B
:0D2C6C00EF2BFFEE3AFEED39FDEC38FC22B7
:0E2C7900C3EF9BFFEE9AFEED99FDEC98FC2256
:102C8700E88FF0A4CC8BF0A42CFCE98EF0A42CFCEC
:102C97008AF0EDA42CFCEA8EF0A4CDA8F08BF0A46A
:102CA7002DCC3825F0FDE98FF0A42CCD35F0FCEBC9
:102CB7008EF0A4FEA9F0EB8FF0A4CFC5F02ECD398E
:0F2CC700FEE43CFCEAA42DCE35F0FDE43CFC22FB
:102CD60075F008758200EF2FFFEE33FECD33CDCCB5
:102CE60033CCC58233C5829BED9AEC99E582984038
:102CF6000CF582EE9BFEED9AFDEC99FC0FD5F0D615
:102D0600E4CEFBE4CDFAE4CCF9A88222B800C1B93E
:102D16000059BA002DEC8BF084CFCECDFCE5F0CB7C
:102D2600F97818EF2FFFEE33FEED33FDEC33FCEBB5
:102D360033FB10D703994004EB99FB0FD8E5E4F970
:102D4600FA227818EF2FFFEE33FEED33FDEC33FC5D
:102D5600C933C910D7059BE99A4007EC9BFCE99A51
:102D6600F90FD8E0E4C9FAE4CCFB2275F010EF2F96
:102D7600FFEE33FEED33FDCC33CCC833C810D70796
:102D86009BEC9AE899400AED9BFDEC9AFCE899F8D1
:0E2D96000FD5F0DAE4CDFBE4CCFAE4C8F92264
:10A7B300C2D5E830E70FB2D5E4C39BFBE49AFAE4D1
:10A7C30099F9E498F8EC30E717B2D512A7E9122DFE
:10A7D30012E4C39BFBE49AFAE499F9E498F8800342
:10A7E300122D1230D50DE4C39FFFE49EFEE49DFDC0
:04A7F300E49CFC22C4
:0D2DA400EF4BFFEE4AFEED49FDEC48FC222E
:0E2DB100C3E49FFFE49EFEE49DFDE49CFC2233
:102DBF00EB9FF5F0EA9E42F0E99D42F0EC6480C88B
:062DCF0064809845F0222B
:102DD500EB9FF5F0EA9E42F0E99D42F0E89C45F054
:012DE50022CB
:102DE600E8600FECC313FCED13FDEE13FEEF13FFCB
:032DF600D8F122EF
:102DF900E8600FEFC333FFEE33FEED33FDEC33FC38
:032E0900D8F122DB
:102E0C00BB010789828A83022E9A5005E9F80230A9
:102E1C004DBBFE05E9F802305989828A8302306580
:102E2C00BB010DE58229F582E5833AF583022E9AE2
:102E3C005007E92582F802304DBBFE07E92582F8E0
:102E4C00023059E58229F582E5833AF58302306533
:102E5C00BB010789828A83022EC25005E9F8023031
:0A2E6C0075BBFE05E9F80230812273
:102E7600BB010DE58229F582E5833AF583022EC270
:102E86005007E92582F8023075BBFE07E92582F86E
:042E96000230812263
:0C2E9A00E0FCA3E0FDA3E0FEA3E0FF22AB
:0C2EA600E0F8A3E0F9A3E0FAA3E0FB22AF
:102EB200E493F8740193F9740293FA740393FB2276
:0C2EC200ECF0A3EDF0A3EEF0A3EFF02283
:102ECE00A8828583F0D083D082122EE5122EE512D1
:102EDE002EE5122EE5E473E493A3C583C5F0C583F6
:102EEE00C8C582C8F0A3C583C5F0C583C8C582C84E
:012EFE0022B1
:102EFF00BB010789828A83022ECE5005E9F8023082
:0A2F0F008DBBFE05E9F80230A62292
:102F1900BB010DE58229F582E5833AF583022ECEC0
:102F29005007E92582F802308DBBFE07E92582F8B2
:042F39000230A6229A
:0C2F3D00A42582F582E5F03583F583229F
:102F4900FAE6FB0808E6F925F0F618E6CA3AF62289
:092F5900E0FBA3E0FAA3E0F92279
:092F6200EBF0A3EAF0A3E9F02270
:102F6B00BB010DE58229F582E5833AF583022F59E2
:102F7B005007E92582F80230BFBBFE07E92582F82E
:102F8B000230D1E58229F582E5833AF5830230E3FD
:102F9B00BB0120E58229F582E5833AF583D0F0D099
:102FAB00E0F8D0E0F9D0E0FAD0E0FBE8C0E0C0F008
:102FBB00022F625018E92582F8D083D082D0E0F935
:102FCB00D0E0FAD0E0FBC082C0830230C8BBFE1851
:102FDB00E92582F8D083D082D0E0F9D0E0FAD0E0B6
:092FEB00FBC082C0830230DA222F
:102FF400D083D082F8E4937012740193700DA3A36C
:1030040093F8740193F5828883E47374029368607F
:06301400EFA3A3A380DF7F
:10301A00D083D082F8E4937012740193700DA3A345
:10302A0093F8740193F5828883E473740293B5F07C
:0D303A00067403936860E9A3A3A3A380D8E4
:063047008A838982E47314
:10A90E00EFB40A07740D12A919740A309811A89998
:10A91E00B8130CC2983098FDA899C298B811F630A9
:07A92E0099FDC299F5992281
:0FA95F00EFC394204007EF947F50028001C32282
:10000E00E4FFFE122A47600C0FEF70010E09E97033
:05001E00F20A80EF2250
:10A0DF000230EFE493A3F8E493A34003F68001F278
:10A0EF0008DFF48029E493A3F85407240CC8C33382
:10A0FF00C4540F4420C8834004F456800146F6DF51
:10A10F00E4800B0102040810204080909CB9E47E8B
:10A11F00019360BCA3FF543F30E509541FFEE49345
:10A12F00A360010ECF54C025E060A840B8E493A30C
:10A13F00FAE493A3F8E493A3C8C582C8CAC583CA37
:10A14F00F0A3C8C582C8CAC583CADFE9DEE780BEEF
:019D810000E1
:0C304D00E6FC08E6FD08E6FE08E6FF22AF
:0C305900E2FC08E2FD08E2FE08E2FF22B3
:10306500E493FC740193FD740293FE740393FF22B1
:0C307500ECF608EDF608EEF608EFF62287
:0C308100ECF208EDF208EEF208EFF2228B
:10308D00D083D082E493F608740193F6087402930A
:09309D00F608740393F674047341
:1030A600D083D082E493F208740193F208740293F9
:0930B600F208740393F274047330
:0930BF00E6FB08E6FA08E6F92236
:0930C800EBF608EAF608E9F6222D
:0930D100E2FB08E2FA08E2F92230
:0930DA00EBF208EAF208E9F22227
:0C30E300E493FB740193FA740293F92249
:00000001FF
