:10990500436F707972696768742028432920323063
:1099150030342D3920547261636B2053797374652B
:109925006D7320546563686E6F6C6F676965732C22
:10993500204C4C43000200FF000000C0C1C1810162
:1099450040C30103C00280C241C60106C00780C7EB
:10995500410500C5C1C4810440CC010CC00D80CDBA
:10996500410F00CFC1CE810E400A00CAC1CB810B89
:1099750040C90109C00880C841D80118C01980D95B
:10998500411B00DBC1DA811A401E00DEC1DF811FE9
:1099950040DD011DC01C80DC411400D4C1D58115FA
:1099A50040D70117C01680D641D20112C01380D30B
:1099B500411100D1C1D0811040F00130C03180F19A
:1099C500413300F3C1F28132403600F6C1F78137E9
:1099D50040F50135C03480F4413C00FCC1FD813DBA
:1099E50040FF013FC03E80FE41FA013AC03B80FB8B
:1099F500413900F9C1F88138402800E8C1E98129D9
:109A050040EB012BC02A80EA41EE012EC02F80EFEA
:109A1500412D00EDC1EC812C40E40124C02580E5F9
:109A2500412700E7C1E68126402200E2C1E3812308
:109A350040E10121C02080E041A00160C06180A11A
:109A4500416300A3C1A28162406600A6C1A78167E8
:109A550040A50165C06480A4416C00ACC1AD816DB9
:109A650040AF016FC06E80AE41AA016AC06B80AB8A
:109A7500416900A9C1A88168407800B8C1B9817958
:109A850040BB017BC07A80BA41BE017EC07F80BFEA
:109A9500417D00BDC1BC817C40B40174C07580B5F9
:109AA500417700B7C1B68176407200B2C1B3817308
:109AB50040B10171C07080B041500090C191815199
:109AC50040930153C052809241960156C0578097EA
:109AD50041550095C1948154409C015CC05D809DB9
:109AE500415F009FC19E815E405A009AC19B815B88
:109AF50040990159C058809841880148C0498089DA
:109B0500414B008BC18A814A404E008EC18F814FE7
:109B1500408D014DC04C808C41440084C1858145F8
:109B250040870147C046808641820142C043808309
:099B350041410081C180814040E2
:10B5D90050001B00000000000000000000000000F7
:10B5E900000000430C32000000410C3100410CB551
:10B5F9000A41000500027900000275000050002F81
:10B609000000000000000000000000000000000031
:10B61900017D004102B500410CBC0042000200005E
:10B62900410CB80042027800004200570000420273
:10B63900C800A0410CB700410CBB004202CB00007E
:10B6490041000100410004004102FB00410BEB00F5
:10B65900410CB600027E0000027700004202CE00D3
:10B66900004102CA004102FC0041000000410CBD3A
:10B6790000410018004102FA0044002BFFFFFFFFC0
:10B6890044003FFFFFFFFF420016FFFF420019FF82
:05B69900FF4102FD0469
:1017E600E4F52DF52CF52BF52A900CE3F0A3F0A3E8
:1017F6007406F075840F75FFDE75FFAD12C11F12FA
:10180600AAB9120026753E01753F097540557B0140
:101816007A0C792F12B4F712B3BB900CB57414F08E
:10182600E49002CAF012A16E125669E4900CDFF041
:10183600A3F0900CDFE0FAA3E0FB9002DA75F01556
:101846001233E2EA75F015A42583F583123373008B
:101856000000009002D675F015EB1233E2EA75F03F
:1018660015A42583F58312337300000000900CDF66
:10187600E0FAA3E0FB9002D075F0151233E2EA75A8
:10188600F015A42583F5831233730000000090023F
:10189600DE75F015EB1233E2EA75F015A42583F533
:1018A60083E4F0A3F0900CDFE0FEA3E0FF9002D407
:1018B60075F0151233E2EE75F015A42583F583E471
:1018C600F0A3F09002E375F015EF1233E2EE75F037
:1018D60015A42583F583E4F09002E275F015EF1266
:1018E60033E2EE75F015A42583F583E4F09002E16A
:1018F60075F015EF1233E2EE75F015A42583F58326
:10190600E4F09002E075F015EF1233E2EE75F01593
:10191600A42583F583E4F09002E475F015EF123305
:10192600E2EE75F015A42583F583E4F0900CDF75DF
:10193600F001122FDE900CDFE07004A3E064026079
:1019460003021838E4900000F012C0017F007E9672
:1019560012C4BF12C58312C2F5E490028FF0900242
:10196600A27402F09002AB744EF07B017A0279FE0B
:1019760090029E1234077A0979579002B112340701
:101986007A07793890029B1234077A0B79EC900229
:10199600AE123407E490028EF09002A104F0900299
:1019A60098744EF0E49002A3F0A3F0900290F0A396
:1019B600F09002ADF090029AF09002ACF09002998D
:1019C600F01BFAF99002A81234079002A512340708
:1019D6009002951234079002921234070B7A02791C
:1019E6008E7F007EC27D017C00129D75900018E0FE
:1019F6007B017A0279A160067F807E2580047F00C4
:101A06007EE17D007C00129D75900018E060247BCD
:101A1600017A02797E9000531234077A0279B690E1
:101A26000050123407E490004CF0A3F0900056F0FA
:101A360012C56D20E813782A1233477B807A96798F
:091A4600987800D312325A50EADC
:101A4F00900CC01233730000AFC8E4FFFEFDFC9092
:101A5F000CC012332BD31232444017900CC01233E8
:101A6F001F74FFFBFAF9F81230F1900CC0123367B4
:021A7F0080D80D
:101A8100E49002CEF0A3F0F53E753F00754077FB80
:101A91007A00797E12B27AD2AF12B6BA900018E00B
:021AA1006035AE
:101AA300900CC412337300006978E4FFFEFDFC90D0
:101AB3000CC412332BD31232444017900CC412338C
:101AC3001F74FFFBFAF9F81230F1900CC41233675C
:021AD30080D8B9
:101AD500128D661200A6900CBD7401F0E490026BA5
:101AE500F0A3F0A3F0900277F0900271F0A3F090CC
:101AF500026FF0A3F0A2DA3390026EF0900279E063
:101B05002458FE900278E03400900275F0A3CEF0E0
:101B1500900057E0FCA3E0FD2406FEE43C90027330
:101B2500F0A3CEF0ED2409FEE43C900CE1F0A3CE49
:101B3500F0E5D8540360749002FAE0B40202806BB9
:101B45007B017A0079597558007559037F107E021B
:101B550012BB8E9001FFE0540F900008F09001FF3A
:101B6500E054F0C4540F900009F0900008E06403BD
:101B7500702AE5D85403FFBF020890026B7404F085
:101B8500802E900009E090026BB403097403F0A362
:101B95007401F0801B7401F0A3F08014900009E03B
:101BA500B4030890026B7402F08005E490026BF0B8
:101BB500E4900CDFF0A3F0900955E0FEA3E0FF9060
:101BC5000CDFE0FCA3E0FDC39FEC9E501774592D7C
:101BD500F58274003CF583E4F0900CDF75F001129A
:101BE5002FDE80D3900CA6E0F46009E06006900C2F
:101BF5003174E0F09002B5E06020C3900020E094DD
:091C0500B890001FE0940B50118F
:101C0E0012AC7012007E8F38E53830E7F6C2FF80D6
:011C1E00FEC7
:101C1F009002FAE064027040900057E0FEA3E0FFEC
:101C2F00900CE1E0B50613A3E0B5070EA37401F025
:101C3F00900CE1E475F001122FDE30DC0990026D9B
:101C4F007403F0021E7790026D30DB067404F0020D
:101C5F001E777402F0021E7790026BE0640460033B
:031C6F00021E77DB
:101C7200F538900057E0FAA3E0FB900CE1E0B502E2
:101C820013A3E0B5030EA37401F0900CE1E475F028
:101C920001122FDE30DB1790026DE0640470030244
:101CA2001D6C7404F0900CE37401F0021D6C900240
:101CB2006DE0B404297402F0900279E02403FE90EE
:101CC2000278E03400900275F0A3CEF0A2DAE43399
:101CD20090026EF0E4900277F0900CE304F0900230
:101CE20075E0FEA3E0FF900278E0FCA3E0FD6F70D8
:101CF20002EC6E7075A2DA33FF90026EE0FE6F7036
:101D020034900277E0C394025005E004F0804EEE76
:101D1200601290026DE0640260437402F0900CE382
:101D220014F0803990026DE0640160317401F0902A
:101D32000CE3F0802890026DE0640360097403F004
:101D4200900CE37401F090026EE070047F01800257
:101D52007F0090026EEFF09002777401F0ED24584C
:101D6200FEE43C900275F0A3CEF090026CE06004B9
:101D7200A3E0701790026D7401F090026CF0EB24F6
:101D820005FEE43A900273F0A3CEF0900273E0FEF7
:101D9200A3E0FF900057E0B50619A3E0B507149041
:101DA2000273E475F00A122FDE90026DE0B40103B3
:101DB200753801900C31E0B4E103E4F538E53860A0
:101DC2001A90026C7405F0900279E02403FE9002EE
:101DD20078E03400900271F0A3CEF0900271E0FE40
:101DE200A3E0FF900278E0FCA3E0FD6F7002EC6ECE
:101DF2006003021E7790026CE024FD605324FE60B3
:101E02001A1460522404706D90026C7403F0ED2475
:101E120050FEE43C900271F0A3CEF090026CE0B46C
:101E220005177406F0900279E02428FE900278E00B
:101E32003400900271F0A3CEF090026BE024FD60BA
:101E42000B1460042403702DD2CC8029D2CC8025BF
:101E520090026C7404F090026CE0B406037401F01A
:101E620090026BE024FD600B14600424037006C230
:051E7200CC8002C2CC8F
:0B1E77009002921233FEE94A4B602BF0
:101E82009002921233FE8B388A39893A7B007A00AB
:101E92007900900292123407AB38AA39A93AE4FFCA
:0B1EA2001244AF900CDDEEF0A3EFF057
:101EAD00900CA5E020E003D38001C35003021F6313
:101EBD009002CFE094F09002CEE094005003021F08
:011ECD0063B1
:101ECE0012AC7012007E8F38E53830E7F69002FAC9
:101EDE00E0B40204C2CA807690026BE06404706EB5
:081EEE0090026DE064016066E2
:101EF600900CC8123373000DBBA0E4FFFEFDFC90EE
:101F06000CC812332BD31232444017900CC812332C
:101F16001F74FFFBFAF9F81230F1900CC812336700
:021F260080D861
:021F2800D2CC19
:101F2A00900CCC12337300112A88E4FFFEFDFC905A
:101F3A000CCC12332BD31232444017900CCC1233F0
:101F4A001F74FFFBFAF9F81230F1900CCC123367C8
:021F5A0080D82D
:071F5C00C2FFE4F5F880FE6E
:101F630020E803022010C39002CFE094099002CE30
:101F7300E094005003022009900C31E02420600A11
:0A1F830014606014606724E2707CB3
:101F8D00900CA5E030E175127934900057E0FEA376
:101F9D00E0FF900CA8E02FFF900CA7E03E900CBE48
:101FAD00F0A3EFF0900278E0F538A3E0F539753E37
:101FBD0000753F007540777B007A00797E1290990D
:101FCD00900005EFF07008C2B6900C31F0802D90A6
:091FDD000C3174E1F0D2B680234E
:101FE600900CA5E030E11C12AC78900CA6E0F460F1
:101FF6000BE06008900C3174E0F08005E4900C3141
:10200600F0C2B5E49002CEF0A3F0900CB7E07003F6
:10201600022162E4F09002FBE0F460030220F390F8
:1020260002FAE0B40205C2CA0220E790026BE0643D
:0F2036000460030220E790026DE0B40436D2CCC0
:10204500900CD01233730001B774E4FFFEFDFC90D1
:102055000CD012332BD31232444017900CD01233CC
:102065001F74FFFBFAF9F81230F1900CD0123367A8
:0220750080D811
:0A207700C2CC90026DE064016066C7
:10208100900CD4123373000DBBA0E4FFFEFDFC9055
:102091000CD412332BD31232444017900CD4123388
:1020A1001F74FFFBFAF9F81230F1900CD412336768
:0220B10080D8D5
:0220B300D2CC8D
:1020B500900CD812337300112A88E4FFFEFDFC90C2
:1020C5000CD812332BD31232444017900CD812334C
:1020D5001F74FFFBFAF9F81230F1900CD812336730
:0220E50080D8A1
:1020E700C2B3C2B6C2B5C2B4C2FF80FE9002FBE063
:1020F700FF64F07022900C31EFF0E4F57EF57F90ED
:10210700000574FFF0D2B3D2B6D2B5D2B4C2A85389
:10211700E7FD53E7BF8010EFB4F113900C31F0C225
:10212700B3C2B6C2B5C2B4E49002FBF0802DEF642F
:10213700F27028900C31EFF0D2B3D2B6D2B5D2B448
:10214700900C30E024FFFD900C2FE034FFFCE4FB03
:10215700FFFE12BF28E4F58443EF01900C31E0FF46
:1021670064E06008EF64E16003021BF99002B5E0E8
:1021770070030222C2D3900020E094B890001FE0C1
:10218700940B4007E49002B5F080069002B5740105
:10219700F0C3E57A940AE5796480948040067579FE
:1021A70000757A09900018E06007E49002B4F080A7
:1021B70035900021E0FEA3E0FFEF24FBFFEE34EBB8
:1021C700FEE434FFFDE434FFFCE47BE87A03F9F82E
:1021D70012310CE47BE57A24F9F812C3849002B437
:1021E700EFF0E024CEF0900C31E064E16003021BD5
:1021F700F99002FDE06003021BF9C3E576940AE556
:102207007564809480400675750075760990001D89
:10221700E0540FFD90001BE0540FC4F854F0C8E4DD
:10222700C4540F482DFF90006E75F033E57A1233D2
:10223700E2E57975F033A42583F58375F003E57638
:102247001233E2E57575F003A42583F583EFF0906B
:10225700001BA3E0FF90006F75F033E57A1233E2BD
:10226700E57975F033A42583F58375F003E57612D8
:1022770033E2E57575F003A42583F583EFF090004D
:102287001DA3E0FF90007075F033E57A1233E2E5A5
:102297007975F033A42583F58375F003E57612335A
:1022A700E2E57575F003A42583F583EFF00576E580
:1022B700767002057512937F021BF99002ADE0FF5D
:0A22C7009002ACE06F700302256581
:1022D100EF75F0DCA4FF9002B11233FEE92FF9EAA9
:1022E10035F08B38F539893A9002ADE0FFB402043C
:1022F1007F008003EF04FF9002ADEFF09002B4E0A5
:10230100FF90006D75F033E57A1233E2E57975F0EF
:1023110033A42583F583EFF0AE79AF7A7C007D336A
:10232100122F4174592FF974003E753E01F53F8912
:1023310040AB38AA39A93A124D9A90006975F03329
:10234100E57A1233E2E57975F033A42583F583E06C
:1023510054E075F008A4FFAEF090006A75F033E523
:102361007A1233E2E57975F033A42583F583E0FD34
:10237100EEF52EEF4DF52FE52E30E20744F8F52E60
:10238100852F2F90006975F033E57A1233E2E579F4
:1023910075F033A42583F583E0541C75F040A4FF48
:1023A100AEF090006B75F033E57A1233E2E57975A2
:1023B100F033A42583F583E0FDEEF530EF4DF531E3
:1023C100E53030E20744F8F530853131AC30AD31DC
:1023D100EC122B42C004C005C006C007AC30AD31C1
:1023E100EC122B42D003D002D001D000122919C027
:1023F10004C005C006C007AC2EAD2FEC122B42C0A5
:1024010004C005C006C007AC2EAD2FEC122B42D084
:1024110003D002D001D000122919D003D002D0017B
:10242100D00012282812B9A67B5C7A8F7982783F76
:102431001229198F378E368D358C347F747ED17D7C
:102441000D7C40AB37AA36A935A834122919122BB5
:102451007B8E328F33900C31E064E17066E5334559
:1024610032601C900057E0FEA3E0FF900CA8E02F23
:10247100FF900CA7E03E900CBEF0A3EFF0804490DB
:102481000CBEE0FEA3E0FF900057E06E7003A3E0F6
:102491006F7030900CA7E0F47003A3E0F460249017
:1024A1000CA7E07002A3E0601A12AC78900CA6E0D1
:1024B100F4600BE06008900C3174E0F08005E4906A
:1024C1000C31F0900C31E064E06003021BF9900CD8
:1024D100E4E07002A3E0600D900CE474FFF5F012EB
:1024E1002FDE021BF9900CBBE0D394055003021BB5
:1024F100F99002CCE0942C9002CBE09401400302CD
:102501001BF9900CA6E0FFC3E5339FE53294005020
:1025110003021BF9900C3174E1F0127934900057E9
:10252100E0FEA3E0FF900CA8E02FFF900CA7E03E97
:10253100900CBEF0A3EFF0753E00753F007540773B
:102541007B007A00797E129099900005EFF0700976
:10255100C2B6900C31F0021BF9900C3174E1F0D24B
:01256100B6C3
:10256200021BF9900CBCE0FD7017900002E0FEA384
:10257200E0FF900278E06E7003A3E06F6003021B3D
:10258200F9900CB5E0FF74A08FF08475F00AA4FFF7
:10259200900279E02401FB900278E03400CB2FFE18
:1025A200EB35F0900002F0A3CEF0ED700E900CBB74
:1025B200F090000274FFF5F0122FDE900C31E0FF74
:1025C20064E160030228069002FDE0FE7003022629
:1025D20072EF64E16003022672900CBCE0700302A9
:1025E20028069002FAE0B40202D2CA90026BE0FF1F
:0A25F2006054900C31E064E1704C7D
:1025FC00EFB4040790026DE0B4040890026BE06441
:10260C00046039900CB5E0900CDCB428057406F02D
:10261C0080037404F0900CDCE0B5062090026C741E
:10262C0002F090026FE0FEA3E0FF900279E02FFF32
:0C263C00900278E03E900271F0A3EFF0F5
:102648009002FDE014F06003022806F575F576F5B2
:1026580079F57A900956E024FFFE900955E034FF99
:10266800900006F0A3CEF0022806C3E576940AE5AA
:1026780075648094804003022803E5764575707A76
:10268800900C90E0540FFD900C8EE0540FC4F85459
:10269800F0C8E4C4540F482DFF90006E75F033E580
:1026A8007A1233E2E57975F033A42583F58375F062
:1026B80003E5761233E2E57575F003A42583F58307
:1026C800EFF0900C8EE0A3E0FF90006F75F033E51B
:1026D8007A1233E2E57975F033A42583F58375F032
:1026E80003E5761233E2E57575F003A42583F583D7
:1026F800EFF0900C90E0A30227CD90006B75F033BB
:10270800E57A1233E2E57975F033A42583F583750C
:10271800F003E5761233E2E57575F003A42583F539
:1027280083E0FF90006E75F033E57A1233E2E579C5
:1027380075F033A42583F58375F003E5761233E24B
:10274800E57575F003A42583F583EFF090006C75AB
:10275800F033E57A1233E2E57975F033A42583F591
:102768008375F003E5761233E2E57575F003A42569
:1027780083F583E0FF90006F75F033E57A1233E25A
:10278800E57975F033A42583F58375F003E57612B2
:1027980033E2E57575F003A42583F583EFF0900027
:1027A8006D75F033E57A1233E2E57975F033A425D7
:1027B80083F58375F003E5761233E2E57575F0036A
:1027C800A42583F583E0FF90007075F033E57A1255
:1027D80033E2E57975F033A42583F58375F003E5D5
:1027E800761233E2E57575F003A42583F583EFF0DF
:1027F8000576E5767002057502267212BA4CE490E9
:102808000CBCF09002FCF0900CBBE06007B2B5E4A1
:09281800F0021BF9C2B5021BF924
:10BA4C00C3E57A9409E57964809480500302BAE6E0
:10BA5C00900955E0FCA3E0FD7B017A007959857EC5
:10BA6C005D857F5E7F027E0012BCB3E57824FFFF0C
:10BA7C00E57734FFFEC3E57F9FE57E9E402AAD78D7
:10BA8C00AC777F017E0012BE3E900005E0FFAB78E4
:10BA9C00AA77AD7FAC7E12B11CE4900C31F0900C07
:10BAAC00BBF0C2B6C2B58008057FE57F7002057E8B
:10BABC00E4FFFED3900956E09F900955E09E401399
:10BACC0074592FF58274003EF583E4F00FBF00012A
:10BADC000E80E0E4F579F57A8008057AE57A700253
:07BAEC000579E4F575F5761C
:01BAF3002230
:08AC7000C2B3C2B6C2B5C2B402
:10AC7800C2B6C2B5900C31E064E170279002FDE0E5
:10AC880070119002CAE0600BAD78AC777F017E004E
:10AC980012BE3E900005E0FFAB78AA77AD7FAC7E90
:10ACA80012B11C9002FAE0B40205C2CA02AE0790C3
:07ACB800026CE06403707000
:10ACBF00900CE612337300015F90E4FFFEFDFC90F1
:10ACCF000CE612332BD31232444017900CE612339A
:10ACDF001F74FFFBFAF9F81230F1900CE61233678C
:02ACEF0080D80B
:03ACF100E4F5C8BF
:10ACF400900CEA12337300020F58E4FFFEFDFC903F
:10AD04000CEA12332BD31232444017900CEA12335C
:10AD14001F74FFFBFAF9F81230F1900CEA12336752
:02AD240080D8D5
:10AD260090026C7401F0A304F090026BE0FFB4048F
:10AD36000890026DE064046013EF6404700302AED1
:0CAD46000190026CE06404600302AE01A6
:10AD5200900CEE12337300015F90E4FFFEFDFC9055
:10AD62000CEE12332BD31232444017900CEE1233F6
:10AD72001F74FFFBFAF9F81230F1900CEE123367F0
:02AD820080D877
:10AD840090026BE024FD603F1460042403706ED2D3
:01AD9400CCF2
:10AD9500900CF21233730001B774E4FFFEFDFC90D2
:10ADA5000CF212332BD31232444017900CF21233AB
:10ADB5001F74FFFBFAF9F81230F1900CF2123367A9
:02ADC50080D834
:06ADC700C2CC8036D2CCA4
:10ADCD00900CF61233730001B774E4FFFEFDFC9096
:10ADDD000CF612332BD31232444017900CF612336B
:10ADED001F74FFFBFAF9F81230F1900CF61233676D
:02ADFD0080D8FC
:10ADFF00C2CC90026C7401F09002FAE0640260031E
:04AE0F00E4F5C8227C
:10793400900278E0F53DA3E0F53EE4F579F57AF5BB
:1079440075F576900CBBF0A3F0900955E0FEA3E02A
:10795400FF7B017A00795975580075590112BB8E65
:1079640090005CE0540F900BEBF090005DE0900C05
:10797400B6F090005BE075F01690012E1233E2E051
:10798400A3E0540F9002CDF090005BE075F01690E8
:1079940001301233E2E0FFA3E09002C6CFF0A3EF80
:1079A400F0900BEBE024FC601424027027900CB5DB
:1079B4007414F090026FE4F0A374608026900CB508
:1079C4007428F090026FE4F0A37462F09002FD74E6
:1079D40006F08016900CB5740AF090026F7401F0F2
:1079E400A37458F09002FD7404F0900CB6E0900279
:1079F400CAF09002C6E0FCA3E0FD4C700890000CB5
:107A0400F0A3F080679002CDE0701E122B42A80410
:107A1400A905AA06AB07E4FFFE7D7A7C48122A2258
:107A2400122B7B7C007DF080389002CDE0B40F03F4
:107A34007410F09002C6E0FCA3E0FDE4122B42A80F
:107A440004A905AA06AB07E4FFFE7D7A7C48122A46
:107A540022122B7B9002CDE0FD74788DF084FD7CA6
:107A640000122F4190000CEEF0A3EFF0E5D8540380
:107A740070079002CAF0027D517B017A0079597532
:107A840058007559037F107E0212BB8EE4F53BF556
:107A94003C90007175F028E53C1233E2E53B75F04B
:107AA40028A42583F583E024FB601524FB7022744D
:107AB4007A253CF5827402353BF5837403F080200B
:107AC400747A253CF5827402353BF5837402F080A8
:107AD4000F747A253CF5827402353BF5837404F007
:107AE400053CE53C7002053B6404453B70A3E4F5AA
:107AF4003BF53C90007E75F028E53C1233E2E53B13
:107B040075F028A42583F583E0FDE53C25E0FFE539
:107B14003B33FE740F2FF58274003EF583EDF09035
:107B2400007275F028E53C1233E2E53B75F028A4B9
:107B34002583F58312332B90007675F028E53C12EB
:107B440033E2E53B75F028A42583F58312331F1235
:107B54002824C004C005C006C00790007275F02830
:107B6400E53C1233E2E53B75F028A42583F5831246
:107B7400332B90007A75F028E53C1233E2E53B752F
:107B8400F028A42583F58312331F122824D003D0B0
:107B940002D001D000122A22E4FBFAF9F8122ABF1B
:107BA40090007275F02860054003027C2FE53C12BA
:107BB40033E2E53B75F028A42583F58312332B903B
:107BC400007675F028E53C1233E2E53B75F028A415
:107BD4002583F58312331F122824C004C005C00670
:107BE400C00790007275F028E53C1233E2E53B755E
:107BF400F028A42583F58312332B90007A75F0289E
:107C0400E53C1233E2E53B75F028A42583F58312A5
:107C1400331F122824D003D002D001D000122A220C
:107C2400C004C005C006C007027CB5E53C1233E2BF
:107C3400E53B75F028A42583F58312332B90007659
:107C440075F028E53C1233E2E53B75F028A4258362
:107C5400F58312331F122824C004C005C006C007D0
:107C640090007275F028E53C1233E2E53B75F0288C
:107C7400A42583F58312332B90007A75F028E53C14
:107C84001233E2E53B75F028A42583F58312331FF4
:107C9400122824D003D002D001D000122A22122BA1
:107CA4002CAB07AA06A905A804C000C001C002C0E5
:107CB4000390007F75F028E53C1233E2E53B75F054
:107CC40028A42583F583E0FF90008075F028E53C27
:107CD4001233E2E53B75F028A42583F583E0C39FC6
:107CE400FDE49400FCE4122B42D003D002D001D076
:107CF40000122919C004C005C006C00790007F7592
:107D0400F028E53C1233E2E53B75F028A42583F521
:107D140083E0FCE4122B47D003D002D001D0001240
:107D24002828122B7BAD07E53C25E0FFE53B33FE1D
:107D3400740E2FF58274003EF583EDF0053CE53CAE
:107D44007002053B6404453B6003027AF79002CA63
:107D5400E030E7034403F0E4F53BF53CD3900956E7
:107D6400E0953C900955E0953B40187459253CF545
:107D7400827400353BF583E4F0053CE53C70DD0599
:037D84003B80D968
:017D870022D9
:09937F009002CAE0700302965A44
:03938800753B062C
:10938B00AF3B9002CAE0FEA807088002C313D8FCCB
:10939B0020E00302964CE53B123499952100951879
:1093AB000194090294090393C70493C70593BF065D
:1093BB00000095AEE5D8F4F53C0295AEAF3BEF332C
:1093CB0095E0FEEF25E0FFEE33FE741F2FF5827460
:1093DB00003EF583E0FEA3E0FFAD3BED3395E0FCF3
:1093EB0074782DF58274023CF583E0FDEFA8050837
:0E93FB008005CEC313CE13D8F9F53C0295AE13
:10940900E4F53DAF3BEF3395E0FEEF25E0FFEE33AA
:10941900FE741F2FF58274003EF583E0FEA3E0FF82
:10942900AD3BED3395E0FC74782DF58274023CF583
:1094390083E0FBEFA803088005CEC313CE13D8F948
:10944900F53C74062DF58274003CF583E0640260F6
:10945900030295AEAF3BEF3395E0FEEF25E0FFEE5B
:1094690033FE740B2FF58274003EF583E06023040C
:10947900604624FE706A740A2FF58274003EF583F3
:10948900E0FFE53CD39F40047F0180027F008F3DD0
:10949900804EAF3BEF3395E0FEEF25E0FFEE33FE64
:1094A900740A2FF58274003EF583E0B53C047F0110
:1094B90080027F008F3D8028AF3BEF3395E0FEEFC0
:1094C90025E0FFEE33FE740A2FF58274003EF58322
:1094D900E0FFE53CC39F50047F0180027F008F3D80
:1094E900E53D6015E53B2402FF7401A807088002E9
:1094F900C333D8FC42C80295AEE53B2402FF740190
:0F950900A807088002C333D8FCF452C80295AEFD
:09951800900269E0F53C0295AEF9
:10952100900269E0FEA3E0FFF53C90000CE0FCA393
:10953100E0FD4C6078EF4E6074D3ED9FEC9E5038A7
:10954100E4F53DF53E7408253EF5827400353DF5A0
:1095510083E0B40113E53E2404FF7401A8070880E9
:1095610002C333D8FCF452C8053EE53E7002053D06
:109571006402453D70CF8035E4F53DF53E74082524
:109581003EF5827400353DF583E0B40112E53E24D9
:1095910004FF7401A807088002C333D8FC42C80540
:0D95A1003EE53E7002053D6402453D70D080
:1095AE0075450075460075473C900006E0FAA3E04D
:1095BE00FB7D017C007F017E0012BD3D900006E028
:1095CE007002A3E0600C90000674FFF5F0122FDE1F
:1095DE00806CAD78AC777F017E0012BE3EE57824BC
:1095EE00FFFFE57734FFFEC3E57F9FE57E9E402AB1
:1095FE00900005E0FFAB78AA77AD7FAC7E12B11C70
:10960E00E4900C31F0900CBBF0C2B6C2B59002FAE9
:10961E00E064026029E4F5C88024E57815787002CC
:10962E001577900955E0FCA3E0FD24FFFEEC34FF16
:0E963E00900006F0A3CEF07F017E0012BF95D3
:0E964C00153BC3E53B64809480400302938B82
:01965A0022ED
:10C06A008B5C8A5D895EE92DF9EA3C8B5FF5608914
:10C07A0061E4F562F563C3856083856182E55E9557
:10C08A0082E55D9583502F785CE475F0011233EEFA
:10C09A00122E94FFE5636F25E0FFE433FE743E2F12
:10C0AA00F58274993EF583E562FFE493F5627401C3
:0AC0BA00936FF56380C0AE62AF63C0
:01C0C4002259
:10B3BB00E4900D86F07B017A0C793512C176900CF6
:10B3CB009EE07004A3E064F9700C900CA0E0700494
:10B3DB00A3E064086018900C9EE4F0A374F9F0905D
:10B3EB000CA0E4F0A37408F0900D867401F0900C9F
:10B3FB0087E0B4FF17900018E0900C87600574C8C5
:10B40B00F080037464F0900D867401F0900C86E06C
:10B41B00640160077401F0900D86F0900C2FE0FC36
:10B42B00A3E0FDB40015ECB41011900CA3E030E4D4
:10B43B000AE054EFF0900D867401F0E4B50515ECBD
:10B44B00B42011900CA3E020E40AE04410F0900D1E
:10B45B00867401F0900C35E0FF12005E400D900CED
:10B46B0035E06007E4F0900D8604F0900C49E0FFA6
:10B47B0012005E400D900C49E06007E4F0900D86E1
:10B48B0004F0900C5DE0FF12005E400D900C5DE04F
:10B49B006007E4F0900D8604F0900CA6E0B4FF0773
:10B4AB00E4F0900D8604F0900CA7E0B4FF11A3E03C
:10B4BB00B4FF0CE4900CA7F0A3F0900D8604F09071
:10B4CB000D86E0601012C4917B017A0C79357D807A
:10B4DB007C0012BEB9900018E06010900CA5E03013
:0BB4EB00E4047F0080027F0112C4E92E
:01B4F6002233
:10C49100AF84E4F584781EF608F6A2AF33FEC2AF8E
:10C4A10043B701758F0718E6FC08E6F5828C83E433
:0DC4B100F0F58F53B7FEEE24FF92AF8F849D
:01C4BE00225B
:0ABEB9008B4F8A5089518C528D5333
:10BEC300858454E4F584781EF608F6A2AF33FFC2E6
:10BED300AF43B701758F05E4F555F556C3E55695A0
:10BEE30053E5526480F8E5556480985029784FE40F
:10BEF30075F0011233EE122E94FE781E0806E61832
:10BF0300860470010614F5828C83EEF00556E5561F
:10BF130070CA055580C6E4F58F53B7FEEF24FF9230
:04BF2300AF8554840E
:01BF270022F7
:06C176008B4F8A50895135
:10C17C00858452E4F553F554F584A2AF33F555C2DA
:10C18C00AF758F04E4FFFE0554E554AC5370020503
:10C19C005314F5828C83E493FD784FE475F001120F
:10C1AC0033EEED122F0D0FBF00010EEF64804E70B9
:0DC1BC00D6E4F58FE55524FF92AF8552843F
:01C1C9002253
:0EBCB3008E568F578C588D598B5A8A5B895C40
:09BCC10012007EEF30E7F9C2F930
:10BCCA00E4F561F5620562E562700205616440456A
:03BCDA006170F2A4
:10BCDD00E5576401455670047F8480027F8712000A
:10BCED003EE4FF12003EE4FF12003EE4FF12003E70
:10BCFD00E4F55FF560C3E5609559E5586480F8E5B6
:10BD0D005F648098501DAB5AAA5BA95C85608285E3
:10BD1D005F83122EADFF12003E0560E56070D60503
:10BD2D005F80D2D2F9AD5EAC5DAF57AE5602BE3E6E
:08BE3E008E638F648C658D6634
:10BE4600900955E0FEA3E0FF12BAF48F6712007E58
:06BE5600EF30E7F9C2F92C
:10BE5C00E4F568F5690569E56970020568644045B3
:03BE6C006870F209
:10BE6F00E5676010E5646401456370047F838012A9
:10BE7F007F86800EE5646401456370047F828002D3
:10BE8F007F8512003EE566AE657806CEA2E713CE3B
:10BE9F0013D8F8FF12003EAF66EF25E025E0FF1242
:09BEAF00003EE4FF12003ED2F94E
:01BEB8002267
:0CBD3D008E3F8F408C418D428A438B4426
:09BD490012007EEF30E7F9C2F9A7
:10BD5200E4F54AF54B054BE54B7002054A64404554
:03BD62004A70F232
:10BD6500E5406401453F70047F8480027F871200AF
:10BD75003EE4FF12003EE5435403FF12003EAF448C
:10BD8500E54412003EE4F548F549C3E5499542E529
:10BD9500416480F8E548648098501DAB45AA46A9E2
:10BDA50047854982854883122EADFF12003E05491D
:0ABDB500E54970D6054880D2D2F9A6
:01BDBF002261
:08BF95008E418F428C438D4464
:09BF9D0012007EEF30E7F9C2F951
:10BFA600E4F547F5480548E548700205476440450D
:03BFB6004770F2DF
:10BFB900E5426401454170047F8480027F87120055
:10BFC9003EE4FF12003EE4FF12003EE4FF12003E91
:10BFD900E4F545F546C3E5469544E5436480F8E54F
:10BFE90045648098500F7FFF12003E0546E5467074
:07BFF900E4054580E0D2F9E8
:01C00000221D
:02007E00C2F9C5
:10008000E4F573F5740574E5747002057364404516
:030090007370F298
:0C0093007FD712003EE4FF12003ED2F9BD
:01009F00223E
:0ABB8E008E538F548B558A56895749
:09BB980012007EEF30E7F9C2F95A
:10BBA100E4F55CF55D055DE55D7002055C644045AD
:03BBB1005C70F2D3
:10BBB4007FD212003EE559AE587806CEA2E713CEE6
:10BBC40013D8F8FF12003EAF59EF25E025E0FF122D
:10BBD400003EE4FF12003EE4FF12003EE4FF1200C8
:10BBE4003EE4FF12003EE4FF12003EE4F55AF55B2A
:10BBF400C3E55B9554E5536480F8E55A6480985036
:10BC04001FE4FF12003EAB55AA56A957855B8285F7
:10BC14005A83EF122F1F055BE55B70D4055A80D061
:02BC2400D2F953
:01BC260022FB
:08BAF4008E6A8F6B8C6C8D6D66
:0CBAFC00756E0112007EEF30E7F9C2F910
:10BB0800E4F571F5720572E57270020571644045DD
:03BB18007170F257
:10BB1B007FD212003EE56DAE6C7806CEA2E713CE57
:10BB2B0013D8F8FF12003EAF6DEF25E025E0FF12B2
:10BB3B00003EE4FF12003EE4FF12003EE4FF120061
:10BB4B003EE4FF12003EE4FF12003EE4F56FF57099
:10BB5B00C3E570956BE56A6480F8E56F6480985077
:10BB6B001DE4FF12003EBFFF047F0180027F008FA8
:10BB7B006EEF600A0570E57070D6056F80D2D2F952
:02BB8B00AF6E9B
:01BB8D002295
:04C263008E528F5315
:09C2670012007EEF30E7F9C2F984
:10C27000E4F554F5550555E55570020554644045FF
:03C280005470F205
:10C283007F5012003EE553AE527806CEC313CE1351
:10C29300D8F9FF12003EAF53EF25E025E0FF12006F
:08C2A3003EE4FF12003ED2F957
:01C2AB002270
:04C2AC008E538F54CA
:09C2B00012007EEF30E7F9C2F93B
:10C2B900E4F555F5560556E55670020555644045B1
:03C2C9005570F2BB
:10C2CC007F8112003EE554AE537806CEC313CE13D5
:10C2DC00D8F9FF12003EAF54EF25E025E0FF120025
:08C2EC003EE4FF12003ED2F90E
:01C2F4002227
:06BF28008C4D8D4E8B4F85
:10BF2E00E54F6002C2B68E508F51D3E551954EE566
:10BF3E0050954D504BE55154077034C3E54E955115
:10BF4E00FFE54D9550FEC3EF9408EE94004020E5BA
:10BF5E004F6008E551543F7002B2B6AF51AE501269
:10BF6E00C26374072551F551E43550F5508007AF83
:10BF7E0051AE5012C2AC0551E55170AE055080AABB
:06BF8E00E54F6002C2B69F
:01BF9400228A
:06B4F7008B3B8A3C893DFD
:06B4FD00D2F8D2F9C2FAF8
:10B50300E4F541F5420542E54270020541644045D8
:03B513004170F292
:02B51600D2FA67
:10B51800E4F541F5420542E54270020541644045C3
:03B528004170F27D
:10B52B0012007EEF543C123499B54D0CB55714B53F
:10B53B00611CB56B24B5862CB5A134B5BC3C0000A1
:10B54B00B5D8AB3BAA3CA93D7402801CAB3BAA3CD3
:10B55B00A93D74048012AB3BAA3CA93D740880083A
:10B56B00AB3BAA3CA93D741075F0001230A5AB3E65
:10B57B00AA3FA940740175F008804FAB3BAA3CA9C8
:10B58B003D741075F0001230A5AB3EAA3FA9407474
:10B59B000275F0108034AB3BAA3CA93D742075F0CA
:10B5AB00001230A5AB3EAA3FA940740275F0108083
:10B5BB0019AB3BAA3CA93D742075F0001230A5AB2A
:0DB5CB003EAA3FA940740475F0201230A57F
:01B5D8002250
:10FE00008E4E8F4F8E4E8F4FE4F550F551A2AF338B
:10FE1000F552C2AFE4F58443B701758F03C3E550D3
:10FE200094FC50168551828550837488F0E42551E6
:10FE3000F55174043550F55080E3E4F58FF550F535
:10FE400051F555F55675840FE55654037002B2B658
:10FE500012FFB58F57E55730E7F6C2F9E4F558F5CC
:10FE6000590559E559700205586440455870F27FAC
:10FE7000D212FFA4E556AE557806CEC313CE13D8E2
:10FE8000F9FF12FFA412FF9CE4FF12FFA4E4FF128B
:10FE9000FFA4E4FF12FFA4E4FF12FFA4E4FF12FF9B
:10FEA000A4E4F553F554E4FF12FFA474592554F566
:10FEB0008274003553F583EFF00554E55470020564
:10FEC00053C3E553940240DED2F9E4F584758F0103
:10FED000F553F55474592554F58274003553F58360
:10FEE000E0FF0551E551AC507002055014F5828CCD
:10FEF00083EFF00554E55470020553B400D6E55382
:10FF0000B402D1E4F58F0556E55670020555C39449
:07FF10007FE555940050034A
:10FF170002FE45E4F58F53B7FEE55224FF92AFE4A6
:10FF2700F5D075840FF555F556C3E5559420505413
:10FF3700E556543F7002B2B512FFB58F57E55730FB
:10FF4700E7F6C2F9E4F558F5590559E55970020580
:10FF5700586440455870F27F5012FFA4E556AE55DD
:10FF67007806CEC313CE13D8F9FF12FFA412FF9C55
:10FF7700E4FF12FFA4D2F974082556F556E4355567
:10FF8700F55580A512FFB58F57E55730E7F6E4F52D
:05FF97008443EF01228C
:10FF9C00AF56EF25E025E0FFAE84E4F5848F9B306F
:09FFAC00FFFDC2FFAF9B8E842211
:10FFB500C2F9E4F55AF55B055BE55B7002055A6429
:10FFC50040455A70F27FD712FFA4E4FF12FFA4D276
:02FFD500F9220F
:10A36200900C3174E2F090993AE493FFAB3CAA3D31
:10A37200A93E900001122EADFDE4F556F5577B067D
:04A382008F538B5515
:10A386007558FFE4F559F55AED90993A93F55B74D3
:10A39600312DF582E4340CF5837464F090993AE437
:10A3A60093B55319E55564066013E5556415600DBC
:10A3B600742B2DF582E4340CF583E555F0E55B75D9
:10A3C600F013A4249BF582E43402F5831233FE7461
:10A3D60016122F0DE55B75F013A4249BF582E43469
:10A3E60002F5831233FE900001E553122F1FE55B41
:10A3F60075F013A4249BF582E43402F5831233FE30
:10A40600900002ED122F1F74022557F557E43556BA
:10A41600F556FFE55B75F013A4249BF582E4340240
:10A42600F5831233FE900003EF122F1FE55B75F0E4
:10A4360013A4249BF582E43402F5831233FE9000C4
:10A4460004E557122F1FE55B75F013A4249BF582D4
:10A45600E43402F5831233FE900005E555122F1FF2
:10A46600E4FEFFE55B75F013A4249BF582E4340259
:10A47600F5831233FE8F828E83122EAD62580FBF84
:10A4860000010EEF64064E70DAE55B75F013A42446
:10A496009BF582E43402F5831233FE900006E558FC
:10A4A600122F1F74FE2557F55774FF3556F556E5DE
:10A4B6005B75F013A4249BF582E43402F583123312
:10A4C600FEE92407F9E43AFAAD57AC5612C06A8E93
:10A4D600598F5AEEFFE55B75F013A4249BF582E4D1
:10A4E6003402F5831233FE0557E5577002055624EC
:10A4F60006F582E43556F583EF122F1FE55B75F0FE
:10A5060013A4249BF582E43402F5831233FE055727
:10A51600E557700205562406F582E43556F583E5BF
:10A526005A122F1FE55B75F013A4248EF9740235B9
:10A53600F0FA7B01E5572407FDE43556FC12C0C549
:09A54600E5572407FFE43556FE39
:01A54F0022E9
:0844AF008F3B8B3C8A3D893EE6
:1044B700E4900CF2F0A3F0900003122EADFE9000F2
:1044C70004122EAD7C002400FFEC3ECF24FECF3437
:1044D700FFFE900CF4F0FCA3EFF0FDE92407F9E4EC
:1044E7003AFA12C219900CF2EEF0A3EFF04E603ACE
:1044F700AB3CAA3DA93E900005122EADFF64157096
:1045070003024D91EF64067003024D919000011272
:104517002EAD2431F582E4340CF5837464F09000F9
:0A45270001122EADFF7D0402491AB7
:10453100AB3CAA3DA93E900002122EADFF90993AE4
:10454100E4936F70030245EBEFF470030245EBEF68
:1045510093FF3395E0FE90029B75F013EF1233E267
:10456100EE75F013A42583F5831233FEE92407F9D0
:10457100E43A8B44F5458946E53E2407F9E4353DA7
:10458100853C41F5428943E4F53FF540D3900CF574
:10459100E09540900CF4E0953F40247841E475F0BB
:1045A100011233EE122E94FF7844E475F0011233B8
:1045B100EEEF122F0D0540E54070D1053F80CDABE8
:1045C1003CAA3DA93E900001122EADFF90000212BF
:1045D1002EADFD900005122EADFB900CF4E0F556CA
:1045E100A3E0F55712A382024D91AB3CAA3DA93E2F
:1045F100900005122EAD123499464F06468A104698
:104601007315494F304A74314A9C324AC4334BB412
:10461100344AEC354B14364B3C374BB4384B643988
:104621004B8C3A48644048B84148B8424BE0504C42
:10463100325149845547977047F47146B0904D1DEA
:10464100914BD8934A3C9447389800004D5D9000B7
:1046510001122EAD242BF582E4340CF583AB3CAA78
:104661003DA93E900001122EAD242BF582E4340CBD
:104671008010AB3CAA3DA93E122E94242CF582E475
:10468100340CF583E4F0024D4A900C31E0FF64E113
:104691006004EFB4E20512C1CA800312A368900C52
:0F46A100F2EEF0A3EFF0AB3CAA3DA93E024D4A6A
:1046B000900C31E0FF64E16004EFB4E20512C1CA7E
:1046C0008065AB3CAA3DA93E900007122EADFE903E
:1046D0000008122EAD7C002400F548EC3EF547E5BD
:1046E0003B75F013A4249BF582E43402F583123366
:1046F000FEE92407F9E43AFA900955E0FEA3E0FF49
:1047000085475885485912BB8E90993AE493FFAB80
:104710003CAA3DA93E900001122EADFD900955E046
:10472000F556A3E012A37E900CF2EEF0A3EFF0ABEF
:084730003CAA3DA93E024D4ADE
:10473800900C31E0FF64E16004EFB4E20512C1CAF5
:10474800803CAB3CAA3DA93E900007122EADFE90DE
:104758000008122EAD7C002400F548EC3EF5479089
:104768000955E0FCA3E0FDE92409F9E43AFA854794
:104778005D85485E7F027E0012BCB312A368900C70
:0F478800F2EEF0A3EFF0AB3CAA3DA93E024D4A82
:10479700900C31E0FF64E16004EFB4E20512C1CA96
:1047A700803AE53B75F013A4249BF582E43402F5C7
:1047B700831233FEE92407F9E43AFA12C176909995
:1047C7003AE493FFAB3CAA3DA93E900001122EADFF
:1047D700FD7556007557807B0612A382900CF2EE8A
:1047E700F0A3EFF0AB3CAA3DA93E024D4A900C3135
:1047F700E0FF64E16004EFB4E20512C1CA804D1224
:10480700C491AB3CE53E2407F9E4353DFA900CF43E
:10481700E0FEA3E0FFC39480EE94005006AC06AD23
:104827000780047C007D8012BEB97B017A0C793544
:1048370012C176900018E06010900CA5E030E404F7
:104847007F0080027F0112C4E912A368900CF2EE88
:0D485700F0A3EFF0AB3CAA3DA93E024D4A94
:10486400900C31E0FFF547AB3CAA3DA93E90000116
:10487400122EAD2431F582E4340CF583E4F0EF64B8
:10488400E16007900C31E0B4E20C900001122EAD0F
:10489400FF7D2002491A12A362900CF2EEF0A3EFFE
:1048A400F0AB3CAA3DA93E900007122EADFF12AE1C
:0448B400130249465C
:1048B800900C31E0FFF547AB3CAA3DA93E900005BE
:1048C800122EADFE7C00B441047D0080027D058C73
:1048D800488D49EE900C30E024FFFD900C2FE03419
:1048E800FFFC8C4A8D4BAB3CAA3DA93E90000112BF
:1048F8002EAD2431F582E4340CF583E4F0EF64E165
:104908006007900C31E0B4E217900001122EADFF61
:104918007D2012C1D9900CF2EEF0A3EFF0024D9178
:1049280012A362900CF2EEF0A3EFF0E4FFFE12C2C5
:10493800AC7B01AD4BAC4AAF49AE4812BF28900CD6
:0749480031E547F0024D913B
:10494F0012A368900CF2EEF0A3EFF0AB3CAA3DA9D6
:10495F003E900001122EAD2431F582E4340CF58324
:10496F00E4F012007E8F47E54730E7F6E4F5844325
:05497F00EF01024D9163
:1049840012A368900CF2EEF0A3EFF07B017A0279A7
:0C4994008E7F007EE17D007C00129D758E
:1049A000900CE612337300004650E4FFFEFDFC90CD
:1049B0000CE612332BD31232444017900CE612331C
:1049C0001F74FFFBFAF9F81230F1900CE61233670E
:0249D00080D88D
:1049D200E4F584C2ACC298D29975840153E7BFC290
:0349E20098D299CF
:1049E50075840F30E815C39002CFE094099002CE8C
:1049F500E094004006E4F58443EF01E4F584309843
:104A050017758401309911C299F584859947C29823
:104A1500B2B47584018547997584013098C2E4F56F
:104A2500843099BCC299758401859947C298B2B5FD
:054A3500F5848547999E
:104A3A0080A912A368900CF2EEF0A3EFF0AB3CAAA7
:104A4A003DA93E900001122EAD2431F582E4340CCA
:104A5A00F583E4F0900018E07003024D919000078E
:104A6A00122EADFF12C4E9024D9112A368900CF206
:104A7A00EEF0A3EFF0AB3CAA3DA93E900001122E46
:104A8A00AD2431F582E4340CF583E4F012367D026C
:104A9A004D9112A368900CF2EEF0A3EFF0AB3CAA92
:104AAA003DA93E900001122EAD2431F582E4340C6A
:104ABA00F583E4F0125D91024D9112A368900CF215
:104ACA00EEF0A3EFF0AB3CAA3DA93E900001122EF6
:104ADA00AD2431F582E4340CF583E4F012965B02DE
:104AEA004D9112A368900CF2EEF0A3EFF0AB3CAA42
:104AFA003DA93E900001122EAD2431F582E4340C1A
:104B0A00F583E4F0126AE6024D9112A368900CF262
:104B1A00EEF0A3EFF0AB3CAA3DA93E900001122EA5
:104B2A00AD2431F582E4340CF583E4F01264850295
:104B3A004D9112A368900CF2EEF0A3EFF0AB3CAAF1
:104B4A003DA93E900001122EAD2431F582E4340CC9
:104B5A00F583E4F0127D88024D9112A368900CF25D
:104B6A00EEF0A3EFF0AB3CAA3DA93E900001122E55
:104B7A00AD2431F582E4340CF583E4F01274DA02E0
:104B8A004D9112A368900CF2EEF0A3EFF0AB3CAAA1
:104B9A003DA93E900001122EAD2431F582E4340C79
:104BAA00F583E4F012B6BA024D91AB3CAA3DA93E98
:104BBA00900001122EAD2431F582E4340CF583E421
:104BCA00F0900005122EADFF1289E6024D91900277
:104BDA00FB74FF024CB5900C31E064F07027754FFE
:104BEA0001755000755105AB3CAA3DA93E12B84863
:104BFA0012A368900CF2EEF0A3EFF0057FE57F7048
:104C0A001E057E801AAB3CAA3DA93E900001122ED9
:104C1A00ADFF7D0812C1D9900CF2EEF0A3EFF0AB14
:104C2A003CAA3DA93E024D4A900C31E0B4F114ABC6
:104C3A003CAA3DA93E900007122EADFF900005E068
:104C4A006F6072AB3CAA3DA93E900001122EADFFE7
:104C5A007D0812C1D9900CF2EEF0A3EFF0AB3CAA9A
:104C6A003DA93E900001122EAD2431F582E4340CA8
:044C7A00F583E4F0EA
:104C7E00900CEA1233730000AFC8E4FFFEFDFC9007
:104C8E000CEA12332BD31232444017900CEA123333
:104C9E001F74FFFBFAF9F81230F1900CEA12336729
:024CAE0080D8AC
:104CB0009002FB74F2F0900CB77401F0024D911267
:104CC000A368900CF2EEF0A3EFF0AB3CAA3DA93E36
:104CD000900001122EAD2431F582E4340CF583E40A
:014CE000F0E3
:104CE100900CEE1233730000AFC8E4FFFEFDFC90A0
:104CF1000CEE12332BD31232444017900CEE1233C8
:104D01001F74FFFBFAF9F81230F1900CEE123367C1
:024D110080D848
:104D1300AF7FAE7E12C3C8024D91900CB77401F001
:104D2300AB3CAA3DA93E900007122EAD9002FBF0CA
:104D330090993AE493FF12A374900CF2EEF0A3EF70
:104D4300F0AB3CAA3DA93E900001122EAD2431F5F3
:104D530082E4340CF583E4F08034AB3CAA3DA93EF5
:104D6300900001122EAD2431F582E4340CF58374E6
:104D730064F0900001122EADFF7D0212C1D9900C98
:0E4D8300F2EEF0A3EFF074FF900CF2F0A3F04C
:084D9100900CF2E0FEA3E0FF2C
:014D990022F7
:0AC219008B4C8A4D894E8C4F8D50DE
:10C2230012C06A8E518F52AB4CAA4DA94E855082D3
:10C23300854F83122EAD7F00FEE5502401FDE435CA
:10C243004F8D82F583122EAD2FFFE43EFEE552B5EE
:0FC253000709E551B50604E4FEFF227EFF7FFFD9
:01C2620022B9
:0FC1CA00AB3CAA3DA93E900001122EADFF7D2097
:10C1D900AE07EE90993A93FB3395E0FA90029B757E
:10C1E900F013EB1233E2EA75F013A42583F58312F9
:10C1F90033FE900007ED122F1F90993AE493FFAD9B
:10C20900067556007557017B1512A382E4FEFF22BD
:06B848008B4C8A4D894E75
:10B84E00E4F552F553900003122EADFE9000041253
:10B85E002EADFDEEF554EDF555E4F552F553E555E7
:10B86E0024FEFFE55434FFFEC364809482500280B0
:10B87E00047E027F00C3E5539FEE6480F8E55264B8
:10B88E0080985048AB4FAA50A951C003C002C001C6
:10B89E00122E94FFAB4CAA4DA94EE5532407FDE49E
:10B8AE0035528D82F583122EADFE74592553F582D5
:10B8BE0074003552F583EEF06FD001D002D0031232
:10B8CE002F0D0553E5537096055280927E00E57F4D
:10B8DE005401FF900955E0FCA3E0FD7B017A00794D
:0AB8EE0059857E5D857F5E02BCB3C4
:04C3C8008E4C8F4DBB
:10C3CC0090FE00E493FE740193FF900CF9EEF0A341
:10C3DC00EFF0BE8012BFFE0F7B007AFE7902900C4C
:0EC3EC00F61234070234ECAF7FAE7E12FE0074
:01C3FA002220
:10C42E00564F4C5453004F4E004F464600447269CF
:10C43E0076657241004361724100547261636B41D3
:10C44E0000416E616C6F6778004469676974616C56
:02C45E00780064
:06B27A008B3B8A3C893D7C
:10B280007B017A007959E4F558F5597F107E021256
:10B29000BB8EAB3BAA3CA93DE475F0041230A590EF
:10B2A0000C2FE0FFA3E0AB3EAA3FA940CF8FF012E6
:10B2B00030A5E4900CE6F0900CE6E0FFC394154056
:10B2C0000302B3A175F019EF9000591233E2E0FECA
:10B2D000A3E0F47002EEF4700302B398900CE6E081
:10B2E00075F01990005B1233E2E0FCA3E0F4700209
:10B2F000ECF4700302B398AB3BAA3CA93D12300AB0
:10B30000FDACF075F019EF90005B1233E2E0FEA3A4
:10B31000E0D39DEE9C4014900CE6E075F01990008F
:10B320005B1233E2E0FEA3E0FF8004AE04AF05ABA6
:10B330003BAA3CA93DEE8FF01230A5900CE6E0FF51
:10B3400075F01990006D1233E2E0FCA3E0F4700296
:10B35000ECF46044AB3EAA3FA94012300AFDACF0C9
:10B3600075F019EF90006D1233E2E0FEA3E0C39D8B
:10B37000EE9C5014900CE6E075F01990006D1233BD
:10B38000E2E0FEA3E0FF8004AE04AF05AB3EAA3FBF
:10B39000A940EE8FF01230A5900CE6E004F002B266
:10B3A000B7AB3BAA3CA93DE475F00112306DAB3E52
:0BB3B000AA3FA94074FFF5F002306DC9
:069099008B3B8A3C893D7F
:10909F0090003F123373FFFFFFFF90002B123373CB
:1090AF00FFFFFFFF74FF900019F0A3F0900016F080
:1090BF00A3F07B017A0C79E67558007559017F1082
:1090CF007E0212BB8E900CE6E0900EF6F0900CE74D
:1090DF00E0900EF7F0900CE8E0900EF8F0900CE9AD
:1090EF00E0540F900EF9F0E024FC600C2402701095
:1090FF00900CB57414F0800E900CB57428F08006A7
:10910F00900CB5740AF09000067402F0A3740FF07F
:10911F009002CAE030E7034403F0900955E0FCA346
:10912F00E0FD7F017E0012BF9512C0011200A67BE9
:10913F00017A0C79E6E4F558F5597F107E0212BBDF
:10914F008EAB3BAA3CA93DE475F0041230A5E49028
:10915F000EFAF0900C2FE0FFA3E0AB3EAA3FA94020
:10916F00CF8FF01230A5E4900EFBF0900EFBE0FFD6
:10917F00C39415400302927575F019EF900CE61227
:10918F0033E2E0FEA3E0FFBEFF16BFFF13900EFA1F
:10919F00E0600302926CA3E004900EFAF002926C6E
:1091AF00900EFBE0FF75F019900CE81233E2E0FC33
:1091BF00A3E0F47002ECF4700302926CAB3BAA3C98
:1091CF00A93D12300AFDACF075F019EF900CE812C2
:1091DF0033E2E0FEA3E0D39DEE9C4014900EFBE043
:1091EF0075F019900CE81233E2E0FEA3E0FF800463
:1091FF00AE04AF05AB3BAA3CA93DEE8FF01230A5F4
:10920F00900EFBE0FF75F019900CFA1233E2E0FCC0
:10921F00A3E0F47002ECF46044AB3EAA3FA9401205
:10922F00300AFDACF075F019EF900CFA1233E2E052
:10923F00FEA3E0C39DEE9C5014900EFBE075F01959
:10924F00900CFA1233E2E0FEA3E0FF8004AE04AF0D
:10925F0005AB3EAA3FA940EE8FF01230A5900EFB52
:10926F00E004F002917A900EFAE07002FF22AB3E1A
:10927F00AA3FA94012300AFFAEF0AB3BAA3CA93D72
:10928F0012300AC39FE5F09E40037F0022E475F081
:10929F000112306DAB3EAA3FA94074FFF5F01230BA
:1092AF006DAB3BAA3CA93D12300AFFAEF0D394053B
:1092BF00EE9400400280047E007F05900EFAE0FDE0
:1092CF0075F019900CCD1233E2EEF0A3EFF090028F
:1092DF00CAE0FF600EAB3EAA3FA94012300AFBAABC
:1092EF00F080047AFF7BFF75F019ED900CDF1233DD
:1092FF00E2EAF0A3EBF075F019ED900CE11233E216
:10930F0074FFF0A3F075F019ED900CDE1233E2EF5D
:10931F00F0900EF6E0FF75F019ED900CE31233E2CA
:10932F00EFF0900EF8E0FF75F019ED900CE41233AA
:10933F00E2EFF0900EF7E0FF75F019ED900CE512EB
:10934F0033E2EFF0900EF9E0FF75F019ED900CDDC0
:10935F001233E2EFF07B017A0C79E6E4F55DF55E0E
:0F936F007D107C027F02FE12BCB3900EFAE0FF6D
:01937E0022CC
:0AB11C008F3F8C408D418A428B4327
:10B12600153F7B017A0E79FEE4F558F5597F107EBE
:10B136000212BB8E74FFFFFEFDFC90002B12332B18
:10B14600C312325A705F75F019E53F900F0812333B
:10B15600E2123373FFFFFFFF75F019E53F900F0210
:10B166001233E2123373FFFFFFFF75F019E53F90CC
:10B176000F0C1233E274FFF0A3F075F019E53F905F
:10B186000F061233E274FFF0A3F075F019E53F9055
:10B196000F001233E274FFF0A3F075F019E53F904B
:10B1A6000EFE02B25D90002B12331F75F019E53FBB
:10B1B600900F021233E2123367900016E0FEA3E00E
:10B1C600FF75F019E53F900F061233E2EEF0A3EF9C
:10B1D600F090003F12331F75F019E53F900F0812EB
:10B1E60033E2123367900019E0FEA3E0FF75F01911
:10B1F600E53F900F0C1233E2EEF0A3EFF075F01975
:10B20600E53F900F001233E2E540F0A3E541F090F0
:10B2160002CAE0602A75F019E53F900F101233E27A
:10B22600E0FEA3E0F47002EEF4601475F019E53F59
:10B23600900F121233E2E542F0A3E543F080207549
:10B24600F019E53F900F121233E274FFF0A3F07588
:10B25600F019E53F900F101233E274FFF0A3F07B74
:10B26600017A0E79FEE4F55DF55E7D107C027F02C3
:04B27600FE02BCB365
:10A16E00E4900EFCF0A3F07B017A0C79EAF558F539
:10A17E00597F107E0212BB8EE4900EFCF0A3F0907D
:10A18E000EFCE0FEA3E0FFC39415EE940040030224
:10A19E00A361900CEA75F019EF1233E2EE75F01927
:10A1AE00A42583F583E0FEA3E0F47002EEF47003C1
:10A1BE0002A354900EFCE0FEA3E0900CF275F01991
:10A1CE001233E2EE75F019A42583F583E0FCA3E0CB
:0AA1DE00F47002ECF4600302A342E7
:10A1E800900EFCE0FCA3E0FD900CEA75F019123328
:10A1F800E2EC75F019A42583F583E0FBA3E0900E4B
:10A20800FACBF0A3EBF0900CFC75F019ED1233E2E9
:10A21800EC75F019A42583F583E0FDA3E0900CE626
:10A22800CDF0A3EDF0900CFE75F019EF1233E2EECD
:10A2380075F019A42583F583E0FFA3E0900CE8CF1F
:10A24800F0A3EFF07B017A0C79EA900EFAE0F5586A
:10A25800A3E0F5597F107E0212BB8E900CEA1233F0
:10A268001F90002B123367900CEEE0FFA3E09000E4
:10A2780016CFF0A3EFF0900C30E024FFFF900C2FE6
:10A28800E034FFFEC3900EFBE09F900EFAE09E4084
:10A298000302A3427B017A0C79EAE0F558A3E0F5C2
:10A2A800597F107E0212BB8E74FFFFFEFDFC900CDE
:10A2B800EA12332BC312325A70737B017A0C79EA93
:10A2C800900EFBE024FFF559900EFAE034FFF558A4
:10A2D8007F107E0212BB8E900CEA12331F90003F53
:10A2E800123367900CEEE0FFA3E0900019CFF0A3C3
:10A2F800EFF0900CE8E0B4FF12A3E0B4FF0D900C6F
:10A30800E6E0FFA3E0A3CFF0A3EFF0900EFCA3E0FC
:10A3180004FF900EFBE024FFFD900EFAE034FFFCF2
:10A32800900CE8E0FAA3E0FB12B11C800D900EFA45
:0AA33800E475F001122FDE02A27E90
:10A342007B017A0C79EAE4F558F5597F107E021206
:0FA35200BB8E900EFCE475F001122FDE02A18D80
:01A3610022D9
:02AE13008F4C62
:10AE15007B017A0C79F6E4F558F5597F107E02121C
:10AE2500BB8E75F019E54C900CDD1233E2E0FEA304
:10AE3500E0F47002EEF4603B75F019E54C900CDF20
:10AE45001233E2E0FEA3E0F47002EEF4602575F043
:10AE550019E54C900CDD1233E2E0FEA3E0FF75F03E
:10AE650019E54C900CDF1233E2E0FCA3E0FD7B0119
:10AE750012BF287B017A0C79F6E4F558F5597F1055
:10AE85007E0212BB8E75F019E54C900CEF1233E281
:10AE9500E0FEA3E0F47002EEF4603B75F019E54CBA
:10AEA500900CF11233E2E0FEA3E0F47002EEF460E0
:10AEB5002575F019E54C900CF11233E2E0FEA3E0A4
:10AEC500FF75F019E54C900CEF1233E2E0FCA3E0BE
:10AED500FD7B0112BF287B017A0C79F6E4F558F564
:10AEE500597F107E0212BB8E75F019E54C900CF15E
:10AEF5001233E274FFF0A3F075F019E54C900CEFF6
:10AF05001233E274FFF0A3F075F019E54C900CDFF5
:10AF15001233E274FFF0A3F075F019E54C900CDDE7
:10AF25001233E274FFF0A3F075F019E54C900CE7CD
:10AF35001233E2123373FFFFFFFF75F019E54C90F2
:10AF45000CE11233E2123373FFFFFFFF75F019E5D1
:10AF55004C900CEB1233E274FFF0A3F075F019E599
:10AF65004C900CE51233E274FFF0A3F075F019E58F
:10AF75004C900CEE1233E2E4F075F019E54C900CB0
:10AF8500ED1233E2E4F07B017A0C79F6F55DF55EBE
:0AAF95007D107C027F02FE02BCB3B7
:10566900E4F53C7B017A0D790BF5587559017F10EA
:105679007E0212BB8E74FFFFFEFDFC900D0B1233F0
:105689002BC312325A6003025767753C01900D0D06
:10569900F0900D0CF0900D0BF0900D0F7480F090C0
:0856A9000D0E7402F0E4F53B64
:1056B10078E67C0C7D017BFF7AC4793B7E007F0814
:1056C100122E6EE53B2441900CECF0E53B75F01099
:1056D100A42410F9740D35F0A801FC7D017B017A39
:0656E1000C79E61235BE53
:0A56E700053BE53BB40CC3E4F53BC2
:1056F10078EE7C0C7D017BFF7AC479437E007F05C7
:10570100122E6EE53B2441900CF1F0E53B75F0164D
:10571100A424D0F9740D35F0A801FC7D017B017A38
:105721000C79EE1235BE75F016E53B900DE01233A3
:10573100E2E4F0A37404F075F016E53B900DE2127B
:1057410033E27417F0A37470F075F016E53B900D19
:0B575100E41233E2741BF0A37458F064
:10575C00053BE53B640C708D02583E900D0BE0D37D
:10576C00940C4005E4F0753C01900D0CE0D39410C2
:10577C004005E4F0753C01900D0DE0D3940C400510
:10578C00E4F0753C01E4F53B75F010E53B900D1031
:10579C001233E2E0FF12005E401E75F010E53B9004
:1057AC000D101233E2E0601075F010E53B900D1017
:1057BC001233E2E4F0753C01053BE53BC3940C402D
:1057CC00C7E4F53B75F016E53B900DD01233E2E0E3
:1057DC00FF12005E405375F016E53B900DD012336E
:1057EC00E2E0604575F016E53B900DD01233E2E433
:1057FC00F075F016E53B900DE01233E2E4F0A37483
:10580C0004F075F016E53B900DE21233E27417F0DC
:10581C00A37470F075F016E53B900DE41233E2744E
:10582C001BF0A37458F0753C01053BE53BC3940C8D
:10583C004092E53C60177B017A0D790B755D007524
:10584C005E017D107C027F027E0012BCB37B017A6C
:10585C000D790B7558007559027F107E0212BB8EA4
:10586C00E4F53C900D0BE0F46003025908A3E0F45E
:0A587C006003025908753C01F53B7A
:1058860078F37C0C7D017BFF7AC479487E007F0724
:10589600122E6EE53B2441900CF8F0E53B75F01CAA
:1058A600A4240BF9740D35F0A801FC7D017B017A67
:1058B6000C79F31235BE75F01CE53B900D1F1233C3
:1058C600E21233730000000075F01CE53B900D1BDF
:1058D6001233E21233730000000075F01CE53B90B2
:1058E6000D231233E2E4F0A3F075F01CE53B900DB6
:0858F600251233E2E4F0A3F0F7
:1058FE00053BE53B64107080807EE4F53B75F01C43
:10590E00E53B900D0B1233E2E0FF12005E40607536
:10591E00F01CE53B900D0B1233E2E0605275F01C6B
:10592E00E53B900D0B1233E2E4F075F01CE53B9075
:10593E000D1F1233E21233730000000075F01CE5E8
:10594E003B900D1B1233E21233730000000075F012
:10595E001CE53B900D231233E2E4F0A3F075F01C2E
:10596E00E53B900D251233E2E4F0A3F0753C010502
:10597E003BE53BC394104085E53C60177B017A0DF7
:10598E00790B755D00755E027D107C027F027E00D4
:10599E0012BCB3E4F53C7B017A0D790BF5587559C1
:1059AE00047F107E0212BB8E900D0BE0F46003029A
:1059BE005A72A3E0F46003025A72753C01F53B750E
:1059CE00F00CE53B900D0F1233E212337300000022
:1059DE000075F00CE53B900D0B1233E212337300A1
:1059EE0000000075F00CE53B900D131233E2E4F06D
:1059FE00A3F075F00CE53B900D151233E2E4F0A325
:0B5A0E00F0053BE53BB410B7E4F53BAE
:105A190075F014E53B900DCD1233E2E4F0A3F07577
:105A2900F014E53B900DCB1233E2E4F0A3F0F53D21
:105A3900F53EE53E25E0FFE53D33FE75F014E53B17
:105A4900900DCF1233E2E5822FF582E5833EF5838F
:105A5900E4F0A3F0053EE53E7002053D6408453DCE
:025A690070D0FB
:105A6B00053BE53BB40CA7E53C60177B017A0D7950
:105A7B000B755D00755E047D107C027F027E00124B
:105A8B00BCB3E4F53C7B017A0D790BF558755903E2
:105A9B007F107E0212BB8E74FFFFFEFDFC900D0B80
:105AAB0012332BC312325A6003025C51753C01F561
:015ABB003BAF
:105ABC0078FA7C0C7D017BFF7AC4794F7E007F08DD
:105ACC00122E6EE53B2430900D00F0E53B75F0286E
:105ADC00A4240BF9740D35F0A801FC7D017B017A2F
:105AEC000C79FA1235BEE53B75F028A42417F9742D
:105AFC000D35F0A801FC7D017BFF7AC4792E12359F
:105B0C00BE75F028E53B900D231233E27414F0754A
:105B1C00F028E53B900D241233E2123373000000A1
:105B2C000075F028E53B900D281233E212337341D7
:105B3C00A0000075F028E53B900D2C1233E21233D7
:105B4C007341A0000075F028E53B900D301233E254
:105B5C007401F075F028E53B900D311233E2E4F05E
:0E5B6C0075F028E53B900D321233E274F8F02C
:0E5B7A00053BE53B64046003025ABCE4F53BC6
:105B880078027C0D7D017BFF7AC479577E007F09FE
:105B9800122E6EE53B2430900D09F0E53B75F0249C
:105BA800A424ABF9740D35F0A801FC7D017B017AC2
:105BB8000D79021235BEE53B75F024A424B7F974BB
:105BC8000D35F0A801FC7D017BFF7AC479341235CC
:105BD800BEE53B75F024A424C3F9740D35F0A80183
:0C5BE800FC7D017BFF7AC479371235BECA
:105BF400053BE53BB4078DE4F53B75F005E53B90CB
:105C04000EA91233E2E4F0A3F075F005E53B900E23
:105C1400A71233E2E4F0A3F075F005E53B900EAB78
:105C24001233E27401F0053BE53BB402CDE4F53BED
:105C340074B1253BF582E4340EF583E4F0053BE5CD
:105C44003BB402EC900EB17403F0025D75E4F53BD5
:105C540075F028E53B900D0B1233E2E0FF12005E75
:105C64005003025CF775F028E53B900D0B1233E20C
:105C7400E07003025CF775F028E53B900D0B1233DE
:105C8400E2E4F075F028E53B900D231233E274143E
:105C9400F075F028E53B900D241233E212337300C3
:105CA40000000075F028E53B900D281233E2123312
:105CB4007341A0000075F028E53B900D2C1233E2EF
:105CC40012337341A0000075F028E53B900D3012AB
:105CD40033E27401F075F028E53B900D311233E2A4
:105CE400E4F075F028E53B900D321233E274F8F0DD
:105CF400753C01053BE53BC394045003025C54E44A
:105D0400F53B75F024E53B900DAB1233E2E0FF1256
:105D1400005E405475F024E53B900DAB1233E2E095
:105D2400604675F024E53B900DAB1233E2E4F0E5F8
:105D34003B75F024A424B7F9740D35F0A801FC7D5B
:105D4400017BFF7AC479341235BEE53B75F024A497
:105D540024C3F9740D35F0A801FC7D017BFF7AC4DE
:105D640079371235BE753C01053BE53BC3940740CA
:105D740091E53C60177B017A0D790B755D00755ECA
:0C5D8400037D107C027F027E0012BCB385
:015D900022F0
:10C001008584417B017A0C793512C176900018E064
:10C01100702EF58475D98075D84075DA4275DB428A
:10C02100900C9AE0A3E0F5FB900C9AE0A3E0F5FCFC
:10C03100900C9CE0A3E0F5FD900C9CE0A3E0F5FEE4
:10C04100900CB5E0FD7C007E057F00122F538E7BA6
:10C051008F7CE4F58475E8C075D107F5BAF5BB7539
:08C06100BC7043E70285418435
:01C0690022B4
:03007B0002A902D5
:10A90200C0E0C0F0C083C082C0D075D000C000C01B
:0BA9120002C003C004C005C006C0075F
:10A91D00758400C2EDE57D25E0242FF582E4340039
:10A92D00F583E5BF85BEF0122FDEE57D123499A9C2
:10A93D005800A96001A96802A97B03A98304A98B0A
:10A94D0005A99306A99B070000A9A175BB01757DFB
:10A95D0001804175BB02757D028039900018E06061
:10A96D000575BB07800375BB08757D03802675BB18
:10A97D0003757D04801E75BB04757D05801675BB42
:10A98D0005757D06800E75BB06757D07800675BB4A
:10A99D0000757D00E57C157C7002157B14457B6090
:04A9AD000302AA9463
:10A9B100900CB5E0FF74A08FF0841313543F7522FF
:10A9C10000F523E4FBFAEB64034A7026900018E0DB
:10A9D1007020900CB5E075F00A84FF7E0090003580
:10A9E100E0FCA3E0FD122F41900021EEF0A3EFF077
:10A9F1008037EB25E0FFEA33FE742F2FF5827400D8
:10AA01003EF583E0FEA3E0FFAC22AD23122F53AC51
:10AA110006AD07EB25E0FFEA33FE741B2FF58274C8
:10AA2100003EF583ECF0A3EDF0EB25E0FFEA33FE09
:10AA3100742F2FF58274003EF583E4F0A3F00BBB75
:10AA410000010AEB64084A600302A9C7900004E010
:10AA51007029900C94E0FEA3E0FF900C93E02FFF8F
:10AA6100900C92E03EFE90001BE0FCA3E0FDC3EFE2
:10AA71009DFFEE9C90001BF0A3EFF0900CB5E0FD64
:10AA81007C007E057F00122F538E7B8F7C9002B558
:03AA91007401F05D
:0CAA9400E57D7003D38001C34002D2ECCA
:10AAA000D007D006D005D004D003D002D000D0D03B
:09AAB000D082D083D0F0D0E03256
:03B69E000119FF90
:10AAB90085843B75840F75E1EF75E20775E344758D
:10AAC900A4157580EA75ADFF75A53D759001E4F58E
:10AAD900A675A0FFF59E75E8FFE5E854E0FFBFC045
:10AAE900047F0180027F00900018EFF0600875B0C4
:10AAF9007975A7FE800675B07E75A7F8E4F5C87567
:10AB09009CFFF59D75D8FF900018E0FF600875F867
:10AB190097759FF78006759FFF75F8F7EF6004C278
:10AB2900FC8002D2FCD2B3C2B6C2B5C2B430D803DB
:09AB390002AC6C20D90302AC6CE3
:10AB4200E4F53CF53DEF6002D2FBD2B4C2C8C2CA02
:10AB5200900CE612337300001194E4FFFEFDFC90AA
:10AB62000CE612332BD31232444017900CE6123308
:10AB72001F74FFFBFAF9F81230F1900CE6123367FA
:02AB820080D879
:0EAB840020DB0302AC6620DC0302AC66D2CA02
:10AB9200900CEA12337300001194E4FFFEFDFC9066
:10ABA2000CEA12332BD31232444017900CEA1233C0
:10ABB2001F74FFFBFAF9F81230F1900CEA123367B6
:02ABC20080D839
:10ABC400E4F53CF53D30DC10053DE53D7002053C07
:0EABD400B488F2E53CB413ED30DC0302AC664D
:0FABE200753F55D2B5E4F53EE53F1392C8B2CAB0
:10ABF100900CEE123373000008CAE4FFFEFDFC90D6
:10AC01000CEE12332BD31232444017900CEE123358
:10AC11001F74FFFBFAF9F81230F1900CEE12336752
:02AC210080D8D9
:10AC2300E53FC313F53F053EE53EB408BAE4F53C02
:10AC3300F53D20DC10053DE53D7002053CB488F28E
:10AC4300E53CB413ED9002FA30DC077402F0D2B69F
:10AC530080037401F0D2C8C2CAD2B3C2B4C2B5C2AF
:01AC6300B63A
:08AC640080069002FA7401F071
:03AC6C00853B84A1
:01AC6F0022C2
:10C2F500AF84E4F584F5D875D980F5F9F5FAF5E953
:10C3050075EA0C75DC4675D840900CB9F0A3F09031
:10C315000269F0A3F0F584C28C758905438E08F592
:10C325008AF58CC28DD28C758401758880758930AB
:07C33500D2A943E6308F841A
:01C33C0022DE
:0DC58300AF84E4F584C289D288D2A88F84E9
:01C590002288
:03005B0002AF9F52
:10AF9F00C0E0C0F0C083C082C0D075D000C000C078
:0DAFAF0001C002C003C004C005C006C007F9
:10AFBC0053E6CF758400AF8CEFFEAD8A7C00E42D98
:10AFCC00F525EC3EF524900CB9E0FEA3E0FFC3E5BB
:10AFDC00259FFFE5249EFED3EF9464EE940050036E
:10AFEC0002B0F8C28C758A00758C00C28DD28CE5CB
:04AFFC0019F4704193
:10B00000F519F526AE24AF25E52625E02443F58283
:10B01000E43400F583EEF0A3EFF0E4FCFDE51D2F32
:10B02000FFE51C3EFEED351BFDEC351A8F1D8E1C19
:0EB030008D1BF51A0526E526B404C9900269A9
:10B03E0002B0EA0519E519C394044003751900E539
:10B04E001925E02443F582E43400F583E0FEA3E005
:10B05E00FBC3E51D9BFFE51C9EFEE51B9400FDE575
:10B06E001A94008F1D8E1C8D1BF51AAE24AF25E58C
:10B07E001925E02443F582E43400F583EEF0A3EFC6
:10B08E00F0E4FCFDE51D2FFFE51C3EFEED351BFD3E
:10B09E00EC351A8F1D8E1C8D1BF51AE47B04FAF904
:10B0AE00F8AC1A1231978E248F25C390026AE09560
:10B0BE0025FF900269E09524FEC394004006AC067D
:10B0CE00AD078009C3E49FFFE49EFCAD07900269C3
:10B0DE00E0C313FFC3ED9FEC94004007E524F0A3FB
:10B0EE00E525F0900CB9E4F0A3F07584015388CFF8
:03B0FE0043E630F6
:10B10100D007D006D005D004D003D002D001D000A2
:0BB11100D0D0D082D083D0F0D0E0324C
:0300530002C33DA8
:10C33D00C0E0C083C082C0D075D000C004C005C0AD
:10C34D0006C00753E6CF758400AF8CEFFEAD8A7C37
:10C35D0000E42DFFEC3E900CB9F0A3EFF0758401D5
:10C36D005388CF43E630D007D006D005D004D0D0C7
:07C37D00D082D083D0E03232
:03000B0002C3FB32
:10C3FB00C0E0C083C08253E6CF758400C28C758ABF
:10C40B0000758C00D28C900CB9E4F0A3F09002690B
:10C41B00F0A3F07584015388CF43E630D082D083EC
:03C42B00D0E0322C
:0300030002BDC07B
:10BDC000C0E0C0F0C083C082C0D075D000C000C049
:09BDD00003C004C005C006C00751
:10BDD900A2AFE433FB900CBC7401F0900CB5E0FD0C
:10BDE9007C007E057F00122F538E7B8F7C757D0032
:10BDF9007F1090002FE4F0A3DFFCC2AF53E7FE757C
:10BE09008400C2ECC2ED75BB0075840175C800746D
:0EBE1900FFF5CDF5CC43E70143C8042B92AFF3
:10BE2700D007D006D005D004D003D000D0D0D08220
:07BE3700D083D0F0D0E0320F
:02FDFE0080FE85
:1081C500257300506C61636520756E697420666C5B
:1081D5006174206F6E206C6576656C2073757266B0
:1081E5006163652E00466C6970206F7665722E207E
:1081F5004661636520646F776E2E00486F6C64205E
:10820500766572746963616C2C2047505320616EEA
:1082150074656E6E61206A61636B2075702E00480F
:108225006F6C6420766572746963616C2C204750AD
:108235005320616E74656E6E61206A61636B2064A4
:108245006F776E2E005374616E64206F6E207269B5
:1082550067687420736964652E005374616E6420C9
:108265006F6E206C65667420736964652E00496EB7
:1082750076657274696E6720582056616C756573F2
:1082850000496E76657274696E6720592056616C77
:1082950075657300496E76657274696E67205A203C
:1082A50056616C7565730020005A65726F20506FBA
:1082B500696E74733A20582025752C205920257530
:1082C5002C205A20257500582052616E67653A208A
:1082D50025752C20257500592052616E67653A2059
:1082E50025752C202575005A2052616E67653A2048
:1082F50025752C2025750053746F72696E672043B0
:10830500616C6962726174696F6E20446174612089
:10831500696E20466C6173682E0043616C696272F8
:108325006174696F6E20436F6D706C6574652E00A6
:108335005A65726F696E6720582C20592050574D29
:108345000046696E616C2043616C3A2025752C25C9
:10835500750046696E616C2056616C3A2025752C56
:1083650025750044617461666C617368205465739A
:1083750074002A2A20466C617368204641494C45A1
:1083850044202A2A2C20706167652025642C2062F0
:1083950079746525640050616765202564206F6BDD
:1083A5000054657374205061737365642E00496EC3
:1083B500707574205465737400444947494E3A20DA
:1083C5000031003000583A2025752C20593A2025D7
:1083D50075005A3A2025752C2035563A202575000A
:1083E50035563A2025752C20543A20257500413004
:1083F5003A2025752C2041313A2025750041323A25
:108405002025752C2041333A20257500496E70755D
:10841500745465737420436F6D706C6574652E00BC
:108425004F75747075742054657374006269742097
:108435002564004F75747075745465737420436FAB
:108445006D706C6574652E00412F442054657374FE
:1084550000426F61726420666C61742E20546573EE
:1084650074206669787475726520617474616368D7
:1084750065642E005820205920203556205A20208A
:10848500413020413120413220413300312020202C
:10849500003020202000414454657374205041531E
:1084A500532E002A2A2041445465737420464149BD
:1084B5004C202A2A004469676974616C20494F2061
:1084C50054657374004F6E6C792056616C69642035
:1084D500666F7220535532202D2045786974696E78
:1084E500672E00446967494F5465737420506F695E
:1084F5006E74202564002A2A20204641494C202AF2
:108505002A00446967494F54657374205041535399
:108515002E002A2A20446967494F54657374204602
:1085250041494C202A2A004175746F4F6E205465CD
:10853500737400456E61626C696E67204175746F76
:108545004F6E2E2E2E0044726F7070696E67203547
:108555005620456E61626C650044697361626C69A1
:108565006E67204175746F4F6E2E2E2E0041757407
:108575006F4F6E5465737420504153532E00534D05
:108585004275732054657374202D204D6173746595
:10859500720025752042797465732C20257520435A
:1085A50079636C6573002A2A20534D4275732054F4
:1085B500657374204641494C202A2A00534D427563
:1085C50073205465737420506173732E0001020487
:0D85D50008102040800102040810204080A2
:10367D0085844C9000047401F075840FFB7A0C79ED
:10368D003512C176E4900C85F090993A93900C86A2
:10369D00F0900018E0900C87600574C8F0800374FA
:1036AD0064F0900C9EE4F0A374F9F0900CA0E4F09B
:1036BD00A37408F074FFFFFEFDFC900C8812332BF1
:1036CD00C312325A700A900C881233730000000036
:1036DD00900C8CE0B4FF037401F0900C8DE0B4FFFE
:1036ED00037409F0900CA274FFF0A3F0900C8E748B
:1036FD0008F0A3E4F0900C907408F0A3E4F0900CA3
:10370D0035F0900C49F0900C5DF0900C9CF0A3748A
:10371D00A0F0900C9AE4F0A374A0F0E49002CEF027
:0A372D00A3F0D2B3D2B6D2B5D2B4E5
:10373700900CF612337300015F90E4FFFEFDFC90DE
:103747000CF612332BD31232444017900CF6123377
:103757001F74FFFBFAF9F81230F1900CF612336779
:0237670080D808
:1037690090993BE493FF3395E0FE90029B75F0132B
:10377900EF1233E2EE75F013A42583F5831233FEBD
:10378900E92407F9E43AFA7556FF7557817558C562
:103799007559FF755A81755BC81270C790993BE4DA
:1037A90093FF3395E0FE90029B75F013EF1233E21D
:1037B900EE75F013A42583F5831233FEE92407F986
:1037C900E43AFA12000EEF2401F557E43EF556905B
:0C37D900993AE493FF7B737D0112A382F8
:1037E500900CFA12337300015F90E4FFFEFDFC902C
:1037F5000CFA12332BD31232444017900CFA1233C1
:103805001F74FFFBFAF9F81230F1900CFA123367C6
:0238150080D859
:1038170012A72F900018E06065901118E0FEA3E052
:10382700FF901113E02FFF901112E03EC313FEEF3C
:1038370013FF900C8EEEF0A3EFF090111AE0FEA3A9
:10384700E0FF901115E02FFF901114E03EC313FE27
:10385700EF13FF900C90EEF0A3EFF090111CE0FE39
:10386700A3E0FF901117E02FFF901116E03EC3135E
:10387700FEEF13FF900CADEEF0A3EFF0800312857F
:10388700E2900018E07003023967C2B3C2B590999D
:103897003BE493FF3395E0FE90029B75F013EF1224
:1038A70033E2EE75F013A42583F5831233FEE92482
:1038B70007F9E43AFA7556FF7557817558C5755972
:1038C700FF755A81755BEA1270C790993BE493FFC5
:1038D7003395E0FE90029B75F013EF1233E2EE751D
:1038E700F013A42583F5831233FEE92407F9E43A9C
:1038F700FA12000EEF2401F557E43EF55690993A77
:0A390700E493FF7B737D0112A3829D
:10391100900CFE12337300015F90E4FFFEFDFC90FA
:103921000CFE12332BD31232444017900CFE12338B
:103931001F74FFFBFAF9F81230F1900CFE12336795
:0239410080D82C
:1039430012A72F90111CE0FEA3E0FF901117E02FA8
:10395300FF901116E03EC313FEEF13FF900CABEE86
:10396300F0A3EFF0C2B3C2B6C2B5C2B490993BE4C0
:1039730093FF3395E0FE90029B75F013EF1233E251
:10398300EE75F013A42583F5831233FEE92407F9BA
:10399300E43AFA7556FF7557817558C57559FF7521
:1039A3005A82755B001270C790993BE493FF33957D
:1039B300E0FE90029B75F013EF1233E2EE75F01305
:1039C300A42583F5831233FEE92407F9E43AFA12B6
:1039D300000EEF2401F557E43EF55690993AE4932F
:0839E300FF7B737D0112A3823A
:1039EB00900D0212337300015F90E4FFFEFDFC901B
:1039FB000D0212332BD31232444017900D021233A7
:103A0B001F74FFFBFAF9F81230F1900D02123367B5
:023A1B0080D851
:103A1D0012A72F901118E0FEA3E0FF901113E02FD5
:103A2D00FF901112E03EC313FEEF13FF900C94EEC6
:103A3D00F0A3EFF0900018E0602190111CE0FEA3C0
:103A4D00E0FF901117E02FFF901116E03EC313FE1B
:103A5D00EF13FF900CA9EEF0A3EFF0D2B390993BCA
:103A6D00E493FF3395E0FE90029B75F013EF123354
:103A7D00E2EE75F013A42583F5831233FEE92407D6
:103A8D00F9E43AFA7556FF7557817558C57559FFA2
:103A9D00755A82755B241270C790993BE493FF337E
:103AAD0095E0FE90029B75F013EF1233E2EE75F088
:103ABD0013A42583F5831233FEE92407F9E43AFABA
:103ACD0012000EEF2401F557E43EF55690993AE4B5
:093ADD0093FF7B737D0112A382AB
:103AE600900D0612337300015F90E4FFFEFDFC901B
:103AF6000D0612332BD31232444017900D061233A3
:103B06001F74FFFBFAF9F81230F1900D06123367B5
:023B160080D855
:103B180012A72F901118E0FEA3E0FF901113E02FD9
:103B2800FF901112E03EC313FEEF13FF900C92EECC
:103B3800F0A3EFF0D2B690993BE493FF3395E0FE03
:103B480090029B75F013EF1233E2EE75F013A42583
:103B580083F5831233FEE92407F9E43AFA7556FF30
:103B68007557817558C57559FF755A82755B4A1224
:103B780070C790993BE493FF3395E0FE90029B75E4
:103B8800F013EF1233E2EE75F013A42583F58312D8
:103B980033FEE92407F9E43AFA12000EEF2401F59E
:103BA80057E43EF55690993AE493FF7B737D0112F2
:023BB800A382E6
:103BBA00900D0A12337300015F90E4FFFEFDFC9042
:103BCA000D0A12332BD31232444017900D0A1233C6
:103BDA001F74FFFBFAF9F81230F1900D0A123367DD
:023BEA0080D881
:103BEC0012A72F90111AE0FEA3E0FF901115E02F01
:103BFC00FF901114E03EC313FEEF13FF900C96EEF2
:103C0C00F0A3EFF0D2B590993BE493FF3395E0FE2F
:103C1C0090029B75F013EF1233E2EE75F013A425AE
:103C2C0083F5831233FEE92407F9E43AFA7556FF5B
:103C3C007557817558C57559FF755A82755B5F123A
:103C4C0070C790993BE493FF3395E0FE90029B750F
:103C5C00F013EF1233E2EE75F013A42583F5831203
:103C6C0033FEE92407F9E43AFA12000EEF2401F5C9
:103C7C0057E43EF55690993AE493FF7B737D01121D
:023C8C00A38211
:103C8E00900D0E12337300015F90E4FFFEFDFC9069
:103C9E000D0E12332BD31232444017900D0E1233E9
:103CAE001F74FFFBFAF9F81230F1900D0E12336704
:023CBE0080D8AC
:103CC00012A72F90111AE0FEA3E0FF901115E02F2C
:103CD000FF901114E03EC313FEEF13FF900C98EE1B
:103CE000F0A3EFF0D2B4900C92E0FEA3E0FFC390FB
:103CF0000C95E09F900C94E09E4003023DCF90997C
:103D00003BE493FF3395E0FE90029B75F013EF12B6
:103D100033E2EE75F013A42583F5831233FEE92414
:103D200007F9E43AFA7556FF7557817558C5755904
:103D3000FF755A82755B731270C790993BE493FFCD
:103D40003395E0FE90029B75F013EF1233E2EE75AF
:103D5000F013A42583F5831233FEE92407F9E43A2E
:103D6000FA12000EEF2401F557E43EF55690993A09
:0A3D7000E493FF7B737D0112A38230
:103D7A00900D1212337300015F90E4FFFEFDFC9078
:103D8A000D1212332BD31232444017900D121233F4
:103D9A001F74FFFBFAF9F81230F1900D1212336713
:023DAA0080D8BF
:103DAC00900C94E0F54DA3E0F54E900C92E0FFA33F
:103DBC00E0900C94CFF0A3EFF0900C92E54DF0A3B3
:103DCC00E54EF0900C96E0FEA3E0FFC3900C99E05A
:103DDC009F900C98E09E4003023EB890993BE49370
:103DEC00FF3395E0FE90029B75F013EF1233E2EE79
:103DFC0075F013A42583F5831233FEE92407F9E447
:103E0C003AFA7556FF7557817558C57559FF755A2D
:103E1C0082755B861270C790993BE493FF3395E0F3
:103E2C00FE90029B75F013EF1233E2EE75F013A4C3
:103E3C002583F5831233FEE92407F9E43AFA1200DC
:103E4C000EEF2401F557E43EF55690993AE493FFB2
:073E5C007B737D0112A382BC
:103E6300900D1612337300015F90E4FFFEFDFC908A
:103E73000D1612332BD31232444017900D16123302
:103E83001F74FFFBFAF9F81230F1900D1612336725
:023E930080D8D5
:103E9500900C98E0F54DA3E0F54E900C96E0FFA34D
:103EA500E0900C98CFF0A3EFF0900C96E54DF0A3C1
:103EB500E54EF0900018E07003023FAA900CABE0CD
:103EC500FEA3E0FFC3900CAEE09F900CADE09E40DA
:103ED50003023FAA90993BE493FF3395E0FE9002DD
:103EE5009B75F013EF1233E2EE75F013A42583F5FD
:103EF500831233FEE92407F9E43AFA7556FF75573C
:103F0500817558C57559FF755A82755B991270C7C9
:103F150090993BE493FF3395E0FE90029B75F01377
:103F2500EF1233E2EE75F013A42583F5831233FE09
:103F3500E92407F9E43AFA12000EEF2401F557E4F3
:103F45003EF55690993AE493FF7B737D0112A38267
:103F5500900D1A12337300015F90E4FFFEFDFC9093
:103F65000D1A12332BD31232444017900D1A123307
:103F75001F74FFFBFAF9F81230F1900D1A1233672E
:023F850080D8E2
:103F8700900CADE0F54DA3E0F54E900CABE0FFA330
:103F9700E0900CADCFF0A3EFF0900CABE54DF0A3A4
:103FA700E54EF090993BE493FF3395E0FE90029B3A
:103FB70075F013EF1233E2EE75F013A42583F58342
:103FC7001233FEE92407F9E43AFA7556FF7557816B
:103FD7007558C57559FF755A82755BAC1270C790D5
:103FE700993BE493FF3395E0FE90029B75F013EF46
:103FF7001233E2EE75F013A42583F5831233FEE93D
:104007002407F9E43AFA12000EEF2401F557E43ECB
:0F401700F55690993AE493FF7B737D0112A382D3
:10402600900D1E12337300015F90E4FFFEFDFC90BD
:104036000D1E12332BD31232444017900D1E12332D
:104046001F74FFFBFAF9F81230F1900D1E12336758
:0240560080D810
:104058007556FF7557827558AE900C8EE0F559A3CA
:10406800E0F55A900C90E0F55BA3E0F55C900CA9A4
:10407800E0F55DA3E0F55E7B017A0D79361270C735
:1040880090993BE493FF3395E0FE90029B75F01303
:10409800EF1233E2EE75F013A42583F5831233FE95
:1040A800E92407F9E43AFA7556FF7557817558C53A
:1040B800755901755A0D755B361270C790993BE4B6
:1040C80093FF3395E0FE90029B75F013EF1233E2F5
:1040D800EE75F013A42583F5831233FEE92407F95E
:1040E800E43AFA12000EEF2401F557E43EF5569033
:0C40F800993AE493FF7B737D0112A382D0
:10410400900D2212337300015F90E4FFFEFDFC90DA
:104114000D2212332BD31232444017900D22123346
:104124001F74FFFBFAF9F81230F1900D2212336775
:0241340080D831
:1041360090993BE493FF3395E0FE90029B75F01354
:10414600EF1233E2EE75F013A42583F5831233FEE6
:10415600E92407F9E43AFA7556FF7557827558CC83
:10416600900C92E0F559A3E0F55A900C94E0F55BBB
:10417600A3E0F55C1270C790993BE493FF3395E09A
:10418600FE90029B75F013EF1233E2EE75F013A466
:104196002583F5831233FEE92407F9E43AFA12007F
:1041A6000EEF2401F557E43EF55690993AE493FF55
:0741B6007B737D0112A3825F
:1041BD00900D2612337300015F90E4FFFEFDFC901D
:1041CD000D2612332BD31232444017900D26123385
:1041DD001F74FFFBFAF9F81230F1900D26123367B8
:0241ED0080D878
:1041EF0090993BE493FF3395E0FE90029B75F0139B
:1041FF00EF1233E2EE75F013A42583F5831233FE2D
:10420F00E92407F9E43AFA7556FF7557827558DCB9
:10421F00900C96E0F559A3E0F55A900C98E0F55BF9
:10422F00A3E0F55C1270C790993BE493FF3395E0E0
:10423F00FE90029B75F013EF1233E2EE75F013A4AC
:10424F002583F5831233FEE92407F9E43AFA1200C5
:10425F000EEF2401F557E43EF55690993AE493FF9B
:07426F007B737D0112A382A5
:10427600900D2A12337300015F90E4FFFEFDFC905F
:104286000D2A12332BD31232444017900D2A1233C3
:104296001F74FFFBFAF9F81230F1900D2A123367FA
:0242A60080D8BE
:1042A80090993BE493FF3395E0FE90029B75F013E1
:1042B800EF1233E2EE75F013A42583F5831233FE73
:1042C800E92407F9E43AFA7556FF7557827558ECF0
:1042D800900CABE0F559A3E0F55A900CADE0F55B16
:1042E800A3E0F55C1270C790993BE493FF3395E027
:1042F800FE90029B75F013EF1233E2EE75F013A4F3
:104308002583F5831233FEE92407F9E43AFA12000B
:104318000EEF2401F557E43EF55690993AE493FFE1
:074328007B737D0112A382EB
:10432F00900D2E12337300015F90E4FFFEFDFC90A1
:10433F000D2E12332BD31232444017900D2E123301
:10434F001F74FFFBFAF9F81230F1900D2E1233673C
:02435F0080D804
:1043610090993BE493FF3395E0FE90029B75F01327
:10437100EF1233E2EE75F013A42583F5831233FEB9
:10438100E92407F9E43AFA7556FF7557817558C55E
:104391007559FF755A82755BFC1270C790993BE4A1
:1043A10093FF3395E0FE90029B75F013EF1233E219
:1043B100EE75F013A42583F5831233FEE92407F982
:1043C100E43AFA12000EEF2401F557E43EF5569057
:1043D100993AE493FF7B737D0112A38212C4917B0E
:0C43E100017A0C79357D7A7C0012BEB99F
:1043ED00900D3212337300015F90E4FFFEFDFC90DF
:1043FD000D3212332BD31232444017900D3212333B
:10440D001F74FFFBFAF9F81230F1900D3212336779
:02441D0080D845
:10441F0090993BE493FF3395E0FE90029B75F01368
:10442F00EF1233E2EE75F013A42583F5831233FEFA
:10443F00E92407F9E43AFA7556FF7557817558C59F
:10444F007559FF755A83755B1F1270C790993BE4BE
:10445F0093FF3395E0FE90029B75F013EF1233E25A
:10446F00EE75F013A42583F5831233FEE92407F9C3
:10447F00E43AFA12000EEF2401F557E43EF5569098
:10448F00993AE493FF7B737D0112A382D2B3C2B634
:0F449F00C2B5C2B4E4900004F012B3BB854C84E4
:0144AE0022EB
:10A72F00901116740FF0A374FFF0901114740FF0C2
:10A73F00A374FFF0901112740FF0A374FFF0E49064
:10A74F00111CF0A3F090111AF0A3F0901118F0A3C0
:10A75F00F0FFFE9002B5E060FA90001BE0FCA3E072
:10A76F00FD901112E0FAA3E0FBC39DEA9C5006ACEA
:10A77F0002AD03800890001BE0FCA3E0FD901112D6
:10A78F00ECF0A3EDF090001DE0FCA3E0FD901114A0
:10A79F00E0FAA3E0FBC39DEA9C5006AC02AD038038
:10A7AF000890001DE0FCA3E0FD901114ECF0A3ED68
:10A7BF00F0900021E0FCA3E0FD901116E0FAA3E079
:10A7CF00FBC39DEA9C5006AC02AD038008900021AC
:10A7DF00E0FCA3E0FD901116ECF0A3EDF090001B50
:10A7EF00E0FCA3E0FD901118E0FAA3E0FBD39DEA93
:10A7FF009C4006AC02AD03800890001BE0FCA3E078
:10A80F00FD901118ECF0A3EDF090001DE0FCA3E01B
:10A81F00FD90111AE0FAA3E0FBD39DEA9C4006AC31
:10A82F0002AD03800890001DE0FCA3E0FD90111A1B
:10A83F00ECF0A3EDF0900021E0FCA3E0FD90111CE3
:10A84F00E0FAA3E0FBD39DEA9C4006AC02AD038087
:10A85F0008900021E0FCA3E0FD90111CECF0A3EDAB
:10A86F00F0E49002B5F00FBF00010EEF64284E60C8
:10A87F000302A762901114E0FEA3E0FF90111AE00B
:10A88F00FCA3E0FDC39FFFEC9EFEC394004002803B
:10A89F0016901114E0FEA3E0FFC3ED9FFFEC9EFEA8
:10A8AF00C3E49FFFE49EFED3EF9404EE94004003B5
:10A8BF0002A72F901112E0FEA3E0FF901118E0FC09
:10A8CF00A3E0FDC39FFFEC9EFEC3940040028016E1
:10A8DF00901112E0FEA3E0FFC3ED9FFFEC9EFEC3BD
:10A8EF00E49FFFE49EFED3EF9404EE940040030236
:02A8FF00A72F81
:01A901002233
:1085E200E4F54FF550F584900C9CE0A3E0F5FD9086
:1085F2000C9CE0A3E0F5FE900C9AE0A3E0F5FB9062
:108602000C9AE0A3E0F5FC90993BE493FF3395E0EC
:10861200FE90029B75F013EF1233E2EE75F013A495
:108622002583F5831233FEE92407F9E43AFA7556F5
:10863200FF7557817558C57559FF755A83755B3536
:108642001270C790993BE493FF3395E0FE90029B32
:1086520075F013EF1233E2EE75F013A42583F58360
:108662001233FEE92407F9E43AFA12000EEF24016C
:10867200F557E43EF55690993AE493FF7B737D01FA
:0386820012A382BE
:10868500900D8612337300015F90E4FFFEFDFC90B0
:108695000D8612332BD31232444017900D861233B8
:1086A5001F74FFFBFAF9F81230F1900D861233674B
:0286B50080D86B
:1086B7009002B5E060FAE49002B5F09002B5E06090
:1086C700FAE54F700F90001BE0FFA3E0900C8ECFF0
:1086D700F0A3EFF0E550700F90001DE0FFA3E090CE
:1086E7000C90CFF0A3EFF0E49002B5F0E54F704B9C
:1086F700900C8EE0FEA3E02400EE34F8C36480946F
:10870700804010900C8EE0FEA3E02400FFEE34F8CA
:10871700FE8015900C8EE0FEA3E02400FFEE34F8F7
:10872700FEC3E49FFFE49EFED3EF9405EE648094BE
:108737008050047F0180027F008F4FE54F7048C350
:10874700900C8EE094085015900C9AE07002A3E00C
:1087570070028014900C9A74FFF5F08017900C9AB1
:10876700E07003A3E0F47005754F01800A900C9A3E
:10877700E475F001122FDE900C9AE0A3E0F5FB9070
:108787000C9AE0A3E0F5FCE550704B900C90E0FEEE
:10879700A3E02400EE34F8C3648094804010900C6A
:1087A70090E0FEA3E02400FFEE34F8FE8015900C65
:1087B70090E0FEA3E02400FFEE34F8FEC3E49FFF41
:1087C700E49EFED3EF9405EE6480948050047F010D
:1087D70080027F008F50E5507048C3900C90E09462
:1087E700085015900C9CE07002A3E0700280149072
:1087F7000C9C74FFF5F08017900C9CE07003A3E0CD
:10880700F47005755001800A900C9CE475F0011214
:108817002FDE900C9CE0A3E0F5FD900C9CE0A3E01C
:10882700F5FEE54F70030286B7E55070030286B781
:1088370012A72F90001BE0FFA3E0900C8ECFF0A3B0
:10884700EFF090001DE0FFA3E0900C90CFF0A3EFB6
:10885700F090993BE493FF3395E0FE90029B75F00F
:1088670013EF1233E2EE75F013A42583F583123369
:10887700FEE92407F9E43AFA7556FF7557837558E8
:1088870046900C9AE0F559A3E0F55A900C9CE0F558
:108897005BA3E0F55C1270C790993BE493FF3395B7
:1088A700E0FE90029B75F013EF1233E2EE75F013C2
:1088B700A42583F5831233FEE92407F9E43AFA1273
:1088C700000EEF2401F557E43EF55690993AE493EC
:0888D700FF7B737D0112A382F7
:1088DF00900D8A12337300015F90E4FFFEFDFC9050
:1088EF000D8A12332BD31232444017900D8A123354
:1088FF001F74FFFBFAF9F81230F1900D8A123367EB
:02890F0080D80E
:108911007556FF755783755857900C8EE0F559A31E
:10892100E0F55A900C90E0F55BA3E0F55C7B017AF1
:108931000D79921270C790993BE493FF3395E0FE55
:1089410090029B75F013EF1233E2EE75F013A4253C
:1089510083F5831233FEE92407F9E43AFA7556FFE9
:108961007557817558C5755901755A0D755B921208
:1089710070C790993BE493FF3395E0FE90029B759D
:10898100F013EF1233E2EE75F013A42583F5831291
:1089910033FEE92407F9E43AFA12000EEF2401F557
:1089A10057E43EF55690993AE493FF7B737D0112AB
:0289B100A3829F
:1089B300900D8E12337300015F90E4FFFEFDFC9077
:1089C3000D8E12332BD31232444017900D8E123377
:1089D3001F74FFFBFAF9F81230F1900D8E12336712
:0289E30080D83A
:0189E500226F
:0289E6008F4CB4
:1089E80085844DE4F54EF54FF55290993B93FF334E
:1089F80095E0FE90029B75F013EF1233E2EE75F0EE
:108A080013A42583F5831233FEE92407F9E43AFA1F
:108A18007556FF7557817558C57559FF755A837511
:108A28005B681270C790993BE493FF3395E0FE9022
:108A3800029B75F013EF1233E2EE75F013A4258351
:108A4800F5831233FEE92407F9E43AFA12000EEF2F
:108A58002401F557E43EF55690993AE493FF7B7369
:108A68007D0112A382E49002CEF0A3F0F550F551F7
:108A7800D3900956E09551900955E095504023AEA2
:108A880050AF517C017D00122FA874592551F582F1
:108A980074003550F583EDF00551E551700205502D
:108AA80080CE75840F30E819C39002CFE094099006
:108AB80002CEE094004003028CADE49002CEF0A315
:108AC800F0900955E0FCA3E0FD7B017A0079598517
:108AD8004E5D854F5EE4FFFE12BCB3900955E0FE83
:108AE800A3E0FF7B017A007959854E58854F5912CA
:108AF800BB8EE4F550F551D3900956E09551900995
:108B080055E09550402DAE50AF517C017D00122F9D
:108B1800A874592551F58274003550F583E06D70BD
:108B280001EC6005755201800A0551E55170020596
:108B38005080C4E5527003028BC490993BE493FFC4
:108B48003395E0FE90029B75F013EF1233E2EE7559
:108B5800F013A42583F5831233FEE92407F9E43AD8
:108B6800FA7556FF755783755877854E59854F5A4C
:108B780085505B85515C1270C790993BE493FF3335
:108B880095E0FE90029B75F013EF1233E2EE75F05C
:108B980013A42583F5831233FEE92407F9E43AFA8E
:108BA80012000EEF2401F557E43EF55690993AE489
:0C8BB80093FF7B737D0112A382028CAD41
:108BC400900CF612337300015F90E4FFFEFDFC90FD
:108BD4000CF612332BD31232444017900CF6123396
:108BE4001F74FFFBFAF9F81230F1900CF612336798
:028BF40080D827
:108BF60090993BE493FF3395E0FE90029B75F0134A
:108C0600EF1233E2EE75F013A42583F5831233FEDB
:108C1600E92407F9E43AFA7556FF75578375589BA8
:108C2600854E59854F5A1270C790993BE493FF338E
:108C360095E0FE90029B75F013EF1233E2EE75F0AD
:108C460013A42583F5831233FEE92407F9E43AFADF
:108C560012000EEF2401F557E43EF55690993AE4DA
:108C660093FF7B737D0112A382AF4FAE4E12C2AC4F
:108C7600D3900C30E0954F900C2FE0954E5007E4C2
:108C8600F54EF54F8008054FE54F7002054EE54C51
:108C960064347003028AAAD3E54F9404E54E6480D7
:0E8CA60094805003028AAAE49002CEF0A3F05C
:108CB400900CFA12337300015F90E4FFFEFDFC9008
:108CC4000CFA12332BD31232444017900CFA12339D
:108CD4001F74FFFBFAF9F81230F1900CFA123367A3
:028CE40080D836
:108CE60090993BE493FF3395E0FE90029B75F01359
:108CF600EF1233E2EE75F013A42583F5831233FEEB
:108D0600E92407F9E43AFA7556FF7557817558C58F
:108D16007559FF755A83755BA61270C790993BE427
:108D260093FF3395E0FE90029B75F013EF1233E24A
:108D3600EE75F013A42583F5831233FEE92407F9B3
:108D4600E43AFA12000EEF2401F557E43EF5569088
:0F8D5600993AE493FF7B737D0112A382854D84CC
:018D650022EB
:105D910085844C78167C0D7D017BFF7A8579D27ED6
:0C5DA100007F08122E6E9000047401F0C8
:105DAD00900CF612337300015F90E4FFFEFDFC9042
:105DBD000CF612332BD31232444017900CF61233DB
:105DCD001F74FFFBFAF9F81230F1900CF6123367DD
:025DDD0080D86C
:105DDF0090993BE493FF3395E0FE90029B75F0138F
:105DEF00EF1233E2EE75F013A42583F5831233FE21
:105DFF00E92407F9E43AFA7556FF7557817558C5C6
:105E0F007559FF755A83755BB31270C790993BE450
:105E1F0093FF3395E0FE90029B75F013EF1233E280
:105E2F00EE75F013A42583F5831233FEE92407F9E9
:105E3F00E43AFA12000EEF2401F557E43EF55690BE
:105E4F00993AE493FF7B737D0112A382E49002CE13
:035E5F00F0A3F0BD
:105E620075840F30E819C39002CFE094099002CEF6
:105E7200E0940040030263BFE49002CEF0A3F090EE
:0A5E820002B5E060DBE4F085D84DC6
:105E8C00900CFA1233730006DDD0E4FFFEFDFC909B
:105E9C000CFA12332BD31232444017900CFA1233F3
:105EAC001F74FFFBFAF9F81230F1900CFA123367F9
:025EBC0080D88C
:105EBE0090993BE493FF3395E0FE90029B75F013AF
:105ECE00EF1233E2EE75F013A42583F5831233FE41
:105EDE00E92407F9E43AFA7556FF7557817558C5E6
:105EEE007559FF755A82755BAC1270C790993BE479
:105EFE0093FF3395E0FE90029B75F013EF1233E2A1
:105F0E00EE75F013A42583F5831233FEE92407F909
:105F1E00E43AFA12000EEF2401F557E43EF55690DE
:0C5F2E00993AE493FF7B737D0112A3827B
:105F3A00900CFE12337300015F90E4FFFEFDFC90AB
:105F4A000CFE12332BD31232444017900CFE12333C
:105F5A001F74FFFBFAF9F81230F1900CFE12336746
:025F6A0080D8DD
:105F6C007556FF7557837558BE7B017A0D791E12D5
:105F7C0070C7754E00754F067B017A0D791E1200A5
:105F8C000E741E2FF9740D3EFA7B01C003C002C0C3
:105F9C00017416254FF582740D354EF583E0554D81
:105FAC007BFF60067A8379C680047A8379C88B5626
:105FBC008A578958D001D002D0031270C7E54F150B
:105FCC004F7002154EC3E54E6480948050AA909990
:105FDC003BE493FF3395E0FE90029B75F013EF12B8
:105FEC0033E2EE75F013A42583F5831233FEE92416
:105FFC0007F9E43AFA7556FF7557817558C5755906
:10600C0001755A0D755B1E1270C790993BE493FF96
:10601C003395E0FE90029B75F013EF1233E2EE75B0
:10602C00F013A42583F5831233FEE92407F9E43A2F
:10603C00FA12000EEF2401F557E43EF55690993A0A
:0A604C00E493FF7B737D0112A38231
:10605600900D0212337300015F90E4FFFEFDFC9089
:106066000D0212332BD31232444017900D02123315
:106076001F74FFFBFAF9F81230F1900D0212336724
:0260860080D8C0
:106088007556FF7557837558CA90001BE0F559A3DC
:10609800E0F55AA3E0F55BA3E0F55C7B017A0D79A6
:1060A8001E1270C790993BE493FF3395E0FE90026F
:1060B8009B75F013EF1233E2EE75F013A42583F508
:1060C800831233FEE92407F9E43AFA7556FF755747
:1060D800817558C5755901755A0D755B1E1270C7C3
:1060E80090993BE493FF3395E0FE90029B75F01383
:1060F800EF1233E2EE75F013A42583F5831233FE15
:10610800E92407F9E43AFA12000EEF2401F557E4FE
:106118003EF55690993AE493FF7B737D0112A38272
:10612800900D0612337300015F90E4FFFEFDFC90B2
:106138000D0612332BD31232444017900D0612333A
:106148001F74FFFBFAF9F81230F1900D061233674D
:0261580080D8ED
:10615A00900018E060187556FF7557837558D790E8
:10616A000021E0F559A3E0F55A90001F80147556F6
:10617A00FF7557837558E590001FE0F559A3E0F5C0
:10618A005AA3E0F55BA3E0F55C7B017A0D791E1258
:10619A0070C790993BE493FF3395E0FE90029B759C
:1061AA00F013EF1233E2EE75F013A42583F5831290
:1061BA0033FEE92407F9E43AFA7556FF75578175F3
:1061CA0058C5755901755A0D755B1E1270C790999D
:1061DA003BE493FF3395E0FE90029B75F013EF12B8
:1061EA0033E2EE75F013A42583F5831233FEE92416
:1061FA0007F9E43AFA12000EEF2401F557E43EF5E6
:0E620A005690993AE493FF7B737D0112A382B4
:10621800900D0A12337300015F90E4FFFEFDFC90BD
:106228000D0A12332BD31232444017900D0A123341
:106238001F74FFFBFAF9F81230F1900D0A12336758
:0262480080D8FC
:10624A007556FF7557837558F3900023E0F559A3E7
:10625A00E0F55AA3E0F55BA3E0F55C7B017A0D79E2
:10626A001E1270C790993BE493FF3395E0FE9002AB
:10627A009B75F013EF1233E2EE75F013A42583F544
:10628A00831233FEE92407F9E43AFA7556FF755783
:10629A00817558C5755901755A0D755B1E1270C7FF
:1062AA0090993BE493FF3395E0FE90029B75F013BF
:1062BA00EF1233E2EE75F013A42583F5831233FE51
:1062CA00E92407F9E43AFA12000EEF2401F557E43B
:1062DA003EF55690993AE493FF7B737D0112A382AF
:1062EA00900D0E12337300015F90E4FFFEFDFC90E7
:1062FA000D0E12332BD31232444017900D0E123367
:10630A001F74FFFBFAF9F81230F1900D0E12336781
:02631A0080D829
:10631C007556FF755784755802900027E0F559A300
:10632C00E0F55AA3E0F55BA3E0F55C7B017A0D790F
:10633C001E1270C790993BE493FF3395E0FE9002D8
:10634C009B75F013EF1233E2EE75F013A42583F571
:10635C00831233FEE92407F9E43AFA7556FF7557B0
:10636C00817558C5755901755A0D755B1E1270C72C
:10637C0090993BE493FF3395E0FE90029B75F013EC
:10638C00EF1233E2EE75F013A42583F5831233FE7E
:10639C00E92407F9E43AFA12000EEF2401F557E468
:1063AC003EF55690993AE493FF7B737D0112A382DC
:0A63BC00025E62E49002CEF0A3F04E
:1063C600900D1212337300015F90E4FFFEFDFC9006
:1063D6000D1212332BD31232444017900D12123382
:1063E6001F74FFFBFAF9F81230F1900D12123367A1
:0263F60080D84D
:1063F80090993BE493FF3395E0FE90029B75F01370
:10640800EF1233E2EE75F013A42583F5831233FE01
:10641800E92407F9E43AFA7556FF7557817558C5A6
:106428007559FF755A84755B111270C790993BE4D2
:1064380093FF3395E0FE90029B75F013EF1233E261
:10644800EE75F013A42583F5831233FEE92407F9CA
:10645800E43AFA12000EEF2401F557E43EF556909F
:10646800993AE493FF7B737D0112A382D2B3C2B63B
:0C647800C2B5C2B4E4900004F0854C846E
:0164840022F5
:10965B0085844CE4F54FF55078027C0D7D017BFF42
:0A966B007A8579DAFE7F08122E6E70
:10967500900CF612337300015F90E4FFFEFDFC9041
:109685000CF612332BD31232444017900CF61233DA
:109695001F74FFFBFAF9F81230F1900CF6123367DC
:0296A50080D86B
:1096A70090993BE493FF3395E0FE90029B75F0138E
:1096B700EF1233E2EE75F013A42583F5831233FE20
:1096C700E92407F9E43AFA7556FF7557817558C5C5
:1096D7007559FF755A84755B251270C790993BE4DD
:1096E70093FF3395E0FE90029B75F013EF1233E280
:1096F700EE75F013A42583F5831233FEE92407F9E9
:10970700E43AFA12000EEF2401F557E43EF55690BD
:0C971700993AE493FF7B737D0112A3825A
:10972300900CFA12337300015F90E4FFFEFDFC908E
:109733000CFA12332BD31232444017900CFA123323
:109743001F74FFFBFAF9F81230F1900CFA12336729
:0297530080D8BC
:10975500E49002CEF0A3F0900279E024A0F54E90BB
:109765000278E03400F54D75840F30E819C3900296
:10977500CFE094099002CEE094004003029844E4BF
:109785009002CEF0A3F0900278E0FEA3E0FFB54E84
:10979500D6EEB54DD2EF24A0F54EE43EF54D9099A9
:1097A5003BE493FF3395E0FE90029B75F013EF12B7
:1097B50033E2EE75F013A42583F5831233FEE92415
:1097C50007F9E43AFA7556FF755784755831854F90
:1097D5005985505A1270C790993BE493FF3395E031
:1097E500FE90029B75F013EF1233E2EE75F013A4B1
:1097F5002583F5831233FEE92407F9E43AFA1200CA
:109805000EEF2401F557E43EF55690993AE493FF9F
:109815007B737D0112A38274022550F582740D3588
:109825004FF583E0F5C80550E5507002054FFFAED2
:109835004F7C007D07122FA88C4F8D5002976CE44A
:069845009002CEF0A3F03A
:10984B00900CFE12337300015F90E4FFFEFDFC9061
:10985B000CFE12332BD31232444017900CFE1233F2
:10986B001F74FFFBFAF9F81230F1900CFE123367FC
:02987B0080D893
:10987D0090993BE493FF3395E0FE90029B75F013B6
:10988D00EF1233E2EE75F013A42583F5831233FE48
:10989D00E92407F9E43AFA7556FF7557817558C5ED
:1098AD007559FF755A84755B381270C790993BE4F2
:1098BD0093FF3395E0FE90029B75F013EF1233E2A8
:1098CD00EE75F013A42583F5831233FEE92407F911
:1098DD00E43AFA12000EEF2401F557E43EF55690E6
:1098ED00993AE493FF7B737D0112A382D2B3C2B682
:0798FD00C2B5C2B4854C8422
:019904002240
:106AE60085844C754E01E4900D0AF090000404F084
:106AF600900CF612337300015F90E4FFFEFDFC90EC
:106B06000CF612332BD31232444017900CF6123384
:106B16001F74FFFBFAF9F81230F1900CF612336786
:026B260080D815
:106B280090993BE493FF3395E0FE90029B75F01338
:106B3800EF1233E2EE75F013A42583F5831233FECA
:106B4800E92407F9E43AFA7556FF7557817558C56F
:106B58007559FF755A84755B4D1270C790993BE45F
:106B680093FF3395E0FE90029B75F013EF1233E22A
:106B7800EE75F013A42583F5831233FEE92407F993
:106B8800E43AFA12000EEF2401F557E43EF5569068
:0C6B9800993AE493FF7B737D0112A38205
:106BA400900CFA12337300015F90E4FFFEFDFC9039
:106BB4000CFA12332BD31232444017900CFA1233CE
:106BC4001F74FFFBFAF9F81230F1900CFA123367D4
:026BD40080D867
:106BD60090993BE493FF3395E0FE90029B75F0138A
:106BE600EF1233E2EE75F013A42583F5831233FE1C
:106BF600E92407F9E43AFA7556FF7557817558C5C1
:106C06007559FF755A84755B561270C790993BE4A7
:106C160093FF3395E0FE90029B75F013EF1233E27B
:106C2600EE75F013A42583F5831233FEE92407F9E4
:106C3600E43AFA12000EEF2401F557E43EF55690B9
:0C6C4600993AE493FF7B737D0112A38256
:106C5200900CFE12337300015F90E4FFFEFDFC9086
:106C62000CFE12332BD31232444017900CFE123317
:106C72001F74FFFBFAF9F81230F1900CFE12336721
:026C820080D8B8
:106C840090993BE493FF3395E0FE90029B75F013DB
:106C9400EF1233E2EE75F013A42583F5831233FE6D
:106CA400E92407F9E43AFA7556FF7557817558C512
:106CB4007559FF755A84755B791270C790993BE4D6
:106CC40093FF3395E0FE90029B75F013EF1233E2CD
:106CD400EE75F013A42583F5831233FEE92407F936
:106CE400E43AFA12000EEF2401F557E43EF556900B
:106CF400993AE493FF7B737D0112A3829002B5E07D
:106D040060FAE4F54FE54F1234996D2A006D2A01BB
:106D14006D58026D86036DC0046DEE056E1B066E24
:106D2400480700006E73E54F25E0241BF582E43428
:106D340000F583E0FEA3E0FFC394A4EE9406400DA7
:106D4400D3EF94FCEE940850047F0180027F008FFF
:106D54004D026E73E54F25E0241BF582E43400F503
:106D640083E0FEA3E0FFC39484EE940E400DD3EFC2
:106D7400949CEE941050047F0180027F008F4D029A
:106D84006E73900018E0602EE54F25E0241BF58219
:106D9400E43400F583E0FEA3E0FFC394AAEE940577
:106DA400400DD3EF946CEE940750047F0180027F72
:106DB400008F4D026E73754D01026E73E54F25E031
:106DC400241BF582E43400F583E0FEA3E0FFC394C2
:106DD40030EE9404400DD3EF9460EE940550047F9C
:106DE4000180027F008F4D026E73E54F25E0241B66
:106DF400F582E43400F583E0FEA3E0FFC394CAEE19
:106E04009402400DD3EF9496EE940350047F0180D6
:106E1400027F008F4D8058E54F25E0241BF582E466
:106E24003400F583E0FEA3E0FFC39465EE940140D3
:106E34000DD3EF94CBEE940150047F0180027F00C8
:106E44008F4D802BE54F25E0241BF582E43400F5BB
:106E540083E0FEA3E0FFC3943FEE9403400DD3EF21
:106E6400942BEE940450047F0180027F008F4DE543
:106E74004D7002F54E7B017A0D790A12000E740AE8
:106E84002FF9740D3EFA7B01C003C002C001E54D29
:106E94007BFF60067A84799180047A8479968B5694
:106EA4008A578958D001D002D0031270C7054FE524
:0E6EB4004FC394085003026D09E49002B5F03C
:106EC200900D0212337300015F90E4FFFEFDFC900F
:106ED2000D0212332BD31232444017900D0212339B
:106EE2001F74FFFBFAF9F81230F1900D02123367AA
:026EF20080D846
:106EF40090993BE493FF3395E0FE90029B75F01369
:106F0400EF1233E2EE75F013A42583F5831233FEFA
:106F1400E92407F9E43AFA7556FF7557817558C59F
:106F2400755901755A0D755B0A1270C790993BE447
:106F340093FF3395E0FE90029B75F013EF1233E25A
:106F4400EE75F013A42583F5831233FEE92407F9C3
:106F5400E43AFA12000EEF2401F557E43EF5569098
:0C6F6400993AE493FF7B737D0112A38235
:106F7000900D0612337300015F90E4FFFEFDFC905C
:106F80000D0612332BD31232444017900D061233E4
:106F90001F74FFFBFAF9F81230F1900D06123367F7
:026FA00080D897
:106FA200E54E90993B6038E493FF3395E0FE900202
:106FB2009B75F013EF1233E2EE75F013A42583F5FF
:106FC200831233FEE92407F9E43AFA7556FF75573E
:106FD200817558C57559FF755A84755B9B8036E477
:106FE20093FF3395E0FE90029B75F013EF1233E2AC
:106FF200EE75F013A42583F5831233FEE92407F915
:10700200E43AFA7556FF7557817558C57559FF757B
:107012005A84755BA81270C790993BE493FF33952D
:10702200E0FE90029B75F013EF1233E2EE75F0135F
:10703200A42583F5831233FEE92407F9E43AFA1210
:10704200000EEF2401F557E43EF55690993AE49389
:10705200FF7B737D0112A382D2B3C2B6C2B5C2B4A2
:08706200E4900004F0854C8469
:01706A002203
:1064850085844C754D01E4F54F90000404F0758446
:0764950002758880854C842C
:10649C00900CF612337300015F90E4FFFEFDFC904C
:1064AC000CF612332BD31232444017900CF61233E5
:1064BC001F74FFFBFAF9F81230F1900CF6123367E7
:0264CC0080D876
:1064CE0090993BE493FF3395E0FE90029B75F01399
:1064DE00EF1233E2EE75F013A42583F5831233FE2B
:1064EE00E92407F9E43AFA7556FF7557817558C5D0
:1064FE007559FF755A84755BBA1270C790993BE453
:10650E0093FF3395E0FE90029B75F013EF1233E28A
:10651E00EE75F013A42583F5831233FEE92407F9F3
:10652E00E43AFA12000EEF2401F557E43EF55690C8
:10653E00993AE493FF7B737D0112A382900018E0D9
:02654E00706E6D
:10655000900CFA12337300015F90E4FFFEFDFC9093
:106560000CFA12332BD31232444017900CFA123328
:106570001F74FFFBFAF9F81230F1900CFA1233672E
:0265800080D8C1
:1065820090993BE493FF3395E0FE90029B75F013E4
:10659200EF1233E2EE75F013A42583F5831233FE76
:1065A200E92407F9E43AFA7556FF7557817558C51B
:1065B2007559FF755A84755BCA026A8DE4F550E518
:1065C20050B40807E4F5C8D2FB8005854FC8C2FB6A
:1065D200900CFE12337300015F90E4FFFEFDFC900D
:1065E2000CFE12332BD31232444017900CFE12339E
:1065F2001F74FFFBFAF9F81230F1900CFE123367A8
:0266020080D83E
:1066040090993BE493FF3395E0FE90029B75F01361
:10661400EF1233E2EE75F013A42583F5831233FEF3
:10662400E92407F9E43AFA7556FF7557847558E872
:1066340075590085505A1270C790993BE493FF3303
:1066440095E0FE90029B75F013EF1233E2EE75F0C5
:1066540013A42583F5831233FEE92407F9E43AFAF7
:1066640012000EEF2401F557E43EF55690993AE4F2
:1066740093FF7B737D0112A3829002B5E060FAE57B
:106684005012349966A70066F401674002678C03D0
:1066940067D80468240568700668BB07690B08009E
:1066A40000690E854C84E5D8547FB54F19D390000A
:1066B40026E094CA900025E09402400A3086073010
:1066C40087047F0180027F008F4E758401E54E6050
:1066D40007208E047F0180027F008F4E758402E5BF
:1066E4004E6008208E057F010269047F0002690460
:1066F400854C84E5D8547FB54F19C3900026E094A7
:106704005E900025E09401500A2086073087047FBC
:106714000180027F008F4E758401E54E6007208E54
:10672400047F0180027F008F4E758402E54E60076E
:10673400208E047F0180027F00026904854C84E579
:10674400D8547FB54F19C3900026E0945E9000257D
:10675400E09401500A3086072087047F0180027F7D
:10676400008F4E758401E54E6007208E047F018002
:10677400027F008F4E758402E54E6007208E047FF1
:106784000180027F00026904854C84E5D8547FB5FA
:106794004F19C3900026E0945E900025E0940150C8
:1067A4000A3086073087047F0180027F008F4E7590
:1067B4008401E54E6007208E047F0180027F008FF4
:1067C4004E758402E54E6007208E047F0180027FAF
:1067D40000026904854C84E5D8547FB54F19C390F1
:1067E4000026E0945E900025E09401500A3086076C
:1067F4003087047F0180027F008F4E758401E54E4F
:106804006007208E047F0180027F008F4E75840212
:10681400E54E6007208E047F0180027F0002690438
:10682400854C84E5D8547FB54F19C3900026E09475
:106834005E900025E09401500A3086073087047F7B
:106844000180027F008F4E758401E54E6007208E23
:10685400047F0180027F008F4E758402E54E60073D
:10686400208E047F0180027F00026904854C84E548
:10687400D8547FB54F19C3900026E0945E9000254C
:10688400E09401500A3086073087047F0180027F3C
:10689400008F4E758401E54E6007208E047F0180D1
:1068A400027F008F4E758402E54E6007308E047FB0
:1068B4000180027F008049854C84E5D8547FB54F20
:1068C40019C3900026E0945E900025E09401500ADC
:1068D4003086073087047F0180027F008F4E7584E5
:1068E40001E54E6007308E047F0180027F008F4EE9
:1068F400758402E54E6007208E047F0180027F00CC
:106904008F4E854C848003754E01E49002B5F0E50A
:066914004E60030269CB96
:10691A00900D0212337300015F90E4FFFEFDFC90BC
:10692A000D0212332BD31232444017900D02123348
:10693A001F74FFFBFAF9F81230F1900D0212336757
:02694A0080D8F3
:10694C0090993BE493FF3395E0FE90029B75F01316
:10695C00EF1233E2EE75F013A42583F5831233FEA8
:10696C00E92407F9E43AFA7556FF7557817558C54D
:10697C007559FF755A84755BFB1270C790993BE48F
:10698C0093FF3395E0FE90029B75F013EF1233E208
:10699C00EE75F013A42583F5831233FEE92407F971
:1069AC00E43AFA12000EEF2401F557E43EF5569046
:1069BC00993AE493FF7B737D0112A382E4F54DE5D4
:1069CC00507005754F018006E54F25E0F54F0550D9
:0A69DC00E550D3940850030265C192
:1069E600900D0612337300015F90E4FFFEFDFC90EC
:1069F6000D0612332BD31232444017900D06123374
:106A06001F74FFFBFAF9F81230F1900D0612336786
:026A160080D826
:106A1800E54D90993B6038E493FF3395E0FE900292
:106A28009B75F013EF1233E2EE75F013A42583F58E
:106A3800831233FEE92407F9E43AFA7556FF7557CD
:106A4800817558C57559FF755A85755B078036E499
:106A580093FF3395E0FE90029B75F013EF1233E23B
:106A6800EE75F013A42583F5831233FEE92407F9A4
:106A7800E43AFA7556FF7557817558C57559FF750B
:106A88005A85755B171270C790993BE493FF33954D
:106A9800E0FE90029B75F013EF1233E2EE75F013EF
:106AA800A42583F5831233FEE92407F9E43AFA12A0
:106AB800000EEF2401F557E43EF55690993AE49319
:106AC800FF7B737D0112A382758402E4F588D2B33B
:0D6AD800C2B6C2B5C2B4900004F0854C8473
:016AE500228E
:097D880085844C9000047401F0A4
:107D9100900CF612337300015F90E4FFFEFDFC903E
:107DA1000CF612332BD31232444017900CF61233D7
:107DB1001F74FFFBFAF9F81230F1900CF6123367D9
:027DC10080D868
:107DC30090993BE493FF3395E0FE90029B75F0138B
:107DD300EF1233E2EE75F013A42583F5831233FE1D
:107DE300E92407F9E43AFA7556FF7557817558C5C2
:107DF3007559FF755A85755B2C1270C790993BE4D2
:107E030093FF3395E0FE90029B75F013EF1233E27C
:107E1300EE75F013A42583F5831233FEE92407F9E5
:107E2300E43AFA12000EEF2401F557E43EF55690BA
:107E3300993AE493FF7B737D0112A382900018E0CB
:027E4300706E5F
:107E4500900CFA12337300015F90E4FFFEFDFC9085
:107E55000CFA12332BD31232444017900CFA12331A
:107E65001F74FFFBFAF9F81230F1900CFA12336720
:027E750080D8B3
:107E770090993BE493FF3395E0FE90029B75F013D6
:107E8700EF1233E2EE75F013A42583F5831233FE68
:107E9700E92407F9E43AFA7556FF7557817558C50D
:0F7EA7007559FF755A84755BCA02817175C820C1
:107EB600900CFE12337300015F90E4FFFEFDFC9010
:107EC6000CFE12332BD31232444017900CFE1233A1
:107ED6001F74FFFBFAF9F81230F1900CFE123367AB
:027EE60080D842
:107EE80090993BE493FF3395E0FE90029B75F01365
:107EF800EF1233E2EE75F013A42583F5831233FEF7
:107F0800E92407F9E43AFA7556FF7557817558C59B
:107F18007559FF755A85755B381270C790993BE49F
:107F280093FF3395E0FE90029B75F013EF1233E256
:107F3800EE75F013A42583F5831233FEE92407F9BF
:107F4800E43AFA12000EEF2401F557E43EF5569094
:107F5800993AE493FF7B737D0112A3827F0112C4D7
:047F6800E975C8608F
:107F6C00900D0212337300015F90E4FFFEFDFC9054
:107F7C000D0212332BD31232444017900D021233E0
:107F8C001F74FFFBFAF9F81230F1900D02123367EF
:027F9C0080D88B
:107F9E0090993BE493FF3395E0FE90029B75F013AE
:107FAE00EF1233E2EE75F013A42583F5831233FE40
:107FBE00E92407F9E43AFA7556FF7557817558C5E5
:107FCE007559FF755A85755B4B1270C790993BE4D6
:107FDE0093FF3395E0FE90029B75F013EF1233E2A0
:107FEE00EE75F013A42583F5831233FEE92407F909
:107FFE00E43AFA12000EEF2401F557E43EF55690DE
:0E800E00993AE493FF7B737D0112A382C2FFB7
:10801C00900D061233730006DDD0E4FFFEFDFC90DC
:10802C000D0612332BD31232444017900D06123327
:10803C001F74FFFBFAF9F81230F1900D061233673A
:02804C0080D8DA
:02804E00D2FF5F
:10805000900D0A12337300015F90E4FFFEFDFC9067
:108060000D0A12332BD31232444017900D0A1233EB
:108070001F74FFFBFAF9F81230F1900D0A12336702
:0280800080D8A6
:1080820090993BE493FF3395E0FE90029B75F013C9
:10809200EF1233E2EE75F013A42583F5831233FE5B
:1080A200E92407F9E43AFA7556FF7557817558C500
:1080B2007559FF755A85755B5E1270C790993BE4DE
:1080C20093FF3395E0FE90029B75F013EF1233E2BB
:1080D200EE75F013A42583F5831233FEE92407F924
:1080E200E43AFA12000EEF2401F557E43EF55690F9
:1080F200993AE493FF7B737D0112A382E4FF12C4D9
:04810200E9E4F5C8EF
:10810600900D0E12337300015F90E4FFFEFDFC90AC
:108116000D0E12332BD31232444017900D0E12332C
:108126001F74FFFBFAF9F81230F1900D0E12336747
:0281360080D8EF
:1081380090993BE493FF3395E0FE90029B75F01312
:10814800EF1233E2EE75F013A42583F5831233FEA4
:10815800E92407F9E43AFA7556FF7557817558C549
:108168007559FF755A85755B721270C790993BE413
:1081780093FF3395E0FE90029B75F013EF1233E204
:10818800EE75F013A42583F5831233FEE92407F96D
:10819800E43AFA12000EEF2401F557E43EF5569042
:1081A800993AE493FF7B737D0112A382D2B3C2B6DE
:0C81B800C2B5C2B4E4900004F0854C8411
:0181C4002298
:0F74DA00E4F550A2FB920185845190000404F068
:1074E900900CF612337300015F90E4FFFEFDFC90EF
:1074F9000CF612332BD31232444017900CF6123388
:107509001F74FFFBFAF9F81230F1900CF612336789
:0275190080D818
:10751B0090993BE493FF3395E0FE90029B75F0133B
:10752B00EF1233E2EE75F013A42583F5831233FECD
:10753B00E92407F9E43AFA7556FF7557817558C572
:10754B007559FF755A85755B831270C790993BE42B
:10755B0093FF3395E0FE90029B75F013EF1233E22D
:10756B00EE75F013A42583F5831233FEE92407F996
:10757B00E43AFA12000EEF2401F557E43EF556906B
:10758B00993AE493FF7B737D0112A382900018E07C
:02759B00706E10
:10759D00900CFA12337300015F90E4FFFEFDFC9036
:1075AD000CFA12332BD31232444017900CFA1233CB
:1075BD001F74FFFBFAF9F81230F1900CFA123367D1
:0275CD0080D864
:1075CF0090993BE493FF3395E0FE90029B75F01387
:1075DF00EF1233E2EE75F013A42583F5831233FE19
:1075EF00E92407F9E43AFA7556FF7557817558C5BE
:1075FF007559FF755A84755BCA0278E0C2FBE4F5D2
:03760F0084D2C65C
:10761200900CFE12337300015F90E4FFFEFDFC90BC
:107622000CFE12332BD31232444017900CFE12334D
:107632001F74FFFBFAF9F81230F1900CFE12336757
:0276420080D8EE
:10764400754C00754D08754E00754F3290993BE4AA
:1076540093FF3395E0FE90029B75F013EF1233E233
:10766400EE75F013A42583F5831233FEE92407F99C
:10767400E43AFA7556FF755785755897854C5985C0
:107684004D5A854E5B854F5C1270C790993BE493CD
:10769400FF3395E0FE90029B75F013EF1233E2EE98
:1076A40075F013A42583F5831233FEE92407F9E466
:1076B4003AFA12000EEF2401F557E43EF55690997C
:1076C4003AE493FF7B737D0112A382D2B6D2B3C294
:1076D400B4C2B59000501233FE7408122F0DE4F5B5
:1076E4004CF54DE54D2440FF9000501233FEE54D1E
:1076F4002401FDE4354C8D82F583EF122F1F054DD7
:10770400E54D7002054C6408454C70D790004E74EA
:1077140009F0A314F090004B7404F0E4F54EF54F17
:10772400E4900056F012C554AE4EAF4F7C007D0A73
:10773400122F53ED4C6002B2B530E819C39002CF5A
:10774400E094099002CEE094004003027835E4907E
:0577540002CEF0A3F0DD
:10775900900D0212337300001194E4FFFEFDFC90BA
:107769000D0212332BD31232444017900D021233FB
:107779001F74FFFBFAF9F81230F1900D021233670A
:0277890080D8A6
:10778B0012C538E4FFFE900056E0FD700D0FEF7050
:10779B00010EC394ECEE942C40ECED70057550018A
:1077AB00803EE4F54CF54D9000501233FEE54D2430
:1077BB0001FFE4354C8F82F583122EADFF90005301
:1077CB001233FE854D82854C83122EAD6F6003758F
:1077DB005001054DE54D7002054C6408454C70C7D2
:0477EB00E5507046AF
:1077EF00900D0612337300001194E4FFFEFDFC9020
:1077FF000D0612332BD31232444017900D0612335D
:10780F001F74FFFBFAF9F81230F1900D061233676F
:02781F0080D80F
:10782100054FE54F7002054EC39432E54E9400506A
:0878310003027724A20192FB7F
:10783900900D0A12337300015F90E4FFFEFDFC9086
:107849000D0A12332BD31232444017900D0A12330A
:107859001F74FFFBFAF9F81230F1900D0A12336721
:0278690080D8C5
:10786B00E55090993B6038E493FF3395E0FE90022E
:10787B009B75F013EF1233E2EE75F013A42583F52D
:10788B00831233FEE92407F9E43AFA7556FF75576C
:10789B00817558C57559FF755A85755BAB8036E494
:1078AB0093FF3395E0FE90029B75F013EF1233E2DA
:1078BB00EE75F013A42583F5831233FEE92407F943
:1078CB00E43AFA7556FF7557817558C57559FF75AA
:1078DB005A85755BC11270C790993BE493FF339542
:1078EB00E0FE90029B75F013EF1233E2EE75F0138E
:1078FB00A42583F5831233FEE92407F9E43AFA123F
:10790B00000EEF2401F557E43EF55690993AE493B7
:10791B00FF7B737D0112A382D2B3C2B4C2B5C2B6D0
:08792B00E4900004F085518492
:017933002231
:10B6BA00A2FB920185844E9000047401F090004E22
:10B6CA007410F0A3F0E4900056F0900018E07003B4
:10B6DA0002B773C2FB7E00754C00754D32D2B6D2EA
:10B6EA00B3C2B4C2B5E4F58475C304C2C3FFEF2480
:10B6FA00F0FD9000501233FE8F828E83ED122F1FC1
:10B70A000FBF00010EEF64084E70E3900056E06030
:10B71A00FA30E816C39002CFE094099002CEE09482
:10B72A00005042E49002CEF0A3F0E4900056F0FEFE
:10B73A00FF90004FE0FDC3EF9DEE94005023900070
:10B74A00531233FE8F828E83122EADFD900050125B
:10B75A0033FE8F828E83ED122F1F0FBF00010E80E2
:10B76A00D0B2B580A6A20192FBD2B3C2B4C2B5C20E
:09B77A00B6E4900004F0854E8451
:01B7830022A3
:10C4600001120101060101020100000001000000AB
:10C470000C00000077000004A900002E9B0001D2F0
:10C48000090012345600B60B61071C71C7471C71B6
:01C49000C7E4
:04B6A1004111210032
:108D66009002AE1233FE8B418A4289439002ADE0F7
:108D76009002ACF0E4F53BF53CF540F53FF53EF5E9
:108D86003DAB41AA42A943053CE53CAE3B7002051A
:108D96003B142406F582E43EF58374FA122F1F0570
:108DA6003CE53CAE3B7002053B142406F582E43EEE
:108DB600F583E4122F1F053CE53CAE3B7002053BF4
:108DC600142406F582E43EF5837401122F1F053C38
:108DD600E53CAE3B7002053B142406F582E43EF505
:108DE60083E4122F1F053CE53CAE3B7002053B14A5
:108DF6002406F582E43EF5837401122F1F053CE537
:108E06003CAE3B7002053B142406F582E43EF58336
:108E1600E4122F1FAD3CAC3B7F087E0612B799903B
:108E260002A3E07002A3E070F6900278E0F53BA39F
:108E3600E0F53C9002ADE0FF9002ACE0B507137898
:108E46003D1233477B407A4B794C7800D312325A25
:108E560050E19002ADE0FF9002ACE06F7003028D2E
:108E66007AE4F53BF53CAB41AA42A943053CE53C17
:108E7600AE3B7002053B142406F582E43EF583748E
:108E860001122F1F053CE53CAE3B7002053B142446
:108E960006F582E43EF583E4122F1F053CE53CAE61
:108EA6003B7002053B142406F582E43EF583E4128A
:108EB6002F1F053CE53CAE3B7002053B142406F52E
:108EC60082E43EF583E4122F1F053CE53CAE3B7081
:108ED60002053B142406F582E43EF58374C0122F86
:108EE6001F053CE53CAE3B7002053B142406F582AB
:108EF600E43EF5837408122F1F053CE53CAE3B703B
:108F060002053B142406F582E43EF583E4122F1F86
:108F1600053CE53CAE3B7002053B142406F582E4B5
:108F26003EF583E4122F1FE92406F9E43AFAE9250F
:108F36003CF9EA353BFA1233A400E100007404253B
:108F46003CF53CE4353BF53BAB41AA42A943053C25
:108F5600E53CAE3B7002053B142406F582E43EF583
:108F6600837401122F1F053CE53CAE3B7002053BA6
:108F7600142406F582E43EF583E4122F1F053CE532
:108F86003CAE3B7002053B142406F582E43EF583B5
:108F96007401122F1F053CE53CAE3B7002053B14E5
:108FA6002406F582E43EF583E4122F1F053CE53CDA
:108FB600AE3B7002053B142406F582E43EF583E4DD
:108FC600122F1F053CE53CAE3B7002053B14240600
:108FD600F582E43EF583E4122F1F053CE53CAE3BEB
:108FE6007002053B142406F582E43EF583E4122F55
:108FF6001F053CE53CAE3B7002053B142406F5829A
:10900600E43EF583E4122F1FAD3CAC3B7F007E06A9
:0D90160012B7999002A3E07002A3E070F67B
:10902300900CE6123373000008CAE4FFFEFDFC90C7
:109033000CE612332BD31232444017900CE6123352
:109043001F74FFFBFAF9F81230F1900CE612336744
:0290530080D8C3
:109055007B017A0279A17F007EE17D007C00129D73
:019065007595
:10906600900CEA12337300004650E4FFFEFDFC90BC
:109076000CEA12332BD31232444017900CEA123307
:109086001F74FFFBFAF9F81230F1900CEA123367FD
:0290960080D880
:0190980022B5
:1000A600781C7C0F7D017BFF7AC479607E007F0916
:1000B600122E6E9002AE1233FE8B538A54895590DF
:1000C6000018E0700302020A9002ADE09002ACF064
:1000D600E4F552E4F550F551E55275F003A4241CFD
:1000E600F582E4340FF583E0FFAB53AA54A9550516
:1000F60051E551AC5070020550142406F582E43CDB
:10010600F583EF122F1FE55275F003A4241CF58228
:10011600E4340FF583A3E0FF0551E551AC507002BE
:100126000550142406F582E43CF583EF122F1FE5F3
:100136005275F003A4241EF582E4340FF583E0FF24
:100146000551E551AC5070020550142406F582E4C1
:100156003CF583EF12B78E9002A3E07002A3E07025
:10016600F69002ADE0FF9002ACE06F60F49002B151
:100176001233FE9002ADE0FF75F0DCA4F58285F047
:1001860083123035F55185F050EFB402047F0080BC
:10019600069002ADE004FF9002ADEFF0E551640178
:1001A6007004E5506405600C9002ADE0FF9002AC6F
:0401B600E0B507B9F0
:1001BA00900EFC12337300001194E4FFFEFDFC90D4
:1001CA000EFC12332BD31232444017900EFC12331A
:1001DA001F74FFFBFAF9F81230F1900EFC12336724
:0201EA0080D8BB
:1001EC00E55164017004E550640560030200D90513
:1001FC0052E552C3940350030200D9020DD2E4F528
:10020C0050F551AB53AA54A9550551E551AE507058
:10021C00020550142406F582E43EF5837401122F76
:10022C001F0551E551AE5070020550142406F5829D
:10023C00E43EF5837402122F1F0551E551AE507048
:10024C00020550142406F582E43EF583E4122F1FB8
:10025C000551E551AE5070020550142406F582E4A8
:10026C003EF5837401122F1F0551E551AE507002FB
:10027C000550142406F582E43EF583E4122F1F0585
:10028C0051E551AE5070020550142406F582E43E3F
:10029C00F583E4122F1F0551E551AE507002055045
:1002AC00142406F582E43EF5837401122F1F0551C8
:1002BC00E551AE5070020550142406F582E43EF56B
:1002CC00837401122F1F0551E551AE507002055079
:1002DC00142406F582E43EF583E4122F1F0551E544
:1002EC0051AE5070020550142406F582E43EF5839D
:1002FC00E4122F1F0551E551AE5070020550142425
:10030C0006F582E43EF583E4122F1F0551E551AE4C
:10031C005070020550142406F582E43EF583E41275
:10032C002F1F0551E551AE5070020550142406F5EF
:10033C0082E43EF5837401122F1F0551E551AE5036
:10034C0070020550142406F582E43EF583740612FF
:10035C002F1F0551E551AE5070020550142406F5BF
:10036C0082E43EF583E4122F1F0551E551AE507027
:10037C00020550142406F582E43EF5837401122F15
:10038C001F0551E551AE5070020550142406F5823C
:10039C00E43EF583E4122F1F0551E551AE50700277
:1003AC000550142406F582E43EF583E4122F1F0554
:1003BC0051E551AE5070020550142406F582E43E0E
:1003CC00F5837401122F1F0551E551AE50700205D3
:1003DC0050142406F582E43EF5837412122F1F0587
:1003EC0051E551AE5070020550142406F582E43EDE
:1003FC00F583E4122F1F0551E551AE5070020550E4
:10040C00142406F582E43EF5837401122F1F055166
:10041C00E551AE5070020550142406F582E43EF509
:10042C0083E4122F1F0551E551AE50700205501494
:10043C002406F582E43EF583E4122F1F0551E551A5
:10044C00AE5070020550142406F582E43EF5837418
:10045C0001122F1F0551E551AE50700205501424A6
:10046C0006F582E43EF5837403122F1F0551E55106
:10047C00AE5070020550142406F582E43EF583E478
:10048C00122F1F0551E551AE507002055014240671
:10049C00F582E43EF583E4122F1F0551E551AE5071
:1004AC0070020550142406F582E43EF583E4122F05
:1004BC001F0551E551AE5070020550142406F5820B
:1004CC00E43EF583E4122F1F0551E551AE50700246
:1004DC000550142406F582E43EF5837401122F1F97
:1004EC000551E551AE5070020550142406F582E416
:1004FC003EF5837430122F1F0551E551AE5070023A
:10050C000550142406F582E43EF583E4122F1F05F2
:10051C0051E551AE5070020550142406F582E43EAC
:10052C00F583E4122F1F0551E551AE5070020550B2
:10053C00142406F582E43EF583E4122F1F0551E5E1
:10054C0051AE5070020550142406F582E43EF5833A
:10055C00E4122F1F0551E551AE50700205501424C2
:10056C0006F582E43EF5837401122F1F0551E55107
:10057C00AE5070020550142406F582E43EF58374E7
:10058C0004122F1F0551E551AE5070020550142472
:10059C0006F582E43EF583E4122F1F0551E551AEBA
:1005AC005070020550142406F582E43EF583E412E3
:1005BC002F1F0551E551AE5070020550142406F55D
:1005CC0082E43EF583E4122F1F0551E551AE5070C5
:1005DC00020550142406F582E43EF583E4122F1F25
:1005EC000551E551AE5070020550142406F582E415
:1005FC003EF5837401122F1F0551E551AE50700268
:10060C000550142406F582E43EF5837420122F1F46
:10061C000551E551AE5070020550142406F582E4E4
:10062C003EF583E4122F1F0551E551AE50700205C3
:10063C0050142406F582E43EF583E4122F1F055175
:10064C00E551AE5070020550142406F582E43EF5D7
:10065C0083E4122F1F0551E551AE50700205501264
:10066C00B7849002A3E07002A3E070F69002ADE0B4
:10067C00FF9002ACE06F60F49002B11233FE900276
:10068C00ADE0FF75F0DCA4F58285F083123035F512
:10069C005185F050EFB402047F0080069002ADE06B
:1006AC0004FF9002ADEFF0E55164017004E5506475
:0F06BC0005600C9002ADE0FF9002ACE0B507B90D
:1006CB00900F0012337300002328E4FFFEFDFC9013
:1006DB000F0012332BD31232444017900F001233FA
:1006EB001F74FFFBFAF9F81230F1900F0012336709
:0206FB0080D8A5
:1006FD00E55164017004E5506405600302020AE4EB
:10070D00F550F551AB53AA54A9550551E551AE50CD
:10071D0070020550142406F582E43EF5837401122F
:10072D002F1F0551E551AE5070020550142406F5EA
:10073D0082E43EF5837411122F1F0551E551AE5021
:10074D0070020550142406F582E43EF583E4122F61
:10075D001F0551E551AE5070020550142406F58267
:10076D00E43EF583E4122F1F0551E551AE507002A2
:10077D000550142406F582E43EF583E4122F1F057F
:10078D0051E551AE5070020550142406F582E43E39
:10079D00F583E4122F1F0551E551AE50700205503F
:1007AD00142406F582E43EF5837401122F1F0551C2
:1007BD00E551AE5070020550142406F582E43EF565
:1007CD00837421122F1F0551E551AE507002055053
:1007DD00142406F582E43EF583E4122F1F0551E53E
:1007ED0051AE5070020550142406F582E43EF58397
:1007FD00E4122F1F0551E551AE507002055014241F
:10080D0006F582E43EF583E4122F1F0551E551AE46
:10081D005070020550142406F582E43EF583E4126F
:10082D002F1F0551E551AE5070020550142406F5E9
:10083D0082E43EF5837401122F1F0551E551AE5030
:10084D0070020550142406F582E43EF583742212DD
:10085D002F1F0551E551AE5070020550142406F5B9
:10086D0082E43EF583E4122F1F0551E551AE507021
:10087D00020550142406F582E43EF583E4122F1F81
:10088D000551E551AE5070020550142406F582E471
:10089D003EF583E4122F1F0551E551AE5070020550
:1008AD0050142406F582E43EF583E4122F1F055102
:1008BD00E551AE5070020550142406F582E43EF564
:1008CD0083740A122F1F0551E551AE507002055069
:1008DD00142406F582E43EF5837407122F1F05518B
:1008ED00E551AE5070020550142406F582E43EF534
:1008FD0083E4122F1F0551E551AE507002055014BF
:10090D002406F582E43EF583E4122F1F0551E551CF
:10091D00AE5070020550142406F582E43EF583E4D2
:10092D00122F1F0551E551AE5070020550142406CB
:10093D00F582E43EF583E4122F1F0551E551AE50CB
:10094D0070020550142406F582E43EF583740A12F4
:10095D002F1F0551E551AE5070020550142406F5B8
:10096D0082E43EF5837408122F1F0551E551AE50F8
:10097D0070020550142406F582E43EF583E4122F2F
:10098D001F0551E551AE5070020550142406F58235
:10099D00E43EF583E4122F1F0551E551AE50700270
:1009AD000550142406F582E43EF583E4122F1F054D
:1009BD0051E551AE5070020550142406F582E43E07
:1009CD00F583E4122F1F0551E551AE50700205500D
:1009DD00142406F582E43EF583740A122F1F055187
:1009ED00E551AE5070020550142406F582E43EF533
:1009FD00837402122F1F0551E551AE507002055040
:100A0D00142406F582E43EF583E4122F1F0551E50B
:100A1D0051AE5070020550142406F582E43EF58364
:100A2D00E4122F1F0551E551AE50700205501424EC
:100A3D0006F582E43EF583E4122F1F0551E551AE14
:100A4D005070020550142406F582E43EF583E4123D
:100A5D002F1F0551E551AE5070020550142406F5B7
:100A6D0082E43EF583740A122F1F0551E551AE50F5
:100A7D0070020550142406F582E43EF583740912C4
:100A8D002F1F0551E551AE5070020550142406F587
:100A9D0082E43EF583E4122F1F0551E551AE5070EF
:100AAD00020550142406F582E43EF583E4122F1F4F
:100ABD000551E551AE5070020550142406F582E43F
:100ACD003EF583E4122F1F0551E551AE507002051E
:100ADD0050142406F582E43EF583E4122F1F0551D0
:100AED00E551AE5070020550142406F582E43EF532
:100AFD0083740A122F1F0551E551AE507002055037
:100B0D00142406F582E43EF5837401122F1F05515E
:100B1D00E551AE5070020550142406F582E43EF501
:100B2D0083E4122F1F0551E551AE5070020550148C
:100B3D002406F582E43EF583E4122F1F0551E5519D
:100B4D00AE5070020550142406F582E43EF583E4A0
:100B5D00122F1F0551E551AE507002055014240699
:100B6D00F582E43EF583E4122F1F0551E551AE5099
:100B7D0070020550142406F582E43EF583740A12C2
:100B8D002F1F0551E551AE5070020550142406F586
:100B9D0082E43EF5837403122F1F0551E551AE50CB
:100BAD0070020550142406F582E43EF583E4122FFD
:100BBD001F0551E551AE5070020550142406F58203
:100BCD00E43EF583E4122F1F0551E551AE5070023E
:100BDD000550142406F582E43EF583E4122F1F051B
:100BED0051E551AE507002055012B7849002A3E04A
:100BFD007002A3E070F69002ADE0FF9002ACE06FE2
:100C0D0060F49002B11233FE9002ADE0FF75F0DC9E
:100C1D00A4F58285F083123035F55185F050EFB48F
:100C2D0002047F0080069002ADE004FF9002ADEF5C
:100C3D00F0E55164017004E5506405600C9002AD5F
:090C4D00E0FF9002ACE0B507B92C
:100C5600900F0412337300002328E4FFFEFDFC907E
:100C66000F0412332BD31232444017900F04123361
:100C76001F74FFFBFAF9F81230F1900F0412336774
:020C860080D814
:100C8800E55164017004E5506405600302070CE453
:100C9800F550F551AB53AA54A9550551E551AE503D
:100CA80070020550142406F582E43EF58374FA12A6
:100CB8002F1F0551E551AE5070020550142406F55A
:100CC80082E43EF583E4122F1F0551E551AE5070C2
:100CD800020550142406F582E43EF5837401122FB0
:100CE8001F0551E551AE5070020550142406F582D7
:100CF800E43EF583E4122F1F0551E551AE50700212
:100D08000550142406F582E43EF5837401122F1F62
:100D18000551E551AE5070020550142406F582E4E1
:100D28003EF583E4122F1F7F0812B7939002A3E0C9
:100D38007002A3E070F69002ADE0FF9002ACE06FA5
:100D480060F49002B11233FE9002ADE0FF75F0DC62
:100D5800A4F58285F083123035F55185F050EFB453
:100D680002047F0080069002ADE004FF9002ADEF20
:100D7800F0E55164017004E5506405600C9002AD23
:090D8800E0FF9002ACE0B507B9F0
:100D9100900F0812337300001194E4FFFEFDFC90E4
:100DA1000F0812332BD31232444017900F0812331D
:100DB1001F74FFFBFAF9F81230F1900F0812336734
:020DC10080D8D8
:0F0DC300E55164017004E55064056003020C976C
:100DD200900CB5E0FBE4FAF9F87F807E967D98FCF2
:100DE20012C3848F598E588D578C56780812326BE5
:100DF200E4FFE4FDFCC004C005C006C007AF59AE65
:100E020058AD57AC56781812326BE4FEFDFCD00395
:100E1200D002D001D000123229C004C005C006C0E1
:100E220007AF59AE58AD57AC56780812327EE4FF80
:100E3200FEE4FCD003D002D001D000123229C0045B
:100E4200C005C006C007AF59AE58AD57AC567818AA
:100E520012327EE4FFFEFDECD003D002D001D000BE
:100E6200123229AB53AA54A9559000061232FBE460
:100E720075590AF558F557F556AF59AE58AD57ACF6
:100E820056780812326BE4FFE4FDFCC004C005C0D2
:100E920006C007AF59AE58AD57AC56781812326B30
:100EA200E4FEFDFCD003D002D001D000123229C0F2
:100EB20004C005C006C007AF59AE58AD57AC56784E
:100EC2000812327EE4FFFEE4FCD003D002D001D04F
:100ED20000123229C004C005C006C007AF59AE587F
:100EE200AD57AC56781812327EE4FFFEFDECD0030B
:100EF200D002D001D000123229AB53AA54A9559086
:100F0200000A1232FB7550007551080551E551AEC9
:100F12005070020550142406F582E43EF5837401F4
:100F2200122F1F0551E551AE5070020550142406D0
:100F3200F582E43EF5837401122F1F0551E551AE8F
:100F42005070020550142406F582E43EF583E41243
:100F52002F1F0551E551AE5070020550142406F5BD
:100F620082E43EF583E4122F1F0551E551AE507025
:100F7200020550142406F582E43EF5837432122FE2
:100F82001F0551E551AE5070020550142406F5823A
:100F9200E43EF583E4122F1F0551E551AE50700275
:100FA2000550142406F582E43EF5837434122F1F93
:100FB2000551E551AE5070020550142406F582E445
:100FC2003EF5837403122F1F0551E551AE50700296
:100FD2000550142406F582E43EF583E4122F1F0522
:100FE20051E551AE5070020550142406F582E43EDC
:100FF200F583E4122F1F0551E551AE5070020550E2
:10100200142406F582E43EF583E4122F1F0551E510
:1010120051AE5070020550142406F582E43EF58369
:10102200E4122F1FAD51AC507F077E0612B7999084
:1010320002A3E07002A3E070F69002ADE0FF90021E
:10104200ACE06F60F49002B11233FE9002ADE0FFAB
:1010520075F0DCA4F58285F083123035F55185F008
:1010620050EFB402047F0080069002ADE004FF90CE
:1010720002ADEFF0E55164017004E5506405600CC7
:0C1082009002ADE0FF9002ACE0B507B9B1
:10108E00900F0C12337300001194E4FFFEFDFC90E0
:10109E000F0C12332BD31232444017900F0C123315
:1010AE001F74FFFBFAF9F81230F1900F0C12336730
:0210BE0080D8D8
:1010C000E55164017004E55064056003020DD2909F
:1010D0000018E070030217E5E4F550F551AB53AA90
:1010E00054A9550551E551AE50700205501424061F
:1010F000F582E43EF583E4122F1F0551E551AE5011
:1011000070020550142406F582E43EF583E4122FA4
:101110001F0551E551AE5070020550142406F582AA
:10112000E43EF583E4122F1F0551E551AE507002E5
:101130000550142406F582E43EF583E4122F1F05C2
:1011400051E551AE5070020550142406F582E43E7C
:10115000F5837440122F1F0551E551AE5070020502
:1011600050142406F582E43EF583741F122F1F05E8
:1011700051E551AE5070020550142406F582E43E4C
:10118000F58374E8122F1F0551E551AE507002052A
:1011900050142406F582E43EF5837403122F1F05D4
:1011A00051E551AE5070020550142406F582E43E1C
:1011B000F5837498122F1F0551E551AE507002054A
:1011C00050142406F582E43EF583743A122F1F056D
:1011D00051E551AE5070020550142406F582E43EEC
:1011E000F58374B0122F1F0551E551AE5070020502
:1011F00050142406F582E43EF5837404122F1F0573
:1012000051E551AE5070020550142406F582E43EBB
:10121000F58374E8122F1F0551E551AE5070020599
:1012200050142406F582E43EF5837403122F1F0543
:1012300051E551AE5070020550142406F582E43E8B
:10124000F5837403122F1F0551E551AE507002054E
:1012500050142406F582E43EF583E4122F1FAD51AD
:10126000AC507F257E0612B7999002A3E07002A3CE
:10127000E070F69002ADE0FF9002ACE06F60F49099
:1012800002B11233FE9002ADE0FF75F0DCA4F582EE
:1012900085F083123035F55185F050EFB402047FAC
:1012A0000080069002ADE004FF9002ADEFF0E55142
:1012B00064017004E5506405600C9002ADE0FF909D
:0612C00002ACE0B507B925
:1012C600900F1012337300001194E4FFFEFDFC90A2
:1012D6000F1012332BD31232444017900F101233D3
:1012E6001F74FFFBFAF9F81230F1900F10123367F2
:0212F60080D89E
:1012F800E55164017004E550640560030210D805E7
:1013080051E55170020550E4F550F551AB53AA541C
:10131800A9550551E551AE5070020550142406F543
:1013280082E43EF583E4122F1F0551E551AE50705B
:10133800020550142406F582E43EF583E4122F1FBB
:101348000551E551AE5070020550142406F582E4AB
:101358003EF583E4122F1F0551E551AE507002058A
:1013680050142406F582E43EF583E4122F1F05513C
:10137800E551AE5070020550142406F582E43EF59E
:1013880083E4122F1F0551E551AE50700205501429
:101398002406F582E43EF583E4122F1F0551E5513A
:1013A800AE5070020550142406F582E43EF583E43D
:1013B800122F1F0551E551AE507002055014240636
:1013C800F582E43EF583E4122F1FAD51AC507F1631
:1013D8007E0612B7999002A3E07002A3E070F6901F
:1013E80002ADE0FF9002ACE06F60F49002B11233FE
:1013F800FE9002ADE0FF75F0DCA4F58285F0831263
:101408003035F55185F050EFB402047F0080069026
:1014180002ADE004FF9002ADEFF0E5516401700405
:10142800E5506405600C9002ADE0FF9002ACE0B5B9
:0214380007B9F2
:10143A00900F1412337300001194E4FFFEFDFC9028
:10144A000F1412332BD31232444017900F14123355
:10145A001F74FFFBFAF9F81230F1900F1412336778
:02146A0080D828
:10146C00E55164017004E5506405600302130FE458
:10147C00F550F551AB53AA54A9550551E551AE5051
:10148C0070020550142406F582E43EF583740512AF
:10149C002F1F0551E551AE5070020550142406F56E
:1014AC0082E43EF583E4122F1F0551E551AE5070D6
:1014BC00020550142406F582E43EF5837404122FC1
:1014CC001F0551E551AE5070020550142406F582EB
:1014DC00E43EF5837402122F1FE92406F9E43AFA6C
:1014EC00E92551F9EA3550FA1233A450C3000074BF
:1014FC00042551F551E43550F550AB53E555240610
:10150C00F9E43554FAE92551F9EA3550FA1233A4C5
:10151C000000000074042551F551E43550F550AB32
:10152C0053AA54A9550551E551AE507002055014FB
:10153C002406F582E43EF5837405122F1F0551E550
:10154C0051AE5070020550142406F582E43EF5832A
:10155C00E4122F1FE92406F9E43AFAE92551F9EAD5
:10156C003550FA74FA75F0001230A574022551F555
:10157C0051E43550F550AB53E5552406F9E4355498
:10158C00FAE92551F9EA3550FA74FA75F00012307F
:10159C00A574022551F551E43550F550AB53E55582
:1015AC002406F9E43554FAE92551F9EA3550FA7470
:1015BC006475F0001230A574022551F551E43550D4
:1015CC00F550AB53E5552406F9E43554FAE92551A9
:1015DC00F9EA3550FA742C75F0011230A574022515
:1015EC0051F551E43550F550AB53AA54A95505515A
:1015FC00E551AE5070020550142406F582E43EF518
:10160C0083E4122F1F0551E551AE507002055014A2
:10161C002406F582E43EF583E4122F1F0551E551B3
:10162C00AE5070020550142406F582E43EF583E4B6
:10163C00122F1F0551E551AE5070020550142406AF
:10164C00F582E43EF583E4122F1F0551E551AE50AF
:10165C0070020550142406F582E43EF583E4122F43
:10166C001F0551E551AE5070020550142406F58249
:10167C00E43EF583E4122F1F0551E551AE50700284
:10168C000550142406F582E43EF583E4122F1F0561
:10169C0051E551AE5070020550142406F582E43E1B
:1016AC00F583E4122F1F0551E551AE507002055021
:1016BC00142406F582E43EF583E4122F1F0551E550
:1016CC0051AE5070020550142406F582E43EF583A9
:1016DC00E4122F1F0551E551AE5070020550142431
:1016EC0006F582E43EF583E4122F1F0551E551AE59
:1016FC005070020550142406F582E43EF583E41282
:10170C002F1F0551E551AE5070020550142406F5FB
:10171C0082E43EF583E4122F1F0551E551AE507063
:10172C00020550142406F582E43EF583E4122F1FC3
:10173C00AD51AC507F247E0612B7999002A3E07095
:10174C0002A3E070F69002ADE0FF9002ACE06F6097
:10175C00F49002B11233FE9002ADE0FF75F0DCA400
:10176C00F58285F083123035F55185F050EFB402D7
:10177C00047F0080069002ADE004FF9002ADEFF014
:10178C00E55164017004E5506405600C9002ADE015
:08179C00FF9002ACE0B507B9B3
:1017A400900F1812337300001194E4FFFEFDFC90B7
:1017B4000F1812332BD31232444017900F181233E0
:1017C4001F74FFFBFAF9F81230F1900F1812336707
:0217D40080D8BB
:0F17D600E55164017004E5506405600302147B63
:0117E50022E1
:10B78400142406F582E43EF583E4122F1F7F01ADF5
:05B7940051AC507E06DF
:08B799008E5A8F5B8C5C8D5D04
:10B7A1009002AE1233FE74B5122F0D9002AE123319
:10B7B100FE9000017462122F1FE55A900002122FB1
:10B7C1001FE55B900003122F1FE55D900004122F0F
:10B7D1001FE55C900005122F1FE4F55FF55E7F0207
:10B7E100FEE55D2406FDE4355CFCC3EF9DEE9C5057
:10B7F1001C9002AE1233FE8F828E83122EAD255E17
:10B80100F55E255FF55F0FBF00010E80D49002AE9B
:10B811001233FEE55D2406FFE4355C8F82F583E596
:10B821005E122F1FE55D2407FFE4355C8F82F583EF
:10B83100E55F122F1F7B017A0279A1E55D2408FDE6
:07B84100E4355CFC02C0C508
:064D9A008B3B8A3C893DC1
:104DA000901121E0700804F01200A602550CAB3BF4
:104DB000AA3CA93D12300A1234BF4DCA010250BDAF
:0A4DC000010652960112000055068C
:104DCA007406253DF53DE4353CF53C7541007542D8
:104DDA0000754349E4F544F545783BE475F0011262
:104DEA0033EE122E94FF784174FFF5F01233EEEF92
:104DFA00122F0D0545E545700205446404454470CB
:104E0A00D8AC46EC3350047F0180027F008F4AAF52
:104E1A0049AE48AD47AC46EC334002800BAF49AED1
:104E2A0048AD47AC461232368F498E488D478C467C
:104E3A00AB3EAA3FA94090000A1233BE0000000010
:104E4A00E4F544F545AB3EE540240AF9E4353FFA7A
:104E5A00C003C002C001123291C004C005C006C01E
:104E6A0007E47B0AFAF9F8AF49AE48AD47AC4612F7
:104E7A00C384AC00AD01AE02AF03C004C005C006D6
:104E8A00C007E545AE447802C333CE33CED8F92401
:104E9A0069F58274C43EF583123337D007D006D041
:104EAA0005D00412310CA804A905AA06AB07D0073D
:104EBA00D006D005D0041230F1D001D002D00312AE
:104ECA0032E1AF49AE48AD47AC46E47B0AFAF9F89D
:104EDA0012C3848F498E488D478C460545E5457037
:104EEA00020544640A45446003024E4FE54A6015D0
:104EFA00AB3EAA3FA94090000A1232B11232369054
:104F0A00000A1232FB754100754200754349E4F507
:104F1A0044F545783BE475F0011233EE122E94FF06
:104F2A00784174FFF5F01233EEEF122F0D0545E5C7
:104F3A0045700205446404454470D8AC46EC3350CD
:104F4A00047F0180027F008F4AAF49AE48AD47AC6B
:104F5A0046EC334002800BAF49AE48AD47AC46122F
:104F6A0032368F498E488D478C46AB3EAA3FA940C0
:104F7A009000061233BE00000000E4F544F545AB8C
:104F8A003EE5402406F9E4353FFAC003C002C001F9
:104F9A00123291C004C005C006C007E47B0AFAF9C0
:104FAA00F8AF49AE48AD47AC4612C384AC00AD0178
:104FBA00AE02AF03C004C005C006C007E545AE4453
:104FCA007802C333CE33CED8F92469F58274C43E4D
:104FDA00F583123337D007D006D005D00412310C2E
:104FEA00A804A905AA06AB07D007D006D005D004A5
:104FFA001230F1D001D002D0031232E1AF49AE48EB
:10500A00AD47AC46E47B0AFAF9F812C3848F498E9D
:10501A00488D478C460545E54570020544640A45B6
:10502A00446003024F89E54A6015AB3EAA3FA94096
:10503A009000061232B11232369000061232FB7418
:10504A0004253DF53DE4353CF53C754100754200CB
:10505A00754349E4F544F545783BE475F0011233AC
:10506A00EE122E94FF784174FFF5F01233EEEF1230
:10507A002F0D0545E545700205446404454470D882
:10508A00AF49AE48AD47AC46E47BE87A03F9F8127B
:10509A00C3848F498E488D478C46AB3EAA3FA940B0
:1050AA0090000EEE8FF01230C49002FCE04404F03F
:1050BA0002550CAB3BAA3CA93D90002F122EADFE27
:1050CA0090002E122EAD7C002400FFEC3E9002CB05
:1050DA00F0A3EFF0900031122EAD900CBBF07402E9
:1050EA00253DF53DE4353CF53CFAA93D90000B120F
:1050FA002EAD540D640D6008E4900CBBF002528C86
:10510A00E5402403F9E4353F853E41F5428943E40D
:10511A00F544F545783BE475F0011233EE122E940E
:10512A00FF784174FFF5F01233EEEF122F0D0545AB
:10513A00E545700205446404454470D8740125436A
:10514A00F543E43542F542900CBBE0604A74FFFF38
:10515A00FEFDFC90002B12332BC312325A7038AB6F
:10516A0041AA42A943123291E4FBFAF9F8C3123276
:10517A005A6024AB41AA42A94312329174FFFBFA46
:10518A00F9F8C312325A600FAB41AA42A94312324C
:10519A009190002B123367900CBBE06038AB41AAA8
:1051AA0042A943123291E4FBFAF9F8C312325A6067
:1051BA0024AB41AA42A94312329174FFFBFAF9F8CF
:1051CA00C312325A600FAB41AA42A94312329190DC
:1051DA00003F1233677404253DF53DE4353CF53C48
:1051EA00E5402404F9E4353FFAE92401F9E43A8573
:1051FA003E41F5428943E4F544F545783BE475F0D0
:10520A00011233EE122E94FF784174FFF5F0123337
:10521A00EEEF122F0D0545E545700205446402457F
:10522A004470D874012543F543E43542F542900CA5
:10523A00BBE0FF602B900016E0B4FF24A3E0B4FFAC
:10524A001FAB41AA42A94312300AFDACF04C6010D0
:10525A00EDF47002ECF46008900016ECF0A3EDF0A7
:10526A00EF601FAB41AA42A94312300AFFAEF04ECB
:10527A006010EFF47002EEF46008900019EEF0A3EB
:0C528A00EFF09002FCE04402F002550C32
:105296007406253DF53DE4353CF53CAB3BFAA93DAE
:1052A6001232918F498E488D478C46780812326BA0
:1052B600E4FFE4FDFCC004C005C006C007AF49AE6C
:1052C60048AD47AC46781812326BE4FEFDFCD003BD
:1052D600D002D001D000123229C004C005C006C0D9
:1052E60007AF49AE48AD47AC46780812327EE4FFB8
:1052F600FEE4FCD003D002D001D000123229C00453
:10530600C005C006C007AF49AE48AD47AC467818E1
:1053160012327EE4FFFEFDECD003D002D001D000B5
:105326001232298F498E488D478C46E47B64FAF900
:10533600F812C3848F498E488D478C468E4C8F4D0C
:105346007404253DF53DE4353CF53CAB3BFAA93DFF
:105356001232918F498E488D478C46780812326BEF
:10536600E4FFE4FDFCC004C005C006C007AF49AEBB
:1053760048AD47AC46781812326BE4FEFDFCD0030C
:10538600D002D001D000123229C004C005C006C028
:1053960007AF49AE48AD47AC46780812327EE4FF07
:1053A600FEE4FCD003D002D001D000123229C004A2
:1053B600C005C006C007AF49AE48AD47AC46781831
:1053C60012327EE4FFFEFDECD003D002D001D00005
:1053D6001232298F498E488D478C46E47B64FAF950
:1053E600F812C3848F498E488D478C468E4A8F4B60
:1053F6007404253DF53DE4353CF53CAB3BFAA93D4F
:105406001232918F498E488D478C46780812326B3E
:10541600E4FFE4FDFCC004C005C006C007AF49AE0A
:1054260048AD47AC46781812326BE4FEFDFCD0035B
:10543600D002D001D000123229C004C005C006C077
:1054460007AF49AE48AD47AC46780812327EE4FF56
:10545600FEE4FCD003D002D001D000123229C004F1
:10546600C005C006C007AF49AE48AD47AC46781880
:1054760012327EE4FFFEFDECD003D002D001D00054
:105486001232298F498E488D478C46E47B64FAF99F
:10549600F812C3848F498E488D478C46C3E49FF526
:1054A6004FE49EF54EE54A5407FEE47803CEC31357
:1054B600CE13D8F9AB3EAA3FA940900010122F1F79
:1054C600E54C5407FEE47806CEC313CE13D8F99004
:1054D6000010122EDAE54E5403900010122EDAE573
:1054E6004B900011122F1FE54D900012122F1FE551
:0E54F6004F900013122F1F9002FCE04401F0B3
:1055040080067544007545019002FCE06407600361
:10551400025668F0900CBBE0600302564390000012
:10552400E075F015A424D0F9740235F0FA7B01A8D3
:1055340040AC3FAD3E7E007F15122E6EAB3EAA3FBF
:10554400A940123291EF24FAFFE43EFEE43DFDE46B
:105554003CFC1232E1900000E0640175F015A424D3
:10556400D0F582E43402F58312331FE4FBFAF9F830
:10557400C312325A7003025643AB3EE5402406F987
:10558400E4353FFAC003C002C001123291C004C026
:1055940005C006C007900000E0FF640175F015A483
:1055A40024D6F582E43402F58312332BEF75F0151B
:1055B400A424D6F582E43402F58312331F1230FE9C
:1055C400A804A905AA06AB07D007D006D005D004C5
:1055D4001230F1D001D002D0031232E1AB3EE540EB
:1055E400240AF9E4353FFAC003C002C00112329123
:1055F400C004C005C006C007900000E0FF64017548
:10560400F015A424DAF582E43402F58312332BEF87
:1056140075F015A424DAF582E43402F58312331FFD
:105624001230FEA804A905AA06AB07D007D006D0FD
:1056340005D0041230F1D001D002D0031232E1902F
:105644000000E06401F0E075F015A424D0F97402C0
:1056540035F0A801FC7D01AB3EAA3FA9407E007F46
:0456640015122E6E7F
:01566800221F
:10C4E900EF6004C2B18002D2B1E4FF0FBF1EFCD2DB
:10C4F900B2E4FF0FBF1EFCE4FEB2B1E4FF0FBF1EA2
:07C50900FC0EBE85F4C2B276
:01C510002208
:10C56D00AF84E4F58475C04475CFEC43C040C2C3BD
:05C57D0043E6028F847B
:01C582002296
:03003B0002A550CB
:10A55000C0E0C083C082C0D075D000C000C001C0C0
:07A5600002C003C006C007A2
:10A56700C200AFC1EF123499A5B508A5B510A5D69D
:10A5770018A60420A5D628A60430A67338A60B4033
:10A58700A60648A60B50A64458A67860A67870A6DB
:10A597008680A6D388A68690A6D398A705A0A6D717
:10A5A700A8A6D7B8A6EBC0A705C80000A673900059
:10A5B7004BE0F5C2900056E4F053C2FEA20C3342C2
:10A5C700C2C2C590004DE4F090004CF002A7059080
:10A5D700004EE0FF90004CE0FEC39F5019900050E2
:10A5E7001233FE8E82758300122EADF5C290004C99
:10A5F700E004F002A705D2C4C20B02A705D2C5D258
:10A60700C502A70590004DE0601624FFFFE434FF64
:10A61700FE9000531233FE8F828E83E5C2122F1FE6
:10A6270090004DE004F090004FE0FF90004DE0C334
:10A637009F5005D2C202A705C2C202A70590004DCE
:10A64700E024FFFFE434FFFE9000531233FE8F82B5
:10A657008E83E5C2122F1F90004DE004F090005644
:10A667007401F0D2C4C20BD2C202A705D20002A75E
:10A6770005900056E4F090004CF0A3F002A7059077
:10A68700004DE0FF700D90004FE5C2F0900056E4DA
:10A69700F08017EF24FFFFE434FFFE9000531233DE
:10A6A700FE8F828E83E5C2122F1F90004DE004F0CB
:10A6B70090004FE0FF90004DE0D39F400B90005675
:10A6C7007401F090004DE4F0D2C28032D2C2802EE5
:10A6D7009000501233FE90004CE0FF04F08F82751B
:10A6E7008300801590004CE024FFFFE434FFFE90C8
:10A6F70000501233FE8F828E83122EADF5C23000CA
:10A707001053C0BF43C040C2C5C2C4C2C2C20BC2FD
:03A7170000C2C3BA
:10A71A00D007D006D003D002D001D000D0D0D0824A
:05A72A00D083D0E032F5
:10C55400AF84E4F584D2C6200BFDD20BC20C90004C
:08C564004BE0F5C3D2C58F8442
:01C56C0022AC
:10C53800AF84E4F584D2C6200BFDD20BD20C900058
:0BC548004BE0F5C3D2C5200BFD8F8433
:01C5530022C5
:10B6A50002080001010C00020D000042111E0000FD
:04B6B500411120001F
:06C0C5008B608A618962B4
:10C0CB00858463AB60AA61A962900002123035458A
:10C0DB00F070F0AB60AA61A96290000D123410C031
:10C0EB0003C002C001AB60AA61A9629000071234C1
:10C0FB0040AB60AA61A962900002EC8DF01230C4D3
:10C10B00122E947006F584D2998005758401D2990C
:03C11B00856384B5
:01C11E0022FE
:10003E00AE84E4F5848F9B30FFFDC2FFAF9B8E84B0
:01004E00228F
:10C11F00AF8475840F759601758C67E4FDFC0DBDBA
:10C12F0000010CE4B505F7ECB401F3E58C30E7FB47
:10C13F00759701E4F58A758905F58475B7207584BF
:10C14F000F758D01758F01758E03FCFD0DBD0001FF
:10C15F000CE4B505F7ECB401F3438902E58930E44B
:06C16F00FB7597028F84AE
:01C1750022A7
:0E9D75008B4C8A4D894E8F528E518D508C4FE3
:109D8300858453122E9414606F046003029F75E45C
:109D9300F58475911590000A122EAD24BB6018242A
:109DA300F6601424EA601024F76007146009242184
:109DB300700875985080037598D0E4F58475C804CD
:109DC30075C908AB52AA51A950A84FFFFE7D657C07
:109DD30004123197E47B10FAF9F8123197123236F4
:109DE3008ECB8FCA74FFF5CDF5CCD2CAE4F584C20D
:109DF30099C298D2AC029F75758401AB4CAA4DA948
:109E03004E90000A122EAD24BB601824F660142471
:109E1300EA601024F760071460092421700875981C
:109E2300108003759890E4F58453890F438920AB20
:109E330052AA51A950A84FFFFE7D657C04123197A9
:109E4300E47B02FAF9F8123197E4FB7A01F9F8128C
:109E53003197E47B01FAF9F8D312325A4026AB5218
:109E6300AA51A950A84FE4FFFE7D657C04123197E7
:109E7300E47B02FAF9F81231971232368F8D438E52
:109E830010029F66AB52AA51A950A84FE4FFFE7D72
:109E9300657C04123197E47B02FAF9F8123197E4F6
:109EA300FB7A01F9F8123197E47B04FAF9F8D3123B
:109EB300325A4031AB52AA51A950A84FE4FFFE7D5C
:109EC300657C04123197E47B02FAF9F8123197E4C6
:109ED3007B04FAF9F81231971232368F8D538EECD8
:109EE300438E01807EAB52AA51A950A84FE4FFFED6
:109EF3007D657C04123197E47B02FAF9F8123197FD
:109F0300E4FB7A01F9F8123197E47B0CFAF9F8D300
:109F130012325AAB52AA51A950A84FE4FFFE7D65F5
:109F23007C04401F123197E47B02FAF9F81231974F
:109F3300E47B0CFAF9F81231971232368F8D538E77
:109F4300EC8020123197E47B02FAF9F8123197E49E
:109F53007B30FAF9F81231971232368F8D538EEC2B
:109F6300438E02858D8BD28E758401C299C298432C
:059F7300E74085538466
:019F780022C6
:10002600AF84E4F584759D04759A70C2FFD2F88F8B
:010036008445
:0100370022A6
:10C4BF00AD84758401E4F5C8F5C9EF2408FFE43EA7
:10C4CF00FEC3E49FFFE49EF5CB8FCA74FFF5CDF555
:09C4DF00CC43E70143C8048D843D
:01C4E8002231
:03002300029F79C0
:109F7900C0E0C0F0C083C082C0D075D000C000C0AE
:0D9F890001C002C003C004C005C006C0072F
:109F9600E59820E00302A1108599275398FEE5086D
:109FA600600302A0DDE50924FE606314700302A0CD
:109FB6004514700302A0AA2403600302A0DD750DF8
:109FC60000750E00E5276416600302A0DD90029975
:109FD600E0FF7E007C027D1D122F4190029E12330F
:109FE600FEE92FF9EA3E8B0FF5108911FA050EE509
:109FF6000EAE0D7002050D14F5828E83E527122F25
:10A006001FE527620C75080075090202A0DDAB0F7B
:10A01600AA10A911050EE50EAE0D7002050D14F578
:10A02600828E83E527122F1FE527620CE50E640654
:10A03600450D600302A0DDF50875090302A0DDAB3E
:10A046000FAA10A911050EE50EAE0D7002050D142E
:10A05600F5828E83E527122F1F630CFFE50C65271B
:10A066007031AB0FAA10A911900003122EAD750A1C
:10A0760000F50B750B00F50A900004122EAD250BAA
:10A08600F50BE4350AF50A450B60467508007509B7
:10A09600048044750D00750E00750800750901757C
:10A0A6000C008033D2B4AB0FAA10A911050EE50E31
:10A0B600AE0D7002050D14F5828E83E527122F1F53
:10A0C600E50B2407FFE4350AFEEFB50E0AEEB50DE3
:10A0D60006750800750905E50964054508702BC273
:10A0E600B4F508750901F50DF50EF50C90029212FE
:10A0F60033FEE94A4B7013AB0FAA10A911900292D6
:10A10600123407900299E06401F0E59830E13E9040
:10A116000290E07002A3E06023D2B490029512335D
:10A12600FE122E94F599900296E475F001122FDE38
:10A1360090029074FFF5F0122FDE800EC2B47B0001
:0DA146007A0079009002951234075398FDBD
:10A15300D007D006D005D004D003D002D001D00060
:0BA16300D0D0D082D083D0F0D0E0320A
:0300A300029B3E7F
:109B3E00C0E0C0F0C083C082C0D075D000C000C0ED
:099B4E0001C002C003C006C007FB
:109B5700E59820E003029CE9859928901120E012FE
:109B670034999B88009B99019BAC029BFC039C2921
:109B7700049C42059C69069CAA079CBB0800009CA4
:109B8700E6E52864B56003029CE690112004F00224
:109B97009CE6E528901120B462067402F0029CE668
:109BA700E4F0029CE675180075170090111EE4F0AA
:109BB700A3F09002ACE075F0DCA4FF9002B1123381
:109BC700FEE92FF9EA35F08B12F5138914FA901193
:109BD7001EE475F001122FF485F082F583E5281253
:109BE7002F1FE5282517F5172518F518901120744C
:109BF70003F0029CE6AB12AA13A91490111EE47598
:109C0700F001122FF485F082F583E528122F1FE566
:109C1700282517F5172518F5189011207404F00258
:109C27009CE6751500852816E5282517F5172518CC
:109C3700F5189011207405F0029CE6E528FEE4254E
:109C470016F516EE3515F515E5282517F517251818
:109C5700F518E5164515901120700280417406F03D
:109C6700807DAB12AA13A91490111EE475F001129E
:109C77002FF485F082F583E528122F1FE528251795
:109C8700F5172518F518E5162402FFE43515FE909B
:109C9700111EE06E7003A3E06F70449011207407EB
:109CA700F0803CE517901120B528057408F0802F47
:049CB700E4F0802B2A
:109CBB009002ACE0FFB402067E007F008003EF044D
:109CCB00FF8F29E518B5280E9002ADE065296006D7
:0B9CDB009002ACE529F0901120E4F0AD
:109CE6005398FEE59830E1709002A3E07002A3E07D
:109CF60060579002ABE024BB601A24E0601624F69D
:109D06006004242070229002A81233FE122E943092
:109D1600E00E80119002A81233FE122E9430E00558
:109D260043980480035398FB9002A81233FE122E28
:109D360094F5999002A9E475F001122FDE9002A322
:109D460074FFF5F0122FDE800C7B007A007900900C
:089D560002A81234075398FD26
:109D5E00D007D006D003D002D001D000D0D0D08210
:079D6E00D083D0F0D0E032F9
:0300730002B8F8D8
:10B8F800C0E0C0F0C083C082C0D075D000C000C016
:03B9080006C0076F
:10B90B0075840153C87F900278E475F001122FDE25
:10B91B009002C8E0FEA3E0FF900278E0B50619A301
:10B92B00E0B507149002C8E475F0A0122FDE90006A
:10B93B0057E475F001122FDEE4FFFE74322FF5820F
:10B94B00E4340CF583E0600D74322FF582E4340C93
:10B95B00F583E014F00FBF00010EEF64034E70DBB4
:10B96B0075840F20E816C39002CFE094FF9002CEAF
:10B97B00E094FF5007E475F001122FDE758400751B
:06B98B00BB00C2EDD2EC8E
:10B99100D007D006D000D0D0D082D083D0F0D0E074
:01B9A1003273
:10282100022BE7E86480F8E933E83360110460F0D3
:10283100ED33EC337009E8FCE9FDEAFEEBFF22041D
:1028410060DED3EB9FEA9EE99DE8C2E78CF0C2F718
:1028510095F0400CE8CCF8E9CDF9EACEFAEBCFFBE4
:10286100122BB285D0F05804700320D5B3E8047060
:10287100075002B2D5022BF192D5EC0460F7E4CCFB
:10288100C0E0C398F8603B94186008400DD0E0FBAD
:10289100022BC9E4FBFAC9FC8028E830E406E4C94C
:1028A100FBE4CAFCE830E305E4C9CACBFCE8540701
:1028B1006010F8C3E913F9EA13FAEB13FBEC13FC0C
:1028C100D8F130F52FC3E49CFCEF9BFFEE9AFEEDAF
:1028D10099FDD0E0FBEF4E4D4C701222DB03022B31
:1028E100EEEC2CFCEF33FFEE33FEED33FDED30E784
:1028F100EB022BC9EF2BFFEE3AFEED39FDD0E0FBE9
:1029010050130BBB0003022BF1ED13FDEE13FEEF91
:0829110013FFEC13FC022BC9BB
:10291900EC4D6011E8497017ED33EC3304600DE4B8
:10292900FCFFFEFD22E933E8330470F8022BE712BD
:102939002BB258046009E4CC2481500628500902BE
:102949002BF1284003022BEEC0E0EB4A7044B9801A
:1029590006D0E0FB022BDDEF4E701CBD8008EBFFBB
:10296900EAFEE9FD80EBE98DF0A4FEE5F0022A021A
:10297900E9CDF9EAFEEBFFEF89F0A4FCE5F0CE8999
:10298900F0A42EFFE435F0CD89F0A42DFEE435F056
:102999008067EF4E7005BD80D780C3EF8BF0A4AC84
:1029A900F0EE8BF0A42CFCE435F0F8EF8AF0A42CBF
:1029B900E5F038FCE433CB8DF0A42CFCE5F03BF8D2
:1029C900EE8AF0A42CFCE5F038F8E433CF89F0A4C2
:1029D9002CFCE5F038CF3400CE89F0A42FFFE5F0C8
:1029E9003EFEE433C98DF0A42EFEE5F039CD8AF020
:1029F900A42FFFE5F03EFEE43DFD33D0E0FB500798
:102A09000BBB000F022BF1EC2CFCEF33FFEE33FE76
:062A1900ED33FD022BC9A4
:102A1F00022BF1EC5D046005E859047003022BE70B
:102A2F00122BB2580460F6EC4860F2EC7004FDFE15
:102A3F00FF22C860DB2481C85009C398600250068A
:102A4F00022BEE9850CAF582E9294B4A7005AB82EA
:102A5F00022BDD75F0007C1A7880C3EF9BEE9AEDA8
:102A6F0099400DC3EF9BFFEE9AFEED99FDE842F002
:102A7F00DC23ACF0D0E0FFD0E0FED0E0FDAB822055
:102A8F00E7101BEB60BAEC2CFCEF33FFEE33FEEDDF
:102A9F0033FD022BC9E803F830E705C0F075F000ED
:102AAF00EF2FFFEE33FEED33FD40B830E7C280AAC3
:102ABF0074F8CC6480CCC86480C8F582046043C3CA
:102ACF00EB9FF5F0EA9E42F0E99D42F0E89C45F05D
:102ADF0060305018E5825FFFE582F42B5582FB5082
:102AEF00210ABA001D09B90019088016E5825BFB9F
:102AFF00E582F42F5582FF50090EBE00050DBD0073
:102B0F00010CC3EB9FF5F0EA9E42F0E99D42F0E81D
:0D2B1F009C45F06007CC4820E701B3EC2294
:102B2C00ED33EC33600A047003BD8004ECB2E7FCB7
:012B3C002276
:102B3D0075F020800E75F010800575F0087D007E13
:102B4D00007F003392D530D503123236EC3340106E
:102B5D00EF33FFEE33FEED33FDEC33FCD5F0ED221C
:0E2B6D00E5F0247EA2D513CC92E7CDCEFF2258
:102B7B00EDD2E7CD33EC3392D524814006E4FFFE52
:102B8B00FDFC22FCE4CFCECDCC24E0501174FF80B1
:102B9B00EDC3CC13CCCD13CDCE13CECF13CF04704E
:072BAB00F030D5DE023236E6
:10706B00E56A2456F8E6056A227853300902785609
:10707B00E475F0011233EE022E942002EB7F2ED238
:10708B00028018EF540F2490D43440D4FF30060BF9
:10709B00EF24BFB41A0050032461FFE56B600215A7
:1070AB006B056EE56E7002056D30090D7853E47556
:1070BB00F0011233EEEF022F0D02C5117403D2094A
:1070CB008003E4C209F56A8B538A548955E4F56B46
:1070DB00F56DF56EE56B60077F201270A680F57578
:1070EB006CFFC203C202C204C205C207C208C20AB5
:1070FB00127074FF700D3009057F001270B7AF6E00
:10710B00AE6D22B4255FC2D5C206127074FF24D0B7
:10711B00B40A00501A75F00A786B30D50508B6FF23
:10712B000106C6A426F620D5047002D20580D92408
:10713B00CFB41A00EF5004C2E5D2060273A4D203F7
:10714B0080C6D20280C0D20480BCD2D580BAD2070E
:10715B0080B47F201270A62004077401B56B004029
:10716B00F112706BFF1270A60270DFD20AD2088088
:10717B009512706BFB12706BFA12706BF94A4B70B5
:10718B0006799B7A747BFF20042EE56B602A7E00C8
:10719B008E82758300122EAD60060EEE656C70F05C
:1071AB00C2D5EBC0E0EAC0E0E9C0E0EE127404D057
:1071BB00E0F9D0E0FAD0E0FB122E94FF60AAEBC00E
:1071CB00E0EAC0E0E9C0E01270A6D0E02401F9D0FB
:1071DB00E03400FAD0E0FBE56C0460DCD56CD980C0
:1071EB0087D20480A21273E760F7E56C700104127A
:1071FB002BFCA96C600DE56C600914F56C12748E98
:10720B00EF60F3EA30E702F404C3995077EAF42510
:10721B006C0430E701E404F56C800D1273E760C178
:10722B00EA056C256C122BFCEA7869F630E701E471
:10723B00256C04D56C0420070114127404E4C0E01F
:10724B0012748E7869E6601320E70714F612708EBD
:10725B00802204F6D0E014C0E07F0012708EE56C43
:10726B006007127085156C800B300703127085D088
:10727B00E00270DFD0E00480C51273E760A0E56C1C
:10728B0004122BFC7869EAF6E56C20070260010416
:05729B0024041274043C
:1072A00074FF04C0E012748E12708EE56C20070229
:1072B0006003127085D0E0B56CE87F451270987855
:1072C00069E67F2B30E7047F2DF404C0E01270A63E
:1072D000D0E075F00A84C0F012708FD0E012708F89
:1072E0000270DF791080027908C208C20A8008D2D1
:1072F000D5790A8004790AC2D5E56C047002F56C70
:10730000E4FAFDFEFF12706BFC7B08200313127081
:107310006BFD7B1030020A12706BFE12706BFF7BEC
:1073200020EC3382D592D55013C3E43002069FFF80
:10733000E49EFEE42003039DFDE49CFCE4CBF8C244
:1073400003EC700CCFCECDCCE824F8F870F38017A6
:10735000C3EF33FFEE33FEED33FDEC33FCEB33FBD9
:10736000994002FB0FD8E9EB300305F8D0E0C448A0
:10737000B203C0E00AEC4D4E4F78207B0070C2EAA9
:10738000B56C0040BCC0E0127406D0F0D0E0200321
:1073900004C4C0E0C4B203C0F012708FD0F0D5F0C6
:1073A000EB0270DF123499717C5372E358714D4CCB
:1073B00071494272E74F72EF4472EF497162437252
:1073C000F55572264672844571F04774BB50715171
:1073D0002D71552E71782B71592371762074A42A42
:1073E00071114800007170E56CB4FF03756C0612F2
:1073F000706BFC12706BFD12706BFE12706BFF787D
:1074000062022C2B790AA2D5200514300709B91085
:10741000020404B9080104A2D52008025001042086
:1074200004689204B56B005034C0E07F2030051929
:107430007F30A20472087207500F12745DC204C23A
:1074400008C207C20A7F30800F300703E9C0E0128C
:1074500070A6300703D0E0F9D0E0B56BCC30071749
:107460007F30B9100C1270A67F583006077F7880E5
:1074700003B908031270A63004057F2D0270A67FA1
:1074800020200AF87F2B2008F322920480CF7F006F
:10749000B4070050052462F8E6FF22286E756C6C74
:1074A0002900D20312706B3003F8C203786B30D519
:1074B0000108F60271112D5043495812706B2403D4
:1074C000B405004001E49074B693127097743A12B8
:0A74D0007097D205756B040272E399
:10B9A200022BE722EDA2E7D2E7F9EC3340F260F393
:10B9B200B4FF08ED547F70E8022BF1F82481C2E055
:10B9C200C0E0F40428FAC313FCED92E7FD8C3B8D32
:10B9D2003C8E3D8F3EEEA2E7E9BA7F02C3133400EC
:10B9E2009400FA75F091A4E5F013F494FE8AF0A4A1
:10B9F20033E5F033248CD313FDE492E7FE7F007C21
:10BA02003F758302ECC0E0F8EDC0E0F9EEC0E0FA69
:10BA1200EFC0E0FBAC3BAD3CAE3DAF3E122A22D0C4
:10BA2200E0FBD0E0FAD0E0F9D0E0F8122828ED648B
:10BA320080FD30E7011CD583CBED33CC33F8D0E069
:0ABA4200A2E71328C313CC13FD2262
:102BB200E9D2E7C933E833F892D5EDD2E7CD33EC69
:072BC20033FC5002B2D522E2
:102BC900EC30E7100FBF000C0EBE00080DBD00046D
:102BD9000BEB6014A2D5EB13FCED92E7FD2274FF19
:102BE900FCFDFEFF22E480F8A2D574FF13FC7D8072
:032BF900E480EF86
:102BFC00F920E72824F950037907E4F42402FB18A0
:102C0C00DBFDE624FB5014E9600DE4F618E604F64F
:0F2C1C00B40A08E4F6D9F57401F60A22C2D522EB
:102C2B00ED33EC3392D5FA602AB4FF33EDC2E77B78
:102C3B00FF60067A2C7950E4227A2C795920D5043E
:102C4B007A2C7954224E614E002B494E46002D4969
:102C5B004E4600E47A08F608DAFC7B00740722E89B
:102C6B00C0E0ECC0E0EDC0E0EEC0E0EFC0E0EA7524
:102C7B00F010A4CAABF075F04DA42BFBE435F0FCBF
:102C8B00EA2410FAEB34C5FBEC34D9FCEDC2E7FFB8
:102C9B0075F056A4F42411C5F0F434C58FF0A42AB2
:102CAB00E5F03BE43CF620E714122D5ED0E0FFD0BC
:102CBB00E0FED0E0FDD0E0FC122A228014F40412D6
:102CCB002D5ED0E0FFD0E0FED0E0FDD0E0FC12297D
:102CDB0019D0E0F8E6FAEDD2E7CD33EC332482FBE2
:102CEB00E4C3CF33CFCE33CECD33CD33DBF37B0742
:102CFB0075F00A846004F6081B0AE5F0F6088FF0FD
:102D0B00740AA4FFACF08EF0740AA42CFEACF05045
:102D1B00010C8DF0740AA42CFDE435F0F608DBDE13
:032D2B0074072208
:102D2E003F8000004120000042C80000447A0000AD
:102D3E00461C400047C35000497424004B1896802F
:102D4E004CBEBC205A0E1BCA6753C21C749DC5AE26
:102D5E00FB60065407601C2323122D8CEB54386045
:102D6E0009122D78122D87122919ECF8EDF9EEFAC9
:102D7E00EFCB22EB122D8780F1543803241C902DBB
:102D8E002EFE93FC0EEE93FD0EEE930ECE93FF22CF
:0300000002BC2718
:0CBC2700787FE4F6D8FD75817F02BC6ECA
:102D9E00E709F608DFFA8046E709F208DFFA803E17
:102DAE0088828C83E709F0A3DFFA8032E309F60804
:102DBE00DFFA8078E309F208DFFA807088828C836C
:102DCE00E309F0A3DFFA806489828A83E0A3F60820
:102DDE00DFFA805889828A83E0A3F208DFFA804CFA
:102DEE0080D280FA80C680D4806980F280338010D1
:102DFE0080A680EA809A80A880DA80E280CA80333A
:102E0E0089828A83ECFAE493A3C8C582C8CCC583B1
:102E1E00CCF0A3C8C582C8CCC583CCDFE9DEE78081
:102E2E000D89828A83E493A3F608DFF9ECFAA9F000
:102E3E00EDFB2289828A83ECFAE0A3C8C582C8CC56
:102E4E00C583CCF0A3C8C582C8CCC583CCDFEADE6F
:102E5E00E880DB89828A83E493A3F208DFF980CCD1
:102E6E0088F0EF60010E4E60C388F0ED2402B404CA
:102E7E000050B9F582EB2402B4040050AF23234571
:062E8E008223902DEE737B
:102E9400BB010689828A83E0225002E722BBFE023C
:092EA400E32289828A83E493226F
:102EAD00BB010CE58229F582E5833AF583E02250DA
:102EBD0006E92582F8E622BBFE06E92582F8E22224
:0D2ECD00E58229F582E5833AF583E493223E
:102EDA00BB010FF8E58229F582E5833AF583E028FC
:102EEA00F0225009C58229F8E58226F622BBFE099E
:102EFA00C58229F8E22582F222F8EA2583F583E9D8
:032F0A00932822E7
:102F0D00BB010689828A83F0225002F722BBFE01A3
:022F1D00F3229D
:102F1F00F8BB010DE58229F582E5833AF583E8F0E8
:102F2F00225006E92582C8F622BBFE05E92582C894
:022F3F00F2227C
:102F4100EF8DF0A4A8F0CF8CF0A428CE8DF0A42EA4
:022F5100FE225E
:102F5300BC000BBE0029EF8DF084FFADF022E4CC62
:102F6300F875F008EF2FFFEE33FEEC33FCEE9DEC2B
:102F7300984005FCEE9DFE0FD5F0E9E4CEFD22ED71
:102F8300F8F5F0EE8420D21CFEADF075F008EF2FBB
:102F9300FFED33FD4007985006D5F0F222C398FDAC
:052FA3000FD5F0EA2249
:102FA800C2D5EC30E709B2D5E4C39DFDE49CFCEE44
:102FB80030E715B2D5E4C39FFFE49EFE122F53C33A
:102FC800E49DFDE49CFC8003122F5330D507C3E435
:062FD8009FFFE49EFE22B3
:102FDE00C5F0F8A3E028F0C5F0F8E582158270027E
:062FEE001583E038F0221B
:102FF400A3F8E0C5F025F0F0E58215827002158390
:06300400E0C838F0E822EC
:10300A00BB010A89828A83E0F5F0A3E02250068791
:10301A00F009E71922BBFE07E3F5F009E319228953
:0B302A00828A83E493F5F07401932286
:10303500BB0110E58229F582E5833AF583E0F5F0D9
:10304500A3E0225009E92582F886F008E622BBFEB6
:103055000AE92582F8E2F5F008E222E5832AF583FC
:08306500E993F5F0A3E99322C1
:10306D00BB010789828A83022FDE500B09C5F02729
:10307D00F7C5F01937F722BBFE0D09F8E325F0F37C
:10308D00C5F019E338F322F889828A8374019325F8
:08309D00F0C5F0F8E4933822BD
:1030A500BB010A89828A83F0E5F0A3F0225006F776
:0F30B50009A7F01922BBFE06F3E5F009F3192273
:1030C400F8BB0111E58229F582E5833AF583E8F03E
:1030D400E5F0A3F0225009E92582C8F608A6F022FB
:0D30E400BBFE09E92582C8F2E5F008F222E2
:0D30F100EF2BFFEE3AFEED39FDEC38FC222E
:0E30FE00C3EF9BFFEE9AFEED99FDEC98FC22CD
:10310C00E88FF0A4CC8BF0A42CFCE98EF0A42CFC62
:10311C008AF0EDA42CFCEA8EF0A4CDA8F08BF0A4E0
:10312C002DCC3825F0FDE98FF0A42CCD35F0FCEB3F
:10313C008EF0A4FEA9F0EB8FF0A4CFC5F02ECD3904
:0F314C00FEE43CFCEAA42DCE35F0FDE43CFC2271
:10315B0075F008758200EF2FFFEE33FECD33CDCC2B
:10316B0033CCC58233C5829BED9AEC99E5829840AE
:10317B000CF582EE9BFEED9AFDEC99FC0FD5F0D68B
:10318B00E4CEFBE4CDFAE4CCF9A88222B800C1B9B5
:10319B000059BA002DEC8BF084CFCECDFCE5F0CBF3
:1031AB00F97818EF2FFFEE33FEED33FDEC33FCEB2C
:1031BB0033FB10D703994004EB99FB0FD8E5E4F9E7
:1031CB00FA227818EF2FFFEE33FEED33FDEC33FCD4
:1031DB00C933C910D7059BE99A4007EC9BFCE99AC8
:1031EB00F90FD8E0E4C9FAE4CCFB2275F010EF2F0D
:1031FB00FFEE33FEED33FDCC33CCC833C810D7070D
:10320B009BEC9AE899400AED9BFDEC9AFCE899F847
:0E321B000FD5F0DAE4CDFBE4CCFAE4C8F922DA
:10C38400C2D5E830E70FB2D5E4C39BFBE49AFAE4E4
:10C3940099F9E498F8EC30E717B2D512C3BA123120
:10C3A40097E4C39BFBE49AFAE499F9E498F88003D0
:10C3B40012319730D50DE4C39FFFE49EFEE49DFD4A
:04C3C400E49CFC22D7
:0D322900EF4BFFEE4AFEED49FDEC48FC22A4
:0E323600C3E49FFFE49EFEE49DFDE49CFC22A9
:10324400EB9FF5F0EA9E42F0E99D42F0EC6480C801
:0632540064809845F022A1
:10325A00EB9FF5F0EA9E42F0E99D42F0E89C45F0CA
:01326A002241
:10326B00E8600FECC313FCED13FDEE13FEEF13FF41
:03327B00D8F12265
:10327E00E8600FEFC333FFEE33FEED33FDEC33FCAE
:03328E00D8F12252
:10329100BB010789828A8302331F5005E9F8023591
:1032A100DBBBFE05E9F80235E789828A830235F343
:1032B100BB010DE58229F582E5833AF58302331FCF
:1032C1005007E92582F80235DBBBFE07E92582F8C4
:1032D1000235E7E58229F582E5833AF5830235F384
:1032E100BB010789828A830233675005E9F80236F8
:0A32F10003BBFE05E9F802360F22C8
:1032FB00BB010DE58229F582E5833AF5830233673D
:10330B005007E92582F8023603BBFE07E92582F850
:04331B0002360F2245
:0C331F00E0FCA3E0FDA3E0FEA3E0FF2221
:0C332B00E0F8A3E0F9A3E0FAA3E0FB2225
:10333700E493F8740193F9740293FA740393FB22EC
:103347007401FF3395E0FEFDFC080808E62FFFF641
:1033570018E63EFEF618E63DFDF618E63CFCF622BA
:0C336700ECF0A3EDF0A3EEF0A3EFF022D9
:10337300A8828583F0D083D08212338A12338A12D3
:10338300338A12338AE473E493A3C583C5F0C583F8
:10339300C8C582C8F0A3C583C5F0C583C8C582C8A4
:0133A3002207
:1033A400BB010789828A830233735005E9F8023628
:0A33B4001BBBFE05E9F802363422C7
:1033BE00BB010DE58229F582E5833AF5830233736D
:1033CE005007E92582F802361BBBFE07E92582F875
:0433DE00023634225D
:0C33E200A42582F582E5F03583F58322F6
:1033EE00FAE6FB0808E6F925F0F618E6CA3AF622E0
:0933FE00E0FBA3E0FAA3E0F922D0
:09340700EBF0A3EAF0A3E9F022C6
:10341000BB010DE58229F582E5833AF5830233FE8F
:103420005007E92582F802364DBBFE07E92582F8F0
:1034300002365FE58229F582E5833AF5830236712B
:10344000BB0120E58229F582E5833AF583D0F0D0EF
:10345000E0F8D0E0F9D0E0FAD0E0FBE8C0E0C0F05E
:103460000234075018E92582F8D083D082D0E0F9E1
:10347000D0E0FAD0E0FBC082C083023656BBFE1813
:10348000E92582F8D083D082D0E0F9D0E0FAD0E00C
:09349000FBC082C08302366822F1
:10349900D083D082F8E4937012740193700DA3A3C2
:1034A90093F8740193F5828883E4737402936860D6
:0634B900EFA3A3A380DFD6
:1034BF00D083D082F8E4937012740193700DA3A39C
:1034CF0093F8740193F5828883E473740293B5F0D3
:0D34DF00067403936860E9A3A3A3A380D83B
:0634EC008A838982E4736B
:10C51100EFB40A07740D12C51C740A309811A8995A
:10C52100B8130CC2983098FDA899C298B811F6308A
:07C5310099FDC299F5992262
:0F005E00EFC394204007EF947F50028001C3222C
:1034F200E709F60870FA8046E709F20870FA803E9A
:1035020088828C83E709F0A370FA807EE309F608CB
:1035120070FA8076E309F20870FA806E88828C83F2
:10352200E309F0A370FA806289828A83E0A3F60835
:1035320070FA805689828A83E0A3F20870FA804A80
:1035420080D280FA80C680D4806580F2803180107B
:1035520080A680EA809A80A880DA80E280CA8031E0
:1035620089828A83ECFAE493A3C8C582C8CCC58356
:10357200CCF0A3C8C582C8CCC583CC70E9800D89C4
:10358200828A83E493A3F60870F9ECFAA9F0EDFBC2
:103592002289828A83ECFAE0A3C8C582C8CCC5839B
:1035A200CCF0A3C8C582C8CCC583CC70EA80DD89C3
:1035B200828A83E493A3F20870F980CE88F0ED2426
:1035C20002B4040050C4F582EB2402B4040050BAE1
:0935D20023234582239035427346
:10000E00E4FFFE122E94600C0FEF70010E09E970E2
:05001E00F20A80EF2250
:10BC33000217E6E493A3F8E493A34003F68001F22A
:10BC430008DFF48029E493A3F85407240CC8C33312
:10BC5300C4540F4420C8834004F456800146F6DFE1
:10BC6300E4800B010204081020408090B5D9E47EE3
:10BC7300019360BCA3FF543F30E509541FFEE493D6
:10BC8300A360010ECF54C025E060A840B8E493A39D
:10BC9300FAE493A3F8E493A3C8C582C8CAC583CAC8
:10BCA300F0A3C8C582C8CAC583CADFE9DEE780BE80
:01B6B9000090
:0C35DB00E6FC08E6FD08E6FE08E6FF221C
:0C35E700E2FC08E2FD08E2FE08E2FF2220
:1035F300E493FC740193FD740293FE740393FF221E
:0C360300ECF608EDF608EEF608EFF622F3
:0C360F00ECF208EDF208EEF208EFF222F7
:10361B00D083D082E493F608740193F60874029376
:09362B00F608740393F6740473AD
:10363400D083D082E493F208740193F20874029365
:09364400F208740393F27404739C
:09364D00E6FB08E6FA08E6F922A2
:09365600EBF608EAF608E9F62299
:09365F00E2FB08E2FA08E2F9229C
:09366800EBF208EAF208E9F22293
:0C367100E493FB740193FA740293F922B5
:00000001FF
