:10660100436F70797269676874202843292032309A
:1066110030352D3820547261636B20537973746562
:106621006D7320546563686E6F6C6F676965732C59
:10663100204C4C43000200FF000000C0C1C1810199
:1066410040C30103C00280C241C60106C00780C722
:10665100410500C5C1C4810440CC010CC00D80CDF1
:10666100410F00CFC1CE810E400A00CAC1CB810BC0
:1066710040C90109C00880C841D80118C01980D992
:10668100411B00DBC1DA811A401E00DEC1DF811F20
:1066910040DD011DC01C80DC411400D4C1D5811531
:1066A10040D70117C01680D641D20112C01380D342
:1066B100411100D1C1D0811040F00130C03180F1D1
:1066C100413300F3C1F28132403600F6C1F7813720
:1066D10040F50135C03480F4413C00FCC1FD813DF1
:1066E10040FF013FC03E80FE41FA013AC03B80FBC2
:1066F100413900F9C1F88138402800E8C1E9812910
:1067010040EB012BC02A80EA41EE012EC02F80EF21
:10671100412D00EDC1EC812C40E40124C02580E530
:10672100412700E7C1E68126402200E2C1E381233F
:1067310040E10121C02080E041A00160C06180A151
:10674100416300A3C1A28162406600A6C1A781671F
:1067510040A50165C06480A4416C00ACC1AD816DF0
:1067610040AF016FC06E80AE41AA016AC06B80ABC1
:10677100416900A9C1A88168407800B8C1B981798F
:1067810040BB017BC07A80BA41BE017EC07F80BF21
:10679100417D00BDC1BC817C40B40174C07580B530
:1067A100417700B7C1B68176407200B2C1B381733F
:1067B10040B10171C07080B041500090C1918151D0
:1067C10040930153C052809241960156C057809721
:1067D10041550095C1948154409C015CC05D809DF0
:1067E100415F009FC19E815E405A009AC19B815BBF
:1067F10040990159C058809841880148C049808911
:10680100414B008BC18A814A404E008EC18F814F1E
:10681100408D014DC04C808C41440084C18581452F
:1068210040870147C046808641820142C043808340
:0968310041410081C18081404019
:107791005000140000000000000000000000000084
:1077A100000000430BF6000000410BF500410C798D
:1077B1000A41000500026F0000026B000050002426
:1077C10000000000000000000000000000000000B8
:1077D10001730041028A00410C8000420002000056
:1077E100410C7C0042025D000042003C000042026C
:1077F1008D00A0410C7B00410C7F004202900000F3
:1078010041000100410004004102BF00410BAF00F3
:10781100410C7A0002740000026D000042029300E4
:107821000041028F004102C000410000004102C13D
:017831000452
:101C4700E4F52DF52CF52BF52A75840F75FFDE7558
:101C5700FFAD127EEC127F9753B0BF53B0DF53B086
:101C6700EF12005E7534017535097536197B017AF7
:101C77000B79F31275E71274CF900C797414F0E4B2
:101C870090028FF0900000F0900000E0FFC3942ACC
:101C97005018EF75F015A42495F582E43402F58306
:101CA700E4F0900000E004F080DEE4900000F01221
:101CB7007DD37F007E961200261282ED128117E4F3
:101CC700900264F09002777402F0900280744EF0F4
:101CD7007B017A0279C2900273121ABA7A09791BC8
:101CE700900286121ABA7A0679FC900270121ABA12
:101CF7007A0B79B0900283121ABAE4900263F090DB
:101D0700027604F090026D744EF0E4900278F0A32E
:101D1700F0900265F0A3F0900282F090026FF090CD
:101D27000281F090026EF01BFAF990027D121ABA46
:101D370090027A121ABA90026A121ABA90026712BD
:101D47001ABAE4900250F0A3F0A3F090025CF0906E
:101D57000256F0A3F0900254F0A3F0E5D830E20465
:101D67007F0180027F00900253EFF090025EE02433
:101D770058FE90025DE0340090025AF0A3CEF09036
:101D8700003CE0FCA3E0FD2406FEE43C900258F092
:101D9700A3CEF0ED2405FEE43C900C92F0A3CEF028
:101DA7007B017A0279637F007E847D037C00126A5F
:101DB700717B017A0279767F007EE17D007C0012DB
:101DC7006A71D2AF43F880E5D854037002806C7B08
:101DD700017A00793E754D00754E037F107E021221
:101DE7007A469001E4E0540F900006F09001E4E099
:101DF70054F0C4540F900007F0900006E06403709D
:101E07002AE5D85403FFBF02089002507404F080FB
:101E17002E900007E0900250B403097403F0A374F6
:101E270001F0801B7401F0A3F08014900007E0B468
:101E370003089002507402F08005E4900250F0E429
:101E4700FFFED390091AE09F900919E09E40137492
:101E57003E2FF58274003EF583E4F00FBF00010EBC
:101E670080E090028AE0602CC3900019E094B8905B
:101E77000018E0940B501D53B0F753B0BF53B0DFB9
:101E870053B0EFE4F54BF54C7B937D037F02126E65
:0F1E970088127376900250E06404600302207793
:101EA600F52EF52F90003CE0FEA3E0FF900C92E0AB
:101EB600B50612A3E0B5070D752E01900C92E475D8
:101EC600F001121703E5D830E314900252E06404DF
:101ED6007003021FA77404F0752E01021FA790025B
:101EE60052E06404702F7402F090025EE02403FE58
:101EF60090025DE0340090025AF0A3CEF0E5D830AF
:101F0600E2047F0180027F00900253EFF0E490022A
:101F16005CF0752E0190025AE0FEA3E0FF90025D90
:101F2600E0FCA3E0FD6F7002EC6E7075E5D830E260
:101F3600047F0180027F00900253E0FE6F703090B4
:101F4600025CE0C394025005E004F08047EE6010A6
:101F5600900252E06402603C7402F0752E018034F7
:101F6600900252E06401602C7401F0F52E802590F9
:101F76000252E0640360067403F0752E019002536A
:101F8600E070047F0180027F00900253EFF0900220
:101F96005C7401F0ED2458FEE43C90025AF0A3CEA6
:101FA600F0900BF5E0FFC394054006EFD3941F4075
:101FB6003FE52E603B900252E0FF906639E493FDC8
:101FC6003395E0FC90027075F013ED121A95EC75DE
:101FD600F013A42583F583121AB1900007EF1216A9
:101FE60044754B00754C017B297D037F02126E8878
:101FF600900251E06004A3E0701E9002527401F05A
:10200600900251F090003DE02405FE90003CE03443
:1020160000900258F0A3CEF0900258E0FEA3E0FF35
:1020260090003CE0B50619A3E0B50714900258E409
:1020360075F00A121703900252E0B40103752F01DE
:10204600900BF5E0FFC394054009EFD3941F5003AE
:10205600E4F52FE52F601A9002517405F090025EA8
:10206600E02403FE90025DE03400900256F0A3CE19
:01207600F079
:10207700900256E0FEA3E0FF90025DE0FCA3E0FDC6
:102087006F7002EC6E600302210F900251E024FD95
:10209700605224FE601A1460512404706B90025140
:1020A7007403F0ED2428FEE43C900256F0A3CEF032
:1020B700900251E0B405177406F090025EE0242800
:1020C700FE90025DE03400900256F0A3CEF090023D
:1020D70050E024FD60091460042403702B80004342
:1020E700C81080249002517404F0900251E0B406A5
:1020F700037401F0900250E024FD60091460042489
:10210700037005800053C8EF900267121AB1E94ABD
:032117004B602BEF
:10211A00900267121AB18B2E8A2F89307B007A00BF
:10212A007900900267121ABAAB2EAA2FA930E4FFDF
:0B213A00123C5F900C90EEF0A3EFF061
:10214500900C7BE07003022348E4F09002BFE0F4BA
:102155006003022225900250E06404600302221409
:0B216500900252E06404703843C81080
:10217000900C83121A400001B774E4FFFEFDFC903E
:102180000C83121A18D31219314017900C83121AAB
:102190000C74FFFBFAF9F81217DE900C83121A3454
:0221A00080D8E5
:0B21A20053C8EF900252E06401606738
:1021AD00900C87121A40000DBBA0E4FFFEFDFC90C1
:1021BD000C87121A18D31219314017900C87121A66
:1021CD000C74FFFBFAF9F81217DE900C87121A3413
:0221DD0080D8A8
:0321DF0043C810E2
:1021E200900C8B121A4000112A88E4FFFEFDFC902D
:1021F2000C8B121A18D31219314017900C8B121A29
:102202000C74FFFBFAF9F81217DE900C8B121A34D9
:0222120080D872
:1022140053B0F753B0BF53B0DF53B0EF53F87F80E0
:10222400FE9002BFE0FF64F07027900BF5EFF0E43E
:10223400F574F57590000574FFF043B00843B040A1
:1022440043B02043B010C2A853E7FD53E7BF0223B5
:1022540043EFB4F113900BF5F053B0F753B0BF5301
:10226400B0DF53B0EF022343EF64F2702F900BF50D
:10227400EFF043B00843B04043B02043B010900B9C
:10228400F4E024FFFD900BF3E034FFFCE4FBFFFEDD
:10229400127CF4E4F58443EF010223489002BFE08A
:1022A400FFC394054009EFD3941F500343B04090FB
:1022B40002BFE0FFC39405400CEFD3942350067E85
:1022C400007F0180047E007F00900BF5E0FDC39445
:1022D40005400CEDD3942350067C007D0180047CE2
:1022E400007D00ED6F7002EC6E604C9002BFE0FF69
:1022F400C39405403FEFD39423503912547E127D8A
:10230400D31200A6E4900C80F0900C79E0FF74A046
:102314008FF08475F00AA4FF90025EE02401FD9022
:10232400025DE03400CD2FFEED35F0900002F0A305
:10233400CEF080031273769002BFE0900BF5F0E4C8
:102344009002BFF0900BF5E0FFC394055003021E0A
:1023540069EFD394234003021E69900267121AB1F5
:10236400E94A4B6003021E69900BF8E06003021E09
:102374006990026A121AB1E94A4B6003021E69901D
:10238400028AE0700302265B900019E094B8900082
:1023940018E0940B4007E490028AF0800690028AC9
:1023A4007401F0C3E570940AE56F6480948040067C
:1023B400756F0075700990001AE0FEA3E0FFEF242A
:1023C400FBFFEE34EBFEE434FFFDE434FFFCE47B7E
:1023D400E87A03F9F81217F9E47BE57A24F9F8129C
:1023E40081A6900289EFF0E024CEF0900016E0542C
:1023F4000FFD900014E0540FC4F854F0C8E4C45422
:102404000F482DFF906639E493FD3395E0FC90026C
:102414007075F013ED121A95EC75F013A42583F57D
:1024240083121AB1900007EF12164490005475F00D
:1024340033E570121A95E56F75F033A42583F5839F
:1024440075F003E56C121A95E56B75F003A425830A
:10245400F583E0FF900014A3E0FEEF2EFF906639B1
:10246400E4933395E0FC90027075F013ED121A9525
:10247400EC75F013A42583F583121AB1900008EFCC
:1024840012164490005575F033E570121A95E56FF5
:1024940075F033A42583F58375F003E56C121A9562
:1024A400E56B75F003A42583F583E0FF900016A384
:1024B400E0FEEF2EFF906639E4933395E0FC900242
:1024C4007075F013ED121A95EC75F013A42583F5CD
:1024D40083121AB1900009EF121644E5D8F4FF9064
:1024E400027075F013ED121A95EC75F013A42583A0
:1024F400F583121AB190000AEF121644900262E0BA
:10250400FF900022E0FEA3E0A807088005CEC313D5
:10251400CE13D8F9FF906639E493FD3395E0FC902F
:10252400027075F013ED121A95EC75F013A425835F
:10253400F583121AB190000BEF121644900261E079
:10254400FF900020E0FEA3E0A807088005CEC31397
:10255400CE13D8F9FF906639E493FD3395E0FC90EF
:10256400027075F013ED121A95EC75F013A425831F
:10257400F583121AB190000CEF121644900260E039
:10258400FF90001EE0FEA3E0A807088005CEC31359
:10259400CE13D8F9FF906639E493FD3395E0FC90AF
:1025A400027075F013ED121A95EC75F013A42583DF
:1025B400F583121AB190000DEF12164490025FE0F9
:1025C400FF90001CE0FEA3E0A807088005CEC3131B
:1025D400CE13D8F9FF906639E493FD3395E0FC906F
:1025E400027075F013ED121A95EC75F013A425839F
:1025F400F583121AB190000EEF12164490024EE0C9
:10260400A3FF90027075F013ED121A95EC75F01398
:10261400A42583F583121AB190000FEF121644908B
:10262400024EA3E0FF90027075F013ED121A95ECC0
:1026340075F013A42583F583121AB1900010EF12DC
:102644001644754B00754C0A7B927D037F02126E13
:10265400881263C3021E69900282E0FF900281E047
:032664006F606D37
:10266700EF75F0DCA4FF900286121AB1E92FF9EAA0
:1026770035F08B2EF52F8930900282E0FFB40204EB
:102687007F008003EF04FF900282EFF0900289E061
:10269700FF90005275F033E570121A95E56F75F0EB
:1026A70033A42583F583EFF0AE6FAF707C007D33E5
:1026B700121666743E2FF974003E753401F535899C
:0A26C70036AB2EAA2FA930123428DA
:1026D100021E69900C80E0FD7017900002E0FEA3DD
:1026E100E0FF90025DE06E7003A3E06F6003021EE5
:1026F10069900C79E0FF74A08FF08475F00AA4FF53
:1027010090025EE02401FB90025DE03400CB2FFEDD
:10271100EB35F0900002F0A3CEF0ED700E900C7F3F
:10272100F090000274FFF5F01217039002C1E0FF70
:1027310070030227CE900BF5E0FEC394055003020F
:1027410027CEEED3941F40030227CE900C80E07079
:1027510003022891900250E0FE605C900BF5E0FDD1
:0B276100C394054052EDD3941F504C70
:10276C00EEB40407900252E0B40408900250E06406
:10277C00046039900C79E0900C8FB428057406F045
:10278C0080037404F0900C8FE0B507209002517414
:10279C0002F0900254E0FEA3E0FF90025EE02FFFF7
:0C27AC0090025DE03E900256F0A3EFF0BA
:1027B8009002C1E014F06003022891F56BF56CF506
:1027C8006FF570022891900BF5E0FFC39405500354
:0C27D800022891EFD394234003022891C3
:1027E400900C7FE0FF906639E493FD3395E0FC9014
:1027F400027075F013ED121A95EC75F013A425838D
:10280400F583121AB1900007EF121644900290E07B
:10281400A3FF90027075F013ED121A95EC75F01386
:10282400A42583F583121AB1900008EF1216449080
:102834000290A3E0FF90027075F013ED121A95EC6C
:1028440075F013A42583F583121AB1900009EF12D1
:102854001644754B00754C037B277D037F02126E73
:1028640088E4F52EF52FD390091AE0952F900919D5
:10287400E0952E4018743E252FF5827400352EF510
:0D28840083E4F0052FE52F70DD052E80D9CF
:10289100E4900C80F09002C0F0900C7FE06008633F
:0D28A100B020E4F0021E6953B0DF021E6992
:0E73760053B0BF53B0DF900251E0640370705B
:10738400900C94121A4000015F90E4FFFEFDFC9003
:107394000C94121A18D31219314017900C94121A23
:1073A4000C74FFFBFAF9F81217DE900C94121A34DD
:0273B40080D87F
:0373B600E4F5C833
:1073B900900C98121A4000020F58E4FFFEFDFC9051
:1073C9000C98121A18D31219314017900C98121AE6
:1073D9000C74FFFBFAF9F81217DE900C98121A34A4
:0273E90080D84A
:1073EB009002517401F0A304F0900250E0FFB4043A
:1073FB0008900252E064046013EF6404700302749B
:0C740B00C5900251E0640460030274C5E7
:10741700900C9C121A4000015F90E4FFFEFDFC9067
:107427000C9C121A18D31219314017900C9C121A7F
:107437000C74FFFBFAF9F81217DE900C9C121A3441
:0274470080D8EB
:10744900900250E024FD603C1460042403706D43F5
:02745900C81059
:10745B00900CA0121A400001B774E4FFFEFDFC90E3
:10746B000CA0121A18D3121931404C900CA0121AFE
:10747B000C74FFFBFAF9F81217DE900CA0121A34F9
:02748B0080D8A7
:03748D0043C810E1
:10749000900CA4121A400001B774E4FFFEFDFC90AA
:1074A0000CA4121A18D31219314017900CA4121AF6
:1074B0000C74FFFBFAF9F81217DE900CA4121A34C0
:0274C00080D872
:0D74C20053C8EF9002517401F0E4F5C822A8
:10547E0090025DE0F533A3E0F534E4F56FF570F5D9
:10548E006BF56C900C7FF0A3F0900919E0FEA3E091
:10549E00FF7B017A00793E754D00754E01127A46FA
:1054AE00900BAFE024FC601424027027900C7974EA
:1054BE0014F0900254E4F0A374F08026900C7974EA
:1054CE0028F0900254E4F0A374A4F09002C1740684
:1054DE00F08016900C79740AF09002547402F0A3C6
:1054EE007434F09002C17404F0900C7AE090028F44
:1054FE00F090028BE0FCA3E0FD4C700890000AF0E7
:10550E00A3F08067900292E0701E121267A804A9A1
:10551E0005AA06AB07E4FFFE7D7A7C4812114712FE
:10552E0012A07C007DF08038900292E0B40F0374DC
:10553E0010F090028BE0FCA3E0FDE4121267A804C9
:10554E00A905AA06AB07E4FFFE7D7A7C4812114737
:10555E001212A0900292E0FD74788DF084FD7C0012
:10556E0012166690000AEEF0A3EFF0E5D854037021
:10557E000790028FF002585A7B017A00793E754DE2
:10558E0000754E037F107E02127A46E4F531F53235
:10559E0090005675F028E532121A95E53175F0280F
:1055AE00A42583F583E024FB601524FB7022745F31
:1055BE002532F58274023531F5837403F080207440
:1055CE005F2532F58274023531F5837402F0800F57
:1055DE00745F2532F58274023531F5837404F0055B
:1055EE0032E532700205316404453170A3E4F531C1
:1055FE00F53290006375F028E532121A95E5317593
:10560E00F028A42583F583E0FDE53225E0FFE531A2
:10561E0033FE740D2FF58274003EF583EDF090008D
:10562E005775F028E532121A95E53175F028A42544
:10563E0083F583121A1890005B75F028E532121A62
:10564E0095E53175F028A42583F583121A0C120FF7
:10565E0049C004C005C006C00790005775F028E584
:10566E0032121A95E53175F028A42583F583121AA6
:10567E001890005F75F028E532121A95E53175F035
:10568E0028A42583F583121A0C120F49D003D002D9
:10569E00D001D000121147E4FBFAF9F81211E49090
:1056AE00005775F02860054003025738E532121A8C
:1056BE0095E53175F028A42583F583121A1890000C
:1056CE005B75F028E532121A95E53175F028A425A0
:1056DE0083F583121A0C120F49C004C005C006C010
:1056EE000790005775F028E532121A95E53175F0DE
:1056FE0028A42583F583121A1890005F75F028E50B
:10570E0032121A95E53175F028A42583F583121A05
:10571E000C120F49D003D002D001D000121147C095
:10572E0004C005C006C0070257BEE532121A95E541
:10573E003175F028A42583F583121A1890005B7535
:10574E00F028E532121A95E53175F028A42583F577
:10575E0083121A0C120F49C004C005C006C0079070
:10576E00005775F028E532121A95E53175F028A428
:10577E002583F583121A1890005F75F028E5321212
:10578E001A95E53175F028A42583F583121A0C12AB
:10579E000F49D003D002D001D0001211471212517E
:1057AE00AB07AA06A905A804C000C001C002C00329
:1057BE0090006475F028E532121A95E53175F028DF
:1057CE00A42583F583E0FF90006575F028E532127D
:1057DE001A95E53175F028A42583F583E0C39FFD66
:1057EE00E49400FCE4121267D003D002D001D00082
:1057FE0012103EC004C005C006C00790006475F0CC
:10580E0028E532121A95E53175F028A42583F58323
:10581E00E0FCE412126CD003D002D001D000120FC3
:10582E004D1212A0AD07E53225E0FFE53133FE74CF
:10583E000C2FF58274003EF583EDF00532E53270E3
:10584E0002053164044531600302560090028FE078
:10585E0030E7034403F0E4F531F532D390091AE052
:10586E009532900919E095314018743E2532F58233
:10587E0074003531F583E4F00532E53270DD053123
:02588E0080D9BF
:0158900022F5
:0963C30090028FE07003026600F5
:0363CC0075310622
:1063CF00AF3190028FE0FEA807088002C313D8FCFC
:1063DF0020E0030265F2E531121B4C656500655C38
:1063EF0001644D02644D03640B04640B05640306E2
:1063FF00000065F2E5D8F4F5320265F2AF31EF3304
:10640F0095E0FEEF25E0FFEE33FE74182FF5827452
:10641F00003EF583E0FEA3E0FFAD31ED3395E0FCE8
:10642F00745D2DF58274023CF583E0FDEFA805083D
:0E643F008005CEC313CE13D8F9F5320265F2F4
:10644D00E4F533AF31EF3395E0FEEF25E0FFEE33AA
:10645D00FE74182FF58274003EF583E0FEA3E0FF75
:10646D00AD31ED3395E0FC745D2DF58274023CF594
:10647D0083E0FBEFA803088005CEC313CE13D8F934
:10648D00F53274042DF58274003CF583E0640260EE
:10649D00030265F2AF31EF3395E0FEEF25E0FFEE3D
:1064AD0033FE74092FF58274003EF583E0602304FA
:1064BD00604624FE706A74082FF58274003EF583E1
:1064CD00E0FFE532D39F40047F0180027F008F33D0
:1064DD00804EAF31EF3395E0FEEF25E0FFEE33FE5A
:1064ED0074082FF58274003EF583E0B532047F0108
:1064FD0080027F008F338028AF31EF3395E0FEEFC0
:10650D0025E0FFEE33FE74082FF58274003EF5830F
:10651D00E0FFE532C39F50047F0180027F008F337F
:10652D00E5336015E5312402FF7401A807088002E8
:10653D00C333D8FC42C80265F2E5312402FF740171
:0F654D00A807088002C333D8FCF452C80265F2D5
:09655C0090024EE0F5320265F2F6
:1065650090024EE0FEA3E0FFF53290000AE0FCA3A6
:10657500E0FD4C6078EF4E6074D3ED9FEC9E503893
:10658500E4F533F53474062534F58274003533F5B6
:1065950083E0B40113E5342404FF7401A8070880DF
:1065A50002C333D8FCF452C80534E5347002053310
:1065B5006402453370CF8035E4F533F53474062530
:1065C50034F58274003533F583E0B40112E53424E3
:1065D50004FF7401A807088002C333D8FC42C8052C
:0D65E50034E534700205336402453370D094
:0E65F2001531C3E5316480948040030263CF0D
:016600002277
:107E37008B518A528953E92DF9EA3C8B54F55589C0
:107E470056E4F557F558C3855583855682E553950E
:107E570082E5529583502F7851E475F001121AA1EB
:107E67001215B9FFE5586F25E0FFE433FE743A2F8A
:107E7700F58274663EF583E557FFE493F557740181
:0A7E8700936FF55880C0AE57AF5856
:017E910022CE
:1074CF00E4900CD4F07B017A0B79F9127F43900C86
:1074DF0062E07004A3E064D2700C900C64E070045E
:1074EF00A3E064086018900C62E4F0A374D2F090EB
:1074FF000C64E4F0A37408F0900CD47401F0900CB9
:10750F004BE0B46508900C4AE064016010900C4B9E
:10751F007465F0900C4A7401F0900CD4F0900BF35A
:10752F00E0FCA3E0FDB40015ECB41011900C67E083
:10753F0030E40AE054EFF0900CD47401F0E4B50598
:10754F0015ECB42011900C67E020E40AE04410F031
:10755F00900CD47401F0900BF9E0FF1282DE400D15
:10756F00900BF9E06007E4F0900CD404F0900C0D50
:10757F00E0FF1282DE400D900C0DE06007E4F0900A
:10758F000CD404F0900C21E0FF1282DE400D900C21
:10759F0021E06007E4F0900CD404F0900C6AE0B4A2
:1075AF00FF07E4F0900CD404F0900C6BE0B4FF11E3
:1075BF00A3E0B4FF0CE4900C6BF0A3F0900CD40498
:1075CF00F0900CD4E060101282507B017A0B79F9A5
:0775DF007D807C00127D6439
:0175E6002282
:10825000AF84E4F584781EF608F6A2AF33FEC2AF11
:1082600043B701758F0718E6FC08E6F5828C83E4B6
:0D827000F0F58F53B7FEEE24FF92AF8F8420
:01827D0022DE
:0A7D64008B458A4689478C488D49FB
:107D6E0085844AE4F584781EF608F6A2AF33FFC286
:107D7E00AF43B701758F05E4F54BF54CC3E54C9554
:107D8E0049E5486480F8E54B64809850297845E4CD
:107D9E0075F001121AA11215B9FE781E0806E61822
:107DAE00860470010614F5828C83EEF0054CE54CCA
:107DBE0070CA054B80C6E4F58F53B7FEEF24FF92D1
:047DCE00AF854A84AF
:017DD200228E
:067F43008B458A468947C8
:107F4900858448E4F549F54AF584A2AF33F54BC277
:107F5900AF758F04E4FFFE054AE54AAC4970020596
:107F69004914F5828C83E493FD7845E475F0011298
:107F79001AA1ED1216320FBF00010EEF64804E7088
:0D7F8900D6E4F58FE54B24FF92AF854884C8
:017F960022C8
:0E7AE1008E4C8F4D8C4E8D4F8B508A5189529A
:0A7AEF0012007EEF30E7F953F8FDB6
:107AF900E4F557F5580558E55870020557644045AF
:037B09005770F2C0
:107B0C00E54D6401454C70047F8480027F871282AE
:107B1C00CDE4FF1282CDE4FF1282CDE4FF1282CDC0
:107B2C00E4F555F556C3E556954FE54E6480F8E5FA
:107B3C0055648098501DAB50AA51A9528556828528
:107B4C0055831215D2FF1282CD0556E55670D60517
:107B5C005580D243F802AD54AC53AF4DAE4C027CC1
:017B6C0077A1
:087C77008E598F5A8C5B8D5C65
:107C7F00900919E0FEA3E0FF1279AA8F5D12007E32
:077C8F00EF30E7F953F8FDA7
:107C9600E4F55EF55F055FE55F7002055E644045ED
:037CA6005E70F21B
:107CA900E55D6010E55A6401455970047F838012CF
:107CB9007F86800EE55A6401455970047F828002EF
:107CC9007F851282CDE55CAE5B7806CEA2E713CE46
:107CD90013D8F8FF1282CDAF5CEF25E025E0FF1243
:0A7CE90082CDE4FF1282CD43F802C1
:017CF300226E
:03007E0053F8FD37
:10008100E4F569F56A056AE56A7002056964404547
:030091006970F2A1
:0D0094007FD71282CDE4FF1282CD43F80227
:0100A100223C
:0A7A46008E488F498B4A8A4B894C09
:0A7A500012007EEF30E7F953F8FD55
:107A5A00E4F551F5520552E552700205516440456C
:037A6A005170F266
:107A6D007FD21282CDE54EAE4D7806CEA2E713CE73
:107A7D0013D8F8FF1282CDAF4EEF25E025E0FF12AF
:107A8D0082CDE4FF1282CDE4FF1282CDE4FF12829B
:107A9D00CDE4FF1282CDE4FF1282CDE4F54FF55017
:107AAD00C3E5509549E5486480F8E54F64809850EA
:107ABD001FE4FF1282CDAB4AAA4BA94C855082859B
:107ACD004F83EF1216440550E55070D4054F80D00A
:037ADD0043F80269
:017AE0002283
:0879AA008E608F618C628D6319
:0D79B20075640112007EEF30E7F953F8FD17
:1079BF00E4F567F5680568E568700205676440459A
:0379CF006770F2EC
:1079D2007FD21282CDE563AE627806CEA2E713CEE5
:1079E20013D8F8FF1282CDAF63EF25E025E0FF1236
:1079F20082CDE4FF1282CDE4FF1282CDE4FF128237
:107A0200CDE4FF1282CDE4FF1282CDE4F565F56686
:107A1200C3E5669561E5606480F8E5656480985029
:107A22001DE4FF1282CDBFFF047F0180027F008F21
:107A320064EF600A0566E56670D6056580D243F894
:037A420002AF642C
:017A4500221E
:048037008E478F4899
:0A803B0012007EEF30E7F953F8FD64
:10804500E4F549F54A054AE54A70020549644045A3
:038055004970F27D
:108058007F501282CDE548AE477806CEC313CE13C3
:10806800D8F9FF1282CDAF48EF25E025E0FF128254
:09807800CDE4FF1282CD43F802B1
:0180810022DC
:048082008E488F494C
:0A80860012007EEF30E7F953F8FD19
:10809000E4F54AF54B054BE54B7002054A64404553
:0380A0004A70F231
:1080A3007F811282CDE549AE487806CEC313CE1345
:1080B300D8F9FF1282CDAF49EF25E025E0FF128208
:0980C300CDE4FF1282CD43F80266
:0180CC002291
:067CF4008C428D438B441D
:107CFA00E544600353B0BF8E458F46D3E5469543AE
:107D0A00E5459542504CE54654077035C3E5439521
:107D1A0046FFE5429545FEC3EF9408EE94004021E4
:107D2A00E5446009E546543F700363B040AF46AE90
:107D3A004512803774072546F546E43545F54580F2
:107D4A0007AF46AE451280820546E54670AD054549
:097D5A0080A9E544600353B0BFA9
:017D630022FD
:0675E7008B318A3289336A
:0975ED0043F80143F80253F8FBD6
:1075F600E4F537F5380538E5387002053764404557
:037606003770F2E8
:0376090043F8043F
:10760C00E4F537F5380538E5387002053764404540
:03761C003770F2D2
:10761F0012007EEF543C121B4C76410C764B1476C5
:10762F00551C765F24767A2C76953476B03C000024
:10763F0076CCAB31AA32A9337402801CAB31AA329B
:10764F00A93374048012AB31AA32A93374088008AD
:10765F00AB31AA32A933741075F000121792AB3404
:10766F00AA35A936740175F008804FAB31AA32A93B
:10767F0033741075F000121792AB34AA35A9367413
:10768F000275F0108034AB31AA32A933742075F033
:10769F0000121792AB34AA35A936740275F0108018
:1076AF0019AB31AA32A933742075F000121792ABBF
:0D76BF0034AA35A936740475F02012179214
:0176CC00229B
:105BFC00257300506C61636520756E697420666C4A
:105C0C006174206F6E206C6576656C20737572669E
:105C1C006163652E00486F6C6420766572746963ED
:105C2C00616C2C2047505320616E74656E6E612040
:105C3C006A61636B2075702E00486F6C642076650A
:105C4C0072746963616C2C2047505320616E7465CB
:105C5C006E6E61206A61636B20646F776E2E0053E9
:105C6C0074616E64206F6E2072696768742073694A
:105C7C0064652E005374616E64206F6E206C6566D3
:105C8C007420736964652E00496E76657274696E52
:105C9C006720582056616C75657300496E76657285
:105CAC0074696E6720592056616C7565730020000D
:105CBC0043616C6962726174696F6E2056616C75B8
:105CCC0065733A2025752C20257500416374756128
:105CDC006C205A65726F20506F696E74733A20583D
:105CEC002025752C205920257500582052616E678F
:105CFC00653A2025642C20256400592052616E677A
:105D0C00653A2025642C2025640053746F72696EEB
:105D1C00672043616C6962726174696F6E204461C3
:105D2C00746120696E20466C6173682E0043616C4F
:105D3C006962726174696F6E20436F6D706C65740B
:105D4C00652E00547261716D61746520496E7075B9
:105D5C0074205465737400444947494E3A2000310D
:105D6C00003000583A2025752C20593A2025750012
:105D7C0035563A2025752C20543A20257500413093
:105D8C003A2025752C2041313A2025750041323AB4
:105D9C002025752C2041333A20257500496E7075ED
:105DAC00745465737420436F6D706C6574652E004C
:105DBC00547261716D617465204F757470757420C7
:105DCC005465737400626974202564004F75747097
:105DDC0075745465737420436F6D706C6574652EA7
:105DEC000025752C25750043616C3A2025642C2503
:105DFC00640056616C3A2025752C257500582C20B2
:105E0C0059205A65726F6564204F75740046696E2F
:105E1C00616C2043616C3A2025642C256400466932
:105E2C006E616C2056616C3A2025752C25750044EA
:105E3C00617461666C6173682054657374002A2AFE
:105E4C002A2A2A2A20466C61736820577269746565
:105E5C00204641494C4544202A2A2A2A2A2A2C2009
:105E6C00706167652025642C206279746525640057
:105E7C00466C617368206F6B2070616765202564C8
:105E8C000044617461666C6173685465737420437B
:105E9C006F6D706C6574652E000102040810204053
:095EAC008001020408102040806E
:1028AE008584429000047401F075840FFB7A0B79D5
:1028BE00F9127F43E4900C49F090663693900C4ADF
:1028CE00F0A37465F0900C62E4F0A374D2F0900C57
:1028DE0064E4F0A37408F074FFFFFEFDFC900C4C52
:1028EE00121A18C3121947700A900C4C121A400093
:1028FE00000000900C50E0B4FF037401F0900C51F6
:10290E00E0B4FF037408F0900C6674FFF0A3F0902F
:10291E000C527408F0A3E4F0900C547408F0A3E485
:10292E00F0900BF9F0900C0DF0900C21F0900C60E3
:10293E00F0A374A0F0900C5EE4F0A374A0F0E49009
:10294E000293F0A3F043B00843B04043B02043B02D
:10295E001090663793FF3395E0FE90027075F0137A
:10296E00EF121A95EE75F013A42583F583121AB1A2
:10297E00E92407F9E43AFA754BFF754C5B754DFC8B
:10298E00754EFF754F5B7550FF12506B906637E4B6
:10299E0093FF3395E0FE90027075F013EF121A95C7
:1029AE00EE75F013A42583F583121AB1E92407F905
:1029BE00E43AFA12000EEF2401F54CE43EF54B908A
:1029CE006636E493FF7B737D01126E881261651289
:0E29DE004A8253B0F753B0BF53B0DF53B0EF8F
:1029EC00900CA0121A40000107ACE4FFFEFDFC9015
:1029FC000CA0121A18D31219314017900CA0121AED
:102A0C000C74FFFBFAF9F81217DE900CA0121A34B2
:022A1C0080D860
:102A1E00906637E493FF3395E0FE90027075F013E5
:102A2E00EF121A95EE75F013A42583F583121AB1E1
:102A3E00E92407F9E43AFA754BFF754C5B754DFCCA
:102A4E00754EFF754F5C75502112506B906637E4D2
:102A5E0093FF3395E0FE90027075F013EF121A9506
:102A6E00EE75F013A42583F583121AB1E92407F944
:102A7E00E43AFA12000EEF2401F54CE43EF54B90C9
:102A8E006636E493FF7B737D01126E88126165904A
:102A9E000D40E0FEA3E0FF900D3DE02FFF900D3CBA
:102AAE00E03EC313FEEF13FF900C58EEF0A3EFF0D1
:032ABE0043B0081A
:102AC100900CA4121A40000107ACE4FFFEFDFC903B
:102AD1000CA4121A18D31219314017900CA4121A0F
:102AE1000C74FFFBFAF9F81217DE900CA4121A34D9
:022AF10080D88B
:102AF300906637E493FF3395E0FE90027075F01310
:102B0300EF121A95EE75F013A42583F583121AB10B
:102B1300E92407F9E43AFA754BFF754C5B754DFCF4
:102B2300754EFF754F5C75504512506B906637E4D8
:102B330093FF3395E0FE90027075F013EF121A9530
:102B4300EE75F013A42583F583121AB1E92407F96E
:102B5300E43AFA12000EEF2401F54CE43EF54B90F3
:102B63006636E493FF7B737D01126E881261659074
:102B73000D40E0FEA3E0FF900D3DE02FFF900D3CE4
:102B8300E03EC313FEEF13FF900C56EEF0A3EFF0FD
:032B930043B0400C
:102B9600900CA8121A40000107ACE4FFFEFDFC9061
:102BA6000CA8121A18D31219314017900CA8121A31
:102BB6000C74FFFBFAF9F81217DE900CA8121A34FF
:022BC60080D8B5
:102BC800906637E493FF3395E0FE90027075F0133A
:102BD800EF121A95EE75F013A42583F583121AB136
:102BE800E92407F9E43AFA754BFF754C5B754DFC1F
:102BF800754EFF754F5C75506B12506B906637E4DD
:102C080093FF3395E0FE90027075F013EF121A955A
:102C1800EE75F013A42583F583121AB1E92407F998
:102C2800E43AFA12000EEF2401F54CE43EF54B901D
:102C38006636E493FF7B737D01126E88126165909E
:102C48000D42E0FEA3E0FF900D3FE02FFF900D3E08
:102C5800E03EC313FEEF13FF900C5AEEF0A3EFF023
:032C680043B02056
:102C6B00900CAC121A40000107ACE4FFFEFDFC9087
:102C7B000CAC121A18D31219314017900CAC121A53
:102C8B000C74FFFBFAF9F81217DE900CAC121A3425
:022C9B0080D8DF
:102C9D00906637E493FF3395E0FE90027075F01364
:102CAD00EF121A95EE75F013A42583F583121AB160
:102CBD00E92407F9E43AFA754BFF754C5B754DFC49
:102CCD00754EFF754F5C75508012506B906637E4F2
:102CDD0093FF3395E0FE90027075F013EF121A9585
:102CED00EE75F013A42583F583121AB1E92407F9C3
:102CFD00E43AFA12000EEF2401F54CE43EF54B9048
:102D0D006636E493FF7B737D01126E8812616590C8
:102D1D000D42E0FEA3E0FF900D3FE02FFF900D3E32
:102D2D00E03EC313FEEF13FF900C5CEEF0A3EFF04B
:102D3D0043B010900C56E0FEA3E0FFC3900C59E099
:0B2D4D009F900C58E09E4003022E29CE
:102D5800900CB0121A40000107ACE4FFFEFDFC9095
:102D68000CB0121A18D31219314017900CB0121A5D
:102D78000C74FFFBFAF9F81217DE900CB0121A3433
:022D880080D8F1
:102D8A00906637E493FF3395E0FE90027075F01376
:102D9A00EF121A95EE75F013A42583F583121AB172
:102DAA00E92407F9E43AFA754BFF754C5B754DFC5B
:102DBA00754EFF754F5C75509412506B906637E4F0
:102DCA0093FF3395E0FE90027075F013EF121A9597
:102DDA00EE75F013A42583F583121AB1E92407F9D5
:102DEA00E43AFA12000EEF2401F54CE43EF54B905A
:102DFA006636E493FF7B737D01126E88900C58E06F
:102E0A00F543A3E0F544900C56E0FFA3E0900C587C
:102E1A00CFF0A3EFF0900C56E543F0A3E544F09011
:102E2A000C5AE0FEA3E0FFC3900C5DE09F900C5C9F
:072E3A00E09E4003022F128D
:102E4100900CB4121A40000107ACE4FFFEFDFC90A7
:102E51000CB4121A18D31219314017900CB4121A6B
:102E61000C74FFFBFAF9F81217DE900CB4121A3445
:022E710080D807
:102E7300906637E493FF3395E0FE90027075F0138C
:102E8300EF121A95EE75F013A42583F583121AB188
:102E9300E92407F9E43AFA754BFF754C5B754DFC71
:102EA300754EFF754F5C7550A712506B906637E4F3
:102EB30093FF3395E0FE90027075F013EF121A95AD
:102EC300EE75F013A42583F583121AB1E92407F9EB
:102ED300E43AFA12000EEF2401F54CE43EF54B9070
:102EE3006636E493FF7B737D01126E88900C5CE081
:102EF300F543A3E0F544900C5AE0FFA3E0900C5C8B
:0F2F0300CFF0A3EFF0900C5AE543F0A3E544F0B4
:102F1200900CB8121A40000107ACE4FFFEFDFC90D1
:102F22000CB8121A18D31219314017900CB8121A91
:102F32000C74FFFBFAF9F81217DE900CB8121A346F
:022F420080D835
:102F4400906637E493FF3395E0FE90027075F013BA
:102F5400EF121A95EE75F013A42583F583121AB1B6
:102F6400E92407F9E43AFA754BFF754C5B754DFC9F
:102F7400754EFF754F5C7550BA12506B906637E40E
:102F840093FF3395E0FE90027075F013EF121A95DB
:102F9400EE75F013A42583F583121AB1E92407F919
:102FA400E43AFA12000EEF2401F54CE43EF54B909E
:0C2FB4006636E493FF7B737D01126E888B
:102FC000900CBC121A40000107ACE4FFFEFDFC901F
:102FD0000CBC121A18D31219314017900CBC121ADB
:102FE0000C74FFFBFAF9F81217DE900CBC121A34BD
:022FF00080D887
:102FF200906637E493FF3395E0FE90027075F0130C
:10300200EF121A95EE75F013A42583F583121AB107
:10301200E92407F9E43AFA754BFF754C5C754DBC2F
:10302200900C5EE0F54EA3E0F54F900C60E0F55099
:10303200A3E0F55112506B906637E493FF3395E0AD
:10304200FE90027075F013EF121A95EE75F013A44C
:103052002583F583121AB1E92407F9E43AFA12003A
:103062000EEF2401F54CE43EF54B906636E493FFF7
:073072007B737D01126E88E3
:10307900900CC0121A40000107ACE4FFFEFDFC9061
:103089000CC0121A18D31219314017900CC0121A19
:103099000C74FFFBFAF9F81217DE900CC0121A34FF
:0230A90080D8CD
:1030AB00906637E493FF3395E0FE90027075F01352
:1030BB00EF121A95EE75F013A42583F583121AB14E
:1030CB00E92407F9E43AFA754BFF754C5C754DD75B
:1030DB00900C52E0F54EA3E0F54F900C54E0F550F8
:1030EB00A3E0F55112506B906637E493FF3395E0F4
:1030FB00FE90027075F013EF121A95EE75F013A493
:10310B002583F583121AB1E92407F9E43AFA120080
:10311B000EEF2401F54CE43EF54B906636E493FF3D
:07312B007B737D01126E8829
:10313200900CC4121A40000107ACE4FFFEFDFC90A3
:103142000CC4121A18D31219314017900CC4121A57
:103152000C74FFFBFAF9F81217DE900CC4121A3441
:0231620080D813
:10316400906637E493FF3395E0FE90027075F01398
:10317400EF121A95EE75F013A42583F583121AB194
:10318400E92407F9E43AFA754BFF754C5C754DF682
:10319400900C56E0F54EA3E0F54F900C58E0F55036
:1031A400A3E0F55112506B906637E493FF3395E03A
:1031B400FE90027075F013EF121A95EE75F013A4D9
:1031C4002583F583121AB1E92407F9E43AFA1200C7
:1031D4000EEF2401F54CE43EF54B906636E493FF84
:0731E4007B737D01126E8870
:1031EB00900CC8121A40000107ACE4FFFEFDFC90E6
:1031FB000CC8121A18D31219314017900CC8121A96
:10320B000C74FFFBFAF9F81217DE900CC8121A3483
:02321B0080D859
:10321D00906637E493FF3395E0FE90027075F013DE
:10322D00EF121A95EE75F013A42583F583121AB1DA
:10323D00E92407F9E43AFA754BFF754C5D754D06B7
:10324D00900C5AE0F54EA3E0F54F900C5CE0F55074
:10325D00A3E0F55112506B906637E493FF3395E080
:10326D00FE90027075F013EF121A95EE75F013A41F
:10327D002583F583121AB1E92407F9E43AFA12000D
:10328D000EEF2401F54CE43EF54B906636E493FFCA
:07329D007B737D01126E88B6
:1032A400900CCC121A40000107ACE4FFFEFDFC9028
:1032B4000CCC121A18D31219314017900CCC121AD4
:1032C4000C74FFFBFAF9F81217DE900CCC121A34C6
:0232D40080D8A0
:1032D600906637E493FF3395E0FE90027075F01325
:1032E600EF121A95EE75F013A42583F583121AB121
:1032F600E92407F9E43AFA754BFF754C5B754DFC0A
:10330600754EFF754F5D75501612506B906637E41B
:1033160093FF3395E0FE90027075F013EF121A9545
:10332600EE75F013A42583F583121AB1E92407F983
:10333600E43AFA12000EEF2401F54CE43EF54B9008
:103346006636E493FF7B737D01126E881282507B92
:0C335600017A0B79F97D747C00127D6413
:10336200900CD0121A40000107ACE4FFFEFDFC9065
:103372000CD0121A18D31219314017900CD0121A0D
:103382000C74FFFBFAF9F81217DE900CD0121A3403
:0233920080D8E1
:10339400906637E493FF3395E0FE90027075F01366
:1033A400EF121A95EE75F013A42583F583121AB162
:1033B400E92407F9E43AFA754BFF754C5B754DFC4B
:1033C400754EFF754F5D75503912506B906637E43A
:1033D40093FF3395E0FE90027075F013EF121A9587
:1033E400EE75F013A42583F583121AB1E92407F9C5
:1033F400E43AFA12000EEF2401F54CE43EF54B904A
:103404006636E493FF7B737D01126E8843B00853E4
:10341400B0BF53B0DF53B0EFE4900004F01274CFA8
:033424008542845A
:013427002282
:1043A60085844278C07C0C7D017BFF7A5E79A57E90
:0C43B600007F081215939000047401F0C1
:1043C200900CA0121A40000107ACE4FFFEFDFC9025
:1043D2000CA0121A18D31219314017900CA0121AFD
:1043E2000C74FFFBFAF9F81217DE900CA0121A34C3
:0243F20080D871
:1043F400906637E493FF3395E0FE90027075F013F6
:10440400EF121A95EE75F013A42583F583121AB1F1
:10441400E92407F9E43AFA754BFF754C5B754DFCDA
:10442400754EFF754F5D75504F12506B906637E4B3
:1044340093FF3395E0FE90027075F013EF121A9516
:10444400EE75F013A42583F583121AB1E92407F954
:10445400E43AFA12000EEF2401F54CE43EF54B90D9
:104464006636E493FF7B737D01126E88E4900293B9
:03447400F0A3F0C2
:1044770075840FE5E830E019C3900294E094099041
:104487000293E0940040030249B8E4900293F0A33A
:0C449700F090028AE060D9E4F085D84380
:1044A300900CA4121A400006DDD0E4FFFEFDFC9040
:1044B3000CA4121A18D31219314017900CA4121A13
:1044C3000C74FFFBFAF9F81217DE900CA4121A34DD
:0244D30080D88F
:1044D500906637E493FF3395E0FE90027075F01314
:1044E500EF121A95EE75F013A42583F583121AB110
:1044F500E92407F9E43AFA754BFF754C5B754DFCF9
:10450500754EFF754F5C7550BA12506B906637E467
:1045150093FF3395E0FE90027075F013EF121A9534
:10452500EE75F013A42583F583121AB1E92407F972
:10453500E43AFA12000EEF2401F54CE43EF54B90F7
:0C4545006636E493FF7B737D01126E88E4
:10455100900CA8121A40000107ACE4FFFEFDFC908C
:104561000CA8121A18D31219314017900CA8121A5C
:104571000C74FFFBFAF9F81217DE900CA8121A342A
:0245810080D8E0
:10458300754BFF754C5D754D637B017A0C79C812D1
:10459300506B7544007545067B017A0C79C812008F
:1045A3000E74C82FF9740C3EFA7B01C003C002C01D
:1045B3000174C02545F582740C3544F583E05543F9
:1045C3007BFF60067A5D796B80047A5D796D8B4B36
:1045D3008A4C894DD001D002D00312506BE54515AA
:1045E3004570021544C3E5446480948050AA9066E4
:1045F30037E493FF3395E0FE90027075F013EF12EA
:104603001A95EE75F013A42583F583121AB1E924E4
:1046130007F9E43AFA754BFF754C5B754DFC754E23
:1046230001754F0C7550C812506B906637E493FFB9
:104633003395E0FE90027075F013EF121A95EE7544
:10464300F013A42583F583121AB1E92407F9E43A98
:10465300FA12000EEF2401F54CE43EF54B9066365A
:0A466300E493FF7B737D01126E8863
:10466D00900CAC121A40000107ACE4FFFEFDFC906B
:10467D000CAC121A18D31219314017900CAC121A37
:10468D000C74FFFBFAF9F81217DE900CAC121A3409
:02469D0080D8C3
:10469F00754BFF754C5D754D6F900014E0F54EA393
:1046AF00E0F54FA3E0F550A3E0F5517B017A0C79CB
:1046BF00C812506B906637E493FF3395E0FE90027B
:1046CF007075F013EF121A95EE75F013A42583F59C
:1046DF0083121AB1E92407F9E43AFA754BFF754CC6
:1046EF005B754DFC754E01754F0C7550C812506BB4
:1046FF00906637E493FF3395E0FE90027075F013E8
:10470F00EF121A95EE75F013A42583F583121AB1E3
:10471F00E92407F9E43AFA12000EEF2401F54CE40C
:10472F003EF54B906636E493FF7B737D01126E88E6
:10473F00900CB0121A40000107ACE4FFFEFDFC9094
:10474F000CB0121A18D31219314017900CB0121A5C
:10475F000C74FFFBFAF9F81217DE900CB0121A3432
:02476F0080D8F0
:10477100754BFF754C5D754D7C900018E0F54EA3AF
:10478100E0F54FA3E0F550A3E0F5517B017A0C79F8
:10479100C812506B906637E493FF3395E0FE9002A8
:1047A1007075F013EF121A95EE75F013A42583F5C9
:1047B10083121AB1E92407F9E43AFA754BFF754CF3
:1047C1005B754DFC754E01754F0C7550C812506BE1
:1047D100906637E493FF3395E0FE90027075F01315
:1047E100EF121A95EE75F013A42583F583121AB111
:1047F100E92407F9E43AFA12000EEF2401F54CE43A
:104801003EF54B906636E493FF7B737D01126E8813
:10481100900CB4121A40000107ACE4FFFEFDFC90BD
:104821000CB4121A18D31219314017900CB4121A81
:104831000C74FFFBFAF9F81217DE900CB4121A345B
:0248410080D81D
:10484300754BFF754C5D754D8A90001CE0F54EA3CA
:10485300E0F54FA3E0F550A3E0F5517B017A0C7925
:10486300C812506B906637E493FF3395E0FE9002D5
:104873007075F013EF121A95EE75F013A42583F5F6
:1048830083121AB1E92407F9E43AFA754BFF754C20
:104893005B754DFC754E01754F0C7550C812506B0E
:1048A300906637E493FF3395E0FE90027075F01342
:1048B300EF121A95EE75F013A42583F583121AB13E
:1048C300E92407F9E43AFA12000EEF2401F54CE467
:1048D3003EF54B906636E493FF7B737D01126E8841
:1048E300900CB8121A40000107ACE4FFFEFDFC90E7
:1048F3000CB8121A18D31219314017900CB8121AA7
:104903000C74FFFBFAF9F81217DE900CB8121A3484
:0249130080D84A
:10491500754BFF754C5D754D99900020E0F54EA3E4
:10492500E0F54FA3E0F550A3E0F5517B017A0C7952
:10493500C812506B906637E493FF3395E0FE900202
:104945007075F013EF121A95EE75F013A42583F523
:1049550083121AB1E92407F9E43AFA754BFF754C4D
:104965005B754DFC754E01754F0C7550C812506B3B
:10497500906637E493FF3395E0FE90027075F0136F
:10498500EF121A95EE75F013A42583F583121AB16B
:10499500E92407F9E43AFA12000EEF2401F54CE494
:1049A5003EF54B906636E493FF7B737D01126E886E
:0A49B500024477E4900293F0A3F0AF
:1049BF00900CBC121A40000107ACE4FFFEFDFC9006
:1049CF000CBC121A18D31219314017900CBC121AC2
:1049DF000C74FFFBFAF9F81217DE900CBC121A34A4
:0249EF0080D86E
:1049F100906637E493FF3395E0FE90027075F013F3
:104A0100EF121A95EE75F013A42583F583121AB1EE
:104A1100E92407F9E43AFA754BFF754C5B754DFCD7
:104A2100754EFF754F5D7550A812506B906637E457
:104A310093FF3395E0FE90027075F013EF121A9513
:104A4100EE75F013A42583F583121AB1E92407F951
:104A5100E43AFA12000EEF2401F54CE43EF54B90D6
:104A61006636E493FF7B737D01126E8843B0085371
:104A7100B0BF53B0DF53B0EFE4900004F08542843F
:014A81002212
:105EB500858442E4F545F54678AC7C0C7D017BFF95
:0A5EC5007A5E79ADFE7F0812159396
:105ECF00900CA0121A40000107ACE4FFFEFDFC90FD
:105EDF000CA0121A18D31219314017900CA0121AD5
:105EEF000C74FFFBFAF9F81217DE900CA0121A349B
:025EFF0080D849
:105F0100906637E493FF3395E0FE90027075F013CD
:105F1100EF121A95EE75F013A42583F583121AB1C9
:105F2100E92407F9E43AFA754BFF754C5B754DFCB2
:105F3100754EFF754F5D7550BC12506B906637E41E
:105F410093FF3395E0FE90027075F013EF121A95EE
:105F5100EE75F013A42583F583121AB1E92407F92C
:105F6100E43AFA12000EEF2401F54CE43EF54B90B1
:0C5F71006636E493FF7B737D01126E889E
:105F7D00900CA4121A40000107ACE4FFFEFDFC904A
:105F8D000CA4121A18D31219314017900CA4121A1E
:105F9D000C74FFFBFAF9F81217DE900CA4121A34E8
:025FAD0080D89A
:105FAF00E4900293F0A3F090025EE024A0F54490F9
:105FBF00025DE03400F54375840FE5E830E019C366
:105FCF00900294E09409900293E0940040030260E1
:105FDF00A0E4900293F0A3F090025DE0FEA3E0FF37
:105FEF00B544D4EEB543D0EF24A0F544E43EF543D9
:105FFF00906637E493FF3395E0FE90027075F013CF
:10600F00EF121A95EE75F013A42583F583121AB1CA
:10601F00E92407F9E43AFA754BFF754C5D754DD1DC
:10602F0085454E85464F12506B906637E493FF338C
:10603F0095E0FE90027075F013EF121A95EE75F061
:10604F0013A42583F583121AB1E92407F9E43AFA68
:10605F0012000EEF2401F54CE43EF54B906636E44A
:10606F0093FF7B737D01126E8874AC2546F58274A5
:10607F000C3545F583E0F5C80546E5467002054544
:10608F00FFAE457C007D071216CD8C458D46025F15
:08609F00C6E4900293F0A3F0A7
:1060A700900CA8121A40000107ACE4FFFEFDFC901B
:1060B7000CA8121A18D31219314017900CA8121AEB
:1060C7000C74FFFBFAF9F81217DE900CA8121A34B9
:0260D70080D86F
:1060D900906637E493FF3395E0FE90027075F013F4
:1060E900EF121A95EE75F013A42583F583121AB1F0
:1060F900E92407F9E43AFA754BFF754C5B754DFCD9
:10610900754EFF754F5D7550D812506B906637E428
:1061190093FF3395E0FE90027075F013EF121A9514
:10612900EE75F013A42583F583121AB1E92407F952
:10613900E43AFA12000EEF2401F54CE43EF54B90D7
:106149006636E493FF7B737D01126E8843B0085372
:0B615900B0BF53B0DF53B0EF854284AD
:016164002218
:10616500E4F545F546E4F545F54690028AE060FA22
:10617500900014E0FEA3E0FF900D40EEF0A3EFF0D9
:10618500900D3CEEF0A3EFF0900016E0FEA3E0FFCB
:10619500900D42EEF0A3EFF0900D3EEEF0A3EFF080
:1061A500E490028AF0C3E5469428E545648094802E
:1061B500400302634490028AE060EAAE45AF467C44
:0D61C500007D0A1216CDED4C60030262A4AD
:1061D200900CD4121A40000107ACE4FFFEFDFC90C3
:1061E2000CD4121A18D31219314017900CD4121A67
:1061F2000C74FFFBFAF9F81217DE900CD4121A3461
:0262020080D842
:10620400754BFF754C5D754DED900014E0F54EA394
:10621400E0F54FA3E0F550A3E0F5517B017A0C794A
:10622400D812506B906637E493FF3395E0FE9002EA
:106234007075F013EF121A95EE75F013A42583F51B
:1062440083121AB1E92407F9E43AFA754BFF754C45
:106254005B754DFC754E01754F0C7550D812506B23
:10626400906637E493FF3395E0FE90027075F01367
:10627400EF121A95EE75F013A42583F583121AB163
:10628400E92407F9E43AFA12000EEF2401F54CE48C
:106294003EF54B906636E493FF7B737D01126E8866
:1062A400900014E0FEA3E0FF900D3CE0FCA3E0FDB1
:1062B400C39FEC9E5006AE04AF058000900D3CEEEB
:1062C400F0A3EFF0900016E0FEA3E0FF900D3EE097
:1062D400FCA3E0FDC39FEC9E5006AE04AF05800016
:1062E400900D3EEEF0A3EFF0900014E0FEA3E0FF6B
:1062F400900D40E0FCA3E0FDD39FEC9E4006AE046D
:10630400AF058000900D40EEF0A3EFF0900016E092
:10631400FEA3E0FF900D42E0FCA3E0FDD39FEC9EC2
:106324004006AE04AF058000900D42EEF0A3EFF0FE
:10633400E490028AF00546E546700205450261AA2A
:10634400900D3EE0FEA3E0FF900D42E0FCA3E0FDD3
:10635400C39FFFEC9EFEC3940040028016900D3E46
:10636400E0FEA3E0FFC3ED9FFFEC9EFEC3E49FFFAE
:10637400E49EFED3EF9404EE9400400302616A901D
:106384000D3CE0FEA3E0FF900D40E0FCA3E0FDC364
:106394009FFFEC9EFEC3940040028016900D3CE0EB
:1063A400FEA3E0FFC3ED9FFFEC9EFEC3E49FFFE46A
:0E63B4009EFED3EF9404EE9400400302616A53
:0163C20022B8
:104A8200E4F545F546F584900C60E0A3E0F5FD9071
:104A92000C60E0A3E0F5FE900C5EE0A3E0F5FB9075
:104AA2000C5EE0A3E0F5FC90028AE07003024D9DEB
:104AB200E4F0E545700F900014E0FFA3E0900C5283
:104AC200CFF0A3EFF0E546700F900016E0FFA3E0F1
:084AD200900C54CFF0A3EFF0AB
:104ADA00900CD4121A40000107ACE4FFFEFDFC90D2
:104AEA000CD4121A18D31219314017900CD4121A76
:104AFA000C74FFFBFAF9F81217DE900CD4121A3470
:024B0A0080D851
:104B0C00906637E493FF3395E0FE90027075F013D6
:104B1C00EF121A95EE75F013A42583F583121AB1D2
:104B2C00E92407F9E43AFA754BFF754C5D754DF3C2
:104B3C00900C5EE0F54EA3E0F54F900C60E0F55064
:104B4C00A3E0F55112506B906637E493FF3395E078
:104B5C00FE90027075F013EF121A95EE75F013A417
:104B6C002583F583121AB1E92407F9E43AFA120005
:104B7C000EEF2401F54CE43EF54B906636E493FFC2
:104B8C007B737D01126E88754BFF754C5D754DFE08
:104B9C00900C52E0F54EA3E0F54F900C54E0F5501C
:0D4BAC00A3E0F5517B017A0C79E812506B03
:104BB900900CD8121A40000107ACE4FFFEFDFC90EE
:104BC9000CD8121A18D31219314017900CD8121A8E
:104BD9000C74FFFBFAF9F81217DE900CD8121A348C
:024BE90080D872
:104BEB00906637E493FF3395E0FE90027075F013F7
:104BFB00EF121A95EE75F013A42583F583121AB1F3
:104C0B00E92407F9E43AFA754BFF754C5B754DFCDB
:104C1B00754E01754F0C7550E812506B906637E46A
:104C2B0093FF3395E0FE90027075F013EF121A9517
:104C3B00EE75F013A42583F583121AB1E92407F955
:104C4B00E43AFA12000EEF2401F54CE43EF54B90DA
:104C5B006636E493FF7B737D01126E88E545704BDE
:104C6B00900C52E0FEA3E02400EE34F8C364809471
:104C7B00804010900C52E0FEA3E02400FFEE34F8CD
:104C8B00FE8015900C52E0FEA3E02400FFEE34F8FA
:104C9B00FEC3E49FFFE49EFED3EF9414EE64809476
:104CAB008050047F0180027F008F45E5457048C32B
:104CBB00900C52E094085015900C5EE07002A3E04B
:104CCB0070028014900C5E74FFF5F08017900C5EF0
:104CDB00E07003A3E0F47005754501800A900C5E4B
:104CEB00E475F001121703900C5EE0A3E0F5FB9066
:104CFB000C5EE0A3E0F5FCE546704B900C54E0FE37
:104D0B00A3E02400EE34F8C3648094804010900C30
:104D1B0054E0FEA3E02400FFEE34F8FE8015900C67
:104D2B0054E0FEA3E02400FFEE34F8FEC3E49FFF43
:104D3B00E49EFED3EF9414EE6480948050047F01C4
:104D4B0080027F008F46E5467048C3900C54E09478
:104D5B00085015900C60E07002A3E0700280149074
:104D6B000C6074FFF5F08017900C60E07003A3E00B
:104D7B00F47005754601800A900C60E475F0011221
:104D8B001703900C60E0A3E0F5FD900C60E0A3E04E
:104D9B00F5FEE5457003024AA9E5467003024AA9F0
:104DAB00900CDC121A40000107ACE4FFFEFDFC90F6
:104DBB000CDC121A18D31219314017900CDC121A92
:104DCB000C74FFFBFAF9F81217DE900CDC121A3494
:024DDB0080D87E
:104DDD00906637E493FF3395E0FE90027075F01303
:104DED00EF121A95EE75F013A42583F583121AB1FF
:104DFD00E92407F9E43AFA754BFF754C5B754DFCE8
:104E0D00754EFF754F5E75500912506B906637E405
:104E1D0093FF3395E0FE90027075F013EF121A9523
:104E2D00EE75F013A42583F583121AB1E92407F961
:104E3D00E43AFA12000EEF2401F54CE43EF54B90E6
:104E4D006636E493FF7B737D01126E8890028AE0D3
:104E5D0060FAE490028AF0900014E0FFA3E0900C59
:104E6D0052CFF0A3EFF0900016E0FFA3E0900C54AA
:054E7D00CFF0A3EFF0EF
:104E8200900CE0121A40000107ACE4FFFEFDFC901A
:104E92000CE0121A18D31219314017900CE0121AB2
:104EA2000C74FFFBFAF9F81217DE900CE0121A34B8
:024EB20080D8A6
:104EB400906637E493FF3395E0FE90027075F0132B
:104EC400EF121A95EE75F013A42583F583121AB127
:104ED400E92407F9E43AFA754BFF754C5E754D19F0
:104EE400900C5EE0F54EA3E0F54F900C60E0F550B9
:104EF400A3E0F55112506B906637E493FF3395E0CD
:104F0400FE90027075F013EF121A95EE75F013A46B
:104F14002583F583121AB1E92407F9E43AFA120059
:104F24000EEF2401F54CE43EF54B906636E493FF16
:104F34007B737D01126E88754BFF754C5E754D2A2F
:104F4400900C52E0F54EA3E0F54F900C54E0F55070
:0D4F5400A3E0F5517B017A0C79E812506B57
:104F6100900CE4121A40000107ACE4FFFEFDFC9036
:104F71000CE4121A18D31219314017900CE4121ACA
:104F81000C74FFFBFAF9F81217DE900CE4121A34D4
:024F910080D8C6
:104F9300906637E493FF3395E0FE90027075F0134B
:104FA300EF121A95EE75F013A42583F583121AB147
:104FB300E92407F9E43AFA754BFF754C5B754DFC30
:104FC300754E01754F0C7550E812506B906637E4BF
:104FD30093FF3395E0FE90027075F013EF121A956C
:104FE300EE75F013A42583F583121AB1E92407F9AA
:104FF300E43AFA12000EEF2401F54CE43EF54B902F
:0C5003006636E493FF7B737D01026E882B
:10589100858442E4F543F544F54790663793FF3339
:1058A10095E0FE90027075F013EF121A95EE75F007
:1058B10013A42583F583121AB1E92407F9E43AFA0E
:1058C100754BFF754C5B754DFC754EFF754F5E75E5
:1058D100503B12506B906637E493FF3395E0FE9096
:1058E100027075F013EF121A95EE75F013A425836B
:1058F100F583121AB1E92407F9E43AFA12000EEF1E
:105901002401F54CE43EF54B906636E493FF7B733E
:105911007D01126E88E4900293F0A3F0F545F546FF
:10592100D390091AE09546900919E095454023AEB8
:1059310045AF467C017D001216CD743E2546F582A9
:1059410074003545F583EDF00546E54670020545E1
:1059510080CE75840FE5E830E019C3900294E0949D
:1059610009900293E094004003025B43E4900293A8
:10597100F0A3F0900919E0FCA3E0FD7B017A007926
:105981003E854353854454E4FFFE127AE1900919A0
:10599100E0FEA3E0FF7B017A00793E85434D85441B
:1059A1004E127A46E4F545F546D390091AE095463C
:1059B100900919E09545402DAE45AF467C017D002B
:1059C1001216CD743E2546F58274003545F583E007
:1059D1006D7001EC6005754701800A0546E546706A
:1059E10002054580C4E5477003025A6F906637E4AB
:1059F10093FF3395E0FE90027075F013EF121A9544
:105A0100EE75F013A42583F583121AB1E92407F981
:105A1100E43AFA754BFF754C5E754D4A85434E85E8
:105A2100444F85455085465112506B906637E4933B
:105A3100FF3395E0FE90027075F013EF121A95EEA8
:105A410075F013A42583F583121AB1E92407F9E44B
:105A51003AFA12000EEF2401F54CE43EF54B906644
:0E5A610036E493FF7B737D01126E88025B4377
:105A6F00900CA0121A40000107ACE4FFFEFDFC9061
:105A7F000CA0121A18D31219314017900CA0121A39
:105A8F000C74FFFBFAF9F81217DE900CA0121A34FF
:025A9F0080D8AD
:105AA100906637E493FF3395E0FE90027075F01332
:105AB100EF121A95EE75F013A42583F583121AB12E
:105AC100E92407F9E43AFA754BFF754C5E754D7C94
:105AD10085434E85444F12506B906637E493FF33F4
:105AE10095E0FE90027075F013EF121A95EE75F0C5
:105AF10013A42583F583121AB1E92407F9E43AFACC
:105B010012000EEF2401F54CE43EF54B906636E4AD
:105B110093FF7B737D01126E88AF44AE4312808286
:105B2100D3900BF4E09544900BF3E095435008E4D7
:105B3100F543F5440259530544E544700205430217
:095B41005953E4900293F0A3F023
:105B4A00900CA4121A40000107ACE4FFFEFDFC9081
:105B5A000CA4121A18D31219314017900CA4121A55
:105B6A000C74FFFBFAF9F81217DE900CA4121A341F
:025B7A0080D8D1
:105B7C00906637E493FF3395E0FE90027075F01356
:105B8C00EF121A95EE75F013A42583F583121AB152
:105B9C00E92407F9E43AFA754BFF754C5B754DFC3B
:105BAC00754EFF754F5E75508D12506B906637E4D5
:105BBC0093FF3395E0FE90027075F013EF121A9577
:105BCC00EE75F013A42583F583121AB1E92407F9B5
:105BDC00E43AFA12000EEF2401F54CE43EF54B903A
:0F5BEC006636E493FF7B737D01126E88854284D9
:015BFB002287
:10FE00008E448F458E448F45E4F546F547A2AF33C7
:10FE1000F548C2AFE4F58443B701758F03C3E546E7
:10FE200094FC50168547828546837488F0E4254704
:10FE3000F54774043546F54680E3E4F58FF546F55D
:10FE400047F54BF54C75840FE54C5403700363B0D4
:10FE50004012FFBB8F4DE54D30E7F653F8FDE4F55A
:10FE60004EF54F054FE54F7002054E6440454E700C
:10FE7000F27FD212FFAAE54CAE4B7806CEC313CE6A
:10FE800013D8F9FF12FFAA12FFA2E4FF12FFAAE49F
:10FE9000FF12FFAAE4FF12FFAAE4FF12FFAAE4FF89
:10FEA00012FFAAE4F549F54AE4FF12FFAA743E25C1
:10FEB0004AF58274003549F583EFF0054AE54A704A
:10FEC000020549C3E549940240DE43F802E4F584A3
:10FED000758F01F549F54A743E254AF5827400355F
:10FEE00049F583E0FF0547E547AC46700205461437
:10FEF000F5828C83EFF0054AE54A70020549B400AB
:10FF0000D6E549B402D1E4F58F054CE54C70020505
:0AFF10004BC3947FE54B94005003AF
:10FF1A0002FE45E4F58F53B7FEE54824FF92AFE4AD
:10FF2A00F5D075840FF54BF54CC3E54B942050572B
:10FF3A00E54C543F700363B02012FFBB8F4DE54D73
:10FF4A0030E7F653F8FDE4F54EF54F054FE54F70EF
:10FF5A0002054E6440454E70F27F5012FFAAE54CEE
:10FF6A00AE4B7806CEC313CE13D8F9FF12FFAA12EE
:10FF7A00FFA2E4FF12FFAA43F8027408254CF54CCD
:10FF8A00E4354BF54B80A212FFBB8F4DE54D30E7B0
:08FF9A00F6E4F58443EF0122B7
:10FFA200AF4CEF25E025E0FFAE84E4F5848F9B3073
:09FFB200FFFDC2FFAF9B8E84220B
:10FFBB0053F8FDE4F550F5510551E551700205502C
:10FFCB006440455070F27FD712FFAAE4FF12FFAADC
:04FFDB0043F80222C3
:106E6E00906636E493FFAB32AA33A9349000011238
:0A6E7E0015D2FDE4F54BF54C7B0640
:046E88008F488B4A5A
:106E8C00754DFFE4F54EF54FED90663693F5507465
:106E9C00F52DF582E4340BF5837464F0906636E4DA
:106EAC0093B54819E54A64066013E54A6415600D0C
:106EBC0074EF2DF582E4340BF583E54AF0E550755B
:106ECC00F013A42470F582E43402F583121AB17421
:106EDC0016121632E55075F013A42470F582E434C2
:106EEC0002F583121AB1900001E548121644E550E0
:106EFC0075F013A42470F582E43402F583121AB1F0
:106F0C00900002ED1216447402254CF54CE4354BFE
:106F1C00F54BFFE55075F013A42470F582E43402B0
:106F2C00F583121AB1900003EF121644E55075F078
:106F3C0013A42470F582E43402F583121AB1900084
:106F4C0004E54C121644E55075F013A42470F58238
:106F5C00E43402F583121AB1900005E54A12164486
:106F6C00E4FEFFE55075F013A42470F582E43402BE
:106F7C00F583121AB18F828E831215D2624D0FBF18
:106F8C0000010EEF64064E70DAE55075F013A42480
:106F9C0070F582E43402F583121AB1900006E54DC7
:106FAC0012164474FE254CF54C74FF354BF54BE52D
:106FBC005075F013A42470F582E43402F583121A90
:106FCC00B1E92407F9E43AFAAD4CAC4B127E378E9A
:106FDC004E8F4FEEFFE55075F013A42470F582E44C
:106FEC003402F583121AB1054CE54C7002054B24A2
:106FFC0006F582E4354BF583EF121644E55075F037
:10700C0013A42470F582E43402F583121AB1054CF2
:10701C00E54C7002054B2406F582E4354BF583E50F
:10702C004F121644E55075F013A42463F97402351D
:10703C00F0FA7B01E54C2407FDE4354BFC127E9203
:09704C00E54C2407FFE4354BFE7E
:017055002218
:083C5F008F318B328A33893466
:103C6700E4900C9CF0A3F09000031215D2FE900094
:103C7700041215D27C002400FFEC3ECF24FECF3483
:103C8700FFFE900C9EF0FCA3EFF0FDE92407F9E49A
:103C97003AFA1280CD900C9CEEF0A3EFF04E603A0A
:103CA700AB32AA33A9349000051215D2FF64157000
:103CB7000302439DEF6406700302439D90000112C7
:103CC70015D224F5F582E4340BF5837464F0900083
:0A3CD700011215D2FF7D04024072B5
:103CE100AB32AA33A9349000021215D2FF90663686
:103CF100E4936F7003023D9BEFF47003023D9BEF71
:103D010093FF3395E0FE90027075F013EF121A9550
:103D1100EE75F013A42583F583121AB1E92407F98E
:103D2100E43A8B3AF53B893CE5342407F9E4353331
:103D3100853237F5388939E4F535F536D3900C9F5E
:103D4100E09536900C9EE0953540247837E475F087
:103D510001121AA11215B9FF783AE475F001121A8D
:103D6100A1EF1216320536E53670D1053580CDAB9F
:103D710032AA33A9349000011215D2FF9000021229
:103D810015D2FD9000051215D2FB900C9EE0F54B6B
:103D9100A3E0F54C126E8802439DAB32AA33A934DD
:103DA1009000051215D2121B4C3DE4063E1F103E39
:103DB100081540AD3040E231410A32413233415AB7
:103DC10034400641400642417F5041D1513F41704C
:103DD1003FA5713E4C9042BC914177933EDB9800E8
:103DE1000043699000011215D224EFF582E4340BEF
:103DF100F583AB32AA33A9349000011215D224EF16
:103E0100F582E4340B8010AB32AA33A9341215B910
:103E110024F0F582E4340BF583E4F0024356900B71
:103E2100F5E0FFC394054006EFD3941F4004EFB4BF
:103E3100E205127FE88003126E6E900C9CEEF0A3F7
:0B3E4100EFF0AB32AA33A93402435665
:103E4C00900BF5E0FFC394054006EFD3941F40049C
:103E5C00EFB4E205127FE88065AB32AA33A9349047
:103E6C0000071215D2FE9000081215D27C00240017
:103E7C00F53EEC3EF53DE53175F013A42470F5826A
:103E8C00E43402F583121AB1E92407F9E43AFA9002
:103E9C000919E0FEA3E0FF853D4D853E4E127A46A2
:103EAC00906636E493FFAB32AA33A934900001122A
:103EBC0015D2FD900919E0F54BA3E0126E84900C1D
:0F3ECC009CEEF0A3EFF0AB32AA33A934024356B9
:103EDB00900BF5E0FFC394054006EFD3941F40040D
:103EEB00EFB4E205127FE8803CAB32AA33A93490E1
:103EFB0000071215D2FE9000081215D27C00240088
:103F0B00F53EEC3EF53D900919E0FCA3E0FDE924FC
:103F1B0009F9E43AFA853D53853E547F027E00123F
:103F2B007AE1126E6E900C9CEEF0A3EFF0AB32AA1E
:063F3B0033A934024356D5
:103F4100900BF5E0FFC394054006EFD3941F4004A6
:103F5100EFB4E205127FE8803AE53175F013A4244D
:103F610070F582E43402F583121AB1E92407F9E409
:103F71003AFA127F43906636E493FFAB32AA33A933
:103F8100349000011215D2FD754B00754C807B06F3
:103F9100126E88900C9CEEF0A3EFF0AB32AA33A91D
:103FA10034024356900BF5E0FFC394054006EFD36E
:103FB100941F4004EFB4E205127FE880371282506B
:103FC100AB32E5342407F9E43533FA900C9EE0FE78
:103FD100A3E0FFC39480EE94005006AC06AD0780C9
:103FE100047C007D80127D647B017A0B79F9127F5C
:103FF10043126E6E900C9CEEF0A3EFF0AB32AA333D
:05400100A93402435642
:10400600900BF5E0FFF53DAB32AA33A934900005DD
:104016001215D2FE7C00B441047D0080027D058C21
:104026003E8D3FEE900BF4E024FFFD900BF3E03461
:10403600FFFC8C408D41AB32AA33A93490000112AB
:1040460015D224F5F582E4340BF583E4F0EFC3943E
:10405600054009900BF5E0D3941F4007900BF5E05F
:10406600B4E2179000011215D2FF7D20127FF7905F
:104076000C9CEEF0A3EFF002439D900BF574E2F07A
:10408600126E6E900C9CEEF0A3EFF0E4FFFE128031
:10409600827B01AD41AC40AF3FAE3E127CF4900B4B
:0740A600F5E53DF002439D2A
:1040AD00126E6E900C9CEEF0A3EFF0AB32AA33A91A
:1040BD00349000011215D224F5F582E4340BF5830A
:1040CD00E4F012007E8F3DE53D30E7F6E4F58443E4
:0540DD00EF0102439D0C
:1040E200126E6E900C9CEEF0A3EFF0AB32AA33A9E5
:1040F200349000011215D224F5F582E4340BF583D5
:10410200E4F01228AE02439D126E6E900C9CEEF00B
:10411200A3EFF0AB32AA33A9349000011215D224D6
:10412200F5F582E4340BF583E4F01243A602439DD5
:10413200126E6E900C9CEEF0A3EFF0AB32AA33A994
:10414200349000011215D224F5F582E4340BF58384
:10415200E4F0125EB502439DAB32AA33A93490005B
:10416200011215D224F5F582E4340BF583E4F01242
:10417200589102439D9002BF74FF024254900BF586
:10418200E064F07027754501754600754705AB324E
:10419200AA33A93412784E126E6E900C9CEEF0A3E4
:1041A200EFF00575E575701E0574801AAB32AA33FF
:1041B200A9349000011215D2FF7D08127FF7900CEE
:1041C2009CEEF0A3EFF0AB32AA33A934024356902F
:1041D2000BF5E0B4F114AB32AA33A9349000071204
:1041E20015D2FF900005E06F6072AB32AA33A9349A
:1041F2009000011215D2FF7D08127FF7900C9CEE01
:10420200F0A3EFF0AB32AA33A9349000011215D219
:0B42120024F5F582E4340BF583E4F0A2
:10421D00900C94121A400000AFC8E4FFFEFDFC9014
:10422D000C94121A18D31219314017900C94121ABB
:10423D000C74FFFBFAF9F81217DE900C94121A3475
:02424D0080D817
:10424F009002BF74F2F0900C7B7401F002439D1248
:10425F006E6E900C9CEEF0A3EFF0AB32AA33A93444
:10426F009000011215D224F5F582E4340BF583E4A6
:01427F00F04E
:10428000900C98121A400000AFC8E4FFFEFDFC90AD
:104290000C98121A18D31219314017900C98121A50
:1042A0000C74FFFBFAF9F81217DE900C98121A340E
:0242B00080D8B4
:1042B200AF75AE741281EA02439D900C7B7401F0DB
:1042C200AB32AA33A9349000071215D29002BFF084
:1042D2009000081215D2540F900BAFF09000091203
:1042E20015D2900C7AF0E4F535F536AB32AA33A943
:1042F20034E536240AFFE435358F82F5831215D270
:10430200FF745F2536F58274023535F583EFF005CB
:1043120036E536700205356404453570CEAB32AAF7
:1043220033A93490000E1215D2900292F090000F31
:1043320012175AFF90028BE5F0F0A3EFF090663669
:10434200E493FF126E7A900C9CEEF0A3EFF0AB3286
:10435200AA33A9349000011215D224F5F582E4346F
:104362000BF583E4F08034AB32AA33A93490000118
:104372001215D224F5F582E4340BF5837464F090BF
:1043820000011215D2FF7D02127FF7900C9CEEF015
:0B439200A3EFF074FF900C9CF0A3F070
:08439D00900C9CE0FEA3E0FF80
:0143A50022F5
:0A80CD008B428A4389448C458D469E
:1080D700127E378E478F48AB42AA43A94485468212
:1080E7008545831215D27F00FEE5462401FDE43560
:1080F700458D82F5831215D22FFFE43EFEE548B584
:0F8107000709E547B50604E4FEFF227EFF7FFF70
:018116002246
:0F7FE800AB32AA33A9349000011215D2FF7D20CD
:107FF700AE07EE90663693FB3395E0FA9002707504
:10800700F013EB121A95EA75F013A42583F5831282
:108017001AB1900007ED121644906636E493FFAD4F
:1080270006754B00754C017B15126E88E4FEFF2226
:06784E008B428A438944CD
:10785400E4F548F5499000031215D2FE9000041295
:1078640015D2FDEEF54AEDF54BE4F548F549E54B47
:1078740024FEFFE54A34FFFEC364809482500280F4
:10788400047E027F00C3E5499FEE6480F8E5486406
:1078940080985048AB45AA46A947C003C002C0011E
:1078A4001215B9FFAB42AA43A944E5492407FDE4F4
:1078B40035488D82F5831215D2FE743E2549F58232
:1078C40074003548F583EEF06FD001D002D0031276
:1078D40016320549E5497096054880927E00E575A3
:1078E4005401FF900919E0FCA3E0FD7B017A0079C3
:0A78F4003E857453857554027AE155
:0481EA008E428F43EF
:1081EE0090FE00E493FE740193FF900CA3EEF0A3B7
:1081FE00EFF0BE8012BFFE0F7B007AFE7902900C6C
:0E820E00A0121ABA021B9FAF75AE7412FE00CA
:01821C00223F
:107DD3008584317B017A0B79F9127F43E4F584754D
:107DE300D98075D84075DA4275DB42900C5EE0A30A
:107DF300E0F5FB900C5EE0A3E0F5FC900C60E0A3E3
:107E0300E0F5FD900C60E0A3E0F5FE900C79E0FD59
:107E13007C007E057F001216788E718F72E4F584E4
:107E230075E8C075D107F5BAF5BB75BC7043E702B9
:037E330085318412
:017E36002229
:03007B00027056BA
:10705600C0E0C0F0C083C082C0D075D000C000C000
:0B70660002C003C004C005C006C00744
:10707100758400C2EDE57325E02424F582E4340033
:10708100F583E5BF85BEF0121703E573121B4C7043
:10709100AC0070B40170BC0270C40370CC0470D435
:1070A1000570DC0670E407000070EA75BB017573BA
:1070B10001803675BB02757302802E75BB0875732E
:1070C10003802675BB03757304801E75BB0475733D
:1070D10005801675BB05757306800E75BB06757345
:1070E10007800675BB00757300E572157270021595
:0970F1007114457160030271D4B1
:1070FA00900C79E0FF74A08FF0841313543F75222B
:10710A0000F523E4FBFAEB64034A7020900C79E063
:10711A0075F00A84FF7E0090002AE0FCA3E0FD12CD
:10712A00166690001AEEF0A3EFF08037EB25E0FF29
:10713A00EA33FE74242FF58274003EF583E0FEA341
:10714A00E0FFAC22AD23121678AC06AD07EB25E0C2
:10715A00FFEA33FE74142FF58274003EF583ECF0D7
:10716A00A3EDF0EB25E0FFEA33FE74242FF58274D9
:10717A00003EF583E4F0A3F00BBB00010AEB6408C0
:10718A004A7083900004E07029900C58E0FEA3E056
:10719A00FF900C57E02FFF900C56E03EFE90001433
:1071AA00E0FCA3E0FDC3EF9DFFEE9C900014F0A36A
:1071BA00EFF0900C79E0FD7C007E057F00121678D6
:0A71CA008E718F7290028A7401F03A
:0C71D400E5737003D38001C34002D2ECCD
:1071E000D007D006D005D004D003D002D000D0D034
:0971F000D082D083D0F0D0E0324F
:037832000119FF3A
:107F9700AF8475840F75E1EF75E20775E3C475A4C7
:107FA700157580EA75ADFF75A53D759001E4F5A6D9
:107FB70075A0FF75A7F875B07F759CFFF5C8F59D8F
:107FC70075D8FFF59E75E8FF759FFF75F8FFFDFCF7
:107FD7000DBD00010CBC0BF8BDB8F575F8F78F8423
:017FE7002277
:10811700AF84E4F584F5D875D980F5F9F5FAF5E972
:1081270075EA0C75DC4675D840900C7DF0A3F0908D
:10813700024EF0A3F0F584C28C758905438E08F5CD
:108147008AF58CC28DD28C758401758880758930CB
:07815700D2A943E6308F843A
:01815E0022FE
:0D82ED00AF84E4F584C289D288D2A88F84C2
:0182FA002261
:03005B000271F936
:1071F900C0E0C0F0C083C082C0D075D000C000C05C
:0D72090001C002C003C004C005C006C007DC
:1072160053E6CF758400AF8CEFFEAD8A7C00E42D7B
:10722600F525EC3EF524900C7DE0FEA3E0FFC3E5DA
:10723600259FFFE5249EFED3EF9464EE9400500351
:10724600027352C28C758A00758C00C28DD28CE591
:0472560019F4704176
:10725A00F519F526AE24AF25E52625E02434F58276
:10726A00E43400F583EEF0A3EFF0E4FCFDE51D2F16
:10727A00FFE51C3EFEED351BFDEC351A8F1D8E1CFD
:0E728A008D1BF51A0526E526B404C990024EA8
:107298000273440519E519C394044003751900E500
:1072A8001925E02434F582E43400F583E0FEA3E0F8
:1072B800FBC3E51D9BFFE51C9EFEE51B9400FDE559
:1072C8001A94008F1D8E1C8D1BF51AAE24AF25E570
:1072D8001925E02434F582E43400F583EEF0A3EFB9
:1072E800F0E4FCFDE51D2FFFE51C3EFEED351BFD22
:1072F800EC351A8F1D8E1C8D1BF51AE47B04FAF9E8
:10730800F8AC1A1218848E248F25C390024FE0958A
:1073180025FF90024EE09524FEC394004006AC067B
:10732800AD078009C3E49FFFE49EFCAD0790024EC1
:10733800E0C313FFC3ED9FEC94004007E524F0A3DE
:10734800E525F0900C7DE4F0A3F07584015388CF17
:0373580043E630D9
:10735B00D007D006D005D004D003D002D001D00086
:0B736B00D0D0D082D083D0F0D0E03230
:0300530002815FC8
:10815F00C0E0C083C082C0D075D000C004C005C0CD
:10816F0006C00753E6CF758400AF8CEFFEAD8A7C57
:10817F0000E42DFFEC3E900C7DF0A3EFF075840131
:10818F005388CF43E630D007D006D005D004D0D0E7
:07819F00D082D083D0E03252
:03000B0002821D51
:10821D00C0E0C083C08253E6CF758400C28C758ADE
:10822D0000758C00D28C900C7DE4F0A3F090024E82
:10823D00F0A3F07584015388CF43E630D082D0830C
:03824D00D0E0324C
:03000300027BF984
:107BF900C0E0C0F0C083C082C0D075D000C000C052
:097C090003C004C005C006C00759
:107C1200A2AFE433FB900C807401F0900C79E0FD8C
:107C22007C007E057F001216788E718F727573004C
:107C32007F10900024E4F0A3DFFCC2AF53E7FE758F
:107C42008400C2ECC2ED75BB0075840175C8007476
:0E7C5200FFF5CDF5CC43E70143C8042B92AFFC
:107C6000D007D006D005D004D003D000D0D0D08229
:077C7000D083D0F0D0E03218
:10827E00000000010000000C00000077000004A9BF
:10828E0000002E9B0001D2090012345600B60B617D
:08829E00071C71C7471C71C7E2
:04783500410D4700BA
:1000A600900283121AB18B488A49894AE4F546F5CB
:1000B60047AB48AA49A94A0547E547AE4670020537
:1000C60046142406F582E43EF583740112164405AF
:1000D60047E547AE4670020546142406F582E43E1F
:1000E600F58374021216440547E547AE46700205CD
:1000F60046142406F582E43EF583E41216440547C9
:10010600E547AE4670020546142406F582E43EF540
:100116008374011216440547E547AE46700205464C
:10012600142406F582E43EF583E41216440547E5F9
:1001360047AE4670020546142406F582E43EF58372
:10014600E41216440547E547AE46700205461424F8
:1001560006F582E43EF58374011216440547E54729
:10016600AE4670020546142406F582E43EF5837415
:10017600011216440547E547AE46700205461424AB
:1001860006F582E43EF583E41216440547E547AEDC
:100196004670020546142406F582E43EF583E41211
:1001A60016440547E547AE4670020546142406F593
:1001B60082E43EF583E41216440547E547AE4670F1
:1001C600020546142406F582E43EF583E41216443D
:1001D6000547E547AE4670020546142406F582E457
:1001E6003EF58374011216440547E547AE46700294
:1001F6000546142406F582E43EF583740612164479
:100206000547E547AE4670020546142406F582E426
:100216003EF583E41216440547E547AE46700205EF
:1002260046142406F582E43EF5837401121644054D
:1002360047E547AE4670020546142406F582E43EBD
:10024600F583E41216440547E547AE4670020546B7
:10025600142406F582E43EF583E41216440547E5C8
:1002660047AE4670020546142406F582E43EF58341
:1002760074011216440547E547AE4670020546145A
:100286002406F582E43EF58374121216440547E50A
:1002960047AE4670020546142406F582E43EF58311
:1002A600E41216440547E547AE4670020546142497
:1002B60006F582E43EF58374011216440547E547C8
:1002C600AE4670020546142406F582E43EF583E444
:1002D6001216440547E547AE467002054614240645
:1002E600F582E43EF583E41216440547E547AE463B
:1002F60070020546142406F582E43EF58374011265
:1003060016440547E547AE4670020546142406F531
:1003160082E43EF58374031216440547E547AE466C
:1003260070020546142406F582E43EF583E41216AF
:10033600440547E547AE4670020546142406F58295
:10034600E43EF583E41216440547E547AE467002DF
:100356000546142406F582E43EF583E412164405A8
:1003660047E547AE4670020546142406F582E43E8C
:10037600F583E41216440547E547AE467002054686
:10038600142406F582E43EF58374011216440547EB
:10039600E547AE4670020546142406F582E43EF5AE
:1003A6008374301216440547E547AE46700205468B
:1003B600142406F582E43EF583E41216440547E567
:1003C60047AE4670020546142406F582E43EF583E0
:1003D600E41216440547E547AE4670020546142466
:1003E60006F582E43EF583E41216440547E547AE7A
:1003F6004670020546142406F582E43EF583E412AF
:1004060016440547E547AE4670020546142406F530
:1004160082E43EF58374011216440547E547AE466D
:1004260070020546142406F582E43EF58374041230
:1004360016440547E547AE4670020546142406F500
:1004460082E43EF583E41216440547E547AE46705E
:10045600020546142406F582E43EF583E4121644AA
:100466000547E547AE4670020546142406F582E4C4
:100476003EF583E41216440547E547AE467002058D
:1004860046142406F582E43EF583E4121644054735
:10049600E547AE4670020546142406F582E43EF5AD
:1004A6008374011216440547E547AE4670020546B9
:1004B600142406F582E43EF583742012164405479B
:1004C600E547AE4670020546142406F582E43EF57D
:1004D60083E41216440547E547AE46700205461406
:1004E6002406F582E43EF583E41216440547E54703
:1004F600AE4670020546142406F582E43EF583E412
:100506001216440547E547AE46700205461276CDFB
:10051600900278E07002A3E070F6900282E0FF900D
:100526000281E06F60F4900286121AB1900282E0B6
:10053600FF75F0DCA4F58285F08312175AF547851E
:10054600F046EFB402047F008006900282E004FFCA
:10055600900282EFF0E54764017004E546640560A9
:0D0566000C900282E0FF900281E0B507B921
:10057300900C94121A400000AFC8E4FFFEFDFC90FB
:100583000C94121A18D31219314017900C94121AA2
:100593000C74FFFBFAF9F81217DE900C94121A345C
:0205A30080D8FE
:1005A500E54764017004E546640560030200B2E4B2
:1005B500F546F547AB48AA49A94A0547E547AE467A
:1005C50070020546142406F582E43EF58374011293
:1005D50016440547E547AE4670020546142406F560
:1005E50082E43EF58374111216440547E547AE468D
:1005F50070020546142406F582E43EF583E41216DE
:10060500440547E547AE4670020546142406F582C3
:10061500E43EF583E41216440547E547AE4670020D
:100625000546142406F582E43EF583E412164405D6
:1006350047E547AE4670020546142406F582E43EBA
:10064500F583E41216440547E547AE4670020546B4
:10065500142406F582E43EF5837401121644054719
:10066500E547AE4670020546142406F582E43EF5DC
:100675008374211216440547E547AE4670020546C8
:10068500142406F582E43EF583E41216440547E595
:1006950047AE4670020546142406F582E43EF5830E
:1006A500E41216440547E547AE4670020546142494
:1006B50006F582E43EF583E41216440547E547AEA8
:1006C5004670020546142406F582E43EF583E412DD
:1006D50016440547E547AE4670020546142406F55F
:1006E50082E43EF58374011216440547E547AE469C
:1006F50070020546142406F582E43EF58374221241
:1007050016440547E547AE4670020546142406F52E
:1007150082E43EF583E41216440547E547AE46708C
:10072500020546142406F582E43EF583E4121644D8
:100735000547E547AE4670020546142406F582E4F2
:100745003EF583E41216440547E547AE46700205BB
:1007550046142406F582E43EF583E4121644054763
:10076500E547AE4670020546142406F582E43EF5DB
:1007750083740A1216440547E547AE4670020546DE
:10078500142406F582E43EF58374071216440547E2
:10079500E547AE4670020546142406F582E43EF5AB
:1007A50083E41216440547E547AE46700205461434
:1007B5002406F582E43EF583E41216440547E54731
:1007C500AE4670020546142406F582E43EF583E440
:1007D5001216440547E547AE467002054614240641
:1007E500F582E43EF583E41216440547E547AE4637
:1007F50070020546142406F582E43EF583740A1258
:1008050016440547E547AE4670020546142406F52D
:1008150082E43EF58374081216440547E547AE4663
:1008250070020546142406F582E43EF583E41216AB
:10083500440547E547AE4670020546142406F58291
:10084500E43EF583E41216440547E547AE467002DB
:100855000546142406F582E43EF583E412164405A4
:1008650047E547AE4670020546142406F582E43E88
:10087500F583E41216440547E547AE467002054682
:10088500142406F582E43EF583740A1216440547DE
:10089500E547AE4670020546142406F582E43EF5AA
:1008A5008374021216440547E547AE4670020546B5
:1008B500142406F582E43EF583E41216440547E563
:1008C50047AE4670020546142406F582E43EF583DC
:1008D500E41216440547E547AE4670020546142462
:1008E50006F582E43EF583E41216440547E547AE76
:1008F5004670020546142406F582E43EF583E412AB
:1009050016440547E547AE4670020546142406F52C
:1009150082E43EF583740A1216440547E547AE4660
:1009250070020546142406F582E43EF58374091227
:1009350016440547E547AE4670020546142406F5FC
:1009450082E43EF583E41216440547E547AE46705A
:10095500020546142406F582E43EF583E4121644A6
:100965000547E547AE4670020546142406F582E4C0
:100975003EF583E41216440547E547AE4670020589
:1009850046142406F582E43EF583E4121644054731
:10099500E547AE4670020546142406F582E43EF5A9
:1009A50083740A1216440547E547AE4670020546AC
:1009B500142406F582E43EF58374011216440547B6
:1009C500E547AE4670020546142406F582E43EF579
:1009D50083E41216440547E547AE46700205461402
:1009E5002406F582E43EF583E41216440547E547FF
:1009F500AE4670020546142406F582E43EF583E40E
:100A05001216440547E547AE46700205461424060E
:100A1500F582E43EF583E41216440547E547AE4604
:100A250070020546142406F582E43EF583740A1225
:100A350016440547E547AE4670020546142406F5FB
:100A450082E43EF58374031216440547E547AE4636
:100A550070020546142406F582E43EF583E4121679
:100A6500440547E547AE4670020546142406F5825F
:100A7500E43EF583E41216440547E547AE467002A9
:100A85000546142406F582E43EF583E41216440572
:100A950047E547AE46700205461276CD900278E0EE
:100AA5007002A3E070F6900282E0FF900281E06F91
:100AB50060F4900286121AB1900282E0FF75F0DCB4
:100AC500A4F58285F08312175AF54785F046EFB4F1
:100AD50002047F008006900282E004FF900282EF0C
:100AE500F0E54764017004E5466405600C900282F8
:090AF500E0FF900281E0B507B9B1
:100AFE00900C98121A400000AFC8E4FFFEFDFC9067
:100B0E000C98121A18D31219314017900C98121A09
:100B1E000C74FFFBFAF9F81217DE900C98121A34C7
:020B2E0080D86D
:100B3000E54764017004E546640560030205B4E41A
:100B4000F546F547AB48AA49A94A0547E547AE46E9
:100B500070020546142406F582E43EF58374FA1209
:100B600016440547E547AE4670020546142406F5CF
:100B700082E43EF583E41216440547E547AE46702D
:100B8000020546142406F582E43EF583740112162C
:100B9000440547E547AE4670020546142406F58233
:100BA000E43EF583E41216440547E547AE4670027D
:100BB0000546142406F582E43EF5837401121644BA
:100BC0000547E547AE4670020546142406F582E463
:100BD0003EF583E41216447F081276DC900278E03A
:100BE0007002A3E070F6900282E0FF900281E06F55
:100BF00060F4900286121AB1900282E0FF75F0DC78
:100C0000A4F58285F08312175AF54785F046EFB4B4
:100C100002047F008006900282E004FF900282EFCF
:100C2000F0E54764017004E5466405600C900282BB
:090C3000E0FF900281E0B507B974
:100C3900900C9C121A400000AFC8E4FFFEFDFC9026
:100C49000C9C121A18D31219314017900C9C121AC5
:100C59000C74FFFBFAF9F81217DE900C9C121A3487
:020C690080D831
:0F0C6B00E54764017004E54664056003020B3F32
:100C7A00900C79E0FBE4FAF9F87F807E967D98FC87
:100C8A001281A68F4E8E4D8D4C8C4B7808121958B6
:100C9A00E4FFE4FDFCC004C005C006C007AF4EAEC9
:100CAA004DAD4CAC4B7818121958E4FEFDFCD0033C
:100CBA00D002D001D000121916C004C005C006C067
:100CCA0007AF4EAE4DAD4CAC4B780812196BE4FF32
:100CDA00FEE4FCD003D002D001D000121916C004E1
:100CEA00C005C006C007AF4EAE4DAD4CAC4B781830
:100CFA0012196BE4FFFEFDECD003D002D001D00044
:100D0A00121916AB48AA49A94A9000061219E8E432
:100D1A00754E0AF54DF54CF54BAF4EAE4DAD4CAC9C
:100D2A004B7808121958E4FFE4FDFCC004C005C062
:100D3A0006C007AF4EAE4DAD4CAC4B7818121958E1
:100D4A00E4FEFDFCD003D002D001D000121916C077
:100D5A0004C005C006C007AF4EAE4DAD4CAC4B78D3
:100D6A000812196BE4FFFEE4FCD003D002D001D0D4
:100D7A0000121916C004C005C006C007AF4EAE4D1A
:100D8A00AD4CAC4B781812196BE4FFFEFDECD003A6
:100D9A00D002D001D000121916AB48AA49A94A902C
:100DAA00000A1219E87546007547080547E547AE77
:100DBA004670020546142406F582E43EF583740162
:100DCA001216440547E547AE467002054614240646
:100DDA00F582E43EF58374011216440547E547AEF1
:100DEA004670020546142406F582E43EF583E412B1
:100DFA0016440547E547AE4670020546142406F533
:100E0A0082E43EF583E41216440547E547AE467090
:100E1A00020546142406F582E43EF583743212165E
:100E2A00440547E547AE4670020546142406F58296
:100E3A00E43EF583E41216440547E547AE467002E0
:100E4A000546142406F582E43EF5837434121644EA
:100E5A000547E547AE4670020546142406F582E4C6
:100E6A003EF58374031216440547E547AE46700201
:100E7A000546142406F582E43EF583E41216440579
:100E8A0047E547AE4670020546142406F582E43E5D
:100E9A00F583E41216440547E547AE467002054657
:100EAA00142406F582E43EF583E41216440547E568
:100EBA0047AE4670020546142406F582E43EF583E1
:100ECA00E4121644AD47AC467F077E061276E290DE
:100EDA000278E07002A3E070F6900282E0FF9002CE
:100EEA0081E06F60F4900286121AB1900282E0FFEC
:100EFA0075F0DCA4F58285F08312175AF54785F060
:100F0A0046EFB402047F008006900282E004FF905C
:100F1A000282EFF0E54764017004E5466405600C5F
:0C0F2A00900282E0FF900281E0B507B960
:0F0F3600E54764017004E54664056003020C7A28
:010F45002289
:1076CD00142406F582E43EF583E41216447F01ADE1
:0576DD0047AC467E06EB
:0876E2008E4F8F508C518D5228
:1076EA00900283121AB174B5121632900283121ADA
:1076FA00B19000017462121644E54F90000212160E
:10770A0044E550900003121644E552900004121604
:10771A0044E551900005121644E4F554F5537F02EE
:10772A00FEE5522406FDE43551FCC3EF9DEE9C5064
:10773A001C900283121AB18F828E831215D225539E
:10774A00F5532554F5540FBF00010E80D4900283DF
:10775A00121AB1E5522406FFE435518F82F583E50A
:10776A0053121644E5522407FFE435518F82F583FC
:10777A00E5541216447B017A027976E5522408FD13
:07778A00E43551FC027E9280
:063428008B318A3289336A
:10342E00900D47E0700804F01200A6023AA2AB31EC
:10343E00AA32A93312172F121B7234580102374BBE
:0A344E000106382C011200003A9C20
:1034580074062533F533E43532F53275370075389F
:103468000075393FE4F53AF53B7831E475F001121F
:103478001AA11215B9FF783774FFF5F0121AA1EFE7
:10348800121632053BE53B7002053A6404453A7072
:10349800D8AC3CEC3350047F0180027F008F40AFF2
:1034A8003FAE3EAD3DAC3CEC334002800BAF3FAE8F
:1034B8003EAD3DAC3C1219238F3F8E3E8D3D8C3C7A
:1034C800AB34AA35A93690000A121A710000000020
:1034D800E4F53AF53BAB34E536240AF9E43535FA38
:1034E800C003C002C00112197EC004C005C006C0D6
:1034F80007E47B0AFAF9F8AF3FAE3EAD3DAC3C12AB
:1035080081A6AC00AD01AE02AF03C004C005C00681
:10351800C007E53BAE3A7802C333CE33CED8F924A0
:103528007EF58274823EF583121A24D007D006D025
:1035380005D0041217F9A804A905AA06AB07D007F5
:10354800D006D005D0041217DED001D002D0031265
:1035580019CEAF3FAE3EAD3DAC3CE47B0AFAF9F87C
:103568001281A68F3F8E3E8D3D8C3C053BE53B701E
:1035780002053A640A453A60030234DDE540601505
:10358800AB34AA35A93690000A12199E1219239055
:10359800000A1219E875370075380075393FE4F5E7
:1035A8003AF53B7831E475F001121AA11215B9FF0A
:1035B800783774FFF5F0121AA1EF121632053BE5C1
:1035C8003B7002053A6404453A70D8AC3CEC335081
:1035D800047F0180027F008F40AF3FAE3EAD3DAC1F
:1035E8003CEC334002800BAF3FAE3EAD3DAC3C12ED
:1035F80019238F3F8E3E8D3D8C3CAB34AA35A936BE
:10360800900006121A7100000000E4F53AF53BAB91
:1036180034E5362406F9E43535FAC003C002C001A2
:1036280012197EC004C005C006C007E47B0AFAF977
:10363800F8AF3FAE3EAD3DAC3C1281A6AC00AD014B
:10364800AE02AF03C004C005C006C007E53BAE3AF2
:103658007802C333CE33CED8F9247EF58274823E05
:10366800F583121A24D007D006D005D0041217F912
:10367800A804A905AA06AB07D007D006D005D00430
:103688001217DED001D002D0031219CEAF3FAE3EE2
:10369800AD3DAC3CE47B0AFAF9F81281A68F3F8E67
:1036A8003E8D3D8C3C053BE53B7002053A640A457E
:1036B8003A6003023617E5406015AB34AA35A936DF
:1036C80090000612199E1219239000061219E87428
:1036D800042533F533E43532F53275370075380093
:1036E80075393FE4F53AF53B7831E475F001121A83
:1036F800A11215B9FF783774FFF5F0121AA1EF126D
:103708001632053BE53B7002053A6404453A70D829
:10371800AF3FAE3EAD3DAC3CE47BE87A03F9F8122E
:1037280081A68F3F8E3E8D3D8C3CAB34AA35A936A1
:1037380090000EEE8FF01217B19002C0E04404F032
:10374800023AA2AB31AA32A93390002F1215D2FE49
:1037580090002E1215D27C002400FFEC3E900290BF
:10376800F0A3EFF09000311215D2900C7FF07402A4
:103778002533F533E43532F532FAA93390000B12CC
:1037880015D2540D640D6008E4900C7FF0023822C5
:10379800E5362403F9E43535853437F5388939E4D5
:1037A800F53AF53B7831E475F001121AA11215B912
:1037B800FF783774FFF5F0121AA1EF121632053BA5
:1037C800E53B7002053A6404453A70D87404253321
:1037D800F533E43532F532E5362404F9E43535FAC3
:1037E800E92401F9E43A853437F5388939E4F53ABA
:1037F800F53B7831E475F001121AA11215B9FF787A
:103808003774FFF5F0121AA1EF121632053BE53BAB
:103818007002053A6402453A70D89002C0E044024A
:04382800F0023AA2CE
:10382C0074062533F533E43532F532AB31FAA9336E
:10383C0012197E8F3F8E3E8D3D8C3C7808121958A4
:10384C00E4FFE4FDFCC004C005C006C007AF3FAEFA
:10385C003EAD3DAC3C7818121958E4FEFDFCD0038B
:10386C00D002D001D000121916C004C005C006C089
:10387C0007AF3FAE3EAD3DAC3C780812196BE4FF90
:10388C00FEE4FCD003D002D001D000121916C00403
:10389C00C005C006C007AF3FAE3EAD3DAC3C78188E
:1038AC0012196BE4FFFEFDECD003D002D001D00066
:1038BC001219168F3F8E3E8D3D8C3CE47B64FAF9D9
:1038CC00F81281A68F3F8E3E8D3D8C3C8E428F43ED
:1038DC0074042533F533E43532F532AB31FAA933C0
:1038EC0012197E8F3F8E3E8D3D8C3C7808121958F4
:1038FC00E4FFE4FDFCC004C005C006C007AF3FAE4A
:10390C003EAD3DAC3C7818121958E4FEFDFCD003DA
:10391C00D002D001D000121916C004C005C006C0D8
:10392C0007AF3FAE3EAD3DAC3C780812196BE4FFDF
:10393C00FEE4FCD003D002D001D000121916C00452
:10394C00C005C006C007AF3FAE3EAD3DAC3C7818DD
:10395C0012196BE4FFFEFDECD003D002D001D000B5
:10396C001219168F3F8E3E8D3D8C3CE47B64FAF928
:10397C00F81281A68F3F8E3E8D3D8C3C8E408F4140
:10398C0074042533F533E43532F532AB31FAA9330F
:10399C0012197E8F3F8E3E8D3D8C3C780812195843
:1039AC00E4FFE4FDFCC004C005C006C007AF3FAE99
:1039BC003EAD3DAC3C7818121958E4FEFDFCD0032A
:1039CC00D002D001D000121916C004C005C006C028
:1039DC0007AF3FAE3EAD3DAC3C780812196BE4FF2F
:1039EC00FEE4FCD003D002D001D000121916C004A2
:1039FC00C005C006C007AF3FAE3EAD3DAC3C78182D
:103A0C0012196BE4FFFEFDECD003D002D001D00004
:103A1C001219168F3F8E3E8D3D8C3CE47B64FAF977
:103A2C00F81281A68F3F8E3E8D3D8C3CC3E49FF5F2
:103A3C0045E49EF544E5405407FEE47803CEC313F9
:103A4C00CE13D8F9AB34AA35A9369000101216440F
:103A5C00E5425407FEE47806CEC313CE13D8F99092
:103A6C0000101215FFE54454039000101215FFE5E9
:103A7C0041900011121644E543900012121644E5D1
:0E3A8C00459000131216449002C0E04401F071
:103A9A008006753A00753B019002C0E06407600336
:103AAA00023C5EF0900C7FE06003023BD99000007C
:103ABA00E075F015A42495F9740235F0FA7B01A893
:103ACA0036AC35AD347E007F15121593AB34AA356A
:103ADA00A93612197EEF24FAFFE43EFEE43DFDE426
:103AEA003CFC1219CE900000E0640175F015A42484
:103AFA0095F582E43402F583121A0CE4FBFAF9F81C
:103B0A00C31219477003023BD9AB34E5362406F9D0
:103B1A00E43535FAC003C002C00112197EC004C0E0
:103B2A0005C006C007900000E0FF640175F015A407
:103B3A00249BF582E43402F583121A18EF75F01506
:103B4A00A4249BF582E43402F583121A0C1217EBB3
:103B5A00A804A905AA06AB07D007D006D005D00449
:103B6A001217DED001D002D0031219CEAB34E536DB
:103B7A00240AF9E43535FAC003C002C00112197EDD
:103B8A00C004C005C006C007900000E0FF640175CC
:103B9A00F015A4249FF582E43402F583121A18EF73
:103BAA0075F015A4249FF582E43402F583121A0CE9
:103BBA001217EBA804A905AA06AB07D007D006D0AE
:103BCA0005D0041217DED001D002D0031219CE900C
:103BDA000000E06401F0E075F015A42495F9740280
:103BEA0035F0A801FC7D01AB34AA35A9367E007FE9
:103BFA0015121593906639E493FF3395E0FE90020F
:103C0A007075F013EF121A95EE75F013A42583F56B
:103C1A0083121AB1E92407F9E43A8B37F53889395E
:103C2A00900C7FE0FF7837E475F001121AA1EF12C9
:103C3A001632A839AC38AD37AB34AA35A9367E006E
:103C4A007F15121593754B00754C167B227D037FE9
:043C5A0002126E885C
:013C5E002243
:02FDFE0080FE85
:1078390002080001010C00020D0000420D44000085
:04784900410D4600A7
:067E92008B558A5689574A
:107E9800858458AB55AA56A95790000212175A451F
:107EA800F070F0AB55AA56A95790000D121AC3C02E
:107EB80003C002C001AB55AA56A957900007121A71
:107EC800F3AB55AA56A957900002EC8DF01217B1E2
:107ED8001215B97006F584D2998005758401D29976
:037EE80085588436
:017EEB002274
:1082CD00AE84E4F5848F9B30FFFDC2FFAF9B8E849F
:0182DD00227E
:107EEC00AF8475840F759601758C67E4FDFC0DBD30
:107EFC0000010CE4B505F7ECB401F3E58C30E7FBBD
:107F0C00759701E4F58A758905F58475B720758434
:107F1C000F758D01758F01758E03FCFD0DBD000174
:107F2C000CE4B505F7ECB401F3438902E58930E4C0
:067F3C00FB7597028F8423
:017F4200221C
:0E6A71008B318A3289338F378E368D358C34D7
:106A7F008584381215B914606F046003026C71E4D9
:106A8F00F58475911590000A1215D224BB60182455
:106A9F00F6601424EA601024F760071460092421BB
:106AAF00700875985080037598D0E4F58475C80404
:106ABF0075C908AB37AA36A935A834FFFE7D657CAA
:106ACF0004121884E47B10FAF9F8121884121923AF
:106ADF008ECB8FCA74FFF5CDF5CCD2CAE4F584C244
:106AEF0099C298D2AC026C71758401AB31AA32A9EC
:106AFF003390000A1215D224BB601824F6601424B8
:106B0F00EA601024F7600714600924217008759853
:106B1F00108003759890E4F58453890F438920AB57
:106B2F0037AA36A935A834FFFE7D657C0412188478
:106B3F00E47B02FAF9F8121884E4FB7A01F9F812EF
:106B4F001884E47B01FAF9F8D31219474026AB37C2
:106B5F00AA36A935A834E4FFFE7D657C041218849B
:106B6F00E47B02FAF9F81218841219238F8D438EE1
:106B7F0010026C62AB37AA36A935A834E4FFFE7D4C
:106B8F00657C04121884E47B02FAF9F8121884E485
:106B9F00FB7A01F9F8121884E47B04FAF9F8D3129E
:106BAF0019474031AB37AA36A935A834E4FFFE7D2B
:106BBF00657C04121884E47B02FAF9F8121884E455
:106BCF007B04FAF9F81218841219238F8D538EEC67
:106BDF00438E01807EAB37AA36A935A834E4FFFE79
:106BEF007D657C04121884E47B02FAF9F81218848C
:106BFF00E4FB7A01F9F8121884E47B0CFAF9F8D364
:106C0F00121947AB37AA36A935A834E4FFFE7D65C4
:106C1F007C04401F121884E47B02FAF9F8121884DE
:106C2F00E47B0CFAF9F81218841219238F8D538E06
:106C3F00EC8020121884E47B02FAF9F8121884E42D
:106C4F007B30FAF9F81218841219238F8D538EECBA
:106C5F00438E02858D8BD28E758401C299C2984363
:056C6F00E740853884B8
:016C740022FD
:10005E00AF84E4F584759D04759A70C2FFD2F88F53
:01006E00840D
:01006F00226E
:10002600AD84758401E4F5C8F5C9EF2408FFE43E04
:10003600FEC3E49FFFE49EF5CB8FCA74FFF5CDF5B2
:09004600CC43E70143C8048D849A
:01004F00228E
:03002300026C75F7
:106C7500C0E0C0F0C083C082C0D075D000C000C0E5
:0D6C850001C002C003C004C005C006C00766
:106C9200E59820E003026E0E8599275398FEE508D9
:106CA2006003026DDAE50924FE6063147003026D6D
:106CB20041147003026DA624036003026DDA750DA0
:106CC20000750E00E52764166003026DDA90026E0D
:106CD200E0FF7E007C027D1D121666900273121A7E
:106CE200B1E92FF9EA3E8B0FF5108911FA050EE58D
:106CF2000EAE0D7002050D14F5828E83E527121675
:106D020044E527620C750800750902026DDAAB0FC3
:106D1200AA10A911050EE50EAE0D7002050D14F5AF
:106D2200828E83E527121644E527620CE50E64067F
:106D3200450D6003026DDAF508750903026DDAABE1
:106D42000FAA10A911050EE50EAE0D7002050D1465
:106D5200F5828E83E527121644630CFFE50C652746
:106D62007031AB0FAA10A9119000031215D2750A47
:106D720000F50B750B00F50A9000041215D2250BD5
:106D8200F50BE4350AF50A450B60477508007509ED
:106D9200048045750D00750E0075080075090175B2
:106DA2000C00803443B010AB0FAA10A911050EE5F8
:106DB2000EAE0D7002050D14F5828E83E5271216B4
:106DC20044E50B2407FFE4350AFEEFB50E0AEEB5E3
:106DD2000D06750800750905E50964054508702C5E
:106DE20053B0EFF508750901F50DF50EF50C90029B
:106DF20067121AB1E94A4B7013AB0FAA10A911908E
:106E02000267121ABA90026EE06401F0E59830E16E
:106E120040900265E07002A3E0602443B01090024B
:106E22006A121AB11215B9F59990026BE475F00164
:106E320012170390026574FFF5F0121703800F53C7
:106E4200B0EF7B007A00790090026A121ABA539866
:016E5200FD42
:106E5300D007D006D005D004D003D002D001D00093
:0B6E6300D0D0D082D083D0F0D0E0323D
:0300A30002683AB6
:10683A00C0E0C0F0C083C082C0D075D000C000C024
:09684A0001C002C003C006C00732
:10685300E59820E0030269E5859928900D46E0124A
:106863001B4C68840068950168A80268F8036925D1
:1068730004693E0569650669A60769B708000069EA
:10688300E2E52864B560030269E2900D4604F00274
:1068930069E2E528900D46B462067402F00269E2EB
:1068A300E4F00269E2751800751700900D44E4F0F6
:1068B300A3F0900281E075F0DCA4FF900286121A27
:1068C300B1E92FF9EA35F08B12F5138914FA900D1B
:1068D30044E475F00112171985F082F583E5281257
:1068E3001644E5282517F5172518F518900D467455
:1068F30003F00269E2AB12AA13A914900D44E475E4
:10690300F00112171985F082F583E528121644E584
:10691300282517F5172518F518900D467404F0026D
:1069230069E2751500852816E5282517F51725183A
:10693300F518900D467405F00269E2E528FEE4259A
:1069430016F516EE3515F515E5282517F51725184F
:10695300F518E5164515900D46700280417406F052
:10696300807DAB12AA13A914900D44E475F00112B3
:10697300171985F082F583E528121644E5282517B3
:10698300F5172518F518E5162402FFE43515FE90D2
:106993000D44E06E7003A3E06F7044900D467407DE
:1069A300F0803CE517900D46B528057408F0802F5C
:0469B300E4F0802B61
:1069B700900281E0FFB402067E007F008003EF04AF
:1069C700FF8F29E518B5280E900282E06529600639
:0B69D700900281E529F0900D46E4F0ED
:1069E2005398FEE59830E170900278E07002A3E0DF
:1069F2006057900280E024BB601A24E0601624F6FF
:106A020060042420702290027D121AB11215B9304E
:106A1200E00E801190027D121AB11215B930E00514
:106A220043980480035398FB90027D121AB1121509
:106A3200B9F59990027EE475F0011217039002787D
:106A420074FFF5F0121703800C7B007A0079009036
:086A5200027D121ABA5398FDEF
:106A5A00D007D006D003D002D001D000D0D0D08247
:076A6A00D083D0F0D0E03230
:030073000278FE12
:1078FE00C0E0C0F0C083C082C0D075D000C000C050
:03790E0006C007A9
:1079110075840153C87F90025DE475F0011217036D
:1079210090028DE0FEA3E0FF90025DE0B50619A391
:10793100E0B5071490028DE475F0A01217039000D2
:107941003CE475F001121703E4FFFE74F62FF58293
:10795100E4340BF583E0600D74F62FF582E4340B0B
:10796100F583E014F00FBF00010EEF64034E70DBEE
:1079710075840FE5E820E016C3900294E094FF902F
:107981000293E094FF5007E475F001121703758428
:087991000075BB00C2EDD2EC51
:10799900D007D006D000D0D0D082D083D0F0D0E0AC
:0179A90032AB
:100F460002130CE86480F8E933E83360110460F0BA
:100F5600ED33EC337009E8FCE9FDEAFEEBFF220411
:100F660060DED3EB9FEA9EE99DE8C2E78CF0C2F70C
:100F760095F0400CE8CCF8E9CDF9EACEFAEBCFFBD8
:100F86001212D785D0F05804700320D5B3E8047048
:100F9600075002B2D502131692D5EC0460F7E4CCE2
:100FA600C0E0C398F8603B94186008400DD0E0FBA1
:100FB6000212EEE4FBFAC9FC8028E830E406E4C934
:100FC600FBE4CAFCE830E305E4C9CACBFCE85407F5
:100FD6006010F8C3E913F9EA13FAEB13FBEC13FC00
:100FE600D8F130F52FC3E49CFCEF9BFFEE9AFEEDA3
:100FF60099FDD0E0FBEF4E4D4C701222DB0302133D
:1010060013EC2CFCEF33FFEE33FEED33FDED30E752
:10101600EB0212EEEF2BFFEE3AFEED39FDD0E0FBD0
:1010260050130BBB0003021316ED13FDEE13FEEF78
:0810360013FFEC13FC0212EEA3
:10103E00EC4D6011E8497017ED33EC3304600DE4AC
:10104E00FCFFFEFD22E933E8330470F802130C12A4
:10105E0012D758046009E4CC2481500628500902A6
:10106E001316284003021313C0E0EB4A7044B980F4
:10107E0006D0E0FB021302EF4E701CBD8008EBFFA2
:10108E00EAFEE9FD80EBE98DF0A4FEE5F002112702
:10109E00E9CDF9EAFEEBFFEF89F0A4FCE5F0CE898D
:1010AE00F0A42EFFE435F0CD89F0A42DFEE435F04A
:1010BE008067EF4E7005BD80D780C3EF8BF0A4AC78
:1010CE00F0EE8BF0A42CFCE435F0F8EF8AF0A42CB3
:1010DE00E5F038FCE433CB8DF0A42CFCE5F03BF8C6
:1010EE00EE8AF0A42CFCE5F038F8E433CF89F0A4B6
:1010FE002CFCE5F038CF3400CE89F0A42FFFE5F0BC
:10110E003EFEE433C98DF0A42EFEE5F039CD8AF013
:10111E00A42FFFE5F03EFEE43DFD33D0E0FB50078B
:10112E000BBB000F021316EC2CFCEF33FFEE33FE5D
:06113E00ED33FD0212EE8C
:10114400021316EC5D046005E85904700302130CE5
:101154001212D7580460F6EC4860F2EC7004FDFEFD
:10116400FF22C860DB2481C85009C398600250067E
:101174000213139850CAF582E9294B4A7005AB82D1
:1011840002130275F0007C1A7880C3EF9BEE9AED8F
:1011940099400DC3EF9BFFEE9AFEED99FDE842F0F6
:1011A400DC23ACF0D0E0FFD0E0FED0E0FDAB822049
:1011B400E7101BEB60BAEC2CFCEF33FFEE33FEEDD3
:1011C40033FD0212EEE803F830E705C0F075F000D5
:1011D400EF2FFFEE33FEED33FD40B830E7C280AAB7
:1011E40074F8CC6480CCC86480C8F582046043C3BE
:1011F400EB9FF5F0EA9E42F0E99D42F0E89C45F051
:1012040060305018E5825FFFE582F42B5582FB5075
:10121400210ABA001D09B90019088016E5825BFB92
:10122400E582F42F5582FF50090EBE00050DBD0066
:10123400010CC3EB9FF5F0EA9E42F0E99D42F0E811
:0D1244009C45F06007CC4820E701B3EC2288
:10125100ED33EC33600A047003BD8004ECB2E7FCAB
:01126100226A
:1012620075F020800E75F010800575F0087D007E07
:10127200007F003392D530D503121923EC3340108E
:10128200EF33FFEE33FEED33FDEC33FCD5F0ED2210
:0E129200E5F0247EA2D513CC92E7CDCEFF224C
:1012A000EDD2E7CD33EC3392D524814006E4FFFE46
:1012B000FDFC22FCE4CFCECDCC24E0501174FF80A5
:1012C000EDC3CC13CCCD13CDCE13CECF13CF047042
:0712D000F030D5DE02192306
:10500F00E55F244BF8E6055F227848300702784BBE
:10501F00E475F001121AA10215B92000EB7F2ED210
:10502F00008018EF540F2490D43440D4FF30040B79
:10503F00EF24BFB41A0050032461FFE5606002152E
:10504F00600563E5637002056230070D7848E4750B
:10505F00F001121AA1EF0216320282A67403D207D0
:10506F008003E4C207F55F8B488A49894AE4F560FB
:10507F00F562F563E56060077F2012504A80F57591
:10508F0061FFC201C200C202C203C205C206C2084A
:10509F00125018FF700D3007057F0012505BAF6381
:1050AF00AE6222B4255FC2D5C204125018FF24D0BD
:1050BF00B40A00501A75F00A786030D50508B6FFAB
:1050CF000106C6A426F620D5047002D20380D92487
:1050DF00CFB41A00EF5004C2E5D204025348D201F4
:1050EF0080C6D20080C0D20280BCD2D580BAD20591
:1050FF0080B47F2012504A2002077401B56000402F
:10510F00F112500FFF12504A025083D208D206807C
:10511F009512500FFB12500FFA12500FF94A4B70A5
:10512F0006793F7A547BFF20022EE560602A7E00CD
:10513F008E827583001215D260060EEE656170F0D7
:10514F00C2D5EBC0E0EAC0E0E9C0E0EE1253A8D050
:10515F00E0F9D0E0FAD0E0FB1215B9FF60AAEBC07E
:10516F00E0EAC0E0E9C0E012504AD0E02401F9D0F3
:10517F00E03400FAD0E0FBE5610460DCD561D98052
:10518F0087D20280A212538B60F7E561700104127F
:10519F001321A961600DE561600914F561125432A4
:1051AF00EF60F3EA30E702F404C3995077EAF4258D
:1051BF00610430E701E404F561800D12538B60C187
:1051CF00EA05612561121321EA785EF630E701E402
:1051DF00256104D56104200501141253A8E4C0E031
:1051EF00125432785EE6601320E70714F61250323D
:1051FF00802204F6D0E014C0E07F00125032E56147
:10520F0060071250291561800B300503125029D009
:10521F00E0025083D0E00480C512538B60A0E5619B
:10522F0004121321785EEAF6E5612005026001049D
:05523F0024041253A835
:1052440074FF04C0E0125432125032E561200502AA
:105254006003125029D0E0B561E87F4512503C78D4
:105264005EE67F2B30E7047F2DF404C0E012504A41
:10527400D0E075F00A84C0F0125033D0E0125033FD
:10528400025083791080027908C206C2088008D2CD
:10529400D5790A8004790AC2D5E561047002F56102
:1052A400E4FAFDFEFF12500FFC7B0820011312509C
:1052B4000FFD7B1030000A12500FFE12500FFF7BBF
:1052C40020EC3382D592D55013C3E43000069FFFFF
:1052D400E49EFEE42001039DFDE49CFCE4CBF8C2C3
:1052E40001EC700CCFCECDCCE824F8F870F3801725
:1052F400C3EF33FFEE33FEED33FDEC33FCEB33FB56
:10530400994002FB0FD8E9EB300105F8D0E0C4481E
:10531400B201C0E00AEC4D4E4F78207B0070C2EA27
:10532400B5610040BCC0E01253AAD0F0D0E0200127
:1053340004C4C0E0C4B201C0F0125033D0F0D5F0C0
:10534400EB025083121B4C51205352875850F14C9E
:1053540050ED42528B4F529344529349510643525B
:10536400995551CA46522845519447545F5050F5B7
:105374002D50F92E511C2B50FD23511A2054482A2C
:1053840050B54800005114E561B4FF03756106127D
:10539400500FFC12500FFD12500FFE12500FFF78E9
:1053A40057021350790AA2D5200314300509B91005
:1053B400020404B9080104A2D52006025001042005
:1053C40002689202B560005034C0E07F20300319B7
:1053D4007F30A20272067205500F125401C202C23B
:1053E40006C205C2087F30800F300503E9C0E01211
:1053F400504A300503D0E0F9D0E0B560CC30051751
:105404007F30B9100C12504A7F583004077F7880DF
:1054140003B9080312504A3002057F2D02504A7F17
:10542400202008F87F2B2006F322920280CF7F00F1
:10543400B4070050052457F8E6FF22286E756C6CFB
:105444002900D20112500F3001F8C201786030D522
:105454000108F60250B52D5043495812500F240349
:10546400B405004001E490545A9312503B743A122C
:0A547400503BD2037560040252871A
:1012D700E9D2E7C933E833F892D5EDD2E7CD33EC5D
:0712E70033FC5002B2D522D6
:1012EE00EC30E7100FBF000C0EBE00080DBD000461
:1012FE000BEB6014A2D5EB13FCED92E7FD2274FF0D
:10130E00FCFDFEFF22E480F8A2D574FF13FC7D8065
:03131E00E480EF79
:10132100F920E72824F950037907E4F42402FB1893
:10133100DBFDE624FB5014E9600DE4F618E604F643
:0F134100B40A08E4F6D9F57401F60A22C2D522DF
:10135000ED33EC3392D5FA602AB4FF33EDC2E77B6C
:10136000FF60067A137975E4227A13797E20D5041A
:101370007A137979224E614E002B494E46002D4951
:101380004E4600E47A08F608DAFC7B00740722E88F
:10139000C0E0ECC0E0EDC0E0EEC0E0EFC0E0EA7518
:1013A000F010A4CAABF075F04DA42BFBE435F0FCB3
:1013B000EA2410FAEB34C5FBEC34D9FCEDC2E7FFAC
:1013C00075F056A4F42411C5F0F434C58FF0A42AA6
:1013D000E5F03BE43CF620E714121483D0E0FFD0A4
:1013E000E0FED0E0FDD0E0FC1211478014F40412BE
:1013F0001483D0E0FFD0E0FED0E0FDD0E0FC12107E
:101400003ED0E0F8E6FAEDD2E7CD33EC332482FBB0
:10141000E4C3CF33CFCE33CECD33CD33DBF37B0735
:1014200075F00A846004F6081B0AE5F0F6088FF0F0
:10143000740AA4FFACF08EF0740AA42CFEACF05039
:10144000010C8DF0740AA42CFDE435F0F608DBDE07
:03145000740722FC
:101453003F8000004120000042C80000447A0000A1
:10146300461C400047C35000497424004B18968023
:101473004CBEBC205A0E1BCA6753C21C749DC5AE1A
:10148300FB60065407601C23231214B1EB5438602D
:101493000912149D1214AC12103EECF8EDF9EEFA99
:1014A300EFCB22EB1214AC80F1543803241C9014BC
:1014B30053FE93FC0EEE93FD0EEE930ECE93FF229E
:03000000027B6D13
:0C7B6D00787FE4F6D8FD758175027BB4CA
:1014C300E709F608DFFA8046E709F208DFFA803E0B
:1014D30088828C83E709F0A3DFFA8032E309F608F8
:1014E300DFFA8078E309F208DFFA807088828C8360
:1014F300E309F0A3DFFA806489828A83E0A3F60814
:10150300DFFA805889828A83E0A3F208DFFA804CED
:1015130080D280FA80C680D4806980F280338010C4
:1015230080A680EA809A80A880DA80E280CA80332D
:1015330089828A83ECFAE493A3C8C582C8CCC583A5
:10154300CCF0A3C8C582C8CCC583CCDFE9DEE78075
:101553000D89828A83E493A3F608DFF9ECFAA9F0F4
:10156300EDFB2289828A83ECFAE0A3C8C582C8CC4A
:10157300C583CCF0A3C8C582C8CCC583CCDFEADE63
:10158300E880DB89828A83E493A3F208DFF980CCC5
:1015930088F0EF60010E4E60C388F0ED2402B404BE
:1015A3000050B9F582EB2402B4040050AF23234565
:0615B30082239015137362
:1015B900BB010689828A83E0225002E722BBFE0230
:0915C900E32289828A83E4932263
:1015D200BB010CE58229F582E5833AF583E02250CE
:1015E20006E92582F8E622BBFE06E92582F8E22218
:0D15F200E58229F582E5833AF583E4932232
:1015FF00BB010FF8E58229F582E5833AF583E028F0
:10160F00F0225009C58229F8E58226F622BBFE0991
:10161F00C58229F8E22582F222F8EA2583F583E9CB
:03162F00932822DB
:10163200BB010689828A83F0225002F722BBFE0197
:02164200F32291
:10164400F8BB010DE58229F582E5833AF583E8F0DC
:10165400225006E92582C8F622BBFE05E92582C888
:02166400F22270
:10166600EF8DF0A4A8F0CF8CF0A428CE8DF0A42E98
:02167600FE2252
:10167800BC000BBE0029EF8DF084FFADF022E4CC56
:10168800F875F008EF2FFFEE33FEEC33FCEE9DEC1F
:10169800984005FCEE9DFE0FD5F0E9E4CEFD22ED65
:1016A800F8F5F0EE8420D21CFEADF075F008EF2FAF
:1016B800FFED33FD4007985006D5F0F222C398FDA0
:0516C8000FD5F0EA223D
:1016CD00C2D5EC30E709B2D5E4C39DFDE49CFCEE38
:1016DD0030E715B2D5E4C39FFFE49EFE121678C322
:1016ED00E49DFDE49CFC800312167830D507C3E41D
:0616FD009FFFE49EFE22A7
:10170300C5F0F8A3E028F0C5F0F8E5821582700271
:061713001583E038F0220E
:10171900A3F8E0C5F025F0F0E58215827002158383
:06172900E0C838F0E822E0
:10172F00BB010A89828A83E0F5F0A3E02250068785
:10173F00F009E71922BBFE07E3F5F009E319228947
:0B174F00828A83E493F5F0740193227A
:10175A00BB0110E58229F582E5833AF583E0F5F0CD
:10176A00A3E0225009E92582F886F008E622BBFEAA
:10177A000AE92582F8E2F5F008E222E5832AF583F0
:08178A00E993F5F0A3E99322B5
:10179200BB010A89828A83F0E5F0A3F0225006F7A2
:0F17A20009A7F01922BBFE06F3E5F009F319229F
:1017B100F8BB0111E58229F582E5833AF583E8F06A
:1017C100E5F0A3F0225009E92582C8F608A6F02227
:0D17D100BBFE09E92582C8F2E5F008F2220E
:0D17DE00EF2BFFEE3AFEED39FDEC38FC225A
:0E17EB00C3EF9BFFEE9AFEED99FDEC98FC22F9
:1017F900E88FF0A4CC8BF0A42CFCE98EF0A42CFC8F
:101809008AF0EDA42CFCEA8EF0A4CDA8F08BF0A40C
:101819002DCC3825F0FDE98FF0A42CCD35F0FCEB6B
:101829008EF0A4FEA9F0EB8FF0A4CFC5F02ECD3930
:0F183900FEE43CFCEAA42DCE35F0FDE43CFC229D
:1018480075F008758200EF2FFFEE33FECD33CDCC57
:1018580033CCC58233C5829BED9AEC99E5829840DA
:101868000CF582EE9BFEED9AFDEC99FC0FD5F0D6B7
:10187800E4CEFBE4CDFAE4CCF9A88222B800C1B9E1
:101888000059BA002DEC8BF084CFCECDFCE5F0CB1F
:10189800F97818EF2FFFEE33FEED33FDEC33FCEB58
:1018A80033FB10D703994004EB99FB0FD8E5E4F913
:1018B800FA227818EF2FFFEE33FEED33FDEC33FC00
:1018C800C933C910D7059BE99A4007EC9BFCE99AF4
:1018D800F90FD8E0E4C9FAE4CCFB2275F010EF2F39
:1018E800FFEE33FEED33FDCC33CCC833C810D70739
:1018F8009BEC9AE899400AED9BFDEC9AFCE899F874
:0E1908000FD5F0DAE4CDFBE4CCFAE4C8F92206
:1081A600C2D5E830E70FB2D5E4C39BFBE49AFAE404
:1081B60099F9E498F8EC30E717B2D51281DC121879
:1081C60084E4C39BFBE49AFAE499F9E498F8800303
:1081D60012188430D50DE4C39FFFE49EFEE49DFD96
:0481E600E49CFC22F7
:0D191600EF4BFFEE4AFEED49FDEC48FC22D0
:0E192300C3E49FFFE49EFEE49DFDE49CFC22D5
:10193100EB9FF5F0EA9E42F0E99D42F0EC6480C82D
:0619410064809845F022CD
:10194700EB9FF5F0EA9E42F0E99D42F0E89C45F0F6
:01195700226D
:10195800E8600FECC313FCED13FDEE13FEEF13FF6D
:03196800D8F12291
:10196B00E8600FEFC333FFEE33FEED33FDEC33FCDA
:03197B00D8F1227E
:10197E00BB010789828A83021A0C5005E9F8021B03
:10198E00A5BBFE05E9F8021BB189828A83021BBD45
:10199E00BB010DE58229F582E5833AF583021A0C27
:1019AE005007E92582F8021BA5BBFE07E92582F840
:1019BE00021BB1E58229F582E5833AF583021BBD50
:1019CE00BB010789828A83021A345005E9F8021B8B
:0A19DE00CDBBFE05E9F8021BD9227B
:1019E800BB010DE58229F582E5833AF583021A34B5
:1019F8005007E92582F8021BCDBBFE07E92582F8CE
:041A0800021BD922C2
:0C1A0C00E0FCA3E0FDA3E0FEA3E0FF224D
:0C1A1800E0F8A3E0F9A3E0FAA3E0FB2251
:101A2400E493F8740193F9740293FA740393FB2218
:0C1A3400ECF0A3EDF0A3EEF0A3EFF02225
:101A4000A8828583F0D083D082121A57121A5712B7
:101A50001A57121A57E473E493A3C583C5F0C583DC
:101A6000C8C582C8F0A3C583C5F0C583C8C582C8F0
:011A70002253
:101A7100BB010DE58229F582E5833AF583021A401F
:101A81005007E92582F8021BE5BBFE07E92582F82C
:041A9100021BFE2214
:0C1A9500A42582F582E5F03583F583225C
:101AA100FAE6FB0808E6F925F0F618E6CA3AF62246
:091AB100E0FBA3E0FAA3E0F92236
:091ABA00EBF0A3EAF0A3E9F0222D
:101AC300BB010DE58229F582E5833AF583021AB15C
:101AD3005007E92582F8021C17BBFE07E92582F8A7
:101AE300021C29E58229F582E5833AF583021C3B32
:101AF300BB0120E58229F582E5833AF583D0F0D056
:101B0300E0F8D0E0F9D0E0FAD0E0FBE8C0E0C0F0C4
:101B1300021ABA5018E92582F8D083D082D0E0F9AE
:101B2300D0E0FAD0E0FBC082C083021C20BBFE18C9
:101B3300E92582F8D083D082D0E0F9D0E0FAD0E072
:091B4300FBC082C083021C3222A7
:101B4C00D083D082F8E4937012740193700DA3A328
:101B5C0093F8740193F5828883E47374029368603C
:061B6C00EFA3A3A380DF3C
:101B7200D083D082F8E4937012740193700DA3A302
:101B820093F8740193F5828883E473740293B5F039
:0D1B9200067403936860E9A3A3A3A380D8A1
:061B9F008A838982E473D1
:1082A600EFB40A07740D1282B1740A309811A899B6
:1082B600B8130CC2983098FDA899C298B811F63038
:0782C60099FDC299F5992210
:0F82DE00EFC394204007EF947F50028001C3222A
:10000E00E4FFFE1215B9600C0FEF70010E09E970D6
:05001E00F20A80EF2250
:107B7900021C47E493A3F8E493A34003F68001F2BF
:107B890008DFF48029E493A3F85407240CC8C3330D
:107B9900C4540F4420C8834004F456800146F6DFDC
:107BA900E4800B0102040810204080907791E47E64
:107BB900019360BCA3FF543F30E509541FFEE493D1
:107BC900A360010ECF54C025E060A840B8E493A398
:107BD900FAE493A3F8E493A3C8C582C8CAC583CAC3
:107BE900F0A3C8C582C8CAC583CADFE9DEE780BE7B
:01784D00003A
:0C1BA500E6FC08E6FD08E6FE08E6FF226C
:0C1BB100E2FC08E2FD08E2FE08E2FF2270
:101BBD00E493FC740193FD740293FE740393FF226E
:0C1BCD00ECF608EDF608EEF608EFF62244
:0C1BD900ECF208EDF208EEF208EFF22248
:101BE500D083D082E493F608740193F608740293C7
:091BF500F608740393F6740473FE
:101BFE00D083D082E493F208740193F208740293B6
:091C0E00F208740393F2740473EC
:091C1700E6FB08E6FA08E6F922F2
:091C2000EBF608EAF608E9F622E9
:091C2900E2FB08E2FA08E2F922EC
:091C3200EBF208EAF208E9F222E3
:0C1C3B00E493FB740193FA740293F92205
:00000001FF
