:108B2600436F707972696768742028432920323050
:108B360030342D3920547261636B20537973746518
:108B46006D7320546563686E6F6C6F676965732C0F
:108B5600204C4C43000200FF000000C0C1C181014F
:108B660040C30103C00280C241C60106C00780C7D8
:108B7600410500C5C1C4810440CC010CC00D80CDA7
:108B8600410F00CFC1CE810E400A00CAC1CB810B76
:108B960040C90109C00880C841D80118C01980D948
:108BA600411B00DBC1DA811A401E00DEC1DF811FD6
:108BB60040DD011DC01C80DC411400D4C1D58115E7
:108BC60040D70117C01680D641D20112C01380D3F8
:108BD600411100D1C1D0811040F00130C03180F187
:108BE600413300F3C1F28132403600F6C1F78137D6
:108BF60040F50135C03480F4413C00FCC1FD813DA7
:108C060040FF013FC03E80FE41FA013AC03B80FB77
:108C1600413900F9C1F88138402800E8C1E98129C5
:108C260040EB012BC02A80EA41EE012EC02F80EFD7
:108C3600412D00EDC1EC812C40E40124C02580E5E6
:108C4600412700E7C1E68126402200E2C1E38123F5
:108C560040E10121C02080E041A00160C06180A107
:108C6600416300A3C1A28162406600A6C1A78167D5
:108C760040A50165C06480A4416C00ACC1AD816DA6
:108C860040AF016FC06E80AE41AA016AC06B80AB77
:108C9600416900A9C1A88168407800B8C1B9817945
:108CA60040BB017BC07A80BA41BE017EC07F80BFD7
:108CB600417D00BDC1BC817C40B40174C07580B5E6
:108CC600417700B7C1B68176407200B2C1B38173F5
:108CD60040B10171C07080B041500090C191815186
:108CE60040930153C052809241960156C0578097D7
:108CF60041550095C1948154409C015CC05D809DA6
:108D0600415F009FC19E815E405A009AC19B815B74
:108D160040990159C058809841880148C0498089C6
:108D2600414B008BC18A814A404E008EC18F814FD4
:108D3600408D014DC04C808C41440084C1858145E5
:108D460040870147C046808641820142C0438083F6
:098D560041410081C180814040CF
:109FAF00500015000000000000000000000000003D
:109FBF00000000430C24000000410C2300410CA7BB
:109FCF000A41000500026F0000026B0000500025DF
:109FDF000000000000000000000000000000000072
:109FEF000173004102A700410CAE004200020000C5
:109FFF00410CAA0042026A000042004900004202DE
:10A00F00BA00A0410CA900410CAD004202BD0000F6
:10A01F0041000100410004004102ED00410BDD0051
:10A02F00410CA80002740000026D00004202C00043
:10A03F00004102BC004102EE0041000000410CAFA4
:0DA04F0000410014004102EC004102EF044A
:10334600E4F52DF52CF52BF52A75840F75FFDE7542
:10335600FFAD12A84412A5D8C2B6C2B5C2B41200B7
:10336600267534017535097536477B017A0C792146
:10337600129ECD129DB5900CA77414F0E49002BC79
:10338600F0900000F0900000E0FFC3942A5018EF80
:1033960075F015A424C2F582E43402F583E4F090B6
:1033A6000000E004F080DEE4900000F012A7267F23
:1033B600007E9612ABB212AC7612AA1AE490028183
:1033C600F09002947402F090029D744EF07B017AA4
:1033D6000279F09002901231B97A0979499002A3E4
:1033E6001231B97A07792A90028D1231B97A0B799E
:1033F600DE9002A01231B9E4900280F090029304AC
:10340600F090028A744EF0E4900295F0A3F09002D8
:1034160082F0A3F090029FF090028CF090029EF052
:1034260090028BF01BFAF990029A1231B99002972A
:103436001231B99002871231B99002841231B90B58
:103446007A0279807F007E847D037C00128F9690BD
:103456000014E07B017A02799360067F807E2580E6
:10346600047F007EE17D007C00128F967B017A024C
:1034760079709000451231B97A0279A8900042120B
:1034860031B9E490003EF0A3F0900048F0900014AB
:0E349600E0600312AC60D2AF900014E060352D
:1034A400900CB212312500006978E4FFFEFDFC9017
:1034B4000CB21230DDD3122FF64017900CB212303A
:1034C400D174FFFBFAF9F8122EA3900CB212311941
:0234D40080D89E
:1034D60012830B1200A6900CAF7401F0E490025D0B
:1034E600F0A3F0A3F0900269F0900263F0A3F090CD
:1034F6000261F0A3F0A2DA33900260F090026BE072
:103506002458FE90026AE03400900267F0A3CEF0E1
:10351600900049E0FCA3E0FD2406FEE43C90026531
:10352600F0A3CEF0ED2405FEE43C900CC5F0A3CE4E
:10353600F0E5D854037002806C7B017A00794B75F4
:103546004E00754F037F107E0212A3309001F1E00A
:10355600540F900006F09001F1E054F0C4540F901F
:103566000007F0900006E06403702AE5D85403FFD4
:10357600BF020890025D7404F0802E900007E09070
:10358600025DB403097403F0A37401F0801B740197
:10359600F0A3F08014900007E0B4030890025D7475
:1035A60002F08005E490025DF0E4FFFED390094846
:1035B600E09F900947E09E4013744B2FF5827400FC
:1035C6003EF583E4F00FBF00010E80E09002A7E015
:1035D6006028C390001AE094B8900019E0940B504C
:1035E60019C2B3C2B6C2B5C2B4E4F54CF54D7B936D
:1035F6007D037F021293A9129C5D90025DE0640434
:0536060060030237CA59
:10360B00F52EF52F900049E0FEA3E0FF900CC5E0EE
:10361B00B50612A3E0B5070D752E01900CC5E47528
:10362B00F001122DC830DB1490025FE064047003CC
:10363B000236FA7404F0752E010236FA90025FE03E
:10364B00B404277402F090026BE02403FE90026A2C
:10365B00E03400900267F0A3CEF0A2DAE4339002DC
:10366B0060F0E4900269F0752E01900267E0FEA312
:10367B00E0FF90026AE0FCA3E0FD6F7002EC6E705D
:10368B006EA2DA33FF900260E0FE6F703090026939
:10369B00E0C394025005E004F08047EE6010900206
:1036AB005FE06402603C7402F0752E01803490027E
:1036BB005FE06401602C7401F0F52E802590025FB1
:1036CB00E0640360067403F0752E01900260E070F5
:1036DB00047F0180027F00900260EFF0900269741A
:1036EB0001F0ED2458FEE43C900267F0A3CEF0907D
:1036FB000C23E0FFC394054006EFD3941F403FE536
:10370B002E603B90025FE0FF908B5EE493FD339560
:10371B00E0FC90028D75F013ED123194EC75F01303
:10372B00A42583F5831231B0900007EF122D097594
:10373B004C00754D017B297D037F021293A99002EA
:10374B005EE06004A3E0701E90025F7401F09002D3
:10375B005EF090004AE02405FE900049E0340090B2
:10376B000265F0A3CEF0900265E0FEA3E0FF9000AF
:10377B0049E0B50619A3E0B50714900265E475F0AE
:10378B000A122DC890025FE0B40103752F01900C53
:10379B0023E0FFC394054009EFD3941F5003E4F5D6
:1037AB002FE52F601A90025E7405F090026BE024F7
:0F37BB0003FE90026AE03400900263F0A3CEF0A8
:1037CA00900263E0FEA3E0FF90026AE0FCA3E0FD42
:1037DA006F7002EC6E600302386490025EE024FDB2
:1037EA00605324FE601A1460522404706D90025EC5
:1037FA007403F0ED2428FEE43C900263F0A3CEF0BB
:10380A0090025EE0B405177406F090026BE024287B
:10381A00FE90026AE03400900263F0A3CEF09002B8
:10382A005DE024FD600B1460042403702DD2CC806B
:10383A0029D2CC802590025E7404F090025EE0B436
:10384A0006037401F090025DE024FD600B1460042D
:10385A0024037006C2CC8002C2CC9002841231B01A
:05386A00E94A4B602B50
:10386F009002841231B08B2E8A2F89307B007A0020
:10387F0079009002841231B9AB2EAA2FA930E4FF40
:0B388F00123FF8900CC3EEF0A3EFF026
:10389A00900CA9E07003023A87E4F09002EDE0F49C
:1038AA00600302397190025DE064046003023965C5
:0938BA0090025FE0B40436D2CCA8
:1038C300900CB61231250001B774E4FFFEFDFC90A5
:1038D3000CB61230DDD3122FF64017900CB612300F
:1038E300D174FFFBFAF9F8122EA3900CB61231191A
:0238F30080D87B
:0A38F500C2CC90025FE0640160663F
:1038FF00900CBA123125000DBBA0E4FFFEFDFC9029
:10390F000CBA1230DDD3122FF64017900CBA1230CA
:10391F00D174FFFBFAF9F8122EA3900CBA123119D9
:02392F0080D83E
:02393100D2CCF6
:10393300900CBE12312500112A88E4FFFEFDFC9095
:103943000CBE1230DDD3122FF64017900CBE12308E
:10395300D174FFFBFAF9F8122EA3900CBE123119A1
:0239630080D80A
:10396500C2B3C2B6C2B5C2B4C2FF80FE9002EDE0DA
:10397500FF64F07023900C23EFF0E4F574F5759077
:10398500000574FFF0D2B3D2B6D2B5D2B4C2A853F3
:10399500E7FD53E7BF023A82EFB4F10F900C23F035
:1039A500C2B3C2B6C2B5C2B4023A82EF64F2702B9A
:1039B500900C23EFF0D2B3D2B6D2B5D2B4900C228C
:1039C500E024FFFD900C21E034FFFCE4FBFFFE1238
:1039D500A6B9E4F58443EF01023A879002EDE0FFD2
:1039E500C394054008EFD3941F5002D2B69002ED60
:1039F500E0FFC39405400CEFD3942350067E007F6F
:103A05000180047E007F00900C23E0FDC3940540F7
:103A15000CEDD3942350067C007D0180047C007D51
:103A250000ED6F7002EC6E604C9002EDE0FFC39408
:103A350005403FEFD39423503912743C12A7261248
:103A450000A6E4900CAEF0900CA7E0FF74A08FF0F8
:103A55008475F00AA4FF90026BE02401FD90026AD0
:103A6500E03400CD2FFEED35F0900002F0A3CEF04E
:103A75008003129C5D9002EDE0900C23F0E490022F
:103A8500EDF0900C23E0FFC3940550030235D2EF0F
:103A9500D3942340030235D29002841231B0E94A0F
:103AA5004B60030235D2900C26E060030235D290BC
:103AB50002871231B0E94A4B60030235D29002A762
:103AC500E07003023DA790001AE094B8900019E059
:103AD500940B4007E49002A7F080069002A77401BA
:103AE500F0C3E570940AE56F648094804006756FB5
:103AF50000757009900014E06007E49002A6F0805C
:103B05003590001BE0FEA3E0FFEF24FBFFEE34EB56
:103B1500FEE434FFFDE434FFFCE47BE87A03F9F8C6
:103B2500122EBEE47BE57A24F9F812AAA99002A622
:103B3500EFF0E024CEF0900017E0540FFD90001553
:103B4500E0540FC4F854F0C8E4C4540F482DFF9056
:103B55008B5EE493FD3395E0FC90028D75F013EDDB
:103B6500123194EC75F013A42583F5831231B090CE
:103B75000007EF122D0990006175F033E5701231E1
:103B850094E56F75F033A42583F58375F003E56C33
:103B9500123194E56B75F003A42583F583E0FF905E
:103BA5000015A3E0FEEF2EFF908B5EE4933395E0C6
:103BB500FC90028D75F013ED123194EC75F013A4A1
:103BC5002583F5831231B0900008EF122D0990007E
:103BD5006275F033E570123194E56F75F033A42505
:103BE50083F58375F003E56C123194E56B75F0038D
:103BF500A42583F583E0FF900017A3E0FEEF2EFFD9
:103C0500908B5EE4933395E0FC90028D75F013ED97
:103C1500123194EC75F013A42583F5831231B0901D
:103C25000009EF122D09E5D8F4FF90028D75F01308
:103C3500ED123194EC75F013A42583F5831231B0A0
:103C450090000AEF122D0990026FE0FF900023E02B
:103C5500FEA3E0A807088005CEC313CE13D8F9FF4D
:103C6500908B5EE493FD3395E0FC90028D75F01327
:103C7500ED123194EC75F013A42583F5831231B060
:103C850090000BEF122D0990026EE0FF900021E0ED
:103C9500FEA3E0A807088005CEC313CE13D8F9FF0D
:103CA500908B5EE493FD3395E0FC90028D75F013E7
:103CB500ED123194EC75F013A42583F5831231B020
:103CC50090000CEF122D0990026DE0FF90001FE0AF
:103CD500FEA3E0A807088005CEC313CE13D8F9FFCD
:103CE500908B5EE493FD3395E0FC90028D75F013A7
:103CF500ED123194EC75F013A42583F5831231B0E0
:103D050090000DEF122D0990026CE0FF90001DE070
:103D1500FEA3E0A807088005CEC313CE13D8F9FF8C
:103D2500908B5EE493FD3395E0FC90028D75F01366
:103D3500ED123194EC75F013A42583F5831231B09F
:103D450090000EEF122D0990025BE0A3FF90028D0B
:103D550075F013ED123194EC75F013A42583F583FA
:103D65001231B090000FEF122D0990025BA3E0FF16
:103D750090028D75F013ED123194EC75F013A425B6
:103D850083F5831231B0900010EF122D09754C00A8
:103D9500754D0A7B927D037F021293A91288E80272
:0E3DA50035D290029FE0FF90029EE06F606DAD
:103DB300EF75F0DCA4FF9002A31231B0E92FF9EA0A
:103DC30035F08B2EF52F893090029FE0FFB402046B
:103DD3007F008003EF04FF90029FEFF09002A6E0C4
:103DE300FF90005F75F033E570123194E56F75F065
:103DF30033A42583F583EFF0AE6FAF707C007D3382
:103E0300122D2B744B2FF974003E753401F535894F
:0A3E130036AB2EAA2FA93012493554
:103E1D000235D2900CAEE0FD7017900002E0FEA3CB
:103E2D00E0FF90026AE06E7003A3E06F600302355D
:103E3D00D2900CA7E0FF74A08FF08475F00AA4FF58
:103E4D0090026BE02401FB90026AE03400CB2FFE60
:103E5D00EB35F0900002F0A3CEF0ED700E900CADAE
:103E6D00F090000274FFF5F0122DC89002EFE0FF04
:103E7D007003023F1A900C23E0FEC3940550030219
:103E8D003F1AEED3941F4003023F1A900CAEE07020
:103E9D0003023FDD90025DE0FE605C900C23E0FDCF
:0B3EAD00C394054052EDD3941F504C0D
:103EB800EEB4040790025FE0B4040890025DE06489
:103EC800046039900CA7E0900CC2B428057406F081
:103ED80080037404F0900CC2E0B5072090025E7471
:103EE80002F0900261E0FEA3E0FF90026BE02FFF7A
:0C3EF80090026AE03E900263F0A3EFF03D
:103F04009002EFE014F06003023FDDF56BF56CF511
:103F14006FF570023FDD900C23E0FFC3940550035E
:0C3F2400023FDDEFD394234003023FDD99
:103F3000900CADE0FF908B5EE493FD3395E0FC9038
:103F4000028D75F013ED123194EC75F013A42583F6
:103F5000F5831231B0900007EF122D099002BDE0F9
:103F6000A3FF90028D75F013ED123194EC75F013F0
:103F7000A42583F5831231B0900008EF122D09902B
:103F800002BDA3E0FF90028D75F013ED123194ECA9
:103F900075F013A42583F5831231B0900009EF1258
:103FA0002D09754C00754D037B277D037F0212930D
:103FB000A9E4F52EF52FD3900948E0952F900947F5
:103FC000E0952E4018744B252FF5827400352EF5A0
:0D3FD00083E4F0052FE52F70DD052E80D96C
:103FDD00E4900CAEF09002EEF0900CADE06007B204
:0B3FED00B5E4F00235D2C2B50235D2B7
:0C9C5D00C2B6C2B590025EE064037070F5
:109C6900900CC712312500015F90E4FFFEFDFC90C6
:109C79000CC71230DDD3122FF64017900CC71230E3
:109C8900D174FFFBFAF9F8122EA3900CC7123119FF
:029C990080D871
:039C9B00E4F5C825
:109C9E00900CCB12312500020F58E4FFFEFDFC9014
:109CAE000CCB1230DDD3122FF64017900CCB1230A6
:109CBE00D174FFFBFAF9F8122EA3900CCB123119C6
:029CCE0080D83C
:109CD00090025E7401F0A304F090025DE0FFB40412
:109CE0000890025FE064046013EF64047003029D57
:0C9CF000AB90025EE064046003029DABD8
:109CFC00900CCF12312500015F90E4FFFEFDFC902B
:109D0C000CCF1230DDD3122FF64017900CCF12303F
:109D1C00D174FFFBFAF9F8122EA3900CCF12311963
:029D2C0080D8DD
:109D2E0090025DE024FD603F1460042403706ED247
:019D3E00CC58
:109D3F00900CD31231250001B774E4FFFEFDFC90A7
:109D4F000CD31230DDD3122FF64017900CD31230F4
:109D5F00D174FFFBFAF9F8122EA3900CD31231191C
:029D6F0080D89A
:069D7100C2CC8036D2CC0A
:109D7700900CD71231250001B774E4FFFEFDFC906B
:109D87000CD71230DDD3122FF64017900CD71230B4
:109D9700D174FFFBFAF9F8122EA3900CD7123119E0
:029DA70080D862
:0C9DA900C2CC90025E7401F0E4F5C82208
:10743C0090026AE0F533A3E0F534E4F56FF570F5EE
:10744C006BF56C900CADF0A3F0900947E0FEA3E057
:10745C00FF7B017A00794B754E00754F0112A330FA
:10746C00900BDDE024FC601424027027900CA774B0
:10747C0014F0900261E4F0A374F08026900CA774D1
:10748C0028F0900261E4F0A374A4F09002EF74066B
:10749C00F08016900CA7740AF09002617402F0A3AD
:1074AC007434F09002EF7404F0900CA8E09002BCDD
:1074BC00F09002B8E0FCA3E0FD4C700890000AF0DC
:1074CC00A3F080679002BFE0701E12292CA804A9BB
:1074DC0005AA06AB07E4FFFE7D7A7C4812280C1245
:1074EC0029657C007DF080389002BFE0B40F0374F6
:1074FC0010F09002B8E0FCA3E0FDE412292CA804E3
:10750C00A905AA06AB07E4FFFE7D7A7C4812280C7D
:10751C001229659002BFE0FD74788DF084FD7C002B
:10752C00122D2B90000AEEF0A3EFF0E5D854037067
:10753C00079002BCF00278187B017A00794B754EEB
:10754C0000754F037F107E0212A330E4F531F53243
:10755C0090006375F028E532123194E53175F0280E
:10756C00A42583F583E024FB601524FB7022746C46
:10757C002532F58274023531F5837403F080207462
:10758C006C2532F58274023531F5837402F0800F6C
:10759C00746C2532F58274023531F5837404F00570
:1075AC0032E532700205316404453170A3E4F531E3
:1075BC00F53290007075F028E532123194E5317592
:1075CC00F028A42583F583E0FDE53225E0FFE531C5
:1075DC0033FE740D2FF58274003EF583EDF09000B0
:1075EC006475F028E532123194E53175F028A42544
:1075FC0083F5831230DD90006875F028E532123186
:10760C0094E53175F028A42583F5831230D1122628
:10761C000EC004C005C006C00790006475F028E5D4
:10762C0032123194E53175F028A42583F58312309C
:10763C00DD90006C75F028E532123194E53175F06F
:10764C0028A42583F5831230D112260ED003D00244
:10765C00D001D00012280CE4FBFAF9F81228A990FA
:10766C00006475F028600540030276F6E5321231AD
:10767C0094E53175F028A42583F5831230DD900054
:10768C006875F028E532123194E53175F028A4259F
:10769C0083F5831230D112260EC004C005C006C07B
:1076AC000790006475F028E532123194E53175F0DD
:1076BC0028A42583F5831230DD90006C75F028E545
:1076CC0032123194E53175F028A42583F5831230FC
:1076DC00D112260ED003D002D001D00012280CC03B
:1076EC0004C005C006C00702777CE532123194E570
:1076FC003175F028A42583F5831230DD9000687570
:10770C00F028E532123194E53175F028A42583F583
:10771C00831230D112260EC004C005C006C00790DB
:10772C00006475F028E532123194E53175F028A427
:10773C002583F5831230DD90006C75F028E532124C
:10774C003194E53175F028A42583F5831230D112DC
:10775C00260ED003D002D001D00012280C1229160C
:10776C00AB07AA06A905A804C000C001C002C0034B
:10777C0090007175F028E532123194E53175F028DE
:10778C00A42583F583E0FF90007275F028E5321292
:10779C003194E53175F028A42583F583E0C39FFD72
:1077AC00E49400FCE412292CD003D002D001D000C8
:1077BC00122703C004C005C006C00790007175F005
:1077CC0028E532123194E53175F028A42583F58330
:1077DC00E0FCE4122931D003D002D001D0001226F3
:1077EC0012122965AD07E53225E0FFE53133FE7451
:1077FC000C2FF58274003EF583EDF00532E5327006
:10780C000205316404453160030275BE9002BCE090
:10781C0030E7034403F0E4F531F532D3900948E046
:10782C009532900947E095314018744B2532F5821A
:10783C0074003531F583E4F00532E53270DD053145
:02784C0080D9E1
:01784E002217
:0988E8009002BCE07003028B2534
:0388F100753106D8
:1088F400AF319002BCE0FEA807088002C313D8FC85
:1089040020E003028B17E53112324B8A8A008A81F8
:108914000189720289720389300489300589280625
:1089240000008B17E5D8F4F532028B17AF31EF3323
:1089340095E0FEEF25E0FFEE33FE74192FF5827407
:10894400003EF583E0FEA3E0FFAD31ED3395E0FC9E
:10895400746A2DF58274023CF583E0FDEFA80508E6
:0E8964008005CEC313CE13D8F9F532028B175F
:10897200E4F533AF31EF3395E0FEEF25E0FFEE3360
:10898200FE74192FF58274003EF583E0FEA3E0FF2A
:10899200AD31ED3395E0FC746A2DF58274023CF53D
:1089A20083E0FBEFA803088005CEC313CE13D8F9EA
:1089B200F53274042DF58274003CF583E0640260A4
:1089C20003028B17AF31EF3395E0FEEF25E0FFEEA8
:1089D20033FE74092FF58274003EF583E0602304B0
:1089E200604624FE706A74082FF58274003EF58397
:1089F200E0FFE532D39F40047F0180027F008F3386
:108A0200804EAF31EF3395E0FEEF25E0FFEE33FE0F
:108A120074082FF58274003EF583E0B532047F01BD
:108A220080027F008F338028AF31EF3395E0FEEF75
:108A320025E0FFEE33FE74082FF58274003EF583C5
:108A4200E0FFE532C39F50047F0180027F008F3335
:108A5200E5336015E5312402FF7401A8070880029E
:108A6200C333D8FC42C8028B17E5312402FF7401DC
:0F8A7200A807088002C333D8FCF452C8028B1740
:098A810090025BE0F532028B1754
:108A8A0090025BE0FEA3E0FFF53290000AE0FCA34F
:108A9A00E0FD4C6078EF4E6074D3ED9FEC9E503849
:108AAA00E4F533F53474062534F58274003533F56C
:108ABA0083E0B40113E5342404FF7401A807088095
:108ACA0002C333D8FCF452C80534E53470020533C6
:108ADA006402453370CF8035E4F533F534740625E6
:108AEA0034F58274003533F583E0B40112E5342499
:108AFA0004FF7401A807088002C333D8FC42C805E2
:0D8B0A0034E534700205336402453370D049
:0E8B17001531C3E5316480948040030288F478
:018B2500222D
:10A78F008B528A538954E92DF9EA3C8B55F556893A
:10A79F0057E4F558F559C3855683855782E5549587
:10A7AF0082E5539583502F7852E475F0011231A052
:10A7BF00122C7EFFE5596F25E0FFE433FE745F2F07
:10A7CF00F582748B3EF583E558FFE493F5587401D9
:0AA7DF00936FF55980C0AE58AF59D2
:01A7E900224D
:109DB500E4900D67F07B017A0C792712A89B900C33
:109DC50090E07004A3E064EF700C900C92E07004D6
:109DD500A3E064086018900C90E4F0A374EFF09091
:109DE5000C92E4F0A37408F0900D677401F0900CE8
:109DF50079E0B4FF0974C8F0900D677401F0900C18
:109E050078E0640160077401F0900D67F0900C2113
:109E1500E0FCA3E0FDB40015ECB41011900C95E046
:109E250030E40AE054EFF0900D677401F0E4B505F5
:109E350015ECB42011900C95E020E40AE04410F0F4
:109E4500900D677401F0900C27E0FF12005E400D45
:109E5500900C27E06007E4F0900D6704F0900C3B50
:109E6500E0FF12005E400D900C3BE06007E4F090CF
:109E75000D6704F0900C4FE0FF12005E400D900C52
:109E85004FE06007E4F0900D6704F0900C98E0B4A3
:109E9500FF07E4F0900D6704F0900C99E0B4FF1112
:109EA500A3E0B4FF0CE4900C99F0A3F0900D6704C7
:109EB500F0900D67E0601012AB847B017A0C792776
:079EC5007D807C0012A64A1B
:019ECC002273
:10AB8400AF84E4F584781EF608F6A2AF33FEC2AFB4
:10AB940043B701758F0718E6FC08E6F5828C83E459
:0DABA400F0F58F53B7FEEE24FF92AF8F84C3
:01ABB1002281
:0AA64A008B458A4689478C488D49EC
:10A6540085844AE4F584781EF608F6A2AF33FFC277
:10A66400AF43B701758F05E4F54BF54CC3E54C9545
:10A6740049E5486480F8E54B64809850297845E4BE
:10A6840075F0011231A0122C7EFE781E0806E61821
:10A69400860470010614F5828C83EEF0054CE54CBB
:10A6A40070CA054B80C6E4F58F53B7FEEF24FF92C2
:04A6B400AF854A84A0
:01A6B800227F
:06A89B008B458A46894747
:10A8A100858448E4F549F54AF584A2AF33F54BC2F6
:10A8B100AF758F04E4FFFE054AE54AAC4970020515
:10A8C1004914F5828C83E493FD7845E475F0011217
:10A8D10031A0ED122CF70FBF00010EEF64804E7016
:0DA8E100D6E4F58FE54B24FF92AF85488447
:01A8EE002247
:0EA455008E4C8F4D8C4E8D4F8B508A518952FC
:09A4630012007EEF30E7F9C2F9A6
:10A46C00E4F557F5580558E5587002055764404512
:03A47C005770F224
:10A47F00E54D6401454C70047F8480027F87120094
:10A48F003EE4FF12003EE4FF12003EE4FF12003EE6
:10A49F00E4F555F556C3E556954FE54E6480F8E55E
:10A4AF0055648098501DAB50AA51A952855682858C
:10A4BF005583122C97FF12003E0556E55670D605B0
:10A4CF005580D2D2F9AD54AC53AF4DAE4C02A55D11
:08A55D008E598F5A8C5B8D5C56
:10A56500900947E0FEA3E0FF12A2968F5D12007EE0
:06A57500EF30E7F9C2F926
:10A57B00E4F55EF55F055FE55F7002055E644045DF
:03A58B005E70F20D
:10A58E00E55D6010E55A6401455970047F838012C1
:10A59E007F86800EE55A6401455970047F828002E1
:10A5AE007F8512003EE55CAE5B7806CEA2E713CE49
:10A5BE0013D8F8FF12003EAF5CEF25E025E0FF1246
:09A5CE00003EE4FF12003ED2F948
:01A5D7002261
:02007E00C2F9C5
:10008000E4F569F56A056AE56A7002056964404548
:030090006970F2A2
:0C0093007FD712003EE4FF12003ED2F9BD
:01009F00223E
:0AA330008E498F4A8B4B8A4C894DF1
:09A33A0012007EEF30E7F9C2F9D0
:10A34300E4F552F5530553E5537002055264404555
:03A353005270F253
:10A356007FD212003EE54FAE4E7806CEA2E713CE70
:10A3660013D8F8FF12003EAF4FEF25E025E0FF12AD
:10A37600003EE4FF12003EE4FF12003EE4FF12003E
:10A386003EE4FF12003EE4FF12003EE4F550F551B4
:10A39600C3E551954AE5496480F8E55064809850D4
:10A3A6001FE4FF12003EAB4BAA4CA94D8551828596
:10A3B6005083EF122D090551E55170D4055080D018
:02A3C600D2F9CA
:01A3C8002272
:08A296008E608F618C628D6304
:0CA29E0075640112007EEF30E7F9C2F990
:10A2AA00E4F567F5680568E5687002056764404586
:03A2BA006770F2D8
:10A2BD007FD212003EE563AE627806CEA2E713CEE2
:10A2CD0013D8F8FF12003EAF63EF25E025E0FF1233
:10A2DD00003EE4FF12003EE4FF12003EE4FF1200D8
:10A2ED003EE4FF12003EE4FF12003EE4F565F56624
:10A2FD00C3E5669561E5606480F8E5656480985016
:10A30D001DE4FF12003EBFFF047F0180027F008F1E
:10A31D0064EF600A0566E56670D6056580D2D2F9F0
:02A32D00AF641B
:01A32F00220B
:04A988008E478F481F
:09A98C0012007EEF30E7F9C2F978
:10A99500E4F549F54A054AE54A700205496440452A
:03A9A5004970F204
:10A9A8007F5012003EE548AE477806CEC313CE135B
:10A9B800D8F9FF12003EAF48EF25E025E0FF12006E
:08A9C8003EE4FF12003ED2F94B
:01A9D0002264
:04A9D1008E498F4AD2
:09A9D50012007EEF30E7F9C2F92F
:10A9DE00E4F54BF54C054CE54C7002054B644045D7
:03A9EE004B70F2B9
:10A9F1007F8112003EE54AAE497806CEC313CE13DD
:10AA0100D8F9FF12003EAF4AEF25E025E0FF120022
:08AA11003EE4FF12003ED2F901
:01AA1900221A
:06A6B9008C428D438B442E
:10A6BF00E5446002C2B68E458F46D3E5469543E525
:10A6CF00459542504BE54654077034C3E5439546D4
:10A6DF00FFE5429545FEC3EF9408EE94004020E558
:10A6EF00446008E546543F7002B2B6AF46AE45121D
:10A6FF00A98874072546F546E43545F5458007AF2B
:10A70F0046AE4512A9D10546E54670AE054580AA6D
:06A71F00E5446002C2B631
:01A725002211
:069ECD008B318A3289335B
:069ED300D2F8D2F9C2FA38
:109ED900E4F537F5380538E538700205376440454B
:039EE9003770F2DD
:029EEC00D2FAA8
:109EEE00E4F537F5380538E5387002053764404536
:039EFE003770F2C8
:109F010012007EEF543C12324B9F230C9F2D149F65
:109F1100371C9F41249F5C2C9F77349F923C00000B
:109F21009FAEAB31AA32A9337402801CAB31AA3285
:109F3100A93374048012AB31AA32A93374088008A2
:109F4100AB31AA32A933741075F000122E57AB341D
:109F5100AA35A936740175F008804FAB31AA32A930
:109F610033741075F000122E57AB34AA35A936742C
:109F71000275F0108034AB31AA32A933742075F028
:109F810000122E57AB34AA35A936740275F0108031
:109F910019AB31AA32A933742075F000122E57ABD8
:0D9FA10034AA35A936740475F020122E572D
:019FAE002290
:10FE00008E448F458E448F45E4F546F547A2AF33C7
:10FE1000F548C2AFE4F58443B701758F03C3E546E7
:10FE200094FC50168547828546837488F0E4254704
:10FE3000F54774043546F54680E3E4F58FF546F55D
:10FE400047F54BF54C75840FE54C54037002B2B680
:10FE500012FFB58F4DE54D30E7F6C2F9E4F54EF5EA
:10FE60004F054FE54F7002054E6440454E70F27FDE
:10FE7000D212FFA4E54CAE4B7806CEC313CE13D8F6
:10FE8000F9FF12FFA412FF9CE4FF12FFA4E4FF128B
:10FE9000FFA4E4FF12FFA4E4FF12FFA4E4FF12FF9B
:10FEA000A4E4F549F54AE4FF12FFA4744B254AF592
:10FEB0008274003549F583EFF0054AE54A70020582
:10FEC00049C3E549940240DED2F9E4F584758F0117
:10FED000F549F54A744B254AF58274003549F58396
:10FEE000E0FF0547E547AC467002054614F5828CF5
:10FEF00083EFF0054AE54A70020549B400D6E549AA
:10FF0000B402D1E4F58F054CE54C7002054BC39467
:07FF10007FE54B9400500354
:10FF170002FE45E4F58F53B7FEE54824FF92AFE4B0
:10FF2700F5D075840FF54BF54CC3E54B9420505431
:10FF3700E54C543F7002B2B512FFB58F4DE54D3019
:10FF4700E7F6C2F9E4F54EF54F054FE54F700205A8
:10FF57004E6440454E70F27F5012FFA4E54CAE4B05
:10FF67007806CEC313CE13D8F9FF12FFA412FF9C55
:10FF7700E4FF12FFA4D2F97408254CF54CE4354B85
:10FF8700F54B80A512FFB58F4DE54D30E7F6E4F54B
:05FF97008443EF01228C
:10FF9C00AF4CEF25E025E0FFAE84E4F5848F9B3079
:09FFAC00FFFDC2FFAF9B8E842211
:10FFB500C2F9E4F550F5510551E55170020550645B
:10FFC50040455070F27FD712FFA4E4FF12FFA4D280
:02FFD500F9220F
:10938F00908B5BE493FFAB32AA33A93490000112A8
:0A939F002C97FDE4F54CF54D7B061C
:0493A9008F498B4B12
:1093AD00754EFFE4F54FF550ED908B5B93F55174D1
:1093BD00232DF582E4340CF5837464F0908B5BE41B
:1093CD0093B54919E54B64066013E54B6415600DC3
:1093DD00741D2DF582E4340CF583E54BF0E55175E4
:1093ED00F013A4248DF582E43402F5831231B074A8
:1093FD0016122CF7E55175F013A4248DF582E43483
:10940D0002F5831231B0900001E549122D09E551A5
:10941D0075F013A4248DF582E43402F5831231B076
:10942D00900002ED122D097402254DF54DE4354CD9
:10943D00F54CFFE55175F013A4248DF582E434024B
:10944D00F5831231B0900003EF122D09E55175F03F
:10945D0013A4248DF582E43402F5831231B090000B
:10946D0004E54D122D09E55175F013A4248DF582F7
:10947D00E43402F5831231B0900005E54B122D094D
:10948D00E4FEFFE55175F013A4248DF582E434025A
:10949D00F5831231B08F828E83122C97624E0FBFDF
:1094AD0000010EEF64064E70DAE55175F013A42439
:1094BD008DF582E43402F5831231B0900006E54E4D
:1094CD00122D0974FE254DF54D74FF354CF54CE507
:1094DD005175F013A4248DF582E43402F583123115
:1094ED00B0E92407F9E43AFAAD4DAC4C12A78F8ED2
:1094FD004F8F50EEFFE55175F013A4248DF582E4E6
:10950D003402F5831231B0054DE54D7002054C2442
:10951D0006F582E4354CF583EF122D09E55175F012
:10952D0013A4248DF582E43402F5831231B0054D78
:10953D00E54D7002054C2406F582E4354CF583E5C6
:10954D0050122D09E55175F013A42480F9740235DC
:10955D00F0FA7B01E54D2407FDE4354CFC12A7EA3A
:09956D00E54D2407FFE4354CFE36
:0195760022D2
:083FF8008F318B328A338934CA
:10400000E4900CD3F0A3F0900003122C97FE9000E4
:1040100004122C977C002400FFEC3ECF24FECF340A
:10402000FFFE900CD5F0FCA3EFF0FDE92407F9E4C6
:104030003AFA12A93E900CD3EEF0A3EFF04E603A9C
:10404000AB32AA33A934900005122C97FF64157087
:104050000302492CEF6406700302492C9000011200
:104060002C972423F582E4340CF5837464F09000DB
:0A40700001122C97FF7D0402443971
:10407A00AB32AA33A934900002122C97FF908B5BC3
:10408A00E4936F7003024134EFF47003024134EF9A
:10409A0093FF3395E0FE90028D75F013EF12319481
:1040AA00EE75F013A42583F5831231B0E92407F9DC
:1040BA00E43A8B3AF53B893CE5342407F9E4353395
:1040CA00853237F5388939E4F535F536D3900CD68B
:1040DA00E09536900CD5E0953540247837E475F0B4
:1040EA00011231A0122C7EFF783AE475F0011231E8
:1040FA00A0EF122CF70536E53670D1053580CDAB29
:10410A0032AA33A934900001122C97FF90000212B0
:10411A002C97FD900005122C97FB900CD5E0F54CDE
:10412A00A3E0F54D1293A902492CAB32AA33A93464
:10413A00900005122C9712324B41950641D010413E
:10414A00B91544743045993145C13245E93346D9E8
:10415A003446113546393646613746D938468939A3
:10416A0046B13A43CD4143CD4247055047575144A2
:10417A00A95542F27043567141FD9048429146FD5D
:10418A0093456194428C98000048F8900001122CE3
:10419A0097241DF582E4340CF583AB32AA33A93493
:1041AA00900001122C97241DF582E4340C8010AB88
:1041BA0032AA33A934122C7E241EF582E4340CF57B
:1041CA0083E4F00248E5900C23E0FFC3940540061F
:1041DA00EFD3941F4004EFB4E20512A8EF80031254
:1041EA00938F900CD3EEF0A3EFF0AB32AA33A9343D
:0341FA000248E593
:1041FD00900C23E0FFC394054006EFD3941F4004B9
:10420D00EFB4E20512A8EF8065AB32AA33A9349062
:10421D000007122C97FE900008122C977C002400AA
:10422D00F53EEC3EF53DE53175F013A4248DF58298
:10423D00E43402F5831231B0E92407F9E43AFA9037
:10424D000947E0FEA3E0FF853D4E853E4F12A330AA
:10425D00908B5BE493FFAB32AA33A934900001122B
:10426D002C97FD900947E0F54CA3E01293A5900C17
:0F427D00D3EEF0A3EFF0AB32AA33A9340248E539
:10428C00900C23E0FFC394054006EFD3941F400429
:10429C00EFB4E20512A8EF803CAB32AA33A93490FC
:1042AC000007122C97FE900008122C977C0024001B
:1042BC00F53EEC3EF53D900947E0FCA3E0FDE9241A
:1042CC0009F9E43AFA853D53853E547F027E00128B
:1042DC00A45512938F900CD3EEF0A3EFF0AB32AA4F
:0642EC0033A9340248E58D
:1042F200900C23E0FFC394054006EFD3941F4004C3
:10430200EFB4E20512A8EF803AE53175F013A42468
:104312008DF582E43402F5831231B0E92407F9E421
:104322003AFA12A89B908B5BE493FFAB32AA33A9B3
:1043320034900001122C97FD754C00754D807B0660
:104342001293A9900CD3EEF0A3EFF0AB32AA33A9EB
:10435200340248E5900C23E0FFC394054006EFD3F6
:10436200941F4004EFB4E20512A8EF804D12AB8413
:10437200AB32E5342407F9E43533FA900CD5E0FE8C
:10438200A3E0FFC39480EE94005006AC06AD078014
:10439200047C007D8012A64A7B017A0C792712A840
:1043A2009B900014E06010900C97E030E4047F00D2
:1043B20080027F0112ABDC12938F900CD3EEF0A33C
:0B43C200EFF0AB32AA33A9340248E54B
:1043CD00900C23E0FFF53DAB32AA33A934900005E4
:1043DD00122C97FE7C00B441047D0080027D058C7B
:1043ED003E8D3FEE900C22E024FFFD900C21E03439
:1043FD00FFFC8C408D41AB32AA33A93490000112E1
:10440D002C972423F582E4340CF583E4F0EFC39468
:10441D00054009900C23E0D3941F4007900C23E036
:10442D00B4E217900001122C97FF7D2012A8FE9088
:10443D000CD3EEF0A3EFF002492C900C2374E2F0B4
:10444D0012938F900CD3EEF0A3EFF0E4FFFE12A9C0
:10445D00D17B01AD41AC40AF3FAE3E12A6B9900C41
:07446D0023E53DF002492C9C
:1044740012938F900CD3EEF0A3EFF0AB32AA33A9D2
:1044840034900001122C972423F582E4340CF58334
:10449400E4F012007E8F3DE53D30E7F6E4F5844319
:0544A400EF0102492CAC
:1044A90012938F900CD3EEF0A3EFF07B017A02798F
:0C44B900807F007EE17D007C00128F9669
:1044C500900CC712312500004650E4FFFEFDFC901C
:1044D5000CC71230DDD3122FF64017900CC71230DF
:1044E500D174FFFBFAF9F8122EA3900CC7123119FB
:0244F50080D86D
:1044F700E4F584C2ACC298D29975840153E7BFC270
:0345070098D299AE
:10450A0075840F30E815C39002C1E094099002C087
:10451A00E094004006E4F58443EF01E4F584309822
:10452A0017758401309911C299F58485993DC2980D
:10453A00B2B4758401853D997584013098C2E4F559
:10454A00843099BCC29975840185993DC298B2B5E7
:05455A00F584853D9988
:10455F0080A912938F900CD3EEF0A3EFF0AB32AA99
:10456F0033A934900001122C972423F582E4340CE4
:10457F00F583E4F0900014E0700302492C900007DB
:10458F00122C97FF12ABDC02492C12938F900CD395
:10459F00EEF0A3EFF0AB32AA33A934900001122C46
:1045AF00972423F582E4340CF583E4F01217E60226
:1045BF00492C12938F900CD3EEF0A3EFF0AB32AAED
:1045CF0033A934900001122C972423F582E4340C84
:1045DF00F583E4F012516C02492C12938F900CD397
:1045EF00EEF0A3EFF0AB32AA33A934900001122CF6
:1045FF00972423F582E4340CF583E4F012863E020F
:10460F00492C12938F900CD3EEF0A3EFF0AB32AA9C
:10461F0033A934900001122C972423F582E4340C33
:10462F00F583E4F012586002492C12938F900CD34B
:10463F00EEF0A3EFF0AB32AA33A934900001122CA5
:10464F00972423F582E4340CF583E4F0125DE10244
:10465F00492C12938F900CD3EEF0A3EFF0AB32AA4C
:10466F0033A934900001122C972423F582E4340CE3
:10467F00F583E4F012700202492C12938F900CD341
:10468F00EEF0A3EFF0AB32AA33A934900001122C55
:10469F00972423F582E4340CF583E4F0126BBC020B
:1046AF00492C12938F900CD3EEF0A3EFF0AB32AAFC
:1046BF0033A934900001122C972423F582E4340C93
:1046CF00F583E4F0127FD302492CAB32AA33A9341D
:1046DF00900001122C972423F582E4340CF583E427
:1046EF00F0900005122C97FF127C5302492C900278
:1046FF00ED74FF0247DA900C23E064F070277545E4
:10470F0001754600754705AB32AA33A93412A13C97
:10471F0012938F900CD3EEF0A3EFF00575E5757043
:10472F001E0574801AAB32AA33A934900001122CE3
:10473F0097FF7D0812A8FE900CD3EEF0A3EFF0AB1D
:10474F0032AA33A9340248E5900C23E0B4F114AB3C
:10475F0032AA33A934900007122C97FF900005E07E
:10476F006F6072AB32AA33A934900001122C97FFFD
:10477F007D0812A8FE900CD3EEF0A3EFF0AB32AA97
:10478F0033A934900001122C972423F582E4340CC2
:04479F00F583E4F0CA
:1047A300900CCB1231250000AFC8E4FFFEFDFC9056
:1047B3000CCB1230DDD3122FF64017900CCB1230F6
:1047C300D174FFFBFAF9F8122EA3900CCB12311916
:0247D30080D88C
:1047D5009002ED74F2F0900CA97401F002492C12CC
:1047E500938F900CD3EEF0A3EFF0AB32AA33A9343C
:1047F500900001122C972423F582E4340CF583E410
:01480500F0C2
:10480600900CCF1231250000AFC8E4FFFEFDFC90EE
:104816000CCF1230DDD3122FF64017900CCF12308A
:10482600D174FFFBFAF9F8122EA3900CCF123119AE
:0248360080D828
:10483800AF75AE7412AAED02492C900CA97401F060
:10484800AB32AA33A934900007122C979002EDF0EE
:10485800D3900CD6E09401900CD5E09400406D9074
:104868000008122C97540F900BDDF0900009122CC1
:1048780097900CA8F0E4F535F536AB32AA33A93495
:10488800E536240AFFE435358F82F583122C97FF2D
:10489800746C2536F58274023535F583EFF00536EC
:1048A800E536700205356404453570CEAB32AA335F
:1048B800A93490000E122C979002BFF090000F12AE
:1048C8002E1FFF9002B8E5F0F0A3EFF012938F903F
:1048D8000CD3EEF0A3EFF0AB32AA33A93490000169
:1048E800122C972423F582E4340CF583E4F0803409
:1048F800AB32AA33A934900001122C972423F582F5
:10490800E4340CF5837464F0900001122C97FF7D59
:104918000212A8FE900CD3EEF0A3EFF074FF900CF7
:04492800D3F0A3F035
:08492C00900CD3E0FEA3E0FFB4
:014934002260
:0AA93E008B428A4389448C458D4604
:10A9480012A78F8E478F48AB42AA43A944854682F7
:10A95800854583122C977F00FEE5462401FDE435EA
:10A96800458D82F583122C972FFFE43EFEE548B50E
:0FA978000709E547B50604E4FEFF227EFF7FFFD7
:01A9870022AD
:0FA8EF00AB32AA33A934900001122C97FF7D20C1
:10A8FE00AE07EE908B5B93FB3395E0FA90028D756D
:10A90E00F013EB123194EA75F013A42583F583123C
:10A91E0031B0900007ED122D09908B5BE493FFADE3
:10A92E0006754C00754D017B151293A9E4FEFF22AE
:06A13C008B428A438944B6
:10A14200E4F548F549900003122C97FE90000412A2
:10A152002C97FDEEF54AEDF54BE4F548F549E54B54
:10A1620024FEFFE54A34FFFEC364809482500280DD
:10A17200047E027F00C3E5499FEE6480F8E54864EF
:10A1820080985048AB45AA46A947C003C002C00107
:10A19200122C7EFFAB42AA43A944E5492407FDE401
:10A1A20035488D82F583122C97FE744B2549F58232
:10A1B20074003548F583EEF06FD001D002D003125F
:10A1C2002CF70549E5497096054880927E00E575B1
:10A1D2005401FF900947E0FCA3E0FD7B017A00797E
:0AA1E2004B85745385755402A45593
:04AAED008E428F43C3
:10AAF10090FE00E493FE740193FF900CDAEEF0A354
:10AB0100EFF0BE8012BFFE0F7B007AFE7902900C3F
:0EAB1100D71231B902329EAF75AE7412FE003B
:01AB1F002213
:10A726008584317B017A0C792712A89B900014E06E
:10A73600702EF58475D98075D84075DA4275DB427E
:10A74600900C8CE0A3E0F5FB900C8CE0A3E0F5FC0C
:10A75600900C8EE0A3E0F5FD900C8EE0A3E0F5FEF4
:10A76600900CA7E0FD7C007E057F00122D3D8E71CA
:10A776008F72E4F58475E8C075D107F5BAF5BB7537
:08A78600BC7043E70285318439
:01A78E0022A8
:03007B00029929BE
:10992900C0E0C0F0C083C082C0D075D000C000C004
:0B99390002C003C004C005C006C00748
:10994400758400C2EDE57325E02425F582E4340036
:10995400F583E5BF85BEF0122DC8E57312324B992D
:109964007F00998701998F0299A20399AA0499B259
:109974000599BA0699C207000099C875BB017573A9
:1099840001804175BB027573028039900014E06058
:109994000575BB07800375BB08757303802675BB0B
:1099A40003757304801E75BB04757305801675BB3F
:1099B40005757306800E75BB06757307800675BB47
:1099C40000757300E57215727002157114457160AB
:0499D40003029ABB35
:1099D800900CA7E0FF74A08FF0841313543F7522F6
:1099E80000F523E4FBFAEB64034A7026900014E0C8
:1099F8007020900CA7E075F00A84FF7E0090002B81
:109A0800E0FCA3E0FD122D2B90001BEEF0A3EFF07D
:109A18008037EB25E0FFEA33FE74252FF5827400CA
:109A28003EF583E0FEA3E0FFAC22AD23122D3DAC52
:109A380006AD07EB25E0FFEA33FE74152FF58274B7
:109A4800003EF583ECF0A3EDF0EB25E0FFEA33FEF2
:109A580074252FF58274003EF583E4F0A3F00BBB68
:109A680000010AEB64084A60030299EE900004E0E2
:109A78007029900C86E0FEA3E0FF900C85E02FFF94
:109A8800900C84E03EFE900015E0FCA3E0FDC3EFDF
:109A98009DFFEE9C900015F0A3EFF0900CA7E0FD61
:109AA8007C007E057F00122D3D8E718F729002A77B
:039AB8007401F046
:0C9ABB00E5737003D38001C34002D2ECBD
:109AC700D007D006D005D004D003D002D000D0D024
:099AD700D082D083D0F0D0E0323F
:03A05C000119FFE8
:10A5D800AF8475840F75E1EF75E20775E34475A4E0
:10A5E800157580EA75ADFF75A53D759001E4F5A672
:10A5F80075A0FF75A7F875B07F759CFFF5C8F59D28
:10A6080075D8FFF59E75E8FFE5E854E0FEBEC00486
:10A618007E0180027E00900014EEF0600875F897C5
:10A62800759FF78006759FFF75F8F720D80330D916
:10A638000E9002EC7401F0900014E06002D2FB8FDF
:01A64800848D
:01A6490022EE
:10AA1A00AF84E4F584F5D875D980F5F9F5FAF5E946
:10AA2A0075EA0C75DC4675D840900CABF0A3F09033
:10AA3A00025BF0A3F0F584C28C758905438E08F594
:10AA4A008AF58CC28DD28C7584017588807589309F
:07AA5A00D2A943E6308F840E
:01AA610022D2
:0DAC7600AF84E4F584C289D288D2A88F840F
:01AC830022AE
:03005B00029AE026
:109AE000C0E0C0F0C083C082C0D075D000C000C04C
:0D9AF00001C002C003C004C005C006C007CD
:109AFD0053E6CF758400AF8CEFFEAD8A7C00E42D6C
:109B0D00F525EC3EF524900CABE0FEA3E0FFC3E59C
:109B1D00259FFFE5249EFED3EF9464EE9400500341
:109B2D00029C39C28C758A00758C00C28DD28CE571
:049B3D0019F4704166
:109B4100F519F526AE24AF25E52625E02435F58265
:109B5100E43400F583EEF0A3EFF0E4FCFDE51D2F06
:109B6100FFE51C3EFEED351BFDEC351A8F1D8E1CED
:0E9B71008D1BF51A0526E526B404C990025B8B
:109B7F00029C2B0519E519C394044003751900E5E0
:109B8F001925E02435F582E43400F583E0FEA3E0E7
:109B9F00FBC3E51D9BFFE51C9EFEE51B9400FDE549
:109BAF001A94008F1D8E1C8D1BF51AAE24AF25E560
:109BBF001925E02435F582E43400F583EEF0A3EFA8
:109BCF00F0E4FCFDE51D2FFFE51C3EFEED351BFD12
:109BDF00EC351A8F1D8E1C8D1BF51AE47B04FAF9D8
:109BEF00F8AC1A122F498E248F25C390025CE09592
:109BFF0025FF90025BE09524FEC394004006AC065F
:109C0F00AD078009C3E49FFFE49EFCAD0790025BA4
:109C1F00E0C313FFC3ED9FEC94004007E524F0A3CE
:109C2F00E525F0900CABE4F0A3F07584015388CFD9
:039C3F0043E630C9
:109C4200D007D006D005D004D003D002D001D00076
:0B9C5200D0D0D082D083D0F0D0E03220
:0300530002AA629C
:10AA6200C0E0C083C082C0D075D000C004C005C0A1
:10AA720006C00753E6CF758400AF8CEFFEAD8A7C2B
:10AA820000E42DFFEC3E900CABF0A3EFF0758401D7
:10AA92005388CF43E630D007D006D005D004D0D0BB
:07AAA200D082D083D0E03226
:03000B0002AB2025
:10AB2000C0E0C083C08253E6CF758400C28C758AB2
:10AB300000758C00D28C900CABE4F0A3F090025B1B
:10AB4000F0A3F07584015388CF43E630D082D083E0
:03AB5000D0E03220
:0300030002A4DF75
:10A4DF00C0E0C0F0C083C082C0D075D000C000C043
:09A4EF0003C004C005C006C0074B
:10A4F800A2AFE433FB900CAE7401F0900CA7E0FD22
:10A508007C007E057F00122D3D8E718F7275730061
:10A518007F10900025E4F0A3DFFCC2AF53E7FE757F
:10A528008400C2ECC2ED75BB0075840175C8007467
:0EA53800FFF5CDF5CC43E70143C8042B92AFED
:10A54600D007D006D005D004D003D000D0D0D0821A
:07A55600D083D0F0D0E03209
:02FDFE0080FE85
:10677300257300506C61636520756E697420666CC7
:106783006174206F6E206C6576656C20737572661C
:106793006163652E00466C6970206F7665722E20EA
:1067A3004661636520646F776E2E00486F6C6420CA
:1067B300766572746963616C2C2047505320616E57
:1067C30074656E6E61206A61636B2075702E00487C
:1067D3006F6C6420766572746963616C2C2047501A
:1067E3005320616E74656E6E61206A61636B206411
:1067F3006F776E2E005374616E64206F6E20726922
:1068030067687420736964652E005374616E642035
:106813006F6E206C65667420736964652E00496E23
:1068230076657274696E6720582056616C7565735E
:1068330000496E76657274696E6720592056616CE3
:1068430075657300496E76657274696E67205A20A8
:1068530056616C7565730020005A65726F20506F26
:10686300696E74733A20582025752C20592025759C
:106873002C205A20257500582052616E67653A20F6
:1068830025752C20257500592052616E67653A20C5
:1068930025752C202575005A2052616E67653A20B4
:1068A30025752C2025750053746F72696E6720431C
:1068B300616C6962726174696F6E204461746120F6
:1068C300696E20466C6173682E0043616C69627265
:1068D3006174696F6E20436F6D706C6574652E0013
:1068E3005A65726F696E6720582C20592050574D96
:1068F3000046696E616C2043616C3A2025752C2536
:10690300750046696E616C2056616C3A2025752CC2
:1069130025750044617461666C6173682054657306
:1069230074002A2A20466C617368204641494C450D
:1069330044202A2A2C20706167652025642C20625C
:1069430079746525640050616765202564206F6B49
:106953000054657374205061737365642E00496E2F
:10696300707574205465737400444947494E3A2046
:106973000031003000583A2025752C20593A202543
:1069830075005A3A2025752C2035563A2025750076
:1069930035563A2025752C20543A20257500413070
:1069A3003A2025752C2041313A2025750041323A91
:1069B3002025752C2041333A20257500496E7075CA
:1069C300745465737420436F6D706C6574652E0029
:1069D3004F75747075742054657374006269742004
:1069E3002564004F75747075745465737420436F18
:1069F3006D706C6574652E00412F4420546573746B
:106A030000426F61726420666C61742E205465735A
:106A13007420666978747572652061747461636843
:106A230065642E005820205920203556205A2020F6
:106A330041302041312041322041330031202000B8
:106A43003020200041445465737420504153532E29
:106A5300002A2A20414454657374204641494C203E
:106A63002A2A004469676974616C20494F20546580
:106A73007374004F6E6C792056616C696420666F85
:106A83007220535532202D2045786974696E672E24
:106A930000446967494F5465737420506F696E747D
:106AA300202564002A2A20204641494C202A2A0016
:106AB300446967494F5465737420504153532E0002
:106AC3002A2A20446967494F546573742046414913
:106AD3004C202A2A004175746F4F6E2054657374DD
:106AE30000456E61626C696E67204175746F4F6E0D
:106AF3002E2E2E0044726F7070696E6720355620FB
:106B0300456E61626C650044697361626C696E67AE
:106B1300204175746F4F6E2E2E2E004175746F4F8A
:106B23006E5465737420504153532E00534D427578
:106B3300732054657374202D204D61737465720046
:106B430025642042797465732C202564204379637E
:106B53006C657300546F74616C204572726F7220A0
:106B6300436F756E742C20257500534D4275732049
:106B73005465737420506173732E00534D427573C3
:106B83002054657374202D20536C61766500534D3A
:106B930042757320536C617665205465737420438A
:106BA3006F6D706C6574652E00010204081020403F
:096BB3008001020408102040805A
:1017E6008584429000047401F075840FFB7A0C79AD
:1017F6002712A89BE4900C77F0908B5B93900C7863
:10180600F0A374C8F0900C90E4F0A374EFF0900C81
:1018160092E4F0A37408F074FFFFFEFDFC900C7ACE
:101826001230DDC312300C700A900C7A123125008A
:10183600000000900C7EE0B4FF037401F0900C7F72
:10184600E0B4FF037409F0900C9474FFF0A3F090D9
:101856000C807408F0A3E4F0900C827408F0A3E402
:10186600F0900C27F0900C3BF0900C4FF0900C8E03
:10187600F0A374A0F0900C8CE4F0A374A0F0E490B4
:0D18860002C0F0A3F0D2B3D2B6D2B5D2B4F6
:10189300900CD7123125000107ACE4FFFEFDFC904C
:1018A3000CD71230DDD3122FF64017900CD712301D
:1018B300D174FFFBFAF9F8122EA3900CD712311949
:0218C30080D8CB
:1018C500908B5CE493FF3395E0FE90028D75F013E9
:1018D500EF123194EE75F013A42583F5831231B020
:1018E500E92407F9E43AFA754CFF754D67754E73AF
:1018F500754FFF755067755176126360908B5CE488
:1019050093FF3395E0FE90028D75F013EF1231943D
:10191500EE75F013A42583F5831231B0E92407F998
:10192500E43AFA12000EEF2401F54DE43EF54C9031
:0C1935008B5BE493FF7B737D011293A990
:10194100900CDB123125000107ACE4FFFEFDFC9099
:101951000CDB1230DDD3122FF64017900CDB123066
:10196100D174FFFBFAF9F8122EA3900CDB12311996
:0219710080D81C
:10197300129756900014E06065900DCDE0FEA3E051
:10198300FF900DC8E02FFF900DC7E03EC313FEEF9D
:1019930013FF900C80EEF0A3EFF0900DCFE0FEA3C9
:1019A300E0FF900DCAE02FFF900DC9E03EC313FE88
:1019B300EF13FF900C82EEF0A3EFF0900DD1E0FE59
:1019C300A3E0FF900DCCE02FFF900DCBE03EC313BF
:1019D300FEEF13FF900C9FEEF0A3EFF0800312785D
:1019E3004F900014E07003021AC3C2B3C2B5908BC8
:1019F3005CE493FF3395E0FE90028D75F013EF12D4
:101A03003194EE75F013A42583F5831231B0E924E4
:101A130007F9E43AFA754CFF754D67754E73754FC8
:101A2300FF755067755198126360908B5CE493FF68
:101A33003395E0FE90028D75F013EF123194EE753D
:101A4300F013A42583F5831231B0E92407F9E43AAE
:101A5300FA12000EEF2401F54DE43EF54C908B5B3A
:0A1A6300E493FF7B737D011293A949
:101A6D00900CDF123125000107ACE4FFFEFDFC9068
:101A7D000CDF1230DDD3122FF64017900CDF123031
:101A8D00D174FFFBFAF9F8122EA3900CDF12311965
:021A9D0080D8EF
:101A9F00129756900DD1E0FEA3E0FF900DCCE02FF2
:101AAF00FF900DCBE03EC313FEEF13FF900C9DEEA6
:101ABF00F0A3EFF0C2B3C2B6C2B5C2B4908B5CE470
:101ACF0093FF3395E0FE90028D75F013EF12319472
:101ADF00EE75F013A42583F5831231B0E92407F9CD
:101AEF00E43AFA754CFF754D67754E73754FFF7578
:101AFF0050677551AE126360908B5CE493FF339522
:101B0F00E0FE90028D75F013EF123194EE75F01325
:101B1F00A42583F5831231B0E92407F9E43AFA12C8
:101B2F00000EEF2401F54DE43EF54C908B5BE493F2
:081B3F00FF7B737D011293A9E5
:101B4700900CE3123125000107ACE4FFFEFDFC9089
:101B57000CE31230DDD3122FF64017900CE312304E
:101B6700D174FFFBFAF9F8122EA3900CE312311986
:021B770080D814
:101B7900129756900DCDE0FEA3E0FF900DC8E02F1F
:101B8900FF900DC7E03EC313FEEF13FF900C86EEE6
:101B9900F0A3EFF0900014E06021900DD1E0FEA3D6
:101BA900E0FF900DCCE02FFF900DCBE03EC313FE7C
:101BB900EF13FF900C9BEEF0A3EFF0D2B3908B5C88
:101BC900E493FF3395E0FE90028D75F013EF123127
:101BD90094EE75F013A42583F5831231B0E9240737
:101BE900F9E43AFA754CFF754D67754E73754FFFF9
:101BF9007550677551D2126360908B5CE493FF3323
:101C090095E0FE90028D75F013EF123194EE75F0A8
:101C190013A42583F5831231B0E92407F9E43AFACC
:101C290012000EEF2401F54DE43EF54C908B5BE478
:091C390093FF7B737D011293A956
:101C4200900CE7123125000107ACE4FFFEFDFC9089
:101C52000CE71230DDD3122FF64017900CE712304A
:101C6200D174FFFBFAF9F8122EA3900CE712311986
:021C720080D818
:101C7400129756900DCDE0FEA3E0FF900DC8E02F23
:101C8400FF900DC7E03EC313FEEF13FF900C84EEEC
:101C9400F0A3EFF0D2B6908B5CE493FF3395E0FEB3
:101CA40090028D75F013EF123194EE75F013A425A4
:101CB40083F5831231B0E92407F9E43AFA754CFF4D
:101CC400754D67754E73754FFF7550677551F812F2
:101CD4006360908B5CE493FF3395E0FE90028D7516
:101CE400F013EF123194EE75F013A42583F58312EB
:101CF40031B0E92407F9E43AFA12000EEF2401F5B1
:101D04004DE43EF54C908B5BE493FF7B737D0112B5
:021D140093A991
:101D1600900CEB123125000107ACE4FFFEFDFC90B0
:101D26000CEB1230DDD3122FF64017900CEB12306D
:101D3600D174FFFBFAF9F8122EA3900CEB123119AD
:021D460080D843
:101D4800129756900DCFE0FEA3E0FF900DCAE02F4A
:101D5800FF900DC9E03EC313FEEF13FF900C88EE11
:101D6800F0A3EFF0D2B5908B5CE493FF3395E0FEDF
:101D780090028D75F013EF123194EE75F013A425CF
:101D880083F5831231B0E92407F9E43AFA754CFF78
:101D9800754D67754E73754FFF75506875510D1207
:101DA8006360908B5CE493FF3395E0FE90028D7541
:101DB800F013EF123194EE75F013A42583F5831216
:101DC80031B0E92407F9E43AFA12000EEF2401F5DC
:101DD8004DE43EF54C908B5BE493FF7B737D0112E1
:021DE80093A9BD
:101DEA00900CEF123125000107ACE4FFFEFDFC90D8
:101DFA000CEF1230DDD3122FF64017900CEF123091
:101E0A00D174FFFBFAF9F8122EA3900CEF123119D4
:021E1A0080D86E
:101E1C00129756900DCFE0FEA3E0FF900DCAE02F75
:101E2C00FF900DC9E03EC313FEEF13FF900C8AEE3A
:101E3C00F0A3EFF0D2B4900C84E0FEA3E0FFC390CB
:101E4C000C87E09F900C86E09E4003021F2B908B2A
:101E5C005CE493FF3395E0FE90028D75F013EF1266
:101E6C003194EE75F013A42583F5831231B0E92477
:101E7C0007F9E43AFA754CFF754D67754E73754F5B
:101E8C00FF755068755121126360908B5CE493FF71
:101E9C003395E0FE90028D75F013EF123194EE75D0
:101EAC00F013A42583F5831231B0E92407F9E43A41
:101EBC00FA12000EEF2401F54DE43EF54C908B5BCD
:0A1ECC00E493FF7B737D011293A9DC
:101ED600900CF3123125000107ACE4FFFEFDFC90E7
:101EE6000CF31230DDD3122FF64017900CF312309C
:101EF600D174FFFBFAF9F8122EA3900CF3123119E4
:021F060080D881
:101F0800900C86E0F543A3E0F544900C84E0FFA331
:101F1800E0900C86CFF0A3EFF0900C84E543F0A39B
:101F2800E544F0900C88E0FEA3E0FFC3900C8BE042
:101F38009F900C8AE09E4003022014908B5CE493EF
:101F4800FF3395E0FE90028D75F013EF123194EE99
:101F580075F013A42583F5831231B0E92407F9E459
:101F68003AFA754CFF754D67754E73754FFF75508E
:101F780068755134126360908B5CE493FF3395E08D
:101F8800FE90028D75F013EF123194EE75F013A4E4
:101F98002583F5831231B0E92407F9E43AFA1200EF
:101FA8000EEF2401F54DE43EF54C908B5BE493FF76
:071FB8007B737D011293A968
:101FBF00900CF7123125000107ACE4FFFEFDFC90F9
:101FCF000CF71230DDD3122FF64017900CF71230AA
:101FDF00D174FFFBFAF9F8122EA3900CF7123119F6
:021FEF0080D898
:101FF100900C8AE0F543A3E0F544900C88E0FFA340
:10200100E0900C8ACFF0A3EFF0900C88E543F0A3A9
:10201100E544F0900014E07003022106900C9DE06D
:10202100FEA3E0FFC3900CA0E09F900C9FE09E40B8
:1020310003022106908B5CE493FF3395E0FE90024E
:102041008D75F013EF123194EE75F013A42583F51D
:10205100831231B0E92407F9E43AFA754CFF754D62
:1020610067754E73754FFF75506875514712636000
:10207100908B5CE493FF3395E0FE90028D75F01335
:10208100EF123194EE75F013A42583F5831231B06C
:10209100E92407F9E43AFA12000EEF2401F54DE4C0
:1020A1003EF54C908B5BE493FF7B737D011293A90A
:1020B100900CFB123125000107ACE4FFFEFDFC9002
:1020C1000CFB1230DDD3122FF64017900CFB1230AF
:1020D100D174FFFBFAF9F8122EA3900CFB123119FF
:0220E10080D8A5
:1020E300900C9FE0F543A3E0F544900C9DE0FFA323
:1020F300E0900C9FCFF0A3EFF0900C9DE543F0A38D
:10210300E544F0908B5CE493FF3395E0FE90028D01
:1021130075F013EF123194EE75F013A42583F58354
:102123001231B0E92407F9E43AFA754CFF754D67AB
:10213300754E73754FFF75506875515A12636090F1
:102143008B5CE493FF3395E0FE90028D75F013EF03
:10215300123194EE75F013A42583F5831231B0E99F
:102163002407F9E43AFA12000EEF2401F54DE43E98
:0F217300F54C908B5BE493FF7B737D011293A976
:10218200900CFF123125000107ACE4FFFEFDFC902C
:102192000CFF1230DDD3122FF64017900CFF1230D5
:1021A200D174FFFBFAF9F8122EA3900CFF12311929
:0221B20080D8D3
:1021B400754CFF754D68754E5C900C80E0F54FA32F
:1021C400E0F550900C82E0F551A3E0F552900C9BA1
:1021D400E0F553A3E0F5547B017A0D79171263609F
:1021E400908B5CE493FF3395E0FE90028D75F013C1
:1021F400EF123194EE75F013A42583F5831231B0F8
:10220400E92407F9E43AFA754CFF754D67754E7386
:10221400754F0175500D755117126360908B5CE416
:1022240093FF3395E0FE90028D75F013EF12319415
:10223400EE75F013A42583F5831231B0E92407F970
:10224400E43AFA12000EEF2401F54DE43EF54C9009
:0C2254008B5BE493FF7B737D011293A968
:10226000900D03123125000107ACE4FFFEFDFC9048
:102270000D031230DDD3122FF64017900D031230EC
:10228000D174FFFBFAF9F8122EA3900D0312311945
:0222900080D8F4
:10229200908B5CE493FF3395E0FE90028D75F01312
:1022A200EF123194EE75F013A42583F5831231B049
:1022B200E92407F9E43AFA754CFF754D68754E7AD0
:1022C200900C84E0F54FA3E0F550900C86E0F551B8
:1022D200A3E0F552126360908B5CE493FF3395E0C8
:1022E200FE90028D75F013EF123194EE75F013A487
:1022F2002583F5831231B0E92407F9E43AFA120092
:102302000EEF2401F54DE43EF54C908B5BE493FF18
:072312007B737D011293A90A
:10231900900D07123125000107ACE4FFFEFDFC908A
:102329000D071230DDD3122FF64017900D0712302A
:10233900D174FFFBFAF9F8122EA3900D0712311987
:0223490080D83A
:10234B00908B5CE493FF3395E0FE90028D75F01358
:10235B00EF123194EE75F013A42583F5831231B08F
:10236B00E92407F9E43AFA754CFF754D68754E8A06
:10237B00900C88E0F54FA3E0F550900C8AE0F551F6
:10238B00A3E0F552126360908B5CE493FF3395E00E
:10239B00FE90028D75F013EF123194EE75F013A4CD
:1023AB002583F5831231B0E92407F9E43AFA1200D8
:1023BB000EEF2401F54DE43EF54C908B5BE493FF5F
:0723CB007B737D011293A951
:1023D200900D0B123125000107ACE4FFFEFDFC90CD
:1023E2000D0B1230DDD3122FF64017900D0B123069
:1023F200D174FFFBFAF9F8122EA3900D0B123119CA
:0224020080D880
:10240400908B5CE493FF3395E0FE90028D75F0139E
:10241400EF123194EE75F013A42583F5831231B0D5
:10242400E92407F9E43AFA754CFF754D68754E9A3C
:10243400900C9DE0F54FA3E0F550900C9FE0F55112
:10244400A3E0F552126360908B5CE493FF3395E054
:10245400FE90028D75F013EF123194EE75F013A413
:102464002583F5831231B0E92407F9E43AFA12001E
:102474000EEF2401F54DE43EF54C908B5BE493FFA5
:072484007B737D011293A997
:10248B00900D0F123125000107ACE4FFFEFDFC900F
:10249B000D0F1230DDD3122FF64017900D0F1230A7
:1024AB00D174FFFBFAF9F8122EA3900D0F1231190C
:0224BB0080D8C7
:1024BD00908B5CE493FF3395E0FE90028D75F013E5
:1024CD00EF123194EE75F013A42583F5831231B01C
:1024DD00E92407F9E43AFA754CFF754D67754E73AB
:1024ED00754FFF7550687551AA126360908B5CE44F
:1024FD0093FF3395E0FE90028D75F013EF1231943A
:10250D00EE75F013A42583F5831231B0E92407F994
:10251D00E43AFA12000EEF2401F54DE43EF54C902D
:10252D008B5BE493FF7B737D011293A912AB847BCC
:0C253D00017A0C79277D7A7C0012A64AF6
:10254900900D13123125000107ACE4FFFEFDFC904C
:102559000D131230DDD3122FF64017900D131230E0
:10256900D174FFFBFAF9F8122EA3900D1312311949
:0225790080D808
:10257B00908B5CE493FF3395E0FE90028D75F01326
:10258B00EF123194EE75F013A42583F5831231B05D
:10259B00E92407F9E43AFA754CFF754D67754E73EC
:1025AB00754FFF7550687551CD126360908B5CE46D
:1025BB0093FF3395E0FE90028D75F013EF1231947B
:1025CB00EE75F013A42583F5831231B0E92407F9D6
:1025DB00E43AFA12000EEF2401F54DE43EF54C906F
:1025EB008B5BE493FF7B737D011293A9D2B3C2B6CD
:0F25FB00C2B5C2B4E4900004F0129DB5854284CD
:01260A0022AD
:10975600900DCB740FF0A374FFF0900DC9740FF049
:10976600A374FFF0900DC7740FF0A374FFF0E4909C
:109776000DD1F0A3F0900DCFF0A3F0900DCDF0A396
:10978600F0FFFE9002A7E060FA900015E0FCA3E06F
:10979600FD900DC7E0FAA3E0FBC39DEA9C5006AC22
:1097A60002AD038008900015E0FCA3E0FD900DC714
:1097B600ECF0A3EDF0900017E0FCA3E0FD900DC9DE
:1097C600E0FAA3E0FBC39DEA9C5006AC02AD038021
:1097D60008900017E0FCA3E0FD900DC9ECF0A3EDA6
:1097E600F090001BE0FCA3E0FD900DCBE0FAA3E0B7
:1097F600FBC39DEA9C5006AC02AD03800890001B9B
:10980600E0FCA3E0FD900DCBECF0A3EDF09000158D
:10981600E0FCA3E0FD900DCDE0FAA3E0FBD39DEACA
:109826009C4006AC02AD038008900015E0FCA3E066
:10983600FD900DCDECF0A3EDF0900017E0FCA3E059
:10984600FD900DCFE0FAA3E0FBD39DEA9C4006AC69
:1098560002AD038008900017E0FCA3E0FD900DCF59
:10986600ECF0A3EDF090001BE0FCA3E0FD900DD121
:10987600E0FAA3E0FBD39DEA9C4006AC02AD038070
:109886000890001BE0FCA3E0FD900DD1ECF0A3EDE9
:10989600F0E49002A7F00FBF00010EEF64284E60BF
:1098A60003029789900DC9E0FEA3E0FF900DCFE07B
:1098B600FCA3E0FDC39FFFEC9EFEC3940040028024
:1098C60016900DC9E0FEA3E0FFC3ED9FFFEC9EFEE0
:1098D600C3E49FFFE49EFED3EF9404EE940040039E
:1098E600029756900DC7E0FEA3E0FF900DCDE0FC79
:1098F600A3E0FDC39FFFEC9EFEC3940040028016CA
:10990600900DC7E0FEA3E0FFC3ED9FFFEC9EFEC3F4
:10991600E49FFFE49EFED3EF9404EE94004003021E
:02992600975652
:01992800221C
:10784F00E4F545F546F584900C8EE0A3E0F5FD9048
:10785F000C8EE0A3E0F5FE900C8CE0A3E0F5FB901E
:10786F000C8CE0A3E0F5FC908B5CE493FF3395E088
:10787F00FE90028D75F013EF123194EE75F013A494
:10788F002583F5831231B0E92407F9E43AFA754CF0
:10789F00FF754D67754E73754FFF7550687551E3E2
:1078AF00126360908B5CE493FF3395E0FE90028D42
:1078BF0075F013EF123194EE75F013A42583F58351
:1078CF001231B0E92407F9E43AFA12000EEF24015D
:1078DF00F54DE43EF54C908B5BE493FF7B737D019C
:0378EF001293A948
:1078F200900D67123125000107ACE4FFFEFDFC90FC
:107902000D671230DDD3122FF64017900D6712303B
:10791200D174FFFBFAF9F8122EA3900D67123119F8
:0279220080D80B
:107924009002A7E060FAE49002A7F09002A7E0605A
:10793400FAE545700F900015E0FFA3E0900C80CFAE
:10794400F0A3EFF0E546700F900017E0FFA3E0907E
:107954000C82CFF0A3EFF0E49002A7F0E545704B62
:10796400900C80E0FEA3E02400EE34F8C36480941D
:10797400804010900C80E0FEA3E02400FFEE34F879
:10798400FE8015900C80E0FEA3E02400FFEE34F8A6
:10799400FEC3E49FFFE49EFED3EF9405EE6480945F
:1079A4008050047F0180027F008F45E5457048C305
:1079B400900C80E094085015900C8CE07002A3E0C9
:1079C40070028014900C8C74FFF5F08017900C8C6E
:1079D400E07003A3E0F47005754501800A900C8CF7
:1079E400E475F001122DC8900C8CE0A3E0F5FB9037
:1079F4000C8CE0A3E0F5FCE546704B900C82E0FEB5
:107A0400A3E02400EE34F8C3648094804010900C0A
:107A140082E0FEA3E02400FFEE34F8FE8015900C13
:107A240082E0FEA3E02400FFEE34F8FEC3E49FFFEF
:107A3400E49EFED3EF9405EE6480948050047F01AD
:107A440080027F008F46E5467048C3900C82E09424
:107A5400085015900C8EE07002A3E0700280149020
:107A64000C8E74FFF5F08017900C8EE07003A3E089
:107A7400F47005754601800A900C8EE475F00112CD
:107A84002DC8900C8EE0A3E0F5FD900C8EE0A3E0F1
:107A9400F5FEE5457003027924E546700302792476
:107AA400129756900015E0FFA3E0900C80CFF0A34E
:107AB400EFF0900017E0FFA3E0900C82CFF0A3EF6B
:107AC400F0908B5CE493FF3395E0FE90028D75F0AB
:107AD40013EF123194EE75F013A42583F58312315C
:107AE400B0E92407F9E43AFA754CFF754D68754E10
:107AF400F4900C8CE0F54FA3E0F550900C8EE0F57B
:107B040051A3E0F552126360908B5CE493FF3395CC
:107B1400E0FE90028D75F013EF123194EE75F013C0
:107B2400A42583F5831231B0E92407F9E43AFA1263
:107B3400000EEF2401F54DE43EF54C908B5BE4938D
:087B4400FF7B737D011293A980
:107B4C00900D6B123125000107ACE4FFFEFDFC909B
:107B5C000D6B1230DDD3122FF64017900D6B1230D7
:107B6C00D174FFFBFAF9F8122EA3900D6B12311998
:027B7C0080D8AF
:107B7E00754CFF754D69754E05900C80E0F54FA361
:107B8E00E0F550900C82E0F551A3E0F5527B017ABE
:107B9E000D7973126360908B5CE493FF3395E0FE76
:107BAE0090028D75F013EF123194EE75F013A4253B
:107BBE0083F5831231B0E92407F9E43AFA754CFFE4
:107BCE00754D67754E73754F0175500D7551731266
:107BDE006360908B5CE493FF3395E0FE90028D75AD
:107BEE00F013EF123194EE75F013A42583F5831282
:107BFE0031B0E92407F9E43AFA12000EEF2401F548
:107C0E004DE43EF54C908B5BE493FF7B737D01124C
:027C1E0093A928
:107C2000900D6F123125000107ACE4FFFEFDFC90C2
:107C30000D6F1230DDD3122FF64017900D6F1230FA
:107C4000D174FFFBFAF9F8122EA3900D6F123119BF
:027C500080D8DA
:017C5200220F
:027C53008F425E
:107C5500858443E4F544F545F548908B5C93FF3303
:107C650095E0FE90028D75F013EF123194EE75F0EC
:107C750013A42583F5831231B0E92407F9E43AFA10
:107C8500754CFF754D67754E73754FFF755069756A
:107C95005116126360908B5CE493FF3395E0FE9080
:107CA500028D75F013EF123194EE75F013A4258350
:107CB500F5831231B0E92407F9E43AFA12000EEF20
:107CC5002401F54DE43EF54C908B5BE493FF7B730B
:107CD5007D011293A9E49002C0F0A3F0F546F547A3
:107CE500D3900948E09547900947E095464023AE73
:107CF50046AF477C017D00122D92744B2547F582D6
:107D050074003546F583EDF00547E54770020546F5
:107D150080CE75840F30E819C39002C1E0940990B4
:107D250002C0E094004003027F1AE49002C0F0A371
:107D3500F0900947E0FCA3E0FD7B017A00794B85D3
:107D45004453854554E4FFFE12A455900947E0FECF
:107D5500A3E0FF7B017A00794B85444E85454F12A0
:107D6500A330E4F546F547D3900948E095479009D7
:107D750047E09546402DAE46AF477C017D00122D6C
:107D850092744B2547F58274003546F583E06D7096
:107D950001EC6005754801800A0547E54770020555
:107DA5004680C4E5487003027E31908B5CE493FF06
:107DB5003395E0FE90028D75F013EF123194EE7558
:107DC500F013A42583F5831231B0E92407F9E43AC9
:107DD500FA754CFF754D69754E2585444F8545509F
:107DE500854651854752126360908B5CE493FF335F
:107DF50095E0FE90028D75F013EF123194EE75F05B
:107E050013A42583F5831231B0E92407F9E43AFA7E
:107E150012000EEF2401F54DE43EF54C908B5BE42A
:0C7E250093FF7B737D011293A9027F1A6A
:107E3100900CD7123125000107ACE4FFFEFDFC9048
:107E41000CD71230DDD3122FF64017900CD7123019
:107E5100D174FFFBFAF9F8122EA3900CD712311945
:027E610080D8C7
:107E6300908B5CE493FF3395E0FE90028D75F013E5
:107E7300EF123194EE75F013A42583F5831231B01C
:107E8300E92407F9E43AFA754CFF754D69754E49D3
:107E930085444F854550126360908B5CE493FF33B8
:107EA30095E0FE90028D75F013EF123194EE75F0AC
:107EB30013A42583F5831231B0E92407F9E43AFAD0
:107EC30012000EEF2401F54DE43EF54C908B5BE47C
:107ED30093FF7B737D011293A9AF45AE4412A9D1E1
:107EE300D3900C22E09545900C21E095445007E493
:107EF300F544F54580080545E54570020544E5422E
:107F030064347003027D17D3E5459404E54464802B
:0E7F130094805003027D17E49002C0F0A3F0AA
:107F2100900CDB123125000107ACE4FFFEFDFC9053
:107F31000CDB1230DDD3122FF64017900CDB123020
:107F4100D174FFFBFAF9F8122EA3900CDB12311950
:027F510080D8D6
:107F5300908B5CE493FF3395E0FE90028D75F013F4
:107F6300EF123194EE75F013A42583F5831231B02B
:107F7300E92407F9E43AFA754CFF754D67754E73BA
:107F8300754FFF755069755154126360908B5CE4B3
:107F930093FF3395E0FE90028D75F013EF12319449
:107FA300EE75F013A42583F5831231B0E92407F9A4
:107FB300E43AFA12000EEF2401F54DE43EF54C903D
:0F7FC3008B5BE493FF7B737D011293A98543844D
:017FD200228C
:10516C0085844278F77C0C7D017BFF7A6B79AC7E71
:0C517C00007F08122C589000047401F011
:10518800900CD7123125000107ACE4FFFEFDFC901E
:105198000CD71230DDD3122FF64017900CD71230EF
:1051A800D174FFFBFAF9F8122EA3900CD71231191B
:0251B80080D89D
:1051BA00908B5CE493FF3395E0FE90028D75F013BB
:1051CA00EF123194EE75F013A42583F5831231B0F2
:1051DA00E92407F9E43AFA754CFF754D67754E7381
:1051EA00754FFF755069755161126360908B5CE46D
:1051FA0093FF3395E0FE90028D75F013EF12319410
:10520A00EE75F013A42583F5831231B0E92407F96A
:10521A00E43AFA12000EEF2401F54DE43EF54C9003
:10522A008B5BE493FF7B737D011293A9E49002C028
:03523A00F0A3F0EE
:10523D0075840F30E819C39002C1E094099002C043
:10524D00E09400400302579AE49002C0F0A3F0905E
:0A525D0002A7E060DBE4F085D8430F
:10526700900CDB1231250006DDD0E4FFFEFDFC903B
:105277000CDB1230DDD3122FF64017900CDB123007
:10528700D174FFFBFAF9F8122EA3900CDB12311937
:0252970080D8BD
:10529900908B5CE493FF3395E0FE90028D75F013DB
:1052A900EF123194EE75F013A42583F5831231B012
:1052B900E92407F9E43AFA754CFF754D67754E73A1
:1052C900754FFF75506875515A126360908B5CE495
:1052D90093FF3395E0FE90028D75F013EF12319430
:1052E900EE75F013A42583F5831231B0E92407F98B
:1052F900E43AFA12000EEF2401F54DE43EF54C9024
:0C5309008B5BE493FF7B737D011293A982
:10531500900CDF123125000107ACE4FFFEFDFC9087
:105325000CDF1230DDD3122FF64017900CDF123050
:10533500D174FFFBFAF9F8122EA3900CDF12311984
:0253450080D80E
:10534700754CFF754D69754E6C7B017A0C79FF12B0
:1053570063607544007545067B017A0C79FF12007E
:105367000E74FF2FF9740C3EFA7B01C003C002C014
:105377000174F72545F582740C3544F583E05543F0
:105387007BFF60067A69797480047A6979768B4C39
:105397008A4D894ED001D002D003126360E54515CE
:1053A7004570021544C3E5446480948050AA908BED
:1053B7005CE493FF3395E0FE90028D75F013EF12D6
:1053C7003194EE75F013A42583F5831231B0E924E7
:1053D70007F9E43AFA754CFF754D67754E73754FCB
:1053E7000175500C7551FF126360908B5CE493FF5D
:1053F7003395E0FE90028D75F013EF123194EE7540
:10540700F013A42583F5831231B0E92407F9E43AB0
:10541700FA12000EEF2401F54DE43EF54C908B5B3C
:0A542700E493FF7B737D011293A94B
:10543100900CE3123125000107ACE4FFFEFDFC9066
:105441000CE31230DDD3122FF64017900CE312302B
:10545100D174FFFBFAF9F8122EA3900CE312311963
:0254610080D8F1
:10546300754CFF754D69754E78900015E0F54FA3A7
:10547300E0F550A3E0F551A3E0F5527B017A0C79F6
:10548300FF126360908B5CE493FF3395E0FE900220
:105493008D75F013EF123194EE75F013A42583F597
:1054A300831231B0E92407F9E43AFA754CFF754DDC
:1054B30067754E73754F0175500C7551FF1263601C
:1054C300908B5CE493FF3395E0FE90028D75F013AF
:1054D300EF123194EE75F013A42583F5831231B0E6
:1054E300E92407F9E43AFA12000EEF2401F54DE43A
:1054F3003EF54C908B5BE493FF7B737D011293A984
:10550300900CE7123125000107ACE4FFFEFDFC908F
:105513000CE71230DDD3122FF64017900CE7123050
:10552300D174FFFBFAF9F8122EA3900CE71231198C
:0255330080D81E
:10553500900014E06018754CFF754D69754E8590A7
:10554500001BE0F54FA3E0F5509000198014754C51
:10555500FF754D69754E93900019E0F54FA3E0F581
:1055650050A3E0F551A3E0F5527B017A0C79FF12C7
:105575006360908B5CE493FF3395E0FE90028D753C
:10558500F013EF123194EE75F013A42583F5831211
:1055950031B0E92407F9E43AFA754CFF754D6775A2
:1055A5004E73754F0175500C7551FF126360908BEA
:1055B5005CE493FF3395E0FE90028D75F013EF12D6
:1055C5003194EE75F013A42583F5831231B0E924E7
:1055D50007F9E43AFA12000EEF2401F54DE43EF521
:0E55E5004C908B5BE493FF7B737D011293A9C6
:1055F300900CEB123125000107ACE4FFFEFDFC909B
:105603000CEB1230DDD3122FF64017900CEB123057
:10561300D174FFFBFAF9F8122EA3900CEB12311997
:0256230080D82D
:10562500754CFF754D69754EA190001DE0F54FA3B2
:10563500E0F550A3E0F551A3E0F5527B017A0C7932
:10564500FF126360908B5CE493FF3395E0FE90025C
:105655008D75F013EF123194EE75F013A42583F5D3
:10566500831231B0E92407F9E43AFA754CFF754D18
:1056750067754E73754F0175500C7551FF12636058
:10568500908B5CE493FF3395E0FE90028D75F013EB
:10569500EF123194EE75F013A42583F5831231B022
:1056A500E92407F9E43AFA12000EEF2401F54DE476
:1056B5003EF54C908B5BE493FF7B737D011293A9C0
:1056C500900CEF123125000107ACE4FFFEFDFC90C4
:1056D5000CEF1230DDD3122FF64017900CEF12307D
:1056E500D174FFFBFAF9F8122EA3900CEF123119C1
:0256F50080D85B
:1056F700754CFF754D69754EB0900021E0F54FA3CD
:10570700E0F550A3E0F551A3E0F5527B017A0C795F
:10571700FF126360908B5CE493FF3395E0FE900289
:105727008D75F013EF123194EE75F013A42583F500
:10573700831231B0E92407F9E43AFA754CFF754D45
:1057470067754E73754F0175500C7551FF12636085
:10575700908B5CE493FF3395E0FE90028D75F01318
:10576700EF123194EE75F013A42583F5831231B04F
:10577700E92407F9E43AFA12000EEF2401F54DE4A3
:105787003EF54C908B5BE493FF7B737D011293A9ED
:0A57970002523DE49002C0F0A3F0BE
:1057A100900CF3123125000107ACE4FFFEFDFC90E3
:1057B1000CF31230DDD3122FF64017900CF3123098
:1057C100D174FFFBFAF9F8122EA3900CF3123119E0
:0257D10080D87E
:1057D300908B5CE493FF3395E0FE90028D75F0139C
:1057E300EF123194EE75F013A42583F5831231B0D3
:1057F300E92407F9E43AFA754CFF754D67754E7362
:10580300754FFF7550697551BF126360908B5CE4EF
:1058130093FF3395E0FE90028D75F013EF123194F0
:10582300EE75F013A42583F5831231B0E92407F94B
:10583300E43AFA12000EEF2401F54DE43EF54C90E4
:105843008B5BE493FF7B737D011293A9D2B3C2B642
:0C585300C2B5C2B4E4900004F0854284A9
:01585F002226
:10863E00858442E4F545F54678E37C0C7D017BFFAD
:0A864E007A6B79B4FE7F08122C58F5
:10865800900CD7123125000107ACE4FFFEFDFC9019
:108668000CD71230DDD3122FF64017900CD71230EA
:10867800D174FFFBFAF9F8122EA3900CD712311916
:0286880080D898
:10868A00908B5CE493FF3395E0FE90028D75F013B6
:10869A00EF123194EE75F013A42583F5831231B0ED
:1086AA00E92407F9E43AFA754CFF754D67754E737C
:1086BA00754FFF7550697551D3126360908B5CE4F6
:1086CA0093FF3395E0FE90028D75F013EF1231940B
:1086DA00EE75F013A42583F5831231B0E92407F966
:1086EA00E43AFA12000EEF2401F54DE43EF54C90FF
:0C86FA008B5BE493FF7B737D011293A95E
:10870600900CDB123125000107ACE4FFFEFDFC9066
:108716000CDB1230DDD3122FF64017900CDB123033
:10872600D174FFFBFAF9F8122EA3900CDB12311963
:0287360080D8E9
:10873800E49002C0F0A3F090026BE024A0F544900E
:10874800026AE03400F54375840F30E819C39002DB
:10875800C1E094099002C0E094004003028827E435
:108768009002C0F0A3F090026AE0FEA3E0FFB544D7
:10877800D6EEB543D2EF24A0F544E43EF543908B02
:108788005CE493FF3395E0FE90028D75F013EF12D1
:108798003194EE75F013A42583F5831231B0E924E2
:1087A80007F9E43AFA754CFF754D69754EDF854552
:1087B8004F854650126360908B5CE493FF3395E0DD
:1087C800FE90028D75F013EF123194EE75F013A43C
:1087D8002583F5831231B0E92407F9E43AFA120047
:1087E8000EEF2401F54DE43EF54C908B5BE493FFCE
:1087F8007B737D011293A974E32546F582740C35C9
:1088080045F583E0F5C80546E54670020545FFAE27
:10881800457C007D07122D928C458D4602874FE4DA
:068828009002C0F0A3F075
:10882E00900CDF123125000107ACE4FFFEFDFC9039
:10883E000CDF1230DDD3122FF64017900CDF123002
:10884E00D174FFFBFAF9F8122EA3900CDF12311936
:02885E0080D8C0
:10886000908B5CE493FF3395E0FE90028D75F013DE
:10887000EF123194EE75F013A42583F5831231B015
:10888000E92407F9E43AFA754CFF754D67754E73A4
:10889000754FFF7550697551E6126360908B5CE40B
:1088A00093FF3395E0FE90028D75F013EF12319433
:1088B000EE75F013A42583F5831231B0E92407F98E
:1088C000E43AFA12000EEF2401F54DE43EF54C9027
:1088D0008B5BE493FF7B737D011293A9D2B3C2B685
:0788E000C2B5C2B485428459
:0188E700226E
:0C5860008584427544019000047401F03E
:10586C00900CD7123125000107ACE4FFFEFDFC9033
:10587C000CD71230DDD3122FF64017900CD7123004
:10588C00D174FFFBFAF9F8122EA3900CD712311930
:02589C0080D8B2
:10589E00908B5CE493FF3395E0FE90028D75F013D0
:1058AE00EF123194EE75F013A42583F5831231B007
:1058BE00E92407F9E43AFA754CFF754D67754E7396
:1058CE00754FFF7550697551FB126360908B5CE4E8
:1058DE0093FF3395E0FE90028D75F013EF12319425
:1058EE00EE75F013A42583F5831231B0E92407F980
:1058FE00E43AFA12000EEF2401F54DE43EF54C9019
:0C590E008B5BE493FF7B737D011293A977
:10591A00900CDB123125000107ACE4FFFEFDFC9080
:10592A000CDB1230DDD3122FF64017900CDB12304D
:10593A00D174FFFBFAF9F8122EA3900CDB1231197D
:02594A0080D803
:10594C00908B5CE493FF3395E0FE90028D75F01321
:10595C00EF123194EE75F013A42583F5831231B058
:10596C00E92407F9E43AFA754CFF754D67754E73E7
:10597C00754FFF75506A755104126360908B5CE42F
:10598C0093FF3395E0FE90028D75F013EF12319476
:10599C00EE75F013A42583F5831231B0E92407F9D1
:1059AC00E43AFA12000EEF2401F54DE43EF54C906A
:0C59BC008B5BE493FF7B737D011293A9C9
:1059C800900CDF123125000107ACE4FFFEFDFC90CE
:1059D8000CDF1230DDD3122FF64017900CDF123097
:1059E800D174FFFBFAF9F8122EA3900CDF123119CB
:0259F80080D855
:1059FA00908B5CE493FF3395E0FE90028D75F01373
:105A0A00EF123194EE75F013A42583F5831231B0A9
:105A1A00E92407F9E43AFA754CFF754D67754E7338
:105A2A00754FFF75506A755127126360908B5CE45D
:105A3A0093FF3395E0FE90028D75F013EF123194C7
:105A4A00EE75F013A42583F5831231B0E92407F922
:105A5A00E43AFA12000EEF2401F54DE43EF54C90BB
:105A6A008B5BE493FF7B737D011293A99002A7E0FD
:105A7A0060FAE4F545E54512324B5AA0005AA001F6
:105A8A005ACE025AFC035B36045B64055B91065BE3
:105A9A00BE0700005BE9E54525E02415F582E434FC
:105AAA0000F583E0FEA3E0FFC394A4EE9406400D44
:105ABA00D3EF94FCEE940850047F0180027F008F9C
:105ACA0043025BE9E54525E02415F582E43400F557
:105ADA0083E0FEA3E0FFC39484EE940E400DD3EF5F
:105AEA00949CEE941050047F0180027F008F430241
:105AFA005BE9900014E0602EE54525E02415F58267
:105B0A00E43400F583E0FEA3E0FFC394AAEE940513
:105B1A00400DD3EF946CEE940750047F0180027F0E
:105B2A00008F43025BE9754301025BE9E54525E025
:105B3A002415F582E43400F583E0FEA3E0FFC39464
:105B4A0030EE9404400DD3EF9460EE940550047F38
:105B5A000180027F008F43025BE9E54525E02415B9
:105B6A00F582E43400F583E0FEA3E0FFC394CAEEB5
:105B7A009402400DD3EF9496EE940350047F018073
:105B8A00027F008F438058E54525E02415F582E41D
:105B9A003400F583E0FEA3E0FFC39465EE94014070
:105BAA000DD3EF94CBEE940150047F0180027F0065
:105BBA008F43802BE54525E02415F582E43400F572
:105BCA0083E0FEA3E0FFC3943FEE9403400DD3EFBE
:105BDA00942BEE940450047F0180027F008F43E5EA
:105BEA00437002F5447B017A0C79EB12000E74EBD8
:105BFA002FF9740C3EFA7B01C003C002C001E543D1
:105C0A007BFF60067A6A793F80047A6A79438B4C13
:105C1A008A4D894ED001D002D0031263600545E552
:0E5C2A0045C394085003025A7FE49002A7F08D
:105C3800900CE3123125000107ACE4FFFEFDFC9057
:105C48000CE31230DDD3122FF64017900CE312301C
:105C5800D174FFFBFAF9F8122EA3900CE312311954
:025C680080D8E2
:105C6A00908B5CE493FF3395E0FE90028D75F01300
:105C7A00EF123194EE75F013A42583F5831231B037
:105C8A00E92407F9E43AFA754CFF754D67754E73C6
:105C9A00754F0175500C7551EB126360908B5CE483
:105CAA0093FF3395E0FE90028D75F013EF12319455
:105CBA00EE75F013A42583F5831231B0E92407F9B0
:105CCA00E43AFA12000EEF2401F54DE43EF54C9049
:0C5CDA008B5BE493FF7B737D011293A9A8
:105CE600900CE7123125000107ACE4FFFEFDFC90A5
:105CF6000CE71230DDD3122FF64017900CE7123066
:105D0600D174FFFBFAF9F8122EA3900CE7123119A1
:025D160080D833
:105D1800E544908B5C6038E493FF3395E0FE900295
:105D28008D75F013EF123194EE75F013A42583F5F9
:105D3800831231B0E92407F9E43AFA754CFF754D3E
:105D480067754E73754FFF75506A7551478036E415
:105D580093FF3395E0FE90028D75F013EF123194A6
:105D6800EE75F013A42583F5831231B0E92407F901
:105D7800E43AFA754CFF754D67754E73754FFF75AC
:105D8800506A755154126360908B5CE493FF3395AD
:105D9800E0FE90028D75F013EF123194EE75F0135A
:105DA800A42583F5831231B0E92407F9E43AFA12FD
:105DB800000EEF2401F54DE43EF54C908B5BE49327
:105DC800FF7B737D011293A9D2B3C2B6C2B5C2B428
:085DD800E4900004F085428410
:015DE00022A0
:0E5DE100858442754301E4F54590000404F00A
:105DEF00900CD7123125000107ACE4FFFEFDFC90AB
:105DFF000CD71230DDD3122FF64017900CD712307C
:105E0F00D174FFFBFAF9F8122EA3900CD7123119A7
:025E1F0080D829
:105E2100908B5CE493FF3395E0FE90028D75F01347
:105E3100EF123194EE75F013A42583F5831231B07E
:105E4100E92407F9E43AFA754CFF754D67754E730D
:105E5100754FFF75506A755166126360908B5CE4F3
:105E610093FF3395E0FE90028D75F013EF1231949C
:105E7100EE75F013A42583F5831231B0E92407F9F7
:105E8100E43AFA12000EEF2401F54DE43EF54C9090
:105E91008B5BE493FF7B737D011293A9900014E067
:025EA100706E21
:105EA300900CDB123125000107ACE4FFFEFDFC90F2
:105EB3000CDB1230DDD3122FF64017900CDB1230BF
:105EC300D174FFFBFAF9F8122EA3900CDB123119EF
:025ED30080D875
:105ED500908B5CE493FF3395E0FE90028D75F01393
:105EE500EF123194EE75F013A42583F5831231B0CA
:105EF500E92407F9E43AFA754CFF754D67754E7359
:105F0500754FFF75506A7551760262B0E4F546E546
:105F150046B40707E4F5C8D2FB80058545C8C2FB32
:105F2500900CDF123125000107ACE4FFFEFDFC906B
:105F35000CDF1230DDD3122FF64017900CDF123034
:105F4500D174FFFBFAF9F8122EA3900CDF12311968
:025F550080D8F2
:105F5700908B5CE493FF3395E0FE90028D75F01310
:105F6700EF123194EE75F013A42583F5831231B047
:105F7700E92407F9E43AFA754CFF754D6A754E94B2
:105F870085464F126360908B5CE493FF3395E0FE88
:105F970090028D75F013EF123194EE75F013A4256E
:105FA70083F5831231B0E92407F9E43AFA12000EB7
:105FB700EF2401F54DE43EF54C908B5BE493FF7BBA
:105FC700737D011293A99002A7E060FAE5461232A9
:105FD7004B5FF400601F01604A0260750360A00414
:105FE70060CA0560F406611E0700006131E5D8B597
:105FF700451FD3900018E094CA900017E094024020
:106007001020A00D20A10A3086073087047F018069
:10601700027F008F44026131E5D8B5451FC3900068
:1060270018E0942C900017E09401501020A00D2048
:10603700A10A2086073087047F0180027F008F44F2
:10604700026131E5D8B5451FC3900018E0942C9044
:106057000017E09401501020A00D20A10A308607F8
:106067002087047F0180027F008F44026131E5D8D9
:10607700B5451FC3900018E0942C900017E09401D9
:10608700501020A00D20A10A3086073087047F0119
:1060970080027F008F44026131E5D8B5451FC39068
:1060A7000018E0942C900017E09401501020A00DE8
:1060B70020A10A3086073087047F0180027F008F86
:1060C700448067E5D8B5451FC3900018E0942C902D
:1060D7000017E09401501020A00D30A10A30860768
:1060E7003087047F0180027F008F44803DE5D8B56B
:1060F700451FC3900018E0942C900017E0940150BE
:106107001030A00D20A10A3086073087047F018058
:10611700027F008F448013E545B4030A20860720D9
:1061270087047F0180027F008F44E49002A7F0E597
:066137004460030261EE6A
:10613D00900CE3123125000107ACE4FFFEFDFC904D
:10614D000CE31230DDD3122FF64017900CE3123012
:10615D00D174FFFBFAF9F8122EA3900CE31231194A
:02616D0080D8D8
:10616F00908B5CE493FF3395E0FE90028D75F013F6
:10617F00EF123194EE75F013A42583F5831231B02D
:10618F00E92407F9E43AFA754CFF754D67754E73BC
:10619F00754FFF75506A7551A7126360908B5CE461
:1061AF0093FF3395E0FE90028D75F013EF1231944B
:1061BF00EE75F013A42583F5831231B0E92407F9A6
:1061CF00E43AFA12000EEF2401F54DE43EF54C903F
:1061DF008B5BE493FF7B737D011293A9E4F543E599
:1061EF004570057545018006E54525E0F5450546F1
:0A61FF00E546C394075003025F1445
:10620900900CE7123125000107ACE4FFFEFDFC907C
:106219000CE71230DDD3122FF64017900CE712303D
:10622900D174FFFBFAF9F8122EA3900CE712311979
:0262390080D80B
:10623B00E543908B5C6038E493FF3395E0FE90026E
:10624B008D75F013EF123194EE75F013A42583F5D1
:10625B00831231B0E92407F9E43AFA754CFF754D16
:10626B0067754E73754FFF75506A7551B38036E481
:10627B0093FF3395E0FE90028D75F013EF1231947E
:10628B00EE75F013A42583F5831231B0E92407F9D9
:10629B00E43AFA754CFF754D67754E73754FFF7584
:1062AB00506A7551C3126360908B5CE493FF339516
:1062BB00E0FE90028D75F013EF123194EE75F01332
:1062CB00A42583F5831231B0E92407F9E43AFA12D5
:1062DB00000EEF2401F54DE43EF54C908B5BE493FF
:1062EB00FF7B737D011293A9D2B3C2B6C2B5C2B400
:0862FB00E4900004F0854284E8
:016303002277
:097002008584429000047401F041
:10700B00900CD7123125000107ACE4FFFEFDFC907C
:10701B000CD71230DDD3122FF64017900CD712304D
:10702B00D174FFFBFAF9F8122EA3900CD712311979
:02703B0080D8FB
:10703D00908B5CE493FF3395E0FE90028D75F01319
:10704D00EF123194EE75F013A42583F5831231B050
:10705D00E92407F9E43AFA754CFF754D67754E73DF
:10706D00754FFF75506A7551D8126360908B5CE453
:10707D0093FF3395E0FE90028D75F013EF1231946E
:10708D00EE75F013A42583F5831231B0E92407F9C9
:10709D00E43AFA12000EEF2401F54DE43EF54C9062
:1070AD008B5BE493FF7B737D011293A9900014E039
:0270BD00706EF3
:1070BF00900CDB123125000107ACE4FFFEFDFC90C4
:1070CF000CDB1230DDD3122FF64017900CDB123091
:1070DF00D174FFFBFAF9F8122EA3900CDB123119C1
:0270EF0080D847
:1070F100908B5CE493FF3395E0FE90028D75F01365
:10710100EF123194EE75F013A42583F5831231B09B
:10711100E92407F9E43AFA754CFF754D67754E732A
:0F712100754FFF75506A7551760273E875C82077
:10713000900CDF123125000107ACE4FFFEFDFC904E
:107140000CDF1230DDD3122FF64017900CDF123017
:10715000D174FFFBFAF9F8122EA3900CDF1231194B
:0271600080D8D5
:10716200908B5CE493FF3395E0FE90028D75F013F3
:10717200EF123194EE75F013A42583F5831231B02A
:10718200E92407F9E43AFA754CFF754D67754E73B9
:10719200754FFF75506A7551E4126360908B5CE421
:1071A20093FF3395E0FE90028D75F013EF12319448
:1071B200EE75F013A42583F5831231B0E92407F9A3
:1071C200E43AFA12000EEF2401F54DE43EF54C903C
:1071D2008B5BE493FF7B737D011293A97F0112AB5A
:0171E200DCD0
:1071E300900CE3123125000107ACE4FFFEFDFC9097
:1071F3000CE31230DDD3122FF64017900CE312305C
:10720300D174FFFBFAF9F8122EA3900CE312311993
:0272130080D821
:10721500908B5CE493FF3395E0FE90028D75F0133F
:10722500EF123194EE75F013A42583F5831231B076
:10723500E92407F9E43AFA754CFF754D67754E7305
:10724500754FFF75506A7551F7126360908B5CE45A
:1072550093FF3395E0FE90028D75F013EF12319494
:10726500EE75F013A42583F5831231B0E92407F9EF
:10727500E43AFA12000EEF2401F54DE43EF54C9088
:0E7285008B5BE493FF7B737D011293A9C2FF24
:10729300900CE71231250006DDD0E4FFFEFDFC90E3
:1072A3000CE71230DDD3122FF64017900CE71230A3
:1072B300D174FFFBFAF9F8122EA3900CE7123119DF
:0272C30080D871
:0272C500D2FFF6
:1072C700900CEB123125000107ACE4FFFEFDFC90AA
:1072D7000CEB1230DDD3122FF64017900CEB123067
:1072E700D174FFFBFAF9F8122EA3900CEB123119A7
:0272F70080D83D
:1072F900908B5CE493FF3395E0FE90028D75F0135B
:10730900EF123194EE75F013A42583F5831231B091
:10731900E92407F9E43AFA754CFF754D67754E7320
:10732900754FFF75506B75510A126360908B5CE461
:1073390093FF3395E0FE90028D75F013EF123194AF
:10734900EE75F013A42583F5831231B0E92407F90A
:10735900E43AFA12000EEF2401F54DE43EF54C90A3
:107369008B5BE493FF7B737D011293A9E4FF12AB5E
:04737900DCE4F5C893
:10737D00900CEF123125000107ACE4FFFEFDFC90EF
:10738D000CEF1230DDD3122FF64017900CEF1230A8
:10739D00D174FFFBFAF9F8122EA3900CEF123119EC
:0273AD0080D886
:1073AF00908B5CE493FF3395E0FE90028D75F013A4
:1073BF00EF123194EE75F013A42583F5831231B0DB
:1073CF00E92407F9E43AFA754CFF754D67754E736A
:1073DF00754FFF75506B75511E126360908B5CE497
:1073EF0093FF3395E0FE90028D75F013EF123194F9
:1073FF00EE75F013A42583F5831231B0E92407F954
:10740F00E43AFA12000EEF2401F54DE43EF54C90EC
:10741F008B5BE493FF7B737D011293A9D2B3C2B64A
:0C742F00C2B5C2B4E4900004F0854284B1
:01743B00222E
:106BBC00E4900CEFF0A3F0A2FB92018584469000C8
:036BCC000404F0CE
:106BCF00900CD7123125000107ACE4FFFEFDFC90BD
:106BDF000CD71230DDD3122FF64017900CD712308E
:106BEF00D174FFFBFAF9F8122EA3900CD7123119BA
:026BFF0080D83C
:106C0100908B5CE493FF3395E0FE90028D75F01359
:106C1100EF123194EE75F013A42583F5831231B090
:106C2100E92407F9E43AFA754CFF754D67754E731F
:106C3100754FFF75506B75512F126360908B5CE43B
:106C410093FF3395E0FE90028D75F013EF123194AE
:106C5100EE75F013A42583F5831231B0E92407F909
:106C6100E43AFA12000EEF2401F54DE43EF54C90A2
:106C71008B5BE493FF7B737D011293A9900014E079
:026C8100706E33
:106C8300900CDB123125000107ACE4FFFEFDFC9004
:106C93000CDB1230DDD3122FF64017900CDB1230D1
:106CA300D174FFFBFAF9F8122EA3900CDB12311901
:026CB30080D887
:106CB500908B5CE493FF3395E0FE90028D75F013A5
:106CC500EF123194EE75F013A42583F5831231B0DC
:106CD500E92407F9E43AFA754CFF754D67754E736B
:106CE500754FFF75506A755176026FAEC2FBE4F5BC
:036CF50084D2C680
:106CF800900CDF123125000107ACE4FFFEFDFC908B
:106D08000CDF1230DDD3122FF64017900CDF123053
:106D1800D174FFFBFAF9F8122EA3900CDF12311987
:026D280080D811
:106D2A00908B5CE493FF3395E0FE90028D75F0132F
:106D3A00EF123194EE75F013A42583F5831231B066
:106D4A00E92407F9E43AFA754CFF754D6B754E4321
:106D5A00754F087550017551F4126360908B5CE4AD
:106D6A0093FF3395E0FE90028D75F013EF12319484
:106D7A00EE75F013A42583F5831231B0E92407F9DF
:106D8A00E43AFA12000EEF2401F54DE43EF54C9078
:106D9A008B5BE493FF7B737D011293A9D2B6D2B3C6
:106DAA00C2B4C2B59000421231B07408122CF7E492
:106DBA00F542F543E5432440FF9000421231B0E525
:106DCA00432401FDE435428D82F583EF122D090536
:106DDA0043E543700205426408454270D79000407B
:106DEA007409F0A314F090003D7404F0E4F544F53E
:106DFA004512AC47AE44AF457C007D64122D3DED93
:106E0A004C6002B2B530E819C39002C1E09409900F
:106E1A0002C0E094004003026F01E49002C0F0A3B4
:016E2A00F077
:106E2B00900CE312312500001194E4FFFEFDFC9061
:106E3B000CE31230DDD3122FF64017900CE3123017
:106E4B00D174FFFBFAF9F8122EA3900CE31231194F
:026E5B0080D8DD
:106E5D0012AC2B900048E060FAE4900048F0F54247
:106E6D00F5439000421231B0E5432401FFE4354271
:106E7D008F82F583122C97FF9000451231B0854318
:106E8D0082854283122C976F600A900CEFE475F0A7
:106E9D0001122DC80543E5437002054264084542C1
:0E6EAD0070C0900CEFE07002A3E06002C2B370
:106EBB00900CE712312500001194E4FFFEFDFC90CD
:106ECB000CE71230DDD3122FF64017900CE712307F
:106EDB00D174FFFBFAF9F8122EA3900CE7123119BB
:026EEB0080D84D
:106EED000545E54570020544C394F4E5449401500D
:086EFD0003026DFBA20192FBF0
:106F0500900CEB123125000107ACE4FFFEFDFC906F
:106F15000CEB1230DDD3122FF64017900CEB12302C
:106F2500D174FFFBFAF9F8122EA3900CEB1231196C
:026F350080D802
:106F3700900CEFE0FEA3E0FF4E908B5C6033E49390
:106F4700FD3395E0FC90028D75F013ED123194EC52
:106F570075F013A42583F5831231B0E92407F9E40A
:106F67003AFA754CFF754D6B754E578E4F8F5080A3
:106F770036E493FF3395E0FE90028D75F013EF1220
:106F87003194EE75F013A42583F5831231B0E9240B
:106F970007F9E43AFA754CFF754D67754E73754FEF
:106FA700FF75506B75516D126360908B5CE493FFB6
:106FB7003395E0FE90028D75F013EF123194EE7564
:106FC700F013A42583F5831231B0E92407F9E43AD5
:106FD700FA12000EEF2401F54DE43EF54C908B5B61
:106FE700E493FF7B737D011293A9D2B3C2B4C2B5F8
:0A6FF700C2B6E4900004F085468461
:01700100226C
:107FD300A2FB92018584429000047401F09000405A
:0A7FE3007410F0A3F0E4900048F0E1
:107FED00900CD7123125000107ACE4FFFEFDFC908B
:107FFD000CD71230DDD3122FF64017900CD712305C
:10800D00D174FFFBFAF9F8122EA3900CD712311987
:02801D0080D809
:10801F00908B5CE493FF3395E0FE90028D75F01327
:10802F00EF123194EE75F013A42583F5831231B05E
:10803F00E92407F9E43AFA754CFF754D67754E73ED
:10804F00754FFF75506B75517E126360908B5CE4BA
:10805F0093FF3395E0FE90028D75F013EF1231947C
:10806F00EE75F013A42583F5831231B0E92407F9D7
:10807F00E43AFA12000EEF2401F54DE43EF54C9070
:10808F008B5BE493FF7B737D011293A9900014E047
:02809F00706E01
:1080A100900CDB123125000107ACE4FFFEFDFC90D2
:1080B1000CDB1230DDD3122FF64017900CDB12309F
:1080C100D174FFFBFAF9F8122EA3900CDB123119CF
:0280D10080D855
:1080D300908B5CE493FF3395E0FE90028D75F01373
:1080E300EF123194EE75F013A42583F5831231B0AA
:1080F300E92407F9E43AFA754CFF754D67754E7339
:0E810300754FFF75506A7551760282B7C2FB48
:10811100900CDF123125000107ACE4FFFEFDFC905D
:108121000CDF1230DDD3122FF64017900CDF123026
:10813100D174FFFBFAF9F8122EA3900CDF1231195A
:0281410080D8E4
:10814300908B5CE493FF3395E0FE90028D75F01302
:10815300EF123194EE75F013A42583F5831231B039
:10816300E92407F9E43AFA754CFF754D6B754E43F4
:10817300754F087550017551F4126360908B5CE480
:1081830093FF3395E0FE90028D75F013EF12319457
:10819300EE75F013A42583F5831231B0E92407F9B2
:1081A300E43AFA12000EEF2401F54DE43EF54C904B
:1081B3008B5BE493FF7B737D011293A9D2B6D2B399
:1081C300C2B4C2B5E4F58475C304C2C3FFFEEF2491
:1081D300F0FD9000421231B08F828E83ED122D0993
:1081E3000FBF00010EEF64084E70E3900048E0609B
:1081F300FA30E816C39002C1E094099002C0E094FB
:10820300005042E49002C0F0A3F0E4900048F0FE76
:10821300FF900041E0FDC3EF9DEE940050239000DA
:10822300451231B08F828E83122C97FD900042123B
:1082330031B08F828E83ED122D090FBF00010E80A6
:09824300D0B2B580A6A20192FBA5
:10824C00900CE3123125000107ACE4FFFEFDFC901D
:10825C000CE31230DDD3122FF64017900CE31230E2
:10826C00D174FFFBFAF9F8122EA3900CE31231191A
:02827C0080D8A8
:10827E00908B5CE493FF3395E0FE90028D75F013C6
:10828E00EF123194EE75F013A42583F5831231B0FD
:10829E00E92407F9E43AFA754CFF754D67754E738C
:1082AE00754FFF75506B755191126360908B5CE446
:1082BE0093FF3395E0FE90028D75F013EF1231941B
:1082CE00EE75F013A42583F5831231B0E92407F976
:1082DE00E43AFA12000EEF2401F54DE43EF54C900F
:1082EE008B5BE493FF7B737D011293A9D2B3C2B46F
:0C82FE00C2B5C2B6E4900004F0854284D2
:01830A002250
:10AB530001120101060101020100000001000000D1
:10AB63000C00000077000004A900002E9B0001D216
:10AB7300090012345600B60B61071C71C7471C71DC
:01AB8300C70A
:04A05F00410DD600D9
:10830B009002A01231B08B378A38893990029FE0E6
:10831B0090029EF0E4F531F532F536F535F534F58E
:10832B0033AB37AA38A9390532E532AE31700205C5
:10833B0031142406F582E43EF58374FA122D0905F7
:10834B0032E532AE3170020531142406F582E43E7B
:10835B00F583E4122D090532E532AE317002053199
:10836B00142406F582E43EF5837401122D090532BF
:10837B00E532AE3170020531142406F582E43EF588
:10838B0083E4122D090532E532AE3170020531144A
:10839B002406F582E43EF5837401122D090532E5BE
:1083AB0032AE3170020531142406F582E43EF583BA
:1083BB00E4122D09AD32AC317F087E0612A08D90F0
:1083CB000295E07002A3E070F690026AE0F531A32B
:1083DB00E0F53290029FE0FF90029EE0B507137824
:1083EB00331230F97B407A4B794C7800D312300C36
:1083FB0050E190029FE0FF90029EE06F70030283BA
:10840B001FE4F531F532AB37AA38A9390532E5321D
:10841B00AE3170020531142406F582E43EF5837407
:10842B0001122D090532E532AE31700205311424EB
:10843B0006F582E43EF583E4122D090532E532AEF2
:10844B003170020531142406F582E43EF583E41203
:10845B002D090532E532AE3170020531142406F5D3
:10846B0082E43EF583E4122D090532E532AE31701C
:10847B00020531142406F582E43EF58374C0122DF7
:10848B00090532E532AE3170020531142406F5824E
:10849B00E43EF5837408122D090532E532AE3170D6
:1084AB00020531142406F582E43EF583E4122D090E
:1084BB000532E532AE3170020531142406F582E443
:1084CB003EF583E4122D09E92406F9E43AFAE9258D
:1084DB0032F9EA3531FA12315600E1000074042505
:1084EB0032F532E43531F531AB37AA38A9390532DB
:1084FB00E532AE3170020531142406F582E43EF507
:10850B00837401122D090532E532AE31700205314B
:10851B00142406F582E43EF583E4122D090532E5B9
:10852B0032AE3170020531142406F582E43EF58338
:10853B007401122D090532E532AE3170020531148A
:10854B002406F582E43EF583E4122D090532E5326B
:10855B00AE3170020531142406F582E43EF583E456
:10856B00122D090532E532AE3170020531142406A5
:10857B00F582E43EF583E4122D090532E532AE3186
:10858B0070020531142406F582E43EF583E4122DC6
:10859B00090532E532AE3170020531142406F5823D
:1085AB00E43EF583E4122D09AD32AC317F007E063B
:0D85BB0012A08D900295E07002A3E070F612
:1085C800900CC7123125000008CAE4FFFEFDFC909C
:1085D8000CC71230DDD3122FF64017900CC712309B
:1085E800D174FFFBFAF9F8122EA3900CC7123119B7
:0285F80080D829
:1085FA007B017A0279937F007EE17D007C00128FF5
:01860A0096D9
:10860B00900CCB12312500004650E4FFFEFDFC9090
:10861B000CCB1230DDD3122FF64017900CCB12304F
:10862B00D174FFFBFAF9F8122EA3900CCB1231196F
:02863B0080D8E5
:01863D00221A
:1000A60078E77C0C7D017BFF7AAB79537E007F0974
:1000B600122C589002A01231B08B498A4A894B9073
:1000C6000014E0700302020A90029FE090029EF084
:1000D600E4F548E4F546F547E54875F003A424E75A
:1000E600F582E4340CF583E0FFAB49AA4AA94B0537
:1000F60047E547AC4670020546142406F582E43C03
:10010600F583EF122D09E54875F003A424E7F5827F
:10011600E4340CF583A3E0FF0547E547AC467002DF
:100126000546142406F582E43CF583EF122D09E515
:100136004875F003A424E9F582E4340CF583E0FF66
:100146000547E547AC4670020546142406F582E4E9
:100156003CF583EF12A082900295E07002A3E07056
:10016600F690029FE0FF90029EE06F60F49002A37B
:100176001231B090029FE0FF75F0DCA4F58285F0A5
:1001860083122E1FF54785F046EFB402047F0080E8
:100196000690029FE004FF90029FEFF0E54764019E
:1001A6007004E5466405600C90029FE0FF90029E95
:0401B600E0B507B9F0
:1001BA00900CC712312500001194E4FFFEFDFC905B
:1001CA000CC71230DDD3122FF64017900CC712302D
:1001DA00D174FFFBFAF9F8122EA3900CC712311949
:0201EA0080D8BB
:1001EC00E54764017004E546640560030200D90527
:1001FC0048E548C3940350030200D9020DD2E4F53C
:10020C0046F547AB49AA4AA94B0547E547AE4670A8
:10021C00020546142406F582E43EF5837401122D82
:10022C00090547E547AE4670020546142406F582DB
:10023C00E43EF5837402122D090547E547AE46707E
:10024C00020546142406F582E43EF583E4122D09DA
:10025C000547E547AE4670020546142406F582E4D0
:10026C003EF5837401122D090547E547AE46700231
:10027C000546142406F582E43EF583E4122D0905A7
:10028C0047E547AE4670020546142406F582E43E67
:10029C00F583E4122D090547E547AE467002054685
:1002AC00142406F582E43EF5837401122D090547EA
:1002BC00E547AE4670020546142406F582E43EF589
:1002CC00837401122D090547E547AE4670020546B9
:1002DC00142406F582E43EF583E4122D090547E566
:1002EC0047AE4670020546142406F582E43EF583BB
:1002FC00E4122D090547E547AE4670020546142465
:10030C0006F582E43EF583E4122D090547E547AE78
:10031C004670020546142406F582E43EF583E41289
:10032C002D090547E547AE4670020546142406F52F
:10033C0082E43EF5837401122D090547E547AE466C
:10034C0070020546142406F582E43EF58374061209
:10035C002D090547E547AE4670020546142406F5FF
:10036C0082E43EF583E4122D090547E547AE46705D
:10037C00020546142406F582E43EF5837401122D21
:10038C00090547E547AE4670020546142406F5827A
:10039C00E43EF583E4122D090547E547AE467002AD
:1003AC000546142406F582E43EF583E4122D090576
:1003BC0047E547AE4670020546142406F582E43E36
:1003CC00F5837401122D090547E547AE4670020509
:1003DC0046142406F582E43EF5837412122D0905A9
:1003EC0047E547AE4670020546142406F582E43E06
:1003FC00F583E4122D090547E547AE467002054624
:10040C00142406F582E43EF5837401122D09054788
:10041C00E547AE4670020546142406F582E43EF527
:10042C0083E4122D090547E547AE467002054614D4
:10043C002406F582E43EF583E4122D090547E547D1
:10044C00AE4670020546142406F582E43EF583742C
:10045C0001122D090547E547AE46700205461424E6
:10046C0006F582E43EF5837403122D090547E54732
:10047C00AE4670020546142406F582E43EF583E48C
:10048C00122D090547E547AE4670020546142406B1
:10049C00F582E43EF583E4122D090547E547AE46A7
:1004AC0070020546142406F582E43EF583E4122D11
:1004BC00090547E547AE4670020546142406F58249
:1004CC00E43EF583E4122D090547E547AE4670027C
:1004DC000546142406F582E43EF5837401122D09B9
:1004EC000547E547AE4670020546142406F582E43E
:1004FC003EF5837430122D090547E547AE46700270
:10050C000546142406F582E43EF583E4122D090514
:10051C0047E547AE4670020546142406F582E43ED4
:10052C00F583E4122D090547E547AE4670020546F2
:10053C00142406F582E43EF583E4122D090547E503
:10054C0047AE4670020546142406F582E43EF58358
:10055C00E4122D090547E547AE4670020546142402
:10056C0006F582E43EF5837401122D090547E54733
:10057C00AE4670020546142406F582E43EF58374FB
:10058C0004122D090547E547AE46700205461424B2
:10059C0006F582E43EF583E4122D090547E547AEE6
:1005AC004670020546142406F582E43EF583E412F7
:1005BC002D090547E547AE4670020546142406F59D
:1005CC0082E43EF583E4122D090547E547AE4670FB
:1005DC00020546142406F582E43EF583E4122D0947
:1005EC000547E547AE4670020546142406F582E43D
:1005FC003EF5837401122D090547E547AE4670029E
:10060C000546142406F582E43EF5837420122D0968
:10061C000547E547AE4670020546142406F582E40C
:10062C003EF583E4122D090547E547AE46700205F9
:10063C0046142406F582E43EF583E4122D090547A1
:10064C00E547AE4670020546142406F582E43EF5F5
:10065C0083E4122D090547E547AE467002054612A4
:10066C00A078900295E07002A3E070F690029FE0F3
:10067C00FF90029EE06F60F49002A31231B09002E2
:10068C009FE0FF75F0DCA4F58285F083122E1FF538
:10069C004785F046EFB402047F00800690029FE08D
:1006AC0004FF90029FEFF0E54764017004E5466497
:0F06BC0005600C90029FE0FF90029EE0B507B929
:1006CB00900CCB12312500002328E4FFFEFDFC909B
:1006DB000CCB1230DDD3122FF64017900CCB12300F
:1006EB00D174FFFBFAF9F8122EA3900CCB1231192F
:0206FB0080D8A5
:1006FD00E54764017004E5466405600302020AE4FF
:10070D00F546F547AB49AA4AA94B0547E547AE461D
:10071D0070020546142406F582E43EF58374011239
:10072D002D090547E547AE4670020546142406F52A
:10073D0082E43EF5837411122D090547E547AE4657
:10074D0070020546142406F582E43EF583E4122D6D
:10075D00090547E547AE4670020546142406F582A5
:10076D00E43EF583E4122D090547E547AE467002D8
:10077D000546142406F582E43EF583E4122D0905A1
:10078D0047E547AE4670020546142406F582E43E61
:10079D00F583E4122D090547E547AE46700205467F
:1007AD00142406F582E43EF5837401122D090547E4
:1007BD00E547AE4670020546142406F582E43EF583
:1007CD00837421122D090547E547AE467002054693
:1007DD00142406F582E43EF583E4122D090547E560
:1007ED0047AE4670020546142406F582E43EF583B5
:1007FD00E4122D090547E547AE467002054614245F
:10080D0006F582E43EF583E4122D090547E547AE72
:10081D004670020546142406F582E43EF583E41283
:10082D002D090547E547AE4670020546142406F529
:10083D0082E43EF5837401122D090547E547AE4666
:10084D0070020546142406F582E43EF583742212E7
:10085D002D090547E547AE4670020546142406F5F9
:10086D0082E43EF583E4122D090547E547AE467057
:10087D00020546142406F582E43EF583E4122D09A3
:10088D000547E547AE4670020546142406F582E499
:10089D003EF583E4122D090547E547AE4670020586
:1008AD0046142406F582E43EF583E4122D0905472E
:1008BD00E547AE4670020546142406F582E43EF582
:1008CD0083740A122D090547E547AE4670020546A9
:1008DD00142406F582E43EF5837407122D090547AD
:1008ED00E547AE4670020546142406F582E43EF552
:1008FD0083E4122D090547E547AE467002054614FF
:10090D002406F582E43EF583E4122D090547E547FB
:10091D00AE4670020546142406F582E43EF583E4E6
:10092D00122D090547E547AE46700205461424060B
:10093D00F582E43EF583E4122D090547E547AE4601
:10094D0070020546142406F582E43EF583740A12FE
:10095D002D090547E547AE4670020546142406F5F8
:10096D0082E43EF5837408122D090547E547AE462E
:10097D0070020546142406F582E43EF583E4122D3B
:10098D00090547E547AE4670020546142406F58273
:10099D00E43EF583E4122D090547E547AE467002A6
:1009AD000546142406F582E43EF583E4122D09056F
:1009BD0047E547AE4670020546142406F582E43E2F
:1009CD00F583E4122D090547E547AE46700205464D
:1009DD00142406F582E43EF583740A122D090547A9
:1009ED00E547AE4670020546142406F582E43EF551
:1009FD00837402122D090547E547AE467002054680
:100A0D00142406F582E43EF583E4122D090547E52D
:100A1D0047AE4670020546142406F582E43EF58382
:100A2D00E4122D090547E547AE467002054614242C
:100A3D0006F582E43EF583E4122D090547E547AE40
:100A4D004670020546142406F582E43EF583E41251
:100A5D002D090547E547AE4670020546142406F5F7
:100A6D0082E43EF583740A122D090547E547AE462B
:100A7D0070020546142406F582E43EF583740912CE
:100A8D002D090547E547AE4670020546142406F5C7
:100A9D0082E43EF583E4122D090547E547AE467025
:100AAD00020546142406F582E43EF583E4122D0971
:100ABD000547E547AE4670020546142406F582E467
:100ACD003EF583E4122D090547E547AE4670020554
:100ADD0046142406F582E43EF583E4122D090547FC
:100AED00E547AE4670020546142406F582E43EF550
:100AFD0083740A122D090547E547AE467002054677
:100B0D00142406F582E43EF5837401122D09054780
:100B1D00E547AE4670020546142406F582E43EF51F
:100B2D0083E4122D090547E547AE467002054614CC
:100B3D002406F582E43EF583E4122D090547E547C9
:100B4D00AE4670020546142406F582E43EF583E4B4
:100B5D00122D090547E547AE4670020546142406D9
:100B6D00F582E43EF583E4122D090547E547AE46CF
:100B7D0070020546142406F582E43EF583740A12CC
:100B8D002D090547E547AE4670020546142406F5C6
:100B9D0082E43EF5837403122D090547E547AE4601
:100BAD0070020546142406F582E43EF583E4122D09
:100BBD00090547E547AE4670020546142406F58241
:100BCD00E43EF583E4122D090547E547AE46700274
:100BDD000546142406F582E43EF583E4122D09053D
:100BED0047E547AE467002054612A078900295E0A3
:100BFD007002A3E070F690029FE0FF90029EE06FFE
:100C0D0060F49002A31231B090029FE0FF75F0DC0A
:100C1D00A4F58285F083122E1FF54785F046EFB4BB
:100C2D0002047F00800690029FE004FF90029FEF78
:100C3D00F0E54764017004E5466405600C90029F81
:090C4D00E0FF90029EE0B507B93A
:100C5600900CCF12312500002328E4FFFEFDFC9006
:100C66000CCF1230DDD3122FF64017900CCF123076
:100C7600D174FFFBFAF9F8122EA3900CCF1231199A
:020C860080D814
:100C8800E54764017004E5466405600302070CE467
:100C9800F546F547AB49AA4AA94B0547E547AE468D
:100CA80070020546142406F582E43EF58374FA12B0
:100CB8002D090547E547AE4670020546142406F59A
:100CC80082E43EF583E4122D090547E547AE4670F8
:100CD800020546142406F582E43EF5837401122DBC
:100CE800090547E547AE4670020546142406F58215
:100CF800E43EF583E4122D090547E547AE46700248
:100D08000546142406F582E43EF5837401122D0984
:100D18000547E547AE4670020546142406F582E409
:100D28003EF583E4122D097F0812A087900295E012
:100D38007002A3E070F690029FE0FF90029EE06FC1
:100D480060F49002A31231B090029FE0FF75F0DCCE
:100D5800A4F58285F083122E1FF54785F046EFB47F
:100D680002047F00800690029FE004FF90029FEF3C
:100D7800F0E54764017004E5466405600C90029F45
:090D8800E0FF90029EE0B507B9FE
:100D9100900CD312312500001194E4FFFEFDFC906C
:100DA1000CD31230DDD3122FF64017900CD3123032
:100DB100D174FFFBFAF9F8122EA3900CD31231195A
:020DC10080D8D8
:0F0DC300E54764017004E54664056003020C9780
:100DD200900CA7E0FBE4FAF9F87F807E967D98FC00
:100DE20012AAA98F4F8E4E8D4D8C4C780812301D51
:100DF200E4FFE4FDFCC004C005C006C007AF4FAE6F
:100E02004EAD4DAC4C781812301DE4FEFDFCD00303
:100E1200D002D001D000122FDBC004C005C006C032
:100E220007AF4FAE4EAD4DAC4C7808123030E4FFF8
:100E3200FEE4FCD003D002D001D000122FDBC004AC
:100E4200C005C006C007AF4FAE4EAD4DAC4C7818D2
:100E5200123030E4FFFEFDECD003D002D001D0000E
:100E6200122FDBAB49AA4AA94B9000061230ADE41F
:100E7200754F0AF54EF54DF54CAF4FAE4EAD4DAC3C
:100E82004C780812301DE4FFE4FDFCC004C005C02C
:100E920006C007AF4FAE4EAD4DAC4C781812301DA8
:100EA200E4FEFDFCD003D002D001D000122FDBC043
:100EB20004C005C006C007AF4FAE4EAD4DAC4C7876
:100EC20008123030E4FFFEE4FCD003D002D001D09F
:100ED20000122FDBC004C005C006C007AF4FAE4EE4
:100EE200AD4DAC4C7818123030E4FFFEFDECD0036F
:100EF200D002D001D000122FDBAB49AA4AA94B90F5
:100F0200000A1230AD7546007547080547E547AE41
:100F12004670020546142406F582E43EF583740108
:100F2200122D090547E547AE467002054614240610
:100F3200F582E43EF5837401122D090547E547AEBB
:100F42004670020546142406F582E43EF583E41257
:100F52002D090547E547AE4670020546142406F5FD
:100F620082E43EF583E4122D090547E547AE46705B
:100F7200020546142406F582E43EF5837432122DEE
:100F8200090547E547AE4670020546142406F58278
:100F9200E43EF583E4122D090547E547AE467002AB
:100FA2000546142406F582E43EF5837434122D09B5
:100FB2000547E547AE4670020546142406F582E46D
:100FC2003EF5837403122D090547E547AE467002CC
:100FD2000546142406F582E43EF583E4122D090544
:100FE20047E547AE4670020546142406F582E43E04
:100FF200F583E4122D090547E547AE467002054622
:10100200142406F582E43EF583E4122D090547E532
:1010120047AE4670020546142406F582E43EF58387
:10102200E4122D09AD47AC467F077E0612A08D90D3
:101032000295E07002A3E070F690029FE0FF90023A
:101042009EE06F60F49002A31231B090029FE0FF25
:1010520075F0DCA4F58285F083122E1FF54785F02A
:1010620046EFB402047F00800690029FE004FF90E6
:10107200029FEFF0E54764017004E5466405600CE9
:0C10820090029FE0FF90029EE0B507B9CD
:10108E00900CD712312500001194E4FFFEFDFC9068
:10109E000CD71230DDD3122FF64017900CD712302A
:1010AE00D174FFFBFAF9F8122EA3900CD712311956
:0210BE0080D8D8
:1010C000E54764017004E54664056003020DD290B3
:1010D0000014E070030217E5E4F546F547AB49AAB2
:1010E0004AA94B0547E547AE46700205461424065B
:1010F000F582E43EF583E4122D090547E547AE4647
:1011000070020546142406F582E43EF583E4122DB0
:10111000090547E547AE4670020546142406F582E8
:10112000E43EF583E4122D090547E547AE4670021B
:101130000546142406F582E43EF583E4122D0905E4
:1011400047E547AE4670020546142406F582E43EA4
:10115000F5837440122D090547E547AE4670020538
:1011600046142406F582E43EF583741F122D09050A
:1011700047E547AE4670020546142406F582E43E74
:10118000F58374E8122D090547E547AE4670020560
:1011900046142406F582E43EF5837403122D0905F6
:1011A00047E547AE4670020546142406F582E43E44
:1011B000F5837498122D090547E547AE4670020580
:1011C00046142406F582E43EF583743A122D09058F
:1011D00047E547AE4670020546142406F582E43E14
:1011E000F58374B0122D090547E547AE4670020538
:1011F00046142406F582E43EF5837404122D090595
:1012000047E547AE4670020546142406F582E43EE3
:10121000F58374E8122D090547E547AE46700205CF
:1012200046142406F582E43EF5837403122D090565
:1012300047E547AE4670020546142406F582E43EB3
:10124000F5837403122D090547E547AE4670020584
:1012500046142406F582E43EF583E4122D09AD47D9
:10126000AC467F257E0612A08D900295E07002A309
:10127000E070F690029FE0FF90029EE06F60F490B5
:1012800002A31231B090029FE0FF75F0DCA4F5825A
:1012900085F083122E1FF54785F046EFB402047FD8
:1012A00000800690029FE004FF90029FEFF0E54768
:1012B00064017004E5466405600C90029FE0FF90B5
:0612C000029EE0B507B933
:1012C600900CDB12312500001194E4FFFEFDFC902A
:1012D6000CDB1230DDD3122FF64017900CDB1230E8
:1012E600D174FFFBFAF9F8122EA3900CDB12311918
:0212F60080D89E
:1012F800E54764017004E546640560030210D805FB
:1013080047E54770020546E4F546F547AB49AA4A62
:10131800A94B0547E547AE4670020546142406F575
:1013280082E43EF583E4122D090547E547AE467091
:10133800020546142406F582E43EF583E4122D09DD
:101348000547E547AE4670020546142406F582E4D3
:101358003EF583E4122D090547E547AE46700205C0
:1013680046142406F582E43EF583E4122D09054768
:10137800E547AE4670020546142406F582E43EF5BC
:1013880083E4122D090547E547AE46700205461469
:101398002406F582E43EF583E4122D090547E54766
:1013A800AE4670020546142406F582E43EF583E451
:1013B800122D090547E547AE467002054614240676
:1013C800F582E43EF583E4122D09AD47AC467F165D
:1013D8007E0612A08D900295E07002A3E070F69050
:1013E800029FE0FF90029EE06F60F49002A312312A
:1013F800B090029FE0FF75F0DCA4F58285F08312BF
:101408002E1FF54785F046EFB402047F0080069052
:10141800029FE004FF90029FEFF0E547640170042B
:10142800E5466405600C90029FE0FF90029EE0B5DF
:0214380007B9F2
:10143A00900CDF12312500001194E4FFFEFDFC90B0
:10144A000CDF1230DDD3122FF64017900CDF12306A
:10145A00D174FFFBFAF9F8122EA3900CDF1231199E
:02146A0080D828
:10146C00E54764017004E5466405600302130FE46C
:10147C00F546F547AB49AA4AA94B0547E547AE46A1
:10148C0070020546142406F582E43EF583740512B9
:10149C002D090547E547AE4670020546142406F5AE
:1014AC0082E43EF583E4122D090547E547AE46700C
:1014BC00020546142406F582E43EF5837404122DCD
:1014CC00090547E547AE4670020546142406F58229
:1014DC00E43EF5837402122D09E92406F9E43AFA84
:1014EC00E92547F9EA3546FA12315650C300007423
:1014FC00042547F547E43546F546AB49E54B24064C
:10150C00F9E4354AFAE92547F9EA3546FA12315633
:10151C000000000074042547F547E43546F546AB5A
:10152C0049AA4AA94B0547E547AE46700205461441
:10153C002406F582E43EF5837405122D090547E572
:10154C0047AE4670020546142406F582E43EF58348
:10155C00E4122D09E92406F9E43AFAE92547F9EAF7
:10156C003546FA74FA75F000122E5774022547F5B9
:10157C0047E43546F546AB49E54B2406F9E4354AD4
:10158C00FAE92547F9EA3546FA74FA75F000122E95
:10159C005774022547F547E43546F546AB49E54B0C
:1015AC002406F9E4354AFAE92547F9EA3546FA748E
:1015BC006475F000122E5774022547F547E4354642
:1015CC00F546AB49E54B2406F9E4354AFAE92547DB
:1015DC00F9EA3546FA742C75F001122E577402256F
:1015EC0047F547E43546F546AB49AA4AA94B0547AA
:1015FC00E547AE4670020546142406F582E43EF536
:10160C0083E4122D090547E547AE467002054614E2
:10161C002406F582E43EF583E4122D090547E547DF
:10162C00AE4670020546142406F582E43EF583E4CA
:10163C00122D090547E547AE4670020546142406EF
:10164C00F582E43EF583E4122D090547E547AE46E5
:10165C0070020546142406F582E43EF583E4122D4F
:10166C00090547E547AE4670020546142406F58287
:10167C00E43EF583E4122D090547E547AE467002BA
:10168C000546142406F582E43EF583E4122D090583
:10169C0047E547AE4670020546142406F582E43E43
:1016AC00F583E4122D090547E547AE467002054661
:1016BC00142406F582E43EF583E4122D090547E572
:1016CC0047AE4670020546142406F582E43EF583C7
:1016DC00E4122D090547E547AE4670020546142471
:1016EC0006F582E43EF583E4122D090547E547AE85
:1016FC004670020546142406F582E43EF583E41296
:10170C002D090547E547AE4670020546142406F53B
:10171C0082E43EF583E4122D090547E547AE467099
:10172C00020546142406F582E43EF583E4122D09E5
:10173C00AD47AC467F247E0612A08D900295E070DA
:10174C0002A3E070F690029FE0FF90029EE06F60B3
:10175C00F49002A31231B090029FE0FF75F0DCA46C
:10176C00F58285F083122E1FF54785F046EFB40203
:10177C00047F00800690029FE004FF90029FEFF030
:10178C00E54764017004E5466405600C90029FE037
:08179C00FF90029EE0B507B9C1
:1017A400900CE312312500001194E4FFFEFDFC903F
:1017B4000CE31230DDD3122FF64017900CE31230F5
:1017C400D174FFFBFAF9F8122EA3900CE31231192D
:0217D40080D8BB
:0F17D600E54764017004E5466405600302147B77
:0117E50022E1
:10A07800142406F582E43EF583E4122D097F01AD30
:05A0880047AC467E0616
:08A08D008E508F518C528D534F
:10A095009002A01231B074B5122CF79002A01231C3
:10A0A500B09000017462122D09E550900002122D46
:10A0B50009E551900003122D09E553900004122D76
:10A0C50009E552900005122D09E4F555F5547F0276
:10A0D500FEE5532406FDE43552FCC3EF9DEE9C508E
:10A0E5001C9002A01231B08F828E83122C972554BA
:10A0F500F5542555F5550FBF00010E80D49002A0EB
:10A105001231B0E5532406FFE435528F82F583E51D
:10A1150054122D09E5532407FFE435528F82F58348
:10A12500E555122D097B017A027993E5532408FD43
:07A13500E43552FC02A7EA29
:064935008B318A32893348
:10493B00900DD6E0700804F01200A6024FAFAB3119
:10494B00AA32A933122DF4123271496501024C5867
:0A495B0001064D39011200004FA9BA
:1049650074062533F533E43532F53275370075387D
:104975000075393FE4F53AF53B7831E475F00112FD
:1049850031A0122C7EFF783774FFF5F01231A0EFBD
:10499500122CF7053BE53B7002053A6404453A7075
:1049A500D8AC3CEC3350047F0180027F008F40AFD0
:1049B5003FAE3EAD3DAC3CEC334002800BAF3FAE6D
:1049C5003EAD3DAC3C122FE88F3F8E3E8D3D8C3C7D
:1049D500AB34AA35A93690000A12317000000000E8
:1049E500E4F53AF53BAB34E536240AF9E43535FA16
:1049F500C003C002C001123043C004C005C006C0D8
:104A050007E47B0AFAF9F8AF3FAE3EAD3DAC3C1288
:104A1500AAA9AC00AD01AE02AF03C004C005C00633
:104A2500C007E53BAE3A7802C333CE33CED8F9247E
:104A35005CF58274AB3EF5831230E9D007D006D021
:104A450005D004122EBEA804A905AA06AB07D007F7
:104A5500D006D005D004122EA3D001D002D0031267
:104A65003093AF3FAE3EAD3DAC3CE47B0AFAF9F87E
:104A750012AAA98F3F8E3E8D3D8C3C053BE53B70D0
:104A850002053A640A453A60030249EAE5406015C1
:104A9500AB34AA35A93690000A123063122FE8907C
:104AA500000A1230AD75370075380075393FE4F5E9
:104AB5003AF53B7831E475F0011231A0122C7EFFF6
:104AC500783774FFF5F01231A0EF122CF7053BE5AE
:104AD5003B7002053A6404453A70D8AC3CEC33505F
:104AE500047F0180027F008F40AF3FAE3EAD3DACFD
:104AF5003CEC334002800BAF3FAE3EAD3DAC3C12CB
:104B05002FE88F3F8E3E8D3D8C3CAB34AA35A936C0
:104B150090000612317000000000E4F53AF53BAB59
:104B250034E5362406F9E43535FAC003C002C00180
:104B3500123043C004C005C006C007E47B0AFAF979
:104B4500F8AF3FAE3EAD3DAC3C12AAA9AC00AD01FD
:104B5500AE02AF03C004C005C006C007E53BAE3AD0
:104B65007802C333CE33CED8F9245CF58274AB3EDC
:104B7500F5831230E9D007D006D005D004122EBE39
:104B8500A804A905AA06AB07D007D006D005D0040E
:104B9500122EA3D001D002D003123093AF3FAE3E08
:104BA500AD3DAC3CE47B0AFAF9F812AAA98F3F8E19
:104BB5003E8D3D8C3C053BE53B7002053A640A455C
:104BC5003A6003024B24E5406015AB34AA35A9369B
:104BD500900006123063122FE89000061230AD7473
:104BE500042533F533E43532F53275370075380071
:104BF50075393FE4F53AF53B7831E475F00112314A
:104C0500A0122C7EFF783774FFF5F01231A0EF1259
:104C15002CF7053BE53B7002053A6404453A70D82C
:104C2500AF3FAE3EAD3DAC3CE47BE87A03F9F8120C
:104C3500AAA98F3F8E3E8D3D8C3CAB34AA35A93653
:104C450090000EEE8FF0122E769002EEE04404F006
:104C5500024FAFAB31AA32A93390002F122C97FE29
:104C650090002E122C977C002400FFEC3E9002BD94
:104C7500F0A3EFF0900031122C97900CADF0740278
:104C85002533F533E43532F532FAA93390000B12AA
:104C95002C97540D640D6008E4900CADF0024D2F77
:104CA500E5362403F9E43535853437F5388939E4B3
:104CB500F53AF53B7831E475F0011231A0122C7EFE
:104CC500FF783774FFF5F01231A0EF122CF7053B92
:104CD500E53B7002053A6404453A70D874042533FF
:104CE500F533E43532F532E5362404F9E43535FAA1
:104CF500E92401F9E43A853437F5388939E4F53A98
:104D0500F53B7831E475F0011231A0122C7EFF7865
:104D15003774FFF5F01231A0EF122CF7053BE53B98
:104D25007002053A6402453A70D89002EEE04402FA
:044D3500F0024FAF8A
:104D390074062533F533E43532F532AB31FAA9334C
:104D49001230438F3F8E3E8D3D8C3C780812301DCA
:104D5900E4FFE4FDFCC004C005C006C007AF3FAED8
:104D69003EAD3DAC3C781812301DE4FEFDFCD0038D
:104D7900D002D001D000122FDBC004C005C006C08C
:104D890007AF3FAE3EAD3DAC3C7808123030E4FF92
:104D9900FEE4FCD003D002D001D000122FDBC00406
:104DA900C005C006C007AF3FAE3EAD3DAC3C78186C
:104DB900123030E4FFFEFDECD003D002D001D00068
:104DC900122FDB8F3F8E3E8D3D8C3CE47B64FAF9DC
:104DD900F812AAA98F3F8E3E8D3D8C3C8E428F439F
:104DE90074042533F533E43532F532AB31FAA9339E
:104DF9001230438F3F8E3E8D3D8C3C780812301D1A
:104E0900E4FFE4FDFCC004C005C006C007AF3FAE27
:104E19003EAD3DAC3C781812301DE4FEFDFCD003DC
:104E2900D002D001D000122FDBC004C005C006C0DB
:104E390007AF3FAE3EAD3DAC3C7808123030E4FFE1
:104E4900FEE4FCD003D002D001D000122FDBC00455
:104E5900C005C006C007AF3FAE3EAD3DAC3C7818BB
:104E6900123030E4FFFEFDECD003D002D001D000B7
:104E7900122FDB8F3F8E3E8D3D8C3CE47B64FAF92B
:104E8900F812AAA98F3F8E3E8D3D8C3C8E408F41F2
:104E990074042533F533E43532F532AB31FAA933ED
:104EA9001230438F3F8E3E8D3D8C3C780812301D69
:104EB900E4FFE4FDFCC004C005C006C007AF3FAE77
:104EC9003EAD3DAC3C781812301DE4FEFDFCD0032C
:104ED900D002D001D000122FDBC004C005C006C02B
:104EE90007AF3FAE3EAD3DAC3C7808123030E4FF31
:104EF900FEE4FCD003D002D001D000122FDBC004A5
:104F0900C005C006C007AF3FAE3EAD3DAC3C78180A
:104F1900123030E4FFFEFDECD003D002D001D00006
:104F2900122FDB8F3F8E3E8D3D8C3CE47B64FAF97A
:104F3900F812AAA98F3F8E3E8D3D8C3CC3E49FF5A4
:104F490045E49EF544E5405407FEE47803CEC313D7
:104F5900CE13D8F9AB34AA35A936900010122D0911
:104F6900E5425407FEE47806CEC313CE13D8F99070
:104F79000010122CC4E5445403900010122CC4E50F
:104F890041900011122D09E543900012122D09E5F7
:0E4F990045900013122D099002EEE04401F045
:104FA7008006753A00753B019002EEE064076003E6
:104FB70002516BF0900CADE060030250E6900000E8
:104FC700E075F015A424C2F9740235F0FA7B01A844
:104FD70036AC35AD347E007F15122C58AB34AA356C
:104FE700A936123043EF24FAFFE43EFEE43DFDE428
:104FF7003CFC123093900000E0640175F015A42486
:10500700C2F582E43402F5831230D1E4FBFAF9F8F1
:10501700C312300C70030250E6AB34E5362406F9B0
:10502700E43535FAC003C002C001123043C004C0E2
:1050370005C006C007900000E0FF640175F015A4E5
:1050470024C8F582E43402F5831230DDEF75F015DC
:10505700A424C8F582E43402F5831230D1122EB0AD
:10506700A804A905AA06AB07D007D006D005D00427
:10507700122EA3D001D002D003123093AB34E53601
:10508700240AF9E43535FAC003C002C001123043DF
:10509700C004C005C006C007900000E0FF640175AA
:1050A700F015A424CCF582E43402F5831230DDEF49
:1050B70075F015A424CCF582E43402F5831230D1BF
:1050C700122EB0A804A905AA06AB07D007D006D0B0
:1050D70005D004122EA3D001D002D0031230939032
:1050E7000000E06401F0E075F015A424C2F9740231
:1050F70035F0A801FC7D01AB34AA35A9367E007FC7
:1051070015122C58908B5EE493FF3395E0FE9002C6
:105117008D75F013EF123194EE75F013A42583F516
:10512700831231B0E92407F9E43A8B37F538893926
:10513700900CADE0FF7837E475F0011231A0EF1263
:105147002CF7A839AC38AD37AB34AA35A9367E0071
:105157007F15122C58754C00754D167B227D037FE9
:04516700021293A9F4
:01516B002221
:10ABDC00EF6004D2B18002C2B1E4FF0FBF14FCC21B
:10ABEC00B2E4FF0FBF14FCE4FEB2B1E4FF0FBF14DC
:07ABFC00FC0EBE85F4D2B28D
:01AC0300222E
:10AC6000AF84E4F58475C04475CFEC43C040C2C3E3
:05AC700043E6028F84A1
:01AC750022BC
:03003B00029577B4
:10957700C0E0C083C082C0D075D000C000C001C0A9
:0795870002C003C006C0078B
:10958E00C200AFC1EF12324B95DC0895DC1095FD91
:10959E0018962B2095FD28962B30969A38963240A9
:1095AE00962D48963250966B58969F60969F709661
:1095BE00AD8096FA8896AD9096FA98972CA096FE66
:1095CE00A896FEB89712C0972CC80000969A9000E5
:1095DE003DE0F5C2900048E4F053C2FEA20C3342C7
:1095EE00C2C2C590003FE4F090003EF002972C906E
:1095FE000040E0FF90003EE0FEC39F5019900042F5
:10960E001231B08E82758300122C97F5C290003EF7
:10961E00E004F002972CD2C4C20B02972CD2C5D212
:10962E00C502972C90003FE0601624FFFFE434FF44
:10963E00FE9000451231B08F828E83E5C2122D0945
:10964E0090003FE004F0900041E0FF90003FE0C347
:10965E009F5005D2C202972CC2C202972C90003F97
:10966E00E024FFFFE434FFFE9000451231B08F82FC
:10967E008E83E5C2122D0990003FE004F090004861
:10968E007401F0D2C4C20BD2C202972CD200029740
:10969E002C900048E4F090003EF0A3F002972C903E
:1096AE00003FE0FF700D900041E5C2F0900048E4ED
:1096BE00F08017EF24FFFFE434FFFE9000451231D7
:1096CE00B08F828E83E5C2122D0990003FE004F028
:1096DE00900041E0FF90003FE0D39F400B90004888
:1096EE007401F090003FE4F0D2C28032D2C2802EDC
:1096FE009000421231B090003EE0FF04F08F827570
:10970E008300801590003EE024FFFFE434FFFE90BE
:10971E0000421231B08F828E83122C97F5C2300028
:10972E001053C0BF43C040C2C5C2C4C2C2C20BC2E6
:03973E0000C2C3A3
:10974100D007D006D003D002D001D000D0D0D08233
:05975100D083D0E032DE
:10AC4700AF84E4F584D2C6200BFDD20BC20C900072
:08AC57003DE0F5C3D2C58F8476
:01AC5F0022D2
:10AC2B00AF84E4F584D2C6200BFDD20BD20C90007E
:0BAC3B003DE0F5C3D2C5200BFD8F8467
:01AC460022EB
:10A0630002080001010C00020D0000420DD30000A4
:04A07300410DD500C6
:06A7EA008B568A578958C6
:10A7F000858459AB56AA57A958900002122E1F45BE
:10A80000F070F0AB56AA57A95890000D1231C2C093
:10A8100003C002C001AB56AA57A9589000071231D5
:10A82000F2AB56AA57A958900002EC8DF0122E7682
:10A83000122C7E7006F584D2998005758401D29918
:03A84000855984B3
:01A8430022F2
:10003E00AE84E4F5848F9B30FFFDC2FFAF9B8E84B0
:01004E00228F
:10A84400AF8475840F759601758C67E4FDFC0DBDAE
:10A8540000010CE4B505F7ECB401F3E58C30E7FB3B
:10A86400759701E4F58A758905F58475B7207584B3
:10A874000F758D01758F01758E03FCFD0DBD0001F3
:10A884000CE4B505F7ECB401F3438902E58930E43F
:06A89400FB7597028F84A2
:01A89A00229B
:0E8F96008B428A4389448F488E478D468C4516
:108FA400858449122C7E14606F046003029196E458
:108FB400F58475911590000A122C9724BB6018242F
:108FC400F6601424EA601024F76007146009242171
:108FD400700875985080037598D0E4F58475C804BA
:108FE40075C908AB48AA47A946A845FFFE7D657C1C
:108FF40004122F49E47B10FAF9F8122F49122FE8D2
:109004008ECB8FCA74FFF5CDF5CCD2CAE4F584C2F9
:1090140099C298D2AC029196758401AB42AA43A935
:109024004490000A122C9724BB601824F660142480
:10903400EA601024F7600714600924217008759809
:10904400108003759890E4F58453890F438920AB0D
:1090540048AA47A946A845FFFE7D657C04122F490E
:10906400E47B02FAF9F8122F49E4FB7A01F9F812C9
:109074002F49E47B01FAF9F8D312300C4026AB48AF
:10908400AA47A946A845E4FFFE7D657C04122F4942
:10909400E47B02FAF9F8122F49122FE88F8D438EE0
:1090A40010029187AB48AA47A946A845E4FFFE7D74
:1090B400657C04122F49E47B02FAF9F8122F49E483
:1090C400FB7A01F9F8122F49E47B04FAF9F8D31278
:1090D400300C4031AB48AA47A946A845E4FFFE7DC1
:1090E400657C04122F49E47B02FAF9F8122F49E453
:1090F4007B04FAF9F8122F49122FE88F8D538EEC66
:10910400438E01807EAB48AA47A946A845E4FFFEEA
:109114007D657C04122F49E47B02FAF9F8122F4989
:10912400E4FB7A01F9F8122F49E47B0CFAF9F8D33D
:1091340012300CAB48AA47A946A845E4FFFE7D655A
:109144007C04401F122F49E47B02FAF9F8122F49DC
:10915400E47B0CFAF9F8122F49122FE88F8D538E05
:10916400EC8020122F49E47B02FAF9F8122F49E42B
:109174007B30FAF9F8122F49122FE88F8D538EECB9
:10918400438E02858D8BD28E758401C299C2984319
:05919400E7408549845D
:0191990022B3
:10002600AF84E4F584759D04759A70C2FFD2F88F8B
:010036008445
:0100370022A6
:10ABB200AD84758401E4F5C8F5C9EF2408FFE43ECD
:10ABC200FEC3E49FFFE49EF5CB8FCA74FFF5CDF57B
:09ABD200CC43E70143C8048D8463
:01ABDB002257
:0300230002919AAD
:10919A00C0E0C0F0C083C082C0D075D000C000C09B
:0D91AA0001C002C003C004C005C006C0071C
:1091B700E59820E0030293318599275398FEE50847
:1091C70060030292FEE50924FE60631470030292B5
:1091D700661470030292CB240360030292FE750D9E
:1091E70000750E00E527641660030292FE90028B5D
:1091F700E0FF7E007C027D1D122D2B900290123124
:10920700B0E92FF9EA3E8B0FF5108911FA050EE543
:109217000EAE0D7002050D14F5828E83E527122D13
:1092270009E527620C7508007509020292FEAB0F6B
:10923700AA10A911050EE50EAE0D7002050D14F565
:10924700828E83E527122D09E527620CE50E640659
:10925700450D60030292FEF5087509030292FEAB05
:109267000FAA10A911050EE50EAE0D7002050D141B
:10927700F5828E83E527122D09630CFFE50C652720
:109287007031AB0FAA10A911900003122C97750A21
:1092970000F50B750B00F50A900004122C97250BAF
:1092A700F50BE4350AF50A450B60467508007509A4
:1092B700048044750D00750E007508007509017569
:1092C7000C008033D2B4AB0FAA10A911050EE50E1E
:1092D700AE0D7002050D14F5828E83E527122D0958
:1092E700E50B2407FFE4350AFEEFB50E0AEEB50DD0
:1092F70006750800750905E50964054508702BC260
:10930700B4F508750901F50DF50EF50C90028412F8
:1093170031B0E94A4B7013AB0FAA10A91190028420
:109327001231B990028BE06401F0E59830E13E908C
:109337000282E07002A3E06023D2B4900287123168
:10934700B0122C7EF599900288E475F001122DC8B1
:1093570090028274FFF5F0122DC8800EC2B47B0014
:0D9367007A0079009002871231B95398FD09
:10937400D007D006D005D004D003D002D001D0004D
:0B938400D0D0D082D083D0F0D0E032F7
:0300A300028D5F6C
:108D5F00C0E0C0F0C083C082C0D075D000C000C0DA
:098D6F0001C002C003C006C007E8
:108D7800E59820E003028F0A859928900DD5E01226
:108D8800324B8DA9008DBA018DCD028E1D038E4AFE
:108D9800048E63058E8A068ECB078EDC0800008F52
:108DA80007E52864B56003028F07900DD504F0022B
:108DB8008F07E528900DD5B462067402F0028F077C
:108DC800E4F0028F07751800751700900DD3E4F0D2
:108DD800A3F090029EE075F0DCA4FF9002A312318C
:108DE800B0E92FF9EA35F08B12F5138914FA900DD2
:108DF800D3E475F001122DDE85F082F583E52812A3
:108E08002D09E5282517F5172518F518900DD5749F
:108E180003F0028F07AB12AA13A914900DD3E475BF
:108E2800F001122DDE85F082F583E528122D09E583
:108E3800282517F5172518F518900DD57404F00294
:108E48008F07751500852816E5282517F5172518A5
:108E5800F518900DD57405F0028F07E528FEE42576
:108E680016F516EE3515F515E5282517F517251805
:108E7800F518E5164515900DD5700280417406F079
:108E8800807DAB12AA13A914900DD3E475F00112DA
:108E98002DDE85F082F583E528122D09E5282517B2
:108EA800F5172518F518E5162402FFE43515FE9088
:108EB8000DD3E06E7003A3E06F7044900DD5740776
:108EC800F0803CE517900DD5B528057408F0802F83
:048ED800E4F0802B17
:108EDC0090029EE0FFB402067E007F008003EF0448
:108EEC00FF8F29E518B5280E90029FE065296006D2
:0B8EFC0090029EE529F0900DD5E4F0F7
:108F07005398FEE59830E170900295E07002A3E077
:108F1700605790029DE024BB601A24E0601624F697
:108F270060042420702290029A1231B0122C7E30F5
:108F3700E00E801190029A1231B0122C7E30E005BB
:108F470043980480035398FB90029A1231B0122C75
:108F57007EF59990029BE475F001122DC890029559
:108F670074FFF5F0122DC8800C7B007A0079009011
:088F7700029A1231B95398FD72
:108F7F00D007D006D003D002D001D000D0D0D082FD
:078F8F00D083D0F0D0E032E6
:0300730002A1ECFB
:10A1EC00C0E0C0F0C083C082C0D075D000C000C039
:03A1FC0006C00793
:10A1FF0075840153C87F90026AE475F001122DC86F
:10A20F009002BAE0FEA3E0FF90026AE0B50619A340
:10A21F00E0B507149002BAE475F0A0122DC89000B3
:10A22F0049E475F001122DC8E4FFFE74242FF58266
:10A23F00E4340CF583E0600D74242FF582E4340CC4
:10A24F00F583E014F00FBF00010EEF64034E70DBD7
:10A25F0075840F20E816C39002C1E094FF9002C0EE
:10A26F00E094FF5007E475F001122DC87584007556
:06A27F00BB00C2EDD2ECB1
:10A28500D007D006D000D0D0D082D083D0F0D0E097
:01A295003296
:10260B000229D1E86480F8E933E83360110460F003
:10261B00ED33EC337009E8FCE9FDEAFEEBFF220435
:10262B0060DED3EB9FEA9EE99DE8C2E78CF0C2F730
:10263B0095F0400CE8CCF8E9CDF9EACEFAEBCFFBFC
:10264B0012299C85D0F05804700320D5B3E8047090
:10265B00075002B2D50229DB92D5EC0460F7E4CC2B
:10266B00C0E0C398F8603B94186008400DD0E0FBC5
:10267B000229B3E4FBFAC9FC8028E830E406E4C97C
:10268B00FBE4CAFCE830E305E4C9CACBFCE8540719
:10269B006010F8C3E913F9EA13FAEB13FBEC13FC24
:1026AB00D8F130F52FC3E49CFCEF9BFFEE9AFEEDC7
:1026BB0099FDD0E0FBEF4E4D4C701222DB0302294B
:1026CB00D8EC2CFCEF33FFEE33FEED33FDED30E7B2
:1026DB00EB0229B3EF2BFFEE3AFEED39FDD0E0FB19
:1026EB0050130BBB00030229DBED13FDEE13FEEFC2
:0826FB0013FFEC13FC0229B3EC
:10270300EC4D6011E8497017ED33EC3304600DE4D0
:10271300FCFFFEFD22E933E8330470F80229D112ED
:10272300299C58046009E4CC2481500628500902EE
:1027330029DB2840030229D8C0E0EB4A7044B98062
:1027430006D0E0FB0229C7EF4E701CBD8008EBFFEB
:10275300EAFEE9FD80EBE98DF0A4FEE5F00227EC4B
:10276300E9CDF9EAFEEBFFEF89F0A4FCE5F0CE89B1
:10277300F0A42EFFE435F0CD89F0A42DFEE435F06E
:102783008067EF4E7005BD80D780C3EF8BF0A4AC9C
:10279300F0EE8BF0A42CFCE435F0F8EF8AF0A42CD7
:1027A300E5F038FCE433CB8DF0A42CFCE5F03BF8EA
:1027B300EE8AF0A42CFCE5F038F8E433CF89F0A4DA
:1027C3002CFCE5F038CF3400CE89F0A42FFFE5F0E0
:1027D3003EFEE433C98DF0A42EFEE5F039CD8AF038
:1027E300A42FFFE5F03EFEE43DFD33D0E0FB5007B0
:1027F3000BBB000F0229DBEC2CFCEF33FFEE33FEA7
:06280300ED33FD0229B3D4
:102809000229DBEC5D046005E8590470030229D153
:1028190012299C580460F6EC4860F2EC7004FDFE45
:10282900FF22C860DB2481C85009C39860025006A2
:102839000229D89850CAF582E9294B4A7005AB821A
:102849000229C775F0007C1A7880C3EF9BEE9AEDD8
:1028590099400DC3EF9BFFEE9AFEED99FDE842F01A
:10286900DC23ACF0D0E0FFD0E0FED0E0FDAB82206D
:10287900E7101BEB60BAEC2CFCEF33FFEE33FEEDF7
:1028890033FD0229B3E803F830E705C0F075F0001D
:10289900EF2FFFEE33FEED33FD40B830E7C280AADB
:1028A90074F8CC6480CCC86480C8F582046043C3E2
:1028B900EB9FF5F0EA9E42F0E99D42F0E89C45F075
:1028C90060305018E5825FFFE582F42B5582FB509A
:1028D900210ABA001D09B90019088016E5825BFBB7
:1028E900E582F42F5582FF50090EBE00050DBD008B
:1028F900010CC3EB9FF5F0EA9E42F0E99D42F0E836
:0D2909009C45F06007CC4820E701B3EC22AC
:10291600ED33EC33600A047003BD8004ECB2E7FCCF
:01292600228E
:1029270075F020800E75F010800575F0087D007E2B
:10293700007F003392D530D503122FE8EC334010D7
:10294700EF33FFEE33FEED33FDEC33FCD5F0ED2234
:0E295700E5F0247EA2D513CC92E7CDCEFF2270
:10296500EDD2E7CD33EC3392D524814006E4FFFE6A
:10297500FDFC22FCE4CFCECDCC24E0501174FF80C9
:10298500EDC3CC13CCCD13CDCE13CECF13CF047066
:07299500F030D5DE022FE84F
:10630400E560244CF8E60560227849300902784CAF
:10631400E475F0011231A0022C7E2002EB7F2ED214
:10632400028018EF540F2490D43440D4FF30060B6D
:10633400EF24BFB41A0050032461FFE56160021525
:10634400610564E5647002056330090D7849E475FC
:10635400F0011231A0EF022CF702AC047403D2094D
:106364008003E4C209F5608B498A4A894BE4F561EC
:10637400F563F564E56160077F2012633F80F5757E
:1063840062FFC203C202C204C205C207C208C20A33
:1063940012630DFF700D3009057F00126350AF6466
:1063A400AE6322B4255FC2D5C20612630DFF24D0AA
:1063B400B40A00501A75F00A786130D50508B6FFA2
:1063C4000106C6A426F620D5047002D20580D9247D
:1063D400CFB41A00EF5004C2E5D20602663DD203E0
:1063E40080C6D20280C0D20480BCD2D580BAD20783
:1063F40080B47F2012633F2004077401B56100401C
:10640400F1126304FF12633F026378D20AD2088058
:1064140095126304FB126304FA126304F94A4B7085
:106424000679347A677BFF20042EE561602A7E00BA
:106434008E82758300122C9760060EEE656270F0F2
:10644400C2D5EBC0E0EAC0E0E9C0E0EE12669DD040
:10645400E0F9D0E0FAD0E0FB122C7EFF60AAEBC09A
:10646400E0EAC0E0E9C0E012633FD0E02401F9D0E3
:10647400E03400FAD0E0FBE5620460DCD562D98048
:1064840087D20480A212668060F7E562700104126C
:1064940029E6A962600DE562600914F562126727B6
:1064A400EF60F3EA30E702F404C3995077EAF42585
:1064B400620430E701E404F562800D12668060C175
:1064C400EA056225621229E6EA785FF630E701E41C
:1064D400256204D562042007011412669DE4C0E01D
:1064E400126727785FE6601320E70714F612632724
:1064F400802204F6D0E014C0E07F00126327E56236
:10650400600712631E1562800B30070312631ED0EE
:10651400E0026378D0E00480C512668060A0E56282
:10652400041229E6785FEAF6E562200702600104B6
:05653400240412669D25
:1065390074FF04C0E0126727126327E5622007028F
:10654900600312631ED0E0B562E87F4512633178BB
:106559005FE67F2B30E7047F2DF404C0E012633F30
:10656900D0E075F00A84C0F0126328D0E0126328E5
:10657900026378791080027908C208C20A8008D2B9
:10658900D5790A8004790AC2D5E562047002F562F8
:10659900E4FAFDFEFF126304FC7B08200313126377
:1065A90004FD7B1030020A126304FE126304FF7BB0
:1065B90020EC3382D592D55013C3E43002069FFFF5
:1065C900E49EFEE42003039DFDE49CFCE4CBF8C2B9
:1065D90003EC700CCFCECDCCE824F8F870F380171B
:1065E900C3EF33FFEE33FEED33FDEC33FCEB33FB4E
:1065F900994002FB0FD8E9EB300305F8D0E0C44815
:10660900B203C0E00AEC4D4E4F78207B0070C2EA1D
:10661900B5620040BCC0E012669FD0F0D0E0200314
:1066290004C4C0E0C4B203C0F0126328D0F0D5F0AE
:10663900EB02637812324B641553657C5863E64C60
:1066490063E24265804F65884465884963FB436519
:106659008E5564BF46651D4564894767545063EA92
:106669002D63EE2E64112B63F223640F20673D2AFC
:1066790063AA4800006409E562B4FF037562061263
:106689006304FC126304FD126304FE126304FF78C1
:1066990058022A15790AA2D5200514300709B9101C
:1066A900020404B9080104A2D520080250010420FB
:1066B90004689204B561005034C0E07F20300519A8
:1066C9007F30A20472087207500F1266F6C204C224
:1066D90008C207C20A7F30800F300703E9C0E01201
:1066E900633F300703D0E0F9D0E0B561CC3007173C
:1066F9007F30B9100C12633F7F583006077F7880CE
:1067090003B9080312633F3004057F2D02633F7FFD
:1067190020200AF87F2B2008F322920480CF7F00E3
:10672900B4070050052458F8E6FF22286E756C6CF2
:106739002900D2031263043003F8C203786130D50B
:106749000108F60263AA2D50434958126304240331
:10675900B405004001E490674F93126330743A1214
:0A6769006330D20575610402657CFF
:10299C00E9D2E7C933E833F892D5EDD2E7CD33EC81
:0729AC0033FC5002B2D522FA
:1029B300EC30E7100FBF000C0EBE00080DBD000485
:1029C3000BEB6014A2D5EB13FCED92E7FD2274FF31
:1029D300FCFDFEFF22E480F8A2D574FF13FC7D808A
:0329E300E480EF9E
:1029E600F920E72824F950037907E4F42402FB18B8
:1029F600DBFDE624FB5014E9600DE4F618E604F668
:0F2A0600B40A08E4F6D9F57401F60A22C2D52203
:102A1500ED33EC3392D5FA602AB4FF33EDC2E77B90
:102A2500FF60067A2A793AE4227A2A794320D50486
:102A35007A2A793E224E614E002B494E46002D4999
:102A45004E4600E47A08F608DAFC7B00740722E8B3
:102A5500C0E0ECC0E0EDC0E0EEC0E0EFC0E0EA753C
:102A6500F010A4CAABF075F04DA42BFBE435F0FCD7
:102A7500EA2410FAEB34C5FBEC34D9FCEDC2E7FFD0
:102A850075F056A4F42411C5F0F434C58FF0A42ACA
:102A9500E5F03BE43CF620E714122B48D0E0FFD0EC
:102AA500E0FED0E0FDD0E0FC12280C8014F4041206
:102AB5002B48D0E0FFD0E0FED0E0FDD0E0FC1227AF
:102AC50003D0E0F8E6FAEDD2E7CD33EC332482FB10
:102AD500E4C3CF33CFCE33CECD33CD33DBF37B075A
:102AE50075F00A846004F6081B0AE5F0F6088FF015
:102AF500740AA4FFACF08EF0740AA42CFEACF0505E
:102B0500010C8DF0740AA42CFDE435F0F608DBDE2B
:032B150074072220
:102B18003F8000004120000042C80000447A0000C5
:102B2800461C400047C35000497424004B18968047
:102B38004CBEBC205A0E1BCA6753C21C749DC5AE3E
:102B4800FB60065407601C2323122B76EB54386075
:102B580009122B62122B71122703ECF8EDF9EEFA29
:102B6800EFCB22EB122B7180F1543803241C902BED
:102B780018FE93FC0EEE93FD0EEE930ECE93FF22FD
:0300000002A3C98F
:0CA3C900787FE4F6D8FD75817502A410C1
:102B8800E709F608DFFA8046E709F208DFFA803E2F
:102B980088828C83E709F0A3DFFA8032E309F6081C
:102BA800DFFA8078E309F208DFFA807088828C8384
:102BB800E309F0A3DFFA806489828A83E0A3F60838
:102BC800DFFA805889828A83E0A3F208DFFA804C12
:102BD80080D280FA80C680D4806980F280338010E9
:102BE80080A680EA809A80A880DA80E280CA803352
:102BF80089828A83ECFAE493A3C8C582C8CCC583CA
:102C0800CCF0A3C8C582C8CCC583CCDFE9DEE78099
:102C18000D89828A83E493A3F608DFF9ECFAA9F018
:102C2800EDFB2289828A83ECFAE0A3C8C582C8CC6E
:102C3800C583CCF0A3C8C582C8CCC583CCDFEADE87
:102C4800E880DB89828A83E493A3F208DFF980CCE9
:102C580088F0EF60010E4E60C388F0ED2402B404E2
:102C68000050B9F582EB2402B4040050AF23234589
:062C78008223902BD873AB
:102C7E00BB010689828A83E0225002E722BBFE0254
:092C8E00E32289828A83E4932287
:102C9700BB010CE58229F582E5833AF583E02250F2
:102CA70006E92582F8E622BBFE06E92582F8E2223C
:0D2CB700E58229F582E5833AF583E4932256
:102CC400BB010FF8E58229F582E5833AF583E02814
:102CD400F0225009C58229F8E58226F622BBFE09B6
:102CE400C58229F8E22582F222F8EA2583F583E9F0
:032CF40093282200
:102CF700BB010689828A83F0225002F722BBFE01BC
:022D0700F322B5
:102D0900F8BB010DE58229F582E5833AF583E8F000
:102D1900225006E92582C8F622BBFE05E92582C8AC
:022D2900F22294
:102D2B00EF8DF0A4A8F0CF8CF0A428CE8DF0A42EBC
:022D3B00FE2276
:102D3D00BC000BBE0029EF8DF084FFADF022E4CC7A
:102D4D00F875F008EF2FFFEE33FEEC33FCEE9DEC43
:102D5D00984005FCEE9DFE0FD5F0E9E4CEFD22ED89
:102D6D00F8F5F0EE8420D21CFEADF075F008EF2FD3
:102D7D00FFED33FD4007985006D5F0F222C398FDC4
:052D8D000FD5F0EA2261
:102D9200C2D5EC30E709B2D5E4C39DFDE49CFCEE5C
:102DA20030E715B2D5E4C39FFFE49EFE122D3DC36A
:102DB200E49DFDE49CFC8003122D3D30D507C3E465
:062DC2009FFFE49EFE22CB
:102DC800C5F0F8A3E028F0C5F0F8E5821582700296
:062DD8001583E038F02233
:102DDE00A3F8E0C5F025F0F0E582158270021583A8
:062DEE00E0C838F0E82205
:102DF400BB010A89828A83E0F5F0A3E022500687AA
:102E0400F009E71922BBFE07E3F5F009E31922896B
:0B2E1400828A83E493F5F0740193229E
:102E1F00BB0110E58229F582E5833AF583E0F5F0F1
:102E2F00A3E0225009E92582F886F008E622BBFECE
:102E3F000AE92582F8E2F5F008E222E5832AF58314
:082E4F00E993F5F0A3E99322D9
:102E5700BB010A89828A83F0E5F0A3F0225006F7C6
:0F2E670009A7F01922BBFE06F3E5F009F31922C3
:102E7600F8BB0111E58229F582E5833AF583E8F08E
:102E8600E5F0A3F0225009E92582C8F608A6F0224B
:0D2E9600BBFE09E92582C8F2E5F008F22232
:0D2EA300EF2BFFEE3AFEED39FDEC38FC227E
:0E2EB000C3EF9BFFEE9AFEED99FDEC98FC221D
:102EBE00E88FF0A4CC8BF0A42CFCE98EF0A42CFCB3
:102ECE008AF0EDA42CFCEA8EF0A4CDA8F08BF0A431
:102EDE002DCC3825F0FDE98FF0A42CCD35F0FCEB90
:102EEE008EF0A4FEA9F0EB8FF0A4CFC5F02ECD3955
:0F2EFE00FEE43CFCEAA42DCE35F0FDE43CFC22C2
:102F0D0075F008758200EF2FFFEE33FECD33CDCC7B
:102F1D0033CCC58233C5829BED9AEC99E5829840FE
:102F2D000CF582EE9BFEED9AFDEC99FC0FD5F0D6DB
:102F3D00E4CEFBE4CDFAE4CCF9A88222B800C1B905
:102F4D000059BA002DEC8BF084CFCECDFCE5F0CB43
:102F5D00F97818EF2FFFEE33FEED33FDEC33FCEB7C
:102F6D0033FB10D703994004EB99FB0FD8E5E4F937
:102F7D00FA227818EF2FFFEE33FEED33FDEC33FC24
:102F8D00C933C910D7059BE99A4007EC9BFCE99A18
:102F9D00F90FD8E0E4C9FAE4CCFB2275F010EF2F5D
:102FAD00FFEE33FEED33FDCC33CCC833C810D7075D
:102FBD009BEC9AE899400AED9BFDEC9AFCE899F898
:0E2FCD000FD5F0DAE4CDFBE4CCFAE4C8F9222B
:10AAA900C2D5E830E70FB2D5E4C39BFBE49AFAE4D8
:10AAB90099F9E498F8EC30E717B2D512AADF122F0A
:10AAC90049E4C39BFBE49AFAE499F9E498F8800312
:10AAD900122F4930D50DE4C39FFFE49EFEE49DFD8E
:04AAE900E49CFC22CB
:0D2FDB00EF4BFFEE4AFEED49FDEC48FC22F5
:0E2FE800C3E49FFFE49EFEE49DFDE49CFC22FA
:102FF600EB9FF5F0EA9E42F0E99D42F0EC6480C852
:0630060064809845F022F1
:10300C00EB9FF5F0EA9E42F0E99D42F0E89C45F01A
:01301C002291
:10301D00E8600FECC313FCED13FDEE13FEEF13FF91
:03302D00D8F122B5
:10303000E8600FEFC333FFEE33FEED33FDEC33FCFE
:03304000D8F122A2
:10304300BB010789828A830230D15005E9F8023235
:10305300A4BBFE05E9F80232B089828A830232BC3E
:10306300BB010DE58229F582E5833AF5830230D170
:103073005007E92582F80232A4BBFE07E92582F84E
:103083000232B0E58229F582E5833AF5830232BC48
:10309300BB010789828A830231195005E9F802329C
:0A30A300CCBBFE05E9F80232D8228A
:1030AD00BB010DE58229F582E5833AF583023119DD
:1030BD005007E92582F80232CCBBFE07E92582F8DC
:0430CD000232D822D1
:0C30D100E0FCA3E0FDA3E0FEA3E0FF2272
:0C30DD00E0F8A3E0F9A3E0FAA3E0FB2276
:1030E900E493F8740193F9740293FA740393FB223D
:1030F9007401FF3395E0FEFDFC080808E62FFFF692
:1031090018E63EFEF618E63DFDF618E63CFCF6220A
:0C311900ECF0A3EDF0A3EEF0A3EFF02229
:10312500A8828583F0D083D08212313C12313C12C3
:10313500313C12313CE473E493A3C583C5F0C583E8
:10314500C8C582C8F0A3C583C5F0C583C8C582C8F4
:013155002257
:10315600BB010789828A830231255005E9F80232CC
:0A316600E4BBFE05E9F80232FD2289
:10317000BB010DE58229F582E5833AF5830231250D
:103180005007E92582F80232E4BBFE07E92582F800
:043190000232FD22E8
:0C319400A42582F582E5F03583F5832246
:1031A000FAE6FB0808E6F925F0F618E6CA3AF62230
:0931B000E0FBA3E0FAA3E0F92220
:0931B900EBF0A3EAF0A3E9F02217
:1031C200BB010DE58229F582E5833AF5830231B030
:1031D2005007E92582F8023316BBFE07E92582F87B
:1031E200023328E58229F582E5833AF58302333AF0
:1031F200BB0120E58229F582E5833AF583D0F0D040
:10320200E0F8D0E0F9D0E0FAD0E0FBE8C0E0C0F0AE
:103212000231B95018E92582F8D083D082D0E0F982
:10322200D0E0FAD0E0FBC082C08302331FBBFE189D
:10323200E92582F8D083D082D0E0F9D0E0FAD0E05C
:09324200FBC082C083023331227B
:10324B00D083D082F8E4937012740193700DA3A312
:10325B0093F8740193F5828883E473740293686026
:06326B00EFA3A3A380DF26
:10327100D083D082F8E4937012740193700DA3A3EC
:1032810093F8740193F5828883E473740293B5F023
:0D329100067403936860E9A3A3A3A380D88B
:06329E008A838982E473BB
:10AC0400EFB40A07740D12AC0F740A309811A899A6
:10AC1400B8130CC2983098FDA899C298B811F630B0
:07AC240099FDC299F5992288
:0F005E00EFC394204007EF947F50028001C3222C
:10000E00E4FFFE122C7E600C0FEF70010E09E970FA
:05001E00F20A80EF2250
:10A3D500023346E493A3F8E493A34003F68001F225
:10A3E50008DFF48029E493A3F85407240CC8C33389
:10A3F500C4540F4420C8834004F456800146F6DF58
:10A40500E4800B0102040810204080909FAFE47E99
:10A41500019360BCA3FF543F30E509541FFEE4934C
:10A42500A360010ECF54C025E060A840B8E493A313
:10A43500FAE493A3F8E493A3C8C582C8CAC583CA3E
:10A44500F0A3C8C582C8CAC583CADFE9DEE780BEF6
:01A0770000E8
:0C32A400E6FC08E6FD08E6FE08E6FF2256
:0C32B000E2FC08E2FD08E2FE08E2FF225A
:1032BC00E493FC740193FD740293FE740393FF2258
:0C32CC00ECF608EDF608EEF608EFF6222E
:0C32D800ECF208EDF208EEF208EFF22232
:1032E400D083D082E493F608740193F608740293B1
:0932F400F608740393F6740473E8
:1032FD00D083D082E493F208740193F208740293A0
:09330D00F208740393F2740473D6
:09331600E6FB08E6FA08E6F922DC
:09331F00EBF608EAF608E9F622D3
:09332800E2FB08E2FA08E2F922D6
:09333100EBF208EAF208E9F222CD
:0C333A00E493FB740193FA740293F922EF
:00000001FF
