:108B5200436F707972696768742028432920323024
:108B620030342D3920547261636B205379737465EC
:108B72006D7320546563686E6F6C6F676965732CE3
:108B8200204C4C43000200FF000000C0C1C1810123
:108B920040C30103C00280C241C60106C00780C7AC
:108BA200410500C5C1C4810440CC010CC00D80CD7B
:108BB200410F00CFC1CE810E400A00CAC1CB810B4A
:108BC20040C90109C00880C841D80118C01980D91C
:108BD200411B00DBC1DA811A401E00DEC1DF811FAA
:108BE20040DD011DC01C80DC411400D4C1D58115BB
:108BF20040D70117C01680D641D20112C01380D3CC
:108C0200411100D1C1D0811040F00130C03180F15A
:108C1200413300F3C1F28132403600F6C1F78137A9
:108C220040F50135C03480F4413C00FCC1FD813D7A
:108C320040FF013FC03E80FE41FA013AC03B80FB4B
:108C4200413900F9C1F88138402800E8C1E9812999
:108C520040EB012BC02A80EA41EE012EC02F80EFAB
:108C6200412D00EDC1EC812C40E40124C02580E5BA
:108C7200412700E7C1E68126402200E2C1E38123C9
:108C820040E10121C02080E041A00160C06180A1DB
:108C9200416300A3C1A28162406600A6C1A78167A9
:108CA20040A50165C06480A4416C00ACC1AD816D7A
:108CB20040AF016FC06E80AE41AA016AC06B80AB4B
:108CC200416900A9C1A88168407800B8C1B9817919
:108CD20040BB017BC07A80BA41BE017EC07F80BFAB
:108CE200417D00BDC1BC817C40B40174C07580B5BA
:108CF200417700B7C1B68176407200B2C1B38173C9
:108D020040B10171C07080B041500090C191815159
:108D120040930153C052809241960156C0578097AA
:108D220041550095C1948154409C015CC05D809D79
:108D3200415F009FC19E815E405A009AC19B815B48
:108D420040990159C058809841880148C04980899A
:108D5200414B008BC18A814A404E008EC18F814FA8
:108D6200408D014DC04C808C41440084C1858145B9
:108D720040870147C046808641820142C0438083CA
:098D820041410081C180814040A3
:10A185005000150000000000000000000000000065
:10A19500000000430C24000000410C2300410CA7E3
:10A1A5000A41000500026F0000026B000050002507
:10A1B500000000000000000000000000000000009A
:10A1C5000173004102A700410CAE004200020000ED
:10A1D500410CAA0042026A00004200490000420206
:10A1E500BA00A0410CA900410CAD004202BD00001F
:10A1F50041000100410004004102ED00410BDD007A
:10A20500410CA80002740000026D00004202C0006B
:10A21500004102BC004102EE0041000000410CAFCC
:0DA2250000410014004102EC004102EF0472
:10335300E4F52DF52CF52BF52A75840F75FFDE7535
:10336300FFAD12A9A8129B0CC2B6C2B5C2B412001B
:10337300267534017535097536477B017A0C792139
:1033830012A0A3129F7D900CA77414F0E49002BCCA
:10339300F0900000F0900000E0FFC3942A5018EF73
:1033A30075F015A424C2F582E43402F583E4F090A9
:1033B3000000E004F080DEE4900000F012A88A7FB1
:1033C300007E9612AD1612ADDA12AB7EE490028146
:1033D300F09002947402F090029D744EF07B017A97
:1033E3000279F09002901231C67A0979499002A3CA
:1033F3001231C67A07792A90028D1231C67A0B7977
:10340300DE9002A01231C6E4900280F09002930491
:10341300F090028A744EF0E4900295F0A3F09002CB
:1034230082F0A3F090029FF090028CF090029EF045
:1034330090028BF01BFAF990029A1231C690029710
:103443001231C69002871231C69002841231C60B24
:103453007A0279807F007E847D037C00128FC29084
:103463000014E07B017A02799360067F807E2580D9
:10347300047F007EE17D007C00128FC27B017A0213
:1034830079709000451231C67A0279A890004212F1
:1034930031C6E490003EF0A3F0900048F090001491
:0E34A300E0600312ADC4D2AF900014E06035BB
:1034B100900CB212313200006978E4FFFEFDFC90FD
:1034C1000CB21230EAD31230034017900CB2123012
:1034D100DE74FFFBFAF9F8122EB0900CB21231260D
:0234E10080D891
:1034E3001283371200A6900CAF7401F0E490025DD2
:1034F300F0A3F0A3F0900269F0900263F0A3F090C0
:103503000261F0A3F0A2DA33900260F090026BE064
:103513002458FE90026AE03400900267F0A3CEF0D4
:10352300900049E0FCA3E0FD2406FEE43C90026524
:10353300F0A3CEF0ED2405FEE43C900CC5F0A3CE41
:10354300F0E5D8540360749002ECE0B40202806B9F
:103553007B017A00794B754E00754F037F107E0215
:1035630012A5069001F1E0540F900006F09001F1CE
:10357300E054F0C4540F900007F0900006E0640399
:10358300702AE5D85403FFBF020890025D7404F06B
:10359300802E900007E090025DB403097403F0A34A
:1035A3007401F0801B7401F0A3F08014900007E015
:1035B300B4030890025D7402F08005E490025DF0AC
:1035C300E4FFFED3900948E09F900947E09E401333
:1035D300744B2FF58274003EF583E4F00FBF0001B6
:1035E3000E80E09002A7E06028C390001AE094B830
:1035F300900019E0940B5019C2B3C2B6C2B5C2B45D
:10360300E4F54CF54D7B937D037F021293D5129E17
:103613001C9002ECE0B4021E20DC0990025F7403EC
:10362300F002380390025F30DB067402F0023803C5
:103633007404F002380390025DE06404600302380E
:013643000383
:10364400F52EF52F900049E0FEA3E0FF900CC5E0B5
:10365400B50612A3E0B5070D752E01900CC5E475EF
:10366400F001122DD530DB1490025FE06404700386
:103674000237337404F0752E0102373390025FE091
:10368400B404277402F090026BE02403FE90026AF3
:10369400E03400900267F0A3CEF0A2DAE4339002A3
:1036A40060F0E4900269F0752E01900267E0FEA3D9
:1036B400E0FF90026AE0FCA3E0FD6F7002EC6E7024
:1036C4006EA2DA33FF900260E0FE6F703090026900
:1036D400E0C394025005E004F08047EE60109002CD
:1036E4005FE06402603C7402F0752E018034900245
:1036F4005FE06401602C7401F0F52E802590025F78
:10370400E0640360067403F0752E01900260E070BB
:10371400047F0180027F00900260EFF090026974E0
:1037240001F0ED2458FEE43C900267F0A3CEF09043
:103734000C23E0FFC394054006EFD3941F403FE5FC
:103744002E603B90025FE0FF908B8AE493FD3395FB
:10375400E0FC90028D75F013ED1231A1EC75F013BD
:10376400A42583F5831231BD900007EF122D167541
:103774004C00754D017B297D037F021293D5900285
:103784005EE06004A3E0701E90025F7401F090029A
:103794005EF090004AE02405FE900049E034009079
:1037A4000265F0A3CEF0900265E0FEA3E0FF900076
:1037B40049E0B50619A3E0B50714900265E475F075
:1037C4000A122DD590025FE0B40103752F01900C0D
:1037D40023E0FFC394054009EFD3941F5003E4F59D
:1037E4002FE52F601A90025E7405F090026BE024BE
:0F37F40003FE90026AE03400900263F0A3CEF06F
:10380300900263E0FEA3E0FF90026AE0FCA3E0FD08
:103813006F7002EC6E600302389D90025EE024FD3F
:10382300605324FE601A1460522404706D90025E8B
:103833007403F0ED2428FEE43C900263F0A3CEF081
:1038430090025EE0B405177406F090026BE0242842
:10385300FE90026AE03400900263F0A3CEF090027F
:103863005DE024FD600B1460042403702DD2CC8032
:1038730029D2CC802590025E7404F090025EE0B4FD
:1038830006037401F090025DE024FD600B146004F4
:1038930024037006C2CC8002C2CC9002841231BDD4
:0538A300E94A4B602B17
:1038A8009002841231BD8B2E8A2F89307B007A00DA
:1038B80079009002841231C6AB2EAA2FA930E4FFFA
:0B38C800124024900CC3EEF0A3EFF0C0
:1038D300900CA9E07003023AC0E4F09002EDE0F42A
:1038E30060030239AA90025DE06404600302399E1A
:0938F30090025FE0B40436D2CC6F
:1038FC00900CB61231320001B774E4FFFEFDFC905F
:10390C000CB61230EAD31230034017900CB61230BA
:10391C00DE74FFFBFAF9F8122EB0900CB6123126B9
:02392C0080D841
:0A392E00C2CC90025FE06401606605
:10393800900CBA123132000DBBA0E4FFFEFDFC90E2
:103948000CBA1230EAD31230034017900CBA123076
:10395800DE74FFFBFAF9F8122EB0900CBA12312679
:0239680080D805
:02396A00D2CCBD
:10396C00900CBE12313200112A88E4FFFEFDFC904F
:10397C000CBE1230EAD31230034017900CBE12303A
:10398C00DE74FFFBFAF9F8122EB0900CBE12312641
:02399C0080D8D1
:10399E00C2B3C2B6C2B5C2B4C2FF80FE9002EDE0A1
:1039AE00FF64F07023900C23EFF0E4F574F575903E
:1039BE00000574FFF0D2B3D2B6D2B5D2B4C2A853BA
:1039CE00E7FD53E7BF023ABBEFB4F10F900C23F0C3
:1039DE00C2B3C2B6C2B5C2B4023ABBEF64F2702B28
:1039EE00900C23EFF0D2B3D2B6D2B5D2B4900C2253
:1039FE00E024FFFD900C21E034FFFCE4FBFFFE12FF
:103A0E00A81DE4F58443EF01023AC09002EDE0FFF9
:103A1E00C394054008EFD3941F5002D2B69002ED26
:103A2E00E0FFC39405400CEFD3942350067E007F35
:103A3E000180047E007F00900C23E0FDC3940540BE
:103A4E000CEDD3942350067C007D0180047C007D18
:103A5E0000ED6F7002EC6E604C9002EDE0FFC394CF
:103A6E0005403FEFD39423503912746812A88A127E
:103A7E0000A6E4900CAEF0900CA7E0FF74A08FF0BF
:103A8E008475F00AA4FF90026BE02401FD90026A97
:103A9E00E03400CD2FFEED35F0900002F0A3CEF015
:103AAE008003129E1C9002EDE0900C23F0E4900235
:103ABE00EDF0900C23E0FFC3940550030235E6EFC2
:103ACE00D3942340030235E69002841231BDE94AB5
:103ADE004B60030235E6900C26E060030235E6905B
:103AEE0002871231BDE94A4B60030235E69002A708
:103AFE00E07003023DE090001AE094B8900019E0E7
:103B0E00940B4007E49002A7F080069002A7740180
:103B1E00F0C3E570940AE56F648094804006756F7B
:103B2E0000757009900014E06007E49002A6F08022
:103B3E003590001BE0FEA3E0FFEF24FBFFEE34EB1D
:103B4E00FEE434FFFDE434FFFCE47BE87A03F9F88D
:103B5E00122ECBE47BE57A24F9F812AC0D9002A676
:103B6E00EFF0E024CEF0900017E0540FFD9000151A
:103B7E00E0540FC4F854F0C8E4C4540F482DFF901D
:103B8E008B8AE493FD3395E0FC90028D75F013ED76
:103B9E001231A1EC75F013A42583F5831231BD907B
:103BAE000007EF122D1690006175F033E57012319B
:103BBE00A1E56F75F033A42583F58375F003E56CED
:103BCE001231A1E56B75F003A42583F583E0FF9018
:103BDE000015A3E0FEEF2EFF908B8AE4933395E061
:103BEE00FC90028D75F013ED1231A1EC75F013A45B
:103BFE002583F5831231BD900008EF122D1690002B
:103C0E006275F033E5701231A1E56F75F033A425BE
:103C1E0083F58375F003E56C1231A1E56B75F00346
:103C2E00A42583F583E0FF900017A3E0FEEF2EFF9F
:103C3E00908B8AE4933395E0FC90028D75F013ED32
:103C4E001231A1EC75F013A42583F5831231BD90CA
:103C5E000009EF122D16E5D8F4FF90028D75F013C2
:103C6E00ED1231A1EC75F013A42583F5831231BD4D
:103C7E0090000AEF122D1690026FE0FF900023E0E5
:103C8E00FEA3E0A807088005CEC313CE13D8F9FF14
:103C9E00908B8AE493FD3395E0FC90028D75F013C2
:103CAE00ED1231A1EC75F013A42583F5831231BD0D
:103CBE0090000BEF122D1690026EE0FF900021E0A7
:103CCE00FEA3E0A807088005CEC313CE13D8F9FFD4
:103CDE00908B8AE493FD3395E0FC90028D75F01382
:103CEE00ED1231A1EC75F013A42583F5831231BDCD
:103CFE0090000CEF122D1690026DE0FF90001FE069
:103D0E00FEA3E0A807088005CEC313CE13D8F9FF93
:103D1E00908B8AE493FD3395E0FC90028D75F01341
:103D2E00ED1231A1EC75F013A42583F5831231BD8C
:103D3E0090000DEF122D1690026CE0FF90001DE02A
:103D4E00FEA3E0A807088005CEC313CE13D8F9FF53
:103D5E00908B8AE493FD3395E0FC90028D75F01301
:103D6E00ED1231A1EC75F013A42583F5831231BD4C
:103D7E0090000EEF122D1690025BE0A3FF90028DC5
:103D8E0075F013ED1231A1EC75F013A42583F583B4
:103D9E001231BD90000FEF122D1690025BA3E0FFC3
:103DAE0090028D75F013ED1231A1EC75F013A42570
:103DBE0083F5831231BD900010EF122D16754C0055
:103DCE00754D0A7B927D037F021293D512891402E0
:0E3DDE0035E690029FE0FF90029EE06F606D60
:103DEC00EF75F0DCA4FF9002A31231BDE92FF9EAC4
:103DFC0035F08B2EF52F893090029FE0FFB4020432
:103E0C007F008003EF04FF90029FEFF09002A6E08A
:103E1C00FF90005F75F033E5701231A1E56F75F01E
:103E2C0033A42583F583EFF0AE6FAF707C007D3348
:103E3C00122D38744B2FF974003E753401F5358909
:0A3E4C0036AB2EAA2FA930124961EF
:103E56000235E6900CAEE0FD7017900002E0FEA37E
:103E6600E0FF90026AE06E7003A3E06F6003023524
:103E7600E6900CA7E0FF74A08FF08475F00AA4FF0B
:103E860090026BE02401FB90026AE03400CB2FFE27
:103E9600EB35F0900002F0A3CEF0ED700E900CAD75
:103EA600F090000274FFF5F0122DD59002EFE0FFBE
:103EB6007003023F5C900C23E0FEC394055003029E
:103EC6003F5CEED3941F4003023F5C900CAEE07063
:103ED600030240099002ECE0B40202D2CA90025DED
:103EE600E0FE605C900C23E0FDC394054052EDD3E8
:043EF600941F504C79
:103EFA00EEB4040790025FE0B4040890025DE06447
:103F0A00046039900CA7E0900CC2B428057406F03E
:103F1A0080037404F0900CC2E0B5072090025E742E
:103F2A0002F0900261E0FEA3E0FF90026BE02FFF37
:0C3F3A0090026AE03E900263F0A3EFF0FA
:103F46009002EFE014F06003024009F56BF56CF5A2
:063F56006FF57002400946
:103F5C00900CADE0FF908B8AE493FD3395E0FC90E0
:103F6C00028D75F013ED1231A1EC75F013A42583BD
:103F7C00F5831231BD900007EF122D169002BDE0B3
:103F8C00A3FF90028D75F013ED1231A1EC75F013B7
:103F9C00A42583F5831231BD900008EF122D1690E5
:103FAC0002BDA3E0FF90028D75F013ED1231A1EC70
:103FBC0075F013A42583F5831231BD900009EF121F
:103FCC002D16754C00754D037B277D037F021293D4
:103FDC00D5E4F52EF52FD3900948E0952F9009479D
:103FEC00E0952E4018744B252FF5827400352EF574
:0D3FFC0083E4F0052FE52F70DD052E80D940
:10400900E4900CAEF09002EEF0900CADE06007B2D7
:0B401900B5E4F00235E6C2B50235E662
:109E1C00C2B6C2B59002ECE0B40202C2CA90025EB5
:059E2C00E0640370700A
:109E3100900CC712313200015F90E4FFFEFDFC90EF
:109E41000CC71230EAD31230034017900CC71230FE
:109E5100DE74FFFBFAF9F8122EB0900CC71231260E
:029E610080D8A7
:039E6300E4F5C85B
:109E6600900CCB12313200020F58E4FFFEFDFC903D
:109E76000CCB1230EAD31230034017900CCB1230C1
:109E8600DE74FFFBFAF9F8122EB0900CCB123126D5
:029E960080D872
:109E980090025E7401F0A304F090025DE0FFB40448
:109EA8000890025FE064046013EF64047003029F8B
:0C9EB8007390025EE064046003029F737C
:109EC400900CCF12313200015F90E4FFFEFDFC9054
:109ED4000CCF1230EAD31230034017900CCF12305B
:109EE400DE74FFFBFAF9F8122EB0900CCF12312673
:029EF40080D814
:109EF60090025DE024FD603F1460042403706ED27E
:019F0600CC8E
:109F0700900CD31231320001B774E4FFFEFDFC90D0
:109F17000CD31230EAD31230034017900CD312300F
:109F2700DE74FFFBFAF9F8122EB0900CD31231262B
:029F370080D8D0
:069F3900C2CC8036D2CC40
:109F3F00900CD71231320001B774E4FFFEFDFC9094
:109F4F000CD71230EAD31230034017900CD71230CF
:109F5F00DE74FFFBFAF9F8122EB0900CD7123126EF
:029F6F0080D898
:0C9F7100C2CC90025E7401F0E4F5C8223E
:1074680090026AE0F533A3E0F534E4F56FF570F5C2
:107478006BF56C900CADF0A3F0900947E0FEA3E02B
:10748800FF7B017A00794B754E00754F0112A506F6
:10749800900BDDE024FC601424027027900CA77484
:1074A80014F0900261E4F0A374F08026900CA774A5
:1074B80028F0900261E4F0A374A4F09002EF74063F
:1074C800F08016900CA7740AF09002617402F0A381
:1074D8007434F09002EF7404F0900CA8E09002BCB1
:1074E800F09002B8E0FCA3E0FD4C700890000AF0B0
:1074F800A3F080679002BFE0701E122939A804A982
:1075080005AA06AB07E4FFFE7D7A7C48122819120B
:1075180029727C007DF080389002BFE0B40F0374BC
:1075280010F09002B8E0FCA3E0FDE4122939A804A9
:10753800A905AA06AB07E4FFFE7D7A7C4812281944
:107548001229729002BFE0FD74788DF084FD7C00F2
:10755800122D3890000AEEF0A3EFF0E5D85403702E
:10756800079002BCF00278447B017A00794B754E93
:1075780000754F037F107E0212A506E4F531F5323F
:1075880090006375F028E5321231A1E53175F028D5
:10759800A42583F583E024FB601524FB7022746C1A
:1075A8002532F58274023531F5837403F080207436
:1075B8006C2532F58274023531F5837402F0800F40
:1075C800746C2532F58274023531F5837404F00544
:1075D80032E532700205316404453170A3E4F531B7
:1075E800F53290007075F028E5321231A1E5317559
:1075F800F028A42583F583E0FDE53225E0FFE53199
:1076080033FE740D2FF58274003EF583EDF0900083
:107618006475F028E5321231A1E53175F028A4250A
:1076280083F5831230EA90006875F028E53212314C
:10763800A1E53175F028A42583F5831230DE1226E2
:107648001BC004C005C006C00790006475F028E59B
:10765800321231A1E53175F028A42583F583123063
:10766800EA90006C75F028E5321231A1E53175F029
:1076780028A42583F5831230DE12261BD003D002FE
:10768800D001D000122819E4FBFAF9F81228B690B4
:10769800006475F02860054003027722E532123154
:1076A800A1E53175F028A42583F5831230EA90000E
:1076B8006875F028E5321231A1E53175F028A42566
:1076C80083F5831230DE12261BC004C005C006C035
:1076D8000790006475F028E5321231A1E53175F0A4
:1076E80028A42583F5831230EA90006C75F028E50C
:1076F800321231A1E53175F028A42583F5831230C3
:10770800DE12261BD003D002D001D000122819C0E7
:1077180004C005C006C0070277A8E5321231A1E50A
:107728003175F028A42583F5831230EA9000687536
:10773800F028E5321231A1E53175F028A42583F54A
:10774800831230DE12261BC004C005C006C0079095
:10775800006475F028E5321231A1E53175F028A4EE
:107768002583F5831230EA90006C75F028E5321213
:1077780031A1E53175F028A42583F5831230DE1296
:10778800261BD003D002D001D000122819122923B9
:10779800AB07AA06A905A804C000C001C002C0031F
:1077A80090007175F028E5321231A1E53175F028A5
:1077B800A42583F583E0FF90007275F028E5321266
:1077C80031A1E53175F028A42583F583E0C39FFD39
:1077D800E49400FCE4122939D003D002D001D0008F
:1077E800122710C004C005C006C00790007175F0CC
:1077F80028E5321231A1E53175F028A42583F583F7
:10780800E0FCE412293ED003D002D001D0001226B9
:107818001F122972AD07E53225E0FFE53133FE740A
:107828000C2FF58274003EF583EDF00532E53270D9
:107838000205316404453160030275EA9002BCE038
:1078480030E7034403F0E4F531F532D3900948E01A
:107858009532900947E095314018744B2532F582EE
:1078680074003531F583E4F00532E53270DD053119
:0278780080D9B5
:01787A0022EB
:098914009002BCE07003028B51DB
:03891D00753106AB
:10892000AF319002BCE0FEA807088002C313D8FC58
:1089300020E003028B43E5311232588AB6008AAD3B
:1089400001899E02899E03895C04895C058954061D
:1089500000008B43E5D8F4F532028B43AF31EF339F
:1089600095E0FEEF25E0FFEE33FE74192FF58274DB
:10897000003EF583E0FEA3E0FFAD31ED3395E0FC72
:10898000746A2DF58274023CF583E0FDEFA80508BA
:0E8990008005CEC313CE13D8F9F532028B4307
:10899E00E4F533AF31EF3395E0FEEF25E0FFEE3334
:1089AE00FE74192FF58274003EF583E0FEA3E0FFFE
:1089BE00AD31ED3395E0FC746A2DF58274023CF511
:1089CE0083E0FBEFA803088005CEC313CE13D8F9BE
:1089DE00F53274042DF58274003CF583E064026078
:1089EE0003028B43AF31EF3395E0FEEF25E0FFEE50
:1089FE0033FE74092FF58274003EF583E060230484
:108A0E00604624FE706A74082FF58274003EF5836A
:108A1E00E0FFE532D39F40047F0180027F008F3359
:108A2E00804EAF31EF3395E0FEEF25E0FFEE33FEE3
:108A3E0074082FF58274003EF583E0B532047F0191
:108A4E0080027F008F338028AF31EF3395E0FEEF49
:108A5E0025E0FFEE33FE74082FF58274003EF58399
:108A6E00E0FFE532C39F50047F0180027F008F3309
:108A7E00E5336015E5312402FF7401A80708800272
:108A8E00C333D8FC42C8028B43E5312402FF740184
:0F8A9E00A807088002C333D8FCF452C8028B43E8
:098AAD0090025BE0F532028B43FC
:108AB60090025BE0FEA3E0FFF53290000AE0FCA323
:108AC600E0FD4C6078EF4E6074D3ED9FEC9E50381D
:108AD600E4F533F53474062534F58274003533F540
:108AE60083E0B40113E5342404FF7401A807088069
:108AF60002C333D8FCF452C80534E534700205339A
:108B06006402453370CF8035E4F533F534740625B9
:108B160034F58274003533F583E0B40112E534246C
:108B260004FF7401A807088002C333D8FC42C805B5
:0D8B360034E534700205336402453370D01D
:0E8B43001531C3E5316480948040030289201F
:018B51002201
:10A8F3008B528A538954E92DF9EA3C8B55F55689D5
:10A9030057E4F558F559C3855683855782E5549521
:10A9130082E5539583502F7852E475F0011231ADDF
:10A92300122C8BFFE5596F25E0FFE433FE748B2F68
:10A93300F582748B3EF583E558FFE493F558740173
:0AA94300936FF55980C0AE58AF596C
:01A94D0022E7
:109F7D00E4900D67F07B017A0C792712A9FF900C04
:109F8D0090E07004A3E064F2700C900C92E0700409
:109F9D00A3E064086018900C90E4F0A374F2F090C4
:109FAD000C92E4F0A37408F0900D677401F0900C1E
:109FBD0079E0B4FF17900014E0900C79600574C837
:109FCD00F080037464F0900D677401F0900C78E0EC
:109FDD00640160077401F0900D67F0900C21E0FCB6
:109FED00A3E0FDB40015ECB41011900C95E030E435
:109FFD000AE054EFF0900D677401F0E4B50515EC2F
:10A00D00B42011900C95E020E40AE04410F0900D7E
:10A01D00677401F0900C27E0FF12005E400D900C6C
:10A02D0027E06007E4F0900D6704F0900C3BE0FF33
:10A03D0012005E400D900C3BE06007E4F0900D6760
:10A04D0004F0900C4FE0FF12005E400D900C4FE0BD
:10A05D006007E4F0900D6704F0900C98E0B4FF07F2
:10A06D00E4F0900D6704F0900C99E0B4FF11A3E0BB
:10A07D00B4FF0CE4900C99F0A3F0900D6704F090F0
:10A08D000D67E0601012ACE87B017A0C79277D80BA
:05A09D007C0012A7AEDB
:01A0A200229B
:10ACE800AF84E4F584781EF608F6A2AF33FEC2AF4F
:10ACF80043B701758F0718E6FC08E6F5828C83E4F4
:0DAD0800F0F58F53B7FEEE24FF92AF8F845D
:01AD1500221B
:0AA7AE008B458A4689478C488D4987
:10A7B80085844AE4F584781EF608F6A2AF33FFC212
:10A7C800AF43B701758F05E4F54BF54CC3E54C95E0
:10A7D80049E5486480F8E54B64809850297845E459
:10A7E80075F0011231AD122C8BFE781E0806E618A2
:10A7F800860470010614F5828C83EEF0054CE54C56
:10A8080070CA054B80C6E4F58F53B7FEEF24FF925C
:04A81800AF854A843A
:01A81C002219
:06A9FF008B458A468947E2
:10AA0500858448E4F549F54AF584A2AF33F54BC290
:10AA1500AF758F04E4FFFE054AE54AAC49700205AF
:10AA25004914F5828C83E493FD7845E475F00112B1
:10AA350031ADED122D040FBF00010EEF64804E7095
:0DAA4500D6E4F58FE54B24FF92AF854884E1
:01AA520022E1
:0EA62B008E4C8F4D8C4E8D4F8B508A51895224
:09A6390012007EEF30E7F9C2F9CE
:10A64200E4F557F5580558E558700205576440453A
:03A652005770F24C
:10A65500E54D6401454C70047F8480027F871200BC
:10A665003EE4FF12003EE4FF12003EE4FF12003E0E
:10A67500E4F555F556C3E556954FE54E6480F8E586
:10A6850055648098501DAB50AA51A95285568285B4
:10A695005583122CA4FF12003E0556E55670D605CB
:10A6A5005580D2D2F9AD54AC53AF4DAE4C02A73361
:08A733008E598F5A8C5B8D5C7E
:10A73B00900947E0FEA3E0FF12A46C8F5D12007E30
:06A74B00EF30E7F9C2F94E
:10A75100E4F55EF55F055FE55F7002055E64404507
:03A761005E70F235
:10A76400E55D6010E55A6401455970047F838012E9
:10A774007F86800EE55A6401455970047F82800209
:10A784007F8512003EE55CAE5B7806CEA2E713CE71
:10A7940013D8F8FF12003EAF5CEF25E025E0FF126E
:09A7A400003EE4FF12003ED2F970
:01A7AD002289
:02007E00C2F9C5
:10008000E4F569F56A056AE56A7002056964404548
:030090006970F2A2
:0C0093007FD712003EE4FF12003ED2F9BD
:01009F00223E
:0AA506008E498F4A8B4B8A4C894D19
:09A5100012007EEF30E7F9C2F9F8
:10A51900E4F552F5530553E553700205526440457D
:03A529005270F27B
:10A52C007FD212003EE54FAE4E7806CEA2E713CE98
:10A53C0013D8F8FF12003EAF4FEF25E025E0FF12D5
:10A54C00003EE4FF12003EE4FF12003EE4FF120066
:10A55C003EE4FF12003EE4FF12003EE4F550F551DC
:10A56C00C3E551954AE5496480F8E55064809850FC
:10A57C001FE4FF12003EAB4BAA4CA94D85518285BE
:10A58C005083EF122D160551E55170D4055080D033
:02A59C00D2F9F2
:01A59E00229A
:08A46C008E608F618C628D632C
:0CA4740075640112007EEF30E7F9C2F9B8
:10A48000E4F567F5680568E56870020567644045AE
:03A490006770F200
:10A493007FD212003EE563AE627806CEA2E713CE0A
:10A4A30013D8F8FF12003EAF63EF25E025E0FF125B
:10A4B300003EE4FF12003EE4FF12003EE4FF120000
:10A4C3003EE4FF12003EE4FF12003EE4F565F5664C
:10A4D300C3E5669561E5606480F8E565648098503E
:10A4E3001DE4FF12003EBFFF047F0180027F008F47
:10A4F30064EF600A0566E56670D6056580D2D2F919
:02A50300AF6443
:01A505002233
:04AAEC008E478F48BA
:09AAF00012007EEF30E7F9C2F913
:10AAF900E4F549F54A054AE54A70020549644045C5
:03AB09004970F29E
:10AB0C007F5012003EE548AE477806CEC313CE13F5
:10AB1C00D8F9FF12003EAF48EF25E025E0FF120008
:08AB2C003EE4FF12003ED2F9E5
:01AB340022FE
:04AB35008E498F4A6C
:09AB390012007EEF30E7F9C2F9C9
:10AB4200E4F54BF54C054CE54C7002054B64404571
:03AB52004B70F253
:10AB55007F8112003EE54AAE497806CEC313CE1377
:10AB6500D8F9FF12003EAF4AEF25E025E0FF1200BD
:08AB75003EE4FF12003ED2F99C
:01AB7D0022B5
:06A81D008C428D438B44C8
:10A82300E5446002C2B68E458F46D3E5469543E5BF
:10A83300459542504BE54654077034C3E54395466E
:10A84300FFE5429545FEC3EF9408EE94004020E5F2
:10A85300446008E546543F7002B2B6AF46AE4512B7
:10A86300AAEC74072546F546E43545F5458007AF60
:10A8730046AE4512AB350546E54670AE054580AAA2
:06A88300E5446002C2B6CC
:01A8890022AC
:06A0A3008B318A32893383
:06A0A900D2F8D2F9C2FA60
:10A0AF00E4F537F5380538E5387002053764404573
:03A0BF003770F205
:02A0C200D2FAD0
:10A0C400E4F537F5380538E538700205376440455E
:03A0D4003770F2F0
:10A0D70012007EEF543C123258A0F90CA10314A1D0
:10A0E7000D1CA11724A1322CA14D34A1683C0000FE
:10A0F700A184AB31AA32A9337402801CAB31AA32D6
:10A10700A93374048012AB31AA32A93374088008CA
:10A11700AB31AA32A933741075F000122E64AB3438
:10A12700AA35A936740175F008804FAB31AA32A958
:10A1370033741075F000122E64AB34AA35A9367447
:10A147000275F0108034AB31AA32A933742075F050
:10A1570000122E64AB34AA35A936740275F010804C
:10A1670019AB31AA32A933742075F000122E64ABF3
:0DA1770034AA35A936740475F020122E6448
:01A1840022B8
:10FE00008E448F458E448F45E4F546F547A2AF33C7
:10FE1000F548C2AFE4F58443B701758F03C3E546E7
:10FE200094FC50168547828546837488F0E4254704
:10FE3000F54774043546F54680E3E4F58FF546F55D
:10FE400047F54BF54C75840FE54C54037002B2B680
:10FE500012FFB58F4DE54D30E7F6C2F9E4F54EF5EA
:10FE60004F054FE54F7002054E6440454E70F27FDE
:10FE7000D212FFA4E54CAE4B7806CEC313CE13D8F6
:10FE8000F9FF12FFA412FF9CE4FF12FFA4E4FF128B
:10FE9000FFA4E4FF12FFA4E4FF12FFA4E4FF12FF9B
:10FEA000A4E4F549F54AE4FF12FFA4744B254AF592
:10FEB0008274003549F583EFF0054AE54A70020582
:10FEC00049C3E549940240DED2F9E4F584758F0117
:10FED000F549F54A744B254AF58274003549F58396
:10FEE000E0FF0547E547AC467002054614F5828CF5
:10FEF00083EFF0054AE54A70020549B400D6E549AA
:10FF0000B402D1E4F58F054CE54C7002054BC39467
:07FF10007FE54B9400500354
:10FF170002FE45E4F58F53B7FEE54824FF92AFE4B0
:10FF2700F5D075840FF54BF54CC3E54B9420505431
:10FF3700E54C543F7002B2B512FFB58F4DE54D3019
:10FF4700E7F6C2F9E4F54EF54F054FE54F700205A8
:10FF57004E6440454E70F27F5012FFA4E54CAE4B05
:10FF67007806CEC313CE13D8F9FF12FFA412FF9C55
:10FF7700E4FF12FFA4D2F97408254CF54CE4354B85
:10FF8700F54B80A512FFB58F4DE54D30E7F6E4F54B
:05FF97008443EF01228C
:10FF9C00AF4CEF25E025E0FFAE84E4F5848F9B3079
:09FFAC00FFFDC2FFAF9B8E842211
:10FFB500C2F9E4F550F5510551E55170020550645B
:10FFC50040455070F27FD712FFA4E4FF12FFA4D280
:02FFD500F9220F
:1093BB00908B87E493FFAB32AA33A9349000011250
:0A93CB002CA4FDE4F54CF54D7B06E3
:0493D5008F498B4BE6
:1093D900754EFFE4F54FF550ED908B8793F5517479
:1093E900232DF582E4340CF5837464F0908B87E4C3
:1093F90093B54919E54B64066013E54B6415600D97
:10940900741D2DF582E4340CF583E54BF0E55175B7
:10941900F013A4248DF582E43402F5831231BD746E
:1094290016122D04E55175F013A4248DF582E43448
:1094390002F5831231BD900001E549122D16E5515F
:1094490075F013A4248DF582E43402F5831231BD3D
:10945900900002ED122D167402254DF54DE4354CA0
:10946900F54CFFE55175F013A4248DF582E434021F
:10947900F5831231BD900003EF122D16E55175F0F9
:1094890013A4248DF582E43402F5831231BD9000D2
:1094990004E54D122D16E55175F013A4248DF582BE
:1094A900E43402F5831231BD900005E54B122D1607
:1094B900E4FEFFE55175F013A4248DF582E434022E
:1094C900F5831231BD8F828E83122CA4624E0FBF99
:1094D90000010EEF64064E70DAE55175F013A4240D
:1094E9008DF582E43402F5831231BD900006E54E14
:1094F900122D1674FE254DF54D74FF354CF54CE5CE
:109509005175F013A4248DF582E43402F5831231E8
:10951900BDE92407F9E43AFAAD4DAC4C12A8F38E33
:109529004F8F50EEFFE55175F013A4248DF582E4B9
:109539003402F5831231BD054DE54D7002054C2409
:1095490006F582E4354CF583EF122D16E55175F0D9
:1095590013A4248DF582E43402F5831231BD054D3F
:10956900E54D7002054C2406F582E4354CF583E59A
:1095790050122D16E55175F013A42480F9740235A3
:10958900F0FA7B01E54D2407FDE4354CFC12A94EA8
:09959900E54D2407FFE4354CFE0A
:0195A20022A6
:084024008F318B328A3389349D
:10402C00E4900CD3F0A3F0900003122CA4FE9000AB
:10403C0004122CA47C002400FFEC3ECF24FECF34D1
:10404C00FFFE900CD5F0FCA3EFF0FDE92407F9E49A
:10405C003AFA12AAA2900CD3EEF0A3EFF04E603A0B
:10406C00AB32AA33A934900005122CA4FF6415704E
:10407C0003024958EF64067003024958900001127C
:10408C002CA42423F582E4340CF5837464F09000A2
:0A409C0001122CA4FF7D040244650C
:1040A600AB32AA33A934900002122CA4FF908B875E
:1040B600E4936F7003024160EFF47003024160EF16
:1040C60093FF3395E0FE90028D75F013EF1231A148
:1040D600EE75F013A42583F5831231BDE92407F9A3
:1040E600E43A8B3AF53B893CE5342407F9E4353369
:1040F600853237F5388939E4F535F536D3900CD65F
:10410600E09536900CD5E0953540247837E475F087
:10411600011231AD122C8BFF783AE475F0011231A1
:10412600ADEF122D040536E53670D1053580CDABE1
:1041360032AA33A934900001122CA4FF9000021277
:104146002CA4FD900005122CA4FB900CD5E0F54C98
:10415600A3E0F54D1293D5024958AB32AA33A934E0
:10416600900005122CA412325841C10641FC1041A0
:10417600E51544A03045C53145ED324615334705B2
:1041860034463D35466536468D3747053846B5399A
:1041960046DD3A43F94143F942473150478351449A
:1041A600D555431E70438271422990486E91472926
:1041B60093458D9442B89800004924900001122C32
:1041C600A4241DF582E4340CF583AB32AA33A9345A
:1041D600900001122CA4241DF582E4340C8010AB4F
:1041E60032AA33A934122C8B241EF582E4340CF542
:1041F60083E4F0024911900C23E0FFC394054006C6
:10420600EFD3941F4004EFB4E20512AA53800312C1
:1042160093BB900CD3EEF0A3EFF0AB32AA33A934E4
:0342260002491139
:10422900900C23E0FFC394054006EFD3941F40048C
:10423900EFB4E20512AA538065AB32AA33A93490D0
:104249000007122CA4FE900008122CA47C00240064
:10425900F53EEC3EF53DE53175F013A4248DF5826C
:10426900E43402F5831231BDE92407F9E43AFA90FE
:104279000947E0FEA3E0FF853D4E853E4F12A506A6
:10428900908B87E493FFAB32AA33A93490000112D3
:104299002CA4FD900947E0F54CA3E01293D1900CB2
:0F42A900D3EEF0A3EFF0AB32AA33A934024911E0
:1042B800900C23E0FFC394054006EFD3941F4004FD
:1042C800EFB4E20512AA53803CAB32AA33A934906A
:1042D8000007122CA4FE900008122CA47C002400D5
:1042E800F53EEC3EF53D900947E0FCA3E0FDE924EE
:1042F80009F9E43AFA853D53853E547F027E00125F
:10430800A62B1293BB900CD3EEF0A3EFF0AB32AA1E
:0643180033A93402491133
:10431E00900C23E0FFC394054006EFD3941F400496
:10432E00EFB4E20512AA53803AE53175F013A424D6
:10433E008DF582E43402F5831231BDE92407F9E4E8
:10434E003AFA12A9FF908B87E493FFAB32AA33A9F6
:10435E0034900001122CA4FD754C00754D807B0627
:10436E001293D5900CD3EEF0A3EFF0AB32AA33A993
:10437E0034024911900C23E0FFC394054006EFD39D
:10438E00941F4004EFB4E20512AA53804D12ACE81C
:10439E00AB32E5342407F9E43533FA900CD5E0FE60
:1043AE00A3E0FFC39480EE94005006AC06AD0780E8
:1043BE00047C007D8012A7AE7B017A0C792712A9AE
:1043CE00FF900014E06010900C97E030E4047F0042
:1043DE0080027F0112AD401293BB900CD3EEF0A37E
:0B43EE00EFF0AB32AA33A934024911F2
:1043F900900C23E0FFF53DAB32AA33A934900005B8
:10440900122CA4FE7C00B441047D0080027D058C41
:104419003E8D3FEE900C22E024FFFD900C21E0340C
:10442900FFFC8C408D41AB32AA33A93490000112B4
:104439002CA42423F582E4340CF583E4F0EFC3942F
:10444900054009900C23E0D3941F4007900C23E00A
:10445900B4E217900001122CA4FF7D2012AA6290E9
:104469000CD3EEF0A3EFF0024958900C2374E2F05C
:104479001293BB900CD3EEF0A3EFF0E4FFFE12AB66
:10448900357B01AD41AC40AF3FAE3E12A81D900C4B
:0744990023E53DF002495844
:1044A0001293BB900CD3EEF0A3EFF0AB32AA33A97A
:1044B00034900001122CA42423F582E4340CF583FB
:1044C000E4F012007E8F3DE53D30E7F6E4F58443ED
:0544D000EF0102495854
:1044D5001293BB900CD3EEF0A3EFF07B017A027937
:0C44E500807F007EE17D007C00128FC211
:1044F100900CC712313200004650E4FFFEFDFC90E3
:104501000CC71230EAD31230034017900CC7123097
:10451100DE74FFFBFAF9F8122EB0900CC7123126A7
:0245210080D840
:10452300E4F584C2ACC298D29975840153E7BFC243
:0345330098D29982
:1045360075840F30E815C39002C1E094099002C05B
:10454600E094004006E4F58443EF01E4F5843098F6
:1045560017758401309911C299F58485993DC298E1
:10456600B2B4758401853D997584013098C2E4F52D
:10457600843099BCC29975840185993DC298B2B5BB
:05458600F584853D995C
:10458B0080A91293BB900CD3EEF0A3EFF0AB32AA41
:10459B0033A934900001122CA42423F582E4340CAB
:1045AB00F583E4F0900014E0700302495890000783
:1045BB00122CA4FF12AD400249581293BB900CD39E
:1045CB00EEF0A3EFF0AB32AA33A934900001122C1A
:1045DB00A42423F582E4340CF583E4F01217E602ED
:1045EB0049581293BB900CD3EEF0A3EFF0AB32AA69
:1045FB0033A934900001122CA42423F582E4340C4B
:10460B00F583E4F01251980249581293BB900CD3E6
:10461B00EEF0A3EFF0AB32AA33A934900001122CC9
:10462B00A42423F582E4340CF583E4F012866A02A9
:10463B0049581293BB900CD3EEF0A3EFF0AB32AA18
:10464B0033A934900001122CA42423F582E4340CFA
:10465B00F583E4F012588C0249581293BB900CD39B
:10466B00EEF0A3EFF0AB32AA33A934900001122C79
:10467B00A42423F582E4340CF583E4F0125E0D02DE
:10468B0049581293BB900CD3EEF0A3EFF0AB32AAC8
:10469B0033A934900001122CA42423F582E4340CAA
:1046AB00F583E4F012702E0249581293BB900CD391
:1046BB00EEF0A3EFF0AB32AA33A934900001122C29
:1046CB00A42423F582E4340CF583E4F0126BE802A6
:1046DB0049581293BB900CD3EEF0A3EFF0AB32AA78
:1046EB0033A934900001122CA42423F582E4340C5A
:1046FB00F583E4F0127FFF024958AB32AA33A93499
:10470B00900001122CA42423F582E4340CF583E4ED
:10471B00F0900005122CA4FF127C7F0249589002E6
:10472B00ED74FF024806900C23E064F0702775458A
:10473B0001754600754705AB32AA33A93412A31293
:10474B001293BB900CD3EEF0A3EFF00575E57570EB
:10475B001E0574801AAB32AA33A934900001122CB7
:10476B00A4FF7D0812AA62900CD3EEF0A3EFF0AB7E
:10477B0032AA33A934024911900C23E0B4F114ABE3
:10478B0032AA33A934900007122CA4FF900005E045
:10479B006F6072AB32AA33A934900001122CA4FFC4
:1047AB007D0812AA62900CD3EEF0A3EFF0AB32AA05
:1047BB0033A934900001122CA42423F582E4340C89
:0447CB00F583E4F09E
:1047CF00900CCB1231320000AFC8E4FFFEFDFC901D
:1047DF000CCB1230EAD31230034017900CCB1230AF
:1047EF00DE74FFFBFAF9F8122EB0900CCB123126C3
:0247FF0080D860
:104801009002ED74F2F0900CA97401F00249581273
:1048110093BB900CD3EEF0A3EFF0AB32AA33A934E3
:10482100900001122CA42423F582E4340CF583E4D6
:01483100F096
:10483200900CCF1231320000AFC8E4FFFEFDFC90B5
:104842000CCF1230EAD31230034017900CCF123043
:10485200DE74FFFBFAF9F8122EB0900CCF1231265B
:0248620080D8FC
:10486400AF75AE7412AC51024958900CA97401F0A2
:10487400AB32AA33A934900007122CA49002EDF0B5
:10488400D3900CD6E09401900CD5E09400406D9048
:104894000008122CA4540F900BDDF0900009122C88
:1048A400A4900CA8F0E4F535F536AB32AA33A9345C
:1048B400E536240AFFE435358F82F583122CA4FFF4
:1048C400746C2536F58274023535F583EFF00536C0
:1048D400E536700205356404453570CEAB32AA3333
:1048E400A93490000E122CA49002BFF090000F1275
:1048F4002E2CFF9002B8E5F0F0A3EFF01293BB90DA
:104904000CD3EEF0A3EFF0AB32AA33A9349000013C
:10491400122CA42423F582E4340CF583E4F08034CF
:10492400AB32AA33A934900001122CA42423F582BB
:10493400E4340CF5837464F0900001122CA4FF7D20
:104944000212AA62900CD3EEF0A3EFF074FF900C65
:04495400D3F0A3F009
:08495800900CD3E0FEA3E0FF88
:014960002234
:0AAAA2008B428A4389448C458D469F
:10AAAC0012A8F38E478F48AB42AA43A9448546822D
:10AABC00854583122CA47F00FEE5462401FDE43578
:10AACC00458D82F583122CA42FFFE43EFEE548B59C
:0FAADC000709E547B50604E4FEFF227EFF7FFF72
:01AAEB002248
:0FAA5300AB32AA33A934900001122CA4FF7D204E
:10AA6200AE07EE908B8793FB3395E0FA90028D75DB
:10AA7200F013EB1231A1EA75F013A42583F58312CA
:10AA820031BD900007ED122D16908B87E493FFAD38
:10AA920006754C00754D017B151293D5E4FEFF221D
:06A312008B428A438944DE
:10A31800E4F548F549900003122CA4FE90000412BD
:10A328002CA4FDEEF54AEDF54BE4F548F549E54B6F
:10A3380024FEFFE54A34FFFEC36480948250028005
:10A34800047E027F00C3E5499FEE6480F8E5486417
:10A3580080985048AB45AA46A947C003C002C0012F
:10A36800122C8BFFAB42AA43A944E5492407FDE41C
:10A3780035488D82F583122CA4FE744B2549F5824D
:10A3880074003548F583EEF06FD001D002D0031287
:10A398002D040549E5497096054880927E00E575CB
:10A3A8005401FF900947E0FCA3E0FD7B017A0079A6
:0AA3B8004B85745385755402A62BE3
:04AC51008E428F435D
:10AC550090FE00E493FE740193FF900CDAEEF0A3EE
:10AC6500EFF0BE8012BFFE0F7B007AFE7902900CDA
:0EAC7500D71231C60232ABAF75AE7412FE00BC
:01AC830022AE
:10A88A008584317B017A0C792712A9FF900014E0A4
:10A89A00702EF58475D98075D84075DA4275DB4219
:10A8AA00900C8CE0A3E0F5FB900C8CE0A3E0F5FCA7
:10A8BA00900C8EE0A3E0F5FD900C8EE0A3E0F5FE8F
:10A8CA00900CA7E0FD7C007E057F00122D4A8E7158
:10A8DA008F72E4F58475E8C075D107F5BAF5BB75D2
:08A8EA00BC7043E702853184D4
:01A8F2002243
:03007B0002995592
:10995500C0E0C0F0C083C082C0D075D000C000C0D8
:0B99650002C003C004C005C006C0071C
:10997000758400C2EDE57325E02425F582E434000A
:10998000F583E5BF85BEF0122DD5E57312325899E7
:10999000AB0099B30199BB0299CE0399D60499DE25
:1099A0000599E60699EE07000099F475BB017573F9
:1099B00001804175BB027573028039900014E0602C
:1099C0000575BB07800375BB08757303802675BBDF
:1099D00003757304801E75BB04757305801675BB13
:1099E00005757306800E75BB06757307800675BB1B
:1099F00000757300E572157270021571144571607F
:049A000003029AE7DC
:109A0400900CA7E0FF74A08FF0841313543F7522C9
:109A140000F523E4FBFAEB64034A7026900014E09B
:109A24007020900CA7E075F00A84FF7E0090002B54
:109A3400E0FCA3E0FD122D3890001BEEF0A3EFF044
:109A44008037EB25E0FFEA33FE74252FF58274009E
:109A54003EF583E0FEA3E0FFAC22AD23122D4AAC19
:109A640006AD07EB25E0FFEA33FE74152FF582748B
:109A7400003EF583ECF0A3EDF0EB25E0FFEA33FEC6
:109A840074252FF58274003EF583E4F0A3F00BBB3C
:109A940000010AEB64084A6003029A1A900004E089
:109AA4007029900C86E0FEA3E0FF900C85E02FFF68
:109AB400900C84E03EFE900015E0FCA3E0FDC3EFB3
:109AC4009DFFEE9C900015F0A3EFF0900CA7E0FD35
:109AD4007C007E057F00122D4A8E718F729002A742
:039AE4007401F01A
:0C9AE700E5737003D38001C34002D2EC91
:109AF300D007D006D005D004D003D002D000D0D0F8
:099B0300D082D083D0F0D0E03212
:03A232000119FF10
:109B0C0085843175840F75E1EF75E20775E3447553
:109B1C00A4157580EA75ADFF75A53D759001E4F54A
:109B2C00A675A0FFF59E75E8FFE5E854E0FFBFC001
:109B3C00047F0180027F00900014EFF0600875A78D
:109B4C00FE75B079800675A7F875B07E759CFFE43C
:109B5C00F5C8F59D75D8FF900014E0FF600875F806
:109B6C0097759FF78006759FFF75F8F7EF6004C235
:0E9B7C00FC8002D2FC20D80620D903029C9B5C
:0C9B8A00E4F532F533EF6002D2FBC2CAF2
:109B9600900CC712313200001194E4FFFEFDFC90D8
:109BA6000CC71230EAD31230034017900CC712309C
:109BB600DE74FFFBFAF9F8122EB0900CC7123126AC
:029BC60080D845
:089BC80030DB3730DC34D2CA77
:109BD000900CCB12313200001194E4FFFEFDFC909A
:109BE0000CCB1230EAD31230034017900CCB12305A
:109BF000DE74FFFBFAF9F8122EB0900CCB1231266E
:029C000080D80A
:109C0200E4F532F53320DC100533E533700205321A
:109C1200B488F2E532B413ED20DC089002EC740152
:039C2200F0807659
:0D9C2500753511E4F534E5351392C8B2CA67
:109C3200900CCF123132000008CAE4FFFEFDFC9006
:109C42000CCF1230EAD31230034017900CCF1230EF
:109C5200DE74FFFBFAF9F8122EB0900CCF12312607
:029C620080D8A8
:109C6400E535C313F5350534E534B408BAE4F53203
:109C7400F53330DC100533E53370020532B488F275
:109C8400E532B413ED9002EC30DC057401F080038E
:079C94007402F0C2C8C2CA4D
:039C9B008531848C
:019C9E0022A3
:10AB7E00AF84E4F584F5D875D980F5F9F5FAF5E9E1
:10AB8E0075EA0C75DC4675D840900CABF0A3F090CE
:10AB9E00025BF0A3F0F584C28C758905438E08F52F
:10ABAE008AF58CC28DD28C7584017588807589303A
:07ABBE00D2A943E6308F84A9
:01ABC500226D
:0DADDA00AF84E4F584C289D288D2A88F84AA
:01ADE7002249
:03005B00029C9F65
:109C9F00C0E0C0F0C083C082C0D075D000C000C08B
:0D9CAF0001C002C003C004C005C006C0070C
:109CBC0053E6CF758400AF8CEFFEAD8A7C00E42DAB
:109CCC00F525EC3EF524900CABE0FEA3E0FFC3E5DC
:109CDC00259FFFE5249EFED3EF9464EE9400500381
:109CEC00029DF8C28C758A00758C00C28DD28CE5F1
:049CFC0019F47041A6
:109D0000F519F526AE24AF25E52625E02435F582A4
:109D1000E43400F583EEF0A3EFF0E4FCFDE51D2F45
:109D2000FFE51C3EFEED351BFDEC351A8F1D8E1C2C
:0E9D30008D1BF51A0526E526B404C990025BCA
:109D3E00029DEA0519E519C394044003751900E55F
:109D4E001925E02435F582E43400F583E0FEA3E026
:109D5E00FBC3E51D9BFFE51C9EFEE51B9400FDE588
:109D6E001A94008F1D8E1C8D1BF51AAE24AF25E59F
:109D7E001925E02435F582E43400F583EEF0A3EFE7
:109D8E00F0E4FCFDE51D2FFFE51C3EFEED351BFD51
:109D9E00EC351A8F1D8E1C8D1BF51AE47B04FAF917
:109DAE00F8AC1A122F568E248F25C390025CE095C4
:109DBE0025FF90025BE09524FEC394004006AC069E
:109DCE00AD078009C3E49FFFE49EFCAD0790025BE4
:109DDE00E0C313FFC3ED9FEC94004007E524F0A30E
:109DEE00E525F0900CABE4F0A3F07584015388CF19
:039DFE0043E63009
:109E0100D007D006D005D004D003D002D001D000B5
:0B9E1100D0D0D082D083D0F0D0E0325F
:0300530002ABC637
:10ABC600C0E0C083C082C0D075D000C004C005C03C
:10ABD60006C00753E6CF758400AF8CEFFEAD8A7CC6
:10ABE60000E42DFFEC3E900CABF0A3EFF075840172
:10ABF6005388CF43E630D007D006D005D004D0D056
:07AC0600D082D083D0E032C0
:03000B0002AC84C0
:10AC8400C0E0C083C08253E6CF758400C28C758A4D
:10AC940000758C00D28C900CABE4F0A3F090025BB6
:10ACA400F0A3F07584015388CF43E630D082D0837B
:03ACB400D0E032BB
:0300030002A6B59D
:10A6B500C0E0C0F0C083C082C0D075D000C000C06B
:09A6C50003C004C005C006C00773
:10A6CE00A2AFE433FB900CAE7401F0900CA7E0FD4A
:10A6DE007C007E057F00122D4A8E718F727573007D
:10A6EE007F10900025E4F0A3DFFCC2AF53E7FE75A8
:10A6FE008400C2ECC2ED75BB0075840175C8007490
:0EA70E00FFF5CDF5CC43E70143C8042B92AF15
:10A71C00D007D006D005D004D003D000D0D0D08242
:07A72C00D083D0F0D0E03231
:02FDFE0080FE85
:10679F00257300506C61636520756E697420666C9B
:1067AF006174206F6E206C6576656C2073757266F0
:1067BF006163652E00466C6970206F7665722E20BE
:1067CF004661636520646F776E2E00486F6C64209E
:1067DF00766572746963616C2C2047505320616E2B
:1067EF0074656E6E61206A61636B2075702E004850
:1067FF006F6C6420766572746963616C2C204750EE
:10680F005320616E74656E6E61206A61636B2064E4
:10681F006F776E2E005374616E64206F6E207269F5
:10682F0067687420736964652E005374616E642009
:10683F006F6E206C65667420736964652E00496EF7
:10684F0076657274696E6720582056616C75657332
:10685F0000496E76657274696E6720592056616CB7
:10686F0075657300496E76657274696E67205A207C
:10687F0056616C7565730020005A65726F20506FFA
:10688F00696E74733A20582025752C205920257570
:10689F002C205A20257500582052616E67653A20CA
:1068AF0025752C20257500592052616E67653A2099
:1068BF0025752C202575005A2052616E67653A2088
:1068CF0025752C2025750053746F72696E672043F0
:1068DF00616C6962726174696F6E204461746120CA
:1068EF00696E20466C6173682E0043616C69627239
:1068FF006174696F6E20436F6D706C6574652E00E7
:10690F005A65726F696E6720582C20592050574D69
:10691F000046696E616C2043616C3A2025752C2509
:10692F00750046696E616C2056616C3A2025752C96
:10693F0025750044617461666C61736820546573DA
:10694F0074002A2A20466C617368204641494C45E1
:10695F0044202A2A2C20706167652025642C206230
:10696F0079746525640050616765202564206F6B1D
:10697F000054657374205061737365642E00496E03
:10698F00707574205465737400444947494E3A201A
:10699F000031003000583A2025752C20593A202517
:1069AF0075005A3A2025752C2035563A202575004A
:1069BF0035563A2025752C20543A20257500413044
:1069CF003A2025752C2041313A2025750041323A65
:1069DF002025752C2041333A20257500496E70759E
:1069EF00745465737420436F6D706C6574652E00FD
:1069FF004F757470757420546573740062697420D8
:106A0F002564004F75747075745465737420436FEB
:106A1F006D706C6574652E00412F4420546573743E
:106A2F0000426F61726420666C61742E205465732E
:106A3F007420666978747572652061747461636817
:106A4F0065642E005820205920203556205A2020CA
:106A5F00413020413120413220413300312020008C
:106A6F003020200041445465737420504153532EFD
:106A7F00002A2A20414454657374204641494C2012
:106A8F002A2A004469676974616C20494F20546554
:106A9F007374004F6E6C792056616C696420666F59
:106AAF007220535532202D2045786974696E672EF8
:106ABF0000446967494F5465737420506F696E7451
:106ACF00202564002A2A20204641494C202A2A00EA
:106ADF00446967494F5465737420504153532E00D6
:106AEF002A2A20446967494F5465737420464149E7
:106AFF004C202A2A004175746F4F6E2054657374B1
:106B0F0000456E61626C696E67204175746F4F6EE0
:106B1F002E2E2E0044726F7070696E6720355620CE
:106B2F00456E61626C650044697361626C696E6782
:106B3F00204175746F4F6E2E2E2E004175746F4F5E
:106B4F006E5465737420504153532E00534D42754C
:106B5F00732054657374202D204D6173746572001A
:106B6F0025642042797465732C2025642043796352
:106B7F006C657300546F74616C204572726F722074
:106B8F00436F756E742C20257500534D427573201D
:106B9F005465737420506173732E00534D42757397
:106BAF002054657374202D20536C61766500534D0E
:106BBF0042757320536C617665205465737420435E
:106BCF006F6D706C6574652E000102040810204013
:096BDF008001020408102040802E
:1017E6008584429000047401F075840FFB7A0C79AD
:1017F6002712A9FFE4900C77F0908B8793900C78D2
:10180600F0900014E0900C79600574C8F0800374C1
:1018160064F0900C90E4F0A374F2F0900C92E4F073
:10182600A37408F074FFFFFEFDFC900C7A1230EAF8
:10183600C3123019700A900C7A123132000000007F
:10184600900C7EE0B4FF037401F0900C7FE0B4FFCF
:10185600037409F0900C9474FFF0A3F0900C80745C
:1018660008F0A3E4F0900C827408F0A3E4F0900C66
:1018760027F0900C3BF0900C4FF0900C8EF0A37478
:10188600A0F0900C8CE4F0A374A0F0E49002C0F0F9
:0A189600A3F0D2B3D2B6D2B5D2B49B
:1018A000900CD7123132000107ACE4FFFEFDFC9032
:1018B0000CD71230EAD31230034017900CD71230F5
:1018C000DE74FFFBFAF9F8122EB0900CD712312615
:0218D00080D8BE
:1018D200908B88E493FF3395E0FE90028D75F013B0
:1018E200EF1231A1EE75F013A42583F5831231BDF9
:1018F200E92407F9E43AFA754CFF754D67754E9F76
:10190200754FFF7550677551A212638C908B88E4F6
:1019120093FF3395E0FE90028D75F013EF1231A123
:10192200EE75F013A42583F5831231BDE92407F97E
:10193200E43AFA12000EEF2401F54DE43EF54C9024
:0C1942008B87E493FF7B737D011293D52B
:10194E00900CDB123132000107ACE4FFFEFDFC907F
:10195E000CDB1230EAD31230034017900CDB12303E
:10196E00DE74FFFBFAF9F8122EB0900CDB12312662
:02197E0080D80F
:10198000129782900014E06065900DCDE0FEA3E018
:10199000FF900DC8E02FFF900DC7E03EC313FEEF90
:1019A00013FF900C80EEF0A3EFF0900DCFE0FEA3BC
:1019B000E0FF900DCAE02FFF900DC9E03EC313FE7B
:1019C000EF13FF900C82EEF0A3EFF0900DD1E0FE4C
:1019D000A3E0FF900DCCE02FFF900DCBE03EC313B2
:1019E000FEEF13FF900C9FEEF0A3EFF08003127850
:1019F0007B900014E07003021AD0C2B3C2B5908B82
:101A000088E493FF3395E0FE90028D75F013EF129A
:101A100031A1EE75F013A42583F5831231BDE924BD
:101A200007F9E43AFA754CFF754D67754E9F754F8F
:101A3000FF7550677551C412638C908B88E493FFD7
:101A40003395E0FE90028D75F013EF1231A1EE7523
:101A5000F013A42583F5831231BDE92407F9E43A94
:101A6000FA12000EEF2401F54DE43EF54C908B8701
:0A1A7000E493FF7B737D011293D510
:101A7A00900CDF123132000107ACE4FFFEFDFC904E
:101A8A000CDF1230EAD31230034017900CDF123009
:101A9A00DE74FFFBFAF9F8122EB0900CDF12312631
:021AAA0080D8E2
:101AAC00129782900DD1E0FEA3E0FF900DCCE02FB9
:101ABC00FF900DCBE03EC313FEEF13FF900C9DEE99
:101ACC00F0A3EFF0C2B3C2B6C2B5C2B4908B88E437
:101ADC0093FF3395E0FE90028D75F013EF1231A158
:101AEC00EE75F013A42583F5831231BDE92407F9B3
:101AFC00E43AFA754CFF754D67754E9F754FFF753F
:101B0C0050677551DA12638C908B88E493FF339590
:101B1C00E0FE90028D75F013EF1231A1EE75F0130B
:101B2C00A42583F5831231BDE92407F9E43AFA12AE
:101B3C00000EEF2401F54DE43EF54C908B87E493B9
:081B4C00FF7B737D011293D5AC
:101B5400900CE3123132000107ACE4FFFEFDFC906F
:101B64000CE31230EAD31230034017900CE3123026
:101B7400DE74FFFBFAF9F8122EB0900CE312312652
:021B840080D807
:101B8600129782900DCDE0FEA3E0FF900DC8E02FE6
:101B9600FF900DC7E03EC313FEEF13FF900C86EED9
:101BA600F0A3EFF0900014E06021900DD1E0FEA3C9
:101BB600E0FF900DCCE02FFF900DCBE03EC313FE6F
:101BC600EF13FF900C9BEEF0A3EFF0D2B3908B884F
:101BD600E493FF3395E0FE90028D75F013EF12311A
:101BE600A1EE75F013A42583F5831231BDE9240710
:101BF600F9E43AFA754CFF754D67754E9F754FFFC0
:101C06007550677551FE12638C908B88E493FF3391
:101C160095E0FE90028D75F013EF1231A1EE75F08E
:101C260013A42583F5831231BDE92407F9E43AFAB2
:101C360012000EEF2401F54DE43EF54C908B87E43F
:091C460093FF7B737D011293D51D
:101C4F00900CE7123132000107ACE4FFFEFDFC906F
:101C5F000CE71230EAD31230034017900CE7123022
:101C6F00DE74FFFBFAF9F8122EB0900CE712312652
:021C7F0080D80B
:101C8100129782900DCDE0FEA3E0FF900DC8E02FEA
:101C9100FF900DC7E03EC313FEEF13FF900C84EEDF
:101CA100F0A3EFF0D2B6908B88E493FF3395E0FE7A
:101CB10090028D75F013EF1231A1EE75F013A4258A
:101CC10083F5831231BDE92407F9E43AFA754CFF33
:101CD100754D67754E9F754FFF755068755124128C
:101CE100638C908B88E493FF3395E0FE90028D75B1
:101CF100F013EF1231A1EE75F013A42583F58312D1
:101D010031BDE92407F9E43AFA12000EEF2401F596
:101D11004DE43EF54C908B87E493FF7B737D01127C
:021D210093D558
:101D2300900CEB123132000107ACE4FFFEFDFC9096
:101D33000CEB1230EAD31230034017900CEB123045
:101D4300DE74FFFBFAF9F8122EB0900CEB12312679
:021D530080D836
:101D5500129782900DCFE0FEA3E0FF900DCAE02F11
:101D6500FF900DC9E03EC313FEEF13FF900C88EE04
:101D7500F0A3EFF0D2B5908B88E493FF3395E0FEA6
:101D850090028D75F013EF1231A1EE75F013A425B5
:101D950083F5831231BDE92407F9E43AFA754CFF5E
:101DA500754D67754E9F754FFF75506875513912A2
:101DB500638C908B88E493FF3395E0FE90028D75DC
:101DC500F013EF1231A1EE75F013A42583F58312FC
:101DD50031BDE92407F9E43AFA12000EEF2401F5C2
:101DE5004DE43EF54C908B87E493FF7B737D0112A8
:021DF50093D584
:101DF700900CEF123132000107ACE4FFFEFDFC90BE
:101E07000CEF1230EAD31230034017900CEF123068
:101E1700DE74FFFBFAF9F8122EB0900CEF123126A0
:021E270080D861
:101E2900129782900DCFE0FEA3E0FF900DCAE02F3C
:101E3900FF900DC9E03EC313FEEF13FF900C8AEE2D
:101E4900F0A3EFF0D2B4900C84E0FEA3E0FFC390BE
:101E59000C87E09F900C86E09E4003021F38908B10
:101E690088E493FF3395E0FE90028D75F013EF122D
:101E790031A1EE75F013A42583F5831231BDE92450
:101E890007F9E43AFA754CFF754D67754E9F754F22
:101E9900FF75506875514D12638C908B88E493FFE0
:101EA9003395E0FE90028D75F013EF1231A1EE75B6
:101EB900F013A42583F5831231BDE92407F9E43A27
:101EC900FA12000EEF2401F54DE43EF54C908B8794
:0A1ED900E493FF7B737D011293D5A3
:101EE300900CF3123132000107ACE4FFFEFDFC90CD
:101EF3000CF31230EAD31230034017900CF3123074
:101F0300DE74FFFBFAF9F8122EB0900CF3123126AF
:021F130080D874
:101F1500900C86E0F543A3E0F544900C84E0FFA324
:101F2500E0900C86CFF0A3EFF0900C84E543F0A38E
:101F3500E544F0900C88E0FEA3E0FFC3900C8BE035
:101F45009F900C8AE09E4003022021908B88E493A9
:101F5500FF3395E0FE90028D75F013EF1231A1EE7F
:101F650075F013A42583F5831231BDE92407F9E43F
:101F75003AFA754CFF754D67754E9F754FFF755055
:101F85006875516012638C908B88E493FF3395E0FC
:101F9500FE90028D75F013EF1231A1EE75F013A4CA
:101FA5002583F5831231BDE92407F9E43AFA1200D5
:101FB5000EEF2401F54DE43EF54C908B87E493FF3D
:071FC5007B737D011293D52F
:101FCC00900CF7123132000107ACE4FFFEFDFC90DF
:101FDC000CF71230EAD31230034017900CF7123082
:101FEC00DE74FFFBFAF9F8122EB0900CF7123126C2
:021FFC0080D88B
:101FFE00900C8AE0F543A3E0F544900C88E0FFA333
:10200E00E0900C8ACFF0A3EFF0900C88E543F0A39C
:10201E00E544F0900014E07003022113900C9DE053
:10202E00FEA3E0FFC3900CA0E09F900C9FE09E40AB
:10203E0003022113908B88E493FF3395E0FE900208
:10204E008D75F013EF1231A1EE75F013A42583F503
:10205E00831231BDE92407F9E43AFA754CFF754D48
:10206E0067754E9F754FFF75506875517312638C6F
:10207E00908B88E493FF3395E0FE90028D75F013FC
:10208E00EF1231A1EE75F013A42583F5831231BD45
:10209E00E92407F9E43AFA12000EEF2401F54DE4B3
:1020AE003EF54C908B87E493FF7B737D011293D5A5
:1020BE00900CFB123132000107ACE4FFFEFDFC90E8
:1020CE000CFB1230EAD31230034017900CFB123087
:1020DE00DE74FFFBFAF9F8122EB0900CFB123126CB
:0220EE0080D898
:1020F000900C9FE0F543A3E0F544900C9DE0FFA316
:10210000E0900C9FCFF0A3EFF0900C9DE543F0A37F
:10211000E544F0908B88E493FF3395E0FE90028DC8
:1021200075F013EF1231A1EE75F013A42583F5833A
:102130001231BDE92407F9E43AFA754CFF754D6791
:10214000754E9F754FFF75506875518612638C9060
:102150008B88E493FF3395E0FE90028D75F013EFCA
:102160001231A1EE75F013A42583F5831231BDE978
:102170002407F9E43AFA12000EEF2401F54DE43E8B
:0F218000F54C908B87E493FF7B737D011293D511
:10218F00900CFF123132000107ACE4FFFEFDFC9012
:10219F000CFF1230EAD31230034017900CFF1230AD
:1021AF00DE74FFFBFAF9F8122EB0900CFF123126F5
:0221BF0080D8C6
:1021C100754CFF754D68754E88900C80E0F54FA3F6
:1021D100E0F550900C82E0F551A3E0F552900C9B94
:1021E100E0F553A3E0F5547B017A0D791712638C66
:1021F100908B88E493FF3395E0FE90028D75F01388
:10220100EF1231A1EE75F013A42583F5831231BDD0
:10221100E92407F9E43AFA754CFF754D67754E9F4D
:10222100754F0175500D75511712638C908B88E4B1
:1022310093FF3395E0FE90028D75F013EF1231A1FB
:10224100EE75F013A42583F5831231BDE92407F956
:10225100E43AFA12000EEF2401F54DE43EF54C90FC
:0C2261008B87E493FF7B737D011293D503
:10226D00900D03123132000107ACE4FFFEFDFC902E
:10227D000D031230EAD31230034017900D031230C4
:10228D00DE74FFFBFAF9F8122EB0900D0312312611
:02229D0080D8E7
:10229F00908B88E493FF3395E0FE90028D75F013D9
:1022AF00EF1231A1EE75F013A42583F5831231BD22
:1022BF00E92407F9E43AFA754CFF754D68754EA697
:1022CF00900C84E0F54FA3E0F550900C86E0F551AB
:1022DF00A3E0F55212638C908B88E493FF3395E063
:1022EF00FE90028D75F013EF1231A1EE75F013A46D
:1022FF002583F5831231BDE92407F9E43AFA120078
:10230F000EEF2401F54DE43EF54C908B87E493FFDF
:07231F007B737D011293D5D1
:10232600900D07123132000107ACE4FFFEFDFC9070
:102336000D071230EAD31230034017900D07123002
:10234600DE74FFFBFAF9F8122EB0900D0712312653
:0223560080D82D
:10235800908B88E493FF3395E0FE90028D75F0131F
:10236800EF1231A1EE75F013A42583F5831231BD68
:10237800E92407F9E43AFA754CFF754D68754EB6CD
:10238800900C88E0F54FA3E0F550900C8AE0F551E9
:10239800A3E0F55212638C908B88E493FF3395E0A9
:1023A800FE90028D75F013EF1231A1EE75F013A4B3
:1023B8002583F5831231BDE92407F9E43AFA1200BE
:1023C8000EEF2401F54DE43EF54C908B87E493FF26
:0723D8007B737D011293D518
:1023DF00900D0B123132000107ACE4FFFEFDFC90B3
:1023EF000D0B1230EAD31230034017900D0B123041
:1023FF00DE74FFFBFAF9F8122EB0900D0B12312696
:02240F0080D873
:10241100908B88E493FF3395E0FE90028D75F01365
:10242100EF1231A1EE75F013A42583F5831231BDAE
:10243100E92407F9E43AFA754CFF754D68754EC603
:10244100900C9DE0F54FA3E0F550900C9FE0F55105
:10245100A3E0F55212638C908B88E493FF3395E0EF
:10246100FE90028D75F013EF1231A1EE75F013A4F9
:102471002583F5831231BDE92407F9E43AFA120004
:102481000EEF2401F54DE43EF54C908B87E493FF6C
:072491007B737D011293D55E
:10249800900D0F123132000107ACE4FFFEFDFC90F5
:1024A8000D0F1230EAD31230034017900D0F12307F
:1024B800DE74FFFBFAF9F8122EB0900D0F123126D8
:0224C80080D8BA
:1024CA00908B88E493FF3395E0FE90028D75F013AC
:1024DA00EF1231A1EE75F013A42583F5831231BDF5
:1024EA00E92407F9E43AFA754CFF754D67754E9F72
:1024FA00754FFF7550687551D612638C908B88E4BE
:10250A0093FF3395E0FE90028D75F013EF1231A11F
:10251A00EE75F013A42583F5831231BDE92407F97A
:10252A00E43AFA12000EEF2401F54DE43EF54C9020
:10253A008B87E493FF7B737D011293D512ACE87B02
:0C254A00017A0C79277D7A7C0012A7AE84
:10255600900D13123132000107ACE4FFFEFDFC9032
:102566000D131230EAD31230034017900D131230B8
:10257600DE74FFFBFAF9F8122EB0900D1312312615
:0225860080D8FB
:10258800908B88E493FF3395E0FE90028D75F013ED
:10259800EF1231A1EE75F013A42583F5831231BD36
:1025A800E92407F9E43AFA754CFF754D67754E9FB3
:1025B800754FFF7550687551F912638C908B88E4DC
:1025C80093FF3395E0FE90028D75F013EF1231A161
:1025D800EE75F013A42583F5831231BDE92407F9BC
:1025E800E43AFA12000EEF2401F54DE43EF54C9062
:1025F8008B87E493FF7B737D011293D5D2B3C2B668
:0F260800C2B5C2B4E4900004F0129F7D854284F5
:0126170022A0
:10978200900DCB740FF0A374FFF0900DC9740FF01D
:10979200A374FFF0900DC7740FF0A374FFF0E49070
:1097A2000DD1F0A3F0900DCFF0A3F0900DCDF0A36A
:1097B200F0FFFE9002A7E060FA900015E0FCA3E043
:1097C200FD900DC7E0FAA3E0FBC39DEA9C5006ACF6
:1097D20002AD038008900015E0FCA3E0FD900DC7E8
:1097E200ECF0A3EDF0900017E0FCA3E0FD900DC9B2
:1097F200E0FAA3E0FBC39DEA9C5006AC02AD0380F5
:1098020008900017E0FCA3E0FD900DC9ECF0A3ED79
:10981200F090001BE0FCA3E0FD900DCBE0FAA3E08A
:10982200FBC39DEA9C5006AC02AD03800890001B6E
:10983200E0FCA3E0FD900DCBECF0A3EDF090001561
:10984200E0FCA3E0FD900DCDE0FAA3E0FBD39DEA9E
:109852009C4006AC02AD038008900015E0FCA3E03A
:10986200FD900DCDECF0A3EDF0900017E0FCA3E02D
:10987200FD900DCFE0FAA3E0FBD39DEA9C4006AC3D
:1098820002AD038008900017E0FCA3E0FD900DCF2D
:10989200ECF0A3EDF090001BE0FCA3E0FD900DD1F5
:1098A200E0FAA3E0FBD39DEA9C4006AC02AD038044
:1098B2000890001BE0FCA3E0FD900DD1ECF0A3EDBD
:1098C200F0E49002A7F00FBF00010EEF64284E6093
:1098D200030297B5900DC9E0FEA3E0FF900DCFE023
:1098E200FCA3E0FDC39FFFEC9EFEC39400400280F8
:1098F20016900DC9E0FEA3E0FFC3ED9FFFEC9EFEB4
:10990200C3E49FFFE49EFED3EF9404EE9400400371
:10991200029782900DC7E0FEA3E0FF900DCDE0FC20
:10992200A3E0FDC39FFFEC9EFEC39400400280169D
:10993200900DC7E0FEA3E0FFC3ED9FFFEC9EFEC3C8
:10994200E49FFFE49EFED3EF9404EE9400400302F2
:029952009782FA
:0199540022F0
:10787B00E4F545F546F584900C8EE0A3E0F5FD901C
:10788B000C8EE0A3E0F5FE900C8CE0A3E0F5FB90F2
:10789B000C8CE0A3E0F5FC908B88E493FF3395E030
:1078AB00FE90028D75F013EF1231A1EE75F013A45B
:1078BB002583F5831231BDE92407F9E43AFA754CB7
:1078CB00FF754D67754E9F754FFF75506975510F5D
:1078DB0012638C908B88E493FF3395E0FE90028DBE
:1078EB0075F013EF1231A1EE75F013A42583F58318
:1078FB001231BDE92407F9E43AFA12000EEF240124
:10790B00F54DE43EF54C908B87E493FF7B737D0143
:03791B001293D5EF
:10791E00900D67123132000107ACE4FFFEFDFC90C2
:10792E000D671230EAD31230034017900D671230F4
:10793E00DE74FFFBFAF9F8122EB0900D67123126A5
:02794E0080D8DF
:107950009002A7E060FAE49002A7F09002A7E0602E
:10796000FAE545700F900015E0FFA3E0900C80CF82
:10797000F0A3EFF0E546700F900017E0FFA3E09052
:107980000C82CFF0A3EFF0E49002A7F0E545704B36
:10799000900C80E0FEA3E02400EE34F8C3648094F1
:1079A000804010900C80E0FEA3E02400FFEE34F84D
:1079B000FE8015900C80E0FEA3E02400FFEE34F87A
:1079C000FEC3E49FFFE49EFED3EF9405EE64809433
:1079D0008050047F0180027F008F45E5457048C3D9
:1079E000900C80E094085015900C8CE07002A3E09D
:1079F00070028014900C8C74FFF5F08017900C8C42
:107A0000E07003A3E0F47005754501800A900C8CCA
:107A1000E475F001122DD5900C8CE0A3E0F5FB90FD
:107A20000C8CE0A3E0F5FCE546704B900C82E0FE88
:107A3000A3E02400EE34F8C3648094804010900CDE
:107A400082E0FEA3E02400FFEE34F8FE8015900CE7
:107A500082E0FEA3E02400FFEE34F8FEC3E49FFFC3
:107A6000E49EFED3EF9405EE6480948050047F0181
:107A700080027F008F46E5467048C3900C82E094F8
:107A8000085015900C8EE07002A3E07002801490F4
:107A90000C8E74FFF5F08017900C8EE07003A3E05D
:107AA000F47005754601800A900C8EE475F00112A1
:107AB0002DD5900C8EE0A3E0F5FD900C8EE0A3E0B8
:107AC000F5FEE5457003027950E5467003027950F2
:107AD000129782900015E0FFA3E0900C80CFF0A3F6
:107AE000EFF0900017E0FFA3E0900C82CFF0A3EF3F
:107AF000F0908B88E493FF3395E0FE90028D75F053
:107B000013EF1231A1EE75F013A42583F583123122
:107B1000BDE92407F9E43AFA754CFF754D69754ED5
:107B200020900C8CE0F54FA3E0F550900C8EE0F522
:107B300051A3E0F55212638C908B88E493FF339548
:107B4000E0FE90028D75F013EF1231A1EE75F01387
:107B5000A42583F5831231BDE92407F9E43AFA122A
:107B6000000EEF2401F54DE43EF54C908B87E49335
:087B7000FF7B737D011293D528
:107B7800900D6B123132000107ACE4FFFEFDFC9062
:107B88000D6B1230EAD31230034017900D6B123090
:107B9800DE74FFFBFAF9F8122EB0900D6B12312645
:027BA80080D883
:107BAA00754CFF754D69754E31900C80E0F54FA309
:107BBA00E0F550900C82E0F551A3E0F5527B017A92
:107BCA000D797312638C908B88E493FF3395E0FEF2
:107BDA0090028D75F013EF1231A1EE75F013A42502
:107BEA0083F5831231BDE92407F9E43AFA754CFFAB
:107BFA00754D67754E9F754F0175500D755173120E
:107C0A00638C908B88E493FF3395E0FE90028D7528
:107C1A00F013EF1231A1EE75F013A42583F5831248
:107C2A0031BDE92407F9E43AFA12000EEF2401F50E
:107C3A004DE43EF54C908B87E493FF7B737D0112F4
:027C4A0093D5D0
:107C4C00900D6F123132000107ACE4FFFEFDFC9089
:107C5C000D6F1230EAD31230034017900D6F1230B3
:107C6C00DE74FFFBFAF9F8122EB0900D6F1231266C
:027C7C0080D8AE
:017C7E0022E3
:027C7F008F4232
:107C8100858443E4F544F545F548908B8893FF33AB
:107C910095E0FE90028D75F013EF1231A1EE75F0B3
:107CA10013A42583F5831231BDE92407F9E43AFAD7
:107CB100754CFF754D67754E9F754FFF7550697512
:107CC100514212638C908B88E493FF3395E0FE90D0
:107CD100028D75F013EF1231A1EE75F013A4258317
:107CE100F5831231BDE92407F9E43AFA12000EEFE7
:107CF1002401F54DE43EF54C908B87E493FF7B73B3
:107D01007D011293D5E49002C0F0A3F0F546F5474A
:107D1100D3900948E09547900947E095464023AE46
:107D210046AF477C017D00122D9F744B2547F5829C
:107D310074003546F583EDF00547E54770020546C9
:107D410080CE75840F30E819C39002C1E094099088
:107D510002C0E094004003027F46E49002C0F0A319
:107D6100F0900947E0FCA3E0FD7B017A00794B85A7
:107D71004453854554E4FFFE12A62B900947E0FECB
:107D8100A3E0FF7B017A00794B85444E85454F1274
:107D9100A506E4F546F547D3900948E095479009D3
:107DA10047E09546402DAE46AF477C017D00122D40
:107DB1009F744B2547F58274003546F583E06D705D
:107DC10001EC6005754801800A0547E54770020529
:107DD1004680C4E5487003027E5D908B88E493FF82
:107DE1003395E0FE90028D75F013EF1231A1EE751F
:107DF100F013A42583F5831231BDE92407F9E43A90
:107E0100FA754CFF754D69754E5185444F85455046
:107E110085465185475212638C908B88E493FF33DA
:107E210095E0FE90028D75F013EF1231A1EE75F021
:107E310013A42583F5831231BDE92407F9E43AFA45
:107E410012000EEF2401F54DE43EF54C908B87E4D2
:0C7E510093FF7B737D011293D5027F46E6
:107E5D00900CD7123132000107ACE4FFFEFDFC900F
:107E6D000CD71230EAD31230034017900CD71230D2
:107E7D00DE74FFFBFAF9F8122EB0900CD7123126F2
:027E8D0080D89B
:107E8F00908B88E493FF3395E0FE90028D75F0138D
:107E9F00EF1231A1EE75F013A42583F5831231BDD6
:107EAF00E92407F9E43AFA754CFF754D69754E757B
:107EBF0085444F85455012638C908B88E493FF3334
:107ECF0095E0FE90028D75F013EF1231A1EE75F073
:107EDF0013A42583F5831231BDE92407F9E43AFA97
:107EEF0012000EEF2401F54DE43EF54C908B87E424
:107EFF0093FF7B737D011293D5AF45AE4412AB3523
:107F0F00D3900C22E09545900C21E095445007E466
:107F1F00F544F54580080545E54570020544E54201
:107F2F0064347003027D43D3E5459404E5446480D3
:0E7F3F0094805003027D43E49002C0F0A3F052
:107F4D00900CDB123132000107ACE4FFFEFDFC901A
:107F5D000CDB1230EAD31230034017900CDB1230D9
:107F6D00DE74FFFBFAF9F8122EB0900CDB123126FD
:027F7D0080D8AA
:107F7F00908B88E493FF3395E0FE90028D75F0139C
:107F8F00EF1231A1EE75F013A42583F5831231BDE5
:107F9F00E92407F9E43AFA754CFF754D67754E9F62
:107FAF00754FFF75506975518012638C908B88E403
:107FBF0093FF3395E0FE90028D75F013EF1231A110
:107FCF00EE75F013A42583F5831231BDE92407F96B
:107FDF00E43AFA12000EEF2401F54DE43EF54C9011
:0F7FEF008B87E493FF7B737D011293D5854384C9
:017FFE002260
:1051980085844278F77C0C7D017BFF7A6B79D87E19
:0C51A800007F08122C659000047401F0D8
:1051B400900CD7123132000107ACE4FFFEFDFC90E5
:1051C4000CD71230EAD31230034017900CD71230A8
:1051D400DE74FFFBFAF9F8122EB0900CD7123126C8
:0251E40080D871
:1051E600908B88E493FF3395E0FE90028D75F01363
:1051F600EF1231A1EE75F013A42583F5831231BDAC
:10520600E92407F9E43AFA754CFF754D67754E9F28
:10521600754FFF75506975518D12638C908B88E4BC
:1052260093FF3395E0FE90028D75F013EF1231A1D6
:10523600EE75F013A42583F5831231BDE92407F931
:10524600E43AFA12000EEF2401F54DE43EF54C90D7
:105256008B87E493FF7B737D011293D5E49002C0A4
:03526600F0A3F0C2
:1052690075840F30E819C39002C1E094099002C017
:10527900E0940040030257C6E49002C0F0A3F09006
:0A52890002A7E060DBE4F085D843E3
:10529300900CDB1231320006DDD0E4FFFEFDFC9002
:1052A3000CDB1230EAD31230034017900CDB1230C0
:1052B300DE74FFFBFAF9F8122EB0900CDB123126E4
:0252C30080D891
:1052C500908B88E493FF3395E0FE90028D75F01383
:1052D500EF1231A1EE75F013A42583F5831231BDCC
:1052E500E92407F9E43AFA754CFF754D67754E9F49
:1052F500754FFF75506875518612638C908B88E4E5
:1053050093FF3395E0FE90028D75F013EF1231A1F6
:10531500EE75F013A42583F5831231BDE92407F951
:10532500E43AFA12000EEF2401F54DE43EF54C90F7
:0C5335008B87E493FF7B737D011293D5FE
:10534100900CDF123132000107ACE4FFFEFDFC904E
:105351000CDF1230EAD31230034017900CDF123009
:10536100DE74FFFBFAF9F8122EB0900CDF12312631
:0253710080D8E2
:10537300754CFF754D69754E987B017A0C79FF1258
:10538300638C7544007545067B017A0C79FF120026
:105393000E74FF2FF9740C3EFA7B01C003C002C0E8
:1053A3000174F72545F582740C3544F583E05543C4
:1053B3007BFF60067A6979A080047A6979A28B4CB5
:1053C3008A4D894ED001D002D00312638CE5451576
:1053D3004570021544C3E5446480948050AA908BC1
:1053E30088E493FF3395E0FE90028D75F013EF127E
:1053F30031A1EE75F013A42583F5831231BDE924A1
:1054030007F9E43AFA754CFF754D67754E9F754F72
:105413000175500C7551FF12638C908B88E493FFD8
:105423003395E0FE90028D75F013EF1231A1EE7506
:10543300F013A42583F5831231BDE92407F9E43A77
:10544300FA12000EEF2401F54DE43EF54C908B87E4
:0A545300E493FF7B737D011293D5F3
:10545D00900CE3123132000107ACE4FFFEFDFC902D
:10546D000CE31230EAD31230034017900CE31230E4
:10547D00DE74FFFBFAF9F8122EB0900CE312312610
:02548D0080D8C5
:10548F00754CFF754D69754EA4900015E0F54FA34F
:10549F00E0F550A3E0F551A3E0F5527B017A0C79CA
:1054AF00FF12638C908B88E493FF3395E0FE90029C
:1054BF008D75F013EF1231A1EE75F013A42583F55E
:1054CF00831231BDE92407F9E43AFA754CFF754DA3
:1054DF0067754E9F754F0175500C7551FF12638C98
:1054EF00908B88E493FF3395E0FE90028D75F01357
:1054FF00EF1231A1EE75F013A42583F5831231BDA0
:10550F00E92407F9E43AFA12000EEF2401F54DE40D
:10551F003EF54C908B87E493FF7B737D011293D5FF
:10552F00900CE7123132000107ACE4FFFEFDFC9056
:10553F000CE71230EAD31230034017900CE7123009
:10554F00DE74FFFBFAF9F8122EB0900CE712312639
:02555F0080D8F2
:10556100900014E06018754CFF754D69754EB1904F
:10557100001BE0F54FA3E0F5509000198014754C25
:10558100FF754D69754EBF900019E0F54FA3E0F529
:1055910050A3E0F551A3E0F5527B017A0C79FF129B
:1055A100638C908B88E493FF3395E0FE90028D75B8
:1055B100F013EF1231A1EE75F013A42583F58312D8
:1055C10031BDE92407F9E43AFA754CFF754D677569
:1055D1004E9F754F0175500C7551FF12638C908B66
:1055E10088E493FF3395E0FE90028D75F013EF127E
:1055F10031A1EE75F013A42583F5831231BDE924A1
:1056010007F9E43AFA12000EEF2401F54DE43EF5F4
:0E5611004C908B87E493FF7B737D011293D541
:10561F00900CEB123132000107ACE4FFFEFDFC9061
:10562F000CEB1230EAD31230034017900CEB123010
:10563F00DE74FFFBFAF9F8122EB0900CEB12312644
:02564F0080D801
:10565100754CFF754D69754ECD90001DE0F54FA35A
:10566100E0F550A3E0F551A3E0F5527B017A0C7906
:10567100FF12638C908B88E493FF3395E0FE9002D8
:105681008D75F013EF1231A1EE75F013A42583F59A
:10569100831231BDE92407F9E43AFA754CFF754DDF
:1056A10067754E9F754F0175500C7551FF12638CD4
:1056B100908B88E493FF3395E0FE90028D75F01393
:1056C100EF1231A1EE75F013A42583F5831231BDDC
:1056D100E92407F9E43AFA12000EEF2401F54DE44A
:1056E1003EF54C908B87E493FF7B737D011293D53C
:1056F100900CEF123132000107ACE4FFFEFDFC908B
:105701000CEF1230EAD31230034017900CEF123035
:10571100DE74FFFBFAF9F8122EB0900CEF1231266D
:0257210080D82E
:10572300754CFF754D69754EDC900021E0F54FA374
:10573300E0F550A3E0F551A3E0F5527B017A0C7933
:10574300FF12638C908B88E493FF3395E0FE900205
:105753008D75F013EF1231A1EE75F013A42583F5C7
:10576300831231BDE92407F9E43AFA754CFF754D0C
:1057730067754E9F754F0175500C7551FF12638C01
:10578300908B88E493FF3395E0FE90028D75F013C0
:10579300EF1231A1EE75F013A42583F5831231BD09
:1057A300E92407F9E43AFA12000EEF2401F54DE477
:1057B3003EF54C908B87E493FF7B737D011293D569
:0A57C300025269E49002C0F0A3F066
:1057CD00900CF3123132000107ACE4FFFEFDFC90AA
:1057DD000CF31230EAD31230034017900CF3123051
:1057ED00DE74FFFBFAF9F8122EB0900CF31231268D
:0257FD0080D852
:1057FF00908B88E493FF3395E0FE90028D75F01344
:10580F00EF1231A1EE75F013A42583F5831231BD8C
:10581F00E92407F9E43AFA754CFF754D67754E9F09
:10582F00754FFF7550697551EB12638C908B88E43F
:10583F0093FF3395E0FE90028D75F013EF1231A1B7
:10584F00EE75F013A42583F5831231BDE92407F912
:10585F00E43AFA12000EEF2401F54DE43EF54C90B8
:10586F008B87E493FF7B737D011293D5D2B3C2B6BE
:0C587F00C2B5C2B4E4900004F08542847D
:01588B0022FA
:10866A00858442E4F545F54678E37C0C7D017BFF81
:0A867A007A6B79E0FE7F08122C6590
:10868400900CD7123132000107ACE4FFFEFDFC90E0
:108694000CD71230EAD31230034017900CD71230A3
:1086A400DE74FFFBFAF9F8122EB0900CD7123126C3
:0286B40080D86C
:1086B600908B88E493FF3395E0FE90028D75F0135E
:1086C600EF1231A1EE75F013A42583F5831231BDA7
:1086D600E92407F9E43AFA754CFF754D67754E9F24
:1086E600754FFF7550697551FF12638C908B88E446
:1086F60093FF3395E0FE90028D75F013EF1231A1D2
:10870600EE75F013A42583F5831231BDE92407F92C
:10871600E43AFA12000EEF2401F54DE43EF54C90D2
:0C8726008B87E493FF7B737D011293D5D9
:10873200900CDB123132000107ACE4FFFEFDFC902D
:108742000CDB1230EAD31230034017900CDB1230EC
:10875200DE74FFFBFAF9F8122EB0900CDB12312610
:0287620080D8BD
:10876400E49002C0F0A3F090026BE024A0F54490E2
:10877400026AE03400F54375840F30E819C39002AF
:10878400C1E094099002C0E094004003028853E4DD
:108794009002C0F0A3F090026AE0FEA3E0FFB544AB
:1087A400D6EEB543D2EF24A0F544E43EF543908BD6
:1087B40088E493FF3395E0FE90028D75F013EF1279
:1087C40031A1EE75F013A42583F5831231BDE9249C
:1087D40007F9E43AFA754CFF754D6A754E0B8545F9
:1087E4004F85465012638C908B88E493FF3395E059
:1087F400FE90028D75F013EF1231A1EE75F013A403
:108804002583F5831231BDE92407F9E43AFA12000D
:108814000EEF2401F54DE43EF54C908B87E493FF75
:108824007B737D011293D574E32546F582740C3570
:1088340045F583E0F5C80546E54670020545FFAEFB
:10884400457C007D07122D9F8C458D4602877BE475
:068854009002C0F0A3F049
:10885A00900CDF123132000107ACE4FFFEFDFC9000
:10886A000CDF1230EAD31230034017900CDF1230BB
:10887A00DE74FFFBFAF9F8122EB0900CDF123126E3
:02888A0080D894
:10888C00908B88E493FF3395E0FE90028D75F01386
:10889C00EF1231A1EE75F013A42583F5831231BDCF
:1088AC00E92407F9E43AFA754CFF754D67754E9F4C
:1088BC00754FFF75506A75511212638C908B88E45A
:1088CC0093FF3395E0FE90028D75F013EF1231A1FA
:1088DC00EE75F013A42583F5831231BDE92407F955
:1088EC00E43AFA12000EEF2401F54DE43EF54C90FB
:1088FC008B87E493FF7B737D011293D5D2B3C2B601
:07890C00C2B5C2B48542842C
:018913002241
:0C588C008584427544019000047401F012
:10589800900CD7123132000107ACE4FFFEFDFC90FA
:1058A8000CD71230EAD31230034017900CD71230BD
:1058B800DE74FFFBFAF9F8122EB0900CD7123126DD
:0258C80080D886
:1058CA00908B88E493FF3395E0FE90028D75F01378
:1058DA00EF1231A1EE75F013A42583F5831231BDC1
:1058EA00E92407F9E43AFA754CFF754D67754E9F3E
:1058FA00754FFF75506A75512712638C908B88E437
:10590A0093FF3395E0FE90028D75F013EF1231A1EB
:10591A00EE75F013A42583F5831231BDE92407F946
:10592A00E43AFA12000EEF2401F54DE43EF54C90EC
:0C593A008B87E493FF7B737D011293D5F3
:10594600900CDB123132000107ACE4FFFEFDFC9047
:105956000CDB1230EAD31230034017900CDB123006
:10596600DE74FFFBFAF9F8122EB0900CDB1231262A
:0259760080D8D7
:10597800908B88E493FF3395E0FE90028D75F013C9
:10598800EF1231A1EE75F013A42583F5831231BD12
:10599800E92407F9E43AFA754CFF754D67754E9F8F
:1059A800754FFF75506A75513012638C908B88E47F
:1059B80093FF3395E0FE90028D75F013EF1231A13D
:1059C800EE75F013A42583F5831231BDE92407F998
:1059D800E43AFA12000EEF2401F54DE43EF54C903E
:0C59E8008B87E493FF7B737D011293D545
:1059F400900CDF123132000107ACE4FFFEFDFC9095
:105A04000CDF1230EAD31230034017900CDF12304F
:105A1400DE74FFFBFAF9F8122EB0900CDF12312677
:025A240080D828
:105A2600908B88E493FF3395E0FE90028D75F0131A
:105A3600EF1231A1EE75F013A42583F5831231BD63
:105A4600E92407F9E43AFA754CFF754D67754E9FE0
:105A5600754FFF75506A75515312638C908B88E4AD
:105A660093FF3395E0FE90028D75F013EF1231A18E
:105A7600EE75F013A42583F5831231BDE92407F9E9
:105A8600E43AFA12000EEF2401F54DE43EF54C908F
:105A96008B87E493FF7B737D011293D59002A7E079
:105AA60060FAE4F545E5451232585ACC005ACC0165
:105AB6005AFA025B28035B62045B90055BBD065BDA
:105AC600EA0700005C15E54525E02415F582E43477
:105AD60000F583E0FEA3E0FFC394A4EE9406400D18
:105AE600D3EF94FCEE940850047F0180027F008F70
:105AF60043025C15E54525E02415F582E43400F5FE
:105B060083E0FEA3E0FFC39484EE940E400DD3EF32
:105B1600949CEE941050047F0180027F008F430214
:105B26005C15900014E0602EE54525E02415F5820D
:105B3600E43400F583E0FEA3E0FFC394AAEE9405E7
:105B4600400DD3EF946CEE940750047F0180027FE2
:105B5600008F43025C15754301025C15E54525E09F
:105B66002415F582E43400F583E0FEA3E0FFC39438
:105B760030EE9404400DD3EF9460EE940550047F0C
:105B86000180027F008F43025C15E54525E0241560
:105B9600F582E43400F583E0FEA3E0FFC394CAEE89
:105BA6009402400DD3EF9496EE940350047F018047
:105BB600027F008F438058E54525E02415F582E4F1
:105BC6003400F583E0FEA3E0FFC39465EE94014044
:105BD6000DD3EF94CBEE940150047F0180027F0039
:105BE6008F43802BE54525E02415F582E43400F546
:105BF60083E0FEA3E0FFC3943FEE9403400DD3EF92
:105C0600942BEE940450047F0180027F008F43E5BD
:105C1600437002F5447B017A0C79EB12000E74EBAB
:105C26002FF9740C3EFA7B01C003C002C001E543A4
:105C36007BFF60067A6A796B80047A6A796F8B4C8F
:105C46008A4D894ED001D002D00312638C0545E5FA
:0E5C560045C394085003025AABE49002A7F035
:105C6400900CE3123132000107ACE4FFFEFDFC901E
:105C74000CE31230EAD31230034017900CE31230D5
:105C8400DE74FFFBFAF9F8122EB0900CE312312601
:025C940080D8B6
:105C9600908B88E493FF3395E0FE90028D75F013A8
:105CA600EF1231A1EE75F013A42583F5831231BDF1
:105CB600E92407F9E43AFA754CFF754D67754E9F6E
:105CC600754F0175500C7551EB12638C908B88E4FF
:105CD60093FF3395E0FE90028D75F013EF1231A11C
:105CE600EE75F013A42583F5831231BDE92407F977
:105CF600E43AFA12000EEF2401F54DE43EF54C901D
:0C5D06008B87E493FF7B737D011293D523
:105D1200900CE7123132000107ACE4FFFEFDFC906B
:105D22000CE71230EAD31230034017900CE712301E
:105D3200DE74FFFBFAF9F8122EB0900CE71231264E
:025D420080D807
:105D4400E544908B886038E493FF3395E0FE90023D
:105D54008D75F013EF1231A1EE75F013A42583F5C0
:105D6400831231BDE92407F9E43AFA754CFF754D05
:105D740067754E9F754FFF75506A7551738036E491
:105D840093FF3395E0FE90028D75F013EF1231A16D
:105D9400EE75F013A42583F5831231BDE92407F9C8
:105DA400E43AFA754CFF754D67754E9F754FFF7554
:105DB400506A75518012638C908B88E493FF3395FD
:105DC400E0FE90028D75F013EF1231A1EE75F01321
:105DD400A42583F5831231BDE92407F9E43AFA12C4
:105DE400000EEF2401F54DE43EF54C908B87E493CF
:105DF400FF7B737D011293D5D2B3C2B6C2B5C2B4D0
:085E0400E4900004F0854284E3
:015E0C002273
:0E5E0D00858442754301E4F54590000404F0DD
:105E1B00900CD7123132000107ACE4FFFEFDFC9071
:105E2B000CD71230EAD31230034017900CD7123034
:105E3B00DE74FFFBFAF9F8122EB0900CD712312654
:025E4B0080D8FD
:105E4D00908B88E493FF3395E0FE90028D75F013EF
:105E5D00EF1231A1EE75F013A42583F5831231BD38
:105E6D00E92407F9E43AFA754CFF754D67754E9FB5
:105E7D00754FFF75506A75519212638C908B88E443
:105E8D0093FF3395E0FE90028D75F013EF1231A163
:105E9D00EE75F013A42583F5831231BDE92407F9BE
:105EAD00E43AFA12000EEF2401F54DE43EF54C9064
:105EBD008B87E493FF7B737D011293D5900014E0E3
:025ECD00706EF5
:105ECF00900CDB123132000107ACE4FFFEFDFC90B9
:105EDF000CDB1230EAD31230034017900CDB123078
:105EEF00DE74FFFBFAF9F8122EB0900CDB1231269C
:025EFF0080D849
:105F0100908B88E493FF3395E0FE90028D75F0133A
:105F1100EF1231A1EE75F013A42583F5831231BD83
:105F2100E92407F9E43AFA754CFF754D67754E9F00
:105F3100754FFF75506A7551A20262DCE4F546E5C2
:105F410046B40707E4F5C8D2FB80058545C8C2FB06
:105F5100900CDF123132000107ACE4FFFEFDFC9032
:105F61000CDF1230EAD31230034017900CDF1230ED
:105F7100DE74FFFBFAF9F8122EB0900CDF12312615
:025F810080D8C6
:105F8300908B88E493FF3395E0FE90028D75F013B8
:105F9300EF1231A1EE75F013A42583F5831231BD01
:105FA300E92407F9E43AFA754CFF754D6A754EC05A
:105FB30085464F12638C908B88E493FF3395E0FE04
:105FC30090028D75F013EF1231A1EE75F013A42535
:105FD30083F5831231BDE92407F9E43AFA12000E7E
:105FE300EF2401F54DE43EF54C908B87E493FF7B62
:105FF300737D011293D59002A7E060FAE546123251
:1060030058602000604B0160760260A10360CC04FD
:1060130060F605612006614A070000615DE5D8B5B9
:10602300451FD3900018E094CA900017E0940240F3
:106033001020A00D20A10A3086073087047F01803D
:10604300027F008F4402615DE5D8B5451FC3900010
:1060530018E0942C900017E09401501020A00D201C
:10606300A10A2086073087047F0180027F008F44C6
:1060730002615DE5D8B5451FC3900018E0942C90EC
:106083000017E09401501020A00D20A10A308607CC
:106093002087047F0180027F008F4402615DE5D881
:1060A300B5451FC3900018E0942C900017E09401AD
:1060B300501020A00D20A10A3086073087047F01ED
:1060C30080027F008F4402615DE5D8B5451FC39010
:1060D3000018E0942C900017E09401501020A00DBC
:1060E30020A10A3086073087047F0180027F008F5A
:1060F300448067E5D8B5451FC3900018E0942C9001
:106103000017E09401501020A00D30A10A3086073B
:106113003087047F0180027F008F44803DE5D8B53E
:10612300451FC3900018E0942C900017E094015091
:106133001030A00D20A10A3086073087047F01802C
:10614300027F008F448013E545B4030A20860720AD
:1061530087047F0180027F008F44E49002A7F0E56B
:0661630044600302621A11
:10616900900CE3123132000107ACE4FFFEFDFC9014
:106179000CE31230EAD31230034017900CE31230CB
:10618900DE74FFFBFAF9F8122EB0900CE3123126F7
:0261990080D8AC
:10619B00908B88E493FF3395E0FE90028D75F0139E
:1061AB00EF1231A1EE75F013A42583F5831231BDE7
:1061BB00E92407F9E43AFA754CFF754D67754E9F64
:1061CB00754FFF75506A7551D312638C908B88E4B1
:1061DB0093FF3395E0FE90028D75F013EF1231A112
:1061EB00EE75F013A42583F5831231BDE92407F96D
:1061FB00E43AFA12000EEF2401F54DE43EF54C9013
:10620B008B87E493FF7B737D011293D5E4F543E514
:10621B004570057545018006E54525E0F5450546C4
:0A622B00E546C394075003025F40EC
:10623500900CE7123132000107ACE4FFFEFDFC9043
:106245000CE71230EAD31230034017900CE71230F6
:10625500DE74FFFBFAF9F8122EB0900CE712312626
:0262650080D8DF
:10626700E543908B886038E493FF3395E0FE900216
:106277008D75F013EF1231A1EE75F013A42583F598
:10628700831231BDE92407F9E43AFA754CFF754DDD
:1062970067754E9F754FFF75506A7551DF8036E4FD
:1062A70093FF3395E0FE90028D75F013EF1231A145
:1062B700EE75F013A42583F5831231BDE92407F9A0
:1062C700E43AFA754CFF754D67754E9F754FFF752C
:1062D700506A7551EF12638C908B88E493FF339566
:1062E700E0FE90028D75F013EF1231A1EE75F013F9
:1062F700A42583F5831231BDE92407F9E43AFA129C
:10630700000EEF2401F54DE43EF54C908B87E493A6
:10631700FF7B737D011293D5D2B3C2B6C2B5C2B4A7
:08632700E4900004F0854284BB
:01632F00224B
:09702E008584429000047401F015
:10703700900CD7123132000107ACE4FFFEFDFC9043
:107047000CD71230EAD31230034017900CD7123006
:10705700DE74FFFBFAF9F8122EB0900CD712312626
:0270670080D8CF
:10706900908B88E493FF3395E0FE90028D75F013C1
:10707900EF1231A1EE75F013A42583F5831231BD0A
:10708900E92407F9E43AFA754CFF754D67754E9F87
:10709900754FFF75506B75510412638C908B88E4A2
:1070A90093FF3395E0FE90028D75F013EF1231A135
:1070B900EE75F013A42583F5831231BDE92407F990
:1070C900E43AFA12000EEF2401F54DE43EF54C9036
:1070D9008B87E493FF7B737D011293D5900014E0B5
:0270E900706EC7
:1070EB00900CDB123132000107ACE4FFFEFDFC908B
:1070FB000CDB1230EAD31230034017900CDB12304A
:10710B00DE74FFFBFAF9F8122EB0900CDB1231266D
:02711B0080D81A
:10711D00908B88E493FF3395E0FE90028D75F0130C
:10712D00EF1231A1EE75F013A42583F5831231BD55
:10713D00E92407F9E43AFA754CFF754D67754E9FD2
:0F714D00754FFF75506A7551A202741475C820F2
:10715C00900CDF123132000107ACE4FFFEFDFC9015
:10716C000CDF1230EAD31230034017900CDF1230D0
:10717C00DE74FFFBFAF9F8122EB0900CDF123126F8
:02718C0080D8A9
:10718E00908B88E493FF3395E0FE90028D75F0139B
:10719E00EF1231A1EE75F013A42583F5831231BDE4
:1071AE00E92407F9E43AFA754CFF754D67754E9F61
:1071BE00754FFF75506B75511012638C908B88E470
:1071CE0093FF3395E0FE90028D75F013EF1231A10F
:1071DE00EE75F013A42583F5831231BDE92407F96A
:1071EE00E43AFA12000EEF2401F54DE43EF54C9010
:1071FE008B87E493FF7B737D011293D57F0112ADD4
:01720E00403F
:10720F00900CE3123132000107ACE4FFFEFDFC905D
:10721F000CE31230EAD31230034017900CE3123014
:10722F00DE74FFFBFAF9F8122EB0900CE312312640
:02723F0080D8F5
:10724100908B88E493FF3395E0FE90028D75F013E7
:10725100EF1231A1EE75F013A42583F5831231BD30
:10726100E92407F9E43AFA754CFF754D67754E9FAD
:10727100754FFF75506B75512312638C908B88E4A9
:1072810093FF3395E0FE90028D75F013EF1231A15B
:10729100EE75F013A42583F5831231BDE92407F9B6
:1072A100E43AFA12000EEF2401F54DE43EF54C905C
:0E72B1008B87E493FF7B737D011293D5C2FFA0
:1072BF00900CE71231320006DDD0E4FFFEFDFC90AA
:1072CF000CE71230EAD31230034017900CE712305C
:1072DF00DE74FFFBFAF9F8122EB0900CE71231268C
:0272EF0080D845
:0272F100D2FFCA
:1072F300900CEB123132000107ACE4FFFEFDFC9071
:107303000CEB1230EAD31230034017900CEB12301F
:10731300DE74FFFBFAF9F8122EB0900CEB12312653
:0273230080D810
:10732500908B88E493FF3395E0FE90028D75F01302
:10733500EF1231A1EE75F013A42583F5831231BD4B
:10734500E92407F9E43AFA754CFF754D67754E9FC8
:10735500754FFF75506B75513612638C908B88E4B1
:1073650093FF3395E0FE90028D75F013EF1231A176
:10737500EE75F013A42583F5831231BDE92407F9D1
:10738500E43AFA12000EEF2401F54DE43EF54C9077
:107395008B87E493FF7B737D011293D5E4FF12ADD8
:0473A50040E4F5C803
:1073A900900CEF123132000107ACE4FFFEFDFC90B6
:1073B9000CEF1230EAD31230034017900CEF123061
:1073C900DE74FFFBFAF9F8122EB0900CEF12312699
:0273D90080D85A
:1073DB00908B88E493FF3395E0FE90028D75F0134C
:1073EB00EF1231A1EE75F013A42583F5831231BD95
:1073FB00E92407F9E43AFA754CFF754D67754E9F12
:10740B00754FFF75506B75514A12638C908B88E4E6
:10741B0093FF3395E0FE90028D75F013EF1231A1BF
:10742B00EE75F013A42583F5831231BDE92407F91A
:10743B00E43AFA12000EEF2401F54DE43EF54C90C0
:10744B008B87E493FF7B737D011293D5D2B3C2B6C6
:0C745B00C2B5C2B4E4900004F085428485
:017467002202
:106BE800E4900CEFF0A3F0A2FB920185844690009C
:036BF8000404F0A2
:106BFB00900CD7123132000107ACE4FFFEFDFC9084
:106C0B000CD71230EAD31230034017900CD7123046
:106C1B00DE74FFFBFAF9F8122EB0900CD712312666
:026C2B0080D80F
:106C2D00908B88E493FF3395E0FE90028D75F01301
:106C3D00EF1231A1EE75F013A42583F5831231BD4A
:106C4D00E92407F9E43AFA754CFF754D67754E9FC7
:106C5D00754FFF75506B75515B12638C908B88E48B
:106C6D0093FF3395E0FE90028D75F013EF1231A175
:106C7D00EE75F013A42583F5831231BDE92407F9D0
:106C8D00E43AFA12000EEF2401F54DE43EF54C9076
:106C9D008B87E493FF7B737D011293D5900014E0F5
:026CAD00706E07
:106CAF00900CDB123132000107ACE4FFFEFDFC90CB
:106CBF000CDB1230EAD31230034017900CDB12308A
:106CCF00DE74FFFBFAF9F8122EB0900CDB123126AE
:026CDF0080D85B
:106CE100908B88E493FF3395E0FE90028D75F0134D
:106CF100EF1231A1EE75F013A42583F5831231BD96
:106D0100E92407F9E43AFA754CFF754D67754E9F12
:106D1100754FFF75506A7551A2026FDAC2FBE4F537
:036D210084D2C653
:106D2400900CDF123132000107ACE4FFFEFDFC9051
:106D34000CDF1230EAD31230034017900CDF12300C
:106D4400DE74FFFBFAF9F8122EB0900CDF12312634
:026D540080D8E5
:106D5600908B88E493FF3395E0FE90028D75F013D7
:106D6600EF1231A1EE75F013A42583F5831231BD20
:106D7600E92407F9E43AFA754CFF754D6B754E6FC9
:106D8600754F087550017551F412638C908B88E429
:106D960093FF3395E0FE90028D75F013EF1231A14B
:106DA600EE75F013A42583F5831231BDE92407F9A6
:106DB600E43AFA12000EEF2401F54DE43EF54C904C
:106DC6008B87E493FF7B737D011293D5D2B6D2B342
:106DD600C2B4C2B59000421231BD7408122D04E44B
:106DE600F542F543E5432440FF9000421231BDE5EC
:106DF600432401FDE435428D82F583EF122D1605FD
:106E060043E543700205426408454270D79000404E
:106E16007409F0A314F090003D7404F0E4F544F511
:106E26004512ADABAE44AF457C007D64122D4AEDF4
:106E36004C6002B2B530E819C39002C1E0940990E3
:106E460002C0E094004003026F2DE49002C0F0A35C
:016E5600F04B
:106E5700900CE312313200001194E4FFFEFDFC9028
:106E67000CE31230EAD31230034017900CE31230D0
:106E7700DE74FFFBFAF9F8122EB0900CE3123126FC
:026E870080D8B1
:106E890012AD8F900048E060FAE4900048F0F542B6
:106E9900F5439000421231BDE5432401FFE4354238
:106EA9008F82F583122CA4FF9000451231BD8543D2
:106EB90082854283122CA46F600A900CEFE475F06E
:106EC90001122DD50543E543700205426408454288
:0E6ED90070C0900CEFE07002A3E06002C2B344
:106EE700900CE712313200001194E4FFFEFDFC9094
:106EF7000CE71230EAD31230034017900CE7123038
:106F0700DE74FFFBFAF9F8122EB0900CE712312667
:026F170080D820
:106F19000545E54570020544C394F4E544940150E0
:086F290003026E27A20192FB96
:106F3100900CEB123132000107ACE4FFFEFDFC9036
:106F41000CEB1230EAD31230034017900CEB1230E5
:106F5100DE74FFFBFAF9F8122EB0900CEB12312619
:026F610080D8D6
:106F6300900CEFE0FEA3E0FF4E908B886033E49338
:106F7300FD3395E0FC90028D75F013ED1231A1EC19
:106F830075F013A42583F5831231BDE92407F9E4D1
:106F93003AFA754CFF754D6B754E838E4F8F50804B
:106FA30036E493FF3395E0FE90028D75F013EF12F4
:106FB30031A1EE75F013A42583F5831231BDE924C5
:106FC30007F9E43AFA754CFF754D67754E9F754F97
:106FD300FF75506B75519912638C908B88E493FF06
:106FE3003395E0FE90028D75F013EF1231A1EE752B
:106FF300F013A42583F5831231BDE92407F9E43A9C
:10700300FA12000EEF2401F54DE43EF54C908B8708
:10701300E493FF7B737D011293D5D2B3C2B4C2B59F
:0A702300C2B6E4900004F085468434
:01702D002240
:107FFF00A2FB92018584429000047401F09000402E
:0A800F007410F0A3F0E4900048F0B4
:10801900900CD7123132000107ACE4FFFEFDFC9051
:108029000CD71230EAD31230034017900CD7123014
:10803900DE74FFFBFAF9F8122EB0900CD712312634
:0280490080D8DD
:10804B00908B88E493FF3395E0FE90028D75F013CF
:10805B00EF1231A1EE75F013A42583F5831231BD18
:10806B00E92407F9E43AFA754CFF754D67754E9F95
:10807B00754FFF75506B7551AA12638C908B88E40A
:10808B0093FF3395E0FE90028D75F013EF1231A143
:10809B00EE75F013A42583F5831231BDE92407F99E
:1080AB00E43AFA12000EEF2401F54DE43EF54C9044
:1080BB008B87E493FF7B737D011293D5900014E0C3
:0280CB00706ED5
:1080CD00900CDB123132000107ACE4FFFEFDFC9099
:1080DD000CDB1230EAD31230034017900CDB123058
:1080ED00DE74FFFBFAF9F8122EB0900CDB1231267C
:0280FD0080D829
:1080FF00908B88E493FF3395E0FE90028D75F0131B
:10810F00EF1231A1EE75F013A42583F5831231BD63
:10811F00E92407F9E43AFA754CFF754D67754E9FE0
:0E812F00754FFF75506A7551A20282E3C2FBC4
:10813D00900CDF123132000107ACE4FFFEFDFC9024
:10814D000CDF1230EAD31230034017900CDF1230DF
:10815D00DE74FFFBFAF9F8122EB0900CDF12312607
:02816D0080D8B8
:10816F00908B88E493FF3395E0FE90028D75F013AA
:10817F00EF1231A1EE75F013A42583F5831231BDF3
:10818F00E92407F9E43AFA754CFF754D6B754E6F9C
:10819F00754F087550017551F412638C908B88E4FC
:1081AF0093FF3395E0FE90028D75F013EF1231A11E
:1081BF00EE75F013A42583F5831231BDE92407F979
:1081CF00E43AFA12000EEF2401F54DE43EF54C901F
:1081DF008B87E493FF7B737D011293D5D2B6D2B315
:1081EF00C2B4C2B5E4F58475C304C2C3FFFEEF2465
:1081FF00F0FD9000421231BD8F828E83ED122D164D
:10820F000FBF00010EEF64084E70E3900048E0606E
:10821F00FA30E816C39002C1E094099002C0E094CE
:10822F00005042E49002C0F0A3F0E4900048F0FE4A
:10823F00FF900041E0FDC3EF9DEE940050239000AE
:10824F00451231BD8F828E83122CA4FD90004212F5
:10825F0031BD8F828E83ED122D160FBF00010E8060
:09826F00D0B2B580A6A20192FB79
:10827800900CE3123132000107ACE4FFFEFDFC90E4
:108288000CE31230EAD31230034017900CE312309B
:10829800DE74FFFBFAF9F8122EB0900CE3123126C7
:0282A80080D87C
:1082AA00908B88E493FF3395E0FE90028D75F0136E
:1082BA00EF1231A1EE75F013A42583F5831231BDB7
:1082CA00E92407F9E43AFA754CFF754D67754E9F34
:1082DA00754FFF75506B7551BD12638C908B88E496
:1082EA0093FF3395E0FE90028D75F013EF1231A1E2
:1082FA00EE75F013A42583F5831231BDE92407F93D
:10830A00E43AFA12000EEF2401F54DE43EF54C90E2
:10831A008B87E493FF7B737D011293D5D2B3C2B4EA
:0C832A00C2B5C2B6E4900004F0854284A5
:018336002224
:10ACB700011201010601010201000000010000006C
:10ACC7000C00000077000004A900002E9B0001D2B1
:10ACD700090012345600B60B61071C71C7471C7177
:01ACE700C7A5
:04A23500410DD60001
:108337009002A01231BD8B378A38893990029FE0AD
:1083470090029EF0E4F531F532F536F535F534F562
:1083570033AB37AA38A9390532E532AE3170020599
:1083670031142406F582E43EF58374FA122D1605BE
:1083770032E532AE3170020531142406F582E43E4F
:10838700F583E4122D160532E532AE317002053160
:10839700142406F582E43EF5837401122D16053286
:1083A700E532AE3170020531142406F582E43EF55C
:1083B70083E4122D160532E532AE31700205311411
:1083C7002406F582E43EF5837401122D160532E585
:1083D70032AE3170020531142406F582E43EF5838E
:1083E700E4122D16AD32AC317F087E0612A26390DF
:1083F7000295E07002A3E070F690026AE0F531A3FF
:10840700E0F53290029FE0FF90029EE0B5071378F7
:10841700331231067B407A4B794C7800D3123019EE
:1084270050E190029FE0FF90029EE06F700302838D
:108437004BE4F531F532AB37AA38A9390532E532C5
:10844700AE3170020531142406F582E43EF58374DB
:1084570001122D160532E532AE31700205311424B2
:1084670006F582E43EF583E4122D160532E532AEB9
:108477003170020531142406F582E43EF583E412D7
:108487002D160532E532AE3170020531142406F59A
:1084970082E43EF583E4122D160532E532AE3170E3
:1084A700020531142406F582E43EF58374C0122DCB
:1084B700160532E532AE3170020531142406F58215
:1084C700E43EF5837408122D160532E532AE31709D
:1084D700020531142406F582E43EF583E4122D16D5
:1084E7000532E532AE3170020531142406F582E417
:1084F7003EF583E4122D16E92406F9E43AFAE92554
:1085070032F9EA3531FA12316300E10000740425CB
:1085170032F532E43531F531AB37AA38A9390532AE
:10852700E532AE3170020531142406F582E43EF5DA
:10853700837401122D160532E532AE317002053112
:10854700142406F582E43EF583E4122D160532E580
:1085570032AE3170020531142406F582E43EF5830C
:108567007401122D160532E532AE31700205311451
:108577002406F582E43EF583E4122D160532E53232
:10858700AE3170020531142406F582E43EF583E42A
:10859700122D160532E532AE31700205311424066C
:1085A700F582E43EF583E4122D160532E532AE314D
:1085B70070020531142406F582E43EF583E4122D9A
:1085C700160532E532AE3170020531142406F58204
:1085D700E43EF583E4122D16AD32AC317F007E0602
:0D85E70012A263900295E07002A3E070F60E
:1085F400900CC7123132000008CAE4FFFEFDFC9063
:108604000CC71230EAD31230034017900CC7123053
:10861400DE74FFFBFAF9F8122EB0900CC712312663
:0286240080D8FC
:108626007B017A0279937F007EE17D007C00128FC8
:01863600C281
:10863700900CCB12313200004650E4FFFEFDFC9057
:108647000CCB1230EAD31230034017900CCB123008
:10865700DE74FFFBFAF9F8122EB0900CCB1231261C
:0286670080D8B9
:0186690022EE
:1000A60078E77C0C7D017BFF7AAC79B77E007F090F
:1000B600122C659002A01231BD8B498A4A894B9059
:1000C6000014E0700302020A90029FE090029EF084
:1000D600E4F548E4F546F547E54875F003A424E75A
:1000E600F582E4340CF583E0FFAB49AA4AA94B0537
:1000F60047E547AC4670020546142406F582E43C03
:10010600F583EF122D16E54875F003A424E7F58272
:10011600E4340CF583A3E0FF0547E547AC467002DF
:100126000546142406F582E43CF583EF122D16E508
:100136004875F003A424E9F582E4340CF583E0FF66
:100146000547E547AC4670020546142406F582E4E9
:100156003CF583EF12A258900295E07002A3E0707E
:10016600F690029FE0FF90029EE06F60F49002A37B
:100176001231BD90029FE0FF75F0DCA4F58285F098
:1001860083122E2CF54785F046EFB402047F0080DB
:100196000690029FE004FF90029FEFF0E54764019E
:1001A6007004E5466405600C90029FE0FF90029E95
:0401B600E0B507B9F0
:1001BA00900CC712313200001194E4FFFEFDFC904E
:1001CA000CC71230EAD31230034017900CC7123012
:1001DA00DE74FFFBFAF9F8122EB0900CC712312622
:0201EA0080D8BB
:1001EC00E54764017004E546640560030200D90527
:1001FC0048E548C3940350030200D9020DD2E4F53C
:10020C0046F547AB49AA4AA94B0547E547AE4670A8
:10021C00020546142406F582E43EF5837401122D82
:10022C00160547E547AE4670020546142406F582CE
:10023C00E43EF5837402122D160547E547AE467071
:10024C00020546142406F582E43EF583E4122D16CD
:10025C000547E547AE4670020546142406F582E4D0
:10026C003EF5837401122D160547E547AE46700224
:10027C000546142406F582E43EF583E4122D16059A
:10028C0047E547AE4670020546142406F582E43E67
:10029C00F583E4122D160547E547AE467002054678
:1002AC00142406F582E43EF5837401122D160547DD
:1002BC00E547AE4670020546142406F582E43EF589
:1002CC00837401122D160547E547AE4670020546AC
:1002DC00142406F582E43EF583E4122D160547E559
:1002EC0047AE4670020546142406F582E43EF583BB
:1002FC00E4122D160547E547AE4670020546142458
:10030C0006F582E43EF583E4122D160547E547AE6B
:10031C004670020546142406F582E43EF583E41289
:10032C002D160547E547AE4670020546142406F522
:10033C0082E43EF5837401122D160547E547AE465F
:10034C0070020546142406F582E43EF58374061209
:10035C002D160547E547AE4670020546142406F5F2
:10036C0082E43EF583E4122D160547E547AE467050
:10037C00020546142406F582E43EF5837401122D21
:10038C00160547E547AE4670020546142406F5826D
:10039C00E43EF583E4122D160547E547AE467002A0
:1003AC000546142406F582E43EF583E4122D160569
:1003BC0047E547AE4670020546142406F582E43E36
:1003CC00F5837401122D160547E547AE46700205FC
:1003DC0046142406F582E43EF5837412122D16059C
:1003EC0047E547AE4670020546142406F582E43E06
:1003FC00F583E4122D160547E547AE467002054617
:10040C00142406F582E43EF5837401122D1605477B
:10041C00E547AE4670020546142406F582E43EF527
:10042C0083E4122D160547E547AE467002054614C7
:10043C002406F582E43EF583E4122D160547E547C4
:10044C00AE4670020546142406F582E43EF583742C
:10045C0001122D160547E547AE46700205461424D9
:10046C0006F582E43EF5837403122D160547E54725
:10047C00AE4670020546142406F582E43EF583E48C
:10048C00122D160547E547AE4670020546142406A4
:10049C00F582E43EF583E4122D160547E547AE469A
:1004AC0070020546142406F582E43EF583E4122D11
:1004BC00160547E547AE4670020546142406F5823C
:1004CC00E43EF583E4122D160547E547AE4670026F
:1004DC000546142406F582E43EF5837401122D16AC
:1004EC000547E547AE4670020546142406F582E43E
:1004FC003EF5837430122D160547E547AE46700263
:10050C000546142406F582E43EF583E4122D160507
:10051C0047E547AE4670020546142406F582E43ED4
:10052C00F583E4122D160547E547AE4670020546E5
:10053C00142406F582E43EF583E4122D160547E5F6
:10054C0047AE4670020546142406F582E43EF58358
:10055C00E4122D160547E547AE46700205461424F5
:10056C0006F582E43EF5837401122D160547E54726
:10057C00AE4670020546142406F582E43EF58374FB
:10058C0004122D160547E547AE46700205461424A5
:10059C0006F582E43EF583E4122D160547E547AED9
:1005AC004670020546142406F582E43EF583E412F7
:1005BC002D160547E547AE4670020546142406F590
:1005CC0082E43EF583E4122D160547E547AE4670EE
:1005DC00020546142406F582E43EF583E4122D163A
:1005EC000547E547AE4670020546142406F582E43D
:1005FC003EF5837401122D160547E547AE46700291
:10060C000546142406F582E43EF5837420122D165B
:10061C000547E547AE4670020546142406F582E40C
:10062C003EF583E4122D160547E547AE46700205EC
:10063C0046142406F582E43EF583E4122D16054794
:10064C00E547AE4670020546142406F582E43EF5F5
:10065C0083E4122D160547E547AE46700205461297
:10066C00A24E900295E07002A3E070F690029FE01B
:10067C00FF90029EE06F60F49002A31231BD9002D5
:10068C009FE0FF75F0DCA4F58285F083122E2CF52B
:10069C004785F046EFB402047F00800690029FE08D
:1006AC0004FF90029FEFF0E54764017004E5466497
:0F06BC0005600C90029FE0FF90029EE0B507B929
:1006CB00900CCB12313200002328E4FFFEFDFC908E
:1006DB000CCB1230EAD31230034017900CCB1230F4
:1006EB00DE74FFFBFAF9F8122EB0900CCB12312608
:0206FB0080D8A5
:1006FD00E54764017004E5466405600302020AE4FF
:10070D00F546F547AB49AA4AA94B0547E547AE461D
:10071D0070020546142406F582E43EF58374011239
:10072D002D160547E547AE4670020546142406F51D
:10073D0082E43EF5837411122D160547E547AE464A
:10074D0070020546142406F582E43EF583E4122D6D
:10075D00160547E547AE4670020546142406F58298
:10076D00E43EF583E4122D160547E547AE467002CB
:10077D000546142406F582E43EF583E4122D160594
:10078D0047E547AE4670020546142406F582E43E61
:10079D00F583E4122D160547E547AE467002054672
:1007AD00142406F582E43EF5837401122D160547D7
:1007BD00E547AE4670020546142406F582E43EF583
:1007CD00837421122D160547E547AE467002054686
:1007DD00142406F582E43EF583E4122D160547E553
:1007ED0047AE4670020546142406F582E43EF583B5
:1007FD00E4122D160547E547AE4670020546142452
:10080D0006F582E43EF583E4122D160547E547AE65
:10081D004670020546142406F582E43EF583E41283
:10082D002D160547E547AE4670020546142406F51C
:10083D0082E43EF5837401122D160547E547AE4659
:10084D0070020546142406F582E43EF583742212E7
:10085D002D160547E547AE4670020546142406F5EC
:10086D0082E43EF583E4122D160547E547AE46704A
:10087D00020546142406F582E43EF583E4122D1696
:10088D000547E547AE4670020546142406F582E499
:10089D003EF583E4122D160547E547AE4670020579
:1008AD0046142406F582E43EF583E4122D16054721
:1008BD00E547AE4670020546142406F582E43EF582
:1008CD0083740A122D160547E547AE46700205469C
:1008DD00142406F582E43EF5837407122D160547A0
:1008ED00E547AE4670020546142406F582E43EF552
:1008FD0083E4122D160547E547AE467002054614F2
:10090D002406F582E43EF583E4122D160547E547EE
:10091D00AE4670020546142406F582E43EF583E4E6
:10092D00122D160547E547AE4670020546142406FE
:10093D00F582E43EF583E4122D160547E547AE46F4
:10094D0070020546142406F582E43EF583740A12FE
:10095D002D160547E547AE4670020546142406F5EB
:10096D0082E43EF5837408122D160547E547AE4621
:10097D0070020546142406F582E43EF583E4122D3B
:10098D00160547E547AE4670020546142406F58266
:10099D00E43EF583E4122D160547E547AE46700299
:1009AD000546142406F582E43EF583E4122D160562
:1009BD0047E547AE4670020546142406F582E43E2F
:1009CD00F583E4122D160547E547AE467002054640
:1009DD00142406F582E43EF583740A122D1605479C
:1009ED00E547AE4670020546142406F582E43EF551
:1009FD00837402122D160547E547AE467002054673
:100A0D00142406F582E43EF583E4122D160547E520
:100A1D0047AE4670020546142406F582E43EF58382
:100A2D00E4122D160547E547AE467002054614241F
:100A3D0006F582E43EF583E4122D160547E547AE33
:100A4D004670020546142406F582E43EF583E41251
:100A5D002D160547E547AE4670020546142406F5EA
:100A6D0082E43EF583740A122D160547E547AE461E
:100A7D0070020546142406F582E43EF583740912CE
:100A8D002D160547E547AE4670020546142406F5BA
:100A9D0082E43EF583E4122D160547E547AE467018
:100AAD00020546142406F582E43EF583E4122D1664
:100ABD000547E547AE4670020546142406F582E467
:100ACD003EF583E4122D160547E547AE4670020547
:100ADD0046142406F582E43EF583E4122D160547EF
:100AED00E547AE4670020546142406F582E43EF550
:100AFD0083740A122D160547E547AE46700205466A
:100B0D00142406F582E43EF5837401122D16054773
:100B1D00E547AE4670020546142406F582E43EF51F
:100B2D0083E4122D160547E547AE467002054614BF
:100B3D002406F582E43EF583E4122D160547E547BC
:100B4D00AE4670020546142406F582E43EF583E4B4
:100B5D00122D160547E547AE4670020546142406CC
:100B6D00F582E43EF583E4122D160547E547AE46C2
:100B7D0070020546142406F582E43EF583740A12CC
:100B8D002D160547E547AE4670020546142406F5B9
:100B9D0082E43EF5837403122D160547E547AE46F4
:100BAD0070020546142406F582E43EF583E4122D09
:100BBD00160547E547AE4670020546142406F58234
:100BCD00E43EF583E4122D160547E547AE46700267
:100BDD000546142406F582E43EF583E4122D160530
:100BED0047E547AE467002054612A24E900295E0CB
:100BFD007002A3E070F690029FE0FF90029EE06FFE
:100C0D0060F49002A31231BD90029FE0FF75F0DCFD
:100C1D00A4F58285F083122E2CF54785F046EFB4AE
:100C2D0002047F00800690029FE004FF90029FEF78
:100C3D00F0E54764017004E5466405600C90029F81
:090C4D00E0FF90029EE0B507B93A
:100C5600900CCF12313200002328E4FFFEFDFC90F9
:100C66000CCF1230EAD31230034017900CCF12305B
:100C7600DE74FFFBFAF9F8122EB0900CCF12312673
:020C860080D814
:100C8800E54764017004E5466405600302070CE467
:100C9800F546F547AB49AA4AA94B0547E547AE468D
:100CA80070020546142406F582E43EF58374FA12B0
:100CB8002D160547E547AE4670020546142406F58D
:100CC80082E43EF583E4122D160547E547AE4670EB
:100CD800020546142406F582E43EF5837401122DBC
:100CE800160547E547AE4670020546142406F58208
:100CF800E43EF583E4122D160547E547AE4670023B
:100D08000546142406F582E43EF5837401122D1677
:100D18000547E547AE4670020546142406F582E409
:100D28003EF583E4122D167F0812A25D900295E02D
:100D38007002A3E070F690029FE0FF90029EE06FC1
:100D480060F49002A31231BD90029FE0FF75F0DCC1
:100D5800A4F58285F083122E2CF54785F046EFB472
:100D680002047F00800690029FE004FF90029FEF3C
:100D7800F0E54764017004E5466405600C90029F45
:090D8800E0FF90029EE0B507B9FE
:100D9100900CD312313200001194E4FFFEFDFC905F
:100DA1000CD31230EAD31230034017900CD3123017
:100DB100DE74FFFBFAF9F8122EB0900CD312312633
:020DC10080D8D8
:0F0DC300E54764017004E54664056003020C9780
:100DD200900CA7E0FBE4FAF9F87F807E967D98FC00
:100DE20012AC0D8F4F8E4E8D4D8C4C780812302ADE
:100DF200E4FFE4FDFCC004C005C006C007AF4FAE6F
:100E02004EAD4DAC4C781812302AE4FEFDFCD003F6
:100E1200D002D001D000122FE8C004C005C006C025
:100E220007AF4FAE4EAD4DAC4C780812303DE4FFEB
:100E3200FEE4FCD003D002D001D000122FE8C0049F
:100E4200C005C006C007AF4FAE4EAD4DAC4C7818D2
:100E520012303DE4FFFEFDECD003D002D001D00001
:100E6200122FE8AB49AA4AA94B9000061230BAE405
:100E7200754F0AF54EF54DF54CAF4FAE4EAD4DAC3C
:100E82004C780812302AE4FFE4FDFCC004C005C01F
:100E920006C007AF4FAE4EAD4DAC4C781812302A9B
:100EA200E4FEFDFCD003D002D001D000122FE8C036
:100EB20004C005C006C007AF4FAE4EAD4DAC4C7876
:100EC2000812303DE4FFFEE4FCD003D002D001D092
:100ED20000122FE8C004C005C006C007AF4FAE4ED7
:100EE200AD4DAC4C781812303DE4FFFEFDECD00362
:100EF200D002D001D000122FE8AB49AA4AA94B90E8
:100F0200000A1230BA7546007547080547E547AE34
:100F12004670020546142406F582E43EF583740108
:100F2200122D160547E547AE467002054614240603
:100F3200F582E43EF5837401122D160547E547AEAE
:100F42004670020546142406F582E43EF583E41257
:100F52002D160547E547AE4670020546142406F5F0
:100F620082E43EF583E4122D160547E547AE46704E
:100F7200020546142406F582E43EF5837432122DEE
:100F8200160547E547AE4670020546142406F5826B
:100F9200E43EF583E4122D160547E547AE4670029E
:100FA2000546142406F582E43EF5837434122D16A8
:100FB2000547E547AE4670020546142406F582E46D
:100FC2003EF5837403122D160547E547AE467002BF
:100FD2000546142406F582E43EF583E4122D160537
:100FE20047E547AE4670020546142406F582E43E04
:100FF200F583E4122D160547E547AE467002054615
:10100200142406F582E43EF583E4122D160547E525
:1010120047AE4670020546142406F582E43EF58387
:10102200E4122D16AD47AC467F077E0612A26390EE
:101032000295E07002A3E070F690029FE0FF90023A
:101042009EE06F60F49002A31231BD90029FE0FF18
:1010520075F0DCA4F58285F083122E2CF54785F01D
:1010620046EFB402047F00800690029FE004FF90E6
:10107200029FEFF0E54764017004E5466405600CE9
:0C10820090029FE0FF90029EE0B507B9CD
:10108E00900CD712313200001194E4FFFEFDFC905B
:10109E000CD71230EAD31230034017900CD712300F
:1010AE00DE74FFFBFAF9F8122EB0900CD71231262F
:0210BE0080D8D8
:1010C000E54764017004E54664056003020DD290B3
:1010D0000014E070030217E5E4F546F547AB49AAB2
:1010E0004AA94B0547E547AE46700205461424065B
:1010F000F582E43EF583E4122D160547E547AE463A
:1011000070020546142406F582E43EF583E4122DB0
:10111000160547E547AE4670020546142406F582DB
:10112000E43EF583E4122D160547E547AE4670020E
:101130000546142406F582E43EF583E4122D1605D7
:1011400047E547AE4670020546142406F582E43EA4
:10115000F5837440122D160547E547AE467002052B
:1011600046142406F582E43EF583741F122D1605FD
:1011700047E547AE4670020546142406F582E43E74
:10118000F58374E8122D160547E547AE4670020553
:1011900046142406F582E43EF5837403122D1605E9
:1011A00047E547AE4670020546142406F582E43E44
:1011B000F5837498122D160547E547AE4670020573
:1011C00046142406F582E43EF583743A122D160582
:1011D00047E547AE4670020546142406F582E43E14
:1011E000F58374B0122D160547E547AE467002052B
:1011F00046142406F582E43EF5837404122D160588
:1012000047E547AE4670020546142406F582E43EE3
:10121000F58374E8122D160547E547AE46700205C2
:1012200046142406F582E43EF5837403122D160558
:1012300047E547AE4670020546142406F582E43EB3
:10124000F5837403122D160547E547AE4670020577
:1012500046142406F582E43EF583E4122D16AD47CC
:10126000AC467F257E0612A263900295E07002A331
:10127000E070F690029FE0FF90029EE06F60F490B5
:1012800002A31231BD90029FE0FF75F0DCA4F5824D
:1012900085F083122E2CF54785F046EFB402047FCB
:1012A00000800690029FE004FF90029FEFF0E54768
:1012B00064017004E5466405600C90029FE0FF90B5
:0612C000029EE0B507B933
:1012C600900CDB12313200001194E4FFFEFDFC901D
:1012D6000CDB1230EAD31230034017900CDB1230CD
:1012E600DE74FFFBFAF9F8122EB0900CDB123126F1
:0212F60080D89E
:1012F800E54764017004E546640560030210D805FB
:1013080047E54770020546E4F546F547AB49AA4A62
:10131800A94B0547E547AE4670020546142406F575
:1013280082E43EF583E4122D160547E547AE467084
:10133800020546142406F582E43EF583E4122D16D0
:101348000547E547AE4670020546142406F582E4D3
:101358003EF583E4122D160547E547AE46700205B3
:1013680046142406F582E43EF583E4122D1605475B
:10137800E547AE4670020546142406F582E43EF5BC
:1013880083E4122D160547E547AE4670020546145C
:101398002406F582E43EF583E4122D160547E54759
:1013A800AE4670020546142406F582E43EF583E451
:1013B800122D160547E547AE467002054614240669
:1013C800F582E43EF583E4122D16AD47AC467F1650
:1013D8007E0612A263900295E07002A3E070F69078
:1013E800029FE0FF90029EE06F60F49002A312312A
:1013F800BD90029FE0FF75F0DCA4F58285F08312B2
:101408002E2CF54785F046EFB402047F0080069045
:10141800029FE004FF90029FEFF0E547640170042B
:10142800E5466405600C90029FE0FF90029EE0B5DF
:0214380007B9F2
:10143A00900CDF12313200001194E4FFFEFDFC90A3
:10144A000CDF1230EAD31230034017900CDF12304F
:10145A00DE74FFFBFAF9F8122EB0900CDF12312677
:02146A0080D828
:10146C00E54764017004E5466405600302130FE46C
:10147C00F546F547AB49AA4AA94B0547E547AE46A1
:10148C0070020546142406F582E43EF583740512B9
:10149C002D160547E547AE4670020546142406F5A1
:1014AC0082E43EF583E4122D160547E547AE4670FF
:1014BC00020546142406F582E43EF5837404122DCD
:1014CC00160547E547AE4670020546142406F5821C
:1014DC00E43EF5837402122D16E92406F9E43AFA77
:1014EC00E92547F9EA3546FA12316350C300007416
:1014FC00042547F547E43546F546AB49E54B24064C
:10150C00F9E4354AFAE92547F9EA3546FA12316326
:10151C000000000074042547F547E43546F546AB5A
:10152C0049AA4AA94B0547E547AE46700205461441
:10153C002406F582E43EF5837405122D160547E565
:10154C0047AE4670020546142406F582E43EF58348
:10155C00E4122D16E92406F9E43AFAE92547F9EAEA
:10156C003546FA74FA75F000122E6474022547F5AC
:10157C0047E43546F546AB49E54B2406F9E4354AD4
:10158C00FAE92547F9EA3546FA74FA75F000122E95
:10159C006474022547F547E43546F546AB49E54BFF
:1015AC002406F9E4354AFAE92547F9EA3546FA748E
:1015BC006475F000122E6474022547F547E4354635
:1015CC00F546AB49E54B2406F9E4354AFAE92547DB
:1015DC00F9EA3546FA742C75F001122E6474022562
:1015EC0047F547E43546F546AB49AA4AA94B0547AA
:1015FC00E547AE4670020546142406F582E43EF536
:10160C0083E4122D160547E547AE467002054614D5
:10161C002406F582E43EF583E4122D160547E547D2
:10162C00AE4670020546142406F582E43EF583E4CA
:10163C00122D160547E547AE4670020546142406E2
:10164C00F582E43EF583E4122D160547E547AE46D8
:10165C0070020546142406F582E43EF583E4122D4F
:10166C00160547E547AE4670020546142406F5827A
:10167C00E43EF583E4122D160547E547AE467002AD
:10168C000546142406F582E43EF583E4122D160576
:10169C0047E547AE4670020546142406F582E43E43
:1016AC00F583E4122D160547E547AE467002054654
:1016BC00142406F582E43EF583E4122D160547E565
:1016CC0047AE4670020546142406F582E43EF583C7
:1016DC00E4122D160547E547AE4670020546142464
:1016EC0006F582E43EF583E4122D160547E547AE78
:1016FC004670020546142406F582E43EF583E41296
:10170C002D160547E547AE4670020546142406F52E
:10171C0082E43EF583E4122D160547E547AE46708C
:10172C00020546142406F582E43EF583E4122D16D8
:10173C00AD47AC467F247E0612A263900295E07002
:10174C0002A3E070F690029FE0FF90029EE06F60B3
:10175C00F49002A31231BD90029FE0FF75F0DCA45F
:10176C00F58285F083122E2CF54785F046EFB402F6
:10177C00047F00800690029FE004FF90029FEFF030
:10178C00E54764017004E5466405600C90029FE037
:08179C00FF90029EE0B507B9C1
:1017A400900CE312313200001194E4FFFEFDFC9032
:1017B4000CE31230EAD31230034017900CE31230DA
:1017C400DE74FFFBFAF9F8122EB0900CE312312606
:0217D40080D8BB
:0F17D600E54764017004E5466405600302147B77
:0117E50022E1
:10A24E00142406F582E43EF583E4122D167F01AD4B
:05A25E0047AC467E063E
:08A263008E508F518C528D5377
:10A26B009002A01231BD74B5122D049002A01231D0
:10A27B00BD9000017462122D16E550900002122D54
:10A28B0016E551900003122D16E553900004122D84
:10A29B0016E552900005122D16E4F555F5547F0284
:10A2AB00FEE5532406FDE43552FCC3EF9DEE9C50B6
:10A2BB001C9002A01231BD8F828E83122CA42554C8
:10A2CB00F5542555F5550FBF00010E80D49002A013
:10A2DB001231BDE5532406FFE435528F82F583E539
:10A2EB0054122D16E5532407FFE435528F82F58364
:10A2FB00E555122D167B017A027993E5532408FD5F
:07A30B00E43552FC02A94EEB
:064961008B318A3289331C
:10496700900DD6E0700804F01200A6024FDBAB31C1
:10497700AA32A933122E0112327E499101024C84C8
:0A49870001064D65011200004FD536
:1049910074062533F533E43532F532753700753851
:1049A1000075393FE4F53AF53B7831E475F00112D1
:1049B10031AD122C8BFF783774FFF5F01231ADEF6A
:1049C100122D04053BE53B7002053A6404453A703B
:1049D100D8AC3CEC3350047F0180027F008F40AFA4
:1049E1003FAE3EAD3DAC3CEC334002800BAF3FAE41
:1049F1003EAD3DAC3C122FF58F3F8E3E8D3D8C3C44
:104A0100AB34AA35A93690000A12317D00000000AE
:104A1100E4F53AF53BAB34E536240AF9E43535FAE9
:104A2100C003C002C001123050C004C005C006C09E
:104A310007E47B0AFAF9F8AF3FAE3EAD3DAC3C125C
:104A4100AC0DAC00AD01AE02AF03C004C005C006A1
:104A5100C007E53BAE3A7802C333CE33CED8F92452
:104A6100C0F58274AC3EF5831230F6D007D006D083
:104A710005D004122ECBA804A905AA06AB07D007BE
:104A8100D006D005D004122EB0D001D002D003122E
:104A910030A0AF3FAE3EAD3DAC3CE47B0AFAF9F845
:104AA10012AC0D8F3F8E3E8D3D8C3C053BE53B703E
:104AB10002053A640A453A6003024A16E540601568
:104AC100AB34AA35A93690000A123070122FF59036
:104AD100000A1230BA75370075380075393FE4F5B0
:104AE1003AF53B7831E475F0011231AD122C8BFFB0
:104AF100783774FFF5F01231ADEF122D04053BE567
:104B01003B7002053A6404453A70D8AC3CEC335032
:104B1100047F0180027F008F40AF3FAE3EAD3DACD0
:104B21003CEC334002800BAF3FAE3EAD3DAC3C129E
:104B31002FF58F3F8E3E8D3D8C3CAB34AA35A93687
:104B410090000612317D00000000E4F53AF53BAB20
:104B510034E5362406F9E43535FAC003C002C00154
:104B6100123050C004C005C006C007E47B0AFAF940
:104B7100F8AF3FAE3EAD3DAC3C12AC0DAC00AD016B
:104B8100AE02AF03C004C005C006C007E53BAE3AA4
:104B91007802C333CE33CED8F924C0F58274AC3E4B
:104BA100F5831230F6D007D006D005D004122ECBF3
:104BB100A804A905AA06AB07D007D006D005D004E2
:104BC100122EB0D001D002D0031230A0AF3FAE3EC2
:104BD100AD3DAC3CE47B0AFAF9F812AC0D8F3F8E87
:104BE1003E8D3D8C3C053BE53B7002053A640A4530
:104BF1003A6003024B50E5406015AB34AA35A93643
:104C0100900006123070122FF59000061230BA741F
:104C1100042533F533E43532F53275370075380044
:104C210075393FE4F53AF53B7831E475F00112311D
:104C3100AD122C8BFF783774FFF5F01231ADEF1206
:104C41002D04053BE53B7002053A6404453A70D8F2
:104C5100AF3FAE3EAD3DAC3CE47BE87A03F9F812E0
:104C6100AC0D8F3F8E3E8D3D8C3CAB34AA35A936C1
:104C710090000EEE8FF0122E839002EEE04404F0CD
:104C8100024FDBAB31AA32A93390002F122CA4FEC4
:104C910090002E122CA47C002400FFEC3E9002BD5B
:104CA100F0A3EFF0900031122CA4900CADF074023F
:104CB1002533F533E43532F532FAA93390000B127E
:104CC1002CA4540D640D6008E4900CADF0024D5B12
:104CD100E5362403F9E43535853437F5388939E487
:104CE100F53AF53B7831E475F0011231AD122C8BB8
:104CF100FF783774FFF5F01231ADEF122D04053B4B
:104D0100E53B7002053A6404453A70D874042533D2
:104D1100F533E43532F532E5362404F9E43535FA74
:104D2100E92401F9E43A853437F5388939E4F53A6B
:104D3100F53B7831E475F0011231AD122C8BFF781F
:104D41003774FFF5F01231ADEF122D04053BE53B51
:104D51007002053A6402453A70D89002EEE04402CE
:044D6100F0024FDB32
:104D650074062533F533E43532F532AB31FAA93320
:104D75001230508F3F8E3E8D3D8C3C780812302A84
:104D8500E4FFE4FDFCC004C005C006C007AF3FAEAC
:104D95003EAD3DAC3C781812302AE4FEFDFCD00354
:104DA500D002D001D000122FE8C004C005C006C053
:104DB50007AF3FAE3EAD3DAC3C780812303DE4FF59
:104DC500FEE4FCD003D002D001D000122FE8C004CD
:104DD500C005C006C007AF3FAE3EAD3DAC3C781840
:104DE50012303DE4FFFEFDECD003D002D001D0002F
:104DF500122FE88F3F8E3E8D3D8C3CE47B64FAF9A3
:104E0500F812AC0D8F3F8E3E8D3D8C3C8E428F430C
:104E150074042533F533E43532F532AB31FAA93371
:104E25001230508F3F8E3E8D3D8C3C780812302AD3
:104E3500E4FFE4FDFCC004C005C006C007AF3FAEFB
:104E45003EAD3DAC3C781812302AE4FEFDFCD003A3
:104E5500D002D001D000122FE8C004C005C006C0A2
:104E650007AF3FAE3EAD3DAC3C780812303DE4FFA8
:104E7500FEE4FCD003D002D001D000122FE8C0041C
:104E8500C005C006C007AF3FAE3EAD3DAC3C78188F
:104E950012303DE4FFFEFDECD003D002D001D0007E
:104EA500122FE88F3F8E3E8D3D8C3CE47B64FAF9F2
:104EB500F812AC0D8F3F8E3E8D3D8C3C8E408F4160
:104EC50074042533F533E43532F532AB31FAA933C1
:104ED5001230508F3F8E3E8D3D8C3C780812302A23
:104EE500E4FFE4FDFCC004C005C006C007AF3FAE4B
:104EF5003EAD3DAC3C781812302AE4FEFDFCD003F3
:104F0500D002D001D000122FE8C004C005C006C0F1
:104F150007AF3FAE3EAD3DAC3C780812303DE4FFF7
:104F2500FEE4FCD003D002D001D000122FE8C0046B
:104F3500C005C006C007AF3FAE3EAD3DAC3C7818DE
:104F450012303DE4FFFEFDECD003D002D001D000CD
:104F5500122FE88F3F8E3E8D3D8C3CE47B64FAF941
:104F6500F812AC0D8F3F8E3E8D3D8C3CC3E49FF512
:104F750045E49EF544E5405407FEE47803CEC313AB
:104F8500CE13D8F9AB34AA35A936900010122D16D8
:104F9500E5425407FEE47806CEC313CE13D8F99044
:104FA5000010122CD1E5445403900010122CD1E5C9
:104FB50041900011122D16E543900012122D16E5B1
:0E4FC50045900013122D169002EEE04401F00C
:104FD3008006753A00753B019002EEE064076003BA
:104FE300025197F0900CADE0600302511290000063
:104FF300E075F015A424C2F9740235F0FA7B01A818
:1050030036AC35AD347E007F15122C65AB34AA3532
:10501300A936123050EF24FAFFE43EFEE43DFDE4EE
:105023003CFC1230A0900000E0640175F015A4244C
:10503300C2F582E43402F5831230DEE4FBFAF9F8B8
:10504300C31230197003025112AB34E5362406F94A
:10505300E43535FAC003C002C001123050C004C0A9
:1050630005C006C007900000E0FF640175F015A4B9
:1050730024C8F582E43402F5831230EAEF75F015A3
:10508300A424C8F582E43402F5831230DE122EBD67
:10509300A804A905AA06AB07D007D006D005D004FB
:1050A300122EB0D001D002D0031230A0AB34E536BB
:1050B300240AF9E43535FAC003C002C001123050A6
:1050C300C004C005C006C007900000E0FF6401757E
:1050D300F015A424CCF582E43402F5831230EAEF10
:1050E30075F015A424CCF582E43402F5831230DE86
:1050F300122EBDA804A905AA06AB07D007D006D077
:1051030005D004122EB0D001D002D0031230A090EB
:105113000000E06401F0E075F015A424C2F9740204
:1051230035F0A801FC7D01AB34AA35A9367E007F9A
:1051330015122C65908B8AE493FF3395E0FE900261
:105143008D75F013EF1231A1EE75F013A42583F5DD
:10515300831231BDE92407F9E43A8B37F5388939ED
:10516300900CADE0FF7837E475F0011231ADEF122A
:105173002D04A839AC38AD37AB34AA35A9367E0037
:105183007F15122C65754C00754D167B227D037FB0
:04519300021293D59C
:0151970022F5
:10AD4000EF6004C2B18002D2B1E4FF0FBF14FCD2A5
:10AD5000B2E4FF0FBF14FCE4FEB2B1E4FF0FBF1476
:07AD6000FC0EBE85F4C2B237
:01AD670022C9
:10ADC400AF84E4F58475C04475CFEC43C040C2C37E
:05ADD40043E6028F843C
:01ADD9002257
:03003B000295A388
:1095A300C0E0C083C082C0D075D000C000C001C07D
:0795B30002C003C006C0075F
:1095BA00C200AFC1EF1232589608089608109629D1
:1095CA001896572096292896573096C638965E40A0
:1095DA00965948965E5096975896CB6096CB709659
:1095EA00D98097268896D9909726989758A0972A2F
:1095FA00A8972AB8973EC09758C8000096C6900008
:10960A003DE0F5C2900048E4F053C2FEA20C33429A
:10961A00C2C2C590003FE4F090003EF00297589015
:10962A000040E0FF90003EE0FEC39F5019900042C8
:10963A001231BD8E82758300122CA4F5C290003EB1
:10964A00E004F0029758D2C4C20B029758D2C5D28E
:10965A00C502975890003FE0601624FFFFE434FFEC
:10966A00FE9000451231BD8F828E83E5C2122D16FF
:10967A0090003FE004F0900041E0FF90003FE0C31B
:10968A009F5005D2C2029758C2C202975890003F13
:10969A00E024FFFFE434FFFE9000451231BD8F82C3
:1096AA008E83E5C2122D1690003FE004F090004828
:1096BA007401F0D2C4C20BD2C2029758D2000297E8
:1096CA0058900048E4F090003EF0A3F002975890BA
:1096DA00003FE0FF700D900041E5C2F0900048E4C1
:1096EA00F08017EF24FFFFE434FFFE9000451231AB
:1096FA00BD8F828E83E5C2122D1690003FE004F0E2
:10970A00900041E0FF90003FE0D39F400B9000485B
:10971A007401F090003FE4F0D2C28032D2C2802EAF
:10972A009000421231BD90003EE0FF04F08F827536
:10973A008300801590003EE024FFFFE434FFFE9092
:10974A0000421231BD8F828E83122CA4F5C23000E2
:10975A001053C0BF43C040C2C5C2C4C2C2C20BC2BA
:03976A0000C2C377
:10976D00D007D006D003D002D001D000D0D0D08207
:05977D00D083D0E032B2
:10ADAB00AF84E4F584D2C6200BFDD20BC20C90000D
:08ADBB003DE0F5C3D2C58F8411
:01ADC300226D
:10AD8F00AF84E4F584D2C6200BFDD20BD20C900019
:0BAD9F003DE0F5C3D2C5200BFD8F8402
:01ADAA002286
:10A2390002080001010C00020D0000420DD30000CC
:04A24900410DD500EE
:06A94E008B568A57895860
:10A95400858459AB56AA57A958900002122E2C454B
:10A96400F070F0AB56AA57A95890000D1231CFC021
:10A9740003C002C001AB56AA57A958900007123170
:10A98400FFAB56AA57A958900002EC8DF0122E8303
:10A99400122C8B7006F584D2998005758401D299A6
:03A9A4008559844E
:01A9A700228D
:10003E00AE84E4F5848F9B30FFFDC2FFAF9B8E84B0
:01004E00228F
:10A9A800AF8475840F759601758C67E4FDFC0DBD49
:10A9B80000010CE4B505F7ECB401F3E58C30E7FBD6
:10A9C800759701E4F58A758905F58475B72075844E
:10A9D8000F758D01758F01758E03FCFD0DBD00018E
:10A9E8000CE4B505F7ECB401F3438902E58930E4DA
:06A9F800FB7597028F843D
:01A9FE002236
:0E8FC2008B428A4389448F488E478D468C45EA
:108FD000858449122C8B14606F0460030291C2E4F3
:108FE000F58475911590000A122CA424BB601824F6
:108FF000F6601424EA601024F76007146009242145
:10900000700875985080037598D0E4F58475C8048D
:1090100075C908AB48AA47A946A845FFFE7D657CEF
:1090200004122F56E47B10FAF9F8122F56122FF57E
:109030008ECB8FCA74FFF5CDF5CCD2CAE4F584C2CD
:1090400099C298D2AC0291C2758401AB42AA43A9DD
:109050004490000A122CA424BB601824F660142447
:10906000EA601024F76007146009242170087598DD
:10907000108003759890E4F58453890F438920ABE1
:1090800048AA47A946A845FFFE7D657C04122F56D5
:10909000E47B02FAF9F8122F56E4FB7A01F9F81290
:1090A0002F56E47B01FAF9F8D31230194026AB4869
:1090B000AA47A946A845E4FFFE7D657C04122F5609
:1090C000E47B02FAF9F8122F56122FF58F8D438E9A
:1090D000100291B3AB48AA47A946A845E4FFFE7D1C
:1090E000657C04122F56E47B02FAF9F8122F56E43D
:1090F000FB7A01F9F8122F56E47B04FAF9F8D3123F
:1091000030194031AB48AA47A946A845E4FFFE7D87
:10911000657C04122F56E47B02FAF9F8122F56E40C
:109120007B04FAF9F8122F56122FF58F8D538EEC1F
:10913000438E01807EAB48AA47A946A845E4FFFEBE
:109140007D657C04122F56E47B02FAF9F8122F5643
:10915000E4FB7A01F9F8122F56E47B0CFAF9F8D304
:10916000123019AB48AA47A946A845E4FFFE7D6521
:109170007C04401F122F56E47B02FAF9F8122F5696
:10918000E47B0CFAF9F8122F56122FF58F8D538EBF
:10919000EC8020122F56E47B02FAF9F8122F56E4E5
:1091A0007B30FAF9F8122F56122FF58F8D538EEC73
:1091B000438E02858D8BD28E758401C299C29843ED
:0591C000E74085498431
:0191C5002287
:10002600AF84E4F584759D04759A70C2FFD2F88F8B
:010036008445
:0100370022A6
:10AD1600AD84758401E4F5C8F5C9EF2408FFE43E67
:10AD2600FEC3E49FFFE49EF5CB8FCA74FFF5CDF515
:09AD3600CC43E70143C8048D84FD
:01AD3F0022F1
:030023000291C681
:1091C600C0E0C0F0C083C082C0D075D000C000C06F
:0D91D60001C002C003C004C005C006C007F0
:1091E300E59820E00302935D8599275398FEE508EF
:1091F300600302932AE50924FE606314700302925C
:10920300921470030292F72403600302932A750DEC
:1092130000750E00E5276416600302932A90028B03
:10922300E0FF7E007C027D1D122D389002901231EA
:10923300BDE92FF9EA3E8B0FF5108911FA050EE50A
:109243000EAE0D7002050D14F5828E83E527122DE7
:1092530016E527620C75080075090202932AAB0F05
:10926300AA10A911050EE50EAE0D7002050D14F539
:10927300828E83E527122D16E527620CE50E640620
:10928300450D600302932AF50875090302932AAB7F
:109293000FAA10A911050EE50EAE0D7002050D14EF
:1092A300F5828E83E527122D16630CFFE50C6527E7
:1092B3007031AB0FAA10A911900003122CA4750AE8
:1092C30000F50B750B00F50A900004122CA4250B76
:1092D300F50BE4350AF50A450B6046750800750978
:1092E300048044750D00750E00750800750901753D
:1092F3000C008033D2B4AB0FAA10A911050EE50EF2
:10930300AE0D7002050D14F5828E83E527122D161E
:10931300E50B2407FFE4350AFEEFB50E0AEEB50DA3
:1093230006750800750905E50964054508702BC233
:10933300B4F508750901F50DF50EF50C90028412CC
:1093430031BDE94A4B7013AB0FAA10A911900284E7
:109353001231C690028BE06401F0E59830E13E9053
:109363000282E07002A3E06023D2B490028712313C
:10937300BD122C8BF599900288E475F001122DD55E
:1093830090028274FFF5F0122DD5800EC2B47B00DB
:0D9393007A0079009002871231C65398FDD0
:1093A000D007D006D005D004D003D002D001D00021
:0B93B000D0D0D082D083D0F0D0E032CB
:0300A300028D8B40
:108D8B00C0E0C0F0C083C082C0D075D000C000C0AE
:098D9B0001C002C003C006C007BC
:108DA400E59820E003028F36859928900DD5E012CE
:108DB40032588DD5008DE6018DF9028E49038E76E9
:108DC400048E8F058EB6068EF7078F080800008F75
:108DD40033E52864B56003028F33900DD504F002A7
:108DE4008F33E528900DD5B462067402F0028F33F8
:108DF400E4F0028F33751800751700900DD3E4F07A
:108E0400A3F090029EE075F0DCA4FF9002A312315F
:108E1400BDE92FF9EA35F08B12F5138914FA900D98
:108E2400D3E475F001122DEB85F082F583E5281269
:108E34002D16E5282517F5172518F518900DD57466
:108E440003F0028F33AB12AA13A914900DD3E47567
:108E5400F001122DEB85F082F583E528122D16E53D
:108E6400282517F5172518F518900DD57404F00268
:108E74008F33751500852816E5282517F51725184D
:108E8400F518900DD57405F0028F33E528FEE4251E
:108E940016F516EE3515F515E5282517F5172518D9
:108EA400F518E5164515900DD5700280417406F04D
:108EB400807DAB12AA13A914900DD3E475F00112AE
:108EC4002DEB85F082F583E528122D16E52825176C
:108ED400F5172518F518E5162402FFE43515FE905C
:108EE4000DD3E06E7003A3E06F7044900DD574074A
:108EF400F0803CE517900DD5B528057408F0802F57
:048F0400E4F0802BEA
:108F080090029EE0FFB402067E007F008003EF041B
:108F1800FF8F29E518B5280E90029FE065296006A5
:0B8F280090029EE529F0900DD5E4F0CA
:108F33005398FEE59830E170900295E07002A3E04B
:108F4300605790029DE024BB601A24E0601624F66B
:108F530060042420702290029A1231BD122C8B30AF
:108F6300E00E801190029A1231BD122C8B30E00575
:108F730043980480035398FB90029A1231BD122C3C
:108F83008BF59990029BE475F001122DD590029513
:108F930074FFF5F0122DD5800C7B007A00790090D8
:088FA300029A1231C65398FD39
:108FAB00D007D006D003D002D001D000D0D0D082D1
:078FBB00D083D0F0D0E032BA
:0300730002A3C223
:10A3C200C0E0C0F0C083C082C0D075D000C000C061
:03A3D20006C007BB
:10A3D50075840153C87F90026AE475F001122DD58A
:10A3E5009002BAE0FEA3E0FF90026AE0B50619A369
:10A3F500E0B507149002BAE475F0A0122DD59000CF
:10A4050049E475F001122DD5E4FFFE74242FF58281
:10A41500E4340CF583E0600D74242FF582E4340CEC
:10A42500F583E014F00FBF00010EEF64034E70DBFF
:10A4350075840F20E816C39002C1E094FF9002C016
:10A44500E094FF5007E475F001122DD57584007571
:06A45500BB00C2EDD2ECD9
:10A45B00D007D006D000D0D0D082D083D0F0D0E0BF
:01A46B0032BE
:102618000229DEE86480F8E933E83360110460F0E9
:10262800ED33EC337009E8FCE9FDEAFEEBFF220428
:1026380060DED3EB9FEA9EE99DE8C2E78CF0C2F723
:1026480095F0400CE8CCF8E9CDF9EACEFAEBCFFBEF
:102658001229A985D0F05804700320D5B3E8047076
:10266800075002B2D50229E892D5EC0460F7E4CC11
:10267800C0E0C398F8603B94186008400DD0E0FBB8
:102688000229C0E4FBFAC9FC8028E830E406E4C962
:10269800FBE4CAFCE830E305E4C9CACBFCE854070C
:1026A8006010F8C3E913F9EA13FAEB13FBEC13FC17
:1026B800D8F130F52FC3E49CFCEF9BFFEE9AFEEDBA
:1026C80099FDD0E0FBEF4E4D4C701222DB0302293E
:1026D800E5EC2CFCEF33FFEE33FEED33FDED30E798
:1026E800EB0229C0EF2BFFEE3AFEED39FDD0E0FBFF
:1026F80050130BBB00030229E8ED13FDEE13FEEFA8
:0827080013FFEC13FC0229C0D1
:10271000EC4D6011E8497017ED33EC3304600DE4C3
:10272000FCFFFEFD22E933E8330470F80229DE12D3
:1027300029A958046009E4CC2481500628500902D4
:1027400029E82840030229E5C0E0EB4A7044B9803B
:1027500006D0E0FB0229D4EF4E701CBD8008EBFFD1
:10276000EAFEE9FD80EBE98DF0A4FEE5F00227F931
:10277000E9CDF9EAFEEBFFEF89F0A4FCE5F0CE89A4
:10278000F0A42EFFE435F0CD89F0A42DFEE435F061
:102790008067EF4E7005BD80D780C3EF8BF0A4AC8F
:1027A000F0EE8BF0A42CFCE435F0F8EF8AF0A42CCA
:1027B000E5F038FCE433CB8DF0A42CFCE5F03BF8DD
:1027C000EE8AF0A42CFCE5F038F8E433CF89F0A4CD
:1027D0002CFCE5F038CF3400CE89F0A42FFFE5F0D3
:1027E0003EFEE433C98DF0A42EFEE5F039CD8AF02B
:1027F000A42FFFE5F03EFEE43DFD33D0E0FB5007A3
:102800000BBB000F0229E8EC2CFCEF33FFEE33FE8C
:06281000ED33FD0229C0BA
:102816000229E8EC5D046005E8590470030229DE2C
:102826001229A9580460F6EC4860F2EC7004FDFE2B
:10283600FF22C860DB2481C85009C3986002500695
:102846000229E59850CAF582E9294B4A7005AB8200
:102856000229D475F0007C1A7880C3EF9BEE9AEDBE
:1028660099400DC3EF9BFFEE9AFEED99FDE842F00D
:10287600DC23ACF0D0E0FFD0E0FED0E0FDAB822060
:10288600E7101BEB60BAEC2CFCEF33FFEE33FEEDEA
:1028960033FD0229C0E803F830E705C0F075F00003
:1028A600EF2FFFEE33FEED33FD40B830E7C280AACE
:1028B60074F8CC6480CCC86480C8F582046043C3D5
:1028C600EB9FF5F0EA9E42F0E99D42F0E89C45F068
:1028D60060305018E5825FFFE582F42B5582FB508D
:1028E600210ABA001D09B90019088016E5825BFBAA
:1028F600E582F42F5582FF50090EBE00050DBD007E
:10290600010CC3EB9FF5F0EA9E42F0E99D42F0E828
:0D2916009C45F06007CC4820E701B3EC229F
:10292300ED33EC33600A047003BD8004ECB2E7FCC2
:012933002281
:1029340075F020800E75F010800575F0087D007E1E
:10294400007F003392D530D503122FF5EC334010BD
:10295400EF33FFEE33FEED33FDEC33FCD5F0ED2227
:0E296400E5F0247EA2D513CC92E7CDCEFF2263
:10297200EDD2E7CD33EC3392D524814006E4FFFE5D
:10298200FDFC22FCE4CFCECDCC24E0501174FF80BC
:10299200EDC3CC13CCCD13CDCE13CECF13CF047059
:0729A200F030D5DE022FF535
:10633000E560244CF8E60560227849300902784C83
:10634000E475F0011231AD022C8B2002EB7F2ED2CE
:10635000028018EF540F2490D43440D4FF30060B41
:10636000EF24BFB41A0050032461FFE561600215F9
:10637000610564E5647002056330090D7849E475D0
:10638000F0011231ADEF022D0402AD687403D209A1
:106390008003E4C209F5608B498A4A894BE4F561C0
:1063A000F563F564E56160077F2012636B80F57526
:1063B00062FFC203C202C204C205C207C208C20A07
:1063C000126339FF700D3009057F0012637CAF64E2
:1063D000AE6322B4255FC2D5C206126339FF24D052
:1063E000B40A00501A75F00A786130D50508B6FF76
:1063F0000106C6A426F620D5047002D20580D92451
:10640000CFB41A00EF5004C2E5D206026669D20387
:1064100080C6D20280C0D20480BCD2D580BAD20756
:1064200080B47F2012636B2004077401B5610040C3
:10643000F1126330FF12636B0263A4D20AD20880A8
:1064400095126330FB126330FA126330F94A4B70D5
:106450000679607A677BFF20042EE561602A7E0062
:106460008E82758300122CA460060EEE656270F0B9
:10647000C2D5EBC0E0EAC0E0E9C0E0EE1266C9D0E8
:10648000E0F9D0E0FAD0E0FB122C8BFF60AAEBC061
:10649000E0EAC0E0E9C0E012636BD0E02401F9D08B
:1064A000E03400FAD0E0FBE5620460DCD562D9801C
:1064B00087D20480A21266AC60F7E5627001041214
:1064C00029F3A962600DE562600914F56212675351
:1064D000EF60F3EA30E702F404C3995077EAF42559
:1064E000620430E701E404F562800D1266AC60C11D
:1064F000EA056225621229F3EA785FF630E701E4E3
:10650000256204D56204200701141266C9E4C0E0C4
:10651000126753785FE6601320E70714F61263539F
:10652000802204F6D0E014C0E07F00126353E562DD
:10653000600712634A1562800B30070312634AD06A
:10654000E00263A4D0E00480C51266AC60A0E562FE
:10655000041229F3785FEAF6E5622007026001047D
:0565600024041266C9CD
:1065650074FF04C0E0126753126353E5622007020B
:10657500600312634AD0E0B562E87F4512635D7837
:106585005FE67F2B30E7047F2DF404C0E012636BD8
:10659500D0E075F00A84C0F0126354D0E012635461
:1065A5000263A4791080027908C208C20A8008D261
:1065B500D5790A8004790AC2D5E562047002F562CC
:1065C500E4FAFDFEFF126330FC7B0820031312631F
:1065D50030FD7B1030020A126330FE126330FF7B00
:1065E50020EC3382D592D55013C3E43002069FFFC9
:1065F500E49EFEE42003039DFDE49CFCE4CBF8C28D
:1066050003EC700CCFCECDCCE824F8F870F38017EE
:10661500C3EF33FFEE33FEED33FDEC33FCEB33FB21
:10662500994002FB0FD8E9EB300305F8D0E0C448E8
:10663500B203C0E00AEC4D4E4F78207B0070C2EAF1
:10664500B5620040BCC0E01266CBD0F0D0E02003BC
:1066550004C4C0E0C4B203C0F0126354D0F0D5F056
:10666500EB0263A412325864415365A85864124C76
:10667500640E4265AC4F65B44465B449642743650F
:10668500BA5564EB4665494564B54767805064165D
:106695002D641A2E643D2B641E23643B2067692AF2
:1066A50063D64800006435E562B4FF0375620612DF
:1066B5006330FC126330FD126330FE126330FF78E5
:1066C50058022A22790AA2D5200514300709B910E3
:1066D500020404B9080104A2D520080250010420CF
:1066E50004689204B561005034C0E07F203005197C
:1066F5007F30A20472087207500F126722C204C2CB
:1067050008C207C20A7F30800F300703E9C0E012D4
:10671500636B300703D0E0F9D0E0B561CC300717E3
:106725007F30B9100C12636B7F583006077F788075
:1067350003B9080312636B3004057F2D02636B7F79
:1067450020200AF87F2B2008F322920480CF7F00B7
:10675500B4070050052458F8E6FF22286E756C6CC6
:106765002900D2031263303003F8C203786130D5B3
:106775000108F60263D62D504349581263302403AD
:10678500B405004001E490677B9312635C743A1290
:0A679500635CD2057561040265A87B
:1029A900E9D2E7C933E833F892D5EDD2E7CD33EC74
:0729B90033FC5002B2D522ED
:1029C000EC30E7100FBF000C0EBE00080DBD000478
:1029D0000BEB6014A2D5EB13FCED92E7FD2274FF24
:1029E000FCFDFEFF22E480F8A2D574FF13FC7D807D
:0329F000E480EF91
:1029F300F920E72824F950037907E4F42402FB18AB
:102A0300DBFDE624FB5014E9600DE4F618E604F65A
:0F2A1300B40A08E4F6D9F57401F60A22C2D522F6
:102A2200ED33EC3392D5FA602AB4FF33EDC2E77B83
:102A3200FF60067A2A7947E4227A2A795020D5045F
:102A42007A2A794B224E614E002B494E46002D497F
:102A52004E4600E47A08F608DAFC7B00740722E8A6
:102A6200C0E0ECC0E0EDC0E0EEC0E0EFC0E0EA752F
:102A7200F010A4CAABF075F04DA42BFBE435F0FCCA
:102A8200EA2410FAEB34C5FBEC34D9FCEDC2E7FFC3
:102A920075F056A4F42411C5F0F434C58FF0A42ABD
:102AA200E5F03BE43CF620E714122B55D0E0FFD0D2
:102AB200E0FED0E0FDD0E0FC1228198014F40412EC
:102AC2002B55D0E0FFD0E0FED0E0FDD0E0FC122795
:102AD20010D0E0F8E6FAEDD2E7CD33EC332482FBF6
:102AE200E4C3CF33CFCE33CECD33CD33DBF37B074D
:102AF20075F00A846004F6081B0AE5F0F6088FF008
:102B0200740AA4FFACF08EF0740AA42CFEACF05050
:102B1200010C8DF0740AA42CFDE435F0F608DBDE1E
:032B220074072213
:102B25003F8000004120000042C80000447A0000B8
:102B3500461C400047C35000497424004B1896803A
:102B45004CBEBC205A0E1BCA6753C21C749DC5AE31
:102B5500FB60065407601C2323122B83EB5438605B
:102B650009122B6F122B7E122710ECF8EDF9EEFAF5
:102B7500EFCB22EB122B7E80F1543803241C902BD3
:102B850025FE93FC0EEE93FD0EEE930ECE93FF22E3
:0300000002A59FB7
:0CA59F00787FE4F6D8FD75817502A5E612
:102B9500E709F608DFFA8046E709F208DFFA803E22
:102BA50088828C83E709F0A3DFFA8032E309F6080F
:102BB500DFFA8078E309F208DFFA807088828C8377
:102BC500E309F0A3DFFA806489828A83E0A3F6082B
:102BD500DFFA805889828A83E0A3F208DFFA804C05
:102BE50080D280FA80C680D4806980F280338010DC
:102BF50080A680EA809A80A880DA80E280CA803345
:102C050089828A83ECFAE493A3C8C582C8CCC583BC
:102C1500CCF0A3C8C582C8CCC583CCDFE9DEE7808C
:102C25000D89828A83E493A3F608DFF9ECFAA9F00B
:102C3500EDFB2289828A83ECFAE0A3C8C582C8CC61
:102C4500C583CCF0A3C8C582C8CCC583CCDFEADE7A
:102C5500E880DB89828A83E493A3F208DFF980CCDC
:102C650088F0EF60010E4E60C388F0ED2402B404D5
:102C75000050B9F582EB2402B4040050AF2323457C
:062C85008223902BE57391
:102C8B00BB010689828A83E0225002E722BBFE0247
:092C9B00E32289828A83E493227A
:102CA400BB010CE58229F582E5833AF583E02250E5
:102CB40006E92582F8E622BBFE06E92582F8E2222F
:0D2CC400E58229F582E5833AF583E4932249
:102CD100BB010FF8E58229F582E5833AF583E02807
:102CE100F0225009C58229F8E58226F622BBFE09A9
:102CF100C58229F8E22582F222F8EA2583F583E9E3
:032D0100932822F2
:102D0400BB010689828A83F0225002F722BBFE01AE
:022D1400F322A8
:102D1600F8BB010DE58229F582E5833AF583E8F0F3
:102D2600225006E92582C8F622BBFE05E92582C89F
:022D3600F22287
:102D3800EF8DF0A4A8F0CF8CF0A428CE8DF0A42EAF
:022D4800FE2269
:102D4A00BC000BBE0029EF8DF084FFADF022E4CC6D
:102D5A00F875F008EF2FFFEE33FEEC33FCEE9DEC36
:102D6A00984005FCEE9DFE0FD5F0E9E4CEFD22ED7C
:102D7A00F8F5F0EE8420D21CFEADF075F008EF2FC6
:102D8A00FFED33FD4007985006D5F0F222C398FDB7
:052D9A000FD5F0EA2254
:102D9F00C2D5EC30E709B2D5E4C39DFDE49CFCEE4F
:102DAF0030E715B2D5E4C39FFFE49EFE122D4AC350
:102DBF00E49DFDE49CFC8003122D4A30D507C3E44B
:062DCF009FFFE49EFE22BE
:102DD500C5F0F8A3E028F0C5F0F8E5821582700289
:062DE5001583E038F02226
:102DEB00A3F8E0C5F025F0F0E5821582700215839B
:062DFB00E0C838F0E822F8
:102E0100BB010A89828A83E0F5F0A3E0225006879C
:102E1100F009E71922BBFE07E3F5F009E31922895E
:0B2E2100828A83E493F5F07401932291
:102E2C00BB0110E58229F582E5833AF583E0F5F0E4
:102E3C00A3E0225009E92582F886F008E622BBFEC1
:102E4C000AE92582F8E2F5F008E222E5832AF58307
:082E5C00E993F5F0A3E99322CC
:102E6400BB010A89828A83F0E5F0A3F0225006F7B9
:0F2E740009A7F01922BBFE06F3E5F009F31922B6
:102E8300F8BB0111E58229F582E5833AF583E8F081
:102E9300E5F0A3F0225009E92582C8F608A6F0223E
:0D2EA300BBFE09E92582C8F2E5F008F22225
:0D2EB000EF2BFFEE3AFEED39FDEC38FC2271
:0E2EBD00C3EF9BFFEE9AFEED99FDEC98FC2210
:102ECB00E88FF0A4CC8BF0A42CFCE98EF0A42CFCA6
:102EDB008AF0EDA42CFCEA8EF0A4CDA8F08BF0A424
:102EEB002DCC3825F0FDE98FF0A42CCD35F0FCEB83
:102EFB008EF0A4FEA9F0EB8FF0A4CFC5F02ECD3948
:0F2F0B00FEE43CFCEAA42DCE35F0FDE43CFC22B4
:102F1A0075F008758200EF2FFFEE33FECD33CDCC6E
:102F2A0033CCC58233C5829BED9AEC99E5829840F1
:102F3A000CF582EE9BFEED9AFDEC99FC0FD5F0D6CE
:102F4A00E4CEFBE4CDFAE4CCF9A88222B800C1B9F8
:102F5A000059BA002DEC8BF084CFCECDFCE5F0CB36
:102F6A00F97818EF2FFFEE33FEED33FDEC33FCEB6F
:102F7A0033FB10D703994004EB99FB0FD8E5E4F92A
:102F8A00FA227818EF2FFFEE33FEED33FDEC33FC17
:102F9A00C933C910D7059BE99A4007EC9BFCE99A0B
:102FAA00F90FD8E0E4C9FAE4CCFB2275F010EF2F50
:102FBA00FFEE33FEED33FDCC33CCC833C810D70750
:102FCA009BEC9AE899400AED9BFDEC9AFCE899F88B
:0E2FDA000FD5F0DAE4CDFBE4CCFAE4C8F9221E
:10AC0D00C2D5E830E70FB2D5E4C39BFBE49AFAE472
:10AC1D0099F9E498F8EC30E717B2D512AC43122F3E
:10AC2D0056E4C39BFBE49AFAE499F9E498F880039F
:10AC3D00122F5630D50DE4C39FFFE49EFEE49DFD1B
:04AC4D00E49CFC2265
:0D2FE800EF4BFFEE4AFEED49FDEC48FC22E8
:0E2FF500C3E49FFFE49EFEE49DFDE49CFC22ED
:10300300EB9FF5F0EA9E42F0E99D42F0EC6480C844
:0630130064809845F022E4
:10301900EB9FF5F0EA9E42F0E99D42F0E89C45F00D
:013029002284
:10302A00E8600FECC313FCED13FDEE13FEEF13FF84
:03303A00D8F122A8
:10303D00E8600FEFC333FFEE33FEED33FDEC33FCF1
:03304D00D8F12295
:10305000BB010789828A830230DE5005E9F802321B
:10306000B1BBFE05E9F80232BD89828A830232C90A
:10307000BB010DE58229F582E5833AF5830230DE56
:103080005007E92582F80232B1BBFE07E92582F834
:103090000232BDE58229F582E5833AF5830232C921
:1030A000BB010789828A830231265005E9F8023282
:0A30B000D9BBFE05E9F80232E52263
:1030BA00BB010DE58229F582E5833AF583023126C3
:1030CA005007E92582F80232D9BBFE07E92582F8C2
:0430DA000232E522B7
:0C30DE00E0FCA3E0FDA3E0FEA3E0FF2265
:0C30EA00E0F8A3E0F9A3E0FAA3E0FB2269
:1030F600E493F8740193F9740293FA740393FB2230
:103106007401FF3395E0FEFDFC080808E62FFFF684
:1031160018E63EFEF618E63DFDF618E63CFCF622FD
:0C312600ECF0A3EDF0A3EEF0A3EFF0221C
:10313200A8828583F0D083D082123149123149129C
:103142003149123149E473E493A3C583C5F0C583C1
:10315200C8C582C8F0A3C583C5F0C583C8C582C8E7
:01316200224A
:10316300BB010789828A830231325005E9F80232B2
:0A317300F1BBFE05E9F802330A2261
:10317D00BB010DE58229F582E5833AF583023132F3
:10318D005007E92582F80232F1BBFE07E92582F8E6
:04319D0002330A22CD
:0C31A100A42582F582E5F03583F5832239
:1031AD00FAE6FB0808E6F925F0F618E6CA3AF62223
:0931BD00E0FBA3E0FAA3E0F92213
:0931C600EBF0A3EAF0A3E9F0220A
:1031CF00BB010DE58229F582E5833AF5830231BD16
:1031DF005007E92582F8023323BBFE07E92582F861
:1031EF00023335E58229F582E5833AF583023347C9
:1031FF00BB0120E58229F582E5833AF583D0F0D033
:10320F00E0F8D0E0F9D0E0FAD0E0FBE8C0E0C0F0A1
:10321F000231C65018E92582F8D083D082D0E0F968
:10322F00D0E0FAD0E0FBC082C08302332CBBFE1883
:10323F00E92582F8D083D082D0E0F9D0E0FAD0E04F
:09324F00FBC082C08302333E2261
:10325800D083D082F8E4937012740193700DA3A305
:1032680093F8740193F5828883E473740293686019
:06327800EFA3A3A380DF19
:10327E00D083D082F8E4937012740193700DA3A3DF
:10328E0093F8740193F5828883E473740293B5F016
:0D329E00067403936860E9A3A3A3A380D87E
:0632AB008A838982E473AE
:10AD6800EFB40A07740D12AD73740A309811A899DC
:10AD7800B8130CC2983098FDA899C298B811F6304B
:07AD880099FDC299F5992223
:0F005E00EFC394204007EF947F50028001C3222C
:10000E00E4FFFE122C8B600C0FEF70010E09E970ED
:05001E00F20A80EF2250
:10A5AB00023353E493A3F8E493A34003F68001F240
:10A5BB0008DFF48029E493A3F85407240CC8C333B1
:10A5CB00C4540F4420C8834004F456800146F6DF80
:10A5DB00E4800B010204081020408090A185E47EEA
:10A5EB00019360BCA3FF543F30E509541FFEE49375
:10A5FB00A360010ECF54C025E060A840B8E493A33C
:10A60B00FAE493A3F8E493A3C8C582C8CAC583CA66
:10A61B00F0A3C8C582C8CAC583CADFE9DEE780BE1E
:01A24D000010
:0C32B100E6FC08E6FD08E6FE08E6FF2249
:0C32BD00E2FC08E2FD08E2FE08E2FF224D
:1032C900E493FC740193FD740293FE740393FF224B
:0C32D900ECF608EDF608EEF608EFF62221
:0C32E500ECF208EDF208EEF208EFF22225
:1032F100D083D082E493F608740193F608740293A4
:09330100F608740393F6740473DA
:10330A00D083D082E493F208740193F20874029392
:09331A00F208740393F2740473C9
:09332300E6FB08E6FA08E6F922CF
:09332C00EBF608EAF608E9F622C6
:09333500E2FB08E2FA08E2F922C9
:09333E00EBF208EAF208E9F222C0
:0C334700E493FB740193FA740293F922E2
:00000001FF
