:1084FA00436F707972696768742028432920323083
:10850A0030342D3920547261636B2053797374654A
:10851A006D7320546563686E6F6C6F676965732C41
:10852A00204C4C43000200FF000000C0C1C1810181
:10853A0040C30103C00280C241C60106C00780C70A
:10854A00410500C5C1C4810440CC010CC00D80CDD9
:10855A00410F00CFC1CE810E400A00CAC1CB810BA8
:10856A0040C90109C00880C841D80118C01980D97A
:10857A00411B00DBC1DA811A401E00DEC1DF811F08
:10858A0040DD011DC01C80DC411400D4C1D5811519
:10859A0040D70117C01680D641D20112C01380D32A
:1085AA00411100D1C1D0811040F00130C03180F1B9
:1085BA00413300F3C1F28132403600F6C1F7813708
:1085CA0040F50135C03480F4413C00FCC1FD813DD9
:1085DA0040FF013FC03E80FE41FA013AC03B80FBAA
:1085EA00413900F9C1F88138402800E8C1E98129F8
:1085FA0040EB012BC02A80EA41EE012EC02F80EF0A
:10860A00412D00EDC1EC812C40E40124C02580E518
:10861A00412700E7C1E68126402200E2C1E3812327
:10862A0040E10121C02080E041A00160C06180A139
:10863A00416300A3C1A28162406600A6C1A7816707
:10864A0040A50165C06480A4416C00ACC1AD816DD8
:10865A0040AF016FC06E80AE41AA016AC06B80ABA9
:10866A00416900A9C1A88168407800B8C1B9817977
:10867A0040BB017BC07A80BA41BE017EC07F80BF09
:10868A00417D00BDC1BC817C40B40174C07580B518
:10869A00417700B7C1B68176407200B2C1B3817327
:1086AA0040B10171C07080B041500090C1918151B8
:1086BA0040930153C052809241960156C057809709
:1086CA0041550095C1948154409C015CC05D809DD8
:1086DA00415F009FC19E815E405A009AC19B815BA7
:1086EA0040990159C058809841880148C0498089F9
:1086FA00414B008BC18A814A404E008EC18F814F07
:10870A00408D014DC04C808C41440084C185814517
:10871A0040870147C046808641820142C043808328
:09872A0041410081C18081404001
:10989E005000150000000000000000000000000055
:1098AE00000000430C29000000410C2800410CACC4
:1098BE000A41000500026F0000026B0000500025F7
:1098CE00000000000000000000000000000000008A
:1098DE000173004102AC00410CB3004200020000D3
:1098EE00410CAF0042026F000042004E00004202E7
:1098FE00BF00A0410CAE00410CB2004202C20000FB
:10990E0041000100410004004102F200410BE2005F
:10991E00410CAD0002740000026D00004202C50051
:10992E00004102C1004102F30041000000410CB4AD
:0D993E0000410014004102F1004102F40458
:1030EF00E4F52DF52CF52BF52A75840F75FFDE759C
:1030FF00FFAD12A137129ECBC2B6C2B5C2B4120039
:10310F003E75340175350975364C7B017A0C79267D
:10311F001297BC1295AA900CAC7414F0E49002C1F3
:10312F00F0900000F0900000E0FFC3942A5018EFD9
:10313F0075F015A424C7F582E43402F583E4F0900A
:10314F000000E004F080DEE4900000F012A0197F90
:10315F00007E9612A4A512A55712A30DE490028625
:10316F00F09002997402F09002A2744EF07B017AF3
:10317F000279F5900295122F627A09794E9002A882
:10318F00122F627A07792F900292122F627A0B799F
:10319F00E39002A5122F62E4900285F0900298044A
:1031AF00F090028F744EF0E490029AF0A3F0900228
:1031BF0087F0A3F09002A4F0900291F09002A3F098
:1031CF00900290F01BFAF990029F122F6290029CCE
:1031DF00122F6290028C122F62900289122F620BB3
:1031EF007A0279857F007E847D037C0012896A7B59
:1031FF00017A02797590004B122F627A0279AD90A5
:10320F000048122F62E490003EF0900047F09000CB
:10321F0046F01BFAF9900043122F62900040122FD4
:10322F0062900014E0600312A51E900014E07B0171
:10323F007A02799860067F807E2580047F007EE188
:10324F007D007C0012896AD2FFD2AF900014E0603B
:01325F003539
:10326000900CB7122ECE000057E4E4FFFEFDFC9058
:103270000CB7122EA6D3122DBF4017900CB7122EEA
:103280009A74FFFBFAF9F8122C6C900CB7122EC24C
:0232900080D8E4
:10329200127C941200A6900CB47401F0E4900262C5
:1032A200F0A3F0A3F090026EF0900268F0A3F09009
:1032B2000266F0A3F0A2DA33900265F0900270E0A9
:1032C2002458FE90026FE0340090026CF0A3CEF01E
:1032D20090004EE0FCA3E0FD2406FEE43C90026A6E
:1032E200F0A3CEF0ED2405FEE43C900CCAF0A3CE90
:1032F200F0E5D854037002806C7B017A0079507536
:103302004E00754F037F107E02129C239001F6E05F
:10331200540F900006F09001F6E054F0C4540F9060
:103322000007F0900006E06403702AE5D85403FF1A
:10333200BF02089002627404F0802E900007E090B1
:103342000262B403097403F0A37401F0801B7401D8
:10335200F0A3F08014900007E0B4030890026274B6
:1033620002F08005E4900262F0E4FFFED390094D82
:10337200E09F90094CE09E401374502FF582740038
:103382003EF583E4F00FBF00010E80E09002ACE056
:103392006028C390001AE094B8900019E0940B5092
:1033A20019C2B3C2B6C2B5C2B4E4F54CF54D7B93B3
:1033B2007D037F02128D7D129452900262E06404BA
:0533C2006003023586E6
:1033C700F52EF52F90004EE0FEA3E0FF900CCAE02B
:1033D700B50612A3E0B5070D752E01900CCAE4756A
:1033E700F001122B9130DB14900264E06404700347
:1033F7000234B67404F0752E010234B6900264E00C
:10340700B404277402F0900270E02403FE90026F68
:10341700E0340090026CF0A3CEF0A2DAE43390021D
:1034270065F0E490026EF0752E0190026CE0FEA349
:10343700E0FF90026FE0FCA3E0FD6F7002EC6E709E
:103447006EA2DA33FF900265E0FE6F703090026E75
:10345700E0C394025005E004F08047EE601090024C
:1034670064E06402603C7402F0752E0180349002BF
:1034770064E06401602C7401F0F52E8025900264ED
:10348700E0640360067403F0752E01900265E07036
:10349700047F0180027F00900265EFF090026E7456
:1034A70001F0ED2458FEE43C90026CF0A3CEF090BE
:1034B7000C28E0FFC394054006EFD3941F403FE577
:1034C7002E603B900264E0FF908532E493FD3395D4
:1034D700E0FC90029275F013ED122F3DEC75F0139E
:1034E700A42583F583122F59900007EF122AD2756E
:1034F7004C00754D017B297D037F02128D7D900263
:1035070063E06004A3E0701E9002647401F090020F
:1035170063F090004FE02405FE90004EE0340090E9
:10352700026AF0A3CEF090026AE0FEA3E0FF9000EB
:103537004EE0B50619A3E0B5071490026AE475F0EA
:103547000A122B91900264E0B40103752F01900CCD
:1035570028E0FFC394054009EFD3941F5003E4F517
:103567002FE52F601A9002637405F0900270E02433
:0F35770003FE90026FE03400900268F0A3CEF0E4
:10358600900268E0FEA3E0FF90026FE0FCA3E0FD7E
:103596006F7002EC6E6003023620900263E024FD39
:1035A600605324FE601A1460522404706D90026306
:1035B6007403F0ED2428FEE43C900268F0A3CEF0FC
:1035C600900263E0B405177406F0900270E02428B8
:1035D600FE90026FE03400900268F0A3CEF09002F5
:1035E60062E024FD600B1460042403702DD2CC80AD
:1035F60029D2CC80259002637404F0900263E0B473
:1036060006037401F0900262E024FD600B1460046E
:1036160024037006C2CC8002C2CC900289122F59B4
:05362600E94A4B602B96
:10362B00900289122F598B2E8A2F89307B007A00BA
:10363B007900900289122F62AB2EAA2FA930E4FFDA
:0B364B00123DB4900CC8EEF0A3EFF0AD
:10365600900CAEE07003023843E4F09002F2E0F41E
:10366600600302372D900262E06404600302372192
:09367600900264E0B40436D2CCE9
:10367F00900CBB122ECE0001B774E4FFFEFDFC9040
:10368F000CBB122EA6D3122DBF4017900CBB122EBF
:10369F009A74FFFBFAF9F8122C6C900CBB122EC225
:0236AF0080D8C1
:0A36B100C2CC900264E06401606680
:1036BB00900CBF122ECE000DBBA0E4FFFEFDFC90C4
:1036CB000CBF122EA6D3122DBF4017900CBF122E7B
:1036DB009A74FFFBFAF9F8122C6C900CBF122EC2E5
:0236EB0080D885
:0236ED00D2CC3D
:1036EF00900CC3122ECE00112A88E4FFFEFDFC9031
:1036FF000CC3122EA6D3122DBF4017900CC3122E3F
:10370F009A74FFFBFAF9F8122C6C900CC3122EC2AC
:02371F0080D850
:10372100C2B3C2B6C2B5C2B4C2FF80FE9002F2E01B
:10373100FF64F07023900C28EFF0E4F574F57590B8
:10374100000574FFF0D2B3D2B6D2B5D2B4C2A85339
:10375100E7FD53E7BF02383EEFB4F10F900C28F0BC
:10376100C2B3C2B6C2B5C2B402383EEF64F2702B26
:10377100900C28EFF0D2B3D2B6D2B5D2B4900C27C8
:10378100E024FFFD900C26E034FFFCE4FBFFFE1279
:103791009FACE4F58443EF010238439002F2E0FF6D
:1037A100C394054008EFD3941F5002D2B69002F2A1
:1037B100E0FFC39405400CEFD3942350067E007FB5
:1037C1000180047E007F00900C28E0FDC394054039
:1037D1000CEDD3942350067C007D0180047C007D98
:1037E10000ED6F7002EC6E604C9002F2E0FFC3944A
:1037F10005403FEFD394235039126D4312A01912A3
:1038010000A6E4900CB3F0900CACE0FF74A08FF034
:103811008475F00AA4FF900270E02401FD90026F0C
:10382100E03400CD2FFEED35F0900002F0A3CEF094
:1038310080031294529002F2E0900C28F0E490027E
:10384100F2F0900C28E0FFC39405500302338EEF91
:10385100D39423400302338E900289122F59E94AEF
:103861004B600302338E900C2BE0600302338E9089
:10387100028C122F59E94A4B600302338E9002AC3D
:10388100E07003023B6390001AE094B8900019E0E5
:10389100940B4007E49002ACF080069002AC7401F6
:1038A100F0C3E570940AE56F648094804006756FFB
:1038B10000757009900014E06007E49002ABF0809D
:1038C1003590001BE0FEA3E0FFEF24FBFFEE34EB9D
:1038D100FEE434FFFDE434FFFCE47BE87A03F9F80D
:1038E100122C87E47BE57A24F9F812A39C9002ABB1
:1038F100EFF0E024CEF0900017E0540FFD9000159A
:10390100E0540FC4F854F0C8E4C4540F482DFF909C
:103911008532E493FD3395E0FC90029275F013ED4E
:10392100122F3DEC75F013A42583F583122F5990C6
:103931000007EF122AD290006675F033E570122F5E
:103941003DE56F75F033A42583F58375F003E56CD0
:10395100122F3DE56B75F003A42583F583E0FF90FD
:103961000015A3E0FEEF2EFF908532E4933395E03E
:10397100FC90029275F013ED122F3DEC75F013A43B
:103981002583F583122F59900008EF122AD2900057
:103991006775F033E570122F3DE56F75F033A4259F
:1039A10083F58375F003E56C122F3DE56B75F0032C
:1039B100A42583F583E0FF900017A3E0FEEF2EFF1F
:1039C100908532E4933395E0FC90029275F013ED0B
:1039D100122F3DEC75F013A42583F583122F599016
:1039E1000009EF122AD2E5D8F4FF90029275F01384
:1039F100ED122F3DEC75F013A42583F583122F5999
:103A010090000AEF122AD2900274E0FF900023E0A6
:103A1100FEA3E0A807088005CEC313CE13D8F9FF93
:103A2100908532E493FD3395E0FC90029275F0139A
:103A3100ED122F3DEC75F013A42583F583122F5958
:103A410090000BEF122AD2900273E0FF900021E068
:103A5100FEA3E0A807088005CEC313CE13D8F9FF53
:103A6100908532E493FD3395E0FC90029275F0135A
:103A7100ED122F3DEC75F013A42583F583122F5918
:103A810090000CEF122AD2900272E0FF90001FE02A
:103A9100FEA3E0A807088005CEC313CE13D8F9FF13
:103AA100908532E493FD3395E0FC90029275F0131A
:103AB100ED122F3DEC75F013A42583F583122F59D8
:103AC10090000DEF122AD2900271E0FF90001DE0EC
:103AD100FEA3E0A807088005CEC313CE13D8F9FFD3
:103AE100908532E493FD3395E0FC90029275F013DA
:103AF100ED122F3DEC75F013A42583F583122F5998
:103B010090000EEF122AD2900260E0A3FF90029281
:103B110075F013ED122F3DEC75F013A42583F58399
:103B2100122F5990000FEF122AD2900260A3E0FFEA
:103B310090029275F013ED122F3DEC75F013A42550
:103B410083F583122F59900010EF122AD2754C0081
:103B5100754D0A7B927D037F02128D7D1282BC021C
:0E3B6100338E9002A4E0FF9002A3E06F606D2F
:103B6F00EF75F0DCA4FF9002A8122F59E92FF9EAA4
:103B7F0035F08B2EF52F89309002A4E0FFB40204AC
:103B8F007F008003EF04FF9002A4EFF09002ABE000
:103B9F00FF90006475F033E570122F3DE56F75F0FF
:103BAF0033A42583F583EFF0AE6FAF707C007D33C8
:103BBF00122AF474502FF974003E753401F53589CB
:0A3BCF0036AB2EAA2FA9301246B023
:103BD90002338E900CB3E0FD7017900002E0FEA353
:103BE900E0FF90026FE06E7003A3E06F60030233A1
:103BF9008E900CACE0FF74A08FF08475F00AA4FFDE
:103C0900900270E02401FB90026FE03400CB2FFE9C
:103C1900EB35F0900002F0A3CEF0ED700E900CB2EF
:103C2900F090000274FFF5F0122B919002F4E0FF7E
:103C39007003023CD6900C28E0FEC39405500302A1
:103C49003CD6EED3941F4003023CD6900CB3E070EF
:103C590003023D99900262E0FE605C900C28E0FD51
:0B3C6900C394054052EDD3941F504C53
:103C7400EEB40407900264E0B40408900262E064C5
:103C8400046039900CACE0900CC7B428057406F0BD
:103C940080037404F0900CC7E0B5072090026374AD
:103CA40002F0900266E0FEA3E0FF900270E02FFFB6
:0C3CB40090026FE03E900268F0A3EFF079
:103CC0009002F4E014F06003023D99F56BF56CF599
:103CD0006FF570023D99900C28E0FFC394055003E6
:0C3CE000023D99EFD394234003023D996C
:103CEC00900CB2E0FF908532E493FD3395E0FC90AC
:103CFC00029275F013ED122F3DEC75F013A4258391
:103D0C00F583122F59900007EF122AD29002C2E0CD
:103D1C00A3FF90029275F013ED122F3DEC75F0138A
:103D2C00A42583F583122F59900008EF122AD29004
:103D3C0002C2A3E0FF90029275F013ED122F3DEC3E
:103D4C0075F013A42583F583122F59900009EF12F7
:103D5C002AD2754C00754D037B277D037F02128D93
:103D6C007DE4F52EF52FD390094DE0952F90094C5D
:103D7C00E0952E40187450252FF5827400352EF5E1
:0D3D8C0083E4F0052FE52F70DD052E80D9B2
:103D9900E4900CB3F09002F3F0900CB2E06007B23B
:0B3DA900B5E4F002338EC2B502338E89
:0C945200C2B6C2B5900263E06403707003
:10945E00900CCC122ECE00015F90E4FFFEFDFC902E
:10946E000CCC122EA6D3122DBF4017900CCC122E60
:10947E009A74FFFBFAF9F8122C6C900CCC122EC2D7
:02948E0080D884
:03949000E4F5C838
:10949300900CD0122ECE00020F58E4FFFEFDFC907C
:1094A3000CD0122EA6D3122DBF4017900CD0122E23
:1094B3009A74FFFBFAF9F8122C6C900CD0122EC29E
:0294C30080D84F
:1094C5009002637401F0A304F0900262E0FFB4041B
:1094D50008900264E064046013EF6404700302956D
:0C94E500A0900263E0640460030295A004
:1094F100900CD4122ECE00015F90E4FFFEFDFC9093
:109501000CD4122EA6D3122DBF4017900CD4122EBC
:109511009A74FFFBFAF9F8122C6C900CD4122EC23B
:0295210080D8F0
:10952300900262E024FD603F1460042403706ED255
:01953300CC6B
:10953400900CD8122ECE0001B774E4FFFEFDFC900F
:109544000CD8122EA6D3122DBF4017900CD8122E71
:109554009A74FFFBFAF9F8122C6C900CD8122EC2F4
:0295640080D8AD
:06956600C2CC8036D2CC1D
:10956C00900CDC122ECE0001B774E4FFFEFDFC90D3
:10957C000CDC122EA6D3122DBF4017900CDC122E31
:10958C009A74FFFBFAF9F8122C6C900CDC122EC2B8
:02959C0080D875
:0C959E00C2CC9002637401F0E4F5C82216
:106D430090026FE0F533A3E0F534E4F56FF570F5E9
:106D53006BF56C900CB2F0A3F090094CE0FEA3E04D
:106D6300FF7B017A007950754E00754F01129C2309
:106D7300900BE2E024FC601424027027900CAC74A6
:106D830014F0900266E4F0A374F08026900CAC74C7
:106D930028F0900266E4F0A374A4F09002F4740661
:106DA300F08016900CAC740AF09002667402F0A3A3
:106DB3007434F09002F47404F0900CADE09002C1CE
:106DC300F09002BDE0FCA3E0FD4C700890000AF0D7
:106DD300A3F080679002C4E0701E1226F5A804A9F0
:106DE30005AA06AB07E4FFFE7D7A7C481225D5127F
:106DF300272E7C007DF080389002C4E0B40F03742A
:106E030010F09002BDE0FCA3E0FDE41226F5A80417
:106E1300A905AA06AB07E4FFFE7D7A7C481225D5B7
:106E230012272E9002C4E0FD74788DF084FD7C005F
:106E3300122AF490000AEEF0A3EFF0E5D8540370A1
:106E4300079002C1F002711F7B017A007950754EE1
:106E530000754F037F107E02129C23E4F531F53257
:106E630090006875F028E532122F3DE53175F02862
:106E7300A42583F583E024FB601524FB7022747141
:106E83002532F58274023531F5837403F080207462
:106E9300712532F58274023531F5837402F0800F67
:106EA30074712532F58274023531F5837404F0056B
:106EB30032E532700205316404453170A3E4F531E3
:106EC300F53290007575F028E532122F3DE53175E6
:106ED300F028A42583F583E0FDE53225E0FFE531C5
:106EE30033FE740D2FF58274003EF583EDF09000B0
:106EF3006975F028E532122F3DE53175F028A42598
:106F030083F583122EA690006D75F028E532122FBB
:106F13003DE53175F028A42583F583122E9A1223BB
:106F2300D7C004C005C006C00790006975F028E506
:106F330032122F3DE53175F028A42583F583122EF7
:106F4300A690007175F028E532122F3DE53175F0FA
:106F530028A42583F583122E9A1223D7D003D002B7
:106F6300D001D0001225D5E4FBFAF9F8122672906D
:106F7300006975F02860054003026FFDE532122FAA
:106F83003DE53175F028A42583F583122EA69000E4
:106F93006D75F028E532122F3DE53175F028A425F3
:106FA30083F583122E9A1223D7C004C005C006C0EE
:106FB3000790006975F028E532122F3DE53175F031
:106FC30028A42583F583122EA690007175F028E579
:106FD30032122F3DE53175F028A42583F583122E57
:106FE3009A1223D7D003D002D001D0001225D5C0E6
:106FF30004C005C006C007027083E532122F3DE5C9
:107003003175F028A42583F583122EA690006D75A3
:10701300F028E532122F3DE53175F028A42583F5DC
:1070230083122E9A1223D7C004C005C006C007904E
:10703300006975F028E532122F3DE53175F028A47B
:107043002583F583122EA690007175F028E5321280
:107053002F3DE53175F028A42583F583122E9A126E
:1070630023D7D003D002D001D0001225D51226DFBA
:10707300AB07AA06A905A804C000C001C002C0034B
:1070830090007675F028E532122F3DE53175F02832
:10709300A42583F583E0FF90007775F028E532128D
:1070A3002F3DE53175F028A42583F583E0C39FFDCB
:1070B300E49400FCE41226F5D003D002D001D00002
:1070C3001224CCC004C005C006C00790007675F03A
:1070D30028E532122F3DE53175F028A42583F58389
:1070E300E0FCE41226FAD003D002D001D000122330
:1070F300DB12272EAD07E53225E0FFE53133FE74C1
:107103000C2FF58274003EF583EDF00532E5327005
:10711300020531640445316003026EC59002C1E08B
:1071230030E7034403F0E4F531F532D390094DE041
:10713300953290094CE09531401874502532F58210
:1071430074003531F583E4F00532E53270DD053145
:0271530080D9E1
:017155002217
:0982BC009002C1E070030284F994
:0382C5007531060A
:1082C800AF319002C1E0FEA807088002C313D8FCB2
:1082D80020E0030284EBE531122FF4845E0084551C
:1082E8000183460283460383040483040582FC0653
:1082F800000084EBE5D8F4F5320284EBAF31EF33BC
:1083080095E0FEEF25E0FFEE33FE74192FF5827439
:10831800003EF583E0FEA3E0FFAD31ED3395E0FCD0
:10832800746F2DF58274023CF583E0FDEFA8050813
:0E8338008005CEC313CE13D8F9F5320284EBC4
:10834600E4F533AF31EF3395E0FEEF25E0FFEE3392
:10835600FE74192FF58274003EF583E0FEA3E0FF5C
:10836600AD31ED3395E0FC746F2DF58274023CF56A
:1083760083E0FBEFA803088005CEC313CE13D8F91C
:10838600F53274042DF58274003CF583E0640260D6
:10839600030284EBAF31EF3395E0FEEF25E0FFEE0D
:1083A60033FE74092FF58274003EF583E0602304E2
:1083B600604624FE706A74082FF58274003EF583C9
:1083C600E0FFE532D39F40047F0180027F008F33B8
:1083D600804EAF31EF3395E0FEEF25E0FFEE33FE42
:1083E60074082FF58274003EF583E0B532047F01F0
:1083F60080027F008F338028AF31EF3395E0FEEFA8
:1084060025E0FFEE33FE74082FF58274003EF583F7
:10841600E0FFE532C39F50047F0180027F008F3367
:10842600E5336015E5312402FF7401A807088002D0
:10843600C333D8FC42C80284EBE5312402FF740141
:0F844600A807088002C333D8FCF452C80284EBA5
:09845500900260E0F5320284EBB4
:10845E00900260E0FEA3E0FFF53290000AE0FCA37C
:10846E00E0FD4C6078EF4E6074D3ED9FEC9E50387B
:10847E00E4F533F53474062534F58274003533F59E
:10848E0083E0B40113E5342404FF7401A8070880C7
:10849E0002C333D8FCF452C80534E53470020533F8
:1084AE006402453370CF8035E4F533F53474062518
:1084BE0034F58274003533F583E0B40112E53424CB
:1084CE0004FF7401A807088002C333D8FC42C80514
:0D84DE0034E534700205336402453370D07C
:0E84EB001531C3E5316480948040030282C8DD
:0184F9002260
:10A082008B528A538954E92DF9EA3C8B55F556894E
:10A0920057E4F558F559C3855683855782E554959B
:10A0A20082E5539583502F7852E475F001122F49BF
:10A0B200122A47FFE5596F25E0FFE433FE74332F80
:10A0C200F58274853EF583E558FFE493F5587401F3
:0AA0D200936FF55980C0AE58AF59E6
:01A0DC002261
:1095AA00E4900D6CF07B017A0C792C12A18E900C50
:1095BA0095E07004A3E064E6700C900C97E07004E8
:1095CA00A3E064086018900C95E4F0A374E6F090A8
:1095DA000C97E4F0A37408F0900D6C7401F0900CF1
:1095EA007EE0B4FF0974C8F0900D6C7401F0900C21
:1095FA007DE0640160077401F0900D6CF0900C2618
:10960A00E0FCA3E0FDB40015ECB41011900C9AE054
:10961A0030E40AE054EFF0900D6C7401F0E4B50503
:10962A0015ECB42011900C9AE020E40AE04410F002
:10963A00900D6C7401F0900C2CE0FF12A548400DBF
:10964A00900C2CE06007E4F0900D6C04F0900C4054
:10965A00E0FF12A548400D900C40E06007E4F0904E
:10966A000D6C04F0900C54E0FF12A548400D900CCC
:10967A0054E06007E4F0900D6C04F0900C9DE0B4A7
:10968A00FF07E4F0900D6C04F0900C9EE0B4FF111B
:10969A00A3E0B4FF0CE4900C9EF0A3F0900D6C04D0
:1096AA00F0900D6CE0601012A4777B017A0C792C93
:0796BA007D807C00129F3D42
:0196C1002286
:10A47700AF84E4F584781EF608F6A2AF33FEC2AFC8
:10A4870043B701758F0718E6FC08E6F5828C83E46D
:0DA49700F0F58F53B7FEEE24FF92AF8F84D7
:01A4A4002295
:0A9F3D008B458A4689478C488D4900
:109F470085844AE4F584781EF608F6A2AF33FFC28B
:109F5700AF43B701758F05E4F54BF54CC3E54C9559
:109F670049E5486480F8E54B64809850297845E4D2
:109F770075F001122F49122A47FE781E0806E618C7
:109F8700860470010614F5828C83EEF0054CE54CCF
:109F970070CA054B80C6E4F58F53B7FEEF24FF92D6
:049FA700AF854A84B4
:019FAB002293
:06A18E008B458A4689475B
:10A19400858448E4F549F54AF584A2AF33F54BC20A
:10A1A400AF758F04E4FFFE054AE54AAC4970020529
:10A1B4004914F5828C83E493FD7845E475F001122B
:10A1C4002F49ED122AC00FBF00010EEF64804E70BC
:0DA1D400D6E4F58FE54B24FF92AF8548845B
:01A1E100225B
:0E9D48008E4C8F4D8C4E8D4F8B508A51895210
:099D560012007EEF30E7F9C2F9BA
:109D5F00E4F557F5580558E5587002055764404526
:039D6F005770F238
:109D7200E54D6401454C70047F8480027F871200A8
:109D82005EE4FF12005EE4FF12005EE4FF12005E7A
:109D9200E4F555F556C3E556954FE54E6480F8E572
:109DA20055648098501DAB50AA51A95285568285A0
:109DB2005583122A60FF12005E0556E55670D605DD
:109DC2005580D2D2F9AD54AC53AF4DAE4C029E5039
:089E50008E598F5A8C5B8D5C6A
:109E580090094CE0FEA3E0FF129B898F5D12007E03
:069E6800EF30E7F9C2F93A
:109E6E00E4F55EF55F055FE55F7002055E644045F3
:039E7E005E70F221
:109E8100E55D6010E55A6401455970047F838012D5
:109E91007F86800EE55A6401455970047F828002F5
:109EA1007F8512005EE55CAE5B7806CEA2E713CE3D
:109EB10013D8F8FF12005EAF5CEF25E025E0FF123A
:099EC100005EE4FF12005ED2F91C
:019ECA002275
:02007E00C2F9C5
:10008000E4F569F56A056AE56A7002056964404548
:030090006970F2A2
:0C0093007FD712005EE4FF12005ED2F97D
:01009F00223E
:0A9C23008E498F4A8B4B8A4C894D05
:099C2D0012007EEF30E7F9C2F9E4
:109C3600E4F552F5530553E5537002055264404569
:039C46005270F267
:109C49007FD212005EE54FAE4E7806CEA2E713CE64
:109C590013D8F8FF12005EAF4FEF25E025E0FF12A1
:109C6900005EE4FF12005EE4FF12005EE4FF1200F2
:109C79005EE4FF12005EE4FF12005EE4F550F55168
:109C8900C3E551954AE5496480F8E55064809850E8
:109C99001FE4FF12005EAB4BAA4CA94D855182858A
:109CA9005083EF122AD20551E55170D4055080D066
:029CB900D2F9DE
:019CBB002286
:089B89008E608F618C628D6318
:0C9B910075640112007EEF30E7F9C2F9A4
:109B9D00E4F567F5680568E568700205676440459A
:039BAD006770F2EC
:109BB0007FD212005EE563AE627806CEA2E713CED6
:109BC00013D8F8FF12005EAF63EF25E025E0FF1227
:109BD000005EE4FF12005EE4FF12005EE4FF12008C
:109BE0005EE4FF12005EE4FF12005EE4F565F566D8
:109BF000C3E5669561E5606480F8E565648098502A
:109C00001DE4FF12005EBFFF047F0180027F008F12
:109C100064EF600A0566E56670D6056580D2D2F904
:029C2000AF642F
:019C2200221F
:04A27B008E478F4833
:09A27F0012007EEF30E7F9C2F98C
:10A28800E4F549F54A054AE54A700205496440453E
:03A298004970F218
:10A29B007F5012005EE548AE477806CEC313CE134F
:10A2AB00D8F9FF12005EAF48EF25E025E0FF120062
:08A2BB005EE4FF12005ED2F91F
:01A2C3002278
:04A2C4008E498F4AE6
:09A2C80012007EEF30E7F9C2F943
:10A2D100E4F54BF54C054CE54C7002054B644045EB
:03A2E1004B70F2CD
:10A2E4007F8112005EE54AAE497806CEC313CE13D1
:10A2F400D8F9FF12005EAF4AEF25E025E0FF120017
:08A304005EE4FF12005ED2F9D5
:01A30C00222E
:069FAC008C428D438B4442
:109FB200E5446002C2B68E458F46D3E5469543E539
:109FC200459542504BE54654077034C3E5439546E8
:109FD200FFE5429545FEC3EF9408EE94004020E56C
:109FE200446008E546543F7002B2B6AF46AE451231
:109FF200A27B74072546F546E43545F5458007AF53
:10A0020046AE4512A2C40546E54670AE054580AA95
:06A01200E5446002C2B645
:01A018002225
:0697BC008B318A32893373
:0697C200D2F8D2F9C2FA50
:1097C800E4F537F5380538E5387002053764404563
:0397D8003770F2F5
:0297DB00D2FAC0
:1097DD00E4F537F5380538E538700205376440454E
:0397ED003770F2E0
:1097F00012007EEF543C122FF498120C981C14980F
:10980000261C983024984B2C98663498813C000094
:10981000989DAB31AA32A9337402801CAB31AA32B5
:10982000A93374048012AB31AA32A93374088008BA
:10983000AB31AA32A933741075F000122C20AB346E
:10984000AA35A936740175F008804FAB31AA32A948
:1098500033741075F000122C20AB34AA35A936747D
:109860000275F0108034AB31AA32A933742075F040
:1098700000122C20AB34AA35A936740275F0108082
:1098800019AB31AA32A933742075F000122C20AB29
:0D98900034AA35A936740475F020122C207E
:01989D0022A8
:10FE00008E448F458E448F45E4F546F547A2AF33C7
:10FE1000F548C2AFE4F58443B701758F03C3E546E7
:10FE200094FC50168547828546837488F0E4254704
:10FE3000F54774043546F54680E3E4F58FF546F55D
:10FE400047F54BF54C75840FE54C54037002B2B680
:10FE500012FFB58F4DE54D30E7F6C2F9E4F54EF5EA
:10FE60004F054FE54F7002054E6440454E70F27FDE
:10FE7000D212FFA4E54CAE4B7806CEC313CE13D8F6
:10FE8000F9FF12FFA412FF9CE4FF12FFA4E4FF128B
:10FE9000FFA4E4FF12FFA4E4FF12FFA4E4FF12FF9B
:10FEA000A4E4F549F54AE4FF12FFA47450254AF58D
:10FEB0008274003549F583EFF0054AE54A70020582
:10FEC00049C3E549940240DED2F9E4F584758F0117
:10FED000F549F54A7450254AF58274003549F58391
:10FEE000E0FF0547E547AC467002054614F5828CF5
:10FEF00083EFF0054AE54A70020549B400D6E549AA
:10FF0000B402D1E4F58F054CE54C7002054BC39467
:07FF10007FE54B9400500354
:10FF170002FE45E4F58F53B7FEE54824FF92AFE4B0
:10FF2700F5D075840FF54BF54CC3E54B9420505431
:10FF3700E54C543F7002B2B512FFB58F4DE54D3019
:10FF4700E7F6C2F9E4F54EF54F054FE54F700205A8
:10FF57004E6440454E70F27F5012FFA4E54CAE4B05
:10FF67007806CEC313CE13D8F9FF12FFA412FF9C55
:10FF7700E4FF12FFA4D2F97408254CF54CE4354B85
:10FF8700F54B80A512FFB58F4DE54D30E7F6E4F54B
:05FF97008443EF01228C
:10FF9C00AF4CEF25E025E0FFAE84E4F5848F9B3079
:09FFAC00FFFDC2FFAF9B8E842211
:10FFB500C2F9E4F550F5510551E55170020550645B
:10FFC50040455070F27FD712FFA4E4FF12FFA4D280
:02FFD500F9220F
:108D630090852FE493FFAB32AA33A934900001120C
:0A8D73002A60FDE4F54CF54D7B0687
:048D7D008F498B4B44
:108D8100754EFFE4F54FF550ED90852F93F5517435
:108D9100282DF582E4340CF5837464F090852FE47A
:108DA10093B54919E54B64066013E54B6415600DF5
:108DB10074222DF582E4340CF583E54BF0E5517511
:108DC100F013A42492F582E43402F583122F59742E
:108DD10016122AC0E55175F013A42492F582E434E9
:108DE10002F583122F59900001E549122AD2E5516B
:108DF10075F013A42492F582E43402F583122F59FD
:108E0100900002ED122AD27402254DF54DE4354C45
:108E1100F54CFFE55175F013A42492F582E4340278
:108E2100F583122F59900003EF122AD2E55175F004
:108E310013A42492F582E43402F583122F59900091
:108E410004E54D122AD2E55175F013A42492F5825E
:108E5100E43402F583122F59900005E54B122AD212
:108E6100E4FEFFE55175F013A42492F582E4340287
:108E7100F583122F598F828E83122A60624E0FBFA3
:108E810000010EEF64064E70DAE55175F013A4246B
:108E910092F582E43402F583122F59900006E54ED3
:108EA100122AD274FE254DF54D74FF354CF54CE573
:108EB1005175F013A42492F582E43402F583122F44
:108EC10059E92407F9E43AFAAD4DAC4C12A0828E6F
:108ED1004F8F50EEFFE55175F013A42492F582E413
:108EE1003402F583122F59054DE54D7002054C24CE
:108EF10006F582E4354CF583EF122AD2E55175F07F
:108F010013A42492F582E43402F583122F59054DFE
:108F1100E54D7002054C2406F582E4354CF583E5F8
:108F210050122AD2E55175F013A42485F974023543
:108F3100F0FA7B01E54D2407FDE4354CFC12A0DD80
:098F4100E54D2407FFE4354CFE68
:018F4A002204
:083DB4008F318B328A33893410
:103DBC00E4900CD8F0A3F0900003122A60FE90005F
:103DCC0004122A607C002400FFEC3ECF24FECF348A
:103DDC00FFFE900CDAF0FCA3EFF0FDE92407F9E408
:103DEC003AFA12A231900CD8EEF0A3EFF04E603AF2
:103DFC00AB32AA33A934900005122A60FF64157007
:103E0C00030246A7EF640670030246A79000011256
:103E1C002A602428F582E4340CF5837464F0900055
:0A3E2C0001122A60FF7D040241DC50
:103E3600AB32AA33A934900002122A60FF90852F74
:103E4600E4936F7003023EF0EFF47003023EF0EF6E
:103E560093FF3395E0FE90029275F013EF122F3D1B
:103E6600EE75F013A42583F583122F59E92407F97B
:103E7600E43A8B3AF53B893CE5342407F9E43533DB
:103E8600853237F5388939E4F535F536D3900CDBCC
:103E9600E09536900CDAE0953540247837E475F0F5
:103EA60001122F49122A47FF783AE475F001122FC2
:103EB60049EF122AC00536E53670D1053580CDABFF
:103EC60032AA33A934900001122A60FF9000021230
:103ED6002A60FD900005122A60FB900CDAE0F54C92
:103EE600A3E0F54D128D7D0246A7AB32AA33A93465
:103EF600900005122A60122FF43F4E063F89103FAC
:103F06007215421730433C31436432438C33445478
:103F16003443B43543DC36440437445438442C39EE
:103F260041704141704244805044D251424C554008
:103F3600AB70410F713FB69045BD914478934304F1
:103F46009440459800004673900001122A6024228E
:103F5600F582E4340CF583AB32AA33A93490000120
:103F6600122A602422F582E4340C8010AB32AA3384
:103F7600A934122A472423F582E4340CF583E4F0AD
:103F8600024660900C28E0FFC394054006EFD394E8
:103F96001F4004EFB4E20512A1E28003128D639084
:103FA6000CD8EEF0A3EFF0AB32AA33A93402466088
:103FB600900C28E0FFC394054006EFD3941F4004FD
:103FC600EFB4E20512A1E28065AB32AA33A93490C0
:103FD6000007122A60FE900008122A607C00240066
:103FE600F53EEC3EF53DE53175F013A42492F582DD
:103FF600E43402F583122F59E92407F9E43AFA90DA
:10400600094CE0FEA3E0FF853D4E853E4F129C2302
:1040160090852FE493FFAB32AA33A93490000112A6
:104026002A60FD90094CE0F54CA3E0128D79900CC6
:0F403600D8EEF0A3EFF0AB32AA33A93402466004
:10404500900C28E0FFC394054006EFD3941F40046D
:10405500EFB4E20512A1E2803CAB32AA33A9349059
:104065000007122A60FE900008122A607C002400D6
:10407500F53EEC3EF53D90094CE0FCA3E0FDE9245E
:1040850009F9E43AFA853D53853E547F027E0012D4
:104095009D48128D63900CD8EEF0A3EFF0AB32AAD9
:0640A50033A9340246605D
:1040AB00900C28E0FFC394054006EFD3941F400407
:1040BB00EFB4E20512A1E2803AE53175F013A424C6
:1040CB0092F582E43402F583122F59E92407F9E4BF
:1040DB003AFA12A18E90852FE493FFAB32AA33A943
:1040EB0034900001122A60FD754C00754D807B06E3
:1040FB00128D7D900CD8EEF0A3EFF0AB32AA33A962
:10410B0034024660900C28E0FFC394054006EFD3C1
:10411B00941F4004EFB4E20512A1E2803712A4779A
:10412B00AB32E5342407F9E43533FA900CDAE0FED0
:10413B00A3E0FFC39480EE94005006AC06AD07805D
:10414B00047C007D80129F3D7B017A0C792C12A19F
:10415B008E128D63900CD8EEF0A3EFF0AB32AA3336
:05416B00A934024660CA
:10417000900C28E0FFF53DAB32AA33A9349000053E
:10418000122A60FE7C00B441047D0080027D058C13
:104190003E8D3FEE900C27E024FFFD900C26E0348E
:1041A000FFFC8C408D41AB32AA33A9349000011240
:1041B0002A602428F582E4340CF583E4F0EFC394FC
:1041C000054009900C28E0D3941F4007900C28E08C
:1041D000B4E217900001122A60FF7D2012A1F19035
:1041E0000CD8EEF0A3EFF00246A7900C2874E2F092
:1041F000128D63900CD8EEF0A3EFF0E4FFFE12A254
:10420000C47B01AD41AC40AF3FAE3E129FAC900CC1
:0742100028E53DF00246A77E
:10421700128D63900CD8EEF0A3EFF0AB32AA33A95E
:1042270034900001122A602428F582E4340CF583C7
:10423700E4F012007E8F3DE53D30E7F6E4F5844378
:05424700EF010246A793
:10424C00128D63900CD8EEF0A3EFF07B017A02791B
:0C425C00857F007EE17D007C0012896AF5
:10426800900CCC122ECE00004650E4FFFEFDFC90D0
:104278000CCC122EA6D3122DBF4017900CCC122EA8
:104288009A74FFFBFAF9F8122C6C900CCC122EC21F
:0242980080D8CC
:10429A00E4F584C2ACC298D29975840153E7BFC2CF
:0342AA0098D2990E
:1042AD0075840F30E815C39002C6E094099002C5DD
:1042BD00E094004006E4F58443EF01E4F584309882
:1042CD0017758401309911C299F58485993DC2986D
:1042DD00B2B4758401853D997584013098C2E4F5B9
:1042ED00843099BCC29975840185993DC298B2B547
:0542FD00F584853D99E8
:1043020080A9128D63900CD8EEF0A3EFF0AB32AA25
:1043120033A934900001122A602428F582E4340C77
:10432200F583E4F0900014E070030246A7900007C2
:10433200122A60FF12A4CF0246A7128D63900CD8F6
:10434200EEF0A3EFF0AB32AA33A934900001122AA7
:10435200602428F582E4340CF583E4F01215AF02F0
:1043620046A7128D63900CD8EEF0A3EFF0AB32AA01
:1043720033A934900001122A602428F582E4340C17
:10438200F583E4F0124EE70246A7128D63900CD833
:10439200EEF0A3EFF0AB32AA33A934900001122A57
:1043A200602428F582E4340CF583E4F012801202D2
:1043B20046A7128D63900CD8EEF0A3EFF0AB32AAB1
:1043C20033A934900001122A602428F582E4340CC7
:1043D200F583E4F01255DB0246A7128D63900CD8E8
:1043E200EEF0A3EFF0AB32AA33A934900001122A07
:1043F200602428F582E4340CF583E4F0125B5C025D
:1044020046A7128D63900CD8EEF0A3EFF0AB32AA60
:1044120033A934900001122A602428F582E4340C76
:10442200F583E4F01264EE0246A7128D63900CD875
:10443200EEF0A3EFF0AB32AA33A934900001122AB6
:10444200602428F582E4340CF583E4F012755A02F4
:1044520046A7AB32AA33A934900001122A6024285D
:10446200F582E4340CF583E4F0900005122A60FF33
:104472001279140246A79002F274FF024555900C7D
:1044820028E064F07027754501754600754705AB55
:1044920032AA33A934129A2F128D63900CD8EEF0FF
:1044A200A3EFF00575E575701E0574801AAB32AA8C
:1044B20033A934900001122A60FF7D0812A1F19005
:1044C2000CD8EEF0A3EFF0AB32AA33A93402466067
:1044D200900C28E0B4F114AB32AA33A9349000074F
:1044E200122A60FF900005E06F6072AB32AA33A916
:1044F20034900001122A60FF7D0812A1F1900CD8BD
:10450200EEF0A3EFF0AB32AA33A934900001122AE5
:0C451200602428F582E4340CF583E4F00A
:10451E00900CD0122ECE0000AFC8E4FFFEFDFC9032
:10452E000CD0122EA6D3122DBF4017900CD0122EE7
:10453E009A74FFFBFAF9F8122C6C900CD0122EC262
:02454E0080D813
:104550009002F274F2F0900CAE7401F00246A712D1
:104560008D63900CD8EEF0A3EFF0AB32AA33A934F0
:10457000900001122A602428F582E4340CF583E4CB
:01458000F04A
:10458100900CD4122ECE0000AFC8E4FFFEFDFC90CB
:104591000CD4122EA6D3122DBF4017900CD4122E7C
:1045A1009A74FFFBFAF9F8122C6C900CD4122EC2FB
:0245B10080D8B0
:1045B300AF75AE7412A3E00246A7900CAE7401F07F
:1045C300AB32AA33A934900007122A609002F2F0AA
:1045D300D3900CDBE09401900CDAE09400406D90F2
:1045E3000008122A60540F900BE2F0900009122A7F
:1045F30060900CADF0E4F535F536AB32AA33A9344F
:10460300E536240AFFE435358F82F583122A60FFED
:1046130074712536F58274023535F583EFF005366E
:10462300E536700205356404453570CEAB32AA33E6
:10463300A93490000E122A609002C4F090000F1269
:104643002BE8FF9002BDE5F0F0A3EFF0128D63902D
:104653000CD8EEF0A3EFF0AB32AA33A934900001EB
:10466300122A602428F582E4340CF583E4F08034C4
:10467300AB32AA33A934900001122A602428F582B0
:10468300E4340CF5837464F0900001122A60FF7D1A
:104693000212A1F1900CD8EEF0A3EFF074FF900C8E
:0446A300D8F0A3F0B8
:0846A700900CD8E0FEA3E0FF37
:0146AF0022E8
:0AA231008B428A4389448C458D4618
:10A23B0012A0828E478F48AB42AA43A9448546821F
:10A24B00854583122A607F00FEE5462401FDE43537
:10A25B00458D82F583122A602FFFE43EFEE548B55B
:0FA26B000709E547B50604E4FEFF227EFF7FFFEB
:01A27A0022C1
:0FA1E200AB32AA33A934900001122A60FF7D200E
:10A1F100AE07EE90852F93FB3395E0FA90029275AE
:10A20100F013EB122F3DEA75F013A42583F58312A9
:10A211002F59900007ED122AD290852FE493FFADBC
:10A2210006754C00754D017B15128D7DE4FEFF22F4
:069A2F008B428A438944CA
:109A3500E4F548F549900003122A60FE90000412EF
:109A45002A60FDEEF54AEDF54BE4F548F549E54BA1
:109A550024FEFFE54A34FFFEC364809482500280F1
:109A6500047E027F00C3E5499FEE6480F8E5486403
:109A750080985048AB45AA46A947C003C002C0011B
:109A8500122A47FFAB42AA43A944E5492407FDE44E
:109A950035488D82F583122A60FE74502549F5827A
:109AA50074003548F583EEF06FD001D002D0031273
:109AB5002AC00549E5497096054880927E00E575FE
:109AC5005401FF90094CE0FCA3E0FD7B017A00798D
:0A9AD50050857453857554029D48B6
:04A3E0008E428F43D7
:10A3E40090FE00E493FE740193FF900CDFEEF0A363
:10A3F400EFF0BE8012BFFE0F7B007AFE7902900C54
:0EA40400DC122F62023047AF75AE7412FE00FC
:01A412002227
:10A019008584317B017A0C792C12A18E900014E091
:10A02900702EF58475D98075D84075DA4275DB4292
:10A03900900C91E0A3E0F5FB900C91E0A3E0F5FC16
:10A04900900C93E0A3E0F5FD900C93E0A3E0F5FEFE
:10A05900900CACE0FD7C007E057F00122B068E7112
:10A069008F72E4F58475E8C075D107F5BAF5BB754B
:08A07900BC7043E7028531844D
:01A0810022BC
:03007B0002911ED1
:10911E00C0E0C0F0C083C082C0D075D000C000C017
:0B912E0002C003C004C005C006C0075B
:10913900758400C2EDE57325E02425F582E4340049
:10914900F583E5BF85BEF0122B91E573122FF491DB
:109159007400917C01918402919703919F0491A7D6
:109169000591AF0691B707000091BD75BB017573F5
:1091790001804175BB027573028039900014E0606B
:109189000575BB07800375BB08757303802675BB1E
:1091990003757304801E75BB04757305801675BB52
:1091A90005757306800E75BB06757307800675BB5A
:1091B90000757300E57215727002157114457160BE
:0491C900030292B05B
:1091CD00900CACE0FF74A08FF0841313543F752204
:1091DD0000F523E4FBFAEB64034A7026900014E0DB
:1091ED007020900CACE075F00A84FF7E0090002B8F
:1091FD00E0FCA3E0FD122AF490001BEEF0A3EFF0CB
:10920D008037EB25E0FFEA33FE74252FF5827400DD
:10921D003EF583E0FEA3E0FFAC22AD23122B06AC9E
:10922D0006AD07EB25E0FFEA33FE74152FF58274CA
:10923D00003EF583ECF0A3EDF0EB25E0FFEA33FE05
:10924D0074252FF58274003EF583E4F0A3F00BBB7B
:10925D0000010AEB64084A60030291E3900004E008
:10926D007029900C8BE0FEA3E0FF900C8AE02FFF9D
:10927D00900C89E03EFE900015E0FCA3E0FDC3EFED
:10928D009DFFEE9C900015F0A3EFF0900CACE0FD6F
:10929D007C007E057F00122B068E718F729002ACC2
:0392AD007401F059
:0C92B000E5737003D38001C34002D2ECD0
:1092BC00D007D006D005D004D003D002D000D0D037
:0992CC00D082D083D0F0D0E03252
:03994B000119FF00
:109ECB00AF8475840F75E1EF75E20775E3C475A474
:109EDB00157580EA75ADFF75A53D759001E4F5A686
:109EEB0075A0FF75A7F875B07F759CFFF5C8F59D3C
:109EFB0075D8FFF59E75E8FFE5E854E0FEBEC0049B
:109F0B007E0180027E00900014EEF06008759FF7D2
:109F1B0075F8978006759FFF75F8F720D80330D931
:109F2B000E9002F17401F0900014E06002D2FB8FEE
:019F3B0084A1
:019F3C002202
:10A30D00AF84E4F584F5D875D980F5F9F5FAF5E95A
:10A31D0075EA0C75DC4675D840900CB0F0A3F09042
:10A32D000260F0A3F0F584C28C758905438E08F5A3
:10A33D008AF58CC28DD28C758401758880758930B3
:07A34D00D2A943E6308F8422
:01A3540022E6
:0DA55700AF84E4F584C289D288D2A88F8435
:01A5640022D4
:03005B000292D539
:1092D500C0E0C0F0C083C082C0D075D000C000C05F
:0D92E50001C002C003C004C005C006C007E0
:1092F20053E6CF758400AF8CEFFEAD8A7C00E42D7F
:10930200F525EC3EF524900CB0E0FEA3E0FFC3E5AA
:10931200259FFFE5249EFED3EF9464EE9400500354
:1093220002942EC28C758A00758C00C28DD28CE597
:0493320019F4704179
:10933600F519F526AE24AF25E52625E02435F58278
:10934600E43400F583EEF0A3EFF0E4FCFDE51D2F19
:10935600FFE51C3EFEED351BFDEC351A8F1D8E1C00
:0E9366008D1BF51A0526E526B404C990026099
:109374000294200519E519C394044003751900E506
:109384001925E02435F582E43400F583E0FEA3E0FA
:10939400FBC3E51D9BFFE51C9EFEE51B9400FDE55C
:1093A4001A94008F1D8E1C8D1BF51AAE24AF25E573
:1093B4001925E02435F582E43400F583EEF0A3EFBB
:1093C400F0E4FCFDE51D2FFFE51C3EFEED351BFD25
:1093D400EC351A8F1D8E1C8D1BF51AE47B04FAF9EB
:1093E400F8AC1A122D128E248F25C3900261E095D9
:1093F40025FF900260E09524FEC394004006AC066D
:10940400AD078009C3E49FFFE49EFCAD07900260B2
:10941400E0C313FFC3ED9FEC94004007E524F0A3E1
:10942400E525F0900CB0E4F0A3F07584015388CFE7
:0394340043E630DC
:10943700D007D006D005D004D003D002D001D00089
:0B944700D0D0D082D083D0F0D0E03233
:0300530002A355B0
:10A35500C0E0C083C082C0D075D000C004C005C0B5
:10A3650006C00753E6CF758400AF8CEFFEAD8A7C3F
:10A3750000E42DFFEC3E900CB0F0A3EFF0758401E6
:10A385005388CF43E630D007D006D005D004D0D0CF
:07A39500D082D083D0E0323A
:03000B0002A41339
:10A41300C0E0C083C08253E6CF758400C28C758AC6
:10A4230000758C00D28C900CB0E4F0A3F090026025
:10A43300F0A3F07584015388CF43E630D082D083F4
:03A44300D0E03234
:03000300029DD289
:109DD200C0E0C0F0C083C082C0D075D000C000C057
:099DE20003C004C005C006C0075F
:109DEB00A2AFE433FB900CB37401F0900CACE0FD2C
:109DFB007C007E057F00122B068E718F72757300AF
:109E0B007F10900025E4F0A3DFFCC2AF53E7FE7593
:109E1B008400C2ECC2ED75BB0075840175C800747B
:0E9E2B00FFF5CDF5CC43E70143C8042B92AF01
:109E3900D007D006D005D004D003D000D0D0D0822E
:079E4900D083D0F0D0E0321D
:02FDFE0080FE85
:10994E0002080001010C00020D0000420DD80000BB
:04995E00410DDA00DD
:06A0DD008B568A578958DA
:10A0E300858459AB56AA57A958900002122BE8450C
:10A0F300F070F0AB56AA57A95890000D122F6BC001
:10A1030003C002C001AB56AA57A958900007122FEB
:10A113009BAB56AA57A958900002EC8DF0122C3F26
:10A12300122A477006F584D2998005758401D29965
:03A13300855984C7
:01A136002206
:10005E00AE84E4F5848F9B30FFFDC2FFAF9B8E8490
:01006E00226F
:10A13700AF8475840F759601758C67E4FDFC0DBDC2
:10A1470000010CE4B505F7ECB401F3E58C30E7FB4F
:10A15700759701E4F58A758905F58475B7207584C7
:10A167000F758D01758F01758E03FCFD0DBD000107
:10A177000CE4B505F7ECB401F3438902E58930E453
:06A18700FB7597028F84B6
:01A18D0022AF
:0E896A008B428A4389448F488E478D468C4548
:10897800858449122A4714606F046003028B6AE4F5
:10898800F58475911590000A122A6024BB6018249A
:10899800F6601424EA601024F760071460092421A3
:1089A800700875985080037598D0E4F58475C804EC
:1089B80075C908AB48AA47A946A845FFFE7D657C4E
:1089C80004122D12E47B10FAF9F8122D12122DB1AF
:1089D8008ECB8FCA74FFF5CDF5CCD2CAE4F584C22C
:1089E80099C298D2AC028B6A758401AB42AA43A99A
:1089F8004490000A122A6024BB601824F6601424EC
:108A0800EA601024F760071460092421700875983B
:108A1800108003759890E4F58453890F438920AB3F
:108A280048AA47A946A845FFFE7D657C04122D1279
:108A3800E47B02FAF9F8122D12E4FB7A01F9F81234
:108A48002D12E47B01FAF9F8D3122DD54026AB4854
:108A5800AA47A946A845E4FFFE7D657C04122D12AD
:108A6800E47B02FAF9F8122D12122DB18F8D438E84
:108A780010028B5BAB48AA47A946A845E4FFFE7DD8
:108A8800657C04122D12E47B02FAF9F8122D12E427
:108A9800FB7A01F9F8122D12E47B04FAF9F8D312E3
:108AA8002DD54031AB48AA47A946A845E4FFFE7D2D
:108AB800657C04122D12E47B02FAF9F8122D12E4F7
:108AC8007B04FAF9F8122D12122DB18F8D538EEC0A
:108AD800438E01807EAB48AA47A946A845E4FFFE1D
:108AE8007D657C04122D12E47B02FAF9F8122D122E
:108AF800E4FB7A01F9F8122D12E47B0CFAF9F8D3A9
:108B0800122DD5AB48AA47A946A845E4FFFE7D65C6
:108B18007C04401F122D12E47B02FAF9F8122D1280
:108B2800E47B0CFAF9F8122D12122DB18F8D538EA9
:108B3800EC8020122D12E47B02FAF9F8122D12E4CF
:108B48007B30FAF9F8122D12122DB18F8D538EEC5D
:108B5800438E02858D8BD28E758401C299C298434B
:058B6800E7408549848F
:018B6D0022E5
:10003E00AF84E4F584759D04759A70C2FFD2F88F73
:01004E00842D
:01004F00228E
:10A4A500AD84758401E4F5C8F5C9EF2408FFE43EE1
:10A4B500FEC3E49FFFE49EF5CB8FCA74FFF5CDF58F
:09A4C500CC43E70143C8048D8477
:01A4CE00226B
:03002300028B6EDF
:108B6E00C0E0C0F0C083C082C0D075D000C000C0CD
:0D8B7E0001C002C003C004C005C006C0074E
:108B8B00E59820E003028D058599275398FEE508AB
:108B9B006003028CD2E50924FE6063147003028C1F
:108BAB003A147003028C9F24036003028CD2750D60
:108BBB0000750E00E52764166003028CD2900290BC
:108BCB00E0FF7E007C027D1D122AF4900295122F8D
:108BDB0059E92FF9EA3E8B0FF5108911FA050EE5CD
:108BEB000EAE0D7002050D14F5828E83E527122A49
:108BFB00D2E527620C750800750902028CD2AB0F07
:108C0B00AA10A911050EE50EAE0D7002050D14F597
:108C1B00828E83E527122AD2E527620CE50E6406C5
:108C2B00450D6003028CD2F508750903028CD2AB9B
:108C3B000FAA10A911050EE50EAE0D7002050D144D
:108C4B00F5828E83E527122AD2630CFFE50C65278C
:108C5B007031AB0FAA10A911900003122A60750A8C
:108C6B0000F50B750B00F50A900004122A60250B1A
:108C7B00F50BE4350AF50A450B60467508007509D6
:108C8B00048044750D00750E00750800750901759B
:108C9B000C008033D2B4AB0FAA10A911050EE50E50
:108CAB00AE0D7002050D14F5828E83E527122AD2C4
:108CBB00E50B2407FFE4350AFEEFB50E0AEEB50D02
:108CCB0006750800750905E50964054508702BC292
:108CDB00B4F508750901F50DF50EF50C9002891226
:108CEB002F59E94A4B7013AB0FAA10A911900289A7
:108CFB00122F62900290E06401F0E59830E13E9013
:108D0B000287E07002A3E06023D2B490028C122F92
:108D1B0059122A47F59990028DE475F001122B91A7
:108D2B0090028774FFF5F0122B91800EC2B47B007A
:0D8D3B007A00790090028C122F625398FD8F
:108D4800D007D006D005D004D003D002D001D0007F
:0B8D5800D0D0D082D083D0F0D0E03229
:0300A3000287339E
:10873300C0E0C0F0C083C082C0D075D000C000C00C
:0987430001C002C003C006C0071A
:10874C00E59820E0030288DE859928900DDAE01286
:10875C002FF4877D00878E0187A10287F103881E85
:10876C0004883705885E06889F0788B00800008853
:10877C00DBE52864B560030288DB900DDA04F002B7
:10878C0088DBE528900DDAB462067402F00288DB0F
:10879C00E4F00288DB751800751700900DD8E4F032
:1087AC00A3F09002A3E075F0DCA4FF9002A8122FB6
:1087BC0059E92FF9EA35F08B12F5138914FA900D5B
:1087CC00D8E475F001122BA785F082F583E5281209
:1087DC002AD2E5282517F5172518F518900DDA7407
:1087EC0003F00288DBAB12AA13A914900DD8E47520
:1087FC00F001122BA785F082F583E528122AD2E529
:10880C00282517F5172518F518900DDA7404F002C1
:10881C0088DB751500852816E5282517F51725180A
:10882C00F518900DDA7405F00288DBE528FEE425D6
:10883C0016F516EE3515F515E5282517F517251837
:10884C00F518E5164515900DDA700280417406F0A6
:10885C00807DAB12AA13A914900DD8E475F0011207
:10886C002BA785F082F583E528122AD2E528251757
:10887C00F5172518F518E5162402FFE43515FE90BA
:10888C000DD8E06E7003A3E06F7044900DDA74079E
:10889C00F0803CE517900DDAB528057408F0802FB0
:0488AC00E4F0802B49
:1088B0009002A3E0FFB402067E007F008003EF0475
:1088C000FF8F29E518B5280E9002A4E065296006FF
:0B88D0009002A3E529F0900DDAE4F01F
:1088DB005398FEE59830E17090029AE07002A3E0A5
:1088EB0060579002A2E024BB601A24E0601624F6C5
:1088FB0060042420702290029F122F59122A4730B5
:10890B00E00E801190029F122F59122A4730E0057A
:10891B0043980480035398FB90029F122F59122AFD
:10892B0047F5999002A0E475F001122B9190029AF1
:10893B0074FFF5F0122B91800C7B007A007900907C
:08894B00029F122F625398FDF8
:10895300D007D006D003D002D001D000D0D0D0822F
:07896300D083D0F0D0E03218
:03007300029ADF0F
:109ADF00C0E0C0F0C083C082C0D075D000C000C04D
:039AEF0006C007A7
:109AF20075840153C87F90026FE475F001122B91B7
:109B02009002BFE0FEA3E0FF90026FE0B50619A34A
:109B1200E0B507149002BFE475F0A0122B919000FB
:109B22004EE475F001122B91E4FFFE74292FF582A9
:109B3200E4340CF583E0600D74292FF582E4340CD3
:109B4200F583E014F00FBF00010EEF64034E70DBEB
:109B520075840F20E816C39002C6E094FF9002C5F8
:109B6200E094FF5007E475F001122B9175840075A3
:069B7200BB00C2EDD2ECC5
:109B7800D007D006D000D0D0D082D083D0F0D0E0AB
:019B880032AA
:10692800257300506C61636520756E697420666C10
:106938006174206F6E206C6576656C207375726665
:106948006163652E00466C6970206F7665722E2033
:106958004661636520646F776E2E00486F6C642013
:10696800766572746963616C2C2047505320616EA0
:1069780074656E6E61206A61636B2075702E0048C5
:106988006F6C6420766572746963616C2C20475063
:106998005320616E74656E6E61206A61636B20645A
:1069A8006F776E2E005374616E64206F6E2072696B
:1069B80067687420736964652E005374616E64207F
:1069C8006F6E206C65667420736964652E00496E6D
:1069D80076657274696E6720582056616C756573A8
:1069E80000496E76657274696E6720592056616C2D
:1069F80075657300496E76657274696E67205A20F2
:106A080056616C7565730020005A65726F20506F6F
:106A1800696E74733A20582025752C2059202575E5
:106A28002C205A20257500582052616E67653A203F
:106A380025752C20257500592052616E67653A200E
:106A480025752C202575005A2052616E67653A20FD
:106A580025752C2025750053746F72696E67204365
:106A6800616C6962726174696F6E2044617461203F
:106A7800696E20466C6173682E0043616C696272AE
:106A88006174696F6E20436F6D706C6574652E005C
:106A98005A65726F696E6720582C20592050574DDF
:106AA8000046696E616C2043616C3A2025752C257F
:106AB800750046696E616C2056616C3A2025752C0C
:106AC80025750044617461666C6173682054657350
:106AD80074002A2A20466C617368204641494C4557
:106AE80044202A2A2C20706167652025642C2062A6
:106AF80079746525640050616765202564206F6B93
:106B08000054657374205061737365642E00496E78
:106B1800707574205465737400444947494E3A208F
:106B28000031003000583A2025752C20593A20258C
:106B380075005A3A2025752C2035563A20257500BF
:106B480035563A2025752C20543A202575004130B9
:106B58003A2025752C2041313A2025750041323ADA
:106B68002025752C2041333A20257500496E707513
:106B7800745465737420436F6D706C6574652E0072
:106B88004F7574707574205465737400626974204D
:106B98002564004F75747075745465737420436F61
:106BA8006D706C6574652E00412F442054657374B4
:106BB80000426F61726420666C61742E20546573A4
:106BC800742066697874757265206174746163688D
:106BD80065642E005820205920203556205A202040
:106BE8004130204131204132204133003120200002
:106BF8003020200041445465737420504153532E73
:106C0800002A2A20414454657374204641494C2087
:106C18002A2A004469676974616C20494F205465C9
:106C28007374004F6E6C792056616C696420666FCE
:106C38007220535532202D2045786974696E672E6D
:106C480000446967494F5465737420506F696E74C6
:106C5800202564002A2A20204641494C202A2A005F
:106C6800446967494F5465737420504153532E004B
:106C78002A2A20446967494F54657374204641495C
:106C88004C202A2A004175746F4F6E205465737426
:106C980000456E61626C696E67204175746F4F6E56
:106CA8002E2E2E0044726F7070696E672035562044
:106CB800456E61626C650044697361626C696E67F8
:106CC800204175746F4F6E2E2E2E004175746F4FD4
:106CD8006E5465737420504153532E00534D4275C2
:106CE800732054657374202D204D61737465720090
:106CF80025642042797465732C20256420437963C8
:106D08006C657300546F74616C204572726F7220E9
:106D1800436F756E742C20257500534D4275732092
:106D28005465737420506173732E000102040810B7
:0B6D3800204080010204081020408071
:1015AF008584429000047401F075840FFB7A0C79E6
:1015BF002C12A18EE4900C7CF090852F93900C7DD3
:1015CF00F0A374C8F0900C95E4F0A374E6F0900CBF
:1015DF0097E4F0A37408F074FFFFFEFDFC900C7FFE
:1015EF00122EA6C3122DD5700A900C7F122ECE008C
:1015FF00000000900C83E0B4FF037401F0900C84A2
:10160F00E0B4FF037409F0900C9974FFF0A3F0900D
:10161F000C857408F0A3E4F0900C877408F0A3E431
:10162F00F0900C2CF0900C40F0900C54F0900C9328
:10163F00F0A374A0F0900C91E4F0A374A0F0E490E8
:0D164F0002C5F0A3F0D2B3D2B6D2B5D2B42A
:10165C00900CDC122ECE000107ACE4FFFEFDFC90DA
:10166C000CDC122EA6D3122DBF4017900CDC122EC0
:10167C009A74FFFBFAF9F8122C6C900CDC122EC247
:02168C0080D804
:10168E00908530E493FF3395E0FE90029275F0134F
:10169E00EF122F3DEE75F013A42583F583122F590B
:1016AE00E92407F9E43AFA754CFF754D69754E2831
:1016BE00754FFF75506975512B1260DB908530E4C4
:1016CE0093FF3395E0FE90029275F013EF122F3DCB
:1016DE00EE75F013A42583F583122F59E92407F92B
:1016EE00E43AFA12000EEF2401F54DE43EF54C906B
:0C16FE00852FE493FF7B737D01128D7D2E
:10170A00900CE0122ECE000107ACE4FFFEFDFC9027
:10171A000CE0122EA6D3122DBF4017900CE0122E09
:10172A009A74FFFBFAF9F8122C6C900CE0122EC294
:02173A0080D855
:10173C00128F4B900014E06065900DD2E0FEA3E098
:10174C00FF900DCDE02FFF900DCCE03EC313FEEFCC
:10175C0013FF900C85EEF0A3EFF0900DD4E0FEA3F8
:10176C00E0FF900DCFE02FFF900DCEE03EC313FEB7
:10177C00EF13FF900C87EEF0A3EFF0900DD6E0FE88
:10178C00A3E0FF900DD1E02FFF900DD0E03EC313EE
:10179C00FEEF13FF900CA4EEF0A3EFF08003127198
:1017AC0056900014E0700302188CC2B3C2B5908539
:1017BC0030E493FF3395E0FE90029275F013EF1234
:1017CC002F3DEE75F013A42583F583122F59E924D0
:1017DC0007F9E43AFA754CFF754D69754E28754F4B
:1017EC00FF75506975514D1260DB908530E493FFA5
:1017FC003395E0FE90029275F013EF122F3DEE75CB
:10180C00F013A42583F583122F59E92407F9E43A40
:10181C00FA12000EEF2401F54DE43EF54C90852FA5
:0A182C00E493FF7B737D01128D7DB4
:10183600900CE4122ECE000107ACE4FFFEFDFC90F6
:101846000CE4122EA6D3122DBF4017900CE4122ED4
:101856009A74FFFBFAF9F8122C6C900CE4122EC263
:0218660080D828
:10186800128F4B900DD6E0FEA3E0FF900DD1E02F34
:10187800FF900DD0E03EC313FEEF13FF900CA2EED5
:10188800F0A3EFF0C2B3C2B6C2B5C2B4908530E4DB
:1018980093FF3395E0FE90029275F013EF122F3DFF
:1018A800EE75F013A42583F583122F59E92407F95F
:1018B800E43AFA754CFF754D69754E28754FFF75FA
:1018C80050697551631260DB908530E493FF33955E
:1018D800E0FE90029275F013EF122F3DEE75F013B3
:1018E800A42583F583122F59E92407F9E43AFA125B
:1018F800000EEF2401F54DE43EF54C90852FE4935E
:08190800FF7B737D01128D7D50
:10191000900CE8122ECE000107ACE4FFFEFDFC9017
:101920000CE8122EA6D3122DBF4017900CE8122EF1
:101930009A74FFFBFAF9F8122C6C900CE8122EC284
:0219400080D84D
:10194200128F4B900DD2E0FEA3E0FF900DCDE02F61
:10195200FF900DCCE03EC313FEEF13FF900C8BEE15
:10196200F0A3EFF0900014E06021900DD6E0FEA30A
:10197200E0FF900DD1E02FFF900DD0E03EC313FEAB
:10198200EF13FF900CA0EEF0A3EFF0D2B3908530EE
:10199200E493FF3395E0FE90029275F013EF122F5D
:1019A2003DEE75F013A42583F583122F59E9240720
:1019B200F9E43AFA754CFF754D69754E28754FFF7B
:1019C2007550697551871260DB908530E493FF335F
:1019D20095E0FE90029275F013EF122F3DEE75F036
:1019E20013A42583F583122F59E92407F9E43AFA5F
:1019F20012000EEF2401F54DE43EF54C90852FE4E4
:091A020093FF7B737D01128D7DC1
:101A0B00900CEC122ECE000107ACE4FFFEFDFC9017
:101A1B000CEC122EA6D3122DBF4017900CEC122EED
:101A2B009A74FFFBFAF9F8122C6C900CEC122EC284
:021A3B0080D851
:101A3D00128F4B900DD2E0FEA3E0FF900DCDE02F65
:101A4D00FF900DCCE03EC313FEEF13FF900C89EE1B
:101A5D00F0A3EFF0D2B6908530E493FF3395E0FE1E
:101A6D0090029275F013EF122F3DEE75F013A42531
:101A7D0083F583122F59E92407F9E43AFA754CFFDF
:101A8D00754D69754E28754FFF7550697551AD12BD
:101A9D0060DB908530E493FF3395E0FE9002927504
:101AAD00F013EF122F3DEE75F013A42583F583127D
:101ABD002F59E92407F9E43AFA12000EEF2401F543
:101ACD004DE43EF54C90852FE493FF7B737D011221
:021ADD008D7DFD
:101ADF00900CF0122ECE000107ACE4FFFEFDFC903F
:101AEF000CF0122EA6D3122DBF4017900CF0122E11
:101AFF009A74FFFBFAF9F8122C6C900CF0122EC2AC
:021B0F0080D87C
:101B1100128F4B900DD4E0FEA3E0FF900DCFE02F8C
:101B2100FF900DCEE03EC313FEEF13FF900C8DEE40
:101B3100F0A3EFF0D2B5908530E493FF3395E0FE4A
:101B410090029275F013EF122F3DEE75F013A4255C
:101B510083F583122F59E92407F9E43AFA754CFF0A
:101B6100754D69754E28754FFF7550697551C212D3
:101B710060DB908530E493FF3395E0FE900292752F
:101B8100F013EF122F3DEE75F013A42583F58312A8
:101B91002F59E92407F9E43AFA12000EEF2401F56E
:101BA1004DE43EF54C90852FE493FF7B737D01124C
:021BB1008D7D28
:101BB300900CF4122ECE000107ACE4FFFEFDFC9066
:101BC3000CF4122EA6D3122DBF4017900CF4122E34
:101BD3009A74FFFBFAF9F8122C6C900CF4122EC2D3
:021BE30080D8A8
:101BE500128F4B900DD4E0FEA3E0FF900DCFE02FB8
:101BF500FF900DCEE03EC313FEEF13FF900C8FEE6A
:101C0500F0A3EFF0D2B4900C89E0FEA3E0FFC390FF
:101C15000C8CE09F900C8BE09E4003021CF4908599
:101C250030E493FF3395E0FE90029275F013EF12C6
:101C35002F3DEE75F013A42583F583122F59E92462
:101C450007F9E43AFA754CFF754D69754E28754FDD
:101C5500FF7550697551D61260DB908530E493FFAE
:101C65003395E0FE90029275F013EF122F3DEE755D
:101C7500F013A42583F583122F59E92407F9E43AD3
:101C8500FA12000EEF2401F54DE43EF54C90852F38
:0A1C9500E493FF7B737D01128D7D47
:101C9F00900CF8122ECE000107ACE4FFFEFDFC9075
:101CAF000CF8122EA6D3122DBF4017900CF8122E3F
:101CBF009A74FFFBFAF9F8122C6C900CF8122EC2E2
:021CCF0080D8BB
:101CD100900C8BE0F543A3E0F544900C89E0FFA361
:101CE100E0900C8BCFF0A3EFF0900C89E543F0A3CB
:101CF100E544F0900C8DE0FEA3E0FFC3900C90E072
:101D01009F900C8FE09E4003021DDD908530E4938F
:101D1100FF3395E0FE90029275F013EF122F3DEE26
:101D210075F013A42583F583122F59E92407F9E4EB
:101D31003AFA754CFF754D69754E28754FFF755010
:101D4100697551E91260DB908530E493FF3395E0CA
:101D5100FE90029275F013EF122F3DEE75F013A471
:101D61002583F583122F59E92407F9E43AFA120081
:101D71000EEF2401F54DE43EF54C90852FE493FFE1
:071D81007B737D01128D7DD3
:101D8800900CFC122ECE000107ACE4FFFEFDFC9087
:101D98000CFC122EA6D3122DBF4017900CFC122E4D
:101DA8009A74FFFBFAF9F8122C6C900CFC122EC2F4
:021DB80080D8D1
:101DBA00900C8FE0F543A3E0F544900C8DE0FFA36F
:101DCA00E0900C8FCFF0A3EFF0900C8DE543F0A3D9
:101DDA00E544F0900014E07003021ECF900CA2E0DC
:101DEA00FEA3E0FFC3900CA5E09F900CA4E09E40E8
:101DFA0003021ECF908530E493FF3395E0FE9002F4
:101E0A009275F013EF122F3DEE75F013A42583F5AA
:101E1A0083122F59E92407F9E43AFA754CFF754DF4
:101E2A0069754E28754FFF7550697551FC1260DB54
:101E3A00908530E493FF3395E0FE90029275F0139B
:101E4A00EF122F3DEE75F013A42583F583122F5957
:101E5A00E92407F9E43AFA12000EEF2401F54DE4F9
:101E6A003EF54C90852FE493FF7B737D01128D7DA7
:101E7A00900D00122ECE000107ACE4FFFEFDFC908F
:101E8A000D00122EA6D3122DBF4017900D00122E50
:101E9A009A74FFFBFAF9F8122C6C900D00122EC2FC
:021EAA0080D8DE
:101EAC00900CA4E0F543A3E0F544900CA2E0FFA352
:101EBC00E0900CA4CFF0A3EFF0900CA2E543F0A3BC
:101ECC00E544F0908530E493FF3395E0FE90029268
:101EDC0075F013EF122F3DEE75F013A42583F583E7
:101EEC00122F59E92407F9E43AFA754CFF754D693C
:101EFC00754E28754FFF75506A75510F1260DB9047
:101F0C008530E493FF3395E0FE90029275F013EF69
:101F1C00122F3DEE75F013A42583F583122F59E98A
:101F2C002407F9E43AFA12000EEF2401F54DE43ED1
:0F1F3C00F54C90852FE493FF7B737D01128D7D13
:101F4B00900D04122ECE000107ACE4FFFEFDFC90B9
:101F5B000D04122EA6D3122DBF4017900D04122E76
:101F6B009A74FFFBFAF9F8122C6C900D04122EC226
:021F7B0080D80C
:101F7D00754CFF754D6A754E11900C85E0F54FA3AC
:101F8D00E0F550900C87E0F551A3E0F552900CA0D0
:101F9D00E0F553A3E0F5547B017A0D791C1260DB5B
:101FAD00908530E493FF3395E0FE90029275F01327
:101FBD00EF122F3DEE75F013A42583F583122F59E3
:101FCD00E92407F9E43AFA754CFF754D69754E2809
:101FDD00754F0175500D75511C1260DB908530E405
:101FED0093FF3395E0FE90029275F013EF122F3DA3
:101FFD00EE75F013A42583F583122F59E92407F903
:10200D00E43AFA12000EEF2401F54DE43EF54C9042
:0C201D00852FE493FF7B737D01128D7D05
:10202900900D08122ECE000107ACE4FFFEFDFC90D6
:102039000D08122EA6D3122DBF4017900D08122E8F
:102049009A74FFFBFAF9F8122C6C900D08122EC243
:0220590080D82D
:10205B00908530E493FF3395E0FE90029275F01378
:10206B00EF122F3DEE75F013A42583F583122F5934
:10207B00E92407F9E43AFA754CFF754D6A754E2F52
:10208B00900C89E0F54FA3E0F550900C8BE0F551E7
:10209B00A3E0F5521260DB908530E493FF3395E0BB
:1020AB00FE90029275F013EF122F3DEE75F013A414
:1020BB002583F583122F59E92407F9E43AFA120024
:1020CB000EEF2401F54DE43EF54C90852FE493FF84
:0720DB007B737D01128D7D76
:1020E200900D0C122ECE000107ACE4FFFEFDFC9019
:1020F2000D0C122EA6D3122DBF4017900D0C122ECE
:102102009A74FFFBFAF9F8122C6C900D0C122EC285
:0221120080D873
:10211400908530E493FF3395E0FE90029275F013BE
:10212400EF122F3DEE75F013A42583F583122F597A
:10213400E92407F9E43AFA754CFF754D6A754E3F88
:10214400900C8DE0F54FA3E0F550900C8FE0F55125
:10215400A3E0F5521260DB908530E493FF3395E001
:10216400FE90029275F013EF122F3DEE75F013A45A
:102174002583F583122F59E92407F9E43AFA12006A
:102184000EEF2401F54DE43EF54C90852FE493FFCA
:072194007B737D01128D7DBC
:10219B00900D10122ECE000107ACE4FFFEFDFC905B
:1021AB000D10122EA6D3122DBF4017900D10122E0C
:1021BB009A74FFFBFAF9F8122C6C900D10122EC2C8
:0221CB0080D8BA
:1021CD00908530E493FF3395E0FE90029275F01305
:1021DD00EF122F3DEE75F013A42583F583122F59C1
:1021ED00E92407F9E43AFA754CFF754D6A754E4FBF
:1021FD00900CA2E0F54FA3E0F550900CA4E0F55142
:10220D00A3E0F5521260DB908530E493FF3395E047
:10221D00FE90029275F013EF122F3DEE75F013A4A0
:10222D002583F583122F59E92407F9E43AFA1200B0
:10223D000EEF2401F54DE43EF54C90852FE493FF10
:07224D007B737D01128D7D02
:10225400900D14122ECE000107ACE4FFFEFDFC909D
:102264000D14122EA6D3122DBF4017900D14122E4A
:102274009A74FFFBFAF9F8122C6C900D14122EC20A
:0222840080D800
:10228600908530E493FF3395E0FE90029275F0134B
:10229600EF122F3DEE75F013A42583F583122F5907
:1022A600E92407F9E43AFA754CFF754D69754E282D
:1022B600754FFF75506A75515F1260DB908530E48B
:1022C60093FF3395E0FE90029275F013EF122F3DC7
:1022D600EE75F013A42583F583122F59E92407F927
:1022E600E43AFA12000EEF2401F54DE43EF54C9067
:1022F600852FE493FF7B737D01128D7D12A4777B7E
:0C230600017A0C792C7D7A7C00129F3D3E
:10231200900D18122ECE000107ACE4FFFEFDFC90DA
:102322000D18122EA6D3122DBF4017900D18122E83
:102332009A74FFFBFAF9F8122C6C900D18122EC247
:0223420080D841
:10234400908530E493FF3395E0FE90029275F0138C
:10235400EF122F3DEE75F013A42583F583122F5948
:10236400E92407F9E43AFA754CFF754D69754E286E
:10237400754FFF75506A7551821260DB908530E4A9
:1023840093FF3395E0FE90029275F013EF122F3D08
:10239400EE75F013A42583F583122F59E92407F968
:1023A400E43AFA12000EEF2401F54DE43EF54C90A8
:1023B400852FE493FF7B737D01128D7DD2B3C2B66A
:0F23C400C2B5C2B4E4900004F01295AA85428419
:0123D30022E7
:108F4B00900DD0740FF0A374FFF0900DCE740FF052
:108F5B00A374FFF0900DCC740FF0A374FFF0E490AA
:108F6B000DD6F0A3F0900DD4F0A3F0900DD2F0A39A
:108F7B00F0FFFE9002ACE060FA900015E0FCA3E07D
:108F8B00FD900DCCE0FAA3E0FBC39DEA9C5006AC30
:108F9B0002AD038008900015E0FCA3E0FD900DCC22
:108FAB00ECF0A3EDF0900017E0FCA3E0FD900DCEEC
:108FBB00E0FAA3E0FBC39DEA9C5006AC02AD038034
:108FCB0008900017E0FCA3E0FD900DCEECF0A3EDB4
:108FDB00F090001BE0FCA3E0FD900DD0E0FAA3E0C5
:108FEB00FBC39DEA9C5006AC02AD03800890001BAE
:108FFB00E0FCA3E0FD900DD0ECF0A3EDF09000159C
:10900B00E0FCA3E0FD900DD2E0FAA3E0FBD39DEAD8
:10901B009C4006AC02AD038008900015E0FCA3E079
:10902B00FD900DD2ECF0A3EDF0900017E0FCA3E067
:10903B00FD900DD4E0FAA3E0FBD39DEA9C4006AC77
:10904B0002AD038008900017E0FCA3E0FD900DD467
:10905B00ECF0A3EDF090001BE0FCA3E0FD900DD62F
:10906B00E0FAA3E0FBD39DEA9C4006AC02AD038083
:10907B000890001BE0FCA3E0FD900DD6ECF0A3EDF7
:10908B00F0E49002ACF00FBF00010EEF64284E60CD
:10909B0003028F7E900DCEE0FEA3E0FF900DD4E097
:1090AB00FCA3E0FDC39FFFEC9EFEC3940040028037
:1090BB0016900DCEE0FEA3E0FFC3ED9FFFEC9EFEEE
:1090CB00C3E49FFFE49EFED3EF9404EE94004003B1
:1090DB00028F4B900DCCE0FEA3E0FF900DD2E0FC95
:1090EB00A3E0FDC39FFFEC9EFEC3940040028016DD
:1090FB00900DCCE0FEA3E0FFC3ED9FFFEC9EFEC303
:10910B00E49FFFE49EFED3EF9404EE940040030231
:02911B008F4B78
:01911D00222F
:10715600E4F545F546F584900C93E0A3E0F5FD9043
:107166000C93E0A3E0F5FE900C91E0A3E0F5FB9014
:107176000C91E0A3E0F5FC908530E493FF3395E0B5
:10718600FE90029275F013EF122F3DEE75F013A4E8
:107196002583F583122F59E92407F9E43AFA754C49
:1071A600FF754D69754E28754FFF75506A75519874
:1071B6001260DB908530E493FF3395E0FE900292F7
:1071C60075F013EF122F3DEE75F013A42583F583AA
:1071D600122F59E92407F9E43AFA12000EEF2401B6
:1071E600F54DE43EF54C90852FE493FF7B737D01CE
:0371F600128D7D7A
:1071F900900D6C122ECE000107ACE4FFFEFDFC9051
:107209000D6C122EA6D3122DBF4017900D6C122EA5
:107219009A74FFFBFAF9F8122C6C900D6C122EC2BD
:0272290080D80B
:10722B009002ACE060FAE49002ACF09002ACE0604B
:10723B00FAE545700F900015E0FFA3E0900C85CFA9
:10724B00F0A3EFF0E546700F900017E0FFA3E0907E
:10725B000C87CFF0A3EFF0E49002ACF0E545704B58
:10726B00900C85E0FEA3E02400EE34F8C364809418
:10727B00804010900C85E0FEA3E02400FFEE34F874
:10728B00FE8015900C85E0FEA3E02400FFEE34F8A1
:10729B00FEC3E49FFFE49EFED3EF9405EE6480945F
:1072AB008050047F0180027F008F45E5457048C305
:1072BB00900C85E094085015900C91E07002A3E0BF
:1072CB0070028014900C9174FFF5F08017900C9164
:1072DB00E07003A3E0F47005754501800A900C91F2
:1072EB00E475F001122B91900C91E0A3E0F5FB906B
:1072FB000C91E0A3E0F5FCE546704B900C87E0FEAB
:10730B00A3E02400EE34F8C3648094804010900C0A
:10731B0087E0FEA3E02400FFEE34F8FE8015900C0E
:10732B0087E0FEA3E02400FFEE34F8FEC3E49FFFEA
:10733B00E49EFED3EF9405EE6480948050047F01AD
:10734B0080027F008F46E5467048C3900C87E0941F
:10735B00085015900C93E07002A3E070028014901B
:10736B000C9374FFF5F08017900C93E07003A3E07F
:10737B00F47005754601800A900C93E475F00112C8
:10738B002B91900C93E0A3E0F5FD900C93E0A3E020
:10739B00F5FEE545700302722BE546700302722B76
:1073AB00128F4B900015E0FFA3E0900C85CFF0A35C
:1073BB00EFF0900017E0FFA3E0900C87CFF0A3EF66
:1073CB00F0908530E493FF3395E0FE90029275F0D8
:1073DB0013EF122F3DEE75F013A42583F583122FB7
:1073EB0059E92407F9E43AFA754CFF754D6A754E65
:1073FB00A9900C91E0F54FA3E0F550900C93E0F5BC
:10740B0051A3E0F5521260DB908530E493FF339586
:10741B00E0FE90029275F013EF122F3DEE75F01314
:10742B00A42583F583122F59E92407F9E43AFA12BC
:10743B00000EEF2401F54DE43EF54C90852FE493BF
:08744B00FF7B737D01128D7DB2
:10745300900D70122ECE000107ACE4FFFEFDFC90F0
:107463000D70122EA6D3122DBF4017900D70122E41
:107473009A74FFFBFAF9F8122C6C900D70122EC25D
:0274830080D8AF
:10748500754CFF754D6A754EBA900C85E0F54FA3A6
:10749500E0F550900C87E0F551A3E0F5527B017AB9
:1074A5000D79781260DB908530E493FF3395E0FE2B
:1074B50090029275F013EF122F3DEE75F013A4258F
:1074C50083F583122F59E92407F9E43AFA754CFF3D
:1074D500754D69754E28754F0175500D75517812AA
:1074E50060DB908530E493FF3395E0FE9002927562
:1074F500F013EF122F3DEE75F013A42583F58312DB
:107505002F59E92407F9E43AFA12000EEF2401F5A0
:107515004DE43EF54C90852FE493FF7B737D01127E
:027525008D7D5A
:10752700900D74122ECE000107ACE4FFFEFDFC9017
:107537000D74122EA6D3122DBF4017900D74122E64
:107547009A74FFFBFAF9F8122C6C900D74122EC284
:0275570080D8DA
:01755900220F
:027914008F42A0
:10791600858443E4F544F545F54890853093FF3377
:1079260095E0FE90029275F013EF122F3DEE75F082
:1079360013A42583F583122F59E92407F9E43AFAAB
:10794600754CFF754D69754E28754FFF75506A75F4
:1079560051CB1260DB908530E493FF3395E0FE90C7
:10796600029275F013EF122F3DEE75F013A42583E6
:10797600F583122F59E92407F9E43AFA12000EEFBB
:107986002401F54DE43EF54C90852FE493FF7B737F
:107996007D01128D7DE49002C5F0A3F0F546F54712
:1079A600D390094DE0954790094CE095464023AEAB
:1079B60046AF477C017D00122B5B74502547F5824C
:1079C60074003546F583EDF00547E5477002054638
:1079D60080CE75840F30E819C39002C6E0940990F2
:1079E60002C5E094004003027BDBE49002C5F0A3ED
:1079F600F090094CE0FCA3E0FD7B017A007950850C
:107A06004453854554E4FFFE129D4890094CE0FE20
:107A1600A3E0FF7B017A00795085444E85454F12DD
:107A26009C23E4F546F547D390094DE09547900928
:107A36004CE09546402DAE46AF477C017D00122BAB
:107A46005B74502547F58274003546F583E06D700A
:107A560001EC6005754801800A0547E54770020597
:107A66004680C4E5487003027AF2908530E493FFBD
:107A76003395E0FE90029275F013EF122F3DEE75EE
:107A8600F013A42583F583122F59E92407F9E43A64
:107A9600FA754CFF754D6A754EDA85444F8545502B
:107AA6008546518547521260DB908530E493FF335B
:107AB60095E0FE90029275F013EF122F3DEE75F0F1
:107AC60013A42583F583122F59E92407F9E43AFA1A
:107AD60012000EEF2401F54DE43EF54C90852FE49F
:0C7AE60093FF7B737D01128D7D027BDB22
:107AF200900CDC122ECE000107ACE4FFFEFDFC90E0
:107B02000CDC122EA6D3122DBF4017900CDC122EC5
:107B12009A74FFFBFAF9F8122C6C900CDC122EC24C
:027B220080D809
:107B2400908530E493FF3395E0FE90029275F01354
:107B3400EF122F3DEE75F013A42583F583122F5910
:107B4400E92407F9E43AFA754CFF754D6A754EFE5F
:107B540085444F8545501260DB908530E493FF33B4
:107B640095E0FE90029275F013EF122F3DEE75F042
:107B740013A42583F583122F59E92407F9E43AFA6B
:107B840012000EEF2401F54DE43EF54C90852FE4F0
:107B940093FF7B737D01128D7DAF45AE4412A2C469
:107BA400D3900C27E09545900C26E095445007E4CB
:107BB400F544F54580080545E54570020544E54270
:107BC400643470030279D8D3E5459404E5446480B1
:0E7BD400948050030279D8E49002C5F0A3F02B
:107BE200900CE0122ECE000107ACE4FFFEFDFC90EB
:107BF2000CE0122EA6D3122DBF4017900CE0122ECD
:107C02009A74FFFBFAF9F8122C6C900CE0122EC257
:027C120080D818
:107C1400908530E493FF3395E0FE90029275F01363
:107C2400EF122F3DEE75F013A42583F583122F591F
:107C3400E92407F9E43AFA754CFF754D69754E2845
:107C4400754FFF75506B7551091260DB908530E4F8
:107C540093FF3395E0FE90029275F013EF122F3DDF
:107C6400EE75F013A42583F583122F59E92407F93F
:107C7400E43AFA12000EEF2401F54DE43EF54C907F
:0F7C8400852FE493FF7B737D01128D7D854384F3
:017C930022CE
:104EE70085844278FC7C0C7D017BFF7A6D79337E6B
:0C4EF700007F08122A219000047401F0D2
:104F0300900CDC122ECE000107ACE4FFFEFDFC90FA
:104F13000CDC122EA6D3122DBF4017900CDC122EE0
:104F23009A74FFFBFAF9F8122C6C900CDC122EC267
:024F330080D824
:104F3500908530E493FF3395E0FE90029275F0136F
:104F4500EF122F3DEE75F013A42583F583122F592B
:104F5500E92407F9E43AFA754CFF754D69754E2851
:104F6500754FFF75506B7551161260DB908530E4F7
:104F750093FF3395E0FE90029275F013EF122F3DEB
:104F8500EE75F013A42583F583122F59E92407F94B
:104F9500E43AFA12000EEF2401F54DE43EF54C908B
:104FA500852FE493FF7B737D01128D7DE49002C50F
:034FB500F0A3F076
:104FB80075840F30E819C39002C6E094099002C5C1
:104FC800E094004003025515E49002C5F0A3F09068
:0A4FD80002ACE060DBE4F085D84392
:104FE200900CE0122ECE0006DDD0E4FFFEFDFC9018
:104FF2000CE0122EA6D3122DBF4017900CE0122EF9
:105002009A74FFFBFAF9F8122C6C900CE0122EC283
:0250120080D844
:10501400908530E493FF3395E0FE90029275F0138F
:10502400EF122F3DEE75F013A42583F583122F594B
:10503400E92407F9E43AFA754CFF754D69754E2871
:10504400754FFF75506A75510F1260DB908530E41F
:1050540093FF3395E0FE90029275F013EF122F3D0B
:10506400EE75F013A42583F583122F59E92407F96B
:10507400E43AFA12000EEF2401F54DE43EF54C90AB
:0C508400852FE493FF7B737D01128D7D6E
:10509000900CE4122ECE000107ACE4FFFEFDFC9064
:1050A0000CE4122EA6D3122DBF4017900CE4122E42
:1050B0009A74FFFBFAF9F8122C6C900CE4122EC2D1
:0250C00080D896
:1050C200754CFF754D6B754E217B017A0D7904127B
:1050D20060DB7544007545067B017A0D7904120088
:1050E2000E74042FF9740D3EFA7B01C003C002C096
:1050F2000174FC2545F582740C3544F583E0554373
:105102007BFF60067A6B792980047A6B792B8B4C52
:105112008A4D894ED001D002D0031260DBE54515DD
:105122004570021544C3E5446480948050AA90857A
:1051320030E493FF3395E0FE90029275F013EF1284
:105142002F3DEE75F013A42583F583122F59E92420
:1051520007F9E43AFA754CFF754D69754E28754F9B
:105162000175500D7551041260DB908530E493FF98
:105172003395E0FE90029275F013EF122F3DEE751B
:10518200F013A42583F583122F59E92407F9E43A91
:10519200FA12000EEF2401F54DE43EF54C90852FF6
:0A51A200E493FF7B737D01128D7D05
:1051AC00900CE8122ECE000107ACE4FFFEFDFC9043
:1051BC000CE8122EA6D3122DBF4017900CE8122E1D
:1051CC009A74FFFBFAF9F8122C6C900CE8122EC2B0
:0251DC0080D879
:1051DE00754CFF754D6B754E2D900015E0F54FA378
:1051EE00E0F550A3E0F551A3E0F5527B017A0D797D
:1051FE00041260DB908530E493FF3395E0FE90025D
:10520E009275F013EF122F3DEE75F013A42583F572
:10521E0083122F59E92407F9E43AFA754CFF754DBC
:10522E0069754E28754F0175500D7551041260DB6E
:10523E00908530E493FF3395E0FE90029275F01363
:10524E00EF122F3DEE75F013A42583F583122F591F
:10525E00E92407F9E43AFA12000EEF2401F54DE4C1
:10526E003EF54C90852FE493FF7B737D01128D7D6F
:10527E00900CEC122ECE000107ACE4FFFEFDFC906C
:10528E000CEC122EA6D3122DBF4017900CEC122E42
:10529E009A74FFFBFAF9F8122C6C900CEC122EC2D9
:0252AE0080D8A6
:1052B000900014E06018754CFF754D6B754E3A9078
:1052C000001BE0F54FA3E0F5509000198014754CD9
:1052D000FF754D6B754E48900019E0F54FA3E0F552
:1052E00050A3E0F551A3E0F5527B017A0D79041249
:1052F00060DB908530E493FF3395E0FE9002927579
:10530000F013EF122F3DEE75F013A42583F58312F1
:105310002F59E92407F9E43AFA754CFF754D697580
:105320004E28754F0175500D7551041260DB908544
:1053300030E493FF3395E0FE90029275F013EF1284
:105340002F3DEE75F013A42583F583122F59E92420
:1053500007F9E43AFA12000EEF2401F54DE43EF5A8
:0E5360004C90852FE493FF7B737D01128D7DB1
:10536E00900CF0122ECE000107ACE4FFFEFDFC9077
:10537E000CF0122EA6D3122DBF4017900CF0122E49
:10538E009A74FFFBFAF9F8122C6C900CF0122EC2E4
:02539E0080D8B5
:1053A000754CFF754D6B754E5690001DE0F54FA383
:1053B000E0F550A3E0F551A3E0F5527B017A0D79B9
:1053C000041260DB908530E493FF3395E0FE900299
:1053D0009275F013EF122F3DEE75F013A42583F5AF
:1053E00083122F59E92407F9E43AFA754CFF754DF9
:1053F00069754E28754F0175500D7551041260DBAB
:10540000908530E493FF3395E0FE90029275F0139F
:10541000EF122F3DEE75F013A42583F583122F595B
:10542000E92407F9E43AFA12000EEF2401F54DE4FD
:105430003EF54C90852FE493FF7B737D01128D7DAB
:10544000900CF4122ECE000107ACE4FFFEFDFC90A0
:105450000CF4122EA6D3122DBF4017900CF4122E6E
:105460009A74FFFBFAF9F8122C6C900CF4122EC20D
:0254700080D8E2
:10547200754CFF754D6B754E65900021E0F54FA39D
:10548200E0F550A3E0F551A3E0F5527B017A0D79E6
:10549200041260DB908530E493FF3395E0FE9002C6
:1054A2009275F013EF122F3DEE75F013A42583F5DC
:1054B20083122F59E92407F9E43AFA754CFF754D26
:1054C20069754E28754F0175500D7551041260DBD8
:1054D200908530E493FF3395E0FE90029275F013CD
:1054E200EF122F3DEE75F013A42583F583122F5989
:1054F200E92407F9E43AFA12000EEF2401F54DE42B
:105502003EF54C90852FE493FF7B737D01128D7DD8
:0A551200024FB8E49002C5F0A3F0C8
:10551C00900CF8122ECE000107ACE4FFFEFDFC90BF
:10552C000CF8122EA6D3122DBF4017900CF8122E89
:10553C009A74FFFBFAF9F8122C6C900CF8122EC22C
:02554C0080D805
:10554E00908530E493FF3395E0FE90029275F01350
:10555E00EF122F3DEE75F013A42583F583122F590C
:10556E00E92407F9E43AFA754CFF754D69754E2832
:10557E00754FFF75506B7551741260DB908530E47A
:10558E0093FF3395E0FE90029275F013EF122F3DCC
:10559E00EE75F013A42583F583122F59E92407F92C
:1055AE00E43AFA12000EEF2401F54DE43EF54C906C
:1055BE00852FE493FF7B737D01128D7DD2B3C2B62E
:0C55CE00C2B5C2B4E4900004F085428431
:0155DA0022AE
:10801200858442E4F545F54678E87C0C7D017BFFDA
:0A8022007A6D793BFE7F08122A21D7
:10802C00900CDC122ECE000107ACE4FFFEFDFC90A0
:10803C000CDC122EA6D3122DBF4017900CDC122E86
:10804C009A74FFFBFAF9F8122C6C900CDC122EC20D
:02805C0080D8CA
:10805E00908530E493FF3395E0FE90029275F01315
:10806E00EF122F3DEE75F013A42583F583122F59D1
:10807E00E92407F9E43AFA754CFF754D69754E28F7
:10808E00754FFF75506B7551881260DB908530E42B
:10809E0093FF3395E0FE90029275F013EF122F3D91
:1080AE00EE75F013A42583F583122F59E92407F9F1
:1080BE00E43AFA12000EEF2401F54DE43EF54C9031
:0C80CE00852FE493FF7B737D01128D7DF4
:1080DA00900CE0122ECE000107ACE4FFFEFDFC90EE
:1080EA000CE0122EA6D3122DBF4017900CE0122ED0
:1080FA009A74FFFBFAF9F8122C6C900CE0122EC25B
:02810A0080D81B
:10810C00E49002C5F0A3F0900270E024A0F5449036
:10811C00026FE03400F54375840F30E819C3900208
:10812C00C6E094099002C5E0940040030281FBE490
:10813C009002C5F0A3F090026FE0FEA3E0FFB544FF
:10814C00D6EEB543D2EF24A0F544E43EF54390853A
:10815C0030E493FF3395E0FE90029275F013EF122A
:10816C002F3DEE75F013A42583F583122F59E924C6
:10817C0007F9E43AFA754CFF754D6B754E948545CD
:10818C004F8546501260DB908530E493FF3395E0C9
:10819C00FE90029275F013EF122F3DEE75F013A4C2
:1081AC002583F583122F59E92407F9E43AFA1200D2
:1081BC000EEF2401F54DE43EF54C90852FE493FF32
:1081CC007B737D01128D7D74E82546F582740C3528
:1081DC0045F583E0F5C80546E54670020545FFAE5A
:1081EC00457C007D07122B5B8C458D46028123E478
:0681FC009002C5F0A3F0A3
:10820200900CE4122ECE000107ACE4FFFEFDFC90C0
:108212000CE4122EA6D3122DBF4017900CE4122E9E
:108222009A74FFFBFAF9F8122C6C900CE4122EC22D
:0282320080D8F2
:10823400908530E493FF3395E0FE90029275F0133D
:10824400EF122F3DEE75F013A42583F583122F59F9
:10825400E92407F9E43AFA754CFF754D69754E281F
:10826400754FFF75506B75519B1260DB908530E440
:1082740093FF3395E0FE90029275F013EF122F3DB9
:10828400EE75F013A42583F583122F59E92407F919
:10829400E43AFA12000EEF2401F54DE43EF54C9059
:1082A400852FE493FF7B737D01128D7DD2B3C2B61B
:0782B400C2B5C2B48542848B
:0182BB0022A0
:0C55DB008584427544019000047401F0C6
:1055E700900CDC122ECE000107ACE4FFFEFDFC9010
:1055F7000CDC122EA6D3122DBF4017900CDC122EF6
:105607009A74FFFBFAF9F8122C6C900CDC122EC27C
:0256170080D839
:10561900908530E493FF3395E0FE90029275F01384
:10562900EF122F3DEE75F013A42583F583122F5940
:10563900E92407F9E43AFA754CFF754D69754E2866
:10564900754FFF75506B7551B01260DB908530E472
:1056590093FF3395E0FE90029275F013EF122F3D00
:10566900EE75F013A42583F583122F59E92407F960
:10567900E43AFA12000EEF2401F54DE43EF54C90A0
:0C568900852FE493FF7B737D01128D7D63
:10569500900CE0122ECE000107ACE4FFFEFDFC905D
:1056A5000CE0122EA6D3122DBF4017900CE0122E3F
:1056B5009A74FFFBFAF9F8122C6C900CE0122EC2CA
:0256C50080D88B
:1056C700908530E493FF3395E0FE90029275F013D6
:1056D700EF122F3DEE75F013A42583F583122F5992
:1056E700E92407F9E43AFA754CFF754D69754E28B8
:1056F700754FFF75506B7551B91260DB908530E4BB
:1057070093FF3395E0FE90029275F013EF122F3D51
:10571700EE75F013A42583F583122F59E92407F9B1
:10572700E43AFA12000EEF2401F54DE43EF54C90F1
:0C573700852FE493FF7B737D01128D7DB4
:10574300900CE4122ECE000107ACE4FFFEFDFC90AA
:105753000CE4122EA6D3122DBF4017900CE4122E88
:105763009A74FFFBFAF9F8122C6C900CE4122EC217
:0257730080D8DC
:10577500908530E493FF3395E0FE90029275F01327
:10578500EF122F3DEE75F013A42583F583122F59E3
:10579500E92407F9E43AFA754CFF754D69754E2809
:1057A500754FFF75506B7551DC1260DB908530E4E9
:1057B50093FF3395E0FE90029275F013EF122F3DA3
:1057C500EE75F013A42583F583122F59E92407F903
:1057D500E43AFA12000EEF2401F54DE43EF54C9043
:1057E500852FE493FF7B737D01128D7D9002ACE0E4
:1057F50060FAE4F545E545122FF4581B00581B01E6
:1058050058490258770358B10458DF05590C065911
:10581500390700005964E54525E02415F582E4348F
:1058250000F583E0FEA3E0FFC394A4EE9406400DCB
:10583500D3EF94FCEE940850047F0180027F008F23
:1058450043025964E54525E02415F582E43400F565
:1058550083E0FEA3E0FFC39484EE940E400DD3EFE6
:10586500949CEE941050047F0180027F008F4302C8
:105875005964900014E0602EE54525E02415F58275
:10588500E43400F583E0FEA3E0FFC394AAEE94059B
:10589500400DD3EF946CEE940750047F0180027F96
:1058A500008F43025964754301025964E54525E0BB
:1058B5002415F582E43400F583E0FEA3E0FFC394EC
:1058C50030EE9404400DD3EF9460EE940550047FC0
:1058D5000180027F008F43025964E54525E02415C8
:1058E500F582E43400F583E0FEA3E0FFC394CAEE3D
:1058F5009402400DD3EF9496EE940350047F0180FB
:10590500027F008F438058E54525E02415F582E4A4
:105915003400F583E0FEA3E0FFC39465EE940140F7
:105925000DD3EF94CBEE940150047F0180027F00EC
:105935008F43802BE54525E02415F582E43400F5F9
:1059450083E0FEA3E0FFC3943FEE9403400DD3EF45
:10595500942BEE940450047F0180027F008F43E571
:10596500437002F5447B017A0C79F012000E74F055
:105975002FF9740C3EFA7B01C003C002C001E54358
:105985007BFF60067A6B79F480047A6B79F88B4C2F
:105995008A4D894ED001D002D0031260DB0545E562
:0E59A50045C3940850030257FAE49002ACF098
:1059B300900CE8122ECE000107ACE4FFFEFDFC9034
:1059C3000CE8122EA6D3122DBF4017900CE8122E0E
:1059D3009A74FFFBFAF9F8122C6C900CE8122EC2A1
:0259E30080D86A
:1059E500908530E493FF3395E0FE90029275F013B5
:1059F500EF122F3DEE75F013A42583F583122F5971
:105A0500E92407F9E43AFA754CFF754D69754E2896
:105A1500754F0175500C7551F01260DB908530E4BF
:105A250093FF3395E0FE90029275F013EF122F3D30
:105A3500EE75F013A42583F583122F59E92407F990
:105A4500E43AFA12000EEF2401F54DE43EF54C90D0
:0C5A5500852FE493FF7B737D01128D7D93
:105A6100900CEC122ECE000107ACE4FFFEFDFC9081
:105A71000CEC122EA6D3122DBF4017900CEC122E57
:105A81009A74FFFBFAF9F8122C6C900CEC122EC2EE
:025A910080D8BB
:105A9300E5449085306038E493FF3395E0FE90024F
:105AA3009275F013EF122F3DEE75F013A42583F5D5
:105AB30083122F59E92407F9E43AFA754CFF754D1F
:105AC30069754E28754FFF75506B7551FC8036E430
:105AD30093FF3395E0FE90029275F013EF122F3D82
:105AE300EE75F013A42583F583122F59E92407F9E2
:105AF300E43AFA754CFF754D69754E28754FFF757D
:105B0300506C7551091260DB908530E493FF339537
:105B1300E0FE90029275F013EF122F3DEE75F01335
:105B2300A42583F583122F59E92407F9E43AFA12DD
:105B3300000EEF2401F54DE43EF54C90852FE493E0
:105B4300FF7B737D01128D7DD2B3C2B6C2B5C2B4E1
:085B5300E4900004F085428497
:015B5B002227
:0E5B5C00858442754301E4F54590000404F091
:105B6A00900CDC122ECE000107ACE4FFFEFDFC9087
:105B7A000CDC122EA6D3122DBF4017900CDC122E6D
:105B8A009A74FFFBFAF9F8122C6C900CDC122EC2F4
:025B9A0080D8B1
:105B9C00908530E493FF3395E0FE90029275F013FC
:105BAC00EF122F3DEE75F013A42583F583122F59B8
:105BBC00E92407F9E43AFA754CFF754D69754E28DE
:105BCC00754FFF75506C75511B1260DB908530E47E
:105BDC0093FF3395E0FE90029275F013EF122F3D78
:105BEC00EE75F013A42583F583122F59E92407F9D8
:105BFC00E43AFA12000EEF2401F54DE43EF54C9018
:105C0C00852FE493FF7B737D01128D7D900014E052
:025C1C00706EA8
:105C1E00900CE0122ECE000107ACE4FFFEFDFC90CE
:105C2E000CE0122EA6D3122DBF4017900CE0122EB0
:105C3E009A74FFFBFAF9F8122C6C900CE0122EC23B
:025C4E0080D8FC
:105C5000908530E493FF3395E0FE90029275F01347
:105C6000EF122F3DEE75F013A42583F583122F5903
:105C7000E92407F9E43AFA754CFF754D69754E2829
:105C8000754FFF75506C75512B02602BE4F546E59E
:105C900046B40707E4F5C8D2FB80058545C8C2FBBA
:105CA000900CE4122ECE000107ACE4FFFEFDFC9048
:105CB0000CE4122EA6D3122DBF4017900CE4122E26
:105CC0009A74FFFBFAF9F8122C6C900CE4122EC2B5
:025CD00080D87A
:105CD200908530E493FF3395E0FE90029275F013C5
:105CE200EF122F3DEE75F013A42583F583122F5981
:105CF200E92407F9E43AFA754CFF754D6C754E4983
:105D020085464F1260DB908530E493FF3395E0FEC9
:105D120090029275F013EF122F3DEE75F013A42549
:105D220083F583122F59E92407F9E43AFA12000E97
:105D3200EF2401F54DE43EF54C90852FE493FF7B73
:105D4200737D01128D7D9002ACE060FAE546122F60
:105D5200F45D6F005D9A015DC5025DF0035E1B0498
:105D62005E45055E6F065E990700005EACE5D8B53C
:105D7200451FD3900018E094CA900017E0940240A7
:105D82001020A00D20A10A3086073087047F0180F1
:105D9200027F008F44025EACE5D8B5451FC3900078
:105DA20018E0942C900017E09401501020A00D20D0
:105DB200A10A2086073087047F0180027F008F447A
:105DC200025EACE5D8B5451FC3900018E0942C9054
:105DD2000017E09401501020A00D20A10A30860780
:105DE2002087047F0180027F008F44025EACE5D8E9
:105DF200B5451FC3900018E0942C900017E0940161
:105E0200501020A00D20A10A3086073087047F01A0
:105E120080027F008F44025EACE5D8B5451FC39077
:105E22000018E0942C900017E09401501020A00D6F
:105E320020A10A3086073087047F0180027F008F0D
:105E4200448067E5D8B5451FC3900018E0942C90B4
:105E52000017E09401501020A00D30A10A308607EF
:105E62003087047F0180027F008F44803DE5D8B5F2
:105E7200451FC3900018E0942C900017E094015045
:105E82001030A00D20A10A3086073087047F0180E0
:105E9200027F008F448013E545B4030A2086072061
:105EA20087047F0180027F008F44E49002ACF0E51A
:065EB200446003025F6979
:105EB800900CE8122ECE000107ACE4FFFEFDFC902A
:105EC8000CE8122EA6D3122DBF4017900CE8122E04
:105ED8009A74FFFBFAF9F8122C6C900CE8122EC297
:025EE80080D860
:105EEA00908530E493FF3395E0FE90029275F013AB
:105EFA00EF122F3DEE75F013A42583F583122F5967
:105F0A00E92407F9E43AFA754CFF754D69754E288C
:105F1A00754FFF75506C75515C1260DB908530E4EB
:105F2A0093FF3395E0FE90029275F013EF122F3D26
:105F3A00EE75F013A42583F583122F59E92407F986
:105F4A00E43AFA12000EEF2401F54DE43EF54C90C6
:105F5A00852FE493FF7B737D01128D7DE4F543E584
:105F6A004570057545018006E54525E0F545054678
:0A5F7A00E546C394075003025C8F54
:105F8400900CEC122ECE000107ACE4FFFEFDFC9059
:105F94000CEC122EA6D3122DBF4017900CEC122E2F
:105FA4009A74FFFBFAF9F8122C6C900CEC122EC2C6
:025FB40080D893
:105FB600E5439085306038E493FF3395E0FE900228
:105FC6009275F013EF122F3DEE75F013A42583F5AD
:105FD60083122F59E92407F9E43AFA754CFF754DF7
:105FE60069754E28754FFF75506C7551688036E49B
:105FF60093FF3395E0FE90029275F013EF122F3D5A
:10600600EE75F013A42583F583122F59E92407F9B9
:10601600E43AFA754CFF754D69754E28754FFF7554
:10602600506C7551781260DB908530E493FF3395A0
:10603600E0FE90029275F013EF122F3DEE75F0130D
:10604600A42583F583122F59E92407F9E43AFA12B5
:10605600000EEF2401F54DE43EF54C90852FE493B8
:10606600FF7B737D01128D7DD2B3C2B6C2B5C2B4B9
:08607600E4900004F08542846F
:01607E0022FF
:0964EE008584429000047401F061
:1064F700900CDC122ECE000107ACE4FFFEFDFC90F1
:106507000CDC122EA6D3122DBF4017900CDC122ED6
:106517009A74FFFBFAF9F8122C6C900CDC122EC25D
:0265270080D81A
:10652900908530E493FF3395E0FE90029275F01365
:10653900EF122F3DEE75F013A42583F583122F5921
:10654900E92407F9E43AFA754CFF754D69754E2847
:10655900754FFF75506C75518D1260DB908530E475
:1065690093FF3395E0FE90029275F013EF122F3DE1
:10657900EE75F013A42583F583122F59E92407F941
:10658900E43AFA12000EEF2401F54DE43EF54C9081
:10659900852FE493FF7B737D01128D7D900014E0BC
:0265A900706E12
:1065AB00900CE0122ECE000107ACE4FFFEFDFC9038
:1065BB000CE0122EA6D3122DBF4017900CE0122E1A
:1065CB009A74FFFBFAF9F8122C6C900CE0122EC2A5
:0265DB0080D866
:1065DD00908530E493FF3395E0FE90029275F013B1
:1065ED00EF122F3DEE75F013A42583F583122F596D
:1065FD00E92407F9E43AFA754CFF754D69754E2893
:0F660D00754FFF75506C75512B0268D475C820FE
:10661C00900CE4122ECE000107ACE4FFFEFDFC90C2
:10662C000CE4122EA6D3122DBF4017900CE4122EA0
:10663C009A74FFFBFAF9F8122C6C900CE4122EC22F
:02664C0080D8F4
:10664E00908530E493FF3395E0FE90029275F0133F
:10665E00EF122F3DEE75F013A42583F583122F59FB
:10666E00E92407F9E43AFA754CFF754D69754E2821
:10667E00754FFF75506C7551991260DB908530E443
:10668E0093FF3395E0FE90029275F013EF122F3DBB
:10669E00EE75F013A42583F583122F59E92407F91B
:1066AE00E43AFA12000EEF2401F54DE43EF54C905B
:1066BE00852FE493FF7B737D01128D7D7F0112A4E4
:0166CE00CFFC
:1066CF00900CE8122ECE000107ACE4FFFEFDFC900B
:1066DF000CE8122EA6D3122DBF4017900CE8122EE5
:1066EF009A74FFFBFAF9F8122C6C900CE8122EC278
:0266FF0080D841
:10670100908530E493FF3395E0FE90029275F0138B
:10671100EF122F3DEE75F013A42583F583122F5947
:10672100E92407F9E43AFA754CFF754D69754E286D
:10673100754FFF75506C7551AC1260DB908530E47C
:1067410093FF3395E0FE90029275F013EF122F3D07
:10675100EE75F013A42583F583122F59E92407F967
:10676100E43AFA12000EEF2401F54DE43EF54C90A7
:0E677100852FE493FF7B737D01128D7DC2FFA7
:10677F00900CEC122ECE0006DDD0E4FFFEFDFC9057
:10678F000CEC122EA6D3122DBF4017900CEC122E2C
:10679F009A74FFFBFAF9F8122C6C900CEC122EC2C3
:0267AF0080D890
:0267B100D2FF15
:1067B300900CF0122ECE000107ACE4FFFEFDFC901E
:1067C3000CF0122EA6D3122DBF4017900CF0122EF0
:1067D3009A74FFFBFAF9F8122C6C900CF0122EC28B
:0267E30080D85C
:1067E500908530E493FF3395E0FE90029275F013A7
:1067F500EF122F3DEE75F013A42583F583122F5963
:10680500E92407F9E43AFA754CFF754D69754E2888
:10681500754FFF75506C7551BF1260DB908530E484
:1068250093FF3395E0FE90029275F013EF122F3D22
:10683500EE75F013A42583F583122F59E92407F982
:10684500E43AFA12000EEF2401F54DE43EF54C90C2
:10685500852FE493FF7B737D01128D7DE4FF12A4E8
:04686500CFE4F5C8BF
:10686900900CF4122ECE000107ACE4FFFEFDFC9063
:106879000CF4122EA6D3122DBF4017900CF4122E31
:106889009A74FFFBFAF9F8122C6C900CF4122EC2D0
:0268990080D8A5
:10689B00908530E493FF3395E0FE90029275F013F0
:1068AB00EF122F3DEE75F013A42583F583122F59AC
:1068BB00E92407F9E43AFA754CFF754D69754E28D2
:1068CB00754FFF75506C7551D31260DB908530E4BA
:1068DB0093FF3395E0FE90029275F013EF122F3D6C
:1068EB00EE75F013A42583F583122F59E92407F9CC
:1068FB00E43AFA12000EEF2401F54DE43EF54C900C
:10690B00852FE493FF7B737D01128D7DD2B3C2B6CD
:0C691B00C2B5C2B4E4900004F0854284D0
:01692700224D
:10755A00E4900CF0F0A3F0A2FB920185844690001F
:03756A000404F026
:10756D00900CDC122ECE000107ACE4FFFEFDFC906A
:10757D000CDC122EA6D3122DBF4017900CDC122E50
:10758D009A74FFFBFAF9F8122C6C900CDC122EC2D7
:02759D0080D894
:10759F00908530E493FF3395E0FE90029275F013DF
:1075AF00EF122F3DEE75F013A42583F583122F599B
:1075BF00E92407F9E43AFA754CFF754D69754E28C1
:1075CF00754FFF75506C7551E41260DB908530E498
:1075DF0093FF3395E0FE90029275F013EF122F3D5B
:1075EF00EE75F013A42583F583122F59E92407F9BB
:1075FF00E43AFA12000EEF2401F54DE43EF54C90FB
:10760F00852FE493FF7B737D01128D7D900014E035
:02761F00706E8B
:10762100900CE0122ECE000107ACE4FFFEFDFC90B1
:107631000CE0122EA6D3122DBF4017900CE0122E93
:107641009A74FFFBFAF9F8122C6C900CE0122EC21E
:0276510080D8DF
:10765300908530E493FF3395E0FE90029275F0132A
:10766300EF122F3DEE75F013A42583F583122F59E6
:10767300E92407F9E43AFA754CFF754D69754E280C
:0E768300754FFF75506C75512B0278C0C2FB1D
:10769100900CE4122ECE000107ACE4FFFEFDFC903D
:1076A1000CE4122EA6D3122DBF4017900CE4122E1B
:1076B1009A74FFFBFAF9F8122C6C900CE4122EC2AA
:0276C10080D86F
:1076C300908530E493FF3395E0FE90029275F013BA
:1076D300EF122F3DEE75F013A42583F583122F5976
:1076E300E92407F9E43AFA754CFF754D6C754EF8C9
:1076F300754F087550037551E81260DB908530E4CF
:1077030093FF3395E0FE90029275F013EF122F3D35
:10771300EE75F013A42583F583122F59E92407F995
:10772300E43AFA12000EEF2401F54DE43EF54C90D5
:10773300852FE493FF7B737D01128D7DC2B3E4F546
:1077430042F543900048122F59854382854283E5D1
:1077530043122AD20543E5437002054264084542B9
:1077630070E190003E7408F090003D7404F0E4F57D
:1077730044F54512A53790003F7408F0120026E443
:10778300F542F543900048122F5985438285428381
:10779300122A60FF90004B122F5985438285428342
:1077A300122A606F600A900CF0E475F001122B91BD
:1077B3000543E543700205426408454270C6900CD8
:0A77C300F0E07002A3E06002D2B310
:1077CD00900CE8122ECE000001C2E4FFFEFDFC90ED
:1077DD000CE8122EA6D3122DBF4017900CE8122ED6
:1077ED009A74FFFBFAF9F8122C6C900CE8122EC269
:0277FD0080D832
:1077FF000545E54570020544C394E8E544940350FC
:08780F0003027776A20192FB4F
:10781700900CEC122ECE000107ACE4FFFEFDFC90AD
:107827000CEC122EA6D3122DBF4017900CEC122E83
:107837009A74FFFBFAF9F8122C6C900CEC122EC21A
:0278470080D8E7
:10784900900CF0E0FEA3E0FF4E9085306033E493A6
:10785900FD3395E0FC90029275F013ED122F3DEC8B
:1078690075F013A42583F583122F59E92407F9E448
:107879003AFA754CFF754D6D754E0C8E4F8F5080D1
:1078890036E493FF3395E0FE90029275F013EF1200
:107899002F3DEE75F013A42583F583122F59E924A2
:1078A90007F9E43AFA754CFF754D69754E28754F1D
:1078B900FF75506D7551221260DB908530E493FF9E
:1078C9003395E0FE90029275F013EF122F3DEE759D
:1078D900F013A42583F583122F59E92407F9E43A13
:1078E900FA12000EEF2401F54DE43EF54C90852F78
:1078F900E493FF7B737D01128D7DD2B3C2B6C2B50D
:0A790900C2B4E4900004F085468447
:017913002251
:10A4460001120101060101020100000001000000E5
:10A456000C00000077000004A900002E9B0001D22A
:10A46600090012345600B60B61071C71C7471C71F0
:01A47600C71E
:04996200410DDB00D8
:107C94009002A5122F598B338A348935E4F531F5D6
:107CA40032AB33AA34A9350532E532AE3170020560
:107CB40031142406F582E43EF58374FA122AD205BF
:107CC40032E532AE3170020531142406F582E43E09
:107CD400F583E4122AD20532E532AE317002053161
:107CE400142406F582E43EF5837401122AD2053287
:107CF400E532AE3170020531142406F582E43EF516
:107D040083E4122AD20532E532AE31700205311411
:107D14002406F582E43EF5837401122AD20532E585
:107D240032AE3170020531142406F582E43EF58347
:107D3400E4122AD2AD32AC317F087E0612998090CB
:107D4400029AE07002A3E070F69002A4E0FF9002B1
:107D5400A3E06F60F49002A8122F599002A4E0FFF0
:107D640075F0DCA4F58285F083122BE8F53285F0FA
:107D740031EFB402047F0080069002A4E004FF9077
:107D840002A4EFF0E53264017004E5316405600C8F
:0C7D94009002A4E0FF9002A3E0B507B944
:107DA000900CCC122ECE000057E4E4FFFEFDFC90B8
:107DB0000CCC122EA6D3122DBF4017900CCC122E35
:107DC0009A74FFFBFAF9F8122C6C900CCC122EC2AC
:027DD00080D859
:107DD200E53264017004E53164056003027CA0F5BC
:107DE20031F532AB33AA34A9350532E532AE317002
:107DF200020531142406F582E43EF5837401122A49
:107E0200D20532E532AE3170020531142406F58214
:107E1200E43EF583E4122AD20532E532AE31700235
:107E22000531142406F582E43EF583E4122AD205D4
:107E320032E532AE3170020531142406F582E43E99
:107E4200F583E4122AD20532E532AE3170020531F1
:107E5200142406F582E43EF58374C0122AD2053258
:107E6200E532AE3170020531142406F582E43EF5A6
:107E7200837408122AD20532E532AE31700205311E
:107E8200142406F582E43EF583E4122AD20532E593
:107E920032AE3170020531142406F582E43EF583D8
:107EA200E4122AD2E92406F9E43AFAE92532F9EA97
:107EB2003531FA122EFF00E1000074042532F5324A
:107EC200E43531F531AB33AA34A9350532E532AEAA
:107ED2003170020531142406F582E43EF583740103
:107EE200122AD20532E532AE31700205311424066F
:107EF200F582E43EF583E4122AD20532E532AE3150
:107F020070020531142406F582E43EF583740112F1
:107F12002AD20532E532AE3170020531142406F55B
:107F220082E43EF583E4122AD20532E532AE3170A4
:107F3200020531142406F582E43EF583E4122AD2C6
:107F42000532E532AE3170020531142406F582E4C1
:107F52003EF583E4122AD20532E532AE31700205D3
:107F620031142406F582E43EF583E4122AD2053266
:107F7200E532AE3170020531142406F582E43EF595
:107F820083E4122AD2AD32AC317F007E0612998090
:0A7F920090029AE07002A3E070F67E
:107F9C00900CD0122ECE000034BCE4FFFEFDFC9001
:107FAC000CD0122EA6D3122DBF4017900CD0122E2F
:107FBC009A74FFFBFAF9F8122C6C900CD0122EC2AA
:027FCC0080D85B
:107FCE007B017A0279987F007EE17D007C00128928
:017FDE006A38
:107FDF00900CD4122ECE000057E4E4FFFEFDFC906F
:107FEF000CD4122EA6D3122DBF4017900CD4122EE4
:107FFF009A74FFFBFAF9F8122C6C900CD4122EC263
:02800F0080D817
:01801100224C
:1000A60078E87C0C7D017BFF7AA479467E007F0987
:1000B600122A219002A5122F598B498A4A894B9000
:1000C6000014E0700302020A9002A4E09002A3F07A
:1000D600E4F548E4F546F547E54875F003A424E859
:1000E600F582E4340CF583E0FFAB49AA4AA94B0537
:1000F60047E547AC4670020546142406F582E43C03
:10010600F583EF122AD2E54875F003A424E8F582B8
:10011600E4340CF583A3E0FF0547E547AC467002DF
:100126000546142406F582E43CF583EF122AD2E54F
:100136004875F003A424EAF582E4340CF583E0FF65
:100146000547E547AC4670020546142406F582E4E9
:100156003CF583EF12997590029AE07002A3E07065
:10016600F69002A4E0FF9002A3E06F60F49002A86C
:10017600122F599002A4E0FF75F0DCA4F58285F0F9
:1001860083122BE8F54785F046EFB402047F008022
:10019600069002A4E004FF9002A4EFF0E547640194
:1001A6007004E5466405600C9002A4E0FF9002A38B
:0401B600E0B507B9F0
:1001BA00900CCC122ECE000057E4E4FFFEFDFC901A
:1001CA000CCC122EA6D3122DBF4017900CCC122E97
:1001DA009A74FFFBFAF9F8122C6C900CCC122EC20E
:0201EA0080D8BB
:1001EC00E54764017004E546640560030200D90527
:1001FC0048E548C3940350030200D9020C97E4F578
:10020C0046F547AB49AA4AA94B0547E547AE4670A8
:10021C00020546142406F582E43EF5837401122A85
:10022C00D20547E547AE4670020546142406F58212
:10023C00E43EF5837402122AD20547E547AE4670B8
:10024C00020546142406F582E43EF583E4122AD214
:10025C000547E547AE4670020546142406F582E4D0
:10026C003EF5837401122AD20547E547AE4670026B
:10027C000546142406F582E43EF583E4122AD205E1
:10028C0047E547AE4670020546142406F582E43E67
:10029C00F583E4122AD20547E547AE4670020546BF
:1002AC00142406F582E43EF5837401122AD2054724
:1002BC00E547AE4670020546142406F582E43EF589
:1002CC00837401122AD20547E547AE4670020546F3
:1002DC00142406F582E43EF583E4122AD20547E5A0
:1002EC0047AE4670020546142406F582E43EF583BB
:1002FC00E4122AD20547E547AE467002054614249F
:10030C0006F582E43EF583E4122AD20547E547AEB2
:10031C004670020546142406F582E43EF583E41289
:10032C002AD20547E547AE4670020546142406F569
:10033C0082E43EF5837401122AD20547E547AE46A6
:10034C0070020546142406F582E43EF58374061209
:10035C002AD20547E547AE4670020546142406F539
:10036C0082E43EF583E4122AD20547E547AE467097
:10037C00020546142406F582E43EF5837401122A24
:10038C00D20547E547AE4670020546142406F582B1
:10039C00E43EF583E4122AD20547E547AE467002E7
:1003AC000546142406F582E43EF583E4122AD205B0
:1003BC0047E547AE4670020546142406F582E43E36
:1003CC00F5837401122AD20547E547AE4670020543
:1003DC0046142406F582E43EF5837412122AD205E3
:1003EC0047E547AE4670020546142406F582E43E06
:1003FC00F583E4122AD20547E547AE46700205465E
:10040C00142406F582E43EF5837401122AD20547C2
:10041C00E547AE4670020546142406F582E43EF527
:10042C0083E4122AD20547E547AE4670020546140E
:10043C002406F582E43EF583E4122AD20547E5470B
:10044C00AE4670020546142406F582E43EF583742C
:10045C0001122AD20547E547AE4670020546142420
:10046C0006F582E43EF5837403122AD20547E5476C
:10047C00AE4670020546142406F582E43EF583E48C
:10048C00122AD20547E547AE4670020546142406EB
:10049C00F582E43EF583E4122AD20547E547AE46E1
:1004AC0070020546142406F582E43EF583E4122A14
:1004BC00D20547E547AE4670020546142406F58280
:1004CC00E43EF583E4122AD20547E547AE467002B6
:1004DC000546142406F582E43EF5837401122AD2F3
:1004EC000547E547AE4670020546142406F582E43E
:1004FC003EF5837430122AD20547E547AE467002AA
:10050C000546142406F582E43EF583E4122AD2054E
:10051C0047E547AE4670020546142406F582E43ED4
:10052C00F583E4122AD20547E547AE46700205462C
:10053C00142406F582E43EF583E4122AD20547E53D
:10054C0047AE4670020546142406F582E43EF58358
:10055C00E4122AD20547E547AE467002054614243C
:10056C0006F582E43EF5837401122AD20547E5476D
:10057C00AE4670020546142406F582E43EF58374FB
:10058C0004122AD20547E547AE46700205461424EC
:10059C0006F582E43EF583E4122AD20547E547AE20
:1005AC004670020546142406F582E43EF583E412F7
:1005BC002AD20547E547AE4670020546142406F5D7
:1005CC0082E43EF583E4122AD20547E547AE467035
:1005DC00020546142406F582E43EF583E4122AD281
:1005EC000547E547AE4670020546142406F582E43D
:1005FC003EF5837401122AD20547E547AE467002D8
:10060C000546142406F582E43EF5837420122AD2A2
:10061C000547E547AE4670020546142406F582E40C
:10062C003EF583E4122AD20547E547AE4670020533
:10063C0046142406F582E43EF583E4122AD20547DB
:10064C00E547AE4670020546142406F582E43EF5F5
:10065C0083E4122AD20547E547AE467002054612DE
:10066C00996B90029AE07002A3E070F69002A4E0FD
:10067C00FF9002A3E06F60F49002A8122F59900231
:10068C00A4E0FF75F0DCA4F58285F083122BE8F56D
:10069C004785F046EFB402047F0080069002A4E088
:1006AC0004FF9002A4EFF0E54764017004E5466492
:0F06BC0005600C9002A4E0FF9002A3E0B507B91F
:1006CB00900CD0122ECE0000AFC8E4FFFEFDFC90C4
:1006DB000CD0122EA6D3122DBF4017900CD0122E79
:1006EB009A74FFFBFAF9F8122C6C900CD0122EC2F4
:0206FB0080D8A5
:1006FD00E54764017004E5466405600302020AE4FF
:10070D00F546F547AB49AA4AA94B0547E547AE461D
:10071D0070020546142406F582E43EF58374011239
:10072D002AD20547E547AE4670020546142406F564
:10073D0082E43EF5837411122AD20547E547AE4691
:10074D0070020546142406F582E43EF583E4122A70
:10075D00D20547E547AE4670020546142406F582DC
:10076D00E43EF583E4122AD20547E547AE46700212
:10077D000546142406F582E43EF583E4122AD205DB
:10078D0047E547AE4670020546142406F582E43E61
:10079D00F583E4122AD20547E547AE4670020546B9
:1007AD00142406F582E43EF5837401122AD205471E
:1007BD00E547AE4670020546142406F582E43EF583
:1007CD00837421122AD20547E547AE4670020546CD
:1007DD00142406F582E43EF583E4122AD20547E59A
:1007ED0047AE4670020546142406F582E43EF583B5
:1007FD00E4122AD20547E547AE4670020546142499
:10080D0006F582E43EF583E4122AD20547E547AEAC
:10081D004670020546142406F582E43EF583E41283
:10082D002AD20547E547AE4670020546142406F563
:10083D0082E43EF5837401122AD20547E547AE46A0
:10084D0070020546142406F582E43EF583742212E7
:10085D002AD20547E547AE4670020546142406F533
:10086D0082E43EF583E4122AD20547E547AE467091
:10087D00020546142406F582E43EF583E4122AD2DD
:10088D000547E547AE4670020546142406F582E499
:10089D003EF583E4122AD20547E547AE46700205C0
:1008AD0046142406F582E43EF583E4122AD2054768
:1008BD00E547AE4670020546142406F582E43EF582
:1008CD0083740A122AD20547E547AE4670020546E3
:1008DD00142406F582E43EF5837407122AD20547E7
:1008ED00E547AE4670020546142406F582E43EF552
:1008FD0083E4122AD20547E547AE46700205461439
:10090D002406F582E43EF583E4122AD20547E54735
:10091D00AE4670020546142406F582E43EF583E4E6
:10092D00122AD20547E547AE467002054614240645
:10093D00F582E43EF583E4122AD20547E547AE463B
:10094D0070020546142406F582E43EF583740A12FE
:10095D002AD20547E547AE4670020546142406F532
:10096D0082E43EF5837408122AD20547E547AE4668
:10097D0070020546142406F582E43EF583E4122A3E
:10098D00D20547E547AE4670020546142406F582AA
:10099D00E43EF583E4122AD20547E547AE467002E0
:1009AD000546142406F582E43EF583E4122AD205A9
:1009BD0047E547AE4670020546142406F582E43E2F
:1009CD00F583E4122AD20547E547AE467002054687
:1009DD00142406F582E43EF583740A122AD20547E3
:1009ED00E547AE4670020546142406F582E43EF551
:1009FD00837402122AD20547E547AE4670020546BA
:100A0D00142406F582E43EF583E4122AD20547E567
:100A1D0047AE4670020546142406F582E43EF58382
:100A2D00E4122AD20547E547AE4670020546142466
:100A3D0006F582E43EF583E4122AD20547E547AE7A
:100A4D004670020546142406F582E43EF583E41251
:100A5D002AD20547E547AE4670020546142406F531
:100A6D0082E43EF583740A122AD20547E547AE4665
:100A7D0070020546142406F582E43EF583740912CE
:100A8D002AD20547E547AE4670020546142406F501
:100A9D0082E43EF583E4122AD20547E547AE46705F
:100AAD00020546142406F582E43EF583E4122AD2AB
:100ABD000547E547AE4670020546142406F582E467
:100ACD003EF583E4122AD20547E547AE467002058E
:100ADD0046142406F582E43EF583E4122AD2054736
:100AED00E547AE4670020546142406F582E43EF550
:100AFD0083740A122AD20547E547AE4670020546B1
:100B0D00142406F582E43EF5837401122AD20547BA
:100B1D00E547AE4670020546142406F582E43EF51F
:100B2D0083E4122AD20547E547AE46700205461406
:100B3D002406F582E43EF583E4122AD20547E54703
:100B4D00AE4670020546142406F582E43EF583E4B4
:100B5D00122AD20547E547AE467002054614240613
:100B6D00F582E43EF583E4122AD20547E547AE4609
:100B7D0070020546142406F582E43EF583740A12CC
:100B8D002AD20547E547AE4670020546142406F500
:100B9D0082E43EF5837403122AD20547E547AE463B
:100BAD0070020546142406F582E43EF583E4122A0C
:100BBD00D20547E547AE4670020546142406F58278
:100BCD00E43EF583E4122AD20547E547AE467002AE
:100BDD000546142406F582E43EF583E4122AD20577
:100BED0047E547AE467002054612996B90029AE0B2
:100BFD007002A3E070F69002A4E0FF9002A3E06FF4
:100C0D0060F49002A8122F599002A4E0FF75F0DC59
:100C1D00A4F58285F083122BE8F54785F046EFB4F5
:100C2D0002047F0080069002A4E004FF9002A4EF6E
:100C3D00F0E54764017004E5466405600C9002A47C
:090C4D00E0FF9002A3E0B507B935
:100C5600900CD4122ECE0000AFC8E4FFFEFDFC902F
:100C66000CD4122EA6D3122DBF4017900CD4122EE0
:100C76009A74FFFBFAF9F8122C6C900CD4122EC25F
:020C860080D814
:100C8800E54764017004E5466405600302070CE467
:100C9800F546F547AB49AA4AA94B0547E547AE468D
:100CA80070020546142406F582E43EF58374FA12B0
:100CB8002AD20547E547AE4670020546142406F5D4
:100CC80082E43EF583E4122AD20547E547AE467032
:100CD800020546142406F582E43EF5837401122ABF
:100CE800D20547E547AE4670020546142406F5824C
:100CF800E43EF583E4122AD20547E547AE46700282
:100D08000546142406F582E43EF5837401122AD2BE
:100D18000547E547AE4670020546142406F582E409
:100D28003EF583E4122AD27F0812997A90029AE05B
:100D38007002A3E070F69002A4E0FF9002A3E06FB7
:100D480060F49002A8122F599002A4E0FF75F0DC1D
:100D5800A4F58285F083122BE8F54785F046EFB4B9
:100D680002047F0080069002A4E004FF9002A4EF32
:100D7800F0E54764017004E5466405600C9002A440
:090D8800E0FF9002A3E0B507B9F9
:100D9100900CD8122ECE000057E4E4FFFEFDFC902B
:100DA1000CD8122EA6D3122DBF4017900CD8122E9C
:100DB1009A74FFFBFAF9F8122C6C900CD8122EC21F
:020DC10080D8D8
:0F0DC300E54764017004E54664056003020C9780
:100DD200900CACE0FBE4FAF9F87F807E967D98FCFB
:100DE20012A39C8F4F8E4E8D4D8C4C7808122DE69F
:100DF200E4FFE4FDFCC004C005C006C007AF4FAE6F
:100E02004EAD4DAC4C7818122DE6E4FEFDFCD0033D
:100E1200D002D001D000122DA4C004C005C006C06B
:100E220007AF4FAE4EAD4DAC4C7808122DF9E4FF32
:100E3200FEE4FCD003D002D001D000122DA4C004E5
:100E4200C005C006C007AF4FAE4EAD4DAC4C7818D2
:100E5200122DF9E4FFFEFDECD003D002D001D00048
:100E6200122DA4AB49AA4AA94B900006122E76E491
:100E7200754F0AF54EF54DF54CAF4FAE4EAD4DAC3C
:100E82004C7808122DE6E4FFE4FDFCC004C005C066
:100E920006C007AF4FAE4EAD4DAC4C7818122DE6E2
:100EA200E4FEFDFCD003D002D001D000122DA4C07C
:100EB20004C005C006C007AF4FAE4EAD4DAC4C7876
:100EC20008122DF9E4FFFEE4FCD003D002D001D0D9
:100ED20000122DA4C004C005C006C007AF4FAE4E1D
:100EE200AD4DAC4C7818122DF9E4FFFEFDECD003A9
:100EF200D002D001D000122DA4AB49AA4AA94B902E
:100F0200000A122E767546007547080547E547AE7A
:100F12004670020546142406F582E43EF583740108
:100F2200122AD20547E547AE46700205461424064A
:100F3200F582E43EF5837401122AD20547E547AEF5
:100F42004670020546142406F582E43EF583E41257
:100F52002AD20547E547AE4670020546142406F537
:100F620082E43EF583E4122AD20547E547AE467095
:100F7200020546142406F582E43EF5837432122AF1
:100F8200D20547E547AE4670020546142406F582AF
:100F9200E43EF583E4122AD20547E547AE467002E5
:100FA2000546142406F582E43EF5837434122AD2EF
:100FB2000547E547AE4670020546142406F582E46D
:100FC2003EF5837403122AD20547E547AE46700206
:100FD2000546142406F582E43EF583E4122AD2057E
:100FE20047E547AE4670020546142406F582E43E04
:100FF200F583E4122AD20547E547AE46700205465C
:10100200142406F582E43EF583E4122AD20547E56C
:1010120047AE4670020546142406F582E43EF58387
:10102200E4122AD2AD47AC467F077E061299809021
:10103200029AE07002A3E070F69002A4E0FF900230
:10104200A3E06F60F49002A8122F599002A4E0FF6F
:1010520075F0DCA4F58285F083122BE8F54785F064
:1010620046EFB402047F0080069002A4E004FF90E1
:1010720002A4EFF0E54764017004E5466405600CE4
:0C1082009002A4E0FF9002A3E0B507B9C3
:10108E00900CDC122ECE000057E4E4FFFEFDFC9027
:10109E000CDC122EA6D3122DBF4017900CDC122E94
:1010AE009A74FFFBFAF9F8122C6C900CDC122EC21B
:0210BE0080D8D8
:1010C000E54764017004E54664056003020DD290B3
:1010D0000014E070030215AEE4F546F547AB49AAEB
:1010E0004AA94B0547E547AE46700205461424065B
:1010F000F582E43EF583E4122AD20547E547AE4681
:1011000070020546142406F582E43EF583E4122AB3
:10111000D20547E547AE4670020546142406F5821F
:10112000E43EF583E4122AD20547E547AE46700255
:101130000546142406F582E43EF583E4122AD2051E
:1011400047E547AE4670020546142406F582E43EA4
:10115000F583E4122AD20547E547AE4670020546FC
:10116000142406F582E43EF583E4122AD20547E50D
:1011700047AE4670020546142406F582E43EF58328
:10118000E4122AD20547E547AE467002054614240C
:1011900006F582E43EF583E4122AD2AD47AC467FE1
:1011A000167E0612998090029AE07002A3E070F613
:1011B0009002A4E0FF9002A3E06F60F49002A812F6
:1011C0002F599002A4E0FF75F0DCA4F58285F0832E
:1011D000122BE8F54785F046EFB402047F00800645
:1011E0009002A4E004FF9002A4EFF0E547640170D0
:1011F00004E5466405600C9002A4E0FF9002A3E0C1
:03120000B507B976
:10120300900CE0122ECE000057E4E4FFFEFDFC90AC
:101213000CE0122EA6D3122DBF4017900CE0122E15
:101223009A74FFFBFAF9F8122C6C900CE0122EC2A0
:0212330080D861
:10123500E54764017004E546640560030210D8E4DF
:10124500F546F547AB49AA4AA94B0547E547AE46DA
:1012550070020546142406F582E43EF583740512F2
:101265002AD20547E547AE4670020546142406F521
:1012750082E43EF583E4122AD20547E547AE46707F
:10128500020546142406F582E43EF5837404122A09
:10129500D20547E547AE4670020546142406F58299
:1012A500E43EF5837402122AD2E92406F9E43AFAF7
:1012B500E92547F9EA3546FA122EFF50C3000074B6
:1012C500042547F547E43546F546AB49E54B240685
:1012D500F9E4354AFAE92547F9EA3546FA122EFFC7
:1012E5000000000074042547F547E43546F546AB94
:1012F50049AA4AA94B0547E547AE4670020546147B
:101305002406F582E43EF5837405122AD20547E5E5
:1013150047AE4670020546142406F582E43EF58381
:10132500E4122AD2E92406F9E43AFAE92547F9EA6A
:101335003546FA74FA75F000122C2074022547F52B
:1013450047E43546F546AB49E54B2406F9E4354A0D
:10135500FAE92547F9EA3546FA74FA75F000122CD0
:101365002074022547F547E43546F546AB49E54B7C
:101375002406F9E4354AFAE92547F9EA3546FA74C7
:101385006475F000122C2074022547F547E43546B4
:10139500F546AB49E54B2406F9E4354AFAE9254714
:1013A500F9EA3546FA742C75F001122C20740225E1
:1013B50047F547E43546F546AB49AA4AA94B0547E3
:1013C500E547AE4670020546142406F582E43EF56F
:1013D50083E4122AD20547E547AE46700205461456
:1013E5002406F582E43EF583E4122AD20547E54753
:1013F500AE4670020546142406F582E43EF583E404
:10140500122AD20547E547AE467002054614240662
:10141500F582E43EF583E4122AD20547E547AE4658
:1014250070020546142406F582E43EF583E4122A8B
:10143500D20547E547AE4670020546142406F582F7
:10144500E43EF583E4122AD20547E547AE4670022D
:101455000546142406F582E43EF583E4122AD205F6
:1014650047E547AE4670020546142406F582E43E7C
:10147500F583E4122AD20547E547AE4670020546D4
:10148500142406F582E43EF583E4122AD20547E5E5
:1014950047AE4670020546142406F582E43EF58300
:1014A500E4122AD20547E547AE46700205461424E4
:1014B50006F582E43EF583E4122AD20547E547AEF8
:1014C5004670020546142406F582E43EF583E412CF
:1014D5002AD20547E547AE4670020546142406F5AF
:1014E50082E43EF583E4122AD20547E547AE46700D
:1014F500020546142406F582E43EF583E4122AD259
:10150500AD47AC467F247E0612998090029AE07022
:1015150002A3E070F69002A4E0FF9002A3E06F60E2
:10152500F49002A8122F599002A4E0FF75F0DCA4F4
:10153500F58285F083122BE8F54785F046EFB40276
:10154500047F0080069002A4E004FF9002A4EFF05F
:10155500E54764017004E5466405600C9002A4E06B
:08156500FF9002A3E0B507B9F5
:10156D00900CE4122ECE000057E4E4FFFEFDFC903B
:10157D000CE4122EA6D3122DBF4017900CE4122EA0
:10158D009A74FFFBFAF9F8122C6C900CE4122EC22F
:02159D0080D8F4
:0F159F00E54764017004E54664056003021244E9
:0115AE00221A
:10996B00142406F582E43EF583E4122AD27F01AD7E
:05997B0047AC467E062A
:089980008E508F518C528D5363
:109988009002A5122F5974B5122AC09002A5122F61
:10999800599000017462122AD2E550900002122AEE
:1099A800D2E551900003122AD2E553900004122AFE
:1099B800D2E552900005122AD2E4F555F5547F02FB
:1099C800FEE5532406FDE43552FCC3EF9DEE9C50A2
:1099D8001C9002A5122F598F828E83122A6025545B
:1099E800F5542555F5550FBF00010E80D49002A5FA
:1099F800122F59E5532406FFE435528F82F583E58B
:109A080054122AD2E5532407FFE435528F82F58396
:109A1800E555122AD27B017A027998E5532408FD8C
:079A2800E43552FC02A0DD51
:0646B0008B318A328933D0
:1046B600900DDBE0700804F01200A6024D2AAB3123
:1046C600AA32A933122BBD12301A46E0010249D391
:0A46D60001064AB4011200004D2451
:1046E00074062533F533E43532F532753700753805
:1046F0000075393FE4F53AF53B7831E475F0011285
:104700002F49122A47FF783774FFF5F0122F49EF2F
:10471000122AC0053BE53B7002053A6404453A7035
:10472000D8AC3CEC3350047F0180027F008F40AF57
:104730003FAE3EAD3DAC3CEC334002800BAF3FAEF4
:104740003EAD3DAC3C122DB18F3F8E3E8D3D8C3C3D
:10475000AB34AA35A93690000A122F1900000000C8
:10476000E4F53AF53BAB34E536240AF9E43535FA9D
:10477000C003C002C001122E0CC004C005C006C098
:1047800007E47B0AFAF9F8AF3FAE3EAD3DAC3C1210
:10479000A39CAC00AD01AE02AF03C004C005C006CF
:1047A000C007E53BAE3A7802C333CE33CED8F92406
:1047B0004FF58274A43EF583122EB2D007D006D0F6
:1047C00005D004122C87A804A905AA06AB07D007B8
:1047D000D006D005D004122C6CD001D002D0031228
:1047E0002E5CAF3FAE3EAD3DAC3CE47B0AFAF9F83F
:1047F00012A39C8F3F8E3E8D3D8C3C053BE53B706C
:1048000002053A640A453A6003024765E5406015CF
:10481000AB34AA35A93690000A122E2C122DB19075
:10482000000A122E7675370075380075393FE4F5A9
:104830003AF53B7831E475F001122F49122A47FF0F
:10484000783774FFF5F0122F49EF122AC0053BE5C7
:104850003B7002053A6404453A70D8AC3CEC3350E6
:10486000047F0180027F008F40AF3FAE3EAD3DAC84
:104870003CEC334002800BAF3FAE3EAD3DAC3C1252
:104880002DB18F3F8E3E8D3D8C3CAB34AA35A93681
:10489000900006122F1900000000E4F53AF53BAB3A
:1048A00034E5362406F9E43535FAC003C002C00108
:1048B000122E0CC004C005C006C007E47B0AFAF93A
:1048C000F8AF3FAE3EAD3DAC3C12A39CAC00AD0199
:1048D000AE02AF03C004C005C006C007E53BAE3A58
:1048E0007802C333CE33CED8F9244FF58274A43E78
:1048F000F583122EB2D007D006D005D004122C8733
:10490000A804A905AA06AB07D007D006D005D00495
:10491000122C6CD001D002D003122E5CAF3FAE3E01
:10492000AD3DAC3CE47B0AFAF9F812A39C8F3F8EB4
:104930003E8D3D8C3C053BE53B7002053A640A45E3
:104940003A600302489FE5406015AB34AA35A936AA
:10495000900006122E2C122DB1900006122E7674A5
:10496000042533F533E43532F532753700753800F8
:1049700075393FE4F53AF53B7831E475F001122FD3
:1049800049122A47FF783774FFF5F0122F49EF12CA
:104990002AC0053BE53B7002053A6404453A70D8ED
:1049A000AF3FAE3EAD3DAC3CE47BE87A03F9F81294
:1049B000A39C8F3F8E3E8D3D8C3CAB34AA35A936EF
:1049C00090000EEE8FF0122C3F9002F3E04404F0C2
:1049D000024D2AAB31AA32A93390002F122A60FE71
:1049E00090002E122A607C002400FFEC3E9002C250
:1049F000F0A3EFF0900031122A60900CB2F0740234
:104A00002533F533E43532F532FAA93390000B1231
:104A10002A60540D640D6008E4900CB2F0024AAABA
:104A2000E5362403F9E43535853437F5388939E43A
:104A3000F53AF53B7831E475F001122F49122A4717
:104A4000FF783774FFF5F0122F49EF122AC0053BAB
:104A5000E53B7002053A6404453A70D87404253386
:104A6000F533E43532F532E5362404F9E43535FA28
:104A7000E92401F9E43A853437F5388939E4F53A1F
:104A8000F53B7831E475F001122F49122A47FF787F
:104A90003774FFF5F0122F49EF122AC0053BE53BB2
:104AA0007002053A6402453A70D89002F3E044027D
:044AB000F0024D2A99
:104AB40074062533F533E43532F532AB31FAA933D4
:104AC400122E0C8F3F8E3E8D3D8C3C7808122DE6C5
:104AD400E4FFE4FDFCC004C005C006C007AF3FAE60
:104AE4003EAD3DAC3C7818122DE6E4FEFDFCD0034F
:104AF400D002D001D000122DA4C004C005C006C04D
:104B040007AF3FAE3EAD3DAC3C7808122DF9E4FF53
:104B1400FEE4FCD003D002D001D000122DA4C004C6
:104B2400C005C006C007AF3FAE3EAD3DAC3C7818F3
:104B3400122DF9E4FFFEFDECD003D002D001D00029
:104B4400122DA48F3F8E3E8D3D8C3CE47B64FAF99C
:104B5400F812A39C8F3F8E3E8D3D8C3C8E428F433A
:104B640074042533F533E43532F532AB31FAA93325
:104B7400122E0C8F3F8E3E8D3D8C3C7808122DE614
:104B8400E4FFE4FDFCC004C005C006C007AF3FAEAF
:104B94003EAD3DAC3C7818122DE6E4FEFDFCD0039E
:104BA400D002D001D000122DA4C004C005C006C09C
:104BB40007AF3FAE3EAD3DAC3C7808122DF9E4FFA3
:104BC400FEE4FCD003D002D001D000122DA4C00416
:104BD400C005C006C007AF3FAE3EAD3DAC3C781843
:104BE400122DF9E4FFFEFDECD003D002D001D00079
:104BF400122DA48F3F8E3E8D3D8C3CE47B64FAF9EC
:104C0400F812A39C8F3F8E3E8D3D8C3C8E408F418D
:104C140074042533F533E43532F532AB31FAA93374
:104C2400122E0C8F3F8E3E8D3D8C3C7808122DE663
:104C3400E4FFE4FDFCC004C005C006C007AF3FAEFE
:104C44003EAD3DAC3C7818122DE6E4FEFDFCD003ED
:104C5400D002D001D000122DA4C004C005C006C0EB
:104C640007AF3FAE3EAD3DAC3C7808122DF9E4FFF2
:104C7400FEE4FCD003D002D001D000122DA4C00465
:104C8400C005C006C007AF3FAE3EAD3DAC3C781892
:104C9400122DF9E4FFFEFDECD003D002D001D000C8
:104CA400122DA48F3F8E3E8D3D8C3CE47B64FAF93B
:104CB400F812A39C8F3F8E3E8D3D8C3CC3E49FF540
:104CC40045E49EF544E5405407FEE47803CEC3135F
:104CD400CE13D8F9AB34AA35A936900010122AD2D3
:104CE400E5425407FEE47806CEC313CE13D8F990F8
:104CF4000010122A8DE5445403900010122A8DE509
:104D040041900011122AD2E543900012122AD2E5F2
:0E4D140045900013122AD29002F3E04401F001
:104D22008006753A00753B019002F3E06407600368
:104D3200024EE6F0900CB2E06003024E6190000079
:104D4200E075F015A424C7F9740235F0FA7B01A8C6
:104D520036AC35AD347E007F15122A21AB34AA352C
:104D6200A936122E0CEF24FAFFE43EFEE43DFDE4E8
:104D72003CFC122E5C900000E0640175F015A42446
:104D8200C7F582E43402F583122E9AE4FBFAF9F8AD
:104D9200C3122DD57003024E61AB34E5362406F9F9
:104DA200E43535FAC003C002C001122E0CC004C0A3
:104DB20005C006C007900000E0FF640175F015A46D
:104DC20024CDF582E43402F583122EA6EF75F01598
:104DD200A424CDF582E43402F583122E9A122C79A2
:104DE200A804A905AA06AB07D007D006D005D004AF
:104DF200122C6CD001D002D003122E5CAB34E536FB
:104E0200240AF9E43535FAC003C002C001122E0C9F
:104E1200C004C005C006C007900000E0FF64017531
:104E2200F015A424D1F582E43402F583122EA6EF04
:104E320075F015A424D1F582E43402F583122E9A7A
:104E4200122C79A804A905AA06AB07D007D006D070
:104E520005D004122C6CD001D002D003122E5C902B
:104E62000000E06401F0E075F015A424C7F97402B3
:104E720035F0A801FC7D01AB34AA35A9367E007F4E
:104E820015122A21908532E493FF3395E0FE9002B9
:104E92009275F013EF122F3DEE75F013A42583F5F2
:104EA20083122F59E92407F9E43A8B37F538893907
:104EB200900CB2E0FF7837E475F001122F49EF123F
:104EC2002AC0A839AC38AD37AB34AA35A9367E0032
:104ED2007F15122A21754C00754D167B227D037FAA
:044EE20002128D7DAE
:014EE60022A9
:10A4CF00EF6004D2B18002C2B1E4FF0FBF14FCC22F
:10A4DF00B2E4FF0FBF14FCE4FEB2B1E4FF0FBF14F0
:07A4EF00FC0EBE85F4D2B2A1
:01A4F6002243
:04996600410DDC00D3
:10A51E00AF84E4F58475C00475CFF175C30243C0F2
:08A52E0040C2C343E6028F8422
:01A536002202
:03003B000296C268
:1096C200C0E0C0F0C083C082C0D075D000C000C06E
:0796D20001C002C003C00744
:1096D900C200AFC1EF122FF4970608970610971929
:1096E90018974220971928974230979038974A40FF
:1096F900974648974A509771580000979090003DB7
:10970900E0F5C253C2FEA20CE43342C2C2C580795D
:1097190090003EE0601D900043122F59122A47F530
:10972900C290003EE014F0900044E475F001122B61
:10973900918056D2C4C20B8050D2C5804CD2C5800C
:109749004890003FE014F0601B90004B122F599095
:109759000DDCE0FF04F08F82758300E5C2122AD286
:10976900D2C28025C2C2802190004B122F59900D80
:10977900DCE0FF04F08F82758300E5C2122AD2D2A1
:10978900C4C20BD2C28002D20030001053C0BF4302
:0E979900C040C2C5C2C4C2C2C20BC200C2C31D
:1097A700D007D003D002D001D000D0D0D082D08350
:0597B700D0F0D0E0320B
:10A53700AF84E4F584200BFDD20BC20CD2C58F8407
:01A5470022F1
:10002600AF84E4F584200BFDD20BD20CD2C5200B95
:03003600FD8F84B7
:0100390022A4
:1023D40002279AE86480F8E933E83360110460F076
:1023E400ED33EC337009E8FCE9FDEAFEEBFF22046F
:1023F40060DED3EB9FEA9EE99DE8C2E78CF0C2F76A
:1024040095F0400CE8CCF8E9CDF9EACEFAEBCFFB35
:1024140012276585D0F05804700320D5B3E8047002
:10242400075002B2D50227A492D5EC0460F7E4CC9D
:10243400C0E0C398F8603B94186008400DD0E0FBFE
:1024440002277CE4FBFAC9FC8028E830E406E4C9EE
:10245400FBE4CAFCE830E305E4C9CACBFCE8540752
:102464006010F8C3E913F9EA13FAEB13FBEC13FC5D
:10247400D8F130F52FC3E49CFCEF9BFFEE9AFEED00
:1024840099FDD0E0FBEF4E4D4C701222DB03022786
:10249400A1EC2CFCEF33FFEE33FEED33FDED30E722
:1024A400EB02277CEF2BFFEE3AFEED39FDD0E0FB8B
:1024B40050130BBB00030227A4ED13FDEE13FEEF34
:0824C40013FFEC13FC02277C5E
:1024CC00EC4D6011E8497017ED33EC3304600DE40A
:1024DC00FCFFFEFD22E933E8330470F802279A1260
:1024EC00276558046009E4CC248150062850090261
:1024FC0027A42840030227A1C0E0EB4A7044B9800E
:10250C0006D0E0FB022790EF4E701CBD8008EBFF5D
:10251C00EAFEE9FD80EBE98DF0A4FEE5F00225B5BD
:10252C00E9CDF9EAFEEBFFEF89F0A4FCE5F0CE89EA
:10253C00F0A42EFFE435F0CD89F0A42DFEE435F0A7
:10254C008067EF4E7005BD80D780C3EF8BF0A4ACD5
:10255C00F0EE8BF0A42CFCE435F0F8EF8AF0A42C10
:10256C00E5F038FCE433CB8DF0A42CFCE5F03BF823
:10257C00EE8AF0A42CFCE5F038F8E433CF89F0A413
:10258C002CFCE5F038CF3400CE89F0A42FFFE5F019
:10259C003EFEE433C98DF0A42EFEE5F039CD8AF071
:1025AC00A42FFFE5F03EFEE43DFD33D0E0FB5007E9
:1025BC000BBB000F0227A4EC2CFCEF33FFEE33FE19
:0625CC00ED33FD02277C47
:1025D2000227A4EC5D046005E85904700302279AFF
:1025E200122765580460F6EC4860F2EC7004FDFEB8
:1025F200FF22C860DB2481C85009C39860025006DC
:102602000227A19850CAF582E9294B4A7005AB828C
:1026120002279075F0007C1A7880C3EF9BEE9AED4A
:1026220099400DC3EF9BFFEE9AFEED99FDE842F053
:10263200DC23ACF0D0E0FFD0E0FED0E0FDAB8220A6
:10264200E7101BEB60BAEC2CFCEF33FFEE33FEED30
:1026520033FD02277CE803F830E705C0F075F0008F
:10266200EF2FFFEE33FEED33FD40B830E7C280AA14
:1026720074F8CC6480CCC86480C8F582046043C31B
:10268200EB9FF5F0EA9E42F0E99D42F0E89C45F0AE
:1026920060305018E5825FFFE582F42B5582FB50D3
:1026A200210ABA001D09B90019088016E5825BFBF0
:1026B200E582F42F5582FF50090EBE00050DBD00C4
:1026C200010CC3EB9FF5F0EA9E42F0E99D42F0E86F
:0D26D2009C45F06007CC4820E701B3EC22E6
:1026DF00ED33EC33600A047003BD8004ECB2E7FC09
:0126EF0022C8
:1026F00075F020800E75F010800575F0087D007E65
:10270000007F003392D530D503122DB1EC33401049
:10271000EF33FFEE33FEED33FDEC33FCD5F0ED226D
:0E272000E5F0247EA2D513CC92E7CDCEFF22A9
:10272E00EDD2E7CD33EC3392D524814006E4FFFEA3
:10273E00FDFC22FCE4CFCECDCC24E0501174FF8002
:10274E00EDC3CC13CCCD13CDCE13CECF13CF04709F
:07275E00F030D5DE022DB1C1
:10607F00E560244CF8E60560227849300902784C37
:10608F00E475F001122F49022A472002EB7F2ED22E
:10609F00028018EF540F2490D43440D4FF30060BF5
:1060AF00EF24BFB41A0050032461FFE561600215AD
:1060BF00610564E5647002056330090D7849E47584
:1060CF00F001122F49EF022AC002A4F77403D2097C
:1060DF008003E4C209F5608B498A4A894BE4F56174
:1060EF00F563F564E56160077F201260BA80F5758E
:1060FF0062FFC203C202C204C205C207C208C20ABB
:10610F00126088FF700D3009057F001260CBAF64FD
:10611F00AE6322B4255FC2D5C206126088FF24D0B9
:10612F00B40A00501A75F00A786130D50508B6FF29
:10613F000106C6A426F620D5047002D20580D92404
:10614F00CFB41A00EF5004C2E5D2060263B8D203EF
:10615F0080C6D20280C0D20480BCD2D580BAD2070A
:10616F0080B47F201260BA2004077401B56100402B
:10617F00F112607FFF1260BA0260F3D20AD2088078
:10618F009512607FFB12607FFA12607FF94A4B70A5
:10619F000679AF7A647BFF20042EE561602A7E00CA
:1061AF008E82758300122A6060060EEE656270F0B3
:1061BF00C2D5EBC0E0EAC0E0E9C0E0EE126418D04F
:1061CF00E0F9D0E0FAD0E0FB122A47FF60AAEBC05B
:1061DF00E0EAC0E0E9C0E01260BAD0E02401F9D0F3
:1061EF00E03400FAD0E0FBE5620460DCD562D980D0
:1061FF0087D20480A21263FB60F7E562700104127C
:10620F0027AFA962600DE562600914F5621264A2FE
:10621F00EF60F3EA30E702F404C3995077EAF4250C
:10622F00620430E701E404F562800D1263FB60C184
:10623F00EA056225621227AFEA785FF630E701E4DC
:10624F00256204D5620420070114126418E4C0E02B
:10625F001264A2785FE6601320E70714F61260A2BB
:10626F00802204F6D0E014C0E07F001260A2E56245
:10627F0060071260991562800B300703126099D086
:10628F00E00260F3D0E00480C51263FB60A0E5621A
:10629F00041227AF785FEAF6E56220070260010477
:0562AF00240412641834
:1062B40074FF04C0E01264A21260A2E56220070227
:1062C4006003126099D0E0B562E87F451260AC7853
:1062D4005FE67F2B30E7047F2DF404C0E01260BA40
:1062E400D0E075F00A84C0F01260A3D0E01260A37D
:1062F4000260F3791080027908C208C20A8008D2C9
:10630400D5790A8004790AC2D5E562047002F5627F
:10631400E4FAFDFEFF12607FFC7B08200313126089
:106324007FFD7B1030020A12607FFE12607FFF7BCC
:1063340020EC3382D592D55013C3E43002069FFF7C
:10634400E49EFEE42003039DFDE49CFCE4CBF8C240
:1063540003EC700CCFCECDCCE824F8F870F38017A2
:10636400C3EF33FFEE33FEED33FDEC33FCEB33FBD5
:10637400994002FB0FD8E9EB300305F8D0E0C4489C
:10638400B203C0E00AEC4D4E4F78207B0070C2EAA5
:10639400B5620040BCC0E012641AD0F0D0E0200323
:1063A40004C4C0E0C4B203C0F01260A3D0F0D5F0BE
:1063B400EB0260F3122FF461905362F75861614C61
:1063C400615D4262FB4F6303446303496176436347
:1063D4000955623A4662984562044764CF50616544
:1063E4002D61692E618C2B616D23618A2064B82A2A
:1063F40061254800006184E562B4FF0375620612FA
:10640400607FFC12607FFD12607FFE12607FFF7868
:10641400580227DE790AA2D5200514300709B910DD
:10642400020404B9080104A2D52008025001042082
:1064340004689204B561005034C0E07F203005192F
:106444007F30A20472087207500F126471C204C232
:1064540008C207C20A7F30800F300703E9C0E01288
:1064640060BA300703D0E0F9D0E0B561CC3007174B
:106474007F30B9100C1260BA7F583006077F7880DD
:1064840003B908031260BA3004057F2D0260BA7F95
:1064940020200AF87F2B2008F322920480CF7F006B
:1064A400B4070050052458F8E6FF22286E756C6C7A
:1064B4002900D20312607F3003F8C203786130D51B
:1064C4000108F60261252D5043495812607F2403C8
:1064D400B405004001E49064CA931260AB743A12AC
:0A64E40060ABD2057561040262F797
:10276500E9D2E7C933E833F892D5EDD2E7CD33ECBA
:0727750033FC5002B2D52233
:10277C00EC30E7100FBF000C0EBE00080DBD0004BE
:10278C000BEB6014A2D5EB13FCED92E7FD2274FF6A
:10279C00FCFDFEFF22E480F8A2D574FF13FC7D80C3
:0327AC00E480EFD7
:1027AF00F920E72824F950037907E4F42402FB18F1
:1027BF00DBFDE624FB5014E9600DE4F618E604F6A1
:0F27CF00B40A08E4F6D9F57401F60A22C2D5223D
:1027DE00ED33EC3392D5FA602AB4FF33EDC2E77BCA
:1027EE00FF60067A287903E4227A28790C20D50432
:1027FE007A287907224E614E002B494E46002D490C
:10280E004E4600E47A08F608DAFC7B00740722E8EC
:10281E00C0E0ECC0E0EDC0E0EEC0E0EFC0E0EA7575
:10282E00F010A4CAABF075F04DA42BFBE435F0FC10
:10283E00EA2410FAEB34C5FBEC34D9FCEDC2E7FF09
:10284E0075F056A4F42411C5F0F434C58FF0A42A03
:10285E00E5F03BE43CF620E714122911D0E0FFD05E
:10286E00E0FED0E0FDD0E0FC1225D58014F4041279
:10287E002911D0E0FFD0E0FED0E0FDD0E0FC122424
:10288E00CCD0E0F8E6FAEDD2E7CD33EC332482FB80
:10289E00E4C3CF33CFCE33CECD33CD33DBF37B0793
:1028AE0075F00A846004F6081B0AE5F0F6088FF04E
:1028BE00740AA4FFACF08EF0740AA42CFEACF05097
:1028CE00010C8DF0740AA42CFDE435F0F608DBDE65
:0328DE007407225A
:1028E1003F8000004120000042C80000447A0000FF
:1028F100461C400047C35000497424004B18968081
:102901004CBEBC205A0E1BCA6753C21C749DC5AE77
:10291100FB60065407601C232312293FEB543860E7
:102921000912292B12293A1224CCECF8EDF9EEFA0E
:10293100EFCB22EB12293A80F1543803241C902862
:10294100E1FE93FC0EEE93FD0EEE930ECE93FF226D
:03000000029CBCA3
:0C9CBC00787FE4F6D8FD758175029D03E9
:10295100E709F608DFFA8046E709F208DFFA803E68
:1029610088828C83E709F0A3DFFA8032E309F60855
:10297100DFFA8078E309F208DFFA807088828C83BD
:10298100E309F0A3DFFA806489828A83E0A3F60871
:10299100DFFA805889828A83E0A3F208DFFA804C4B
:1029A10080D280FA80C680D4806980F28033801022
:1029B10080A680EA809A80A880DA80E280CA80338B
:1029C10089828A83ECFAE493A3C8C582C8CCC58303
:1029D100CCF0A3C8C582C8CCC583CCDFE9DEE780D3
:1029E1000D89828A83E493A3F608DFF9ECFAA9F052
:1029F100EDFB2289828A83ECFAE0A3C8C582C8CCA8
:102A0100C583CCF0A3C8C582C8CCC583CCDFEADEC0
:102A1100E880DB89828A83E493A3F208DFF980CC22
:102A210088F0EF60010E4E60C388F0ED2402B4041B
:102A31000050B9F582EB2402B4040050AF232345C2
:062A410082239029A1731D
:102A4700BB010689828A83E0225002E722BBFE028D
:092A5700E32289828A83E49322C0
:102A6000BB010CE58229F582E5833AF583E022502B
:102A700006E92582F8E622BBFE06E92582F8E22275
:0D2A8000E58229F582E5833AF583E493228F
:102A8D00BB010FF8E58229F582E5833AF583E0284D
:102A9D00F0225009C58229F8E58226F622BBFE09EF
:102AAD00C58229F8E22582F222F8EA2583F583E929
:032ABD0093282239
:102AC000BB010689828A83F0225002F722BBFE01F5
:022AD000F322EF
:102AD200F8BB010DE58229F582E5833AF583E8F03A
:102AE200225006E92582C8F622BBFE05E92582C8E6
:022AF200F222CE
:102AF400EF8DF0A4A8F0CF8CF0A428CE8DF0A42EF6
:022B0400FE22AF
:102B0600BC000BBE0029EF8DF084FFADF022E4CCB3
:102B1600F875F008EF2FFFEE33FEEC33FCEE9DEC7C
:102B2600984005FCEE9DFE0FD5F0E9E4CEFD22EDC2
:102B3600F8F5F0EE8420D21CFEADF075F008EF2F0C
:102B4600FFED33FD4007985006D5F0F222C398FDFD
:052B56000FD5F0EA229A
:102B5B00C2D5EC30E709B2D5E4C39DFDE49CFCEE95
:102B6B0030E715B2D5E4C39FFFE49EFE122B06C3DC
:102B7B00E49DFDE49CFC8003122B0630D507C3E4D7
:062B8B009FFFE49EFE2204
:102B9100C5F0F8A3E028F0C5F0F8E58215827002CF
:062BA1001583E038F0226C
:102BA700A3F8E0C5F025F0F0E582158270021583E1
:062BB700E0C838F0E8223E
:102BBD00BB010A89828A83E0F5F0A3E022500687E3
:102BCD00F009E71922BBFE07E3F5F009E3192289A5
:0B2BDD00828A83E493F5F074019322D8
:102BE800BB0110E58229F582E5833AF583E0F5F02B
:102BF800A3E0225009E92582F886F008E622BBFE08
:102C08000AE92582F8E2F5F008E222E5832AF5834D
:082C1800E993F5F0A3E9932212
:102C2000BB010A89828A83F0E5F0A3F0225006F7FF
:0F2C300009A7F01922BBFE06F3E5F009F31922FC
:102C3F00F8BB0111E58229F582E5833AF583E8F0C7
:102C4F00E5F0A3F0225009E92582C8F608A6F02284
:0D2C5F00BBFE09E92582C8F2E5F008F2226B
:0D2C6C00EF2BFFEE3AFEED39FDEC38FC22B7
:0E2C7900C3EF9BFFEE9AFEED99FDEC98FC2256
:102C8700E88FF0A4CC8BF0A42CFCE98EF0A42CFCEC
:102C97008AF0EDA42CFCEA8EF0A4CDA8F08BF0A46A
:102CA7002DCC3825F0FDE98FF0A42CCD35F0FCEBC9
:102CB7008EF0A4FEA9F0EB8FF0A4CFC5F02ECD398E
:0F2CC700FEE43CFCEAA42DCE35F0FDE43CFC22FB
:102CD60075F008758200EF2FFFEE33FECD33CDCCB5
:102CE60033CCC58233C5829BED9AEC99E582984038
:102CF6000CF582EE9BFEED9AFDEC99FC0FD5F0D615
:102D0600E4CEFBE4CDFAE4CCF9A88222B800C1B93E
:102D16000059BA002DEC8BF084CFCECDFCE5F0CB7C
:102D2600F97818EF2FFFEE33FEED33FDEC33FCEBB5
:102D360033FB10D703994004EB99FB0FD8E5E4F970
:102D4600FA227818EF2FFFEE33FEED33FDEC33FC5D
:102D5600C933C910D7059BE99A4007EC9BFCE99A51
:102D6600F90FD8E0E4C9FAE4CCFB2275F010EF2F96
:102D7600FFEE33FEED33FDCC33CCC833C810D70796
:102D86009BEC9AE899400AED9BFDEC9AFCE899F8D1
:0E2D96000FD5F0DAE4CDFBE4CCFAE4C8F92264
:10A39C00C2D5E830E70FB2D5E4C39BFBE49AFAE4EC
:10A3AC0099F9E498F8EC30E717B2D512A3D2122D34
:10A3BC0012E4C39BFBE49AFAE499F9E498F880035D
:10A3CC00122D1230D50DE4C39FFFE49EFEE49DFDDB
:04A3DC00E49CFC22DF
:0D2DA400EF4BFFEE4AFEED49FDEC48FC222E
:0E2DB100C3E49FFFE49EFEE49DFDE49CFC2233
:102DBF00EB9FF5F0EA9E42F0E99D42F0EC6480C88B
:062DCF0064809845F0222B
:102DD500EB9FF5F0EA9E42F0E99D42F0E89C45F054
:012DE50022CB
:102DE600E8600FECC313FCED13FDEE13FEEF13FFCB
:032DF600D8F122EF
:102DF900E8600FEFC333FFEE33FEED33FDEC33FC38
:032E0900D8F122DB
:102E0C00BB010789828A83022E9A5005E9F80230A9
:102E1C004DBBFE05E9F802305989828A8302306580
:102E2C00BB010DE58229F582E5833AF583022E9AE2
:102E3C005007E92582F802304DBBFE07E92582F8E0
:102E4C00023059E58229F582E5833AF58302306533
:102E5C00BB010789828A83022EC25005E9F8023031
:0A2E6C0075BBFE05E9F80230812273
:102E7600BB010DE58229F582E5833AF583022EC270
:102E86005007E92582F8023075BBFE07E92582F86E
:042E96000230812263
:0C2E9A00E0FCA3E0FDA3E0FEA3E0FF22AB
:0C2EA600E0F8A3E0F9A3E0FAA3E0FB22AF
:102EB200E493F8740193F9740293FA740393FB2276
:0C2EC200ECF0A3EDF0A3EEF0A3EFF02283
:102ECE00A8828583F0D083D082122EE5122EE512D1
:102EDE002EE5122EE5E473E493A3C583C5F0C583F6
:102EEE00C8C582C8F0A3C583C5F0C583C8C582C84E
:012EFE0022B1
:102EFF00BB010789828A83022ECE5005E9F8023082
:0A2F0F008DBBFE05E9F80230A62292
:102F1900BB010DE58229F582E5833AF583022ECEC0
:102F29005007E92582F802308DBBFE07E92582F8B2
:042F39000230A6229A
:0C2F3D00A42582F582E5F03583F583229F
:102F4900FAE6FB0808E6F925F0F618E6CA3AF62289
:092F5900E0FBA3E0FAA3E0F92279
:092F6200EBF0A3EAF0A3E9F02270
:102F6B00BB010DE58229F582E5833AF583022F59E2
:102F7B005007E92582F80230BFBBFE07E92582F82E
:102F8B000230D1E58229F582E5833AF5830230E3FD
:102F9B00BB0120E58229F582E5833AF583D0F0D099
:102FAB00E0F8D0E0F9D0E0FAD0E0FBE8C0E0C0F008
:102FBB00022F625018E92582F8D083D082D0E0F935
:102FCB00D0E0FAD0E0FBC082C0830230C8BBFE1851
:102FDB00E92582F8D083D082D0E0F9D0E0FAD0E0B6
:092FEB00FBC082C0830230DA222F
:102FF400D083D082F8E4937012740193700DA3A36C
:1030040093F8740193F5828883E47374029368607F
:06301400EFA3A3A380DF7F
:10301A00D083D082F8E4937012740193700DA3A345
:10302A0093F8740193F5828883E473740293B5F07C
:0D303A00067403936860E9A3A3A3A380D8E4
:063047008A838982E47314
:10A4F700EFB40A07740D12A502740A309811A899CF
:10A50700B8130CC2983098FDA899C298B811F630C4
:07A5170099FDC299F599229C
:0FA54800EFC394204007EF947F50028001C3229D
:10000E00E4FFFE122A47600C0FEF70010E09E97033
:05001E00F20A80EF2250
:109CC8000230EFE493A3F8E493A34003F68001F293
:109CD80008DFF48029E493A3F85407240CC8C3339D
:109CE800C4540F4420C8834004F456800146F6DF6C
:109CF800E4800B010204081020408090989EE47EC6
:109D0800019360BCA3FF543F30E509541FFEE49360
:109D1800A360010ECF54C025E060A840B8E493A327
:109D2800FAE493A3F8E493A3C8C582C8CAC583CA52
:109D3800F0A3C8C582C8CAC583CADFE9DEE780BE0A
:01996A0000FC
:0C304D00E6FC08E6FD08E6FE08E6FF22AF
:0C305900E2FC08E2FD08E2FE08E2FF22B3
:10306500E493FC740193FD740293FE740393FF22B1
:0C307500ECF608EDF608EEF608EFF62287
:0C308100ECF208EDF208EEF208EFF2228B
:10308D00D083D082E493F608740193F6087402930A
:09309D00F608740393F674047341
:1030A600D083D082E493F208740193F208740293F9
:0930B600F208740393F274047330
:0930BF00E6FB08E6FA08E6F92236
:0930C800EBF608EAF608E9F6222D
:0930D100E2FB08E2FA08E2F92230
:0930DA00EBF208EAF208E9F22227
:0C30E300E493FB740193FA740293F92249
:00000001FF
