:10FFD000436F70797269676874203230313220540F
:10FFE0007261636B2053797374656D73205465631C
:0EFFF000686E6F6C6F676965732C204C4C4314
:10F19300FF7F3F1F0F07030100FEFCF8F0E0C08074
:08F1A300FFFEFCF8F0E0C08063
:10E0830085842775840F75E16FE4F5E275E3C47544
:10E09300A4157580EA75ADFF75A50D759002F5A6FB
:10E0A30075A0FFF5A775B0FF759FFF75F88EF59EF8
:10E0B30075E8FFF59D75D8FF759CE075C8F9F58483
:10E0C30075D98075D84075DA4275DB427B017A15C4
:10E0D300793D12E8209015AAE0D394745006E0C36A
:10E0E300944C50069015AA7460F09015AAE0F5FBC5
:10E0F300E0F5FCE4F58475E8C075D107F5BAF5BB26
:06E1030075BC7085278445
:01E1090022F3
:08D4AB0085842775840FC2CCB3
:10D4B30090184F1249D0000001C2E4FFFEFDFC901A
:10D4C300184F1249A8D3124915401790184F124903
:10D4D3008C74FFFBFAF9F81247CF90184F1249C426
:02D4E30080D8EF
:02D4E500D2CCA7
:10D4E7009018531249D0000001C2E4FFFEFDFC90E2
:10D4F70018531249A8D312491540179018531249C7
:10D507008C74FFFBFAF9F81247CF9018531249C4ED
:02D5170080D8BA
:10D519007DE212DE487B017DE27F0112DE4CE4FBF5
:10D529007DA97F0112DE4C7B017DA97F0112DE4CB2
:10D53900E4FB7DA07F0112DE4C7B017DA07F0112FF
:10D54900DE4CE4FB7DC07F0112DE4C7B017DC07F98
:10D559000112DE4C12DE467B017DAF7F0112DE4CEB
:03D569008527848F
:01D56C00229C
:06DE46007DAFE4FB7F014B
:06DE4C008F778D788B79C1
:10DE5200E4F57AF57B85847C75840FAD797F0112B8
:10DE6200EBDB057BE57B7002057AEF30E70DC3E55E
:10DE72007B9432E57A6480948040E0C2CBE577B44B
:10DE82000104C2C88002D2C8E5796004D2CA800205
:10DE9200D2C98578E8E5796005439C048003439CF8
:10DEA20002E5796005539CFB8003539CFD7F0105CD
:10DEB2007BE57B7002057ADFF6E5796004C2CA80F1
:10DEC20002C2C9D2C8D2CB439C01439C08539CFED8
:09DED200539CF775E8FF857C8480
:01DEDB002224
:10EBDB00AE8475840FBF0104C2C88002D2C8ED6039
:10EBEB000AD2CA439C04539CFB8008D2C9439C02A3
:10EBFB00539CFD7C030FDCFDACE8ED6004C2CA80C6
:0FEC0B0002C2C9D2C8439C01539CFE8E84AF0441
:01EC1A0022D7
:08D864008B528A5389548D5543
:10D86C00E4F556E4F557F558F559E55624B8FD128C
:10D87C00DE48E4FBFD7F0112DE4CE55624B8FD7B4F
:10D88C00017F0112DE4C7B01E4FD7F0112DE4CE4D2
:10D89C00F557F558E558643D45577003755901E542
:10D8AC0055B47E1FE55675F07AA4AB522554F9E5B4
:10D8BC005335F0FAE92558F9EA3557FA124572F45E
:10D8CC00FD801CE55675F07AA4AB522554F9E5534E
:10D8DC0035F0FAE92558F9EA3557FA124572FDABDD
:10D8EC00597FFF12DE4C0558E55870020557C3945A
:10D8FC007AE5579400409D0556E556C394045003B1
:0FD90C0002D86F12DE467B017DAF7F0102DE4C39
:0C98F1008E5B8F5C8C5D8D5E8A5F8B60EF
:1098FD00AE5DAF5E7C007D081246868F6FE55E25FE
:10990D0062CFE55D3561CF24FFCF34FFFE7C007D56
:10991D0008124686C3EF9403EE6480948050028053
:10992D00027F038F70AE5DAF5E7C007D08124686B0
:10993D00901F28EDF0855B6B855C6CC3E56C943DE9
:10994D00E56B6480948050047F0080027F018F71ED
:10995D00E55C2560CFE55B355FCF24FFCF34FFFE9F
:10996D00C3EF9479EE64809480500280047E007F72
:10997D00798E6D8F6EE571B4011874C3256CF56C1D
:10998D0074FF356BF56B74C3256EF56E74FF356D15
:10999D00F56D856F67E567D395704003029BA985CB
:1099AD00716AC3E56F9567FF901F28E02F1313139E
:1099BD00541FF572E571701FE56724B8FD12DE487E
:1099CD00AD6C12DE48E56724B8FD7B017F0112DE28
:1099DD004C7B01E4FD8010E56724B8FD7B017F0120
:1099ED0012DE4CAD6C7B017F0112DE4C856B688500
:1099FD006C69D3E569956EE568956D4003029BA48E
:109A0D00E569643D45687003756A01E567B56F05E5
:109A1D00E4F5748055C3E567956FFFE49400CF249A
:109A2D00FFCF34FFFEAC5FAD6012461FAB63E56543
:109A3D002FF9E5643EFAC3E569956CFFE568956B12
:109A4D00FEE92FF9EA3EFA124572F573901F28E0F0
:109A5D00FF90F19393F45573FEC374089FFFEEA826
:109A6D0007088002C313D8FCF574E567B57029AEFD
:109A7D0061AF627C007D08124686C374089DFFE4C9
:109A8D009CFE901F28E05407D39FEE6480F87480ED
:109A9D00984005E4F5758048C3E567956FFFE4943C
:109AAD0000FEAC5FAD6012461FAB63E5652FF9E5B7
:109ABD00643EFAC3E569956CFFE568956BFEE92F89
:109ACD00F9EA3EFA124572F573901F28E0FF90F106
:109ADD0093935573FEA807088002C333D8FCF57520
:109AED00E5744575F573AB6A7DE07F0112DE4CAD13
:109AFD006A7FFF12EBDB8F76AD6A7FFF12EBDB8F98
:109B0D0076E56624A2601824E2600E24FE60162419
:109B1D00587015E5765273800FE57642738009E52E
:109B2D0076627380036373FFE4901F27F0E56FB5D2
:109B3D00670BA3E090F1A393F4901F27F0E570B5A8
:109B4D006729901F27E0FBE55E2562FFE55D356126
:109B5D00FE7C007D08124686749B2DF58274F13CC7
:109B6D00F583E493FFEB4F901F27F0901F27E0FF45
:109B7D00F45573FEE5765F4EF573AB6A7DEE7F01AE
:0C9B8D0012DE4CAB6AAD737FFF12DE4CA1
:109B99000569E569700205680299FF05670299A2DE
:019BA9002299
:02E18D008F55AC
:10E18F00E4FB7DAE7F0112DE4C7B017DAE7F011281
:10E19F00DE4CE4F556E4F557F558F559E55624B835
:10E1AF00FD12DE48E4FBFD7F0112DE4CE55624B87C
:10E1BF00FD7B017F0112DE4C7B01E4FD7F0112DE4E
:10E1CF004CE4F557F558E558643D455770037559BC
:10E1DF0001AB59AD557FFF12DE4C0558E558700263
:10E1EF000557C3947AE557940040DB0556E556C3AF
:10E1FF00940440A112DE467B017DAF7F0102DE4C0D
:08CE9C008F3E8B3F8A40894163
:10CEA400E5426028900000E0F53E04F05403F0E011
:10CEB40075F008A424C0FD12DE48900000E075F06F
:10CEC40008A424C0FD7B017F0112DE4CE4F544F587
:10CED40045C3E5459475E54464809480400302CFDE
:10CEE40081AB3FAA40A941124572FFC3648094A05C
:10CEF4004041D3EF648094FE5039E53E75F008A4B8
:10CF0400FDACF0C004C005124572FF3395E0FE7C11
:10CF1400007D0512461F743D2FF974213E7563FF91
:10CF2400F5648965756100756208854366D005D02E
:10CF340004801BE53E75F008A4FDACF07561007536
:10CF440062087563FF7564217565DD8543667B053D
:10CF54007A00AF45AE441298F1AB3FAA40A9411202
:10CF64004572600B74012541F541E43540F5407488
:0DCF7400062545F545E43544F54402CED5CB
:01CF8100228D
:08D3E2008F558B578A588959B9
:10D3EA00AF05901F25E4F0A3EFF0C3901F26E09449
:10D3FA0075901F25E064809480400302D4AAAB573D
:10D40A00AA58A959124572FF700302D4AAC3EF643D
:10D41A008094A04049D3EF648094FE5041E555754D
:10D42A00F008A4FDACF0C004C005124572FF3395A4
:10D43A00E0FE7C007D0512461F743D2FF974213EE3
:10D44A007563FFF5648965901F25E0FEA3E0FF750B
:10D45A006100756208855A66D005D0048023E555B7
:10D46A0075F008A4FDACF0901F25E0FEA3E0FF755F
:10D47A0061007562087563FF7564217565DD855AFB
:10D48A00667B057A001298F174012559F559E4353D
:10D49A0058F558901F25E475F0061246BC02D3F4DD
:01D4AA00225F
:08D068008F528B538A54895545
:10D07000E556602A900000E05402F0F55224025474
:10D0800003F075F008A424C0FD12DE48900000E013
:10D0900075F008A424C0FD7B017F0112DE4CE4F58D
:10D0A00058F559C3E5599471E5586480948040035C
:10D0B00002D14BAB53AA54A955124572FFC36480E9
:10D0C00094A0403DD3EF648094FE5035E55275F056
:10D0D00008A4FDACF0756100756210124572FF3353
:10D0E00095E0FEEFC4F8540FC868FFEEC454F04852
:10D0F000FE74B82FF974213E7563FFF5648965806D
:10D1000018E55275F008A4FDACF075610075621069
:10D110007563FF7564237565B88557667B087A006B
:10D12000AF59AE581298F1AB53AA54A95512457293
:10D13000600B74012555F555E43554F554740A25F2
:0BD1400059F559E43558F55802D0A30A
:01D14B0022C1
:08D7AB008F4F8B518A52895304
:10D7B300AF057555008F56C3E5569471E5556480E2
:10D7C3009480400302D863AB51AA52A95312457205
:10D7D300FF700302D863C3EF648094A04043D3EF88
:10D7E300648094FE503BE54F75F008A4FDACF075E2
:10D7F3006100756210AB51AA52A953124572FF33EF
:10D8030095E0FEEFC4F8540FC868FFEEC454F04827
:10D81300FE74B82FF974213E7563FFF56489658042
:10D8230018E54F75F008A4FDACF075610075621042
:10D833007563FF7564237565B88554667B087A0044
:10D84300AF56AE551298F174012553F553E4355292
:10D85300F552740A2556F556E43555F55502D7BAEF
:01D8630022A2
:08DD14008F528B548A55895689
:10DD1C00AF057558008F59C3E5599474E558648064
:10DD2C009480507CAB54AA55A956124572FF607072
:10DD3C00C3EF648094B0402DD3EF648094B9502528
:10DD4C00EF3395E0FE7C007D0C12461F74A82FF972
:10DD5C0074273E7563FFF5648965E552FD756100B6
:10DD6C0075620A8014E552FD7C0075610075620ACB
:10DD7C007563FF75642A75656C8557667B067A003A
:10DD8C00AF59AE581298F174012556F556E4355535
:10DD9C00F55574072559F559E43558F55802DD2326
:01DDAC002254
:10F1FE00E4FB7DC07F0112DE4C7B017DC07F0102EE
:02F20E00DE4CD4
:10F13E008B4C8A4D894E7BFF7A1F79F57D2D12D827
:10F14E0064AB4CAA4DA94E75542D7D077F0102D795
:01F15E00AB05
:1000A60053656C65637420447269766572005365A6
:1000B6006C65637420547261636B0053656C656391
:1000C600742056656869636C650053657373696F60
:1000D6006E730056696577204C61707300457261D6
:1000E600736520446174610053657373696F6E2094
:1000F60044657461696C00313020487A00323020E2
:10010600487A00343020487A0053656C6563742061
:1001160052617465005553205374616E6461726454
:10012600004D65747269630053656C656374205590
:100136006E697473004C617074696D6520486F6CEC
:1001460064004772617068205363616C6500547285
:1001560061636B204C656E677468004C6170205358
:10016600657474696E6773002D302E3520746F20A8
:10017600302E3573002D3120746F202B3173002DF6
:100186003220746F202B3273002D3520746F202B94
:100196003573002D313020746F202B3130730053AE
:1001A600686F7274203C31206D692C312E366B6D70
:1001B600004D656420312D356D692C312E362D3874
:1001C6006B6D004C6F6E6720352B206D692C382BBC
:1001D600206B6D0044697361626C656400456E61F5
:1001E600626C6564004175746F4F6E2028535532FA
:1001F60029004D61696E204D656E75004C61707306
:10020600005175616C696679696E6700447269763A
:100216006500546163680047617567657300436FE5
:100226006D7061737300496E737472756D656E746B
:100236007300475053204C6F636174696F6E0053AF
:10024600746172742053637265656E0044726976D8
:1002560065720056656869636C6500547261636B0C
:100266000053616D706C696E67205261746500455C
:10027600726173652053657373696F6E73005061A5
:10028600636B2053657373696F6E7300474D54201B
:100296004F666673657400436F6E747261737400A3
:1002A600556E697473004C61702F5175616C2053E3
:1002B600657474696E677300466163746F72792042
:1002C60044656661756C7473004175746F4F6E009A
:1002D60053657474696E6773004175746F63726FEA
:1002E6007373202F2052616C6C7900312F38204DAA
:1002F600696C6520436172205465737400312F3434
:10030600204D696C65005461636820262053706532
:1003160065646F00472D466F7263657300536567AA
:100326006D656E742054696D696E6700477320268B
:10033600204C6F636174696F6E00496E70757473DB
:100346000044617461204D6F64650047505320433B
:100356006F6D7061737300436865636B20496E70DF
:10036600757473004F74686572204D6F6465730011
:100376005265636F726420446174610056696577E3
:100386002053657373696F6E73004368616E6765AA
:100396002053657474696E67730043757272656E77
:1003A6007420537461747573004F746865722046C7
:1003B6006561747572657300594553004E4F002090
:1003C60041726520596F7520537572653F00204351
:1003D6006C722053746172742F46696E3F005357D6
:1003E600204D49534D41544348002052656C6F617E
:1003F6006420535700445249564520534146454CC4
:100406005900202044552073772025642E2530324C
:100416006420646174612025640020205355207394
:10042600772025642E25303264206461746120258E
:1004360064002A205355204E4F5420434F4E4E45BC
:1004460043544544202A005468697320756E6974C4
:100456002062656C6F6E677320746F004C6F616409
:10046600696E670053746F72696E670043616E63ED
:10047600656C696E6700030100FF43757272656EF5
:1004860074205374617475730007FF00D9FFC6CAE0
:1004960004FF00E3FFEC5606FF00EEFF8FD90000D5
:1004A600000000000002FF00FDFFF01902FF01033B
:1004B600FFF01902FF0109FFF0190000000000001B
:1004C6000002FF011BFFEFF102FF0127FFEFF10022
:1004D60000000000000007FF013BFFECFD06FF01E6
:1004E60048FFE91406FF0154FFEE78000000000003
:1004F600000002FF016EFFEF9F02FF017BFFEF9FEF
:1005060002FF0185FFEF9F02FF018FFFEF9F02FFB2
:100516000199FFEF9F0000000000000002FF01A507
:10052600FFF06702FF01B7FFF06702FF01C9FFF0A6
:10053600670000000000000002FF01DAFFE37E0210
:10054600FF01E3FFE37E0000000000000002FF0160
:10055600F8FFEFC802FF0202FFEFC802FF0207FF23
:10056600EFC802FF0212FFEFC802FF0218FFEFC832
:1005760002FF021DFFEFC802FF0224FFEFC802FFC1
:10058600022CFFEFC802FF0238FFEFC80000000090
:1005960000000006FF0252FFD22E06FF0259FFCDD1
:1005A600B306FF0261FFCBD006FF0267FFE6010438
:1005B600FF0275FFED9606FF0284FFF17A07FF0240
:1005C60092FFECC707FF029DFFEB9906FF02A6FF0D
:1005D600F08C01FF02AC0103E804FF02BEFFEF76D8
:1005E60006FF02CFFFF0D406FF0245FFEEA3000090
:1005F600000000000007FF0202FF58A707FF0207DE
:10060600FF58A707FF02DFFF58A707FF02F1FF58B1
:10061600A707FF0303FF58A707FF0212FF58A70704
:10062600FF030CFF58A707FF021DFF58A707FF038C
:100636001AFF58A707FF0323FF58A707FF0332FF38
:1006460058A707FF0340FF58A7000000000000005E
:1006560007FF0351FF58A707FF022CFF58A707FF04
:100666000238FF58A707FF035DFF58A700000000E8
:100676000000000F0F0F0FFFFFFFFF0F0F0F0FFF01
:10068600FFFFFFCFCFCFCFCFFFFFFEFC008FCFCF37
:10069600CFCFCFCFCFCFFFFEFEFCFCFEFFFF0F0F6D
:1006A6000F0F0F0F0FFFFFFEF800FFFFFFFF0F0FEB
:1006B6000FFFFFFFFF0F0F0FFFFFFEFC008FCFCFD7
:1006C600CFCFCFCFCFCFFFFEFEFC0F0F0F0FFFFF19
:1006D600FFFF0F0F0F0FFCFEFFFFCFCFCFCFCFCF08
:1006E600FFFFFEFC000000007F7F7FFF0000000090
:1006F6007F7F7F7F03070F1F3F7F7B73613F7F7F76
:100706007B7B7B7B7B7B7B7F7F7F7F1F3F7F7F78B6
:10071600787B7F7F7E7C3F7F7F7F607F7F7F7F00D0
:1007260000007F7F7F7F0000007F7F7F7F3F7F7F8E
:100736007B7B7B7B7B7B7B7F7F7F7F000000007FDB
:100746007F7F7F000000001F3F3F7F7B7B7B7B7BA3
:100756007B7B7B7978FFFFFFFFFFFFFFFFFFFFFF3C
:10076600FFFFFFFFFFFFFFFFFFFFFFFFFFFFFFFF93
:10077600FFFFFFFFFFFFFFFFFFFFFFFFFFFFFFFF83
:10078600FFFFFFFFFFFFFFFFFFFFFFFFFFFFFFFF73
:10079600FFFFFFFFFFFFFFFFFFFFFFFFFFFFFFFF63
:1007A600FFFFFFFFFFFFFFFFFFFFFFFFFFFFFFFF53
:1007B600FFFFFFFFFFFFFFFFFFFFFFFFFFFFFFFF43
:1007C600FFFFFFFFFFFFFFFFFFFFFFFFFFFFFF0032
:1007D6000000000000000000000000000000000013
:1007E6000000000000000000000000000000000003
:1007F60000000000000000000000000000000000F3
:1008060000000000000000000000000000000000E2
:1008160000000000000000000000000000000000D2
:1008260000000000000000000000000000000000C2
:1008360000000000000000000000000000000000B2
:10084600000000000000000000FF000000000000A3
:100856000000000000000000C300000000000000CF
:1008660000000000000000E700000000000000009B
:10087600000000000000C3000000000000000000AF
:10088600000000000055AA00000000000000000063
:100896000000000000C3000000000000000000008F
:1008A60000000000E700000000000000000000005B
:1008B600000000C30000000000000000000000006F
:1008C6000000FF00406070787C7E7C78706040009D
:1008D6000000000000000000000000000000000012
:1008E6000000000000000000000000000000000002
:1008F60000000000000000000000000000000000F2
:1009060000000000000000000000000000000000E1
:1009160000000000000000000000000000000000D1
:1009260000000000000000000000000000000000C1
:1009360000000000000000000000000000000206A9
:100946000E1E3E7E3E1E0E06020000000000000047
:100956000000000000000000000000000000000091
:100966000000000000000000000000000000000081
:100976000000000000000000000000000000000071
:100986000000000000000000000000000000000061
:100996000000000000000000000000000000000051
:1009A6000000000000000000000000000000000041
:1009B6000000000000000000060606060606060601
:1009C600060606000000000000000000000000000F
:1009D6000000000000000000000000000000000011
:1009E6000000000000000000000000000000000001
:1009F60000000000000000000000000000000000F1
:100A060000000000000000000000000000000000E0
:100A160000000000000000000000000000000000D0
:100A260000000000000000000000000000000000C0
:100A36000000606060606060606060606000000090
:100A460000000000000000000000000000000000A0
:100A56000000000000000000000000000000000090
:100A66000000000000000000000000000000000080
:100A76000000000000000000000000000000000070
:100A86000000000000000000000000000000000060
:100A96000000000000000000000000000000000050
:100AA60000000000000000000000000066666666A8
:100AB6006666666666666600000000000000000066
:100AC6000000000000000000000000000000000020
:100AD6000000000000000000000000000000000010
:100AE6000000000000000000000000000000000000
:100AF60000000000000000000000000000000000F0
:100B060000000000000000000000000000000000DF
:100B160000000000000000000000000000000000CF
:100B26000000000000FFFF000081C3E7FF00008116
:100B3600C3E7FFFFFFFFFFFFFFFFFFFFFFFFFFFF13
:100B4600FFFFFFFFFFFFFFFFFFFFFFFFFFFFFFFFAF
:100B5600FFFFFFFFFFFFFFFFFFFFFFFFFFFFFFFF9F
:100B6600FFFFFFFFFFFFFFFFFFFFFFFFFFFFFFFF8F
:100B7600FFFFFFFFFFFFFFFFFFFFFFFFFFFFFFFF7F
:100B8600FFFFFFFFFFFFFFFFFFFFFFFFFFFFFFFF6F
:100B9600FFFFFFFFFFFFFFFFFFFFFFFFFFFFFF2836
:100BA600142814281428142814281428142814285F
:100BB60014280000000000000000000000000000F3
:100BC600000000000000000000000000000000001F
:100BD600000000000000000000000000000000000F
:100BE60000000000000000000000000000000000FF
:100BF60000000000000000000000000000000000EF
:100C060000000000000028142814281428142814B2
:100C16002814281428142814283E7F6363637F7ED3
:100C260060607E7F6363637F3E3C19436343193C88
:100C360060603C19436343193C3E7F7F7F7F7F7E24
:100C460060607E7F7F7F7F7F3E00000000000000A7
:100C56000000000000008080808080C06030180C9A
:100C660018B0E04000000000000000000000000096
:100C760000000000000000000000000080C0C080EE
:100C8600000080C0C0C0C0800080C0C0C0C080005E
:100C9600C0C00000C0C000C0C0C0C000C0C0C0C04E
:100CA600C08000C0C0C0C000C0C08000C0C00080FE
:100CB600C0C0C0C0C000000000000000000000006E
:100CC60000000000000000000000000080FCFE574D
:100CD600AB55AB55AB55ABFEFC060341404080809F
:100CE600808080000000000000000000000000007E
:100CF6000000000000FFFF1919FFFF007FFFC0C0C2
:100D0600E161007FFFC0F0FFFF007FFFC0C0FF7FF3
:100D160000C0FFFFC000FFFF3C7CEFC700C0FFFF25
:100D2600C000FFFF0F7CFFFF007FFFC0CCFC7C00F4
:100D360000000000000000000000000000000000AD
:100D46000000081C3663C160311B0E070607060744
:100D56002321204040444444888888880811111182
:100D660011212222424444000000000000F0F8183D
:100D760098B8B000F8F89898F8F000F0F89898B895
:100D8600300000000000F0F89898B8300018F8F825
:100D96001800F0F81898B8B000F8F8F080F8F800E5
:100DA600E0F03838F0E000F8F8000000000000003D
:100DB600000000000000000000000000000000002D
:100DC600000000000000000000000000000000001D
:100DD60000000000000001010101010202020404FA
:100DE600040000000000000F1F18191F0F001F1F2E
:100DF60001010100000C1D19191F0F000000000061
:100E06000C1D19191F0F00181F1F18000F1F181986
:100E16001F0F001F1F010F1F1F001F1F03031F1F90
:100E2600001F1F181818180000000000000000001E
:100E36000000FCFC0000000000F8FC0C0CFCF800B4
:100E4600F8FC0C0CFCF800FCFCF0B81C0C000CFCCC
:100E5600FC0C00FCFC78E0FCFC00F8FC0CCCDCD8BC
:100E6600000000000000000000000000000000E09C
:100E7600F090D8C8ACA49692CA4A7E3E3090905064
:100E86004828282424242424242444A4140C0404B8
:100E960088502020202020202020202040C0408074
:100EA600000000000000008040201000E7E76666B2
:100EB600666600C3E76666E7C300E3E76666E7C300
:100EC60000070701C3E76660E6C7076660E7E760F5
:100ED600630787C0E3E7C68607E3E06060E0C0001B
:100EE6006060E0E0606000000000E0BE0203C3E175
:100EF60071303476E6C535549494949494949494CD
:100F0600949494941414010202C1E474343474E485
:100F1600C808182890783C1E0D8640203078FCFEC4
:100F2600FFFFFE7C38003F3F06060600001F3F30ED
:100F3600303F1F003F3F061E3B3100000000193BBB
:100F460033363E1C0000003F3F0000003F3F0C0CC4
:100F56003F3F003F3F061E3B310000003F3F000081
:100F6600000000000001010103070E0C0C0E070330
:100F7600020202020202020202020202020202024B
:100F860002020201070E0C0C0E07038242E1F0F882
:100F9600FCFEF9F0E04060F0F8FDFFFDF8F06000BF
:100FA600000000000000000000000000000000003B
:100FB600000000000000000000000000000000002B
:100FC600000000000000000000000000000000001B
:100FD600000000000000000000000000000000000B
:100FE60000000000000000000000000000000000FB
:100FF6000000000000000000000000000080C0E0CB
:10100600F0F8F4E2C18080C0E1F3FFFFF3E1C080B5
:101016004020110B070301000000000000F0F03033
:1010260030F0E000F0F03030F0E000F0F03030303A
:101036003000E0F03030706000E0F030307060007A
:10104600000000F80404E4F43434746404F4F43462
:10105600343404F4F404040404F4F434343404E4BA
:10106600F434347464043434F4F434340404F8008A
:10107600000000C0E07070E0C0003030F0F03030AA
:1010860000000000000000000000000000000080DA
:10109600402010000000003F3F03030301003F3FD4
:1010A6000F1F3B31003F3F3333333000193B33339F
:1010B6003F1E00193B33333F1E000000007F808037
:1010C60099BBB3B3BF9E80BFBFB3B3B080BFBFB041
:1010D600B0B080BFBFB3B3B0809FBFB0B0B8988088
:1010E6008080BFBF808080807F000000003F3F0679
:1010F600063F3F0000003F3F0000000000000000E8
:10110600008040203078FCFEFFFFFE7C38000000A7
:1011160000F0F89898B830001818F8F8181800E099
:10112600F03838F0E000F8F89898F8F0001818F859
:10113600F818180000000080E078180000F8F89809
:101146009898180018F8F81800F8F8F080F8F800E1
:1011560018F8F81800F0F89898B83000F8F8808079
:10116600F8F8000000000000000000000000000089
:101176000000008040E0F0F8FCFEF9F0E04060F08E
:10118600F8FDFFFDF8F060000000000C1D19191FA6
:101196000F0000001F1F0000001F1F03031F1F007A
:1011A6001F1F070F1D180000001F1F00000000185A
:1011B6001E0701000000001F1F0101010000181F8B
:1011C6001F18001F1F010F1F1F00181F1F18000CDC
:1011D6001D19191F0F001F1F01011F1F000000000E
:1011E600000000000080C0E0F0F8F4E2C18080C09A
:1011F600E1F3FFFFF3E1C0804020110B070301007C
:101206000000000000000080601010101010101088
:101216001010101010F000000000000000F070C068
:1012260000000000000000000000000000000000B8
:1012360080C0C0E0E0F0F07878787C7CFCFCFC7C38
:101246007CFCFC7C7CFCFC7C7C7C7878F0F0E0E030
:10125600C0C08000000000000000F01010105050C8
:10126600101010101010101010F0000000000000F8
:1012760000E020A06040603808F8000080C06038B8
:101286004F010002030000000000000000001843A8
:101296008478C08000C0601F00FF000000000000CE
:1012A60000000080E0F8FCFEFFFFFFFFFFFFFFFFEE
:1012B600FFC0C0DBDBC0E4FFFFFCF8C3C3F8FCFFE4
:1012C600FFC0C0DBDBDFFFFFFFFFFFFFFFFFFEFC12
:1012D600F8F0E0807F0087C00000000000000000FA
:1012E60000010CF386FC0000000000FFF700000080
:1012F60000003E01FF1114121310101010101010F0
:10130600101010109090901010101013121511104C
:10131600101010131214141C181010101E1F1F9FEB
:10132600DFFF7F3F1F1F1F1F1F1F1FDF23B9A535AD
:10133600B5A539212121212139A5B535A5B923DF47
:101346001F1F1F1F1F1F1F3F7FFFDF9F171118142F
:1013560017101010909090101010101010101513F8
:101366001F1E10101C1310101010101010101F004C
:1013760000304000400000000000000007050103A7
:101386000203000000000000000000000000000052
:101396000080C0E070381C0E07030100000000004A
:1013A600000000007F7870717130111110363636EA
:1013B600363610111130717170787F000000000010
:1013C600000000000103070E1C3870E0C181000018
:1013D600010000201038280830000000000000003E
:1013E600000000000000000000000000000000F007
:1013F600F878F8D8B858B858B858B858B858B85847
:10140600B870E0C08000000000000000000000008E
:10141600000000000000F0F000808000F0F000C046
:10142600E07070E0C00030F0F030003030F0F030A6
:10143600300030F0F03000F0F0E000F0F000E0F0C6
:1014460030303030000000000000000000000000D6
:101456000000000000000000000000000000000086
:10146600000000000000000000FFFF55AA55AB5722
:10147600AE5DFAF53A353AB5FAF5FAF5FAF5FBF74F
:10148600FEBCF8F0000000000000000000000000B4
:101496003F3F1C0F0F1C3F3F003F3F06063F3F00EC
:1014A600303F3F300000003F3F000000303F3F30FC
:1014B600003F3F031F3F3F001F3F30333F1F0000E9
:1014C6000000000000000000000000000000000016
:1014D6000000000000000000000000000000000006
:1014E600000000071F3D7AF5EAD5AA55FFFFFCFE6E
:1014F600FFFF0F07E311090109010143070FFCF084
:1015060000000000000000000000FCFCCCCCCC0C6D
:1015160000F8FC0C0CFCF800FCFCCCCCFC780000C1
:101526000000000000F8FC0C0C1C1800F0F89C9C55
:10153600F8F000FCFC38F0F038FCFC00FCFCCCCCED
:101546000C00FCFCCCCCFC7800F0F89C9CF8F0007D
:101556000000000000000000000000000000000085
:1015660000000103070F1F1F191B1F1F3E3C387089
:101576007070707072393C1E0F070000000000008A
:10158600000000000F0F0000000000070F0C0C0FFA
:1015960007000F0F03070E0C0000000000000007F5
:1015A6000F0C0C0F07000F0F01010F0F000F0F009C
:1015B6000101000F0F000F0F0C0C0C000F0F03079B
:1015C6000E0C000F0F01010F0F00000000000000BD
:1015D6000000000000F00808C8E86868E8C808E8E5
:1015E600E868686808E8E808080808E8E8686868D5
:1015F60008C8E86868E8C8086868E8E86868080825
:10160600F0000000000000000000000000000000E4
:1016160000000000000000000000000000000000C4
:1016260000000000000000000000000000000000B4
:1016360000000000F80C040404040CFCFCFCFCFC98
:101646000C040404040CF80000000000000000FF75
:101656000000337766667E3C007F7F666660007FAB
:101666007F606060007F7F666660003F7F606070BD
:10167600300000007F7F00000000FF000000000037
:1016860000000000000000000000000000C0201064
:10169600D0D01020C00000000000000000C02010C4
:1016A600D0D01020C0000000000000000000F71C91
:1016B600080808081CFFFFFFFFFF1C080808081C95
:1016C600F700000000000000003031F1F131310177
:1016D600E1F13131F1E10101010101E1F131317154
:1016E60061013131F1F1313101E1F13131F1E101E4
:1016F600E1F13131706000F0F03030300000000070
:1017060000000000F80E03037B7B7B037B7B7B03DF
:10171600838383838383037B7B7B037B7B7B0303C3
:101726000EF8000000000000EF381010101038FF0F
:10173600FFFFFFFF381010101038EF000000000008
:1017460000000000003F3F0000001F3F30303F1FF9
:101756000000000000193B33333F1E0000003F3FEE
:101766000000003F3F06063F3F001F3F30363E1E4B
:10177600003F3F33333000000000000000003F3ED2
:101786003C3C3C3C3C1C0404040C0D0D0D0D0D0DA5
:101796000C0404041C3C3C3C3C3C3E3F0000000066
:1017A60000001F3020202020303F3F3F3F3F3020A9
:1017B600202020301F000000000000000000F0F094
:1017C6003030F0E000F0F030303000C0E07070E013
:1017D600C000F0F03030F0E000F0F00000F0F00073
:1017E6000000003030F0F0303000E0F03030F0E053
:1017F6000000000000000000003F3F071F3B3100D3
:101806003F3F333330003F3F06063F3F003F3F3008
:10181600303F1F0001033F3F0301000000000000AE
:101826003F3F0000001F3F30303F1F000000000018
:10183600000000000000F8F80000000000E0F038AA
:1018460038F0E000F8F80000F8F800F8F8F080F852
:10185600F800F0F81818383000F8F88080F8F8002A
:101866000000000000000000000000000000000072
:10187600001F1F18181818001F1F03031F1F000F33
:101886001F18181F0F001F1F010F1F1F000F1F1803
:10189600181C0C001F1F01011F1F00000000000084
:1018A6000000000000000000000000000000000032
:1018B6000000000000000000000000000000000022
:1018C6000000000000000000000000000000000012
:1018D6000000000000000000000000000000000002
:1018E600000000000000000080E0F8FCFCFE3E1F47
:1018F6000F8F8F8F9FBFBEBEBC10000080E0F8FC2C
:10190600FCFE3E1F0F0F0F0F1FFFFEFEFCF0000038
:1019160000E0FFFFFF7F1F01000000000000000045
:101926000000001F7FFFFFFFF0E0E0E7E7E7FFFFB3
:10193600FF7F3F030000001F7FFFFFFFF0E0E0E0B6
:10194600E0F0F8FE7F7F3F0F0300C0F0F7F7F77374
:101956000000000000000000000000000000000081
:10196600000001010101010101000000000000006A
:10197600000000000000010101010101010000005A
:10198600000000000001010101010000000000004C
:10199600003F3F3F3FFFFFFFFFFFFFFFFF0000004D
:1019A6001C1C1C000000FFFFFFFFFFFFFFFF0000E5
:1019B60000FFFFFFFFFFFFFFFF0000001C1C1C00D5
:1019C6000000FFFFFFFFFFFFFFFF000000FFFFFF1C
:1019D600FFFFFFFFFF000000000000000000FFFF08
:1019E600FFFFFFFFFFFF3F3F3F3F3F3F3FFF00003F
:1019F600001C1C1C0000003F3F3F3F3F3F3F3F0095
:101A060000003F3F3F3F3F3F3F3F0000001C1C1C84
:101A16000000003F3F3F3F3F3F3F3F0000003F3F4A
:101A26003F3F3F3F3F3F0000001C1C1C0000003FA3
:101A36003F3F3F3F3F3F3F000000000000000000E7
:101A4600000000000000000000000000F0F0F0F0D0
:101A5600F0F0F0F0000000C0C0C0000000F0F0F0B0
:101A6600F0F0F0F0F0000000F0F0F0F0F0F0F0F040
:101A7600000000C0C0C0000000F0F0F0F0F0F0F090
:101A8600F0000000F0F0F0F0F0F0F0F000000000E0
:101A96000000000000F0F0F0F0F0F0F0F0000000C0
:101AA6000000000000000000000000000000000030
:101AB6000000000000000000000000000000000020
:101AC600000000000000FFFFFFFFFFFFFFFF000018
:101AD60000C1C1C1000000FFFFFFFFFFFFFFFF00C5
:101AE6000000FFFFFFFFFFFFFFFF000000C1C1C1B5
:101AF600000000FFFFFFFFFFFFFFFF000000FFFFEA
:101B0600FFFFFFFFFFFF000000C0C0C0000000FF96
:101B1600FFFFFFFFFFFFFF000000000000000000C6
:101B26000000000000000000000000C040404040EF
:101B360040404040404040404040C040404040401F
:101B4600434343434343434340C0404141414040F4
:101B56004043434343434343C340404043434343DB
:101B660043434343404040C14141404040434343D7
:101B760043434343434040C04343434343434343B8
:101B8600404040414141C0404043434343434343B7
:101B96004340404040C040404040404040404040BC
:101BA60040404040C0FF8080808080808080808070
:101BB60080808080E18080808080808080808080BE
:101BC600808080F38080808080808080808080809C
:101BD6008080E1808080808080808080808080809E
:101BE60080AAD58080808080808080808080808070
:101BF60080E180808080808080808080808080807E
:101C0600F38080808080808080808080808080E1FA
:101C16008080808080808080808080808080FF00BF
:101C26000000F0F03030F0E000F0F030303000C06E
:101C3600E07070E0C000F0F03030F0E000F0F0004E
:101C460000F0F0000000003030F0F0303000E0F03E
:101C56003030F0E00000000000008080808000004E
:101C660000000000000000C020100806010000006F
:101C76000000000000009F000000000000000001BE
:101C860006081020C0000000000000000000808050
:101C96008080000000000000000000003F3F071F9A
:101CA6003B31003F3F333330003F3F06063F3F00A6
:101CB6003F3F30303F1F0001033F3F03010000005C
:101CC6000000003F3F0000001F3F30303F1F000074
:101CD6000080F0FE0F01010FFEF0800020100C02C4
:101CE60001000000C02010D0D01020C0000000006D
:101CF6003F000000C02010D0D01020C0000000011E
:101D0600020C10200080F0FE0F01010FFEF0800093
:101D16000000000000000000F8F80000000000E0ED
:101D2600F03838F0E000F8F80000F8F800F8F8F0BD
:101D360080F8F800F0F81818383000F8F88080F8C5
:101D4600F80000000000003078F8FCFFE7C0C0C0D3
:101D5600C0C0C0E7FFFCF878300000F80E03037B34
:101D66007B7B037B7B7B03838383838383037B7BF5
:101D76007B037B7B7B03030EF800003078F8FCFFC7
:101D8600E7C0C0C0C0C0C0E7FFFCF8783000000064
:101D960000001F1F18181818001F1F03031F1F001D
:101DA6000F1F18181F0F001F1F010F1F1F000F1FE7
:101DB60018181C0C001F1F01011F1F000000000047
:101DC60000000000010303070707070707030301D5
:101DD60000000000003F3E3C3C3C3C3C1C0404042C
:101DE6000C0D0D0D0D0D0D0C0404041C3C3C3C3C6F
:101DF6003C3E3F00000000000103030707070707FA
:101E06000703030100000000000000F00808C8E80E
:101E16006868E8C808E8E868686808E8E80808083C
:101E260008E8E868686808C8E86868E8C80868688C
:101E3600E8E868680808F0000000000000000000FC
:101E460080F03C06063CF080000000000000000028
:101E5600000000000000000000000000000000007C
:101E6600000000000000000000000000000000006C
:101E76000000000080F03C06063CF08000000000F8
:101E86000000000000FF0000337766667E3C007F9E
:101E96007F666660007F7F606060007F7F66666049
:101EA600003F7F606070300000007F7F0000000010
:101EB600FF0000000002020002070F0E1C1C1C1C83
:101EC6000E0F0702000002020202020202804020F8
:101ED600A2A22242820202000000020202824222E2
:101EE600A2A02040820202020202000002070F0E98
:101EF6001C1C1C1C0E0F0702000202000000003012
:101F060031F1F1313101E1F13131F1E1010101014B
:101F160001E1F131317161013131F1F1313101E12B
:101F2600F13131F1E101E1F13131706000F0F03071
:101F3600303000000000000000000000000000003B
:101F460000000000F01C0607F6F6F707F6F6F7069F
:101F560006060606060606F7F6F607F7F6F6070677
:101F66001CF000000000000000000000000000005F
:101F760000000000000000000000003F3F000000DD
:101F86001F3F30303F1F0000000000193B33333F36
:101F96001E0000003F3F0000003F3F06063F3F0097
:101FA6001F3F30363E1E003F3F33333000000000F7
:101FB60000000000000000000000000000007F7C20
:101FC600787878787838080808181B1B1B1B1B1BA9
:101FD600180808083878787878787C7F0000000040
:101FE600000000000000000000000000000000F8F3
:101FF600FC1E0F0703030303030303030303030387
:10200600030303030303030303030303030303039A
:10201600030303030303030303030303030303038A
:10202600030303030303030303030303030303037A
:10203600030303030303030303030303030303036A
:10204600030303030303030303030303030303035A
:10205600030303030303030303030303030303034A
:1020660003030303070F1EFCF8FFFF000000000038
:10207600000000000000000000000000000000005A
:10208600000000000000000000000000000000004A
:10209600000000000000000000000000000000003A
:1020A600000000000000000000000000000000002A
:1020B600000000000000000000000000000000001A
:1020C600000000000000000000000000000000000A
:1020D60000000000000000000000000000000000FA
:1020E60000FFFFFFFF0000000000000000000000EE
:1020F60000000000000000000000000000000000DA
:1021060000000000000000000000000000000000C9
:1021160000000000000000000000000000000000B9
:1021260000000000000000000000000000000000A9
:102136000000000000000000000000000000800019
:10214600008000C040404080000080408000008049
:102156004040408000C00000804000FFFF1F3F78E5
:10216600F0E0C0C0C0C0C0C0C0C0C0C0C0C0C0C019
:10217600C0C0C0C0C0C0C0C0C0C0C0C0C0C0C0C059
:10218600C0C0C0C0C0C0C0C0C0C0C0C0C0C0C0C049
:10219600C0C0C0C0C0C0C0C0C0C0C0C0C0C0C0C039
:1021A600C0C0C0C0C0C0C0C0C0C0C0C0C0C0C0C029
:1021B600C0C0C0C0C0C0C2C5C8C2C5C8C0DFD2D2B8
:1021C600D2CDC0DFC4C4C4DFC0CFD0D0D0C8C0DF3A
:1021D600C2C5C8D0C0FFFF000000000000005F00BD
:1021E60000000E000E00247E247E24242A7F2A125C
:1021F600261608343236495926500000000E003E95
:1022060041410000000041413E2A1C3E1C2A0808AC
:102216003E080800000040300808080808000000D2
:10222600400020100804023E4549513E00427F40CE
:1022360000724949494622494949361814127F1005
:102246002F494949313E4949493201710905033649
:1022560049494936264949493E00003636000000BC
:1022660026360000182442000014141400004224EC
:10227600180002015109063E415D553E7C121112BD
:102286007C7F494949363E414141227F4141413E99
:102296007F494949417F090909013E4149493A7F38
:1022A6000808087F00417F41002040413F017F0828
:1022B6001422417F404040407F027C027F7F020C17
:1022C600307F3E4141413E7F090909063E41516149
:1022D6007E7F09192946264949493201017F0101B4
:1022E6003F4040403F1F2040201F3F403E403F416F
:1022F600221C2241010678060161514945437F416E
:102306004100000204081020000041417F301C07F4
:102316001C304040404040010204000034545454F4
:10232600787F444444383844444448384444447FDD
:102336003854545458087E090902185454543C7FA2
:102346000808087000047D40002040443D007F10CE
:10235600384400007F4000007C047C04787C040440
:10236600047838444444387E1212120C182424642B
:10237600587C040404084854545424043F44442418
:102386003C4040403C0C3040300C3C4038403C44E3
:1023960028102844004C50503C645454544C083E79
:1023A60041410000007F00000041413E0804020256
:1023B6000402000000000000000000000000000011
:1023C6000000000000FFFF000000000000333300A3
:1023D600000000001E1E001E1E000000000000007F
:1023E600000030FEFE3030FEFE30031F1F03031FC9
:1023F6001F0378FCCCFFFFCCCC8C0C0C0C3F3F0CA5
:102406000F070E1F1BDFFE7C1F07303C0F1F3F36DA
:102416003E1C1CBEF7E3F73E9C800F1F39391F0F89
:102426003F3B000006C6FE7C0000000000000000E6
:1024360000000000FCFE0703000000000F1F3830FC
:10244600000000000307FEFC0000000030381F0FEC
:102456000000CEDEF0FEFEF0DECE1C1E031F1F03C4
:102466001E1CC0C0C0FCFCC0C0C00000000F0F0096
:1024760000000000000000000000000000002C1C0E
:10248600000000C0C0C0C0C0C000000000000000C6
:1024960000000000000000000000000030300000D6
:1024A6000000000000C0F03C0F03303C0F030000AA
:1024B6000000F8FE07030307FEF8071F3830303820
:1024C6001F0700181C0EFFFF0000000030303F3FC2
:1024D60030300C0E0783C3E77E3C3C3E3733313049
:1024E60030300C0EC7C3C3E7FE3C0C1C3830303905
:1024F6001F0F00C0F03C0FFFFF0007070606063F50
:102506003F06FFFF636363E3C3801838303030381B
:102516001F0FFCFEC76363E7C6800F1F38303038D5
:102526001F0F030303C3F37F1F07303C1F07010080
:1025360000003CFEE7C3C3E7FE3C0F1F39303039CD
:102546001F0F7CFEC78383C7FEFC18383131313834
:102556001F0F0000003030000000000000030300E1
:10256600000000008E8E8E0000000000110F070094
:10257600000080C0E070381C0C00000103070E1C30
:10258600180030303030303030300303030303039B
:102596000303000C1C3870E0C08000181C0E0703F3
:1025A60001001C1E0686C6FE7C00000037370100AF
:1025B6000000FEFF03F3FB1BFFFE1F3F30333736E1
:1025C6003733F8FC0E07070EFCF83F3F03030303FF
:1025D6003F3FFFFFC3C3C3E7FE9C3F3F3030303869
:1025E6001F0FFCFE070303070E0C0F1F3830303891
:1025F6001C0CFFFF03030307FEFC3F3F303030385F
:102606001F0FFFFFC3C3C3C3C3033F3F3030303088
:102616003030FFFF6363636303033F3F0000000046
:102626000000FCFE070383878E8C0F1F3830313184
:102636003F1FFFFFC0C0C0C0FFFF3F3F00000000BC
:102646003F3F000303FFFF0303000030303F3F30EE
:10265600300000000303FFFF03031C3C30303F1F24
:102666000000FFFFF0381C0E07033F3F03070E1C58
:102676003830FFFF0000000000003F3F30303030B0
:102686003030FEFF3EF8F83EFFFE3F3F003F3F0082
:102696003F3FFFFF3CF0C000FFFF3F3F0000030F3E
:1026A6003F3FFCFE07030307FEFC0F1F38303038A0
:1026B6001F0FFFFF838383C7FE7C3F3F010101019C
:1026C6000000FCFE07030307FEFC0F1F38363E1C06
:1026D6003F37FFFF838383C7FE7C3F3F03070F1D02
:1026E60038303C7EE7C3C3C78E0C0C1C38303039FB
:1026F6001F0F030303FFFF0303030000003F3F0018
:102706000000FFFF00000000FFFF0F1F38303038C9
:102716001F0FFFFF80000080FFFF00030F3C3C0FF0
:102726000300FFFF00FFFF00FFFF0F3F3F07073FCC
:102736003F0F071F3CF0F03C1F07383E0F03030F07
:102746003E380F7FF8C0C0F87F0F0000013F3F0101
:102756000000030383E3FB3F0F07383E3F3330306F
:1027660030300000FFFF0303000000003F3F303021
:102776000000030F3CF0C000000000000000030F43
:102786003C3000000303FFFF0000000030303F3FF5
:10279600000080C0E07070E0C0800301000000000F
:1027A60001030000000000000000303030303030FF
:1027B6003030000003070E1C180000000000000067
:1027C6000000607030303030F0E01E3F333333337A
:1027D6003F3FFFFF70303070E0C03F1F3830303869
:1027E6001F0FC0E070303070E0C00F1F3830303837
:1027F6001C0CC0E070303070FFFF0F1F38303018EF
:102806003F3FC0E070303070E0C00F1F3B333333C2
:102816003B1B0060FEFF6363030000003F3F0000B8
:102826000000E0F030303030F0E0193B3333333B1A
:102836001F0FFFFF70303070E0C03F3F0000000008
:102846003F3F000060ECEC0000000000003F3F004E
:10285600000000000060ECEC0000183830303F1F2C
:102866000000FFFFC0E0703818003F3F03070E1C52
:102876003830000000FFFF0000000000001F3F305E
:102886000000F0E070F0E070F0E03F3F003F3F00F6
:102896003F3FF0E070303070E0C03F3F0000000086
:1028A6003F3FC0E070303070E0C00F1F3830303826
:1028B6001F0FF0F030303030F0E03F3F03030303EA
:1028C6000301E0F030303030F0F00103030303037E
:1028D6003F3FF0F0E0703070E0C03F3F0000000086
:1028E6000000E0F0303030307060193B3333333362
:1028F6003F1E6060FEFE6060600000001F3F3030DB
:102906003000F0F000000000F0F00F1F38303018F3
:102916003F3F70F0C00000C0F07000030F3C3C0F5A
:102926000300F0F000C0C000F0F00F3F381F1F3862
:102936003F0F60E0C08080C0E06030381D0F0F1D83
:102946003830F0F080000080F0F018393333333936
:102956001F0F30303030B0F0F070383C3E37333136
:10296600303000C0FE3F0303000000001F3F303040
:102976000000000000FEFE0000000000001F1F0017
:102986000000000003033FFEC000000030303F1F80
:10299600000080C06060C0C0602000000000000031
:1029A60000007EFFC3C3FF7E00C6FFFFC000E6F344
:1029B600FBDBDFCE66E7C3DBFF763C3E33FFFF3053
:1029C600DFDFDBDBFB737EFFDBDBFB700003E3FBA0
:1029D6003F0F66FFDBDBFF66CEDFDBDBFF7EC0C0C3
:1029E6000000FEFF0303FFFE0103030303010006CD
:1029F600FFFF000000030303030086C7E3733F1EC7
:102A060003030303030386873333FFCE0103030364
:102A16000301F0FCCFFFFFC0000000030300BFBFAF
:102A26003333F3E3010303030301FEFF3333F7E616
:102A36000103030303010383E3FB3F0F00030300CA
:102A46000000CEFF3333FFCE0103030303019EBF15
:102A56003333FFFE010303030301FFFF0000000001
:102A6600030303030303000000000000000000004E
:102A760000001818181818181818181818FFFF1832
:102A86001818FF1F1F1F1FE1E1E1E1FF0302020209
:102A9600020303030303000000000000000000001F
:102AA6000000000000000000000000000000000020
:102AB6000000000000000000000000000000000010
:102AC6000000000000000000000000000000000000
:102AD60000000000000000000000000000000000F0
:102AE60000000000000000000000000000000000E0
:102AF6000000C0C1C1810140C30103C00280C241C0
:102B0600C60106C00780C7410500C5C1C48104408F
:102B1600CC010CC00D80CD410F00CFC1CE810E403F
:102B26000A00CAC1CB810B40C90109C00880C8414F
:102B3600D80118C01980D9411B00DBC1DA811A40BF
:102B46001E00DEC1DF811F40DD011DC01C80DC418F
:102B56001400D4C1D5811540D70117C01680D641BF
:102B6600D20112C01380D3411100D1C1D0811040CF
:102B7600F00130C03180F1413300F3C1F2813240BF
:102B86003600F6C1F7813740F50135C03480F4418F
:102B96003C00FCC1FD813D40FF013FC03E80FE413F
:102BA600FA013AC03B80FB413900F9C1F88138404F
:102BB6002800E8C1E9812940EB012BC02A80EA41BF
:102BC600EE012EC02F80EF412D00EDC1EC812C408F
:102BD600E40124C02580E5412700E7C1E6812640BF
:102BE6002200E2C1E3812340E10121C02080E041CF
:102BF600A00160C06180A1416300A3C1A2816240BF
:102C06006600A6C1A7816740A50165C06480A4418E
:102C16006C00ACC1AD816D40AF016FC06E80AE413E
:102C2600AA016AC06B80AB416900A9C1A88168404E
:102C36007800B8C1B9817940BB017BC07A80BA41BE
:102C4600BE017EC07F80BF417D00BDC1BC817C408E
:102C5600B40174C07580B5417700B7C1B6817640BE
:102C66007200B2C1B3817340B10171C07080B041CE
:102C7600500090C191815140930153C052809241BE
:102C8600960156C057809741550095C1948154408E
:102C96009C015CC05D809D415F009FC19E815E403E
:102CA6005A009AC19B815B40990159C0588098414E
:102CB600880148C0498089414B008BC18A814A40BE
:102CC6004E008EC18F814F408D014DC04C808C418E
:102CD600440084C185814540870147C046808641BE
:102CE600820142C043808341410081C180814040CE
:10A38D0043153A0000004E0540000000000000009B
:10A39D000000000000000042044500004201BE0024
:10A3AD00004204F000A04215D10000411465FE5595
:10A3BD00147100000000000000000000000000000B
:10A3CD00000000000000004204F500004201BC0046
:10A3DD000042146300004204BD000041000E004124
:10A3ED0015E4004204F300004100360047144B0011
:10A3FD00000000000000431448000000410000036D
:10A40D004106C8004106C9004115C3144104F200BC
:10A41D004106E601440198FFFFFFFF4401B8FFFF2D
:10A42D00FFFF420137FFFF420146FFFF4D0001FFD5
:10A43D0000A60103DB000000000114A04D000FFF7A
:10A44D0000B40103DB000000000114A04D06D9FF8C
:10A45D0000C10103DB000000000114A04D15E5FF54
:10A46D0000D0011439000000000114A04B146653F4
:10A47D00657373696F6E202323004D149301146669
:10A48D000104E3000000000103F54D04E30114662F
:10A49D000115E500000000FF048F4D06CAFF010FF6
:10A4AD000103DB00000000FF04AB4D019CFF012EFA
:10A4BD000103DB00000000FF04C74D03E8FF01614D
:10A4CD000103DB00000000FF04DC4D15C4FF014853
:10A4DD000103E800000000FF04F84D0438FF0154AB
:10A4ED000103E800000000FF05224D1607FF01EBF8
:10A4FD000103DB00000000FF053E4D0139FF024561
:10A50D000103DB00000000FF05534D03DBFF02D606
:10A51D0001143900000000FF05994D1486FF034713
:10A52D0001143900000000FF05FB4D018BFF036A8C
:10A53D0001143900000000FF0656602A014801FF92
:10A54D00037601148606FF0382FF000301FF0390CB
:10A55D000103DB06FF03A0FF930E01FF03AF010113
:10A56D008B000000000000004D1439FF01F80114AC
:10A57D00390000000001014855002006FF03BE0010
:10A58D00000001FF03C200000000000000000000F9
:10A59D005515F207FF03C2FFEB5607FF03BEFFBBC6
:10A5AD00A8000000000000004D15D3FF03C50000FA
:10A5BD0000000000000100204D1452FF03D40000E4
:10A5CD0000000000000115F24701C001000000016C
:10A5DD0014524D01AA000000000000000000FF0110
:02A5ED0001C0AB
:10D62F0090047EE493FF3395E0FE9004CB75F012E7
:10D63F00EF124A01EE75F012A42583F583024A2FEB
:10D64F007E0012454C901836E475F0010246BCE49A
:10D65F00FFFEFDFC1249A8D302491512498C74FF35
:10D66F00FBFAF9F80247CF9004C37B007A007900E8
:10D67F00024A38901836E0FEA3E0FFC32290047EE2
:10D68F00E493FD3395E0FC9004CB75F012ED124A54
:10D69F0001EC22E4901836F0A3F0227B01E4F5426E
:10D6AF0075432D229000071245FD755900755A01DB
:10D6BF00229004C3024A2F25E02440F582E434056A
:10D6CF00F5832274C72FF58274013EF583227C0007
:10D6DF007D64AE020246317B017A0179C775600025
:01D6EF002218
:10616300E4901835F090184D04F0E4A3F075840F13
:1061730075FFDE75FFAD12E7C912E083E49004D228
:10618300F09004C0F09004BFF09004D104F0E490C8
:1061930004D3F0A3F09004C1F0A3F09004DCF090DA
:1061A30004CAF09004DB744EF09004C9F09004D854
:1061B30012D6799004D5124A389004C6124A389000
:1061C30004C3124A380B7A0679E79004CE124A3890
:1061D3007A0B79219004E0124A387A0F79FB900404
:1061E300CB124A387A1279189004DD124A387A04AD
:1061F30079BF1268457B017A0479D11268457F0023
:106203007E9612EF4C12F222752A01752B14752C0F
:10621300357B017A14796112D14C12C04D12745A34
:10622300D2AF12D4ABD2FEE4FF12E18D30D8217588
:10623300610075620F7563FF756406756579756630
:106243002D7B717A007D097C007F037E001298F11B
:0362530030D82020
:106256009018241249D0000AFC8090182412D65EA9
:10626600400E90182412D66A9018241249C480EA67
:1062760012D6A212D62FE412D6B37B9112682A90B8
:1062860006C8E0701412D654C3901837E0940390F1
:106296001836E06480948040DA9006C8E0600AE42C
:1062A600F559F55A7B7012682A9015A6E0FFA3E00F
:1062B6009003D9CFF0A3EFF09015A8E0FFA3E090EC
:1062C600145FCFF0A3EFF090158FE09001B7F0E4E4
:1062D600FF12E18D9006C8E0FF129BAAEF703A7B91
:1062E600FF7A0379E41268647BFF7A0379F0E4F5B8
:0962F6005675572D7F0212D06885
:1062FF009018281249D00022551090182812D65EF7
:10630F00400E90182812D66A9018281249C480EAB5
:10631F00E4FF12E18D7BFF7A0379FBE41268647569
:10632F0066FF756704756808756900756A03756B94
:10633F0000756C21756D00756E0812683512D6AC3C
:10634F007F0212CE9C9006C8E060317566FF7567BC
:10635F00047568209003D9E0FAA3E0FBFF12D6DDA5
:10636F008E698F6AAF0312D6DD8C6B8D6C90145FC4
:10637F00E0F56DA3E0F56E12683580067BFF7A04B9
:0D638F00793812D6AC7F0312CE9C30D82591
:10639C0090182C1249D000112A88E4FFFEFDFC90C5
:1063AC00182C12D663400E90182C12D66A90182C0A
:0563BC001249C480E558
:1063C100E4FF12E18D7BFF7A04794D12D6ACFF1206
:1063D100CE9C7A15793D12D6AA7F0212CE9C7A15EF
:1063E100795112D6AA7F0312CE9C12D6E6756103AB
:1063F1007F107E0212DDAD9006C8E0FF600E9003B3
:106401006DE0540FFEBE03047E0180027E00900405
:10641100F7EEF0EF607912D62F900007E41245FDF8
:1064210012D63990000874031245FD12D6A212D675
:10643100829410EE64809482502512D6D2E0FF122D
:10644100D68C12D644901837E02409FD901836E016
:1064510034008D82F583EF1245FD12D65480CF753D
:106461005902755A127B981268599001B7E0C3948A
:10647100C8401C9015ADE030E4047F0080027F012C
:1064810012D68C12D644EF12D6B37B9412685912ED
:10649100D6A212D6829404EE6480948050287C00A7
:1064A1007D2812461F74C72FF974013EFA7B01C083
:1064B10001745B2FF9740F3EA801FC7D01D0017FAF
:1064C1002812D64F80CC12D6A212D6829402EE6444
:1064D10080948050287C007D2412461F74F72FF988
:1064E10074023EFA7B01C00174F82FF974043EA8CE
:1064F10001FC7D01D0017F2412D64F80CC30D825FC
:106501009018301249D0000BAC48E4FFFEFDFC901E
:10651100183012D663401090183012D66A90183095
:056521001249C480E5F1
:10652600C2FEE4FF12E18D752A01752B04752CBDA0
:106536007B017A14796312CAD812D6E67561017F97
:10654600107E0212DDAD9001CAE0540F24FC600CEF
:10655600240270109015C37414F0800E9015C37445
:1065660028F080069015C3740AF09001CBE09004E1
:10657600F2F0901435E0FCA3E0FD7F017E0012E40A
:106586005D9004F2E030E7034403F012D6A212D67F
:10659600829410EE64809482500D12D6D2E4F0906C
:1065A600183612D65880E7E4901465F0900446E059
:1065B6002460FE900445E0340990001CF0A3CEF060
:1065C600E4900036F09004F7E0600B7BFF7A1379D5
:0B65D600EF7D2D12D864E490184EF009
:1065E1009004F7E0602B900036E0FF6402601AEF40
:1065F1006404601590001C12D685900446E09F90BB
:106601000445E09E5003026711E49004F7F002672D
:106611001190184EE0707704F07D037F00126EE94F
:106621009006C8E060689015B7E0124AEA664A0130
:10663100664C02664E036652046659056663066639
:106641006A076674080000668F801A801F7D0180CA
:106651000C1268517D0480057D0112681B126805CA
:10666100801D1267E87D0180191267E81268517D6B
:1066710004800F7D041268057F01126EE97D01120D
:10668100681B7F01126EE97D017F01126EE9901591
:10669100ADE030E4047F0080027F01EF7020C39001
:1066A100054DE094F090054CE0940040077D067F95
:1066B10001126EE930DE07E490054CF0A3F0E4909E
:1066C1001834F0901834E0FFC39406504374017EEF
:1066D10000A807088005C333CE33CED8F9FFADD863
:1066E100EF5D6024901834E0FD12D6C6E0FEA3E011
:1066F100C39409EE940040057F01126EE9901834AD
:10670100E012D6C6E4F0A3F0901834E004F080B3B0
:0867110012D6C0E94A4B6017E3
:1067190012D6C08B248A25892612D676AB24AA25BF
:07672900A926E4FF122CF683
:0B6730009004D5124A2FE94A4B602369
:10673B009004D5124A2F8B248A2589267B007A0058
:10674B0079009004D5124A38AB24AA25A9267F01DB
:03675B00122CF607
:10675E009015D1E07002A3E070030265E1E490159C
:10676E00D1F0A3F09006C9E0FFB4F018901465F0D4
:10677E00E4901463F0A3F090000E74FFF0FB7A0423
:10678E00796280129006C9E0FFB4F115901465F09D
:10679E007BFF7A04796A12F13EE49006C9F0026535
:1067AE00E19006C9E0FF64F260030265E1901465B2
:1067BE00EFF07BFF7A04797212F13E901462E024BE
:1067CE00FBFD901461E034FFFC7B01E4FFFE12DE62
:0767DE00DCE4F58443EF0148
:0367E5000265E169
:1067E8007D047F01126EE97D047F01126EE97D044C
:1067F8007F01126EE97D047F01126EE9227F01128A
:106808006EE97D047F01126EE97D047F01126EE955
:106818007D04227F01126EE97D047F01126EE97DFD
:1068280004227D027F0312C7D612EE20227B017A52
:10683800187938127A037B017A187938227F007E1A
:10684800847D037C0012AC9B227D017F01126EE9DE
:10685800227D027F0312C7D612EE2022F556755705
:066868002DFF12D0682292
:0EEE200090153BE070FA12D6C0E94A4B601D17
:10EE2E0012D6C090184F124A389006C87401F012CC
:0DEE3E00D67690184F124A2FE4FF122CF6E2
:01EE4B0022A4
:10C9DF0025332E33662C25332E3366002C25640029
:10C9EF004820253033642C200048202D2D2D2C205D
:10C9FF00005620253032642C20005A252B312E3141
:10CA0F006600542025322E306625630025326420BF
:10CA1F00005461636820262053706565646F00526F
:10CA2F00504D004D5048004B504800204E2F4300B2
:10CA3F0025357500253364004E6F4750530041254F
:10CA4F00642025342E326656200044343A20256463
:10CA5F002044353A20256400523A25357500253497
:10CA6F002E3166202573200025342E326620257343
:10CA7F0020004E20004E45004E5700452000572005
:10CA8F0000534500535700532000253032642F25A3
:10CA9F003032640020253032643A253032643A2532
:10CAAF0030326400253034642D253032642D25302A
:10CABF00326400253032643A25303264001F1C1F67
:09CACF001E1F1E1F1F1E1F1E1F4B
:10AA9400E53F75F028A4247CF582E4340FF5831295
:10AAA400498C9018A61249A80241509015B1E0C4EF
:10AAB400F854F0C868FCA3E0C4540F48FDE4024114
:10AAC400D3901890E0FCA3E0FDEC0241D3AF03EA7D
:10AAD400F0A3EFF0E47B3CFAF9F8901AB912498C30
:10AAE400024875F0E53F75F028A4227566FF756786
:10AAF400C97568EBAB3EAA3FA940223401FE7C0134
:10AB04007D68124631C374689DFF74019CFE7C010C
:10AB14007D68024631AD07AC06E41241D3A804A90E
:10AB240005AA06AB0722AB4AAA49A948A8477C4014
:10AB3400123FAA02420C7561007562087563FF75C5
:10AB4400640B7565A522901AB3E0F569A3E0F56A74
:10AB5400A3E0F56BA3E0F56C22FFE49400FE744BD4
:10AB64002FF58274143EF583E022AB69AA6AA96BBF
:10AB74001246E8FFAEF07C007D04124686ED4C22BE
:10AB840012495CEC1241CE79B47833E4FBFA023F0B
:10AB9400AA7B5C7A8F7982783F023FAA8F4A8E49DA
:10ABA4008D488C47227B017A18798E22901896E082
:10ABB4009400227B3CE4FAF9F802487512498C8F20
:10ABC4006C8E6B8D6A8C69227E007F78124631AC64
:10ABD40006AD07E40241D37B7A7A00E4FDFCFFFE74
:10ABE400227B017A1879982212493C90000412477A
:10ABF40013F55A85F059227C40AB44AA43A942A8D4
:10AC040041023FAAF0E53F75F024A424F8F9740446
:10AC1400222474F582E4340FF5830249A890145079
:10AC2400E0FEA3E0FDEDFF4E227BFF9018A9E0F5C6
:10AC34005A22E0F569A3E0F56A22E475F0010247BF
:10AC44004BE4FFFE7D7A7C480240B32481F582E424
:10AC5400340FF583E0222482F582E4340FF583E097
:10AC640022E56D9FF56DE56C9EF56C229000100257
:10AC7400458B9018A9E0F554227566FF7567CA756F
:10AC84006843227B017A18798E22AB5CAA5DA95EA7
:07AC9400229018A702498C71
:0A8C64008C418D428B3E8A3F89400F
:108C6E0090000612AB8490188F1249C412AAF89085
:108C7E00000A12AB849018931249C4E546C39402BD
:108C8E00501512AAF812ABEC755B0185435C854456
:108C9E005D85455E12B471E5467003128F9DE54603
:108CAE006004640270627566FF7567C97568DF904F
:108CBE00188F12ABC090189312498C8F708E6F8DD7
:108CCE006E8C6D128F809015ADE030E02A12AAEFF7
:108CDE0090000E124713FFAEF0EE3395E0FDFCE46C
:108CEE007B27FAF9F81247EAE47B0CFAF9F812EB53
:108CFE00128E698F6A800E12AAEF90000E12471321
:108D0E00F56A85F069128FB1E5467003128F9DE505
:0A8D1E0046600764036003028F7FC4
:108D280012AAF812AC7054E075F008A4FF90001174
:108D380012458BFDE5F0F54BEF4DF54CE54B30E278
:108D48000744F8F54B854C4C12AAF812AC70541C29
:108D580075F040A4FF90001212458BFDE5F0F54D2B
:108D6800EF4DF54EE54D30E20744F8F54D854E4E92
:108D780012AAF812AC705403FE90001312458BFD32
:108D8800EEF54FEDF550E54F30E10744FCF54F8522
:108D98005050E54C454B7006E54E454D6028AD4EAC
:108DA800AC4DAF4CAE4B12E5338E538F54E5542483
:108DB8000EFFE55312AAFF8C538D547566FF756735
:108DC800C97568EF80097566FF7567C97568F885A4
:108DD800536985546A128FB1128FBBAC4DAD4EECFE
:108DE8001241D3C004C005C006C007AC4DAD4EEC5F
:108DF8001241D3D003D002D001D000123FAAC00440
:108E0800C005C006C007AC4BAD4CEC1241D3C00442
:108E1800C005C006C007AC4BAD4CEC1241D3D00323
:108E2800D002D001D000123FAAD003D002D001D086
:108E380000123EB912DB3312AB9512ABA09015AD00
:108E4800E030E0157F747ED17D0D12AB2A8E518FF4
:108E58005290188E7446F080127466FFFEFD12ABB5
:108E68002A8E518F5290188E7443F07566FF75677D
:108E7800CA75680085516985526A128F809001B75A
:108E8800E0C394C85003028F3D12AAF89000141250
:108E9800458BFFFCE41241D8C004C005C006C007DA
:108EA80012AAAF12AB21D007D006D005D004123ECB
:108EB800B512ABA0E4FFFEFDFCAB4AAA49A948A83D
:108EC80047124150AF4AAE49AD48AC47501BC004A9
:108ED800C005C006C0079015B312AAB2C004C005E9
:108EE800C006C0079015B18016C004C005C006C0F2
:108EF8000712AAAFC004C005C006C0079015B51276
:108F0800AAB2D003D002D001D000123EB512AB21D4
:108F1800D007D006D005D0041240B312ABA07566B6
:108F2800FF7567CA756809854A6C85496B85486A03
:108F3800854769802712AAF890001412458BFF9084
:108F4800188EE0FD12E77212ABA07566FF7567CA4E
:108F580075681112ABC390188EE0F56D128FCF12A1
:108F68008FBB7566FF7567CA75681B9015E4E07559
:078F78006900F56A128FCFBA
:108F7F0022AB43AA44A945127A03AB43AA44A9459D
:108F8F0012F1C2EF2545F545EE3544F54422AB43CA
:108F9F00AA44A94512F1C2EF2545F545EE3544F532
:108FAF004422AB43AA44A945127A0322AB43AA44F5
:108FBF00A94512F1C2EF2545F545EE3544F544229A
:0A8FCF00AB43AA44A945127A03221D
:06B827008B3E8A3F8940C0
:0BB82D0012AC217006F545F546804680
:10B8380012AB1912AC458F448E438D428C417E0069
:10B848009004B8E0540F8E47F5487007FF7D707C70
:10B85800438014E548640F45477005F5477548105F
:10B86800AC47AD4812ABCCAB44AA43A942A841129D
:06B87800AB348E458F4643
:10B87E00C39004BAE095469004B9E0954550047F14
:10B88E007E80027F2D9018A9EFF0647E6004E4FFA5
:10B89E0080027FFF12E18D12AB3A9018A9E0F56697
:10B8AE0012ABDB1298F17ACA792012AC2D7D16E418
:10B8BE00FF12D3E27ACA792E12AC2D7D167F0312B7
:10B8CE00D3E29015ADE07BFF30E0067ACA79328084
:10B8DE00047ACA793612AC2F7D5D7F0312D3E290C3
:10B8EE0004F2E070087BFF7ACA793A80127566FF1F
:10B8FE007567CA75683F85456985466A12B9EC1247
:10B90E00AC767D027F0112D7AB9015E4E0C39403B1
:05B91E00500302B9DB3B
:10B92300AB3EE5402410F9E4353FFA7555017556F1
:10B933001875578E755801755918755A90755B01AE
:10B94300755C18755D9212E20F12AAC5C004C0059A
:10B95300C006C00712AAC5D003D002D001D000127E
:10B963003FAAC004C005C006C00790188E12AAC81B
:10B97300C004C005C006C00790188E12AAC8D00321
:10B98300D002D001D000123FAAD003D002D001D000
:10B9930000123EB912DB3312AB958F448E438D42B6
:10B9A3008C419015ADE030E0087F747ED17D0D8031
:10B9B300057466FFFEFDAB44AA43A942A84112AB3E
:10B9C300328E478F4812AC7D85476985486A12B924
:06B9D300EC12AC767D537E
:10B9D900800B7BFF7ACA794712AC767D467F0112CC
:02B9E900D7ABDA
:10B9EB00227B017A187994127A037B017A18799465
:01B9FB002229
:10B65100E49018A7F09018A7E0FFC3648094844099
:10B661000302B70DEF3395E0FEC374049FFFE49E20
:10B6710012AB61FCE41241D8C004C005C006C0078A
:10B681009018A7E0FF3395E0FE900F7375F028EF57
:10B69100124A01EE75F028A42583F583E0FCE4123B
:10B6A10041D8D003D002D001D000123FAAE4FBFA66
:10B6B100797878431240B39018A31249C47566FF94
:10B6C1007567CA75684D9018A7E0FF3395E0F56975
:10B6D1008F6A9018A312498C8F6E8E6D8D6C8C6B56
:10B6E10012ABA9127A039018A7E0FEA2E71304FF98
:10B6F100EE30E0047D4380027D0612ABA9755A2D20
:10B7010012D3E29018A7E004F002B65690144BE071
:10B7110054FC706390188E7444F0A3743AF0A374CF
:10B7210020F09018A77407F09018A7E0FFC3648079
:10B731009480403C90144BE0FEA807088002C3139C
:10B74100D8FC30E0047F3180027F309018A7E0FD03
:10B751003395E0FCC3740A9DFDE49CFC748E2DF5C9
:10B761008274183CF583EFF09018A7E014F080B8CC
:10B77100E4901899F080337566FF7567CA7568594A
:10B7810090144BE0FF7C0030E4047D0180027D00D9
:10B791008C698D6AEF7E0030E5047F0180027F00B5
:10B7A1008E6B8F6C12ABA9127A0312ABA9755A2D4D
:10B7B1007D017F0312D3E212AC217006F53EF53F05
:02B7C1008042C4
:10B7C30012AB1912AC459018A31249C47E00900421
:10B7D300B8E0540F8E40F5417007FF7D707C4380C5
:10B7E30014E541640F45407005F540754110AC40C8
:10B7F300AD4112ABCC9018A31249A812AB348E3EC4
:02B803008F3F75
:10B805007566FF7567CA756867853E69853F6A1203
:10B81500ABA9127A0312ABA9755A2D7D4B7F030292
:02B82500D3E26C
:02A0F9008F3E98
:0FA0FB00E53E64116009E53E6412600302A19F17
:10A10A00E53E24EFF53FE4FF12E18D12AB3A7566A6
:10A11A002D12ABDB1298F1E53F75F024A42403F568
:10A12A0082E43405F583E412AC0812A3569018AA07
:10A13A00EF12AC0835F0FA7B01E0FD755A2DE4FF09
:10A14A0012D3E2E53EB4111D90144BE030E40B75D6
:10A15A004001754105754204802675400175410527
:10A16A00754210801B90144BE030E50B7540017569
:10A17A0041057542288009754001754105754234CB
:10A18A00AB40AA41A94212A373AB40AA41A94275A6
:02A19A00542D42
:03A19C0002A350CB
:10A19F00E53E24F3F53FFFC374049F12AB5DFB1242
:10A1AF00AAE812AC4FFAEBC39A500D9018A61249B9
:10A1BF00D00000000002A22612AAE812AC5AFFEB50
:10A1CF00D39F400C9018A61249D03F8000008047C3
:10A1DF00C37404953F12AB5DFFEAFDC3EF9DFDE431
:10A1EF009400FCE41241D3C004C005C006C007129E
:10A1FF00AAE812AC4FFF12AAE812AC5AC39FFDE4B3
:10A20F009400FC12AB1DD007D006D005D00412402D
:10A21F00B39018A61249C412AAE812AC1512AAE8F4
:10A22F002478F582E4340FF58312498C123EB590F1
:10A23F0018A61249A8123FAA12AAE812AC15123E8C
:10A24F00B99018A61249C412AAE82480F582E43402
:10A25F000FF583E0601804602424FE702D12AA9479
:10A26F00600640047F7E80027F2D8F40801C12AAE3
:10A27F009470047F7E80027F2D8F40800D12AA94F0
:10A28F0050047F7E80027F2D8F40E540647E600406
:10A29F00E4FF80027FFF12E18D12AB3A8540661218
:10A2AF00ABDB1298F112AAE82466F582E4340FF5BD
:10A2BF0083E412AAE7245BF9740F12A3569018AA2D
:10A2CF00EF12AAE7245BF9740F35F0FA7B01E0FD7A
:10A2DF0085405AE4FF12D3E2E4FFFEFDFC12AAA66A
:10A2EF0040089018A612498C80099018A612498C24
:10A2FF001241BDE4FBFA79207841124150500B75A1
:10A30F0066FF7567CA75686D80097566FF7567CAE0
:10A31F007568779018A612ABC012AAE82467F97473
:10A32F000F35F0756D01F56E896F12AC87127A03D8
:10A33F00E490189AF012AC8712A37312AC87854081
:06A34F00547F0212D7AB9F
:10A355002235F0FA7B0112F1C2C374149FFFE49E0B
:10A36500FE7C007D0612461F7D021246862212F1F2
:10A37500C2C3740D9FFFE49EFE7C007D0912461F3B
:08A385007D02124686AD07229D
:06AE9F008B3E8A3F894052
:10AEA500E92410F9E43AFA75550175561875579065
:10AEB500755801755918755A92755B01755C187549
:10AEC5005D9412E20F901890E0FEA3E0FF4E700B28
:10AED500A3E07002A3E0700302AFC9901892E0FCF2
:10AEE500A3E0FD12E533901896EEF0A3EFF0240EE3
:10AEF500FFEE12AAFF901896ECF0A3EDF0D394475D
:10AF0500EC94015009C3E0941712ABB0500C756670
:10AF1500FF7567CA75688102AFB6C3901897E0944C
:10AF25004412ABB0500C7566FF7567CA756884022C
:10AF3500AFB6D3901897E09427901896E094014007
:10AF45000B7566FF7567CA7568878065C390189726
:10AF5500E0947112ABB0500B7566FF7567CA7568E2
:10AF65008A804ED3901897E094F712ABB0400B75DA
:10AF750066FF7567CA75688D8037C3901897E0942A
:10AF85009E12ABB0500B7566FF7567CA75689080E9
:10AF950020D3901897E094CA12ABB0400B7566FFAA
:10AFA5007567CA75689380097566FF7567CA7568A0
:10AFB5009612ABE5127A0312ABE575542D7D027F2F
:10AFC5000112D7ABAB3EAA3FA94012ABEC755B02B1
:10AFD500755C01755D18755E9812B47112ABE575F7
:10AFE500542D7D227F0112D7AB90189212AAC8C0AA
:10AFF50004C005C006C00790189212AAC8D003D095
:10B0050002D001D000123FAAC004C005C006C00787
:10B0150090189012AAC8C004C005C006C0079018B1
:10B025009012AAC8D003D002D001D000123FAAD0F6
:10B0350003D002D001D000123EB912DB3312AB951A
:10B045008F448E438D428C419015ADE030E0147FE6
:10B05500787ED17D0D12ABFBE4FBFAF9783F123E09
:10B06500B980087466FFFEFD12ABFB12420C901806
:10B075008EEEF0A3EFF012AC7D90188E12AC361266
:10B08500ABE5127A0312ABE575542D7D5C7F0102A9
:02B09500D7AB37
:08B471008F588E578D568C5543
:10B47900E55A45597027901AB7F0A3F0901AB5F01C
:10B48900A3F0901AB3F0A3F0901AAFF0A3F0901ABA
:10B49900ABF0A3F0901AA9F0A3F002B5D090158DE6
:07B4A900E0F4700302B53B63
:10B4B000E0FF3395E0FEFDFC7B807AEE7936780084
:10B4C0001247EAAB58AA57A956A8551247CF8F6220
:10B4D0008E618D608C5FEC33501CE55A155A7002FA
:10B4E0001559E42562FFE5613484FEE560340CFD06
:10B4F000E55F342480317F007E847D0C7C24AB6248
:10B50000AA61A960A85FD31249154023055AE55ADC
:10B5100070020559E5629400FFE5619484FEE560E0
:10B52000940CFDE55F94248F628E618D60F55F85DC
:0BB530006258856157856056855F55A5
:10B53B00E47BE87A03F9F8AF58AE57AD56AC551229
:10B54B004875901AB91249C412AAD812ABB77B1816
:10B55B0012ABB9901AADEEF0A3EFF0E47B107A0EBC
:10B56B0012AADCE47B1812ABBA901AB312AAD1124E
:10B57B00ABB7901AB512AAD1AF03901AB7EAF0A3E2
:10B58B00EFF0AE59AF5A7C007D0712461F901AAEF2
:10B59B00E02FFF901AADE03ECF24A2CF34E0FE9017
:10B5AB001AB1F0A3EFF075660175671A7568AB7584
:10B5BB006901756A1A756BAF8E6CF56D7B017A1A22
:10B5CB0079A912D91BE55B14601E14606624027006
:10B5DB00747566FF7567CA756899901AAB12AC36AD
:10B5EB00901AA912AB55801F7566FF7567CA7568EF
:10B5FB00B3901AAF12AC36901AAB12AB55901AA986
:10B60B00E0F56DA3E0F56E12AC8E127A0312AC8EE0
:10B61B0012F1C2AB5CE55E2FF9E55D3EFA7566FF94
:10B62B007567CA7568A312AB4AA3E0F56DA3E0F585
:10B63B006E800F7566FF7567CA7568C212AB4A12CA
:05B64B00AC8E127A0331
:01B6500022D7
:02E772008D55C3
:10E77400AC07EC1241D89018A71249C4E555644679
:10E784006005E555B46628E4FBFAF9784012AC95C7
:10E794001240B37910784112AB8FE4FBFA79A07878
:10E7A400401240B3E4FBFAF97842123EB9800C12ED
:10E7B400AC95E4FBFAF978401240B39018A71249DB
:04E7C400C412AC953A
:01E7C800222E
:06D91B008B638A6489653C
:10D9210078BD7C1A7D017BFF7ACA79CC7E007F0CA1
:10D9310012454CAB69AA6AA96B740775F0D21247FC
:10D9410083D3E56D946DE56C64809481402C12ABBA
:10D951006E700CE56D646E7004E56C6401601BED26
:10D961004C7E0160047F6D80027F6EC312AC65AB9B
:10D9710069AA6AA96B12AC3E80C712AB6E700690A1
:10D981001ABE741DF0AB66AA67A968E4F5F01247E8
:10D9910083AB66AA67A9681246E824BDF582741AAA
:10D9A10035F0F583E0FF7E00D3E56D9F7480F86567
:10D9B1006C98400812AC6512AC3E80D512AC3EABFF
:0DD9C10063AA64A965E56C856DF0024783DB
:10BED3002530326420004C49535420454D50545969
:10BEE300002A004E6F205355004E6F20496E707527
:10BEF300747300472D466F7263657300496E7075E6
:10BF03007473004D656D2046756C6C00253032648A
:10BF1300004D454D2025644B2F25644B2C20256473
:10BF23002525004C4150532025642C205241544573
:10BF3300203130487A004C4150532025642C205244
:10BF4300415445203230487A004C415053202564F7
:10BF53002C2052415445203430487A0054656D708A
:10BF63002025332E32662046005265632054696DC6
:10BF7300653A2025322E316620487273005365736B
:10BF83007320417661696C3A20256400492F4F3A4A
:10BF930020412D2D2D2D20442D2D20462D2D0050BB
:10BFA3006F7765723A2025752525004E6F204C6109
:10BFB300707300436F6E7420256400474D54202531
:10BFC3002B303264004C6170486F6C6420253364FD
:10BFD30000302D36303A204E2F4100302D36303A86
:10BFE3002025312E3166005245444C4947485400C0
:10BFF30052543A2025312E326600312F383A2531FA
:10C003002E3266003630273A2025312E3266003331
:10C013003330273A25312E326600312F343A253119
:10C023002E326600402025312E31660047733A20B8
:10C0330025312E32660048503A204E6F2057740047
:0AC0430048503A2025312E316600E6
:03A5EF00011C014B
:10686E0090047EE493FF3395E0FE9004CB75F01216
:10687E00EF124A01EE75F012A42583F58322E0FE95
:10688E00A3E0FF9014A075F007124A01EE75F00711
:10689E00A42583F583E4F0FBFAF99014A475F007B0
:1068AE00EF124A01EE75F007A42583F583124A38DC
:1068BE009014A175F007EF124A01EE75F007A425AA
:1068CE0083F58322901F29124A2F90000812458BC0
:1068DE0075F007A4FFAEF090000A124A6190000412
:1068EE00E92FF9EA3EFA024A61E0FEA3E0FF9001C9
:1068FE00DB75F019124A01EE75F019A42583F583A4
:10690E00E0FCA3E0FD9001D975F019EF124A01EEFB
:10691E0075F019A42583F583E022901F29024A2FD2
:10692E00901465E0FF90047EE493FD3395E0FC90B7
:10693E0004CB75F012ED124A01EC227BFF90147A13
:10694E00124A387B007A0079002275610075620860
:10695E007563FF75640B7565A575662D7B7A7A0078
:10696E00E4FDFCFFFE22901898E475F0010246BC8F
:10697E007B017A0179C7900447E01313543FFF7EE1
:10698E0000901462E024FCFD901461E034FF22E0DC
:10699E00FCA3E0FDC4F8540FC868FFECC454F048E3
:1069AE00FE745D2FF58274053EF583E4F09014A01D
:1069BE0075F007ED124A01EC22900447E075F00CD9
:1069CE009001C7124A0112498C90046C1249C4906E
:1069DE000447E075F00C9001CB124A0112498C90DD
:1069EE0004701249C4900447E075F00C229000091F
:1069FE0012458BFF90188EE02FFFE433FE7C007D56
:106A0E000712461F90000A124A61E92FF9EA3EFA70
:106A1E0022C4F8540FC868FFE0C454F048FE744E08
:106A2E002FF974053EFA7B01227B017A0179C77535
:106A3E0060007561017F107E0222E4901465F07B88
:106A4E00017A0179C72235F0754D01F54E894F75E2
:106A5E0050007551102214FF90000802458B7B01E7
:106A6E007A147986901F2F124A387A1F792C901F2C
:106A7E0029024A38FF900447E0540375F0849001D0
:106A8E00C7124A01E5822FF582E5833EF5832290F7
:106A9E001898E0FEA3E0FFC32290147D124A3890AE
:106AAE001477124A3890147A024A387566FF756761
:106ABE00BF7568BE90158DE0FF3395E0F5698F6A5E
:106ACE007B01227BFF901474024A38124A2F740AFB
:106ADE002549F582E433F583229015AAE0F5FBE013
:106AEE00F5FC8F847566FF7567BF7568B6E024A0E8
:106AFE00F56AE434FFF5697B0122FFE433FE900072
:106B0E000602458B7BFF901477024A387B017A157B
:106B1E00793D7D807C002290044C12498C90044873
:106B2E001249A8C30249157566FF7567BF7568C817
:106B3E009015ACE0756900F56A7B012290000902A0
:106B4E00458B124B14A81E08124A26A81E08024A8C
:106B5E000D901496124A387A0379F590149D124AC4
:106B6E0038E490149CF090149BF090149AF09014CA
:106B7E0099F022EFF024FEFFE434FFFE9004E302CE
:106B8E004A2FC39DFFEE9CCF2401CF3400FEE0FCC4
:106B9E00A3E0FD9001C775F019024A017BFFE0FCEE
:106BAE00A3E0FD9014A475F007124A01EC22901494
:106BBE0065F090189A7401F02275F016124A01E0F1
:106BCE00FFA3E02275F028A42473F582E4340FF5B8
:106BDE0083E024FB22FAA3E0FB9001C9ED75F019C6
:106BEE00024A01E4F560F5617F107E0222900447AF
:106BFE00E0540375F084900247024A01124A2FEFC7
:106C0E009000070245FD901896E0FEA3E02212497F
:106C1E008C8F6C8E6B8D6A8C6922CD2FF563EE3D59
:106C2E00F5627D107C027F0222900447E09001D72E
:106C3E0075F01C024A0190147D024A382410F58228
:106C4E0074163EF58312498C9004480249C475F0BF
:106C5E0012A4244EF9740535F0FA7B0122E4901843
:106C6E0098F0A3F02290000EE0FF901463E0FCA3D6
:106C7E00E0FD9004BDE0FAA3E0FB227560007561B3
:106C8E00027F107E02227560007561047F107E0205
:106C9E0022755900755A0A7B917D027F0322124A92
:106CAE002FEF9000090245FDEF9000080245FDFC14
:106CBE00A3E0C39BFDEC9ACD2401CD3400CD2FFF74
:106CCE00ED3E22901AA8E0FF75F007A424A0F582ED
:106CDE00E43414F58322EF75F007A424A4F582E4BE
:106CEE003414F583124A38EF22CD2FF561EE3DF5BF
:106CFE00607F107E0222901465F090189B74022221
:106D0E00E4901824F0A3F02279207841E4FBFA02F3
:106D1E0040B3FF124A01E4F0A3F022901896E075FA
:106D2E00F004901614024A0190000A024A61900083
:106D3E0003024A612414F58274163EF583229015DF
:106D4E00E4E0C3940322E4901465F07B0122124028
:106D5E00B390182A0249C474FF9000080245B87512
:106D6E00F007A424A1F582E43414F58322E4900400
:106D7E009EF0A3F0900489F0A3F0227BFF7ABE79F7
:106D8E00F6755A2D7D24E4FF2212498C74FFFBFA0E
:106D9E00F9F8C302492BA804A905AA06AB07227B62
:106DAE00FF7A1C79257D2D2275F019024A01124AAF
:106DBE002FE94A4B22124B14A81E08024A26CF90E6
:106DCE0004A7F0A3EFF0229015C37428F022E0C4BC
:106DDE00F8540FC868FF227B017A1F790D227E00BE
:106DEE0012454C90189BE004F0229001C9E075F01A
:106DFE001622749B2FF58274183EF583E022124AF8
:106E0E00381B7A0079009003F92275F019A42583B6
:106E1E00F58302498C9000081245FD9004F2E0FFC4
:106E2E0022124A2F740A255522124A2F740A254D12
:106E3E0022E075F01CA424C7F9740122E0FEA3E041
:106E4E00FF7C0002461F7403F07C007D1502461F76
:106E5E00F559A3E0F55A2275F007A4F58285F08363
:106E6E002290000702458B90188EE0FF901893E059
:106E7E0022E49004A4F090048FF0229006D7E4F060
:106E8E00A32212498C90044C0249C47B017A0379E7
:106E9E00DB229015C37414F0229015C3740AF022ED
:106EAE00E4F0FBFAF9A3024A381249C47566FF22D0
:106EBE00E0FCA3E0FDE40241D39014657416F022C9
:106ECE009004ADE4F0A3229004ADE0FEA3E07802BE
:0B6EDE0022AF84E4F5849015AAE022A6
:10C5B0007B017A187997126BF112DDADE4901AA81D
:10C5C000F0901AA7F0901AA7E0FFC3941540030259
:10C5D000C68C75F019EF901897124A01E0FEA3E09F
:10C5E000F47002EEF4700302C683901AA7E090186C
:10C5F00099126BEBE0FEA3E0F47002EEF47003021C
:10C60000C683901AA8E0126C5C7566FF7567BE75EC
:10C6100068D3901AA7E02401FFE433F5698F6A120A
:10C620007A03901AA7E090189B126DB612498CC03D
:10C6300006C007901AA7E090189F126DB6E0126E20
:10C640005EE4F55B901AA8E075F012A42451F97429
:10C650000535F0755C01F55D895ED007D00612B432
:10C6600071126CD17406F07BFF7AD5796D126CE48F
:10C67000126C5C901AA8E0126D6D124A38901AA8DC
:10C68000E004F0901AA7E004F002C5C5901AA8E0F3
:10C69000FD9015EBF0D394035003E480069015EB66
:10C6A000E024FD9015EEF09015EBE070028002EDB5
:10C6B000149015EDF09015ECF0126CD1E4F0FBFA4B
:0AC6C000F9126CE4126D6D024A38A5
:106EE900151EA81EA605151EA81EA607E51E24F92F
:026EF900F51E84
:106EFB00E51C60307B017A147939126A7C1B7A00AD
:106F0B007900901F2C124A38901F2F124A38E490A8
:106F1B001F34F0901F33F0901F32F0901F36124A3F
:106F2B0038E4F51CE51E2407F8E614700302704DD7
:106F3B00046003027453126928126B0C70339000B7
:106F4B00061245FD126928126D36C003C002C0013E
:106F5B00126928126B0C126E65D001D002D003128D
:106F6B00458B600D12692890000674011245B8809C
:106F7B00D312F1FE126928126B4AB4FF030271128D
:106F8B00E4FF12E18D1269581298F1126928124A26
:106F9B004112F1C2C374149FFFE49EFE7C007D0678
:106FAB0012461F7D02124686A81EEFF6FD126928B7
:106FBB00124A41755A2DE4FF12D3E2126928126D61
:106FCB0036124572FFB40310126928E4126CB0E458
:106FDB00126CB7900007804BEF640260030271AA3A
:106FEB00126928126B4AFF126E6FFEC39F4013EF9C
:106FFB002402FDE433FCEED39DEC6480F87480989E
:10700B00403D126928126E6F126CB7126B0CFFD3D6
:10701B0094034009126928126A66FE7009126928E6
:10702B00900009E48016EF24FDFFEE14FEC39F5081
:10703B0004AF068000126928900009EF1245FD028B
:10704B0071AAE51E2408F8E670030274511470034C
:10705B000271FA24FE70030271B014607224FE7088
:10706B00030273BA24046003027453901477126DF5
:10707B00BC600F126928C003C002C00190147702D4
:10708B0070EE126928126B4AF47011126A66D3946F
:10709B00005003027453126D6502711212692812AB
:1070AB006B0C7003027453126A66FF126B4AFEC3B9
:1070BB009F50051269288011EED39400400E12697F
:1070CB002890000974FF1245B8126D650271AA90E1
:1070DB00147D126DBC6012126928C003C002C0017E
:1070EB0090147D124A2F0272F4126928126B4AF423
:1070FB007030126B0C126A64D39F400302745312EC
:10710B0069287401126D67126A6675F007A4FFAEE9
:10711B00F0126D369000011268EE7D2D12D86402CC
:10712B007453126928126B0CFF7003027453126BA9
:10713B004AFE126A66FDC39EC394025039EF24FFC8
:10714B00FFE434FFFEED2401FDE433FCC3ED9FEEC1
:10715B006480F8EC648098901F29500A124A2F1211
:10716B006A6604FF8008124A2F126B0C14FF126917
:10717B0028126CB68029126928126B4A2403126BF1
:10718B0008FDC3EF9D7480F86E9850131269289018
:10719B00000974011245B890000874011245B81229
:1071AB00B9FC02745390147A126DBC602F126928CB
:1071BB00C003C002C00190147A124A2F89828A83BD
:1071CB00D001D002D003126B50E94A4B700302740A
:1071DB0053126B59126A7C7D030273701269281269
:1071EB006D3C126A7CE4901465F07D030273389059
:1071FB001474126DBC602F126928C003C002C00149
:10720B00901474124A2F89828A83D001D002D00342
:10721B00126B50E94A4B7003027453126B59126A8A
:10722B007C7D01027370126928126D36E94A4B702E
:10723B0003027453126928126D36C003C002C001D9
:10724B00126928126A66FF126E65D001D002D00354
:10725B0012458B24FE602D24FE700302737424FEF2
:10726B00700302733C1460531470030273042407FD
:10727B006003027453126928EF1268DE126A7C7D78
:10728B0001027370126928126A66126C0EE4901474
:10729B0065F01268D8E94A4B601C126928C003C01C
:1072AB0002C0011269281268E589828A83D001D055
:1072BB0002D003126DC37D01027370126928126D27
:1072CB00C6901F2F124A387B01126A78126B591223
:1072DB0068D8E94A4B7003027453126B59C003C050
:1072EB0002C001126B591268E589828A83D001D0E2
:1072FB0002D003124B14027453126928126D3C1204
:10730B006A7C1268D8E94A4B601C126951C003C0F1
:10731B0002C0011269281268E589828A83D001D0E4
:10732B0002D003124B14E4901465F07D01FF02733D
:10733B00B41268D2E94A4B601C126928C003C00220
:10734B00C0011269281268E589828A83D001D002B4
:10735B00D003126DC3126B59E94A4B6006126B597D
:10736B00126A7C7D017F0080401269289015D6122D
:10737B004A381268D2C003C002C0019015DD124A10
:10738B002F900004124A91126928C003C002C00159
:10739B009015DD124A2F90000B124A917B017A1542
:0F73AB0079D3126A7C7D017F00126EE902745360
:1073BA00C2FDC2FE7BFF7A1279077D2D12D8649036
:1073CA001465E0FFC39405400CEFD39420500612D5
:1073DA006C7312CF82901465E0FF64056018EF6445
:1073EA001C6013EF6419600EEF641A6009EF641EE3
:1073FA006004EFB41F0612F0F812D6F012F11CE581
:09740A001E2404F8EFF630E7F34C
:10741300E4F559F55A7B937D027F0312C7D6E51E27
:107423002405F8E4F608F6E51E2405F8E6FE08E66A
:10743300FFE4FCFD7B407A9CF9F8D312491540D058
:0E744300E51E2405F80806E61870DC0680D960
:02745100B2FE89
:07745300E51E2409F51E22CD
:10B9FC00126928126B0C7034F5617562087563FF5F
:10BA0C0075640775655B75662D7B7AFA7D10FCFF96
:10BA1C00FE1298F17BFF7ABE79D912BB9AFD7BFF9F
:0CBA2C007ABE79D9755A5E7F0202D3E21F
:10BA380090188E7401F0126928126B0CFF7403C3FE
:10BA48009F50047F03800090188EE0FED39F400330
:10BA580002BB99126B4AFDEE2D126A0790FFF9128C
:10BA6800458B6403601A126928126B4AFF90188E7E
:10BA7800E02F126A64B5070890188F747EF080066C
:10BA880090188F742DF07BFF7A0779D59018901253
:10BA98004A38126928126B0CFFB401087BFF7A0A36
:10BAA80079B1804E90188EE0FE24FE601D14601F50
:10BAB80024027044126928126B4A7BFF70067A09C7
:10BAC80079BD80047A0879C98028EF640270291248
:10BAD8006928126B4AFDEE2D126B087C00B5070C25
:10BAE800ECB506087BFF7A0A793780067BFF7A096E
:10BAF8007943901890124A3890188EE075F008A48F
:10BB0800FDACF0756100756208901890124A2F8B91
:10BB1800638A64896590188FE0F5667B7A7A00E419
:10BB2800FFFE1298F11269281269FB90FFFA124A77
:10BB38006112BB9A901893F0126928126B4AFF9011
:10BB4800188EE0FE2F14FD126E6F6D702512692895
:10BB5800EFFDEE2D126A0790FFF912458BB4021221
:10BB6800126E7524F4FD7BFF7ABE79E4755A5E1275
:10BB7800D3E21269281269FB90FFFA124A61126E29
:10BB880075FD755A5E12D3E290188EE004F002BA81
:01BB98003E6E
:0FBB99002212F1C2EF75F006A4FFC3747A9F2247
:0658A7008B468A47894888
:1058AD00E490189AF09006C8E0700C7BFF7ABE79F0
:0758BD00E612F13E02603625
:1058C400AB46AA47A948126A66F549126A4D756043
:1058D400007561037F107E0212DDADE490189BF029
:1058E40090189BE0FFC394045028EF75F028A4FFA0
:1058F400AEF024C7F974013EFA7B01C001745B2F3A
:10590400F9740F3EA801FC7D01D0017F28126DECD3
:1059140080CEE490189BF090189BE0FFC394025053
:1059240028EF75F024A4FFAEF024F7F974023EFAD0
:105934007B01C00174F82FF974043EA801FC7D01B9
:10594400D0017F24126DEC80CE12686E124A2FE4CF
:10595400126C0E126878124A2F90000874031245D4
:10596400FD126C6B126A9D9410EE9402502F74C752
:105974002FF58274013EF583E0FF126933126883C8
:10598400124A2F901899E02409FD901898E03400E9
:105994008D82F583EF1245FD12697480C775590233
:1059A400755A127B987D027F0312C7D690153BE08F
:1059B40070FA126A3712DDAD9001C8E0900447F026
:1059C4009001CAE0540F90189BF09001C9E0900236
:1059D4009C126BC79004B7CFF0A3EFF09001C9E01D
:1059E40090029E126BC79004B9CFF0A3EFF0126D32
:1059F400F89002A0126BCA9004BBCFF0A3EFF09012
:105A040001CBE09004F2F09006E67401F0FB7A0119
:105A1400798BE5468547838548826401700A748BD7
:105A24006582700474016583700674142549F54910
:105A3400E549124AEA5A6D005A6D015DBE025DBE27
:105A4400035DBE045EE0055F03065F21075F9D08FA
:105A54005A6D095FC90A5FE60B5FF91460051560AA
:105A6400111660201700006036E549B40108900360
:105A7400D87401F08005E49003D8F0126132124921
:105A8400D00000000090047B1249D0000000009078
:105A940004961249D0000000009004811249D000FD
:105AA40000000090049A1249D00000000090048580
:105AB4001249D000000000126D7B9004ADF0A3F0F9
:105AC40090048B1249D0000000009004A01249D029
:105AD40000000000126E7F9004AF1249D000000055
:105AE400009004B31249D0000000009015ADE054BA
:105AF400E0FFC413540724FC601614601F146028CC
:105B0400240470309004341249D03F000000802EE9
:105B14009004341249D040000000802290043412D2
:105B240049D040A0000080169004341249D041208E
:105B34000000800A9004341249D03F800000901580
:105B4400ADE0540EC31324FE600C24027014126ED4
:105B5400897432F080129006D77403F0A37420F095
:105B64008006126E8974FAF0126C6B126A9D94842A
:105B7400EE94005019EF7802C333CE33CED8F91225
:105B84006D421249D0FFFFFFFF12697480DD126A73
:105B94004D126C8912DDAD126C3712498C9004578A
:105BA4001249C4900447E09001DB126C3E12498C08
:105BB40090045B1249C4900447E075F01C9001E125
:105BC400126BCA9004A5CFF0A3EFF0900447E075E0
:105BD400F010126C5FC003C001126E3F35F08B4DA4
:105BE400126A59D001D00312E874900447E075F0AA
:105BF4001090055D124A01E4F0E54964097017123A
:105C04006A4DF560126C9712DDAD1269C79001D12F
:105C1400126BCA126DCC12697E126CF712DDAD7470
:105C2400FFFFFEFDFC900457126B2E600F9004578B
:105C340012498CEC4D4E4F6003025CD67AF179AB7D
:105C4400126AD1E549901465B409057408F080031B
:105C54007409F0126C6B901898E0FAA3E0FBAE02A2
:105C64007802C333CE33CED8F9126A821249D000F7
:105C7400000000EBAE027803C333CE33CED8F9FB79
:105C8400AA06243BF58274003AF5831249D0000039
:105C9400000074372BF58274003AF5831249D00062
:105CA400000000126974901898E07004A3E0642066
:105CB40070A4126BFB1249D0FFFFFFFF90044C123B
:105CC40049D0FFFFFFFF12697E126C2812DFF90230
:105CD4005FF49003D8E0B4014D126C6B126A9D948A
:105CE40020EE94005033EF7803C333CE33CED8F98B
:105CF400FBAA062437F58274003AF5831249D000D2
:105D0400000000743B2BF58274003AF5831249D0ED
:105D14000000000012697480C390044C1249D0FF43
:105D2400FFFFFF025DA3126C6B901898E0FAA3E0EA
:105D3400FBC39420EA94005060EBAE027803C333B3
:105D4400CE33CED8F9243BF58274003EF583124954
:105D5400D000000000EBAE027802C333CE33CED8BD
:105D6400F9126A8212498CC004C005C006C00790AB
:105D74001898E0FEA3E07803C333CE33CED8F924D9
:105D840037F58274003EF583D007D006D005D004E1
:105D94001249C4126974025D2D126BFB126E907A63
:105DA400EC791B126AD1E549901465B4090674179D
:105DB400F0025FF47420F0025FF41261321249D0F1
:105DC4000000000090047B1249D000000000900401
:105DD400961249D0000000009004811249D00000BE
:105DE400000090049A1249D000000000900485122B
:105DF40049D000000000126D7BA31249D0000000BE
:105E0400009004A01249D000000000126E7F126CB2
:105E14006C126A9D9484EE94005019EF7802C33397
:105E2400CE33CED8F9126D421249D0FFFFFFFF12D4
:105E3400697480DD126A4D126C9412DDAD1269C76B
:105E44009001D1126BCA126DCC7BFF7AD379081200
:105E54006AD3E549B4020E9014657421F09003D816
:105E64007401F080659014657422F0E549B404046B
:105E74007F0180027F00900172EFF0E4900189F0CD
:105E8400A3F0900187F0A3F0900185F0A3F09001B6
:105E940083F0A3F0900181F0A3F090017FF0A3F0D0
:105EA40090017DF0A3F090017BF0A3F0900179F0D4
:105EB400A3F0900177F0A3F0900175F0A3F09001A6
:105EC40073F0A3F09003D87403F0126E897432F067
:105ED400126DD590189B7404F0025FF4E4FF12E194
:105EE4008D7406126BBC7A00791E126B127AD97902
:105EF400CE126C44126D4C5003026036025FDB74A8
:105F04000B126BBC7A00791E126B127AD979CE12FD
:0D5F14006C44126D4C5003026036025FDBDE
:105F21009018977402F0901897E0FFC39407501EE1
:105F31009004F2E0FEA807088002C313D8FC5401C4
:105F4100901896F07008901897E004F080D8901897
:105F510096E06037A3E0FFB40608901465740BF077
:105F61008013EFB405089014657411F08007EF24D5
:105F71000B901465F0126BC07BFF7A00791E126BD7
:105F8100147AD979CE126C440260367BFF7ABE79DD
:0C5F9100EC12F13E90146574E3026030E5
:105F9D009014657413126BBF7BFF7A00791E126B20
:105FAD00147AD979CE126C44E4FF12E18D1269583E
:105FBD001298F1126D8912D3E2026036E4FF12E1FC
:105FCD008D901465740A126BBF126D4C405B126993
:105FDD00517F01124C35026036E4FF12E18D1269DA
:105FED005812614C740CF0126BC0803DE4FF12E14D
:105FFD008D7425126D04802BE4FF12E18D74241233
:10600D006D04801FE4FF12E18D9014657423126DF1
:10601D00078010E4FF12E18D12695812614C74264D
:09602D00126D07F0E490189AF0DE
:1060360090189AE06042E49004F5F0A3F09001BC59
:10604600F0A3F09006E604F090001E04F0A3740F8F
:10605600F0754D01754E04754FBD7B017A14796359
:10606600129E5690000EEFF0700E7BFF7ABF7906F7
:1060760012F13EE4901465F0901465E0FF7003029F
:02608600612A8D
:10608800126933126883126C0A90189BE0FF126938
:106098003D126883124A2F126CB69004F2E0FF1288
:1060A800693D126883126CACE4F549E549126BD27C
:1060B800600E24FB701412686E126AD97403801281
:1060C80012686E126AD97402800812686E126AD950
:1060D80074041245FD0549E549640470CE126DF853
:1060E80090029C124A01E0A3E0540FFF1269331298
:1060F8006883124A2F90000EEF1245FD126DF8903A
:10610800029E124A01E0FEA3E0FF12693D12688375
:10611800124A2F90000FEE8FF01247A2126C9F12B6
:02612800C7D6D8
:07612A007ABD794E126949AC
:10613100227BFF7A0C794F7D2D12D864E49004A95B
:10614100F0A3F0A3F0A3F0900490221298F17BFF4A
:106151007ABE79FF755A2D7D2AE4FF12D3E290149D
:026161006522B5
:10ED96008B468A478948E4901465F0FFFE12EA3AEA
:10EDA600901462E024FB126995FC7B017F057E00CE
:0FEDB60012DEDC12745AE4FF12E18D126E992204
:10EF76008B468A478948E4901465F0901462E02431
:10EF8600FF126995FC7B01E4FFFE12DEDC12745A67
:09EF9600E4FF12E18D126E9922D4
:10F17A008B468A478948E4901465F07F011281D44E
:09F18A00E4FF12E18D126E9922DE
:06E59B008B498A4A894BFE
:10E5A1007B017A1A79AA126A3D12DDAD900008E06A
:10E5B100901AAAF0900016E0901AABF09006E0E0F5
:10E5C100901AACF0A3E054F0F09015C3E024D860A9
:10E5D1000D24147010901AADE02402F08007901AF7
:10E5E100ADE02404F07B017A1A79AA7562007563A3
:0FE5F10001126C307E0012DFF9AB49AA4AA94B28
:01E6000022F7
:10F019008B468A478948126A6624FE600804700A8A
:10F02900126EA08008126DD58003126EA712E59B9F
:07F03900AB46AA47A94822DB
:06D22E008B468A47894887
:10D23400126D547A187996F560126A4012DDAD9039
:10D244001896E0900008F0901898E09006E0F090AE
:10D254001897E0900016F0E4901AA8F0A3F0901A42
:10D26400A6F0A3F0901AA6126AA0940CEE6480941F
:10D2740080400302D2F9EF126DDDEEC454F048FE93
:10D28400126E00F46066126E006061901AA9E0905C
:10D294001AA8126A1FC003C001901AA7126DDC906D
:10D2A4001AA6E0C454F048FE749B2FF974183E8B00
:10D2B4004D126A59D001D00312E874901AA8126969
:10D2C4009D1268C97402F07AE5799B901AA8126BD2
:10D2D400AA1268C9124A38126A2C9014A11269BEA3
:10D2E4001268C9124A38901AA8126977901AA612BD
:10D2F400697702D268901AA812688C124A380B7A9D
:03D30400007901AC
:01D307002203
:06CDB3008B468A47894807
:10CDB900126D547A187996F560126A4012DDAD90B9
:10CDC9001896E0900008F0901898E09006E0F0902E
:10CDD9001897E0900016F0E4901AA8F0A3F0901AC2
:10CDE900A6F0A3F0901AA6126AA0940CEE6480949F
:10CDF90080400302CE8D90195B75F016EF124A013F
:10CE0900EE75F016126921F46071901AA6A3E090EC
:10CE1900195B75F016124A01EE75F0161269216058
:10CE29005A901AA9E0901AA8126A1FC003C001906B
:10CE39001AA67D16126E4A745B2FF974193E8B4D32
:10CE4900126A59D001D00312E874901AA812699D88
:10CE59001268C97402F07AE5799B901AA8126BAA34
:10CE69001268C9124A38126A2C9014A11269BE12AA
:10CE790068C9124A38901AA8126977901AA61269D5
:10CE89007702CDED901AA812688C124A380B7A06EF
:02CE990079D945
:01CE9B002274
:06CBD0008B468A478948EC
:10CBD600126D547A187996F560126A4012DDAD909E
:10CBE6001896E0900008F0901898E09006E0F09013
:10CBF6001897E0900016F07B017A187996126C89E6
:10CC060012DDADE4901AA8F0A3F0901AA6F0A3F0F6
:10CC1600901AA6126AA09410EE64809480400302D3
:10CC2600CCB790189675F01CEF124A01EE75F01C01
:10CC3600126921F46072901AA6A3E0901896126CFD
:10CC46003EEE75F01C126921605E901AA9126DDC29
:10CC5600901AA8126A26C003C001901AA67D1C125B
:10CC66006E4A74962FF974183E8B4D126A59D0018C
:10CC7600D00312E874901AA812699D1268C974024A
:10CC8600F07BFF7AE5799B901AA8126BAC1268C903
:10CC9600124A38126A2C9014A11269BE1268C9127F
:10CCA6004A38901AA8126977901AA612697702CCA8
:0FCCB60016901AA812688C124A380B7A00790F60
:01CCC500224C
:06E601008B468A478948A0
:10E607007B017A187996126A3D12DDAD901896E073
:10E61700900008F0901898E09006E0F0901897E0C6
:10E62700900016F0901899E0540F24FC600E240215
:10E637007014126EA09006D274018011126DD590DD
:10E6470006D274028007126EA7E49006D2F09006F5
:08E65700D1F07B017A0679CABB
:01E65F002298
:10EFF1008B468A478948126A669015AD7006E044CF
:10F0010001F08004E054FEF012EDC5126B1A12E318
:08F01100EEAB46AA47A9482214
:10F08C008B468A4789489015ADE030E006E4900144
:10F09C00A480059001A47401F09001A3F07B017A87
:04F0AC0001799C2228
:10F067008B468A47894890043FE025E0FF9015AD1D
:10F07700E054F14FF012EDC5126B1A12E3EEAB46F6
:05F08700AA47A9482280
:10EE78008B468A4789489015ADE0540EC313900419
:10EE880040F090043FF0E0D394024008A37401F0EE
:0BEE980090043FF07B017A04793822DF
:10EF9F008B468A4789489015CBE02402C43354E04E
:10EFAF00FF9015ADE0541F4FF012EDC5126B1A1202
:09EFBF00E3EEAB46AA47A9482283
:10E914008B468A4789489015ADE054E0C4135407E8
:10E9240024FC60101460141460182404701BE49018
:10E9340015CC801A9015CC740280139015CC7403F6
:10E94400800C9015CC740480059015CC7401F09063
:0AE9540015CBF07B017A1579C4227F
:100003008B4C8A4D894EE4901465F0FBFAF9126A21
:0B001300B312C5B07B017A1579E5221D
:06D56D008B498A4A894B3C
:10D57300126A48126BF212DDADE4901AABF0A3F01D
:10D58300901AA9F0A3F0901AA9126AA09415EE6458
:10D59300809480504F9001C7126916FEA3E0F47087
:10D5A30002EEF46037901AA9E0FEA3E09001C9757A
:10D5B300F01912691AFEA3E0F47002EEF4601DABD9
:10D5C30049AA4AA94B126A66FF901AABE475F001A7
:10D5D3001246D2FCE5F06F7001EC6008901AA912B4
:10D5E300697780A2126B8A12F1C2901AABEEF0A394
:10D5F300EFF0126B8AEF24FEFFEE34FFFE126A187F
:10D603007566FF7567BF75680F901AAAE02401F568
:10D613006A901AA9E03400F569127A037BFF7A0055
:0BD623007903126AB37B017A0479E3FB
:01D62E0022D9
:068FD9008B468A4789481F
:108FDF00E4901465F07B017A147966901493124A29
:108FEF00387A0479E3126B5F901896F0A3F0126C45
:108FFF0014FF9003F575F0071268C5126E54126ACC
:10900F002C126C14FF9003F675F0071268C5126EE0
:10901F000C1268C1124A38901896126977901896F8
:10902F00E07004A3E0640870C590042D126EAE903A
:10903F000431124A38126B8A12F1C2901896EEF070
:10904F00A3EFF0126B8AEF24FEFFEE34FFFE126ADD
:10905F001812DA81EF24FFFFEE34FF901896F0A379
:10906F00EFF07B017A167914126C14FF901462E002
:10907F002FFF901461E03ECF24E7F561EF34FF122C
:10908F006CFD12DDADE49018A1F0A3F09018A112C1
:10909F006AA09484EE9400501AEF7802C333CE3353
:1090AF00CED8F9126D42126D9760089018A112690F
:1090BF007780D9126A4D126BF112DDAD126C14FF6D
:1090CF009001DD75F01912691A901898F0E0D39499
:1090DF000C4002E4F09001DF126916901899F0E04D
:1090EF00D394104002E4F0126C149001DE75F01965
:1090FF0012691A90189AF0E0D3940C4002E4F0121F
:10910F006C14FF9001C775F01912691AFDA3E09056
:10911F00189BCDF0A3EDF09001CB75F019EF124A2B
:10912F0001EE126E18901896E0FAA3E09001CF129C
:10913F006BA4EA12691E126E5E755B017A0579A245
:10914F00755C01755D05755EA212B471901896E09D
:10915F00FAA3E0FB9001D1126BA4EA126E189001F2
:10916F00D575F019EB124A01EA12691E126E5E757F
:10917F005B017A0579B7755C01755D05755EB71290
:10918F00B4719018961268F7FEA3E0901896126BC0
:10919F0090EC12691E126BE3EC12691E126CBDFE8D
:1091AF00E4FCFD90189D126EB77567BF756814E4E7
:1091BF007B02FAF9F890189D12498C1248758E6946
:1091CF008F6A901461E0C313F56BA3E013F56CE4A1
:1091DF007F64FEFDFC90189D1249A81247EAC00655
:1091EF00C007901461E0FEA3E0FBAA06E4F9F8D0F3
:1091FF0007D0061248758E6D8F6E7B017A05798DBB
:10920F00127A03126C149001D775F01912691A545F
:10921F000F24FE601314601014601880007566FF31
:10922F007567BF75682680147566FF7567BF7568AB
:10923F003980097566FF7567BF75684C9018A1E096
:10924F00F569A3E0F56A7B017A0579CC127A0312EE
:10925F006A3712DDAD901898E075F010A424CCF9A0
:10926F007401126A547B017A05794E12E874E49006
:10927F00055DF090189AE075F016A4248CF974022D
:10928F00126A547B017A05796312E874E4900572CF
:10929F00F0126A4DF560126C8C12DDAD90189912B8
:1092AF006E3F126A547B017A05797812E874E49064
:1092BF000587F0126A4D90189BE0F560A3E0126BE2
:1092CF00F412DDAD90020EE0FE3395E0901896F0AB
:1092DF00A3CEF090020EE0FF7D4612E7729018A326
:1092EF00126EB77567BF75685F9018A3126C1C7B01
:0E92FF00017A0579E1127A037B017A147993E2
:01930D00223D
:06930E008B248A2589264C
:10931400858427E4901826F0A3F0A3F0A3F0F528A1
:10932400901465F0F584C2EDD2EC7BFF7A04798069
:10933400901493124A387B017A147939126B5F12B4
:109344006D0F901824E0FEA3E0FF9003F575F0077D
:109354001268C5126E54126A2C901824E0FEA3E021
:10936400FF9003F675F0071268C5126E0C1268C1FF
:10937400124A38901824126977901824E07004A3D4
:10938400E0640470BD900411126EAE900415124A8C
:10939400388527840B126A3912DDAD9001CBE09039
:1093A40004F2F0126A4D126BF112DDAD126D0E90E3
:1093B4001824126AA09415EE940050449001C71228
:1093C4006916FEA3E0F47002EEF4602B90182812E4
:1093D40069779018241268F7FEA3E0901824126BA2
:1093E40090EC12691E126BE3EC12691E126CBD90B4
:1093F40018268FF01246BC9018241269770293B392
:10940400126D0E901824126AA09407EE9400502452
:1094140074017E00A807088005C333CE33CED8F983
:10942400FF9004F2E0FDEF5D60020528901824121D
:10943400697780CFE528FD7C009015C3E0FF7E00AE
:1094440012461FAC06AD07E41241D3C004C005C0E8
:1094540006C007901435126EBE126DA4D007D00654
:10946400D005D004126D5C90182A1249A8C000C01F
:1094740001C002C0039015C3E0FCE41241D8126D90
:1094840016126D16D003D002D001D000123EB912CC
:109494006D5F90182A12498CE4FBFA7961784512C1
:1094A4003FAA126D5F901462E024E1FF126996FEF8
:1094B400901826E0FAA3E0FBC39FEA9E400C9018A4
:1094C4002A1249D000000000801E901462E024E6B5
:1094D400FF126996CFC39BFDEF9AFCE41241D3902F
:1094E400182A1249A8126D5C7566FF7567BF756806
:1094F4006C90182A126C1C7B017A05794E127A033F
:109504007566FF7567BF756880901828126AA07425
:10951400159FF56AE49EF5697B017A057963127AF1
:10952400037566FF7567BF75688F901828E0F56945
:10953400A3E0F56A756B157B017A05798D127A03C0
:10954400126D0E901824126AA09404EE9400503BFD
:10955400EF2402FF74017E00A807088005C333CE00
:1095640033CED8F9FF9004F2E0FDEF5D601590185A
:1095740024A3E0FF2430FE74932FF582E43405F530
:1095840083EEF090182412697780B89004F2E0FF1B
:1095940030E6099005997434F0A304F0EF30E70E37
:1095A40090059C7452F0A37450F0A3744DF0E4F54C
:1095B40084126D0F20ED11901824126977FED3E503
:1095C400F09410EE942740EC90182EE5BFF0A3E53C
:1095D400BEF0852784E02412FF90182EE034FDFEAF
:1095E4007C007D6412461F7DFA124631901824EEE9
:1095F400F0A3EFF07566FF7567BF7568A28E69F515
:109604006A7B017A057978127A037B017A1479935B
:019614002233
:06EC56008B468A47894845
:10EC5C00126A48126BF212DDAD126B8A12F1C2907D
:10EC6C001896126B81126A1812DA81901896EFF0CE
:10EC7C00D394155005E0FF12C8DD12C5B07B017AA4
:03EC8C001579E512
:01EC8F002262
:06BD4E008B518A5289535B
:10BD5400901465E0FF6406600AEF640B6005EF640D
:10BD64000A706C7B017A18799C126C9412DDAD9088
:10BD7400049612498C1269F390189C124A011249D4
:10BD8400C490046C1249C490049A12498C1269F349
:10BD94009018A0124A011249C49004701249C49028
:10BDA40004ABE0FEA3E0FF1269F39018A6124A0167
:10BDB400EEF0FEA3EFF0FFEE126DCD7B017A187961
:10BDC4009C756200756304126C307E0012DFF9907A
:10BDD4001465E0FFC394054021EFD39420501B90D9
:10BDE40004F2E0600F9004BDE0FCA3E0FD7F017E5F
:10BDF4000012E290126C7312CF82901465E0FF641B
:10BE0400056018EF641C6013EF641E600EEF641F7E
:10BE14006009EF64196004EFB41A0612F0F812D640
:10BE2400F0126D547A18799CF560126A4012DDADF7
:10BE340090189FE0540F24FC600C24027010126EC2
:10BE4400A0755402800E126DD57554048006126ECE
:10BE5400A7E4F55412692E126883126C0A12693D24
:10BE6400126883124A2FE554126E2312693D126838
:10BE740083126CACE4F555E555126BD2602224FBB9
:10BE8400601124F6702812686E126E2F126AE07424
:10BE940004801812686E126E2F126AE07403800B0D
:10BEA40012686E126E2F126AE074021245FD055577
:10BEB400E555640470C1126C9F12C7D61269511201
:0EBEC4006AA7126AD3AB51AA52A953126D3C61
:01BED200224D
:10F1AB008B4A8A4B894C126D4C40081269517F0176
:07F1BB00124C3512695122CC
:10F210008B528A5389541269517F02124C351269FC
:02F22000512279
:06BBA8008B248A2589268A
:10BBAE00901435E0FCA3E0FD126A4D901463E0F5AD
:10BBBE0062A3E0F5637F027E0012DFF99004AF12FC
:10BBCE0049D000000000E49004ADF0A3F012697EAD
:10BBDE00126CF712DDADE4FBFAEBAE027802C33362
:10BBEE00CE33CED8F9126A821249D0000000000B73
:10BBFE00BB00010AEB64204A70DF126BFB1249D0C6
:10BC0E00FFFFFFFF12697E126C2812DFF9126A4DD8
:10BC1E00126C8912DDAD900447E075F01C9001DBCB
:10BC2E00124A011249D00000000090045B1249D064
:10BC3E0000000000126C371249D000000000900482
:10BC4E00571249D000000000900447E075F01C9098
:10BC5E0001DF126D2075F01CEF9001E1126D219045
:10BC6E0004A5F0A3126A4CF562756302126C30FEE5
:10BC7E0012DFF9126A4D126C9412DDAD1269F39057
:10BC8E0001CB124A011249D000000000900470123C
:10BC9E0049D0000000001269F39001C7124A011248
:10BCAE0049D00000000090046C1249D00000000042
:10BCBE00900447E075F00C9001CF126D2075F00CDA
:10BCCE00EF9001D1126D219004A7F0A3126A4CF5EA
:10BCDE0062756304126C30FE12DFF9901435E0FECB
:10BCEE00A3E0FF126A4D901463E0F560A3E0F561E6
:10BCFE0012DDAD7BFF7ABD794E126AB3901465E00A
:10BD0E00FFB4020F7AF179AB126AD39014657409FD
:10BD1E00F08024EFB403117BFF7AF179AB126AD372
:10BD2E009014657408F0800F126951126AD3126D67
:0FBD3E00AD12D864126EC7126A6C1B7A007900BE
:01BD4D0022D3
:10EB56008B4E8A4F89507BFF7ABD794E126AB37A03
:10EB6600EC791B126AD3901465E024FD600B0470E7
:10EB7600109014657420F080119014657417F0805D
:10EB860009126DAD12D864126EC7126A6C1B7A0038
:03EB9600790022E1
:10EC1B0090145512694E126AD37BFF7AEB79561218
:10EC2B006AB3901465E024E9600C24F7701090141B
:10EC3B00657402F0800E9014657403F080069014D6
:0BEC4B00657401F07B017A14795222FD
:06C6CA008B468A478948F7
:10C6D0009014657427F0126ECE04F090044C124949
:10C6E000D0FFFFFFFFE4900450F0126B8A12F1C2FA
:10C6F000901896126B81126A1812DA81901896EFD0
:10C70000F0D3941550227B017A167914901462E0CC
:10C7100024E6FF126996FE901896E07C002FF561E2
:10C72000EC3E126CFD12DDADE4901896F090189678
:10C73000E0FFC39484502C75F004EF126D30126D3D
:10C7400097602090044C12498C126D291249A8C39D
:10C7500012492B5006126D29126E90901896E00423
:10C76000F080CA901896E0900450F0700B7BFF7A2E
:10C77000BF79AE12F13E80567BFF7A007926126BAC
:10C78000147AE979A8126C44901614126C53900331
:10C79000D87403F0E4FF12E18D75610075620E75C7
:10C7A00063FF75641975659B75662D7B517A007DF5
:10C7B000097C007F157E001298F112C33312EACB78
:10C7C000126B2570047F0180027F0012EF227AF144
:05C7D000795F126949C8
:01C7D5002241
:10E9A8008B498A4A894B900450E0FF9004ADE0B44B
:10E9B800000CA3E0B50707126ECE04F080069004A1
:10E9C800AD126977126ED5C333CE33CED8F9126C37
:10E9D8004A12C33312EACB126B2570047F018002FE
:09E9E8007F0012EF221269512296
:100026008B498A4A894B9004ADE07004A3E06401D1
:10003600700C900450E0FF126ECEEFF0800A900430
:10004600AD74FFF5F01246BC126ED5C333CE33CE77
:10005600D8F9126C4A12C33312EACB126B2570041C
:0D0066007F0180027F0012EF2212695122FB
:10F15F008B498A4A894BE4901465F0FBFAF9126ADD
:0BF16F00A7AB49AA4AA94B126D3C2235
:04001E0012D9CE2203
:10D9CE008B4A8A4B894C901465E0124AEAD9FA06C2
:10D9DE00DA5E0BDA0A0DDA1A0EDA290FDA3810DAF5
:10D9EE004711DA5612DA77130000DA7D9004F2E06E
:10D9FE0030E209901465740DF002DA7D9004F2E0C5
:10DA0E0030E309901465740EF002DA7D9004F2E0B2
:10DA1E0030E408901465740FF080549004F2E030F6
:10DA2E00E5089014657410F080459004F2E030E63D
:10DA3E00089014657411F080369004F2E030E60818
:10DA4E009014657412F08027901465740BF0801F8B
:10DA5E009014657413F0E4FF12E18D126958129858
:10DA6E00F1126D8912D3E280069014657406F012DD
:03DA7E00695122C9
:06EECE008B498A4A894BC2
:10EED400126EDF04F0D3947440037474F0126AE782
:10EEE4007A1879A3127A037B017A1879A312F13E76
:03EEF4001269514F
:01EEF70022F8
:06EEF8008B498A4A894B98
:10EEFE00126EDF14F0C3944C5003744CF0126AE798
:10EF0E007A1879A3127A037B017A1879A312F13E4B
:03EF1E0012695124
:01EF210022CD
:10F0B0008B498A4A894BE4901465F012EDC5126BB6
:10F0C0001A12E3EE126951126AA7AB49AA4AA94B78
:04F0D000126D3C225F
:06EB99008B468A47894803
:10EB9F00E4901465F07566FF7567BF7568B69015DC
:10EBAF00AA126AFB7A187996127A037B017A18797E
:10EBBF009612F13E7BFF7AEE79CE126B147AEE79D4
:0BEBCF00F8126C447AF079B012694B28
:01EBDA002218
:060076008B498A4A894B08
:10007C0090158DE004F0D36480948C4003740CF0E4
:10008C00126AB97A1879A3127A037B017A1879A3C8
:06009C0012F13E12695151
:0100A200223B
:06EDF3008B498A4A894B9E
:10EDF90090158DE014F0C364809474500374F4F09A
:10EE0900126AB97A1879A3127A037B017A1879A35D
:06EE190012F13E126951E6
:01EE1F0022D0
:06ECC7008B468A478948D4
:10ECCD00E4901465F0126AB97A187996127A037B7A
:10ECDD00017A18799612F13E7BFF7A007976126BE4
:0FECED00147AED79F3126C447AF079B012694B16
:01ECFC0022F5
:06EE4C008B498A4A894B44
:10EE52009015ACE0240AF0D394F0400374F0F01261
:10EE62006B357A1879A3127A037B017A1879A31287
:05EE7200F13E126951A0
:01EE77002278
:06ED65008B498A4A894B2C
:10ED6B009015ACE0D3940A5004E4F080079015ACF6
:10ED7B00E024F6F0126B357A1879A3127A037B0133
:0AED8B007A1879A312F13E126951C3
:01ED9500225B
:06ECFD008B468A4789489E
:10ED0300E4901465F0126B357A187996127A037BC6
:10ED1300017A18799612F13E7BFF7AEE794C126BE9
:0FED2300147AED7965126C447AF079B012694B6D
:01ED320022BE
:06D308008B4A8A4B894CA0
:10D30E00901465E064217033126DAD12D86474FF11
:10D31E00FFFEFDFC90046C126B2E600C90046C12E0
:10D32E00498CEC4D4E4F700512695180067BFF7A89
:10D33E00EC791B126AD3126EC7802D75610075626F
:10D34E00207563FF7564177565BF75662D7B3B127F
:10D35E00696C1298F19014657415F0E4901446F00F
:10D36E00A3F0FBFAF9126AD312692E126883126CBB
:10D37E000A12693D126883124A2F7404126E231228
:10D38E00693D126883126CACE4F54DE54D126BD21B
:10D39E00602224FB601124F6702812686E126E371C
:10D3AE00126AE07404801812686E126E37126AE008
:10D3BE007403800B12686E126E37126AE0740212DA
:10D3CE0045FD054DE54D640470C1126C9F12C7D624
:03D3DE0012695180
:01D3E1002229
:10EEA3008B468A4789489015B7E004700BE49001BC
:10EEB30041F0900140F0800C9015B7E0900141F0D3
:0BEEC300900140F07B017A01793922B8
:10EFC8008B468A478948126A66FF70089015B7749D
:10EFD800FFF080059015B7EFF012EDC5126B1A120D
:09EFE800E3EEAB46AA47A948225A
:10F0D4008B468A4789489015ADE030E406E49016E3
:10F0E4000F800590160F7401F090160EF07B017AD4
:04F0F4001679072260
:10E37E008B468A478948126A661470099015ADE07B
:10E38E0054EFF080079015ADE04410F012EDC51279
:10E39E006B1A12E3EE9006C8E0603E9001B7E0C340
:10E3AE0094C840359015ADE030E4047F0080027FC4
:10E3BE0001126933126883126C0AAB46AA47A94848
:10E3CE00126A6670047F0180027F007559008F5AB1
:10E3DE007B947D027F0312C7D6AB46AA47A948227B
:069615008B528A538954B8
:10961B00901465741FF0126951126AD3E4FF12E1C2
:10962B008D900175E07002A3E0700B7BFF7ABF7920
:10963B00D4755A2D80137566FF7567BF7568DE90FC
:10964B000175129837755A2DE4FDFF12D3E2C390C2
:10965B000183E06480948050087BFF7ABF79EA80B5
:10966B003A900183E0FCA3E0FDEC1241D3901F097B
:10967B001249C4901F0912498C79C87842126D1A8D
:10968B00901F09126EB77567BF7568F3901F0912AB
:10969B006C1C126DE5127A03126DE5755A2D7D3D2A
:1096AB00E4FF12D3E27566FF7567BF7568FD900125
:1096BB007B129837755A2DE4FD7F0112D3E2756644
:1096CB00FF7567C0756807900173129862755A2D04
:1096DB00E4FD7F0312D3E27566FF7567C0756812F0
:1096EB00900179129862755A2D7D3D7F0312D3E25A
:1096FB00900172E0602BE4901F24F07566FF756794
:10970B00C075681D90017D12988D1298E37567C026
:10971B007568279001811298B8755A2D7D3D029777
:10972B0055901F24743DF07566FF7567C075682FE3
:10973B0090018512988D1298E37567C07568279014
:10974B00017F1298B8755A2DE4FD7F0212D3E29077
:10975B0004B7E0FEA3E054F0FF901F22EEF0A3EF5E
:10976B00F04E700CA3E0FD7BFF7AC0793902982B89
:10977B00901F22E0C4F854F0C868FCA3E0C4540F57
:10978B0048FDE41241D3E4FBFAF97840123FAA906A
:10979B001EF91249C490017B126EBEE4FBFA79C824
:1097AB0078421240B3901EFD1249C4E4FBFA798053
:1097BB007840901EFD12498C1240B3901F01124944
:1097CB00C4901F0112498C126DA4123FAA901F0165
:1097DB001249A8123FAA126DA4901EF912498C12BD
:1097EB0040B3901F051249C4E4FFFE7D207C4190DD
:1097FB001F051249A8123FAA12420C900187EEF0E6
:10980B00A3EFF07566FF7567C0756843901F05126F
:10981B006C1C126DE5127A03901F24E0FD126DE5AE
:08982B00755A2D7F0212D3E2F1
:0398330012695166
:1098360022E0FCA3E0FDE41241D3E4FBFA79C87808
:10984600421240B38F6C8E6B8D6A8C697B017A1FD6
:10985600790D127A037B017A1F790D22E0FCA3E0D1
:10986600FDE41241D3E4FBFA79C878421240B38F83
:109876006C8E6B8D6A8C697B017A1F790D127A0367
:109886007B017A1F790D22E0FCA3E0FDE41241D3AF
:10989600E4FBFA79C878421240B38F6C8E6B8D6AFE
:1098A6008C697B017A1F790D127A037B017A1F7905
:1098B6000D22E0FCA3E0FDE41241D3E4FBFA79209B
:1098C60078411240B38F6C8E6B8D6A8C697B017AFE
:1098D6001F790D127A037B017A1F790D22755A2D95
:0B98E6007D3D7F0112D3E27566FF227A
:10EA830025303275200025303375004869742053D2
:10EA9300454C45435420466F7220446174610048DD
:10EAA30069742053454C4543542061742046696E74
:10EAB300697368002A2046696E697368204C696E21
:08EAC3006520536574202A0050
:107E160075610075620EE47B0AFAF9F8901EF91294
:107E2600498C12EB12AC00AD01AE02AF03E47B103D
:107E3600FAF9F81247EA74B82FF974243E7563FF0D
:107E4600F56489652290049612498C900447E07582
:107E5600F00C9018C5124A011249C490046C1249DC
:107E6600C490049A12498C900447E075F00C90185F
:107E7600C9124A011249C49004701249C49004AB55
:107E8600E0FEA3E0FF900447E075F00C9018CF12D7
:107E96004A01EEF0FEA3EFF0FF9004A7EEF0A3EF89
:107EA600F07A1879C57B017562007563047D107CD4
:107EB600027F027E002212498CEC1241CEE4FBFACC
:107EC60079B47833123FAA901EF51249C4900496ED
:107ED60012498CEC1241CE79B47833E4FBFA023FB6
:107EE600AA90045712498C9015BD1249C490045BA0
:107EF60012498C9015E01249C49004A5E0FFA3E056
:107F0600901437CFF0A3EFF022E4F9F8901EFD129B
:107F1600498C12EB127B3CE4FAF9F812EB12AC0036
:107F2600AD01AE02AF03901EF91249C4C3740995A0
:107F360052FDE49400FC227561007562087563FFCA
:107F460075642A75658075662D7B087A007D177CB9
:107F56000022900448E47B0AFAF9F802498C90184A
:107F6600BDE0FCA3E0FDEC0241D390046C12498C09
:107F76009015BD1249C490047012498C9015E00208
:107F860049C475F008EB90003B124A0112498C7502
:107F9600F008EB900037024A017F5C7E0F7DCB90A4
:107FA60004AF1249A8024150901437E0FEA3E0FF47
:107FB6009004ABE0FCA3E0C39F22901474124A38ED
:107FC60090044802498C9018B712498CA804A90558
:107FD600AA06AB072275610075620875662D7B06D9
:107FE600227D207C41E4FFFEAB55AA54A953A8523A
:107FF600227B017A0179C7900447E01313543FFFAF
:108006007E00901462E024FCFD901461E034FF22AF
:108016009016141249C47B017A1879C575600075EB
:1080260061047F107E0222EEF0A3EFF07F177ED967
:108036007DB27C419018C11249A8023FAA75610021
:108046007562087563FF2274FFFFFE90044CFDFC09
:108056001249A8C30249151249C490049A12498CC0
:10806600900447E02275F01C124A01EEF0FEA3EFE1
:10807600F09004A5FFEEF0A3EFF0221249C490049D
:10808600ABE0FEA3E0FF900447E0229003D7E0FBBD
:1080960075F00890003B024A0175610075620E7525
:1080A60063FF75641975659B75662D7B517A002291
:1080B6001249C49003D7E004F0227B007A007900CD
:1080C600901474024A38AB52AA53A95412458BFD38
:1080D6007C00024572AF55AE54AD53AC522275F0DA
:1080E6001C124A010249C4E4FAF9F812498C02EB5F
:1080F60012E49003D7F09001A9F0229004AF124940
:108106008C02420C12420C7C007D0A0246869015B7
:10811600C1E0FEA3E0FF221240B390189C0249C4BE
:108126009004ADE0FEA3E02275640875654F7566A0
:108136002D7B7A227564297565E475662D7B02228E
:10814600741E901465F07BFF22FFEC9EFEC3E49F35
:10815600FFE49EFE22A42DFFEC35F08FF00247834C
:108166001246E8FFAEF0EE229004ABA3E09FFFECD0
:108176009EFE2290046C12498CEC4D4E4F229004C8
:10818600ADE094002275640775655B75665E2275C1
:10819600610075620A7563FF227D017E007F15020C
:1081A600454C123FAA9018B70249C412498C0241A5
:1081B600BD75F004901614024A01900447E054037A
:0E81C60075F08422901EF91249C4901EF92211
:10C33300D39004AEE094011281844039901465E0F7
:10C34300640570319015ACE0FFE4FCFDFE7BE87AF8
:10C3530003F9F81247EA90044812805650171281E5
:10C36300267802C333CE33CED8F9240CF582741663
:10C373003EF583800390044812498C901EFD1249B8
:10C38300C49003D8E0B40305E4F552800375520565
:10C39300901EFD12498CEC33500A901EFD1249D0B9
:10C3A300000000007B807AEE79367800901EFD1243
:10C3B30080F17B18127F1DC004C005127E167566BE
:10C3C3002DD005D0047F1512C4747B607AEA127FE6
:10C3D3000FC004C00575610075620E901EF9127FCF
:10C3E3005B12EB12127E3375662DD005D0047F26C7
:10C3F30012C474127F32C004C005127E1675662DF6
:10C40300D005D0047F3112C47E7BE87A03127F0FFC
:10C41300C004C00575610075620E7B0A901EF91297
:10C4230080ED127E3375662DD005D0047F4212C491
:10C433007E127F32C004C005127E1675662DD005AC
:10C44300D0047B087A007F4D7E001298F17B6490C4
:10C453001EFD1280ED127F2CC004C005127E1675DE
:10C46300662DD005D0047B087A007F5E7E0002989B
:01C47300F1D7
:10C474007B087A007E001298F1227B087A007E0005
:04C484001298F122F7
:08A854008F558E548D538C5278
:10A85C0012804312812E127F51E4FFFE1298F1E414
:10A86C00FFFEFDFC127FEE12415040047F0180027E
:10A87C007F00901EF9EFF0E4FFFEFDFC127FEE125C
:10A88C00415040051280DB80061280DB1241BD7BFB
:10A89C00CD7ACC794C783D123EB98F558E548D5370
:10A8AC008C529004341249A81240B3797078421239
:10A8BC007EE1E4FBFAF9783F123EB912420CC3EF89
:10A8CC00943CEE9400500280047E007F3C901EFA73
:10A8DC00EEF0A3EFF07DC67C42127FEB124150608C
:10A8EC000D400BE4F555F5547553C6755242127F65
:10A8FC00E712415040521280DB12420CAB07AA0601
:10A90C0012810D901EFCEFF07C007D0AAF03AE02AD
:10A91C00124686A3EDF0901EF9E06016127F3D7F83
:10A92C005F12AA7F127E43127FDB127F517F690276
:10A93C00A99412AA157F0D12AA5E127E43127FDB18
:10A94C00127F517F1502A9F21280DB12810A901E30
:10A95C00FCEDF0127FE7123FAA12810A901EFDED6A
:10A96C00F0901EF9E0604B127F3D7F5B12AA7F12C4
:10A97C007E43127FDB127F517F6512AA737563FFD2
:10A98C0012813A127F517F6D12AA5E127E43127FA2
:10A99C00DB127F517F7112AA737563FF12818B904A
:10A9AC001EFAE0FAA3E0FB7D177C007F3E7E0002DE
:10A9BC00AA1112AA157F0D7E001298F11280431273
:10A9CC00813A127F517F157E001298F1901EFDE0A6
:10A9DC0075F006A424A8F9742935F0127E43127F71
:10A9EC00DB127F517F197E001298F1901EFAE0FA6B
:10A9FC00A3E0FBC3743C9BFFE49AFE1280431281DC
:08AA0C008B7D177C001298F10C
:10AA1400227561007562087563FF75642A7565782F
:10AA240075662D7B087A007D177C007F037E0012FB
:10AA340098F1901EFCE075F006A424A8F974293559
:10AA4400F07563FFF5648965756100756208756664
:10AA54002D7B067A007D177C00227E001298F190EF
:10AA64001EFDE075F006A424A8F9742935F0227EB1
:10AA7400001298F1756100756208227E001298F147
:10AA8400901EFCE075F006A424A8F9742935F02280
:10EACB00128126FFD39463EE9400500F7566FF7589
:10EADB0067EA7568838E698F6A80137566FF756741
:10EAEB00EA7568899004ADE0F569A3E0F56A7B01EE
:10EAFB007A1E79F9127A037B017A1E79F975572DF3
:07EB0B007D017F0102DD1412
:10EF2200EF600B12819575642A75658880091281DC
:10EF32009575642A75659C75662D7B0A7A007D013C
:0AEF42007C007F6F7E001298F12220
:064C35008B4D8A4E894FF1
:104C3B00EF1470030255331470030256F914604CD1
:104C4B0024FE602B240560030257AD9004481249E3
:104C5B00A8C0009015C3E0FD7C007E037FE81246E0
:104C6B0031E4FCFDD0001247CF9004480249C4E464
:104C7B00F51D127EE79004B31249D000000000909E
:0C4C8B0004481249D0000000001280F71D
:104C9700901465E0FF6407600AEF641B6005EF642A
:104CA7001D70579004A5E07002A3E0704D7FD07E81
:104CB700079004481280544041E47FB87E0BFDFC06
:104CC7009004481249A8D3124915502E7B017A182F
:104CD70079C57560007561027F107E0212DDAD1225
:104CE70080849018DF12806B7B017A1879C5756212
:104CF70000756302127EB312DFF9787B7C047B01B7
:104D07007A04799012819F9004ABE0FFA3E09004AE
:104D1700A9CFF0A3EFF078907C04AB4DAA4EA94F32
:104D270012819F901465E0FF642170030257ADEF75
:104D3700642270030257ADAB4DE54F2410F9E435FB
:104D47004EFA7555017556187557BB755801755943
:104D570018755ABD755B01755C18755DBF12E20F5A
:104D67009018BBE0FEA3E0FF4E700BA3E07002A318
:064D7700E070030257ADDD
:104D7D00901465E0FD64056004EDB420129018AF49
:104D8D00E4F0A37428F0A3E4F0A3742DF080109048
:104D9D0018AFE4F0A3741EF0A3E4F0A3740AF0902E
:104DAD0018BDE0FCA3E0FD12E5339004ABEEF0A3DB
:104DBD00EFF0900481127EBC1257EAC004C005C00A
:104DCD0006C007900485127ED6C004C005C006C07B
:104DDD000790049A127ED6D003D002D001D00012D3
:104DED003EB5D003D002D001D0001281A8128101AE
:104DFD009015C1EEF0A3EFF09004AF1249A8C000DA
:104E0D00C001C002C003127FCC123FAAC004C0056E
:104E1D00C006C0079018B3127FCF123FAAD003D09F
:104E2D0002D001D000125896D003D002D001D0008C
:104E3D00123EB99004AF1249C4D39004AEE0940071
:104E4D001281845003024FA5D39015C2E0940090B7
:0C4E5D0015C1E0648094805003024FA552
:104E69001281019006D7E0FAA3E0FBFDAC021246DD
:104E7900318C508D51128114AD03AC021246319020
:104E890015C1ECF0A3EDF0901465E0FF6405601C1A
:104E9900EF641A6017EF64186012EF6407600DEF92
:104EA900641B6008EF641D6003024FA5128114D3CF
:104EB9009551E5506480F8EE6480985003024FA53F
:104EC9009006D8E02551FD9006D7E03550CDC39F17
:104ED900CD9EFCE41241D3C004C005C006C0071230
:104EE9008114C39006D8E09FFD9006D7E09EFCE4AC
:104EF9001241D3D003D002D001D00012811D9004F9
:104F0900B31249A8127FC61247DCEC1241CE9018A1
:104F19009C12803D12812012804D60209001A9E0F1
:104F2900FF75F008127F991249A8E8494A4B700C9D
:104F3900EFD3940040069001A9E014F090189C1258
:104F490081049004B31249A81247CF1280911249E3
:104F5900C4EBC3941F503912804D60319003D7E0E0
:104F69001280961249A89001A9E075F008127F995C
:104F790012498C1247DCEC1241CEE4FBFA797A78BB
:104F89004412811D90189C12498C12A8541280B9A0
:0C4F99009001A9E0C3941F5003E004F055
:104FA500127FC69004B31249C4901465E0FF6418DB
:104FB50070030257ADEF640770030257ADEF641D30
:104FC5006003025160127F64C004C005C006C007BB
:104FD500127F64D003D002D001D000123FAAC004D2
:104FE500C005C006C0079018BB127F67C004C00586
:104FF500C006C0079018BB127F67D003D002D0014E
:10500500D000123FAAD003D002D001D0001258968A
:105015009018C11249C4900173E07002A3E0702199
:105025007F147EAE7D937C41127FA56014401212E1
:105035007FC67C007D0A124631900173EEF0A3EF26
:10504500F0900175E07002A3E070247F297E5C7DFD
:10505500D77C419018C1127FA860144012127FC6F8
:105065007C007D0A124631900175EEF0A3EFF090B9
:105075000177E07002A3E070207FCD7ECC7D327C8D
:10508500429018C1127FA86010400E127F5812EB93
:1050950012900177EEF0A3EFF0900179E07002A392
:1050A500E070177C42127F9F6010400E127F5812ED
:1050B500EB12900179EEF0A3EFF090017BE0700226
:1050C500A3E070487F5C7E0F7D4B7C43127FA5601B
:1050D5003B4039127F5812EB1290017B12802D1242
:1050E500420C90017FEEF0A3EFF0900172E0701C8E
:1050F5001281467A967915127FC012801612DDAD9F
:10510500127E4B12DFF912584E12D3E290017DE068
:105115007002A3E060030257AD7C43127F9F6002DB
:1051250050030257AD1281467A9679151280C61240
:105135007F5812EB1290017D12802D12420C9001C6
:1051450081EEF0A3EFF0127FC612801612DDAD12CC
:105155007E4B12DFF912584E02D3E2127FAEEC9E5F
:10516500C364809480400512816E8006127FAE1262
:10517500814FD39018B0E09FEE6480F89018AFE0AF
:105185006480985038127FAEEC9EC3648094804052
:105195000512816E8006127FAE12814F9018AFE026
:1051A500FCA3E0FDC374689DFD74019CFCD3EF9DD9
:1051B500EC6480F8EE64809850030257AD9015BDFD
:1051C500127EBC1257EAC004C005C006C007901580
:1051D500E0127ED6C004C005C006C00790049A122E
:1051E5007ED6D003D002D001D000123EB5D003D078
:1051F50002D001D0001281A8E4FFFEFDFC9018B397
:10520500127FA89018B3400512498C80031281B112
:10521500C004C005C006C0079018B1127F67127F91
:10522500D2D007D006D005D00412415060025003F9
:1052350002552FE4FFFEFDFC9018B7127FA89018C9
:10524500B7400512498C80031281B1C004C005C066
:1052550006C0079018B1127F67127FD2D007D0061B
:10526500D005D0041241506002500302552FE51DB0
:0552750060030257ADCB
:10527A009018ACF0A3F0A3F0751D01127FCC123F79
:10528A00AAC004C005C006C0079018B3127FCF1287
:10529A003FAAD003D002D001D000123EB912DB33AC
:1052AA009018A01249C4127F64C004C005C006C089
:1052BA0007127F64D003D002D001D000123FAAC0E7
:1052CA0004C005C006C0079018BB127F67C004C09F
:1052DA0005C006C0079018BB127F67D003D002D062
:1052EA0001D000123FAAD003D002D001D000123E52
:1052FA00B912DB339018A41249C4E4FFFE7D7A7C0C
:10530A00449018A012803D9018A41249A81240B3E4
:10531A00E4FBFA79487842123EB912420C9018A876
:10532A001249C4901465E0124AEA535705534D17BF
:10533A0053521953611A53611B53611D534D200077
:10534A000053679018AC80129018AD800D9018AD7C
:10535A007401F0A3F080069018AE7401F09018ACB6
:03536A00E06020E0
:10536D00E49004ADF0A3F0900450F0F550E5501228
:10537D0081B71249D0FFFFFFFF0550E550B484ED12
:10538D009018AEE07003025430127FC69018A81228
:10539D0049A81247CF9004481249C4D39004AEE0F7
:1053AD009484128184502B127FC6C004C005C006A0
:1053BD00C0071281267802C333CE33CED8F924101C
:1053CD00F58274163EF583D007D006D005D00412B1
:1053DD0049C4901465E0FF641B6048EF641D604391
:1053ED0012804312812E127F51E4FFFE1298F1902C
:1053FD00044C12498CAB07AA06A905A804127FC656
:10540D00C312492B4018127FC61258749003D7E06F
:10541D00FBC39420500D127F881280B680EEE4FFFE
:10542D0012EF229018ADE070069018ACE0605D9020
:10543D0018A812498C1249079004481249C49018B3
:10544D00A01281B19004AF1249C4E49015C1F0A32C
:10545D00F09004B31249D000000000E49003D7F09F
:10546D009003D7E0FFC39420501375F008EF12801E
:10547D00991249D0000000001280B980E31280F724
:10548D009004AD75F0011246BC12EACB901465E0A4
:10549D0024E9602124FE606714607414607B24FB92
:1054AD0060030257AD740512582E60030257AD12FA
:1054BD0057AE0298F112817970239014657418F02B
:1054CD00E4FF12E18D12809F7D047C007F157E002C
:1054DD001298F11258617AF27910025506127F7006
:1054ED009004A7127F02741A12582E70061257AE2E
:1054FD001298F17B007A0079001280C60256F612DE
:10550D007F709004A7127F02901465741AF0221216
:10551D007EE790146574198005901465741CF00273
:02552D00C33386
:03552F00E4F51D83
:015532002256
:10553300751D019004ADE4F0A304F09004B3124987
:10554300D0000000009004481249D00000000090F1
:10555300044C1249D0FFFFFFFFE4900450F0900485
:10556300AF1249D000000000E49015C1F0A3F09001
:1055730003D7F09003D7E0FFC394845010EF128158
:10558300B71249D0FFFFFFFF1280B980E6E4900312
:10559300D7F01280911249D000000000127F9512BB
:1055A30049D0000000001280B9E0B420E51280F772
:1055B3007B017A1A79D5F5607561027F107E02123C
:1055C300DDAD900496128063901AE51280E4900496
:1055D3005712805D901AE91280E490045B12808177
:1055E300901AEF12806B7B017A1A79D57562007578
:1055F3006302127EB312DFF9901465E0FF64067054
:10560300030257ADEF640B70030257ADEF640A70EA
:10561300030257ADE4FF12E18D9003D8E0B4030514
:10562300E4F5508003755005C374099550FDE49467
:1056330000FC12809F7F157E001298F1901465E0A4
:10564300FF64166005EF6408703D128179702012C3
:1056530058617AF279101280C6901465E0B4080696
:105663007418F00256DA9014657407F00256DA9053
:105673001465741BF01258851280C012C333127F55
:10568300709004A70256D7901465E0B41506741DF4
:10569300F00256DA7BFF12589D127F3D7F6F7E002A
:1056A3001298F112804375642A756578127F4C7FD6
:1056B300037E001298F11280C09014657405F09077
:1056C300045712498C9015BD1249C490045B127F94
:1056D3007F9004A5127F02901465E0FF64077003B6
:1056E3000257ADEF641B70030257ADEF641D7003E7
:0656F3000257AD02EACBF4
:1056F900901465E064187026127EE77419128148C7
:1057090012589D12C333127FC61258749003D7E002
:10571900FBC394205031127F881280B680EE90141A
:1057290065741CF07561007562077563FF75640720
:105739007565D575662D7B7A7A007D187C00E4FF46
:10574900FE1298F11258857B007A007900127FC009
:105759009016141249C40B7A1C79E512802212DDC5
:10576900AD90049612806375F00C901CE51280E7E9
:1057790090046C12805D75F00C901CE91280E79022
:10578900047012808175F00C901CEF124A01EEF042
:10579900FEA3EFF09004A712807A7A1C79E5127EB5
:0457A900AB12DFF967
:1057AD0022F5617562087563FF75642A75658075EC
:1057BD00662D7B08FA7D17FC7F6FFE1298F17561DF
:1057CD00007562087563FF75642A75657875662DB9
:1057DD007B087A007D177C007F037E0022901EF5EA
:1057ED001249A8123EB57B807A7B79DB7847123F50
:1057FD00AA9018B31249C47BE17A2E79657842904C
:10580D001EF512498C1240B312C20D7BD67A527915
:10581D001A784C123FAAE4FBFA79B478431240B3DC
:10582D0022901465F07BFF7A1A793D7D2D12D86494
:10583D0074FFFFFEFDFC90044C1249A8C3124915DC
:10584D00227F0112EF227BFF7AEA798E755A2D7D28
:10585D00047F03227BFF7AEA79A2755A2D7D017FA1
:10586D000312D3E27BFF2290044C1249C47F011234
:10587D00EF22E49003D7F0227BFF7AEA79B7755ACD
:10588D002D7D047F0312D3E222123EB912DB3322A7
:0A589D007A1A793D7D2D12D864229D
:10F0F8007B017A167914901462E024E6FF12800FDF
:10F10800FE90000EE07C002FF563EC3EF562127E67
:04F11800B302DFF966
:10D6F000127FF7CD2FF561EE3DF5607F107E0212AF
:10D70000DDAD1281C0900247124A0112498CAB076D
:10D71000AA06A905A80490044C12498CD312492BDF
:05D72000500302D7AA2E
:10D7250090044C128063540375F084900247128074
:10D73500E7E4F556F557E557AE567803C333CE33D0
:10D74500CED8F92437F58274003EF58312498CC092
:10D7550004C005C006C007E557AE567802C333CEF0
:10D7650033CED8F9FF1281C09001C7124A01E58274
:10D775002FF582E5833EF583D007D006D005D0048A
:10D785001249C40557E55770020556642045567081
:10D79500A5127FF7CD2FF563EE3DF5627D107C0276
:05D7A5007F0212DFF914
:01D7AA00225C
:10E20F008B528A5389549000011280D254E075F0DA
:10E21F0008AB55AA56A95712815BAB55AA56A957F9
:10E22F0012816630E20744F88FF0124783900002A4
:10E23F001280CC541C75F040AB58AA59A95A1281C0
:10E24F005BAB58AA59A95A12816630E20744F88F7E
:10E25F00F01247839000031280CC5403FEE42DFF8D
:10E26F00EC3EAB5BAA5CA95D8FF0124783AB5BAA58
:10E27F005CA95D12816630E10744FC8FF012478381
:01E28F00226C
:04E533008E558F561C
:10E53700AE04AF05EC1241D3C004C005C006C00746
:10E54700AC55AD56EC1241D38F5E8E5D8D5C8C5B06
:10E55700D007D006D005D00412E30B1281CA1249A6
:10E567008C7BE07A2E79657842123FAA1281CA1213
:10E577008104901EFDEEF0A3EFF02468FFEE340156
:10E58700FE7C017D68124686901EFDECF0A3EDF03F
:03E59700FFAE04D0
:01E59A00225E
:10E6BD008B5F8A608961E92DF9EA3C8B62F563898C
:10E6CD0064E4F565F566C3856383856482E56195CC
:10E6DD0082E5609583502F785FE475F001124A163C
:10E6ED00124572FFE5666F25E0FFE433FE74F62FE9
:10E6FD00F582742A3EF583E565FFE493F5657401B3
:0BE70D00936FF56680C0AE65AF66221A
:10A5F20002080001010C00020D000002120001011C
:06A6020016000217000023
:06E718008B5F8A6089613D
:10E71E00858462AB5FAA60A961900002124713451F
:10E72E00F070F0AB5FAA60A96190000C124A61C054
:10E73E0003C002C001AB5FAA60A961900007124A34
:10E74E0091AB5FAA60A961900002EC8DF01247A216
:10E75E001245727006F584D2998005758401D2999E
:03E76E008562843D
:01E771002285
:10F23400AE84E4F5848F9B30FFFDC2FFAF9B8E84C8
:01F2440022A7
:10E7C900AF8475840F759601758C67E4FDFC0DBDEA
:10E7D90000010CE4B505F7ECB401F3E58C30E7FB77
:10E7E900759701E4F58A758905F58475B7207584EF
:10E7F9000F758D01758F01758E03FCFD0DBD00012F
:10E809000CE4B505F7ECB401F3438902E58930E47A
:06E81900FB7597028F84DD
:01E81F0022D6
:0EAC9B008B278A2889298F2D8E2C8D2B8C2AB1
:10ACA90085842E12457214606F04600302AE9BE422
:10ACB900F58475911590000A12458B24BB60182400
:10ACC900F6601424EA601024F7600714600924214F
:10ACD900700875985080037598D0E4F58475C80498
:10ACE90075C908AB2DAA2CA92BA82AFFFE7D657C66
:10ACF90004124875E47B10FAF9F8124875124907ED
:10AD09008ECB8FCA74FFF5CDF5CCD2CAE4F584C2D7
:10AD190099C298D2AC02AE9B758401AB27AA28A927
:10AD29002990000A12458B24BB601824F66014246C
:10AD3900EA601024F76007146009242170087598E7
:10AD4900108003759890E4F58453890F438920ABEB
:10AD59002DAA2CA92BA82AFFFE7D657C0412487513
:10AD6900E47B02FAF9F8124875E4FB7A01F9F81262
:10AD79004875E47B01FAF9F8D312492B4026AB2D2B
:10AD8900AA2CA92BA82AE4FFFE7D657C041248752C
:10AD9900E47B02FAF9F81248751249078F8D438E40
:10ADA9001002AE8CAB2DAA2CA92BA82AE4FFFE7D9C
:10ADB900657C04124875E47B02FAF9F8124875E4D7
:10ADC900FB7A01F9F8124875E47B04FAF9F8D31211
:10ADD900492B4031AB2DAA2CA92BA82AE4FFFE7DD3
:10ADE900657C04124875E47B02FAF9F8124875E4A7
:10ADF9007B04FAF9F81248751249078F8D538EECC6
:10AE0900438E01807EAB2DAA2CA92BA82AE4FFFE34
:10AE19007D657C04124875E47B02FAF9F8124875DD
:10AE2900E4FB7A01F9F8124875E47B0CFAF9F8D3D6
:10AE390012492BAB2DAA2CA92BA82AE4FFFE7D656C
:10AE49007C04401F124875E47B02FAF9F812487530
:10AE5900E47B0CFAF9F81248751249078F8D538E65
:10AE6900EC8020124875E47B02FAF9F8124875E47F
:10AE79007B30FAF9F81248751249078F8D538EEC19
:10AE8900438E02858D8BD28E758401C299C29843F7
:05AE9900E740852E8456
:01AE9E002291
:10F22200AF84E4F584759D04759A70C2FFD2F88F9D
:01F232008457
:01F2330022B8
:10EF4C00AD84758401E4F5C8F5C9EF2408FFE43EEF
:10EF5C00FEC3E49FFFE49EF5CB8FCA74FFF5CDF59D
:09EF6C00CC43E70143C8048D8485
:01EF75002279
:0300230002B09791
:10B09700C0E0C0F0C083C082C0D075D000C000C07F
:0DB0A70001C002C003C004C005C006C00700
:10B0B400E59820E00302B22A8599225398FEE50818
:10B0C400600302B1F9E50924FE606314700302B160
:10B0D4006314700302B1C82403600302B1F9750D4F
:10B0E40000750E00E5226416600302B1F99004CAEB
:10B0F400E0FF7E007C027D1D12461F9004CE124AA2
:10B104002FE92FF9EA3E8B0FF5108911FA050EE5A8
:10B114000EAE0D7002050D14F5828E83E5221245E4
:10B12400FDE522620C75080075090202B1F9AB0F46
:10B13400AA10A911050EE50EAE0D7002050D14F549
:10B14400828E83E5221245FDE522620CE50E64063B
:10B15400450D600302B1F9F50875090302B1F9ABB5
:10B164000FAA10A911050EE50EAE0D7002050D14FF
:10B17400F5828E83E5221245FD630CFFE50C652202
:10B184007031AB0FAA10A91190000312458B750AF8
:10B1940000F50B750B00F50A90000412458B250B86
:10B1A400F50BE4350AF50A450B604475080075098A
:10B1B400048042750D00750E00750800750901754F
:10B1C4000C008031AB0FAA10A911050EE50EAE0DCF
:10B1D4007002050D14F5828E83E5221245FDE50B00
:10B1E4002407FFE4350AFEEFB50E0AEEB50D067529
:10B1F4000800750905E509640545087029F5087511
:10B204000901F50DF50EF50C9004C3124A2FE94A15
:10B214004B7013AB0FAA10A9119004C3124A3890B3
:10B2240004CAE06401F0E59830E13A9004C1E070AA
:10B2340002A3E060219004C6124A2F124572F599C8
:10B244009004C7E475F0011246BC9004C174FFF584
:10B25400F01246BC800C7B007A0079009004C61280
:05B264004A385398FD7B
:10B26900D007D006D005D004D003D002D001D00039
:0BB27900D0D0D082D083D0F0D0E032E3
:0300A30002B28422
:10B28400C0E0C0F0C083C082C0D075D000C000C090
:0DB2940001C002C003C004C005C006C00711
:10B2A100E59820E00302B4178599235398FEE5122F
:10B2B100600302B3E6E51324FE606314700302B376
:10B2C1005014700302B3B52403600302B3E675178B
:10B2D10000751800E5236416600302B3E69004DCF0
:10B2E100E0FF7E007C027D1D12461F9004E0124AA1
:10B2F1002FE92FF9EA3E8B19F51A891BFA0518E592
:10B3010018AE177002051714F5828E83E5231245D6
:10B31100FDE523621675120075130202B3E6AB193F
:10B32100AA1AA91B0518E518AE177002051714F51E
:10B33100828E83E5231245FDE5236216E518640636
:10B341004517600302B3E6F51275130302B3E6ABCA
:10B3510019AA1AA91B0518E518AE177002051714CA
:10B36100F5828E83E5231245FD6316FFE5166523FD
:10B371007031AB19AA1AA91B90000312458B7514E1
:10B3810000F515751500F51490000412458B25156F
:10B39100F515E43514F5144515604475120075135F
:10B3A1000480427517007518007512007513017538
:10B3B10016008031AB19AA1AA91B0518E518AE179A
:10B3C1007002051714F5828E83E5231245FDE515FC
:10B3D1002407FFE43514FEEFB5180AEEB51706751C
:10B3E1001200751305E513640545127029F51275F0
:10B3F1001301F517F518F5169004D5124A2FE94AED
:10B401004B7013AB19AA1AA91B9004D5124A389094
:10B4110004DCE06401F0E59830E13A9004D3E07097
:10B4210002A3E060219004D8124A2F124572F599C7
:10B431009004D9E475F0011246BC9004D374FFF571
:10B44100F01246BC800C7B007A0079009004D8127F
:05B451004A385398FD8C
:10B45600D007D006D005D004D003D002D001D0004A
:0BB46600D0D0D082D083D0F0D0E032F4
:0300730002CCC6F6
:10CCC600C0E0C0F0C083C082C0D075D000C000C034
:0BCCD60002C003C004C005C006C00778
:10CCE10075840153C87F900445E475F0011246BC78
:10CCF1009004F0E0FEA3E0FF900445E0B50619A31F
:10CD0100E0B507149004F0E475F0A01246BC900160
:10CD1100BEE475F0011246BCE4FDFC743A2DF582C7
:10CD2100E43415F583E0600D743A2DF582E4341591
:10CD3100F583E014F00DBD00010CED64034C70DBD4
:10CD41007C007D0075840FAF0574017E00A8070883
:10CD51008005C333CE33CED8F9FFABD8EF5B702E4D
:10CD6100ED25E0FFEC33FE74402FF58274053EF5AE
:10CD710083E0FAA3E0C394FFEA94FF501174402FBB
:10CD8100F58274053EF583E475F0011246BC0DBDD4
:09CD910000010CED64074C70ABCD
:10CD9A00D007D006D005D004D003D002D000D0D01E
:09CDAA00D082D083D0F0D0E03239
:10F1D700CFF0EFA3F09018CF7401F022E4F090186D
:04F1E700CF04F0223F
:029BAA008F2703
:109BAC00E49018CFF0E527600F9015A8E07004A39F
:109BBC00E06408600312F1DC7B017A18794F12E83B
:109BCC00209018CFE060037F00229018BCE0F46076
:109BDC000CE0D394745006E0C3944C50099018BC1C
:109BEC007460F012F1DC9018BEE0B4FF06743CF027
:109BFC0012F1DC9018BFE0B4FF067473F012F1DCC4
:109C0C0090184FE0FF12F245400990184FE06003A6
:109C1C0012F1E3901863E0FF12F2454009901863CB
:109C2C00E0600312F1E3901877E0FF12F24540096F
:109C3C00901877E0600312F1E39018B8E0B4010FCC
:109C4C00A3E0B44D0AA3E07004A3E0640860149090
:109C5C0018B87401F0A3744DF09018BAE4F07408BD
:109C6C0012F1DA9018A1E0B465089018A0E0640233
:109C7C0060119018A17465F09018A07402F09018FF
:109C8C00CF14F0901461E0FCA3E0FDB40012ECB42E
:109C9C00100E9015ABE030E407E054EFF012F1DC5D
:109CAC00E4B50512ECB4200E9015ABE020E407E00F
:109CBC004410F012F1DCE5277003029E34901596E7
:109CCC00E0FEA3E0FF9018A8E06E7003A3E06F60C5
:109CDC000D901596E0FFA3E09018A812F1D79015FF
:109CEC0098E0FEA3E0FF9018AAE06E7003A3E06F6B
:109CFC00600D901598E0FFA3E09018AA12F1D79090
:109D0C0015B1E0FEA3E0FF9018C3E06E7003A3E072
:109D1C006F600D9015B1E0FFA3E09018C312F1D75E
:109D2C0090159AE0FEA3E0FF9018ACE06E7003A3D0
:109D3C00E06F600D90159AE0FFA3E09018AC12F163
:109D4C00D790159CE0FEA3E0FF9018AEE06E700378
:109D5C00A3E06F600D90159CE0FFA3E09018AE128D
:109D6C00F1D790159EE0FEA3E0FF9018B0E06E7066
:109D7C0003A3E06F600D90159EE0FFA3E09018B078
:109D8C0012F1D79015A0E0FEA3E0FF9018B2E06EA0
:109D9C007003A3E06F600D9015A0E0FFA3E0901896
:109DAC00B212F1D79015B3E0FEA3E0FF9018C5E016
:109DBC006E7003A3E06F600D9015B3E0FFA3E0900D
:109DCC0018C512F1D79015B5E0FEA3E0FF9018C7A7
:109DDC00E06E7003A3E06F600D9015B5E0FFA3E09B
:109DEC009018C712F1D79015A2E0FEA3E0FF9018CF
:109DFC00B4E06E7003A3E06F600D9015A2E0FFA3BA
:109E0C00E09018B412F1D79015A4E0FEA3E0FF90F7
:109E1C0018B6E06E7003A3E06F600D9015A4E0FF20
:109E2C00A3E09018B612F1D79018CFE0601012EDA5
:109E3C00C57B017A18794F7D807C0012E3EE7B01A3
:099E4C007A15793D12E8207F012E
:019E550022EA
:10EDC500AF84E4F584787FF608F6A2AF33FEC2AFD0
:10EDD50043B701758F0718E6FC08E6F5828C83E4D6
:0DEDE500F0F58F53B7FEEE24FF92AF8F8440
:01EDF20022FE
:0AE3EE008B4C8A4D894E8C4F8D50E8
:10E3F800858451E4F584787FF608F6A2AF33FFC22E
:10E40800AF43B701758F05E4F552F553C3E553954E
:10E4180050E54F6480F8E5526480985029784CE4C0
:10E4280075F001124A16124572FE787F0806E61842
:10E43800860470010614F5828C83EEF00553E553CB
:10E4480070CA055280C6E4F58F53B7FEEF24FF92D9
:04E45800AF855184B7
:01E45C00229D
:06E820008B3E8A3F894097
:10E82600858441E4F542F543F584A2AF33F544C24D
:10E83600AF758F04E4FFFE0543E543AC4270020565
:10E846004214F5828C83E493FD783EE475F0011260
:10E856004A16ED1245EB0FBF00010EEF64804E70B5
:0DE86600D6E4F58FE54424FF92AF85418490
:01E873002282
:0BF2630045726173696E672535640019
:0EDFF9008E5B8F5C8C5D8D5E8B5F8A608961B4
:09E0070012F11CEF30E7F9C2F937
:10E01000E4F566F5670567E56770020566644045E7
:03E020006670F235
:10E02300E55C6401455B70047F8480027F8712F2A4
:10E0330034E4FF12F234E4FF12F234E4FF12F23458
:10E04300E4F564F565C3E565955EE55D6480F8E533
:10E0530064648098501DAB5FAA60A9618565828561
:10E06300648312458BFF12F2340565E56570D605AE
:10E073006480D2D2F9AD63AC62AF5CAE5B02E29076
:08E290008E688F698C6A8D6BAA
:10E29800901435E0FEA3E0FF12DC7A8F6C12F11CBB
:06E2A800EF30E7F9C2F9B6
:10E2AE00E4F56DF56E056EE56E7002056D64404524
:03E2BE006D70F28E
:10E2C100E56C6010E5696401456870047F83801224
:10E2D1007F86800EE5696401456870047F82800253
:10E2E1007F8512F234E56BAE6A7806CEA2E713CED3
:10E2F10013D8F8FF12F234AF6BEF25E025E0FF12DF
:09E30100F234E4FF12F234D2F907
:01E30A0022F0
:0CE10A008E3E8F3F8C408D418A428B433B
:09E1160012F11CEF30E7F9C2F927
:10E11F00E4F549F54A054AE54A7002054964404568
:03E12F004970F242
:10E13200E53F6401453E70047F8480027F8712F2CE
:10E1420034E4FF12F234E5425403FF12F234AF43D7
:10E15200E54312F234E4F547F548C3E5489541E555
:10E16200406480F8E547648098501DAB44AA45A9F5
:10E172004685488285478312458BFF12F234054853
:0AE18200E54870D6054780D2D2F9B7
:01E18C002270
:08E45D008E508F518C528D533B
:09E4650012F11CEF30E7F9C2F9D5
:10E46E00E4F556F5570557E55770020556644045D5
:03E47E005670F2E3
:10E48100E5516401455070047F8480027F8712F258
:10E4910034E4FF12F234E4FF12F234E4FF12F234F6
:10E4A100E4F554F555C3E5559553E5526480F8E517
:10E4B10054648098500F7FFF12F2340555E5557072
:07E4C100E4055480E0D2F9EC
:01E4C8002231
:02F11C00C2F936
:10F11E00E4F578F5790579E579700205786440456E
:03F12E007870F204
:0CF131007FD712F234E4FF12F234D2F95E
:01F13D0022AF
:0ADDAD008E5B8F5C8B5D8A5E895FE0
:09DDB70012F11CEF30E7F9C2F98A
:10DDC000E4F564F5650565E5657002056464404544
:03DDD0006470F28A
:10DDD3007FD212F234E561AE607806CEA2E713CEAD
:10DDE30013D8F8FF12F234AF61EF25E025E0FF12FC
:10DDF300F234E4FF12F234E4FF12F234E4FF12F2DD
:10DE030034E4FF12F234E4FF12F234E4F562F56312
:10DE1300C3E563955CE55B6480F8E56264809850D4
:10DE23001FE4FF12F234AB5DAA5EA95F85638285AE
:10DE33006283EF1245FD0563E56370D4056280D00C
:02DE4300D2F912
:01DE450022BA
:08DC7A008E6F8F708C718D72AA
:0CDC820075730112F11CEF30E7F9C2F9D4
:10DC8E00E4F576F5770577E577700205766440451D
:03DC9E007670F2AB
:10DCA1007FD212F234E572AE717806CEA2E713CEBE
:10DCB10013D8F8FF12F234AF72EF25E025E0FF121E
:10DCC100F234E4FF12F234E4FF12F234E4FF12F210
:10DCD10034E4FF12F234E4FF12F234E4F574F57522
:10DCE100C3E5759570E56F6480F8E57464809850BC
:10DCF1001DE4FF12F234BFFF047F0180027F008F19
:10DD010073EF600A0575E57570D6057480D2D2F996
:02DD1100AF73EE
:01DD130022ED
:04E9F1008E528F5360
:09E9F50012F11CEF30E7F9C2F940
:10E9FE00E4F554F5550555E555700205546440454A
:03EA0E005470F24F
:10EA11007F5012F234E553AE527806CEC313CE13B3
:10EA2100D8F9FF12F234AF53EF25E025E0FF12F2DF
:08EA310034E4FF12F234D2F9C3
:01EA390022BA
:04EA3A008E528F5316
:09EA3E0012F11CEF30E7F9C2F9F6
:10EA4700E4F554F5550555E5557002055464404500
:03EA57005470F206
:10EA5A007F8112F234E553AE527806CEC313CE1339
:10EA6A00D8F9FF12F234AF53EF25E025E0FF12F296
:08EA7A0034E4FF12F234D2F97A
:01EA82002271
:0ADEDC008E4B8F4C8C4D8D4E8B4FFA
:10DEE600E54F6005E4FF12E18D854B50854C51D31B
:10DEF600E551954EE550954D506CE55154077055DA
:10DF0600C3E54E9551FFE54D9550FEC3EF9408EEDF
:08DF160094004041E54F602931
:10DF1E007566FF7567F275686385506985516A7B12
:10DF2E00017A1C79E4127A037B017A1C79E4E4F518
:09DF3E005675572D7F0112D068C1
:10DF4700AF51AE5012E9F174072551F551E4355040
:10DF5700F5508007AF51AE5012EA3A0551E55170BE
:05DF67008D05508089CA
:01DF6C002292
:06D14C008B278A288929C7
:06D15200D2F8D2F9C2FA86
:10D15800E4F52DF52E052EE52E7002052D644045CB
:03D168002D70F235
:02D16B00D2FAF6
:10D16D00E4F52DF52E052EE52E7002052D644045B6
:03D17D002D70F220
:10D1800012F11CEF543C124AEAD1A20CD1AC14D1DA
:10D19000B61CD1C024D1DB2CD1F634D2113C000016
:10D1A000D22DAB27AA28A9297402801CAB27AA2854
:10D1B000A92974048012AB27AA28A9297408800819
:10D1C000AB27AA28A929741075F000124783AB2A4F
:10D1D000AA2BA92C740175F008804FAB27AA28A9A7
:10D1E00029741075F000124783AB2AAA2BA92C745E
:10D1F0000275F0108034AB27AA28A929742075F095
:10D2000000124783AB2AAA2BA92C740275F0108058
:10D2100019AB27AA28A929742075F000124783ABFF
:0DD220002AAA2BA92C740475F02012478354
:01D22D0022DE
:10E8C60025730044617461666C61736820546573D6
:10E8D60074002A2A20466C617368204641494C45DB
:10E8E60044202A2A2C20706167652025642C20622A
:10E8F60079746525640050616765202564206F6B17
:0EE906000054657374205061737365642E00B5
:0288E4008F3EC5
:1088E60085843FE4F540F541F54490047D93FF33DC
:1088F60095E0FE9004CB75F012EF124A01EE75F08A
:1089060012A42583F583124A2FE92407F9E43AFADB
:108916007566FF7567E87568C67569FF756AE875F7
:108926006BC9127A0390047DE493FF3395E0FE90C1
:1089360004CB75F012EF124A01EE75F012A42583EE
:10894600F583124A2FE92407F9E43AFA12F1C2EF45
:108956002401F55AE43EF55990047CE493FF7B73B9
:108966007D0112C7D6E4900542F0A3F0F542F54327
:10897600D3901436E09543901435E095424023AEEB
:1089860042AF437C017D0012468674C72543F582BB
:1089960074013542F583EDF00543E5437002054267
:1089A60080CE75840F30D919C3900543E0940990A1
:1089B6000542E094004003028BABE4900542F0A32D
:1089C600F0901435E0FCA3E0FD7B017A0179C785C0
:1089D6004062854163E4FFFE12DFF9901435E0FE44
:1089E600A3E0FF7B017A0179C7854060854161126A
:1089F600DDADE4F542F543D3901436E0954390148B
:108A060035E09542402DAE42AF437C017D001246D3
:108A16008674C72543F58274013542F583E06D708F
:108A260001EC6005754401800A0543E543700205C3
:108A36004280C4E5447003028AC290047DE493FF39
:108A46003395E0FE9004CB75F012EF124A01EE75F5
:108A5600F012A42583F583124A2FE92407F9E43A94
:108A6600FA7566FF7567E87568D885406985416A55
:108A760085426B85436C127A0390047DE493FF3341
:108A860095E0FE9004CB75F012EF124A01EE75F0F8
:108A960012A42583F583124A2FE92407F9E43AFA4A
:108AA60012F1C2EF2401F55AE43EF55990047CE434
:0C8AB60093FF7B737D0112C7D6028BABCF
:108AC20090188E1249D000015F90E4FFFEFDFC90E9
:108AD200188E1249A8D3124915401790188E1249C0
:108AE2008C74FFFBFAF9F81247CF90188E1249C422
:028AF20080D82A
:108AF40090047DE493FF3395E0FE9004CB75F0126F
:108B0400EF124A01EE75F012A42583F583124A2F61
:108B1400E92407F9E43AFA7566FF7567E87568FCB5
:108B240085406985416A127A0390047DE493FF339A
:108B340095E0FE9004CB75F012EF124A01EE75F049
:108B440012A42583F583124A2FE92407F9E43AFA9B
:108B540012F1C2EF2401F55AE43EF55990047CE485
:108B640093FF7B737D0112C7D6AF41AE4012EA3A40
:108B7400D3901462E09541901461E095405007E46D
:108B8400F540F54180080541E54170020540E53EA8
:108B9400643470030289A8D3E5419404E5406480F9
:0E8BA400948050030289A8E4900542F0A3F0EB
:108BB2009018921249D000015F90E4FFFEFDFC90F4
:108BC20018921249A8D312491540179018921249C7
:108BD2008C74FFFBFAF9F81247CF9018921249C42D
:028BE20080D839
:108BE40090047DE493FF3395E0FE9004CB75F0127E
:108BF400EF124A01EE75F012A42583F583124A2F71
:108C0400E92407F9E43AFA7566FF7567E87568C6FA
:108C14007569FF756AE9756B07127A0390047DE440
:108C240093FF3395E0FE9004CB75F012EF124A01E6
:108C3400EE75F012A42583F583124A2FE92407F96F
:108C4400E43AFA12F1C2EF2401F55AE43EF55990E0
:0F8C5400047CE493FF7B737D0112C7D6853F84B8
:018C630022EE
:10FE00008E408F418E408F41E4F542F543A2AF33DF
:10FE1000F544C2AFE4F58443B701758F03C3E542EF
:10FE200094FC50168543828542837488F0E4254310
:10FE3000F54374043542F54280E3E4F58FF542F56D
:10FE400043F547F54875840F12FFA58F49E5493002
:10FE5000E7F6C2F9E4F54AF54B054BE54B700205B0
:10FE60004A6440454A70F27FD212FF94E548AE479B
:10FE70007806CEC313CE13D8F9FF12FF9412FF8C6D
:10FE8000E4FF12FF94E4FF12FF94E4FF12FF94E4F6
:10FE9000FF12FF94E4FF12FF94E4F545F546E4FFFA
:10FEA00012FF9474C72546F58274013545F583EF3A
:10FEB000F00546E54670020545C3E545940240DE7F
:10FEC000D2F9E4F584758F01F545F54674C72546EA
:10FED000F58274013545F583E0FF0543E543AC4207
:10FEE0007002054214F5828C83EFF00546E54670FA
:10FEF000020545B400D6E545B402D1E4F58F0548C6
:10FF0000E54870020547C3947FE54794005003021B
:08FF1000FE45E4F58F53B7FE36
:10FF1800E54424FF92AFE4F5D075840FF547F54822
:10FF2800C3E5479420504C12FFA58F49E54930E7B7
:10FF3800F6C2F9E4F54AF54B054BE54B7002054A64
:10FF48006440454A70F27F5012FF94E548AE477806
:10FF580006CEC313CE13D8F9FF12FF9412FF8CE418
:10FF6800FF12FF94D2F974082548F548E43547F59F
:10FF78004780AD12FFA58F49E54930E7F6E4F584DF
:04FF880043EF012220
:10FF8C00AF48EF25E025E0FFAE84E4F5848F9B308D
:09FF9C00FFFDC2FFAF9B8E842221
:10FFA500C2F9E4F54CF54D054DE54D7002054C647F
:10FFB50040454C70F27FD712FF94E4FF12FF94D2B4
:02FFC500F9221F
:10E4C900505752204C4F53540044726976650048A6
:10E4D9004447202020202054494D45202020202039
:10E4E9004D504800484447202020202054494D459C
:10E4F90020202020204B5048005820252B322E3236
:10E5090066205920252B322E3266002535642000DD
:10E51900202D2D2D2D200025633A25312E31662001
:0AE529000025633A25312E3166000B
:10A6090090146574E2F090047CE493FF900001AB30
:10A6190028AA29A92A02458B9004F5E0FEA3E09017
:10A6290001C775F033124A01EE75F033A42583F59D
:10A639008322EF1245FDE55E75F012A424CBF58265
:10A64900E43404F583024A2F75F003124A01EC75CC
:10A65900F003A42583F5832290000112458B243948
:10A66900F582E43415F58322900007AB28AA29A9BD
:10A679002A02458BAB28E52A2408F9E43529FA2270
:10A689009004F5E0FCA3E0FD9001DC75F033124A7B
:10A6990001EC22901598E0FCA3E0FDE40241D3E42B
:10A6A900FFFEFDFCAB37AA36A935A834024150ABF1
:10A6B90028AA29A92A229001BCE0FCA3E02212457C
:10A6C9008BFF9004F5E0FCA3E022901465E0FFC342
:10A6D90094052290188AEEF0A3EFF02275F0031288
:10A6E9004A01EE22901463E475F0010246BCEDF0D4
:10A6F9009004F5E0FEA3E0229004BEE024FFFF9061
:10A7090004BDE034FFFEC3901464E09F901463E03D
:10A719009E22F0AF37AE36AD35AC3422901435E019
:10A72900FCA3E0FD7B017A0179C7901463E0F5622F
:10A73900A3E0F5632212498C74FFFBFAF9F8C3020E
:10A74900492B9015E4E0C39403229001BCE0FEA3D9
:10A75900E0227464F090000112458BFF22900008FA
:10A76900FE12458B7C00240022E92407F9E43AFA19
:10A7790022E4FFFEFDFCAB3BAA3AA939A838024105
:10A78900501241BDE4FBFA79C87842123FAA02424D
:10A799000CAB28E52A2407F9E435292275610075EF
:10A7A90062087563FF22F0AF3BAE3AAD39AC38228F
:10A7B90075F033ED124A01EC228F3B8E3A8D398CBC
:10A7C90038228F378E368D358C342290000502451C
:10A7D9008BE4FFFEFDFC0249A812498C74FFFBFAC9
:10A7E900F9F80247CF75F012A42583F583024A2FA1
:10A7F900901465E0FFF53322901465E0D39420228C
:10A809007B01E4F54275432D2274FFF5F00246BC45
:10A81900123EB5A804A905AA06AB0722E0253DF515
:10A829003DE4353CF53C222406F582E43559F583AF
:10A83900229004CB75F012024A01E4F0EFC39405AB
:0BA8490022E0FCA3E0FD7F017E002266
:04C7D6008F568B5897
:10C7DA00755BFFE4F55CF55DED90047C93F55E74A2
:10C7EA00392D12A6697464F090047CE493B5561945
:10C7FA00E55864066013E5586415600D74472DF515
:10C80A0082E43414F583E558F012A63F74161245F3
:10C81A00EB12A63F900001E55612A63C900002EDED
:10C82A001245FD7402255AF55AE43559F559FF1295
:10C83A00A63F90000312A63B900004E55A12A63CBC
:10C84A00900005E5581245FDE4FEFF12A63F8F82CF
:10C85A008E8312458B625B0FBF00010EEF64064E9A
:10C86A0070E912A63F900006E55B1245FD74FE25AD
:10C87A005AF55A74FF3559F55912A63F12A772ADE7
:10C88A005AAC5912E6BD8E5C8F5DEEFF12A63F05CB
:10C89A005AE55A7002055912A83012A63B055AE504
:10C8AA005A7002055912A830E55D1245FDE55E751C
:10C8BA00F012A424BFF9740435F0FA7B01E55A2476
:10C8CA0007FDE43559FC12E718E55A2407FFE43559
:02C8DA0059FE05
:01C8DC002239
:082CF6008F278B288A29892A07
:102CFE00E490188AF0A3F090000312458B90000424
:102D0E0012A769FFEC3ECF24FECF34FFFE90188C45
:102D1E00F0FCA3EFF0FD12A77212E95E12A6DC4ED4
:102D2E00602190000512A618FF64157003023CF88E
:102D3E00EF64067003023CF812A66112A75B7D04D5
:032D4E000230A3AD
:102D510090000212A674FF90047CE4936F7003024A
:102D61002DE3EFF4607CEF93FF3395E0FEEF12A8C3
:102D71003AEE12A7EEE92407F9E43A8B30F53189EE
:102D81003212A79C85282DF52E892FE4F52BF52CE1
:102D9100D390188DE0952C90188CE0952B402478D9
:102DA1002DE475F001124A16124572FF7830E47570
:102DB100F001124A16EF1245EB052CE52C70D105F6
:102DC1002B80CD12A615FF90000212458BFD12A794
:102DD100D4FB90188CE0F559A3E0F55A12C7D6023E
:102DE1003CF812A6B812A7D4124AEA2E35062E8D47
:102DF100102E791532D52235DF27326B2930CB30B1
:102E010030E63430E6382FF1403053413053423010
:102E11002343317C5031AA512F59702F9371324B7A
:102E2100722EB39032379137D09230F8932F0B989E
:102E310000003CE290000112458B2447F582E43406
:102E410014F583E02490702490188CE07004A3E0C2
:102E51006480701812A772C002C001783D7C157D94
:102E610001D001D0027E007F8012454C12A61524AC
:102E710047F582E43414800D12A6B8124572244835
:102E8100F582E43414F583E4F002326312A6D340F0
:102E910006EFD394204004EFB4E20812A615123EC7
:102EA1009A800612A60F123E7D12A6DC12A6B80267
:022EB10032638A
:102EB30012A6D34006EFD394204004EFB4E20812E5
:102EC300A615123E9A803812A67112A766F534EC45
:102ED3003EF533E52712A64112A772901435E0FEA2
:102EE300A3E0FF85336085346112DDAD12A60FFDCB
:102EF300901435E0F559A3E0F55A7B0612C7D612B4
:082F0300A6DC12A6B80232633D
:102F0B0012A6D34006EFD394204004EFB4E208128C
:102F1B00A615123EAB802E12A67112A766F534ECE5
:102F2B003EF533901435E0FCA3E0FDE92409F9E408
:102F3B003AFA8533628534637F027E0012DFF91221
:0E2F4B00A60F123E7D12A6DC12A6B80232635B
:102F590012A6D34006EFD394204004EFB4E208123E
:102F6900A615123EAB801AE52712A64112A77212C6
:102F7900E82012A60FFD755900755A807B0612C705
:102F8900D612A6DC12A6B802326312A6D34006EF07
:102F9900D394204004EFB4E20B12A615FF7D201252
:102FA900ED33803B12EDC512A79AFA90188CE0FE1A
:102FB900A3E0FFC39480EE94005006AC06AD0780F1
:102FC900047C007D8012E3EE7B017A15793D12E8DD
:102FD9002012A60FFDE4F559F55A7B0612C7D61241
:082FE900A6DC12A6B802326357
:102FF10012A7F912A61512A66712A843400512A836
:10300100014007901465E0B4E20812A75E7D20023A
:1030110030A312A609123DF612A671FF12C8DD02F5
:0230210030C2BB
:1030230012A7F912A61512A66712A843400512A803
:10303300014007901465E0B4E20812A75E7D200208
:1030430030A312A609123DF67F011281D40230C2C9
:1030530012A7F912A6B812A7D4FE7C00B441047DCE
:103063000080027D058C348D35EE901462B44105E9
:10307300E024FF8003E024FBFD901461E034FFFCB7
:103083008C368D3712A61512A66712A84340051277
:10309300A8014007901465E0B4E20B12A75E7D20FF
:1030A300123E41023CF812A609123E0AE4FFFE1248
:1030B300EA3AE4FBAD37AC36AF35AE3412DEDC9022
:0830C3001465E533F0023CF84E
:1030CB00123D0112A667E4F012F11C8F33E5333089
:0B30DB00E7F6E4F58443EF01023CF847
:1030E60012A61512A667E4F012A7D4FF1288E4020E
:0230F6003CF8A4
:1030F800C2FDC2FE7BFF7AE479C912F13E12A6D363
:10310800401EEFD39420501890000EE0FF901463F7
:10311800E0FCA3E0FD9004BDE0FAA3E0FB12CF823F
:10312800901465E0FF6405600EEF641C6009EF64AD
:10313800196004EFB41A0312F0F812F11C8F33E58A
:043148003330E7F643
:10314C00E4F559F55A7B937D027F0312C7D6E4F55B
:10315C0034F535AE34AF35E4FCFD7B407A9CF9F8A0
:10316C00D312491540DA0535E53570E7053480E3AF
:10317C00901465E064F0701A754101754200754356
:10318C000E12A6B812DBD912A60F123E0A12A6ED29
:10319C00800612A615123E1E12A6B80232639014B7
:1031AC0065E0B4F10B12A671FF90000EE06F604168
:0E31BC0012A615123E1E12A61512A667E4F00A
:1031CA009018521249D00000AFC890185212A7DACC
:1031DA00D3124915400E90185212A7E290185212B3
:0431EA0049C480E66E
:1031EE009006C974F2F09015D17401F0023CF812F9
:0731FE003D0112A667E4F099
:103205009018561249D00000AFC890185612A7DA88
:10321500D3124915400E90185612A7E2901856126F
:0432250049C480E632
:10322900901463E0FEA3E0FF12EC90023CF89015C5
:10323900D17401F012A6719006C9123D9D12A6B86B
:10324900801812A79AFA75420175432D7F0312CE91
:103259009C12A60F123E2D12A6B812A661E4F00226
:103269003CF8901465E064FE7003023CF812A67104
:10327900900036123D9D12A61512A667E4F090142F
:1032890065E06003023CF8900036E024FE7003021A
:103299003CF824FC600F2402701612A7A575640C73
:1032A90075651F801412A7A575640C75653F8009A3
:1032B90012A7A575640C75652F75662D7B107A00AC
:0C32C900E4FDFC7F69FE1298F1023CF865
:1032D500123D3312A667E4F090000712458B901556
:1032E500E4F0E92408F9E43AFAC00112A6F9FF7CF2
:1032F500007D3312461F74C72FF974013EA801FCE7
:103305007D01D0017E007F1512454C9015E4E0FF4C
:103315007003023405603274FFFFFEFDFC900198D6
:103325001249A8C312492B702012A62112498CE418
:1033350012A743601412A62112A73E600C12A62103
:1033450012498C9001981249C49015E4E06020124E
:10335500A62112498CE412A743601412A62112A7D4
:103365003E600C12A62112498C9001B81249C490F6
:1033750015E4E0FF604C900137E0F47003A3E0F43E
:10338500704012A6CBFD9001CB12A69412A632E096
:10339500FAA3E04A602C9001CB12A7B912A632E03D
:1033A500FCA3E0F47002ECF4601812A6CB9001CBFC
:1033B50012A69412A632E0FDA3E0900137CDF0A34A
:1033C500EDF0EF603B12A6F9FF9001CB12A62BE0C2
:1033D500FCA3E04C602A9001CB75F033EF12A62ECA
:1033E500E0FEA3E0F47002EEF4601512A6F9900178
:1033F500CB12A62BE0FFA3E0900146CFF0A3EFF0A0
:10340500901465E0124AEA34610534A20634610776
:10341500351B08351B0934690A350C0B35150C3578
:10342500010D35010E35010F35011035011135013D
:1034350012359A1734611834611934611A34611BD5
:1034450034611D359A20356021357D223469233557
:103455000C2434A225351526000035D912A67D7F0A
:0C346500030235CB12A74B50030235D9EF
:1034710075330112A67D12A6BFFD7543017544186F
:1034810075455A853346128C647A18795A12A809FF
:10349100AF3312CE9C0533E533D3940340D50235C7
:0134A100D951
:1034A20012A74B500302355BE4FF12E18D756100F8
:1034B2007562077563FF75640B7565A575662D7B6F
:1034C2007A7A00E4FDFCFFFE1298F17BFF7AE47940
:1034D200D2755A2D7D2DE4FF12D3E29015ADE07B1B
:1034E200FF30E0067AE479D880047AE479ED12A814
:1034F2000B7F0312CE9C12A67D12AE9F0235D9908D
:103502001465E0FF12A0F90235D912A67D12B82780
:103512000235D912B6510235D912A74B403B7BFF77
:103522007A10791F7D2D12D864901465E0B40821B9
:1035320075610075620A7563FF75642A75659C750D
:10354200662D7B2D7A007D137C007F287E001298E9
:10355200F112A67D7F050235CB7BFF0235D012A783
:103562004B7BFF40067A1E790D80047A0C794F7DE1
:103572002D12D86412A67D7F05804E12A74B7BFFC9
:1035820040067A1579D780047A0C794F7D2D12D8AE
:103592006412A67D7F05803112A74B7BFF402F7AF4
:1035A2000E79377D2D12D864900447E075F010A48F
:1035B200244EF9740535F0FA7B01755A2D7D017F91
:1035C2000312D3E212A67D7F05124C3580097A0CD4
:0D35D200794F7D2D12D86412F1FE023CF8F5
:1035DF00123D3312A667E4F090000812458BFE905F
:1035EF00000912A76AFFEC3E9004F3F0A3EFF090EE
:1035FF00000A12458B900036F09006E6E06011E469
:10360F00F09001BCF0A3F09004F5F0A3F00237C9DD
:10361F0012A6D350030237C9EFD3942040030237C9
:10362F00C912A753FFC3940AEE648094804003022B
:10363F00376AEF4E707B901598E0540FFD901596FA
:10364F00E0540FC4F854F0C8E4C4540F482DFF12CF
:10365F00A6CB12A69112A632C083C08212A6BFD0EB
:10366F0082D08312A651EFF0901596E0A3E0FF12DF
:10367F00A6CB9001DD12A69412A632C083C082128F
:10368F00A6BFD082D08312A651EFF0901598E0A379
:10369F00E0FF12A6CB9001DE12A69412A632C083D1
:1036AF00C08212A6BFD082D08312A651EFF002378C
:1036BF006112A6F9FF9001D912A62BC083C0821206
:1036CF00A6BFD082D08312A651E0FD9001DC75F029
:1036DF0033EF12A62EC083C08212A753D082D0839D
:1036EF0012A6E512A65812A6F7FF9001DA12A62B22
:1036FF00C083C08212A6BFD082D08312A651E0FD34
:10370F009001DD75F033EF12A62EC083C08212A791
:10371F0053D082D08312A6E512A65812A6F7FF90B7
:10372F0001DB12A62BC083C08212A6BFD082D0832A
:10373F0012A651E0FD9001DE75F033EF12A62EC0F8
:10374F0083C08212A753D082D08312A6E512A65847
:10375F00EDF09001BC12A6F0023630C39004F6E0F3
:10376F0094099004F5E064809480404812A7257F67
:10377F00027E0012DFF912A6EDE4F533F53474C7BB
:10378F002534F58274013533F583E4F00534E534DF
:10379F0070020533B410E7E533B402E2E49004F5A8
:1037AF00F0A3F012A701401212A8127D037F01129D
:1037BF006EE980069004F512A6F0E49001BC023C7D
:0137CF00F504
:1037D00012A60F123E2D12A61512A667E4F0C39092
:1037E00001BDE0940A9001BCE0648094804006E44E
:1037F000F0A37409F090000712A6C712A69112A6B2
:1038000032C083C08212A6BFD082D08312A651EFED
:10381000F012A6B890000812A6C79001DD12A69477
:1038200012A632C083C08212A6BFD082D08312A655
:1038300051EFF090000912A6C79001DE12A6941273
:10384000A632C083C08212A6BFD082D08312A651F6
:10385000EFF012A68912A632C083C08212A753D0FD
:1038600082D08312A6E512A658E0540F753D00F5EC
:103870003C9001DE12A7B912A632C083C08290012B
:10388000BCA3E0D082D08312A6E512A65812A825C8
:1038900012A69CC004C005C006C007AC3CAD3DE408
:1038A0001241D3D003D002D001D000123EB512A7EE
:1038B000C212A77A9018895020744C12A7AFC00486
:1038C000C005C006C00790159E12A69FC004C00583
:1038D000C006C007901598801B745212A7AFC00491
:1038E000C005C006C00712A69CC004C005C006C023
:1038F000079015A012A69FD003D002D001D00012CD
:10390000A819D007D006D005D0041240B312A7C220
:1039100012A68912A632C083C08212A753D082D0C9
:103920008312A6E512A658E054F075F010A4F53DF8
:1039300085F03C9001DD12A7B912A632C083C08287
:103940009001BCA3E0D082D08312A6E512A6581243
:10395000A82590159612A69FC004C005C006C007F2
:10396000AC3CAD3DE41241D3D003D002D001D00035
:10397000123EB512A7CB12A6A89018885020744109
:1039800012A71BC004C005C006C00790159A12A656
:103990009FC004C005C006C007901596801E7442E3
:1039A00012A71BC004C005C006C00790159612A63A
:1039B0009FC004C005C006C00790159C12A69FD0EA
:1039C00003D002D001D00012A819D007D006D0052C
:1039D000D0041240B312A7CB901465E0124AEA3A21
:1039E00004053A04073B130A3B78133A4E153AB9DB
:1039F000163A04183A041A3A041B3A041D3B1323DE
:043A000000003BE4A3
:0F3A0400900185E07002A3E0602F12A6A8502A5F
:103A130012A71C12A78A901870EEF0A3EFF0C390C0
:103A23000186E09F900185E09E500F901870E0FFA3
:0A3A3300A3E0900185CFF0A3EFF0AF
:103A3D007B007A007900E4FF124C3512C333023B50
:103A4D00E490144612A6F0901446E0FEA3E0FFEEBB
:103A5D00705AEF2460600F24B0602124A0704D12C5
:103A6D003D657D04800D123D657D04123EA1123D24
:103A7D00BE7D0D7C007F707E00023AB6123DBE7D8C
:103A8D000D7F70123E4D7F65123E4D123EA1756148
:103A9D00007562207563FF7564187565AB75662DCD
:103AAD007B3B7A00E4FDFCFFFE1298F1E4FFFE7D06
:103ABD00807CBE12A6AD4003023BE49015C3E0FB33
:103ACD0075F006A4FF901446E0FCA3E0C39FFFEC45
:103ADD0095F0FE7C007D6412461FEBFD124686902C
:103AED000183EEF0A3EF12A71B12A78A900185EEBA
:103AFD00F0A3EFF0E49001BCF0A3F0FBFAF97F0125
:103B0D00124C35023BE47566FF7567E575680285F5
:103B1D00376C85366B85356A853469853B70853A9A
:103B2D006F85396E85386D7B017A187972127A033B
:103B3D009015E4E07B017A187972600B123E89755D
:103B4D0067E57568148009123E897567E575681912
:103B5D009004F3E0F569A3E0F56A127A037A187917
:103B6D007212A809FF12CE9C023BE412A6A85009BE
:103B7D0012A71C1241BD12A7CB12A77A500912A78A
:103B8D00B01241BD12A7C27566FF7567E575682055
:103B9D00901888E0F56985376D85366C85356B85B0
:103BAD00346A123E6D75542D7D037F0212D7AB75AD
:103BBD0066FF7567E575682A901889E0F569853B9C
:103BCD006D853A6C85396B85386A123E6D75542D4D
:073BDD007D457F0212D7AB0A
:103BE400E4F533AF33EF3395E0FE740A2FF582E446
:103BF4003EF58312A618FFE533FD3395E0FC744BC4
:103C04002DF58274143CF583EFF00533E533B407E6
:103C1400D212A6B890000A12458BF45403900035D2
:103C2400F07003023CDA12A6D35003023CDAEFD35D
:103C340094204003023CDA9006E6E06003023CDA9A
:103C4400753306AF339004F2E0FEA807088002C380
:103C540013D8FC30E072AF33EF3395E0FEE52A244D
:103C640010F9E43529FAC3E99FF9EA9E852844F559
:103C740045894690001EE0FAA3E0FB7D017C007FAD
:103C8400017E0012E10A90001EE07002A3E06008C9
:103C940090001E12A812803012A70140097D037FF4
:103CA40001126EE980229004BD12A84A12E290909B
:103CB40004BD12A81290001E7402F0A3740FF090B9
:103CC400143512A84A12E45D1533C3E533648094B5
:0E3CD400804003023C479001BC12A6F080160F
:103CE20012A61512A66712A75B7D02123E4174FF4F
:063CF20090188AF0A3F017
:083CF80090188AE0FEA3E0FF32
:103D00002290047CE493FFAB28AA29A92A90000101
:103D100012458BFDE4F559F55A7B0612C7D690186B
:103D20008AEEF0A3EFF0AB28AA29A92A900001128D
:103D3000458B2290047CE493FFAB28AA29A92A9002
:103D4000000112458BFDE4F559F55A7B0612C7D6E2
:103D500090188AEEF0A3EFF0AB28AA29A92A9000C8
:103D60000112458B227561007562067563FF7564EB
:103D70001975659775665E7B047A007D047C007F0B
:103D8000657E001298F17561007562067563FF75B6
:103D9000641975659775665E7B047A0022F090045D
:103DA0007CE493FF90000112458BFDE4F559F55A30
:103DB0007B0612C7D690188AEEF0A3EFF022756149
:103DC000007562067563FF75641975659775665EA3
:103DD0007B047A007D0D7C007F657E001298F17572
:103DE00061007562067563FF756419756597756680
:103DF0005E7B047A0022FDE4F559F55A7B0612C772
:103E0000D690188AEEF0A3EFF022FDE4F559F55AAA
:103E10007B0612C7D690188AEEF0A3EFF022FF7D42
:103E20000812ED3390188AEEF0A3EFF022FDE4F5CE
:103E300059F55A7B0612C7D690188AEEF0A3EFF018
:103E40002212ED3390188AEEF0A3EFF0227C007E70
:103E5000001298F17561007562067563FF7564194B
:103E600075659775665E7B047A007D16227B017A04
:103E7000187972127A037B017A18797222FDE4F5BF
:103E800059F55A7B0612C7D62212F1C274722FF965
:103E900074183EFA7B017566FF22FF7D2012ED3318
:103EA000227C007F707E001298F122FF7D2012EDAF
:023EB0003322BB
:0AE95E008B3E8A3F89408C418D42B8
:10E9680012E6BD8E438F44AB3EAA3FA94085428242
:10E9780085418312458B7F00FEE5422401FDE43585
:10E98800418D82F58312458B2FFFE43EFEE544B5A9
:0FE998000709E543B50604E4FEFF227EFF7FFF7B
:01E9A700224D
:10ED3300AE07EE90047C93FB3395E0FAEB12A83A0E
:10ED4300EA12A7EE900007ED1245FD90047CE493D0
:10ED5300FFAD06755900755A017B1512C7D6E4FE3F
:02ED6300FF228D
:06DBD9008B3E8A3F8940EB
:10DBDF00E4F544F54590000312458BFE90000412C6
:10DBEF00458BFDEEF546EDF547E4F544F545E54784
:10DBFF0024FEFFE54634FFFEC3648094825002800A
:10DC0F00047E027F00C3E5459FEE6480F8E544641F
:10DC1F0080985048AB41AA42A943C003C002C0013B
:10DC2F00124572FFAB3EAA3FA940E5452407FDE42C
:10DC3F0035448D82F58312458BFE74C72545F582D9
:10DC4F0074013544F583EEF06FD001D002D003128A
:10DC5F0045EB0545E5457096054480927E0090148E
:0BDC6F0064E05401FF12A72502DFF95A
:04EC90008E3E8F3FE6
:10EC940090FE00E493FE740193FF901891EEF0A3AC
:10ECA400EFF0BE8012BFFE0F7B007AFE790290184F
:10ECB4008E124A38024B10901463E0FEA3E0FF1258
:02ECC400FE0050
:01ECC600222B
:02FDFE0080FE85
:10E66000436C65616E696E67005061636B696E67CC
:10E6700020257500494F20436C65616E696E670007
:10E68000494F205061636B20257500564F4C545301
:10E69000004F4E004F464600447269766572410055
:10E6A0004361724100547261636B4100416E616C61
:0DE6B0006F6778004469676974616C7800D9
:10856300EF9018BC3395E0FE75F019EF124A01EE57
:1085730075F019A42583F583E022901ABDE54A75A9
:10858300F019024A01901ACDE54A75F019024A0121
:10859300F0901AAEE55675F019024A01901ACFE52C
:1085A3004A75F019024A01A3F07A1879BC7B01E4F9
:1085B300F560F5617F107E0222FDACF0EF75F019D6
:1085C300024A0175F028E5499018E0124A01740146
:1085D300F075F028E5499018E1124A01E4F090188B
:1085E300E275F028E549024A01901AB4E55675F0A0
:1085F30019024A01901ABAE55675F019024A017533
:10860300F01CE5499018D3124A01E4F0A3F075F089
:108613001C9018D5E549124A01E4F0A322E54975F7
:10862300F024A42467F9741935F0A801FC7D017BBB
:10863300FF7AE67991124BE2E54975F024A424739D
:10864300F9741935F0A8017AE67994FC7D017BFF72
:10865300024BE2FDACF0EF75F019024A01FE75F032
:1086630019ED124A01EEF0A3EFF07A1879BC7B0101
:10867300E4F562F5637D107C027F022275F028E544
:10868300499018BB024A01E54A75F019024A019064
:108693001AC0E55675F019024A017404F075F01614
:1086A300E549901992124A017417F0A37470F0907F
:1086B300199475F016E549024A01FFED75F01902A8
:1086C3004A01E54A75F019024A01E4F54A7B017A49
:1086D3001879BB227414F09018D475F028E5490278
:1086E3004A017D017BFF7F087E0012454CE549224C
:1086F300EF75F019024A019018BB74FFFFFEFDFCF1
:108703001249A8C302492B9018BB75F084E54C129B
:108713004A01E54B75F084A42583F58322E549A43A
:1087230024BBF9741835F0A801FC7D017B0122906C
:1087330004BDE0FFA3E0901ACFCFF0A3EFF02290A7
:108743001462E024E7FF901461E034FF22ED75F03A
:1087530019024A01E54A75F019024A0175F019EF49
:10876300124A01E0FFA3E0901AD1CFF0A3EFF0E5A6
:10877300492275F0109018C0E549124A01E0229091
:1087830018CF75F01CE549024A019018DC75F028F2
:10879300E549024A0175F024E54990195B024A0153
:1087A300AB27AA28A929024783AB4DAA4EA94F227A
:1087B300901AD3E0FFC364809495227B017A1879E1
:1087C300BC901ACC1246D285F063F56222901ACC83
:1087D300E0FCA3E0FD22F07B017A18795322FDA38C
:1087E300E0901ACFCDF0A3EDF0901ACEEFF022ABCC
:1087F3004AAA4BA94C22E0FEA3E0FF901AD1E02243
:10880300901ACEE02401F56AE433F5697B01227BFB
:10881300017A1879BC8C608D617F107E022274FF0F
:10882300F0A3F075F01922901AD1E0FEA3E0FF2225
:10883300AB2AAA2BA92C22E0FFA3E0901AD1CFF0F8
:10884300A3EFF022FEA3E0FF901ACFE0FCA3E0FD2C
:1088530022CDF0A3EDF0901ACCE0FDA3E0227B0142
:108863007A1A79D422E475F0010246BC901ACE74C8
:1088730015F0E4901AD3F022901ACCF0A3EFF0A3F2
:108883007415F0227D017BFF7E0012454CE54922E1
:108893001249C4901857E0FFA3E022901AD3E0FFD7
:1088A300FD3395E0FC22E0FEA3E0FF901ACEE0FD4D
:1088B30022E5822FF582E5833EF58322EE8FF002D7
:1088C3004783A3F09004F2E022901462E024E622AE
:1088D300901AD3E004F022EEF0A3EFF0901ACDE06B
:0188E3002272
:06CAD8008B278A28892942
:10CADE007A0179C71285B012DDADE475F0041287C4
:10CAEE00A31287421288338FF0124783E490184FB7
:10CAFE00F090184FE0FFC39415400302CBB990019C
:10CB0E00C71286F3E0FEA3E0F47002EEF4700302A7
:10CB1E00CBB090184FE09001C9128582E0FCA3E0E3
:10CB2E00F47002ECF4607BAB27AA28A9291246E820
:10CB3E009001C91285BCE0FEA3E0D39DEE9C40118E
:10CB4E0090184FE09001C912858DE0FEA3E0FF80A2
:10CB5E0004AE04AF05EE8FF01287A390184FE0FFDE
:10CB6E009001DB128599E0FCA3E0F47002ECF46016
:10CB7E00311288331246E89001DB128656E0FEA38E
:10CB8E00E0C39DEE9C501190184FE09001DB128592
:10CB9E00A4E0FEA3E0FF8004AE04AF0512883312BA
:10CBAE0088BF90184FE004F002CAFFAB27AA28A94D
:10CBBE0029E475F00112474B12883374FFF5F00229
:02CBCE00474BD3
:069E56008B4A8A4B894C87
:109E5C009001B81249D0FFFFFFFF9001981249D032
:109E6C00FFFFFFFF74FF900146F0A3F0900137F065
:109E7C00A3F07B017A18799C7560007561017F10E5
:109E8C007E0212DDAD90189CE0901AACF090189DFB
:109E9C00E0901AADF090189EE0901AAEF090189FDA
:109EAC00E0540F901AAFF09018A0E09004F2F090EC
:109EBC00001E7402F0740F1288C530E7034403F0DF
:109ECC00901435E0FCA3E0FD7F017E0012E45D7B85
:109EDC00017A18799C1285B212DDAD1287F2E47505
:109EEC00F004124783E4901AB0F01287421287AC48
:109EFC008FF0124783E4901AB1F0901AB1E0FFC3CF
:109F0C0094154003029FCE90189C1286F3E0FEA39A
:109F1C00E0FFBEFF16BFFF13901AB0E06003029F74
:109F2C00C5A3E004901AB0F0029FC5901AB1E0FFEF
:109F3C0090189E1285C0E0FCA3E0F47002ECF46073
:109F4C00781287F21246E890189E1285BCE0FEA3A8
:109F5C00E0D39DEE9C4011901AB1E090189E1285B2
:109F6C00F1E0FEA3E0FF8004AE04AF051287F2120D
:109F7C0088BF901AB1E0FF9018B01285FCE0FCA3EA
:109F8C00E0F47002ECF460311287AC1246E89018E1
:109F9C00B0128656E0FEA3E0C39DEE9C5011901AC1
:109FAC00B1E09018B012865AE0FEA3E0FF8004AE38
:109FBC0004AF051287AC1288BF901AB1E004F0020E
:109FCC009F06901AB0E07002FF221287AC1246E88E
:109FDC00FFAEF01287F21246E8C39FE5F09E4003F5
:109FEC007F0022E475F00112474B1287AC74FFF529
:109FFC00F012474B1287F21246E8FFAEF0D39405ED
:10A00C00EE9400400280047E007F05901AB0E0FDC3
:10A01C0090188312868CEEF0EF1288C5FF600B123D
:10A02C0087AC1246E8FBAAF080047AFF7BFF9018FD
:10A03C0095128750EAF0A3EBF09018971287501204
:10A04C008821ED901894124A01EFF0901AACE09030
:10A05C0018991286BDEFF0901AAEE090189A1286FD
:10A06C00BDEFF0901AADE0FF75F019ED90189B1252
:10A07C004A01EFF0901465E0124AEAA0A905A0D1BC
:10A08C0006A0AB07A0C908A0A909A0D10AA0C917AE
:10A09C00A0A920A0AB21A0BA220000A0A9802E90DC
:10A0AC001AB0E09018931286977414F0802E901AC0
:10A0BC00B0E09018931286BF7424F0801F901AAFF2
:10A0CC00E02440800C901AAFE024508004901AAF2A
:10A0DC00E0FFA3E09018931286C7EFF07A18799CF2
:0CA0EC00128671FE12DFF9901AB0E0FF3E
:01A0F8002245
:0ACF82008F568C578D588A598B5A30
:10CF8C0015567B017A1A79AC1285B212DDAD90017F
:10CF9C00981286FD7037901AB61285971249D0FFF9
:10CFAC00FFFFFF901AB01285EF1249D0FFFFFFFF71
:10CFBC001285F774FFF0A3F01285EC74FFF0A31246
:10CFCC008593128821E556901AAC02D053900198A3
:10CFDC0012498C901AB01285FA1249C4900137E0AC
:10CFEC00FEA3E0FF1285ECEEF0A3EFF09001B81277
:10CFFC00498C901AB61286951249C4900146E0FEEF
:10D00C00A3E0FF1285F7EEF0A3EF128593E557F03E
:10D01C00A3E558F09004F2E0602275F019E5569003
:10D02C001ABE124A01E0FEA3E0F47002EEF4600CAA
:10D03C00128692E559F0A3E55AF0801312869212EB
:10D04C008821E556901ABE124A0174FFF0A3F07BBA
:0CD05C00017A1A79AC128673FE02DFF92B
:10C04D00E4901A65F0A31287D91285B312DDADE421
:10C05D00901A65F0A3F0901A65E0FEA3E0FFC3947B
:10C06D0015EE9400400302C1C490185312856BFE67
:10C07D00A3E0F47002EEF4700302C1BB901A65E008
:10C08D00FEA3E090185B75F01912856FFCA3E0F428
:09C09D007002ECF4600302C1B270
:10C0A600901A65E0FCA3E0FD901853128582EC120D
:10C0B6008573FBA3E0901A63CBF0A3EBF0901865B1
:10C0C6001286BEEC128573FDA3E090184FCDF0A347
:10C0D600EDF090186712856BFFA3E0901851CFF032
:10C0E600A3EF1287D9901A63E0F560A3E01285B535
:10C0F60012DDAD90185312498C90019812889390D6
:10C106000137CFF0A3EFF01288CC128748FEC39018
:10C116001A64E09F901A63E09E400302C1B2128740
:10C12600DAE0F560A3E01285B512DDAD74FFFFFE1F
:10C13600FDFC90185312870370691287DA901A640F
:10C14600E024FFF561901A63E034FFF5607F107E0E
:10C156000212DDAD90185312498C9001B8128893E3
:10C16600900146CFF0A3EFF0901851E0B4FF12A370
:10C17600E0B4FF0D90184FE0FFA3E0A3CFF0A3EFCC
:10C18600F0901A65A3E004FF901A64E024FFFD9086
:10C196001A63E034FFFC901851E0FAA3E0FB12CFDB
:0CC1A600828009901A6312886802C10DA3
:10C1B2001287DA1285B212DDAD901A651288680212
:02C1C200C06358
:01C1C4002258
:0281D4008F49D1
:1081D6009004BD12883A901ACCE4F074051285AA70
:1081E60012DDADE4901AD3F01287B35035128563D1
:1081F600FCA3E0F47002ECF460239018BE12856BC9
:10820600FCA3E0FD9018BC12856BFEA3E0B5050D3E
:10821600EEB50409901AD3E004FF12C8DD1288D324
:1082260080C61285AC12DDAD12873212886F1287B6
:10823600B35079128563FCA3E0F47002ECF4606637
:108246009018BC12856BFEA3E0FF1287D0B50725F8
:10825600ECB50621901AD3E0FF9018BE128567FE92
:10826600A3E02401FFE43E12887B128732901AD3E2
:1082760074FFF08031901AD3E0FF128564FAA3E010
:10828600D39DEA9C40209018BC12856B128847C388
:10829600EF9DEE9C501012889E9018BC1286BEEC84
:1082A6001285731287E11288D3028234901ACEE0C7
:1082B600641570339004BD1287F96E7003A3E06FE6
:1082C6007003028399E549600CE4FF12E18D7AE6BA
:1082D6007960128547901ACC1287F9FCA3E0FDABB2
:0782E6004912DEDC0283995E
:1082ED00901ACEE0FF9018BC1286F4E0FDA3E0904A
:1082FD00189812885490189ACDF0A3EDF09018BEEE
:10830D0012875F601FE4FF12E18D7566FF7567E6EA
:10831D007568691288037A18799C127A037A18792C
:10832D009C128555901898E0FFA3E0901896CFF019
:10833D00A3EFF012882A901896E0FCA3E0FDD39FDE
:10834D00EC9E501D12881212DDADE475F0011287FE
:10835D00BE1286787E0012DFF9901896128868801A
:10836D00D21285AC12DDAD90189A1288A99018BC66
:10837D001287511288DA24FFFF901ACCE034FF9057
:09838D0018BE128660FE12DFF931
:1083960002822E90146312883A1288CCFE12874904
:1083A600901ACCF0CE1285AA12DDAD901463128716
:1083B6003512886F1287B3400302845F128563FC0F
:1083C600A3E0F47002ECF470030284599018CE1204
:1083D600856BFEA3E0F47002EEF46077901AD3E0AA
:1083E600F93395E0FE9018CE12856BFCA3E0FD9064
:1083F6001ACCE0FAA3E0FBB50524EAB504209018F0
:10840600D012856BFEA3E024FFFFEE34FF12887BBB
:10841600901463128735901AD374FFF08035E9FF04
:108426003395E0FE9018CE12856BFCA3E0C39BEC5F
:108436009A50209018CE12856B128847D3EF9DEE86
:108446009C401012889E9018CE1286BEEC12857340
:108456001287E11288D30283BA901ACEE0641570AF
:108466002C9014631287F96E7003A3E06F700302F9
:108476008546E549600CE4FF12E18D7AE6797412CF
:0D848600854712882A1287D07B0102DEDCB8
:10849300901ACEE0FF9018CE128759E0FDA3E0902A
:1084A30018AB1288549018ADCDF0A3EDF09018D00E
:1084B30012875F601FE4FF12E18D7566FF7567E643
:1084C3007568801288037A1879AF127A037A18795B
:1084D300AF1285559018ABE0FFA3E09018A9CFF039
:1084E300A3EFF012882A9018A9E0FCA3E0FDC39F34
:1084F300EC9E402112881212DDAD74FFF5F0128755
:10850300BE1286787E0012DFF99018A974FFF5F089
:108513001246BC80CE1285AC12DDAD9018AD128828
:10852300A975F0199018CE124A011288DA2401FFB6
:10853300901ACCE034009018D0128660FE12DFF956
:038543000283B1FF
:10854600227BFFE4F55675572D7F0112D068227BFA
:0D85560001E4F55675572D7F0112D0682203
:02C8DD008F4A80
:10C8DF001288611285B212DDAD901ABB128580E00D
:10C8EF00FEA3E0F47002EEF4601F12857DE0FEA35C
:10C8FF00E0F47002EEF46011901ABB12858BE0FE2B
:10C90F00A3E0FF12857D12C9D41288611285B2127D
:10C91F00DDAD128588E0FEA3E0F47002EEF4601C3A
:10C92F0012859FE0FEA3E0F47002EEF4600E128514
:10C93F009FE0FEA3E0FF12858812C9D41288CC12A3
:10C94F008748FE7C00EF254AFFEC3EFE12EA3A12C2
:10C95F0088611285B212DDAD12859F74FFF0A3F0CE
:10C96F0012858874FFF0A3F012857D74FFF0A3F099
:10C97F00901ABB1285A274FFF0A3F0901AC512860D
:10C98F008A1249D0FFFFFFFF901ABF12868A124901
:10C99F00D0FFFFFFFF901AC91286C574FFF0A3F0F6
:10C9AF00901AC31286C574FFF0A3F0901ACC1287A9
:10C9BF0057E4F0901ACB128757E4F0128861128671
:05C9CF0074FE02DFF917
:0BC9D400E0FCA3E0FDE4FB12DEDC222F
:10745A001286CDF5607561017F107E0212DDAD12D4
:10746A0086FA6003027509754A019018BDF09018F2
:10747A00BCF09018BBF09018BF7480F09018BE74DE
:05748A0002F0E4F549E9
:10748F0078967C187AE679981286E5244190189CB4
:10749F00F0E54975F010A424C0F974181287287A02
:0674AF00187996124BE271
:0A74B5000549E549B40CD3E4F5499C
:1074BF00789E7C187D017BFF7AE679A07F05128686
:1074CF00EB24419018A1F0E54975F016A42480F93A
:1074DF0074191287287A18799E124BE275F016905C
:0F74EF00199012861712869D741BF0A37458F023
:1074FE000549E549640C70B90275A69018BBE0D336
:10750E00940C4005E4F0754A019018BCE0D3941039
:10751E004005E4F0754A019018BDE0D3940C400587
:10752E00E4F0754A01E4F549128775FF12F2454001
:10753E0015128775601075F010E5499018C0124A43
:10754E0001E4F0754A010549E549C3940C40D9E4BC
:10755E00F5499019801286B5E0FF12F2454030755C
:10756E00F01690198012877B602575F016E549900C
:10757E001980124A01E4F075F016E549901990123F
:10758E00861912869D741BF0A37458F0754A010576
:10759E0049E549C3940C40BAE54A60111286D0758C
:1075AE0062007563011286787E0012DFF91286D0B2
:1075BE007560007561027F107E0212DDADE4F54A42
:1075CE009018BBE0F4704FA3E0F4704A754A01F5D1
:0175DE004963
:1075DF0078A37C187AE679A57F07128887244190D3
:1075EF0018A8F075F01C1287207A1879A3124BE2B5
:1075FF001287821249D0000000009018CB128785A5
:0B760F001249D000000000128602F0BB
:10761A000549E549641070BD804DE4F54975F01CD3
:10762A00128682E0FF12F245403475F01C128682FF
:10763A00E0602B75F01C128682E4F01287821249F0
:10764A00D00000000075F01CE5499018CB124A01E1
:10765A001249D000000000128602F0754A0105495D
:10766A00E549C3941040B6E54A60111286D07562A6
:10767A00007563021286787E0012DFF91286CDF554
:10768A00607561047F107E0212DDAD9018BBE0F4D4
:10769A006003027739A3E0F46003027739754A017F
:1076AA00F54975F00CE5499018BF124A011249D004
:1076BA000000000075F00C1286821249D00000000A
:1076CA000075F00CE5499018C3128619F075F00C94
:1076DA00E5499018C5128619F00549E549B410C262
:0376EA00E4F5497B
:1076ED0075F014E54990197D128619F075F014E5C1
:1076FD004990197B128619F0F54BF54CE54C25E0B8
:10770D00FFE54B33FE75F014E54990197F124A01E0
:10771D001288B4E4F0A3F0054CE54C7002054B64FF
:05772D0008454B70D778
:107732000549E549B40CB4E54A60111286D0756278
:10774200007563041286787E0012DFF9E4F54AF5CB
:0177520049ED
:107753001286CD901462E024FC128748FE7C00EF71
:107763002549F561EC3EF5607F107E0212DDADE444
:10777300F54BF54C12870A12498C74FFFBFAF9F8A2
:06778300C3124915703D20
:10778900754A01F54DF54EE54EAE4D7802C333CE3F
:1077990033CED8F9FF12870A1288B41249D00000F3
:1077A9000000054EE54E7002054D6420454D70D729
:0D77B90090193B12870D1249D0FFFFFFFF12
:1077C600054CE54C7002054B6404454B70A3E54A35
:1077D60060201286D0901462E024FC128748FE7C5A
:1077E60000EF2549F563EC3EF5621286787E0012BD
:0277F600DFF9B9
:1077F8000549E549C3940450030277531286CDF531
:10780800607561037F107E0212DDAD1286FA600397
:08781800027914754A01F549DB
:1078200078AA7C187AE679AC1286E524309018B0F4
:10783000F075F0281287207A1879AA124BE2E549F0
:1078400075F028A424C7F9741835F0A8017AE679F0
:107850008B12864E9018D31285E41286D71249D027
:10786000000000009018D81286DD1249D041A00017
:107870000012878D1249D041A000001285C674F80D
:01788000F017
:0B7881000549E54964047097E4F549EF
:10788C0078B27C187AE679B47F0912888724309014
:10789C0018B9F0E54975F024A4245BF97419128722
:0B78AC00287A1879B2124BE2128620F5
:1078B7000549E549B407CEE4F54975F005E5499072
:1078C7001A59128619F075F005E549901A5712866C
:1078D70019F075F005E549901A5B124A017401F039
:1078E7000549E549B402D3E4F54974612549F582B0
:1078F700E4341AF583E4F00549E549B402EC901A3B
:10790700617403F0901A637405F0027991E4F54904
:1079170012867FE0FF12F245404012867FE0603A10
:1079270012867FE4F09018D31287901286D71249F7
:10793700D00000000075F028E5499018D8124A01D8
:107947001249D041A0000012878D1249D041A000F2
:10795700001285C674F8F0754A010549E549C394D4
:107967000440ADE4F549128798E0FF12F245401153
:10797700128798E0600B128798E4F0128620754A08
:10798700010549E549C3940740DCE54A60111286C1
:0F799700D07562007563031286787E0012DFF9E7
:0179A60022BE
:103EB200024278E86480F8E933E83360110460F084
:103EC200ED33EC337009E8FCE9FDEAFEEBFF220476
:103ED20060DED3EB9FEA9EE99DE8C2E78CF0C2F771
:103EE20095F0400CE8CCF8E9CDF9EACEFAEBCFFB3D
:103EF20012424385D0F05804700320D5B3E8047011
:103F0200075002B2D502428292D5EC0460F7E4CCAB
:103F1200C0E0C398F8603B94186008400DD0E0FB05
:103F220002425AE4FBFAC9FC8028E830E406E4C9FC
:103F3200FBE4CAFCE830E305E4C9CACBFCE8540759
:103F42006010F8C3E913F9EA13FAEB13FBEC13FC64
:103F5200D8F130F52FC3E49CFCEF9BFFEE9AFEED07
:103F620099FDD0E0FBEF4E4D4C701222DB03024272
:103F72007FEC2CFCEF33FFEE33FEED33FDED30E74B
:103F8200EB02425AEF2BFFEE3AFEED39FDD0E0FB99
:103F920050130BBB0003024282ED13FDEE13FEEF42
:083FA20013FFEC13FC02425A6C
:103FAA00EC4D6011E8497017ED33EC3304600DE411
:103FBA00FCFFFEFD22E933E8330470F8024278126E
:103FCA00424358046009E4CC24815006285009026F
:103FDA00428228400302427FC0E0EB4A7044B98023
:103FEA0006D0E0FB02426EEF4E701CBD8008EBFF6C
:103FFA00EAFEE9FD80EBE98DF0A4FEE5F0024093CC
:10400A00E9CDF9EAFEEBFFEF89F0A4FCE5F0CE89F1
:10401A00F0A42EFFE435F0CD89F0A42DFEE435F0AE
:10402A008067EF4E7005BD80D780C3EF8BF0A4ACDC
:10403A00F0EE8BF0A42CFCE435F0F8EF8AF0A42C17
:10404A00E5F038FCE433CB8DF0A42CFCE5F03BF82A
:10405A00EE8AF0A42CFCE5F038F8E433CF89F0A41A
:10406A002CFCE5F038CF3400CE89F0A42FFFE5F020
:10407A003EFEE433C98DF0A42EFEE5F039CD8AF078
:10408A00A42FFFE5F03EFEE43DFD33D0E0FB5007F0
:10409A000BBB000F024282EC2CFCEF33FFEE33FE27
:0640AA00ED33FD02425A55
:1040B000024282EC5D046005E85904700302427814
:1040C000124243580460F6EC4860F2EC7004FDFEC6
:1040D000FF22C860DB2481C85009C39860025006E3
:1040E00002427F9850CAF582E9294B4A7005AB829B
:1040F00002426E75F0007C1A7880C3EF9BEE9AED59
:1041000099400DC3EF9BFFEE9AFEED99FDE842F05A
:10411000DC23ACF0D0E0FFD0E0FED0E0FDAB8220AD
:10412000E7101BEB60BAEC2CFCEF33FFEE33FEED37
:1041300033FD02425AE803F830E705C0F075F0009D
:10414000EF2FFFEE33FEED33FD40B830E7C280AA1B
:1041500074F8CC6480CCC86480C8F582046043C322
:10416000EB9FF5F0EA9E42F0E99D42F0E89C45F0B5
:1041700060305018E5825FFFE582F42B5582FB50DA
:10418000210ABA001D09B90019088016E5825BFBF7
:10419000E582F42F5582FF50090EBE00050DBD00CB
:1041A000010CC3EB9FF5F0EA9E42F0E99D42F0E876
:0D41B0009C45F06007CC4820E701B3EC22ED
:1041BD00ED33EC33600A047003BD8004ECB2E7FC10
:0141CD0022CF
:1041CE0075F020800E75F010800575F0087D007E6C
:1041DE00007F003392D530D503124907EC334010DF
:1041EE00EF33FFEE33FEED33FDEC33FCD5F0ED2275
:0E41FE00E5F0247EA2D513CC92E7CDCEFF22B1
:10420C00EDD2E7CD33EC3392D524814006E4FFFEAA
:10421C00FDFC22FCE4CFCECDCC24E0501174FF8009
:10422C00EDC3CC13CCCD13CDCE13CECF13CF0470A6
:07423C00F030D5DE02490756
:1079A700E57A2466F8E6057A227863300702786676
:1079B700E475F001124A160245722000EB7F2ED2C1
:1079C700008018EF540F2490D43440D4FF30040BB8
:1079D700EF24BFB41A0050032461FFE57B60021552
:1079E7007B057EE57E7002057D30070D7863E475C3
:1079F700F001124A16EF0245EB02F0407403D2077A
:107A07008003E4C207F57A8B638A648965E4F57BB2
:107A1700F57DF57EE57B60077F201279E280F575BD
:107A27007CFFC201C200C202C203C205C206C2086D
:107A37001279B0FF700D3007057F001279F3AF7E22
:107A4700AE7D22B4255FC2D5C2041279B0FF24D01F
:107A5700B40A00501A75F00A787B30D50508B6FFCE
:107A67000106C6A426F620D5047002D20380D924C5
:107A7700CFB41A00EF5004C2E5D204027CE0D20171
:107A870080C6D20080C0D20280BCD2D580BAD205CF
:107A970080B47F201279E22002077401B57B004091
:107AA700F11279A7FF1279E2027A1BD208D2068077
:107AB700951279A7FB1279A7FA1279A7F94A4B70A1
:107AC7000679D77A7D7BFF20022EE57B602A7E0030
:107AD7008E8275830012458B60060EEE657C70F012
:107AE700C2D5EBC0E0EAC0E0E9C0E0EE127D40D0CD
:107AF700E0F9D0E0FAD0E0FB124572FF60AAEBC0D4
:107B0700E0EAC0E0E9C0E01279E2D0E02401F9D070
:107B1700E03400FAD0E0FBE57C0460DCD57CD9805A
:107B270087D20280A2127D2360F7E57C70010412E0
:107B3700428DA97C600DE57C600914F57C127DCA35
:107B4700EF60F3EA30E702F404C3995077EAF425CB
:107B57007C0430E701E404F57C800D127D2360C1CD
:107B6700EA057C257C12428DEA7879F630E701E454
:107B7700257C04D57C0420050114127D40E4C0E077
:107B8700127DCA7879E6601320E70714F61279CADE
:107B9700802204F6D0E014C0E07F001279CAE57CA9
:107BA70060071279C1157C800B3005031279C1D0AB
:107BB700E0027A1BD0E00480C5127D2360A0E57C3B
:107BC7000412428D7879EAF6E57C2005026001040B
:057BD7002404127D40B2
:107BDC0074FF04C0E0127DCA1279CAE57C2005024C
:107BEC0060031279C1D0E0B57CE87F451279D47876
:107BFC0079E67F2B30E7047F2DF404C0E01279E2A4
:107C0C00D0E075F00A84C0F01279CBD0E01279CBB9
:107C1C00027A1B791080027908C206C2088008D249
:107C2C00D5790A8004790AC2D5E57C047002F57C0A
:107C3C00E4FAFDFEFF1279A7FC7B082001131279F0
:107C4C00A7FD7B1030000A1279A7FE1279A7FF7BE3
:107C5C0020EC3382D592D55013C3E43000069FFF3D
:107C6C00E49EFEE42001039DFDE49CFCE4CBF8C201
:107C7C0001EC700CCFCECDCCE824F8F870F3801763
:107C8C00C3EF33FFEE33FEED33FDEC33FCEB33FB94
:107C9C00994002FB0FD8E9EB300105F8D0E0C4485D
:107CAC00B201C0E00AEC4D4E4F78207B0070C2EA66
:107CBC00B57C0040BCC0E0127D42D0F0D0E0200189
:107CCC0004C4C0E0C4B201C0F01279CBD0F0D5F03E
:107CDC00EB027A1B124AEA7AB8537C1F587A894C09
:107CEC007A85427C234F7C2B447C2B497A9E437CA7
:107CFC0031557B62467BC0457B2C477DF7507A8D96
:107D0C002D7A912E7AB42B7A95237AB2207DE02AA3
:107D1C007A4D4800007AACE57CB4FF03757C061202
:107D2C0079A7FC1279A7FD1279A7FE1279A7FF7823
:107D3C00720242BC790AA2D5200314300509B9108D
:107D4C00020404B9080104A2D52006025001042043
:107D5C0002689202B57B005034C0E07F20300319DA
:107D6C007F30A20272067205500F127D99C202C2B8
:107D7C0006C205C2087F30800F300503E9C0E0124F
:107D8C0079E2300503D0E0F9D0E0B57BCC300517B3
:107D9C007F30B9100C1279E27F583004077F78805D
:107DAC0003B908031279E23002057F2D0279E27FD4
:107DBC00202008F87F2B2006F322920280CF7F0030
:107DCC00B4070050052472F8E6FF22286E756C6C1F
:107DDC002900D2011279A73001F8C201787B30D585
:107DEC000108F6027A4D2D504349581279A7240305
:107DFC00B405004001E4907DF2931279D3743A12E9
:0A7E0C0079D3D203757B04027C1FBA
:10DB2F0002427822EDA2E7D2E7F9EC3340F260F33C
:10DB3F00B4FF08ED547F70E8024282F82481C2E0FE
:10DB4F00C0E0F40428FAC313FCED92E7FD8C558D69
:10DB5F00568E578F58EEA2E7E9BA7F02C3133400EF
:10DB6F009400FA75F091A4E5F013F494FE8AF0A4F2
:10DB7F0033E5F033248CD313FDE492E7FE7F007C72
:10DB8F003F758302ECC0E0F8EDC0E0F9EEC0E0FABB
:10DB9F00EFC0E0FBAC55AD56AE57AF581240B3D007
:10DBAF00E0FBD0E0FAD0E0F9D0E0F8123EB9ED6436
:10DBBF0080FD30E7011CD583CBED33CC33F8D0E0BB
:0ADBCF00A2E71328C313CC13FD22B4
:10E30B008F5A8E598D588C57AB5EAA5DA95CA85B52
:10E31B001240B312C4A88F5A8E598D588C57E55B97
:10E32B0030E747ECC0E0EDC0E0EEC0E0EFC0E0E46A
:10E33B00FFFEFDFCAB5AAA59A958A8571241507BB6
:10E34B00DB600250087A0F7949784080067A0F79A2
:10E35B004978C0D0E0FFD0E0FED0E0FDD0E0FC1269
:10E36B003EB98F5A8E598D588C57AF5AAE59AD58FE
:03E37B00AC57227A
:10C1C5003A70FA83BCAAE9E43E81E0F8BF9DE9E64E
:10C1D5003F80000039283C1ABB9969663DA335E3C9
:10C1E500BF255DE73FC90FDB418DDBCCC44936EE8A
:10C1F50045C9913FC5B0F83D3F800000C317F534F0
:10C20500452FFA73C60AFDDD12C2B404A2E19200FD
:10C215001420E01590C1C574041243BF802612C2D4
:10C22500B430E102B20020E0EB8C528D538E548F76
:10C235005590C1D974041243BFA852A953AA54AB4F
:10C2450055123FAAED4C6007300004EC6480FC22D7
:10C2550012C2B4C0E08C528D538E548F5590C1FDDF
:10C2650074031243BFA852A953AA54AB55123FAA4F
:10C27500ECC552FCEDC553FDEEC554FEEFC555FFAB
:10C2850090C1ED74031243BFD082A852A953AA549A
:10C29500AB55E58230E0071240B3B20080A6EFCB84
:10C2A500FFEECAFEEDC9FDECC8FC1240B38095ED6A
:10C2B50033EC547FCC33920024605007D0E0D0E0BB
:10C2C5000242787B837AF97922783E123FAAEDF90A
:10C2D50033ECF83324815011EFFBEEFA12420C12C5
:10C2E50041CEECB2E7FC123EB9ED33EC33602F24BE
:10C2F50003F8C313FCED92E7FDE82481E4501FEC3D
:10C30500F8EDF9EEFAEFFB12420CEF04C2E0FCF592
:10C31500821241D8ECB2E7FC123EB9E58203FAED90
:0EC3250033EC3360071413FCED92E7FDEA22BF
:10424300E9D2E7C933E833F892D5EDD2E7CD33ECC1
:0742530033FC5002B2D5223A
:10425A00EC30E7100FBF000C0EBE00080DBD0004C5
:10426A000BEB6014A2D5EB13FCED92E7FD2274FF71
:10427A00FCFDFEFF22E480F8A2D574FF13FC7D80CA
:03428A00E480EFDE
:10428D00F920E72824F950037907E4F42402FB18F8
:10429D00DBFDE624FB5014E9600DE4F618E604F6A8
:0F42AD00B40A08E4F6D9F57401F60A22C2D52244
:1042BC00ED33EC3392D5FA602AB4FF33EDC2E77BD1
:1042CC00FF60067A4279E1E4227A4279EA20D50449
:1042DC007A4279E5224E614E002B494E46002D491B
:1042EC004E4600E47A08F608DAFC7B00740722E8F4
:1042FC00C0E0ECC0E0EDC0E0EEC0E0EFC0E0EA757D
:10430C00F010A4CAABF075F04DA42BFBE435F0FC17
:10431C00EA2410FAEB34C5FBEC34D9FCEDC2E7FF10
:10432C0075F056A4F42411C5F0F434C58FF0A42A0A
:10433C00E5F03BE43CF620E71412443CD0E0FFD01F
:10434C00E0FED0E0FDD0E0FC1240B38014F4041287
:10435C00443CD0E0FFD0E0FED0E0FDD0E0FC123FCA
:10436C00AAD0E0F8E6FAEDD2E7CD33EC332482FBA9
:10437C00E4C3CF33CFCE33CECD33CD33DBF37B079A
:10438C0075F00A846004F6081B0AE5F0F6088FF055
:10439C00740AA4FFACF08EF0740AA42CFEACF0509E
:1043AC00010C8DF0740AA42CFDE435F0F608DBDE6C
:0343BC0074072261
:1043BF00C0E0EFFBEEFAEDF9ECF8123FAAD0E0F512
:1043CF00F0EFFBEEFAEDF9ECF8124998A3A3A3A3D3
:1043DF00E8C0E0E9C0E0EAC0E0EBC0E0C0F0123FA7
:1043EF00AA1249B4A3A3A3A3123EB9D0F0D0E0FB05
:0D43FF00D0E0FAD0E0F9D0E0F8D5F0D422FB
:10C48800BE1249253E4CCCCDBEAAAAAB3F800000C7
:10C498003E7ADBB03EED63383F24BC7D3F490FDB7D
:10C4A800ED33ECC2E7CC339200B4FF13ED547F6058
:10C4B800030242787FDB7E0F7DC97C3F02C5A3C2A1
:10C4C80001C3947F401E7007EDD2E794904015EFAA
:10C4D800FBEEFAEDF9ECF87F007E007D807C3F12E0
:10C4E80040B3D201ED33EC33248430E705E4C0E0F7
:10C4F800806D04FAEDD2E754F0C333DAFD54073403
:10C50800002323C0E0CCC0E0F8EDC0E0F9EEC0E0C5
:10C51800FAEFC0E0FBE41241D8EC24FEFC8C5F8DFE
:10C52800608E618F62123FAA7B007A007980783F23
:10C53800123EB9ECC55FB2E7FCEDC560FDEEC56122
:10C54800FEEFC562FFD0E0FBD0E0FAD0E0F9D0E022
:10C55800F8123EB9A85FA960AA61AB621240B38C19
:10C568005F8D608E618F6290C48874031243BFA888
:10C578005FA960AA61AB62123FAAD0E0600F249461
:10C58800F582E434C4F5831249B4123EB930010B84
:10C598007BDB7A0F79C978BF123EB9ED33EC336093
:08C5A80006ECA20092E7FC2260
:10440C003F8000004120000042C80000447A0000B8
:10441C00461C400047C35000497424004B1896803A
:10442C004CBEBC205A0E1BCA6753C21C749DC5AE31
:10443C00FB60065407601C232312446AEB5438605B
:10444C0009124456124465123FAAECF8EDF9EEFA43
:10445C00EFCB22EB12446580F1543803241C9044BA
:10446C000CFE93FC0EEE93FD0EEE930ECE93FF22FC
:0300000002DF6DAF
:0CDF6D00787FE4F6D8FD75818002DFB4F7
:10447C00E709F608DFFA8046E709F208DFFA803E22
:10448C0088828C83E709F0A3DFFA8032E309F6080F
:10449C00DFFA8078E309F208DFFA807088828C8377
:1044AC00E309F0A3DFFA806489828A83E0A3F6082B
:1044BC00DFFA805889828A83E0A3F208DFFA804C05
:1044CC0080D280FA80C680D4806980F280338010DC
:1044DC0080A680EA809A80A880DA80E280CA803345
:1044EC0089828A83ECFAE493A3C8C582C8CCC583BD
:1044FC00CCF0A3C8C582C8CCC583CCDFE9DEE7808D
:10450C000D89828A83E493A3F608DFF9ECFAA9F00B
:10451C00EDFB2289828A83ECFAE0A3C8C582C8CC61
:10452C00C583CCF0A3C8C582C8CCC583CCDFEADE7A
:10453C00E880DB89828A83E493A3F208DFF980CCDC
:10454C0088F0EF60010E4E60C388F0ED2402B404D5
:10455C000050B9F582EB2402B4040050AF2323457C
:06456C0082239044CC7391
:10457200BB010689828A83E0225002E722BBFE0247
:09458200E32289828A83E493227A
:10458B00BB010CE58229F582E5833AF583E02250E5
:10459B0006E92582F8E622BBFE06E92582F8E2222F
:0D45AB00E58229F582E5833AF583E4932249
:1045B800BB010FF8E58229F582E5833AF583E02807
:1045C800F0225009C58229F8E58226F622BBFE09A9
:1045D800C58229F8E22582F222F8EA2583F583E9E3
:0345E800932822F3
:1045EB00BB010689828A83F0225002F722BBFE01AF
:0245FB00F322A9
:1045FD00F8BB010DE58229F582E5833AF583E8F0F4
:10460D00225006E92582C8F622BBFE05E92582C89F
:02461D00F22287
:10461F00EF8DF0A4A8F0CF8CF0A428CE8DF0A42EAF
:02462F00FE2269
:10463100BC000BBE0029EF8DF084FFADF022E4CC6D
:10464100F875F008EF2FFFEE33FEEC33FCEE9DEC36
:10465100984005FCEE9DFE0FD5F0E9E4CEFD22ED7C
:10466100F8F5F0EE8420D21CFEADF075F008EF2FC6
:10467100FFED33FD4007985006D5F0F222C398FDB7
:054681000FD5F0EA2254
:10468600C2D5EC30E709B2D5E4C39DFDE49CFCEE4F
:1046960030E715B2D5E4C39FFFE49EFE124631C350
:1046A600E49DFDE49CFC800312463130D507C3E44B
:0646B6009FFFE49EFE22BE
:1046BC00C5F0F8A3E028F0C5F0F8E5821582700289
:0646CC001583E038F02226
:1046D200A3F8E0C5F025F0F0E5821582700215839B
:0646E200E0C838F0E822F8
:1046E800BB010A89828A83E0F5F0A3E0225006879D
:1046F800F009E71922BBFE07E3F5F009E31922895F
:0B470800828A83E493F5F07401932291
:10471300BB0110E58229F582E5833AF583E0F5F0E4
:10472300A3E0225009E92582F886F008E622BBFEC1
:104733000AE92582F8E2F5F008E222E5832AF58307
:08474300E993F5F0A3E99322CC
:10474B00BB010789828A830246BC500B09C5F0273F
:10475B00F7C5F01937F722BBFE0D09F8E325F0F387
:10476B00C5F019E338F322F889828A837401932503
:08477B00F0C5F0F8E4933822C8
:10478300BB010A89828A83F0E5F0A3F0225006F781
:0F47930009A7F01922BBFE06F3E5F009F319227E
:1047A200F8BB0111E58229F582E5833AF583E8F049
:1047B200E5F0A3F0225009E92582C8F608A6F02206
:0D47C200BBFE09E92582C8F2E5F008F222ED
:0D47CF00EF2BFFEE3AFEED39FDEC38FC2239
:0E47DC00C3EF9BFFEE9AFEED99FDEC98FC22D8
:1047EA00E88FF0A4CC8BF0A42CFCE98EF0A42CFC6E
:1047FA008AF0EDA42CFCEA8EF0A4CDA8F08BF0A4EC
:10480A002DCC3825F0FDE98FF0A42CCD35F0FCEB4A
:10481A008EF0A4FEA9F0EB8FF0A4CFC5F02ECD390F
:0F482A00FEE43CFCEAA42DCE35F0FDE43CFC227C
:1048390075F008758200EF2FFFEE33FECD33CDCC36
:1048490033CCC58233C5829BED9AEC99E5829840B9
:104859000CF582EE9BFEED9AFDEC99FC0FD5F0D696
:10486900E4CEFBE4CDFAE4CCF9A88222B800C1B9C0
:104879000059BA002DEC8BF084CFCECDFCE5F0CBFE
:10488900F97818EF2FFFEE33FEED33FDEC33FCEB37
:1048990033FB10D703994004EB99FB0FD8E5E4F9F2
:1048A900FA227818EF2FFFEE33FEED33FDEC33FCDF
:1048B900C933C910D7059BE99A4007EC9BFCE99AD3
:1048C900F90FD8E0E4C9FAE4CCFB2275F010EF2F18
:1048D900FFEE33FEED33FDCC33CCC833C810D70718
:1048E9009BEC9AE899400AED9BFDEC9AFCE899F853
:0E48F9000FD5F0DAE4CDFBE4CCFAE4C8F922E6
:10EB1200C2D5E830E70FB2D5E4C39BFBE49AFAE42E
:10EB220099F9E498F8EC30E717B2D512EB4812489D
:10EB320075E4C39BFBE49AFAE499F9E498F880033C
:10EB420012487530D50DE4C39FFFE49EFEE49DFD9F
:04EB5200E49CFC2221
:0E490700C3E49FFFE49EFEE49DFDE49CFC22C1
:10491500EB9FF5F0EA9E42F0E99D42F0EC6480C819
:0649250064809845F022B9
:10492B00EB9FF5F0EA9E42F0E99D42F0E89C45F0E2
:01493B002259
:10493C00BB010789828A8302498C5005E9F8024B36
:10494C00FFBBFE05E9F8024C0B89828A8302499869
:10495C00BB010DE58229F582E5833AF58302498C8A
:10496C005007E92582F8024BFFBBFE07E92582F8C8
:10497C00024C0BE58229F582E5833AF583024998CE
:0C498C00E0FCA3E0FDA3E0FEA3E0FF229E
:10499800E493FC740193FD740293FE740393FF2265
:0C49A800E0F8A3E0F9A3E0FAA3E0FB2292
:1049B400E493F8740193F9740293FA740393FB2259
:0C49C400ECF0A3EDF0A3EEF0A3EFF02266
:1049D000A8828583F0D083D0821249E71249E7127A
:1049E00049E71249E7E473E493A3C583C5F0C5839F
:1049F000C8C582C8F0A3C583C5F0C583C8C582C831
:014A00002293
:0C4A0100A42582F582E5F03583F58322C0
:094A0D00E6FB08E6FA08E6F922CE
:104A1600FAE6FB0808E6F925F0F618E6CA3AF622A1
:094A2600EBF608EAF608E9F622B5
:094A2F00E0FBA3E0FAA3E0F92288
:094A3800EBF0A3EAF0A3E9F0227F
:104A4100BB010789828A83024A2F5005E9F8024A8D
:104A51000DBBFE05E9F8024C1789828A83024C29B5
:104A6100BB010DE58229F582E5833AF583024A2FE0
:104A71005007E92582F8024A0DBBFE07E92582F8B5
:104A8100024C17E58229F582E5833AF583024C2928
:104A9100BB0120E58229F582E5833AF583D0F0D088
:104AA100E0F8D0E0F9D0E0FAD0E0FBE8C0E0C0F0F7
:104AB100024A385018E92582F8D083D082D0E0F933
:104AC100D0E0FAD0E0FBC082C083024A26BBFE18C8
:104AD100E92582F8D083D082D0E0F9D0E0FAD0E0A5
:094AE100FBC082C083024C2022BC
:104AEA00D083D082F8E4937012740193700DA3A35B
:104AFA0093F8740193F5828883E47374029368606F
:064B0A00EFA3A3A380DF6E
:064B10008A838982E47330
:10F04000EFB40A07740D12F04B740A309811A899A6
:10F05000B8130CC2983098FDA899C298B811F63030
:07F0600099FDC299F5992208
:0FF24500EFC394204007EF947F50028001C32253
:104B1600E709F60870FA8046E709F20870FA803E5F
:104B260088828C83E709F0A370FA807EE309F60891
:104B360070FA8076E309F20870FA806E88828C83B8
:104B4600E309F0A370FA806289828A83E0A3F608FB
:104B560070FA805689828A83E0A3F20870FA804A46
:104B660080D280FA80C680D4806580F28031801041
:104B760080A680EA809A80A880DA80E280CA8031A6
:104B860089828A83ECFAE493A3C8C582C8CCC5831C
:104B9600CCF0A3C8C582C8CCC583CC70E9800D898A
:104BA600828A83E493A3F60870F9ECFAA9F0EDFB88
:104BB6002289828A83ECFAE0A3C8C582C8CCC58361
:104BC600CCF0A3C8C582C8CCC583CC70EA80DD8989
:104BD600828A83E493A3F20870F980CE88F0ED24EC
:104BE60002B4040050C4F582EB2402B4040050BAA7
:094BF6002323458223904B6673D2
:10E874008B4A8A4B894CE4F552F553E5511551AE58
:10E8840050700215504E6033AB4DAA4EA94F12453D
:10E8940072FFAB4AAA4BA94C0553E553AC52700224
:10E8A400055214F5828C83EF1245FDEF60CD74019F
:10E8B400254FF54FE4354EF54E80C0AB4AAA4BA91F
:02E8C4004C22E4
:10F1C200E4FFFE124572600C0FEF70010E09E97048
:05F1D200F20A80EF22AB
:10DA81008B498A4A894BAB49AA4AA94B124572FF75
:10DA910012F1EB500D7401254BF54BE4354AF54A73
:10DAA10080E4D200AB49AA4AA94B124572FF642B0C
:10DAB1006004EFB42D1BAB49054BE54BAA4A70023C
:10DAC100054A14F9124572642D6003D38001C39293
:10DAD10000E4F54CF54DAB49AA4AA94B124572FF3A
:10DAE10012F2545036AB49AA4AA94B124572FF3380
:10DAF10095E0FEEF24D0FBEE34FFFAAE4CAF4D7C47
:10DB0100007D0A12461FEF2BF54DEE3AF54C7401DC
:10DB1100254BF54BE4354AF54A80BB300006AE4C47
:0EDB2100AF4D8009C3E4954DFFE4954CFE2204
:10DF7900026163E493A3F8E493A34003F68001F2FA
:10DF890008DFF48029E493A3F85407240CC8C333A9
:10DF9900C4540F4420C8834004F456800146F6DF78
:10DFA900E4800B010204081020408090A38DE47ED8
:10DFB900019360BCA3FF543F30E509541FFEE4936D
:10DFC900A360010ECF54C025E060A840B8E493A334
:10DFD900FAE493A3F8E493A3C8C582C8CAC583CA5F
:10DFE900F0A3C8C582C8CAC583CADFE9DEE780BE17
:01A608000051
:0C4BFF00E6FC08E6FD08E6FE08E6FF22E2
:0C4C0B00E2FC08E2FD08E2FE08E2FF22E5
:094C1700E2FB08E2FA08E2F922CE
:094C2000EBF208EAF208E9F222C5
:0C4C2900E493FB740193FA740293F922E7
:0FF25400EFC394304007EF943A50028001C32279
:10F1EB00EFC394094005EF940E4003BF2003D38077
:03F1FB0001C3222B
:00000001FF
